{
	"contracts/patientrecord.sol": {
		"VotingSoftware": {
			"abi": [
				{
					"inputs": [],
					"stateMutability": "nonpayable",
					"type": "constructor"
				},
				{
					"inputs": [
						{
							"internalType": "uint256",
							"name": "_id",
							"type": "uint256"
						},
						{
							"internalType": "string",
							"name": "_name",
							"type": "string"
						},
						{
							"internalType": "string",
							"name": "_expiryDate",
							"type": "string"
						},
						{
							"internalType": "string",
							"name": "_dose",
							"type": "string"
						},
						{
							"internalType": "uint256",
							"name": "_price",
							"type": "uint256"
						}
					],
					"name": "addMedicine",
					"outputs": [],
					"stateMutability": "nonpayable",
					"type": "function"
				},
				{
					"inputs": [
						{
							"internalType": "string",
							"name": "_disease",
							"type": "string"
						}
					],
					"name": "addPatientDisease",
					"outputs": [],
					"stateMutability": "nonpayable",
					"type": "function"
				},
				{
					"inputs": [],
					"name": "contractOwner",
					"outputs": [
						{
							"internalType": "address",
							"name": "",
							"type": "address"
						}
					],
					"stateMutability": "view",
					"type": "function"
				},
				{
					"inputs": [
						{
							"internalType": "uint256",
							"name": "_medicineId",
							"type": "uint256"
						},
						{
							"internalType": "address",
							"name": "_patientAddress",
							"type": "address"
						}
					],
					"name": "prescribeMedicine",
					"outputs": [],
					"stateMutability": "nonpayable",
					"type": "function"
				},
				{
					"inputs": [
						{
							"internalType": "string",
							"name": "_name",
							"type": "string"
						},
						{
							"internalType": "string",
							"name": "_qualification",
							"type": "string"
						},
						{
							"internalType": "string",
							"name": "_workPlace",
							"type": "string"
						}
					],
					"name": "registerNewDoctor",
					"outputs": [],
					"stateMutability": "nonpayable",
					"type": "function"
				},
				{
					"inputs": [
						{
							"internalType": "string",
							"name": "_name",
							"type": "string"
						},
						{
							"internalType": "uint256",
							"name": "_age",
							"type": "uint256"
						}
					],
					"name": "registerNewPatient",
					"outputs": [],
					"stateMutability": "nonpayable",
					"type": "function"
				},
				{
					"inputs": [
						{
							"internalType": "uint256",
							"name": "_age",
							"type": "uint256"
						}
					],
					"name": "updatePatientDetails",
					"outputs": [],
					"stateMutability": "nonpayable",
					"type": "function"
				},
				{
					"inputs": [
						{
							"internalType": "uint256",
							"name": "_doctorId",
							"type": "uint256"
						}
					],
					"name": "viewDoctorDetails",
					"outputs": [
						{
							"internalType": "uint256",
							"name": "doctorId",
							"type": "uint256"
						},
						{
							"internalType": "string",
							"name": "name",
							"type": "string"
						},
						{
							"internalType": "string",
							"name": "qualification",
							"type": "string"
						},
						{
							"internalType": "string",
							"name": "workPlace",
							"type": "string"
						}
					],
					"stateMutability": "view",
					"type": "function"
				},
				{
					"inputs": [
						{
							"internalType": "uint256",
							"name": "_medicineId",
							"type": "uint256"
						}
					],
					"name": "viewMedicineDetails",
					"outputs": [
						{
							"internalType": "string",
							"name": "name",
							"type": "string"
						},
						{
							"internalType": "string",
							"name": "expiryDate",
							"type": "string"
						},
						{
							"internalType": "string",
							"name": "dose",
							"type": "string"
						},
						{
							"internalType": "uint256",
							"name": "price",
							"type": "uint256"
						}
					],
					"stateMutability": "view",
					"type": "function"
				},
				{
					"inputs": [],
					"name": "viewPatientDataSelf",
					"outputs": [
						{
							"internalType": "uint256",
							"name": "patientId",
							"type": "uint256"
						},
						{
							"internalType": "uint256",
							"name": "age",
							"type": "uint256"
						},
						{
							"internalType": "string",
							"name": "name",
							"type": "string"
						},
						{
							"internalType": "string[]",
							"name": "diseases",
							"type": "string[]"
						}
					],
					"stateMutability": "view",
					"type": "function"
				},
				{
					"inputs": [
						{
							"internalType": "uint256",
							"name": "_patientId",
							"type": "uint256"
						}
					],
					"name": "viewPatientDatabyDoctor",
					"outputs": [
						{
							"internalType": "uint256",
							"name": "patientId",
							"type": "uint256"
						},
						{
							"internalType": "uint256",
							"name": "age",
							"type": "uint256"
						},
						{
							"internalType": "string",
							"name": "name",
							"type": "string"
						},
						{
							"internalType": "string[]",
							"name": "diseases",
							"type": "string[]"
						}
					],
					"stateMutability": "view",
					"type": "function"
				},
				{
					"inputs": [
						{
							"internalType": "address",
							"name": "_patientAddress",
							"type": "address"
						}
					],
					"name": "viewPatientMedicines",
					"outputs": [
						{
							"internalType": "uint256[]",
							"name": "meds",
							"type": "uint256[]"
						}
					],
					"stateMutability": "view",
					"type": "function"
				}
			],
			"devdoc": {
				"kind": "dev",
				"methods": {},
				"version": 1
			},
			"evm": {
				"assembly": "    /* \"contracts/patientrecord.sol\":56:6984  contract VotingSoftware{... */\n  mstore(0x40, 0x80)\n    /* \"contracts/patientrecord.sol\":1172:1173  0 */\n  0x00\n    /* \"contracts/patientrecord.sol\":1150:1173  uint256 doctorCount = 0 */\n  0x01\n  sstore\n    /* \"contracts/patientrecord.sol\":1229:1230  0 */\n  0x00\n    /* \"contracts/patientrecord.sol\":1206:1230  uint256 patientCount = 0 */\n  0x02\n  sstore\n    /* \"contracts/patientrecord.sol\":1288:1289  0 */\n  0x00\n    /* \"contracts/patientrecord.sol\":1264:1289  uint256 medicineCount = 0 */\n  0x03\n  sstore\n    /* \"contracts/patientrecord.sol\":185:242  constructor() {... */\n  callvalue\n  dup1\n  iszero\n  tag_1\n  jumpi\n  0x00\n  dup1\n  revert\ntag_1:\n  pop\n    /* \"contracts/patientrecord.sol\":225:235  msg.sender */\n  caller\n    /* \"contracts/patientrecord.sol\":209:222  contractOwner */\n  0x00\n  dup1\n    /* \"contracts/patientrecord.sol\":209:235  contractOwner = msg.sender */\n  0x0100\n  exp\n  dup2\n  sload\n  dup2\n  0xffffffffffffffffffffffffffffffffffffffff\n  mul\n  not\n  and\n  swap1\n  dup4\n  0xffffffffffffffffffffffffffffffffffffffff\n  and\n  mul\n  or\n  swap1\n  sstore\n  pop\n    /* \"contracts/patientrecord.sol\":56:6984  contract VotingSoftware{... */\n  dataSize(sub_0)\n  dup1\n  dataOffset(sub_0)\n  0x00\n  codecopy\n  0x00\n  return\nstop\n\nsub_0: assembly {\n        /* \"contracts/patientrecord.sol\":56:6984  contract VotingSoftware{... */\n      mstore(0x40, 0x80)\n      callvalue\n      dup1\n      iszero\n      tag_1\n      jumpi\n      0x00\n      dup1\n      revert\n    tag_1:\n      pop\n      jumpi(tag_2, lt(calldatasize, 0x04))\n      shr(0xe0, calldataload(0x00))\n      dup1\n      0xcc7fa220\n      gt\n      tag_15\n      jumpi\n      dup1\n      0xcc7fa220\n      eq\n      tag_9\n      jumpi\n      dup1\n      0xce606ee0\n      eq\n      tag_10\n      jumpi\n      dup1\n      0xd5cfcb06\n      eq\n      tag_11\n      jumpi\n      dup1\n      0xdcd0c2b2\n      eq\n      tag_12\n      jumpi\n      dup1\n      0xeddf3774\n      eq\n      tag_13\n      jumpi\n      dup1\n      0xf770da3a\n      eq\n      tag_14\n      jumpi\n      jump(tag_2)\n    tag_15:\n      dup1\n      0x46216098\n      eq\n      tag_3\n      jumpi\n      dup1\n      0x5ef2322d\n      eq\n      tag_4\n      jumpi\n      dup1\n      0x75f49529\n      eq\n      tag_5\n      jumpi\n      dup1\n      0x791264ad\n      eq\n      tag_6\n      jumpi\n      dup1\n      0xa9ed3ff9\n      eq\n      tag_7\n      jumpi\n      dup1\n      0xba5e7f7f\n      eq\n      tag_8\n      jumpi\n    tag_2:\n      0x00\n      dup1\n      revert\n        /* \"contracts/patientrecord.sol\":1653:2256  function registerNewDoctor(string memory _name, string memory _qualification, string memory _workPlace) public {... */\n    tag_3:\n      tag_16\n      0x04\n      dup1\n      calldatasize\n      sub\n      dup2\n      add\n      swap1\n      tag_17\n      swap2\n      swap1\n      tag_18\n      jump\t// in\n    tag_17:\n      tag_19\n      jump\t// in\n    tag_16:\n      stop\n        /* \"contracts/patientrecord.sol\":2295:2803  function registerNewPatient(string memory _name, uint256 _age) public {... */\n    tag_4:\n      tag_20\n      0x04\n      dup1\n      calldatasize\n      sub\n      dup2\n      add\n      swap1\n      tag_21\n      swap2\n      swap1\n      tag_22\n      jump\t// in\n    tag_21:\n      tag_23\n      jump\t// in\n    tag_20:\n      stop\n        /* \"contracts/patientrecord.sol\":3173:3642  function addMedicine(uint256 _id, string memory _name, string memory _expiryDate, string memory _dose, uint256 _price) public {... */\n    tag_5:\n      tag_24\n      0x04\n      dup1\n      calldatasize\n      sub\n      dup2\n      add\n      swap1\n      tag_25\n      swap2\n      swap1\n      tag_26\n      jump\t// in\n    tag_25:\n      tag_27\n      jump\t// in\n    tag_24:\n      stop\n        /* \"contracts/patientrecord.sol\":6112:6457  function viewPatientMedicines(address _patientAddress) public view... */\n    tag_6:\n      tag_28\n      0x04\n      dup1\n      calldatasize\n      sub\n      dup2\n      add\n      swap1\n      tag_29\n      swap2\n      swap1\n      tag_30\n      jump\t// in\n    tag_29:\n      tag_31\n      jump\t// in\n    tag_28:\n      mload(0x40)\n      tag_32\n      swap2\n      swap1\n      tag_33\n      jump\t// in\n    tag_32:\n      mload(0x40)\n      dup1\n      swap2\n      sub\n      swap1\n      return\n        /* \"contracts/patientrecord.sol\":2843:3144  function addPatientDisease(string memory _disease) public {... */\n    tag_7:\n      tag_34\n      0x04\n      dup1\n      calldatasize\n      sub\n      dup2\n      add\n      swap1\n      tag_35\n      swap2\n      swap1\n      tag_36\n      jump\t// in\n    tag_35:\n      tag_37\n      jump\t// in\n    tag_34:\n      stop\n        /* \"contracts/patientrecord.sol\":4109:4390  function updatePatientDetails(uint256 _age) public {... */\n    tag_8:\n      tag_38\n      0x04\n      dup1\n      calldatasize\n      sub\n      dup2\n      add\n      swap1\n      tag_39\n      swap2\n      swap1\n      tag_40\n      jump\t// in\n    tag_39:\n      tag_41\n      jump\t// in\n    tag_38:\n      stop\n        /* \"contracts/patientrecord.sol\":5028:5528  function viewMedicineDetails(uint256 _medicineId) public view ... */\n    tag_9:\n      tag_42\n      0x04\n      dup1\n      calldatasize\n      sub\n      dup2\n      add\n      swap1\n      tag_43\n      swap2\n      swap1\n      tag_40\n      jump\t// in\n    tag_43:\n      tag_44\n      jump\t// in\n    tag_42:\n      mload(0x40)\n      tag_45\n      swap5\n      swap4\n      swap3\n      swap2\n      swap1\n      tag_46\n      jump\t// in\n    tag_45:\n      mload(0x40)\n      dup1\n      swap2\n      sub\n      swap1\n      return\n        /* \"contracts/patientrecord.sol\":151:179  address public contractOwner */\n    tag_10:\n      tag_47\n      tag_48\n      jump\t// in\n    tag_47:\n      mload(0x40)\n      tag_49\n      swap2\n      swap1\n      tag_50\n      jump\t// in\n    tag_49:\n      mload(0x40)\n      dup1\n      swap2\n      sub\n      swap1\n      return\n        /* \"contracts/patientrecord.sol\":6494:6982  function viewDoctorDetails(uint256 _doctorId) public view... */\n    tag_11:\n      tag_51\n      0x04\n      dup1\n      calldatasize\n      sub\n      dup2\n      add\n      swap1\n      tag_52\n      swap2\n      swap1\n      tag_40\n      jump\t// in\n    tag_52:\n      tag_53\n      jump\t// in\n    tag_51:\n      mload(0x40)\n      tag_54\n      swap5\n      swap4\n      swap3\n      swap2\n      swap1\n      tag_55\n      jump\t// in\n    tag_54:\n      mload(0x40)\n      dup1\n      swap2\n      sub\n      swap1\n      return\n        /* \"contracts/patientrecord.sol\":3677:4059  function prescribeMedicine(uint256 _medicineId, address _patientAddress) public {... */\n    tag_12:\n      tag_56\n      0x04\n      dup1\n      calldatasize\n      sub\n      dup2\n      add\n      swap1\n      tag_57\n      swap2\n      swap1\n      tag_58\n      jump\t// in\n    tag_57:\n      tag_59\n      jump\t// in\n    tag_56:\n      stop\n        /* \"contracts/patientrecord.sol\":5572:6054  function viewPatientDatabyDoctor(uint256 _patientId) public view... */\n    tag_13:\n      tag_60\n      0x04\n      dup1\n      calldatasize\n      sub\n      dup2\n      add\n      swap1\n      tag_61\n      swap2\n      swap1\n      tag_40\n      jump\t// in\n    tag_61:\n      tag_62\n      jump\t// in\n    tag_60:\n      mload(0x40)\n      tag_63\n      swap5\n      swap4\n      swap3\n      swap2\n      swap1\n      tag_64\n      jump\t// in\n    tag_63:\n      mload(0x40)\n      dup1\n      swap2\n      sub\n      swap1\n      return\n        /* \"contracts/patientrecord.sol\":4424:4990  function viewPatientDataSelf() public view... */\n    tag_14:\n      tag_65\n      tag_66\n      jump\t// in\n    tag_65:\n      mload(0x40)\n      tag_67\n      swap5\n      swap4\n      swap3\n      swap2\n      swap1\n      tag_64\n      jump\t// in\n    tag_67:\n      mload(0x40)\n      dup1\n      swap2\n      sub\n      swap1\n      return\n        /* \"contracts/patientrecord.sol\":1653:2256  function registerNewDoctor(string memory _name, string memory _qualification, string memory _workPlace) public {... */\n    tag_19:\n        /* \"contracts/patientrecord.sol\":1812:1813  0 */\n      0x00\n        /* \"contracts/patientrecord.sol\":1782:1798  doctordAddressID */\n      0x08\n        /* \"contracts/patientrecord.sol\":1782:1810  doctordAddressID[msg.sender] */\n      0x00\n        /* \"contracts/patientrecord.sol\":1799:1809  msg.sender */\n      caller\n        /* \"contracts/patientrecord.sol\":1782:1810  doctordAddressID[msg.sender] */\n      0xffffffffffffffffffffffffffffffffffffffff\n      and\n      0xffffffffffffffffffffffffffffffffffffffff\n      and\n      dup2\n      mstore\n      0x20\n      add\n      swap1\n      dup2\n      mstore\n      0x20\n      add\n      0x00\n      keccak256\n      sload\n        /* \"contracts/patientrecord.sol\":1782:1813  doctordAddressID[msg.sender]==0 */\n      eq\n        /* \"contracts/patientrecord.sol\":1774:1876  require(doctordAddressID[msg.sender]==0, \"Doctor account already exists with this blockchain address\") */\n      tag_69\n      jumpi\n      mload(0x40)\n      0x08c379a000000000000000000000000000000000000000000000000000000000\n      dup2\n      mstore\n      0x04\n      add\n      tag_70\n      swap1\n      tag_71\n      jump\t// in\n    tag_70:\n      mload(0x40)\n      dup1\n      swap2\n      sub\n      swap1\n      revert\n    tag_69:\n        /* \"contracts/patientrecord.sol\":1886:1902  uint256 doctorId */\n      0x00\n        /* \"contracts/patientrecord.sol\":1917:1918  1 */\n      0x01\n        /* \"contracts/patientrecord.sol\":1905:1916  doctorCount */\n      dup1\n      sload\n        /* \"contracts/patientrecord.sol\":1905:1918  doctorCount+1 */\n      tag_72\n      swap2\n      swap1\n      tag_73\n      jump\t// in\n    tag_72:\n        /* \"contracts/patientrecord.sol\":1886:1918  uint256 doctorId = doctorCount+1 */\n      swap1\n      pop\n        /* \"contracts/patientrecord.sol\":1951:1959  doctorId */\n      dup1\n        /* \"contracts/patientrecord.sol\":1928:1935  doctors */\n      0x04\n        /* \"contracts/patientrecord.sol\":1928:1945  doctors[doctorId] */\n      0x00\n        /* \"contracts/patientrecord.sol\":1936:1944  doctorId */\n      dup4\n        /* \"contracts/patientrecord.sol\":1928:1945  doctors[doctorId] */\n      dup2\n      mstore\n      0x20\n      add\n      swap1\n      dup2\n      mstore\n      0x20\n      add\n      0x00\n      keccak256\n        /* \"contracts/patientrecord.sol\":1928:1948  doctors[doctorId].id */\n      0x00\n      add\n        /* \"contracts/patientrecord.sol\":1928:1959  doctors[doctorId].id = doctorId */\n      dup2\n      swap1\n      sstore\n      pop\n        /* \"contracts/patientrecord.sol\":1994:1999  _name */\n      dup4\n        /* \"contracts/patientrecord.sol\":1969:1976  doctors */\n      0x04\n        /* \"contracts/patientrecord.sol\":1969:1986  doctors[doctorId] */\n      0x00\n        /* \"contracts/patientrecord.sol\":1977:1985  doctorId */\n      dup4\n        /* \"contracts/patientrecord.sol\":1969:1986  doctors[doctorId] */\n      dup2\n      mstore\n      0x20\n      add\n      swap1\n      dup2\n      mstore\n      0x20\n      add\n      0x00\n      keccak256\n        /* \"contracts/patientrecord.sol\":1969:1991  doctors[doctorId].name */\n      0x01\n      add\n        /* \"contracts/patientrecord.sol\":1969:1999  doctors[doctorId].name = _name */\n      swap1\n      dup2\n      tag_74\n      swap2\n      swap1\n      tag_75\n      jump\t// in\n    tag_74:\n      pop\n        /* \"contracts/patientrecord.sol\":2043:2057  _qualification */\n      dup3\n        /* \"contracts/patientrecord.sol\":2009:2016  doctors */\n      0x04\n        /* \"contracts/patientrecord.sol\":2009:2026  doctors[doctorId] */\n      0x00\n        /* \"contracts/patientrecord.sol\":2017:2025  doctorId */\n      dup4\n        /* \"contracts/patientrecord.sol\":2009:2026  doctors[doctorId] */\n      dup2\n      mstore\n      0x20\n      add\n      swap1\n      dup2\n      mstore\n      0x20\n      add\n      0x00\n      keccak256\n        /* \"contracts/patientrecord.sol\":2009:2040  doctors[doctorId].qualification */\n      0x02\n      add\n        /* \"contracts/patientrecord.sol\":2009:2057  doctors[doctorId].qualification = _qualification */\n      swap1\n      dup2\n      tag_76\n      swap2\n      swap1\n      tag_75\n      jump\t// in\n    tag_76:\n      pop\n        /* \"contracts/patientrecord.sol\":2097:2107  _workPlace */\n      dup2\n        /* \"contracts/patientrecord.sol\":2067:2074  doctors */\n      0x04\n        /* \"contracts/patientrecord.sol\":2067:2084  doctors[doctorId] */\n      0x00\n        /* \"contracts/patientrecord.sol\":2075:2083  doctorId */\n      dup4\n        /* \"contracts/patientrecord.sol\":2067:2084  doctors[doctorId] */\n      dup2\n      mstore\n      0x20\n      add\n      swap1\n      dup2\n      mstore\n      0x20\n      add\n      0x00\n      keccak256\n        /* \"contracts/patientrecord.sol\":2067:2094  doctors[doctorId].workPlace */\n      0x03\n      add\n        /* \"contracts/patientrecord.sol\":2067:2107  doctors[doctorId].workPlace = _workPlace */\n      swap1\n      dup2\n      tag_77\n      swap2\n      swap1\n      tag_75\n      jump\t// in\n    tag_77:\n      pop\n        /* \"contracts/patientrecord.sol\":2151:2161  msg.sender */\n      caller\n        /* \"contracts/patientrecord.sol\":2117:2124  doctors */\n      0x04\n        /* \"contracts/patientrecord.sol\":2117:2134  doctors[doctorId] */\n      0x00\n        /* \"contracts/patientrecord.sol\":2125:2133  doctorId */\n      dup4\n        /* \"contracts/patientrecord.sol\":2117:2134  doctors[doctorId] */\n      dup2\n      mstore\n      0x20\n      add\n      swap1\n      dup2\n      mstore\n      0x20\n      add\n      0x00\n      keccak256\n        /* \"contracts/patientrecord.sol\":2117:2148  doctors[doctorId].doctorAddress */\n      0x04\n      add\n      0x01\n        /* \"contracts/patientrecord.sol\":2117:2161  doctors[doctorId].doctorAddress = msg.sender */\n      0x0100\n      exp\n      dup2\n      sload\n      dup2\n      0xffffffffffffffffffffffffffffffffffffffff\n      mul\n      not\n      and\n      swap1\n      dup4\n      0xffffffffffffffffffffffffffffffffffffffff\n      and\n      mul\n      or\n      swap1\n      sstore\n      pop\n        /* \"contracts/patientrecord.sol\":2196:2200  true */\n      0x01\n        /* \"contracts/patientrecord.sol\":2171:2178  doctors */\n      0x04\n        /* \"contracts/patientrecord.sol\":2171:2188  doctors[doctorId] */\n      0x00\n        /* \"contracts/patientrecord.sol\":2179:2187  doctorId */\n      dup4\n        /* \"contracts/patientrecord.sol\":2171:2188  doctors[doctorId] */\n      dup2\n      mstore\n      0x20\n      add\n      swap1\n      dup2\n      mstore\n      0x20\n      add\n      0x00\n      keccak256\n        /* \"contracts/patientrecord.sol\":2171:2193  doctors[doctorId].flag */\n      0x04\n      add\n      0x00\n        /* \"contracts/patientrecord.sol\":2171:2200  doctors[doctorId].flag = true */\n      0x0100\n      exp\n      dup2\n      sload\n      dup2\n      0xff\n      mul\n      not\n      and\n      swap1\n      dup4\n      iszero\n      iszero\n      mul\n      or\n      swap1\n      sstore\n      pop\n        /* \"contracts/patientrecord.sol\":2241:2249  doctorId */\n      dup1\n        /* \"contracts/patientrecord.sol\":2210:2226  doctordAddressID */\n      0x08\n        /* \"contracts/patientrecord.sol\":2210:2238  doctordAddressID[msg.sender] */\n      0x00\n        /* \"contracts/patientrecord.sol\":2227:2237  msg.sender */\n      caller\n        /* \"contracts/patientrecord.sol\":2210:2238  doctordAddressID[msg.sender] */\n      0xffffffffffffffffffffffffffffffffffffffff\n      and\n      0xffffffffffffffffffffffffffffffffffffffff\n      and\n      dup2\n      mstore\n      0x20\n      add\n      swap1\n      dup2\n      mstore\n      0x20\n      add\n      0x00\n      keccak256\n        /* \"contracts/patientrecord.sol\":2210:2249  doctordAddressID[msg.sender] = doctorId */\n      dup2\n      swap1\n      sstore\n      pop\n        /* \"contracts/patientrecord.sol\":1764:2256  {... */\n      pop\n        /* \"contracts/patientrecord.sol\":1653:2256  function registerNewDoctor(string memory _name, string memory _qualification, string memory _workPlace) public {... */\n      pop\n      pop\n      pop\n      jump\t// out\n        /* \"contracts/patientrecord.sol\":2295:2803  function registerNewPatient(string memory _name, uint256 _age) public {... */\n    tag_23:\n        /* \"contracts/patientrecord.sol\":2413:2414  0 */\n      0x00\n        /* \"contracts/patientrecord.sol\":2383:2399  patientAddressID */\n      0x07\n        /* \"contracts/patientrecord.sol\":2383:2411  patientAddressID[msg.sender] */\n      0x00\n        /* \"contracts/patientrecord.sol\":2400:2410  msg.sender */\n      caller\n        /* \"contracts/patientrecord.sol\":2383:2411  patientAddressID[msg.sender] */\n      0xffffffffffffffffffffffffffffffffffffffff\n      and\n      0xffffffffffffffffffffffffffffffffffffffff\n      and\n      dup2\n      mstore\n      0x20\n      add\n      swap1\n      dup2\n      mstore\n      0x20\n      add\n      0x00\n      keccak256\n      sload\n        /* \"contracts/patientrecord.sol\":2383:2414  patientAddressID[msg.sender]==0 */\n      eq\n        /* \"contracts/patientrecord.sol\":2375:2478  require(patientAddressID[msg.sender]==0, \"Patient account already exists with this blockchain address\") */\n      tag_79\n      jumpi\n      mload(0x40)\n      0x08c379a000000000000000000000000000000000000000000000000000000000\n      dup2\n      mstore\n      0x04\n      add\n      tag_80\n      swap1\n      tag_81\n      jump\t// in\n    tag_80:\n      mload(0x40)\n      dup1\n      swap2\n      sub\n      swap1\n      revert\n    tag_79:\n        /* \"contracts/patientrecord.sol\":2488:2505  uint256 patientId */\n      0x00\n        /* \"contracts/patientrecord.sol\":2521:2522  1 */\n      0x01\n        /* \"contracts/patientrecord.sol\":2508:2520  patientCount */\n      sload(0x02)\n        /* \"contracts/patientrecord.sol\":2508:2522  patientCount+1 */\n      tag_82\n      swap2\n      swap1\n      tag_73\n      jump\t// in\n    tag_82:\n        /* \"contracts/patientrecord.sol\":2488:2522  uint256 patientId = patientCount+1 */\n      swap1\n      pop\n        /* \"contracts/patientrecord.sol\":2557:2566  patientId */\n      dup1\n        /* \"contracts/patientrecord.sol\":2532:2540  patients */\n      0x05\n        /* \"contracts/patientrecord.sol\":2532:2551  patients[patientId] */\n      0x00\n        /* \"contracts/patientrecord.sol\":2541:2550  patientId */\n      dup4\n        /* \"contracts/patientrecord.sol\":2532:2551  patients[patientId] */\n      dup2\n      mstore\n      0x20\n      add\n      swap1\n      dup2\n      mstore\n      0x20\n      add\n      0x00\n      keccak256\n        /* \"contracts/patientrecord.sol\":2532:2554  patients[patientId].id */\n      0x00\n      add\n        /* \"contracts/patientrecord.sol\":2532:2566  patients[patientId].id = patientId */\n      dup2\n      swap1\n      sstore\n      pop\n        /* \"contracts/patientrecord.sol\":2603:2608  _name */\n      dup3\n        /* \"contracts/patientrecord.sol\":2576:2584  patients */\n      0x05\n        /* \"contracts/patientrecord.sol\":2576:2595  patients[patientId] */\n      0x00\n        /* \"contracts/patientrecord.sol\":2585:2594  patientId */\n      dup4\n        /* \"contracts/patientrecord.sol\":2576:2595  patients[patientId] */\n      dup2\n      mstore\n      0x20\n      add\n      swap1\n      dup2\n      mstore\n      0x20\n      add\n      0x00\n      keccak256\n        /* \"contracts/patientrecord.sol\":2576:2600  patients[patientId].name */\n      0x01\n      add\n        /* \"contracts/patientrecord.sol\":2576:2608  patients[patientId].name = _name */\n      swap1\n      dup2\n      tag_83\n      swap2\n      swap1\n      tag_75\n      jump\t// in\n    tag_83:\n      pop\n        /* \"contracts/patientrecord.sol\":2644:2648  _age */\n      dup2\n        /* \"contracts/patientrecord.sol\":2618:2626  patients */\n      0x05\n        /* \"contracts/patientrecord.sol\":2618:2637  patients[patientId] */\n      0x00\n        /* \"contracts/patientrecord.sol\":2627:2636  patientId */\n      dup4\n        /* \"contracts/patientrecord.sol\":2618:2637  patients[patientId] */\n      dup2\n      mstore\n      0x20\n      add\n      swap1\n      dup2\n      mstore\n      0x20\n      add\n      0x00\n      keccak256\n        /* \"contracts/patientrecord.sol\":2618:2641  patients[patientId].age */\n      0x02\n      add\n        /* \"contracts/patientrecord.sol\":2618:2648  patients[patientId].age = _age */\n      dup2\n      swap1\n      sstore\n      pop\n        /* \"contracts/patientrecord.sol\":2685:2689  true */\n      0x01\n        /* \"contracts/patientrecord.sol\":2658:2666  patients */\n      0x05\n        /* \"contracts/patientrecord.sol\":2658:2677  patients[patientId] */\n      0x00\n        /* \"contracts/patientrecord.sol\":2667:2676  patientId */\n      dup4\n        /* \"contracts/patientrecord.sol\":2658:2677  patients[patientId] */\n      dup2\n      mstore\n      0x20\n      add\n      swap1\n      dup2\n      mstore\n      0x20\n      add\n      0x00\n      keccak256\n        /* \"contracts/patientrecord.sol\":2658:2682  patients[patientId].flag */\n      0x06\n      add\n      0x00\n        /* \"contracts/patientrecord.sol\":2658:2689  patients[patientId].flag = true */\n      0x0100\n      exp\n      dup2\n      sload\n      dup2\n      0xff\n      mul\n      not\n      and\n      swap1\n      dup4\n      iszero\n      iszero\n      mul\n      or\n      swap1\n      sstore\n      pop\n        /* \"contracts/patientrecord.sol\":2736:2746  msg.sender */\n      caller\n        /* \"contracts/patientrecord.sol\":2699:2707  patients */\n      0x05\n        /* \"contracts/patientrecord.sol\":2699:2718  patients[patientId] */\n      0x00\n        /* \"contracts/patientrecord.sol\":2708:2717  patientId */\n      dup4\n        /* \"contracts/patientrecord.sol\":2699:2718  patients[patientId] */\n      dup2\n      mstore\n      0x20\n      add\n      swap1\n      dup2\n      mstore\n      0x20\n      add\n      0x00\n      keccak256\n        /* \"contracts/patientrecord.sol\":2699:2733  patients[patientId].patientAddress */\n      0x04\n      add\n      0x00\n        /* \"contracts/patientrecord.sol\":2699:2746  patients[patientId].patientAddress = msg.sender */\n      0x0100\n      exp\n      dup2\n      sload\n      dup2\n      0xffffffffffffffffffffffffffffffffffffffff\n      mul\n      not\n      and\n      swap1\n      dup4\n      0xffffffffffffffffffffffffffffffffffffffff\n      and\n      mul\n      or\n      swap1\n      sstore\n      pop\n        /* \"contracts/patientrecord.sol\":2787:2796  patientId */\n      dup1\n        /* \"contracts/patientrecord.sol\":2756:2772  patientAddressID */\n      0x07\n        /* \"contracts/patientrecord.sol\":2756:2784  patientAddressID[msg.sender] */\n      0x00\n        /* \"contracts/patientrecord.sol\":2773:2783  msg.sender */\n      caller\n        /* \"contracts/patientrecord.sol\":2756:2784  patientAddressID[msg.sender] */\n      0xffffffffffffffffffffffffffffffffffffffff\n      and\n      0xffffffffffffffffffffffffffffffffffffffff\n      and\n      dup2\n      mstore\n      0x20\n      add\n      swap1\n      dup2\n      mstore\n      0x20\n      add\n      0x00\n      keccak256\n        /* \"contracts/patientrecord.sol\":2756:2796  patientAddressID[msg.sender] = patientId */\n      dup2\n      swap1\n      sstore\n      pop\n        /* \"contracts/patientrecord.sol\":2365:2803  {... */\n      pop\n        /* \"contracts/patientrecord.sol\":2295:2803  function registerNewPatient(string memory _name, uint256 _age) public {... */\n      pop\n      pop\n      jump\t// out\n        /* \"contracts/patientrecord.sol\":3173:3642  function addMedicine(uint256 _id, string memory _name, string memory _expiryDate, string memory _dose, uint256 _price) public {... */\n    tag_27:\n        /* \"contracts/patientrecord.sol\":3338:3343  false */\n      0x00\n        /* \"contracts/patientrecord.sol\":3317:3343  medicines[_id].flag==false */\n      iszero\n      iszero\n        /* \"contracts/patientrecord.sol\":3317:3326  medicines */\n      0x06\n        /* \"contracts/patientrecord.sol\":3317:3331  medicines[_id] */\n      0x00\n        /* \"contracts/patientrecord.sol\":3327:3330  _id */\n      dup8\n        /* \"contracts/patientrecord.sol\":3317:3331  medicines[_id] */\n      dup2\n      mstore\n      0x20\n      add\n      swap1\n      dup2\n      mstore\n      0x20\n      add\n      0x00\n      keccak256\n        /* \"contracts/patientrecord.sol\":3317:3336  medicines[_id].flag */\n      0x05\n      add\n      0x00\n      swap1\n      sload\n      swap1\n      0x0100\n      exp\n      swap1\n      div\n      0xff\n      and\n        /* \"contracts/patientrecord.sol\":3317:3343  medicines[_id].flag==false */\n      iszero\n      iszero\n      eq\n        /* \"contracts/patientrecord.sol\":3309:3379  require(medicines[_id].flag==false, \"Medicine with id already exists\") */\n      tag_85\n      jumpi\n      mload(0x40)\n      0x08c379a000000000000000000000000000000000000000000000000000000000\n      dup2\n      mstore\n      0x04\n      add\n      tag_86\n      swap1\n      tag_87\n      jump\t// in\n    tag_86:\n      mload(0x40)\n      dup1\n      swap2\n      sub\n      swap1\n      revert\n    tag_85:\n        /* \"contracts/patientrecord.sol\":3389:3402  medicineCount */\n      0x03\n      0x00\n        /* \"contracts/patientrecord.sol\":3389:3404  medicineCount++ */\n      dup2\n      sload\n      dup1\n      swap3\n      swap2\n      swap1\n      tag_88\n      swap1\n      tag_89\n      jump\t// in\n    tag_88:\n      swap2\n      swap1\n      pop\n      sstore\n      pop\n        /* \"contracts/patientrecord.sol\":3434:3437  _id */\n      dup5\n        /* \"contracts/patientrecord.sol\":3414:3423  medicines */\n      0x06\n        /* \"contracts/patientrecord.sol\":3414:3428  medicines[_id] */\n      0x00\n        /* \"contracts/patientrecord.sol\":3424:3427  _id */\n      dup8\n        /* \"contracts/patientrecord.sol\":3414:3428  medicines[_id] */\n      dup2\n      mstore\n      0x20\n      add\n      swap1\n      dup2\n      mstore\n      0x20\n      add\n      0x00\n      keccak256\n        /* \"contracts/patientrecord.sol\":3414:3431  medicines[_id].id */\n      0x00\n      add\n        /* \"contracts/patientrecord.sol\":3414:3437  medicines[_id].id = _id */\n      dup2\n      swap1\n      sstore\n      pop\n        /* \"contracts/patientrecord.sol\":3469:3474  _name */\n      dup4\n        /* \"contracts/patientrecord.sol\":3447:3456  medicines */\n      0x06\n        /* \"contracts/patientrecord.sol\":3447:3461  medicines[_id] */\n      0x00\n        /* \"contracts/patientrecord.sol\":3457:3460  _id */\n      dup8\n        /* \"contracts/patientrecord.sol\":3447:3461  medicines[_id] */\n      dup2\n      mstore\n      0x20\n      add\n      swap1\n      dup2\n      mstore\n      0x20\n      add\n      0x00\n      keccak256\n        /* \"contracts/patientrecord.sol\":3447:3466  medicines[_id].name */\n      0x01\n      add\n        /* \"contracts/patientrecord.sol\":3447:3474  medicines[_id].name = _name */\n      swap1\n      dup2\n      tag_90\n      swap2\n      swap1\n      tag_75\n      jump\t// in\n    tag_90:\n      pop\n        /* \"contracts/patientrecord.sol\":3512:3523  _expiryDate */\n      dup3\n        /* \"contracts/patientrecord.sol\":3484:3493  medicines */\n      0x06\n        /* \"contracts/patientrecord.sol\":3484:3498  medicines[_id] */\n      0x00\n        /* \"contracts/patientrecord.sol\":3494:3497  _id */\n      dup8\n        /* \"contracts/patientrecord.sol\":3484:3498  medicines[_id] */\n      dup2\n      mstore\n      0x20\n      add\n      swap1\n      dup2\n      mstore\n      0x20\n      add\n      0x00\n      keccak256\n        /* \"contracts/patientrecord.sol\":3484:3509  medicines[_id].expiryDate */\n      0x02\n      add\n        /* \"contracts/patientrecord.sol\":3484:3523  medicines[_id].expiryDate = _expiryDate */\n      swap1\n      dup2\n      tag_91\n      swap2\n      swap1\n      tag_75\n      jump\t// in\n    tag_91:\n      pop\n        /* \"contracts/patientrecord.sol\":3555:3560  _dose */\n      dup2\n        /* \"contracts/patientrecord.sol\":3533:3542  medicines */\n      0x06\n        /* \"contracts/patientrecord.sol\":3533:3547  medicines[_id] */\n      0x00\n        /* \"contracts/patientrecord.sol\":3543:3546  _id */\n      dup8\n        /* \"contracts/patientrecord.sol\":3533:3547  medicines[_id] */\n      dup2\n      mstore\n      0x20\n      add\n      swap1\n      dup2\n      mstore\n      0x20\n      add\n      0x00\n      keccak256\n        /* \"contracts/patientrecord.sol\":3533:3552  medicines[_id].dose */\n      0x03\n      add\n        /* \"contracts/patientrecord.sol\":3533:3560  medicines[_id].dose = _dose */\n      swap1\n      dup2\n      tag_92\n      swap2\n      swap1\n      tag_75\n      jump\t// in\n    tag_92:\n      pop\n        /* \"contracts/patientrecord.sol\":3593:3599  _price */\n      dup1\n        /* \"contracts/patientrecord.sol\":3570:3579  medicines */\n      0x06\n        /* \"contracts/patientrecord.sol\":3570:3584  medicines[_id] */\n      0x00\n        /* \"contracts/patientrecord.sol\":3580:3583  _id */\n      dup8\n        /* \"contracts/patientrecord.sol\":3570:3584  medicines[_id] */\n      dup2\n      mstore\n      0x20\n      add\n      swap1\n      dup2\n      mstore\n      0x20\n      add\n      0x00\n      keccak256\n        /* \"contracts/patientrecord.sol\":3570:3590  medicines[_id].price */\n      0x04\n      add\n        /* \"contracts/patientrecord.sol\":3570:3599  medicines[_id].price = _price */\n      dup2\n      swap1\n      sstore\n      pop\n        /* \"contracts/patientrecord.sol\":3631:3635  true */\n      0x01\n        /* \"contracts/patientrecord.sol\":3609:3618  medicines */\n      0x06\n        /* \"contracts/patientrecord.sol\":3609:3623  medicines[_id] */\n      0x00\n        /* \"contracts/patientrecord.sol\":3619:3622  _id */\n      dup8\n        /* \"contracts/patientrecord.sol\":3609:3623  medicines[_id] */\n      dup2\n      mstore\n      0x20\n      add\n      swap1\n      dup2\n      mstore\n      0x20\n      add\n      0x00\n      keccak256\n        /* \"contracts/patientrecord.sol\":3609:3628  medicines[_id].flag */\n      0x05\n      add\n      0x00\n        /* \"contracts/patientrecord.sol\":3609:3635  medicines[_id].flag = true */\n      0x0100\n      exp\n      dup2\n      sload\n      dup2\n      0xff\n      mul\n      not\n      and\n      swap1\n      dup4\n      iszero\n      iszero\n      mul\n      or\n      swap1\n      sstore\n      pop\n        /* \"contracts/patientrecord.sol\":3173:3642  function addMedicine(uint256 _id, string memory _name, string memory _expiryDate, string memory _dose, uint256 _price) public {... */\n      pop\n      pop\n      pop\n      pop\n      pop\n      jump\t// out\n        /* \"contracts/patientrecord.sol\":6112:6457  function viewPatientMedicines(address _patientAddress) public view... */\n    tag_31:\n        /* \"contracts/patientrecord.sol\":6195:6216  uint256[] memory meds */\n      0x60\n        /* \"contracts/patientrecord.sol\":6275:6276  0 */\n      0x00\n        /* \"contracts/patientrecord.sol\":6240:6256  patientAddressID */\n      0x07\n        /* \"contracts/patientrecord.sol\":6240:6273  patientAddressID[_patientAddress] */\n      0x00\n        /* \"contracts/patientrecord.sol\":6257:6272  _patientAddress */\n      dup5\n        /* \"contracts/patientrecord.sol\":6240:6273  patientAddressID[_patientAddress] */\n      0xffffffffffffffffffffffffffffffffffffffff\n      and\n      0xffffffffffffffffffffffffffffffffffffffff\n      and\n      dup2\n      mstore\n      0x20\n      add\n      swap1\n      dup2\n      mstore\n      0x20\n      add\n      0x00\n      keccak256\n      sload\n        /* \"contracts/patientrecord.sol\":6240:6276  patientAddressID[_patientAddress]!=0 */\n      sub\n        /* \"contracts/patientrecord.sol\":6232:6316  require(patientAddressID[_patientAddress]!=0, \"Patient with address does not exist\") */\n      tag_94\n      jumpi\n      mload(0x40)\n      0x08c379a000000000000000000000000000000000000000000000000000000000\n      dup2\n      mstore\n      0x04\n      add\n      tag_95\n      swap1\n      tag_96\n      jump\t// in\n    tag_95:\n      mload(0x40)\n      dup1\n      swap2\n      sub\n      swap1\n      revert\n    tag_94:\n        /* \"contracts/patientrecord.sol\":6326:6344  uint256 _patientId */\n      0x00\n        /* \"contracts/patientrecord.sol\":6347:6363  patientAddressID */\n      0x07\n        /* \"contracts/patientrecord.sol\":6347:6380  patientAddressID[_patientAddress] */\n      0x00\n        /* \"contracts/patientrecord.sol\":6364:6379  _patientAddress */\n      dup5\n        /* \"contracts/patientrecord.sol\":6347:6380  patientAddressID[_patientAddress] */\n      0xffffffffffffffffffffffffffffffffffffffff\n      and\n      0xffffffffffffffffffffffffffffffffffffffff\n      and\n      dup2\n      mstore\n      0x20\n      add\n      swap1\n      dup2\n      mstore\n      0x20\n      add\n      0x00\n      keccak256\n      sload\n        /* \"contracts/patientrecord.sol\":6326:6380  uint256 _patientId = patientAddressID[_patientAddress] */\n      swap1\n      pop\n        /* \"contracts/patientrecord.sol\":6410:6418  patients */\n      0x05\n        /* \"contracts/patientrecord.sol\":6410:6430  patients[_patientId] */\n      0x00\n        /* \"contracts/patientrecord.sol\":6419:6429  _patientId */\n      dup3\n        /* \"contracts/patientrecord.sol\":6410:6430  patients[_patientId] */\n      dup2\n      mstore\n      0x20\n      add\n      swap1\n      dup2\n      mstore\n      0x20\n      add\n      0x00\n      keccak256\n        /* \"contracts/patientrecord.sol\":6410:6440  patients[_patientId].medicines */\n      0x05\n      add\n        /* \"contracts/patientrecord.sol\":6390:6450  return(... */\n      dup1\n      sload\n      dup1\n      0x20\n      mul\n      0x20\n      add\n      mload(0x40)\n      swap1\n      dup2\n      add\n      0x40\n      mstore\n      dup1\n      swap3\n      swap2\n      swap1\n      dup2\n      dup2\n      mstore\n      0x20\n      add\n      dup3\n      dup1\n      sload\n      dup1\n      iszero\n      tag_97\n      jumpi\n      0x20\n      mul\n      dup3\n      add\n      swap2\n      swap1\n      0x00\n      mstore\n      keccak256(0x00, 0x20)\n      swap1\n    tag_98:\n      dup2\n      sload\n      dup2\n      mstore\n      0x20\n      add\n      swap1\n      0x01\n      add\n      swap1\n      dup1\n      dup4\n      gt\n      tag_98\n      jumpi\n    tag_97:\n      pop\n      pop\n      pop\n      pop\n      pop\n      swap2\n      pop\n      pop\n        /* \"contracts/patientrecord.sol\":6112:6457  function viewPatientMedicines(address _patientAddress) public view... */\n      swap2\n      swap1\n      pop\n      jump\t// out\n        /* \"contracts/patientrecord.sol\":2843:3144  function addPatientDisease(string memory _disease) public {... */\n    tag_37:\n        /* \"contracts/patientrecord.sol\":2949:2950  0 */\n      0x00\n        /* \"contracts/patientrecord.sol\":2919:2935  patientAddressID */\n      0x07\n        /* \"contracts/patientrecord.sol\":2919:2947  patientAddressID[msg.sender] */\n      0x00\n        /* \"contracts/patientrecord.sol\":2936:2946  msg.sender */\n      caller\n        /* \"contracts/patientrecord.sol\":2919:2947  patientAddressID[msg.sender] */\n      0xffffffffffffffffffffffffffffffffffffffff\n      and\n      0xffffffffffffffffffffffffffffffffffffffff\n      and\n      dup2\n      mstore\n      0x20\n      add\n      swap1\n      dup2\n      mstore\n      0x20\n      add\n      0x00\n      keccak256\n      sload\n        /* \"contracts/patientrecord.sol\":2919:2950  patientAddressID[msg.sender]!=0 */\n      sub\n        /* \"contracts/patientrecord.sol\":2911:3026  require(patientAddressID[msg.sender]!=0, \"Patient account with blockchain address does not exist. Please register\") */\n      tag_100\n      jumpi\n      mload(0x40)\n      0x08c379a000000000000000000000000000000000000000000000000000000000\n      dup2\n      mstore\n      0x04\n      add\n      tag_101\n      swap1\n      tag_102\n      jump\t// in\n    tag_101:\n      mload(0x40)\n      dup1\n      swap2\n      sub\n      swap1\n      revert\n    tag_100:\n        /* \"contracts/patientrecord.sol\":3036:3053  uint256 patientId */\n      0x00\n        /* \"contracts/patientrecord.sol\":3056:3072  patientAddressID */\n      0x07\n        /* \"contracts/patientrecord.sol\":3056:3084  patientAddressID[msg.sender] */\n      0x00\n        /* \"contracts/patientrecord.sol\":3073:3083  msg.sender */\n      caller\n        /* \"contracts/patientrecord.sol\":3056:3084  patientAddressID[msg.sender] */\n      0xffffffffffffffffffffffffffffffffffffffff\n      and\n      0xffffffffffffffffffffffffffffffffffffffff\n      and\n      dup2\n      mstore\n      0x20\n      add\n      swap1\n      dup2\n      mstore\n      0x20\n      add\n      0x00\n      keccak256\n      sload\n        /* \"contracts/patientrecord.sol\":3036:3084  uint256 patientId = patientAddressID[msg.sender] */\n      swap1\n      pop\n        /* \"contracts/patientrecord.sol\":3094:3102  patients */\n      0x05\n        /* \"contracts/patientrecord.sol\":3094:3113  patients[patientId] */\n      0x00\n        /* \"contracts/patientrecord.sol\":3103:3112  patientId */\n      dup3\n        /* \"contracts/patientrecord.sol\":3094:3113  patients[patientId] */\n      dup2\n      mstore\n      0x20\n      add\n      swap1\n      dup2\n      mstore\n      0x20\n      add\n      0x00\n      keccak256\n        /* \"contracts/patientrecord.sol\":3094:3122  patients[patientId].diseases */\n      0x03\n      add\n        /* \"contracts/patientrecord.sol\":3128:3136  _disease */\n      dup3\n        /* \"contracts/patientrecord.sol\":3094:3137  patients[patientId].diseases.push(_disease) */\n      swap1\n      dup1\n      0x01\n      dup2\n      sload\n      add\n      dup1\n      dup3\n      sstore\n      dup1\n      swap2\n      pop\n      pop\n      0x01\n      swap1\n      sub\n      swap1\n      0x00\n      mstore\n      keccak256(0x00, 0x20)\n      add\n      0x00\n      swap1\n      swap2\n      swap1\n      swap2\n      swap1\n      swap2\n      pop\n      swap1\n      dup2\n      tag_104\n      swap2\n      swap1\n      tag_75\n      jump\t// in\n    tag_104:\n      pop\n        /* \"contracts/patientrecord.sol\":2901:3144  {... */\n      pop\n        /* \"contracts/patientrecord.sol\":2843:3144  function addPatientDisease(string memory _disease) public {... */\n      pop\n      jump\t// out\n        /* \"contracts/patientrecord.sol\":4109:4390  function updatePatientDetails(uint256 _age) public {... */\n    tag_41:\n        /* \"contracts/patientrecord.sol\":4208:4209  0 */\n      0x00\n        /* \"contracts/patientrecord.sol\":4178:4194  patientAddressID */\n      0x07\n        /* \"contracts/patientrecord.sol\":4178:4206  patientAddressID[msg.sender] */\n      0x00\n        /* \"contracts/patientrecord.sol\":4195:4205  msg.sender */\n      caller\n        /* \"contracts/patientrecord.sol\":4178:4206  patientAddressID[msg.sender] */\n      0xffffffffffffffffffffffffffffffffffffffff\n      and\n      0xffffffffffffffffffffffffffffffffffffffff\n      and\n      dup2\n      mstore\n      0x20\n      add\n      swap1\n      dup2\n      mstore\n      0x20\n      add\n      0x00\n      keccak256\n      sload\n        /* \"contracts/patientrecord.sol\":4178:4209  patientAddressID[msg.sender]!=0 */\n      sub\n        /* \"contracts/patientrecord.sol\":4170:4285  require(patientAddressID[msg.sender]!=0, \"Patient account with blockchain address does not exist. Please register\") */\n      tag_106\n      jumpi\n      mload(0x40)\n      0x08c379a000000000000000000000000000000000000000000000000000000000\n      dup2\n      mstore\n      0x04\n      add\n      tag_107\n      swap1\n      tag_102\n      jump\t// in\n    tag_107:\n      mload(0x40)\n      dup1\n      swap2\n      sub\n      swap1\n      revert\n    tag_106:\n        /* \"contracts/patientrecord.sol\":4295:4312  uint256 patientId */\n      0x00\n        /* \"contracts/patientrecord.sol\":4315:4331  patientAddressID */\n      0x07\n        /* \"contracts/patientrecord.sol\":4315:4343  patientAddressID[msg.sender] */\n      0x00\n        /* \"contracts/patientrecord.sol\":4332:4342  msg.sender */\n      caller\n        /* \"contracts/patientrecord.sol\":4315:4343  patientAddressID[msg.sender] */\n      0xffffffffffffffffffffffffffffffffffffffff\n      and\n      0xffffffffffffffffffffffffffffffffffffffff\n      and\n      dup2\n      mstore\n      0x20\n      add\n      swap1\n      dup2\n      mstore\n      0x20\n      add\n      0x00\n      keccak256\n      sload\n        /* \"contracts/patientrecord.sol\":4295:4343  uint256 patientId = patientAddressID[msg.sender] */\n      swap1\n      pop\n        /* \"contracts/patientrecord.sol\":4379:4383  _age */\n      dup2\n        /* \"contracts/patientrecord.sol\":4353:4361  patients */\n      0x05\n        /* \"contracts/patientrecord.sol\":4353:4372  patients[patientId] */\n      0x00\n        /* \"contracts/patientrecord.sol\":4362:4371  patientId */\n      dup4\n        /* \"contracts/patientrecord.sol\":4353:4372  patients[patientId] */\n      dup2\n      mstore\n      0x20\n      add\n      swap1\n      dup2\n      mstore\n      0x20\n      add\n      0x00\n      keccak256\n        /* \"contracts/patientrecord.sol\":4353:4376  patients[patientId].age */\n      0x02\n      add\n        /* \"contracts/patientrecord.sol\":4353:4383  patients[patientId].age = _age */\n      dup2\n      swap1\n      sstore\n      pop\n        /* \"contracts/patientrecord.sol\":4160:4390  {... */\n      pop\n        /* \"contracts/patientrecord.sol\":4109:4390  function updatePatientDetails(uint256 _age) public {... */\n      pop\n      jump\t// out\n        /* \"contracts/patientrecord.sol\":5028:5528  function viewMedicineDetails(uint256 _medicineId) public view ... */\n    tag_44:\n        /* \"contracts/patientrecord.sol\":5107:5125  string memory name */\n      0x60\n        /* \"contracts/patientrecord.sol\":5144:5168  string memory expiryDate */\n      dup1\n        /* \"contracts/patientrecord.sol\":5187:5205  string memory dose */\n      0x60\n        /* \"contracts/patientrecord.sol\":5224:5237  uint256 price */\n      0x00\n        /* \"contracts/patientrecord.sol\":5261:5270  medicines */\n      0x06\n        /* \"contracts/patientrecord.sol\":5261:5283  medicines[_medicineId] */\n      0x00\n        /* \"contracts/patientrecord.sol\":5271:5282  _medicineId */\n      dup7\n        /* \"contracts/patientrecord.sol\":5261:5283  medicines[_medicineId] */\n      dup2\n      mstore\n      0x20\n      add\n      swap1\n      dup2\n      mstore\n      0x20\n      add\n      0x00\n      keccak256\n        /* \"contracts/patientrecord.sol\":5261:5288  medicines[_medicineId].flag */\n      0x05\n      add\n      0x00\n      swap1\n      sload\n      swap1\n      0x0100\n      exp\n      swap1\n      div\n      0xff\n      and\n        /* \"contracts/patientrecord.sol\":5253:5324  require(medicines[_medicineId].flag, \"Medicine with id does not exist\") */\n      tag_109\n      jumpi\n      mload(0x40)\n      0x08c379a000000000000000000000000000000000000000000000000000000000\n      dup2\n      mstore\n      0x04\n      add\n      tag_110\n      swap1\n      tag_111\n      jump\t// in\n    tag_110:\n      mload(0x40)\n      dup1\n      swap2\n      sub\n      swap1\n      revert\n    tag_109:\n        /* \"contracts/patientrecord.sol\":5354:5363  medicines */\n      0x06\n        /* \"contracts/patientrecord.sol\":5354:5376  medicines[_medicineId] */\n      0x00\n        /* \"contracts/patientrecord.sol\":5364:5375  _medicineId */\n      dup7\n        /* \"contracts/patientrecord.sol\":5354:5376  medicines[_medicineId] */\n      dup2\n      mstore\n      0x20\n      add\n      swap1\n      dup2\n      mstore\n      0x20\n      add\n      0x00\n      keccak256\n        /* \"contracts/patientrecord.sol\":5354:5381  medicines[_medicineId].name */\n      0x01\n      add\n        /* \"contracts/patientrecord.sol\":5395:5404  medicines */\n      0x06\n        /* \"contracts/patientrecord.sol\":5395:5417  medicines[_medicineId] */\n      0x00\n        /* \"contracts/patientrecord.sol\":5405:5416  _medicineId */\n      dup8\n        /* \"contracts/patientrecord.sol\":5395:5417  medicines[_medicineId] */\n      dup2\n      mstore\n      0x20\n      add\n      swap1\n      dup2\n      mstore\n      0x20\n      add\n      0x00\n      keccak256\n        /* \"contracts/patientrecord.sol\":5395:5428  medicines[_medicineId].expiryDate */\n      0x02\n      add\n        /* \"contracts/patientrecord.sol\":5442:5451  medicines */\n      0x06\n        /* \"contracts/patientrecord.sol\":5442:5464  medicines[_medicineId] */\n      0x00\n        /* \"contracts/patientrecord.sol\":5452:5463  _medicineId */\n      dup9\n        /* \"contracts/patientrecord.sol\":5442:5464  medicines[_medicineId] */\n      dup2\n      mstore\n      0x20\n      add\n      swap1\n      dup2\n      mstore\n      0x20\n      add\n      0x00\n      keccak256\n        /* \"contracts/patientrecord.sol\":5442:5469  medicines[_medicineId].dose */\n      0x03\n      add\n        /* \"contracts/patientrecord.sol\":5483:5492  medicines */\n      0x06\n        /* \"contracts/patientrecord.sol\":5483:5505  medicines[_medicineId] */\n      0x00\n        /* \"contracts/patientrecord.sol\":5493:5504  _medicineId */\n      dup10\n        /* \"contracts/patientrecord.sol\":5483:5505  medicines[_medicineId] */\n      dup2\n      mstore\n      0x20\n      add\n      swap1\n      dup2\n      mstore\n      0x20\n      add\n      0x00\n      keccak256\n        /* \"contracts/patientrecord.sol\":5483:5511  medicines[_medicineId].price */\n      0x04\n      add\n      sload\n        /* \"contracts/patientrecord.sol\":5334:5521  return(... */\n      dup4\n      dup1\n      sload\n      tag_112\n      swap1\n      tag_113\n      jump\t// in\n    tag_112:\n      dup1\n      0x1f\n      add\n      0x20\n      dup1\n      swap2\n      div\n      mul\n      0x20\n      add\n      mload(0x40)\n      swap1\n      dup2\n      add\n      0x40\n      mstore\n      dup1\n      swap3\n      swap2\n      swap1\n      dup2\n      dup2\n      mstore\n      0x20\n      add\n      dup3\n      dup1\n      sload\n      tag_114\n      swap1\n      tag_113\n      jump\t// in\n    tag_114:\n      dup1\n      iszero\n      tag_115\n      jumpi\n      dup1\n      0x1f\n      lt\n      tag_116\n      jumpi\n      0x0100\n      dup1\n      dup4\n      sload\n      div\n      mul\n      dup4\n      mstore\n      swap2\n      0x20\n      add\n      swap2\n      jump(tag_115)\n    tag_116:\n      dup3\n      add\n      swap2\n      swap1\n      0x00\n      mstore\n      keccak256(0x00, 0x20)\n      swap1\n    tag_117:\n      dup2\n      sload\n      dup2\n      mstore\n      swap1\n      0x01\n      add\n      swap1\n      0x20\n      add\n      dup1\n      dup4\n      gt\n      tag_117\n      jumpi\n      dup3\n      swap1\n      sub\n      0x1f\n      and\n      dup3\n      add\n      swap2\n    tag_115:\n      pop\n      pop\n      pop\n      pop\n      pop\n      swap4\n      pop\n      dup3\n      dup1\n      sload\n      tag_118\n      swap1\n      tag_113\n      jump\t// in\n    tag_118:\n      dup1\n      0x1f\n      add\n      0x20\n      dup1\n      swap2\n      div\n      mul\n      0x20\n      add\n      mload(0x40)\n      swap1\n      dup2\n      add\n      0x40\n      mstore\n      dup1\n      swap3\n      swap2\n      swap1\n      dup2\n      dup2\n      mstore\n      0x20\n      add\n      dup3\n      dup1\n      sload\n      tag_119\n      swap1\n      tag_113\n      jump\t// in\n    tag_119:\n      dup1\n      iszero\n      tag_120\n      jumpi\n      dup1\n      0x1f\n      lt\n      tag_121\n      jumpi\n      0x0100\n      dup1\n      dup4\n      sload\n      div\n      mul\n      dup4\n      mstore\n      swap2\n      0x20\n      add\n      swap2\n      jump(tag_120)\n    tag_121:\n      dup3\n      add\n      swap2\n      swap1\n      0x00\n      mstore\n      keccak256(0x00, 0x20)\n      swap1\n    tag_122:\n      dup2\n      sload\n      dup2\n      mstore\n      swap1\n      0x01\n      add\n      swap1\n      0x20\n      add\n      dup1\n      dup4\n      gt\n      tag_122\n      jumpi\n      dup3\n      swap1\n      sub\n      0x1f\n      and\n      dup3\n      add\n      swap2\n    tag_120:\n      pop\n      pop\n      pop\n      pop\n      pop\n      swap3\n      pop\n      dup2\n      dup1\n      sload\n      tag_123\n      swap1\n      tag_113\n      jump\t// in\n    tag_123:\n      dup1\n      0x1f\n      add\n      0x20\n      dup1\n      swap2\n      div\n      mul\n      0x20\n      add\n      mload(0x40)\n      swap1\n      dup2\n      add\n      0x40\n      mstore\n      dup1\n      swap3\n      swap2\n      swap1\n      dup2\n      dup2\n      mstore\n      0x20\n      add\n      dup3\n      dup1\n      sload\n      tag_124\n      swap1\n      tag_113\n      jump\t// in\n    tag_124:\n      dup1\n      iszero\n      tag_125\n      jumpi\n      dup1\n      0x1f\n      lt\n      tag_126\n      jumpi\n      0x0100\n      dup1\n      dup4\n      sload\n      div\n      mul\n      dup4\n      mstore\n      swap2\n      0x20\n      add\n      swap2\n      jump(tag_125)\n    tag_126:\n      dup3\n      add\n      swap2\n      swap1\n      0x00\n      mstore\n      keccak256(0x00, 0x20)\n      swap1\n    tag_127:\n      dup2\n      sload\n      dup2\n      mstore\n      swap1\n      0x01\n      add\n      swap1\n      0x20\n      add\n      dup1\n      dup4\n      gt\n      tag_127\n      jumpi\n      dup3\n      swap1\n      sub\n      0x1f\n      and\n      dup3\n      add\n      swap2\n    tag_125:\n      pop\n      pop\n      pop\n      pop\n      pop\n      swap2\n      pop\n      swap4\n      pop\n      swap4\n      pop\n      swap4\n      pop\n      swap4\n      pop\n        /* \"contracts/patientrecord.sol\":5028:5528  function viewMedicineDetails(uint256 _medicineId) public view ... */\n      swap2\n      swap4\n      pop\n      swap2\n      swap4\n      jump\t// out\n        /* \"contracts/patientrecord.sol\":151:179  address public contractOwner */\n    tag_48:\n      0x00\n      dup1\n      sload\n      swap1\n      0x0100\n      exp\n      swap1\n      div\n      0xffffffffffffffffffffffffffffffffffffffff\n      and\n      dup2\n      jump\t// out\n        /* \"contracts/patientrecord.sol\":6494:6982  function viewDoctorDetails(uint256 _doctorId) public view... */\n    tag_53:\n        /* \"contracts/patientrecord.sol\":6568:6584  uint256 doctorId */\n      0x00\n        /* \"contracts/patientrecord.sol\":6603:6621  string memory name */\n      0x60\n        /* \"contracts/patientrecord.sol\":6640:6667  string memory qualification */\n      dup1\n        /* \"contracts/patientrecord.sol\":6685:6708  string memory workPlace */\n      0x60\n        /* \"contracts/patientrecord.sol\":6732:6739  doctors */\n      0x04\n        /* \"contracts/patientrecord.sol\":6732:6750  doctors[_doctorId] */\n      0x00\n        /* \"contracts/patientrecord.sol\":6740:6749  _doctorId */\n      dup7\n        /* \"contracts/patientrecord.sol\":6732:6750  doctors[_doctorId] */\n      dup2\n      mstore\n      0x20\n      add\n      swap1\n      dup2\n      mstore\n      0x20\n      add\n      0x00\n      keccak256\n        /* \"contracts/patientrecord.sol\":6732:6755  doctors[_doctorId].flag */\n      0x04\n      add\n      0x00\n      swap1\n      sload\n      swap1\n      0x0100\n      exp\n      swap1\n      div\n      0xff\n      and\n        /* \"contracts/patientrecord.sol\":6724:6789  require(doctors[_doctorId].flag, \"Doctor with id does not exist\") */\n      tag_129\n      jumpi\n      mload(0x40)\n      0x08c379a000000000000000000000000000000000000000000000000000000000\n      dup2\n      mstore\n      0x04\n      add\n      tag_130\n      swap1\n      tag_131\n      jump\t// in\n    tag_130:\n      mload(0x40)\n      dup1\n      swap2\n      sub\n      swap1\n      revert\n    tag_129:\n        /* \"contracts/patientrecord.sol\":6819:6826  doctors */\n      0x04\n        /* \"contracts/patientrecord.sol\":6819:6837  doctors[_doctorId] */\n      0x00\n        /* \"contracts/patientrecord.sol\":6827:6836  _doctorId */\n      dup7\n        /* \"contracts/patientrecord.sol\":6819:6837  doctors[_doctorId] */\n      dup2\n      mstore\n      0x20\n      add\n      swap1\n      dup2\n      mstore\n      0x20\n      add\n      0x00\n      keccak256\n        /* \"contracts/patientrecord.sol\":6819:6840  doctors[_doctorId].id */\n      0x00\n      add\n      sload\n        /* \"contracts/patientrecord.sol\":6854:6861  doctors */\n      0x04\n        /* \"contracts/patientrecord.sol\":6854:6872  doctors[_doctorId] */\n      0x00\n        /* \"contracts/patientrecord.sol\":6862:6871  _doctorId */\n      dup8\n        /* \"contracts/patientrecord.sol\":6854:6872  doctors[_doctorId] */\n      dup2\n      mstore\n      0x20\n      add\n      swap1\n      dup2\n      mstore\n      0x20\n      add\n      0x00\n      keccak256\n        /* \"contracts/patientrecord.sol\":6854:6877  doctors[_doctorId].name */\n      0x01\n      add\n        /* \"contracts/patientrecord.sol\":6891:6898  doctors */\n      0x04\n        /* \"contracts/patientrecord.sol\":6891:6909  doctors[_doctorId] */\n      0x00\n        /* \"contracts/patientrecord.sol\":6899:6908  _doctorId */\n      dup9\n        /* \"contracts/patientrecord.sol\":6891:6909  doctors[_doctorId] */\n      dup2\n      mstore\n      0x20\n      add\n      swap1\n      dup2\n      mstore\n      0x20\n      add\n      0x00\n      keccak256\n        /* \"contracts/patientrecord.sol\":6891:6923  doctors[_doctorId].qualification */\n      0x02\n      add\n        /* \"contracts/patientrecord.sol\":6937:6944  doctors */\n      0x04\n        /* \"contracts/patientrecord.sol\":6937:6955  doctors[_doctorId] */\n      0x00\n        /* \"contracts/patientrecord.sol\":6945:6954  _doctorId */\n      dup10\n        /* \"contracts/patientrecord.sol\":6937:6955  doctors[_doctorId] */\n      dup2\n      mstore\n      0x20\n      add\n      swap1\n      dup2\n      mstore\n      0x20\n      add\n      0x00\n      keccak256\n        /* \"contracts/patientrecord.sol\":6937:6965  doctors[_doctorId].workPlace */\n      0x03\n      add\n        /* \"contracts/patientrecord.sol\":6799:6975  return(... */\n      dup3\n      dup1\n      sload\n      tag_132\n      swap1\n      tag_113\n      jump\t// in\n    tag_132:\n      dup1\n      0x1f\n      add\n      0x20\n      dup1\n      swap2\n      div\n      mul\n      0x20\n      add\n      mload(0x40)\n      swap1\n      dup2\n      add\n      0x40\n      mstore\n      dup1\n      swap3\n      swap2\n      swap1\n      dup2\n      dup2\n      mstore\n      0x20\n      add\n      dup3\n      dup1\n      sload\n      tag_133\n      swap1\n      tag_113\n      jump\t// in\n    tag_133:\n      dup1\n      iszero\n      tag_134\n      jumpi\n      dup1\n      0x1f\n      lt\n      tag_135\n      jumpi\n      0x0100\n      dup1\n      dup4\n      sload\n      div\n      mul\n      dup4\n      mstore\n      swap2\n      0x20\n      add\n      swap2\n      jump(tag_134)\n    tag_135:\n      dup3\n      add\n      swap2\n      swap1\n      0x00\n      mstore\n      keccak256(0x00, 0x20)\n      swap1\n    tag_136:\n      dup2\n      sload\n      dup2\n      mstore\n      swap1\n      0x01\n      add\n      swap1\n      0x20\n      add\n      dup1\n      dup4\n      gt\n      tag_136\n      jumpi\n      dup3\n      swap1\n      sub\n      0x1f\n      and\n      dup3\n      add\n      swap2\n    tag_134:\n      pop\n      pop\n      pop\n      pop\n      pop\n      swap3\n      pop\n      dup2\n      dup1\n      sload\n      tag_137\n      swap1\n      tag_113\n      jump\t// in\n    tag_137:\n      dup1\n      0x1f\n      add\n      0x20\n      dup1\n      swap2\n      div\n      mul\n      0x20\n      add\n      mload(0x40)\n      swap1\n      dup2\n      add\n      0x40\n      mstore\n      dup1\n      swap3\n      swap2\n      swap1\n      dup2\n      dup2\n      mstore\n      0x20\n      add\n      dup3\n      dup1\n      sload\n      tag_138\n      swap1\n      tag_113\n      jump\t// in\n    tag_138:\n      dup1\n      iszero\n      tag_139\n      jumpi\n      dup1\n      0x1f\n      lt\n      tag_140\n      jumpi\n      0x0100\n      dup1\n      dup4\n      sload\n      div\n      mul\n      dup4\n      mstore\n      swap2\n      0x20\n      add\n      swap2\n      jump(tag_139)\n    tag_140:\n      dup3\n      add\n      swap2\n      swap1\n      0x00\n      mstore\n      keccak256(0x00, 0x20)\n      swap1\n    tag_141:\n      dup2\n      sload\n      dup2\n      mstore\n      swap1\n      0x01\n      add\n      swap1\n      0x20\n      add\n      dup1\n      dup4\n      gt\n      tag_141\n      jumpi\n      dup3\n      swap1\n      sub\n      0x1f\n      and\n      dup3\n      add\n      swap2\n    tag_139:\n      pop\n      pop\n      pop\n      pop\n      pop\n      swap2\n      pop\n      dup1\n      dup1\n      sload\n      tag_142\n      swap1\n      tag_113\n      jump\t// in\n    tag_142:\n      dup1\n      0x1f\n      add\n      0x20\n      dup1\n      swap2\n      div\n      mul\n      0x20\n      add\n      mload(0x40)\n      swap1\n      dup2\n      add\n      0x40\n      mstore\n      dup1\n      swap3\n      swap2\n      swap1\n      dup2\n      dup2\n      mstore\n      0x20\n      add\n      dup3\n      dup1\n      sload\n      tag_143\n      swap1\n      tag_113\n      jump\t// in\n    tag_143:\n      dup1\n      iszero\n      tag_144\n      jumpi\n      dup1\n      0x1f\n      lt\n      tag_145\n      jumpi\n      0x0100\n      dup1\n      dup4\n      sload\n      div\n      mul\n      dup4\n      mstore\n      swap2\n      0x20\n      add\n      swap2\n      jump(tag_144)\n    tag_145:\n      dup3\n      add\n      swap2\n      swap1\n      0x00\n      mstore\n      keccak256(0x00, 0x20)\n      swap1\n    tag_146:\n      dup2\n      sload\n      dup2\n      mstore\n      swap1\n      0x01\n      add\n      swap1\n      0x20\n      add\n      dup1\n      dup4\n      gt\n      tag_146\n      jumpi\n      dup3\n      swap1\n      sub\n      0x1f\n      and\n      dup3\n      add\n      swap2\n    tag_144:\n      pop\n      pop\n      pop\n      pop\n      pop\n      swap1\n      pop\n      swap4\n      pop\n      swap4\n      pop\n      swap4\n      pop\n      swap4\n      pop\n        /* \"contracts/patientrecord.sol\":6494:6982  function viewDoctorDetails(uint256 _doctorId) public view... */\n      swap2\n      swap4\n      pop\n      swap2\n      swap4\n      jump\t// out\n        /* \"contracts/patientrecord.sol\":3677:4059  function prescribeMedicine(uint256 _medicineId, address _patientAddress) public {... */\n    tag_59:\n        /* \"contracts/patientrecord.sol\":3810:3811  0 */\n      0x00\n        /* \"contracts/patientrecord.sol\":3775:3791  patientAddressID */\n      0x07\n        /* \"contracts/patientrecord.sol\":3775:3808  patientAddressID[_patientAddress] */\n      0x00\n        /* \"contracts/patientrecord.sol\":3792:3807  _patientAddress */\n      dup4\n        /* \"contracts/patientrecord.sol\":3775:3808  patientAddressID[_patientAddress] */\n      0xffffffffffffffffffffffffffffffffffffffff\n      and\n      0xffffffffffffffffffffffffffffffffffffffff\n      and\n      dup2\n      mstore\n      0x20\n      add\n      swap1\n      dup2\n      mstore\n      0x20\n      add\n      0x00\n      keccak256\n      sload\n        /* \"contracts/patientrecord.sol\":3775:3811  patientAddressID[_patientAddress]!=0 */\n      sub\n        /* \"contracts/patientrecord.sol\":3767:3851  require(patientAddressID[_patientAddress]!=0, \"Patient with address does not exist\") */\n      tag_148\n      jumpi\n      mload(0x40)\n      0x08c379a000000000000000000000000000000000000000000000000000000000\n      dup2\n      mstore\n      0x04\n      add\n      tag_149\n      swap1\n      tag_96\n      jump\t// in\n    tag_149:\n      mload(0x40)\n      dup1\n      swap2\n      sub\n      swap1\n      revert\n    tag_148:\n        /* \"contracts/patientrecord.sol\":3869:3878  medicines */\n      0x06\n        /* \"contracts/patientrecord.sol\":3869:3891  medicines[_medicineId] */\n      0x00\n        /* \"contracts/patientrecord.sol\":3879:3890  _medicineId */\n      dup4\n        /* \"contracts/patientrecord.sol\":3869:3891  medicines[_medicineId] */\n      dup2\n      mstore\n      0x20\n      add\n      swap1\n      dup2\n      mstore\n      0x20\n      add\n      0x00\n      keccak256\n        /* \"contracts/patientrecord.sol\":3869:3896  medicines[_medicineId].flag */\n      0x05\n      add\n      0x00\n      swap1\n      sload\n      swap1\n      0x0100\n      exp\n      swap1\n      div\n      0xff\n      and\n        /* \"contracts/patientrecord.sol\":3861:3932  require(medicines[_medicineId].flag, \"Medicine with id does not exist\") */\n      tag_150\n      jumpi\n      mload(0x40)\n      0x08c379a000000000000000000000000000000000000000000000000000000000\n      dup2\n      mstore\n      0x04\n      add\n      tag_151\n      swap1\n      tag_111\n      jump\t// in\n    tag_151:\n      mload(0x40)\n      dup1\n      swap2\n      sub\n      swap1\n      revert\n    tag_150:\n        /* \"contracts/patientrecord.sol\":3942:3959  uint256 patientId */\n      0x00\n        /* \"contracts/patientrecord.sol\":3962:3978  patientAddressID */\n      0x07\n        /* \"contracts/patientrecord.sol\":3962:3995  patientAddressID[_patientAddress] */\n      0x00\n        /* \"contracts/patientrecord.sol\":3979:3994  _patientAddress */\n      dup4\n        /* \"contracts/patientrecord.sol\":3962:3995  patientAddressID[_patientAddress] */\n      0xffffffffffffffffffffffffffffffffffffffff\n      and\n      0xffffffffffffffffffffffffffffffffffffffff\n      and\n      dup2\n      mstore\n      0x20\n      add\n      swap1\n      dup2\n      mstore\n      0x20\n      add\n      0x00\n      keccak256\n      sload\n        /* \"contracts/patientrecord.sol\":3942:3995  uint256 patientId = patientAddressID[_patientAddress] */\n      swap1\n      pop\n        /* \"contracts/patientrecord.sol\":4005:4013  patients */\n      0x05\n        /* \"contracts/patientrecord.sol\":4005:4024  patients[patientId] */\n      0x00\n        /* \"contracts/patientrecord.sol\":4014:4023  patientId */\n      dup3\n        /* \"contracts/patientrecord.sol\":4005:4024  patients[patientId] */\n      dup2\n      mstore\n      0x20\n      add\n      swap1\n      dup2\n      mstore\n      0x20\n      add\n      0x00\n      keccak256\n        /* \"contracts/patientrecord.sol\":4005:4034  patients[patientId].medicines */\n      0x05\n      add\n        /* \"contracts/patientrecord.sol\":4040:4051  _medicineId */\n      dup4\n        /* \"contracts/patientrecord.sol\":4005:4052  patients[patientId].medicines.push(_medicineId) */\n      swap1\n      dup1\n      0x01\n      dup2\n      sload\n      add\n      dup1\n      dup3\n      sstore\n      dup1\n      swap2\n      pop\n      pop\n      0x01\n      swap1\n      sub\n      swap1\n      0x00\n      mstore\n      keccak256(0x00, 0x20)\n      add\n      0x00\n      swap1\n      swap2\n      swap1\n      swap2\n      swap1\n      swap2\n      pop\n      sstore\n        /* \"contracts/patientrecord.sol\":3757:4059  {... */\n      pop\n        /* \"contracts/patientrecord.sol\":3677:4059  function prescribeMedicine(uint256 _medicineId, address _patientAddress) public {... */\n      pop\n      pop\n      jump\t// out\n        /* \"contracts/patientrecord.sol\":5572:6054  function viewPatientDatabyDoctor(uint256 _patientId) public view... */\n    tag_62:\n        /* \"contracts/patientrecord.sol\":5653:5670  uint256 patientId */\n      0x00\n        /* \"contracts/patientrecord.sol\":5689:5700  uint256 age */\n      dup1\n        /* \"contracts/patientrecord.sol\":5719:5737  string memory name */\n      0x60\n        /* \"contracts/patientrecord.sol\":5756:5780  string[] memory diseases */\n      dup1\n        /* \"contracts/patientrecord.sol\":5804:5812  patients */\n      0x05\n        /* \"contracts/patientrecord.sol\":5804:5824  patients[_patientId] */\n      0x00\n        /* \"contracts/patientrecord.sol\":5813:5823  _patientId */\n      dup7\n        /* \"contracts/patientrecord.sol\":5804:5824  patients[_patientId] */\n      dup2\n      mstore\n      0x20\n      add\n      swap1\n      dup2\n      mstore\n      0x20\n      add\n      0x00\n      keccak256\n        /* \"contracts/patientrecord.sol\":5804:5829  patients[_patientId].flag */\n      0x06\n      add\n      0x00\n      swap1\n      sload\n      swap1\n      0x0100\n      exp\n      swap1\n      div\n      0xff\n      and\n        /* \"contracts/patientrecord.sol\":5796:5864  require(patients[_patientId].flag, \"Patient with id does not exist\") */\n      tag_154\n      jumpi\n      mload(0x40)\n      0x08c379a000000000000000000000000000000000000000000000000000000000\n      dup2\n      mstore\n      0x04\n      add\n      tag_155\n      swap1\n      tag_156\n      jump\t// in\n    tag_155:\n      mload(0x40)\n      dup1\n      swap2\n      sub\n      swap1\n      revert\n    tag_154:\n        /* \"contracts/patientrecord.sol\":5894:5902  patients */\n      0x05\n        /* \"contracts/patientrecord.sol\":5894:5914  patients[_patientId] */\n      0x00\n        /* \"contracts/patientrecord.sol\":5903:5913  _patientId */\n      dup7\n        /* \"contracts/patientrecord.sol\":5894:5914  patients[_patientId] */\n      dup2\n      mstore\n      0x20\n      add\n      swap1\n      dup2\n      mstore\n      0x20\n      add\n      0x00\n      keccak256\n        /* \"contracts/patientrecord.sol\":5894:5917  patients[_patientId].id */\n      0x00\n      add\n      sload\n        /* \"contracts/patientrecord.sol\":5931:5939  patients */\n      0x05\n        /* \"contracts/patientrecord.sol\":5931:5951  patients[_patientId] */\n      0x00\n        /* \"contracts/patientrecord.sol\":5940:5950  _patientId */\n      dup8\n        /* \"contracts/patientrecord.sol\":5931:5951  patients[_patientId] */\n      dup2\n      mstore\n      0x20\n      add\n      swap1\n      dup2\n      mstore\n      0x20\n      add\n      0x00\n      keccak256\n        /* \"contracts/patientrecord.sol\":5931:5955  patients[_patientId].age */\n      0x02\n      add\n      sload\n        /* \"contracts/patientrecord.sol\":5969:5977  patients */\n      0x05\n        /* \"contracts/patientrecord.sol\":5969:5989  patients[_patientId] */\n      0x00\n        /* \"contracts/patientrecord.sol\":5978:5988  _patientId */\n      dup9\n        /* \"contracts/patientrecord.sol\":5969:5989  patients[_patientId] */\n      dup2\n      mstore\n      0x20\n      add\n      swap1\n      dup2\n      mstore\n      0x20\n      add\n      0x00\n      keccak256\n        /* \"contracts/patientrecord.sol\":5969:5994  patients[_patientId].name */\n      0x01\n      add\n        /* \"contracts/patientrecord.sol\":6008:6016  patients */\n      0x05\n        /* \"contracts/patientrecord.sol\":6008:6028  patients[_patientId] */\n      0x00\n        /* \"contracts/patientrecord.sol\":6017:6027  _patientId */\n      dup10\n        /* \"contracts/patientrecord.sol\":6008:6028  patients[_patientId] */\n      dup2\n      mstore\n      0x20\n      add\n      swap1\n      dup2\n      mstore\n      0x20\n      add\n      0x00\n      keccak256\n        /* \"contracts/patientrecord.sol\":6008:6037  patients[_patientId].diseases */\n      0x03\n      add\n        /* \"contracts/patientrecord.sol\":5874:6047  return(... */\n      dup2\n      dup1\n      sload\n      tag_157\n      swap1\n      tag_113\n      jump\t// in\n    tag_157:\n      dup1\n      0x1f\n      add\n      0x20\n      dup1\n      swap2\n      div\n      mul\n      0x20\n      add\n      mload(0x40)\n      swap1\n      dup2\n      add\n      0x40\n      mstore\n      dup1\n      swap3\n      swap2\n      swap1\n      dup2\n      dup2\n      mstore\n      0x20\n      add\n      dup3\n      dup1\n      sload\n      tag_158\n      swap1\n      tag_113\n      jump\t// in\n    tag_158:\n      dup1\n      iszero\n      tag_159\n      jumpi\n      dup1\n      0x1f\n      lt\n      tag_160\n      jumpi\n      0x0100\n      dup1\n      dup4\n      sload\n      div\n      mul\n      dup4\n      mstore\n      swap2\n      0x20\n      add\n      swap2\n      jump(tag_159)\n    tag_160:\n      dup3\n      add\n      swap2\n      swap1\n      0x00\n      mstore\n      keccak256(0x00, 0x20)\n      swap1\n    tag_161:\n      dup2\n      sload\n      dup2\n      mstore\n      swap1\n      0x01\n      add\n      swap1\n      0x20\n      add\n      dup1\n      dup4\n      gt\n      tag_161\n      jumpi\n      dup3\n      swap1\n      sub\n      0x1f\n      and\n      dup3\n      add\n      swap2\n    tag_159:\n      pop\n      pop\n      pop\n      pop\n      pop\n      swap2\n      pop\n      dup1\n      dup1\n      sload\n      dup1\n      0x20\n      mul\n      0x20\n      add\n      mload(0x40)\n      swap1\n      dup2\n      add\n      0x40\n      mstore\n      dup1\n      swap3\n      swap2\n      swap1\n      dup2\n      dup2\n      mstore\n      0x20\n      add\n      0x00\n      swap1\n    tag_162:\n      dup3\n      dup3\n      lt\n      iszero\n      tag_163\n      jumpi\n      dup4\n      dup3\n      swap1\n      0x00\n      mstore\n      keccak256(0x00, 0x20)\n      add\n      dup1\n      sload\n      tag_165\n      swap1\n      tag_113\n      jump\t// in\n    tag_165:\n      dup1\n      0x1f\n      add\n      0x20\n      dup1\n      swap2\n      div\n      mul\n      0x20\n      add\n      mload(0x40)\n      swap1\n      dup2\n      add\n      0x40\n      mstore\n      dup1\n      swap3\n      swap2\n      swap1\n      dup2\n      dup2\n      mstore\n      0x20\n      add\n      dup3\n      dup1\n      sload\n      tag_166\n      swap1\n      tag_113\n      jump\t// in\n    tag_166:\n      dup1\n      iszero\n      tag_167\n      jumpi\n      dup1\n      0x1f\n      lt\n      tag_168\n      jumpi\n      0x0100\n      dup1\n      dup4\n      sload\n      div\n      mul\n      dup4\n      mstore\n      swap2\n      0x20\n      add\n      swap2\n      jump(tag_167)\n    tag_168:\n      dup3\n      add\n      swap2\n      swap1\n      0x00\n      mstore\n      keccak256(0x00, 0x20)\n      swap1\n    tag_169:\n      dup2\n      sload\n      dup2\n      mstore\n      swap1\n      0x01\n      add\n      swap1\n      0x20\n      add\n      dup1\n      dup4\n      gt\n      tag_169\n      jumpi\n      dup3\n      swap1\n      sub\n      0x1f\n      and\n      dup3\n      add\n      swap2\n    tag_167:\n      pop\n      pop\n      pop\n      pop\n      pop\n      dup2\n      mstore\n      0x20\n      add\n      swap1\n      0x01\n      add\n      swap1\n      jump(tag_162)\n    tag_163:\n      pop\n      pop\n      pop\n      pop\n      swap1\n      pop\n      swap4\n      pop\n      swap4\n      pop\n      swap4\n      pop\n      swap4\n      pop\n        /* \"contracts/patientrecord.sol\":5572:6054  function viewPatientDatabyDoctor(uint256 _patientId) public view... */\n      swap2\n      swap4\n      pop\n      swap2\n      swap4\n      jump\t// out\n        /* \"contracts/patientrecord.sol\":4424:4990  function viewPatientDataSelf() public view... */\n    tag_66:\n        /* \"contracts/patientrecord.sol\":4483:4500  uint256 patientId */\n      0x00\n        /* \"contracts/patientrecord.sol\":4519:4530  uint256 age */\n      dup1\n        /* \"contracts/patientrecord.sol\":4549:4567  string memory name */\n      0x60\n        /* \"contracts/patientrecord.sol\":4586:4610  string[] memory diseases */\n      dup1\n        /* \"contracts/patientrecord.sol\":4664:4665  0 */\n      0x00\n        /* \"contracts/patientrecord.sol\":4634:4650  patientAddressID */\n      0x07\n        /* \"contracts/patientrecord.sol\":4634:4662  patientAddressID[msg.sender] */\n      0x00\n        /* \"contracts/patientrecord.sol\":4651:4661  msg.sender */\n      caller\n        /* \"contracts/patientrecord.sol\":4634:4662  patientAddressID[msg.sender] */\n      0xffffffffffffffffffffffffffffffffffffffff\n      and\n      0xffffffffffffffffffffffffffffffffffffffff\n      and\n      dup2\n      mstore\n      0x20\n      add\n      swap1\n      dup2\n      mstore\n      0x20\n      add\n      0x00\n      keccak256\n      sload\n        /* \"contracts/patientrecord.sol\":4634:4665  patientAddressID[msg.sender]!=0 */\n      sub\n        /* \"contracts/patientrecord.sol\":4626:4741  require(patientAddressID[msg.sender]!=0, \"Patient account with blockchain address does not exist. Please register\") */\n      tag_171\n      jumpi\n      mload(0x40)\n      0x08c379a000000000000000000000000000000000000000000000000000000000\n      dup2\n      mstore\n      0x04\n      add\n      tag_172\n      swap1\n      tag_102\n      jump\t// in\n    tag_172:\n      mload(0x40)\n      dup1\n      swap2\n      sub\n      swap1\n      revert\n    tag_171:\n        /* \"contracts/patientrecord.sol\":4751:4769  uint256 _patientId */\n      0x00\n        /* \"contracts/patientrecord.sol\":4772:4788  patientAddressID */\n      0x07\n        /* \"contracts/patientrecord.sol\":4772:4800  patientAddressID[msg.sender] */\n      0x00\n        /* \"contracts/patientrecord.sol\":4789:4799  msg.sender */\n      caller\n        /* \"contracts/patientrecord.sol\":4772:4800  patientAddressID[msg.sender] */\n      0xffffffffffffffffffffffffffffffffffffffff\n      and\n      0xffffffffffffffffffffffffffffffffffffffff\n      and\n      dup2\n      mstore\n      0x20\n      add\n      swap1\n      dup2\n      mstore\n      0x20\n      add\n      0x00\n      keccak256\n      sload\n        /* \"contracts/patientrecord.sol\":4751:4800  uint256 _patientId = patientAddressID[msg.sender] */\n      swap1\n      pop\n        /* \"contracts/patientrecord.sol\":4830:4838  patients */\n      0x05\n        /* \"contracts/patientrecord.sol\":4830:4850  patients[_patientId] */\n      0x00\n        /* \"contracts/patientrecord.sol\":4839:4849  _patientId */\n      dup3\n        /* \"contracts/patientrecord.sol\":4830:4850  patients[_patientId] */\n      dup2\n      mstore\n      0x20\n      add\n      swap1\n      dup2\n      mstore\n      0x20\n      add\n      0x00\n      keccak256\n        /* \"contracts/patientrecord.sol\":4830:4853  patients[_patientId].id */\n      0x00\n      add\n      sload\n        /* \"contracts/patientrecord.sol\":4867:4875  patients */\n      0x05\n        /* \"contracts/patientrecord.sol\":4867:4887  patients[_patientId] */\n      0x00\n        /* \"contracts/patientrecord.sol\":4876:4886  _patientId */\n      dup4\n        /* \"contracts/patientrecord.sol\":4867:4887  patients[_patientId] */\n      dup2\n      mstore\n      0x20\n      add\n      swap1\n      dup2\n      mstore\n      0x20\n      add\n      0x00\n      keccak256\n        /* \"contracts/patientrecord.sol\":4867:4891  patients[_patientId].age */\n      0x02\n      add\n      sload\n        /* \"contracts/patientrecord.sol\":4905:4913  patients */\n      0x05\n        /* \"contracts/patientrecord.sol\":4905:4925  patients[_patientId] */\n      0x00\n        /* \"contracts/patientrecord.sol\":4914:4924  _patientId */\n      dup5\n        /* \"contracts/patientrecord.sol\":4905:4925  patients[_patientId] */\n      dup2\n      mstore\n      0x20\n      add\n      swap1\n      dup2\n      mstore\n      0x20\n      add\n      0x00\n      keccak256\n        /* \"contracts/patientrecord.sol\":4905:4930  patients[_patientId].name */\n      0x01\n      add\n        /* \"contracts/patientrecord.sol\":4944:4952  patients */\n      0x05\n        /* \"contracts/patientrecord.sol\":4944:4964  patients[_patientId] */\n      0x00\n        /* \"contracts/patientrecord.sol\":4953:4963  _patientId */\n      dup6\n        /* \"contracts/patientrecord.sol\":4944:4964  patients[_patientId] */\n      dup2\n      mstore\n      0x20\n      add\n      swap1\n      dup2\n      mstore\n      0x20\n      add\n      0x00\n      keccak256\n        /* \"contracts/patientrecord.sol\":4944:4973  patients[_patientId].diseases */\n      0x03\n      add\n        /* \"contracts/patientrecord.sol\":4810:4983  return(... */\n      dup2\n      dup1\n      sload\n      tag_173\n      swap1\n      tag_113\n      jump\t// in\n    tag_173:\n      dup1\n      0x1f\n      add\n      0x20\n      dup1\n      swap2\n      div\n      mul\n      0x20\n      add\n      mload(0x40)\n      swap1\n      dup2\n      add\n      0x40\n      mstore\n      dup1\n      swap3\n      swap2\n      swap1\n      dup2\n      dup2\n      mstore\n      0x20\n      add\n      dup3\n      dup1\n      sload\n      tag_174\n      swap1\n      tag_113\n      jump\t// in\n    tag_174:\n      dup1\n      iszero\n      tag_175\n      jumpi\n      dup1\n      0x1f\n      lt\n      tag_176\n      jumpi\n      0x0100\n      dup1\n      dup4\n      sload\n      div\n      mul\n      dup4\n      mstore\n      swap2\n      0x20\n      add\n      swap2\n      jump(tag_175)\n    tag_176:\n      dup3\n      add\n      swap2\n      swap1\n      0x00\n      mstore\n      keccak256(0x00, 0x20)\n      swap1\n    tag_177:\n      dup2\n      sload\n      dup2\n      mstore\n      swap1\n      0x01\n      add\n      swap1\n      0x20\n      add\n      dup1\n      dup4\n      gt\n      tag_177\n      jumpi\n      dup3\n      swap1\n      sub\n      0x1f\n      and\n      dup3\n      add\n      swap2\n    tag_175:\n      pop\n      pop\n      pop\n      pop\n      pop\n      swap2\n      pop\n      dup1\n      dup1\n      sload\n      dup1\n      0x20\n      mul\n      0x20\n      add\n      mload(0x40)\n      swap1\n      dup2\n      add\n      0x40\n      mstore\n      dup1\n      swap3\n      swap2\n      swap1\n      dup2\n      dup2\n      mstore\n      0x20\n      add\n      0x00\n      swap1\n    tag_178:\n      dup3\n      dup3\n      lt\n      iszero\n      tag_179\n      jumpi\n      dup4\n      dup3\n      swap1\n      0x00\n      mstore\n      keccak256(0x00, 0x20)\n      add\n      dup1\n      sload\n      tag_181\n      swap1\n      tag_113\n      jump\t// in\n    tag_181:\n      dup1\n      0x1f\n      add\n      0x20\n      dup1\n      swap2\n      div\n      mul\n      0x20\n      add\n      mload(0x40)\n      swap1\n      dup2\n      add\n      0x40\n      mstore\n      dup1\n      swap3\n      swap2\n      swap1\n      dup2\n      dup2\n      mstore\n      0x20\n      add\n      dup3\n      dup1\n      sload\n      tag_182\n      swap1\n      tag_113\n      jump\t// in\n    tag_182:\n      dup1\n      iszero\n      tag_183\n      jumpi\n      dup1\n      0x1f\n      lt\n      tag_184\n      jumpi\n      0x0100\n      dup1\n      dup4\n      sload\n      div\n      mul\n      dup4\n      mstore\n      swap2\n      0x20\n      add\n      swap2\n      jump(tag_183)\n    tag_184:\n      dup3\n      add\n      swap2\n      swap1\n      0x00\n      mstore\n      keccak256(0x00, 0x20)\n      swap1\n    tag_185:\n      dup2\n      sload\n      dup2\n      mstore\n      swap1\n      0x01\n      add\n      swap1\n      0x20\n      add\n      dup1\n      dup4\n      gt\n      tag_185\n      jumpi\n      dup3\n      swap1\n      sub\n      0x1f\n      and\n      dup3\n      add\n      swap2\n    tag_183:\n      pop\n      pop\n      pop\n      pop\n      pop\n      dup2\n      mstore\n      0x20\n      add\n      swap1\n      0x01\n      add\n      swap1\n      jump(tag_178)\n    tag_179:\n      pop\n      pop\n      pop\n      pop\n      swap1\n      pop\n      swap5\n      pop\n      swap5\n      pop\n      swap5\n      pop\n      swap5\n      pop\n      pop\n        /* \"contracts/patientrecord.sol\":4424:4990  function viewPatientDataSelf() public view... */\n      swap1\n      swap2\n      swap3\n      swap4\n      jump\t// out\n        /* \"#utility.yul\":7:82   */\n    tag_186:\n        /* \"#utility.yul\":40:46   */\n      0x00\n        /* \"#utility.yul\":73:75   */\n      0x40\n        /* \"#utility.yul\":67:76   */\n      mload\n        /* \"#utility.yul\":57:76   */\n      swap1\n      pop\n        /* \"#utility.yul\":7:82   */\n      swap1\n      jump\t// out\n        /* \"#utility.yul\":88:205   */\n    tag_187:\n        /* \"#utility.yul\":197:198   */\n      0x00\n        /* \"#utility.yul\":194:195   */\n      dup1\n        /* \"#utility.yul\":187:199   */\n      revert\n        /* \"#utility.yul\":211:328   */\n    tag_188:\n        /* \"#utility.yul\":320:321   */\n      0x00\n        /* \"#utility.yul\":317:318   */\n      dup1\n        /* \"#utility.yul\":310:322   */\n      revert\n        /* \"#utility.yul\":334:451   */\n    tag_189:\n        /* \"#utility.yul\":443:444   */\n      0x00\n        /* \"#utility.yul\":440:441   */\n      dup1\n        /* \"#utility.yul\":433:445   */\n      revert\n        /* \"#utility.yul\":457:574   */\n    tag_190:\n        /* \"#utility.yul\":566:567   */\n      0x00\n        /* \"#utility.yul\":563:564   */\n      dup1\n        /* \"#utility.yul\":556:568   */\n      revert\n        /* \"#utility.yul\":580:682   */\n    tag_191:\n        /* \"#utility.yul\":621:627   */\n      0x00\n        /* \"#utility.yul\":672:674   */\n      0x1f\n        /* \"#utility.yul\":668:675   */\n      not\n        /* \"#utility.yul\":663:665   */\n      0x1f\n        /* \"#utility.yul\":656:661   */\n      dup4\n        /* \"#utility.yul\":652:666   */\n      add\n        /* \"#utility.yul\":648:676   */\n      and\n        /* \"#utility.yul\":638:676   */\n      swap1\n      pop\n        /* \"#utility.yul\":580:682   */\n      swap2\n      swap1\n      pop\n      jump\t// out\n        /* \"#utility.yul\":688:868   */\n    tag_192:\n        /* \"#utility.yul\":736:813   */\n      0x4e487b7100000000000000000000000000000000000000000000000000000000\n        /* \"#utility.yul\":733:734   */\n      0x00\n        /* \"#utility.yul\":726:814   */\n      mstore\n        /* \"#utility.yul\":833:837   */\n      0x41\n        /* \"#utility.yul\":830:831   */\n      0x04\n        /* \"#utility.yul\":823:838   */\n      mstore\n        /* \"#utility.yul\":857:861   */\n      0x24\n        /* \"#utility.yul\":854:855   */\n      0x00\n        /* \"#utility.yul\":847:862   */\n      revert\n        /* \"#utility.yul\":874:1155   */\n    tag_193:\n        /* \"#utility.yul\":957:984   */\n      tag_269\n        /* \"#utility.yul\":979:983   */\n      dup3\n        /* \"#utility.yul\":957:984   */\n      tag_191\n      jump\t// in\n    tag_269:\n        /* \"#utility.yul\":949:955   */\n      dup2\n        /* \"#utility.yul\":945:985   */\n      add\n        /* \"#utility.yul\":1087:1093   */\n      dup2\n        /* \"#utility.yul\":1075:1085   */\n      dup2\n        /* \"#utility.yul\":1072:1094   */\n      lt\n        /* \"#utility.yul\":1051:1069   */\n      0xffffffffffffffff\n        /* \"#utility.yul\":1039:1049   */\n      dup3\n        /* \"#utility.yul\":1036:1070   */\n      gt\n        /* \"#utility.yul\":1033:1095   */\n      or\n        /* \"#utility.yul\":1030:1118   */\n      iszero\n      tag_270\n      jumpi\n        /* \"#utility.yul\":1098:1116   */\n      tag_271\n      tag_192\n      jump\t// in\n    tag_271:\n        /* \"#utility.yul\":1030:1118   */\n    tag_270:\n        /* \"#utility.yul\":1138:1148   */\n      dup1\n        /* \"#utility.yul\":1134:1136   */\n      0x40\n        /* \"#utility.yul\":1127:1149   */\n      mstore\n        /* \"#utility.yul\":917:1155   */\n      pop\n        /* \"#utility.yul\":874:1155   */\n      pop\n      pop\n      jump\t// out\n        /* \"#utility.yul\":1161:1290   */\n    tag_194:\n        /* \"#utility.yul\":1195:1201   */\n      0x00\n        /* \"#utility.yul\":1222:1242   */\n      tag_273\n      tag_186\n      jump\t// in\n    tag_273:\n        /* \"#utility.yul\":1212:1242   */\n      swap1\n      pop\n        /* \"#utility.yul\":1251:1284   */\n      tag_274\n        /* \"#utility.yul\":1279:1283   */\n      dup3\n        /* \"#utility.yul\":1271:1277   */\n      dup3\n        /* \"#utility.yul\":1251:1284   */\n      tag_193\n      jump\t// in\n    tag_274:\n        /* \"#utility.yul\":1161:1290   */\n      swap2\n      swap1\n      pop\n      jump\t// out\n        /* \"#utility.yul\":1296:1604   */\n    tag_195:\n        /* \"#utility.yul\":1358:1362   */\n      0x00\n        /* \"#utility.yul\":1448:1466   */\n      0xffffffffffffffff\n        /* \"#utility.yul\":1440:1446   */\n      dup3\n        /* \"#utility.yul\":1437:1467   */\n      gt\n        /* \"#utility.yul\":1434:1490   */\n      iszero\n      tag_276\n      jumpi\n        /* \"#utility.yul\":1470:1488   */\n      tag_277\n      tag_192\n      jump\t// in\n    tag_277:\n        /* \"#utility.yul\":1434:1490   */\n    tag_276:\n        /* \"#utility.yul\":1508:1537   */\n      tag_278\n        /* \"#utility.yul\":1530:1536   */\n      dup3\n        /* \"#utility.yul\":1508:1537   */\n      tag_191\n      jump\t// in\n    tag_278:\n        /* \"#utility.yul\":1500:1537   */\n      swap1\n      pop\n        /* \"#utility.yul\":1592:1596   */\n      0x20\n        /* \"#utility.yul\":1586:1590   */\n      dup2\n        /* \"#utility.yul\":1582:1597   */\n      add\n        /* \"#utility.yul\":1574:1597   */\n      swap1\n      pop\n        /* \"#utility.yul\":1296:1604   */\n      swap2\n      swap1\n      pop\n      jump\t// out\n        /* \"#utility.yul\":1610:1756   */\n    tag_196:\n        /* \"#utility.yul\":1707:1713   */\n      dup3\n        /* \"#utility.yul\":1702:1705   */\n      dup2\n        /* \"#utility.yul\":1697:1700   */\n      dup4\n        /* \"#utility.yul\":1684:1714   */\n      calldatacopy\n        /* \"#utility.yul\":1748:1749   */\n      0x00\n        /* \"#utility.yul\":1739:1745   */\n      dup4\n        /* \"#utility.yul\":1734:1737   */\n      dup4\n        /* \"#utility.yul\":1730:1746   */\n      add\n        /* \"#utility.yul\":1723:1750   */\n      mstore\n        /* \"#utility.yul\":1610:1756   */\n      pop\n      pop\n      pop\n      jump\t// out\n        /* \"#utility.yul\":1762:2187   */\n    tag_197:\n        /* \"#utility.yul\":1840:1845   */\n      0x00\n        /* \"#utility.yul\":1865:1931   */\n      tag_281\n        /* \"#utility.yul\":1881:1930   */\n      tag_282\n        /* \"#utility.yul\":1923:1929   */\n      dup5\n        /* \"#utility.yul\":1881:1930   */\n      tag_195\n      jump\t// in\n    tag_282:\n        /* \"#utility.yul\":1865:1931   */\n      tag_194\n      jump\t// in\n    tag_281:\n        /* \"#utility.yul\":1856:1931   */\n      swap1\n      pop\n        /* \"#utility.yul\":1954:1960   */\n      dup3\n        /* \"#utility.yul\":1947:1952   */\n      dup2\n        /* \"#utility.yul\":1940:1961   */\n      mstore\n        /* \"#utility.yul\":1992:1996   */\n      0x20\n        /* \"#utility.yul\":1985:1990   */\n      dup2\n        /* \"#utility.yul\":1981:1997   */\n      add\n        /* \"#utility.yul\":2030:2033   */\n      dup5\n        /* \"#utility.yul\":2021:2027   */\n      dup5\n        /* \"#utility.yul\":2016:2019   */\n      dup5\n        /* \"#utility.yul\":2012:2028   */\n      add\n        /* \"#utility.yul\":2009:2034   */\n      gt\n        /* \"#utility.yul\":2006:2118   */\n      iszero\n      tag_283\n      jumpi\n        /* \"#utility.yul\":2037:2116   */\n      tag_284\n      tag_190\n      jump\t// in\n    tag_284:\n        /* \"#utility.yul\":2006:2118   */\n    tag_283:\n        /* \"#utility.yul\":2127:2181   */\n      tag_285\n        /* \"#utility.yul\":2174:2180   */\n      dup5\n        /* \"#utility.yul\":2169:2172   */\n      dup3\n        /* \"#utility.yul\":2164:2167   */\n      dup6\n        /* \"#utility.yul\":2127:2181   */\n      tag_196\n      jump\t// in\n    tag_285:\n        /* \"#utility.yul\":1846:2187   */\n      pop\n        /* \"#utility.yul\":1762:2187   */\n      swap4\n      swap3\n      pop\n      pop\n      pop\n      jump\t// out\n        /* \"#utility.yul\":2207:2547   */\n    tag_198:\n        /* \"#utility.yul\":2263:2268   */\n      0x00\n        /* \"#utility.yul\":2312:2315   */\n      dup3\n        /* \"#utility.yul\":2305:2309   */\n      0x1f\n        /* \"#utility.yul\":2297:2303   */\n      dup4\n        /* \"#utility.yul\":2293:2310   */\n      add\n        /* \"#utility.yul\":2289:2316   */\n      slt\n        /* \"#utility.yul\":2279:2401   */\n      tag_287\n      jumpi\n        /* \"#utility.yul\":2320:2399   */\n      tag_288\n      tag_189\n      jump\t// in\n    tag_288:\n        /* \"#utility.yul\":2279:2401   */\n    tag_287:\n        /* \"#utility.yul\":2437:2443   */\n      dup2\n        /* \"#utility.yul\":2424:2444   */\n      calldataload\n        /* \"#utility.yul\":2462:2541   */\n      tag_289\n        /* \"#utility.yul\":2537:2540   */\n      dup5\n        /* \"#utility.yul\":2529:2535   */\n      dup3\n        /* \"#utility.yul\":2522:2526   */\n      0x20\n        /* \"#utility.yul\":2514:2520   */\n      dup7\n        /* \"#utility.yul\":2510:2527   */\n      add\n        /* \"#utility.yul\":2462:2541   */\n      tag_197\n      jump\t// in\n    tag_289:\n        /* \"#utility.yul\":2453:2541   */\n      swap2\n      pop\n        /* \"#utility.yul\":2269:2547   */\n      pop\n        /* \"#utility.yul\":2207:2547   */\n      swap3\n      swap2\n      pop\n      pop\n      jump\t// out\n        /* \"#utility.yul\":2553:3712   */\n    tag_18:\n        /* \"#utility.yul\":2660:2666   */\n      0x00\n        /* \"#utility.yul\":2668:2674   */\n      dup1\n        /* \"#utility.yul\":2676:2682   */\n      0x00\n        /* \"#utility.yul\":2725:2727   */\n      0x60\n        /* \"#utility.yul\":2713:2722   */\n      dup5\n        /* \"#utility.yul\":2704:2711   */\n      dup7\n        /* \"#utility.yul\":2700:2723   */\n      sub\n        /* \"#utility.yul\":2696:2728   */\n      slt\n        /* \"#utility.yul\":2693:2812   */\n      iszero\n      tag_291\n      jumpi\n        /* \"#utility.yul\":2731:2810   */\n      tag_292\n      tag_187\n      jump\t// in\n    tag_292:\n        /* \"#utility.yul\":2693:2812   */\n    tag_291:\n        /* \"#utility.yul\":2879:2880   */\n      0x00\n        /* \"#utility.yul\":2868:2877   */\n      dup5\n        /* \"#utility.yul\":2864:2881   */\n      add\n        /* \"#utility.yul\":2851:2882   */\n      calldataload\n        /* \"#utility.yul\":2909:2927   */\n      0xffffffffffffffff\n        /* \"#utility.yul\":2901:2907   */\n      dup2\n        /* \"#utility.yul\":2898:2928   */\n      gt\n        /* \"#utility.yul\":2895:3012   */\n      iszero\n      tag_293\n      jumpi\n        /* \"#utility.yul\":2931:3010   */\n      tag_294\n      tag_188\n      jump\t// in\n    tag_294:\n        /* \"#utility.yul\":2895:3012   */\n    tag_293:\n        /* \"#utility.yul\":3036:3099   */\n      tag_295\n        /* \"#utility.yul\":3091:3098   */\n      dup7\n        /* \"#utility.yul\":3082:3088   */\n      dup3\n        /* \"#utility.yul\":3071:3080   */\n      dup8\n        /* \"#utility.yul\":3067:3089   */\n      add\n        /* \"#utility.yul\":3036:3099   */\n      tag_198\n      jump\t// in\n    tag_295:\n        /* \"#utility.yul\":3026:3099   */\n      swap4\n      pop\n        /* \"#utility.yul\":2822:3109   */\n      pop\n        /* \"#utility.yul\":3176:3178   */\n      0x20\n        /* \"#utility.yul\":3165:3174   */\n      dup5\n        /* \"#utility.yul\":3161:3179   */\n      add\n        /* \"#utility.yul\":3148:3180   */\n      calldataload\n        /* \"#utility.yul\":3207:3225   */\n      0xffffffffffffffff\n        /* \"#utility.yul\":3199:3205   */\n      dup2\n        /* \"#utility.yul\":3196:3226   */\n      gt\n        /* \"#utility.yul\":3193:3310   */\n      iszero\n      tag_296\n      jumpi\n        /* \"#utility.yul\":3229:3308   */\n      tag_297\n      tag_188\n      jump\t// in\n    tag_297:\n        /* \"#utility.yul\":3193:3310   */\n    tag_296:\n        /* \"#utility.yul\":3334:3397   */\n      tag_298\n        /* \"#utility.yul\":3389:3396   */\n      dup7\n        /* \"#utility.yul\":3380:3386   */\n      dup3\n        /* \"#utility.yul\":3369:3378   */\n      dup8\n        /* \"#utility.yul\":3365:3387   */\n      add\n        /* \"#utility.yul\":3334:3397   */\n      tag_198\n      jump\t// in\n    tag_298:\n        /* \"#utility.yul\":3324:3397   */\n      swap3\n      pop\n        /* \"#utility.yul\":3119:3407   */\n      pop\n        /* \"#utility.yul\":3474:3476   */\n      0x40\n        /* \"#utility.yul\":3463:3472   */\n      dup5\n        /* \"#utility.yul\":3459:3477   */\n      add\n        /* \"#utility.yul\":3446:3478   */\n      calldataload\n        /* \"#utility.yul\":3505:3523   */\n      0xffffffffffffffff\n        /* \"#utility.yul\":3497:3503   */\n      dup2\n        /* \"#utility.yul\":3494:3524   */\n      gt\n        /* \"#utility.yul\":3491:3608   */\n      iszero\n      tag_299\n      jumpi\n        /* \"#utility.yul\":3527:3606   */\n      tag_300\n      tag_188\n      jump\t// in\n    tag_300:\n        /* \"#utility.yul\":3491:3608   */\n    tag_299:\n        /* \"#utility.yul\":3632:3695   */\n      tag_301\n        /* \"#utility.yul\":3687:3694   */\n      dup7\n        /* \"#utility.yul\":3678:3684   */\n      dup3\n        /* \"#utility.yul\":3667:3676   */\n      dup8\n        /* \"#utility.yul\":3663:3685   */\n      add\n        /* \"#utility.yul\":3632:3695   */\n      tag_198\n      jump\t// in\n    tag_301:\n        /* \"#utility.yul\":3622:3695   */\n      swap2\n      pop\n        /* \"#utility.yul\":3417:3705   */\n      pop\n        /* \"#utility.yul\":2553:3712   */\n      swap3\n      pop\n      swap3\n      pop\n      swap3\n      jump\t// out\n        /* \"#utility.yul\":3718:3795   */\n    tag_199:\n        /* \"#utility.yul\":3755:3762   */\n      0x00\n        /* \"#utility.yul\":3784:3789   */\n      dup2\n        /* \"#utility.yul\":3773:3789   */\n      swap1\n      pop\n        /* \"#utility.yul\":3718:3795   */\n      swap2\n      swap1\n      pop\n      jump\t// out\n        /* \"#utility.yul\":3801:3923   */\n    tag_200:\n        /* \"#utility.yul\":3874:3898   */\n      tag_304\n        /* \"#utility.yul\":3892:3897   */\n      dup2\n        /* \"#utility.yul\":3874:3898   */\n      tag_199\n      jump\t// in\n    tag_304:\n        /* \"#utility.yul\":3867:3872   */\n      dup2\n        /* \"#utility.yul\":3864:3899   */\n      eq\n        /* \"#utility.yul\":3854:3917   */\n      tag_305\n      jumpi\n        /* \"#utility.yul\":3913:3914   */\n      0x00\n        /* \"#utility.yul\":3910:3911   */\n      dup1\n        /* \"#utility.yul\":3903:3915   */\n      revert\n        /* \"#utility.yul\":3854:3917   */\n    tag_305:\n        /* \"#utility.yul\":3801:3923   */\n      pop\n      jump\t// out\n        /* \"#utility.yul\":3929:4068   */\n    tag_201:\n        /* \"#utility.yul\":3975:3980   */\n      0x00\n        /* \"#utility.yul\":4013:4019   */\n      dup2\n        /* \"#utility.yul\":4000:4020   */\n      calldataload\n        /* \"#utility.yul\":3991:4020   */\n      swap1\n      pop\n        /* \"#utility.yul\":4029:4062   */\n      tag_307\n        /* \"#utility.yul\":4056:4061   */\n      dup2\n        /* \"#utility.yul\":4029:4062   */\n      tag_200\n      jump\t// in\n    tag_307:\n        /* \"#utility.yul\":3929:4068   */\n      swap3\n      swap2\n      pop\n      pop\n      jump\t// out\n        /* \"#utility.yul\":4074:4728   */\n    tag_22:\n        /* \"#utility.yul\":4152:4158   */\n      0x00\n        /* \"#utility.yul\":4160:4166   */\n      dup1\n        /* \"#utility.yul\":4209:4211   */\n      0x40\n        /* \"#utility.yul\":4197:4206   */\n      dup4\n        /* \"#utility.yul\":4188:4195   */\n      dup6\n        /* \"#utility.yul\":4184:4207   */\n      sub\n        /* \"#utility.yul\":4180:4212   */\n      slt\n        /* \"#utility.yul\":4177:4296   */\n      iszero\n      tag_309\n      jumpi\n        /* \"#utility.yul\":4215:4294   */\n      tag_310\n      tag_187\n      jump\t// in\n    tag_310:\n        /* \"#utility.yul\":4177:4296   */\n    tag_309:\n        /* \"#utility.yul\":4363:4364   */\n      0x00\n        /* \"#utility.yul\":4352:4361   */\n      dup4\n        /* \"#utility.yul\":4348:4365   */\n      add\n        /* \"#utility.yul\":4335:4366   */\n      calldataload\n        /* \"#utility.yul\":4393:4411   */\n      0xffffffffffffffff\n        /* \"#utility.yul\":4385:4391   */\n      dup2\n        /* \"#utility.yul\":4382:4412   */\n      gt\n        /* \"#utility.yul\":4379:4496   */\n      iszero\n      tag_311\n      jumpi\n        /* \"#utility.yul\":4415:4494   */\n      tag_312\n      tag_188\n      jump\t// in\n    tag_312:\n        /* \"#utility.yul\":4379:4496   */\n    tag_311:\n        /* \"#utility.yul\":4520:4583   */\n      tag_313\n        /* \"#utility.yul\":4575:4582   */\n      dup6\n        /* \"#utility.yul\":4566:4572   */\n      dup3\n        /* \"#utility.yul\":4555:4564   */\n      dup7\n        /* \"#utility.yul\":4551:4573   */\n      add\n        /* \"#utility.yul\":4520:4583   */\n      tag_198\n      jump\t// in\n    tag_313:\n        /* \"#utility.yul\":4510:4583   */\n      swap3\n      pop\n        /* \"#utility.yul\":4306:4593   */\n      pop\n        /* \"#utility.yul\":4632:4634   */\n      0x20\n        /* \"#utility.yul\":4658:4711   */\n      tag_314\n        /* \"#utility.yul\":4703:4710   */\n      dup6\n        /* \"#utility.yul\":4694:4700   */\n      dup3\n        /* \"#utility.yul\":4683:4692   */\n      dup7\n        /* \"#utility.yul\":4679:4701   */\n      add\n        /* \"#utility.yul\":4658:4711   */\n      tag_201\n      jump\t// in\n    tag_314:\n        /* \"#utility.yul\":4648:4711   */\n      swap2\n      pop\n        /* \"#utility.yul\":4603:4721   */\n      pop\n        /* \"#utility.yul\":4074:4728   */\n      swap3\n      pop\n      swap3\n      swap1\n      pop\n      jump\t// out\n        /* \"#utility.yul\":4734:6185   */\n    tag_26:\n        /* \"#utility.yul\":4859:4865   */\n      0x00\n        /* \"#utility.yul\":4867:4873   */\n      dup1\n        /* \"#utility.yul\":4875:4881   */\n      0x00\n        /* \"#utility.yul\":4883:4889   */\n      dup1\n        /* \"#utility.yul\":4891:4897   */\n      0x00\n        /* \"#utility.yul\":4940:4943   */\n      0xa0\n        /* \"#utility.yul\":4928:4937   */\n      dup7\n        /* \"#utility.yul\":4919:4926   */\n      dup9\n        /* \"#utility.yul\":4915:4938   */\n      sub\n        /* \"#utility.yul\":4911:4944   */\n      slt\n        /* \"#utility.yul\":4908:5028   */\n      iszero\n      tag_316\n      jumpi\n        /* \"#utility.yul\":4947:5026   */\n      tag_317\n      tag_187\n      jump\t// in\n    tag_317:\n        /* \"#utility.yul\":4908:5028   */\n    tag_316:\n        /* \"#utility.yul\":5067:5068   */\n      0x00\n        /* \"#utility.yul\":5092:5145   */\n      tag_318\n        /* \"#utility.yul\":5137:5144   */\n      dup9\n        /* \"#utility.yul\":5128:5134   */\n      dup3\n        /* \"#utility.yul\":5117:5126   */\n      dup10\n        /* \"#utility.yul\":5113:5135   */\n      add\n        /* \"#utility.yul\":5092:5145   */\n      tag_201\n      jump\t// in\n    tag_318:\n        /* \"#utility.yul\":5082:5145   */\n      swap6\n      pop\n        /* \"#utility.yul\":5038:5155   */\n      pop\n        /* \"#utility.yul\":5222:5224   */\n      0x20\n        /* \"#utility.yul\":5211:5220   */\n      dup7\n        /* \"#utility.yul\":5207:5225   */\n      add\n        /* \"#utility.yul\":5194:5226   */\n      calldataload\n        /* \"#utility.yul\":5253:5271   */\n      0xffffffffffffffff\n        /* \"#utility.yul\":5245:5251   */\n      dup2\n        /* \"#utility.yul\":5242:5272   */\n      gt\n        /* \"#utility.yul\":5239:5356   */\n      iszero\n      tag_319\n      jumpi\n        /* \"#utility.yul\":5275:5354   */\n      tag_320\n      tag_188\n      jump\t// in\n    tag_320:\n        /* \"#utility.yul\":5239:5356   */\n    tag_319:\n        /* \"#utility.yul\":5380:5443   */\n      tag_321\n        /* \"#utility.yul\":5435:5442   */\n      dup9\n        /* \"#utility.yul\":5426:5432   */\n      dup3\n        /* \"#utility.yul\":5415:5424   */\n      dup10\n        /* \"#utility.yul\":5411:5433   */\n      add\n        /* \"#utility.yul\":5380:5443   */\n      tag_198\n      jump\t// in\n    tag_321:\n        /* \"#utility.yul\":5370:5443   */\n      swap5\n      pop\n        /* \"#utility.yul\":5165:5453   */\n      pop\n        /* \"#utility.yul\":5520:5522   */\n      0x40\n        /* \"#utility.yul\":5509:5518   */\n      dup7\n        /* \"#utility.yul\":5505:5523   */\n      add\n        /* \"#utility.yul\":5492:5524   */\n      calldataload\n        /* \"#utility.yul\":5551:5569   */\n      0xffffffffffffffff\n        /* \"#utility.yul\":5543:5549   */\n      dup2\n        /* \"#utility.yul\":5540:5570   */\n      gt\n        /* \"#utility.yul\":5537:5654   */\n      iszero\n      tag_322\n      jumpi\n        /* \"#utility.yul\":5573:5652   */\n      tag_323\n      tag_188\n      jump\t// in\n    tag_323:\n        /* \"#utility.yul\":5537:5654   */\n    tag_322:\n        /* \"#utility.yul\":5678:5741   */\n      tag_324\n        /* \"#utility.yul\":5733:5740   */\n      dup9\n        /* \"#utility.yul\":5724:5730   */\n      dup3\n        /* \"#utility.yul\":5713:5722   */\n      dup10\n        /* \"#utility.yul\":5709:5731   */\n      add\n        /* \"#utility.yul\":5678:5741   */\n      tag_198\n      jump\t// in\n    tag_324:\n        /* \"#utility.yul\":5668:5741   */\n      swap4\n      pop\n        /* \"#utility.yul\":5463:5751   */\n      pop\n        /* \"#utility.yul\":5818:5820   */\n      0x60\n        /* \"#utility.yul\":5807:5816   */\n      dup7\n        /* \"#utility.yul\":5803:5821   */\n      add\n        /* \"#utility.yul\":5790:5822   */\n      calldataload\n        /* \"#utility.yul\":5849:5867   */\n      0xffffffffffffffff\n        /* \"#utility.yul\":5841:5847   */\n      dup2\n        /* \"#utility.yul\":5838:5868   */\n      gt\n        /* \"#utility.yul\":5835:5952   */\n      iszero\n      tag_325\n      jumpi\n        /* \"#utility.yul\":5871:5950   */\n      tag_326\n      tag_188\n      jump\t// in\n    tag_326:\n        /* \"#utility.yul\":5835:5952   */\n    tag_325:\n        /* \"#utility.yul\":5976:6039   */\n      tag_327\n        /* \"#utility.yul\":6031:6038   */\n      dup9\n        /* \"#utility.yul\":6022:6028   */\n      dup3\n        /* \"#utility.yul\":6011:6020   */\n      dup10\n        /* \"#utility.yul\":6007:6029   */\n      add\n        /* \"#utility.yul\":5976:6039   */\n      tag_198\n      jump\t// in\n    tag_327:\n        /* \"#utility.yul\":5966:6039   */\n      swap3\n      pop\n        /* \"#utility.yul\":5761:6049   */\n      pop\n        /* \"#utility.yul\":6088:6091   */\n      0x80\n        /* \"#utility.yul\":6115:6168   */\n      tag_328\n        /* \"#utility.yul\":6160:6167   */\n      dup9\n        /* \"#utility.yul\":6151:6157   */\n      dup3\n        /* \"#utility.yul\":6140:6149   */\n      dup10\n        /* \"#utility.yul\":6136:6158   */\n      add\n        /* \"#utility.yul\":6115:6168   */\n      tag_201\n      jump\t// in\n    tag_328:\n        /* \"#utility.yul\":6105:6168   */\n      swap2\n      pop\n        /* \"#utility.yul\":6059:6178   */\n      pop\n        /* \"#utility.yul\":4734:6185   */\n      swap3\n      swap6\n      pop\n      swap3\n      swap6\n      swap1\n      swap4\n      pop\n      jump\t// out\n        /* \"#utility.yul\":6191:6317   */\n    tag_202:\n        /* \"#utility.yul\":6228:6235   */\n      0x00\n        /* \"#utility.yul\":6268:6310   */\n      0xffffffffffffffffffffffffffffffffffffffff\n        /* \"#utility.yul\":6261:6266   */\n      dup3\n        /* \"#utility.yul\":6257:6311   */\n      and\n        /* \"#utility.yul\":6246:6311   */\n      swap1\n      pop\n        /* \"#utility.yul\":6191:6317   */\n      swap2\n      swap1\n      pop\n      jump\t// out\n        /* \"#utility.yul\":6323:6419   */\n    tag_203:\n        /* \"#utility.yul\":6360:6367   */\n      0x00\n        /* \"#utility.yul\":6389:6413   */\n      tag_331\n        /* \"#utility.yul\":6407:6412   */\n      dup3\n        /* \"#utility.yul\":6389:6413   */\n      tag_202\n      jump\t// in\n    tag_331:\n        /* \"#utility.yul\":6378:6413   */\n      swap1\n      pop\n        /* \"#utility.yul\":6323:6419   */\n      swap2\n      swap1\n      pop\n      jump\t// out\n        /* \"#utility.yul\":6425:6547   */\n    tag_204:\n        /* \"#utility.yul\":6498:6522   */\n      tag_333\n        /* \"#utility.yul\":6516:6521   */\n      dup2\n        /* \"#utility.yul\":6498:6522   */\n      tag_203\n      jump\t// in\n    tag_333:\n        /* \"#utility.yul\":6491:6496   */\n      dup2\n        /* \"#utility.yul\":6488:6523   */\n      eq\n        /* \"#utility.yul\":6478:6541   */\n      tag_334\n      jumpi\n        /* \"#utility.yul\":6537:6538   */\n      0x00\n        /* \"#utility.yul\":6534:6535   */\n      dup1\n        /* \"#utility.yul\":6527:6539   */\n      revert\n        /* \"#utility.yul\":6478:6541   */\n    tag_334:\n        /* \"#utility.yul\":6425:6547   */\n      pop\n      jump\t// out\n        /* \"#utility.yul\":6553:6692   */\n    tag_205:\n        /* \"#utility.yul\":6599:6604   */\n      0x00\n        /* \"#utility.yul\":6637:6643   */\n      dup2\n        /* \"#utility.yul\":6624:6644   */\n      calldataload\n        /* \"#utility.yul\":6615:6644   */\n      swap1\n      pop\n        /* \"#utility.yul\":6653:6686   */\n      tag_336\n        /* \"#utility.yul\":6680:6685   */\n      dup2\n        /* \"#utility.yul\":6653:6686   */\n      tag_204\n      jump\t// in\n    tag_336:\n        /* \"#utility.yul\":6553:6692   */\n      swap3\n      swap2\n      pop\n      pop\n      jump\t// out\n        /* \"#utility.yul\":6698:7027   */\n    tag_30:\n        /* \"#utility.yul\":6757:6763   */\n      0x00\n        /* \"#utility.yul\":6806:6808   */\n      0x20\n        /* \"#utility.yul\":6794:6803   */\n      dup3\n        /* \"#utility.yul\":6785:6792   */\n      dup5\n        /* \"#utility.yul\":6781:6804   */\n      sub\n        /* \"#utility.yul\":6777:6809   */\n      slt\n        /* \"#utility.yul\":6774:6893   */\n      iszero\n      tag_338\n      jumpi\n        /* \"#utility.yul\":6812:6891   */\n      tag_339\n      tag_187\n      jump\t// in\n    tag_339:\n        /* \"#utility.yul\":6774:6893   */\n    tag_338:\n        /* \"#utility.yul\":6932:6933   */\n      0x00\n        /* \"#utility.yul\":6957:7010   */\n      tag_340\n        /* \"#utility.yul\":7002:7009   */\n      dup5\n        /* \"#utility.yul\":6993:6999   */\n      dup3\n        /* \"#utility.yul\":6982:6991   */\n      dup6\n        /* \"#utility.yul\":6978:7000   */\n      add\n        /* \"#utility.yul\":6957:7010   */\n      tag_205\n      jump\t// in\n    tag_340:\n        /* \"#utility.yul\":6947:7010   */\n      swap2\n      pop\n        /* \"#utility.yul\":6903:7020   */\n      pop\n        /* \"#utility.yul\":6698:7027   */\n      swap3\n      swap2\n      pop\n      pop\n      jump\t// out\n        /* \"#utility.yul\":7033:7147   */\n    tag_206:\n        /* \"#utility.yul\":7100:7106   */\n      0x00\n        /* \"#utility.yul\":7134:7139   */\n      dup2\n        /* \"#utility.yul\":7128:7140   */\n      mload\n        /* \"#utility.yul\":7118:7140   */\n      swap1\n      pop\n        /* \"#utility.yul\":7033:7147   */\n      swap2\n      swap1\n      pop\n      jump\t// out\n        /* \"#utility.yul\":7153:7337   */\n    tag_207:\n        /* \"#utility.yul\":7252:7263   */\n      0x00\n        /* \"#utility.yul\":7286:7292   */\n      dup3\n        /* \"#utility.yul\":7281:7284   */\n      dup3\n        /* \"#utility.yul\":7274:7293   */\n      mstore\n        /* \"#utility.yul\":7326:7330   */\n      0x20\n        /* \"#utility.yul\":7321:7324   */\n      dup3\n        /* \"#utility.yul\":7317:7331   */\n      add\n        /* \"#utility.yul\":7302:7331   */\n      swap1\n      pop\n        /* \"#utility.yul\":7153:7337   */\n      swap3\n      swap2\n      pop\n      pop\n      jump\t// out\n        /* \"#utility.yul\":7343:7475   */\n    tag_208:\n        /* \"#utility.yul\":7410:7414   */\n      0x00\n        /* \"#utility.yul\":7433:7436   */\n      dup2\n        /* \"#utility.yul\":7425:7436   */\n      swap1\n      pop\n        /* \"#utility.yul\":7463:7467   */\n      0x20\n        /* \"#utility.yul\":7458:7461   */\n      dup3\n        /* \"#utility.yul\":7454:7468   */\n      add\n        /* \"#utility.yul\":7446:7468   */\n      swap1\n      pop\n        /* \"#utility.yul\":7343:7475   */\n      swap2\n      swap1\n      pop\n      jump\t// out\n        /* \"#utility.yul\":7481:7589   */\n    tag_209:\n        /* \"#utility.yul\":7558:7582   */\n      tag_345\n        /* \"#utility.yul\":7576:7581   */\n      dup2\n        /* \"#utility.yul\":7558:7582   */\n      tag_199\n      jump\t// in\n    tag_345:\n        /* \"#utility.yul\":7553:7556   */\n      dup3\n        /* \"#utility.yul\":7546:7583   */\n      mstore\n        /* \"#utility.yul\":7481:7589   */\n      pop\n      pop\n      jump\t// out\n        /* \"#utility.yul\":7595:7774   */\n    tag_210:\n        /* \"#utility.yul\":7664:7674   */\n      0x00\n        /* \"#utility.yul\":7685:7731   */\n      tag_347\n        /* \"#utility.yul\":7727:7730   */\n      dup4\n        /* \"#utility.yul\":7719:7725   */\n      dup4\n        /* \"#utility.yul\":7685:7731   */\n      tag_209\n      jump\t// in\n    tag_347:\n        /* \"#utility.yul\":7763:7767   */\n      0x20\n        /* \"#utility.yul\":7758:7761   */\n      dup4\n        /* \"#utility.yul\":7754:7768   */\n      add\n        /* \"#utility.yul\":7740:7768   */\n      swap1\n      pop\n        /* \"#utility.yul\":7595:7774   */\n      swap3\n      swap2\n      pop\n      pop\n      jump\t// out\n        /* \"#utility.yul\":7780:7893   */\n    tag_211:\n        /* \"#utility.yul\":7850:7854   */\n      0x00\n        /* \"#utility.yul\":7882:7886   */\n      0x20\n        /* \"#utility.yul\":7877:7880   */\n      dup3\n        /* \"#utility.yul\":7873:7887   */\n      add\n        /* \"#utility.yul\":7865:7887   */\n      swap1\n      pop\n        /* \"#utility.yul\":7780:7893   */\n      swap2\n      swap1\n      pop\n      jump\t// out\n        /* \"#utility.yul\":7929:8661   */\n    tag_212:\n        /* \"#utility.yul\":8048:8051   */\n      0x00\n        /* \"#utility.yul\":8077:8131   */\n      tag_350\n        /* \"#utility.yul\":8125:8130   */\n      dup3\n        /* \"#utility.yul\":8077:8131   */\n      tag_206\n      jump\t// in\n    tag_350:\n        /* \"#utility.yul\":8147:8233   */\n      tag_351\n        /* \"#utility.yul\":8226:8232   */\n      dup2\n        /* \"#utility.yul\":8221:8224   */\n      dup6\n        /* \"#utility.yul\":8147:8233   */\n      tag_207\n      jump\t// in\n    tag_351:\n        /* \"#utility.yul\":8140:8233   */\n      swap4\n      pop\n        /* \"#utility.yul\":8257:8313   */\n      tag_352\n        /* \"#utility.yul\":8307:8312   */\n      dup4\n        /* \"#utility.yul\":8257:8313   */\n      tag_208\n      jump\t// in\n    tag_352:\n        /* \"#utility.yul\":8336:8343   */\n      dup1\n        /* \"#utility.yul\":8367:8368   */\n      0x00\n        /* \"#utility.yul\":8352:8636   */\n    tag_353:\n        /* \"#utility.yul\":8377:8383   */\n      dup4\n        /* \"#utility.yul\":8374:8375   */\n      dup2\n        /* \"#utility.yul\":8371:8384   */\n      lt\n        /* \"#utility.yul\":8352:8636   */\n      iszero\n      tag_355\n      jumpi\n        /* \"#utility.yul\":8453:8459   */\n      dup2\n        /* \"#utility.yul\":8447:8460   */\n      mload\n        /* \"#utility.yul\":8480:8543   */\n      tag_356\n        /* \"#utility.yul\":8539:8542   */\n      dup9\n        /* \"#utility.yul\":8524:8537   */\n      dup3\n        /* \"#utility.yul\":8480:8543   */\n      tag_210\n      jump\t// in\n    tag_356:\n        /* \"#utility.yul\":8473:8543   */\n      swap8\n      pop\n        /* \"#utility.yul\":8566:8626   */\n      tag_357\n        /* \"#utility.yul\":8619:8625   */\n      dup4\n        /* \"#utility.yul\":8566:8626   */\n      tag_211\n      jump\t// in\n    tag_357:\n        /* \"#utility.yul\":8556:8626   */\n      swap3\n      pop\n        /* \"#utility.yul\":8412:8636   */\n      pop\n        /* \"#utility.yul\":8399:8400   */\n      0x01\n        /* \"#utility.yul\":8396:8397   */\n      dup2\n        /* \"#utility.yul\":8392:8401   */\n      add\n        /* \"#utility.yul\":8387:8401   */\n      swap1\n      pop\n        /* \"#utility.yul\":8352:8636   */\n      jump(tag_353)\n    tag_355:\n        /* \"#utility.yul\":8356:8370   */\n      pop\n        /* \"#utility.yul\":8652:8655   */\n      dup6\n        /* \"#utility.yul\":8645:8655   */\n      swap4\n      pop\n        /* \"#utility.yul\":8053:8661   */\n      pop\n      pop\n      pop\n        /* \"#utility.yul\":7929:8661   */\n      swap3\n      swap2\n      pop\n      pop\n      jump\t// out\n        /* \"#utility.yul\":8667:9040   */\n    tag_33:\n        /* \"#utility.yul\":8810:8814   */\n      0x00\n        /* \"#utility.yul\":8848:8850   */\n      0x20\n        /* \"#utility.yul\":8837:8846   */\n      dup3\n        /* \"#utility.yul\":8833:8851   */\n      add\n        /* \"#utility.yul\":8825:8851   */\n      swap1\n      pop\n        /* \"#utility.yul\":8897:8906   */\n      dup2\n        /* \"#utility.yul\":8891:8895   */\n      dup2\n        /* \"#utility.yul\":8887:8907   */\n      sub\n        /* \"#utility.yul\":8883:8884   */\n      0x00\n        /* \"#utility.yul\":8872:8881   */\n      dup4\n        /* \"#utility.yul\":8868:8885   */\n      add\n        /* \"#utility.yul\":8861:8908   */\n      mstore\n        /* \"#utility.yul\":8925:9033   */\n      tag_359\n        /* \"#utility.yul\":9028:9032   */\n      dup2\n        /* \"#utility.yul\":9019:9025   */\n      dup5\n        /* \"#utility.yul\":8925:9033   */\n      tag_212\n      jump\t// in\n    tag_359:\n        /* \"#utility.yul\":8917:9033   */\n      swap1\n      pop\n        /* \"#utility.yul\":8667:9040   */\n      swap3\n      swap2\n      pop\n      pop\n      jump\t// out\n        /* \"#utility.yul\":9046:9555   */\n    tag_36:\n        /* \"#utility.yul\":9115:9121   */\n      0x00\n        /* \"#utility.yul\":9164:9166   */\n      0x20\n        /* \"#utility.yul\":9152:9161   */\n      dup3\n        /* \"#utility.yul\":9143:9150   */\n      dup5\n        /* \"#utility.yul\":9139:9162   */\n      sub\n        /* \"#utility.yul\":9135:9167   */\n      slt\n        /* \"#utility.yul\":9132:9251   */\n      iszero\n      tag_361\n      jumpi\n        /* \"#utility.yul\":9170:9249   */\n      tag_362\n      tag_187\n      jump\t// in\n    tag_362:\n        /* \"#utility.yul\":9132:9251   */\n    tag_361:\n        /* \"#utility.yul\":9318:9319   */\n      0x00\n        /* \"#utility.yul\":9307:9316   */\n      dup3\n        /* \"#utility.yul\":9303:9320   */\n      add\n        /* \"#utility.yul\":9290:9321   */\n      calldataload\n        /* \"#utility.yul\":9348:9366   */\n      0xffffffffffffffff\n        /* \"#utility.yul\":9340:9346   */\n      dup2\n        /* \"#utility.yul\":9337:9367   */\n      gt\n        /* \"#utility.yul\":9334:9451   */\n      iszero\n      tag_363\n      jumpi\n        /* \"#utility.yul\":9370:9449   */\n      tag_364\n      tag_188\n      jump\t// in\n    tag_364:\n        /* \"#utility.yul\":9334:9451   */\n    tag_363:\n        /* \"#utility.yul\":9475:9538   */\n      tag_365\n        /* \"#utility.yul\":9530:9537   */\n      dup5\n        /* \"#utility.yul\":9521:9527   */\n      dup3\n        /* \"#utility.yul\":9510:9519   */\n      dup6\n        /* \"#utility.yul\":9506:9528   */\n      add\n        /* \"#utility.yul\":9475:9538   */\n      tag_198\n      jump\t// in\n    tag_365:\n        /* \"#utility.yul\":9465:9538   */\n      swap2\n      pop\n        /* \"#utility.yul\":9261:9548   */\n      pop\n        /* \"#utility.yul\":9046:9555   */\n      swap3\n      swap2\n      pop\n      pop\n      jump\t// out\n        /* \"#utility.yul\":9561:9890   */\n    tag_40:\n        /* \"#utility.yul\":9620:9626   */\n      0x00\n        /* \"#utility.yul\":9669:9671   */\n      0x20\n        /* \"#utility.yul\":9657:9666   */\n      dup3\n        /* \"#utility.yul\":9648:9655   */\n      dup5\n        /* \"#utility.yul\":9644:9667   */\n      sub\n        /* \"#utility.yul\":9640:9672   */\n      slt\n        /* \"#utility.yul\":9637:9756   */\n      iszero\n      tag_367\n      jumpi\n        /* \"#utility.yul\":9675:9754   */\n      tag_368\n      tag_187\n      jump\t// in\n    tag_368:\n        /* \"#utility.yul\":9637:9756   */\n    tag_367:\n        /* \"#utility.yul\":9795:9796   */\n      0x00\n        /* \"#utility.yul\":9820:9873   */\n      tag_369\n        /* \"#utility.yul\":9865:9872   */\n      dup5\n        /* \"#utility.yul\":9856:9862   */\n      dup3\n        /* \"#utility.yul\":9845:9854   */\n      dup6\n        /* \"#utility.yul\":9841:9863   */\n      add\n        /* \"#utility.yul\":9820:9873   */\n      tag_201\n      jump\t// in\n    tag_369:\n        /* \"#utility.yul\":9810:9873   */\n      swap2\n      pop\n        /* \"#utility.yul\":9766:9883   */\n      pop\n        /* \"#utility.yul\":9561:9890   */\n      swap3\n      swap2\n      pop\n      pop\n      jump\t// out\n        /* \"#utility.yul\":9896:9995   */\n    tag_213:\n        /* \"#utility.yul\":9948:9954   */\n      0x00\n        /* \"#utility.yul\":9982:9987   */\n      dup2\n        /* \"#utility.yul\":9976:9988   */\n      mload\n        /* \"#utility.yul\":9966:9988   */\n      swap1\n      pop\n        /* \"#utility.yul\":9896:9995   */\n      swap2\n      swap1\n      pop\n      jump\t// out\n        /* \"#utility.yul\":10001:10170   */\n    tag_214:\n        /* \"#utility.yul\":10085:10096   */\n      0x00\n        /* \"#utility.yul\":10119:10125   */\n      dup3\n        /* \"#utility.yul\":10114:10117   */\n      dup3\n        /* \"#utility.yul\":10107:10126   */\n      mstore\n        /* \"#utility.yul\":10159:10163   */\n      0x20\n        /* \"#utility.yul\":10154:10157   */\n      dup3\n        /* \"#utility.yul\":10150:10164   */\n      add\n        /* \"#utility.yul\":10135:10164   */\n      swap1\n      pop\n        /* \"#utility.yul\":10001:10170   */\n      swap3\n      swap2\n      pop\n      pop\n      jump\t// out\n        /* \"#utility.yul\":10176:10422   */\n    tag_215:\n        /* \"#utility.yul\":10257:10258   */\n      0x00\n        /* \"#utility.yul\":10267:10380   */\n    tag_373:\n        /* \"#utility.yul\":10281:10287   */\n      dup4\n        /* \"#utility.yul\":10278:10279   */\n      dup2\n        /* \"#utility.yul\":10275:10288   */\n      lt\n        /* \"#utility.yul\":10267:10380   */\n      iszero\n      tag_375\n      jumpi\n        /* \"#utility.yul\":10366:10367   */\n      dup1\n        /* \"#utility.yul\":10361:10364   */\n      dup3\n        /* \"#utility.yul\":10357:10368   */\n      add\n        /* \"#utility.yul\":10351:10369   */\n      mload\n        /* \"#utility.yul\":10347:10348   */\n      dup2\n        /* \"#utility.yul\":10342:10345   */\n      dup5\n        /* \"#utility.yul\":10338:10349   */\n      add\n        /* \"#utility.yul\":10331:10370   */\n      mstore\n        /* \"#utility.yul\":10303:10305   */\n      0x20\n        /* \"#utility.yul\":10300:10301   */\n      dup2\n        /* \"#utility.yul\":10296:10306   */\n      add\n        /* \"#utility.yul\":10291:10306   */\n      swap1\n      pop\n        /* \"#utility.yul\":10267:10380   */\n      jump(tag_373)\n    tag_375:\n        /* \"#utility.yul\":10414:10415   */\n      0x00\n        /* \"#utility.yul\":10405:10411   */\n      dup5\n        /* \"#utility.yul\":10400:10403   */\n      dup5\n        /* \"#utility.yul\":10396:10412   */\n      add\n        /* \"#utility.yul\":10389:10416   */\n      mstore\n        /* \"#utility.yul\":10238:10422   */\n      pop\n        /* \"#utility.yul\":10176:10422   */\n      pop\n      pop\n      pop\n      jump\t// out\n        /* \"#utility.yul\":10428:10805   */\n    tag_216:\n        /* \"#utility.yul\":10516:10519   */\n      0x00\n        /* \"#utility.yul\":10544:10583   */\n      tag_377\n        /* \"#utility.yul\":10577:10582   */\n      dup3\n        /* \"#utility.yul\":10544:10583   */\n      tag_213\n      jump\t// in\n    tag_377:\n        /* \"#utility.yul\":10599:10670   */\n      tag_378\n        /* \"#utility.yul\":10663:10669   */\n      dup2\n        /* \"#utility.yul\":10658:10661   */\n      dup6\n        /* \"#utility.yul\":10599:10670   */\n      tag_214\n      jump\t// in\n    tag_378:\n        /* \"#utility.yul\":10592:10670   */\n      swap4\n      pop\n        /* \"#utility.yul\":10679:10744   */\n      tag_379\n        /* \"#utility.yul\":10737:10743   */\n      dup2\n        /* \"#utility.yul\":10732:10735   */\n      dup6\n        /* \"#utility.yul\":10725:10729   */\n      0x20\n        /* \"#utility.yul\":10718:10723   */\n      dup7\n        /* \"#utility.yul\":10714:10730   */\n      add\n        /* \"#utility.yul\":10679:10744   */\n      tag_215\n      jump\t// in\n    tag_379:\n        /* \"#utility.yul\":10769:10798   */\n      tag_380\n        /* \"#utility.yul\":10791:10797   */\n      dup2\n        /* \"#utility.yul\":10769:10798   */\n      tag_191\n      jump\t// in\n    tag_380:\n        /* \"#utility.yul\":10764:10767   */\n      dup5\n        /* \"#utility.yul\":10760:10799   */\n      add\n        /* \"#utility.yul\":10753:10799   */\n      swap2\n      pop\n        /* \"#utility.yul\":10520:10805   */\n      pop\n        /* \"#utility.yul\":10428:10805   */\n      swap3\n      swap2\n      pop\n      pop\n      jump\t// out\n        /* \"#utility.yul\":10811:10929   */\n    tag_217:\n        /* \"#utility.yul\":10898:10922   */\n      tag_382\n        /* \"#utility.yul\":10916:10921   */\n      dup2\n        /* \"#utility.yul\":10898:10922   */\n      tag_199\n      jump\t// in\n    tag_382:\n        /* \"#utility.yul\":10893:10896   */\n      dup3\n        /* \"#utility.yul\":10886:10923   */\n      mstore\n        /* \"#utility.yul\":10811:10929   */\n      pop\n      pop\n      jump\t// out\n        /* \"#utility.yul\":10935:11761   */\n    tag_46:\n        /* \"#utility.yul\":11172:11176   */\n      0x00\n        /* \"#utility.yul\":11210:11213   */\n      0x80\n        /* \"#utility.yul\":11199:11208   */\n      dup3\n        /* \"#utility.yul\":11195:11214   */\n      add\n        /* \"#utility.yul\":11187:11214   */\n      swap1\n      pop\n        /* \"#utility.yul\":11260:11269   */\n      dup2\n        /* \"#utility.yul\":11254:11258   */\n      dup2\n        /* \"#utility.yul\":11250:11270   */\n      sub\n        /* \"#utility.yul\":11246:11247   */\n      0x00\n        /* \"#utility.yul\":11235:11244   */\n      dup4\n        /* \"#utility.yul\":11231:11248   */\n      add\n        /* \"#utility.yul\":11224:11271   */\n      mstore\n        /* \"#utility.yul\":11288:11366   */\n      tag_384\n        /* \"#utility.yul\":11361:11365   */\n      dup2\n        /* \"#utility.yul\":11352:11358   */\n      dup8\n        /* \"#utility.yul\":11288:11366   */\n      tag_216\n      jump\t// in\n    tag_384:\n        /* \"#utility.yul\":11280:11366   */\n      swap1\n      pop\n        /* \"#utility.yul\":11413:11422   */\n      dup2\n        /* \"#utility.yul\":11407:11411   */\n      dup2\n        /* \"#utility.yul\":11403:11423   */\n      sub\n        /* \"#utility.yul\":11398:11400   */\n      0x20\n        /* \"#utility.yul\":11387:11396   */\n      dup4\n        /* \"#utility.yul\":11383:11401   */\n      add\n        /* \"#utility.yul\":11376:11424   */\n      mstore\n        /* \"#utility.yul\":11441:11519   */\n      tag_385\n        /* \"#utility.yul\":11514:11518   */\n      dup2\n        /* \"#utility.yul\":11505:11511   */\n      dup7\n        /* \"#utility.yul\":11441:11519   */\n      tag_216\n      jump\t// in\n    tag_385:\n        /* \"#utility.yul\":11433:11519   */\n      swap1\n      pop\n        /* \"#utility.yul\":11566:11575   */\n      dup2\n        /* \"#utility.yul\":11560:11564   */\n      dup2\n        /* \"#utility.yul\":11556:11576   */\n      sub\n        /* \"#utility.yul\":11551:11553   */\n      0x40\n        /* \"#utility.yul\":11540:11549   */\n      dup4\n        /* \"#utility.yul\":11536:11554   */\n      add\n        /* \"#utility.yul\":11529:11577   */\n      mstore\n        /* \"#utility.yul\":11594:11672   */\n      tag_386\n        /* \"#utility.yul\":11667:11671   */\n      dup2\n        /* \"#utility.yul\":11658:11664   */\n      dup6\n        /* \"#utility.yul\":11594:11672   */\n      tag_216\n      jump\t// in\n    tag_386:\n        /* \"#utility.yul\":11586:11672   */\n      swap1\n      pop\n        /* \"#utility.yul\":11682:11754   */\n      tag_387\n        /* \"#utility.yul\":11750:11752   */\n      0x60\n        /* \"#utility.yul\":11739:11748   */\n      dup4\n        /* \"#utility.yul\":11735:11753   */\n      add\n        /* \"#utility.yul\":11726:11732   */\n      dup5\n        /* \"#utility.yul\":11682:11754   */\n      tag_217\n      jump\t// in\n    tag_387:\n        /* \"#utility.yul\":10935:11761   */\n      swap6\n      swap5\n      pop\n      pop\n      pop\n      pop\n      pop\n      jump\t// out\n        /* \"#utility.yul\":11767:11885   */\n    tag_218:\n        /* \"#utility.yul\":11854:11878   */\n      tag_389\n        /* \"#utility.yul\":11872:11877   */\n      dup2\n        /* \"#utility.yul\":11854:11878   */\n      tag_203\n      jump\t// in\n    tag_389:\n        /* \"#utility.yul\":11849:11852   */\n      dup3\n        /* \"#utility.yul\":11842:11879   */\n      mstore\n        /* \"#utility.yul\":11767:11885   */\n      pop\n      pop\n      jump\t// out\n        /* \"#utility.yul\":11891:12113   */\n    tag_50:\n        /* \"#utility.yul\":11984:11988   */\n      0x00\n        /* \"#utility.yul\":12022:12024   */\n      0x20\n        /* \"#utility.yul\":12011:12020   */\n      dup3\n        /* \"#utility.yul\":12007:12025   */\n      add\n        /* \"#utility.yul\":11999:12025   */\n      swap1\n      pop\n        /* \"#utility.yul\":12035:12106   */\n      tag_391\n        /* \"#utility.yul\":12103:12104   */\n      0x00\n        /* \"#utility.yul\":12092:12101   */\n      dup4\n        /* \"#utility.yul\":12088:12105   */\n      add\n        /* \"#utility.yul\":12079:12085   */\n      dup5\n        /* \"#utility.yul\":12035:12106   */\n      tag_218\n      jump\t// in\n    tag_391:\n        /* \"#utility.yul\":11891:12113   */\n      swap3\n      swap2\n      pop\n      pop\n      jump\t// out\n        /* \"#utility.yul\":12119:12945   */\n    tag_55:\n        /* \"#utility.yul\":12356:12360   */\n      0x00\n        /* \"#utility.yul\":12394:12397   */\n      0x80\n        /* \"#utility.yul\":12383:12392   */\n      dup3\n        /* \"#utility.yul\":12379:12398   */\n      add\n        /* \"#utility.yul\":12371:12398   */\n      swap1\n      pop\n        /* \"#utility.yul\":12408:12479   */\n      tag_393\n        /* \"#utility.yul\":12476:12477   */\n      0x00\n        /* \"#utility.yul\":12465:12474   */\n      dup4\n        /* \"#utility.yul\":12461:12478   */\n      add\n        /* \"#utility.yul\":12452:12458   */\n      dup8\n        /* \"#utility.yul\":12408:12479   */\n      tag_217\n      jump\t// in\n    tag_393:\n        /* \"#utility.yul\":12526:12535   */\n      dup2\n        /* \"#utility.yul\":12520:12524   */\n      dup2\n        /* \"#utility.yul\":12516:12536   */\n      sub\n        /* \"#utility.yul\":12511:12513   */\n      0x20\n        /* \"#utility.yul\":12500:12509   */\n      dup4\n        /* \"#utility.yul\":12496:12514   */\n      add\n        /* \"#utility.yul\":12489:12537   */\n      mstore\n        /* \"#utility.yul\":12554:12632   */\n      tag_394\n        /* \"#utility.yul\":12627:12631   */\n      dup2\n        /* \"#utility.yul\":12618:12624   */\n      dup7\n        /* \"#utility.yul\":12554:12632   */\n      tag_216\n      jump\t// in\n    tag_394:\n        /* \"#utility.yul\":12546:12632   */\n      swap1\n      pop\n        /* \"#utility.yul\":12679:12688   */\n      dup2\n        /* \"#utility.yul\":12673:12677   */\n      dup2\n        /* \"#utility.yul\":12669:12689   */\n      sub\n        /* \"#utility.yul\":12664:12666   */\n      0x40\n        /* \"#utility.yul\":12653:12662   */\n      dup4\n        /* \"#utility.yul\":12649:12667   */\n      add\n        /* \"#utility.yul\":12642:12690   */\n      mstore\n        /* \"#utility.yul\":12707:12785   */\n      tag_395\n        /* \"#utility.yul\":12780:12784   */\n      dup2\n        /* \"#utility.yul\":12771:12777   */\n      dup6\n        /* \"#utility.yul\":12707:12785   */\n      tag_216\n      jump\t// in\n    tag_395:\n        /* \"#utility.yul\":12699:12785   */\n      swap1\n      pop\n        /* \"#utility.yul\":12832:12841   */\n      dup2\n        /* \"#utility.yul\":12826:12830   */\n      dup2\n        /* \"#utility.yul\":12822:12842   */\n      sub\n        /* \"#utility.yul\":12817:12819   */\n      0x60\n        /* \"#utility.yul\":12806:12815   */\n      dup4\n        /* \"#utility.yul\":12802:12820   */\n      add\n        /* \"#utility.yul\":12795:12843   */\n      mstore\n        /* \"#utility.yul\":12860:12938   */\n      tag_396\n        /* \"#utility.yul\":12933:12937   */\n      dup2\n        /* \"#utility.yul\":12924:12930   */\n      dup5\n        /* \"#utility.yul\":12860:12938   */\n      tag_216\n      jump\t// in\n    tag_396:\n        /* \"#utility.yul\":12852:12938   */\n      swap1\n      pop\n        /* \"#utility.yul\":12119:12945   */\n      swap6\n      swap5\n      pop\n      pop\n      pop\n      pop\n      pop\n      jump\t// out\n        /* \"#utility.yul\":12951:13425   */\n    tag_58:\n        /* \"#utility.yul\":13019:13025   */\n      0x00\n        /* \"#utility.yul\":13027:13033   */\n      dup1\n        /* \"#utility.yul\":13076:13078   */\n      0x40\n        /* \"#utility.yul\":13064:13073   */\n      dup4\n        /* \"#utility.yul\":13055:13062   */\n      dup6\n        /* \"#utility.yul\":13051:13074   */\n      sub\n        /* \"#utility.yul\":13047:13079   */\n      slt\n        /* \"#utility.yul\":13044:13163   */\n      iszero\n      tag_398\n      jumpi\n        /* \"#utility.yul\":13082:13161   */\n      tag_399\n      tag_187\n      jump\t// in\n    tag_399:\n        /* \"#utility.yul\":13044:13163   */\n    tag_398:\n        /* \"#utility.yul\":13202:13203   */\n      0x00\n        /* \"#utility.yul\":13227:13280   */\n      tag_400\n        /* \"#utility.yul\":13272:13279   */\n      dup6\n        /* \"#utility.yul\":13263:13269   */\n      dup3\n        /* \"#utility.yul\":13252:13261   */\n      dup7\n        /* \"#utility.yul\":13248:13270   */\n      add\n        /* \"#utility.yul\":13227:13280   */\n      tag_201\n      jump\t// in\n    tag_400:\n        /* \"#utility.yul\":13217:13280   */\n      swap3\n      pop\n        /* \"#utility.yul\":13173:13290   */\n      pop\n        /* \"#utility.yul\":13329:13331   */\n      0x20\n        /* \"#utility.yul\":13355:13408   */\n      tag_401\n        /* \"#utility.yul\":13400:13407   */\n      dup6\n        /* \"#utility.yul\":13391:13397   */\n      dup3\n        /* \"#utility.yul\":13380:13389   */\n      dup7\n        /* \"#utility.yul\":13376:13398   */\n      add\n        /* \"#utility.yul\":13355:13408   */\n      tag_205\n      jump\t// in\n    tag_401:\n        /* \"#utility.yul\":13345:13408   */\n      swap2\n      pop\n        /* \"#utility.yul\":13300:13418   */\n      pop\n        /* \"#utility.yul\":12951:13425   */\n      swap3\n      pop\n      swap3\n      swap1\n      pop\n      jump\t// out\n        /* \"#utility.yul\":13431:13555   */\n    tag_219:\n        /* \"#utility.yul\":13508:13514   */\n      0x00\n        /* \"#utility.yul\":13542:13547   */\n      dup2\n        /* \"#utility.yul\":13536:13548   */\n      mload\n        /* \"#utility.yul\":13526:13548   */\n      swap1\n      pop\n        /* \"#utility.yul\":13431:13555   */\n      swap2\n      swap1\n      pop\n      jump\t// out\n        /* \"#utility.yul\":13561:13755   */\n    tag_220:\n        /* \"#utility.yul\":13670:13681   */\n      0x00\n        /* \"#utility.yul\":13704:13710   */\n      dup3\n        /* \"#utility.yul\":13699:13702   */\n      dup3\n        /* \"#utility.yul\":13692:13711   */\n      mstore\n        /* \"#utility.yul\":13744:13748   */\n      0x20\n        /* \"#utility.yul\":13739:13742   */\n      dup3\n        /* \"#utility.yul\":13735:13749   */\n      add\n        /* \"#utility.yul\":13720:13749   */\n      swap1\n      pop\n        /* \"#utility.yul\":13561:13755   */\n      swap3\n      swap2\n      pop\n      pop\n      jump\t// out\n        /* \"#utility.yul\":13761:13903   */\n    tag_221:\n        /* \"#utility.yul\":13838:13842   */\n      0x00\n        /* \"#utility.yul\":13861:13864   */\n      dup2\n        /* \"#utility.yul\":13853:13864   */\n      swap1\n      pop\n        /* \"#utility.yul\":13891:13895   */\n      0x20\n        /* \"#utility.yul\":13886:13889   */\n      dup3\n        /* \"#utility.yul\":13882:13896   */\n      add\n        /* \"#utility.yul\":13874:13896   */\n      swap1\n      pop\n        /* \"#utility.yul\":13761:13903   */\n      swap2\n      swap1\n      pop\n      jump\t// out\n        /* \"#utility.yul\":13909:14068   */\n    tag_222:\n        /* \"#utility.yul\":13983:13994   */\n      0x00\n        /* \"#utility.yul\":14017:14023   */\n      dup3\n        /* \"#utility.yul\":14012:14015   */\n      dup3\n        /* \"#utility.yul\":14005:14024   */\n      mstore\n        /* \"#utility.yul\":14057:14061   */\n      0x20\n        /* \"#utility.yul\":14052:14055   */\n      dup3\n        /* \"#utility.yul\":14048:14062   */\n      add\n        /* \"#utility.yul\":14033:14062   */\n      swap1\n      pop\n        /* \"#utility.yul\":13909:14068   */\n      swap3\n      swap2\n      pop\n      pop\n      jump\t// out\n        /* \"#utility.yul\":14074:14431   */\n    tag_223:\n        /* \"#utility.yul\":14152:14155   */\n      0x00\n        /* \"#utility.yul\":14180:14219   */\n      tag_407\n        /* \"#utility.yul\":14213:14218   */\n      dup3\n        /* \"#utility.yul\":14180:14219   */\n      tag_213\n      jump\t// in\n    tag_407:\n        /* \"#utility.yul\":14235:14296   */\n      tag_408\n        /* \"#utility.yul\":14289:14295   */\n      dup2\n        /* \"#utility.yul\":14284:14287   */\n      dup6\n        /* \"#utility.yul\":14235:14296   */\n      tag_222\n      jump\t// in\n    tag_408:\n        /* \"#utility.yul\":14228:14296   */\n      swap4\n      pop\n        /* \"#utility.yul\":14305:14370   */\n      tag_409\n        /* \"#utility.yul\":14363:14369   */\n      dup2\n        /* \"#utility.yul\":14358:14361   */\n      dup6\n        /* \"#utility.yul\":14351:14355   */\n      0x20\n        /* \"#utility.yul\":14344:14349   */\n      dup7\n        /* \"#utility.yul\":14340:14356   */\n      add\n        /* \"#utility.yul\":14305:14370   */\n      tag_215\n      jump\t// in\n    tag_409:\n        /* \"#utility.yul\":14395:14424   */\n      tag_410\n        /* \"#utility.yul\":14417:14423   */\n      dup2\n        /* \"#utility.yul\":14395:14424   */\n      tag_191\n      jump\t// in\n    tag_410:\n        /* \"#utility.yul\":14390:14393   */\n      dup5\n        /* \"#utility.yul\":14386:14425   */\n      add\n        /* \"#utility.yul\":14379:14425   */\n      swap2\n      pop\n        /* \"#utility.yul\":14156:14431   */\n      pop\n        /* \"#utility.yul\":14074:14431   */\n      swap3\n      swap2\n      pop\n      pop\n      jump\t// out\n        /* \"#utility.yul\":14437:14633   */\n    tag_224:\n        /* \"#utility.yul\":14526:14536   */\n      0x00\n        /* \"#utility.yul\":14561:14627   */\n      tag_412\n        /* \"#utility.yul\":14623:14626   */\n      dup4\n        /* \"#utility.yul\":14615:14621   */\n      dup4\n        /* \"#utility.yul\":14561:14627   */\n      tag_223\n      jump\t// in\n    tag_412:\n        /* \"#utility.yul\":14547:14627   */\n      swap1\n      pop\n        /* \"#utility.yul\":14437:14633   */\n      swap3\n      swap2\n      pop\n      pop\n      jump\t// out\n        /* \"#utility.yul\":14639:14762   */\n    tag_225:\n        /* \"#utility.yul\":14719:14723   */\n      0x00\n        /* \"#utility.yul\":14751:14755   */\n      0x20\n        /* \"#utility.yul\":14746:14749   */\n      dup3\n        /* \"#utility.yul\":14742:14756   */\n      add\n        /* \"#utility.yul\":14734:14756   */\n      swap1\n      pop\n        /* \"#utility.yul\":14639:14762   */\n      swap2\n      swap1\n      pop\n      jump\t// out\n        /* \"#utility.yul\":14796:15787   */\n    tag_226:\n        /* \"#utility.yul\":14935:14938   */\n      0x00\n        /* \"#utility.yul\":14964:15028   */\n      tag_415\n        /* \"#utility.yul\":15022:15027   */\n      dup3\n        /* \"#utility.yul\":14964:15028   */\n      tag_219\n      jump\t// in\n    tag_415:\n        /* \"#utility.yul\":15044:15140   */\n      tag_416\n        /* \"#utility.yul\":15133:15139   */\n      dup2\n        /* \"#utility.yul\":15128:15131   */\n      dup6\n        /* \"#utility.yul\":15044:15140   */\n      tag_220\n      jump\t// in\n    tag_416:\n        /* \"#utility.yul\":15037:15140   */\n      swap4\n      pop\n        /* \"#utility.yul\":15166:15169   */\n      dup4\n        /* \"#utility.yul\":15211:15215   */\n      0x20\n        /* \"#utility.yul\":15203:15209   */\n      dup3\n        /* \"#utility.yul\":15199:15216   */\n      mul\n        /* \"#utility.yul\":15194:15197   */\n      dup6\n        /* \"#utility.yul\":15190:15217   */\n      add\n        /* \"#utility.yul\":15241:15307   */\n      tag_417\n        /* \"#utility.yul\":15301:15306   */\n      dup6\n        /* \"#utility.yul\":15241:15307   */\n      tag_221\n      jump\t// in\n    tag_417:\n        /* \"#utility.yul\":15330:15337   */\n      dup1\n        /* \"#utility.yul\":15361:15362   */\n      0x00\n        /* \"#utility.yul\":15346:15742   */\n    tag_418:\n        /* \"#utility.yul\":15371:15377   */\n      dup6\n        /* \"#utility.yul\":15368:15369   */\n      dup2\n        /* \"#utility.yul\":15365:15378   */\n      lt\n        /* \"#utility.yul\":15346:15742   */\n      iszero\n      tag_420\n      jumpi\n        /* \"#utility.yul\":15442:15451   */\n      dup5\n        /* \"#utility.yul\":15436:15440   */\n      dup5\n        /* \"#utility.yul\":15432:15452   */\n      sub\n        /* \"#utility.yul\":15427:15430   */\n      dup10\n        /* \"#utility.yul\":15420:15453   */\n      mstore\n        /* \"#utility.yul\":15493:15499   */\n      dup2\n        /* \"#utility.yul\":15487:15500   */\n      mload\n        /* \"#utility.yul\":15521:15605   */\n      tag_421\n        /* \"#utility.yul\":15600:15604   */\n      dup6\n        /* \"#utility.yul\":15585:15598   */\n      dup3\n        /* \"#utility.yul\":15521:15605   */\n      tag_224\n      jump\t// in\n    tag_421:\n        /* \"#utility.yul\":15513:15605   */\n      swap5\n      pop\n        /* \"#utility.yul\":15628:15698   */\n      tag_422\n        /* \"#utility.yul\":15691:15697   */\n      dup4\n        /* \"#utility.yul\":15628:15698   */\n      tag_225\n      jump\t// in\n    tag_422:\n        /* \"#utility.yul\":15618:15698   */\n      swap3\n      pop\n        /* \"#utility.yul\":15727:15731   */\n      0x20\n        /* \"#utility.yul\":15722:15725   */\n      dup11\n        /* \"#utility.yul\":15718:15732   */\n      add\n        /* \"#utility.yul\":15711:15732   */\n      swap10\n      pop\n        /* \"#utility.yul\":15406:15742   */\n      pop\n        /* \"#utility.yul\":15393:15394   */\n      0x01\n        /* \"#utility.yul\":15390:15391   */\n      dup2\n        /* \"#utility.yul\":15386:15395   */\n      add\n        /* \"#utility.yul\":15381:15395   */\n      swap1\n      pop\n        /* \"#utility.yul\":15346:15742   */\n      jump(tag_418)\n    tag_420:\n        /* \"#utility.yul\":15350:15364   */\n      pop\n        /* \"#utility.yul\":15758:15762   */\n      dup3\n        /* \"#utility.yul\":15751:15762   */\n      swap8\n      pop\n        /* \"#utility.yul\":15778:15781   */\n      dup8\n        /* \"#utility.yul\":15771:15781   */\n      swap6\n      pop\n        /* \"#utility.yul\":14940:15787   */\n      pop\n      pop\n      pop\n      pop\n      pop\n        /* \"#utility.yul\":14796:15787   */\n      swap3\n      swap2\n      pop\n      pop\n      jump\t// out\n        /* \"#utility.yul\":15793:16628   */\n    tag_64:\n        /* \"#utility.yul\":16060:16064   */\n      0x00\n        /* \"#utility.yul\":16098:16101   */\n      0x80\n        /* \"#utility.yul\":16087:16096   */\n      dup3\n        /* \"#utility.yul\":16083:16102   */\n      add\n        /* \"#utility.yul\":16075:16102   */\n      swap1\n      pop\n        /* \"#utility.yul\":16112:16183   */\n      tag_424\n        /* \"#utility.yul\":16180:16181   */\n      0x00\n        /* \"#utility.yul\":16169:16178   */\n      dup4\n        /* \"#utility.yul\":16165:16182   */\n      add\n        /* \"#utility.yul\":16156:16162   */\n      dup8\n        /* \"#utility.yul\":16112:16183   */\n      tag_217\n      jump\t// in\n    tag_424:\n        /* \"#utility.yul\":16193:16265   */\n      tag_425\n        /* \"#utility.yul\":16261:16263   */\n      0x20\n        /* \"#utility.yul\":16250:16259   */\n      dup4\n        /* \"#utility.yul\":16246:16264   */\n      add\n        /* \"#utility.yul\":16237:16243   */\n      dup7\n        /* \"#utility.yul\":16193:16265   */\n      tag_217\n      jump\t// in\n    tag_425:\n        /* \"#utility.yul\":16312:16321   */\n      dup2\n        /* \"#utility.yul\":16306:16310   */\n      dup2\n        /* \"#utility.yul\":16302:16322   */\n      sub\n        /* \"#utility.yul\":16297:16299   */\n      0x40\n        /* \"#utility.yul\":16286:16295   */\n      dup4\n        /* \"#utility.yul\":16282:16300   */\n      add\n        /* \"#utility.yul\":16275:16323   */\n      mstore\n        /* \"#utility.yul\":16340:16418   */\n      tag_426\n        /* \"#utility.yul\":16413:16417   */\n      dup2\n        /* \"#utility.yul\":16404:16410   */\n      dup6\n        /* \"#utility.yul\":16340:16418   */\n      tag_216\n      jump\t// in\n    tag_426:\n        /* \"#utility.yul\":16332:16418   */\n      swap1\n      pop\n        /* \"#utility.yul\":16465:16474   */\n      dup2\n        /* \"#utility.yul\":16459:16463   */\n      dup2\n        /* \"#utility.yul\":16455:16475   */\n      sub\n        /* \"#utility.yul\":16450:16452   */\n      0x60\n        /* \"#utility.yul\":16439:16448   */\n      dup4\n        /* \"#utility.yul\":16435:16453   */\n      add\n        /* \"#utility.yul\":16428:16476   */\n      mstore\n        /* \"#utility.yul\":16493:16621   */\n      tag_427\n        /* \"#utility.yul\":16616:16620   */\n      dup2\n        /* \"#utility.yul\":16607:16613   */\n      dup5\n        /* \"#utility.yul\":16493:16621   */\n      tag_226\n      jump\t// in\n    tag_427:\n        /* \"#utility.yul\":16485:16621   */\n      swap1\n      pop\n        /* \"#utility.yul\":15793:16628   */\n      swap6\n      swap5\n      pop\n      pop\n      pop\n      pop\n      pop\n      jump\t// out\n        /* \"#utility.yul\":16634:16879   */\n    tag_227:\n        /* \"#utility.yul\":16774:16808   */\n      0x446f63746f72206163636f756e7420616c726561647920657869737473207769\n        /* \"#utility.yul\":16770:16771   */\n      0x00\n        /* \"#utility.yul\":16762:16768   */\n      dup3\n        /* \"#utility.yul\":16758:16772   */\n      add\n        /* \"#utility.yul\":16751:16809   */\n      mstore\n        /* \"#utility.yul\":16843:16871   */\n      0x7468207468697320626c6f636b636861696e2061646472657373000000000000\n        /* \"#utility.yul\":16838:16840   */\n      0x20\n        /* \"#utility.yul\":16830:16836   */\n      dup3\n        /* \"#utility.yul\":16826:16841   */\n      add\n        /* \"#utility.yul\":16819:16872   */\n      mstore\n        /* \"#utility.yul\":16634:16879   */\n      pop\n      jump\t// out\n        /* \"#utility.yul\":16885:17251   */\n    tag_228:\n        /* \"#utility.yul\":17027:17030   */\n      0x00\n        /* \"#utility.yul\":17048:17115   */\n      tag_430\n        /* \"#utility.yul\":17112:17114   */\n      0x3a\n        /* \"#utility.yul\":17107:17110   */\n      dup4\n        /* \"#utility.yul\":17048:17115   */\n      tag_214\n      jump\t// in\n    tag_430:\n        /* \"#utility.yul\":17041:17115   */\n      swap2\n      pop\n        /* \"#utility.yul\":17124:17217   */\n      tag_431\n        /* \"#utility.yul\":17213:17216   */\n      dup3\n        /* \"#utility.yul\":17124:17217   */\n      tag_227\n      jump\t// in\n    tag_431:\n        /* \"#utility.yul\":17242:17244   */\n      0x40\n        /* \"#utility.yul\":17237:17240   */\n      dup3\n        /* \"#utility.yul\":17233:17245   */\n      add\n        /* \"#utility.yul\":17226:17245   */\n      swap1\n      pop\n        /* \"#utility.yul\":16885:17251   */\n      swap2\n      swap1\n      pop\n      jump\t// out\n        /* \"#utility.yul\":17257:17676   */\n    tag_71:\n        /* \"#utility.yul\":17423:17427   */\n      0x00\n        /* \"#utility.yul\":17461:17463   */\n      0x20\n        /* \"#utility.yul\":17450:17459   */\n      dup3\n        /* \"#utility.yul\":17446:17464   */\n      add\n        /* \"#utility.yul\":17438:17464   */\n      swap1\n      pop\n        /* \"#utility.yul\":17510:17519   */\n      dup2\n        /* \"#utility.yul\":17504:17508   */\n      dup2\n        /* \"#utility.yul\":17500:17520   */\n      sub\n        /* \"#utility.yul\":17496:17497   */\n      0x00\n        /* \"#utility.yul\":17485:17494   */\n      dup4\n        /* \"#utility.yul\":17481:17498   */\n      add\n        /* \"#utility.yul\":17474:17521   */\n      mstore\n        /* \"#utility.yul\":17538:17669   */\n      tag_433\n        /* \"#utility.yul\":17664:17668   */\n      dup2\n        /* \"#utility.yul\":17538:17669   */\n      tag_228\n      jump\t// in\n    tag_433:\n        /* \"#utility.yul\":17530:17669   */\n      swap1\n      pop\n        /* \"#utility.yul\":17257:17676   */\n      swap2\n      swap1\n      pop\n      jump\t// out\n        /* \"#utility.yul\":17682:17862   */\n    tag_229:\n        /* \"#utility.yul\":17730:17807   */\n      0x4e487b7100000000000000000000000000000000000000000000000000000000\n        /* \"#utility.yul\":17727:17728   */\n      0x00\n        /* \"#utility.yul\":17720:17808   */\n      mstore\n        /* \"#utility.yul\":17827:17831   */\n      0x11\n        /* \"#utility.yul\":17824:17825   */\n      0x04\n        /* \"#utility.yul\":17817:17832   */\n      mstore\n        /* \"#utility.yul\":17851:17855   */\n      0x24\n        /* \"#utility.yul\":17848:17849   */\n      0x00\n        /* \"#utility.yul\":17841:17856   */\n      revert\n        /* \"#utility.yul\":17868:18059   */\n    tag_73:\n        /* \"#utility.yul\":17908:17911   */\n      0x00\n        /* \"#utility.yul\":17927:17947   */\n      tag_436\n        /* \"#utility.yul\":17945:17946   */\n      dup3\n        /* \"#utility.yul\":17927:17947   */\n      tag_199\n      jump\t// in\n    tag_436:\n        /* \"#utility.yul\":17922:17947   */\n      swap2\n      pop\n        /* \"#utility.yul\":17961:17981   */\n      tag_437\n        /* \"#utility.yul\":17979:17980   */\n      dup4\n        /* \"#utility.yul\":17961:17981   */\n      tag_199\n      jump\t// in\n    tag_437:\n        /* \"#utility.yul\":17956:17981   */\n      swap3\n      pop\n        /* \"#utility.yul\":18004:18005   */\n      dup3\n        /* \"#utility.yul\":18001:18002   */\n      dup3\n        /* \"#utility.yul\":17997:18006   */\n      add\n        /* \"#utility.yul\":17990:18006   */\n      swap1\n      pop\n        /* \"#utility.yul\":18025:18028   */\n      dup1\n        /* \"#utility.yul\":18022:18023   */\n      dup3\n        /* \"#utility.yul\":18019:18029   */\n      gt\n        /* \"#utility.yul\":18016:18052   */\n      iszero\n      tag_438\n      jumpi\n        /* \"#utility.yul\":18032:18050   */\n      tag_439\n      tag_229\n      jump\t// in\n    tag_439:\n        /* \"#utility.yul\":18016:18052   */\n    tag_438:\n        /* \"#utility.yul\":17868:18059   */\n      swap3\n      swap2\n      pop\n      pop\n      jump\t// out\n        /* \"#utility.yul\":18065:18245   */\n    tag_230:\n        /* \"#utility.yul\":18113:18190   */\n      0x4e487b7100000000000000000000000000000000000000000000000000000000\n        /* \"#utility.yul\":18110:18111   */\n      0x00\n        /* \"#utility.yul\":18103:18191   */\n      mstore\n        /* \"#utility.yul\":18210:18214   */\n      0x22\n        /* \"#utility.yul\":18207:18208   */\n      0x04\n        /* \"#utility.yul\":18200:18215   */\n      mstore\n        /* \"#utility.yul\":18234:18238   */\n      0x24\n        /* \"#utility.yul\":18231:18232   */\n      0x00\n        /* \"#utility.yul\":18224:18239   */\n      revert\n        /* \"#utility.yul\":18251:18571   */\n    tag_113:\n        /* \"#utility.yul\":18295:18301   */\n      0x00\n        /* \"#utility.yul\":18332:18333   */\n      0x02\n        /* \"#utility.yul\":18326:18330   */\n      dup3\n        /* \"#utility.yul\":18322:18334   */\n      div\n        /* \"#utility.yul\":18312:18334   */\n      swap1\n      pop\n        /* \"#utility.yul\":18379:18380   */\n      0x01\n        /* \"#utility.yul\":18373:18377   */\n      dup3\n        /* \"#utility.yul\":18369:18381   */\n      and\n        /* \"#utility.yul\":18400:18418   */\n      dup1\n        /* \"#utility.yul\":18390:18471   */\n      tag_442\n      jumpi\n        /* \"#utility.yul\":18456:18460   */\n      0x7f\n        /* \"#utility.yul\":18448:18454   */\n      dup3\n        /* \"#utility.yul\":18444:18461   */\n      and\n        /* \"#utility.yul\":18434:18461   */\n      swap2\n      pop\n        /* \"#utility.yul\":18390:18471   */\n    tag_442:\n        /* \"#utility.yul\":18518:18520   */\n      0x20\n        /* \"#utility.yul\":18510:18516   */\n      dup3\n        /* \"#utility.yul\":18507:18521   */\n      lt\n        /* \"#utility.yul\":18487:18505   */\n      dup2\n        /* \"#utility.yul\":18484:18522   */\n      sub\n        /* \"#utility.yul\":18481:18565   */\n      tag_443\n      jumpi\n        /* \"#utility.yul\":18537:18555   */\n      tag_444\n      tag_230\n      jump\t// in\n    tag_444:\n        /* \"#utility.yul\":18481:18565   */\n    tag_443:\n        /* \"#utility.yul\":18302:18571   */\n      pop\n        /* \"#utility.yul\":18251:18571   */\n      swap2\n      swap1\n      pop\n      jump\t// out\n        /* \"#utility.yul\":18577:18718   */\n    tag_231:\n        /* \"#utility.yul\":18626:18630   */\n      0x00\n        /* \"#utility.yul\":18649:18652   */\n      dup2\n        /* \"#utility.yul\":18641:18652   */\n      swap1\n      pop\n        /* \"#utility.yul\":18672:18675   */\n      dup2\n        /* \"#utility.yul\":18669:18670   */\n      0x00\n        /* \"#utility.yul\":18662:18676   */\n      mstore\n        /* \"#utility.yul\":18706:18710   */\n      0x20\n        /* \"#utility.yul\":18703:18704   */\n      0x00\n        /* \"#utility.yul\":18693:18711   */\n      keccak256\n        /* \"#utility.yul\":18685:18711   */\n      swap1\n      pop\n        /* \"#utility.yul\":18577:18718   */\n      swap2\n      swap1\n      pop\n      jump\t// out\n        /* \"#utility.yul\":18724:18817   */\n    tag_232:\n        /* \"#utility.yul\":18761:18767   */\n      0x00\n        /* \"#utility.yul\":18808:18810   */\n      0x20\n        /* \"#utility.yul\":18803:18805   */\n      0x1f\n        /* \"#utility.yul\":18796:18801   */\n      dup4\n        /* \"#utility.yul\":18792:18806   */\n      add\n        /* \"#utility.yul\":18788:18811   */\n      div\n        /* \"#utility.yul\":18778:18811   */\n      swap1\n      pop\n        /* \"#utility.yul\":18724:18817   */\n      swap2\n      swap1\n      pop\n      jump\t// out\n        /* \"#utility.yul\":18823:18930   */\n    tag_233:\n        /* \"#utility.yul\":18867:18875   */\n      0x00\n        /* \"#utility.yul\":18917:18922   */\n      dup3\n        /* \"#utility.yul\":18911:18915   */\n      dup3\n        /* \"#utility.yul\":18907:18923   */\n      shl\n        /* \"#utility.yul\":18886:18923   */\n      swap1\n      pop\n        /* \"#utility.yul\":18823:18930   */\n      swap3\n      swap2\n      pop\n      pop\n      jump\t// out\n        /* \"#utility.yul\":18936:19329   */\n    tag_234:\n        /* \"#utility.yul\":19005:19011   */\n      0x00\n        /* \"#utility.yul\":19055:19056   */\n      0x08\n        /* \"#utility.yul\":19043:19053   */\n      dup4\n        /* \"#utility.yul\":19039:19057   */\n      mul\n        /* \"#utility.yul\":19078:19175   */\n      tag_449\n        /* \"#utility.yul\":19108:19174   */\n      0xffffffffffffffffffffffffffffffffffffffffffffffffffffffffffffffff\n        /* \"#utility.yul\":19097:19106   */\n      dup3\n        /* \"#utility.yul\":19078:19175   */\n      tag_233\n      jump\t// in\n    tag_449:\n        /* \"#utility.yul\":19196:19235   */\n      tag_450\n        /* \"#utility.yul\":19226:19234   */\n      dup7\n        /* \"#utility.yul\":19215:19224   */\n      dup4\n        /* \"#utility.yul\":19196:19235   */\n      tag_233\n      jump\t// in\n    tag_450:\n        /* \"#utility.yul\":19184:19235   */\n      swap6\n      pop\n        /* \"#utility.yul\":19268:19272   */\n      dup1\n        /* \"#utility.yul\":19264:19273   */\n      not\n        /* \"#utility.yul\":19257:19262   */\n      dup5\n        /* \"#utility.yul\":19253:19274   */\n      and\n        /* \"#utility.yul\":19244:19274   */\n      swap4\n      pop\n        /* \"#utility.yul\":19317:19321   */\n      dup1\n        /* \"#utility.yul\":19307:19315   */\n      dup7\n        /* \"#utility.yul\":19303:19322   */\n      and\n        /* \"#utility.yul\":19296:19301   */\n      dup5\n        /* \"#utility.yul\":19293:19323   */\n      or\n        /* \"#utility.yul\":19283:19323   */\n      swap3\n      pop\n        /* \"#utility.yul\":19012:19329   */\n      pop\n      pop\n        /* \"#utility.yul\":18936:19329   */\n      swap4\n      swap3\n      pop\n      pop\n      pop\n      jump\t// out\n        /* \"#utility.yul\":19335:19395   */\n    tag_235:\n        /* \"#utility.yul\":19363:19366   */\n      0x00\n        /* \"#utility.yul\":19384:19389   */\n      dup2\n        /* \"#utility.yul\":19377:19389   */\n      swap1\n      pop\n        /* \"#utility.yul\":19335:19395   */\n      swap2\n      swap1\n      pop\n      jump\t// out\n        /* \"#utility.yul\":19401:19543   */\n    tag_236:\n        /* \"#utility.yul\":19451:19460   */\n      0x00\n        /* \"#utility.yul\":19484:19537   */\n      tag_453\n        /* \"#utility.yul\":19502:19536   */\n      tag_454\n        /* \"#utility.yul\":19511:19535   */\n      tag_455\n        /* \"#utility.yul\":19529:19534   */\n      dup5\n        /* \"#utility.yul\":19511:19535   */\n      tag_199\n      jump\t// in\n    tag_455:\n        /* \"#utility.yul\":19502:19536   */\n      tag_235\n      jump\t// in\n    tag_454:\n        /* \"#utility.yul\":19484:19537   */\n      tag_199\n      jump\t// in\n    tag_453:\n        /* \"#utility.yul\":19471:19537   */\n      swap1\n      pop\n        /* \"#utility.yul\":19401:19543   */\n      swap2\n      swap1\n      pop\n      jump\t// out\n        /* \"#utility.yul\":19549:19624   */\n    tag_237:\n        /* \"#utility.yul\":19592:19595   */\n      0x00\n        /* \"#utility.yul\":19613:19618   */\n      dup2\n        /* \"#utility.yul\":19606:19618   */\n      swap1\n      pop\n        /* \"#utility.yul\":19549:19624   */\n      swap2\n      swap1\n      pop\n      jump\t// out\n        /* \"#utility.yul\":19630:19899   */\n    tag_238:\n        /* \"#utility.yul\":19740:19779   */\n      tag_458\n        /* \"#utility.yul\":19771:19778   */\n      dup4\n        /* \"#utility.yul\":19740:19779   */\n      tag_236\n      jump\t// in\n    tag_458:\n        /* \"#utility.yul\":19801:19892   */\n      tag_459\n        /* \"#utility.yul\":19850:19891   */\n      tag_460\n        /* \"#utility.yul\":19874:19890   */\n      dup3\n        /* \"#utility.yul\":19850:19891   */\n      tag_237\n      jump\t// in\n    tag_460:\n        /* \"#utility.yul\":19842:19848   */\n      dup5\n        /* \"#utility.yul\":19835:19839   */\n      dup5\n        /* \"#utility.yul\":19829:19840   */\n      sload\n        /* \"#utility.yul\":19801:19892   */\n      tag_234\n      jump\t// in\n    tag_459:\n        /* \"#utility.yul\":19795:19799   */\n      dup3\n        /* \"#utility.yul\":19788:19893   */\n      sstore\n        /* \"#utility.yul\":19706:19899   */\n      pop\n        /* \"#utility.yul\":19630:19899   */\n      pop\n      pop\n      pop\n      jump\t// out\n        /* \"#utility.yul\":19905:19978   */\n    tag_239:\n        /* \"#utility.yul\":19950:19953   */\n      0x00\n        /* \"#utility.yul\":19905:19978   */\n      swap1\n      jump\t// out\n        /* \"#utility.yul\":19984:20173   */\n    tag_240:\n        /* \"#utility.yul\":20061:20093   */\n      tag_463\n      tag_239\n      jump\t// in\n    tag_463:\n        /* \"#utility.yul\":20102:20167   */\n      tag_464\n        /* \"#utility.yul\":20160:20166   */\n      dup2\n        /* \"#utility.yul\":20152:20158   */\n      dup5\n        /* \"#utility.yul\":20146:20150   */\n      dup5\n        /* \"#utility.yul\":20102:20167   */\n      tag_238\n      jump\t// in\n    tag_464:\n        /* \"#utility.yul\":20037:20173   */\n      pop\n        /* \"#utility.yul\":19984:20173   */\n      pop\n      pop\n      jump\t// out\n        /* \"#utility.yul\":20179:20365   */\n    tag_241:\n        /* \"#utility.yul\":20239:20359   */\n    tag_466:\n        /* \"#utility.yul\":20256:20259   */\n      dup2\n        /* \"#utility.yul\":20249:20254   */\n      dup2\n        /* \"#utility.yul\":20246:20260   */\n      lt\n        /* \"#utility.yul\":20239:20359   */\n      iszero\n      tag_468\n      jumpi\n        /* \"#utility.yul\":20310:20349   */\n      tag_469\n        /* \"#utility.yul\":20347:20348   */\n      0x00\n        /* \"#utility.yul\":20340:20345   */\n      dup3\n        /* \"#utility.yul\":20310:20349   */\n      tag_240\n      jump\t// in\n    tag_469:\n        /* \"#utility.yul\":20283:20284   */\n      0x01\n        /* \"#utility.yul\":20276:20281   */\n      dup2\n        /* \"#utility.yul\":20272:20285   */\n      add\n        /* \"#utility.yul\":20263:20285   */\n      swap1\n      pop\n        /* \"#utility.yul\":20239:20359   */\n      jump(tag_466)\n    tag_468:\n        /* \"#utility.yul\":20179:20365   */\n      pop\n      pop\n      jump\t// out\n        /* \"#utility.yul\":20371:20914   */\n    tag_242:\n        /* \"#utility.yul\":20472:20474   */\n      0x1f\n        /* \"#utility.yul\":20467:20470   */\n      dup3\n        /* \"#utility.yul\":20464:20475   */\n      gt\n        /* \"#utility.yul\":20461:20907   */\n      iszero\n      tag_471\n      jumpi\n        /* \"#utility.yul\":20506:20544   */\n      tag_472\n        /* \"#utility.yul\":20538:20543   */\n      dup2\n        /* \"#utility.yul\":20506:20544   */\n      tag_231\n      jump\t// in\n    tag_472:\n        /* \"#utility.yul\":20590:20619   */\n      tag_473\n        /* \"#utility.yul\":20608:20618   */\n      dup5\n        /* \"#utility.yul\":20590:20619   */\n      tag_232\n      jump\t// in\n    tag_473:\n        /* \"#utility.yul\":20580:20588   */\n      dup2\n        /* \"#utility.yul\":20576:20620   */\n      add\n        /* \"#utility.yul\":20773:20775   */\n      0x20\n        /* \"#utility.yul\":20761:20771   */\n      dup6\n        /* \"#utility.yul\":20758:20776   */\n      lt\n        /* \"#utility.yul\":20755:20804   */\n      iszero\n      tag_474\n      jumpi\n        /* \"#utility.yul\":20794:20802   */\n      dup2\n        /* \"#utility.yul\":20779:20802   */\n      swap1\n      pop\n        /* \"#utility.yul\":20755:20804   */\n    tag_474:\n        /* \"#utility.yul\":20817:20897   */\n      tag_475\n        /* \"#utility.yul\":20873:20895   */\n      tag_476\n        /* \"#utility.yul\":20891:20894   */\n      dup6\n        /* \"#utility.yul\":20873:20895   */\n      tag_232\n      jump\t// in\n    tag_476:\n        /* \"#utility.yul\":20863:20871   */\n      dup4\n        /* \"#utility.yul\":20859:20896   */\n      add\n        /* \"#utility.yul\":20846:20857   */\n      dup3\n        /* \"#utility.yul\":20817:20897   */\n      tag_241\n      jump\t// in\n    tag_475:\n        /* \"#utility.yul\":20476:20907   */\n      pop\n      pop\n        /* \"#utility.yul\":20461:20907   */\n    tag_471:\n        /* \"#utility.yul\":20371:20914   */\n      pop\n      pop\n      pop\n      jump\t// out\n        /* \"#utility.yul\":20920:21037   */\n    tag_243:\n        /* \"#utility.yul\":20974:20982   */\n      0x00\n        /* \"#utility.yul\":21024:21029   */\n      dup3\n        /* \"#utility.yul\":21018:21022   */\n      dup3\n        /* \"#utility.yul\":21014:21030   */\n      shr\n        /* \"#utility.yul\":20993:21030   */\n      swap1\n      pop\n        /* \"#utility.yul\":20920:21037   */\n      swap3\n      swap2\n      pop\n      pop\n      jump\t// out\n        /* \"#utility.yul\":21043:21212   */\n    tag_244:\n        /* \"#utility.yul\":21087:21093   */\n      0x00\n        /* \"#utility.yul\":21120:21171   */\n      tag_479\n        /* \"#utility.yul\":21168:21169   */\n      0x00\n        /* \"#utility.yul\":21164:21170   */\n      not\n        /* \"#utility.yul\":21156:21161   */\n      dup5\n        /* \"#utility.yul\":21153:21154   */\n      0x08\n        /* \"#utility.yul\":21149:21162   */\n      mul\n        /* \"#utility.yul\":21120:21171   */\n      tag_243\n      jump\t// in\n    tag_479:\n        /* \"#utility.yul\":21116:21172   */\n      not\n        /* \"#utility.yul\":21201:21205   */\n      dup1\n        /* \"#utility.yul\":21195:21199   */\n      dup4\n        /* \"#utility.yul\":21191:21206   */\n      and\n        /* \"#utility.yul\":21181:21206   */\n      swap2\n      pop\n        /* \"#utility.yul\":21094:21212   */\n      pop\n        /* \"#utility.yul\":21043:21212   */\n      swap3\n      swap2\n      pop\n      pop\n      jump\t// out\n        /* \"#utility.yul\":21217:21512   */\n    tag_245:\n        /* \"#utility.yul\":21293:21297   */\n      0x00\n        /* \"#utility.yul\":21439:21468   */\n      tag_481\n        /* \"#utility.yul\":21464:21467   */\n      dup4\n        /* \"#utility.yul\":21458:21462   */\n      dup4\n        /* \"#utility.yul\":21439:21468   */\n      tag_244\n      jump\t// in\n    tag_481:\n        /* \"#utility.yul\":21431:21468   */\n      swap2\n      pop\n        /* \"#utility.yul\":21501:21504   */\n      dup3\n        /* \"#utility.yul\":21498:21499   */\n      0x02\n        /* \"#utility.yul\":21494:21505   */\n      mul\n        /* \"#utility.yul\":21488:21492   */\n      dup3\n        /* \"#utility.yul\":21485:21506   */\n      or\n        /* \"#utility.yul\":21477:21506   */\n      swap1\n      pop\n        /* \"#utility.yul\":21217:21512   */\n      swap3\n      swap2\n      pop\n      pop\n      jump\t// out\n        /* \"#utility.yul\":21517:22912   */\n    tag_75:\n        /* \"#utility.yul\":21634:21671   */\n      tag_483\n        /* \"#utility.yul\":21667:21670   */\n      dup3\n        /* \"#utility.yul\":21634:21671   */\n      tag_213\n      jump\t// in\n    tag_483:\n        /* \"#utility.yul\":21736:21754   */\n      0xffffffffffffffff\n        /* \"#utility.yul\":21728:21734   */\n      dup2\n        /* \"#utility.yul\":21725:21755   */\n      gt\n        /* \"#utility.yul\":21722:21778   */\n      iszero\n      tag_484\n      jumpi\n        /* \"#utility.yul\":21758:21776   */\n      tag_485\n      tag_192\n      jump\t// in\n    tag_485:\n        /* \"#utility.yul\":21722:21778   */\n    tag_484:\n        /* \"#utility.yul\":21802:21840   */\n      tag_486\n        /* \"#utility.yul\":21834:21838   */\n      dup3\n        /* \"#utility.yul\":21828:21839   */\n      sload\n        /* \"#utility.yul\":21802:21840   */\n      tag_113\n      jump\t// in\n    tag_486:\n        /* \"#utility.yul\":21887:21954   */\n      tag_487\n        /* \"#utility.yul\":21947:21953   */\n      dup3\n        /* \"#utility.yul\":21939:21945   */\n      dup3\n        /* \"#utility.yul\":21933:21937   */\n      dup6\n        /* \"#utility.yul\":21887:21954   */\n      tag_242\n      jump\t// in\n    tag_487:\n        /* \"#utility.yul\":21981:21982   */\n      0x00\n        /* \"#utility.yul\":22005:22009   */\n      0x20\n        /* \"#utility.yul\":21992:22009   */\n      swap1\n      pop\n        /* \"#utility.yul\":22037:22039   */\n      0x1f\n        /* \"#utility.yul\":22029:22035   */\n      dup4\n        /* \"#utility.yul\":22026:22040   */\n      gt\n        /* \"#utility.yul\":22054:22055   */\n      0x01\n        /* \"#utility.yul\":22049:22667   */\n      dup2\n      eq\n      tag_489\n      jumpi\n        /* \"#utility.yul\":22711:22712   */\n      0x00\n        /* \"#utility.yul\":22728:22734   */\n      dup5\n        /* \"#utility.yul\":22725:22802   */\n      iszero\n      tag_490\n      jumpi\n        /* \"#utility.yul\":22777:22786   */\n      dup3\n        /* \"#utility.yul\":22772:22775   */\n      dup8\n        /* \"#utility.yul\":22768:22787   */\n      add\n        /* \"#utility.yul\":22762:22788   */\n      mload\n        /* \"#utility.yul\":22753:22788   */\n      swap1\n      pop\n        /* \"#utility.yul\":22725:22802   */\n    tag_490:\n        /* \"#utility.yul\":22828:22895   */\n      tag_491\n        /* \"#utility.yul\":22888:22894   */\n      dup6\n        /* \"#utility.yul\":22881:22886   */\n      dup3\n        /* \"#utility.yul\":22828:22895   */\n      tag_245\n      jump\t// in\n    tag_491:\n        /* \"#utility.yul\":22822:22826   */\n      dup7\n        /* \"#utility.yul\":22815:22896   */\n      sstore\n        /* \"#utility.yul\":22684:22906   */\n      pop\n        /* \"#utility.yul\":22019:22906   */\n      jump(tag_488)\n        /* \"#utility.yul\":22049:22667   */\n    tag_489:\n        /* \"#utility.yul\":22101:22105   */\n      0x1f\n        /* \"#utility.yul\":22097:22106   */\n      not\n        /* \"#utility.yul\":22089:22095   */\n      dup5\n        /* \"#utility.yul\":22085:22107   */\n      and\n        /* \"#utility.yul\":22135:22172   */\n      tag_492\n        /* \"#utility.yul\":22167:22171   */\n      dup7\n        /* \"#utility.yul\":22135:22172   */\n      tag_231\n      jump\t// in\n    tag_492:\n        /* \"#utility.yul\":22194:22195   */\n      0x00\n        /* \"#utility.yul\":22208:22416   */\n    tag_493:\n        /* \"#utility.yul\":22222:22229   */\n      dup3\n        /* \"#utility.yul\":22219:22220   */\n      dup2\n        /* \"#utility.yul\":22216:22230   */\n      lt\n        /* \"#utility.yul\":22208:22416   */\n      iszero\n      tag_495\n      jumpi\n        /* \"#utility.yul\":22301:22310   */\n      dup5\n        /* \"#utility.yul\":22296:22299   */\n      dup10\n        /* \"#utility.yul\":22292:22311   */\n      add\n        /* \"#utility.yul\":22286:22312   */\n      mload\n        /* \"#utility.yul\":22278:22284   */\n      dup3\n        /* \"#utility.yul\":22271:22313   */\n      sstore\n        /* \"#utility.yul\":22352:22353   */\n      0x01\n        /* \"#utility.yul\":22344:22350   */\n      dup3\n        /* \"#utility.yul\":22340:22354   */\n      add\n        /* \"#utility.yul\":22330:22354   */\n      swap2\n      pop\n        /* \"#utility.yul\":22399:22401   */\n      0x20\n        /* \"#utility.yul\":22388:22397   */\n      dup6\n        /* \"#utility.yul\":22384:22402   */\n      add\n        /* \"#utility.yul\":22371:22402   */\n      swap5\n      pop\n        /* \"#utility.yul\":22245:22249   */\n      0x20\n        /* \"#utility.yul\":22242:22243   */\n      dup2\n        /* \"#utility.yul\":22238:22250   */\n      add\n        /* \"#utility.yul\":22233:22250   */\n      swap1\n      pop\n        /* \"#utility.yul\":22208:22416   */\n      jump(tag_493)\n    tag_495:\n        /* \"#utility.yul\":22444:22450   */\n      dup7\n        /* \"#utility.yul\":22435:22442   */\n      dup4\n        /* \"#utility.yul\":22432:22451   */\n      lt\n        /* \"#utility.yul\":22429:22608   */\n      iszero\n      tag_496\n      jumpi\n        /* \"#utility.yul\":22502:22511   */\n      dup5\n        /* \"#utility.yul\":22497:22500   */\n      dup10\n        /* \"#utility.yul\":22493:22512   */\n      add\n        /* \"#utility.yul\":22487:22513   */\n      mload\n        /* \"#utility.yul\":22545:22593   */\n      tag_497\n        /* \"#utility.yul\":22587:22591   */\n      0x1f\n        /* \"#utility.yul\":22579:22585   */\n      dup10\n        /* \"#utility.yul\":22575:22592   */\n      and\n        /* \"#utility.yul\":22564:22573   */\n      dup3\n        /* \"#utility.yul\":22545:22593   */\n      tag_244\n      jump\t// in\n    tag_497:\n        /* \"#utility.yul\":22537:22543   */\n      dup4\n        /* \"#utility.yul\":22530:22594   */\n      sstore\n        /* \"#utility.yul\":22452:22608   */\n      pop\n        /* \"#utility.yul\":22429:22608   */\n    tag_496:\n        /* \"#utility.yul\":22654:22655   */\n      0x01\n        /* \"#utility.yul\":22650:22651   */\n      0x02\n        /* \"#utility.yul\":22642:22648   */\n      dup9\n        /* \"#utility.yul\":22638:22652   */\n      mul\n        /* \"#utility.yul\":22634:22656   */\n      add\n        /* \"#utility.yul\":22628:22632   */\n      dup9\n        /* \"#utility.yul\":22621:22657   */\n      sstore\n        /* \"#utility.yul\":22056:22667   */\n      pop\n      pop\n      pop\n        /* \"#utility.yul\":22019:22906   */\n    tag_488:\n      pop\n        /* \"#utility.yul\":21609:22912   */\n      pop\n      pop\n      pop\n        /* \"#utility.yul\":21517:22912   */\n      pop\n      pop\n      jump\t// out\n        /* \"#utility.yul\":22918:23164   */\n    tag_246:\n        /* \"#utility.yul\":23058:23092   */\n      0x50617469656e74206163636f756e7420616c7265616479206578697374732077\n        /* \"#utility.yul\":23054:23055   */\n      0x00\n        /* \"#utility.yul\":23046:23052   */\n      dup3\n        /* \"#utility.yul\":23042:23056   */\n      add\n        /* \"#utility.yul\":23035:23093   */\n      mstore\n        /* \"#utility.yul\":23127:23156   */\n      0x697468207468697320626c6f636b636861696e20616464726573730000000000\n        /* \"#utility.yul\":23122:23124   */\n      0x20\n        /* \"#utility.yul\":23114:23120   */\n      dup3\n        /* \"#utility.yul\":23110:23125   */\n      add\n        /* \"#utility.yul\":23103:23157   */\n      mstore\n        /* \"#utility.yul\":22918:23164   */\n      pop\n      jump\t// out\n        /* \"#utility.yul\":23170:23536   */\n    tag_247:\n        /* \"#utility.yul\":23312:23315   */\n      0x00\n        /* \"#utility.yul\":23333:23400   */\n      tag_500\n        /* \"#utility.yul\":23397:23399   */\n      0x3b\n        /* \"#utility.yul\":23392:23395   */\n      dup4\n        /* \"#utility.yul\":23333:23400   */\n      tag_214\n      jump\t// in\n    tag_500:\n        /* \"#utility.yul\":23326:23400   */\n      swap2\n      pop\n        /* \"#utility.yul\":23409:23502   */\n      tag_501\n        /* \"#utility.yul\":23498:23501   */\n      dup3\n        /* \"#utility.yul\":23409:23502   */\n      tag_246\n      jump\t// in\n    tag_501:\n        /* \"#utility.yul\":23527:23529   */\n      0x40\n        /* \"#utility.yul\":23522:23525   */\n      dup3\n        /* \"#utility.yul\":23518:23530   */\n      add\n        /* \"#utility.yul\":23511:23530   */\n      swap1\n      pop\n        /* \"#utility.yul\":23170:23536   */\n      swap2\n      swap1\n      pop\n      jump\t// out\n        /* \"#utility.yul\":23542:23961   */\n    tag_81:\n        /* \"#utility.yul\":23708:23712   */\n      0x00\n        /* \"#utility.yul\":23746:23748   */\n      0x20\n        /* \"#utility.yul\":23735:23744   */\n      dup3\n        /* \"#utility.yul\":23731:23749   */\n      add\n        /* \"#utility.yul\":23723:23749   */\n      swap1\n      pop\n        /* \"#utility.yul\":23795:23804   */\n      dup2\n        /* \"#utility.yul\":23789:23793   */\n      dup2\n        /* \"#utility.yul\":23785:23805   */\n      sub\n        /* \"#utility.yul\":23781:23782   */\n      0x00\n        /* \"#utility.yul\":23770:23779   */\n      dup4\n        /* \"#utility.yul\":23766:23783   */\n      add\n        /* \"#utility.yul\":23759:23806   */\n      mstore\n        /* \"#utility.yul\":23823:23954   */\n      tag_503\n        /* \"#utility.yul\":23949:23953   */\n      dup2\n        /* \"#utility.yul\":23823:23954   */\n      tag_247\n      jump\t// in\n    tag_503:\n        /* \"#utility.yul\":23815:23954   */\n      swap1\n      pop\n        /* \"#utility.yul\":23542:23961   */\n      swap2\n      swap1\n      pop\n      jump\t// out\n        /* \"#utility.yul\":23967:24148   */\n    tag_248:\n        /* \"#utility.yul\":24107:24140   */\n      0x4d65646963696e65207769746820696420616c72656164792065786973747300\n        /* \"#utility.yul\":24103:24104   */\n      0x00\n        /* \"#utility.yul\":24095:24101   */\n      dup3\n        /* \"#utility.yul\":24091:24105   */\n      add\n        /* \"#utility.yul\":24084:24141   */\n      mstore\n        /* \"#utility.yul\":23967:24148   */\n      pop\n      jump\t// out\n        /* \"#utility.yul\":24154:24520   */\n    tag_249:\n        /* \"#utility.yul\":24296:24299   */\n      0x00\n        /* \"#utility.yul\":24317:24384   */\n      tag_506\n        /* \"#utility.yul\":24381:24383   */\n      0x1f\n        /* \"#utility.yul\":24376:24379   */\n      dup4\n        /* \"#utility.yul\":24317:24384   */\n      tag_214\n      jump\t// in\n    tag_506:\n        /* \"#utility.yul\":24310:24384   */\n      swap2\n      pop\n        /* \"#utility.yul\":24393:24486   */\n      tag_507\n        /* \"#utility.yul\":24482:24485   */\n      dup3\n        /* \"#utility.yul\":24393:24486   */\n      tag_248\n      jump\t// in\n    tag_507:\n        /* \"#utility.yul\":24511:24513   */\n      0x20\n        /* \"#utility.yul\":24506:24509   */\n      dup3\n        /* \"#utility.yul\":24502:24514   */\n      add\n        /* \"#utility.yul\":24495:24514   */\n      swap1\n      pop\n        /* \"#utility.yul\":24154:24520   */\n      swap2\n      swap1\n      pop\n      jump\t// out\n        /* \"#utility.yul\":24526:24945   */\n    tag_87:\n        /* \"#utility.yul\":24692:24696   */\n      0x00\n        /* \"#utility.yul\":24730:24732   */\n      0x20\n        /* \"#utility.yul\":24719:24728   */\n      dup3\n        /* \"#utility.yul\":24715:24733   */\n      add\n        /* \"#utility.yul\":24707:24733   */\n      swap1\n      pop\n        /* \"#utility.yul\":24779:24788   */\n      dup2\n        /* \"#utility.yul\":24773:24777   */\n      dup2\n        /* \"#utility.yul\":24769:24789   */\n      sub\n        /* \"#utility.yul\":24765:24766   */\n      0x00\n        /* \"#utility.yul\":24754:24763   */\n      dup4\n        /* \"#utility.yul\":24750:24767   */\n      add\n        /* \"#utility.yul\":24743:24790   */\n      mstore\n        /* \"#utility.yul\":24807:24938   */\n      tag_509\n        /* \"#utility.yul\":24933:24937   */\n      dup2\n        /* \"#utility.yul\":24807:24938   */\n      tag_249\n      jump\t// in\n    tag_509:\n        /* \"#utility.yul\":24799:24938   */\n      swap1\n      pop\n        /* \"#utility.yul\":24526:24945   */\n      swap2\n      swap1\n      pop\n      jump\t// out\n        /* \"#utility.yul\":24951:25184   */\n    tag_89:\n        /* \"#utility.yul\":24990:24993   */\n      0x00\n        /* \"#utility.yul\":25013:25037   */\n      tag_511\n        /* \"#utility.yul\":25031:25036   */\n      dup3\n        /* \"#utility.yul\":25013:25037   */\n      tag_199\n      jump\t// in\n    tag_511:\n        /* \"#utility.yul\":25004:25037   */\n      swap2\n      pop\n        /* \"#utility.yul\":25059:25125   */\n      0xffffffffffffffffffffffffffffffffffffffffffffffffffffffffffffffff\n        /* \"#utility.yul\":25052:25057   */\n      dup3\n        /* \"#utility.yul\":25049:25126   */\n      sub\n        /* \"#utility.yul\":25046:25149   */\n      tag_512\n      jumpi\n        /* \"#utility.yul\":25129:25147   */\n      tag_513\n      tag_229\n      jump\t// in\n    tag_513:\n        /* \"#utility.yul\":25046:25149   */\n    tag_512:\n        /* \"#utility.yul\":25176:25177   */\n      0x01\n        /* \"#utility.yul\":25169:25174   */\n      dup3\n        /* \"#utility.yul\":25165:25178   */\n      add\n        /* \"#utility.yul\":25158:25178   */\n      swap1\n      pop\n        /* \"#utility.yul\":24951:25184   */\n      swap2\n      swap1\n      pop\n      jump\t// out\n        /* \"#utility.yul\":25190:25412   */\n    tag_250:\n        /* \"#utility.yul\":25330:25364   */\n      0x50617469656e742077697468206164647265737320646f6573206e6f74206578\n        /* \"#utility.yul\":25326:25327   */\n      0x00\n        /* \"#utility.yul\":25318:25324   */\n      dup3\n        /* \"#utility.yul\":25314:25328   */\n      add\n        /* \"#utility.yul\":25307:25365   */\n      mstore\n        /* \"#utility.yul\":25399:25404   */\n      0x6973740000000000000000000000000000000000000000000000000000000000\n        /* \"#utility.yul\":25394:25396   */\n      0x20\n        /* \"#utility.yul\":25386:25392   */\n      dup3\n        /* \"#utility.yul\":25382:25397   */\n      add\n        /* \"#utility.yul\":25375:25405   */\n      mstore\n        /* \"#utility.yul\":25190:25412   */\n      pop\n      jump\t// out\n        /* \"#utility.yul\":25418:25784   */\n    tag_251:\n        /* \"#utility.yul\":25560:25563   */\n      0x00\n        /* \"#utility.yul\":25581:25648   */\n      tag_516\n        /* \"#utility.yul\":25645:25647   */\n      0x23\n        /* \"#utility.yul\":25640:25643   */\n      dup4\n        /* \"#utility.yul\":25581:25648   */\n      tag_214\n      jump\t// in\n    tag_516:\n        /* \"#utility.yul\":25574:25648   */\n      swap2\n      pop\n        /* \"#utility.yul\":25657:25750   */\n      tag_517\n        /* \"#utility.yul\":25746:25749   */\n      dup3\n        /* \"#utility.yul\":25657:25750   */\n      tag_250\n      jump\t// in\n    tag_517:\n        /* \"#utility.yul\":25775:25777   */\n      0x40\n        /* \"#utility.yul\":25770:25773   */\n      dup3\n        /* \"#utility.yul\":25766:25778   */\n      add\n        /* \"#utility.yul\":25759:25778   */\n      swap1\n      pop\n        /* \"#utility.yul\":25418:25784   */\n      swap2\n      swap1\n      pop\n      jump\t// out\n        /* \"#utility.yul\":25790:26209   */\n    tag_96:\n        /* \"#utility.yul\":25956:25960   */\n      0x00\n        /* \"#utility.yul\":25994:25996   */\n      0x20\n        /* \"#utility.yul\":25983:25992   */\n      dup3\n        /* \"#utility.yul\":25979:25997   */\n      add\n        /* \"#utility.yul\":25971:25997   */\n      swap1\n      pop\n        /* \"#utility.yul\":26043:26052   */\n      dup2\n        /* \"#utility.yul\":26037:26041   */\n      dup2\n        /* \"#utility.yul\":26033:26053   */\n      sub\n        /* \"#utility.yul\":26029:26030   */\n      0x00\n        /* \"#utility.yul\":26018:26027   */\n      dup4\n        /* \"#utility.yul\":26014:26031   */\n      add\n        /* \"#utility.yul\":26007:26054   */\n      mstore\n        /* \"#utility.yul\":26071:26202   */\n      tag_519\n        /* \"#utility.yul\":26197:26201   */\n      dup2\n        /* \"#utility.yul\":26071:26202   */\n      tag_251\n      jump\t// in\n    tag_519:\n        /* \"#utility.yul\":26063:26202   */\n      swap1\n      pop\n        /* \"#utility.yul\":25790:26209   */\n      swap2\n      swap1\n      pop\n      jump\t// out\n        /* \"#utility.yul\":26215:26510   */\n    tag_252:\n        /* \"#utility.yul\":26355:26389   */\n      0x50617469656e74206163636f756e74207769746820626c6f636b636861696e20\n        /* \"#utility.yul\":26351:26352   */\n      0x00\n        /* \"#utility.yul\":26343:26349   */\n      dup3\n        /* \"#utility.yul\":26339:26353   */\n      add\n        /* \"#utility.yul\":26332:26390   */\n      mstore\n        /* \"#utility.yul\":26424:26458   */\n      0x6164647265737320646f6573206e6f742065786973742e20506c656173652072\n        /* \"#utility.yul\":26419:26421   */\n      0x20\n        /* \"#utility.yul\":26411:26417   */\n      dup3\n        /* \"#utility.yul\":26407:26422   */\n      add\n        /* \"#utility.yul\":26400:26459   */\n      mstore\n        /* \"#utility.yul\":26493:26502   */\n      0x6567697374657200000000000000000000000000000000000000000000000000\n        /* \"#utility.yul\":26488:26490   */\n      0x40\n        /* \"#utility.yul\":26480:26486   */\n      dup3\n        /* \"#utility.yul\":26476:26491   */\n      add\n        /* \"#utility.yul\":26469:26503   */\n      mstore\n        /* \"#utility.yul\":26215:26510   */\n      pop\n      jump\t// out\n        /* \"#utility.yul\":26516:26882   */\n    tag_253:\n        /* \"#utility.yul\":26658:26661   */\n      0x00\n        /* \"#utility.yul\":26679:26746   */\n      tag_522\n        /* \"#utility.yul\":26743:26745   */\n      0x47\n        /* \"#utility.yul\":26738:26741   */\n      dup4\n        /* \"#utility.yul\":26679:26746   */\n      tag_214\n      jump\t// in\n    tag_522:\n        /* \"#utility.yul\":26672:26746   */\n      swap2\n      pop\n        /* \"#utility.yul\":26755:26848   */\n      tag_523\n        /* \"#utility.yul\":26844:26847   */\n      dup3\n        /* \"#utility.yul\":26755:26848   */\n      tag_252\n      jump\t// in\n    tag_523:\n        /* \"#utility.yul\":26873:26875   */\n      0x60\n        /* \"#utility.yul\":26868:26871   */\n      dup3\n        /* \"#utility.yul\":26864:26876   */\n      add\n        /* \"#utility.yul\":26857:26876   */\n      swap1\n      pop\n        /* \"#utility.yul\":26516:26882   */\n      swap2\n      swap1\n      pop\n      jump\t// out\n        /* \"#utility.yul\":26888:27307   */\n    tag_102:\n        /* \"#utility.yul\":27054:27058   */\n      0x00\n        /* \"#utility.yul\":27092:27094   */\n      0x20\n        /* \"#utility.yul\":27081:27090   */\n      dup3\n        /* \"#utility.yul\":27077:27095   */\n      add\n        /* \"#utility.yul\":27069:27095   */\n      swap1\n      pop\n        /* \"#utility.yul\":27141:27150   */\n      dup2\n        /* \"#utility.yul\":27135:27139   */\n      dup2\n        /* \"#utility.yul\":27131:27151   */\n      sub\n        /* \"#utility.yul\":27127:27128   */\n      0x00\n        /* \"#utility.yul\":27116:27125   */\n      dup4\n        /* \"#utility.yul\":27112:27129   */\n      add\n        /* \"#utility.yul\":27105:27152   */\n      mstore\n        /* \"#utility.yul\":27169:27300   */\n      tag_525\n        /* \"#utility.yul\":27295:27299   */\n      dup2\n        /* \"#utility.yul\":27169:27300   */\n      tag_253\n      jump\t// in\n    tag_525:\n        /* \"#utility.yul\":27161:27300   */\n      swap1\n      pop\n        /* \"#utility.yul\":26888:27307   */\n      swap2\n      swap1\n      pop\n      jump\t// out\n        /* \"#utility.yul\":27313:27494   */\n    tag_254:\n        /* \"#utility.yul\":27453:27486   */\n      0x4d65646963696e65207769746820696420646f6573206e6f7420657869737400\n        /* \"#utility.yul\":27449:27450   */\n      0x00\n        /* \"#utility.yul\":27441:27447   */\n      dup3\n        /* \"#utility.yul\":27437:27451   */\n      add\n        /* \"#utility.yul\":27430:27487   */\n      mstore\n        /* \"#utility.yul\":27313:27494   */\n      pop\n      jump\t// out\n        /* \"#utility.yul\":27500:27866   */\n    tag_255:\n        /* \"#utility.yul\":27642:27645   */\n      0x00\n        /* \"#utility.yul\":27663:27730   */\n      tag_528\n        /* \"#utility.yul\":27727:27729   */\n      0x1f\n        /* \"#utility.yul\":27722:27725   */\n      dup4\n        /* \"#utility.yul\":27663:27730   */\n      tag_214\n      jump\t// in\n    tag_528:\n        /* \"#utility.yul\":27656:27730   */\n      swap2\n      pop\n        /* \"#utility.yul\":27739:27832   */\n      tag_529\n        /* \"#utility.yul\":27828:27831   */\n      dup3\n        /* \"#utility.yul\":27739:27832   */\n      tag_254\n      jump\t// in\n    tag_529:\n        /* \"#utility.yul\":27857:27859   */\n      0x20\n        /* \"#utility.yul\":27852:27855   */\n      dup3\n        /* \"#utility.yul\":27848:27860   */\n      add\n        /* \"#utility.yul\":27841:27860   */\n      swap1\n      pop\n        /* \"#utility.yul\":27500:27866   */\n      swap2\n      swap1\n      pop\n      jump\t// out\n        /* \"#utility.yul\":27872:28291   */\n    tag_111:\n        /* \"#utility.yul\":28038:28042   */\n      0x00\n        /* \"#utility.yul\":28076:28078   */\n      0x20\n        /* \"#utility.yul\":28065:28074   */\n      dup3\n        /* \"#utility.yul\":28061:28079   */\n      add\n        /* \"#utility.yul\":28053:28079   */\n      swap1\n      pop\n        /* \"#utility.yul\":28125:28134   */\n      dup2\n        /* \"#utility.yul\":28119:28123   */\n      dup2\n        /* \"#utility.yul\":28115:28135   */\n      sub\n        /* \"#utility.yul\":28111:28112   */\n      0x00\n        /* \"#utility.yul\":28100:28109   */\n      dup4\n        /* \"#utility.yul\":28096:28113   */\n      add\n        /* \"#utility.yul\":28089:28136   */\n      mstore\n        /* \"#utility.yul\":28153:28284   */\n      tag_531\n        /* \"#utility.yul\":28279:28283   */\n      dup2\n        /* \"#utility.yul\":28153:28284   */\n      tag_255\n      jump\t// in\n    tag_531:\n        /* \"#utility.yul\":28145:28284   */\n      swap1\n      pop\n        /* \"#utility.yul\":27872:28291   */\n      swap2\n      swap1\n      pop\n      jump\t// out\n        /* \"#utility.yul\":28297:28476   */\n    tag_256:\n        /* \"#utility.yul\":28437:28468   */\n      0x446f63746f72207769746820696420646f6573206e6f74206578697374000000\n        /* \"#utility.yul\":28433:28434   */\n      0x00\n        /* \"#utility.yul\":28425:28431   */\n      dup3\n        /* \"#utility.yul\":28421:28435   */\n      add\n        /* \"#utility.yul\":28414:28469   */\n      mstore\n        /* \"#utility.yul\":28297:28476   */\n      pop\n      jump\t// out\n        /* \"#utility.yul\":28482:28848   */\n    tag_257:\n        /* \"#utility.yul\":28624:28627   */\n      0x00\n        /* \"#utility.yul\":28645:28712   */\n      tag_534\n        /* \"#utility.yul\":28709:28711   */\n      0x1d\n        /* \"#utility.yul\":28704:28707   */\n      dup4\n        /* \"#utility.yul\":28645:28712   */\n      tag_214\n      jump\t// in\n    tag_534:\n        /* \"#utility.yul\":28638:28712   */\n      swap2\n      pop\n        /* \"#utility.yul\":28721:28814   */\n      tag_535\n        /* \"#utility.yul\":28810:28813   */\n      dup3\n        /* \"#utility.yul\":28721:28814   */\n      tag_256\n      jump\t// in\n    tag_535:\n        /* \"#utility.yul\":28839:28841   */\n      0x20\n        /* \"#utility.yul\":28834:28837   */\n      dup3\n        /* \"#utility.yul\":28830:28842   */\n      add\n        /* \"#utility.yul\":28823:28842   */\n      swap1\n      pop\n        /* \"#utility.yul\":28482:28848   */\n      swap2\n      swap1\n      pop\n      jump\t// out\n        /* \"#utility.yul\":28854:29273   */\n    tag_131:\n        /* \"#utility.yul\":29020:29024   */\n      0x00\n        /* \"#utility.yul\":29058:29060   */\n      0x20\n        /* \"#utility.yul\":29047:29056   */\n      dup3\n        /* \"#utility.yul\":29043:29061   */\n      add\n        /* \"#utility.yul\":29035:29061   */\n      swap1\n      pop\n        /* \"#utility.yul\":29107:29116   */\n      dup2\n        /* \"#utility.yul\":29101:29105   */\n      dup2\n        /* \"#utility.yul\":29097:29117   */\n      sub\n        /* \"#utility.yul\":29093:29094   */\n      0x00\n        /* \"#utility.yul\":29082:29091   */\n      dup4\n        /* \"#utility.yul\":29078:29095   */\n      add\n        /* \"#utility.yul\":29071:29118   */\n      mstore\n        /* \"#utility.yul\":29135:29266   */\n      tag_537\n        /* \"#utility.yul\":29261:29265   */\n      dup2\n        /* \"#utility.yul\":29135:29266   */\n      tag_257\n      jump\t// in\n    tag_537:\n        /* \"#utility.yul\":29127:29266   */\n      swap1\n      pop\n        /* \"#utility.yul\":28854:29273   */\n      swap2\n      swap1\n      pop\n      jump\t// out\n        /* \"#utility.yul\":29279:29459   */\n    tag_258:\n        /* \"#utility.yul\":29419:29451   */\n      0x50617469656e74207769746820696420646f6573206e6f742065786973740000\n        /* \"#utility.yul\":29415:29416   */\n      0x00\n        /* \"#utility.yul\":29407:29413   */\n      dup3\n        /* \"#utility.yul\":29403:29417   */\n      add\n        /* \"#utility.yul\":29396:29452   */\n      mstore\n        /* \"#utility.yul\":29279:29459   */\n      pop\n      jump\t// out\n        /* \"#utility.yul\":29465:29831   */\n    tag_259:\n        /* \"#utility.yul\":29607:29610   */\n      0x00\n        /* \"#utility.yul\":29628:29695   */\n      tag_540\n        /* \"#utility.yul\":29692:29694   */\n      0x1e\n        /* \"#utility.yul\":29687:29690   */\n      dup4\n        /* \"#utility.yul\":29628:29695   */\n      tag_214\n      jump\t// in\n    tag_540:\n        /* \"#utility.yul\":29621:29695   */\n      swap2\n      pop\n        /* \"#utility.yul\":29704:29797   */\n      tag_541\n        /* \"#utility.yul\":29793:29796   */\n      dup3\n        /* \"#utility.yul\":29704:29797   */\n      tag_258\n      jump\t// in\n    tag_541:\n        /* \"#utility.yul\":29822:29824   */\n      0x20\n        /* \"#utility.yul\":29817:29820   */\n      dup3\n        /* \"#utility.yul\":29813:29825   */\n      add\n        /* \"#utility.yul\":29806:29825   */\n      swap1\n      pop\n        /* \"#utility.yul\":29465:29831   */\n      swap2\n      swap1\n      pop\n      jump\t// out\n        /* \"#utility.yul\":29837:30256   */\n    tag_156:\n        /* \"#utility.yul\":30003:30007   */\n      0x00\n        /* \"#utility.yul\":30041:30043   */\n      0x20\n        /* \"#utility.yul\":30030:30039   */\n      dup3\n        /* \"#utility.yul\":30026:30044   */\n      add\n        /* \"#utility.yul\":30018:30044   */\n      swap1\n      pop\n        /* \"#utility.yul\":30090:30099   */\n      dup2\n        /* \"#utility.yul\":30084:30088   */\n      dup2\n        /* \"#utility.yul\":30080:30100   */\n      sub\n        /* \"#utility.yul\":30076:30077   */\n      0x00\n        /* \"#utility.yul\":30065:30074   */\n      dup4\n        /* \"#utility.yul\":30061:30078   */\n      add\n        /* \"#utility.yul\":30054:30101   */\n      mstore\n        /* \"#utility.yul\":30118:30249   */\n      tag_543\n        /* \"#utility.yul\":30244:30248   */\n      dup2\n        /* \"#utility.yul\":30118:30249   */\n      tag_259\n      jump\t// in\n    tag_543:\n        /* \"#utility.yul\":30110:30249   */\n      swap1\n      pop\n        /* \"#utility.yul\":29837:30256   */\n      swap2\n      swap1\n      pop\n      jump\t// out\n\n    auxdata: 0xa2646970667358221220375166ff49f60222f71ba2880a7f2d4061cdbe03a070c8f7461d3176e7ff3e2664736f6c63430008160033\n}\n",
				"bytecode": {
					"linkReferences": {},
					"object": "60806040525f6001555f6002555f60035534801561001b575f80fd5b50335f806101000a81548173ffffffffffffffffffffffffffffffffffffffff021916908373ffffffffffffffffffffffffffffffffffffffff1602179055506124ca806100685f395ff3fe608060405234801561000f575f80fd5b50600436106100b2575f3560e01c8063cc7fa2201161006f578063cc7fa22014610172578063ce606ee0146101a5578063d5cfcb06146101c3578063dcd0c2b2146101f6578063eddf377414610212578063f770da3a14610245576100b2565b806346216098146100b65780635ef2322d146100d257806375f49529146100ee578063791264ad1461010a578063a9ed3ff91461013a578063ba5e7f7f14610156575b5f80fd5b6100d060048036038101906100cb9190611669565b610266565b005b6100ec60048036038101906100e79190611740565b61043b565b005b6101086004803603810190610103919061179a565b6105e4565b005b610124600480360381019061011f91906118bf565b61072b565b60405161013191906119a1565b60405180910390f35b610154600480360381019061014f91906119c1565b610856565b005b610170600480360381019061016b9190611a08565b61095e565b005b61018c60048036038101906101879190611a08565b610a3b565b60405161019c9493929190611abc565b60405180910390f35b6101ad610c9f565b6040516101ba9190611b23565b60405180910390f35b6101dd60048036038101906101d89190611a08565b610cc2565b6040516101ed9493929190611b3c565b60405180910390f35b610210600480360381019061020b9190611b94565b610f25565b005b61022c60048036038101906102279190611a08565b611082565b60405161023c9493929190611cd5565b60405180910390f35b61024d61129f565b60405161025d9493929190611cd5565b60405180910390f35b5f60085f3373ffffffffffffffffffffffffffffffffffffffff1673ffffffffffffffffffffffffffffffffffffffff1681526020019081526020015f2054146102e5576040517f08c379a00000000000000000000000000000000000000000000000000000000081526004016102dc90611d96565b60405180910390fd5b5f600180546102f49190611de1565b90508060045f8381526020019081526020015f205f01819055508360045f8381526020019081526020015f20600101908161032f919061200e565b508260045f8381526020019081526020015f206002019081610351919061200e565b508160045f8381526020019081526020015f206003019081610373919061200e565b503360045f8381526020019081526020015f2060040160016101000a81548173ffffffffffffffffffffffffffffffffffffffff021916908373ffffffffffffffffffffffffffffffffffffffff160217905550600160045f8381526020019081526020015f206004015f6101000a81548160ff0219169083151502179055508060085f3373ffffffffffffffffffffffffffffffffffffffff1673ffffffffffffffffffffffffffffffffffffffff1681526020019081526020015f208190555050505050565b5f60075f3373ffffffffffffffffffffffffffffffffffffffff1673ffffffffffffffffffffffffffffffffffffffff1681526020019081526020015f2054146104ba576040517f08c379a00000000000000000000000000000000000000000000000000000000081526004016104b19061214d565b60405180910390fd5b5f60016002546104ca9190611de1565b90508060055f8381526020019081526020015f205f01819055508260055f8381526020019081526020015f206001019081610505919061200e565b508160055f8381526020019081526020015f2060020181905550600160055f8381526020019081526020015f206006015f6101000a81548160ff0219169083151502179055503360055f8381526020019081526020015f206004015f6101000a81548173ffffffffffffffffffffffffffffffffffffffff021916908373ffffffffffffffffffffffffffffffffffffffff1602179055508060075f3373ffffffffffffffffffffffffffffffffffffffff1673ffffffffffffffffffffffffffffffffffffffff1681526020019081526020015f2081905550505050565b5f151560065f8781526020019081526020015f206005015f9054906101000a900460ff1615151461064a576040517f08c379a0000000000000000000000000000000000000000000000000000000008152600401610641906121b5565b60405180910390fd5b60035f81548092919061065c906121d3565b91905055508460065f8781526020019081526020015f205f01819055508360065f8781526020019081526020015f20600101908161069a919061200e565b508260065f8781526020019081526020015f2060020190816106bc919061200e565b508160065f8781526020019081526020015f2060030190816106de919061200e565b508060065f8781526020019081526020015f2060040181905550600160065f8781526020019081526020015f206005015f6101000a81548160ff0219169083151502179055505050505050565b60605f60075f8473ffffffffffffffffffffffffffffffffffffffff1673ffffffffffffffffffffffffffffffffffffffff1681526020019081526020015f2054036107ac576040517f08c379a00000000000000000000000000000000000000000000000000000000081526004016107a39061228a565b60405180910390fd5b5f60075f8473ffffffffffffffffffffffffffffffffffffffff1673ffffffffffffffffffffffffffffffffffffffff1681526020019081526020015f2054905060055f8281526020019081526020015f2060050180548060200260200160405190810160405280929190818152602001828054801561084957602002820191905f5260205f20905b815481526020019060010190808311610835575b5050505050915050919050565b5f60075f3373ffffffffffffffffffffffffffffffffffffffff1673ffffffffffffffffffffffffffffffffffffffff1681526020019081526020015f2054036108d5576040517f08c379a00000000000000000000000000000000000000000000000000000000081526004016108cc9061233e565b60405180910390fd5b5f60075f3373ffffffffffffffffffffffffffffffffffffffff1673ffffffffffffffffffffffffffffffffffffffff1681526020019081526020015f2054905060055f8281526020019081526020015f2060030182908060018154018082558091505060019003905f5260205f20015f909190919091509081610959919061200e565b505050565b5f60075f3373ffffffffffffffffffffffffffffffffffffffff1673ffffffffffffffffffffffffffffffffffffffff1681526020019081526020015f2054036109dd576040517f08c379a00000000000000000000000000000000000000000000000000000000081526004016109d49061233e565b60405180910390fd5b5f60075f3373ffffffffffffffffffffffffffffffffffffffff1673ffffffffffffffffffffffffffffffffffffffff1681526020019081526020015f205490508160055f8381526020019081526020015f20600201819055505050565b60608060605f60065f8681526020019081526020015f206005015f9054906101000a900460ff16610aa1576040517f08c379a0000000000000000000000000000000000000000000000000000000008152600401610a98906123a6565b60405180910390fd5b60065f8681526020019081526020015f2060010160065f8781526020019081526020015f2060020160065f8881526020019081526020015f2060030160065f8981526020019081526020015f2060040154838054610afe90611e41565b80601f0160208091040260200160405190810160405280929190818152602001828054610b2a90611e41565b8015610b755780601f10610b4c57610100808354040283529160200191610b75565b820191905f5260205f20905b815481529060010190602001808311610b5857829003601f168201915b50505050509350828054610b8890611e41565b80601f0160208091040260200160405190810160405280929190818152602001828054610bb490611e41565b8015610bff5780601f10610bd657610100808354040283529160200191610bff565b820191905f5260205f20905b815481529060010190602001808311610be257829003601f168201915b50505050509250818054610c1290611e41565b80601f0160208091040260200160405190810160405280929190818152602001828054610c3e90611e41565b8015610c895780601f10610c6057610100808354040283529160200191610c89565b820191905f5260205f20905b815481529060010190602001808311610c6c57829003601f168201915b5050505050915093509350935093509193509193565b5f8054906101000a900473ffffffffffffffffffffffffffffffffffffffff1681565b5f606080606060045f8681526020019081526020015f206004015f9054906101000a900460ff16610d28576040517f08c379a0000000000000000000000000000000000000000000000000000000008152600401610d1f9061240e565b60405180910390fd5b60045f8681526020019081526020015f205f015460045f8781526020019081526020015f2060010160045f8881526020019081526020015f2060020160045f8981526020019081526020015f20600301828054610d8490611e41565b80601f0160208091040260200160405190810160405280929190818152602001828054610db090611e41565b8015610dfb5780601f10610dd257610100808354040283529160200191610dfb565b820191905f5260205f20905b815481529060010190602001808311610dde57829003601f168201915b50505050509250818054610e0e90611e41565b80601f0160208091040260200160405190810160405280929190818152602001828054610e3a90611e41565b8015610e855780601f10610e5c57610100808354040283529160200191610e85565b820191905f5260205f20905b815481529060010190602001808311610e6857829003601f168201915b50505050509150808054610e9890611e41565b80601f0160208091040260200160405190810160405280929190818152602001828054610ec490611e41565b8015610f0f5780601f10610ee657610100808354040283529160200191610f0f565b820191905f5260205f20905b815481529060010190602001808311610ef257829003601f168201915b5050505050905093509350935093509193509193565b5f60075f8373ffffffffffffffffffffffffffffffffffffffff1673ffffffffffffffffffffffffffffffffffffffff1681526020019081526020015f205403610fa4576040517f08c379a0000000000000000000000000000000000000000000000000000000008152600401610f9b9061228a565b60405180910390fd5b60065f8381526020019081526020015f206005015f9054906101000a900460ff16611004576040517f08c379a0000000000000000000000000000000000000000000000000000000008152600401610ffb906123a6565b60405180910390fd5b5f60075f8373ffffffffffffffffffffffffffffffffffffffff1673ffffffffffffffffffffffffffffffffffffffff1681526020019081526020015f2054905060055f8281526020019081526020015f2060050183908060018154018082558091505060019003905f5260205f20015f9091909190915055505050565b5f8060608060055f8681526020019081526020015f206006015f9054906101000a900460ff166110e7576040517f08c379a00000000000000000000000000000000000000000000000000000000081526004016110de90612476565b60405180910390fd5b60055f8681526020019081526020015f205f015460055f8781526020019081526020015f206002015460055f8881526020019081526020015f2060010160055f8981526020019081526020015f2060030181805461114490611e41565b80601f016020809104026020016040519081016040528092919081815260200182805461117090611e41565b80156111bb5780601f10611192576101008083540402835291602001916111bb565b820191905f5260205f20905b81548152906001019060200180831161119e57829003601f168201915b5050505050915080805480602002602001604051908101604052809291908181526020015f905b8282101561128a578382905f5260205f200180546111ff90611e41565b80601f016020809104026020016040519081016040528092919081815260200182805461122b90611e41565b80156112765780601f1061124d57610100808354040283529160200191611276565b820191905f5260205f20905b81548152906001019060200180831161125957829003601f168201915b5050505050815260200190600101906111e2565b50505050905093509350935093509193509193565b5f806060805f60075f3373ffffffffffffffffffffffffffffffffffffffff1673ffffffffffffffffffffffffffffffffffffffff1681526020019081526020015f205403611323576040517f08c379a000000000000000000000000000000000000000000000000000000000815260040161131a9061233e565b60405180910390fd5b5f60075f3373ffffffffffffffffffffffffffffffffffffffff1673ffffffffffffffffffffffffffffffffffffffff1681526020019081526020015f2054905060055f8281526020019081526020015f205f015460055f8381526020019081526020015f206002015460055f8481526020019081526020015f2060010160055f8581526020019081526020015f206003018180546113c190611e41565b80601f01602080910402602001604051908101604052809291908181526020018280546113ed90611e41565b80156114385780601f1061140f57610100808354040283529160200191611438565b820191905f5260205f20905b81548152906001019060200180831161141b57829003601f168201915b5050505050915080805480602002602001604051908101604052809291908181526020015f905b82821015611507578382905f5260205f2001805461147c90611e41565b80601f01602080910402602001604051908101604052809291908181526020018280546114a890611e41565b80156114f35780601f106114ca576101008083540402835291602001916114f3565b820191905f5260205f20905b8154815290600101906020018083116114d657829003601f168201915b50505050508152602001906001019061145f565b50505050905094509450945094505090919293565b5f604051905090565b5f80fd5b5f80fd5b5f80fd5b5f80fd5b5f601f19601f8301169050919050565b7f4e487b71000000000000000000000000000000000000000000000000000000005f52604160045260245ffd5b61157b82611535565b810181811067ffffffffffffffff8211171561159a57611599611545565b5b80604052505050565b5f6115ac61151c565b90506115b88282611572565b919050565b5f67ffffffffffffffff8211156115d7576115d6611545565b5b6115e082611535565b9050602081019050919050565b828183375f83830152505050565b5f61160d611608846115bd565b6115a3565b90508281526020810184848401111561162957611628611531565b5b6116348482856115ed565b509392505050565b5f82601f8301126116505761164f61152d565b5b81356116608482602086016115fb565b91505092915050565b5f805f606084860312156116805761167f611525565b5b5f84013567ffffffffffffffff81111561169d5761169c611529565b5b6116a98682870161163c565b935050602084013567ffffffffffffffff8111156116ca576116c9611529565b5b6116d68682870161163c565b925050604084013567ffffffffffffffff8111156116f7576116f6611529565b5b6117038682870161163c565b9150509250925092565b5f819050919050565b61171f8161170d565b8114611729575f80fd5b50565b5f8135905061173a81611716565b92915050565b5f806040838503121561175657611755611525565b5b5f83013567ffffffffffffffff81111561177357611772611529565b5b61177f8582860161163c565b92505060206117908582860161172c565b9150509250929050565b5f805f805f60a086880312156117b3576117b2611525565b5b5f6117c08882890161172c565b955050602086013567ffffffffffffffff8111156117e1576117e0611529565b5b6117ed8882890161163c565b945050604086013567ffffffffffffffff81111561180e5761180d611529565b5b61181a8882890161163c565b935050606086013567ffffffffffffffff81111561183b5761183a611529565b5b6118478882890161163c565b92505060806118588882890161172c565b9150509295509295909350565b5f73ffffffffffffffffffffffffffffffffffffffff82169050919050565b5f61188e82611865565b9050919050565b61189e81611884565b81146118a8575f80fd5b50565b5f813590506118b981611895565b92915050565b5f602082840312156118d4576118d3611525565b5b5f6118e1848285016118ab565b91505092915050565b5f81519050919050565b5f82825260208201905092915050565b5f819050602082019050919050565b61191c8161170d565b82525050565b5f61192d8383611913565b60208301905092915050565b5f602082019050919050565b5f61194f826118ea565b61195981856118f4565b935061196483611904565b805f5b8381101561199457815161197b8882611922565b975061198683611939565b925050600181019050611967565b5085935050505092915050565b5f6020820190508181035f8301526119b98184611945565b905092915050565b5f602082840312156119d6576119d5611525565b5b5f82013567ffffffffffffffff8111156119f3576119f2611529565b5b6119ff8482850161163c565b91505092915050565b5f60208284031215611a1d57611a1c611525565b5b5f611a2a8482850161172c565b91505092915050565b5f81519050919050565b5f82825260208201905092915050565b5f5b83811015611a6a578082015181840152602081019050611a4f565b5f8484015250505050565b5f611a7f82611a33565b611a898185611a3d565b9350611a99818560208601611a4d565b611aa281611535565b840191505092915050565b611ab68161170d565b82525050565b5f6080820190508181035f830152611ad48187611a75565b90508181036020830152611ae88186611a75565b90508181036040830152611afc8185611a75565b9050611b0b6060830184611aad565b95945050505050565b611b1d81611884565b82525050565b5f602082019050611b365f830184611b14565b92915050565b5f608082019050611b4f5f830187611aad565b8181036020830152611b618186611a75565b90508181036040830152611b758185611a75565b90508181036060830152611b898184611a75565b905095945050505050565b5f8060408385031215611baa57611ba9611525565b5b5f611bb78582860161172c565b9250506020611bc8858286016118ab565b9150509250929050565b5f81519050919050565b5f82825260208201905092915050565b5f819050602082019050919050565b5f82825260208201905092915050565b5f611c1582611a33565b611c1f8185611bfb565b9350611c2f818560208601611a4d565b611c3881611535565b840191505092915050565b5f611c4e8383611c0b565b905092915050565b5f602082019050919050565b5f611c6c82611bd2565b611c768185611bdc565b935083602082028501611c8885611bec565b805f5b85811015611cc35784840389528151611ca48582611c43565b9450611caf83611c56565b925060208a01995050600181019050611c8b565b50829750879550505050505092915050565b5f608082019050611ce85f830187611aad565b611cf56020830186611aad565b8181036040830152611d078185611a75565b90508181036060830152611d1b8184611c62565b905095945050505050565b7f446f63746f72206163636f756e7420616c7265616479206578697374732077695f8201527f7468207468697320626c6f636b636861696e2061646472657373000000000000602082015250565b5f611d80603a83611a3d565b9150611d8b82611d26565b604082019050919050565b5f6020820190508181035f830152611dad81611d74565b9050919050565b7f4e487b71000000000000000000000000000000000000000000000000000000005f52601160045260245ffd5b5f611deb8261170d565b9150611df68361170d565b9250828201905080821115611e0e57611e0d611db4565b5b92915050565b7f4e487b71000000000000000000000000000000000000000000000000000000005f52602260045260245ffd5b5f6002820490506001821680611e5857607f821691505b602082108103611e6b57611e6a611e14565b5b50919050565b5f819050815f5260205f209050919050565b5f6020601f8301049050919050565b5f82821b905092915050565b5f60088302611ecd7fffffffffffffffffffffffffffffffffffffffffffffffffffffffffffffffff82611e92565b611ed78683611e92565b95508019841693508086168417925050509392505050565b5f819050919050565b5f611f12611f0d611f088461170d565b611eef565b61170d565b9050919050565b5f819050919050565b611f2b83611ef8565b611f3f611f3782611f19565b848454611e9e565b825550505050565b5f90565b611f53611f47565b611f5e818484611f22565b505050565b5b81811015611f8157611f765f82611f4b565b600181019050611f64565b5050565b601f821115611fc657611f9781611e71565b611fa084611e83565b81016020851015611faf578190505b611fc3611fbb85611e83565b830182611f63565b50505b505050565b5f82821c905092915050565b5f611fe65f1984600802611fcb565b1980831691505092915050565b5f611ffe8383611fd7565b9150826002028217905092915050565b61201782611a33565b67ffffffffffffffff8111156120305761202f611545565b5b61203a8254611e41565b612045828285611f85565b5f60209050601f831160018114612076575f8415612064578287015190505b61206e8582611ff3565b8655506120d5565b601f19841661208486611e71565b5f5b828110156120ab57848901518255600182019150602085019450602081019050612086565b868310156120c857848901516120c4601f891682611fd7565b8355505b6001600288020188555050505b505050505050565b7f50617469656e74206163636f756e7420616c72656164792065786973747320775f8201527f697468207468697320626c6f636b636861696e20616464726573730000000000602082015250565b5f612137603b83611a3d565b9150612142826120dd565b604082019050919050565b5f6020820190508181035f8301526121648161212b565b9050919050565b7f4d65646963696e65207769746820696420616c726561647920657869737473005f82015250565b5f61219f601f83611a3d565b91506121aa8261216b565b602082019050919050565b5f6020820190508181035f8301526121cc81612193565b9050919050565b5f6121dd8261170d565b91507fffffffffffffffffffffffffffffffffffffffffffffffffffffffffffffffff820361220f5761220e611db4565b5b600182019050919050565b7f50617469656e742077697468206164647265737320646f6573206e6f742065785f8201527f6973740000000000000000000000000000000000000000000000000000000000602082015250565b5f612274602383611a3d565b915061227f8261221a565b604082019050919050565b5f6020820190508181035f8301526122a181612268565b9050919050565b7f50617469656e74206163636f756e74207769746820626c6f636b636861696e205f8201527f6164647265737320646f6573206e6f742065786973742e20506c65617365207260208201527f6567697374657200000000000000000000000000000000000000000000000000604082015250565b5f612328604783611a3d565b9150612333826122a8565b606082019050919050565b5f6020820190508181035f8301526123558161231c565b9050919050565b7f4d65646963696e65207769746820696420646f6573206e6f74206578697374005f82015250565b5f612390601f83611a3d565b915061239b8261235c565b602082019050919050565b5f6020820190508181035f8301526123bd81612384565b9050919050565b7f446f63746f72207769746820696420646f6573206e6f742065786973740000005f82015250565b5f6123f8601d83611a3d565b9150612403826123c4565b602082019050919050565b5f6020820190508181035f830152612425816123ec565b9050919050565b7f50617469656e74207769746820696420646f6573206e6f7420657869737400005f82015250565b5f612460601e83611a3d565b915061246b8261242c565b602082019050919050565b5f6020820190508181035f83015261248d81612454565b905091905056fea2646970667358221220375166ff49f60222f71ba2880a7f2d4061cdbe03a070c8f7461d3176e7ff3e2664736f6c63430008160033",
					"opcodes": "PUSH1 0x80 PUSH1 0x40 MSTORE PUSH0 PUSH1 0x1 SSTORE PUSH0 PUSH1 0x2 SSTORE PUSH0 PUSH1 0x3 SSTORE CALLVALUE DUP1 ISZERO PUSH2 0x1B JUMPI PUSH0 DUP1 REVERT JUMPDEST POP CALLER PUSH0 DUP1 PUSH2 0x100 EXP DUP2 SLOAD DUP2 PUSH20 0xFFFFFFFFFFFFFFFFFFFFFFFFFFFFFFFFFFFFFFFF MUL NOT AND SWAP1 DUP4 PUSH20 0xFFFFFFFFFFFFFFFFFFFFFFFFFFFFFFFFFFFFFFFF AND MUL OR SWAP1 SSTORE POP PUSH2 0x24CA DUP1 PUSH2 0x68 PUSH0 CODECOPY PUSH0 RETURN INVALID PUSH1 0x80 PUSH1 0x40 MSTORE CALLVALUE DUP1 ISZERO PUSH2 0xF JUMPI PUSH0 DUP1 REVERT JUMPDEST POP PUSH1 0x4 CALLDATASIZE LT PUSH2 0xB2 JUMPI PUSH0 CALLDATALOAD PUSH1 0xE0 SHR DUP1 PUSH4 0xCC7FA220 GT PUSH2 0x6F JUMPI DUP1 PUSH4 0xCC7FA220 EQ PUSH2 0x172 JUMPI DUP1 PUSH4 0xCE606EE0 EQ PUSH2 0x1A5 JUMPI DUP1 PUSH4 0xD5CFCB06 EQ PUSH2 0x1C3 JUMPI DUP1 PUSH4 0xDCD0C2B2 EQ PUSH2 0x1F6 JUMPI DUP1 PUSH4 0xEDDF3774 EQ PUSH2 0x212 JUMPI DUP1 PUSH4 0xF770DA3A EQ PUSH2 0x245 JUMPI PUSH2 0xB2 JUMP JUMPDEST DUP1 PUSH4 0x46216098 EQ PUSH2 0xB6 JUMPI DUP1 PUSH4 0x5EF2322D EQ PUSH2 0xD2 JUMPI DUP1 PUSH4 0x75F49529 EQ PUSH2 0xEE JUMPI DUP1 PUSH4 0x791264AD EQ PUSH2 0x10A JUMPI DUP1 PUSH4 0xA9ED3FF9 EQ PUSH2 0x13A JUMPI DUP1 PUSH4 0xBA5E7F7F EQ PUSH2 0x156 JUMPI JUMPDEST PUSH0 DUP1 REVERT JUMPDEST PUSH2 0xD0 PUSH1 0x4 DUP1 CALLDATASIZE SUB DUP2 ADD SWAP1 PUSH2 0xCB SWAP2 SWAP1 PUSH2 0x1669 JUMP JUMPDEST PUSH2 0x266 JUMP JUMPDEST STOP JUMPDEST PUSH2 0xEC PUSH1 0x4 DUP1 CALLDATASIZE SUB DUP2 ADD SWAP1 PUSH2 0xE7 SWAP2 SWAP1 PUSH2 0x1740 JUMP JUMPDEST PUSH2 0x43B JUMP JUMPDEST STOP JUMPDEST PUSH2 0x108 PUSH1 0x4 DUP1 CALLDATASIZE SUB DUP2 ADD SWAP1 PUSH2 0x103 SWAP2 SWAP1 PUSH2 0x179A JUMP JUMPDEST PUSH2 0x5E4 JUMP JUMPDEST STOP JUMPDEST PUSH2 0x124 PUSH1 0x4 DUP1 CALLDATASIZE SUB DUP2 ADD SWAP1 PUSH2 0x11F SWAP2 SWAP1 PUSH2 0x18BF JUMP JUMPDEST PUSH2 0x72B JUMP JUMPDEST PUSH1 0x40 MLOAD PUSH2 0x131 SWAP2 SWAP1 PUSH2 0x19A1 JUMP JUMPDEST PUSH1 0x40 MLOAD DUP1 SWAP2 SUB SWAP1 RETURN JUMPDEST PUSH2 0x154 PUSH1 0x4 DUP1 CALLDATASIZE SUB DUP2 ADD SWAP1 PUSH2 0x14F SWAP2 SWAP1 PUSH2 0x19C1 JUMP JUMPDEST PUSH2 0x856 JUMP JUMPDEST STOP JUMPDEST PUSH2 0x170 PUSH1 0x4 DUP1 CALLDATASIZE SUB DUP2 ADD SWAP1 PUSH2 0x16B SWAP2 SWAP1 PUSH2 0x1A08 JUMP JUMPDEST PUSH2 0x95E JUMP JUMPDEST STOP JUMPDEST PUSH2 0x18C PUSH1 0x4 DUP1 CALLDATASIZE SUB DUP2 ADD SWAP1 PUSH2 0x187 SWAP2 SWAP1 PUSH2 0x1A08 JUMP JUMPDEST PUSH2 0xA3B JUMP JUMPDEST PUSH1 0x40 MLOAD PUSH2 0x19C SWAP5 SWAP4 SWAP3 SWAP2 SWAP1 PUSH2 0x1ABC JUMP JUMPDEST PUSH1 0x40 MLOAD DUP1 SWAP2 SUB SWAP1 RETURN JUMPDEST PUSH2 0x1AD PUSH2 0xC9F JUMP JUMPDEST PUSH1 0x40 MLOAD PUSH2 0x1BA SWAP2 SWAP1 PUSH2 0x1B23 JUMP JUMPDEST PUSH1 0x40 MLOAD DUP1 SWAP2 SUB SWAP1 RETURN JUMPDEST PUSH2 0x1DD PUSH1 0x4 DUP1 CALLDATASIZE SUB DUP2 ADD SWAP1 PUSH2 0x1D8 SWAP2 SWAP1 PUSH2 0x1A08 JUMP JUMPDEST PUSH2 0xCC2 JUMP JUMPDEST PUSH1 0x40 MLOAD PUSH2 0x1ED SWAP5 SWAP4 SWAP3 SWAP2 SWAP1 PUSH2 0x1B3C JUMP JUMPDEST PUSH1 0x40 MLOAD DUP1 SWAP2 SUB SWAP1 RETURN JUMPDEST PUSH2 0x210 PUSH1 0x4 DUP1 CALLDATASIZE SUB DUP2 ADD SWAP1 PUSH2 0x20B SWAP2 SWAP1 PUSH2 0x1B94 JUMP JUMPDEST PUSH2 0xF25 JUMP JUMPDEST STOP JUMPDEST PUSH2 0x22C PUSH1 0x4 DUP1 CALLDATASIZE SUB DUP2 ADD SWAP1 PUSH2 0x227 SWAP2 SWAP1 PUSH2 0x1A08 JUMP JUMPDEST PUSH2 0x1082 JUMP JUMPDEST PUSH1 0x40 MLOAD PUSH2 0x23C SWAP5 SWAP4 SWAP3 SWAP2 SWAP1 PUSH2 0x1CD5 JUMP JUMPDEST PUSH1 0x40 MLOAD DUP1 SWAP2 SUB SWAP1 RETURN JUMPDEST PUSH2 0x24D PUSH2 0x129F JUMP JUMPDEST PUSH1 0x40 MLOAD PUSH2 0x25D SWAP5 SWAP4 SWAP3 SWAP2 SWAP1 PUSH2 0x1CD5 JUMP JUMPDEST PUSH1 0x40 MLOAD DUP1 SWAP2 SUB SWAP1 RETURN JUMPDEST PUSH0 PUSH1 0x8 PUSH0 CALLER PUSH20 0xFFFFFFFFFFFFFFFFFFFFFFFFFFFFFFFFFFFFFFFF AND PUSH20 0xFFFFFFFFFFFFFFFFFFFFFFFFFFFFFFFFFFFFFFFF AND DUP2 MSTORE PUSH1 0x20 ADD SWAP1 DUP2 MSTORE PUSH1 0x20 ADD PUSH0 KECCAK256 SLOAD EQ PUSH2 0x2E5 JUMPI PUSH1 0x40 MLOAD PUSH32 0x8C379A000000000000000000000000000000000000000000000000000000000 DUP2 MSTORE PUSH1 0x4 ADD PUSH2 0x2DC SWAP1 PUSH2 0x1D96 JUMP JUMPDEST PUSH1 0x40 MLOAD DUP1 SWAP2 SUB SWAP1 REVERT JUMPDEST PUSH0 PUSH1 0x1 DUP1 SLOAD PUSH2 0x2F4 SWAP2 SWAP1 PUSH2 0x1DE1 JUMP JUMPDEST SWAP1 POP DUP1 PUSH1 0x4 PUSH0 DUP4 DUP2 MSTORE PUSH1 0x20 ADD SWAP1 DUP2 MSTORE PUSH1 0x20 ADD PUSH0 KECCAK256 PUSH0 ADD DUP2 SWAP1 SSTORE POP DUP4 PUSH1 0x4 PUSH0 DUP4 DUP2 MSTORE PUSH1 0x20 ADD SWAP1 DUP2 MSTORE PUSH1 0x20 ADD PUSH0 KECCAK256 PUSH1 0x1 ADD SWAP1 DUP2 PUSH2 0x32F SWAP2 SWAP1 PUSH2 0x200E JUMP JUMPDEST POP DUP3 PUSH1 0x4 PUSH0 DUP4 DUP2 MSTORE PUSH1 0x20 ADD SWAP1 DUP2 MSTORE PUSH1 0x20 ADD PUSH0 KECCAK256 PUSH1 0x2 ADD SWAP1 DUP2 PUSH2 0x351 SWAP2 SWAP1 PUSH2 0x200E JUMP JUMPDEST POP DUP2 PUSH1 0x4 PUSH0 DUP4 DUP2 MSTORE PUSH1 0x20 ADD SWAP1 DUP2 MSTORE PUSH1 0x20 ADD PUSH0 KECCAK256 PUSH1 0x3 ADD SWAP1 DUP2 PUSH2 0x373 SWAP2 SWAP1 PUSH2 0x200E JUMP JUMPDEST POP CALLER PUSH1 0x4 PUSH0 DUP4 DUP2 MSTORE PUSH1 0x20 ADD SWAP1 DUP2 MSTORE PUSH1 0x20 ADD PUSH0 KECCAK256 PUSH1 0x4 ADD PUSH1 0x1 PUSH2 0x100 EXP DUP2 SLOAD DUP2 PUSH20 0xFFFFFFFFFFFFFFFFFFFFFFFFFFFFFFFFFFFFFFFF MUL NOT AND SWAP1 DUP4 PUSH20 0xFFFFFFFFFFFFFFFFFFFFFFFFFFFFFFFFFFFFFFFF AND MUL OR SWAP1 SSTORE POP PUSH1 0x1 PUSH1 0x4 PUSH0 DUP4 DUP2 MSTORE PUSH1 0x20 ADD SWAP1 DUP2 MSTORE PUSH1 0x20 ADD PUSH0 KECCAK256 PUSH1 0x4 ADD PUSH0 PUSH2 0x100 EXP DUP2 SLOAD DUP2 PUSH1 0xFF MUL NOT AND SWAP1 DUP4 ISZERO ISZERO MUL OR SWAP1 SSTORE POP DUP1 PUSH1 0x8 PUSH0 CALLER PUSH20 0xFFFFFFFFFFFFFFFFFFFFFFFFFFFFFFFFFFFFFFFF AND PUSH20 0xFFFFFFFFFFFFFFFFFFFFFFFFFFFFFFFFFFFFFFFF AND DUP2 MSTORE PUSH1 0x20 ADD SWAP1 DUP2 MSTORE PUSH1 0x20 ADD PUSH0 KECCAK256 DUP2 SWAP1 SSTORE POP POP POP POP POP JUMP JUMPDEST PUSH0 PUSH1 0x7 PUSH0 CALLER PUSH20 0xFFFFFFFFFFFFFFFFFFFFFFFFFFFFFFFFFFFFFFFF AND PUSH20 0xFFFFFFFFFFFFFFFFFFFFFFFFFFFFFFFFFFFFFFFF AND DUP2 MSTORE PUSH1 0x20 ADD SWAP1 DUP2 MSTORE PUSH1 0x20 ADD PUSH0 KECCAK256 SLOAD EQ PUSH2 0x4BA JUMPI PUSH1 0x40 MLOAD PUSH32 0x8C379A000000000000000000000000000000000000000000000000000000000 DUP2 MSTORE PUSH1 0x4 ADD PUSH2 0x4B1 SWAP1 PUSH2 0x214D JUMP JUMPDEST PUSH1 0x40 MLOAD DUP1 SWAP2 SUB SWAP1 REVERT JUMPDEST PUSH0 PUSH1 0x1 PUSH1 0x2 SLOAD PUSH2 0x4CA SWAP2 SWAP1 PUSH2 0x1DE1 JUMP JUMPDEST SWAP1 POP DUP1 PUSH1 0x5 PUSH0 DUP4 DUP2 MSTORE PUSH1 0x20 ADD SWAP1 DUP2 MSTORE PUSH1 0x20 ADD PUSH0 KECCAK256 PUSH0 ADD DUP2 SWAP1 SSTORE POP DUP3 PUSH1 0x5 PUSH0 DUP4 DUP2 MSTORE PUSH1 0x20 ADD SWAP1 DUP2 MSTORE PUSH1 0x20 ADD PUSH0 KECCAK256 PUSH1 0x1 ADD SWAP1 DUP2 PUSH2 0x505 SWAP2 SWAP1 PUSH2 0x200E JUMP JUMPDEST POP DUP2 PUSH1 0x5 PUSH0 DUP4 DUP2 MSTORE PUSH1 0x20 ADD SWAP1 DUP2 MSTORE PUSH1 0x20 ADD PUSH0 KECCAK256 PUSH1 0x2 ADD DUP2 SWAP1 SSTORE POP PUSH1 0x1 PUSH1 0x5 PUSH0 DUP4 DUP2 MSTORE PUSH1 0x20 ADD SWAP1 DUP2 MSTORE PUSH1 0x20 ADD PUSH0 KECCAK256 PUSH1 0x6 ADD PUSH0 PUSH2 0x100 EXP DUP2 SLOAD DUP2 PUSH1 0xFF MUL NOT AND SWAP1 DUP4 ISZERO ISZERO MUL OR SWAP1 SSTORE POP CALLER PUSH1 0x5 PUSH0 DUP4 DUP2 MSTORE PUSH1 0x20 ADD SWAP1 DUP2 MSTORE PUSH1 0x20 ADD PUSH0 KECCAK256 PUSH1 0x4 ADD PUSH0 PUSH2 0x100 EXP DUP2 SLOAD DUP2 PUSH20 0xFFFFFFFFFFFFFFFFFFFFFFFFFFFFFFFFFFFFFFFF MUL NOT AND SWAP1 DUP4 PUSH20 0xFFFFFFFFFFFFFFFFFFFFFFFFFFFFFFFFFFFFFFFF AND MUL OR SWAP1 SSTORE POP DUP1 PUSH1 0x7 PUSH0 CALLER PUSH20 0xFFFFFFFFFFFFFFFFFFFFFFFFFFFFFFFFFFFFFFFF AND PUSH20 0xFFFFFFFFFFFFFFFFFFFFFFFFFFFFFFFFFFFFFFFF AND DUP2 MSTORE PUSH1 0x20 ADD SWAP1 DUP2 MSTORE PUSH1 0x20 ADD PUSH0 KECCAK256 DUP2 SWAP1 SSTORE POP POP POP POP JUMP JUMPDEST PUSH0 ISZERO ISZERO PUSH1 0x6 PUSH0 DUP8 DUP2 MSTORE PUSH1 0x20 ADD SWAP1 DUP2 MSTORE PUSH1 0x20 ADD PUSH0 KECCAK256 PUSH1 0x5 ADD PUSH0 SWAP1 SLOAD SWAP1 PUSH2 0x100 EXP SWAP1 DIV PUSH1 0xFF AND ISZERO ISZERO EQ PUSH2 0x64A JUMPI PUSH1 0x40 MLOAD PUSH32 0x8C379A000000000000000000000000000000000000000000000000000000000 DUP2 MSTORE PUSH1 0x4 ADD PUSH2 0x641 SWAP1 PUSH2 0x21B5 JUMP JUMPDEST PUSH1 0x40 MLOAD DUP1 SWAP2 SUB SWAP1 REVERT JUMPDEST PUSH1 0x3 PUSH0 DUP2 SLOAD DUP1 SWAP3 SWAP2 SWAP1 PUSH2 0x65C SWAP1 PUSH2 0x21D3 JUMP JUMPDEST SWAP2 SWAP1 POP SSTORE POP DUP5 PUSH1 0x6 PUSH0 DUP8 DUP2 MSTORE PUSH1 0x20 ADD SWAP1 DUP2 MSTORE PUSH1 0x20 ADD PUSH0 KECCAK256 PUSH0 ADD DUP2 SWAP1 SSTORE POP DUP4 PUSH1 0x6 PUSH0 DUP8 DUP2 MSTORE PUSH1 0x20 ADD SWAP1 DUP2 MSTORE PUSH1 0x20 ADD PUSH0 KECCAK256 PUSH1 0x1 ADD SWAP1 DUP2 PUSH2 0x69A SWAP2 SWAP1 PUSH2 0x200E JUMP JUMPDEST POP DUP3 PUSH1 0x6 PUSH0 DUP8 DUP2 MSTORE PUSH1 0x20 ADD SWAP1 DUP2 MSTORE PUSH1 0x20 ADD PUSH0 KECCAK256 PUSH1 0x2 ADD SWAP1 DUP2 PUSH2 0x6BC SWAP2 SWAP1 PUSH2 0x200E JUMP JUMPDEST POP DUP2 PUSH1 0x6 PUSH0 DUP8 DUP2 MSTORE PUSH1 0x20 ADD SWAP1 DUP2 MSTORE PUSH1 0x20 ADD PUSH0 KECCAK256 PUSH1 0x3 ADD SWAP1 DUP2 PUSH2 0x6DE SWAP2 SWAP1 PUSH2 0x200E JUMP JUMPDEST POP DUP1 PUSH1 0x6 PUSH0 DUP8 DUP2 MSTORE PUSH1 0x20 ADD SWAP1 DUP2 MSTORE PUSH1 0x20 ADD PUSH0 KECCAK256 PUSH1 0x4 ADD DUP2 SWAP1 SSTORE POP PUSH1 0x1 PUSH1 0x6 PUSH0 DUP8 DUP2 MSTORE PUSH1 0x20 ADD SWAP1 DUP2 MSTORE PUSH1 0x20 ADD PUSH0 KECCAK256 PUSH1 0x5 ADD PUSH0 PUSH2 0x100 EXP DUP2 SLOAD DUP2 PUSH1 0xFF MUL NOT AND SWAP1 DUP4 ISZERO ISZERO MUL OR SWAP1 SSTORE POP POP POP POP POP POP JUMP JUMPDEST PUSH1 0x60 PUSH0 PUSH1 0x7 PUSH0 DUP5 PUSH20 0xFFFFFFFFFFFFFFFFFFFFFFFFFFFFFFFFFFFFFFFF AND PUSH20 0xFFFFFFFFFFFFFFFFFFFFFFFFFFFFFFFFFFFFFFFF AND DUP2 MSTORE PUSH1 0x20 ADD SWAP1 DUP2 MSTORE PUSH1 0x20 ADD PUSH0 KECCAK256 SLOAD SUB PUSH2 0x7AC JUMPI PUSH1 0x40 MLOAD PUSH32 0x8C379A000000000000000000000000000000000000000000000000000000000 DUP2 MSTORE PUSH1 0x4 ADD PUSH2 0x7A3 SWAP1 PUSH2 0x228A JUMP JUMPDEST PUSH1 0x40 MLOAD DUP1 SWAP2 SUB SWAP1 REVERT JUMPDEST PUSH0 PUSH1 0x7 PUSH0 DUP5 PUSH20 0xFFFFFFFFFFFFFFFFFFFFFFFFFFFFFFFFFFFFFFFF AND PUSH20 0xFFFFFFFFFFFFFFFFFFFFFFFFFFFFFFFFFFFFFFFF AND DUP2 MSTORE PUSH1 0x20 ADD SWAP1 DUP2 MSTORE PUSH1 0x20 ADD PUSH0 KECCAK256 SLOAD SWAP1 POP PUSH1 0x5 PUSH0 DUP3 DUP2 MSTORE PUSH1 0x20 ADD SWAP1 DUP2 MSTORE PUSH1 0x20 ADD PUSH0 KECCAK256 PUSH1 0x5 ADD DUP1 SLOAD DUP1 PUSH1 0x20 MUL PUSH1 0x20 ADD PUSH1 0x40 MLOAD SWAP1 DUP2 ADD PUSH1 0x40 MSTORE DUP1 SWAP3 SWAP2 SWAP1 DUP2 DUP2 MSTORE PUSH1 0x20 ADD DUP3 DUP1 SLOAD DUP1 ISZERO PUSH2 0x849 JUMPI PUSH1 0x20 MUL DUP3 ADD SWAP2 SWAP1 PUSH0 MSTORE PUSH1 0x20 PUSH0 KECCAK256 SWAP1 JUMPDEST DUP2 SLOAD DUP2 MSTORE PUSH1 0x20 ADD SWAP1 PUSH1 0x1 ADD SWAP1 DUP1 DUP4 GT PUSH2 0x835 JUMPI JUMPDEST POP POP POP POP POP SWAP2 POP POP SWAP2 SWAP1 POP JUMP JUMPDEST PUSH0 PUSH1 0x7 PUSH0 CALLER PUSH20 0xFFFFFFFFFFFFFFFFFFFFFFFFFFFFFFFFFFFFFFFF AND PUSH20 0xFFFFFFFFFFFFFFFFFFFFFFFFFFFFFFFFFFFFFFFF AND DUP2 MSTORE PUSH1 0x20 ADD SWAP1 DUP2 MSTORE PUSH1 0x20 ADD PUSH0 KECCAK256 SLOAD SUB PUSH2 0x8D5 JUMPI PUSH1 0x40 MLOAD PUSH32 0x8C379A000000000000000000000000000000000000000000000000000000000 DUP2 MSTORE PUSH1 0x4 ADD PUSH2 0x8CC SWAP1 PUSH2 0x233E JUMP JUMPDEST PUSH1 0x40 MLOAD DUP1 SWAP2 SUB SWAP1 REVERT JUMPDEST PUSH0 PUSH1 0x7 PUSH0 CALLER PUSH20 0xFFFFFFFFFFFFFFFFFFFFFFFFFFFFFFFFFFFFFFFF AND PUSH20 0xFFFFFFFFFFFFFFFFFFFFFFFFFFFFFFFFFFFFFFFF AND DUP2 MSTORE PUSH1 0x20 ADD SWAP1 DUP2 MSTORE PUSH1 0x20 ADD PUSH0 KECCAK256 SLOAD SWAP1 POP PUSH1 0x5 PUSH0 DUP3 DUP2 MSTORE PUSH1 0x20 ADD SWAP1 DUP2 MSTORE PUSH1 0x20 ADD PUSH0 KECCAK256 PUSH1 0x3 ADD DUP3 SWAP1 DUP1 PUSH1 0x1 DUP2 SLOAD ADD DUP1 DUP3 SSTORE DUP1 SWAP2 POP POP PUSH1 0x1 SWAP1 SUB SWAP1 PUSH0 MSTORE PUSH1 0x20 PUSH0 KECCAK256 ADD PUSH0 SWAP1 SWAP2 SWAP1 SWAP2 SWAP1 SWAP2 POP SWAP1 DUP2 PUSH2 0x959 SWAP2 SWAP1 PUSH2 0x200E JUMP JUMPDEST POP POP POP JUMP JUMPDEST PUSH0 PUSH1 0x7 PUSH0 CALLER PUSH20 0xFFFFFFFFFFFFFFFFFFFFFFFFFFFFFFFFFFFFFFFF AND PUSH20 0xFFFFFFFFFFFFFFFFFFFFFFFFFFFFFFFFFFFFFFFF AND DUP2 MSTORE PUSH1 0x20 ADD SWAP1 DUP2 MSTORE PUSH1 0x20 ADD PUSH0 KECCAK256 SLOAD SUB PUSH2 0x9DD JUMPI PUSH1 0x40 MLOAD PUSH32 0x8C379A000000000000000000000000000000000000000000000000000000000 DUP2 MSTORE PUSH1 0x4 ADD PUSH2 0x9D4 SWAP1 PUSH2 0x233E JUMP JUMPDEST PUSH1 0x40 MLOAD DUP1 SWAP2 SUB SWAP1 REVERT JUMPDEST PUSH0 PUSH1 0x7 PUSH0 CALLER PUSH20 0xFFFFFFFFFFFFFFFFFFFFFFFFFFFFFFFFFFFFFFFF AND PUSH20 0xFFFFFFFFFFFFFFFFFFFFFFFFFFFFFFFFFFFFFFFF AND DUP2 MSTORE PUSH1 0x20 ADD SWAP1 DUP2 MSTORE PUSH1 0x20 ADD PUSH0 KECCAK256 SLOAD SWAP1 POP DUP2 PUSH1 0x5 PUSH0 DUP4 DUP2 MSTORE PUSH1 0x20 ADD SWAP1 DUP2 MSTORE PUSH1 0x20 ADD PUSH0 KECCAK256 PUSH1 0x2 ADD DUP2 SWAP1 SSTORE POP POP POP JUMP JUMPDEST PUSH1 0x60 DUP1 PUSH1 0x60 PUSH0 PUSH1 0x6 PUSH0 DUP7 DUP2 MSTORE PUSH1 0x20 ADD SWAP1 DUP2 MSTORE PUSH1 0x20 ADD PUSH0 KECCAK256 PUSH1 0x5 ADD PUSH0 SWAP1 SLOAD SWAP1 PUSH2 0x100 EXP SWAP1 DIV PUSH1 0xFF AND PUSH2 0xAA1 JUMPI PUSH1 0x40 MLOAD PUSH32 0x8C379A000000000000000000000000000000000000000000000000000000000 DUP2 MSTORE PUSH1 0x4 ADD PUSH2 0xA98 SWAP1 PUSH2 0x23A6 JUMP JUMPDEST PUSH1 0x40 MLOAD DUP1 SWAP2 SUB SWAP1 REVERT JUMPDEST PUSH1 0x6 PUSH0 DUP7 DUP2 MSTORE PUSH1 0x20 ADD SWAP1 DUP2 MSTORE PUSH1 0x20 ADD PUSH0 KECCAK256 PUSH1 0x1 ADD PUSH1 0x6 PUSH0 DUP8 DUP2 MSTORE PUSH1 0x20 ADD SWAP1 DUP2 MSTORE PUSH1 0x20 ADD PUSH0 KECCAK256 PUSH1 0x2 ADD PUSH1 0x6 PUSH0 DUP9 DUP2 MSTORE PUSH1 0x20 ADD SWAP1 DUP2 MSTORE PUSH1 0x20 ADD PUSH0 KECCAK256 PUSH1 0x3 ADD PUSH1 0x6 PUSH0 DUP10 DUP2 MSTORE PUSH1 0x20 ADD SWAP1 DUP2 MSTORE PUSH1 0x20 ADD PUSH0 KECCAK256 PUSH1 0x4 ADD SLOAD DUP4 DUP1 SLOAD PUSH2 0xAFE SWAP1 PUSH2 0x1E41 JUMP JUMPDEST DUP1 PUSH1 0x1F ADD PUSH1 0x20 DUP1 SWAP2 DIV MUL PUSH1 0x20 ADD PUSH1 0x40 MLOAD SWAP1 DUP2 ADD PUSH1 0x40 MSTORE DUP1 SWAP3 SWAP2 SWAP1 DUP2 DUP2 MSTORE PUSH1 0x20 ADD DUP3 DUP1 SLOAD PUSH2 0xB2A SWAP1 PUSH2 0x1E41 JUMP JUMPDEST DUP1 ISZERO PUSH2 0xB75 JUMPI DUP1 PUSH1 0x1F LT PUSH2 0xB4C JUMPI PUSH2 0x100 DUP1 DUP4 SLOAD DIV MUL DUP4 MSTORE SWAP2 PUSH1 0x20 ADD SWAP2 PUSH2 0xB75 JUMP JUMPDEST DUP3 ADD SWAP2 SWAP1 PUSH0 MSTORE PUSH1 0x20 PUSH0 KECCAK256 SWAP1 JUMPDEST DUP2 SLOAD DUP2 MSTORE SWAP1 PUSH1 0x1 ADD SWAP1 PUSH1 0x20 ADD DUP1 DUP4 GT PUSH2 0xB58 JUMPI DUP3 SWAP1 SUB PUSH1 0x1F AND DUP3 ADD SWAP2 JUMPDEST POP POP POP POP POP SWAP4 POP DUP3 DUP1 SLOAD PUSH2 0xB88 SWAP1 PUSH2 0x1E41 JUMP JUMPDEST DUP1 PUSH1 0x1F ADD PUSH1 0x20 DUP1 SWAP2 DIV MUL PUSH1 0x20 ADD PUSH1 0x40 MLOAD SWAP1 DUP2 ADD PUSH1 0x40 MSTORE DUP1 SWAP3 SWAP2 SWAP1 DUP2 DUP2 MSTORE PUSH1 0x20 ADD DUP3 DUP1 SLOAD PUSH2 0xBB4 SWAP1 PUSH2 0x1E41 JUMP JUMPDEST DUP1 ISZERO PUSH2 0xBFF JUMPI DUP1 PUSH1 0x1F LT PUSH2 0xBD6 JUMPI PUSH2 0x100 DUP1 DUP4 SLOAD DIV MUL DUP4 MSTORE SWAP2 PUSH1 0x20 ADD SWAP2 PUSH2 0xBFF JUMP JUMPDEST DUP3 ADD SWAP2 SWAP1 PUSH0 MSTORE PUSH1 0x20 PUSH0 KECCAK256 SWAP1 JUMPDEST DUP2 SLOAD DUP2 MSTORE SWAP1 PUSH1 0x1 ADD SWAP1 PUSH1 0x20 ADD DUP1 DUP4 GT PUSH2 0xBE2 JUMPI DUP3 SWAP1 SUB PUSH1 0x1F AND DUP3 ADD SWAP2 JUMPDEST POP POP POP POP POP SWAP3 POP DUP2 DUP1 SLOAD PUSH2 0xC12 SWAP1 PUSH2 0x1E41 JUMP JUMPDEST DUP1 PUSH1 0x1F ADD PUSH1 0x20 DUP1 SWAP2 DIV MUL PUSH1 0x20 ADD PUSH1 0x40 MLOAD SWAP1 DUP2 ADD PUSH1 0x40 MSTORE DUP1 SWAP3 SWAP2 SWAP1 DUP2 DUP2 MSTORE PUSH1 0x20 ADD DUP3 DUP1 SLOAD PUSH2 0xC3E SWAP1 PUSH2 0x1E41 JUMP JUMPDEST DUP1 ISZERO PUSH2 0xC89 JUMPI DUP1 PUSH1 0x1F LT PUSH2 0xC60 JUMPI PUSH2 0x100 DUP1 DUP4 SLOAD DIV MUL DUP4 MSTORE SWAP2 PUSH1 0x20 ADD SWAP2 PUSH2 0xC89 JUMP JUMPDEST DUP3 ADD SWAP2 SWAP1 PUSH0 MSTORE PUSH1 0x20 PUSH0 KECCAK256 SWAP1 JUMPDEST DUP2 SLOAD DUP2 MSTORE SWAP1 PUSH1 0x1 ADD SWAP1 PUSH1 0x20 ADD DUP1 DUP4 GT PUSH2 0xC6C JUMPI DUP3 SWAP1 SUB PUSH1 0x1F AND DUP3 ADD SWAP2 JUMPDEST POP POP POP POP POP SWAP2 POP SWAP4 POP SWAP4 POP SWAP4 POP SWAP4 POP SWAP2 SWAP4 POP SWAP2 SWAP4 JUMP JUMPDEST PUSH0 DUP1 SLOAD SWAP1 PUSH2 0x100 EXP SWAP1 DIV PUSH20 0xFFFFFFFFFFFFFFFFFFFFFFFFFFFFFFFFFFFFFFFF AND DUP2 JUMP JUMPDEST PUSH0 PUSH1 0x60 DUP1 PUSH1 0x60 PUSH1 0x4 PUSH0 DUP7 DUP2 MSTORE PUSH1 0x20 ADD SWAP1 DUP2 MSTORE PUSH1 0x20 ADD PUSH0 KECCAK256 PUSH1 0x4 ADD PUSH0 SWAP1 SLOAD SWAP1 PUSH2 0x100 EXP SWAP1 DIV PUSH1 0xFF AND PUSH2 0xD28 JUMPI PUSH1 0x40 MLOAD PUSH32 0x8C379A000000000000000000000000000000000000000000000000000000000 DUP2 MSTORE PUSH1 0x4 ADD PUSH2 0xD1F SWAP1 PUSH2 0x240E JUMP JUMPDEST PUSH1 0x40 MLOAD DUP1 SWAP2 SUB SWAP1 REVERT JUMPDEST PUSH1 0x4 PUSH0 DUP7 DUP2 MSTORE PUSH1 0x20 ADD SWAP1 DUP2 MSTORE PUSH1 0x20 ADD PUSH0 KECCAK256 PUSH0 ADD SLOAD PUSH1 0x4 PUSH0 DUP8 DUP2 MSTORE PUSH1 0x20 ADD SWAP1 DUP2 MSTORE PUSH1 0x20 ADD PUSH0 KECCAK256 PUSH1 0x1 ADD PUSH1 0x4 PUSH0 DUP9 DUP2 MSTORE PUSH1 0x20 ADD SWAP1 DUP2 MSTORE PUSH1 0x20 ADD PUSH0 KECCAK256 PUSH1 0x2 ADD PUSH1 0x4 PUSH0 DUP10 DUP2 MSTORE PUSH1 0x20 ADD SWAP1 DUP2 MSTORE PUSH1 0x20 ADD PUSH0 KECCAK256 PUSH1 0x3 ADD DUP3 DUP1 SLOAD PUSH2 0xD84 SWAP1 PUSH2 0x1E41 JUMP JUMPDEST DUP1 PUSH1 0x1F ADD PUSH1 0x20 DUP1 SWAP2 DIV MUL PUSH1 0x20 ADD PUSH1 0x40 MLOAD SWAP1 DUP2 ADD PUSH1 0x40 MSTORE DUP1 SWAP3 SWAP2 SWAP1 DUP2 DUP2 MSTORE PUSH1 0x20 ADD DUP3 DUP1 SLOAD PUSH2 0xDB0 SWAP1 PUSH2 0x1E41 JUMP JUMPDEST DUP1 ISZERO PUSH2 0xDFB JUMPI DUP1 PUSH1 0x1F LT PUSH2 0xDD2 JUMPI PUSH2 0x100 DUP1 DUP4 SLOAD DIV MUL DUP4 MSTORE SWAP2 PUSH1 0x20 ADD SWAP2 PUSH2 0xDFB JUMP JUMPDEST DUP3 ADD SWAP2 SWAP1 PUSH0 MSTORE PUSH1 0x20 PUSH0 KECCAK256 SWAP1 JUMPDEST DUP2 SLOAD DUP2 MSTORE SWAP1 PUSH1 0x1 ADD SWAP1 PUSH1 0x20 ADD DUP1 DUP4 GT PUSH2 0xDDE JUMPI DUP3 SWAP1 SUB PUSH1 0x1F AND DUP3 ADD SWAP2 JUMPDEST POP POP POP POP POP SWAP3 POP DUP2 DUP1 SLOAD PUSH2 0xE0E SWAP1 PUSH2 0x1E41 JUMP JUMPDEST DUP1 PUSH1 0x1F ADD PUSH1 0x20 DUP1 SWAP2 DIV MUL PUSH1 0x20 ADD PUSH1 0x40 MLOAD SWAP1 DUP2 ADD PUSH1 0x40 MSTORE DUP1 SWAP3 SWAP2 SWAP1 DUP2 DUP2 MSTORE PUSH1 0x20 ADD DUP3 DUP1 SLOAD PUSH2 0xE3A SWAP1 PUSH2 0x1E41 JUMP JUMPDEST DUP1 ISZERO PUSH2 0xE85 JUMPI DUP1 PUSH1 0x1F LT PUSH2 0xE5C JUMPI PUSH2 0x100 DUP1 DUP4 SLOAD DIV MUL DUP4 MSTORE SWAP2 PUSH1 0x20 ADD SWAP2 PUSH2 0xE85 JUMP JUMPDEST DUP3 ADD SWAP2 SWAP1 PUSH0 MSTORE PUSH1 0x20 PUSH0 KECCAK256 SWAP1 JUMPDEST DUP2 SLOAD DUP2 MSTORE SWAP1 PUSH1 0x1 ADD SWAP1 PUSH1 0x20 ADD DUP1 DUP4 GT PUSH2 0xE68 JUMPI DUP3 SWAP1 SUB PUSH1 0x1F AND DUP3 ADD SWAP2 JUMPDEST POP POP POP POP POP SWAP2 POP DUP1 DUP1 SLOAD PUSH2 0xE98 SWAP1 PUSH2 0x1E41 JUMP JUMPDEST DUP1 PUSH1 0x1F ADD PUSH1 0x20 DUP1 SWAP2 DIV MUL PUSH1 0x20 ADD PUSH1 0x40 MLOAD SWAP1 DUP2 ADD PUSH1 0x40 MSTORE DUP1 SWAP3 SWAP2 SWAP1 DUP2 DUP2 MSTORE PUSH1 0x20 ADD DUP3 DUP1 SLOAD PUSH2 0xEC4 SWAP1 PUSH2 0x1E41 JUMP JUMPDEST DUP1 ISZERO PUSH2 0xF0F JUMPI DUP1 PUSH1 0x1F LT PUSH2 0xEE6 JUMPI PUSH2 0x100 DUP1 DUP4 SLOAD DIV MUL DUP4 MSTORE SWAP2 PUSH1 0x20 ADD SWAP2 PUSH2 0xF0F JUMP JUMPDEST DUP3 ADD SWAP2 SWAP1 PUSH0 MSTORE PUSH1 0x20 PUSH0 KECCAK256 SWAP1 JUMPDEST DUP2 SLOAD DUP2 MSTORE SWAP1 PUSH1 0x1 ADD SWAP1 PUSH1 0x20 ADD DUP1 DUP4 GT PUSH2 0xEF2 JUMPI DUP3 SWAP1 SUB PUSH1 0x1F AND DUP3 ADD SWAP2 JUMPDEST POP POP POP POP POP SWAP1 POP SWAP4 POP SWAP4 POP SWAP4 POP SWAP4 POP SWAP2 SWAP4 POP SWAP2 SWAP4 JUMP JUMPDEST PUSH0 PUSH1 0x7 PUSH0 DUP4 PUSH20 0xFFFFFFFFFFFFFFFFFFFFFFFFFFFFFFFFFFFFFFFF AND PUSH20 0xFFFFFFFFFFFFFFFFFFFFFFFFFFFFFFFFFFFFFFFF AND DUP2 MSTORE PUSH1 0x20 ADD SWAP1 DUP2 MSTORE PUSH1 0x20 ADD PUSH0 KECCAK256 SLOAD SUB PUSH2 0xFA4 JUMPI PUSH1 0x40 MLOAD PUSH32 0x8C379A000000000000000000000000000000000000000000000000000000000 DUP2 MSTORE PUSH1 0x4 ADD PUSH2 0xF9B SWAP1 PUSH2 0x228A JUMP JUMPDEST PUSH1 0x40 MLOAD DUP1 SWAP2 SUB SWAP1 REVERT JUMPDEST PUSH1 0x6 PUSH0 DUP4 DUP2 MSTORE PUSH1 0x20 ADD SWAP1 DUP2 MSTORE PUSH1 0x20 ADD PUSH0 KECCAK256 PUSH1 0x5 ADD PUSH0 SWAP1 SLOAD SWAP1 PUSH2 0x100 EXP SWAP1 DIV PUSH1 0xFF AND PUSH2 0x1004 JUMPI PUSH1 0x40 MLOAD PUSH32 0x8C379A000000000000000000000000000000000000000000000000000000000 DUP2 MSTORE PUSH1 0x4 ADD PUSH2 0xFFB SWAP1 PUSH2 0x23A6 JUMP JUMPDEST PUSH1 0x40 MLOAD DUP1 SWAP2 SUB SWAP1 REVERT JUMPDEST PUSH0 PUSH1 0x7 PUSH0 DUP4 PUSH20 0xFFFFFFFFFFFFFFFFFFFFFFFFFFFFFFFFFFFFFFFF AND PUSH20 0xFFFFFFFFFFFFFFFFFFFFFFFFFFFFFFFFFFFFFFFF AND DUP2 MSTORE PUSH1 0x20 ADD SWAP1 DUP2 MSTORE PUSH1 0x20 ADD PUSH0 KECCAK256 SLOAD SWAP1 POP PUSH1 0x5 PUSH0 DUP3 DUP2 MSTORE PUSH1 0x20 ADD SWAP1 DUP2 MSTORE PUSH1 0x20 ADD PUSH0 KECCAK256 PUSH1 0x5 ADD DUP4 SWAP1 DUP1 PUSH1 0x1 DUP2 SLOAD ADD DUP1 DUP3 SSTORE DUP1 SWAP2 POP POP PUSH1 0x1 SWAP1 SUB SWAP1 PUSH0 MSTORE PUSH1 0x20 PUSH0 KECCAK256 ADD PUSH0 SWAP1 SWAP2 SWAP1 SWAP2 SWAP1 SWAP2 POP SSTORE POP POP POP JUMP JUMPDEST PUSH0 DUP1 PUSH1 0x60 DUP1 PUSH1 0x5 PUSH0 DUP7 DUP2 MSTORE PUSH1 0x20 ADD SWAP1 DUP2 MSTORE PUSH1 0x20 ADD PUSH0 KECCAK256 PUSH1 0x6 ADD PUSH0 SWAP1 SLOAD SWAP1 PUSH2 0x100 EXP SWAP1 DIV PUSH1 0xFF AND PUSH2 0x10E7 JUMPI PUSH1 0x40 MLOAD PUSH32 0x8C379A000000000000000000000000000000000000000000000000000000000 DUP2 MSTORE PUSH1 0x4 ADD PUSH2 0x10DE SWAP1 PUSH2 0x2476 JUMP JUMPDEST PUSH1 0x40 MLOAD DUP1 SWAP2 SUB SWAP1 REVERT JUMPDEST PUSH1 0x5 PUSH0 DUP7 DUP2 MSTORE PUSH1 0x20 ADD SWAP1 DUP2 MSTORE PUSH1 0x20 ADD PUSH0 KECCAK256 PUSH0 ADD SLOAD PUSH1 0x5 PUSH0 DUP8 DUP2 MSTORE PUSH1 0x20 ADD SWAP1 DUP2 MSTORE PUSH1 0x20 ADD PUSH0 KECCAK256 PUSH1 0x2 ADD SLOAD PUSH1 0x5 PUSH0 DUP9 DUP2 MSTORE PUSH1 0x20 ADD SWAP1 DUP2 MSTORE PUSH1 0x20 ADD PUSH0 KECCAK256 PUSH1 0x1 ADD PUSH1 0x5 PUSH0 DUP10 DUP2 MSTORE PUSH1 0x20 ADD SWAP1 DUP2 MSTORE PUSH1 0x20 ADD PUSH0 KECCAK256 PUSH1 0x3 ADD DUP2 DUP1 SLOAD PUSH2 0x1144 SWAP1 PUSH2 0x1E41 JUMP JUMPDEST DUP1 PUSH1 0x1F ADD PUSH1 0x20 DUP1 SWAP2 DIV MUL PUSH1 0x20 ADD PUSH1 0x40 MLOAD SWAP1 DUP2 ADD PUSH1 0x40 MSTORE DUP1 SWAP3 SWAP2 SWAP1 DUP2 DUP2 MSTORE PUSH1 0x20 ADD DUP3 DUP1 SLOAD PUSH2 0x1170 SWAP1 PUSH2 0x1E41 JUMP JUMPDEST DUP1 ISZERO PUSH2 0x11BB JUMPI DUP1 PUSH1 0x1F LT PUSH2 0x1192 JUMPI PUSH2 0x100 DUP1 DUP4 SLOAD DIV MUL DUP4 MSTORE SWAP2 PUSH1 0x20 ADD SWAP2 PUSH2 0x11BB JUMP JUMPDEST DUP3 ADD SWAP2 SWAP1 PUSH0 MSTORE PUSH1 0x20 PUSH0 KECCAK256 SWAP1 JUMPDEST DUP2 SLOAD DUP2 MSTORE SWAP1 PUSH1 0x1 ADD SWAP1 PUSH1 0x20 ADD DUP1 DUP4 GT PUSH2 0x119E JUMPI DUP3 SWAP1 SUB PUSH1 0x1F AND DUP3 ADD SWAP2 JUMPDEST POP POP POP POP POP SWAP2 POP DUP1 DUP1 SLOAD DUP1 PUSH1 0x20 MUL PUSH1 0x20 ADD PUSH1 0x40 MLOAD SWAP1 DUP2 ADD PUSH1 0x40 MSTORE DUP1 SWAP3 SWAP2 SWAP1 DUP2 DUP2 MSTORE PUSH1 0x20 ADD PUSH0 SWAP1 JUMPDEST DUP3 DUP3 LT ISZERO PUSH2 0x128A JUMPI DUP4 DUP3 SWAP1 PUSH0 MSTORE PUSH1 0x20 PUSH0 KECCAK256 ADD DUP1 SLOAD PUSH2 0x11FF SWAP1 PUSH2 0x1E41 JUMP JUMPDEST DUP1 PUSH1 0x1F ADD PUSH1 0x20 DUP1 SWAP2 DIV MUL PUSH1 0x20 ADD PUSH1 0x40 MLOAD SWAP1 DUP2 ADD PUSH1 0x40 MSTORE DUP1 SWAP3 SWAP2 SWAP1 DUP2 DUP2 MSTORE PUSH1 0x20 ADD DUP3 DUP1 SLOAD PUSH2 0x122B SWAP1 PUSH2 0x1E41 JUMP JUMPDEST DUP1 ISZERO PUSH2 0x1276 JUMPI DUP1 PUSH1 0x1F LT PUSH2 0x124D JUMPI PUSH2 0x100 DUP1 DUP4 SLOAD DIV MUL DUP4 MSTORE SWAP2 PUSH1 0x20 ADD SWAP2 PUSH2 0x1276 JUMP JUMPDEST DUP3 ADD SWAP2 SWAP1 PUSH0 MSTORE PUSH1 0x20 PUSH0 KECCAK256 SWAP1 JUMPDEST DUP2 SLOAD DUP2 MSTORE SWAP1 PUSH1 0x1 ADD SWAP1 PUSH1 0x20 ADD DUP1 DUP4 GT PUSH2 0x1259 JUMPI DUP3 SWAP1 SUB PUSH1 0x1F AND DUP3 ADD SWAP2 JUMPDEST POP POP POP POP POP DUP2 MSTORE PUSH1 0x20 ADD SWAP1 PUSH1 0x1 ADD SWAP1 PUSH2 0x11E2 JUMP JUMPDEST POP POP POP POP SWAP1 POP SWAP4 POP SWAP4 POP SWAP4 POP SWAP4 POP SWAP2 SWAP4 POP SWAP2 SWAP4 JUMP JUMPDEST PUSH0 DUP1 PUSH1 0x60 DUP1 PUSH0 PUSH1 0x7 PUSH0 CALLER PUSH20 0xFFFFFFFFFFFFFFFFFFFFFFFFFFFFFFFFFFFFFFFF AND PUSH20 0xFFFFFFFFFFFFFFFFFFFFFFFFFFFFFFFFFFFFFFFF AND DUP2 MSTORE PUSH1 0x20 ADD SWAP1 DUP2 MSTORE PUSH1 0x20 ADD PUSH0 KECCAK256 SLOAD SUB PUSH2 0x1323 JUMPI PUSH1 0x40 MLOAD PUSH32 0x8C379A000000000000000000000000000000000000000000000000000000000 DUP2 MSTORE PUSH1 0x4 ADD PUSH2 0x131A SWAP1 PUSH2 0x233E JUMP JUMPDEST PUSH1 0x40 MLOAD DUP1 SWAP2 SUB SWAP1 REVERT JUMPDEST PUSH0 PUSH1 0x7 PUSH0 CALLER PUSH20 0xFFFFFFFFFFFFFFFFFFFFFFFFFFFFFFFFFFFFFFFF AND PUSH20 0xFFFFFFFFFFFFFFFFFFFFFFFFFFFFFFFFFFFFFFFF AND DUP2 MSTORE PUSH1 0x20 ADD SWAP1 DUP2 MSTORE PUSH1 0x20 ADD PUSH0 KECCAK256 SLOAD SWAP1 POP PUSH1 0x5 PUSH0 DUP3 DUP2 MSTORE PUSH1 0x20 ADD SWAP1 DUP2 MSTORE PUSH1 0x20 ADD PUSH0 KECCAK256 PUSH0 ADD SLOAD PUSH1 0x5 PUSH0 DUP4 DUP2 MSTORE PUSH1 0x20 ADD SWAP1 DUP2 MSTORE PUSH1 0x20 ADD PUSH0 KECCAK256 PUSH1 0x2 ADD SLOAD PUSH1 0x5 PUSH0 DUP5 DUP2 MSTORE PUSH1 0x20 ADD SWAP1 DUP2 MSTORE PUSH1 0x20 ADD PUSH0 KECCAK256 PUSH1 0x1 ADD PUSH1 0x5 PUSH0 DUP6 DUP2 MSTORE PUSH1 0x20 ADD SWAP1 DUP2 MSTORE PUSH1 0x20 ADD PUSH0 KECCAK256 PUSH1 0x3 ADD DUP2 DUP1 SLOAD PUSH2 0x13C1 SWAP1 PUSH2 0x1E41 JUMP JUMPDEST DUP1 PUSH1 0x1F ADD PUSH1 0x20 DUP1 SWAP2 DIV MUL PUSH1 0x20 ADD PUSH1 0x40 MLOAD SWAP1 DUP2 ADD PUSH1 0x40 MSTORE DUP1 SWAP3 SWAP2 SWAP1 DUP2 DUP2 MSTORE PUSH1 0x20 ADD DUP3 DUP1 SLOAD PUSH2 0x13ED SWAP1 PUSH2 0x1E41 JUMP JUMPDEST DUP1 ISZERO PUSH2 0x1438 JUMPI DUP1 PUSH1 0x1F LT PUSH2 0x140F JUMPI PUSH2 0x100 DUP1 DUP4 SLOAD DIV MUL DUP4 MSTORE SWAP2 PUSH1 0x20 ADD SWAP2 PUSH2 0x1438 JUMP JUMPDEST DUP3 ADD SWAP2 SWAP1 PUSH0 MSTORE PUSH1 0x20 PUSH0 KECCAK256 SWAP1 JUMPDEST DUP2 SLOAD DUP2 MSTORE SWAP1 PUSH1 0x1 ADD SWAP1 PUSH1 0x20 ADD DUP1 DUP4 GT PUSH2 0x141B JUMPI DUP3 SWAP1 SUB PUSH1 0x1F AND DUP3 ADD SWAP2 JUMPDEST POP POP POP POP POP SWAP2 POP DUP1 DUP1 SLOAD DUP1 PUSH1 0x20 MUL PUSH1 0x20 ADD PUSH1 0x40 MLOAD SWAP1 DUP2 ADD PUSH1 0x40 MSTORE DUP1 SWAP3 SWAP2 SWAP1 DUP2 DUP2 MSTORE PUSH1 0x20 ADD PUSH0 SWAP1 JUMPDEST DUP3 DUP3 LT ISZERO PUSH2 0x1507 JUMPI DUP4 DUP3 SWAP1 PUSH0 MSTORE PUSH1 0x20 PUSH0 KECCAK256 ADD DUP1 SLOAD PUSH2 0x147C SWAP1 PUSH2 0x1E41 JUMP JUMPDEST DUP1 PUSH1 0x1F ADD PUSH1 0x20 DUP1 SWAP2 DIV MUL PUSH1 0x20 ADD PUSH1 0x40 MLOAD SWAP1 DUP2 ADD PUSH1 0x40 MSTORE DUP1 SWAP3 SWAP2 SWAP1 DUP2 DUP2 MSTORE PUSH1 0x20 ADD DUP3 DUP1 SLOAD PUSH2 0x14A8 SWAP1 PUSH2 0x1E41 JUMP JUMPDEST DUP1 ISZERO PUSH2 0x14F3 JUMPI DUP1 PUSH1 0x1F LT PUSH2 0x14CA JUMPI PUSH2 0x100 DUP1 DUP4 SLOAD DIV MUL DUP4 MSTORE SWAP2 PUSH1 0x20 ADD SWAP2 PUSH2 0x14F3 JUMP JUMPDEST DUP3 ADD SWAP2 SWAP1 PUSH0 MSTORE PUSH1 0x20 PUSH0 KECCAK256 SWAP1 JUMPDEST DUP2 SLOAD DUP2 MSTORE SWAP1 PUSH1 0x1 ADD SWAP1 PUSH1 0x20 ADD DUP1 DUP4 GT PUSH2 0x14D6 JUMPI DUP3 SWAP1 SUB PUSH1 0x1F AND DUP3 ADD SWAP2 JUMPDEST POP POP POP POP POP DUP2 MSTORE PUSH1 0x20 ADD SWAP1 PUSH1 0x1 ADD SWAP1 PUSH2 0x145F JUMP JUMPDEST POP POP POP POP SWAP1 POP SWAP5 POP SWAP5 POP SWAP5 POP SWAP5 POP POP SWAP1 SWAP2 SWAP3 SWAP4 JUMP JUMPDEST PUSH0 PUSH1 0x40 MLOAD SWAP1 POP SWAP1 JUMP JUMPDEST PUSH0 DUP1 REVERT JUMPDEST PUSH0 DUP1 REVERT JUMPDEST PUSH0 DUP1 REVERT JUMPDEST PUSH0 DUP1 REVERT JUMPDEST PUSH0 PUSH1 0x1F NOT PUSH1 0x1F DUP4 ADD AND SWAP1 POP SWAP2 SWAP1 POP JUMP JUMPDEST PUSH32 0x4E487B7100000000000000000000000000000000000000000000000000000000 PUSH0 MSTORE PUSH1 0x41 PUSH1 0x4 MSTORE PUSH1 0x24 PUSH0 REVERT JUMPDEST PUSH2 0x157B DUP3 PUSH2 0x1535 JUMP JUMPDEST DUP2 ADD DUP2 DUP2 LT PUSH8 0xFFFFFFFFFFFFFFFF DUP3 GT OR ISZERO PUSH2 0x159A JUMPI PUSH2 0x1599 PUSH2 0x1545 JUMP JUMPDEST JUMPDEST DUP1 PUSH1 0x40 MSTORE POP POP POP JUMP JUMPDEST PUSH0 PUSH2 0x15AC PUSH2 0x151C JUMP JUMPDEST SWAP1 POP PUSH2 0x15B8 DUP3 DUP3 PUSH2 0x1572 JUMP JUMPDEST SWAP2 SWAP1 POP JUMP JUMPDEST PUSH0 PUSH8 0xFFFFFFFFFFFFFFFF DUP3 GT ISZERO PUSH2 0x15D7 JUMPI PUSH2 0x15D6 PUSH2 0x1545 JUMP JUMPDEST JUMPDEST PUSH2 0x15E0 DUP3 PUSH2 0x1535 JUMP JUMPDEST SWAP1 POP PUSH1 0x20 DUP2 ADD SWAP1 POP SWAP2 SWAP1 POP JUMP JUMPDEST DUP3 DUP2 DUP4 CALLDATACOPY PUSH0 DUP4 DUP4 ADD MSTORE POP POP POP JUMP JUMPDEST PUSH0 PUSH2 0x160D PUSH2 0x1608 DUP5 PUSH2 0x15BD JUMP JUMPDEST PUSH2 0x15A3 JUMP JUMPDEST SWAP1 POP DUP3 DUP2 MSTORE PUSH1 0x20 DUP2 ADD DUP5 DUP5 DUP5 ADD GT ISZERO PUSH2 0x1629 JUMPI PUSH2 0x1628 PUSH2 0x1531 JUMP JUMPDEST JUMPDEST PUSH2 0x1634 DUP5 DUP3 DUP6 PUSH2 0x15ED JUMP JUMPDEST POP SWAP4 SWAP3 POP POP POP JUMP JUMPDEST PUSH0 DUP3 PUSH1 0x1F DUP4 ADD SLT PUSH2 0x1650 JUMPI PUSH2 0x164F PUSH2 0x152D JUMP JUMPDEST JUMPDEST DUP2 CALLDATALOAD PUSH2 0x1660 DUP5 DUP3 PUSH1 0x20 DUP7 ADD PUSH2 0x15FB JUMP JUMPDEST SWAP2 POP POP SWAP3 SWAP2 POP POP JUMP JUMPDEST PUSH0 DUP1 PUSH0 PUSH1 0x60 DUP5 DUP7 SUB SLT ISZERO PUSH2 0x1680 JUMPI PUSH2 0x167F PUSH2 0x1525 JUMP JUMPDEST JUMPDEST PUSH0 DUP5 ADD CALLDATALOAD PUSH8 0xFFFFFFFFFFFFFFFF DUP2 GT ISZERO PUSH2 0x169D JUMPI PUSH2 0x169C PUSH2 0x1529 JUMP JUMPDEST JUMPDEST PUSH2 0x16A9 DUP7 DUP3 DUP8 ADD PUSH2 0x163C JUMP JUMPDEST SWAP4 POP POP PUSH1 0x20 DUP5 ADD CALLDATALOAD PUSH8 0xFFFFFFFFFFFFFFFF DUP2 GT ISZERO PUSH2 0x16CA JUMPI PUSH2 0x16C9 PUSH2 0x1529 JUMP JUMPDEST JUMPDEST PUSH2 0x16D6 DUP7 DUP3 DUP8 ADD PUSH2 0x163C JUMP JUMPDEST SWAP3 POP POP PUSH1 0x40 DUP5 ADD CALLDATALOAD PUSH8 0xFFFFFFFFFFFFFFFF DUP2 GT ISZERO PUSH2 0x16F7 JUMPI PUSH2 0x16F6 PUSH2 0x1529 JUMP JUMPDEST JUMPDEST PUSH2 0x1703 DUP7 DUP3 DUP8 ADD PUSH2 0x163C JUMP JUMPDEST SWAP2 POP POP SWAP3 POP SWAP3 POP SWAP3 JUMP JUMPDEST PUSH0 DUP2 SWAP1 POP SWAP2 SWAP1 POP JUMP JUMPDEST PUSH2 0x171F DUP2 PUSH2 0x170D JUMP JUMPDEST DUP2 EQ PUSH2 0x1729 JUMPI PUSH0 DUP1 REVERT JUMPDEST POP JUMP JUMPDEST PUSH0 DUP2 CALLDATALOAD SWAP1 POP PUSH2 0x173A DUP2 PUSH2 0x1716 JUMP JUMPDEST SWAP3 SWAP2 POP POP JUMP JUMPDEST PUSH0 DUP1 PUSH1 0x40 DUP4 DUP6 SUB SLT ISZERO PUSH2 0x1756 JUMPI PUSH2 0x1755 PUSH2 0x1525 JUMP JUMPDEST JUMPDEST PUSH0 DUP4 ADD CALLDATALOAD PUSH8 0xFFFFFFFFFFFFFFFF DUP2 GT ISZERO PUSH2 0x1773 JUMPI PUSH2 0x1772 PUSH2 0x1529 JUMP JUMPDEST JUMPDEST PUSH2 0x177F DUP6 DUP3 DUP7 ADD PUSH2 0x163C JUMP JUMPDEST SWAP3 POP POP PUSH1 0x20 PUSH2 0x1790 DUP6 DUP3 DUP7 ADD PUSH2 0x172C JUMP JUMPDEST SWAP2 POP POP SWAP3 POP SWAP3 SWAP1 POP JUMP JUMPDEST PUSH0 DUP1 PUSH0 DUP1 PUSH0 PUSH1 0xA0 DUP7 DUP9 SUB SLT ISZERO PUSH2 0x17B3 JUMPI PUSH2 0x17B2 PUSH2 0x1525 JUMP JUMPDEST JUMPDEST PUSH0 PUSH2 0x17C0 DUP9 DUP3 DUP10 ADD PUSH2 0x172C JUMP JUMPDEST SWAP6 POP POP PUSH1 0x20 DUP7 ADD CALLDATALOAD PUSH8 0xFFFFFFFFFFFFFFFF DUP2 GT ISZERO PUSH2 0x17E1 JUMPI PUSH2 0x17E0 PUSH2 0x1529 JUMP JUMPDEST JUMPDEST PUSH2 0x17ED DUP9 DUP3 DUP10 ADD PUSH2 0x163C JUMP JUMPDEST SWAP5 POP POP PUSH1 0x40 DUP7 ADD CALLDATALOAD PUSH8 0xFFFFFFFFFFFFFFFF DUP2 GT ISZERO PUSH2 0x180E JUMPI PUSH2 0x180D PUSH2 0x1529 JUMP JUMPDEST JUMPDEST PUSH2 0x181A DUP9 DUP3 DUP10 ADD PUSH2 0x163C JUMP JUMPDEST SWAP4 POP POP PUSH1 0x60 DUP7 ADD CALLDATALOAD PUSH8 0xFFFFFFFFFFFFFFFF DUP2 GT ISZERO PUSH2 0x183B JUMPI PUSH2 0x183A PUSH2 0x1529 JUMP JUMPDEST JUMPDEST PUSH2 0x1847 DUP9 DUP3 DUP10 ADD PUSH2 0x163C JUMP JUMPDEST SWAP3 POP POP PUSH1 0x80 PUSH2 0x1858 DUP9 DUP3 DUP10 ADD PUSH2 0x172C JUMP JUMPDEST SWAP2 POP POP SWAP3 SWAP6 POP SWAP3 SWAP6 SWAP1 SWAP4 POP JUMP JUMPDEST PUSH0 PUSH20 0xFFFFFFFFFFFFFFFFFFFFFFFFFFFFFFFFFFFFFFFF DUP3 AND SWAP1 POP SWAP2 SWAP1 POP JUMP JUMPDEST PUSH0 PUSH2 0x188E DUP3 PUSH2 0x1865 JUMP JUMPDEST SWAP1 POP SWAP2 SWAP1 POP JUMP JUMPDEST PUSH2 0x189E DUP2 PUSH2 0x1884 JUMP JUMPDEST DUP2 EQ PUSH2 0x18A8 JUMPI PUSH0 DUP1 REVERT JUMPDEST POP JUMP JUMPDEST PUSH0 DUP2 CALLDATALOAD SWAP1 POP PUSH2 0x18B9 DUP2 PUSH2 0x1895 JUMP JUMPDEST SWAP3 SWAP2 POP POP JUMP JUMPDEST PUSH0 PUSH1 0x20 DUP3 DUP5 SUB SLT ISZERO PUSH2 0x18D4 JUMPI PUSH2 0x18D3 PUSH2 0x1525 JUMP JUMPDEST JUMPDEST PUSH0 PUSH2 0x18E1 DUP5 DUP3 DUP6 ADD PUSH2 0x18AB JUMP JUMPDEST SWAP2 POP POP SWAP3 SWAP2 POP POP JUMP JUMPDEST PUSH0 DUP2 MLOAD SWAP1 POP SWAP2 SWAP1 POP JUMP JUMPDEST PUSH0 DUP3 DUP3 MSTORE PUSH1 0x20 DUP3 ADD SWAP1 POP SWAP3 SWAP2 POP POP JUMP JUMPDEST PUSH0 DUP2 SWAP1 POP PUSH1 0x20 DUP3 ADD SWAP1 POP SWAP2 SWAP1 POP JUMP JUMPDEST PUSH2 0x191C DUP2 PUSH2 0x170D JUMP JUMPDEST DUP3 MSTORE POP POP JUMP JUMPDEST PUSH0 PUSH2 0x192D DUP4 DUP4 PUSH2 0x1913 JUMP JUMPDEST PUSH1 0x20 DUP4 ADD SWAP1 POP SWAP3 SWAP2 POP POP JUMP JUMPDEST PUSH0 PUSH1 0x20 DUP3 ADD SWAP1 POP SWAP2 SWAP1 POP JUMP JUMPDEST PUSH0 PUSH2 0x194F DUP3 PUSH2 0x18EA JUMP JUMPDEST PUSH2 0x1959 DUP2 DUP6 PUSH2 0x18F4 JUMP JUMPDEST SWAP4 POP PUSH2 0x1964 DUP4 PUSH2 0x1904 JUMP JUMPDEST DUP1 PUSH0 JUMPDEST DUP4 DUP2 LT ISZERO PUSH2 0x1994 JUMPI DUP2 MLOAD PUSH2 0x197B DUP9 DUP3 PUSH2 0x1922 JUMP JUMPDEST SWAP8 POP PUSH2 0x1986 DUP4 PUSH2 0x1939 JUMP JUMPDEST SWAP3 POP POP PUSH1 0x1 DUP2 ADD SWAP1 POP PUSH2 0x1967 JUMP JUMPDEST POP DUP6 SWAP4 POP POP POP POP SWAP3 SWAP2 POP POP JUMP JUMPDEST PUSH0 PUSH1 0x20 DUP3 ADD SWAP1 POP DUP2 DUP2 SUB PUSH0 DUP4 ADD MSTORE PUSH2 0x19B9 DUP2 DUP5 PUSH2 0x1945 JUMP JUMPDEST SWAP1 POP SWAP3 SWAP2 POP POP JUMP JUMPDEST PUSH0 PUSH1 0x20 DUP3 DUP5 SUB SLT ISZERO PUSH2 0x19D6 JUMPI PUSH2 0x19D5 PUSH2 0x1525 JUMP JUMPDEST JUMPDEST PUSH0 DUP3 ADD CALLDATALOAD PUSH8 0xFFFFFFFFFFFFFFFF DUP2 GT ISZERO PUSH2 0x19F3 JUMPI PUSH2 0x19F2 PUSH2 0x1529 JUMP JUMPDEST JUMPDEST PUSH2 0x19FF DUP5 DUP3 DUP6 ADD PUSH2 0x163C JUMP JUMPDEST SWAP2 POP POP SWAP3 SWAP2 POP POP JUMP JUMPDEST PUSH0 PUSH1 0x20 DUP3 DUP5 SUB SLT ISZERO PUSH2 0x1A1D JUMPI PUSH2 0x1A1C PUSH2 0x1525 JUMP JUMPDEST JUMPDEST PUSH0 PUSH2 0x1A2A DUP5 DUP3 DUP6 ADD PUSH2 0x172C JUMP JUMPDEST SWAP2 POP POP SWAP3 SWAP2 POP POP JUMP JUMPDEST PUSH0 DUP2 MLOAD SWAP1 POP SWAP2 SWAP1 POP JUMP JUMPDEST PUSH0 DUP3 DUP3 MSTORE PUSH1 0x20 DUP3 ADD SWAP1 POP SWAP3 SWAP2 POP POP JUMP JUMPDEST PUSH0 JUMPDEST DUP4 DUP2 LT ISZERO PUSH2 0x1A6A JUMPI DUP1 DUP3 ADD MLOAD DUP2 DUP5 ADD MSTORE PUSH1 0x20 DUP2 ADD SWAP1 POP PUSH2 0x1A4F JUMP JUMPDEST PUSH0 DUP5 DUP5 ADD MSTORE POP POP POP POP JUMP JUMPDEST PUSH0 PUSH2 0x1A7F DUP3 PUSH2 0x1A33 JUMP JUMPDEST PUSH2 0x1A89 DUP2 DUP6 PUSH2 0x1A3D JUMP JUMPDEST SWAP4 POP PUSH2 0x1A99 DUP2 DUP6 PUSH1 0x20 DUP7 ADD PUSH2 0x1A4D JUMP JUMPDEST PUSH2 0x1AA2 DUP2 PUSH2 0x1535 JUMP JUMPDEST DUP5 ADD SWAP2 POP POP SWAP3 SWAP2 POP POP JUMP JUMPDEST PUSH2 0x1AB6 DUP2 PUSH2 0x170D JUMP JUMPDEST DUP3 MSTORE POP POP JUMP JUMPDEST PUSH0 PUSH1 0x80 DUP3 ADD SWAP1 POP DUP2 DUP2 SUB PUSH0 DUP4 ADD MSTORE PUSH2 0x1AD4 DUP2 DUP8 PUSH2 0x1A75 JUMP JUMPDEST SWAP1 POP DUP2 DUP2 SUB PUSH1 0x20 DUP4 ADD MSTORE PUSH2 0x1AE8 DUP2 DUP7 PUSH2 0x1A75 JUMP JUMPDEST SWAP1 POP DUP2 DUP2 SUB PUSH1 0x40 DUP4 ADD MSTORE PUSH2 0x1AFC DUP2 DUP6 PUSH2 0x1A75 JUMP JUMPDEST SWAP1 POP PUSH2 0x1B0B PUSH1 0x60 DUP4 ADD DUP5 PUSH2 0x1AAD JUMP JUMPDEST SWAP6 SWAP5 POP POP POP POP POP JUMP JUMPDEST PUSH2 0x1B1D DUP2 PUSH2 0x1884 JUMP JUMPDEST DUP3 MSTORE POP POP JUMP JUMPDEST PUSH0 PUSH1 0x20 DUP3 ADD SWAP1 POP PUSH2 0x1B36 PUSH0 DUP4 ADD DUP5 PUSH2 0x1B14 JUMP JUMPDEST SWAP3 SWAP2 POP POP JUMP JUMPDEST PUSH0 PUSH1 0x80 DUP3 ADD SWAP1 POP PUSH2 0x1B4F PUSH0 DUP4 ADD DUP8 PUSH2 0x1AAD JUMP JUMPDEST DUP2 DUP2 SUB PUSH1 0x20 DUP4 ADD MSTORE PUSH2 0x1B61 DUP2 DUP7 PUSH2 0x1A75 JUMP JUMPDEST SWAP1 POP DUP2 DUP2 SUB PUSH1 0x40 DUP4 ADD MSTORE PUSH2 0x1B75 DUP2 DUP6 PUSH2 0x1A75 JUMP JUMPDEST SWAP1 POP DUP2 DUP2 SUB PUSH1 0x60 DUP4 ADD MSTORE PUSH2 0x1B89 DUP2 DUP5 PUSH2 0x1A75 JUMP JUMPDEST SWAP1 POP SWAP6 SWAP5 POP POP POP POP POP JUMP JUMPDEST PUSH0 DUP1 PUSH1 0x40 DUP4 DUP6 SUB SLT ISZERO PUSH2 0x1BAA JUMPI PUSH2 0x1BA9 PUSH2 0x1525 JUMP JUMPDEST JUMPDEST PUSH0 PUSH2 0x1BB7 DUP6 DUP3 DUP7 ADD PUSH2 0x172C JUMP JUMPDEST SWAP3 POP POP PUSH1 0x20 PUSH2 0x1BC8 DUP6 DUP3 DUP7 ADD PUSH2 0x18AB JUMP JUMPDEST SWAP2 POP POP SWAP3 POP SWAP3 SWAP1 POP JUMP JUMPDEST PUSH0 DUP2 MLOAD SWAP1 POP SWAP2 SWAP1 POP JUMP JUMPDEST PUSH0 DUP3 DUP3 MSTORE PUSH1 0x20 DUP3 ADD SWAP1 POP SWAP3 SWAP2 POP POP JUMP JUMPDEST PUSH0 DUP2 SWAP1 POP PUSH1 0x20 DUP3 ADD SWAP1 POP SWAP2 SWAP1 POP JUMP JUMPDEST PUSH0 DUP3 DUP3 MSTORE PUSH1 0x20 DUP3 ADD SWAP1 POP SWAP3 SWAP2 POP POP JUMP JUMPDEST PUSH0 PUSH2 0x1C15 DUP3 PUSH2 0x1A33 JUMP JUMPDEST PUSH2 0x1C1F DUP2 DUP6 PUSH2 0x1BFB JUMP JUMPDEST SWAP4 POP PUSH2 0x1C2F DUP2 DUP6 PUSH1 0x20 DUP7 ADD PUSH2 0x1A4D JUMP JUMPDEST PUSH2 0x1C38 DUP2 PUSH2 0x1535 JUMP JUMPDEST DUP5 ADD SWAP2 POP POP SWAP3 SWAP2 POP POP JUMP JUMPDEST PUSH0 PUSH2 0x1C4E DUP4 DUP4 PUSH2 0x1C0B JUMP JUMPDEST SWAP1 POP SWAP3 SWAP2 POP POP JUMP JUMPDEST PUSH0 PUSH1 0x20 DUP3 ADD SWAP1 POP SWAP2 SWAP1 POP JUMP JUMPDEST PUSH0 PUSH2 0x1C6C DUP3 PUSH2 0x1BD2 JUMP JUMPDEST PUSH2 0x1C76 DUP2 DUP6 PUSH2 0x1BDC JUMP JUMPDEST SWAP4 POP DUP4 PUSH1 0x20 DUP3 MUL DUP6 ADD PUSH2 0x1C88 DUP6 PUSH2 0x1BEC JUMP JUMPDEST DUP1 PUSH0 JUMPDEST DUP6 DUP2 LT ISZERO PUSH2 0x1CC3 JUMPI DUP5 DUP5 SUB DUP10 MSTORE DUP2 MLOAD PUSH2 0x1CA4 DUP6 DUP3 PUSH2 0x1C43 JUMP JUMPDEST SWAP5 POP PUSH2 0x1CAF DUP4 PUSH2 0x1C56 JUMP JUMPDEST SWAP3 POP PUSH1 0x20 DUP11 ADD SWAP10 POP POP PUSH1 0x1 DUP2 ADD SWAP1 POP PUSH2 0x1C8B JUMP JUMPDEST POP DUP3 SWAP8 POP DUP8 SWAP6 POP POP POP POP POP POP SWAP3 SWAP2 POP POP JUMP JUMPDEST PUSH0 PUSH1 0x80 DUP3 ADD SWAP1 POP PUSH2 0x1CE8 PUSH0 DUP4 ADD DUP8 PUSH2 0x1AAD JUMP JUMPDEST PUSH2 0x1CF5 PUSH1 0x20 DUP4 ADD DUP7 PUSH2 0x1AAD JUMP JUMPDEST DUP2 DUP2 SUB PUSH1 0x40 DUP4 ADD MSTORE PUSH2 0x1D07 DUP2 DUP6 PUSH2 0x1A75 JUMP JUMPDEST SWAP1 POP DUP2 DUP2 SUB PUSH1 0x60 DUP4 ADD MSTORE PUSH2 0x1D1B DUP2 DUP5 PUSH2 0x1C62 JUMP JUMPDEST SWAP1 POP SWAP6 SWAP5 POP POP POP POP POP JUMP JUMPDEST PUSH32 0x446F63746F72206163636F756E7420616C726561647920657869737473207769 PUSH0 DUP3 ADD MSTORE PUSH32 0x7468207468697320626C6F636B636861696E2061646472657373000000000000 PUSH1 0x20 DUP3 ADD MSTORE POP JUMP JUMPDEST PUSH0 PUSH2 0x1D80 PUSH1 0x3A DUP4 PUSH2 0x1A3D JUMP JUMPDEST SWAP2 POP PUSH2 0x1D8B DUP3 PUSH2 0x1D26 JUMP JUMPDEST PUSH1 0x40 DUP3 ADD SWAP1 POP SWAP2 SWAP1 POP JUMP JUMPDEST PUSH0 PUSH1 0x20 DUP3 ADD SWAP1 POP DUP2 DUP2 SUB PUSH0 DUP4 ADD MSTORE PUSH2 0x1DAD DUP2 PUSH2 0x1D74 JUMP JUMPDEST SWAP1 POP SWAP2 SWAP1 POP JUMP JUMPDEST PUSH32 0x4E487B7100000000000000000000000000000000000000000000000000000000 PUSH0 MSTORE PUSH1 0x11 PUSH1 0x4 MSTORE PUSH1 0x24 PUSH0 REVERT JUMPDEST PUSH0 PUSH2 0x1DEB DUP3 PUSH2 0x170D JUMP JUMPDEST SWAP2 POP PUSH2 0x1DF6 DUP4 PUSH2 0x170D JUMP JUMPDEST SWAP3 POP DUP3 DUP3 ADD SWAP1 POP DUP1 DUP3 GT ISZERO PUSH2 0x1E0E JUMPI PUSH2 0x1E0D PUSH2 0x1DB4 JUMP JUMPDEST JUMPDEST SWAP3 SWAP2 POP POP JUMP JUMPDEST PUSH32 0x4E487B7100000000000000000000000000000000000000000000000000000000 PUSH0 MSTORE PUSH1 0x22 PUSH1 0x4 MSTORE PUSH1 0x24 PUSH0 REVERT JUMPDEST PUSH0 PUSH1 0x2 DUP3 DIV SWAP1 POP PUSH1 0x1 DUP3 AND DUP1 PUSH2 0x1E58 JUMPI PUSH1 0x7F DUP3 AND SWAP2 POP JUMPDEST PUSH1 0x20 DUP3 LT DUP2 SUB PUSH2 0x1E6B JUMPI PUSH2 0x1E6A PUSH2 0x1E14 JUMP JUMPDEST JUMPDEST POP SWAP2 SWAP1 POP JUMP JUMPDEST PUSH0 DUP2 SWAP1 POP DUP2 PUSH0 MSTORE PUSH1 0x20 PUSH0 KECCAK256 SWAP1 POP SWAP2 SWAP1 POP JUMP JUMPDEST PUSH0 PUSH1 0x20 PUSH1 0x1F DUP4 ADD DIV SWAP1 POP SWAP2 SWAP1 POP JUMP JUMPDEST PUSH0 DUP3 DUP3 SHL SWAP1 POP SWAP3 SWAP2 POP POP JUMP JUMPDEST PUSH0 PUSH1 0x8 DUP4 MUL PUSH2 0x1ECD PUSH32 0xFFFFFFFFFFFFFFFFFFFFFFFFFFFFFFFFFFFFFFFFFFFFFFFFFFFFFFFFFFFFFFFF DUP3 PUSH2 0x1E92 JUMP JUMPDEST PUSH2 0x1ED7 DUP7 DUP4 PUSH2 0x1E92 JUMP JUMPDEST SWAP6 POP DUP1 NOT DUP5 AND SWAP4 POP DUP1 DUP7 AND DUP5 OR SWAP3 POP POP POP SWAP4 SWAP3 POP POP POP JUMP JUMPDEST PUSH0 DUP2 SWAP1 POP SWAP2 SWAP1 POP JUMP JUMPDEST PUSH0 PUSH2 0x1F12 PUSH2 0x1F0D PUSH2 0x1F08 DUP5 PUSH2 0x170D JUMP JUMPDEST PUSH2 0x1EEF JUMP JUMPDEST PUSH2 0x170D JUMP JUMPDEST SWAP1 POP SWAP2 SWAP1 POP JUMP JUMPDEST PUSH0 DUP2 SWAP1 POP SWAP2 SWAP1 POP JUMP JUMPDEST PUSH2 0x1F2B DUP4 PUSH2 0x1EF8 JUMP JUMPDEST PUSH2 0x1F3F PUSH2 0x1F37 DUP3 PUSH2 0x1F19 JUMP JUMPDEST DUP5 DUP5 SLOAD PUSH2 0x1E9E JUMP JUMPDEST DUP3 SSTORE POP POP POP POP JUMP JUMPDEST PUSH0 SWAP1 JUMP JUMPDEST PUSH2 0x1F53 PUSH2 0x1F47 JUMP JUMPDEST PUSH2 0x1F5E DUP2 DUP5 DUP5 PUSH2 0x1F22 JUMP JUMPDEST POP POP POP JUMP JUMPDEST JUMPDEST DUP2 DUP2 LT ISZERO PUSH2 0x1F81 JUMPI PUSH2 0x1F76 PUSH0 DUP3 PUSH2 0x1F4B JUMP JUMPDEST PUSH1 0x1 DUP2 ADD SWAP1 POP PUSH2 0x1F64 JUMP JUMPDEST POP POP JUMP JUMPDEST PUSH1 0x1F DUP3 GT ISZERO PUSH2 0x1FC6 JUMPI PUSH2 0x1F97 DUP2 PUSH2 0x1E71 JUMP JUMPDEST PUSH2 0x1FA0 DUP5 PUSH2 0x1E83 JUMP JUMPDEST DUP2 ADD PUSH1 0x20 DUP6 LT ISZERO PUSH2 0x1FAF JUMPI DUP2 SWAP1 POP JUMPDEST PUSH2 0x1FC3 PUSH2 0x1FBB DUP6 PUSH2 0x1E83 JUMP JUMPDEST DUP4 ADD DUP3 PUSH2 0x1F63 JUMP JUMPDEST POP POP JUMPDEST POP POP POP JUMP JUMPDEST PUSH0 DUP3 DUP3 SHR SWAP1 POP SWAP3 SWAP2 POP POP JUMP JUMPDEST PUSH0 PUSH2 0x1FE6 PUSH0 NOT DUP5 PUSH1 0x8 MUL PUSH2 0x1FCB JUMP JUMPDEST NOT DUP1 DUP4 AND SWAP2 POP POP SWAP3 SWAP2 POP POP JUMP JUMPDEST PUSH0 PUSH2 0x1FFE DUP4 DUP4 PUSH2 0x1FD7 JUMP JUMPDEST SWAP2 POP DUP3 PUSH1 0x2 MUL DUP3 OR SWAP1 POP SWAP3 SWAP2 POP POP JUMP JUMPDEST PUSH2 0x2017 DUP3 PUSH2 0x1A33 JUMP JUMPDEST PUSH8 0xFFFFFFFFFFFFFFFF DUP2 GT ISZERO PUSH2 0x2030 JUMPI PUSH2 0x202F PUSH2 0x1545 JUMP JUMPDEST JUMPDEST PUSH2 0x203A DUP3 SLOAD PUSH2 0x1E41 JUMP JUMPDEST PUSH2 0x2045 DUP3 DUP3 DUP6 PUSH2 0x1F85 JUMP JUMPDEST PUSH0 PUSH1 0x20 SWAP1 POP PUSH1 0x1F DUP4 GT PUSH1 0x1 DUP2 EQ PUSH2 0x2076 JUMPI PUSH0 DUP5 ISZERO PUSH2 0x2064 JUMPI DUP3 DUP8 ADD MLOAD SWAP1 POP JUMPDEST PUSH2 0x206E DUP6 DUP3 PUSH2 0x1FF3 JUMP JUMPDEST DUP7 SSTORE POP PUSH2 0x20D5 JUMP JUMPDEST PUSH1 0x1F NOT DUP5 AND PUSH2 0x2084 DUP7 PUSH2 0x1E71 JUMP JUMPDEST PUSH0 JUMPDEST DUP3 DUP2 LT ISZERO PUSH2 0x20AB JUMPI DUP5 DUP10 ADD MLOAD DUP3 SSTORE PUSH1 0x1 DUP3 ADD SWAP2 POP PUSH1 0x20 DUP6 ADD SWAP5 POP PUSH1 0x20 DUP2 ADD SWAP1 POP PUSH2 0x2086 JUMP JUMPDEST DUP7 DUP4 LT ISZERO PUSH2 0x20C8 JUMPI DUP5 DUP10 ADD MLOAD PUSH2 0x20C4 PUSH1 0x1F DUP10 AND DUP3 PUSH2 0x1FD7 JUMP JUMPDEST DUP4 SSTORE POP JUMPDEST PUSH1 0x1 PUSH1 0x2 DUP9 MUL ADD DUP9 SSTORE POP POP POP JUMPDEST POP POP POP POP POP POP JUMP JUMPDEST PUSH32 0x50617469656E74206163636F756E7420616C7265616479206578697374732077 PUSH0 DUP3 ADD MSTORE PUSH32 0x697468207468697320626C6F636B636861696E20616464726573730000000000 PUSH1 0x20 DUP3 ADD MSTORE POP JUMP JUMPDEST PUSH0 PUSH2 0x2137 PUSH1 0x3B DUP4 PUSH2 0x1A3D JUMP JUMPDEST SWAP2 POP PUSH2 0x2142 DUP3 PUSH2 0x20DD JUMP JUMPDEST PUSH1 0x40 DUP3 ADD SWAP1 POP SWAP2 SWAP1 POP JUMP JUMPDEST PUSH0 PUSH1 0x20 DUP3 ADD SWAP1 POP DUP2 DUP2 SUB PUSH0 DUP4 ADD MSTORE PUSH2 0x2164 DUP2 PUSH2 0x212B JUMP JUMPDEST SWAP1 POP SWAP2 SWAP1 POP JUMP JUMPDEST PUSH32 0x4D65646963696E65207769746820696420616C72656164792065786973747300 PUSH0 DUP3 ADD MSTORE POP JUMP JUMPDEST PUSH0 PUSH2 0x219F PUSH1 0x1F DUP4 PUSH2 0x1A3D JUMP JUMPDEST SWAP2 POP PUSH2 0x21AA DUP3 PUSH2 0x216B JUMP JUMPDEST PUSH1 0x20 DUP3 ADD SWAP1 POP SWAP2 SWAP1 POP JUMP JUMPDEST PUSH0 PUSH1 0x20 DUP3 ADD SWAP1 POP DUP2 DUP2 SUB PUSH0 DUP4 ADD MSTORE PUSH2 0x21CC DUP2 PUSH2 0x2193 JUMP JUMPDEST SWAP1 POP SWAP2 SWAP1 POP JUMP JUMPDEST PUSH0 PUSH2 0x21DD DUP3 PUSH2 0x170D JUMP JUMPDEST SWAP2 POP PUSH32 0xFFFFFFFFFFFFFFFFFFFFFFFFFFFFFFFFFFFFFFFFFFFFFFFFFFFFFFFFFFFFFFFF DUP3 SUB PUSH2 0x220F JUMPI PUSH2 0x220E PUSH2 0x1DB4 JUMP JUMPDEST JUMPDEST PUSH1 0x1 DUP3 ADD SWAP1 POP SWAP2 SWAP1 POP JUMP JUMPDEST PUSH32 0x50617469656E742077697468206164647265737320646F6573206E6F74206578 PUSH0 DUP3 ADD MSTORE PUSH32 0x6973740000000000000000000000000000000000000000000000000000000000 PUSH1 0x20 DUP3 ADD MSTORE POP JUMP JUMPDEST PUSH0 PUSH2 0x2274 PUSH1 0x23 DUP4 PUSH2 0x1A3D JUMP JUMPDEST SWAP2 POP PUSH2 0x227F DUP3 PUSH2 0x221A JUMP JUMPDEST PUSH1 0x40 DUP3 ADD SWAP1 POP SWAP2 SWAP1 POP JUMP JUMPDEST PUSH0 PUSH1 0x20 DUP3 ADD SWAP1 POP DUP2 DUP2 SUB PUSH0 DUP4 ADD MSTORE PUSH2 0x22A1 DUP2 PUSH2 0x2268 JUMP JUMPDEST SWAP1 POP SWAP2 SWAP1 POP JUMP JUMPDEST PUSH32 0x50617469656E74206163636F756E74207769746820626C6F636B636861696E20 PUSH0 DUP3 ADD MSTORE PUSH32 0x6164647265737320646F6573206E6F742065786973742E20506C656173652072 PUSH1 0x20 DUP3 ADD MSTORE PUSH32 0x6567697374657200000000000000000000000000000000000000000000000000 PUSH1 0x40 DUP3 ADD MSTORE POP JUMP JUMPDEST PUSH0 PUSH2 0x2328 PUSH1 0x47 DUP4 PUSH2 0x1A3D JUMP JUMPDEST SWAP2 POP PUSH2 0x2333 DUP3 PUSH2 0x22A8 JUMP JUMPDEST PUSH1 0x60 DUP3 ADD SWAP1 POP SWAP2 SWAP1 POP JUMP JUMPDEST PUSH0 PUSH1 0x20 DUP3 ADD SWAP1 POP DUP2 DUP2 SUB PUSH0 DUP4 ADD MSTORE PUSH2 0x2355 DUP2 PUSH2 0x231C JUMP JUMPDEST SWAP1 POP SWAP2 SWAP1 POP JUMP JUMPDEST PUSH32 0x4D65646963696E65207769746820696420646F6573206E6F7420657869737400 PUSH0 DUP3 ADD MSTORE POP JUMP JUMPDEST PUSH0 PUSH2 0x2390 PUSH1 0x1F DUP4 PUSH2 0x1A3D JUMP JUMPDEST SWAP2 POP PUSH2 0x239B DUP3 PUSH2 0x235C JUMP JUMPDEST PUSH1 0x20 DUP3 ADD SWAP1 POP SWAP2 SWAP1 POP JUMP JUMPDEST PUSH0 PUSH1 0x20 DUP3 ADD SWAP1 POP DUP2 DUP2 SUB PUSH0 DUP4 ADD MSTORE PUSH2 0x23BD DUP2 PUSH2 0x2384 JUMP JUMPDEST SWAP1 POP SWAP2 SWAP1 POP JUMP JUMPDEST PUSH32 0x446F63746F72207769746820696420646F6573206E6F74206578697374000000 PUSH0 DUP3 ADD MSTORE POP JUMP JUMPDEST PUSH0 PUSH2 0x23F8 PUSH1 0x1D DUP4 PUSH2 0x1A3D JUMP JUMPDEST SWAP2 POP PUSH2 0x2403 DUP3 PUSH2 0x23C4 JUMP JUMPDEST PUSH1 0x20 DUP3 ADD SWAP1 POP SWAP2 SWAP1 POP JUMP JUMPDEST PUSH0 PUSH1 0x20 DUP3 ADD SWAP1 POP DUP2 DUP2 SUB PUSH0 DUP4 ADD MSTORE PUSH2 0x2425 DUP2 PUSH2 0x23EC JUMP JUMPDEST SWAP1 POP SWAP2 SWAP1 POP JUMP JUMPDEST PUSH32 0x50617469656E74207769746820696420646F6573206E6F742065786973740000 PUSH0 DUP3 ADD MSTORE POP JUMP JUMPDEST PUSH0 PUSH2 0x2460 PUSH1 0x1E DUP4 PUSH2 0x1A3D JUMP JUMPDEST SWAP2 POP PUSH2 0x246B DUP3 PUSH2 0x242C JUMP JUMPDEST PUSH1 0x20 DUP3 ADD SWAP1 POP SWAP2 SWAP1 POP JUMP JUMPDEST PUSH0 PUSH1 0x20 DUP3 ADD SWAP1 POP DUP2 DUP2 SUB PUSH0 DUP4 ADD MSTORE PUSH2 0x248D DUP2 PUSH2 0x2454 JUMP JUMPDEST SWAP1 POP SWAP2 SWAP1 POP JUMP INVALID LOG2 PUSH5 0x6970667358 0x22 SLT KECCAK256 CALLDATACOPY MLOAD PUSH7 0xFF49F60222F71B LOG2 DUP9 EXP PUSH32 0x2D4061CDBE03A070C8F7461D3176E7FF3E2664736F6C63430008160033000000 "
				},
				"gasEstimates": {
					"creation": {
						"codeDepositCost": "1883600",
						"executionCost": "41268",
						"totalCost": "1924868"
					},
					"external": {
						"addMedicine(uint256,string,string,string,uint256)": "infinite",
						"addPatientDisease(string)": "infinite",
						"contractOwner()": "2527",
						"prescribeMedicine(uint256,address)": "53832",
						"registerNewDoctor(string,string,string)": "infinite",
						"registerNewPatient(string,uint256)": "infinite",
						"updatePatientDetails(uint256)": "27116",
						"viewDoctorDetails(uint256)": "infinite",
						"viewMedicineDetails(uint256)": "infinite",
						"viewPatientDataSelf()": "infinite",
						"viewPatientDatabyDoctor(uint256)": "infinite",
						"viewPatientMedicines(address)": "infinite"
					}
				},
				"methodIdentifiers": {
					"addMedicine(uint256,string,string,string,uint256)": "75f49529",
					"addPatientDisease(string)": "a9ed3ff9",
					"contractOwner()": "ce606ee0",
					"prescribeMedicine(uint256,address)": "dcd0c2b2",
					"registerNewDoctor(string,string,string)": "46216098",
					"registerNewPatient(string,uint256)": "5ef2322d",
					"updatePatientDetails(uint256)": "ba5e7f7f",
					"viewDoctorDetails(uint256)": "d5cfcb06",
					"viewMedicineDetails(uint256)": "cc7fa220",
					"viewPatientDataSelf()": "f770da3a",
					"viewPatientDatabyDoctor(uint256)": "eddf3774",
					"viewPatientMedicines(address)": "791264ad"
				}
			},
			"storageLayout": {
				"storage": [
					{
						"astId": 3,
						"contract": "contracts/patientrecord.sol:VotingSoftware",
						"label": "contractOwner",
						"offset": 0,
						"slot": "0",
						"type": "t_address"
					},
					{
						"astId": 69,
						"contract": "contracts/patientrecord.sol:VotingSoftware",
						"label": "doctorCount",
						"offset": 0,
						"slot": "1",
						"type": "t_uint256"
					},
					{
						"astId": 72,
						"contract": "contracts/patientrecord.sol:VotingSoftware",
						"label": "patientCount",
						"offset": 0,
						"slot": "2",
						"type": "t_uint256"
					},
					{
						"astId": 75,
						"contract": "contracts/patientrecord.sol:VotingSoftware",
						"label": "medicineCount",
						"offset": 0,
						"slot": "3",
						"type": "t_uint256"
					},
					{
						"astId": 80,
						"contract": "contracts/patientrecord.sol:VotingSoftware",
						"label": "doctors",
						"offset": 0,
						"slot": "4",
						"type": "t_mapping(t_uint256,t_struct(Doctor)36_storage)"
					},
					{
						"astId": 85,
						"contract": "contracts/patientrecord.sol:VotingSoftware",
						"label": "patients",
						"offset": 0,
						"slot": "5",
						"type": "t_mapping(t_uint256,t_struct(Patient)53_storage)"
					},
					{
						"astId": 90,
						"contract": "contracts/patientrecord.sol:VotingSoftware",
						"label": "medicines",
						"offset": 0,
						"slot": "6",
						"type": "t_mapping(t_uint256,t_struct(Medicine)66_storage)"
					},
					{
						"astId": 94,
						"contract": "contracts/patientrecord.sol:VotingSoftware",
						"label": "patientAddressID",
						"offset": 0,
						"slot": "7",
						"type": "t_mapping(t_address,t_uint256)"
					},
					{
						"astId": 98,
						"contract": "contracts/patientrecord.sol:VotingSoftware",
						"label": "doctordAddressID",
						"offset": 0,
						"slot": "8",
						"type": "t_mapping(t_address,t_uint256)"
					}
				],
				"types": {
					"t_address": {
						"encoding": "inplace",
						"label": "address",
						"numberOfBytes": "20"
					},
					"t_array(t_string_storage)dyn_storage": {
						"base": "t_string_storage",
						"encoding": "dynamic_array",
						"label": "string[]",
						"numberOfBytes": "32"
					},
					"t_array(t_uint256)dyn_storage": {
						"base": "t_uint256",
						"encoding": "dynamic_array",
						"label": "uint256[]",
						"numberOfBytes": "32"
					},
					"t_bool": {
						"encoding": "inplace",
						"label": "bool",
						"numberOfBytes": "1"
					},
					"t_mapping(t_address,t_uint256)": {
						"encoding": "mapping",
						"key": "t_address",
						"label": "mapping(address => uint256)",
						"numberOfBytes": "32",
						"value": "t_uint256"
					},
					"t_mapping(t_uint256,t_struct(Doctor)36_storage)": {
						"encoding": "mapping",
						"key": "t_uint256",
						"label": "mapping(uint256 => struct VotingSoftware.Doctor)",
						"numberOfBytes": "32",
						"value": "t_struct(Doctor)36_storage"
					},
					"t_mapping(t_uint256,t_struct(Medicine)66_storage)": {
						"encoding": "mapping",
						"key": "t_uint256",
						"label": "mapping(uint256 => struct VotingSoftware.Medicine)",
						"numberOfBytes": "32",
						"value": "t_struct(Medicine)66_storage"
					},
					"t_mapping(t_uint256,t_struct(Patient)53_storage)": {
						"encoding": "mapping",
						"key": "t_uint256",
						"label": "mapping(uint256 => struct VotingSoftware.Patient)",
						"numberOfBytes": "32",
						"value": "t_struct(Patient)53_storage"
					},
					"t_string_storage": {
						"encoding": "bytes",
						"label": "string",
						"numberOfBytes": "32"
					},
					"t_struct(Doctor)36_storage": {
						"encoding": "inplace",
						"label": "struct VotingSoftware.Doctor",
						"members": [
							{
								"astId": 25,
								"contract": "contracts/patientrecord.sol:VotingSoftware",
								"label": "id",
								"offset": 0,
								"slot": "0",
								"type": "t_uint256"
							},
							{
								"astId": 27,
								"contract": "contracts/patientrecord.sol:VotingSoftware",
								"label": "name",
								"offset": 0,
								"slot": "1",
								"type": "t_string_storage"
							},
							{
								"astId": 29,
								"contract": "contracts/patientrecord.sol:VotingSoftware",
								"label": "qualification",
								"offset": 0,
								"slot": "2",
								"type": "t_string_storage"
							},
							{
								"astId": 31,
								"contract": "contracts/patientrecord.sol:VotingSoftware",
								"label": "workPlace",
								"offset": 0,
								"slot": "3",
								"type": "t_string_storage"
							},
							{
								"astId": 33,
								"contract": "contracts/patientrecord.sol:VotingSoftware",
								"label": "flag",
								"offset": 0,
								"slot": "4",
								"type": "t_bool"
							},
							{
								"astId": 35,
								"contract": "contracts/patientrecord.sol:VotingSoftware",
								"label": "doctorAddress",
								"offset": 1,
								"slot": "4",
								"type": "t_address"
							}
						],
						"numberOfBytes": "160"
					},
					"t_struct(Medicine)66_storage": {
						"encoding": "inplace",
						"label": "struct VotingSoftware.Medicine",
						"members": [
							{
								"astId": 55,
								"contract": "contracts/patientrecord.sol:VotingSoftware",
								"label": "id",
								"offset": 0,
								"slot": "0",
								"type": "t_uint256"
							},
							{
								"astId": 57,
								"contract": "contracts/patientrecord.sol:VotingSoftware",
								"label": "name",
								"offset": 0,
								"slot": "1",
								"type": "t_string_storage"
							},
							{
								"astId": 59,
								"contract": "contracts/patientrecord.sol:VotingSoftware",
								"label": "expiryDate",
								"offset": 0,
								"slot": "2",
								"type": "t_string_storage"
							},
							{
								"astId": 61,
								"contract": "contracts/patientrecord.sol:VotingSoftware",
								"label": "dose",
								"offset": 0,
								"slot": "3",
								"type": "t_string_storage"
							},
							{
								"astId": 63,
								"contract": "contracts/patientrecord.sol:VotingSoftware",
								"label": "price",
								"offset": 0,
								"slot": "4",
								"type": "t_uint256"
							},
							{
								"astId": 65,
								"contract": "contracts/patientrecord.sol:VotingSoftware",
								"label": "flag",
								"offset": 0,
								"slot": "5",
								"type": "t_bool"
							}
						],
						"numberOfBytes": "192"
					},
					"t_struct(Patient)53_storage": {
						"encoding": "inplace",
						"label": "struct VotingSoftware.Patient",
						"members": [
							{
								"astId": 38,
								"contract": "contracts/patientrecord.sol:VotingSoftware",
								"label": "id",
								"offset": 0,
								"slot": "0",
								"type": "t_uint256"
							},
							{
								"astId": 40,
								"contract": "contracts/patientrecord.sol:VotingSoftware",
								"label": "name",
								"offset": 0,
								"slot": "1",
								"type": "t_string_storage"
							},
							{
								"astId": 42,
								"contract": "contracts/patientrecord.sol:VotingSoftware",
								"label": "age",
								"offset": 0,
								"slot": "2",
								"type": "t_uint256"
							},
							{
								"astId": 45,
								"contract": "contracts/patientrecord.sol:VotingSoftware",
								"label": "diseases",
								"offset": 0,
								"slot": "3",
								"type": "t_array(t_string_storage)dyn_storage"
							},
							{
								"astId": 47,
								"contract": "contracts/patientrecord.sol:VotingSoftware",
								"label": "patientAddress",
								"offset": 0,
								"slot": "4",
								"type": "t_address"
							},
							{
								"astId": 50,
								"contract": "contracts/patientrecord.sol:VotingSoftware",
								"label": "medicines",
								"offset": 0,
								"slot": "5",
								"type": "t_array(t_uint256)dyn_storage"
							},
							{
								"astId": 52,
								"contract": "contracts/patientrecord.sol:VotingSoftware",
								"label": "flag",
								"offset": 0,
								"slot": "6",
								"type": "t_bool"
							}
						],
						"numberOfBytes": "224"
					},
					"t_uint256": {
						"encoding": "inplace",
						"label": "uint256",
						"numberOfBytes": "32"
					}
				}
			},
			"userdoc": {
				"kind": "user",
				"methods": {},
				"version": 1
			}
		}
	}
}