{
	"contracts/patientrecord.sol": {
		"VotingSoftware": {
			"abi": [
				{
					"inputs": [],
					"stateMutability": "nonpayable",
					"type": "constructor"
				},
				{
					"inputs": [
						{
							"internalType": "uint256",
							"name": "_id",
							"type": "uint256"
						},
						{
							"internalType": "string",
							"name": "_name",
							"type": "string"
						},
						{
							"internalType": "string",
							"name": "_expiryDate",
							"type": "string"
						},
						{
							"internalType": "string",
							"name": "_dose",
							"type": "string"
						},
						{
							"internalType": "uint256",
							"name": "_price",
							"type": "uint256"
						}
					],
					"name": "addMedicine",
					"outputs": [],
					"stateMutability": "nonpayable",
					"type": "function"
				},
				{
					"inputs": [
						{
							"internalType": "uint256",
							"name": "_id",
							"type": "uint256"
						},
						{
							"internalType": "string",
							"name": "_disease",
							"type": "string"
						}
					],
					"name": "addPatientDisease",
					"outputs": [],
					"stateMutability": "nonpayable",
					"type": "function"
				},
				{
					"inputs": [],
					"name": "contractOwner",
					"outputs": [
						{
							"internalType": "address",
							"name": "",
							"type": "address"
						}
					],
					"stateMutability": "view",
					"type": "function"
				},
				{
					"inputs": [
						{
							"internalType": "uint256",
							"name": "_medicineId",
							"type": "uint256"
						},
						{
							"internalType": "address",
							"name": "_patientAddress",
							"type": "address"
						}
					],
					"name": "prescribeMedicine",
					"outputs": [],
					"stateMutability": "nonpayable",
					"type": "function"
				},
				{
					"inputs": [
						{
							"internalType": "string",
							"name": "_name",
							"type": "string"
						},
						{
							"internalType": "string",
							"name": "_qualification",
							"type": "string"
						},
						{
							"internalType": "string",
							"name": "_workPlace",
							"type": "string"
						}
					],
					"name": "registerNewDoctor",
					"outputs": [],
					"stateMutability": "nonpayable",
					"type": "function"
				},
				{
					"inputs": [
						{
							"internalType": "string",
							"name": "_name",
							"type": "string"
						},
						{
							"internalType": "uint256",
							"name": "_age",
							"type": "uint256"
						},
						{
							"internalType": "address",
							"name": "_patientAddress",
							"type": "address"
						}
					],
					"name": "registerNewPatient",
					"outputs": [],
					"stateMutability": "nonpayable",
					"type": "function"
				},
				{
					"inputs": [
						{
							"internalType": "uint256",
							"name": "_patientId",
							"type": "uint256"
						},
						{
							"internalType": "uint256",
							"name": "_age",
							"type": "uint256"
						}
					],
					"name": "updatePatientDetails",
					"outputs": [],
					"stateMutability": "nonpayable",
					"type": "function"
				},
				{
					"inputs": [
						{
							"internalType": "address",
							"name": "_patientAddress",
							"type": "address"
						},
						{
							"internalType": "uint256",
							"name": "_age",
							"type": "uint256"
						}
					],
					"name": "updatePatientDetails",
					"outputs": [],
					"stateMutability": "nonpayable",
					"type": "function"
				},
				{
					"inputs": [
						{
							"internalType": "uint256",
							"name": "_doctorId",
							"type": "uint256"
						}
					],
					"name": "viewDoctorDetails",
					"outputs": [
						{
							"internalType": "uint256",
							"name": "doctorId",
							"type": "uint256"
						},
						{
							"internalType": "string",
							"name": "name",
							"type": "string"
						},
						{
							"internalType": "string",
							"name": "qualification",
							"type": "string"
						},
						{
							"internalType": "string",
							"name": "workPlace",
							"type": "string"
						}
					],
					"stateMutability": "view",
					"type": "function"
				},
				{
					"inputs": [
						{
							"internalType": "uint256",
							"name": "_medicineId",
							"type": "uint256"
						}
					],
					"name": "viewMedicineDetails",
					"outputs": [
						{
							"internalType": "string",
							"name": "name",
							"type": "string"
						},
						{
							"internalType": "string",
							"name": "expiryDate",
							"type": "string"
						},
						{
							"internalType": "string",
							"name": "dose",
							"type": "string"
						},
						{
							"internalType": "uint256",
							"name": "price",
							"type": "uint256"
						}
					],
					"stateMutability": "view",
					"type": "function"
				},
				{
					"inputs": [
						{
							"internalType": "uint256",
							"name": "_patientId",
							"type": "uint256"
						}
					],
					"name": "viewPatientData",
					"outputs": [
						{
							"internalType": "uint256",
							"name": "patientId",
							"type": "uint256"
						},
						{
							"internalType": "uint256",
							"name": "age",
							"type": "uint256"
						},
						{
							"internalType": "string",
							"name": "name",
							"type": "string"
						},
						{
							"internalType": "string[]",
							"name": "diseases",
							"type": "string[]"
						}
					],
					"stateMutability": "view",
					"type": "function"
				},
				{
					"inputs": [
						{
							"internalType": "address",
							"name": "_patientAddress",
							"type": "address"
						}
					],
					"name": "viewPatientData",
					"outputs": [
						{
							"internalType": "uint256",
							"name": "patientId",
							"type": "uint256"
						},
						{
							"internalType": "uint256",
							"name": "age",
							"type": "uint256"
						},
						{
							"internalType": "string",
							"name": "name",
							"type": "string"
						},
						{
							"internalType": "string[]",
							"name": "diseases",
							"type": "string[]"
						}
					],
					"stateMutability": "view",
					"type": "function"
				},
				{
					"inputs": [
						{
							"internalType": "uint256",
							"name": "_patientId",
							"type": "uint256"
						}
					],
					"name": "viewPatientDatabyDoctor",
					"outputs": [
						{
							"internalType": "uint256",
							"name": "patientId",
							"type": "uint256"
						},
						{
							"internalType": "uint256",
							"name": "age",
							"type": "uint256"
						},
						{
							"internalType": "string",
							"name": "name",
							"type": "string"
						},
						{
							"internalType": "string[]",
							"name": "diseases",
							"type": "string[]"
						}
					],
					"stateMutability": "view",
					"type": "function"
				},
				{
					"inputs": [
						{
							"internalType": "address",
							"name": "_patientAddress",
							"type": "address"
						}
					],
					"name": "viewPatientMedicines",
					"outputs": [
						{
							"internalType": "uint256[]",
							"name": "meds",
							"type": "uint256[]"
						}
					],
					"stateMutability": "view",
					"type": "function"
				}
			],
			"devdoc": {
				"kind": "dev",
				"methods": {},
				"version": 1
			},
			"evm": {
				"assembly": "    /* \"contracts/patientrecord.sol\":56:5984  contract VotingSoftware{... */\n  mstore(0x40, 0x80)\n    /* \"contracts/patientrecord.sol\":1131:1132  0 */\n  0x00\n    /* \"contracts/patientrecord.sol\":1109:1132  uint256 doctorCount = 0 */\n  0x01\n  sstore\n    /* \"contracts/patientrecord.sol\":1188:1189  0 */\n  0x00\n    /* \"contracts/patientrecord.sol\":1165:1189  uint256 patientCount = 0 */\n  0x02\n  sstore\n    /* \"contracts/patientrecord.sol\":1247:1248  0 */\n  0x00\n    /* \"contracts/patientrecord.sol\":1223:1248  uint256 medicineCount = 0 */\n  0x03\n  sstore\n    /* \"contracts/patientrecord.sol\":185:242  constructor() {... */\n  callvalue\n  dup1\n  iszero\n  tag_1\n  jumpi\n  0x00\n  dup1\n  revert\ntag_1:\n  pop\n    /* \"contracts/patientrecord.sol\":225:235  msg.sender */\n  caller\n    /* \"contracts/patientrecord.sol\":209:222  contractOwner */\n  0x00\n  dup1\n    /* \"contracts/patientrecord.sol\":209:235  contractOwner = msg.sender */\n  0x0100\n  exp\n  dup2\n  sload\n  dup2\n  0xffffffffffffffffffffffffffffffffffffffff\n  mul\n  not\n  and\n  swap1\n  dup4\n  0xffffffffffffffffffffffffffffffffffffffff\n  and\n  mul\n  or\n  swap1\n  sstore\n  pop\n    /* \"contracts/patientrecord.sol\":56:5984  contract VotingSoftware{... */\n  dataSize(sub_0)\n  dup1\n  dataOffset(sub_0)\n  0x00\n  codecopy\n  0x00\n  return\nstop\n\nsub_0: assembly {\n        /* \"contracts/patientrecord.sol\":56:5984  contract VotingSoftware{... */\n      mstore(0x40, 0x80)\n      callvalue\n      dup1\n      iszero\n      tag_1\n      jumpi\n      0x00\n      dup1\n      revert\n    tag_1:\n      pop\n      jumpi(tag_2, lt(calldatasize, 0x04))\n      shr(0xe0, calldataload(0x00))\n      dup1\n      0xbd8247bf\n      gt\n      tag_17\n      jumpi\n      dup1\n      0xd5cfcb06\n      gt\n      tag_18\n      jumpi\n      dup1\n      0xd5cfcb06\n      eq\n      tag_13\n      jumpi\n      dup1\n      0xdb2f4912\n      eq\n      tag_14\n      jumpi\n      dup1\n      0xdcd0c2b2\n      eq\n      tag_15\n      jumpi\n      dup1\n      0xeddf3774\n      eq\n      tag_16\n      jumpi\n      jump(tag_2)\n    tag_18:\n      dup1\n      0xbd8247bf\n      eq\n      tag_10\n      jumpi\n      dup1\n      0xcc7fa220\n      eq\n      tag_11\n      jumpi\n      dup1\n      0xce606ee0\n      eq\n      tag_12\n      jumpi\n      jump(tag_2)\n    tag_17:\n      dup1\n      0x40dad759\n      gt\n      tag_19\n      jumpi\n      dup1\n      0x40dad759\n      eq\n      tag_6\n      jumpi\n      dup1\n      0x46216098\n      eq\n      tag_7\n      jumpi\n      dup1\n      0x75f49529\n      eq\n      tag_8\n      jumpi\n      dup1\n      0x791264ad\n      eq\n      tag_9\n      jumpi\n      jump(tag_2)\n    tag_19:\n      dup1\n      0x05dfea94\n      eq\n      tag_3\n      jumpi\n      dup1\n      0x1bc2fced\n      eq\n      tag_4\n      jumpi\n      dup1\n      0x32473b85\n      eq\n      tag_5\n      jumpi\n    tag_2:\n      0x00\n      dup1\n      revert\n        /* \"contracts/patientrecord.sol\":3170:3289  function updatePatientDetails(uint256 _patientId, uint256 _age) public {... */\n    tag_3:\n      tag_20\n      0x04\n      dup1\n      calldatasize\n      sub\n      dup2\n      add\n      swap1\n      tag_21\n      swap2\n      swap1\n      tag_22\n      jump\t// in\n    tag_21:\n      tag_23\n      jump\t// in\n    tag_20:\n      stop\n        /* \"contracts/patientrecord.sol\":1956:2331  function registerNewPatient(string memory _name, uint256 _age, address _patientAddress) public {... */\n    tag_4:\n      tag_24\n      0x04\n      dup1\n      calldatasize\n      sub\n      dup2\n      add\n      swap1\n      tag_25\n      swap2\n      swap1\n      tag_26\n      jump\t// in\n    tag_25:\n      tag_27\n      jump\t// in\n    tag_24:\n      stop\n        /* \"contracts/patientrecord.sol\":2371:2496  function addPatientDisease(uint256 _id, string memory _disease) public {... */\n    tag_5:\n      tag_28\n      0x04\n      dup1\n      calldatasize\n      sub\n      dup2\n      add\n      swap1\n      tag_29\n      swap2\n      swap1\n      tag_30\n      jump\t// in\n    tag_29:\n      tag_31\n      jump\t// in\n    tag_28:\n      stop\n        /* \"contracts/patientrecord.sol\":3560:3956  function viewPatientData(uint256 _patientId) public view... */\n    tag_6:\n      tag_32\n      0x04\n      dup1\n      calldatasize\n      sub\n      dup2\n      add\n      swap1\n      tag_33\n      swap2\n      swap1\n      tag_34\n      jump\t// in\n    tag_33:\n      tag_35\n      jump\t// in\n    tag_32:\n      mload(0x40)\n      tag_36\n      swap5\n      swap4\n      swap3\n      swap2\n      swap1\n      tag_37\n      jump\t// in\n    tag_36:\n      mload(0x40)\n      dup1\n      swap2\n      sub\n      swap1\n      return\n        /* \"contracts/patientrecord.sol\":1529:1917  function registerNewDoctor(string memory _name, string memory _qualification, string memory _workPlace) public {... */\n    tag_7:\n      tag_38\n      0x04\n      dup1\n      calldatasize\n      sub\n      dup2\n      add\n      swap1\n      tag_39\n      swap2\n      swap1\n      tag_40\n      jump\t// in\n    tag_39:\n      tag_41\n      jump\t// in\n    tag_38:\n      stop\n        /* \"contracts/patientrecord.sol\":2525:2878  function addMedicine(uint256 _id, string memory _name, string memory _expiryDate, string memory _dose, uint256 _price) public {... */\n    tag_8:\n      tag_42\n      0x04\n      dup1\n      calldatasize\n      sub\n      dup2\n      add\n      swap1\n      tag_43\n      swap2\n      swap1\n      tag_44\n      jump\t// in\n    tag_43:\n      tag_45\n      jump\t// in\n    tag_42:\n      stop\n        /* \"contracts/patientrecord.sol\":5281:5532  function viewPatientMedicines(address _patientAddress) public view... */\n    tag_9:\n      tag_46\n      0x04\n      dup1\n      calldatasize\n      sub\n      dup2\n      add\n      swap1\n      tag_47\n      swap2\n      swap1\n      tag_48\n      jump\t// in\n    tag_47:\n      tag_49\n      jump\t// in\n    tag_46:\n      mload(0x40)\n      tag_50\n      swap2\n      swap1\n      tag_51\n      jump\t// in\n    tag_50:\n      mload(0x40)\n      dup1\n      swap2\n      sub\n      swap1\n      return\n        /* \"contracts/patientrecord.sol\":3991:4318  function viewPatientData(address _patientAddress) public view ... */\n    tag_10:\n      tag_52\n      0x04\n      dup1\n      calldatasize\n      sub\n      dup2\n      add\n      swap1\n      tag_53\n      swap2\n      swap1\n      tag_48\n      jump\t// in\n    tag_53:\n      tag_54\n      jump\t// in\n    tag_52:\n      mload(0x40)\n      tag_55\n      swap5\n      swap4\n      swap3\n      swap2\n      swap1\n      tag_37\n      jump\t// in\n    tag_55:\n      mload(0x40)\n      dup1\n      swap2\n      sub\n      swap1\n      return\n        /* \"contracts/patientrecord.sol\":4356:4775  function viewMedicineDetails(uint256 _medicineId) public view ... */\n    tag_11:\n      tag_56\n      0x04\n      dup1\n      calldatasize\n      sub\n      dup2\n      add\n      swap1\n      tag_57\n      swap2\n      swap1\n      tag_34\n      jump\t// in\n    tag_57:\n      tag_58\n      jump\t// in\n    tag_56:\n      mload(0x40)\n      tag_59\n      swap5\n      swap4\n      swap3\n      swap2\n      swap1\n      tag_60\n      jump\t// in\n    tag_59:\n      mload(0x40)\n      dup1\n      swap2\n      sub\n      swap1\n      return\n        /* \"contracts/patientrecord.sol\":151:179  address public contractOwner */\n    tag_12:\n      tag_61\n      tag_62\n      jump\t// in\n    tag_61:\n      mload(0x40)\n      tag_63\n      swap2\n      swap1\n      tag_64\n      jump\t// in\n    tag_63:\n      mload(0x40)\n      dup1\n      swap2\n      sub\n      swap1\n      return\n        /* \"contracts/patientrecord.sol\":5569:5982  function viewDoctorDetails(uint256 _doctorId) public view... */\n    tag_13:\n      tag_65\n      0x04\n      dup1\n      calldatasize\n      sub\n      dup2\n      add\n      swap1\n      tag_66\n      swap2\n      swap1\n      tag_34\n      jump\t// in\n    tag_66:\n      tag_67\n      jump\t// in\n    tag_65:\n      mload(0x40)\n      tag_68\n      swap5\n      swap4\n      swap3\n      swap2\n      swap1\n      tag_69\n      jump\t// in\n    tag_68:\n      mload(0x40)\n      dup1\n      swap2\n      sub\n      swap1\n      return\n        /* \"contracts/patientrecord.sol\":3340:3526  function updatePatientDetails(address _patientAddress, uint256 _age) public {... */\n    tag_14:\n      tag_70\n      0x04\n      dup1\n      calldatasize\n      sub\n      dup2\n      add\n      swap1\n      tag_71\n      swap2\n      swap1\n      tag_72\n      jump\t// in\n    tag_71:\n      tag_73\n      jump\t// in\n    tag_70:\n      stop\n        /* \"contracts/patientrecord.sol\":2913:3120  function prescribeMedicine(uint256 _medicineId, address _patientAddress) public {... */\n    tag_15:\n      tag_74\n      0x04\n      dup1\n      calldatasize\n      sub\n      dup2\n      add\n      swap1\n      tag_75\n      swap2\n      swap1\n      tag_76\n      jump\t// in\n    tag_75:\n      tag_77\n      jump\t// in\n    tag_74:\n      stop\n        /* \"contracts/patientrecord.sol\":4819:5223  function viewPatientDatabyDoctor(uint256 _patientId) public view... */\n    tag_16:\n      tag_78\n      0x04\n      dup1\n      calldatasize\n      sub\n      dup2\n      add\n      swap1\n      tag_79\n      swap2\n      swap1\n      tag_34\n      jump\t// in\n    tag_79:\n      tag_80\n      jump\t// in\n    tag_78:\n      mload(0x40)\n      tag_81\n      swap5\n      swap4\n      swap3\n      swap2\n      swap1\n      tag_37\n      jump\t// in\n    tag_81:\n      mload(0x40)\n      dup1\n      swap2\n      sub\n      swap1\n      return\n        /* \"contracts/patientrecord.sol\":3170:3289  function updatePatientDetails(uint256 _patientId, uint256 _age) public {... */\n    tag_23:\n        /* \"contracts/patientrecord.sol\":3278:3282  _age */\n      dup1\n        /* \"contracts/patientrecord.sol\":3251:3259  patients */\n      0x05\n        /* \"contracts/patientrecord.sol\":3251:3271  patients[_patientId] */\n      0x00\n        /* \"contracts/patientrecord.sol\":3260:3270  _patientId */\n      dup5\n        /* \"contracts/patientrecord.sol\":3251:3271  patients[_patientId] */\n      dup2\n      mstore\n      0x20\n      add\n      swap1\n      dup2\n      mstore\n      0x20\n      add\n      0x00\n      keccak256\n        /* \"contracts/patientrecord.sol\":3251:3275  patients[_patientId].age */\n      0x02\n      add\n        /* \"contracts/patientrecord.sol\":3251:3282  patients[_patientId].age = _age */\n      dup2\n      swap1\n      sstore\n      pop\n        /* \"contracts/patientrecord.sol\":3170:3289  function updatePatientDetails(uint256 _patientId, uint256 _age) public {... */\n      pop\n      pop\n      jump\t// out\n        /* \"contracts/patientrecord.sol\":1956:2331  function registerNewPatient(string memory _name, uint256 _age, address _patientAddress) public {... */\n    tag_27:\n        /* \"contracts/patientrecord.sol\":2061:2078  uint256 patientId */\n      0x00\n        /* \"contracts/patientrecord.sol\":2094:2095  1 */\n      0x01\n        /* \"contracts/patientrecord.sol\":2081:2093  patientCount */\n      sload(0x02)\n        /* \"contracts/patientrecord.sol\":2081:2095  patientCount+1 */\n      tag_84\n      swap2\n      swap1\n      tag_85\n      jump\t// in\n    tag_84:\n        /* \"contracts/patientrecord.sol\":2061:2095  uint256 patientId = patientCount+1 */\n      swap1\n      pop\n        /* \"contracts/patientrecord.sol\":2130:2139  patientId */\n      dup1\n        /* \"contracts/patientrecord.sol\":2105:2113  patients */\n      0x05\n        /* \"contracts/patientrecord.sol\":2105:2124  patients[patientId] */\n      0x00\n        /* \"contracts/patientrecord.sol\":2114:2123  patientId */\n      dup4\n        /* \"contracts/patientrecord.sol\":2105:2124  patients[patientId] */\n      dup2\n      mstore\n      0x20\n      add\n      swap1\n      dup2\n      mstore\n      0x20\n      add\n      0x00\n      keccak256\n        /* \"contracts/patientrecord.sol\":2105:2127  patients[patientId].id */\n      0x00\n      add\n        /* \"contracts/patientrecord.sol\":2105:2139  patients[patientId].id = patientId */\n      dup2\n      swap1\n      sstore\n      pop\n        /* \"contracts/patientrecord.sol\":2176:2181  _name */\n      dup4\n        /* \"contracts/patientrecord.sol\":2149:2157  patients */\n      0x05\n        /* \"contracts/patientrecord.sol\":2149:2168  patients[patientId] */\n      0x00\n        /* \"contracts/patientrecord.sol\":2158:2167  patientId */\n      dup4\n        /* \"contracts/patientrecord.sol\":2149:2168  patients[patientId] */\n      dup2\n      mstore\n      0x20\n      add\n      swap1\n      dup2\n      mstore\n      0x20\n      add\n      0x00\n      keccak256\n        /* \"contracts/patientrecord.sol\":2149:2173  patients[patientId].name */\n      0x01\n      add\n        /* \"contracts/patientrecord.sol\":2149:2181  patients[patientId].name = _name */\n      swap1\n      dup2\n      tag_86\n      swap2\n      swap1\n      tag_87\n      jump\t// in\n    tag_86:\n      pop\n        /* \"contracts/patientrecord.sol\":2217:2221  _age */\n      dup3\n        /* \"contracts/patientrecord.sol\":2191:2199  patients */\n      0x05\n        /* \"contracts/patientrecord.sol\":2191:2210  patients[patientId] */\n      0x00\n        /* \"contracts/patientrecord.sol\":2200:2209  patientId */\n      dup4\n        /* \"contracts/patientrecord.sol\":2191:2210  patients[patientId] */\n      dup2\n      mstore\n      0x20\n      add\n      swap1\n      dup2\n      mstore\n      0x20\n      add\n      0x00\n      keccak256\n        /* \"contracts/patientrecord.sol\":2191:2214  patients[patientId].age */\n      0x02\n      add\n        /* \"contracts/patientrecord.sol\":2191:2221  patients[patientId].age = _age */\n      dup2\n      swap1\n      sstore\n      pop\n        /* \"contracts/patientrecord.sol\":2258:2262  true */\n      0x01\n        /* \"contracts/patientrecord.sol\":2231:2239  patients */\n      0x05\n        /* \"contracts/patientrecord.sol\":2231:2250  patients[patientId] */\n      0x00\n        /* \"contracts/patientrecord.sol\":2240:2249  patientId */\n      dup4\n        /* \"contracts/patientrecord.sol\":2231:2250  patients[patientId] */\n      dup2\n      mstore\n      0x20\n      add\n      swap1\n      dup2\n      mstore\n      0x20\n      add\n      0x00\n      keccak256\n        /* \"contracts/patientrecord.sol\":2231:2255  patients[patientId].flag */\n      0x06\n      add\n      0x00\n        /* \"contracts/patientrecord.sol\":2231:2262  patients[patientId].flag = true */\n      0x0100\n      exp\n      dup2\n      sload\n      dup2\n      0xff\n      mul\n      not\n      and\n      swap1\n      dup4\n      iszero\n      iszero\n      mul\n      or\n      swap1\n      sstore\n      pop\n        /* \"contracts/patientrecord.sol\":2309:2324  _patientAddress */\n      dup2\n        /* \"contracts/patientrecord.sol\":2272:2280  patients */\n      0x05\n        /* \"contracts/patientrecord.sol\":2272:2291  patients[patientId] */\n      0x00\n        /* \"contracts/patientrecord.sol\":2281:2290  patientId */\n      dup4\n        /* \"contracts/patientrecord.sol\":2272:2291  patients[patientId] */\n      dup2\n      mstore\n      0x20\n      add\n      swap1\n      dup2\n      mstore\n      0x20\n      add\n      0x00\n      keccak256\n        /* \"contracts/patientrecord.sol\":2272:2306  patients[patientId].patientAddress */\n      0x04\n      add\n      0x00\n        /* \"contracts/patientrecord.sol\":2272:2324  patients[patientId].patientAddress = _patientAddress */\n      0x0100\n      exp\n      dup2\n      sload\n      dup2\n      0xffffffffffffffffffffffffffffffffffffffff\n      mul\n      not\n      and\n      swap1\n      dup4\n      0xffffffffffffffffffffffffffffffffffffffff\n      and\n      mul\n      or\n      swap1\n      sstore\n      pop\n        /* \"contracts/patientrecord.sol\":2051:2331  {... */\n      pop\n        /* \"contracts/patientrecord.sol\":1956:2331  function registerNewPatient(string memory _name, uint256 _age, address _patientAddress) public {... */\n      pop\n      pop\n      pop\n      jump\t// out\n        /* \"contracts/patientrecord.sol\":2371:2496  function addPatientDisease(uint256 _id, string memory _disease) public {... */\n    tag_31:\n        /* \"contracts/patientrecord.sol\":2452:2460  patients */\n      0x05\n        /* \"contracts/patientrecord.sol\":2452:2465  patients[_id] */\n      0x00\n        /* \"contracts/patientrecord.sol\":2461:2464  _id */\n      dup4\n        /* \"contracts/patientrecord.sol\":2452:2465  patients[_id] */\n      dup2\n      mstore\n      0x20\n      add\n      swap1\n      dup2\n      mstore\n      0x20\n      add\n      0x00\n      keccak256\n        /* \"contracts/patientrecord.sol\":2452:2474  patients[_id].diseases */\n      0x03\n      add\n        /* \"contracts/patientrecord.sol\":2480:2488  _disease */\n      dup2\n        /* \"contracts/patientrecord.sol\":2452:2489  patients[_id].diseases.push(_disease) */\n      swap1\n      dup1\n      0x01\n      dup2\n      sload\n      add\n      dup1\n      dup3\n      sstore\n      dup1\n      swap2\n      pop\n      pop\n      0x01\n      swap1\n      sub\n      swap1\n      0x00\n      mstore\n      keccak256(0x00, 0x20)\n      add\n      0x00\n      swap1\n      swap2\n      swap1\n      swap2\n      swap1\n      swap2\n      pop\n      swap1\n      dup2\n      tag_90\n      swap2\n      swap1\n      tag_87\n      jump\t// in\n    tag_90:\n      pop\n        /* \"contracts/patientrecord.sol\":2371:2496  function addPatientDisease(uint256 _id, string memory _disease) public {... */\n      pop\n      pop\n      jump\t// out\n        /* \"contracts/patientrecord.sol\":3560:3956  function viewPatientData(uint256 _patientId) public view... */\n    tag_35:\n        /* \"contracts/patientrecord.sol\":3633:3650  uint256 patientId */\n      0x00\n        /* \"contracts/patientrecord.sol\":3669:3680  uint256 age */\n      dup1\n        /* \"contracts/patientrecord.sol\":3699:3717  string memory name */\n      0x60\n        /* \"contracts/patientrecord.sol\":3736:3760  string[] memory diseases */\n      dup1\n        /* \"contracts/patientrecord.sol\":3796:3804  patients */\n      0x05\n        /* \"contracts/patientrecord.sol\":3796:3816  patients[_patientId] */\n      0x00\n        /* \"contracts/patientrecord.sol\":3805:3815  _patientId */\n      dup7\n        /* \"contracts/patientrecord.sol\":3796:3816  patients[_patientId] */\n      dup2\n      mstore\n      0x20\n      add\n      swap1\n      dup2\n      mstore\n      0x20\n      add\n      0x00\n      keccak256\n        /* \"contracts/patientrecord.sol\":3796:3819  patients[_patientId].id */\n      0x00\n      add\n      sload\n        /* \"contracts/patientrecord.sol\":3833:3841  patients */\n      0x05\n        /* \"contracts/patientrecord.sol\":3833:3853  patients[_patientId] */\n      0x00\n        /* \"contracts/patientrecord.sol\":3842:3852  _patientId */\n      dup8\n        /* \"contracts/patientrecord.sol\":3833:3853  patients[_patientId] */\n      dup2\n      mstore\n      0x20\n      add\n      swap1\n      dup2\n      mstore\n      0x20\n      add\n      0x00\n      keccak256\n        /* \"contracts/patientrecord.sol\":3833:3857  patients[_patientId].age */\n      0x02\n      add\n      sload\n        /* \"contracts/patientrecord.sol\":3871:3879  patients */\n      0x05\n        /* \"contracts/patientrecord.sol\":3871:3891  patients[_patientId] */\n      0x00\n        /* \"contracts/patientrecord.sol\":3880:3890  _patientId */\n      dup9\n        /* \"contracts/patientrecord.sol\":3871:3891  patients[_patientId] */\n      dup2\n      mstore\n      0x20\n      add\n      swap1\n      dup2\n      mstore\n      0x20\n      add\n      0x00\n      keccak256\n        /* \"contracts/patientrecord.sol\":3871:3896  patients[_patientId].name */\n      0x01\n      add\n        /* \"contracts/patientrecord.sol\":3910:3918  patients */\n      0x05\n        /* \"contracts/patientrecord.sol\":3910:3930  patients[_patientId] */\n      0x00\n        /* \"contracts/patientrecord.sol\":3919:3929  _patientId */\n      dup10\n        /* \"contracts/patientrecord.sol\":3910:3930  patients[_patientId] */\n      dup2\n      mstore\n      0x20\n      add\n      swap1\n      dup2\n      mstore\n      0x20\n      add\n      0x00\n      keccak256\n        /* \"contracts/patientrecord.sol\":3910:3939  patients[_patientId].diseases */\n      0x03\n      add\n        /* \"contracts/patientrecord.sol\":3776:3949  return(... */\n      dup2\n      dup1\n      sload\n      tag_92\n      swap1\n      tag_93\n      jump\t// in\n    tag_92:\n      dup1\n      0x1f\n      add\n      0x20\n      dup1\n      swap2\n      div\n      mul\n      0x20\n      add\n      mload(0x40)\n      swap1\n      dup2\n      add\n      0x40\n      mstore\n      dup1\n      swap3\n      swap2\n      swap1\n      dup2\n      dup2\n      mstore\n      0x20\n      add\n      dup3\n      dup1\n      sload\n      tag_94\n      swap1\n      tag_93\n      jump\t// in\n    tag_94:\n      dup1\n      iszero\n      tag_95\n      jumpi\n      dup1\n      0x1f\n      lt\n      tag_96\n      jumpi\n      0x0100\n      dup1\n      dup4\n      sload\n      div\n      mul\n      dup4\n      mstore\n      swap2\n      0x20\n      add\n      swap2\n      jump(tag_95)\n    tag_96:\n      dup3\n      add\n      swap2\n      swap1\n      0x00\n      mstore\n      keccak256(0x00, 0x20)\n      swap1\n    tag_97:\n      dup2\n      sload\n      dup2\n      mstore\n      swap1\n      0x01\n      add\n      swap1\n      0x20\n      add\n      dup1\n      dup4\n      gt\n      tag_97\n      jumpi\n      dup3\n      swap1\n      sub\n      0x1f\n      and\n      dup3\n      add\n      swap2\n    tag_95:\n      pop\n      pop\n      pop\n      pop\n      pop\n      swap2\n      pop\n      dup1\n      dup1\n      sload\n      dup1\n      0x20\n      mul\n      0x20\n      add\n      mload(0x40)\n      swap1\n      dup2\n      add\n      0x40\n      mstore\n      dup1\n      swap3\n      swap2\n      swap1\n      dup2\n      dup2\n      mstore\n      0x20\n      add\n      0x00\n      swap1\n    tag_98:\n      dup3\n      dup3\n      lt\n      iszero\n      tag_99\n      jumpi\n      dup4\n      dup3\n      swap1\n      0x00\n      mstore\n      keccak256(0x00, 0x20)\n      add\n      dup1\n      sload\n      tag_101\n      swap1\n      tag_93\n      jump\t// in\n    tag_101:\n      dup1\n      0x1f\n      add\n      0x20\n      dup1\n      swap2\n      div\n      mul\n      0x20\n      add\n      mload(0x40)\n      swap1\n      dup2\n      add\n      0x40\n      mstore\n      dup1\n      swap3\n      swap2\n      swap1\n      dup2\n      dup2\n      mstore\n      0x20\n      add\n      dup3\n      dup1\n      sload\n      tag_102\n      swap1\n      tag_93\n      jump\t// in\n    tag_102:\n      dup1\n      iszero\n      tag_103\n      jumpi\n      dup1\n      0x1f\n      lt\n      tag_104\n      jumpi\n      0x0100\n      dup1\n      dup4\n      sload\n      div\n      mul\n      dup4\n      mstore\n      swap2\n      0x20\n      add\n      swap2\n      jump(tag_103)\n    tag_104:\n      dup3\n      add\n      swap2\n      swap1\n      0x00\n      mstore\n      keccak256(0x00, 0x20)\n      swap1\n    tag_105:\n      dup2\n      sload\n      dup2\n      mstore\n      swap1\n      0x01\n      add\n      swap1\n      0x20\n      add\n      dup1\n      dup4\n      gt\n      tag_105\n      jumpi\n      dup3\n      swap1\n      sub\n      0x1f\n      and\n      dup3\n      add\n      swap2\n    tag_103:\n      pop\n      pop\n      pop\n      pop\n      pop\n      dup2\n      mstore\n      0x20\n      add\n      swap1\n      0x01\n      add\n      swap1\n      jump(tag_98)\n    tag_99:\n      pop\n      pop\n      pop\n      pop\n      swap1\n      pop\n      swap4\n      pop\n      swap4\n      pop\n      swap4\n      pop\n      swap4\n      pop\n        /* \"contracts/patientrecord.sol\":3560:3956  function viewPatientData(uint256 _patientId) public view... */\n      swap2\n      swap4\n      pop\n      swap2\n      swap4\n      jump\t// out\n        /* \"contracts/patientrecord.sol\":1529:1917  function registerNewDoctor(string memory _name, string memory _qualification, string memory _workPlace) public {... */\n    tag_41:\n        /* \"contracts/patientrecord.sol\":1650:1666  uint256 doctorId */\n      0x00\n        /* \"contracts/patientrecord.sol\":1681:1682  1 */\n      0x01\n        /* \"contracts/patientrecord.sol\":1669:1680  doctorCount */\n      dup1\n      sload\n        /* \"contracts/patientrecord.sol\":1669:1682  doctorCount+1 */\n      tag_107\n      swap2\n      swap1\n      tag_85\n      jump\t// in\n    tag_107:\n        /* \"contracts/patientrecord.sol\":1650:1682  uint256 doctorId = doctorCount+1 */\n      swap1\n      pop\n        /* \"contracts/patientrecord.sol\":1715:1723  doctorId */\n      dup1\n        /* \"contracts/patientrecord.sol\":1692:1699  doctors */\n      0x04\n        /* \"contracts/patientrecord.sol\":1692:1709  doctors[doctorId] */\n      0x00\n        /* \"contracts/patientrecord.sol\":1700:1708  doctorId */\n      dup4\n        /* \"contracts/patientrecord.sol\":1692:1709  doctors[doctorId] */\n      dup2\n      mstore\n      0x20\n      add\n      swap1\n      dup2\n      mstore\n      0x20\n      add\n      0x00\n      keccak256\n        /* \"contracts/patientrecord.sol\":1692:1712  doctors[doctorId].id */\n      0x00\n      add\n        /* \"contracts/patientrecord.sol\":1692:1723  doctors[doctorId].id = doctorId */\n      dup2\n      swap1\n      sstore\n      pop\n        /* \"contracts/patientrecord.sol\":1758:1763  _name */\n      dup4\n        /* \"contracts/patientrecord.sol\":1733:1740  doctors */\n      0x04\n        /* \"contracts/patientrecord.sol\":1733:1750  doctors[doctorId] */\n      0x00\n        /* \"contracts/patientrecord.sol\":1741:1749  doctorId */\n      dup4\n        /* \"contracts/patientrecord.sol\":1733:1750  doctors[doctorId] */\n      dup2\n      mstore\n      0x20\n      add\n      swap1\n      dup2\n      mstore\n      0x20\n      add\n      0x00\n      keccak256\n        /* \"contracts/patientrecord.sol\":1733:1755  doctors[doctorId].name */\n      0x01\n      add\n        /* \"contracts/patientrecord.sol\":1733:1763  doctors[doctorId].name = _name */\n      swap1\n      dup2\n      tag_108\n      swap2\n      swap1\n      tag_87\n      jump\t// in\n    tag_108:\n      pop\n        /* \"contracts/patientrecord.sol\":1807:1821  _qualification */\n      dup3\n        /* \"contracts/patientrecord.sol\":1773:1780  doctors */\n      0x04\n        /* \"contracts/patientrecord.sol\":1773:1790  doctors[doctorId] */\n      0x00\n        /* \"contracts/patientrecord.sol\":1781:1789  doctorId */\n      dup4\n        /* \"contracts/patientrecord.sol\":1773:1790  doctors[doctorId] */\n      dup2\n      mstore\n      0x20\n      add\n      swap1\n      dup2\n      mstore\n      0x20\n      add\n      0x00\n      keccak256\n        /* \"contracts/patientrecord.sol\":1773:1804  doctors[doctorId].qualification */\n      0x02\n      add\n        /* \"contracts/patientrecord.sol\":1773:1821  doctors[doctorId].qualification = _qualification */\n      swap1\n      dup2\n      tag_109\n      swap2\n      swap1\n      tag_87\n      jump\t// in\n    tag_109:\n      pop\n        /* \"contracts/patientrecord.sol\":1861:1871  _workPlace */\n      dup2\n        /* \"contracts/patientrecord.sol\":1831:1838  doctors */\n      0x04\n        /* \"contracts/patientrecord.sol\":1831:1848  doctors[doctorId] */\n      0x00\n        /* \"contracts/patientrecord.sol\":1839:1847  doctorId */\n      dup4\n        /* \"contracts/patientrecord.sol\":1831:1848  doctors[doctorId] */\n      dup2\n      mstore\n      0x20\n      add\n      swap1\n      dup2\n      mstore\n      0x20\n      add\n      0x00\n      keccak256\n        /* \"contracts/patientrecord.sol\":1831:1858  doctors[doctorId].workPlace */\n      0x03\n      add\n        /* \"contracts/patientrecord.sol\":1831:1871  doctors[doctorId].workPlace = _workPlace */\n      swap1\n      dup2\n      tag_110\n      swap2\n      swap1\n      tag_87\n      jump\t// in\n    tag_110:\n      pop\n        /* \"contracts/patientrecord.sol\":1906:1910  true */\n      0x01\n        /* \"contracts/patientrecord.sol\":1881:1888  doctors */\n      0x04\n        /* \"contracts/patientrecord.sol\":1881:1898  doctors[doctorId] */\n      0x00\n        /* \"contracts/patientrecord.sol\":1889:1897  doctorId */\n      dup4\n        /* \"contracts/patientrecord.sol\":1881:1898  doctors[doctorId] */\n      dup2\n      mstore\n      0x20\n      add\n      swap1\n      dup2\n      mstore\n      0x20\n      add\n      0x00\n      keccak256\n        /* \"contracts/patientrecord.sol\":1881:1903  doctors[doctorId].flag */\n      0x04\n      add\n      0x00\n        /* \"contracts/patientrecord.sol\":1881:1910  doctors[doctorId].flag = true */\n      0x0100\n      exp\n      dup2\n      sload\n      dup2\n      0xff\n      mul\n      not\n      and\n      swap1\n      dup4\n      iszero\n      iszero\n      mul\n      or\n      swap1\n      sstore\n      pop\n        /* \"contracts/patientrecord.sol\":1640:1917  {... */\n      pop\n        /* \"contracts/patientrecord.sol\":1529:1917  function registerNewDoctor(string memory _name, string memory _qualification, string memory _workPlace) public {... */\n      pop\n      pop\n      pop\n      jump\t// out\n        /* \"contracts/patientrecord.sol\":2525:2878  function addMedicine(uint256 _id, string memory _name, string memory _expiryDate, string memory _dose, uint256 _price) public {... */\n    tag_45:\n        /* \"contracts/patientrecord.sol\":2661:2674  medicineCount */\n      0x03\n      0x00\n        /* \"contracts/patientrecord.sol\":2661:2676  medicineCount++ */\n      dup2\n      sload\n      dup1\n      swap3\n      swap2\n      swap1\n      tag_112\n      swap1\n      tag_113\n      jump\t// in\n    tag_112:\n      swap2\n      swap1\n      pop\n      sstore\n      pop\n        /* \"contracts/patientrecord.sol\":2706:2709  _id */\n      dup5\n        /* \"contracts/patientrecord.sol\":2686:2695  medicines */\n      0x06\n        /* \"contracts/patientrecord.sol\":2686:2700  medicines[_id] */\n      0x00\n        /* \"contracts/patientrecord.sol\":2696:2699  _id */\n      dup8\n        /* \"contracts/patientrecord.sol\":2686:2700  medicines[_id] */\n      dup2\n      mstore\n      0x20\n      add\n      swap1\n      dup2\n      mstore\n      0x20\n      add\n      0x00\n      keccak256\n        /* \"contracts/patientrecord.sol\":2686:2703  medicines[_id].id */\n      0x00\n      add\n        /* \"contracts/patientrecord.sol\":2686:2709  medicines[_id].id = _id */\n      dup2\n      swap1\n      sstore\n      pop\n        /* \"contracts/patientrecord.sol\":2741:2746  _name */\n      dup4\n        /* \"contracts/patientrecord.sol\":2719:2728  medicines */\n      0x06\n        /* \"contracts/patientrecord.sol\":2719:2733  medicines[_id] */\n      0x00\n        /* \"contracts/patientrecord.sol\":2729:2732  _id */\n      dup8\n        /* \"contracts/patientrecord.sol\":2719:2733  medicines[_id] */\n      dup2\n      mstore\n      0x20\n      add\n      swap1\n      dup2\n      mstore\n      0x20\n      add\n      0x00\n      keccak256\n        /* \"contracts/patientrecord.sol\":2719:2738  medicines[_id].name */\n      0x01\n      add\n        /* \"contracts/patientrecord.sol\":2719:2746  medicines[_id].name = _name */\n      swap1\n      dup2\n      tag_114\n      swap2\n      swap1\n      tag_87\n      jump\t// in\n    tag_114:\n      pop\n        /* \"contracts/patientrecord.sol\":2784:2795  _expiryDate */\n      dup3\n        /* \"contracts/patientrecord.sol\":2756:2765  medicines */\n      0x06\n        /* \"contracts/patientrecord.sol\":2756:2770  medicines[_id] */\n      0x00\n        /* \"contracts/patientrecord.sol\":2766:2769  _id */\n      dup8\n        /* \"contracts/patientrecord.sol\":2756:2770  medicines[_id] */\n      dup2\n      mstore\n      0x20\n      add\n      swap1\n      dup2\n      mstore\n      0x20\n      add\n      0x00\n      keccak256\n        /* \"contracts/patientrecord.sol\":2756:2781  medicines[_id].expiryDate */\n      0x02\n      add\n        /* \"contracts/patientrecord.sol\":2756:2795  medicines[_id].expiryDate = _expiryDate */\n      swap1\n      dup2\n      tag_115\n      swap2\n      swap1\n      tag_87\n      jump\t// in\n    tag_115:\n      pop\n        /* \"contracts/patientrecord.sol\":2827:2832  _dose */\n      dup2\n        /* \"contracts/patientrecord.sol\":2805:2814  medicines */\n      0x06\n        /* \"contracts/patientrecord.sol\":2805:2819  medicines[_id] */\n      0x00\n        /* \"contracts/patientrecord.sol\":2815:2818  _id */\n      dup8\n        /* \"contracts/patientrecord.sol\":2805:2819  medicines[_id] */\n      dup2\n      mstore\n      0x20\n      add\n      swap1\n      dup2\n      mstore\n      0x20\n      add\n      0x00\n      keccak256\n        /* \"contracts/patientrecord.sol\":2805:2824  medicines[_id].dose */\n      0x03\n      add\n        /* \"contracts/patientrecord.sol\":2805:2832  medicines[_id].dose = _dose */\n      swap1\n      dup2\n      tag_116\n      swap2\n      swap1\n      tag_87\n      jump\t// in\n    tag_116:\n      pop\n        /* \"contracts/patientrecord.sol\":2865:2871  _price */\n      dup1\n        /* \"contracts/patientrecord.sol\":2842:2851  medicines */\n      0x06\n        /* \"contracts/patientrecord.sol\":2842:2856  medicines[_id] */\n      0x00\n        /* \"contracts/patientrecord.sol\":2852:2855  _id */\n      dup8\n        /* \"contracts/patientrecord.sol\":2842:2856  medicines[_id] */\n      dup2\n      mstore\n      0x20\n      add\n      swap1\n      dup2\n      mstore\n      0x20\n      add\n      0x00\n      keccak256\n        /* \"contracts/patientrecord.sol\":2842:2862  medicines[_id].price */\n      0x04\n      add\n        /* \"contracts/patientrecord.sol\":2842:2871  medicines[_id].price = _price */\n      dup2\n      swap1\n      sstore\n      pop\n        /* \"contracts/patientrecord.sol\":2525:2878  function addMedicine(uint256 _id, string memory _name, string memory _expiryDate, string memory _dose, uint256 _price) public {... */\n      pop\n      pop\n      pop\n      pop\n      pop\n      jump\t// out\n        /* \"contracts/patientrecord.sol\":5281:5532  function viewPatientMedicines(address _patientAddress) public view... */\n    tag_49:\n        /* \"contracts/patientrecord.sol\":5364:5385  uint256[] memory meds */\n      0x60\n        /* \"contracts/patientrecord.sol\":5401:5419  uint256 _patientId */\n      0x00\n        /* \"contracts/patientrecord.sol\":5422:5438  patiendAddressID */\n      0x07\n        /* \"contracts/patientrecord.sol\":5422:5455  patiendAddressID[_patientAddress] */\n      0x00\n        /* \"contracts/patientrecord.sol\":5439:5454  _patientAddress */\n      dup5\n        /* \"contracts/patientrecord.sol\":5422:5455  patiendAddressID[_patientAddress] */\n      0xffffffffffffffffffffffffffffffffffffffff\n      and\n      0xffffffffffffffffffffffffffffffffffffffff\n      and\n      dup2\n      mstore\n      0x20\n      add\n      swap1\n      dup2\n      mstore\n      0x20\n      add\n      0x00\n      keccak256\n      sload\n        /* \"contracts/patientrecord.sol\":5401:5455  uint256 _patientId = patiendAddressID[_patientAddress] */\n      swap1\n      pop\n        /* \"contracts/patientrecord.sol\":5485:5493  patients */\n      0x05\n        /* \"contracts/patientrecord.sol\":5485:5505  patients[_patientId] */\n      0x00\n        /* \"contracts/patientrecord.sol\":5494:5504  _patientId */\n      dup3\n        /* \"contracts/patientrecord.sol\":5485:5505  patients[_patientId] */\n      dup2\n      mstore\n      0x20\n      add\n      swap1\n      dup2\n      mstore\n      0x20\n      add\n      0x00\n      keccak256\n        /* \"contracts/patientrecord.sol\":5485:5515  patients[_patientId].medicines */\n      0x05\n      add\n        /* \"contracts/patientrecord.sol\":5465:5525  return(... */\n      dup1\n      sload\n      dup1\n      0x20\n      mul\n      0x20\n      add\n      mload(0x40)\n      swap1\n      dup2\n      add\n      0x40\n      mstore\n      dup1\n      swap3\n      swap2\n      swap1\n      dup2\n      dup2\n      mstore\n      0x20\n      add\n      dup3\n      dup1\n      sload\n      dup1\n      iszero\n      tag_118\n      jumpi\n      0x20\n      mul\n      dup3\n      add\n      swap2\n      swap1\n      0x00\n      mstore\n      keccak256(0x00, 0x20)\n      swap1\n    tag_119:\n      dup2\n      sload\n      dup2\n      mstore\n      0x20\n      add\n      swap1\n      0x01\n      add\n      swap1\n      dup1\n      dup4\n      gt\n      tag_119\n      jumpi\n    tag_118:\n      pop\n      pop\n      pop\n      pop\n      pop\n      swap2\n      pop\n      pop\n        /* \"contracts/patientrecord.sol\":5281:5532  function viewPatientMedicines(address _patientAddress) public view... */\n      swap2\n      swap1\n      pop\n      jump\t// out\n        /* \"contracts/patientrecord.sol\":3991:4318  function viewPatientData(address _patientAddress) public view ... */\n    tag_54:\n        /* \"contracts/patientrecord.sol\":4070:4087  uint256 patientId */\n      0x00\n        /* \"contracts/patientrecord.sol\":4106:4117  uint256 age */\n      dup1\n        /* \"contracts/patientrecord.sol\":4136:4154  string memory name */\n      0x60\n        /* \"contracts/patientrecord.sol\":4173:4197  string[] memory diseases */\n      dup1\n        /* \"contracts/patientrecord.sol\":4213:4231  uint256 _patientId */\n      0x00\n        /* \"contracts/patientrecord.sol\":4234:4250  patiendAddressID */\n      0x07\n        /* \"contracts/patientrecord.sol\":4234:4267  patiendAddressID[_patientAddress] */\n      0x00\n        /* \"contracts/patientrecord.sol\":4251:4266  _patientAddress */\n      dup8\n        /* \"contracts/patientrecord.sol\":4234:4267  patiendAddressID[_patientAddress] */\n      0xffffffffffffffffffffffffffffffffffffffff\n      and\n      0xffffffffffffffffffffffffffffffffffffffff\n      and\n      dup2\n      mstore\n      0x20\n      add\n      swap1\n      dup2\n      mstore\n      0x20\n      add\n      0x00\n      keccak256\n      sload\n        /* \"contracts/patientrecord.sol\":4213:4267  uint256 _patientId = patiendAddressID[_patientAddress] */\n      swap1\n      pop\n        /* \"contracts/patientrecord.sol\":4284:4311  viewPatientData(_patientId) */\n      tag_121\n        /* \"contracts/patientrecord.sol\":4300:4310  _patientId */\n      dup2\n        /* \"contracts/patientrecord.sol\":4284:4299  viewPatientData */\n      tag_35\n        /* \"contracts/patientrecord.sol\":4284:4311  viewPatientData(_patientId) */\n      jump\t// in\n    tag_121:\n        /* \"contracts/patientrecord.sol\":4277:4311  return viewPatientData(_patientId) */\n      swap5\n      pop\n      swap5\n      pop\n      swap5\n      pop\n      swap5\n      pop\n      pop\n        /* \"contracts/patientrecord.sol\":3991:4318  function viewPatientData(address _patientAddress) public view ... */\n      swap2\n      swap4\n      pop\n      swap2\n      swap4\n      jump\t// out\n        /* \"contracts/patientrecord.sol\":4356:4775  function viewMedicineDetails(uint256 _medicineId) public view ... */\n    tag_58:\n        /* \"contracts/patientrecord.sol\":4435:4453  string memory name */\n      0x60\n        /* \"contracts/patientrecord.sol\":4472:4496  string memory expiryDate */\n      dup1\n        /* \"contracts/patientrecord.sol\":4515:4533  string memory dose */\n      0x60\n        /* \"contracts/patientrecord.sol\":4552:4565  uint256 price */\n      0x00\n        /* \"contracts/patientrecord.sol\":4601:4610  medicines */\n      0x06\n        /* \"contracts/patientrecord.sol\":4601:4623  medicines[_medicineId] */\n      0x00\n        /* \"contracts/patientrecord.sol\":4611:4622  _medicineId */\n      dup7\n        /* \"contracts/patientrecord.sol\":4601:4623  medicines[_medicineId] */\n      dup2\n      mstore\n      0x20\n      add\n      swap1\n      dup2\n      mstore\n      0x20\n      add\n      0x00\n      keccak256\n        /* \"contracts/patientrecord.sol\":4601:4628  medicines[_medicineId].name */\n      0x01\n      add\n        /* \"contracts/patientrecord.sol\":4642:4651  medicines */\n      0x06\n        /* \"contracts/patientrecord.sol\":4642:4664  medicines[_medicineId] */\n      0x00\n        /* \"contracts/patientrecord.sol\":4652:4663  _medicineId */\n      dup8\n        /* \"contracts/patientrecord.sol\":4642:4664  medicines[_medicineId] */\n      dup2\n      mstore\n      0x20\n      add\n      swap1\n      dup2\n      mstore\n      0x20\n      add\n      0x00\n      keccak256\n        /* \"contracts/patientrecord.sol\":4642:4675  medicines[_medicineId].expiryDate */\n      0x02\n      add\n        /* \"contracts/patientrecord.sol\":4689:4698  medicines */\n      0x06\n        /* \"contracts/patientrecord.sol\":4689:4711  medicines[_medicineId] */\n      0x00\n        /* \"contracts/patientrecord.sol\":4699:4710  _medicineId */\n      dup9\n        /* \"contracts/patientrecord.sol\":4689:4711  medicines[_medicineId] */\n      dup2\n      mstore\n      0x20\n      add\n      swap1\n      dup2\n      mstore\n      0x20\n      add\n      0x00\n      keccak256\n        /* \"contracts/patientrecord.sol\":4689:4716  medicines[_medicineId].dose */\n      0x03\n      add\n        /* \"contracts/patientrecord.sol\":4730:4739  medicines */\n      0x06\n        /* \"contracts/patientrecord.sol\":4730:4752  medicines[_medicineId] */\n      0x00\n        /* \"contracts/patientrecord.sol\":4740:4751  _medicineId */\n      dup10\n        /* \"contracts/patientrecord.sol\":4730:4752  medicines[_medicineId] */\n      dup2\n      mstore\n      0x20\n      add\n      swap1\n      dup2\n      mstore\n      0x20\n      add\n      0x00\n      keccak256\n        /* \"contracts/patientrecord.sol\":4730:4758  medicines[_medicineId].price */\n      0x04\n      add\n      sload\n        /* \"contracts/patientrecord.sol\":4581:4768  return(... */\n      dup4\n      dup1\n      sload\n      tag_123\n      swap1\n      tag_93\n      jump\t// in\n    tag_123:\n      dup1\n      0x1f\n      add\n      0x20\n      dup1\n      swap2\n      div\n      mul\n      0x20\n      add\n      mload(0x40)\n      swap1\n      dup2\n      add\n      0x40\n      mstore\n      dup1\n      swap3\n      swap2\n      swap1\n      dup2\n      dup2\n      mstore\n      0x20\n      add\n      dup3\n      dup1\n      sload\n      tag_124\n      swap1\n      tag_93\n      jump\t// in\n    tag_124:\n      dup1\n      iszero\n      tag_125\n      jumpi\n      dup1\n      0x1f\n      lt\n      tag_126\n      jumpi\n      0x0100\n      dup1\n      dup4\n      sload\n      div\n      mul\n      dup4\n      mstore\n      swap2\n      0x20\n      add\n      swap2\n      jump(tag_125)\n    tag_126:\n      dup3\n      add\n      swap2\n      swap1\n      0x00\n      mstore\n      keccak256(0x00, 0x20)\n      swap1\n    tag_127:\n      dup2\n      sload\n      dup2\n      mstore\n      swap1\n      0x01\n      add\n      swap1\n      0x20\n      add\n      dup1\n      dup4\n      gt\n      tag_127\n      jumpi\n      dup3\n      swap1\n      sub\n      0x1f\n      and\n      dup3\n      add\n      swap2\n    tag_125:\n      pop\n      pop\n      pop\n      pop\n      pop\n      swap4\n      pop\n      dup3\n      dup1\n      sload\n      tag_128\n      swap1\n      tag_93\n      jump\t// in\n    tag_128:\n      dup1\n      0x1f\n      add\n      0x20\n      dup1\n      swap2\n      div\n      mul\n      0x20\n      add\n      mload(0x40)\n      swap1\n      dup2\n      add\n      0x40\n      mstore\n      dup1\n      swap3\n      swap2\n      swap1\n      dup2\n      dup2\n      mstore\n      0x20\n      add\n      dup3\n      dup1\n      sload\n      tag_129\n      swap1\n      tag_93\n      jump\t// in\n    tag_129:\n      dup1\n      iszero\n      tag_130\n      jumpi\n      dup1\n      0x1f\n      lt\n      tag_131\n      jumpi\n      0x0100\n      dup1\n      dup4\n      sload\n      div\n      mul\n      dup4\n      mstore\n      swap2\n      0x20\n      add\n      swap2\n      jump(tag_130)\n    tag_131:\n      dup3\n      add\n      swap2\n      swap1\n      0x00\n      mstore\n      keccak256(0x00, 0x20)\n      swap1\n    tag_132:\n      dup2\n      sload\n      dup2\n      mstore\n      swap1\n      0x01\n      add\n      swap1\n      0x20\n      add\n      dup1\n      dup4\n      gt\n      tag_132\n      jumpi\n      dup3\n      swap1\n      sub\n      0x1f\n      and\n      dup3\n      add\n      swap2\n    tag_130:\n      pop\n      pop\n      pop\n      pop\n      pop\n      swap3\n      pop\n      dup2\n      dup1\n      sload\n      tag_133\n      swap1\n      tag_93\n      jump\t// in\n    tag_133:\n      dup1\n      0x1f\n      add\n      0x20\n      dup1\n      swap2\n      div\n      mul\n      0x20\n      add\n      mload(0x40)\n      swap1\n      dup2\n      add\n      0x40\n      mstore\n      dup1\n      swap3\n      swap2\n      swap1\n      dup2\n      dup2\n      mstore\n      0x20\n      add\n      dup3\n      dup1\n      sload\n      tag_134\n      swap1\n      tag_93\n      jump\t// in\n    tag_134:\n      dup1\n      iszero\n      tag_135\n      jumpi\n      dup1\n      0x1f\n      lt\n      tag_136\n      jumpi\n      0x0100\n      dup1\n      dup4\n      sload\n      div\n      mul\n      dup4\n      mstore\n      swap2\n      0x20\n      add\n      swap2\n      jump(tag_135)\n    tag_136:\n      dup3\n      add\n      swap2\n      swap1\n      0x00\n      mstore\n      keccak256(0x00, 0x20)\n      swap1\n    tag_137:\n      dup2\n      sload\n      dup2\n      mstore\n      swap1\n      0x01\n      add\n      swap1\n      0x20\n      add\n      dup1\n      dup4\n      gt\n      tag_137\n      jumpi\n      dup3\n      swap1\n      sub\n      0x1f\n      and\n      dup3\n      add\n      swap2\n    tag_135:\n      pop\n      pop\n      pop\n      pop\n      pop\n      swap2\n      pop\n      swap4\n      pop\n      swap4\n      pop\n      swap4\n      pop\n      swap4\n      pop\n        /* \"contracts/patientrecord.sol\":4356:4775  function viewMedicineDetails(uint256 _medicineId) public view ... */\n      swap2\n      swap4\n      pop\n      swap2\n      swap4\n      jump\t// out\n        /* \"contracts/patientrecord.sol\":151:179  address public contractOwner */\n    tag_62:\n      0x00\n      dup1\n      sload\n      swap1\n      0x0100\n      exp\n      swap1\n      div\n      0xffffffffffffffffffffffffffffffffffffffff\n      and\n      dup2\n      jump\t// out\n        /* \"contracts/patientrecord.sol\":5569:5982  function viewDoctorDetails(uint256 _doctorId) public view... */\n    tag_67:\n        /* \"contracts/patientrecord.sol\":5643:5659  uint256 doctorId */\n      0x00\n        /* \"contracts/patientrecord.sol\":5678:5696  string memory name */\n      0x60\n        /* \"contracts/patientrecord.sol\":5715:5742  string memory qualification */\n      dup1\n        /* \"contracts/patientrecord.sol\":5760:5783  string memory workPlace */\n      0x60\n        /* \"contracts/patientrecord.sol\":5819:5826  doctors */\n      0x04\n        /* \"contracts/patientrecord.sol\":5819:5837  doctors[_doctorId] */\n      0x00\n        /* \"contracts/patientrecord.sol\":5827:5836  _doctorId */\n      dup7\n        /* \"contracts/patientrecord.sol\":5819:5837  doctors[_doctorId] */\n      dup2\n      mstore\n      0x20\n      add\n      swap1\n      dup2\n      mstore\n      0x20\n      add\n      0x00\n      keccak256\n        /* \"contracts/patientrecord.sol\":5819:5840  doctors[_doctorId].id */\n      0x00\n      add\n      sload\n        /* \"contracts/patientrecord.sol\":5854:5861  doctors */\n      0x04\n        /* \"contracts/patientrecord.sol\":5854:5872  doctors[_doctorId] */\n      0x00\n        /* \"contracts/patientrecord.sol\":5862:5871  _doctorId */\n      dup8\n        /* \"contracts/patientrecord.sol\":5854:5872  doctors[_doctorId] */\n      dup2\n      mstore\n      0x20\n      add\n      swap1\n      dup2\n      mstore\n      0x20\n      add\n      0x00\n      keccak256\n        /* \"contracts/patientrecord.sol\":5854:5877  doctors[_doctorId].name */\n      0x01\n      add\n        /* \"contracts/patientrecord.sol\":5891:5898  doctors */\n      0x04\n        /* \"contracts/patientrecord.sol\":5891:5909  doctors[_doctorId] */\n      0x00\n        /* \"contracts/patientrecord.sol\":5899:5908  _doctorId */\n      dup9\n        /* \"contracts/patientrecord.sol\":5891:5909  doctors[_doctorId] */\n      dup2\n      mstore\n      0x20\n      add\n      swap1\n      dup2\n      mstore\n      0x20\n      add\n      0x00\n      keccak256\n        /* \"contracts/patientrecord.sol\":5891:5923  doctors[_doctorId].qualification */\n      0x02\n      add\n        /* \"contracts/patientrecord.sol\":5937:5944  doctors */\n      0x04\n        /* \"contracts/patientrecord.sol\":5937:5955  doctors[_doctorId] */\n      0x00\n        /* \"contracts/patientrecord.sol\":5945:5954  _doctorId */\n      dup10\n        /* \"contracts/patientrecord.sol\":5937:5955  doctors[_doctorId] */\n      dup2\n      mstore\n      0x20\n      add\n      swap1\n      dup2\n      mstore\n      0x20\n      add\n      0x00\n      keccak256\n        /* \"contracts/patientrecord.sol\":5937:5965  doctors[_doctorId].workPlace */\n      0x03\n      add\n        /* \"contracts/patientrecord.sol\":5799:5975  return(... */\n      dup3\n      dup1\n      sload\n      tag_139\n      swap1\n      tag_93\n      jump\t// in\n    tag_139:\n      dup1\n      0x1f\n      add\n      0x20\n      dup1\n      swap2\n      div\n      mul\n      0x20\n      add\n      mload(0x40)\n      swap1\n      dup2\n      add\n      0x40\n      mstore\n      dup1\n      swap3\n      swap2\n      swap1\n      dup2\n      dup2\n      mstore\n      0x20\n      add\n      dup3\n      dup1\n      sload\n      tag_140\n      swap1\n      tag_93\n      jump\t// in\n    tag_140:\n      dup1\n      iszero\n      tag_141\n      jumpi\n      dup1\n      0x1f\n      lt\n      tag_142\n      jumpi\n      0x0100\n      dup1\n      dup4\n      sload\n      div\n      mul\n      dup4\n      mstore\n      swap2\n      0x20\n      add\n      swap2\n      jump(tag_141)\n    tag_142:\n      dup3\n      add\n      swap2\n      swap1\n      0x00\n      mstore\n      keccak256(0x00, 0x20)\n      swap1\n    tag_143:\n      dup2\n      sload\n      dup2\n      mstore\n      swap1\n      0x01\n      add\n      swap1\n      0x20\n      add\n      dup1\n      dup4\n      gt\n      tag_143\n      jumpi\n      dup3\n      swap1\n      sub\n      0x1f\n      and\n      dup3\n      add\n      swap2\n    tag_141:\n      pop\n      pop\n      pop\n      pop\n      pop\n      swap3\n      pop\n      dup2\n      dup1\n      sload\n      tag_144\n      swap1\n      tag_93\n      jump\t// in\n    tag_144:\n      dup1\n      0x1f\n      add\n      0x20\n      dup1\n      swap2\n      div\n      mul\n      0x20\n      add\n      mload(0x40)\n      swap1\n      dup2\n      add\n      0x40\n      mstore\n      dup1\n      swap3\n      swap2\n      swap1\n      dup2\n      dup2\n      mstore\n      0x20\n      add\n      dup3\n      dup1\n      sload\n      tag_145\n      swap1\n      tag_93\n      jump\t// in\n    tag_145:\n      dup1\n      iszero\n      tag_146\n      jumpi\n      dup1\n      0x1f\n      lt\n      tag_147\n      jumpi\n      0x0100\n      dup1\n      dup4\n      sload\n      div\n      mul\n      dup4\n      mstore\n      swap2\n      0x20\n      add\n      swap2\n      jump(tag_146)\n    tag_147:\n      dup3\n      add\n      swap2\n      swap1\n      0x00\n      mstore\n      keccak256(0x00, 0x20)\n      swap1\n    tag_148:\n      dup2\n      sload\n      dup2\n      mstore\n      swap1\n      0x01\n      add\n      swap1\n      0x20\n      add\n      dup1\n      dup4\n      gt\n      tag_148\n      jumpi\n      dup3\n      swap1\n      sub\n      0x1f\n      and\n      dup3\n      add\n      swap2\n    tag_146:\n      pop\n      pop\n      pop\n      pop\n      pop\n      swap2\n      pop\n      dup1\n      dup1\n      sload\n      tag_149\n      swap1\n      tag_93\n      jump\t// in\n    tag_149:\n      dup1\n      0x1f\n      add\n      0x20\n      dup1\n      swap2\n      div\n      mul\n      0x20\n      add\n      mload(0x40)\n      swap1\n      dup2\n      add\n      0x40\n      mstore\n      dup1\n      swap3\n      swap2\n      swap1\n      dup2\n      dup2\n      mstore\n      0x20\n      add\n      dup3\n      dup1\n      sload\n      tag_150\n      swap1\n      tag_93\n      jump\t// in\n    tag_150:\n      dup1\n      iszero\n      tag_151\n      jumpi\n      dup1\n      0x1f\n      lt\n      tag_152\n      jumpi\n      0x0100\n      dup1\n      dup4\n      sload\n      div\n      mul\n      dup4\n      mstore\n      swap2\n      0x20\n      add\n      swap2\n      jump(tag_151)\n    tag_152:\n      dup3\n      add\n      swap2\n      swap1\n      0x00\n      mstore\n      keccak256(0x00, 0x20)\n      swap1\n    tag_153:\n      dup2\n      sload\n      dup2\n      mstore\n      swap1\n      0x01\n      add\n      swap1\n      0x20\n      add\n      dup1\n      dup4\n      gt\n      tag_153\n      jumpi\n      dup3\n      swap1\n      sub\n      0x1f\n      and\n      dup3\n      add\n      swap2\n    tag_151:\n      pop\n      pop\n      pop\n      pop\n      pop\n      swap1\n      pop\n      swap4\n      pop\n      swap4\n      pop\n      swap4\n      pop\n      swap4\n      pop\n        /* \"contracts/patientrecord.sol\":5569:5982  function viewDoctorDetails(uint256 _doctorId) public view... */\n      swap2\n      swap4\n      pop\n      swap2\n      swap4\n      jump\t// out\n        /* \"contracts/patientrecord.sol\":3340:3526  function updatePatientDetails(address _patientAddress, uint256 _age) public {... */\n    tag_73:\n        /* \"contracts/patientrecord.sol\":3426:3443  uint256 patientId */\n      0x00\n        /* \"contracts/patientrecord.sol\":3446:3462  patiendAddressID */\n      0x07\n        /* \"contracts/patientrecord.sol\":3446:3479  patiendAddressID[_patientAddress] */\n      0x00\n        /* \"contracts/patientrecord.sol\":3463:3478  _patientAddress */\n      dup5\n        /* \"contracts/patientrecord.sol\":3446:3479  patiendAddressID[_patientAddress] */\n      0xffffffffffffffffffffffffffffffffffffffff\n      and\n      0xffffffffffffffffffffffffffffffffffffffff\n      and\n      dup2\n      mstore\n      0x20\n      add\n      swap1\n      dup2\n      mstore\n      0x20\n      add\n      0x00\n      keccak256\n      sload\n        /* \"contracts/patientrecord.sol\":3426:3479  uint256 patientId = patiendAddressID[_patientAddress] */\n      swap1\n      pop\n        /* \"contracts/patientrecord.sol\":3515:3519  _age */\n      dup2\n        /* \"contracts/patientrecord.sol\":3489:3497  patients */\n      0x05\n        /* \"contracts/patientrecord.sol\":3489:3508  patients[patientId] */\n      0x00\n        /* \"contracts/patientrecord.sol\":3498:3507  patientId */\n      dup4\n        /* \"contracts/patientrecord.sol\":3489:3508  patients[patientId] */\n      dup2\n      mstore\n      0x20\n      add\n      swap1\n      dup2\n      mstore\n      0x20\n      add\n      0x00\n      keccak256\n        /* \"contracts/patientrecord.sol\":3489:3512  patients[patientId].age */\n      0x02\n      add\n        /* \"contracts/patientrecord.sol\":3489:3519  patients[patientId].age = _age */\n      dup2\n      swap1\n      sstore\n      pop\n        /* \"contracts/patientrecord.sol\":3416:3526  {... */\n      pop\n        /* \"contracts/patientrecord.sol\":3340:3526  function updatePatientDetails(address _patientAddress, uint256 _age) public {... */\n      pop\n      pop\n      jump\t// out\n        /* \"contracts/patientrecord.sol\":2913:3120  function prescribeMedicine(uint256 _medicineId, address _patientAddress) public {... */\n    tag_77:\n        /* \"contracts/patientrecord.sol\":3003:3020  uint256 patientId */\n      0x00\n        /* \"contracts/patientrecord.sol\":3023:3039  patiendAddressID */\n      0x07\n        /* \"contracts/patientrecord.sol\":3023:3056  patiendAddressID[_patientAddress] */\n      0x00\n        /* \"contracts/patientrecord.sol\":3040:3055  _patientAddress */\n      dup4\n        /* \"contracts/patientrecord.sol\":3023:3056  patiendAddressID[_patientAddress] */\n      0xffffffffffffffffffffffffffffffffffffffff\n      and\n      0xffffffffffffffffffffffffffffffffffffffff\n      and\n      dup2\n      mstore\n      0x20\n      add\n      swap1\n      dup2\n      mstore\n      0x20\n      add\n      0x00\n      keccak256\n      sload\n        /* \"contracts/patientrecord.sol\":3003:3056  uint256 patientId = patiendAddressID[_patientAddress] */\n      swap1\n      pop\n        /* \"contracts/patientrecord.sol\":3066:3074  patients */\n      0x05\n        /* \"contracts/patientrecord.sol\":3066:3085  patients[patientId] */\n      0x00\n        /* \"contracts/patientrecord.sol\":3075:3084  patientId */\n      dup3\n        /* \"contracts/patientrecord.sol\":3066:3085  patients[patientId] */\n      dup2\n      mstore\n      0x20\n      add\n      swap1\n      dup2\n      mstore\n      0x20\n      add\n      0x00\n      keccak256\n        /* \"contracts/patientrecord.sol\":3066:3095  patients[patientId].medicines */\n      0x05\n      add\n        /* \"contracts/patientrecord.sol\":3101:3112  _medicineId */\n      dup4\n        /* \"contracts/patientrecord.sol\":3066:3113  patients[patientId].medicines.push(_medicineId) */\n      swap1\n      dup1\n      0x01\n      dup2\n      sload\n      add\n      dup1\n      dup3\n      sstore\n      dup1\n      swap2\n      pop\n      pop\n      0x01\n      swap1\n      sub\n      swap1\n      0x00\n      mstore\n      keccak256(0x00, 0x20)\n      add\n      0x00\n      swap1\n      swap2\n      swap1\n      swap2\n      swap1\n      swap2\n      pop\n      sstore\n        /* \"contracts/patientrecord.sol\":2993:3120  {... */\n      pop\n        /* \"contracts/patientrecord.sol\":2913:3120  function prescribeMedicine(uint256 _medicineId, address _patientAddress) public {... */\n      pop\n      pop\n      jump\t// out\n        /* \"contracts/patientrecord.sol\":4819:5223  function viewPatientDatabyDoctor(uint256 _patientId) public view... */\n    tag_80:\n        /* \"contracts/patientrecord.sol\":4900:4917  uint256 patientId */\n      0x00\n        /* \"contracts/patientrecord.sol\":4936:4947  uint256 age */\n      dup1\n        /* \"contracts/patientrecord.sol\":4966:4984  string memory name */\n      0x60\n        /* \"contracts/patientrecord.sol\":5003:5027  string[] memory diseases */\n      dup1\n        /* \"contracts/patientrecord.sol\":5063:5071  patients */\n      0x05\n        /* \"contracts/patientrecord.sol\":5063:5083  patients[_patientId] */\n      0x00\n        /* \"contracts/patientrecord.sol\":5072:5082  _patientId */\n      dup7\n        /* \"contracts/patientrecord.sol\":5063:5083  patients[_patientId] */\n      dup2\n      mstore\n      0x20\n      add\n      swap1\n      dup2\n      mstore\n      0x20\n      add\n      0x00\n      keccak256\n        /* \"contracts/patientrecord.sol\":5063:5086  patients[_patientId].id */\n      0x00\n      add\n      sload\n        /* \"contracts/patientrecord.sol\":5100:5108  patients */\n      0x05\n        /* \"contracts/patientrecord.sol\":5100:5120  patients[_patientId] */\n      0x00\n        /* \"contracts/patientrecord.sol\":5109:5119  _patientId */\n      dup8\n        /* \"contracts/patientrecord.sol\":5100:5120  patients[_patientId] */\n      dup2\n      mstore\n      0x20\n      add\n      swap1\n      dup2\n      mstore\n      0x20\n      add\n      0x00\n      keccak256\n        /* \"contracts/patientrecord.sol\":5100:5124  patients[_patientId].age */\n      0x02\n      add\n      sload\n        /* \"contracts/patientrecord.sol\":5138:5146  patients */\n      0x05\n        /* \"contracts/patientrecord.sol\":5138:5158  patients[_patientId] */\n      0x00\n        /* \"contracts/patientrecord.sol\":5147:5157  _patientId */\n      dup9\n        /* \"contracts/patientrecord.sol\":5138:5158  patients[_patientId] */\n      dup2\n      mstore\n      0x20\n      add\n      swap1\n      dup2\n      mstore\n      0x20\n      add\n      0x00\n      keccak256\n        /* \"contracts/patientrecord.sol\":5138:5163  patients[_patientId].name */\n      0x01\n      add\n        /* \"contracts/patientrecord.sol\":5177:5185  patients */\n      0x05\n        /* \"contracts/patientrecord.sol\":5177:5197  patients[_patientId] */\n      0x00\n        /* \"contracts/patientrecord.sol\":5186:5196  _patientId */\n      dup10\n        /* \"contracts/patientrecord.sol\":5177:5197  patients[_patientId] */\n      dup2\n      mstore\n      0x20\n      add\n      swap1\n      dup2\n      mstore\n      0x20\n      add\n      0x00\n      keccak256\n        /* \"contracts/patientrecord.sol\":5177:5206  patients[_patientId].diseases */\n      0x03\n      add\n        /* \"contracts/patientrecord.sol\":5043:5216  return(... */\n      dup2\n      dup1\n      sload\n      tag_158\n      swap1\n      tag_93\n      jump\t// in\n    tag_158:\n      dup1\n      0x1f\n      add\n      0x20\n      dup1\n      swap2\n      div\n      mul\n      0x20\n      add\n      mload(0x40)\n      swap1\n      dup2\n      add\n      0x40\n      mstore\n      dup1\n      swap3\n      swap2\n      swap1\n      dup2\n      dup2\n      mstore\n      0x20\n      add\n      dup3\n      dup1\n      sload\n      tag_159\n      swap1\n      tag_93\n      jump\t// in\n    tag_159:\n      dup1\n      iszero\n      tag_160\n      jumpi\n      dup1\n      0x1f\n      lt\n      tag_161\n      jumpi\n      0x0100\n      dup1\n      dup4\n      sload\n      div\n      mul\n      dup4\n      mstore\n      swap2\n      0x20\n      add\n      swap2\n      jump(tag_160)\n    tag_161:\n      dup3\n      add\n      swap2\n      swap1\n      0x00\n      mstore\n      keccak256(0x00, 0x20)\n      swap1\n    tag_162:\n      dup2\n      sload\n      dup2\n      mstore\n      swap1\n      0x01\n      add\n      swap1\n      0x20\n      add\n      dup1\n      dup4\n      gt\n      tag_162\n      jumpi\n      dup3\n      swap1\n      sub\n      0x1f\n      and\n      dup3\n      add\n      swap2\n    tag_160:\n      pop\n      pop\n      pop\n      pop\n      pop\n      swap2\n      pop\n      dup1\n      dup1\n      sload\n      dup1\n      0x20\n      mul\n      0x20\n      add\n      mload(0x40)\n      swap1\n      dup2\n      add\n      0x40\n      mstore\n      dup1\n      swap3\n      swap2\n      swap1\n      dup2\n      dup2\n      mstore\n      0x20\n      add\n      0x00\n      swap1\n    tag_163:\n      dup3\n      dup3\n      lt\n      iszero\n      tag_164\n      jumpi\n      dup4\n      dup3\n      swap1\n      0x00\n      mstore\n      keccak256(0x00, 0x20)\n      add\n      dup1\n      sload\n      tag_166\n      swap1\n      tag_93\n      jump\t// in\n    tag_166:\n      dup1\n      0x1f\n      add\n      0x20\n      dup1\n      swap2\n      div\n      mul\n      0x20\n      add\n      mload(0x40)\n      swap1\n      dup2\n      add\n      0x40\n      mstore\n      dup1\n      swap3\n      swap2\n      swap1\n      dup2\n      dup2\n      mstore\n      0x20\n      add\n      dup3\n      dup1\n      sload\n      tag_167\n      swap1\n      tag_93\n      jump\t// in\n    tag_167:\n      dup1\n      iszero\n      tag_168\n      jumpi\n      dup1\n      0x1f\n      lt\n      tag_169\n      jumpi\n      0x0100\n      dup1\n      dup4\n      sload\n      div\n      mul\n      dup4\n      mstore\n      swap2\n      0x20\n      add\n      swap2\n      jump(tag_168)\n    tag_169:\n      dup3\n      add\n      swap2\n      swap1\n      0x00\n      mstore\n      keccak256(0x00, 0x20)\n      swap1\n    tag_170:\n      dup2\n      sload\n      dup2\n      mstore\n      swap1\n      0x01\n      add\n      swap1\n      0x20\n      add\n      dup1\n      dup4\n      gt\n      tag_170\n      jumpi\n      dup3\n      swap1\n      sub\n      0x1f\n      and\n      dup3\n      add\n      swap2\n    tag_168:\n      pop\n      pop\n      pop\n      pop\n      pop\n      dup2\n      mstore\n      0x20\n      add\n      swap1\n      0x01\n      add\n      swap1\n      jump(tag_163)\n    tag_164:\n      pop\n      pop\n      pop\n      pop\n      swap1\n      pop\n      swap4\n      pop\n      swap4\n      pop\n      swap4\n      pop\n      swap4\n      pop\n        /* \"contracts/patientrecord.sol\":4819:5223  function viewPatientDatabyDoctor(uint256 _patientId) public view... */\n      swap2\n      swap4\n      pop\n      swap2\n      swap4\n      jump\t// out\n        /* \"#utility.yul\":7:82   */\n    tag_171:\n        /* \"#utility.yul\":40:46   */\n      0x00\n        /* \"#utility.yul\":73:75   */\n      0x40\n        /* \"#utility.yul\":67:76   */\n      mload\n        /* \"#utility.yul\":57:76   */\n      swap1\n      pop\n        /* \"#utility.yul\":7:82   */\n      swap1\n      jump\t// out\n        /* \"#utility.yul\":88:205   */\n    tag_172:\n        /* \"#utility.yul\":197:198   */\n      0x00\n        /* \"#utility.yul\":194:195   */\n      dup1\n        /* \"#utility.yul\":187:199   */\n      revert\n        /* \"#utility.yul\":211:328   */\n    tag_173:\n        /* \"#utility.yul\":320:321   */\n      0x00\n        /* \"#utility.yul\":317:318   */\n      dup1\n        /* \"#utility.yul\":310:322   */\n      revert\n        /* \"#utility.yul\":334:411   */\n    tag_174:\n        /* \"#utility.yul\":371:378   */\n      0x00\n        /* \"#utility.yul\":400:405   */\n      dup2\n        /* \"#utility.yul\":389:405   */\n      swap1\n      pop\n        /* \"#utility.yul\":334:411   */\n      swap2\n      swap1\n      pop\n      jump\t// out\n        /* \"#utility.yul\":417:539   */\n    tag_175:\n        /* \"#utility.yul\":490:514   */\n      tag_235\n        /* \"#utility.yul\":508:513   */\n      dup2\n        /* \"#utility.yul\":490:514   */\n      tag_174\n      jump\t// in\n    tag_235:\n        /* \"#utility.yul\":483:488   */\n      dup2\n        /* \"#utility.yul\":480:515   */\n      eq\n        /* \"#utility.yul\":470:533   */\n      tag_236\n      jumpi\n        /* \"#utility.yul\":529:530   */\n      0x00\n        /* \"#utility.yul\":526:527   */\n      dup1\n        /* \"#utility.yul\":519:531   */\n      revert\n        /* \"#utility.yul\":470:533   */\n    tag_236:\n        /* \"#utility.yul\":417:539   */\n      pop\n      jump\t// out\n        /* \"#utility.yul\":545:684   */\n    tag_176:\n        /* \"#utility.yul\":591:596   */\n      0x00\n        /* \"#utility.yul\":629:635   */\n      dup2\n        /* \"#utility.yul\":616:636   */\n      calldataload\n        /* \"#utility.yul\":607:636   */\n      swap1\n      pop\n        /* \"#utility.yul\":645:678   */\n      tag_238\n        /* \"#utility.yul\":672:677   */\n      dup2\n        /* \"#utility.yul\":645:678   */\n      tag_175\n      jump\t// in\n    tag_238:\n        /* \"#utility.yul\":545:684   */\n      swap3\n      swap2\n      pop\n      pop\n      jump\t// out\n        /* \"#utility.yul\":690:1164   */\n    tag_22:\n        /* \"#utility.yul\":758:764   */\n      0x00\n        /* \"#utility.yul\":766:772   */\n      dup1\n        /* \"#utility.yul\":815:817   */\n      0x40\n        /* \"#utility.yul\":803:812   */\n      dup4\n        /* \"#utility.yul\":794:801   */\n      dup6\n        /* \"#utility.yul\":790:813   */\n      sub\n        /* \"#utility.yul\":786:818   */\n      slt\n        /* \"#utility.yul\":783:902   */\n      iszero\n      tag_240\n      jumpi\n        /* \"#utility.yul\":821:900   */\n      tag_241\n      tag_172\n      jump\t// in\n    tag_241:\n        /* \"#utility.yul\":783:902   */\n    tag_240:\n        /* \"#utility.yul\":941:942   */\n      0x00\n        /* \"#utility.yul\":966:1019   */\n      tag_242\n        /* \"#utility.yul\":1011:1018   */\n      dup6\n        /* \"#utility.yul\":1002:1008   */\n      dup3\n        /* \"#utility.yul\":991:1000   */\n      dup7\n        /* \"#utility.yul\":987:1009   */\n      add\n        /* \"#utility.yul\":966:1019   */\n      tag_176\n      jump\t// in\n    tag_242:\n        /* \"#utility.yul\":956:1019   */\n      swap3\n      pop\n        /* \"#utility.yul\":912:1029   */\n      pop\n        /* \"#utility.yul\":1068:1070   */\n      0x20\n        /* \"#utility.yul\":1094:1147   */\n      tag_243\n        /* \"#utility.yul\":1139:1146   */\n      dup6\n        /* \"#utility.yul\":1130:1136   */\n      dup3\n        /* \"#utility.yul\":1119:1128   */\n      dup7\n        /* \"#utility.yul\":1115:1137   */\n      add\n        /* \"#utility.yul\":1094:1147   */\n      tag_176\n      jump\t// in\n    tag_243:\n        /* \"#utility.yul\":1084:1147   */\n      swap2\n      pop\n        /* \"#utility.yul\":1039:1157   */\n      pop\n        /* \"#utility.yul\":690:1164   */\n      swap3\n      pop\n      swap3\n      swap1\n      pop\n      jump\t// out\n        /* \"#utility.yul\":1170:1287   */\n    tag_177:\n        /* \"#utility.yul\":1279:1280   */\n      0x00\n        /* \"#utility.yul\":1276:1277   */\n      dup1\n        /* \"#utility.yul\":1269:1281   */\n      revert\n        /* \"#utility.yul\":1293:1410   */\n    tag_178:\n        /* \"#utility.yul\":1402:1403   */\n      0x00\n        /* \"#utility.yul\":1399:1400   */\n      dup1\n        /* \"#utility.yul\":1392:1404   */\n      revert\n        /* \"#utility.yul\":1416:1518   */\n    tag_179:\n        /* \"#utility.yul\":1457:1463   */\n      0x00\n        /* \"#utility.yul\":1508:1510   */\n      0x1f\n        /* \"#utility.yul\":1504:1511   */\n      not\n        /* \"#utility.yul\":1499:1501   */\n      0x1f\n        /* \"#utility.yul\":1492:1497   */\n      dup4\n        /* \"#utility.yul\":1488:1502   */\n      add\n        /* \"#utility.yul\":1484:1512   */\n      and\n        /* \"#utility.yul\":1474:1512   */\n      swap1\n      pop\n        /* \"#utility.yul\":1416:1518   */\n      swap2\n      swap1\n      pop\n      jump\t// out\n        /* \"#utility.yul\":1524:1704   */\n    tag_180:\n        /* \"#utility.yul\":1572:1649   */\n      0x4e487b7100000000000000000000000000000000000000000000000000000000\n        /* \"#utility.yul\":1569:1570   */\n      0x00\n        /* \"#utility.yul\":1562:1650   */\n      mstore\n        /* \"#utility.yul\":1669:1673   */\n      0x41\n        /* \"#utility.yul\":1666:1667   */\n      0x04\n        /* \"#utility.yul\":1659:1674   */\n      mstore\n        /* \"#utility.yul\":1693:1697   */\n      0x24\n        /* \"#utility.yul\":1690:1691   */\n      0x00\n        /* \"#utility.yul\":1683:1698   */\n      revert\n        /* \"#utility.yul\":1710:1991   */\n    tag_181:\n        /* \"#utility.yul\":1793:1820   */\n      tag_249\n        /* \"#utility.yul\":1815:1819   */\n      dup3\n        /* \"#utility.yul\":1793:1820   */\n      tag_179\n      jump\t// in\n    tag_249:\n        /* \"#utility.yul\":1785:1791   */\n      dup2\n        /* \"#utility.yul\":1781:1821   */\n      add\n        /* \"#utility.yul\":1923:1929   */\n      dup2\n        /* \"#utility.yul\":1911:1921   */\n      dup2\n        /* \"#utility.yul\":1908:1930   */\n      lt\n        /* \"#utility.yul\":1887:1905   */\n      0xffffffffffffffff\n        /* \"#utility.yul\":1875:1885   */\n      dup3\n        /* \"#utility.yul\":1872:1906   */\n      gt\n        /* \"#utility.yul\":1869:1931   */\n      or\n        /* \"#utility.yul\":1866:1954   */\n      iszero\n      tag_250\n      jumpi\n        /* \"#utility.yul\":1934:1952   */\n      tag_251\n      tag_180\n      jump\t// in\n    tag_251:\n        /* \"#utility.yul\":1866:1954   */\n    tag_250:\n        /* \"#utility.yul\":1974:1984   */\n      dup1\n        /* \"#utility.yul\":1970:1972   */\n      0x40\n        /* \"#utility.yul\":1963:1985   */\n      mstore\n        /* \"#utility.yul\":1753:1991   */\n      pop\n        /* \"#utility.yul\":1710:1991   */\n      pop\n      pop\n      jump\t// out\n        /* \"#utility.yul\":1997:2126   */\n    tag_182:\n        /* \"#utility.yul\":2031:2037   */\n      0x00\n        /* \"#utility.yul\":2058:2078   */\n      tag_253\n      tag_171\n      jump\t// in\n    tag_253:\n        /* \"#utility.yul\":2048:2078   */\n      swap1\n      pop\n        /* \"#utility.yul\":2087:2120   */\n      tag_254\n        /* \"#utility.yul\":2115:2119   */\n      dup3\n        /* \"#utility.yul\":2107:2113   */\n      dup3\n        /* \"#utility.yul\":2087:2120   */\n      tag_181\n      jump\t// in\n    tag_254:\n        /* \"#utility.yul\":1997:2126   */\n      swap2\n      swap1\n      pop\n      jump\t// out\n        /* \"#utility.yul\":2132:2440   */\n    tag_183:\n        /* \"#utility.yul\":2194:2198   */\n      0x00\n        /* \"#utility.yul\":2284:2302   */\n      0xffffffffffffffff\n        /* \"#utility.yul\":2276:2282   */\n      dup3\n        /* \"#utility.yul\":2273:2303   */\n      gt\n        /* \"#utility.yul\":2270:2326   */\n      iszero\n      tag_256\n      jumpi\n        /* \"#utility.yul\":2306:2324   */\n      tag_257\n      tag_180\n      jump\t// in\n    tag_257:\n        /* \"#utility.yul\":2270:2326   */\n    tag_256:\n        /* \"#utility.yul\":2344:2373   */\n      tag_258\n        /* \"#utility.yul\":2366:2372   */\n      dup3\n        /* \"#utility.yul\":2344:2373   */\n      tag_179\n      jump\t// in\n    tag_258:\n        /* \"#utility.yul\":2336:2373   */\n      swap1\n      pop\n        /* \"#utility.yul\":2428:2432   */\n      0x20\n        /* \"#utility.yul\":2422:2426   */\n      dup2\n        /* \"#utility.yul\":2418:2433   */\n      add\n        /* \"#utility.yul\":2410:2433   */\n      swap1\n      pop\n        /* \"#utility.yul\":2132:2440   */\n      swap2\n      swap1\n      pop\n      jump\t// out\n        /* \"#utility.yul\":2446:2592   */\n    tag_184:\n        /* \"#utility.yul\":2543:2549   */\n      dup3\n        /* \"#utility.yul\":2538:2541   */\n      dup2\n        /* \"#utility.yul\":2533:2536   */\n      dup4\n        /* \"#utility.yul\":2520:2550   */\n      calldatacopy\n        /* \"#utility.yul\":2584:2585   */\n      0x00\n        /* \"#utility.yul\":2575:2581   */\n      dup4\n        /* \"#utility.yul\":2570:2573   */\n      dup4\n        /* \"#utility.yul\":2566:2582   */\n      add\n        /* \"#utility.yul\":2559:2586   */\n      mstore\n        /* \"#utility.yul\":2446:2592   */\n      pop\n      pop\n      pop\n      jump\t// out\n        /* \"#utility.yul\":2598:3023   */\n    tag_185:\n        /* \"#utility.yul\":2676:2681   */\n      0x00\n        /* \"#utility.yul\":2701:2767   */\n      tag_261\n        /* \"#utility.yul\":2717:2766   */\n      tag_262\n        /* \"#utility.yul\":2759:2765   */\n      dup5\n        /* \"#utility.yul\":2717:2766   */\n      tag_183\n      jump\t// in\n    tag_262:\n        /* \"#utility.yul\":2701:2767   */\n      tag_182\n      jump\t// in\n    tag_261:\n        /* \"#utility.yul\":2692:2767   */\n      swap1\n      pop\n        /* \"#utility.yul\":2790:2796   */\n      dup3\n        /* \"#utility.yul\":2783:2788   */\n      dup2\n        /* \"#utility.yul\":2776:2797   */\n      mstore\n        /* \"#utility.yul\":2828:2832   */\n      0x20\n        /* \"#utility.yul\":2821:2826   */\n      dup2\n        /* \"#utility.yul\":2817:2833   */\n      add\n        /* \"#utility.yul\":2866:2869   */\n      dup5\n        /* \"#utility.yul\":2857:2863   */\n      dup5\n        /* \"#utility.yul\":2852:2855   */\n      dup5\n        /* \"#utility.yul\":2848:2864   */\n      add\n        /* \"#utility.yul\":2845:2870   */\n      gt\n        /* \"#utility.yul\":2842:2954   */\n      iszero\n      tag_263\n      jumpi\n        /* \"#utility.yul\":2873:2952   */\n      tag_264\n      tag_178\n      jump\t// in\n    tag_264:\n        /* \"#utility.yul\":2842:2954   */\n    tag_263:\n        /* \"#utility.yul\":2963:3017   */\n      tag_265\n        /* \"#utility.yul\":3010:3016   */\n      dup5\n        /* \"#utility.yul\":3005:3008   */\n      dup3\n        /* \"#utility.yul\":3000:3003   */\n      dup6\n        /* \"#utility.yul\":2963:3017   */\n      tag_184\n      jump\t// in\n    tag_265:\n        /* \"#utility.yul\":2682:3023   */\n      pop\n        /* \"#utility.yul\":2598:3023   */\n      swap4\n      swap3\n      pop\n      pop\n      pop\n      jump\t// out\n        /* \"#utility.yul\":3043:3383   */\n    tag_186:\n        /* \"#utility.yul\":3099:3104   */\n      0x00\n        /* \"#utility.yul\":3148:3151   */\n      dup3\n        /* \"#utility.yul\":3141:3145   */\n      0x1f\n        /* \"#utility.yul\":3133:3139   */\n      dup4\n        /* \"#utility.yul\":3129:3146   */\n      add\n        /* \"#utility.yul\":3125:3152   */\n      slt\n        /* \"#utility.yul\":3115:3237   */\n      tag_267\n      jumpi\n        /* \"#utility.yul\":3156:3235   */\n      tag_268\n      tag_177\n      jump\t// in\n    tag_268:\n        /* \"#utility.yul\":3115:3237   */\n    tag_267:\n        /* \"#utility.yul\":3273:3279   */\n      dup2\n        /* \"#utility.yul\":3260:3280   */\n      calldataload\n        /* \"#utility.yul\":3298:3377   */\n      tag_269\n        /* \"#utility.yul\":3373:3376   */\n      dup5\n        /* \"#utility.yul\":3365:3371   */\n      dup3\n        /* \"#utility.yul\":3358:3362   */\n      0x20\n        /* \"#utility.yul\":3350:3356   */\n      dup7\n        /* \"#utility.yul\":3346:3363   */\n      add\n        /* \"#utility.yul\":3298:3377   */\n      tag_185\n      jump\t// in\n    tag_269:\n        /* \"#utility.yul\":3289:3377   */\n      swap2\n      pop\n        /* \"#utility.yul\":3105:3383   */\n      pop\n        /* \"#utility.yul\":3043:3383   */\n      swap3\n      swap2\n      pop\n      pop\n      jump\t// out\n        /* \"#utility.yul\":3389:3515   */\n    tag_187:\n        /* \"#utility.yul\":3426:3433   */\n      0x00\n        /* \"#utility.yul\":3466:3508   */\n      0xffffffffffffffffffffffffffffffffffffffff\n        /* \"#utility.yul\":3459:3464   */\n      dup3\n        /* \"#utility.yul\":3455:3509   */\n      and\n        /* \"#utility.yul\":3444:3509   */\n      swap1\n      pop\n        /* \"#utility.yul\":3389:3515   */\n      swap2\n      swap1\n      pop\n      jump\t// out\n        /* \"#utility.yul\":3521:3617   */\n    tag_188:\n        /* \"#utility.yul\":3558:3565   */\n      0x00\n        /* \"#utility.yul\":3587:3611   */\n      tag_272\n        /* \"#utility.yul\":3605:3610   */\n      dup3\n        /* \"#utility.yul\":3587:3611   */\n      tag_187\n      jump\t// in\n    tag_272:\n        /* \"#utility.yul\":3576:3611   */\n      swap1\n      pop\n        /* \"#utility.yul\":3521:3617   */\n      swap2\n      swap1\n      pop\n      jump\t// out\n        /* \"#utility.yul\":3623:3745   */\n    tag_189:\n        /* \"#utility.yul\":3696:3720   */\n      tag_274\n        /* \"#utility.yul\":3714:3719   */\n      dup2\n        /* \"#utility.yul\":3696:3720   */\n      tag_188\n      jump\t// in\n    tag_274:\n        /* \"#utility.yul\":3689:3694   */\n      dup2\n        /* \"#utility.yul\":3686:3721   */\n      eq\n        /* \"#utility.yul\":3676:3739   */\n      tag_275\n      jumpi\n        /* \"#utility.yul\":3735:3736   */\n      0x00\n        /* \"#utility.yul\":3732:3733   */\n      dup1\n        /* \"#utility.yul\":3725:3737   */\n      revert\n        /* \"#utility.yul\":3676:3739   */\n    tag_275:\n        /* \"#utility.yul\":3623:3745   */\n      pop\n      jump\t// out\n        /* \"#utility.yul\":3751:3890   */\n    tag_190:\n        /* \"#utility.yul\":3797:3802   */\n      0x00\n        /* \"#utility.yul\":3835:3841   */\n      dup2\n        /* \"#utility.yul\":3822:3842   */\n      calldataload\n        /* \"#utility.yul\":3813:3842   */\n      swap1\n      pop\n        /* \"#utility.yul\":3851:3884   */\n      tag_277\n        /* \"#utility.yul\":3878:3883   */\n      dup2\n        /* \"#utility.yul\":3851:3884   */\n      tag_189\n      jump\t// in\n    tag_277:\n        /* \"#utility.yul\":3751:3890   */\n      swap3\n      swap2\n      pop\n      pop\n      jump\t// out\n        /* \"#utility.yul\":3896:4695   */\n    tag_26:\n        /* \"#utility.yul\":3983:3989   */\n      0x00\n        /* \"#utility.yul\":3991:3997   */\n      dup1\n        /* \"#utility.yul\":3999:4005   */\n      0x00\n        /* \"#utility.yul\":4048:4050   */\n      0x60\n        /* \"#utility.yul\":4036:4045   */\n      dup5\n        /* \"#utility.yul\":4027:4034   */\n      dup7\n        /* \"#utility.yul\":4023:4046   */\n      sub\n        /* \"#utility.yul\":4019:4051   */\n      slt\n        /* \"#utility.yul\":4016:4135   */\n      iszero\n      tag_279\n      jumpi\n        /* \"#utility.yul\":4054:4133   */\n      tag_280\n      tag_172\n      jump\t// in\n    tag_280:\n        /* \"#utility.yul\":4016:4135   */\n    tag_279:\n        /* \"#utility.yul\":4202:4203   */\n      0x00\n        /* \"#utility.yul\":4191:4200   */\n      dup5\n        /* \"#utility.yul\":4187:4204   */\n      add\n        /* \"#utility.yul\":4174:4205   */\n      calldataload\n        /* \"#utility.yul\":4232:4250   */\n      0xffffffffffffffff\n        /* \"#utility.yul\":4224:4230   */\n      dup2\n        /* \"#utility.yul\":4221:4251   */\n      gt\n        /* \"#utility.yul\":4218:4335   */\n      iszero\n      tag_281\n      jumpi\n        /* \"#utility.yul\":4254:4333   */\n      tag_282\n      tag_173\n      jump\t// in\n    tag_282:\n        /* \"#utility.yul\":4218:4335   */\n    tag_281:\n        /* \"#utility.yul\":4359:4422   */\n      tag_283\n        /* \"#utility.yul\":4414:4421   */\n      dup7\n        /* \"#utility.yul\":4405:4411   */\n      dup3\n        /* \"#utility.yul\":4394:4403   */\n      dup8\n        /* \"#utility.yul\":4390:4412   */\n      add\n        /* \"#utility.yul\":4359:4422   */\n      tag_186\n      jump\t// in\n    tag_283:\n        /* \"#utility.yul\":4349:4422   */\n      swap4\n      pop\n        /* \"#utility.yul\":4145:4432   */\n      pop\n        /* \"#utility.yul\":4471:4473   */\n      0x20\n        /* \"#utility.yul\":4497:4550   */\n      tag_284\n        /* \"#utility.yul\":4542:4549   */\n      dup7\n        /* \"#utility.yul\":4533:4539   */\n      dup3\n        /* \"#utility.yul\":4522:4531   */\n      dup8\n        /* \"#utility.yul\":4518:4540   */\n      add\n        /* \"#utility.yul\":4497:4550   */\n      tag_176\n      jump\t// in\n    tag_284:\n        /* \"#utility.yul\":4487:4550   */\n      swap3\n      pop\n        /* \"#utility.yul\":4442:4560   */\n      pop\n        /* \"#utility.yul\":4599:4601   */\n      0x40\n        /* \"#utility.yul\":4625:4678   */\n      tag_285\n        /* \"#utility.yul\":4670:4677   */\n      dup7\n        /* \"#utility.yul\":4661:4667   */\n      dup3\n        /* \"#utility.yul\":4650:4659   */\n      dup8\n        /* \"#utility.yul\":4646:4668   */\n      add\n        /* \"#utility.yul\":4625:4678   */\n      tag_190\n      jump\t// in\n    tag_285:\n        /* \"#utility.yul\":4615:4678   */\n      swap2\n      pop\n        /* \"#utility.yul\":4570:4688   */\n      pop\n        /* \"#utility.yul\":3896:4695   */\n      swap3\n      pop\n      swap3\n      pop\n      swap3\n      jump\t// out\n        /* \"#utility.yul\":4701:5355   */\n    tag_30:\n        /* \"#utility.yul\":4779:4785   */\n      0x00\n        /* \"#utility.yul\":4787:4793   */\n      dup1\n        /* \"#utility.yul\":4836:4838   */\n      0x40\n        /* \"#utility.yul\":4824:4833   */\n      dup4\n        /* \"#utility.yul\":4815:4822   */\n      dup6\n        /* \"#utility.yul\":4811:4834   */\n      sub\n        /* \"#utility.yul\":4807:4839   */\n      slt\n        /* \"#utility.yul\":4804:4923   */\n      iszero\n      tag_287\n      jumpi\n        /* \"#utility.yul\":4842:4921   */\n      tag_288\n      tag_172\n      jump\t// in\n    tag_288:\n        /* \"#utility.yul\":4804:4923   */\n    tag_287:\n        /* \"#utility.yul\":4962:4963   */\n      0x00\n        /* \"#utility.yul\":4987:5040   */\n      tag_289\n        /* \"#utility.yul\":5032:5039   */\n      dup6\n        /* \"#utility.yul\":5023:5029   */\n      dup3\n        /* \"#utility.yul\":5012:5021   */\n      dup7\n        /* \"#utility.yul\":5008:5030   */\n      add\n        /* \"#utility.yul\":4987:5040   */\n      tag_176\n      jump\t// in\n    tag_289:\n        /* \"#utility.yul\":4977:5040   */\n      swap3\n      pop\n        /* \"#utility.yul\":4933:5050   */\n      pop\n        /* \"#utility.yul\":5117:5119   */\n      0x20\n        /* \"#utility.yul\":5106:5115   */\n      dup4\n        /* \"#utility.yul\":5102:5120   */\n      add\n        /* \"#utility.yul\":5089:5121   */\n      calldataload\n        /* \"#utility.yul\":5148:5166   */\n      0xffffffffffffffff\n        /* \"#utility.yul\":5140:5146   */\n      dup2\n        /* \"#utility.yul\":5137:5167   */\n      gt\n        /* \"#utility.yul\":5134:5251   */\n      iszero\n      tag_290\n      jumpi\n        /* \"#utility.yul\":5170:5249   */\n      tag_291\n      tag_173\n      jump\t// in\n    tag_291:\n        /* \"#utility.yul\":5134:5251   */\n    tag_290:\n        /* \"#utility.yul\":5275:5338   */\n      tag_292\n        /* \"#utility.yul\":5330:5337   */\n      dup6\n        /* \"#utility.yul\":5321:5327   */\n      dup3\n        /* \"#utility.yul\":5310:5319   */\n      dup7\n        /* \"#utility.yul\":5306:5328   */\n      add\n        /* \"#utility.yul\":5275:5338   */\n      tag_186\n      jump\t// in\n    tag_292:\n        /* \"#utility.yul\":5265:5338   */\n      swap2\n      pop\n        /* \"#utility.yul\":5060:5348   */\n      pop\n        /* \"#utility.yul\":4701:5355   */\n      swap3\n      pop\n      swap3\n      swap1\n      pop\n      jump\t// out\n        /* \"#utility.yul\":5361:5690   */\n    tag_34:\n        /* \"#utility.yul\":5420:5426   */\n      0x00\n        /* \"#utility.yul\":5469:5471   */\n      0x20\n        /* \"#utility.yul\":5457:5466   */\n      dup3\n        /* \"#utility.yul\":5448:5455   */\n      dup5\n        /* \"#utility.yul\":5444:5467   */\n      sub\n        /* \"#utility.yul\":5440:5472   */\n      slt\n        /* \"#utility.yul\":5437:5556   */\n      iszero\n      tag_294\n      jumpi\n        /* \"#utility.yul\":5475:5554   */\n      tag_295\n      tag_172\n      jump\t// in\n    tag_295:\n        /* \"#utility.yul\":5437:5556   */\n    tag_294:\n        /* \"#utility.yul\":5595:5596   */\n      0x00\n        /* \"#utility.yul\":5620:5673   */\n      tag_296\n        /* \"#utility.yul\":5665:5672   */\n      dup5\n        /* \"#utility.yul\":5656:5662   */\n      dup3\n        /* \"#utility.yul\":5645:5654   */\n      dup6\n        /* \"#utility.yul\":5641:5663   */\n      add\n        /* \"#utility.yul\":5620:5673   */\n      tag_176\n      jump\t// in\n    tag_296:\n        /* \"#utility.yul\":5610:5673   */\n      swap2\n      pop\n        /* \"#utility.yul\":5566:5683   */\n      pop\n        /* \"#utility.yul\":5361:5690   */\n      swap3\n      swap2\n      pop\n      pop\n      jump\t// out\n        /* \"#utility.yul\":5696:5814   */\n    tag_191:\n        /* \"#utility.yul\":5783:5807   */\n      tag_298\n        /* \"#utility.yul\":5801:5806   */\n      dup2\n        /* \"#utility.yul\":5783:5807   */\n      tag_174\n      jump\t// in\n    tag_298:\n        /* \"#utility.yul\":5778:5781   */\n      dup3\n        /* \"#utility.yul\":5771:5808   */\n      mstore\n        /* \"#utility.yul\":5696:5814   */\n      pop\n      pop\n      jump\t// out\n        /* \"#utility.yul\":5820:5919   */\n    tag_192:\n        /* \"#utility.yul\":5872:5878   */\n      0x00\n        /* \"#utility.yul\":5906:5911   */\n      dup2\n        /* \"#utility.yul\":5900:5912   */\n      mload\n        /* \"#utility.yul\":5890:5912   */\n      swap1\n      pop\n        /* \"#utility.yul\":5820:5919   */\n      swap2\n      swap1\n      pop\n      jump\t// out\n        /* \"#utility.yul\":5925:6094   */\n    tag_193:\n        /* \"#utility.yul\":6009:6020   */\n      0x00\n        /* \"#utility.yul\":6043:6049   */\n      dup3\n        /* \"#utility.yul\":6038:6041   */\n      dup3\n        /* \"#utility.yul\":6031:6050   */\n      mstore\n        /* \"#utility.yul\":6083:6087   */\n      0x20\n        /* \"#utility.yul\":6078:6081   */\n      dup3\n        /* \"#utility.yul\":6074:6088   */\n      add\n        /* \"#utility.yul\":6059:6088   */\n      swap1\n      pop\n        /* \"#utility.yul\":5925:6094   */\n      swap3\n      swap2\n      pop\n      pop\n      jump\t// out\n        /* \"#utility.yul\":6100:6346   */\n    tag_194:\n        /* \"#utility.yul\":6181:6182   */\n      0x00\n        /* \"#utility.yul\":6191:6304   */\n    tag_302:\n        /* \"#utility.yul\":6205:6211   */\n      dup4\n        /* \"#utility.yul\":6202:6203   */\n      dup2\n        /* \"#utility.yul\":6199:6212   */\n      lt\n        /* \"#utility.yul\":6191:6304   */\n      iszero\n      tag_304\n      jumpi\n        /* \"#utility.yul\":6290:6291   */\n      dup1\n        /* \"#utility.yul\":6285:6288   */\n      dup3\n        /* \"#utility.yul\":6281:6292   */\n      add\n        /* \"#utility.yul\":6275:6293   */\n      mload\n        /* \"#utility.yul\":6271:6272   */\n      dup2\n        /* \"#utility.yul\":6266:6269   */\n      dup5\n        /* \"#utility.yul\":6262:6273   */\n      add\n        /* \"#utility.yul\":6255:6294   */\n      mstore\n        /* \"#utility.yul\":6227:6229   */\n      0x20\n        /* \"#utility.yul\":6224:6225   */\n      dup2\n        /* \"#utility.yul\":6220:6230   */\n      add\n        /* \"#utility.yul\":6215:6230   */\n      swap1\n      pop\n        /* \"#utility.yul\":6191:6304   */\n      jump(tag_302)\n    tag_304:\n        /* \"#utility.yul\":6338:6339   */\n      0x00\n        /* \"#utility.yul\":6329:6335   */\n      dup5\n        /* \"#utility.yul\":6324:6327   */\n      dup5\n        /* \"#utility.yul\":6320:6336   */\n      add\n        /* \"#utility.yul\":6313:6340   */\n      mstore\n        /* \"#utility.yul\":6162:6346   */\n      pop\n        /* \"#utility.yul\":6100:6346   */\n      pop\n      pop\n      pop\n      jump\t// out\n        /* \"#utility.yul\":6352:6729   */\n    tag_195:\n        /* \"#utility.yul\":6440:6443   */\n      0x00\n        /* \"#utility.yul\":6468:6507   */\n      tag_306\n        /* \"#utility.yul\":6501:6506   */\n      dup3\n        /* \"#utility.yul\":6468:6507   */\n      tag_192\n      jump\t// in\n    tag_306:\n        /* \"#utility.yul\":6523:6594   */\n      tag_307\n        /* \"#utility.yul\":6587:6593   */\n      dup2\n        /* \"#utility.yul\":6582:6585   */\n      dup6\n        /* \"#utility.yul\":6523:6594   */\n      tag_193\n      jump\t// in\n    tag_307:\n        /* \"#utility.yul\":6516:6594   */\n      swap4\n      pop\n        /* \"#utility.yul\":6603:6668   */\n      tag_308\n        /* \"#utility.yul\":6661:6667   */\n      dup2\n        /* \"#utility.yul\":6656:6659   */\n      dup6\n        /* \"#utility.yul\":6649:6653   */\n      0x20\n        /* \"#utility.yul\":6642:6647   */\n      dup7\n        /* \"#utility.yul\":6638:6654   */\n      add\n        /* \"#utility.yul\":6603:6668   */\n      tag_194\n      jump\t// in\n    tag_308:\n        /* \"#utility.yul\":6693:6722   */\n      tag_309\n        /* \"#utility.yul\":6715:6721   */\n      dup2\n        /* \"#utility.yul\":6693:6722   */\n      tag_179\n      jump\t// in\n    tag_309:\n        /* \"#utility.yul\":6688:6691   */\n      dup5\n        /* \"#utility.yul\":6684:6723   */\n      add\n        /* \"#utility.yul\":6677:6723   */\n      swap2\n      pop\n        /* \"#utility.yul\":6444:6729   */\n      pop\n        /* \"#utility.yul\":6352:6729   */\n      swap3\n      swap2\n      pop\n      pop\n      jump\t// out\n        /* \"#utility.yul\":6735:6859   */\n    tag_196:\n        /* \"#utility.yul\":6812:6818   */\n      0x00\n        /* \"#utility.yul\":6846:6851   */\n      dup2\n        /* \"#utility.yul\":6840:6852   */\n      mload\n        /* \"#utility.yul\":6830:6852   */\n      swap1\n      pop\n        /* \"#utility.yul\":6735:6859   */\n      swap2\n      swap1\n      pop\n      jump\t// out\n        /* \"#utility.yul\":6865:7059   */\n    tag_197:\n        /* \"#utility.yul\":6974:6985   */\n      0x00\n        /* \"#utility.yul\":7008:7014   */\n      dup3\n        /* \"#utility.yul\":7003:7006   */\n      dup3\n        /* \"#utility.yul\":6996:7015   */\n      mstore\n        /* \"#utility.yul\":7048:7052   */\n      0x20\n        /* \"#utility.yul\":7043:7046   */\n      dup3\n        /* \"#utility.yul\":7039:7053   */\n      add\n        /* \"#utility.yul\":7024:7053   */\n      swap1\n      pop\n        /* \"#utility.yul\":6865:7059   */\n      swap3\n      swap2\n      pop\n      pop\n      jump\t// out\n        /* \"#utility.yul\":7065:7207   */\n    tag_198:\n        /* \"#utility.yul\":7142:7146   */\n      0x00\n        /* \"#utility.yul\":7165:7168   */\n      dup2\n        /* \"#utility.yul\":7157:7168   */\n      swap1\n      pop\n        /* \"#utility.yul\":7195:7199   */\n      0x20\n        /* \"#utility.yul\":7190:7193   */\n      dup3\n        /* \"#utility.yul\":7186:7200   */\n      add\n        /* \"#utility.yul\":7178:7200   */\n      swap1\n      pop\n        /* \"#utility.yul\":7065:7207   */\n      swap2\n      swap1\n      pop\n      jump\t// out\n        /* \"#utility.yul\":7213:7372   */\n    tag_199:\n        /* \"#utility.yul\":7287:7298   */\n      0x00\n        /* \"#utility.yul\":7321:7327   */\n      dup3\n        /* \"#utility.yul\":7316:7319   */\n      dup3\n        /* \"#utility.yul\":7309:7328   */\n      mstore\n        /* \"#utility.yul\":7361:7365   */\n      0x20\n        /* \"#utility.yul\":7356:7359   */\n      dup3\n        /* \"#utility.yul\":7352:7366   */\n      add\n        /* \"#utility.yul\":7337:7366   */\n      swap1\n      pop\n        /* \"#utility.yul\":7213:7372   */\n      swap3\n      swap2\n      pop\n      pop\n      jump\t// out\n        /* \"#utility.yul\":7378:7735   */\n    tag_200:\n        /* \"#utility.yul\":7456:7459   */\n      0x00\n        /* \"#utility.yul\":7484:7523   */\n      tag_315\n        /* \"#utility.yul\":7517:7522   */\n      dup3\n        /* \"#utility.yul\":7484:7523   */\n      tag_192\n      jump\t// in\n    tag_315:\n        /* \"#utility.yul\":7539:7600   */\n      tag_316\n        /* \"#utility.yul\":7593:7599   */\n      dup2\n        /* \"#utility.yul\":7588:7591   */\n      dup6\n        /* \"#utility.yul\":7539:7600   */\n      tag_199\n      jump\t// in\n    tag_316:\n        /* \"#utility.yul\":7532:7600   */\n      swap4\n      pop\n        /* \"#utility.yul\":7609:7674   */\n      tag_317\n        /* \"#utility.yul\":7667:7673   */\n      dup2\n        /* \"#utility.yul\":7662:7665   */\n      dup6\n        /* \"#utility.yul\":7655:7659   */\n      0x20\n        /* \"#utility.yul\":7648:7653   */\n      dup7\n        /* \"#utility.yul\":7644:7660   */\n      add\n        /* \"#utility.yul\":7609:7674   */\n      tag_194\n      jump\t// in\n    tag_317:\n        /* \"#utility.yul\":7699:7728   */\n      tag_318\n        /* \"#utility.yul\":7721:7727   */\n      dup2\n        /* \"#utility.yul\":7699:7728   */\n      tag_179\n      jump\t// in\n    tag_318:\n        /* \"#utility.yul\":7694:7697   */\n      dup5\n        /* \"#utility.yul\":7690:7729   */\n      add\n        /* \"#utility.yul\":7683:7729   */\n      swap2\n      pop\n        /* \"#utility.yul\":7460:7735   */\n      pop\n        /* \"#utility.yul\":7378:7735   */\n      swap3\n      swap2\n      pop\n      pop\n      jump\t// out\n        /* \"#utility.yul\":7741:7937   */\n    tag_201:\n        /* \"#utility.yul\":7830:7840   */\n      0x00\n        /* \"#utility.yul\":7865:7931   */\n      tag_320\n        /* \"#utility.yul\":7927:7930   */\n      dup4\n        /* \"#utility.yul\":7919:7925   */\n      dup4\n        /* \"#utility.yul\":7865:7931   */\n      tag_200\n      jump\t// in\n    tag_320:\n        /* \"#utility.yul\":7851:7931   */\n      swap1\n      pop\n        /* \"#utility.yul\":7741:7937   */\n      swap3\n      swap2\n      pop\n      pop\n      jump\t// out\n        /* \"#utility.yul\":7943:8066   */\n    tag_202:\n        /* \"#utility.yul\":8023:8027   */\n      0x00\n        /* \"#utility.yul\":8055:8059   */\n      0x20\n        /* \"#utility.yul\":8050:8053   */\n      dup3\n        /* \"#utility.yul\":8046:8060   */\n      add\n        /* \"#utility.yul\":8038:8060   */\n      swap1\n      pop\n        /* \"#utility.yul\":7943:8066   */\n      swap2\n      swap1\n      pop\n      jump\t// out\n        /* \"#utility.yul\":8100:9091   */\n    tag_203:\n        /* \"#utility.yul\":8239:8242   */\n      0x00\n        /* \"#utility.yul\":8268:8332   */\n      tag_323\n        /* \"#utility.yul\":8326:8331   */\n      dup3\n        /* \"#utility.yul\":8268:8332   */\n      tag_196\n      jump\t// in\n    tag_323:\n        /* \"#utility.yul\":8348:8444   */\n      tag_324\n        /* \"#utility.yul\":8437:8443   */\n      dup2\n        /* \"#utility.yul\":8432:8435   */\n      dup6\n        /* \"#utility.yul\":8348:8444   */\n      tag_197\n      jump\t// in\n    tag_324:\n        /* \"#utility.yul\":8341:8444   */\n      swap4\n      pop\n        /* \"#utility.yul\":8470:8473   */\n      dup4\n        /* \"#utility.yul\":8515:8519   */\n      0x20\n        /* \"#utility.yul\":8507:8513   */\n      dup3\n        /* \"#utility.yul\":8503:8520   */\n      mul\n        /* \"#utility.yul\":8498:8501   */\n      dup6\n        /* \"#utility.yul\":8494:8521   */\n      add\n        /* \"#utility.yul\":8545:8611   */\n      tag_325\n        /* \"#utility.yul\":8605:8610   */\n      dup6\n        /* \"#utility.yul\":8545:8611   */\n      tag_198\n      jump\t// in\n    tag_325:\n        /* \"#utility.yul\":8634:8641   */\n      dup1\n        /* \"#utility.yul\":8665:8666   */\n      0x00\n        /* \"#utility.yul\":8650:9046   */\n    tag_326:\n        /* \"#utility.yul\":8675:8681   */\n      dup6\n        /* \"#utility.yul\":8672:8673   */\n      dup2\n        /* \"#utility.yul\":8669:8682   */\n      lt\n        /* \"#utility.yul\":8650:9046   */\n      iszero\n      tag_328\n      jumpi\n        /* \"#utility.yul\":8746:8755   */\n      dup5\n        /* \"#utility.yul\":8740:8744   */\n      dup5\n        /* \"#utility.yul\":8736:8756   */\n      sub\n        /* \"#utility.yul\":8731:8734   */\n      dup10\n        /* \"#utility.yul\":8724:8757   */\n      mstore\n        /* \"#utility.yul\":8797:8803   */\n      dup2\n        /* \"#utility.yul\":8791:8804   */\n      mload\n        /* \"#utility.yul\":8825:8909   */\n      tag_329\n        /* \"#utility.yul\":8904:8908   */\n      dup6\n        /* \"#utility.yul\":8889:8902   */\n      dup3\n        /* \"#utility.yul\":8825:8909   */\n      tag_201\n      jump\t// in\n    tag_329:\n        /* \"#utility.yul\":8817:8909   */\n      swap5\n      pop\n        /* \"#utility.yul\":8932:9002   */\n      tag_330\n        /* \"#utility.yul\":8995:9001   */\n      dup4\n        /* \"#utility.yul\":8932:9002   */\n      tag_202\n      jump\t// in\n    tag_330:\n        /* \"#utility.yul\":8922:9002   */\n      swap3\n      pop\n        /* \"#utility.yul\":9031:9035   */\n      0x20\n        /* \"#utility.yul\":9026:9029   */\n      dup11\n        /* \"#utility.yul\":9022:9036   */\n      add\n        /* \"#utility.yul\":9015:9036   */\n      swap10\n      pop\n        /* \"#utility.yul\":8710:9046   */\n      pop\n        /* \"#utility.yul\":8697:8698   */\n      0x01\n        /* \"#utility.yul\":8694:8695   */\n      dup2\n        /* \"#utility.yul\":8690:8699   */\n      add\n        /* \"#utility.yul\":8685:8699   */\n      swap1\n      pop\n        /* \"#utility.yul\":8650:9046   */\n      jump(tag_326)\n    tag_328:\n        /* \"#utility.yul\":8654:8668   */\n      pop\n        /* \"#utility.yul\":9062:9066   */\n      dup3\n        /* \"#utility.yul\":9055:9066   */\n      swap8\n      pop\n        /* \"#utility.yul\":9082:9085   */\n      dup8\n        /* \"#utility.yul\":9075:9085   */\n      swap6\n      pop\n        /* \"#utility.yul\":8244:9091   */\n      pop\n      pop\n      pop\n      pop\n      pop\n        /* \"#utility.yul\":8100:9091   */\n      swap3\n      swap2\n      pop\n      pop\n      jump\t// out\n        /* \"#utility.yul\":9097:9932   */\n    tag_37:\n        /* \"#utility.yul\":9364:9368   */\n      0x00\n        /* \"#utility.yul\":9402:9405   */\n      0x80\n        /* \"#utility.yul\":9391:9400   */\n      dup3\n        /* \"#utility.yul\":9387:9406   */\n      add\n        /* \"#utility.yul\":9379:9406   */\n      swap1\n      pop\n        /* \"#utility.yul\":9416:9487   */\n      tag_332\n        /* \"#utility.yul\":9484:9485   */\n      0x00\n        /* \"#utility.yul\":9473:9482   */\n      dup4\n        /* \"#utility.yul\":9469:9486   */\n      add\n        /* \"#utility.yul\":9460:9466   */\n      dup8\n        /* \"#utility.yul\":9416:9487   */\n      tag_191\n      jump\t// in\n    tag_332:\n        /* \"#utility.yul\":9497:9569   */\n      tag_333\n        /* \"#utility.yul\":9565:9567   */\n      0x20\n        /* \"#utility.yul\":9554:9563   */\n      dup4\n        /* \"#utility.yul\":9550:9568   */\n      add\n        /* \"#utility.yul\":9541:9547   */\n      dup7\n        /* \"#utility.yul\":9497:9569   */\n      tag_191\n      jump\t// in\n    tag_333:\n        /* \"#utility.yul\":9616:9625   */\n      dup2\n        /* \"#utility.yul\":9610:9614   */\n      dup2\n        /* \"#utility.yul\":9606:9626   */\n      sub\n        /* \"#utility.yul\":9601:9603   */\n      0x40\n        /* \"#utility.yul\":9590:9599   */\n      dup4\n        /* \"#utility.yul\":9586:9604   */\n      add\n        /* \"#utility.yul\":9579:9627   */\n      mstore\n        /* \"#utility.yul\":9644:9722   */\n      tag_334\n        /* \"#utility.yul\":9717:9721   */\n      dup2\n        /* \"#utility.yul\":9708:9714   */\n      dup6\n        /* \"#utility.yul\":9644:9722   */\n      tag_195\n      jump\t// in\n    tag_334:\n        /* \"#utility.yul\":9636:9722   */\n      swap1\n      pop\n        /* \"#utility.yul\":9769:9778   */\n      dup2\n        /* \"#utility.yul\":9763:9767   */\n      dup2\n        /* \"#utility.yul\":9759:9779   */\n      sub\n        /* \"#utility.yul\":9754:9756   */\n      0x60\n        /* \"#utility.yul\":9743:9752   */\n      dup4\n        /* \"#utility.yul\":9739:9757   */\n      add\n        /* \"#utility.yul\":9732:9780   */\n      mstore\n        /* \"#utility.yul\":9797:9925   */\n      tag_335\n        /* \"#utility.yul\":9920:9924   */\n      dup2\n        /* \"#utility.yul\":9911:9917   */\n      dup5\n        /* \"#utility.yul\":9797:9925   */\n      tag_203\n      jump\t// in\n    tag_335:\n        /* \"#utility.yul\":9789:9925   */\n      swap1\n      pop\n        /* \"#utility.yul\":9097:9932   */\n      swap6\n      swap5\n      pop\n      pop\n      pop\n      pop\n      pop\n      jump\t// out\n        /* \"#utility.yul\":9938:11097   */\n    tag_40:\n        /* \"#utility.yul\":10045:10051   */\n      0x00\n        /* \"#utility.yul\":10053:10059   */\n      dup1\n        /* \"#utility.yul\":10061:10067   */\n      0x00\n        /* \"#utility.yul\":10110:10112   */\n      0x60\n        /* \"#utility.yul\":10098:10107   */\n      dup5\n        /* \"#utility.yul\":10089:10096   */\n      dup7\n        /* \"#utility.yul\":10085:10108   */\n      sub\n        /* \"#utility.yul\":10081:10113   */\n      slt\n        /* \"#utility.yul\":10078:10197   */\n      iszero\n      tag_337\n      jumpi\n        /* \"#utility.yul\":10116:10195   */\n      tag_338\n      tag_172\n      jump\t// in\n    tag_338:\n        /* \"#utility.yul\":10078:10197   */\n    tag_337:\n        /* \"#utility.yul\":10264:10265   */\n      0x00\n        /* \"#utility.yul\":10253:10262   */\n      dup5\n        /* \"#utility.yul\":10249:10266   */\n      add\n        /* \"#utility.yul\":10236:10267   */\n      calldataload\n        /* \"#utility.yul\":10294:10312   */\n      0xffffffffffffffff\n        /* \"#utility.yul\":10286:10292   */\n      dup2\n        /* \"#utility.yul\":10283:10313   */\n      gt\n        /* \"#utility.yul\":10280:10397   */\n      iszero\n      tag_339\n      jumpi\n        /* \"#utility.yul\":10316:10395   */\n      tag_340\n      tag_173\n      jump\t// in\n    tag_340:\n        /* \"#utility.yul\":10280:10397   */\n    tag_339:\n        /* \"#utility.yul\":10421:10484   */\n      tag_341\n        /* \"#utility.yul\":10476:10483   */\n      dup7\n        /* \"#utility.yul\":10467:10473   */\n      dup3\n        /* \"#utility.yul\":10456:10465   */\n      dup8\n        /* \"#utility.yul\":10452:10474   */\n      add\n        /* \"#utility.yul\":10421:10484   */\n      tag_186\n      jump\t// in\n    tag_341:\n        /* \"#utility.yul\":10411:10484   */\n      swap4\n      pop\n        /* \"#utility.yul\":10207:10494   */\n      pop\n        /* \"#utility.yul\":10561:10563   */\n      0x20\n        /* \"#utility.yul\":10550:10559   */\n      dup5\n        /* \"#utility.yul\":10546:10564   */\n      add\n        /* \"#utility.yul\":10533:10565   */\n      calldataload\n        /* \"#utility.yul\":10592:10610   */\n      0xffffffffffffffff\n        /* \"#utility.yul\":10584:10590   */\n      dup2\n        /* \"#utility.yul\":10581:10611   */\n      gt\n        /* \"#utility.yul\":10578:10695   */\n      iszero\n      tag_342\n      jumpi\n        /* \"#utility.yul\":10614:10693   */\n      tag_343\n      tag_173\n      jump\t// in\n    tag_343:\n        /* \"#utility.yul\":10578:10695   */\n    tag_342:\n        /* \"#utility.yul\":10719:10782   */\n      tag_344\n        /* \"#utility.yul\":10774:10781   */\n      dup7\n        /* \"#utility.yul\":10765:10771   */\n      dup3\n        /* \"#utility.yul\":10754:10763   */\n      dup8\n        /* \"#utility.yul\":10750:10772   */\n      add\n        /* \"#utility.yul\":10719:10782   */\n      tag_186\n      jump\t// in\n    tag_344:\n        /* \"#utility.yul\":10709:10782   */\n      swap3\n      pop\n        /* \"#utility.yul\":10504:10792   */\n      pop\n        /* \"#utility.yul\":10859:10861   */\n      0x40\n        /* \"#utility.yul\":10848:10857   */\n      dup5\n        /* \"#utility.yul\":10844:10862   */\n      add\n        /* \"#utility.yul\":10831:10863   */\n      calldataload\n        /* \"#utility.yul\":10890:10908   */\n      0xffffffffffffffff\n        /* \"#utility.yul\":10882:10888   */\n      dup2\n        /* \"#utility.yul\":10879:10909   */\n      gt\n        /* \"#utility.yul\":10876:10993   */\n      iszero\n      tag_345\n      jumpi\n        /* \"#utility.yul\":10912:10991   */\n      tag_346\n      tag_173\n      jump\t// in\n    tag_346:\n        /* \"#utility.yul\":10876:10993   */\n    tag_345:\n        /* \"#utility.yul\":11017:11080   */\n      tag_347\n        /* \"#utility.yul\":11072:11079   */\n      dup7\n        /* \"#utility.yul\":11063:11069   */\n      dup3\n        /* \"#utility.yul\":11052:11061   */\n      dup8\n        /* \"#utility.yul\":11048:11070   */\n      add\n        /* \"#utility.yul\":11017:11080   */\n      tag_186\n      jump\t// in\n    tag_347:\n        /* \"#utility.yul\":11007:11080   */\n      swap2\n      pop\n        /* \"#utility.yul\":10802:11090   */\n      pop\n        /* \"#utility.yul\":9938:11097   */\n      swap3\n      pop\n      swap3\n      pop\n      swap3\n      jump\t// out\n        /* \"#utility.yul\":11103:12554   */\n    tag_44:\n        /* \"#utility.yul\":11228:11234   */\n      0x00\n        /* \"#utility.yul\":11236:11242   */\n      dup1\n        /* \"#utility.yul\":11244:11250   */\n      0x00\n        /* \"#utility.yul\":11252:11258   */\n      dup1\n        /* \"#utility.yul\":11260:11266   */\n      0x00\n        /* \"#utility.yul\":11309:11312   */\n      0xa0\n        /* \"#utility.yul\":11297:11306   */\n      dup7\n        /* \"#utility.yul\":11288:11295   */\n      dup9\n        /* \"#utility.yul\":11284:11307   */\n      sub\n        /* \"#utility.yul\":11280:11313   */\n      slt\n        /* \"#utility.yul\":11277:11397   */\n      iszero\n      tag_349\n      jumpi\n        /* \"#utility.yul\":11316:11395   */\n      tag_350\n      tag_172\n      jump\t// in\n    tag_350:\n        /* \"#utility.yul\":11277:11397   */\n    tag_349:\n        /* \"#utility.yul\":11436:11437   */\n      0x00\n        /* \"#utility.yul\":11461:11514   */\n      tag_351\n        /* \"#utility.yul\":11506:11513   */\n      dup9\n        /* \"#utility.yul\":11497:11503   */\n      dup3\n        /* \"#utility.yul\":11486:11495   */\n      dup10\n        /* \"#utility.yul\":11482:11504   */\n      add\n        /* \"#utility.yul\":11461:11514   */\n      tag_176\n      jump\t// in\n    tag_351:\n        /* \"#utility.yul\":11451:11514   */\n      swap6\n      pop\n        /* \"#utility.yul\":11407:11524   */\n      pop\n        /* \"#utility.yul\":11591:11593   */\n      0x20\n        /* \"#utility.yul\":11580:11589   */\n      dup7\n        /* \"#utility.yul\":11576:11594   */\n      add\n        /* \"#utility.yul\":11563:11595   */\n      calldataload\n        /* \"#utility.yul\":11622:11640   */\n      0xffffffffffffffff\n        /* \"#utility.yul\":11614:11620   */\n      dup2\n        /* \"#utility.yul\":11611:11641   */\n      gt\n        /* \"#utility.yul\":11608:11725   */\n      iszero\n      tag_352\n      jumpi\n        /* \"#utility.yul\":11644:11723   */\n      tag_353\n      tag_173\n      jump\t// in\n    tag_353:\n        /* \"#utility.yul\":11608:11725   */\n    tag_352:\n        /* \"#utility.yul\":11749:11812   */\n      tag_354\n        /* \"#utility.yul\":11804:11811   */\n      dup9\n        /* \"#utility.yul\":11795:11801   */\n      dup3\n        /* \"#utility.yul\":11784:11793   */\n      dup10\n        /* \"#utility.yul\":11780:11802   */\n      add\n        /* \"#utility.yul\":11749:11812   */\n      tag_186\n      jump\t// in\n    tag_354:\n        /* \"#utility.yul\":11739:11812   */\n      swap5\n      pop\n        /* \"#utility.yul\":11534:11822   */\n      pop\n        /* \"#utility.yul\":11889:11891   */\n      0x40\n        /* \"#utility.yul\":11878:11887   */\n      dup7\n        /* \"#utility.yul\":11874:11892   */\n      add\n        /* \"#utility.yul\":11861:11893   */\n      calldataload\n        /* \"#utility.yul\":11920:11938   */\n      0xffffffffffffffff\n        /* \"#utility.yul\":11912:11918   */\n      dup2\n        /* \"#utility.yul\":11909:11939   */\n      gt\n        /* \"#utility.yul\":11906:12023   */\n      iszero\n      tag_355\n      jumpi\n        /* \"#utility.yul\":11942:12021   */\n      tag_356\n      tag_173\n      jump\t// in\n    tag_356:\n        /* \"#utility.yul\":11906:12023   */\n    tag_355:\n        /* \"#utility.yul\":12047:12110   */\n      tag_357\n        /* \"#utility.yul\":12102:12109   */\n      dup9\n        /* \"#utility.yul\":12093:12099   */\n      dup3\n        /* \"#utility.yul\":12082:12091   */\n      dup10\n        /* \"#utility.yul\":12078:12100   */\n      add\n        /* \"#utility.yul\":12047:12110   */\n      tag_186\n      jump\t// in\n    tag_357:\n        /* \"#utility.yul\":12037:12110   */\n      swap4\n      pop\n        /* \"#utility.yul\":11832:12120   */\n      pop\n        /* \"#utility.yul\":12187:12189   */\n      0x60\n        /* \"#utility.yul\":12176:12185   */\n      dup7\n        /* \"#utility.yul\":12172:12190   */\n      add\n        /* \"#utility.yul\":12159:12191   */\n      calldataload\n        /* \"#utility.yul\":12218:12236   */\n      0xffffffffffffffff\n        /* \"#utility.yul\":12210:12216   */\n      dup2\n        /* \"#utility.yul\":12207:12237   */\n      gt\n        /* \"#utility.yul\":12204:12321   */\n      iszero\n      tag_358\n      jumpi\n        /* \"#utility.yul\":12240:12319   */\n      tag_359\n      tag_173\n      jump\t// in\n    tag_359:\n        /* \"#utility.yul\":12204:12321   */\n    tag_358:\n        /* \"#utility.yul\":12345:12408   */\n      tag_360\n        /* \"#utility.yul\":12400:12407   */\n      dup9\n        /* \"#utility.yul\":12391:12397   */\n      dup3\n        /* \"#utility.yul\":12380:12389   */\n      dup10\n        /* \"#utility.yul\":12376:12398   */\n      add\n        /* \"#utility.yul\":12345:12408   */\n      tag_186\n      jump\t// in\n    tag_360:\n        /* \"#utility.yul\":12335:12408   */\n      swap3\n      pop\n        /* \"#utility.yul\":12130:12418   */\n      pop\n        /* \"#utility.yul\":12457:12460   */\n      0x80\n        /* \"#utility.yul\":12484:12537   */\n      tag_361\n        /* \"#utility.yul\":12529:12536   */\n      dup9\n        /* \"#utility.yul\":12520:12526   */\n      dup3\n        /* \"#utility.yul\":12509:12518   */\n      dup10\n        /* \"#utility.yul\":12505:12527   */\n      add\n        /* \"#utility.yul\":12484:12537   */\n      tag_176\n      jump\t// in\n    tag_361:\n        /* \"#utility.yul\":12474:12537   */\n      swap2\n      pop\n        /* \"#utility.yul\":12428:12547   */\n      pop\n        /* \"#utility.yul\":11103:12554   */\n      swap3\n      swap6\n      pop\n      swap3\n      swap6\n      swap1\n      swap4\n      pop\n      jump\t// out\n        /* \"#utility.yul\":12560:12889   */\n    tag_48:\n        /* \"#utility.yul\":12619:12625   */\n      0x00\n        /* \"#utility.yul\":12668:12670   */\n      0x20\n        /* \"#utility.yul\":12656:12665   */\n      dup3\n        /* \"#utility.yul\":12647:12654   */\n      dup5\n        /* \"#utility.yul\":12643:12666   */\n      sub\n        /* \"#utility.yul\":12639:12671   */\n      slt\n        /* \"#utility.yul\":12636:12755   */\n      iszero\n      tag_363\n      jumpi\n        /* \"#utility.yul\":12674:12753   */\n      tag_364\n      tag_172\n      jump\t// in\n    tag_364:\n        /* \"#utility.yul\":12636:12755   */\n    tag_363:\n        /* \"#utility.yul\":12794:12795   */\n      0x00\n        /* \"#utility.yul\":12819:12872   */\n      tag_365\n        /* \"#utility.yul\":12864:12871   */\n      dup5\n        /* \"#utility.yul\":12855:12861   */\n      dup3\n        /* \"#utility.yul\":12844:12853   */\n      dup6\n        /* \"#utility.yul\":12840:12862   */\n      add\n        /* \"#utility.yul\":12819:12872   */\n      tag_190\n      jump\t// in\n    tag_365:\n        /* \"#utility.yul\":12809:12872   */\n      swap2\n      pop\n        /* \"#utility.yul\":12765:12882   */\n      pop\n        /* \"#utility.yul\":12560:12889   */\n      swap3\n      swap2\n      pop\n      pop\n      jump\t// out\n        /* \"#utility.yul\":12895:13009   */\n    tag_204:\n        /* \"#utility.yul\":12962:12968   */\n      0x00\n        /* \"#utility.yul\":12996:13001   */\n      dup2\n        /* \"#utility.yul\":12990:13002   */\n      mload\n        /* \"#utility.yul\":12980:13002   */\n      swap1\n      pop\n        /* \"#utility.yul\":12895:13009   */\n      swap2\n      swap1\n      pop\n      jump\t// out\n        /* \"#utility.yul\":13015:13199   */\n    tag_205:\n        /* \"#utility.yul\":13114:13125   */\n      0x00\n        /* \"#utility.yul\":13148:13154   */\n      dup3\n        /* \"#utility.yul\":13143:13146   */\n      dup3\n        /* \"#utility.yul\":13136:13155   */\n      mstore\n        /* \"#utility.yul\":13188:13192   */\n      0x20\n        /* \"#utility.yul\":13183:13186   */\n      dup3\n        /* \"#utility.yul\":13179:13193   */\n      add\n        /* \"#utility.yul\":13164:13193   */\n      swap1\n      pop\n        /* \"#utility.yul\":13015:13199   */\n      swap3\n      swap2\n      pop\n      pop\n      jump\t// out\n        /* \"#utility.yul\":13205:13337   */\n    tag_206:\n        /* \"#utility.yul\":13272:13276   */\n      0x00\n        /* \"#utility.yul\":13295:13298   */\n      dup2\n        /* \"#utility.yul\":13287:13298   */\n      swap1\n      pop\n        /* \"#utility.yul\":13325:13329   */\n      0x20\n        /* \"#utility.yul\":13320:13323   */\n      dup3\n        /* \"#utility.yul\":13316:13330   */\n      add\n        /* \"#utility.yul\":13308:13330   */\n      swap1\n      pop\n        /* \"#utility.yul\":13205:13337   */\n      swap2\n      swap1\n      pop\n      jump\t// out\n        /* \"#utility.yul\":13343:13451   */\n    tag_207:\n        /* \"#utility.yul\":13420:13444   */\n      tag_370\n        /* \"#utility.yul\":13438:13443   */\n      dup2\n        /* \"#utility.yul\":13420:13444   */\n      tag_174\n      jump\t// in\n    tag_370:\n        /* \"#utility.yul\":13415:13418   */\n      dup3\n        /* \"#utility.yul\":13408:13445   */\n      mstore\n        /* \"#utility.yul\":13343:13451   */\n      pop\n      pop\n      jump\t// out\n        /* \"#utility.yul\":13457:13636   */\n    tag_208:\n        /* \"#utility.yul\":13526:13536   */\n      0x00\n        /* \"#utility.yul\":13547:13593   */\n      tag_372\n        /* \"#utility.yul\":13589:13592   */\n      dup4\n        /* \"#utility.yul\":13581:13587   */\n      dup4\n        /* \"#utility.yul\":13547:13593   */\n      tag_207\n      jump\t// in\n    tag_372:\n        /* \"#utility.yul\":13625:13629   */\n      0x20\n        /* \"#utility.yul\":13620:13623   */\n      dup4\n        /* \"#utility.yul\":13616:13630   */\n      add\n        /* \"#utility.yul\":13602:13630   */\n      swap1\n      pop\n        /* \"#utility.yul\":13457:13636   */\n      swap3\n      swap2\n      pop\n      pop\n      jump\t// out\n        /* \"#utility.yul\":13642:13755   */\n    tag_209:\n        /* \"#utility.yul\":13712:13716   */\n      0x00\n        /* \"#utility.yul\":13744:13748   */\n      0x20\n        /* \"#utility.yul\":13739:13742   */\n      dup3\n        /* \"#utility.yul\":13735:13749   */\n      add\n        /* \"#utility.yul\":13727:13749   */\n      swap1\n      pop\n        /* \"#utility.yul\":13642:13755   */\n      swap2\n      swap1\n      pop\n      jump\t// out\n        /* \"#utility.yul\":13791:14523   */\n    tag_210:\n        /* \"#utility.yul\":13910:13913   */\n      0x00\n        /* \"#utility.yul\":13939:13993   */\n      tag_375\n        /* \"#utility.yul\":13987:13992   */\n      dup3\n        /* \"#utility.yul\":13939:13993   */\n      tag_204\n      jump\t// in\n    tag_375:\n        /* \"#utility.yul\":14009:14095   */\n      tag_376\n        /* \"#utility.yul\":14088:14094   */\n      dup2\n        /* \"#utility.yul\":14083:14086   */\n      dup6\n        /* \"#utility.yul\":14009:14095   */\n      tag_205\n      jump\t// in\n    tag_376:\n        /* \"#utility.yul\":14002:14095   */\n      swap4\n      pop\n        /* \"#utility.yul\":14119:14175   */\n      tag_377\n        /* \"#utility.yul\":14169:14174   */\n      dup4\n        /* \"#utility.yul\":14119:14175   */\n      tag_206\n      jump\t// in\n    tag_377:\n        /* \"#utility.yul\":14198:14205   */\n      dup1\n        /* \"#utility.yul\":14229:14230   */\n      0x00\n        /* \"#utility.yul\":14214:14498   */\n    tag_378:\n        /* \"#utility.yul\":14239:14245   */\n      dup4\n        /* \"#utility.yul\":14236:14237   */\n      dup2\n        /* \"#utility.yul\":14233:14246   */\n      lt\n        /* \"#utility.yul\":14214:14498   */\n      iszero\n      tag_380\n      jumpi\n        /* \"#utility.yul\":14315:14321   */\n      dup2\n        /* \"#utility.yul\":14309:14322   */\n      mload\n        /* \"#utility.yul\":14342:14405   */\n      tag_381\n        /* \"#utility.yul\":14401:14404   */\n      dup9\n        /* \"#utility.yul\":14386:14399   */\n      dup3\n        /* \"#utility.yul\":14342:14405   */\n      tag_208\n      jump\t// in\n    tag_381:\n        /* \"#utility.yul\":14335:14405   */\n      swap8\n      pop\n        /* \"#utility.yul\":14428:14488   */\n      tag_382\n        /* \"#utility.yul\":14481:14487   */\n      dup4\n        /* \"#utility.yul\":14428:14488   */\n      tag_209\n      jump\t// in\n    tag_382:\n        /* \"#utility.yul\":14418:14488   */\n      swap3\n      pop\n        /* \"#utility.yul\":14274:14498   */\n      pop\n        /* \"#utility.yul\":14261:14262   */\n      0x01\n        /* \"#utility.yul\":14258:14259   */\n      dup2\n        /* \"#utility.yul\":14254:14263   */\n      add\n        /* \"#utility.yul\":14249:14263   */\n      swap1\n      pop\n        /* \"#utility.yul\":14214:14498   */\n      jump(tag_378)\n    tag_380:\n        /* \"#utility.yul\":14218:14232   */\n      pop\n        /* \"#utility.yul\":14514:14517   */\n      dup6\n        /* \"#utility.yul\":14507:14517   */\n      swap4\n      pop\n        /* \"#utility.yul\":13915:14523   */\n      pop\n      pop\n      pop\n        /* \"#utility.yul\":13791:14523   */\n      swap3\n      swap2\n      pop\n      pop\n      jump\t// out\n        /* \"#utility.yul\":14529:14902   */\n    tag_51:\n        /* \"#utility.yul\":14672:14676   */\n      0x00\n        /* \"#utility.yul\":14710:14712   */\n      0x20\n        /* \"#utility.yul\":14699:14708   */\n      dup3\n        /* \"#utility.yul\":14695:14713   */\n      add\n        /* \"#utility.yul\":14687:14713   */\n      swap1\n      pop\n        /* \"#utility.yul\":14759:14768   */\n      dup2\n        /* \"#utility.yul\":14753:14757   */\n      dup2\n        /* \"#utility.yul\":14749:14769   */\n      sub\n        /* \"#utility.yul\":14745:14746   */\n      0x00\n        /* \"#utility.yul\":14734:14743   */\n      dup4\n        /* \"#utility.yul\":14730:14747   */\n      add\n        /* \"#utility.yul\":14723:14770   */\n      mstore\n        /* \"#utility.yul\":14787:14895   */\n      tag_384\n        /* \"#utility.yul\":14890:14894   */\n      dup2\n        /* \"#utility.yul\":14881:14887   */\n      dup5\n        /* \"#utility.yul\":14787:14895   */\n      tag_210\n      jump\t// in\n    tag_384:\n        /* \"#utility.yul\":14779:14895   */\n      swap1\n      pop\n        /* \"#utility.yul\":14529:14902   */\n      swap3\n      swap2\n      pop\n      pop\n      jump\t// out\n        /* \"#utility.yul\":14908:15734   */\n    tag_60:\n        /* \"#utility.yul\":15145:15149   */\n      0x00\n        /* \"#utility.yul\":15183:15186   */\n      0x80\n        /* \"#utility.yul\":15172:15181   */\n      dup3\n        /* \"#utility.yul\":15168:15187   */\n      add\n        /* \"#utility.yul\":15160:15187   */\n      swap1\n      pop\n        /* \"#utility.yul\":15233:15242   */\n      dup2\n        /* \"#utility.yul\":15227:15231   */\n      dup2\n        /* \"#utility.yul\":15223:15243   */\n      sub\n        /* \"#utility.yul\":15219:15220   */\n      0x00\n        /* \"#utility.yul\":15208:15217   */\n      dup4\n        /* \"#utility.yul\":15204:15221   */\n      add\n        /* \"#utility.yul\":15197:15244   */\n      mstore\n        /* \"#utility.yul\":15261:15339   */\n      tag_386\n        /* \"#utility.yul\":15334:15338   */\n      dup2\n        /* \"#utility.yul\":15325:15331   */\n      dup8\n        /* \"#utility.yul\":15261:15339   */\n      tag_195\n      jump\t// in\n    tag_386:\n        /* \"#utility.yul\":15253:15339   */\n      swap1\n      pop\n        /* \"#utility.yul\":15386:15395   */\n      dup2\n        /* \"#utility.yul\":15380:15384   */\n      dup2\n        /* \"#utility.yul\":15376:15396   */\n      sub\n        /* \"#utility.yul\":15371:15373   */\n      0x20\n        /* \"#utility.yul\":15360:15369   */\n      dup4\n        /* \"#utility.yul\":15356:15374   */\n      add\n        /* \"#utility.yul\":15349:15397   */\n      mstore\n        /* \"#utility.yul\":15414:15492   */\n      tag_387\n        /* \"#utility.yul\":15487:15491   */\n      dup2\n        /* \"#utility.yul\":15478:15484   */\n      dup7\n        /* \"#utility.yul\":15414:15492   */\n      tag_195\n      jump\t// in\n    tag_387:\n        /* \"#utility.yul\":15406:15492   */\n      swap1\n      pop\n        /* \"#utility.yul\":15539:15548   */\n      dup2\n        /* \"#utility.yul\":15533:15537   */\n      dup2\n        /* \"#utility.yul\":15529:15549   */\n      sub\n        /* \"#utility.yul\":15524:15526   */\n      0x40\n        /* \"#utility.yul\":15513:15522   */\n      dup4\n        /* \"#utility.yul\":15509:15527   */\n      add\n        /* \"#utility.yul\":15502:15550   */\n      mstore\n        /* \"#utility.yul\":15567:15645   */\n      tag_388\n        /* \"#utility.yul\":15640:15644   */\n      dup2\n        /* \"#utility.yul\":15631:15637   */\n      dup6\n        /* \"#utility.yul\":15567:15645   */\n      tag_195\n      jump\t// in\n    tag_388:\n        /* \"#utility.yul\":15559:15645   */\n      swap1\n      pop\n        /* \"#utility.yul\":15655:15727   */\n      tag_389\n        /* \"#utility.yul\":15723:15725   */\n      0x60\n        /* \"#utility.yul\":15712:15721   */\n      dup4\n        /* \"#utility.yul\":15708:15726   */\n      add\n        /* \"#utility.yul\":15699:15705   */\n      dup5\n        /* \"#utility.yul\":15655:15727   */\n      tag_191\n      jump\t// in\n    tag_389:\n        /* \"#utility.yul\":14908:15734   */\n      swap6\n      swap5\n      pop\n      pop\n      pop\n      pop\n      pop\n      jump\t// out\n        /* \"#utility.yul\":15740:15858   */\n    tag_211:\n        /* \"#utility.yul\":15827:15851   */\n      tag_391\n        /* \"#utility.yul\":15845:15850   */\n      dup2\n        /* \"#utility.yul\":15827:15851   */\n      tag_188\n      jump\t// in\n    tag_391:\n        /* \"#utility.yul\":15822:15825   */\n      dup3\n        /* \"#utility.yul\":15815:15852   */\n      mstore\n        /* \"#utility.yul\":15740:15858   */\n      pop\n      pop\n      jump\t// out\n        /* \"#utility.yul\":15864:16086   */\n    tag_64:\n        /* \"#utility.yul\":15957:15961   */\n      0x00\n        /* \"#utility.yul\":15995:15997   */\n      0x20\n        /* \"#utility.yul\":15984:15993   */\n      dup3\n        /* \"#utility.yul\":15980:15998   */\n      add\n        /* \"#utility.yul\":15972:15998   */\n      swap1\n      pop\n        /* \"#utility.yul\":16008:16079   */\n      tag_393\n        /* \"#utility.yul\":16076:16077   */\n      0x00\n        /* \"#utility.yul\":16065:16074   */\n      dup4\n        /* \"#utility.yul\":16061:16078   */\n      add\n        /* \"#utility.yul\":16052:16058   */\n      dup5\n        /* \"#utility.yul\":16008:16079   */\n      tag_211\n      jump\t// in\n    tag_393:\n        /* \"#utility.yul\":15864:16086   */\n      swap3\n      swap2\n      pop\n      pop\n      jump\t// out\n        /* \"#utility.yul\":16092:16918   */\n    tag_69:\n        /* \"#utility.yul\":16329:16333   */\n      0x00\n        /* \"#utility.yul\":16367:16370   */\n      0x80\n        /* \"#utility.yul\":16356:16365   */\n      dup3\n        /* \"#utility.yul\":16352:16371   */\n      add\n        /* \"#utility.yul\":16344:16371   */\n      swap1\n      pop\n        /* \"#utility.yul\":16381:16452   */\n      tag_395\n        /* \"#utility.yul\":16449:16450   */\n      0x00\n        /* \"#utility.yul\":16438:16447   */\n      dup4\n        /* \"#utility.yul\":16434:16451   */\n      add\n        /* \"#utility.yul\":16425:16431   */\n      dup8\n        /* \"#utility.yul\":16381:16452   */\n      tag_191\n      jump\t// in\n    tag_395:\n        /* \"#utility.yul\":16499:16508   */\n      dup2\n        /* \"#utility.yul\":16493:16497   */\n      dup2\n        /* \"#utility.yul\":16489:16509   */\n      sub\n        /* \"#utility.yul\":16484:16486   */\n      0x20\n        /* \"#utility.yul\":16473:16482   */\n      dup4\n        /* \"#utility.yul\":16469:16487   */\n      add\n        /* \"#utility.yul\":16462:16510   */\n      mstore\n        /* \"#utility.yul\":16527:16605   */\n      tag_396\n        /* \"#utility.yul\":16600:16604   */\n      dup2\n        /* \"#utility.yul\":16591:16597   */\n      dup7\n        /* \"#utility.yul\":16527:16605   */\n      tag_195\n      jump\t// in\n    tag_396:\n        /* \"#utility.yul\":16519:16605   */\n      swap1\n      pop\n        /* \"#utility.yul\":16652:16661   */\n      dup2\n        /* \"#utility.yul\":16646:16650   */\n      dup2\n        /* \"#utility.yul\":16642:16662   */\n      sub\n        /* \"#utility.yul\":16637:16639   */\n      0x40\n        /* \"#utility.yul\":16626:16635   */\n      dup4\n        /* \"#utility.yul\":16622:16640   */\n      add\n        /* \"#utility.yul\":16615:16663   */\n      mstore\n        /* \"#utility.yul\":16680:16758   */\n      tag_397\n        /* \"#utility.yul\":16753:16757   */\n      dup2\n        /* \"#utility.yul\":16744:16750   */\n      dup6\n        /* \"#utility.yul\":16680:16758   */\n      tag_195\n      jump\t// in\n    tag_397:\n        /* \"#utility.yul\":16672:16758   */\n      swap1\n      pop\n        /* \"#utility.yul\":16805:16814   */\n      dup2\n        /* \"#utility.yul\":16799:16803   */\n      dup2\n        /* \"#utility.yul\":16795:16815   */\n      sub\n        /* \"#utility.yul\":16790:16792   */\n      0x60\n        /* \"#utility.yul\":16779:16788   */\n      dup4\n        /* \"#utility.yul\":16775:16793   */\n      add\n        /* \"#utility.yul\":16768:16816   */\n      mstore\n        /* \"#utility.yul\":16833:16911   */\n      tag_398\n        /* \"#utility.yul\":16906:16910   */\n      dup2\n        /* \"#utility.yul\":16897:16903   */\n      dup5\n        /* \"#utility.yul\":16833:16911   */\n      tag_195\n      jump\t// in\n    tag_398:\n        /* \"#utility.yul\":16825:16911   */\n      swap1\n      pop\n        /* \"#utility.yul\":16092:16918   */\n      swap6\n      swap5\n      pop\n      pop\n      pop\n      pop\n      pop\n      jump\t// out\n        /* \"#utility.yul\":16924:17398   */\n    tag_72:\n        /* \"#utility.yul\":16992:16998   */\n      0x00\n        /* \"#utility.yul\":17000:17006   */\n      dup1\n        /* \"#utility.yul\":17049:17051   */\n      0x40\n        /* \"#utility.yul\":17037:17046   */\n      dup4\n        /* \"#utility.yul\":17028:17035   */\n      dup6\n        /* \"#utility.yul\":17024:17047   */\n      sub\n        /* \"#utility.yul\":17020:17052   */\n      slt\n        /* \"#utility.yul\":17017:17136   */\n      iszero\n      tag_400\n      jumpi\n        /* \"#utility.yul\":17055:17134   */\n      tag_401\n      tag_172\n      jump\t// in\n    tag_401:\n        /* \"#utility.yul\":17017:17136   */\n    tag_400:\n        /* \"#utility.yul\":17175:17176   */\n      0x00\n        /* \"#utility.yul\":17200:17253   */\n      tag_402\n        /* \"#utility.yul\":17245:17252   */\n      dup6\n        /* \"#utility.yul\":17236:17242   */\n      dup3\n        /* \"#utility.yul\":17225:17234   */\n      dup7\n        /* \"#utility.yul\":17221:17243   */\n      add\n        /* \"#utility.yul\":17200:17253   */\n      tag_190\n      jump\t// in\n    tag_402:\n        /* \"#utility.yul\":17190:17253   */\n      swap3\n      pop\n        /* \"#utility.yul\":17146:17263   */\n      pop\n        /* \"#utility.yul\":17302:17304   */\n      0x20\n        /* \"#utility.yul\":17328:17381   */\n      tag_403\n        /* \"#utility.yul\":17373:17380   */\n      dup6\n        /* \"#utility.yul\":17364:17370   */\n      dup3\n        /* \"#utility.yul\":17353:17362   */\n      dup7\n        /* \"#utility.yul\":17349:17371   */\n      add\n        /* \"#utility.yul\":17328:17381   */\n      tag_176\n      jump\t// in\n    tag_403:\n        /* \"#utility.yul\":17318:17381   */\n      swap2\n      pop\n        /* \"#utility.yul\":17273:17391   */\n      pop\n        /* \"#utility.yul\":16924:17398   */\n      swap3\n      pop\n      swap3\n      swap1\n      pop\n      jump\t// out\n        /* \"#utility.yul\":17404:17878   */\n    tag_76:\n        /* \"#utility.yul\":17472:17478   */\n      0x00\n        /* \"#utility.yul\":17480:17486   */\n      dup1\n        /* \"#utility.yul\":17529:17531   */\n      0x40\n        /* \"#utility.yul\":17517:17526   */\n      dup4\n        /* \"#utility.yul\":17508:17515   */\n      dup6\n        /* \"#utility.yul\":17504:17527   */\n      sub\n        /* \"#utility.yul\":17500:17532   */\n      slt\n        /* \"#utility.yul\":17497:17616   */\n      iszero\n      tag_405\n      jumpi\n        /* \"#utility.yul\":17535:17614   */\n      tag_406\n      tag_172\n      jump\t// in\n    tag_406:\n        /* \"#utility.yul\":17497:17616   */\n    tag_405:\n        /* \"#utility.yul\":17655:17656   */\n      0x00\n        /* \"#utility.yul\":17680:17733   */\n      tag_407\n        /* \"#utility.yul\":17725:17732   */\n      dup6\n        /* \"#utility.yul\":17716:17722   */\n      dup3\n        /* \"#utility.yul\":17705:17714   */\n      dup7\n        /* \"#utility.yul\":17701:17723   */\n      add\n        /* \"#utility.yul\":17680:17733   */\n      tag_176\n      jump\t// in\n    tag_407:\n        /* \"#utility.yul\":17670:17733   */\n      swap3\n      pop\n        /* \"#utility.yul\":17626:17743   */\n      pop\n        /* \"#utility.yul\":17782:17784   */\n      0x20\n        /* \"#utility.yul\":17808:17861   */\n      tag_408\n        /* \"#utility.yul\":17853:17860   */\n      dup6\n        /* \"#utility.yul\":17844:17850   */\n      dup3\n        /* \"#utility.yul\":17833:17842   */\n      dup7\n        /* \"#utility.yul\":17829:17851   */\n      add\n        /* \"#utility.yul\":17808:17861   */\n      tag_190\n      jump\t// in\n    tag_408:\n        /* \"#utility.yul\":17798:17861   */\n      swap2\n      pop\n        /* \"#utility.yul\":17753:17871   */\n      pop\n        /* \"#utility.yul\":17404:17878   */\n      swap3\n      pop\n      swap3\n      swap1\n      pop\n      jump\t// out\n        /* \"#utility.yul\":17884:18064   */\n    tag_212:\n        /* \"#utility.yul\":17932:18009   */\n      0x4e487b7100000000000000000000000000000000000000000000000000000000\n        /* \"#utility.yul\":17929:17930   */\n      0x00\n        /* \"#utility.yul\":17922:18010   */\n      mstore\n        /* \"#utility.yul\":18029:18033   */\n      0x11\n        /* \"#utility.yul\":18026:18027   */\n      0x04\n        /* \"#utility.yul\":18019:18034   */\n      mstore\n        /* \"#utility.yul\":18053:18057   */\n      0x24\n        /* \"#utility.yul\":18050:18051   */\n      0x00\n        /* \"#utility.yul\":18043:18058   */\n      revert\n        /* \"#utility.yul\":18070:18261   */\n    tag_85:\n        /* \"#utility.yul\":18110:18113   */\n      0x00\n        /* \"#utility.yul\":18129:18149   */\n      tag_411\n        /* \"#utility.yul\":18147:18148   */\n      dup3\n        /* \"#utility.yul\":18129:18149   */\n      tag_174\n      jump\t// in\n    tag_411:\n        /* \"#utility.yul\":18124:18149   */\n      swap2\n      pop\n        /* \"#utility.yul\":18163:18183   */\n      tag_412\n        /* \"#utility.yul\":18181:18182   */\n      dup4\n        /* \"#utility.yul\":18163:18183   */\n      tag_174\n      jump\t// in\n    tag_412:\n        /* \"#utility.yul\":18158:18183   */\n      swap3\n      pop\n        /* \"#utility.yul\":18206:18207   */\n      dup3\n        /* \"#utility.yul\":18203:18204   */\n      dup3\n        /* \"#utility.yul\":18199:18208   */\n      add\n        /* \"#utility.yul\":18192:18208   */\n      swap1\n      pop\n        /* \"#utility.yul\":18227:18230   */\n      dup1\n        /* \"#utility.yul\":18224:18225   */\n      dup3\n        /* \"#utility.yul\":18221:18231   */\n      gt\n        /* \"#utility.yul\":18218:18254   */\n      iszero\n      tag_413\n      jumpi\n        /* \"#utility.yul\":18234:18252   */\n      tag_414\n      tag_212\n      jump\t// in\n    tag_414:\n        /* \"#utility.yul\":18218:18254   */\n    tag_413:\n        /* \"#utility.yul\":18070:18261   */\n      swap3\n      swap2\n      pop\n      pop\n      jump\t// out\n        /* \"#utility.yul\":18267:18447   */\n    tag_213:\n        /* \"#utility.yul\":18315:18392   */\n      0x4e487b7100000000000000000000000000000000000000000000000000000000\n        /* \"#utility.yul\":18312:18313   */\n      0x00\n        /* \"#utility.yul\":18305:18393   */\n      mstore\n        /* \"#utility.yul\":18412:18416   */\n      0x22\n        /* \"#utility.yul\":18409:18410   */\n      0x04\n        /* \"#utility.yul\":18402:18417   */\n      mstore\n        /* \"#utility.yul\":18436:18440   */\n      0x24\n        /* \"#utility.yul\":18433:18434   */\n      0x00\n        /* \"#utility.yul\":18426:18441   */\n      revert\n        /* \"#utility.yul\":18453:18773   */\n    tag_93:\n        /* \"#utility.yul\":18497:18503   */\n      0x00\n        /* \"#utility.yul\":18534:18535   */\n      0x02\n        /* \"#utility.yul\":18528:18532   */\n      dup3\n        /* \"#utility.yul\":18524:18536   */\n      div\n        /* \"#utility.yul\":18514:18536   */\n      swap1\n      pop\n        /* \"#utility.yul\":18581:18582   */\n      0x01\n        /* \"#utility.yul\":18575:18579   */\n      dup3\n        /* \"#utility.yul\":18571:18583   */\n      and\n        /* \"#utility.yul\":18602:18620   */\n      dup1\n        /* \"#utility.yul\":18592:18673   */\n      tag_417\n      jumpi\n        /* \"#utility.yul\":18658:18662   */\n      0x7f\n        /* \"#utility.yul\":18650:18656   */\n      dup3\n        /* \"#utility.yul\":18646:18663   */\n      and\n        /* \"#utility.yul\":18636:18663   */\n      swap2\n      pop\n        /* \"#utility.yul\":18592:18673   */\n    tag_417:\n        /* \"#utility.yul\":18720:18722   */\n      0x20\n        /* \"#utility.yul\":18712:18718   */\n      dup3\n        /* \"#utility.yul\":18709:18723   */\n      lt\n        /* \"#utility.yul\":18689:18707   */\n      dup2\n        /* \"#utility.yul\":18686:18724   */\n      sub\n        /* \"#utility.yul\":18683:18767   */\n      tag_418\n      jumpi\n        /* \"#utility.yul\":18739:18757   */\n      tag_419\n      tag_213\n      jump\t// in\n    tag_419:\n        /* \"#utility.yul\":18683:18767   */\n    tag_418:\n        /* \"#utility.yul\":18504:18773   */\n      pop\n        /* \"#utility.yul\":18453:18773   */\n      swap2\n      swap1\n      pop\n      jump\t// out\n        /* \"#utility.yul\":18779:18920   */\n    tag_214:\n        /* \"#utility.yul\":18828:18832   */\n      0x00\n        /* \"#utility.yul\":18851:18854   */\n      dup2\n        /* \"#utility.yul\":18843:18854   */\n      swap1\n      pop\n        /* \"#utility.yul\":18874:18877   */\n      dup2\n        /* \"#utility.yul\":18871:18872   */\n      0x00\n        /* \"#utility.yul\":18864:18878   */\n      mstore\n        /* \"#utility.yul\":18908:18912   */\n      0x20\n        /* \"#utility.yul\":18905:18906   */\n      0x00\n        /* \"#utility.yul\":18895:18913   */\n      keccak256\n        /* \"#utility.yul\":18887:18913   */\n      swap1\n      pop\n        /* \"#utility.yul\":18779:18920   */\n      swap2\n      swap1\n      pop\n      jump\t// out\n        /* \"#utility.yul\":18926:19019   */\n    tag_215:\n        /* \"#utility.yul\":18963:18969   */\n      0x00\n        /* \"#utility.yul\":19010:19012   */\n      0x20\n        /* \"#utility.yul\":19005:19007   */\n      0x1f\n        /* \"#utility.yul\":18998:19003   */\n      dup4\n        /* \"#utility.yul\":18994:19008   */\n      add\n        /* \"#utility.yul\":18990:19013   */\n      div\n        /* \"#utility.yul\":18980:19013   */\n      swap1\n      pop\n        /* \"#utility.yul\":18926:19019   */\n      swap2\n      swap1\n      pop\n      jump\t// out\n        /* \"#utility.yul\":19025:19132   */\n    tag_216:\n        /* \"#utility.yul\":19069:19077   */\n      0x00\n        /* \"#utility.yul\":19119:19124   */\n      dup3\n        /* \"#utility.yul\":19113:19117   */\n      dup3\n        /* \"#utility.yul\":19109:19125   */\n      shl\n        /* \"#utility.yul\":19088:19125   */\n      swap1\n      pop\n        /* \"#utility.yul\":19025:19132   */\n      swap3\n      swap2\n      pop\n      pop\n      jump\t// out\n        /* \"#utility.yul\":19138:19531   */\n    tag_217:\n        /* \"#utility.yul\":19207:19213   */\n      0x00\n        /* \"#utility.yul\":19257:19258   */\n      0x08\n        /* \"#utility.yul\":19245:19255   */\n      dup4\n        /* \"#utility.yul\":19241:19259   */\n      mul\n        /* \"#utility.yul\":19280:19377   */\n      tag_424\n        /* \"#utility.yul\":19310:19376   */\n      0xffffffffffffffffffffffffffffffffffffffffffffffffffffffffffffffff\n        /* \"#utility.yul\":19299:19308   */\n      dup3\n        /* \"#utility.yul\":19280:19377   */\n      tag_216\n      jump\t// in\n    tag_424:\n        /* \"#utility.yul\":19398:19437   */\n      tag_425\n        /* \"#utility.yul\":19428:19436   */\n      dup7\n        /* \"#utility.yul\":19417:19426   */\n      dup4\n        /* \"#utility.yul\":19398:19437   */\n      tag_216\n      jump\t// in\n    tag_425:\n        /* \"#utility.yul\":19386:19437   */\n      swap6\n      pop\n        /* \"#utility.yul\":19470:19474   */\n      dup1\n        /* \"#utility.yul\":19466:19475   */\n      not\n        /* \"#utility.yul\":19459:19464   */\n      dup5\n        /* \"#utility.yul\":19455:19476   */\n      and\n        /* \"#utility.yul\":19446:19476   */\n      swap4\n      pop\n        /* \"#utility.yul\":19519:19523   */\n      dup1\n        /* \"#utility.yul\":19509:19517   */\n      dup7\n        /* \"#utility.yul\":19505:19524   */\n      and\n        /* \"#utility.yul\":19498:19503   */\n      dup5\n        /* \"#utility.yul\":19495:19525   */\n      or\n        /* \"#utility.yul\":19485:19525   */\n      swap3\n      pop\n        /* \"#utility.yul\":19214:19531   */\n      pop\n      pop\n        /* \"#utility.yul\":19138:19531   */\n      swap4\n      swap3\n      pop\n      pop\n      pop\n      jump\t// out\n        /* \"#utility.yul\":19537:19597   */\n    tag_218:\n        /* \"#utility.yul\":19565:19568   */\n      0x00\n        /* \"#utility.yul\":19586:19591   */\n      dup2\n        /* \"#utility.yul\":19579:19591   */\n      swap1\n      pop\n        /* \"#utility.yul\":19537:19597   */\n      swap2\n      swap1\n      pop\n      jump\t// out\n        /* \"#utility.yul\":19603:19745   */\n    tag_219:\n        /* \"#utility.yul\":19653:19662   */\n      0x00\n        /* \"#utility.yul\":19686:19739   */\n      tag_428\n        /* \"#utility.yul\":19704:19738   */\n      tag_429\n        /* \"#utility.yul\":19713:19737   */\n      tag_430\n        /* \"#utility.yul\":19731:19736   */\n      dup5\n        /* \"#utility.yul\":19713:19737   */\n      tag_174\n      jump\t// in\n    tag_430:\n        /* \"#utility.yul\":19704:19738   */\n      tag_218\n      jump\t// in\n    tag_429:\n        /* \"#utility.yul\":19686:19739   */\n      tag_174\n      jump\t// in\n    tag_428:\n        /* \"#utility.yul\":19673:19739   */\n      swap1\n      pop\n        /* \"#utility.yul\":19603:19745   */\n      swap2\n      swap1\n      pop\n      jump\t// out\n        /* \"#utility.yul\":19751:19826   */\n    tag_220:\n        /* \"#utility.yul\":19794:19797   */\n      0x00\n        /* \"#utility.yul\":19815:19820   */\n      dup2\n        /* \"#utility.yul\":19808:19820   */\n      swap1\n      pop\n        /* \"#utility.yul\":19751:19826   */\n      swap2\n      swap1\n      pop\n      jump\t// out\n        /* \"#utility.yul\":19832:20101   */\n    tag_221:\n        /* \"#utility.yul\":19942:19981   */\n      tag_433\n        /* \"#utility.yul\":19973:19980   */\n      dup4\n        /* \"#utility.yul\":19942:19981   */\n      tag_219\n      jump\t// in\n    tag_433:\n        /* \"#utility.yul\":20003:20094   */\n      tag_434\n        /* \"#utility.yul\":20052:20093   */\n      tag_435\n        /* \"#utility.yul\":20076:20092   */\n      dup3\n        /* \"#utility.yul\":20052:20093   */\n      tag_220\n      jump\t// in\n    tag_435:\n        /* \"#utility.yul\":20044:20050   */\n      dup5\n        /* \"#utility.yul\":20037:20041   */\n      dup5\n        /* \"#utility.yul\":20031:20042   */\n      sload\n        /* \"#utility.yul\":20003:20094   */\n      tag_217\n      jump\t// in\n    tag_434:\n        /* \"#utility.yul\":19997:20001   */\n      dup3\n        /* \"#utility.yul\":19990:20095   */\n      sstore\n        /* \"#utility.yul\":19908:20101   */\n      pop\n        /* \"#utility.yul\":19832:20101   */\n      pop\n      pop\n      pop\n      jump\t// out\n        /* \"#utility.yul\":20107:20180   */\n    tag_222:\n        /* \"#utility.yul\":20152:20155   */\n      0x00\n        /* \"#utility.yul\":20107:20180   */\n      swap1\n      jump\t// out\n        /* \"#utility.yul\":20186:20375   */\n    tag_223:\n        /* \"#utility.yul\":20263:20295   */\n      tag_438\n      tag_222\n      jump\t// in\n    tag_438:\n        /* \"#utility.yul\":20304:20369   */\n      tag_439\n        /* \"#utility.yul\":20362:20368   */\n      dup2\n        /* \"#utility.yul\":20354:20360   */\n      dup5\n        /* \"#utility.yul\":20348:20352   */\n      dup5\n        /* \"#utility.yul\":20304:20369   */\n      tag_221\n      jump\t// in\n    tag_439:\n        /* \"#utility.yul\":20239:20375   */\n      pop\n        /* \"#utility.yul\":20186:20375   */\n      pop\n      pop\n      jump\t// out\n        /* \"#utility.yul\":20381:20567   */\n    tag_224:\n        /* \"#utility.yul\":20441:20561   */\n    tag_441:\n        /* \"#utility.yul\":20458:20461   */\n      dup2\n        /* \"#utility.yul\":20451:20456   */\n      dup2\n        /* \"#utility.yul\":20448:20462   */\n      lt\n        /* \"#utility.yul\":20441:20561   */\n      iszero\n      tag_443\n      jumpi\n        /* \"#utility.yul\":20512:20551   */\n      tag_444\n        /* \"#utility.yul\":20549:20550   */\n      0x00\n        /* \"#utility.yul\":20542:20547   */\n      dup3\n        /* \"#utility.yul\":20512:20551   */\n      tag_223\n      jump\t// in\n    tag_444:\n        /* \"#utility.yul\":20485:20486   */\n      0x01\n        /* \"#utility.yul\":20478:20483   */\n      dup2\n        /* \"#utility.yul\":20474:20487   */\n      add\n        /* \"#utility.yul\":20465:20487   */\n      swap1\n      pop\n        /* \"#utility.yul\":20441:20561   */\n      jump(tag_441)\n    tag_443:\n        /* \"#utility.yul\":20381:20567   */\n      pop\n      pop\n      jump\t// out\n        /* \"#utility.yul\":20573:21116   */\n    tag_225:\n        /* \"#utility.yul\":20674:20676   */\n      0x1f\n        /* \"#utility.yul\":20669:20672   */\n      dup3\n        /* \"#utility.yul\":20666:20677   */\n      gt\n        /* \"#utility.yul\":20663:21109   */\n      iszero\n      tag_446\n      jumpi\n        /* \"#utility.yul\":20708:20746   */\n      tag_447\n        /* \"#utility.yul\":20740:20745   */\n      dup2\n        /* \"#utility.yul\":20708:20746   */\n      tag_214\n      jump\t// in\n    tag_447:\n        /* \"#utility.yul\":20792:20821   */\n      tag_448\n        /* \"#utility.yul\":20810:20820   */\n      dup5\n        /* \"#utility.yul\":20792:20821   */\n      tag_215\n      jump\t// in\n    tag_448:\n        /* \"#utility.yul\":20782:20790   */\n      dup2\n        /* \"#utility.yul\":20778:20822   */\n      add\n        /* \"#utility.yul\":20975:20977   */\n      0x20\n        /* \"#utility.yul\":20963:20973   */\n      dup6\n        /* \"#utility.yul\":20960:20978   */\n      lt\n        /* \"#utility.yul\":20957:21006   */\n      iszero\n      tag_449\n      jumpi\n        /* \"#utility.yul\":20996:21004   */\n      dup2\n        /* \"#utility.yul\":20981:21004   */\n      swap1\n      pop\n        /* \"#utility.yul\":20957:21006   */\n    tag_449:\n        /* \"#utility.yul\":21019:21099   */\n      tag_450\n        /* \"#utility.yul\":21075:21097   */\n      tag_451\n        /* \"#utility.yul\":21093:21096   */\n      dup6\n        /* \"#utility.yul\":21075:21097   */\n      tag_215\n      jump\t// in\n    tag_451:\n        /* \"#utility.yul\":21065:21073   */\n      dup4\n        /* \"#utility.yul\":21061:21098   */\n      add\n        /* \"#utility.yul\":21048:21059   */\n      dup3\n        /* \"#utility.yul\":21019:21099   */\n      tag_224\n      jump\t// in\n    tag_450:\n        /* \"#utility.yul\":20678:21109   */\n      pop\n      pop\n        /* \"#utility.yul\":20663:21109   */\n    tag_446:\n        /* \"#utility.yul\":20573:21116   */\n      pop\n      pop\n      pop\n      jump\t// out\n        /* \"#utility.yul\":21122:21239   */\n    tag_226:\n        /* \"#utility.yul\":21176:21184   */\n      0x00\n        /* \"#utility.yul\":21226:21231   */\n      dup3\n        /* \"#utility.yul\":21220:21224   */\n      dup3\n        /* \"#utility.yul\":21216:21232   */\n      shr\n        /* \"#utility.yul\":21195:21232   */\n      swap1\n      pop\n        /* \"#utility.yul\":21122:21239   */\n      swap3\n      swap2\n      pop\n      pop\n      jump\t// out\n        /* \"#utility.yul\":21245:21414   */\n    tag_227:\n        /* \"#utility.yul\":21289:21295   */\n      0x00\n        /* \"#utility.yul\":21322:21373   */\n      tag_454\n        /* \"#utility.yul\":21370:21371   */\n      0x00\n        /* \"#utility.yul\":21366:21372   */\n      not\n        /* \"#utility.yul\":21358:21363   */\n      dup5\n        /* \"#utility.yul\":21355:21356   */\n      0x08\n        /* \"#utility.yul\":21351:21364   */\n      mul\n        /* \"#utility.yul\":21322:21373   */\n      tag_226\n      jump\t// in\n    tag_454:\n        /* \"#utility.yul\":21318:21374   */\n      not\n        /* \"#utility.yul\":21403:21407   */\n      dup1\n        /* \"#utility.yul\":21397:21401   */\n      dup4\n        /* \"#utility.yul\":21393:21408   */\n      and\n        /* \"#utility.yul\":21383:21408   */\n      swap2\n      pop\n        /* \"#utility.yul\":21296:21414   */\n      pop\n        /* \"#utility.yul\":21245:21414   */\n      swap3\n      swap2\n      pop\n      pop\n      jump\t// out\n        /* \"#utility.yul\":21419:21714   */\n    tag_228:\n        /* \"#utility.yul\":21495:21499   */\n      0x00\n        /* \"#utility.yul\":21641:21670   */\n      tag_456\n        /* \"#utility.yul\":21666:21669   */\n      dup4\n        /* \"#utility.yul\":21660:21664   */\n      dup4\n        /* \"#utility.yul\":21641:21670   */\n      tag_227\n      jump\t// in\n    tag_456:\n        /* \"#utility.yul\":21633:21670   */\n      swap2\n      pop\n        /* \"#utility.yul\":21703:21706   */\n      dup3\n        /* \"#utility.yul\":21700:21701   */\n      0x02\n        /* \"#utility.yul\":21696:21707   */\n      mul\n        /* \"#utility.yul\":21690:21694   */\n      dup3\n        /* \"#utility.yul\":21687:21708   */\n      or\n        /* \"#utility.yul\":21679:21708   */\n      swap1\n      pop\n        /* \"#utility.yul\":21419:21714   */\n      swap3\n      swap2\n      pop\n      pop\n      jump\t// out\n        /* \"#utility.yul\":21719:23114   */\n    tag_87:\n        /* \"#utility.yul\":21836:21873   */\n      tag_458\n        /* \"#utility.yul\":21869:21872   */\n      dup3\n        /* \"#utility.yul\":21836:21873   */\n      tag_192\n      jump\t// in\n    tag_458:\n        /* \"#utility.yul\":21938:21956   */\n      0xffffffffffffffff\n        /* \"#utility.yul\":21930:21936   */\n      dup2\n        /* \"#utility.yul\":21927:21957   */\n      gt\n        /* \"#utility.yul\":21924:21980   */\n      iszero\n      tag_459\n      jumpi\n        /* \"#utility.yul\":21960:21978   */\n      tag_460\n      tag_180\n      jump\t// in\n    tag_460:\n        /* \"#utility.yul\":21924:21980   */\n    tag_459:\n        /* \"#utility.yul\":22004:22042   */\n      tag_461\n        /* \"#utility.yul\":22036:22040   */\n      dup3\n        /* \"#utility.yul\":22030:22041   */\n      sload\n        /* \"#utility.yul\":22004:22042   */\n      tag_93\n      jump\t// in\n    tag_461:\n        /* \"#utility.yul\":22089:22156   */\n      tag_462\n        /* \"#utility.yul\":22149:22155   */\n      dup3\n        /* \"#utility.yul\":22141:22147   */\n      dup3\n        /* \"#utility.yul\":22135:22139   */\n      dup6\n        /* \"#utility.yul\":22089:22156   */\n      tag_225\n      jump\t// in\n    tag_462:\n        /* \"#utility.yul\":22183:22184   */\n      0x00\n        /* \"#utility.yul\":22207:22211   */\n      0x20\n        /* \"#utility.yul\":22194:22211   */\n      swap1\n      pop\n        /* \"#utility.yul\":22239:22241   */\n      0x1f\n        /* \"#utility.yul\":22231:22237   */\n      dup4\n        /* \"#utility.yul\":22228:22242   */\n      gt\n        /* \"#utility.yul\":22256:22257   */\n      0x01\n        /* \"#utility.yul\":22251:22869   */\n      dup2\n      eq\n      tag_464\n      jumpi\n        /* \"#utility.yul\":22913:22914   */\n      0x00\n        /* \"#utility.yul\":22930:22936   */\n      dup5\n        /* \"#utility.yul\":22927:23004   */\n      iszero\n      tag_465\n      jumpi\n        /* \"#utility.yul\":22979:22988   */\n      dup3\n        /* \"#utility.yul\":22974:22977   */\n      dup8\n        /* \"#utility.yul\":22970:22989   */\n      add\n        /* \"#utility.yul\":22964:22990   */\n      mload\n        /* \"#utility.yul\":22955:22990   */\n      swap1\n      pop\n        /* \"#utility.yul\":22927:23004   */\n    tag_465:\n        /* \"#utility.yul\":23030:23097   */\n      tag_466\n        /* \"#utility.yul\":23090:23096   */\n      dup6\n        /* \"#utility.yul\":23083:23088   */\n      dup3\n        /* \"#utility.yul\":23030:23097   */\n      tag_228\n      jump\t// in\n    tag_466:\n        /* \"#utility.yul\":23024:23028   */\n      dup7\n        /* \"#utility.yul\":23017:23098   */\n      sstore\n        /* \"#utility.yul\":22886:23108   */\n      pop\n        /* \"#utility.yul\":22221:23108   */\n      jump(tag_463)\n        /* \"#utility.yul\":22251:22869   */\n    tag_464:\n        /* \"#utility.yul\":22303:22307   */\n      0x1f\n        /* \"#utility.yul\":22299:22308   */\n      not\n        /* \"#utility.yul\":22291:22297   */\n      dup5\n        /* \"#utility.yul\":22287:22309   */\n      and\n        /* \"#utility.yul\":22337:22374   */\n      tag_467\n        /* \"#utility.yul\":22369:22373   */\n      dup7\n        /* \"#utility.yul\":22337:22374   */\n      tag_214\n      jump\t// in\n    tag_467:\n        /* \"#utility.yul\":22396:22397   */\n      0x00\n        /* \"#utility.yul\":22410:22618   */\n    tag_468:\n        /* \"#utility.yul\":22424:22431   */\n      dup3\n        /* \"#utility.yul\":22421:22422   */\n      dup2\n        /* \"#utility.yul\":22418:22432   */\n      lt\n        /* \"#utility.yul\":22410:22618   */\n      iszero\n      tag_470\n      jumpi\n        /* \"#utility.yul\":22503:22512   */\n      dup5\n        /* \"#utility.yul\":22498:22501   */\n      dup10\n        /* \"#utility.yul\":22494:22513   */\n      add\n        /* \"#utility.yul\":22488:22514   */\n      mload\n        /* \"#utility.yul\":22480:22486   */\n      dup3\n        /* \"#utility.yul\":22473:22515   */\n      sstore\n        /* \"#utility.yul\":22554:22555   */\n      0x01\n        /* \"#utility.yul\":22546:22552   */\n      dup3\n        /* \"#utility.yul\":22542:22556   */\n      add\n        /* \"#utility.yul\":22532:22556   */\n      swap2\n      pop\n        /* \"#utility.yul\":22601:22603   */\n      0x20\n        /* \"#utility.yul\":22590:22599   */\n      dup6\n        /* \"#utility.yul\":22586:22604   */\n      add\n        /* \"#utility.yul\":22573:22604   */\n      swap5\n      pop\n        /* \"#utility.yul\":22447:22451   */\n      0x20\n        /* \"#utility.yul\":22444:22445   */\n      dup2\n        /* \"#utility.yul\":22440:22452   */\n      add\n        /* \"#utility.yul\":22435:22452   */\n      swap1\n      pop\n        /* \"#utility.yul\":22410:22618   */\n      jump(tag_468)\n    tag_470:\n        /* \"#utility.yul\":22646:22652   */\n      dup7\n        /* \"#utility.yul\":22637:22644   */\n      dup4\n        /* \"#utility.yul\":22634:22653   */\n      lt\n        /* \"#utility.yul\":22631:22810   */\n      iszero\n      tag_471\n      jumpi\n        /* \"#utility.yul\":22704:22713   */\n      dup5\n        /* \"#utility.yul\":22699:22702   */\n      dup10\n        /* \"#utility.yul\":22695:22714   */\n      add\n        /* \"#utility.yul\":22689:22715   */\n      mload\n        /* \"#utility.yul\":22747:22795   */\n      tag_472\n        /* \"#utility.yul\":22789:22793   */\n      0x1f\n        /* \"#utility.yul\":22781:22787   */\n      dup10\n        /* \"#utility.yul\":22777:22794   */\n      and\n        /* \"#utility.yul\":22766:22775   */\n      dup3\n        /* \"#utility.yul\":22747:22795   */\n      tag_227\n      jump\t// in\n    tag_472:\n        /* \"#utility.yul\":22739:22745   */\n      dup4\n        /* \"#utility.yul\":22732:22796   */\n      sstore\n        /* \"#utility.yul\":22654:22810   */\n      pop\n        /* \"#utility.yul\":22631:22810   */\n    tag_471:\n        /* \"#utility.yul\":22856:22857   */\n      0x01\n        /* \"#utility.yul\":22852:22853   */\n      0x02\n        /* \"#utility.yul\":22844:22850   */\n      dup9\n        /* \"#utility.yul\":22840:22854   */\n      mul\n        /* \"#utility.yul\":22836:22858   */\n      add\n        /* \"#utility.yul\":22830:22834   */\n      dup9\n        /* \"#utility.yul\":22823:22859   */\n      sstore\n        /* \"#utility.yul\":22258:22869   */\n      pop\n      pop\n      pop\n        /* \"#utility.yul\":22221:23108   */\n    tag_463:\n      pop\n        /* \"#utility.yul\":21811:23114   */\n      pop\n      pop\n      pop\n        /* \"#utility.yul\":21719:23114   */\n      pop\n      pop\n      jump\t// out\n        /* \"#utility.yul\":23120:23353   */\n    tag_113:\n        /* \"#utility.yul\":23159:23162   */\n      0x00\n        /* \"#utility.yul\":23182:23206   */\n      tag_474\n        /* \"#utility.yul\":23200:23205   */\n      dup3\n        /* \"#utility.yul\":23182:23206   */\n      tag_174\n      jump\t// in\n    tag_474:\n        /* \"#utility.yul\":23173:23206   */\n      swap2\n      pop\n        /* \"#utility.yul\":23228:23294   */\n      0xffffffffffffffffffffffffffffffffffffffffffffffffffffffffffffffff\n        /* \"#utility.yul\":23221:23226   */\n      dup3\n        /* \"#utility.yul\":23218:23295   */\n      sub\n        /* \"#utility.yul\":23215:23318   */\n      tag_475\n      jumpi\n        /* \"#utility.yul\":23298:23316   */\n      tag_476\n      tag_212\n      jump\t// in\n    tag_476:\n        /* \"#utility.yul\":23215:23318   */\n    tag_475:\n        /* \"#utility.yul\":23345:23346   */\n      0x01\n        /* \"#utility.yul\":23338:23343   */\n      dup3\n        /* \"#utility.yul\":23334:23347   */\n      add\n        /* \"#utility.yul\":23327:23347   */\n      swap1\n      pop\n        /* \"#utility.yul\":23120:23353   */\n      swap2\n      swap1\n      pop\n      jump\t// out\n\n    auxdata: 0xa2646970667358221220442229301c01a42da449e2ccf063a221910df8ac6c3c076585fbad7c6629bbc264736f6c63430008160033\n}\n",
				"bytecode": {
					"linkReferences": {},
					"object": "60806040525f6001555f6002555f60035534801561001b575f80fd5b50335f806101000a81548173ffffffffffffffffffffffffffffffffffffffff021916908373ffffffffffffffffffffffffffffffffffffffff160217905550611b9e806100685f395ff3fe608060405234801561000f575f80fd5b50600436106100e8575f3560e01c8063bd8247bf1161008a578063d5cfcb0611610064578063d5cfcb061461025f578063db2f491214610292578063dcd0c2b2146102ae578063eddf3774146102ca576100e8565b8063bd8247bf146101db578063cc7fa2201461020e578063ce606ee014610241576100e8565b806340dad759116100c657806340dad75914610140578063462160981461017357806375f495291461018f578063791264ad146101ab576100e8565b806305dfea94146100ec5780631bc2fced1461010857806332473b8514610124575b5f80fd5b61010660048036038101906101019190610f91565b6102fd565b005b610122600480360381019061011d9190611165565b61031a565b005b61013e600480360381019061013991906111d1565b610403565b005b61015a6004803603810190610155919061122b565b61044b565b60405161016a94939291906113e2565b60405180910390f35b61018d60048036038101906101889190611433565b610608565b005b6101a960048036038101906101a491906114d7565b6106c9565b005b6101c560048036038101906101c091906115a2565b61077e565b6040516101d29190611684565b60405180910390f35b6101f560048036038101906101f091906115a2565b61082a565b60405161020594939291906113e2565b60405180910390f35b6102286004803603810190610223919061122b565b610889565b60405161023894939291906116a4565b60405180910390f35b610249610a8d565b604051610256919061170b565b60405180910390f35b6102796004803603810190610274919061122b565b610ab0565b6040516102899493929190611724565b60405180910390f35b6102ac60048036038101906102a7919061177c565b610cb3565b005b6102c860048036038101906102c391906117ba565b610d12565b005b6102e460048036038101906102df919061122b565b610d90565b6040516102f494939291906113e2565b60405180910390f35b8060055f8481526020019081526020015f20600201819055505050565b5f600160025461032a9190611825565b90508060055f8381526020019081526020015f205f01819055508360055f8381526020019081526020015f2060010190816103659190611a52565b508260055f8381526020019081526020015f2060020181905550600160055f8381526020019081526020015f206006015f6101000a81548160ff0219169083151502179055508160055f8381526020019081526020015f206004015f6101000a81548173ffffffffffffffffffffffffffffffffffffffff021916908373ffffffffffffffffffffffffffffffffffffffff16021790555050505050565b60055f8381526020019081526020015f2060030181908060018154018082558091505060019003905f5260205f20015f9091909190915090816104469190611a52565b505050565b5f8060608060055f8681526020019081526020015f205f015460055f8781526020019081526020015f206002015460055f8881526020019081526020015f2060010160055f8981526020019081526020015f206003018180546104ad90611885565b80601f01602080910402602001604051908101604052809291908181526020018280546104d990611885565b80156105245780601f106104fb57610100808354040283529160200191610524565b820191905f5260205f20905b81548152906001019060200180831161050757829003601f168201915b5050505050915080805480602002602001604051908101604052809291908181526020015f905b828210156105f3578382905f5260205f2001805461056890611885565b80601f016020809104026020016040519081016040528092919081815260200182805461059490611885565b80156105df5780601f106105b6576101008083540402835291602001916105df565b820191905f5260205f20905b8154815290600101906020018083116105c257829003601f168201915b50505050508152602001906001019061054b565b50505050905093509350935093509193509193565b5f600180546106179190611825565b90508060045f8381526020019081526020015f205f01819055508360045f8381526020019081526020015f2060010190816106529190611a52565b508260045f8381526020019081526020015f2060020190816106749190611a52565b508160045f8381526020019081526020015f2060030190816106969190611a52565b50600160045f8381526020019081526020015f206004015f6101000a81548160ff02191690831515021790555050505050565b60035f8154809291906106db90611b21565b91905055508460065f8781526020019081526020015f205f01819055508360065f8781526020019081526020015f2060010190816107199190611a52565b508260065f8781526020019081526020015f20600201908161073b9190611a52565b508160065f8781526020019081526020015f20600301908161075d9190611a52565b508060065f8781526020019081526020015f20600401819055505050505050565b60605f60075f8473ffffffffffffffffffffffffffffffffffffffff1673ffffffffffffffffffffffffffffffffffffffff1681526020019081526020015f2054905060055f8281526020019081526020015f2060050180548060200260200160405190810160405280929190818152602001828054801561081d57602002820191905f5260205f20905b815481526020019060010190808311610809575b5050505050915050919050565b5f806060805f60075f8773ffffffffffffffffffffffffffffffffffffffff1673ffffffffffffffffffffffffffffffffffffffff1681526020019081526020015f205490506108798161044b565b9450945094509450509193509193565b60608060605f60065f8681526020019081526020015f2060010160065f8781526020019081526020015f2060020160065f8881526020019081526020015f2060030160065f8981526020019081526020015f20600401548380546108ec90611885565b80601f016020809104026020016040519081016040528092919081815260200182805461091890611885565b80156109635780601f1061093a57610100808354040283529160200191610963565b820191905f5260205f20905b81548152906001019060200180831161094657829003601f168201915b5050505050935082805461097690611885565b80601f01602080910402602001604051908101604052809291908181526020018280546109a290611885565b80156109ed5780601f106109c4576101008083540402835291602001916109ed565b820191905f5260205f20905b8154815290600101906020018083116109d057829003601f168201915b50505050509250818054610a0090611885565b80601f0160208091040260200160405190810160405280929190818152602001828054610a2c90611885565b8015610a775780601f10610a4e57610100808354040283529160200191610a77565b820191905f5260205f20905b815481529060010190602001808311610a5a57829003601f168201915b5050505050915093509350935093509193509193565b5f8054906101000a900473ffffffffffffffffffffffffffffffffffffffff1681565b5f606080606060045f8681526020019081526020015f205f015460045f8781526020019081526020015f2060010160045f8881526020019081526020015f2060020160045f8981526020019081526020015f20600301828054610b1290611885565b80601f0160208091040260200160405190810160405280929190818152602001828054610b3e90611885565b8015610b895780601f10610b6057610100808354040283529160200191610b89565b820191905f5260205f20905b815481529060010190602001808311610b6c57829003601f168201915b50505050509250818054610b9c90611885565b80601f0160208091040260200160405190810160405280929190818152602001828054610bc890611885565b8015610c135780601f10610bea57610100808354040283529160200191610c13565b820191905f5260205f20905b815481529060010190602001808311610bf657829003601f168201915b50505050509150808054610c2690611885565b80601f0160208091040260200160405190810160405280929190818152602001828054610c5290611885565b8015610c9d5780601f10610c7457610100808354040283529160200191610c9d565b820191905f5260205f20905b815481529060010190602001808311610c8057829003601f168201915b5050505050905093509350935093509193509193565b5f60075f8473ffffffffffffffffffffffffffffffffffffffff1673ffffffffffffffffffffffffffffffffffffffff1681526020019081526020015f205490508160055f8381526020019081526020015f2060020181905550505050565b5f60075f8373ffffffffffffffffffffffffffffffffffffffff1673ffffffffffffffffffffffffffffffffffffffff1681526020019081526020015f2054905060055f8281526020019081526020015f2060050183908060018154018082558091505060019003905f5260205f20015f9091909190915055505050565b5f8060608060055f8681526020019081526020015f205f015460055f8781526020019081526020015f206002015460055f8881526020019081526020015f2060010160055f8981526020019081526020015f20600301818054610df290611885565b80601f0160208091040260200160405190810160405280929190818152602001828054610e1e90611885565b8015610e695780601f10610e4057610100808354040283529160200191610e69565b820191905f5260205f20905b815481529060010190602001808311610e4c57829003601f168201915b5050505050915080805480602002602001604051908101604052809291908181526020015f905b82821015610f38578382905f5260205f20018054610ead90611885565b80601f0160208091040260200160405190810160405280929190818152602001828054610ed990611885565b8015610f245780601f10610efb57610100808354040283529160200191610f24565b820191905f5260205f20905b815481529060010190602001808311610f0757829003601f168201915b505050505081526020019060010190610e90565b50505050905093509350935093509193509193565b5f604051905090565b5f80fd5b5f80fd5b5f819050919050565b610f7081610f5e565b8114610f7a575f80fd5b50565b5f81359050610f8b81610f67565b92915050565b5f8060408385031215610fa757610fa6610f56565b5b5f610fb485828601610f7d565b9250506020610fc585828601610f7d565b9150509250929050565b5f80fd5b5f80fd5b5f601f19601f8301169050919050565b7f4e487b71000000000000000000000000000000000000000000000000000000005f52604160045260245ffd5b61101d82610fd7565b810181811067ffffffffffffffff8211171561103c5761103b610fe7565b5b80604052505050565b5f61104e610f4d565b905061105a8282611014565b919050565b5f67ffffffffffffffff82111561107957611078610fe7565b5b61108282610fd7565b9050602081019050919050565b828183375f83830152505050565b5f6110af6110aa8461105f565b611045565b9050828152602081018484840111156110cb576110ca610fd3565b5b6110d684828561108f565b509392505050565b5f82601f8301126110f2576110f1610fcf565b5b813561110284826020860161109d565b91505092915050565b5f73ffffffffffffffffffffffffffffffffffffffff82169050919050565b5f6111348261110b565b9050919050565b6111448161112a565b811461114e575f80fd5b50565b5f8135905061115f8161113b565b92915050565b5f805f6060848603121561117c5761117b610f56565b5b5f84013567ffffffffffffffff81111561119957611198610f5a565b5b6111a5868287016110de565b93505060206111b686828701610f7d565b92505060406111c786828701611151565b9150509250925092565b5f80604083850312156111e7576111e6610f56565b5b5f6111f485828601610f7d565b925050602083013567ffffffffffffffff81111561121557611214610f5a565b5b611221858286016110de565b9150509250929050565b5f602082840312156112405761123f610f56565b5b5f61124d84828501610f7d565b91505092915050565b61125f81610f5e565b82525050565b5f81519050919050565b5f82825260208201905092915050565b5f5b8381101561129c578082015181840152602081019050611281565b5f8484015250505050565b5f6112b182611265565b6112bb818561126f565b93506112cb81856020860161127f565b6112d481610fd7565b840191505092915050565b5f81519050919050565b5f82825260208201905092915050565b5f819050602082019050919050565b5f82825260208201905092915050565b5f61132282611265565b61132c8185611308565b935061133c81856020860161127f565b61134581610fd7565b840191505092915050565b5f61135b8383611318565b905092915050565b5f602082019050919050565b5f611379826112df565b61138381856112e9565b935083602082028501611395856112f9565b805f5b858110156113d057848403895281516113b18582611350565b94506113bc83611363565b925060208a01995050600181019050611398565b50829750879550505050505092915050565b5f6080820190506113f55f830187611256565b6114026020830186611256565b818103604083015261141481856112a7565b90508181036060830152611428818461136f565b905095945050505050565b5f805f6060848603121561144a57611449610f56565b5b5f84013567ffffffffffffffff81111561146757611466610f5a565b5b611473868287016110de565b935050602084013567ffffffffffffffff81111561149457611493610f5a565b5b6114a0868287016110de565b925050604084013567ffffffffffffffff8111156114c1576114c0610f5a565b5b6114cd868287016110de565b9150509250925092565b5f805f805f60a086880312156114f0576114ef610f56565b5b5f6114fd88828901610f7d565b955050602086013567ffffffffffffffff81111561151e5761151d610f5a565b5b61152a888289016110de565b945050604086013567ffffffffffffffff81111561154b5761154a610f5a565b5b611557888289016110de565b935050606086013567ffffffffffffffff81111561157857611577610f5a565b5b611584888289016110de565b925050608061159588828901610f7d565b9150509295509295909350565b5f602082840312156115b7576115b6610f56565b5b5f6115c484828501611151565b91505092915050565b5f81519050919050565b5f82825260208201905092915050565b5f819050602082019050919050565b6115ff81610f5e565b82525050565b5f61161083836115f6565b60208301905092915050565b5f602082019050919050565b5f611632826115cd565b61163c81856115d7565b9350611647836115e7565b805f5b8381101561167757815161165e8882611605565b97506116698361161c565b92505060018101905061164a565b5085935050505092915050565b5f6020820190508181035f83015261169c8184611628565b905092915050565b5f6080820190508181035f8301526116bc81876112a7565b905081810360208301526116d081866112a7565b905081810360408301526116e481856112a7565b90506116f36060830184611256565b95945050505050565b6117058161112a565b82525050565b5f60208201905061171e5f8301846116fc565b92915050565b5f6080820190506117375f830187611256565b818103602083015261174981866112a7565b9050818103604083015261175d81856112a7565b9050818103606083015261177181846112a7565b905095945050505050565b5f806040838503121561179257611791610f56565b5b5f61179f85828601611151565b92505060206117b085828601610f7d565b9150509250929050565b5f80604083850312156117d0576117cf610f56565b5b5f6117dd85828601610f7d565b92505060206117ee85828601611151565b9150509250929050565b7f4e487b71000000000000000000000000000000000000000000000000000000005f52601160045260245ffd5b5f61182f82610f5e565b915061183a83610f5e565b9250828201905080821115611852576118516117f8565b5b92915050565b7f4e487b71000000000000000000000000000000000000000000000000000000005f52602260045260245ffd5b5f600282049050600182168061189c57607f821691505b6020821081036118af576118ae611858565b5b50919050565b5f819050815f5260205f209050919050565b5f6020601f8301049050919050565b5f82821b905092915050565b5f600883026119117fffffffffffffffffffffffffffffffffffffffffffffffffffffffffffffffff826118d6565b61191b86836118d6565b95508019841693508086168417925050509392505050565b5f819050919050565b5f61195661195161194c84610f5e565b611933565b610f5e565b9050919050565b5f819050919050565b61196f8361193c565b61198361197b8261195d565b8484546118e2565b825550505050565b5f90565b61199761198b565b6119a2818484611966565b505050565b5b818110156119c5576119ba5f8261198f565b6001810190506119a8565b5050565b601f821115611a0a576119db816118b5565b6119e4846118c7565b810160208510156119f3578190505b611a076119ff856118c7565b8301826119a7565b50505b505050565b5f82821c905092915050565b5f611a2a5f1984600802611a0f565b1980831691505092915050565b5f611a428383611a1b565b9150826002028217905092915050565b611a5b82611265565b67ffffffffffffffff811115611a7457611a73610fe7565b5b611a7e8254611885565b611a898282856119c9565b5f60209050601f831160018114611aba575f8415611aa8578287015190505b611ab28582611a37565b865550611b19565b601f198416611ac8866118b5565b5f5b82811015611aef57848901518255600182019150602085019450602081019050611aca565b86831015611b0c5784890151611b08601f891682611a1b565b8355505b6001600288020188555050505b505050505050565b5f611b2b82610f5e565b91507fffffffffffffffffffffffffffffffffffffffffffffffffffffffffffffffff8203611b5d57611b5c6117f8565b5b60018201905091905056fea2646970667358221220442229301c01a42da449e2ccf063a221910df8ac6c3c076585fbad7c6629bbc264736f6c63430008160033",
					"opcodes": "PUSH1 0x80 PUSH1 0x40 MSTORE PUSH0 PUSH1 0x1 SSTORE PUSH0 PUSH1 0x2 SSTORE PUSH0 PUSH1 0x3 SSTORE CALLVALUE DUP1 ISZERO PUSH2 0x1B JUMPI PUSH0 DUP1 REVERT JUMPDEST POP CALLER PUSH0 DUP1 PUSH2 0x100 EXP DUP2 SLOAD DUP2 PUSH20 0xFFFFFFFFFFFFFFFFFFFFFFFFFFFFFFFFFFFFFFFF MUL NOT AND SWAP1 DUP4 PUSH20 0xFFFFFFFFFFFFFFFFFFFFFFFFFFFFFFFFFFFFFFFF AND MUL OR SWAP1 SSTORE POP PUSH2 0x1B9E DUP1 PUSH2 0x68 PUSH0 CODECOPY PUSH0 RETURN INVALID PUSH1 0x80 PUSH1 0x40 MSTORE CALLVALUE DUP1 ISZERO PUSH2 0xF JUMPI PUSH0 DUP1 REVERT JUMPDEST POP PUSH1 0x4 CALLDATASIZE LT PUSH2 0xE8 JUMPI PUSH0 CALLDATALOAD PUSH1 0xE0 SHR DUP1 PUSH4 0xBD8247BF GT PUSH2 0x8A JUMPI DUP1 PUSH4 0xD5CFCB06 GT PUSH2 0x64 JUMPI DUP1 PUSH4 0xD5CFCB06 EQ PUSH2 0x25F JUMPI DUP1 PUSH4 0xDB2F4912 EQ PUSH2 0x292 JUMPI DUP1 PUSH4 0xDCD0C2B2 EQ PUSH2 0x2AE JUMPI DUP1 PUSH4 0xEDDF3774 EQ PUSH2 0x2CA JUMPI PUSH2 0xE8 JUMP JUMPDEST DUP1 PUSH4 0xBD8247BF EQ PUSH2 0x1DB JUMPI DUP1 PUSH4 0xCC7FA220 EQ PUSH2 0x20E JUMPI DUP1 PUSH4 0xCE606EE0 EQ PUSH2 0x241 JUMPI PUSH2 0xE8 JUMP JUMPDEST DUP1 PUSH4 0x40DAD759 GT PUSH2 0xC6 JUMPI DUP1 PUSH4 0x40DAD759 EQ PUSH2 0x140 JUMPI DUP1 PUSH4 0x46216098 EQ PUSH2 0x173 JUMPI DUP1 PUSH4 0x75F49529 EQ PUSH2 0x18F JUMPI DUP1 PUSH4 0x791264AD EQ PUSH2 0x1AB JUMPI PUSH2 0xE8 JUMP JUMPDEST DUP1 PUSH4 0x5DFEA94 EQ PUSH2 0xEC JUMPI DUP1 PUSH4 0x1BC2FCED EQ PUSH2 0x108 JUMPI DUP1 PUSH4 0x32473B85 EQ PUSH2 0x124 JUMPI JUMPDEST PUSH0 DUP1 REVERT JUMPDEST PUSH2 0x106 PUSH1 0x4 DUP1 CALLDATASIZE SUB DUP2 ADD SWAP1 PUSH2 0x101 SWAP2 SWAP1 PUSH2 0xF91 JUMP JUMPDEST PUSH2 0x2FD JUMP JUMPDEST STOP JUMPDEST PUSH2 0x122 PUSH1 0x4 DUP1 CALLDATASIZE SUB DUP2 ADD SWAP1 PUSH2 0x11D SWAP2 SWAP1 PUSH2 0x1165 JUMP JUMPDEST PUSH2 0x31A JUMP JUMPDEST STOP JUMPDEST PUSH2 0x13E PUSH1 0x4 DUP1 CALLDATASIZE SUB DUP2 ADD SWAP1 PUSH2 0x139 SWAP2 SWAP1 PUSH2 0x11D1 JUMP JUMPDEST PUSH2 0x403 JUMP JUMPDEST STOP JUMPDEST PUSH2 0x15A PUSH1 0x4 DUP1 CALLDATASIZE SUB DUP2 ADD SWAP1 PUSH2 0x155 SWAP2 SWAP1 PUSH2 0x122B JUMP JUMPDEST PUSH2 0x44B JUMP JUMPDEST PUSH1 0x40 MLOAD PUSH2 0x16A SWAP5 SWAP4 SWAP3 SWAP2 SWAP1 PUSH2 0x13E2 JUMP JUMPDEST PUSH1 0x40 MLOAD DUP1 SWAP2 SUB SWAP1 RETURN JUMPDEST PUSH2 0x18D PUSH1 0x4 DUP1 CALLDATASIZE SUB DUP2 ADD SWAP1 PUSH2 0x188 SWAP2 SWAP1 PUSH2 0x1433 JUMP JUMPDEST PUSH2 0x608 JUMP JUMPDEST STOP JUMPDEST PUSH2 0x1A9 PUSH1 0x4 DUP1 CALLDATASIZE SUB DUP2 ADD SWAP1 PUSH2 0x1A4 SWAP2 SWAP1 PUSH2 0x14D7 JUMP JUMPDEST PUSH2 0x6C9 JUMP JUMPDEST STOP JUMPDEST PUSH2 0x1C5 PUSH1 0x4 DUP1 CALLDATASIZE SUB DUP2 ADD SWAP1 PUSH2 0x1C0 SWAP2 SWAP1 PUSH2 0x15A2 JUMP JUMPDEST PUSH2 0x77E JUMP JUMPDEST PUSH1 0x40 MLOAD PUSH2 0x1D2 SWAP2 SWAP1 PUSH2 0x1684 JUMP JUMPDEST PUSH1 0x40 MLOAD DUP1 SWAP2 SUB SWAP1 RETURN JUMPDEST PUSH2 0x1F5 PUSH1 0x4 DUP1 CALLDATASIZE SUB DUP2 ADD SWAP1 PUSH2 0x1F0 SWAP2 SWAP1 PUSH2 0x15A2 JUMP JUMPDEST PUSH2 0x82A JUMP JUMPDEST PUSH1 0x40 MLOAD PUSH2 0x205 SWAP5 SWAP4 SWAP3 SWAP2 SWAP1 PUSH2 0x13E2 JUMP JUMPDEST PUSH1 0x40 MLOAD DUP1 SWAP2 SUB SWAP1 RETURN JUMPDEST PUSH2 0x228 PUSH1 0x4 DUP1 CALLDATASIZE SUB DUP2 ADD SWAP1 PUSH2 0x223 SWAP2 SWAP1 PUSH2 0x122B JUMP JUMPDEST PUSH2 0x889 JUMP JUMPDEST PUSH1 0x40 MLOAD PUSH2 0x238 SWAP5 SWAP4 SWAP3 SWAP2 SWAP1 PUSH2 0x16A4 JUMP JUMPDEST PUSH1 0x40 MLOAD DUP1 SWAP2 SUB SWAP1 RETURN JUMPDEST PUSH2 0x249 PUSH2 0xA8D JUMP JUMPDEST PUSH1 0x40 MLOAD PUSH2 0x256 SWAP2 SWAP1 PUSH2 0x170B JUMP JUMPDEST PUSH1 0x40 MLOAD DUP1 SWAP2 SUB SWAP1 RETURN JUMPDEST PUSH2 0x279 PUSH1 0x4 DUP1 CALLDATASIZE SUB DUP2 ADD SWAP1 PUSH2 0x274 SWAP2 SWAP1 PUSH2 0x122B JUMP JUMPDEST PUSH2 0xAB0 JUMP JUMPDEST PUSH1 0x40 MLOAD PUSH2 0x289 SWAP5 SWAP4 SWAP3 SWAP2 SWAP1 PUSH2 0x1724 JUMP JUMPDEST PUSH1 0x40 MLOAD DUP1 SWAP2 SUB SWAP1 RETURN JUMPDEST PUSH2 0x2AC PUSH1 0x4 DUP1 CALLDATASIZE SUB DUP2 ADD SWAP1 PUSH2 0x2A7 SWAP2 SWAP1 PUSH2 0x177C JUMP JUMPDEST PUSH2 0xCB3 JUMP JUMPDEST STOP JUMPDEST PUSH2 0x2C8 PUSH1 0x4 DUP1 CALLDATASIZE SUB DUP2 ADD SWAP1 PUSH2 0x2C3 SWAP2 SWAP1 PUSH2 0x17BA JUMP JUMPDEST PUSH2 0xD12 JUMP JUMPDEST STOP JUMPDEST PUSH2 0x2E4 PUSH1 0x4 DUP1 CALLDATASIZE SUB DUP2 ADD SWAP1 PUSH2 0x2DF SWAP2 SWAP1 PUSH2 0x122B JUMP JUMPDEST PUSH2 0xD90 JUMP JUMPDEST PUSH1 0x40 MLOAD PUSH2 0x2F4 SWAP5 SWAP4 SWAP3 SWAP2 SWAP1 PUSH2 0x13E2 JUMP JUMPDEST PUSH1 0x40 MLOAD DUP1 SWAP2 SUB SWAP1 RETURN JUMPDEST DUP1 PUSH1 0x5 PUSH0 DUP5 DUP2 MSTORE PUSH1 0x20 ADD SWAP1 DUP2 MSTORE PUSH1 0x20 ADD PUSH0 KECCAK256 PUSH1 0x2 ADD DUP2 SWAP1 SSTORE POP POP POP JUMP JUMPDEST PUSH0 PUSH1 0x1 PUSH1 0x2 SLOAD PUSH2 0x32A SWAP2 SWAP1 PUSH2 0x1825 JUMP JUMPDEST SWAP1 POP DUP1 PUSH1 0x5 PUSH0 DUP4 DUP2 MSTORE PUSH1 0x20 ADD SWAP1 DUP2 MSTORE PUSH1 0x20 ADD PUSH0 KECCAK256 PUSH0 ADD DUP2 SWAP1 SSTORE POP DUP4 PUSH1 0x5 PUSH0 DUP4 DUP2 MSTORE PUSH1 0x20 ADD SWAP1 DUP2 MSTORE PUSH1 0x20 ADD PUSH0 KECCAK256 PUSH1 0x1 ADD SWAP1 DUP2 PUSH2 0x365 SWAP2 SWAP1 PUSH2 0x1A52 JUMP JUMPDEST POP DUP3 PUSH1 0x5 PUSH0 DUP4 DUP2 MSTORE PUSH1 0x20 ADD SWAP1 DUP2 MSTORE PUSH1 0x20 ADD PUSH0 KECCAK256 PUSH1 0x2 ADD DUP2 SWAP1 SSTORE POP PUSH1 0x1 PUSH1 0x5 PUSH0 DUP4 DUP2 MSTORE PUSH1 0x20 ADD SWAP1 DUP2 MSTORE PUSH1 0x20 ADD PUSH0 KECCAK256 PUSH1 0x6 ADD PUSH0 PUSH2 0x100 EXP DUP2 SLOAD DUP2 PUSH1 0xFF MUL NOT AND SWAP1 DUP4 ISZERO ISZERO MUL OR SWAP1 SSTORE POP DUP2 PUSH1 0x5 PUSH0 DUP4 DUP2 MSTORE PUSH1 0x20 ADD SWAP1 DUP2 MSTORE PUSH1 0x20 ADD PUSH0 KECCAK256 PUSH1 0x4 ADD PUSH0 PUSH2 0x100 EXP DUP2 SLOAD DUP2 PUSH20 0xFFFFFFFFFFFFFFFFFFFFFFFFFFFFFFFFFFFFFFFF MUL NOT AND SWAP1 DUP4 PUSH20 0xFFFFFFFFFFFFFFFFFFFFFFFFFFFFFFFFFFFFFFFF AND MUL OR SWAP1 SSTORE POP POP POP POP POP JUMP JUMPDEST PUSH1 0x5 PUSH0 DUP4 DUP2 MSTORE PUSH1 0x20 ADD SWAP1 DUP2 MSTORE PUSH1 0x20 ADD PUSH0 KECCAK256 PUSH1 0x3 ADD DUP2 SWAP1 DUP1 PUSH1 0x1 DUP2 SLOAD ADD DUP1 DUP3 SSTORE DUP1 SWAP2 POP POP PUSH1 0x1 SWAP1 SUB SWAP1 PUSH0 MSTORE PUSH1 0x20 PUSH0 KECCAK256 ADD PUSH0 SWAP1 SWAP2 SWAP1 SWAP2 SWAP1 SWAP2 POP SWAP1 DUP2 PUSH2 0x446 SWAP2 SWAP1 PUSH2 0x1A52 JUMP JUMPDEST POP POP POP JUMP JUMPDEST PUSH0 DUP1 PUSH1 0x60 DUP1 PUSH1 0x5 PUSH0 DUP7 DUP2 MSTORE PUSH1 0x20 ADD SWAP1 DUP2 MSTORE PUSH1 0x20 ADD PUSH0 KECCAK256 PUSH0 ADD SLOAD PUSH1 0x5 PUSH0 DUP8 DUP2 MSTORE PUSH1 0x20 ADD SWAP1 DUP2 MSTORE PUSH1 0x20 ADD PUSH0 KECCAK256 PUSH1 0x2 ADD SLOAD PUSH1 0x5 PUSH0 DUP9 DUP2 MSTORE PUSH1 0x20 ADD SWAP1 DUP2 MSTORE PUSH1 0x20 ADD PUSH0 KECCAK256 PUSH1 0x1 ADD PUSH1 0x5 PUSH0 DUP10 DUP2 MSTORE PUSH1 0x20 ADD SWAP1 DUP2 MSTORE PUSH1 0x20 ADD PUSH0 KECCAK256 PUSH1 0x3 ADD DUP2 DUP1 SLOAD PUSH2 0x4AD SWAP1 PUSH2 0x1885 JUMP JUMPDEST DUP1 PUSH1 0x1F ADD PUSH1 0x20 DUP1 SWAP2 DIV MUL PUSH1 0x20 ADD PUSH1 0x40 MLOAD SWAP1 DUP2 ADD PUSH1 0x40 MSTORE DUP1 SWAP3 SWAP2 SWAP1 DUP2 DUP2 MSTORE PUSH1 0x20 ADD DUP3 DUP1 SLOAD PUSH2 0x4D9 SWAP1 PUSH2 0x1885 JUMP JUMPDEST DUP1 ISZERO PUSH2 0x524 JUMPI DUP1 PUSH1 0x1F LT PUSH2 0x4FB JUMPI PUSH2 0x100 DUP1 DUP4 SLOAD DIV MUL DUP4 MSTORE SWAP2 PUSH1 0x20 ADD SWAP2 PUSH2 0x524 JUMP JUMPDEST DUP3 ADD SWAP2 SWAP1 PUSH0 MSTORE PUSH1 0x20 PUSH0 KECCAK256 SWAP1 JUMPDEST DUP2 SLOAD DUP2 MSTORE SWAP1 PUSH1 0x1 ADD SWAP1 PUSH1 0x20 ADD DUP1 DUP4 GT PUSH2 0x507 JUMPI DUP3 SWAP1 SUB PUSH1 0x1F AND DUP3 ADD SWAP2 JUMPDEST POP POP POP POP POP SWAP2 POP DUP1 DUP1 SLOAD DUP1 PUSH1 0x20 MUL PUSH1 0x20 ADD PUSH1 0x40 MLOAD SWAP1 DUP2 ADD PUSH1 0x40 MSTORE DUP1 SWAP3 SWAP2 SWAP1 DUP2 DUP2 MSTORE PUSH1 0x20 ADD PUSH0 SWAP1 JUMPDEST DUP3 DUP3 LT ISZERO PUSH2 0x5F3 JUMPI DUP4 DUP3 SWAP1 PUSH0 MSTORE PUSH1 0x20 PUSH0 KECCAK256 ADD DUP1 SLOAD PUSH2 0x568 SWAP1 PUSH2 0x1885 JUMP JUMPDEST DUP1 PUSH1 0x1F ADD PUSH1 0x20 DUP1 SWAP2 DIV MUL PUSH1 0x20 ADD PUSH1 0x40 MLOAD SWAP1 DUP2 ADD PUSH1 0x40 MSTORE DUP1 SWAP3 SWAP2 SWAP1 DUP2 DUP2 MSTORE PUSH1 0x20 ADD DUP3 DUP1 SLOAD PUSH2 0x594 SWAP1 PUSH2 0x1885 JUMP JUMPDEST DUP1 ISZERO PUSH2 0x5DF JUMPI DUP1 PUSH1 0x1F LT PUSH2 0x5B6 JUMPI PUSH2 0x100 DUP1 DUP4 SLOAD DIV MUL DUP4 MSTORE SWAP2 PUSH1 0x20 ADD SWAP2 PUSH2 0x5DF JUMP JUMPDEST DUP3 ADD SWAP2 SWAP1 PUSH0 MSTORE PUSH1 0x20 PUSH0 KECCAK256 SWAP1 JUMPDEST DUP2 SLOAD DUP2 MSTORE SWAP1 PUSH1 0x1 ADD SWAP1 PUSH1 0x20 ADD DUP1 DUP4 GT PUSH2 0x5C2 JUMPI DUP3 SWAP1 SUB PUSH1 0x1F AND DUP3 ADD SWAP2 JUMPDEST POP POP POP POP POP DUP2 MSTORE PUSH1 0x20 ADD SWAP1 PUSH1 0x1 ADD SWAP1 PUSH2 0x54B JUMP JUMPDEST POP POP POP POP SWAP1 POP SWAP4 POP SWAP4 POP SWAP4 POP SWAP4 POP SWAP2 SWAP4 POP SWAP2 SWAP4 JUMP JUMPDEST PUSH0 PUSH1 0x1 DUP1 SLOAD PUSH2 0x617 SWAP2 SWAP1 PUSH2 0x1825 JUMP JUMPDEST SWAP1 POP DUP1 PUSH1 0x4 PUSH0 DUP4 DUP2 MSTORE PUSH1 0x20 ADD SWAP1 DUP2 MSTORE PUSH1 0x20 ADD PUSH0 KECCAK256 PUSH0 ADD DUP2 SWAP1 SSTORE POP DUP4 PUSH1 0x4 PUSH0 DUP4 DUP2 MSTORE PUSH1 0x20 ADD SWAP1 DUP2 MSTORE PUSH1 0x20 ADD PUSH0 KECCAK256 PUSH1 0x1 ADD SWAP1 DUP2 PUSH2 0x652 SWAP2 SWAP1 PUSH2 0x1A52 JUMP JUMPDEST POP DUP3 PUSH1 0x4 PUSH0 DUP4 DUP2 MSTORE PUSH1 0x20 ADD SWAP1 DUP2 MSTORE PUSH1 0x20 ADD PUSH0 KECCAK256 PUSH1 0x2 ADD SWAP1 DUP2 PUSH2 0x674 SWAP2 SWAP1 PUSH2 0x1A52 JUMP JUMPDEST POP DUP2 PUSH1 0x4 PUSH0 DUP4 DUP2 MSTORE PUSH1 0x20 ADD SWAP1 DUP2 MSTORE PUSH1 0x20 ADD PUSH0 KECCAK256 PUSH1 0x3 ADD SWAP1 DUP2 PUSH2 0x696 SWAP2 SWAP1 PUSH2 0x1A52 JUMP JUMPDEST POP PUSH1 0x1 PUSH1 0x4 PUSH0 DUP4 DUP2 MSTORE PUSH1 0x20 ADD SWAP1 DUP2 MSTORE PUSH1 0x20 ADD PUSH0 KECCAK256 PUSH1 0x4 ADD PUSH0 PUSH2 0x100 EXP DUP2 SLOAD DUP2 PUSH1 0xFF MUL NOT AND SWAP1 DUP4 ISZERO ISZERO MUL OR SWAP1 SSTORE POP POP POP POP POP JUMP JUMPDEST PUSH1 0x3 PUSH0 DUP2 SLOAD DUP1 SWAP3 SWAP2 SWAP1 PUSH2 0x6DB SWAP1 PUSH2 0x1B21 JUMP JUMPDEST SWAP2 SWAP1 POP SSTORE POP DUP5 PUSH1 0x6 PUSH0 DUP8 DUP2 MSTORE PUSH1 0x20 ADD SWAP1 DUP2 MSTORE PUSH1 0x20 ADD PUSH0 KECCAK256 PUSH0 ADD DUP2 SWAP1 SSTORE POP DUP4 PUSH1 0x6 PUSH0 DUP8 DUP2 MSTORE PUSH1 0x20 ADD SWAP1 DUP2 MSTORE PUSH1 0x20 ADD PUSH0 KECCAK256 PUSH1 0x1 ADD SWAP1 DUP2 PUSH2 0x719 SWAP2 SWAP1 PUSH2 0x1A52 JUMP JUMPDEST POP DUP3 PUSH1 0x6 PUSH0 DUP8 DUP2 MSTORE PUSH1 0x20 ADD SWAP1 DUP2 MSTORE PUSH1 0x20 ADD PUSH0 KECCAK256 PUSH1 0x2 ADD SWAP1 DUP2 PUSH2 0x73B SWAP2 SWAP1 PUSH2 0x1A52 JUMP JUMPDEST POP DUP2 PUSH1 0x6 PUSH0 DUP8 DUP2 MSTORE PUSH1 0x20 ADD SWAP1 DUP2 MSTORE PUSH1 0x20 ADD PUSH0 KECCAK256 PUSH1 0x3 ADD SWAP1 DUP2 PUSH2 0x75D SWAP2 SWAP1 PUSH2 0x1A52 JUMP JUMPDEST POP DUP1 PUSH1 0x6 PUSH0 DUP8 DUP2 MSTORE PUSH1 0x20 ADD SWAP1 DUP2 MSTORE PUSH1 0x20 ADD PUSH0 KECCAK256 PUSH1 0x4 ADD DUP2 SWAP1 SSTORE POP POP POP POP POP POP JUMP JUMPDEST PUSH1 0x60 PUSH0 PUSH1 0x7 PUSH0 DUP5 PUSH20 0xFFFFFFFFFFFFFFFFFFFFFFFFFFFFFFFFFFFFFFFF AND PUSH20 0xFFFFFFFFFFFFFFFFFFFFFFFFFFFFFFFFFFFFFFFF AND DUP2 MSTORE PUSH1 0x20 ADD SWAP1 DUP2 MSTORE PUSH1 0x20 ADD PUSH0 KECCAK256 SLOAD SWAP1 POP PUSH1 0x5 PUSH0 DUP3 DUP2 MSTORE PUSH1 0x20 ADD SWAP1 DUP2 MSTORE PUSH1 0x20 ADD PUSH0 KECCAK256 PUSH1 0x5 ADD DUP1 SLOAD DUP1 PUSH1 0x20 MUL PUSH1 0x20 ADD PUSH1 0x40 MLOAD SWAP1 DUP2 ADD PUSH1 0x40 MSTORE DUP1 SWAP3 SWAP2 SWAP1 DUP2 DUP2 MSTORE PUSH1 0x20 ADD DUP3 DUP1 SLOAD DUP1 ISZERO PUSH2 0x81D JUMPI PUSH1 0x20 MUL DUP3 ADD SWAP2 SWAP1 PUSH0 MSTORE PUSH1 0x20 PUSH0 KECCAK256 SWAP1 JUMPDEST DUP2 SLOAD DUP2 MSTORE PUSH1 0x20 ADD SWAP1 PUSH1 0x1 ADD SWAP1 DUP1 DUP4 GT PUSH2 0x809 JUMPI JUMPDEST POP POP POP POP POP SWAP2 POP POP SWAP2 SWAP1 POP JUMP JUMPDEST PUSH0 DUP1 PUSH1 0x60 DUP1 PUSH0 PUSH1 0x7 PUSH0 DUP8 PUSH20 0xFFFFFFFFFFFFFFFFFFFFFFFFFFFFFFFFFFFFFFFF AND PUSH20 0xFFFFFFFFFFFFFFFFFFFFFFFFFFFFFFFFFFFFFFFF AND DUP2 MSTORE PUSH1 0x20 ADD SWAP1 DUP2 MSTORE PUSH1 0x20 ADD PUSH0 KECCAK256 SLOAD SWAP1 POP PUSH2 0x879 DUP2 PUSH2 0x44B JUMP JUMPDEST SWAP5 POP SWAP5 POP SWAP5 POP SWAP5 POP POP SWAP2 SWAP4 POP SWAP2 SWAP4 JUMP JUMPDEST PUSH1 0x60 DUP1 PUSH1 0x60 PUSH0 PUSH1 0x6 PUSH0 DUP7 DUP2 MSTORE PUSH1 0x20 ADD SWAP1 DUP2 MSTORE PUSH1 0x20 ADD PUSH0 KECCAK256 PUSH1 0x1 ADD PUSH1 0x6 PUSH0 DUP8 DUP2 MSTORE PUSH1 0x20 ADD SWAP1 DUP2 MSTORE PUSH1 0x20 ADD PUSH0 KECCAK256 PUSH1 0x2 ADD PUSH1 0x6 PUSH0 DUP9 DUP2 MSTORE PUSH1 0x20 ADD SWAP1 DUP2 MSTORE PUSH1 0x20 ADD PUSH0 KECCAK256 PUSH1 0x3 ADD PUSH1 0x6 PUSH0 DUP10 DUP2 MSTORE PUSH1 0x20 ADD SWAP1 DUP2 MSTORE PUSH1 0x20 ADD PUSH0 KECCAK256 PUSH1 0x4 ADD SLOAD DUP4 DUP1 SLOAD PUSH2 0x8EC SWAP1 PUSH2 0x1885 JUMP JUMPDEST DUP1 PUSH1 0x1F ADD PUSH1 0x20 DUP1 SWAP2 DIV MUL PUSH1 0x20 ADD PUSH1 0x40 MLOAD SWAP1 DUP2 ADD PUSH1 0x40 MSTORE DUP1 SWAP3 SWAP2 SWAP1 DUP2 DUP2 MSTORE PUSH1 0x20 ADD DUP3 DUP1 SLOAD PUSH2 0x918 SWAP1 PUSH2 0x1885 JUMP JUMPDEST DUP1 ISZERO PUSH2 0x963 JUMPI DUP1 PUSH1 0x1F LT PUSH2 0x93A JUMPI PUSH2 0x100 DUP1 DUP4 SLOAD DIV MUL DUP4 MSTORE SWAP2 PUSH1 0x20 ADD SWAP2 PUSH2 0x963 JUMP JUMPDEST DUP3 ADD SWAP2 SWAP1 PUSH0 MSTORE PUSH1 0x20 PUSH0 KECCAK256 SWAP1 JUMPDEST DUP2 SLOAD DUP2 MSTORE SWAP1 PUSH1 0x1 ADD SWAP1 PUSH1 0x20 ADD DUP1 DUP4 GT PUSH2 0x946 JUMPI DUP3 SWAP1 SUB PUSH1 0x1F AND DUP3 ADD SWAP2 JUMPDEST POP POP POP POP POP SWAP4 POP DUP3 DUP1 SLOAD PUSH2 0x976 SWAP1 PUSH2 0x1885 JUMP JUMPDEST DUP1 PUSH1 0x1F ADD PUSH1 0x20 DUP1 SWAP2 DIV MUL PUSH1 0x20 ADD PUSH1 0x40 MLOAD SWAP1 DUP2 ADD PUSH1 0x40 MSTORE DUP1 SWAP3 SWAP2 SWAP1 DUP2 DUP2 MSTORE PUSH1 0x20 ADD DUP3 DUP1 SLOAD PUSH2 0x9A2 SWAP1 PUSH2 0x1885 JUMP JUMPDEST DUP1 ISZERO PUSH2 0x9ED JUMPI DUP1 PUSH1 0x1F LT PUSH2 0x9C4 JUMPI PUSH2 0x100 DUP1 DUP4 SLOAD DIV MUL DUP4 MSTORE SWAP2 PUSH1 0x20 ADD SWAP2 PUSH2 0x9ED JUMP JUMPDEST DUP3 ADD SWAP2 SWAP1 PUSH0 MSTORE PUSH1 0x20 PUSH0 KECCAK256 SWAP1 JUMPDEST DUP2 SLOAD DUP2 MSTORE SWAP1 PUSH1 0x1 ADD SWAP1 PUSH1 0x20 ADD DUP1 DUP4 GT PUSH2 0x9D0 JUMPI DUP3 SWAP1 SUB PUSH1 0x1F AND DUP3 ADD SWAP2 JUMPDEST POP POP POP POP POP SWAP3 POP DUP2 DUP1 SLOAD PUSH2 0xA00 SWAP1 PUSH2 0x1885 JUMP JUMPDEST DUP1 PUSH1 0x1F ADD PUSH1 0x20 DUP1 SWAP2 DIV MUL PUSH1 0x20 ADD PUSH1 0x40 MLOAD SWAP1 DUP2 ADD PUSH1 0x40 MSTORE DUP1 SWAP3 SWAP2 SWAP1 DUP2 DUP2 MSTORE PUSH1 0x20 ADD DUP3 DUP1 SLOAD PUSH2 0xA2C SWAP1 PUSH2 0x1885 JUMP JUMPDEST DUP1 ISZERO PUSH2 0xA77 JUMPI DUP1 PUSH1 0x1F LT PUSH2 0xA4E JUMPI PUSH2 0x100 DUP1 DUP4 SLOAD DIV MUL DUP4 MSTORE SWAP2 PUSH1 0x20 ADD SWAP2 PUSH2 0xA77 JUMP JUMPDEST DUP3 ADD SWAP2 SWAP1 PUSH0 MSTORE PUSH1 0x20 PUSH0 KECCAK256 SWAP1 JUMPDEST DUP2 SLOAD DUP2 MSTORE SWAP1 PUSH1 0x1 ADD SWAP1 PUSH1 0x20 ADD DUP1 DUP4 GT PUSH2 0xA5A JUMPI DUP3 SWAP1 SUB PUSH1 0x1F AND DUP3 ADD SWAP2 JUMPDEST POP POP POP POP POP SWAP2 POP SWAP4 POP SWAP4 POP SWAP4 POP SWAP4 POP SWAP2 SWAP4 POP SWAP2 SWAP4 JUMP JUMPDEST PUSH0 DUP1 SLOAD SWAP1 PUSH2 0x100 EXP SWAP1 DIV PUSH20 0xFFFFFFFFFFFFFFFFFFFFFFFFFFFFFFFFFFFFFFFF AND DUP2 JUMP JUMPDEST PUSH0 PUSH1 0x60 DUP1 PUSH1 0x60 PUSH1 0x4 PUSH0 DUP7 DUP2 MSTORE PUSH1 0x20 ADD SWAP1 DUP2 MSTORE PUSH1 0x20 ADD PUSH0 KECCAK256 PUSH0 ADD SLOAD PUSH1 0x4 PUSH0 DUP8 DUP2 MSTORE PUSH1 0x20 ADD SWAP1 DUP2 MSTORE PUSH1 0x20 ADD PUSH0 KECCAK256 PUSH1 0x1 ADD PUSH1 0x4 PUSH0 DUP9 DUP2 MSTORE PUSH1 0x20 ADD SWAP1 DUP2 MSTORE PUSH1 0x20 ADD PUSH0 KECCAK256 PUSH1 0x2 ADD PUSH1 0x4 PUSH0 DUP10 DUP2 MSTORE PUSH1 0x20 ADD SWAP1 DUP2 MSTORE PUSH1 0x20 ADD PUSH0 KECCAK256 PUSH1 0x3 ADD DUP3 DUP1 SLOAD PUSH2 0xB12 SWAP1 PUSH2 0x1885 JUMP JUMPDEST DUP1 PUSH1 0x1F ADD PUSH1 0x20 DUP1 SWAP2 DIV MUL PUSH1 0x20 ADD PUSH1 0x40 MLOAD SWAP1 DUP2 ADD PUSH1 0x40 MSTORE DUP1 SWAP3 SWAP2 SWAP1 DUP2 DUP2 MSTORE PUSH1 0x20 ADD DUP3 DUP1 SLOAD PUSH2 0xB3E SWAP1 PUSH2 0x1885 JUMP JUMPDEST DUP1 ISZERO PUSH2 0xB89 JUMPI DUP1 PUSH1 0x1F LT PUSH2 0xB60 JUMPI PUSH2 0x100 DUP1 DUP4 SLOAD DIV MUL DUP4 MSTORE SWAP2 PUSH1 0x20 ADD SWAP2 PUSH2 0xB89 JUMP JUMPDEST DUP3 ADD SWAP2 SWAP1 PUSH0 MSTORE PUSH1 0x20 PUSH0 KECCAK256 SWAP1 JUMPDEST DUP2 SLOAD DUP2 MSTORE SWAP1 PUSH1 0x1 ADD SWAP1 PUSH1 0x20 ADD DUP1 DUP4 GT PUSH2 0xB6C JUMPI DUP3 SWAP1 SUB PUSH1 0x1F AND DUP3 ADD SWAP2 JUMPDEST POP POP POP POP POP SWAP3 POP DUP2 DUP1 SLOAD PUSH2 0xB9C SWAP1 PUSH2 0x1885 JUMP JUMPDEST DUP1 PUSH1 0x1F ADD PUSH1 0x20 DUP1 SWAP2 DIV MUL PUSH1 0x20 ADD PUSH1 0x40 MLOAD SWAP1 DUP2 ADD PUSH1 0x40 MSTORE DUP1 SWAP3 SWAP2 SWAP1 DUP2 DUP2 MSTORE PUSH1 0x20 ADD DUP3 DUP1 SLOAD PUSH2 0xBC8 SWAP1 PUSH2 0x1885 JUMP JUMPDEST DUP1 ISZERO PUSH2 0xC13 JUMPI DUP1 PUSH1 0x1F LT PUSH2 0xBEA JUMPI PUSH2 0x100 DUP1 DUP4 SLOAD DIV MUL DUP4 MSTORE SWAP2 PUSH1 0x20 ADD SWAP2 PUSH2 0xC13 JUMP JUMPDEST DUP3 ADD SWAP2 SWAP1 PUSH0 MSTORE PUSH1 0x20 PUSH0 KECCAK256 SWAP1 JUMPDEST DUP2 SLOAD DUP2 MSTORE SWAP1 PUSH1 0x1 ADD SWAP1 PUSH1 0x20 ADD DUP1 DUP4 GT PUSH2 0xBF6 JUMPI DUP3 SWAP1 SUB PUSH1 0x1F AND DUP3 ADD SWAP2 JUMPDEST POP POP POP POP POP SWAP2 POP DUP1 DUP1 SLOAD PUSH2 0xC26 SWAP1 PUSH2 0x1885 JUMP JUMPDEST DUP1 PUSH1 0x1F ADD PUSH1 0x20 DUP1 SWAP2 DIV MUL PUSH1 0x20 ADD PUSH1 0x40 MLOAD SWAP1 DUP2 ADD PUSH1 0x40 MSTORE DUP1 SWAP3 SWAP2 SWAP1 DUP2 DUP2 MSTORE PUSH1 0x20 ADD DUP3 DUP1 SLOAD PUSH2 0xC52 SWAP1 PUSH2 0x1885 JUMP JUMPDEST DUP1 ISZERO PUSH2 0xC9D JUMPI DUP1 PUSH1 0x1F LT PUSH2 0xC74 JUMPI PUSH2 0x100 DUP1 DUP4 SLOAD DIV MUL DUP4 MSTORE SWAP2 PUSH1 0x20 ADD SWAP2 PUSH2 0xC9D JUMP JUMPDEST DUP3 ADD SWAP2 SWAP1 PUSH0 MSTORE PUSH1 0x20 PUSH0 KECCAK256 SWAP1 JUMPDEST DUP2 SLOAD DUP2 MSTORE SWAP1 PUSH1 0x1 ADD SWAP1 PUSH1 0x20 ADD DUP1 DUP4 GT PUSH2 0xC80 JUMPI DUP3 SWAP1 SUB PUSH1 0x1F AND DUP3 ADD SWAP2 JUMPDEST POP POP POP POP POP SWAP1 POP SWAP4 POP SWAP4 POP SWAP4 POP SWAP4 POP SWAP2 SWAP4 POP SWAP2 SWAP4 JUMP JUMPDEST PUSH0 PUSH1 0x7 PUSH0 DUP5 PUSH20 0xFFFFFFFFFFFFFFFFFFFFFFFFFFFFFFFFFFFFFFFF AND PUSH20 0xFFFFFFFFFFFFFFFFFFFFFFFFFFFFFFFFFFFFFFFF AND DUP2 MSTORE PUSH1 0x20 ADD SWAP1 DUP2 MSTORE PUSH1 0x20 ADD PUSH0 KECCAK256 SLOAD SWAP1 POP DUP2 PUSH1 0x5 PUSH0 DUP4 DUP2 MSTORE PUSH1 0x20 ADD SWAP1 DUP2 MSTORE PUSH1 0x20 ADD PUSH0 KECCAK256 PUSH1 0x2 ADD DUP2 SWAP1 SSTORE POP POP POP POP JUMP JUMPDEST PUSH0 PUSH1 0x7 PUSH0 DUP4 PUSH20 0xFFFFFFFFFFFFFFFFFFFFFFFFFFFFFFFFFFFFFFFF AND PUSH20 0xFFFFFFFFFFFFFFFFFFFFFFFFFFFFFFFFFFFFFFFF AND DUP2 MSTORE PUSH1 0x20 ADD SWAP1 DUP2 MSTORE PUSH1 0x20 ADD PUSH0 KECCAK256 SLOAD SWAP1 POP PUSH1 0x5 PUSH0 DUP3 DUP2 MSTORE PUSH1 0x20 ADD SWAP1 DUP2 MSTORE PUSH1 0x20 ADD PUSH0 KECCAK256 PUSH1 0x5 ADD DUP4 SWAP1 DUP1 PUSH1 0x1 DUP2 SLOAD ADD DUP1 DUP3 SSTORE DUP1 SWAP2 POP POP PUSH1 0x1 SWAP1 SUB SWAP1 PUSH0 MSTORE PUSH1 0x20 PUSH0 KECCAK256 ADD PUSH0 SWAP1 SWAP2 SWAP1 SWAP2 SWAP1 SWAP2 POP SSTORE POP POP POP JUMP JUMPDEST PUSH0 DUP1 PUSH1 0x60 DUP1 PUSH1 0x5 PUSH0 DUP7 DUP2 MSTORE PUSH1 0x20 ADD SWAP1 DUP2 MSTORE PUSH1 0x20 ADD PUSH0 KECCAK256 PUSH0 ADD SLOAD PUSH1 0x5 PUSH0 DUP8 DUP2 MSTORE PUSH1 0x20 ADD SWAP1 DUP2 MSTORE PUSH1 0x20 ADD PUSH0 KECCAK256 PUSH1 0x2 ADD SLOAD PUSH1 0x5 PUSH0 DUP9 DUP2 MSTORE PUSH1 0x20 ADD SWAP1 DUP2 MSTORE PUSH1 0x20 ADD PUSH0 KECCAK256 PUSH1 0x1 ADD PUSH1 0x5 PUSH0 DUP10 DUP2 MSTORE PUSH1 0x20 ADD SWAP1 DUP2 MSTORE PUSH1 0x20 ADD PUSH0 KECCAK256 PUSH1 0x3 ADD DUP2 DUP1 SLOAD PUSH2 0xDF2 SWAP1 PUSH2 0x1885 JUMP JUMPDEST DUP1 PUSH1 0x1F ADD PUSH1 0x20 DUP1 SWAP2 DIV MUL PUSH1 0x20 ADD PUSH1 0x40 MLOAD SWAP1 DUP2 ADD PUSH1 0x40 MSTORE DUP1 SWAP3 SWAP2 SWAP1 DUP2 DUP2 MSTORE PUSH1 0x20 ADD DUP3 DUP1 SLOAD PUSH2 0xE1E SWAP1 PUSH2 0x1885 JUMP JUMPDEST DUP1 ISZERO PUSH2 0xE69 JUMPI DUP1 PUSH1 0x1F LT PUSH2 0xE40 JUMPI PUSH2 0x100 DUP1 DUP4 SLOAD DIV MUL DUP4 MSTORE SWAP2 PUSH1 0x20 ADD SWAP2 PUSH2 0xE69 JUMP JUMPDEST DUP3 ADD SWAP2 SWAP1 PUSH0 MSTORE PUSH1 0x20 PUSH0 KECCAK256 SWAP1 JUMPDEST DUP2 SLOAD DUP2 MSTORE SWAP1 PUSH1 0x1 ADD SWAP1 PUSH1 0x20 ADD DUP1 DUP4 GT PUSH2 0xE4C JUMPI DUP3 SWAP1 SUB PUSH1 0x1F AND DUP3 ADD SWAP2 JUMPDEST POP POP POP POP POP SWAP2 POP DUP1 DUP1 SLOAD DUP1 PUSH1 0x20 MUL PUSH1 0x20 ADD PUSH1 0x40 MLOAD SWAP1 DUP2 ADD PUSH1 0x40 MSTORE DUP1 SWAP3 SWAP2 SWAP1 DUP2 DUP2 MSTORE PUSH1 0x20 ADD PUSH0 SWAP1 JUMPDEST DUP3 DUP3 LT ISZERO PUSH2 0xF38 JUMPI DUP4 DUP3 SWAP1 PUSH0 MSTORE PUSH1 0x20 PUSH0 KECCAK256 ADD DUP1 SLOAD PUSH2 0xEAD SWAP1 PUSH2 0x1885 JUMP JUMPDEST DUP1 PUSH1 0x1F ADD PUSH1 0x20 DUP1 SWAP2 DIV MUL PUSH1 0x20 ADD PUSH1 0x40 MLOAD SWAP1 DUP2 ADD PUSH1 0x40 MSTORE DUP1 SWAP3 SWAP2 SWAP1 DUP2 DUP2 MSTORE PUSH1 0x20 ADD DUP3 DUP1 SLOAD PUSH2 0xED9 SWAP1 PUSH2 0x1885 JUMP JUMPDEST DUP1 ISZERO PUSH2 0xF24 JUMPI DUP1 PUSH1 0x1F LT PUSH2 0xEFB JUMPI PUSH2 0x100 DUP1 DUP4 SLOAD DIV MUL DUP4 MSTORE SWAP2 PUSH1 0x20 ADD SWAP2 PUSH2 0xF24 JUMP JUMPDEST DUP3 ADD SWAP2 SWAP1 PUSH0 MSTORE PUSH1 0x20 PUSH0 KECCAK256 SWAP1 JUMPDEST DUP2 SLOAD DUP2 MSTORE SWAP1 PUSH1 0x1 ADD SWAP1 PUSH1 0x20 ADD DUP1 DUP4 GT PUSH2 0xF07 JUMPI DUP3 SWAP1 SUB PUSH1 0x1F AND DUP3 ADD SWAP2 JUMPDEST POP POP POP POP POP DUP2 MSTORE PUSH1 0x20 ADD SWAP1 PUSH1 0x1 ADD SWAP1 PUSH2 0xE90 JUMP JUMPDEST POP POP POP POP SWAP1 POP SWAP4 POP SWAP4 POP SWAP4 POP SWAP4 POP SWAP2 SWAP4 POP SWAP2 SWAP4 JUMP JUMPDEST PUSH0 PUSH1 0x40 MLOAD SWAP1 POP SWAP1 JUMP JUMPDEST PUSH0 DUP1 REVERT JUMPDEST PUSH0 DUP1 REVERT JUMPDEST PUSH0 DUP2 SWAP1 POP SWAP2 SWAP1 POP JUMP JUMPDEST PUSH2 0xF70 DUP2 PUSH2 0xF5E JUMP JUMPDEST DUP2 EQ PUSH2 0xF7A JUMPI PUSH0 DUP1 REVERT JUMPDEST POP JUMP JUMPDEST PUSH0 DUP2 CALLDATALOAD SWAP1 POP PUSH2 0xF8B DUP2 PUSH2 0xF67 JUMP JUMPDEST SWAP3 SWAP2 POP POP JUMP JUMPDEST PUSH0 DUP1 PUSH1 0x40 DUP4 DUP6 SUB SLT ISZERO PUSH2 0xFA7 JUMPI PUSH2 0xFA6 PUSH2 0xF56 JUMP JUMPDEST JUMPDEST PUSH0 PUSH2 0xFB4 DUP6 DUP3 DUP7 ADD PUSH2 0xF7D JUMP JUMPDEST SWAP3 POP POP PUSH1 0x20 PUSH2 0xFC5 DUP6 DUP3 DUP7 ADD PUSH2 0xF7D JUMP JUMPDEST SWAP2 POP POP SWAP3 POP SWAP3 SWAP1 POP JUMP JUMPDEST PUSH0 DUP1 REVERT JUMPDEST PUSH0 DUP1 REVERT JUMPDEST PUSH0 PUSH1 0x1F NOT PUSH1 0x1F DUP4 ADD AND SWAP1 POP SWAP2 SWAP1 POP JUMP JUMPDEST PUSH32 0x4E487B7100000000000000000000000000000000000000000000000000000000 PUSH0 MSTORE PUSH1 0x41 PUSH1 0x4 MSTORE PUSH1 0x24 PUSH0 REVERT JUMPDEST PUSH2 0x101D DUP3 PUSH2 0xFD7 JUMP JUMPDEST DUP2 ADD DUP2 DUP2 LT PUSH8 0xFFFFFFFFFFFFFFFF DUP3 GT OR ISZERO PUSH2 0x103C JUMPI PUSH2 0x103B PUSH2 0xFE7 JUMP JUMPDEST JUMPDEST DUP1 PUSH1 0x40 MSTORE POP POP POP JUMP JUMPDEST PUSH0 PUSH2 0x104E PUSH2 0xF4D JUMP JUMPDEST SWAP1 POP PUSH2 0x105A DUP3 DUP3 PUSH2 0x1014 JUMP JUMPDEST SWAP2 SWAP1 POP JUMP JUMPDEST PUSH0 PUSH8 0xFFFFFFFFFFFFFFFF DUP3 GT ISZERO PUSH2 0x1079 JUMPI PUSH2 0x1078 PUSH2 0xFE7 JUMP JUMPDEST JUMPDEST PUSH2 0x1082 DUP3 PUSH2 0xFD7 JUMP JUMPDEST SWAP1 POP PUSH1 0x20 DUP2 ADD SWAP1 POP SWAP2 SWAP1 POP JUMP JUMPDEST DUP3 DUP2 DUP4 CALLDATACOPY PUSH0 DUP4 DUP4 ADD MSTORE POP POP POP JUMP JUMPDEST PUSH0 PUSH2 0x10AF PUSH2 0x10AA DUP5 PUSH2 0x105F JUMP JUMPDEST PUSH2 0x1045 JUMP JUMPDEST SWAP1 POP DUP3 DUP2 MSTORE PUSH1 0x20 DUP2 ADD DUP5 DUP5 DUP5 ADD GT ISZERO PUSH2 0x10CB JUMPI PUSH2 0x10CA PUSH2 0xFD3 JUMP JUMPDEST JUMPDEST PUSH2 0x10D6 DUP5 DUP3 DUP6 PUSH2 0x108F JUMP JUMPDEST POP SWAP4 SWAP3 POP POP POP JUMP JUMPDEST PUSH0 DUP3 PUSH1 0x1F DUP4 ADD SLT PUSH2 0x10F2 JUMPI PUSH2 0x10F1 PUSH2 0xFCF JUMP JUMPDEST JUMPDEST DUP2 CALLDATALOAD PUSH2 0x1102 DUP5 DUP3 PUSH1 0x20 DUP7 ADD PUSH2 0x109D JUMP JUMPDEST SWAP2 POP POP SWAP3 SWAP2 POP POP JUMP JUMPDEST PUSH0 PUSH20 0xFFFFFFFFFFFFFFFFFFFFFFFFFFFFFFFFFFFFFFFF DUP3 AND SWAP1 POP SWAP2 SWAP1 POP JUMP JUMPDEST PUSH0 PUSH2 0x1134 DUP3 PUSH2 0x110B JUMP JUMPDEST SWAP1 POP SWAP2 SWAP1 POP JUMP JUMPDEST PUSH2 0x1144 DUP2 PUSH2 0x112A JUMP JUMPDEST DUP2 EQ PUSH2 0x114E JUMPI PUSH0 DUP1 REVERT JUMPDEST POP JUMP JUMPDEST PUSH0 DUP2 CALLDATALOAD SWAP1 POP PUSH2 0x115F DUP2 PUSH2 0x113B JUMP JUMPDEST SWAP3 SWAP2 POP POP JUMP JUMPDEST PUSH0 DUP1 PUSH0 PUSH1 0x60 DUP5 DUP7 SUB SLT ISZERO PUSH2 0x117C JUMPI PUSH2 0x117B PUSH2 0xF56 JUMP JUMPDEST JUMPDEST PUSH0 DUP5 ADD CALLDATALOAD PUSH8 0xFFFFFFFFFFFFFFFF DUP2 GT ISZERO PUSH2 0x1199 JUMPI PUSH2 0x1198 PUSH2 0xF5A JUMP JUMPDEST JUMPDEST PUSH2 0x11A5 DUP7 DUP3 DUP8 ADD PUSH2 0x10DE JUMP JUMPDEST SWAP4 POP POP PUSH1 0x20 PUSH2 0x11B6 DUP7 DUP3 DUP8 ADD PUSH2 0xF7D JUMP JUMPDEST SWAP3 POP POP PUSH1 0x40 PUSH2 0x11C7 DUP7 DUP3 DUP8 ADD PUSH2 0x1151 JUMP JUMPDEST SWAP2 POP POP SWAP3 POP SWAP3 POP SWAP3 JUMP JUMPDEST PUSH0 DUP1 PUSH1 0x40 DUP4 DUP6 SUB SLT ISZERO PUSH2 0x11E7 JUMPI PUSH2 0x11E6 PUSH2 0xF56 JUMP JUMPDEST JUMPDEST PUSH0 PUSH2 0x11F4 DUP6 DUP3 DUP7 ADD PUSH2 0xF7D JUMP JUMPDEST SWAP3 POP POP PUSH1 0x20 DUP4 ADD CALLDATALOAD PUSH8 0xFFFFFFFFFFFFFFFF DUP2 GT ISZERO PUSH2 0x1215 JUMPI PUSH2 0x1214 PUSH2 0xF5A JUMP JUMPDEST JUMPDEST PUSH2 0x1221 DUP6 DUP3 DUP7 ADD PUSH2 0x10DE JUMP JUMPDEST SWAP2 POP POP SWAP3 POP SWAP3 SWAP1 POP JUMP JUMPDEST PUSH0 PUSH1 0x20 DUP3 DUP5 SUB SLT ISZERO PUSH2 0x1240 JUMPI PUSH2 0x123F PUSH2 0xF56 JUMP JUMPDEST JUMPDEST PUSH0 PUSH2 0x124D DUP5 DUP3 DUP6 ADD PUSH2 0xF7D JUMP JUMPDEST SWAP2 POP POP SWAP3 SWAP2 POP POP JUMP JUMPDEST PUSH2 0x125F DUP2 PUSH2 0xF5E JUMP JUMPDEST DUP3 MSTORE POP POP JUMP JUMPDEST PUSH0 DUP2 MLOAD SWAP1 POP SWAP2 SWAP1 POP JUMP JUMPDEST PUSH0 DUP3 DUP3 MSTORE PUSH1 0x20 DUP3 ADD SWAP1 POP SWAP3 SWAP2 POP POP JUMP JUMPDEST PUSH0 JUMPDEST DUP4 DUP2 LT ISZERO PUSH2 0x129C JUMPI DUP1 DUP3 ADD MLOAD DUP2 DUP5 ADD MSTORE PUSH1 0x20 DUP2 ADD SWAP1 POP PUSH2 0x1281 JUMP JUMPDEST PUSH0 DUP5 DUP5 ADD MSTORE POP POP POP POP JUMP JUMPDEST PUSH0 PUSH2 0x12B1 DUP3 PUSH2 0x1265 JUMP JUMPDEST PUSH2 0x12BB DUP2 DUP6 PUSH2 0x126F JUMP JUMPDEST SWAP4 POP PUSH2 0x12CB DUP2 DUP6 PUSH1 0x20 DUP7 ADD PUSH2 0x127F JUMP JUMPDEST PUSH2 0x12D4 DUP2 PUSH2 0xFD7 JUMP JUMPDEST DUP5 ADD SWAP2 POP POP SWAP3 SWAP2 POP POP JUMP JUMPDEST PUSH0 DUP2 MLOAD SWAP1 POP SWAP2 SWAP1 POP JUMP JUMPDEST PUSH0 DUP3 DUP3 MSTORE PUSH1 0x20 DUP3 ADD SWAP1 POP SWAP3 SWAP2 POP POP JUMP JUMPDEST PUSH0 DUP2 SWAP1 POP PUSH1 0x20 DUP3 ADD SWAP1 POP SWAP2 SWAP1 POP JUMP JUMPDEST PUSH0 DUP3 DUP3 MSTORE PUSH1 0x20 DUP3 ADD SWAP1 POP SWAP3 SWAP2 POP POP JUMP JUMPDEST PUSH0 PUSH2 0x1322 DUP3 PUSH2 0x1265 JUMP JUMPDEST PUSH2 0x132C DUP2 DUP6 PUSH2 0x1308 JUMP JUMPDEST SWAP4 POP PUSH2 0x133C DUP2 DUP6 PUSH1 0x20 DUP7 ADD PUSH2 0x127F JUMP JUMPDEST PUSH2 0x1345 DUP2 PUSH2 0xFD7 JUMP JUMPDEST DUP5 ADD SWAP2 POP POP SWAP3 SWAP2 POP POP JUMP JUMPDEST PUSH0 PUSH2 0x135B DUP4 DUP4 PUSH2 0x1318 JUMP JUMPDEST SWAP1 POP SWAP3 SWAP2 POP POP JUMP JUMPDEST PUSH0 PUSH1 0x20 DUP3 ADD SWAP1 POP SWAP2 SWAP1 POP JUMP JUMPDEST PUSH0 PUSH2 0x1379 DUP3 PUSH2 0x12DF JUMP JUMPDEST PUSH2 0x1383 DUP2 DUP6 PUSH2 0x12E9 JUMP JUMPDEST SWAP4 POP DUP4 PUSH1 0x20 DUP3 MUL DUP6 ADD PUSH2 0x1395 DUP6 PUSH2 0x12F9 JUMP JUMPDEST DUP1 PUSH0 JUMPDEST DUP6 DUP2 LT ISZERO PUSH2 0x13D0 JUMPI DUP5 DUP5 SUB DUP10 MSTORE DUP2 MLOAD PUSH2 0x13B1 DUP6 DUP3 PUSH2 0x1350 JUMP JUMPDEST SWAP5 POP PUSH2 0x13BC DUP4 PUSH2 0x1363 JUMP JUMPDEST SWAP3 POP PUSH1 0x20 DUP11 ADD SWAP10 POP POP PUSH1 0x1 DUP2 ADD SWAP1 POP PUSH2 0x1398 JUMP JUMPDEST POP DUP3 SWAP8 POP DUP8 SWAP6 POP POP POP POP POP POP SWAP3 SWAP2 POP POP JUMP JUMPDEST PUSH0 PUSH1 0x80 DUP3 ADD SWAP1 POP PUSH2 0x13F5 PUSH0 DUP4 ADD DUP8 PUSH2 0x1256 JUMP JUMPDEST PUSH2 0x1402 PUSH1 0x20 DUP4 ADD DUP7 PUSH2 0x1256 JUMP JUMPDEST DUP2 DUP2 SUB PUSH1 0x40 DUP4 ADD MSTORE PUSH2 0x1414 DUP2 DUP6 PUSH2 0x12A7 JUMP JUMPDEST SWAP1 POP DUP2 DUP2 SUB PUSH1 0x60 DUP4 ADD MSTORE PUSH2 0x1428 DUP2 DUP5 PUSH2 0x136F JUMP JUMPDEST SWAP1 POP SWAP6 SWAP5 POP POP POP POP POP JUMP JUMPDEST PUSH0 DUP1 PUSH0 PUSH1 0x60 DUP5 DUP7 SUB SLT ISZERO PUSH2 0x144A JUMPI PUSH2 0x1449 PUSH2 0xF56 JUMP JUMPDEST JUMPDEST PUSH0 DUP5 ADD CALLDATALOAD PUSH8 0xFFFFFFFFFFFFFFFF DUP2 GT ISZERO PUSH2 0x1467 JUMPI PUSH2 0x1466 PUSH2 0xF5A JUMP JUMPDEST JUMPDEST PUSH2 0x1473 DUP7 DUP3 DUP8 ADD PUSH2 0x10DE JUMP JUMPDEST SWAP4 POP POP PUSH1 0x20 DUP5 ADD CALLDATALOAD PUSH8 0xFFFFFFFFFFFFFFFF DUP2 GT ISZERO PUSH2 0x1494 JUMPI PUSH2 0x1493 PUSH2 0xF5A JUMP JUMPDEST JUMPDEST PUSH2 0x14A0 DUP7 DUP3 DUP8 ADD PUSH2 0x10DE JUMP JUMPDEST SWAP3 POP POP PUSH1 0x40 DUP5 ADD CALLDATALOAD PUSH8 0xFFFFFFFFFFFFFFFF DUP2 GT ISZERO PUSH2 0x14C1 JUMPI PUSH2 0x14C0 PUSH2 0xF5A JUMP JUMPDEST JUMPDEST PUSH2 0x14CD DUP7 DUP3 DUP8 ADD PUSH2 0x10DE JUMP JUMPDEST SWAP2 POP POP SWAP3 POP SWAP3 POP SWAP3 JUMP JUMPDEST PUSH0 DUP1 PUSH0 DUP1 PUSH0 PUSH1 0xA0 DUP7 DUP9 SUB SLT ISZERO PUSH2 0x14F0 JUMPI PUSH2 0x14EF PUSH2 0xF56 JUMP JUMPDEST JUMPDEST PUSH0 PUSH2 0x14FD DUP9 DUP3 DUP10 ADD PUSH2 0xF7D JUMP JUMPDEST SWAP6 POP POP PUSH1 0x20 DUP7 ADD CALLDATALOAD PUSH8 0xFFFFFFFFFFFFFFFF DUP2 GT ISZERO PUSH2 0x151E JUMPI PUSH2 0x151D PUSH2 0xF5A JUMP JUMPDEST JUMPDEST PUSH2 0x152A DUP9 DUP3 DUP10 ADD PUSH2 0x10DE JUMP JUMPDEST SWAP5 POP POP PUSH1 0x40 DUP7 ADD CALLDATALOAD PUSH8 0xFFFFFFFFFFFFFFFF DUP2 GT ISZERO PUSH2 0x154B JUMPI PUSH2 0x154A PUSH2 0xF5A JUMP JUMPDEST JUMPDEST PUSH2 0x1557 DUP9 DUP3 DUP10 ADD PUSH2 0x10DE JUMP JUMPDEST SWAP4 POP POP PUSH1 0x60 DUP7 ADD CALLDATALOAD PUSH8 0xFFFFFFFFFFFFFFFF DUP2 GT ISZERO PUSH2 0x1578 JUMPI PUSH2 0x1577 PUSH2 0xF5A JUMP JUMPDEST JUMPDEST PUSH2 0x1584 DUP9 DUP3 DUP10 ADD PUSH2 0x10DE JUMP JUMPDEST SWAP3 POP POP PUSH1 0x80 PUSH2 0x1595 DUP9 DUP3 DUP10 ADD PUSH2 0xF7D JUMP JUMPDEST SWAP2 POP POP SWAP3 SWAP6 POP SWAP3 SWAP6 SWAP1 SWAP4 POP JUMP JUMPDEST PUSH0 PUSH1 0x20 DUP3 DUP5 SUB SLT ISZERO PUSH2 0x15B7 JUMPI PUSH2 0x15B6 PUSH2 0xF56 JUMP JUMPDEST JUMPDEST PUSH0 PUSH2 0x15C4 DUP5 DUP3 DUP6 ADD PUSH2 0x1151 JUMP JUMPDEST SWAP2 POP POP SWAP3 SWAP2 POP POP JUMP JUMPDEST PUSH0 DUP2 MLOAD SWAP1 POP SWAP2 SWAP1 POP JUMP JUMPDEST PUSH0 DUP3 DUP3 MSTORE PUSH1 0x20 DUP3 ADD SWAP1 POP SWAP3 SWAP2 POP POP JUMP JUMPDEST PUSH0 DUP2 SWAP1 POP PUSH1 0x20 DUP3 ADD SWAP1 POP SWAP2 SWAP1 POP JUMP JUMPDEST PUSH2 0x15FF DUP2 PUSH2 0xF5E JUMP JUMPDEST DUP3 MSTORE POP POP JUMP JUMPDEST PUSH0 PUSH2 0x1610 DUP4 DUP4 PUSH2 0x15F6 JUMP JUMPDEST PUSH1 0x20 DUP4 ADD SWAP1 POP SWAP3 SWAP2 POP POP JUMP JUMPDEST PUSH0 PUSH1 0x20 DUP3 ADD SWAP1 POP SWAP2 SWAP1 POP JUMP JUMPDEST PUSH0 PUSH2 0x1632 DUP3 PUSH2 0x15CD JUMP JUMPDEST PUSH2 0x163C DUP2 DUP6 PUSH2 0x15D7 JUMP JUMPDEST SWAP4 POP PUSH2 0x1647 DUP4 PUSH2 0x15E7 JUMP JUMPDEST DUP1 PUSH0 JUMPDEST DUP4 DUP2 LT ISZERO PUSH2 0x1677 JUMPI DUP2 MLOAD PUSH2 0x165E DUP9 DUP3 PUSH2 0x1605 JUMP JUMPDEST SWAP8 POP PUSH2 0x1669 DUP4 PUSH2 0x161C JUMP JUMPDEST SWAP3 POP POP PUSH1 0x1 DUP2 ADD SWAP1 POP PUSH2 0x164A JUMP JUMPDEST POP DUP6 SWAP4 POP POP POP POP SWAP3 SWAP2 POP POP JUMP JUMPDEST PUSH0 PUSH1 0x20 DUP3 ADD SWAP1 POP DUP2 DUP2 SUB PUSH0 DUP4 ADD MSTORE PUSH2 0x169C DUP2 DUP5 PUSH2 0x1628 JUMP JUMPDEST SWAP1 POP SWAP3 SWAP2 POP POP JUMP JUMPDEST PUSH0 PUSH1 0x80 DUP3 ADD SWAP1 POP DUP2 DUP2 SUB PUSH0 DUP4 ADD MSTORE PUSH2 0x16BC DUP2 DUP8 PUSH2 0x12A7 JUMP JUMPDEST SWAP1 POP DUP2 DUP2 SUB PUSH1 0x20 DUP4 ADD MSTORE PUSH2 0x16D0 DUP2 DUP7 PUSH2 0x12A7 JUMP JUMPDEST SWAP1 POP DUP2 DUP2 SUB PUSH1 0x40 DUP4 ADD MSTORE PUSH2 0x16E4 DUP2 DUP6 PUSH2 0x12A7 JUMP JUMPDEST SWAP1 POP PUSH2 0x16F3 PUSH1 0x60 DUP4 ADD DUP5 PUSH2 0x1256 JUMP JUMPDEST SWAP6 SWAP5 POP POP POP POP POP JUMP JUMPDEST PUSH2 0x1705 DUP2 PUSH2 0x112A JUMP JUMPDEST DUP3 MSTORE POP POP JUMP JUMPDEST PUSH0 PUSH1 0x20 DUP3 ADD SWAP1 POP PUSH2 0x171E PUSH0 DUP4 ADD DUP5 PUSH2 0x16FC JUMP JUMPDEST SWAP3 SWAP2 POP POP JUMP JUMPDEST PUSH0 PUSH1 0x80 DUP3 ADD SWAP1 POP PUSH2 0x1737 PUSH0 DUP4 ADD DUP8 PUSH2 0x1256 JUMP JUMPDEST DUP2 DUP2 SUB PUSH1 0x20 DUP4 ADD MSTORE PUSH2 0x1749 DUP2 DUP7 PUSH2 0x12A7 JUMP JUMPDEST SWAP1 POP DUP2 DUP2 SUB PUSH1 0x40 DUP4 ADD MSTORE PUSH2 0x175D DUP2 DUP6 PUSH2 0x12A7 JUMP JUMPDEST SWAP1 POP DUP2 DUP2 SUB PUSH1 0x60 DUP4 ADD MSTORE PUSH2 0x1771 DUP2 DUP5 PUSH2 0x12A7 JUMP JUMPDEST SWAP1 POP SWAP6 SWAP5 POP POP POP POP POP JUMP JUMPDEST PUSH0 DUP1 PUSH1 0x40 DUP4 DUP6 SUB SLT ISZERO PUSH2 0x1792 JUMPI PUSH2 0x1791 PUSH2 0xF56 JUMP JUMPDEST JUMPDEST PUSH0 PUSH2 0x179F DUP6 DUP3 DUP7 ADD PUSH2 0x1151 JUMP JUMPDEST SWAP3 POP POP PUSH1 0x20 PUSH2 0x17B0 DUP6 DUP3 DUP7 ADD PUSH2 0xF7D JUMP JUMPDEST SWAP2 POP POP SWAP3 POP SWAP3 SWAP1 POP JUMP JUMPDEST PUSH0 DUP1 PUSH1 0x40 DUP4 DUP6 SUB SLT ISZERO PUSH2 0x17D0 JUMPI PUSH2 0x17CF PUSH2 0xF56 JUMP JUMPDEST JUMPDEST PUSH0 PUSH2 0x17DD DUP6 DUP3 DUP7 ADD PUSH2 0xF7D JUMP JUMPDEST SWAP3 POP POP PUSH1 0x20 PUSH2 0x17EE DUP6 DUP3 DUP7 ADD PUSH2 0x1151 JUMP JUMPDEST SWAP2 POP POP SWAP3 POP SWAP3 SWAP1 POP JUMP JUMPDEST PUSH32 0x4E487B7100000000000000000000000000000000000000000000000000000000 PUSH0 MSTORE PUSH1 0x11 PUSH1 0x4 MSTORE PUSH1 0x24 PUSH0 REVERT JUMPDEST PUSH0 PUSH2 0x182F DUP3 PUSH2 0xF5E JUMP JUMPDEST SWAP2 POP PUSH2 0x183A DUP4 PUSH2 0xF5E JUMP JUMPDEST SWAP3 POP DUP3 DUP3 ADD SWAP1 POP DUP1 DUP3 GT ISZERO PUSH2 0x1852 JUMPI PUSH2 0x1851 PUSH2 0x17F8 JUMP JUMPDEST JUMPDEST SWAP3 SWAP2 POP POP JUMP JUMPDEST PUSH32 0x4E487B7100000000000000000000000000000000000000000000000000000000 PUSH0 MSTORE PUSH1 0x22 PUSH1 0x4 MSTORE PUSH1 0x24 PUSH0 REVERT JUMPDEST PUSH0 PUSH1 0x2 DUP3 DIV SWAP1 POP PUSH1 0x1 DUP3 AND DUP1 PUSH2 0x189C JUMPI PUSH1 0x7F DUP3 AND SWAP2 POP JUMPDEST PUSH1 0x20 DUP3 LT DUP2 SUB PUSH2 0x18AF JUMPI PUSH2 0x18AE PUSH2 0x1858 JUMP JUMPDEST JUMPDEST POP SWAP2 SWAP1 POP JUMP JUMPDEST PUSH0 DUP2 SWAP1 POP DUP2 PUSH0 MSTORE PUSH1 0x20 PUSH0 KECCAK256 SWAP1 POP SWAP2 SWAP1 POP JUMP JUMPDEST PUSH0 PUSH1 0x20 PUSH1 0x1F DUP4 ADD DIV SWAP1 POP SWAP2 SWAP1 POP JUMP JUMPDEST PUSH0 DUP3 DUP3 SHL SWAP1 POP SWAP3 SWAP2 POP POP JUMP JUMPDEST PUSH0 PUSH1 0x8 DUP4 MUL PUSH2 0x1911 PUSH32 0xFFFFFFFFFFFFFFFFFFFFFFFFFFFFFFFFFFFFFFFFFFFFFFFFFFFFFFFFFFFFFFFF DUP3 PUSH2 0x18D6 JUMP JUMPDEST PUSH2 0x191B DUP7 DUP4 PUSH2 0x18D6 JUMP JUMPDEST SWAP6 POP DUP1 NOT DUP5 AND SWAP4 POP DUP1 DUP7 AND DUP5 OR SWAP3 POP POP POP SWAP4 SWAP3 POP POP POP JUMP JUMPDEST PUSH0 DUP2 SWAP1 POP SWAP2 SWAP1 POP JUMP JUMPDEST PUSH0 PUSH2 0x1956 PUSH2 0x1951 PUSH2 0x194C DUP5 PUSH2 0xF5E JUMP JUMPDEST PUSH2 0x1933 JUMP JUMPDEST PUSH2 0xF5E JUMP JUMPDEST SWAP1 POP SWAP2 SWAP1 POP JUMP JUMPDEST PUSH0 DUP2 SWAP1 POP SWAP2 SWAP1 POP JUMP JUMPDEST PUSH2 0x196F DUP4 PUSH2 0x193C JUMP JUMPDEST PUSH2 0x1983 PUSH2 0x197B DUP3 PUSH2 0x195D JUMP JUMPDEST DUP5 DUP5 SLOAD PUSH2 0x18E2 JUMP JUMPDEST DUP3 SSTORE POP POP POP POP JUMP JUMPDEST PUSH0 SWAP1 JUMP JUMPDEST PUSH2 0x1997 PUSH2 0x198B JUMP JUMPDEST PUSH2 0x19A2 DUP2 DUP5 DUP5 PUSH2 0x1966 JUMP JUMPDEST POP POP POP JUMP JUMPDEST JUMPDEST DUP2 DUP2 LT ISZERO PUSH2 0x19C5 JUMPI PUSH2 0x19BA PUSH0 DUP3 PUSH2 0x198F JUMP JUMPDEST PUSH1 0x1 DUP2 ADD SWAP1 POP PUSH2 0x19A8 JUMP JUMPDEST POP POP JUMP JUMPDEST PUSH1 0x1F DUP3 GT ISZERO PUSH2 0x1A0A JUMPI PUSH2 0x19DB DUP2 PUSH2 0x18B5 JUMP JUMPDEST PUSH2 0x19E4 DUP5 PUSH2 0x18C7 JUMP JUMPDEST DUP2 ADD PUSH1 0x20 DUP6 LT ISZERO PUSH2 0x19F3 JUMPI DUP2 SWAP1 POP JUMPDEST PUSH2 0x1A07 PUSH2 0x19FF DUP6 PUSH2 0x18C7 JUMP JUMPDEST DUP4 ADD DUP3 PUSH2 0x19A7 JUMP JUMPDEST POP POP JUMPDEST POP POP POP JUMP JUMPDEST PUSH0 DUP3 DUP3 SHR SWAP1 POP SWAP3 SWAP2 POP POP JUMP JUMPDEST PUSH0 PUSH2 0x1A2A PUSH0 NOT DUP5 PUSH1 0x8 MUL PUSH2 0x1A0F JUMP JUMPDEST NOT DUP1 DUP4 AND SWAP2 POP POP SWAP3 SWAP2 POP POP JUMP JUMPDEST PUSH0 PUSH2 0x1A42 DUP4 DUP4 PUSH2 0x1A1B JUMP JUMPDEST SWAP2 POP DUP3 PUSH1 0x2 MUL DUP3 OR SWAP1 POP SWAP3 SWAP2 POP POP JUMP JUMPDEST PUSH2 0x1A5B DUP3 PUSH2 0x1265 JUMP JUMPDEST PUSH8 0xFFFFFFFFFFFFFFFF DUP2 GT ISZERO PUSH2 0x1A74 JUMPI PUSH2 0x1A73 PUSH2 0xFE7 JUMP JUMPDEST JUMPDEST PUSH2 0x1A7E DUP3 SLOAD PUSH2 0x1885 JUMP JUMPDEST PUSH2 0x1A89 DUP3 DUP3 DUP6 PUSH2 0x19C9 JUMP JUMPDEST PUSH0 PUSH1 0x20 SWAP1 POP PUSH1 0x1F DUP4 GT PUSH1 0x1 DUP2 EQ PUSH2 0x1ABA JUMPI PUSH0 DUP5 ISZERO PUSH2 0x1AA8 JUMPI DUP3 DUP8 ADD MLOAD SWAP1 POP JUMPDEST PUSH2 0x1AB2 DUP6 DUP3 PUSH2 0x1A37 JUMP JUMPDEST DUP7 SSTORE POP PUSH2 0x1B19 JUMP JUMPDEST PUSH1 0x1F NOT DUP5 AND PUSH2 0x1AC8 DUP7 PUSH2 0x18B5 JUMP JUMPDEST PUSH0 JUMPDEST DUP3 DUP2 LT ISZERO PUSH2 0x1AEF JUMPI DUP5 DUP10 ADD MLOAD DUP3 SSTORE PUSH1 0x1 DUP3 ADD SWAP2 POP PUSH1 0x20 DUP6 ADD SWAP5 POP PUSH1 0x20 DUP2 ADD SWAP1 POP PUSH2 0x1ACA JUMP JUMPDEST DUP7 DUP4 LT ISZERO PUSH2 0x1B0C JUMPI DUP5 DUP10 ADD MLOAD PUSH2 0x1B08 PUSH1 0x1F DUP10 AND DUP3 PUSH2 0x1A1B JUMP JUMPDEST DUP4 SSTORE POP JUMPDEST PUSH1 0x1 PUSH1 0x2 DUP9 MUL ADD DUP9 SSTORE POP POP POP JUMPDEST POP POP POP POP POP POP JUMP JUMPDEST PUSH0 PUSH2 0x1B2B DUP3 PUSH2 0xF5E JUMP JUMPDEST SWAP2 POP PUSH32 0xFFFFFFFFFFFFFFFFFFFFFFFFFFFFFFFFFFFFFFFFFFFFFFFFFFFFFFFFFFFFFFFF DUP3 SUB PUSH2 0x1B5D JUMPI PUSH2 0x1B5C PUSH2 0x17F8 JUMP JUMPDEST JUMPDEST PUSH1 0x1 DUP3 ADD SWAP1 POP SWAP2 SWAP1 POP JUMP INVALID LOG2 PUSH5 0x6970667358 0x22 SLT KECCAK256 PREVRANDAO 0x22 0x29 ADDRESS SHR ADD LOG4 0x2D LOG4 0x49 0xE2 0xCC CREATE PUSH4 0xA221910D 0xF8 0xAC PUSH13 0x3C076585FBAD7C6629BBC26473 PUSH16 0x6C634300081600330000000000000000 "
				},
				"gasEstimates": {
					"creation": {
						"codeDepositCost": "1414000",
						"executionCost": "40750",
						"totalCost": "1454750"
					},
					"external": {
						"addMedicine(uint256,string,string,string,uint256)": "infinite",
						"addPatientDisease(uint256,string)": "infinite",
						"contractOwner()": "2572",
						"prescribeMedicine(uint256,address)": "49388",
						"registerNewDoctor(string,string,string)": "infinite",
						"registerNewPatient(string,uint256,address)": "infinite",
						"updatePatientDetails(address,uint256)": "25060",
						"updatePatientDetails(uint256,uint256)": "infinite",
						"viewDoctorDetails(uint256)": "infinite",
						"viewMedicineDetails(uint256)": "infinite",
						"viewPatientData(address)": "infinite",
						"viewPatientData(uint256)": "infinite",
						"viewPatientDatabyDoctor(uint256)": "infinite",
						"viewPatientMedicines(address)": "infinite"
					}
				},
				"methodIdentifiers": {
					"addMedicine(uint256,string,string,string,uint256)": "75f49529",
					"addPatientDisease(uint256,string)": "32473b85",
					"contractOwner()": "ce606ee0",
					"prescribeMedicine(uint256,address)": "dcd0c2b2",
					"registerNewDoctor(string,string,string)": "46216098",
					"registerNewPatient(string,uint256,address)": "1bc2fced",
					"updatePatientDetails(address,uint256)": "db2f4912",
					"updatePatientDetails(uint256,uint256)": "05dfea94",
					"viewDoctorDetails(uint256)": "d5cfcb06",
					"viewMedicineDetails(uint256)": "cc7fa220",
					"viewPatientData(address)": "bd8247bf",
					"viewPatientData(uint256)": "40dad759",
					"viewPatientDatabyDoctor(uint256)": "eddf3774",
					"viewPatientMedicines(address)": "791264ad"
				}
			},
			"storageLayout": {
				"storage": [
					{
						"astId": 3,
						"contract": "contracts/patientrecord.sol:VotingSoftware",
						"label": "contractOwner",
						"offset": 0,
						"slot": "0",
						"type": "t_address"
					},
					{
						"astId": 71,
						"contract": "contracts/patientrecord.sol:VotingSoftware",
						"label": "doctorCount",
						"offset": 0,
						"slot": "1",
						"type": "t_uint256"
					},
					{
						"astId": 74,
						"contract": "contracts/patientrecord.sol:VotingSoftware",
						"label": "patientCount",
						"offset": 0,
						"slot": "2",
						"type": "t_uint256"
					},
					{
						"astId": 77,
						"contract": "contracts/patientrecord.sol:VotingSoftware",
						"label": "medicineCount",
						"offset": 0,
						"slot": "3",
						"type": "t_uint256"
					},
					{
						"astId": 82,
						"contract": "contracts/patientrecord.sol:VotingSoftware",
						"label": "doctors",
						"offset": 0,
						"slot": "4",
						"type": "t_mapping(t_uint256,t_struct(Doctor)40_storage)"
					},
					{
						"astId": 87,
						"contract": "contracts/patientrecord.sol:VotingSoftware",
						"label": "patients",
						"offset": 0,
						"slot": "5",
						"type": "t_mapping(t_uint256,t_struct(Patient)57_storage)"
					},
					{
						"astId": 92,
						"contract": "contracts/patientrecord.sol:VotingSoftware",
						"label": "medicines",
						"offset": 0,
						"slot": "6",
						"type": "t_mapping(t_uint256,t_struct(Medicine)68_storage)"
					},
					{
						"astId": 96,
						"contract": "contracts/patientrecord.sol:VotingSoftware",
						"label": "patiendAddressID",
						"offset": 0,
						"slot": "7",
						"type": "t_mapping(t_address,t_uint256)"
					}
				],
				"types": {
					"t_address": {
						"encoding": "inplace",
						"label": "address",
						"numberOfBytes": "20"
					},
					"t_array(t_string_storage)dyn_storage": {
						"base": "t_string_storage",
						"encoding": "dynamic_array",
						"label": "string[]",
						"numberOfBytes": "32"
					},
					"t_array(t_uint256)dyn_storage": {
						"base": "t_uint256",
						"encoding": "dynamic_array",
						"label": "uint256[]",
						"numberOfBytes": "32"
					},
					"t_bool": {
						"encoding": "inplace",
						"label": "bool",
						"numberOfBytes": "1"
					},
					"t_mapping(t_address,t_uint256)": {
						"encoding": "mapping",
						"key": "t_address",
						"label": "mapping(address => uint256)",
						"numberOfBytes": "32",
						"value": "t_uint256"
					},
					"t_mapping(t_uint256,t_struct(Doctor)40_storage)": {
						"encoding": "mapping",
						"key": "t_uint256",
						"label": "mapping(uint256 => struct VotingSoftware.Doctor)",
						"numberOfBytes": "32",
						"value": "t_struct(Doctor)40_storage"
					},
					"t_mapping(t_uint256,t_struct(Medicine)68_storage)": {
						"encoding": "mapping",
						"key": "t_uint256",
						"label": "mapping(uint256 => struct VotingSoftware.Medicine)",
						"numberOfBytes": "32",
						"value": "t_struct(Medicine)68_storage"
					},
					"t_mapping(t_uint256,t_struct(Patient)57_storage)": {
						"encoding": "mapping",
						"key": "t_uint256",
						"label": "mapping(uint256 => struct VotingSoftware.Patient)",
						"numberOfBytes": "32",
						"value": "t_struct(Patient)57_storage"
					},
					"t_string_storage": {
						"encoding": "bytes",
						"label": "string",
						"numberOfBytes": "32"
					},
					"t_struct(Doctor)40_storage": {
						"encoding": "inplace",
						"label": "struct VotingSoftware.Doctor",
						"members": [
							{
								"astId": 25,
								"contract": "contracts/patientrecord.sol:VotingSoftware",
								"label": "id",
								"offset": 0,
								"slot": "0",
								"type": "t_uint256"
							},
							{
								"astId": 27,
								"contract": "contracts/patientrecord.sol:VotingSoftware",
								"label": "name",
								"offset": 0,
								"slot": "1",
								"type": "t_string_storage"
							},
							{
								"astId": 29,
								"contract": "contracts/patientrecord.sol:VotingSoftware",
								"label": "qualification",
								"offset": 0,
								"slot": "2",
								"type": "t_string_storage"
							},
							{
								"astId": 31,
								"contract": "contracts/patientrecord.sol:VotingSoftware",
								"label": "workPlace",
								"offset": 0,
								"slot": "3",
								"type": "t_string_storage"
							},
							{
								"astId": 33,
								"contract": "contracts/patientrecord.sol:VotingSoftware",
								"label": "flag",
								"offset": 0,
								"slot": "4",
								"type": "t_bool"
							},
							{
								"astId": 35,
								"contract": "contracts/patientrecord.sol:VotingSoftware",
								"label": "delegatedTo",
								"offset": 1,
								"slot": "4",
								"type": "t_address"
							},
							{
								"astId": 37,
								"contract": "contracts/patientrecord.sol:VotingSoftware",
								"label": "hasVoted",
								"offset": 21,
								"slot": "4",
								"type": "t_bool"
							},
							{
								"astId": 39,
								"contract": "contracts/patientrecord.sol:VotingSoftware",
								"label": "cadidateId",
								"offset": 0,
								"slot": "5",
								"type": "t_uint256"
							}
						],
						"numberOfBytes": "192"
					},
					"t_struct(Medicine)68_storage": {
						"encoding": "inplace",
						"label": "struct VotingSoftware.Medicine",
						"members": [
							{
								"astId": 59,
								"contract": "contracts/patientrecord.sol:VotingSoftware",
								"label": "id",
								"offset": 0,
								"slot": "0",
								"type": "t_uint256"
							},
							{
								"astId": 61,
								"contract": "contracts/patientrecord.sol:VotingSoftware",
								"label": "name",
								"offset": 0,
								"slot": "1",
								"type": "t_string_storage"
							},
							{
								"astId": 63,
								"contract": "contracts/patientrecord.sol:VotingSoftware",
								"label": "expiryDate",
								"offset": 0,
								"slot": "2",
								"type": "t_string_storage"
							},
							{
								"astId": 65,
								"contract": "contracts/patientrecord.sol:VotingSoftware",
								"label": "dose",
								"offset": 0,
								"slot": "3",
								"type": "t_string_storage"
							},
							{
								"astId": 67,
								"contract": "contracts/patientrecord.sol:VotingSoftware",
								"label": "price",
								"offset": 0,
								"slot": "4",
								"type": "t_uint256"
							}
						],
						"numberOfBytes": "160"
					},
					"t_struct(Patient)57_storage": {
						"encoding": "inplace",
						"label": "struct VotingSoftware.Patient",
						"members": [
							{
								"astId": 42,
								"contract": "contracts/patientrecord.sol:VotingSoftware",
								"label": "id",
								"offset": 0,
								"slot": "0",
								"type": "t_uint256"
							},
							{
								"astId": 44,
								"contract": "contracts/patientrecord.sol:VotingSoftware",
								"label": "name",
								"offset": 0,
								"slot": "1",
								"type": "t_string_storage"
							},
							{
								"astId": 46,
								"contract": "contracts/patientrecord.sol:VotingSoftware",
								"label": "age",
								"offset": 0,
								"slot": "2",
								"type": "t_uint256"
							},
							{
								"astId": 49,
								"contract": "contracts/patientrecord.sol:VotingSoftware",
								"label": "diseases",
								"offset": 0,
								"slot": "3",
								"type": "t_array(t_string_storage)dyn_storage"
							},
							{
								"astId": 51,
								"contract": "contracts/patientrecord.sol:VotingSoftware",
								"label": "patientAddress",
								"offset": 0,
								"slot": "4",
								"type": "t_address"
							},
							{
								"astId": 54,
								"contract": "contracts/patientrecord.sol:VotingSoftware",
								"label": "medicines",
								"offset": 0,
								"slot": "5",
								"type": "t_array(t_uint256)dyn_storage"
							},
							{
								"astId": 56,
								"contract": "contracts/patientrecord.sol:VotingSoftware",
								"label": "flag",
								"offset": 0,
								"slot": "6",
								"type": "t_bool"
							}
						],
						"numberOfBytes": "224"
					},
					"t_uint256": {
						"encoding": "inplace",
						"label": "uint256",
						"numberOfBytes": "32"
					}
				}
			},
			"userdoc": {
				"kind": "user",
				"methods": {},
				"version": 1
			}
		}
	}
}