{
	"contracts/voting.sol": {
		"VotingSoftware": {
			"abi": [
				{
					"inputs": [],
					"stateMutability": "nonpayable",
					"type": "constructor"
				},
				{
					"inputs": [
						{
							"internalType": "enum VotingSoftware.VotingStatus",
							"name": "status",
							"type": "uint8"
						},
						{
							"internalType": "string",
							"name": "message",
							"type": "string"
						}
					],
					"name": "CanNotStartElection",
					"type": "error"
				},
				{
					"inputs": [
						{
							"internalType": "string",
							"name": "_name",
							"type": "string"
						},
						{
							"internalType": "string",
							"name": "_proposal",
							"type": "string"
						},
						{
							"internalType": "address",
							"name": "_contractOwner",
							"type": "address"
						}
					],
					"name": "addNewCandidate",
					"outputs": [],
					"stateMutability": "nonpayable",
					"type": "function"
				},
				{
					"inputs": [
						{
							"internalType": "address",
							"name": "_addressVoter",
							"type": "address"
						},
						{
							"internalType": "string",
							"name": "_name",
							"type": "string"
						},
						{
							"internalType": "address",
							"name": "_contractOwner",
							"type": "address"
						}
					],
					"name": "addNewVoter",
					"outputs": [],
					"stateMutability": "nonpayable",
					"type": "function"
				},
				{
					"inputs": [
						{
							"internalType": "uint256",
							"name": "_candidateId",
							"type": "uint256"
						},
						{
							"internalType": "address",
							"name": "_addressVoter",
							"type": "address"
						}
					],
					"name": "castVote",
					"outputs": [],
					"stateMutability": "nonpayable",
					"type": "function"
				},
				{
					"inputs": [
						{
							"internalType": "address",
							"name": "_delegatedTo",
							"type": "address"
						},
						{
							"internalType": "address",
							"name": "_addressVoter",
							"type": "address"
						}
					],
					"name": "delegateVotingRight",
					"outputs": [],
					"stateMutability": "nonpayable",
					"type": "function"
				},
				{
					"inputs": [
						{
							"internalType": "uint256",
							"name": "_candidateId",
							"type": "uint256"
						}
					],
					"name": "displayCandidateDetails",
					"outputs": [
						{
							"internalType": "uint256",
							"name": "candidateId",
							"type": "uint256"
						},
						{
							"internalType": "string",
							"name": "proposal",
							"type": "string"
						},
						{
							"internalType": "string",
							"name": "name",
							"type": "string"
						}
					],
					"stateMutability": "view",
					"type": "function"
				},
				{
					"inputs": [],
					"name": "endElection",
					"outputs": [],
					"stateMutability": "nonpayable",
					"type": "function"
				},
				{
					"inputs": [
						{
							"internalType": "uint256",
							"name": "_candidateId",
							"type": "uint256"
						}
					],
					"name": "showElectionResults",
					"outputs": [
						{
							"internalType": "uint256",
							"name": "candidateId",
							"type": "uint256"
						},
						{
							"internalType": "string",
							"name": "name",
							"type": "string"
						},
						{
							"internalType": "uint256",
							"name": "voteCount",
							"type": "uint256"
						}
					],
					"stateMutability": "view",
					"type": "function"
				},
				{
					"inputs": [
						{
							"internalType": "address",
							"name": "_contractOwner",
							"type": "address"
						}
					],
					"name": "startElection",
					"outputs": [],
					"stateMutability": "nonpayable",
					"type": "function"
				},
				{
					"inputs": [
						{
							"internalType": "address",
							"name": "_addressVoter",
							"type": "address"
						}
					],
					"name": "viewVoterDetails",
					"outputs": [
						{
							"internalType": "address",
							"name": "addressVoter",
							"type": "address"
						},
						{
							"internalType": "string",
							"name": "name",
							"type": "string"
						},
						{
							"internalType": "bool",
							"name": "isVoteDelegated",
							"type": "bool"
						}
					],
					"stateMutability": "view",
					"type": "function"
				},
				{
					"inputs": [],
					"name": "votingAdmin",
					"outputs": [
						{
							"internalType": "address",
							"name": "",
							"type": "address"
						}
					],
					"stateMutability": "view",
					"type": "function"
				}
			],
			"devdoc": {
				"kind": "dev",
				"methods": {},
				"version": 1
			},
			"evm": {
				"assembly": "    /* \"contracts/voting.sol\":56:6412  contract VotingSoftware{... */\n  mstore(0x40, 0x80)\n    /* \"contracts/voting.sol\":778:802  VotingStatus.NOT_STARTED */\n  0x00\n    /* \"contracts/voting.sol\":756:802  VotingStatus status = VotingStatus.NOT_STARTED */\n  dup1\n  exp(0x0100, 0x14)\n  dup2\n  sload\n  dup2\n  0xff\n  mul\n  not\n  and\n  swap1\n  dup4\n  0x02\n  dup2\n  gt\n  iszero\n  tag_1\n  jumpi\n  tag_2\n  tag_3\n  jump\t// in\ntag_2:\ntag_1:\n  mul\n  or\n  swap1\n  sstore\n  pop\n    /* \"contracts/voting.sol\":856:857  0 */\n  0x00\n    /* \"contracts/voting.sol\":831:857  uint256 candidateCount = 0 */\n  0x01\n  sstore\n    /* \"contracts/voting.sol\":914:915  0 */\n  0x00\n    /* \"contracts/voting.sol\":893:915  uint256 voterCount = 0 */\n  0x02\n  sstore\n    /* \"contracts/voting.sol\":183:238  constructor() {... */\n  callvalue\n  dup1\n  iszero\n  tag_4\n  jumpi\n  0x00\n  dup1\n  revert\ntag_4:\n  pop\n    /* \"contracts/voting.sol\":221:231  msg.sender */\n  caller\n    /* \"contracts/voting.sol\":207:218  votingAdmin */\n  0x00\n  dup1\n    /* \"contracts/voting.sol\":207:231  votingAdmin = msg.sender */\n  0x0100\n  exp\n  dup2\n  sload\n  dup2\n  0xffffffffffffffffffffffffffffffffffffffff\n  mul\n  not\n  and\n  swap1\n  dup4\n  0xffffffffffffffffffffffffffffffffffffffff\n  and\n  mul\n  or\n  swap1\n  sstore\n  pop\n    /* \"contracts/voting.sol\":56:6412  contract VotingSoftware{... */\n  jump(tag_7)\n    /* \"#utility.yul\":7:187   */\ntag_3:\n    /* \"#utility.yul\":55:132   */\n  0x4e487b7100000000000000000000000000000000000000000000000000000000\n    /* \"#utility.yul\":52:53   */\n  0x00\n    /* \"#utility.yul\":45:133   */\n  mstore\n    /* \"#utility.yul\":152:156   */\n  0x21\n    /* \"#utility.yul\":149:150   */\n  0x04\n    /* \"#utility.yul\":142:157   */\n  mstore\n    /* \"#utility.yul\":176:180   */\n  0x24\n    /* \"#utility.yul\":173:174   */\n  0x00\n    /* \"#utility.yul\":166:181   */\n  revert\n    /* \"contracts/voting.sol\":56:6412  contract VotingSoftware{... */\ntag_7:\n  dataSize(sub_0)\n  dup1\n  dataOffset(sub_0)\n  0x00\n  codecopy\n  0x00\n  return\nstop\n\nsub_0: assembly {\n        /* \"contracts/voting.sol\":56:6412  contract VotingSoftware{... */\n      mstore(0x40, 0x80)\n      callvalue\n      dup1\n      iszero\n      tag_1\n      jumpi\n      0x00\n      dup1\n      revert\n    tag_1:\n      pop\n      jumpi(tag_2, lt(calldatasize, 0x04))\n      shr(0xe0, calldataload(0x00))\n      dup1\n      0x77df41b7\n      gt\n      tag_13\n      jumpi\n      dup1\n      0x77df41b7\n      eq\n      tag_8\n      jumpi\n      dup1\n      0xa48292ce\n      eq\n      tag_9\n      jumpi\n      dup1\n      0xd45529f4\n      eq\n      tag_10\n      jumpi\n      dup1\n      0xe6a5e61d\n      eq\n      tag_11\n      jumpi\n      dup1\n      0xf83bfa28\n      eq\n      tag_12\n      jumpi\n      jump(tag_2)\n    tag_13:\n      dup1\n      0x3cdd97bf\n      eq\n      tag_3\n      jumpi\n      dup1\n      0x3d0af840\n      eq\n      tag_4\n      jumpi\n      dup1\n      0x4ad7b863\n      eq\n      tag_5\n      jumpi\n      dup1\n      0x59f78468\n      eq\n      tag_6\n      jumpi\n      dup1\n      0x723309a0\n      eq\n      tag_7\n      jumpi\n    tag_2:\n      0x00\n      dup1\n      revert\n        /* \"contracts/voting.sol\":1735:2356  function addNewVoter(address _addressVoter, string memory _name, address _contractOwner) public onlyVotingAdmin {... */\n    tag_3:\n      tag_14\n      0x04\n      dup1\n      calldatasize\n      sub\n      dup2\n      add\n      swap1\n      tag_15\n      swap2\n      swap1\n      tag_16\n      jump\t// in\n    tag_15:\n      tag_17\n      jump\t// in\n    tag_14:\n      stop\n        /* \"contracts/voting.sol\":3945:4427  function delegateVotingRight(address _delegatedTo, address _addressVoter) public {... */\n    tag_4:\n      tag_18\n      0x04\n      dup1\n      calldatasize\n      sub\n      dup2\n      add\n      swap1\n      tag_19\n      swap2\n      swap1\n      tag_20\n      jump\t// in\n    tag_19:\n      tag_21\n      jump\t// in\n    tag_18:\n      stop\n        /* \"contracts/voting.sol\":5500:5899  function showElectionResults(uint256 _candidateId) public view ... */\n    tag_5:\n      tag_22\n      0x04\n      dup1\n      calldatasize\n      sub\n      dup2\n      add\n      swap1\n      tag_23\n      swap2\n      swap1\n      tag_24\n      jump\t// in\n    tag_23:\n      tag_25\n      jump\t// in\n    tag_22:\n      mload(0x40)\n      tag_26\n      swap4\n      swap3\n      swap2\n      swap1\n      tag_27\n      jump\t// in\n    tag_26:\n      mload(0x40)\n      dup1\n      swap2\n      sub\n      swap1\n      return\n        /* \"contracts/voting.sol\":5177:5462  function endElection() public onlyVotingAdmin(){... */\n    tag_6:\n      tag_28\n      tag_29\n      jump\t// in\n    tag_28:\n      stop\n        /* \"contracts/voting.sol\":1136:1703  function addNewCandidate(string memory _name, string memory _proposal, address _contractOwner) public onlyVotingAdmin {... */\n    tag_7:\n      tag_30\n      0x04\n      dup1\n      calldatasize\n      sub\n      dup2\n      add\n      swap1\n      tag_31\n      swap2\n      swap1\n      tag_32\n      jump\t// in\n    tag_31:\n      tag_33\n      jump\t// in\n    tag_30:\n      stop\n        /* \"contracts/voting.sol\":4457:5144  function castVote(uint256 _candidateId, address _addressVoter) public {... */\n    tag_8:\n      tag_34\n      0x04\n      dup1\n      calldatasize\n      sub\n      dup2\n      add\n      swap1\n      tag_35\n      swap2\n      swap1\n      tag_36\n      jump\t// in\n    tag_35:\n      tag_37\n      jump\t// in\n    tag_34:\n      stop\n        /* \"contracts/voting.sol\":3093:3542  function displayCandidateDetails(uint256 _candidateId) public view ... */\n    tag_9:\n      tag_38\n      0x04\n      dup1\n      calldatasize\n      sub\n      dup2\n      add\n      swap1\n      tag_39\n      swap2\n      swap1\n      tag_24\n      jump\t// in\n    tag_39:\n      tag_40\n      jump\t// in\n    tag_38:\n      mload(0x40)\n      tag_41\n      swap4\n      swap3\n      swap2\n      swap1\n      tag_42\n      jump\t// in\n    tag_41:\n      mload(0x40)\n      dup1\n      swap2\n      sub\n      swap1\n      return\n        /* \"contracts/voting.sol\":151:177  address public votingAdmin */\n    tag_10:\n      tag_43\n      tag_44\n      jump\t// in\n    tag_43:\n      mload(0x40)\n      tag_45\n      swap2\n      swap1\n      tag_46\n      jump\t// in\n    tag_45:\n      mload(0x40)\n      dup1\n      swap2\n      sub\n      swap1\n      return\n        /* \"contracts/voting.sol\":2455:3043  function startElection(address _contractOwner) public onlyVotingAdmin{... */\n    tag_11:\n      tag_47\n      0x04\n      dup1\n      calldatasize\n      sub\n      dup2\n      add\n      swap1\n      tag_48\n      swap2\n      swap1\n      tag_49\n      jump\t// in\n    tag_48:\n      tag_50\n      jump\t// in\n    tag_47:\n      stop\n        /* \"contracts/voting.sol\":5945:6410  function viewVoterDetails(address _addressVoter) public view returns (... */\n    tag_12:\n      tag_51\n      0x04\n      dup1\n      calldatasize\n      sub\n      dup2\n      add\n      swap1\n      tag_52\n      swap2\n      swap1\n      tag_49\n      jump\t// in\n    tag_52:\n      tag_53\n      jump\t// in\n    tag_51:\n      mload(0x40)\n      tag_54\n      swap4\n      swap3\n      swap2\n      swap1\n      tag_55\n      jump\t// in\n    tag_54:\n      mload(0x40)\n      dup1\n      swap2\n      sub\n      swap1\n      return\n        /* \"contracts/voting.sol\":1735:2356  function addNewVoter(address _addressVoter, string memory _name, address _contractOwner) public onlyVotingAdmin {... */\n    tag_17:\n        /* \"contracts/voting.sol\":302:313  votingAdmin */\n      0x00\n      dup1\n      sload\n      swap1\n      0x0100\n      exp\n      swap1\n      div\n      0xffffffffffffffffffffffffffffffffffffffff\n      and\n        /* \"contracts/voting.sol\":288:313  msg.sender == votingAdmin */\n      0xffffffffffffffffffffffffffffffffffffffff\n      and\n        /* \"contracts/voting.sol\":288:298  msg.sender */\n      caller\n        /* \"contracts/voting.sol\":288:313  msg.sender == votingAdmin */\n      0xffffffffffffffffffffffffffffffffffffffff\n      and\n      eq\n        /* \"contracts/voting.sol\":280:314  require(msg.sender == votingAdmin) */\n      tag_57\n      jumpi\n      0x00\n      dup1\n      revert\n    tag_57:\n        /* \"contracts/voting.sol\":1883:1894  votingAdmin */\n      0x00\n      dup1\n      sload\n      swap1\n      0x0100\n      exp\n      swap1\n      div\n      0xffffffffffffffffffffffffffffffffffffffff\n      and\n        /* \"contracts/voting.sol\":1865:1894  _contractOwner == votingAdmin */\n      0xffffffffffffffffffffffffffffffffffffffff\n      and\n        /* \"contracts/voting.sol\":1865:1879  _contractOwner */\n      dup2\n        /* \"contracts/voting.sol\":1865:1894  _contractOwner == votingAdmin */\n      0xffffffffffffffffffffffffffffffffffffffff\n      and\n      eq\n        /* \"contracts/voting.sol\":1857:1932  require(_contractOwner == votingAdmin, \"Only admin has access to do this.\") */\n      tag_59\n      jumpi\n      mload(0x40)\n      0x08c379a000000000000000000000000000000000000000000000000000000000\n      dup2\n      mstore\n      0x04\n      add\n      tag_60\n      swap1\n      tag_61\n      jump\t// in\n    tag_60:\n      mload(0x40)\n      dup1\n      swap2\n      sub\n      swap1\n      revert\n    tag_59:\n        /* \"contracts/voting.sol\":1958:1982  VotingStatus.NOT_STARTED */\n      0x00\n        /* \"contracts/voting.sol\":1950:1982  status==VotingStatus.NOT_STARTED */\n      0x02\n      dup2\n      gt\n      iszero\n      tag_62\n      jumpi\n      tag_63\n      tag_64\n      jump\t// in\n    tag_63:\n    tag_62:\n        /* \"contracts/voting.sol\":1950:1956  status */\n      0x00\n      0x14\n      swap1\n      sload\n      swap1\n      0x0100\n      exp\n      swap1\n      div\n      0xff\n      and\n        /* \"contracts/voting.sol\":1950:1982  status==VotingStatus.NOT_STARTED */\n      0x02\n      dup2\n      gt\n      iszero\n      tag_65\n      jumpi\n      tag_66\n      tag_64\n      jump\t// in\n    tag_66:\n    tag_65:\n      eq\n        /* \"contracts/voting.sol\":1942:2022  require(status==VotingStatus.NOT_STARTED, \"Voting already started or completed\") */\n      tag_67\n      jumpi\n      mload(0x40)\n      0x08c379a000000000000000000000000000000000000000000000000000000000\n      dup2\n      mstore\n      0x04\n      add\n      tag_68\n      swap1\n      tag_69\n      jump\t// in\n    tag_68:\n      mload(0x40)\n      dup1\n      swap2\n      sub\n      swap1\n      revert\n    tag_67:\n        /* \"contracts/voting.sol\":2068:2073  false */\n      0x00\n        /* \"contracts/voting.sol\":2040:2073  voters[_addressVoter].flag==false */\n      iszero\n      iszero\n        /* \"contracts/voting.sol\":2040:2046  voters */\n      0x04\n        /* \"contracts/voting.sol\":2040:2061  voters[_addressVoter] */\n      0x00\n        /* \"contracts/voting.sol\":2047:2060  _addressVoter */\n      dup6\n        /* \"contracts/voting.sol\":2040:2061  voters[_addressVoter] */\n      0xffffffffffffffffffffffffffffffffffffffff\n      and\n      0xffffffffffffffffffffffffffffffffffffffff\n      and\n      dup2\n      mstore\n      0x20\n      add\n      swap1\n      dup2\n      mstore\n      0x20\n      add\n      0x00\n      keccak256\n        /* \"contracts/voting.sol\":2040:2066  voters[_addressVoter].flag */\n      0x05\n      add\n      0x00\n      swap1\n      sload\n      swap1\n      0x0100\n      exp\n      swap1\n      div\n      0xff\n      and\n        /* \"contracts/voting.sol\":2040:2073  voters[_addressVoter].flag==false */\n      iszero\n      iszero\n      eq\n        /* \"contracts/voting.sol\":2032:2098  require(voters[_addressVoter].flag==false, \"voter already added.\") */\n      tag_70\n      jumpi\n      mload(0x40)\n      0x08c379a000000000000000000000000000000000000000000000000000000000\n      dup2\n      mstore\n      0x04\n      add\n      tag_71\n      swap1\n      tag_72\n      jump\t// in\n    tag_71:\n      mload(0x40)\n      dup1\n      swap2\n      sub\n      swap1\n      revert\n    tag_70:\n        /* \"contracts/voting.sol\":2108:2118  voterCount */\n      0x02\n      0x00\n        /* \"contracts/voting.sol\":2108:2120  voterCount++ */\n      dup2\n      sload\n      dup1\n      swap3\n      swap2\n      swap1\n      tag_73\n      swap1\n      tag_74\n      jump\t// in\n    tag_73:\n      swap2\n      swap1\n      pop\n      sstore\n      pop\n        /* \"contracts/voting.sol\":2130:2145  uint256 voterId */\n      0x00\n        /* \"contracts/voting.sol\":2148:2158  voterCount */\n      sload(0x02)\n        /* \"contracts/voting.sol\":2130:2158  uint256 voterId = voterCount */\n      swap1\n      pop\n        /* \"contracts/voting.sol\":2195:2202  voterId */\n      dup1\n        /* \"contracts/voting.sol\":2168:2174  voters */\n      0x04\n        /* \"contracts/voting.sol\":2168:2189  voters[_addressVoter] */\n      0x00\n        /* \"contracts/voting.sol\":2175:2188  _addressVoter */\n      dup7\n        /* \"contracts/voting.sol\":2168:2189  voters[_addressVoter] */\n      0xffffffffffffffffffffffffffffffffffffffff\n      and\n      0xffffffffffffffffffffffffffffffffffffffff\n      and\n      dup2\n      mstore\n      0x20\n      add\n      swap1\n      dup2\n      mstore\n      0x20\n      add\n      0x00\n      keccak256\n        /* \"contracts/voting.sol\":2168:2192  voters[_addressVoter].id */\n      0x00\n      add\n        /* \"contracts/voting.sol\":2168:2202  voters[_addressVoter].id = voterId */\n      dup2\n      swap1\n      sstore\n      pop\n        /* \"contracts/voting.sol\":2249:2262  _addressVoter */\n      dup4\n        /* \"contracts/voting.sol\":2212:2218  voters */\n      0x04\n        /* \"contracts/voting.sol\":2212:2233  voters[_addressVoter] */\n      0x00\n        /* \"contracts/voting.sol\":2219:2232  _addressVoter */\n      dup7\n        /* \"contracts/voting.sol\":2212:2233  voters[_addressVoter] */\n      0xffffffffffffffffffffffffffffffffffffffff\n      and\n      0xffffffffffffffffffffffffffffffffffffffff\n      and\n      dup2\n      mstore\n      0x20\n      add\n      swap1\n      dup2\n      mstore\n      0x20\n      add\n      0x00\n      keccak256\n        /* \"contracts/voting.sol\":2212:2246  voters[_addressVoter].addressVoter */\n      0x02\n      add\n      0x00\n        /* \"contracts/voting.sol\":2212:2262  voters[_addressVoter].addressVoter = _addressVoter */\n      0x0100\n      exp\n      dup2\n      sload\n      dup2\n      0xffffffffffffffffffffffffffffffffffffffff\n      mul\n      not\n      and\n      swap1\n      dup4\n      0xffffffffffffffffffffffffffffffffffffffff\n      and\n      mul\n      or\n      swap1\n      sstore\n      pop\n        /* \"contracts/voting.sol\":2301:2306  _name */\n      dup3\n        /* \"contracts/voting.sol\":2272:2278  voters */\n      0x04\n        /* \"contracts/voting.sol\":2272:2293  voters[_addressVoter] */\n      0x00\n        /* \"contracts/voting.sol\":2279:2292  _addressVoter */\n      dup7\n        /* \"contracts/voting.sol\":2272:2293  voters[_addressVoter] */\n      0xffffffffffffffffffffffffffffffffffffffff\n      and\n      0xffffffffffffffffffffffffffffffffffffffff\n      and\n      dup2\n      mstore\n      0x20\n      add\n      swap1\n      dup2\n      mstore\n      0x20\n      add\n      0x00\n      keccak256\n        /* \"contracts/voting.sol\":2272:2298  voters[_addressVoter].name */\n      0x01\n      add\n        /* \"contracts/voting.sol\":2272:2306  voters[_addressVoter].name = _name */\n      swap1\n      dup2\n      tag_75\n      swap2\n      swap1\n      tag_76\n      jump\t// in\n    tag_75:\n      pop\n        /* \"contracts/voting.sol\":2345:2349  true */\n      0x01\n        /* \"contracts/voting.sol\":2316:2322  voters */\n      0x04\n        /* \"contracts/voting.sol\":2316:2337  voters[_addressVoter] */\n      0x00\n        /* \"contracts/voting.sol\":2323:2336  _addressVoter */\n      dup7\n        /* \"contracts/voting.sol\":2316:2337  voters[_addressVoter] */\n      0xffffffffffffffffffffffffffffffffffffffff\n      and\n      0xffffffffffffffffffffffffffffffffffffffff\n      and\n      dup2\n      mstore\n      0x20\n      add\n      swap1\n      dup2\n      mstore\n      0x20\n      add\n      0x00\n      keccak256\n        /* \"contracts/voting.sol\":2316:2342  voters[_addressVoter].flag */\n      0x05\n      add\n      0x00\n        /* \"contracts/voting.sol\":2316:2349  voters[_addressVoter].flag = true */\n      0x0100\n      exp\n      dup2\n      sload\n      dup2\n      0xff\n      mul\n      not\n      and\n      swap1\n      dup4\n      iszero\n      iszero\n      mul\n      or\n      swap1\n      sstore\n      pop\n        /* \"contracts/voting.sol\":1847:2356  {... */\n      pop\n        /* \"contracts/voting.sol\":1735:2356  function addNewVoter(address _addressVoter, string memory _name, address _contractOwner) public onlyVotingAdmin {... */\n      pop\n      pop\n      pop\n      jump\t// out\n        /* \"contracts/voting.sol\":3945:4427  function delegateVotingRight(address _delegatedTo, address _addressVoter) public {... */\n    tag_21:\n        /* \"contracts/voting.sol\":4052:4072  VotingStatus.ONGOING */\n      0x01\n        /* \"contracts/voting.sol\":4044:4072  status==VotingStatus.ONGOING */\n      0x02\n      dup2\n      gt\n      iszero\n      tag_78\n      jumpi\n      tag_79\n      tag_64\n      jump\t// in\n    tag_79:\n    tag_78:\n        /* \"contracts/voting.sol\":4044:4050  status */\n      0x00\n      0x14\n      swap1\n      sload\n      swap1\n      0x0100\n      exp\n      swap1\n      div\n      0xff\n      and\n        /* \"contracts/voting.sol\":4044:4072  status==VotingStatus.ONGOING */\n      0x02\n      dup2\n      gt\n      iszero\n      tag_80\n      jumpi\n      tag_81\n      tag_64\n      jump\t// in\n    tag_81:\n    tag_80:\n      eq\n        /* \"contracts/voting.sol\":4036:4128  require(status==VotingStatus.ONGOING, \"Voting not in progress. You can not deletegate now.\") */\n      tag_82\n      jumpi\n      mload(0x40)\n      0x08c379a000000000000000000000000000000000000000000000000000000000\n      dup2\n      mstore\n      0x04\n      add\n      tag_83\n      swap1\n      tag_84\n      jump\t// in\n    tag_83:\n      mload(0x40)\n      dup1\n      swap2\n      sub\n      swap1\n      revert\n    tag_82:\n        /* \"contracts/voting.sol\":4158:4171  _addressVoter */\n      dup1\n        /* \"contracts/voting.sol\":4146:4171  msg.sender==_addressVoter */\n      0xffffffffffffffffffffffffffffffffffffffff\n      and\n        /* \"contracts/voting.sol\":4146:4156  msg.sender */\n      caller\n        /* \"contracts/voting.sol\":4146:4171  msg.sender==_addressVoter */\n      0xffffffffffffffffffffffffffffffffffffffff\n      and\n      eq\n        /* \"contracts/voting.sol\":4138:4241  require(msg.sender==_addressVoter, \"Only address owner can delegate voting rights to another address.\") */\n      tag_85\n      jumpi\n      mload(0x40)\n      0x08c379a000000000000000000000000000000000000000000000000000000000\n      dup2\n      mstore\n      0x04\n      add\n      tag_86\n      swap1\n      tag_87\n      jump\t// in\n    tag_86:\n      mload(0x40)\n      dup1\n      swap2\n      sub\n      swap1\n      revert\n    tag_85:\n        /* \"contracts/voting.sol\":4293:4298  false */\n      0x00\n        /* \"contracts/voting.sol\":4259:4298  voters[_addressVoter].hasVoted == false */\n      iszero\n      iszero\n        /* \"contracts/voting.sol\":4259:4265  voters */\n      0x04\n        /* \"contracts/voting.sol\":4259:4280  voters[_addressVoter] */\n      0x00\n        /* \"contracts/voting.sol\":4266:4279  _addressVoter */\n      dup4\n        /* \"contracts/voting.sol\":4259:4280  voters[_addressVoter] */\n      0xffffffffffffffffffffffffffffffffffffffff\n      and\n      0xffffffffffffffffffffffffffffffffffffffff\n      and\n      dup2\n      mstore\n      0x20\n      add\n      swap1\n      dup2\n      mstore\n      0x20\n      add\n      0x00\n      keccak256\n        /* \"contracts/voting.sol\":4259:4289  voters[_addressVoter].hasVoted */\n      0x03\n      add\n      0x14\n      swap1\n      sload\n      swap1\n      0x0100\n      exp\n      swap1\n      div\n      0xff\n      and\n        /* \"contracts/voting.sol\":4259:4298  voters[_addressVoter].hasVoted == false */\n      iszero\n      iszero\n      eq\n        /* \"contracts/voting.sol\":4251:4362  require(voters[_addressVoter].hasVoted == false, \"You can not delegate voting rights. You have already voted.\") */\n      tag_88\n      jumpi\n      mload(0x40)\n      0x08c379a000000000000000000000000000000000000000000000000000000000\n      dup2\n      mstore\n      0x04\n      add\n      tag_89\n      swap1\n      tag_90\n      jump\t// in\n    tag_89:\n      mload(0x40)\n      dup1\n      swap2\n      sub\n      swap1\n      revert\n    tag_88:\n        /* \"contracts/voting.sol\":4408:4420  _delegatedTo */\n      dup2\n        /* \"contracts/voting.sol\":4372:4378  voters */\n      0x04\n        /* \"contracts/voting.sol\":4372:4393  voters[_addressVoter] */\n      0x00\n        /* \"contracts/voting.sol\":4379:4392  _addressVoter */\n      dup4\n        /* \"contracts/voting.sol\":4372:4393  voters[_addressVoter] */\n      0xffffffffffffffffffffffffffffffffffffffff\n      and\n      0xffffffffffffffffffffffffffffffffffffffff\n      and\n      dup2\n      mstore\n      0x20\n      add\n      swap1\n      dup2\n      mstore\n      0x20\n      add\n      0x00\n      keccak256\n        /* \"contracts/voting.sol\":4372:4405  voters[_addressVoter].delegatedTo */\n      0x03\n      add\n      0x00\n        /* \"contracts/voting.sol\":4372:4420  voters[_addressVoter].delegatedTo = _delegatedTo */\n      0x0100\n      exp\n      dup2\n      sload\n      dup2\n      0xffffffffffffffffffffffffffffffffffffffff\n      mul\n      not\n      and\n      swap1\n      dup4\n      0xffffffffffffffffffffffffffffffffffffffff\n      and\n      mul\n      or\n      swap1\n      sstore\n      pop\n        /* \"contracts/voting.sol\":3945:4427  function delegateVotingRight(address _delegatedTo, address _addressVoter) public {... */\n      pop\n      pop\n      jump\t// out\n        /* \"contracts/voting.sol\":5500:5899  function showElectionResults(uint256 _candidateId) public view ... */\n    tag_25:\n        /* \"contracts/voting.sol\":5580:5599  uint256 candidateId */\n      0x00\n        /* \"contracts/voting.sol\":5618:5636  string memory name */\n      0x60\n        /* \"contracts/voting.sol\":5654:5671  uint256 voteCount */\n      0x00\n        /* \"contracts/voting.sol\":5712:5736  VotingStatus.NOT_STARTED */\n      dup1\n        /* \"contracts/voting.sol\":5704:5736  status!=VotingStatus.NOT_STARTED */\n      0x02\n      dup2\n      gt\n      iszero\n      tag_92\n      jumpi\n      tag_93\n      tag_64\n      jump\t// in\n    tag_93:\n    tag_92:\n        /* \"contracts/voting.sol\":5704:5710  status */\n      0x00\n      0x14\n      swap1\n      sload\n      swap1\n      0x0100\n      exp\n      swap1\n      div\n      0xff\n      and\n        /* \"contracts/voting.sol\":5704:5736  status!=VotingStatus.NOT_STARTED */\n      0x02\n      dup2\n      gt\n      iszero\n      tag_94\n      jumpi\n      tag_95\n      tag_64\n      jump\t// in\n    tag_95:\n    tag_94:\n      sub\n        /* \"contracts/voting.sol\":5696:5759  require(status!=VotingStatus.NOT_STARTED, \"Voting not started\") */\n      tag_96\n      jumpi\n      mload(0x40)\n      0x08c379a000000000000000000000000000000000000000000000000000000000\n      dup2\n      mstore\n      0x04\n      add\n      tag_97\n      swap1\n      tag_98\n      jump\t// in\n    tag_97:\n      mload(0x40)\n      dup1\n      swap2\n      sub\n      swap1\n      revert\n    tag_96:\n        /* \"contracts/voting.sol\":5789:5801  _candidateId */\n      dup4\n        /* \"contracts/voting.sol\":5815:5825  candidates */\n      0x03\n        /* \"contracts/voting.sol\":5815:5839  candidates[_candidateId] */\n      0x00\n        /* \"contracts/voting.sol\":5826:5838  _candidateId */\n      dup7\n        /* \"contracts/voting.sol\":5815:5839  candidates[_candidateId] */\n      dup2\n      mstore\n      0x20\n      add\n      swap1\n      dup2\n      mstore\n      0x20\n      add\n      0x00\n      keccak256\n        /* \"contracts/voting.sol\":5815:5844  candidates[_candidateId].name */\n      0x01\n      add\n        /* \"contracts/voting.sol\":5858:5868  voteCounts */\n      0x05\n        /* \"contracts/voting.sol\":5858:5882  voteCounts[_candidateId] */\n      0x00\n        /* \"contracts/voting.sol\":5869:5881  _candidateId */\n      dup8\n        /* \"contracts/voting.sol\":5858:5882  voteCounts[_candidateId] */\n      dup2\n      mstore\n      0x20\n      add\n      swap1\n      dup2\n      mstore\n      0x20\n      add\n      0x00\n      keccak256\n      sload\n        /* \"contracts/voting.sol\":5769:5892  return(... */\n      dup2\n      dup1\n      sload\n      tag_99\n      swap1\n      tag_100\n      jump\t// in\n    tag_99:\n      dup1\n      0x1f\n      add\n      0x20\n      dup1\n      swap2\n      div\n      mul\n      0x20\n      add\n      mload(0x40)\n      swap1\n      dup2\n      add\n      0x40\n      mstore\n      dup1\n      swap3\n      swap2\n      swap1\n      dup2\n      dup2\n      mstore\n      0x20\n      add\n      dup3\n      dup1\n      sload\n      tag_101\n      swap1\n      tag_100\n      jump\t// in\n    tag_101:\n      dup1\n      iszero\n      tag_102\n      jumpi\n      dup1\n      0x1f\n      lt\n      tag_103\n      jumpi\n      0x0100\n      dup1\n      dup4\n      sload\n      div\n      mul\n      dup4\n      mstore\n      swap2\n      0x20\n      add\n      swap2\n      jump(tag_102)\n    tag_103:\n      dup3\n      add\n      swap2\n      swap1\n      0x00\n      mstore\n      keccak256(0x00, 0x20)\n      swap1\n    tag_104:\n      dup2\n      sload\n      dup2\n      mstore\n      swap1\n      0x01\n      add\n      swap1\n      0x20\n      add\n      dup1\n      dup4\n      gt\n      tag_104\n      jumpi\n      dup3\n      swap1\n      sub\n      0x1f\n      and\n      dup3\n      add\n      swap2\n    tag_102:\n      pop\n      pop\n      pop\n      pop\n      pop\n      swap2\n      pop\n      swap3\n      pop\n      swap3\n      pop\n      swap3\n      pop\n        /* \"contracts/voting.sol\":5500:5899  function showElectionResults(uint256 _candidateId) public view ... */\n      swap2\n      swap4\n      swap1\n      swap3\n      pop\n      jump\t// out\n        /* \"contracts/voting.sol\":5177:5462  function endElection() public onlyVotingAdmin(){... */\n    tag_29:\n        /* \"contracts/voting.sol\":302:313  votingAdmin */\n      0x00\n      dup1\n      sload\n      swap1\n      0x0100\n      exp\n      swap1\n      div\n      0xffffffffffffffffffffffffffffffffffffffff\n      and\n        /* \"contracts/voting.sol\":288:313  msg.sender == votingAdmin */\n      0xffffffffffffffffffffffffffffffffffffffff\n      and\n        /* \"contracts/voting.sol\":288:298  msg.sender */\n      caller\n        /* \"contracts/voting.sol\":288:313  msg.sender == votingAdmin */\n      0xffffffffffffffffffffffffffffffffffffffff\n      and\n      eq\n        /* \"contracts/voting.sol\":280:314  require(msg.sender == votingAdmin) */\n      tag_106\n      jumpi\n      0x00\n      dup1\n      revert\n    tag_106:\n        /* \"contracts/voting.sol\":5248:5272  VotingStatus.NOT_STARTED */\n      0x00\n        /* \"contracts/voting.sol\":5238:5272  status == VotingStatus.NOT_STARTED */\n      0x02\n      dup2\n      gt\n      iszero\n      tag_108\n      jumpi\n      tag_109\n      tag_64\n      jump\t// in\n    tag_109:\n    tag_108:\n        /* \"contracts/voting.sol\":5238:5244  status */\n      0x00\n      0x14\n      swap1\n      sload\n      swap1\n      0x0100\n      exp\n      swap1\n      div\n      0xff\n      and\n        /* \"contracts/voting.sol\":5238:5272  status == VotingStatus.NOT_STARTED */\n      0x02\n      dup2\n      gt\n      iszero\n      tag_110\n      jumpi\n      tag_111\n      tag_64\n      jump\t// in\n    tag_111:\n    tag_110:\n      sub\n        /* \"contracts/voting.sol\":5234:5415  if( status == VotingStatus.NOT_STARTED){... */\n      tag_112\n      jumpi\n        /* \"contracts/voting.sol\":5287:5315  revert(\"voting not started\") */\n      mload(0x40)\n      0x08c379a000000000000000000000000000000000000000000000000000000000\n      dup2\n      mstore\n      0x04\n      add\n      tag_113\n      swap1\n      tag_114\n      jump\t// in\n    tag_113:\n      mload(0x40)\n      dup1\n      swap2\n      sub\n      swap1\n      revert\n        /* \"contracts/voting.sol\":5234:5415  if( status == VotingStatus.NOT_STARTED){... */\n    tag_112:\n        /* \"contracts/voting.sol\":5345:5367  VotingStatus.COMPLETED */\n      0x02\n        /* \"contracts/voting.sol\":5335:5367  status == VotingStatus.COMPLETED */\n      dup1\n      dup2\n      gt\n      iszero\n      tag_116\n      jumpi\n      tag_117\n      tag_64\n      jump\t// in\n    tag_117:\n    tag_116:\n        /* \"contracts/voting.sol\":5335:5341  status */\n      0x00\n      0x14\n      swap1\n      sload\n      swap1\n      0x0100\n      exp\n      swap1\n      div\n      0xff\n      and\n        /* \"contracts/voting.sol\":5335:5367  status == VotingStatus.COMPLETED */\n      0x02\n      dup2\n      gt\n      iszero\n      tag_118\n      jumpi\n      tag_119\n      tag_64\n      jump\t// in\n    tag_119:\n    tag_118:\n      sub\n        /* \"contracts/voting.sol\":5331:5415  if (status == VotingStatus.COMPLETED){... */\n      tag_120\n      jumpi\n        /* \"contracts/voting.sol\":5382:5404  revert(\"voting ended\") */\n      mload(0x40)\n      0x08c379a000000000000000000000000000000000000000000000000000000000\n      dup2\n      mstore\n      0x04\n      add\n      tag_121\n      swap1\n      tag_122\n      jump\t// in\n    tag_121:\n      mload(0x40)\n      dup1\n      swap2\n      sub\n      swap1\n      revert\n        /* \"contracts/voting.sol\":5331:5415  if (status == VotingStatus.COMPLETED){... */\n    tag_120:\n        /* \"contracts/voting.sol\":5433:5455  VotingStatus.COMPLETED */\n      0x02\n        /* \"contracts/voting.sol\":5424:5430  status */\n      0x00\n      0x14\n        /* \"contracts/voting.sol\":5424:5455  status = VotingStatus.COMPLETED */\n      0x0100\n      exp\n      dup2\n      sload\n      dup2\n      0xff\n      mul\n      not\n      and\n      swap1\n      dup4\n      0x02\n      dup2\n      gt\n      iszero\n      tag_123\n      jumpi\n      tag_124\n      tag_64\n      jump\t// in\n    tag_124:\n    tag_123:\n      mul\n      or\n      swap1\n      sstore\n      pop\n        /* \"contracts/voting.sol\":5177:5462  function endElection() public onlyVotingAdmin(){... */\n      jump\t// out\n        /* \"contracts/voting.sol\":1136:1703  function addNewCandidate(string memory _name, string memory _proposal, address _contractOwner) public onlyVotingAdmin {... */\n    tag_33:\n        /* \"contracts/voting.sol\":302:313  votingAdmin */\n      0x00\n      dup1\n      sload\n      swap1\n      0x0100\n      exp\n      swap1\n      div\n      0xffffffffffffffffffffffffffffffffffffffff\n      and\n        /* \"contracts/voting.sol\":288:313  msg.sender == votingAdmin */\n      0xffffffffffffffffffffffffffffffffffffffff\n      and\n        /* \"contracts/voting.sol\":288:298  msg.sender */\n      caller\n        /* \"contracts/voting.sol\":288:313  msg.sender == votingAdmin */\n      0xffffffffffffffffffffffffffffffffffffffff\n      and\n      eq\n        /* \"contracts/voting.sol\":280:314  require(msg.sender == votingAdmin) */\n      tag_126\n      jumpi\n      0x00\n      dup1\n      revert\n    tag_126:\n        /* \"contracts/voting.sol\":1290:1301  votingAdmin */\n      0x00\n      dup1\n      sload\n      swap1\n      0x0100\n      exp\n      swap1\n      div\n      0xffffffffffffffffffffffffffffffffffffffff\n      and\n        /* \"contracts/voting.sol\":1272:1301  _contractOwner == votingAdmin */\n      0xffffffffffffffffffffffffffffffffffffffff\n      and\n        /* \"contracts/voting.sol\":1272:1286  _contractOwner */\n      dup2\n        /* \"contracts/voting.sol\":1272:1301  _contractOwner == votingAdmin */\n      0xffffffffffffffffffffffffffffffffffffffff\n      and\n      eq\n        /* \"contracts/voting.sol\":1264:1339  require(_contractOwner == votingAdmin, \"Only admin has access to do this.\") */\n      tag_128\n      jumpi\n      mload(0x40)\n      0x08c379a000000000000000000000000000000000000000000000000000000000\n      dup2\n      mstore\n      0x04\n      add\n      tag_129\n      swap1\n      tag_61\n      jump\t// in\n    tag_129:\n      mload(0x40)\n      dup1\n      swap2\n      sub\n      swap1\n      revert\n    tag_128:\n        /* \"contracts/voting.sol\":1365:1389  VotingStatus.NOT_STARTED */\n      0x00\n        /* \"contracts/voting.sol\":1357:1389  status==VotingStatus.NOT_STARTED */\n      0x02\n      dup2\n      gt\n      iszero\n      tag_130\n      jumpi\n      tag_131\n      tag_64\n      jump\t// in\n    tag_131:\n    tag_130:\n        /* \"contracts/voting.sol\":1357:1363  status */\n      0x00\n      0x14\n      swap1\n      sload\n      swap1\n      0x0100\n      exp\n      swap1\n      div\n      0xff\n      and\n        /* \"contracts/voting.sol\":1357:1389  status==VotingStatus.NOT_STARTED */\n      0x02\n      dup2\n      gt\n      iszero\n      tag_132\n      jumpi\n      tag_133\n      tag_64\n      jump\t// in\n    tag_133:\n    tag_132:\n      eq\n        /* \"contracts/voting.sol\":1349:1429  require(status==VotingStatus.NOT_STARTED, \"Voting already started or completed\") */\n      tag_134\n      jumpi\n      mload(0x40)\n      0x08c379a000000000000000000000000000000000000000000000000000000000\n      dup2\n      mstore\n      0x04\n      add\n      tag_135\n      swap1\n      tag_69\n      jump\t// in\n    tag_135:\n      mload(0x40)\n      dup1\n      swap2\n      sub\n      swap1\n      revert\n    tag_134:\n        /* \"contracts/voting.sol\":1439:1453  candidateCount */\n      0x01\n      0x00\n        /* \"contracts/voting.sol\":1439:1455  candidateCount++ */\n      dup2\n      sload\n      dup1\n      swap3\n      swap2\n      swap1\n      tag_136\n      swap1\n      tag_74\n      jump\t// in\n    tag_136:\n      swap2\n      swap1\n      pop\n      sstore\n      pop\n        /* \"contracts/voting.sol\":1465:1484  uint256 candidateId */\n      0x00\n        /* \"contracts/voting.sol\":1487:1501  candidateCount */\n      sload(0x01)\n        /* \"contracts/voting.sol\":1465:1501  uint256 candidateId = candidateCount */\n      swap1\n      pop\n        /* \"contracts/voting.sol\":1540:1551  candidateId */\n      dup1\n        /* \"contracts/voting.sol\":1511:1521  candidates */\n      0x03\n        /* \"contracts/voting.sol\":1511:1534  candidates[candidateId] */\n      0x00\n        /* \"contracts/voting.sol\":1522:1533  candidateId */\n      dup4\n        /* \"contracts/voting.sol\":1511:1534  candidates[candidateId] */\n      dup2\n      mstore\n      0x20\n      add\n      swap1\n      dup2\n      mstore\n      0x20\n      add\n      0x00\n      keccak256\n        /* \"contracts/voting.sol\":1511:1537  candidates[candidateId].id */\n      0x00\n      add\n        /* \"contracts/voting.sol\":1511:1551  candidates[candidateId].id = candidateId */\n      dup2\n      swap1\n      sstore\n      pop\n        /* \"contracts/voting.sol\":1592:1597  _name */\n      dup4\n        /* \"contracts/voting.sol\":1561:1571  candidates */\n      0x03\n        /* \"contracts/voting.sol\":1561:1584  candidates[candidateId] */\n      0x00\n        /* \"contracts/voting.sol\":1572:1583  candidateId */\n      dup4\n        /* \"contracts/voting.sol\":1561:1584  candidates[candidateId] */\n      dup2\n      mstore\n      0x20\n      add\n      swap1\n      dup2\n      mstore\n      0x20\n      add\n      0x00\n      keccak256\n        /* \"contracts/voting.sol\":1561:1589  candidates[candidateId].name */\n      0x01\n      add\n        /* \"contracts/voting.sol\":1561:1597  candidates[candidateId].name = _name */\n      swap1\n      dup2\n      tag_137\n      swap2\n      swap1\n      tag_76\n      jump\t// in\n    tag_137:\n      pop\n        /* \"contracts/voting.sol\":1642:1651  _proposal */\n      dup3\n        /* \"contracts/voting.sol\":1607:1617  candidates */\n      0x03\n        /* \"contracts/voting.sol\":1607:1630  candidates[candidateId] */\n      0x00\n        /* \"contracts/voting.sol\":1618:1629  candidateId */\n      dup4\n        /* \"contracts/voting.sol\":1607:1630  candidates[candidateId] */\n      dup2\n      mstore\n      0x20\n      add\n      swap1\n      dup2\n      mstore\n      0x20\n      add\n      0x00\n      keccak256\n        /* \"contracts/voting.sol\":1607:1639  candidates[candidateId].proposal */\n      0x02\n      add\n        /* \"contracts/voting.sol\":1607:1651  candidates[candidateId].proposal = _proposal */\n      swap1\n      dup2\n      tag_138\n      swap2\n      swap1\n      tag_76\n      jump\t// in\n    tag_138:\n      pop\n        /* \"contracts/voting.sol\":1692:1696  true */\n      0x01\n        /* \"contracts/voting.sol\":1661:1671  candidates */\n      0x03\n        /* \"contracts/voting.sol\":1661:1684  candidates[candidateId] */\n      0x00\n        /* \"contracts/voting.sol\":1672:1683  candidateId */\n      dup4\n        /* \"contracts/voting.sol\":1661:1684  candidates[candidateId] */\n      dup2\n      mstore\n      0x20\n      add\n      swap1\n      dup2\n      mstore\n      0x20\n      add\n      0x00\n      keccak256\n        /* \"contracts/voting.sol\":1661:1689  candidates[candidateId].flag */\n      0x03\n      add\n      0x00\n        /* \"contracts/voting.sol\":1661:1696  candidates[candidateId].flag = true */\n      0x0100\n      exp\n      dup2\n      sload\n      dup2\n      0xff\n      mul\n      not\n      and\n      swap1\n      dup4\n      iszero\n      iszero\n      mul\n      or\n      swap1\n      sstore\n      pop\n        /* \"contracts/voting.sol\":1254:1703  {... */\n      pop\n        /* \"contracts/voting.sol\":1136:1703  function addNewCandidate(string memory _name, string memory _proposal, address _contractOwner) public onlyVotingAdmin {... */\n      pop\n      pop\n      pop\n      jump\t// out\n        /* \"contracts/voting.sol\":4457:5144  function castVote(uint256 _candidateId, address _addressVoter) public {... */\n    tag_37:\n        /* \"contracts/voting.sol\":4560:4561  0 */\n      0x00\n        /* \"contracts/voting.sol\":4545:4559  candidateCount */\n      sload(0x01)\n        /* \"contracts/voting.sol\":4545:4561  candidateCount>0 */\n      gt\n        /* \"contracts/voting.sol\":4537:4589  require(candidateCount>0, \"0 candidates registered\") */\n      tag_140\n      jumpi\n      mload(0x40)\n      0x08c379a000000000000000000000000000000000000000000000000000000000\n      dup2\n      mstore\n      0x04\n      add\n      tag_141\n      swap1\n      tag_142\n      jump\t// in\n    tag_141:\n      mload(0x40)\n      dup1\n      swap2\n      sub\n      swap1\n      revert\n    tag_140:\n        /* \"contracts/voting.sol\":4607:4617  candidates */\n      0x03\n        /* \"contracts/voting.sol\":4607:4631  candidates[_candidateId] */\n      0x00\n        /* \"contracts/voting.sol\":4618:4630  _candidateId */\n      dup4\n        /* \"contracts/voting.sol\":4607:4631  candidates[_candidateId] */\n      dup2\n      mstore\n      0x20\n      add\n      swap1\n      dup2\n      mstore\n      0x20\n      add\n      0x00\n      keccak256\n        /* \"contracts/voting.sol\":4607:4636  candidates[_candidateId].flag */\n      0x03\n      add\n      0x00\n      swap1\n      sload\n      swap1\n      0x0100\n      exp\n      swap1\n      div\n      0xff\n      and\n        /* \"contracts/voting.sol\":4599:4673  require(candidates[_candidateId].flag, \"candidate with id does not exist\") */\n      tag_143\n      jumpi\n      mload(0x40)\n      0x08c379a000000000000000000000000000000000000000000000000000000000\n      dup2\n      mstore\n      0x04\n      add\n      tag_144\n      swap1\n      tag_145\n      jump\t// in\n    tag_144:\n      mload(0x40)\n      dup1\n      swap2\n      sub\n      swap1\n      revert\n    tag_143:\n        /* \"contracts/voting.sol\":4691:4697  voters */\n      0x04\n        /* \"contracts/voting.sol\":4691:4712  voters[_addressVoter] */\n      0x00\n        /* \"contracts/voting.sol\":4698:4711  _addressVoter */\n      dup3\n        /* \"contracts/voting.sol\":4691:4712  voters[_addressVoter] */\n      0xffffffffffffffffffffffffffffffffffffffff\n      and\n      0xffffffffffffffffffffffffffffffffffffffff\n      and\n      dup2\n      mstore\n      0x20\n      add\n      swap1\n      dup2\n      mstore\n      0x20\n      add\n      0x00\n      keccak256\n        /* \"contracts/voting.sol\":4691:4717  voters[_addressVoter].flag */\n      0x05\n      add\n      0x00\n      swap1\n      sload\n      swap1\n      0x0100\n      exp\n      swap1\n      div\n      0xff\n      and\n        /* \"contracts/voting.sol\":4683:4755  require(voters[_addressVoter].flag, \"voter with address does not exist\") */\n      tag_146\n      jumpi\n      mload(0x40)\n      0x08c379a000000000000000000000000000000000000000000000000000000000\n      dup2\n      mstore\n      0x04\n      add\n      tag_147\n      swap1\n      tag_148\n      jump\t// in\n    tag_147:\n      mload(0x40)\n      dup1\n      swap2\n      sub\n      swap1\n      revert\n    tag_146:\n        /* \"contracts/voting.sol\":4773:4779  voters */\n      0x04\n        /* \"contracts/voting.sol\":4773:4794  voters[_addressVoter] */\n      0x00\n        /* \"contracts/voting.sol\":4780:4793  _addressVoter */\n      dup3\n        /* \"contracts/voting.sol\":4773:4794  voters[_addressVoter] */\n      0xffffffffffffffffffffffffffffffffffffffff\n      and\n      0xffffffffffffffffffffffffffffffffffffffff\n      and\n      dup2\n      mstore\n      0x20\n      add\n      swap1\n      dup2\n      mstore\n      0x20\n      add\n      0x00\n      keccak256\n        /* \"contracts/voting.sol\":4773:4803  voters[_addressVoter].hasVoted */\n      0x03\n      add\n      0x14\n      swap1\n      sload\n      swap1\n      0x0100\n      exp\n      swap1\n      div\n      0xff\n      and\n        /* \"contracts/voting.sol\":4765:4827  require(voters[_addressVoter].hasVoted, \"Vote already placed\") */\n      tag_149\n      jumpi\n      mload(0x40)\n      0x08c379a000000000000000000000000000000000000000000000000000000000\n      dup2\n      mstore\n      0x04\n      add\n      tag_150\n      swap1\n      tag_151\n      jump\t// in\n    tag_150:\n      mload(0x40)\n      dup1\n      swap2\n      sub\n      swap1\n      revert\n    tag_149:\n        /* \"contracts/voting.sol\":4878:4888  msg.sender */\n      caller\n        /* \"contracts/voting.sol\":4841:4888  voters[_addressVoter].delegatedTo != msg.sender */\n      0xffffffffffffffffffffffffffffffffffffffff\n      and\n        /* \"contracts/voting.sol\":4841:4847  voters */\n      0x04\n        /* \"contracts/voting.sol\":4841:4862  voters[_addressVoter] */\n      0x00\n        /* \"contracts/voting.sol\":4848:4861  _addressVoter */\n      dup4\n        /* \"contracts/voting.sol\":4841:4862  voters[_addressVoter] */\n      0xffffffffffffffffffffffffffffffffffffffff\n      and\n      0xffffffffffffffffffffffffffffffffffffffff\n      and\n      dup2\n      mstore\n      0x20\n      add\n      swap1\n      dup2\n      mstore\n      0x20\n      add\n      0x00\n      keccak256\n        /* \"contracts/voting.sol\":4841:4874  voters[_addressVoter].delegatedTo */\n      0x03\n      add\n      0x00\n      swap1\n      sload\n      swap1\n      0x0100\n      exp\n      swap1\n      div\n      0xffffffffffffffffffffffffffffffffffffffff\n      and\n        /* \"contracts/voting.sol\":4841:4888  voters[_addressVoter].delegatedTo != msg.sender */\n      0xffffffffffffffffffffffffffffffffffffffff\n      and\n      eq\n        /* \"contracts/voting.sol\":4837:4968  if (voters[_addressVoter].delegatedTo != msg.sender){... */\n      tag_152\n      jumpi\n        /* \"contracts/voting.sol\":4923:4936  _addressVoter */\n      dup1\n        /* \"contracts/voting.sol\":4911:4936  msg.sender==_addressVoter */\n      0xffffffffffffffffffffffffffffffffffffffff\n      and\n        /* \"contracts/voting.sol\":4911:4921  msg.sender */\n      caller\n        /* \"contracts/voting.sol\":4911:4936  msg.sender==_addressVoter */\n      0xffffffffffffffffffffffffffffffffffffffff\n      and\n      eq\n        /* \"contracts/voting.sol\":4903:4957  require(msg.sender==_addressVoter, \"you can not vote\") */\n      tag_153\n      jumpi\n      mload(0x40)\n      0x08c379a000000000000000000000000000000000000000000000000000000000\n      dup2\n      mstore\n      0x04\n      add\n      tag_154\n      swap1\n      tag_155\n      jump\t// in\n    tag_154:\n      mload(0x40)\n      dup1\n      swap2\n      sub\n      swap1\n      revert\n    tag_153:\n        /* \"contracts/voting.sol\":4837:4968  if (voters[_addressVoter].delegatedTo != msg.sender){... */\n    tag_152:\n        /* \"contracts/voting.sol\":5032:5033  1 */\n      0x01\n        /* \"contracts/voting.sol\":5005:5015  voteCounts */\n      0x05\n        /* \"contracts/voting.sol\":5005:5029  voteCounts[_candidateId] */\n      0x00\n        /* \"contracts/voting.sol\":5016:5028  _candidateId */\n      dup5\n        /* \"contracts/voting.sol\":5005:5029  voteCounts[_candidateId] */\n      dup2\n      mstore\n      0x20\n      add\n      swap1\n      dup2\n      mstore\n      0x20\n      add\n      0x00\n      keccak256\n      sload\n        /* \"contracts/voting.sol\":5005:5033  voteCounts[_candidateId] + 1 */\n      tag_156\n      swap2\n      swap1\n      tag_157\n      jump\t// in\n    tag_156:\n        /* \"contracts/voting.sol\":4977:4987  voteCounts */\n      0x05\n        /* \"contracts/voting.sol\":4977:5001  voteCounts[_candidateId] */\n      0x00\n        /* \"contracts/voting.sol\":4988:5000  _candidateId */\n      dup5\n        /* \"contracts/voting.sol\":4977:5001  voteCounts[_candidateId] */\n      dup2\n      mstore\n      0x20\n      add\n      swap1\n      dup2\n      mstore\n      0x20\n      add\n      0x00\n      keccak256\n        /* \"contracts/voting.sol\":4977:5033  voteCounts[_candidateId] =  voteCounts[_candidateId] + 1 */\n      dup2\n      swap1\n      sstore\n      pop\n        /* \"contracts/voting.sol\":5078:5090  _candidateId */\n      dup2\n        /* \"contracts/voting.sol\":5043:5049  voters */\n      0x04\n        /* \"contracts/voting.sol\":5043:5064  voters[_addressVoter] */\n      0x00\n        /* \"contracts/voting.sol\":5050:5063  _addressVoter */\n      dup4\n        /* \"contracts/voting.sol\":5043:5064  voters[_addressVoter] */\n      0xffffffffffffffffffffffffffffffffffffffff\n      and\n      0xffffffffffffffffffffffffffffffffffffffff\n      and\n      dup2\n      mstore\n      0x20\n      add\n      swap1\n      dup2\n      mstore\n      0x20\n      add\n      0x00\n      keccak256\n        /* \"contracts/voting.sol\":5043:5075  voters[_addressVoter].cadidateId */\n      0x04\n      add\n        /* \"contracts/voting.sol\":5043:5090  voters[_addressVoter].cadidateId = _candidateId */\n      dup2\n      swap1\n      sstore\n      pop\n        /* \"contracts/voting.sol\":5133:5137  true */\n      0x01\n        /* \"contracts/voting.sol\":5100:5106  voters */\n      0x04\n        /* \"contracts/voting.sol\":5100:5121  voters[_addressVoter] */\n      0x00\n        /* \"contracts/voting.sol\":5107:5120  _addressVoter */\n      dup4\n        /* \"contracts/voting.sol\":5100:5121  voters[_addressVoter] */\n      0xffffffffffffffffffffffffffffffffffffffff\n      and\n      0xffffffffffffffffffffffffffffffffffffffff\n      and\n      dup2\n      mstore\n      0x20\n      add\n      swap1\n      dup2\n      mstore\n      0x20\n      add\n      0x00\n      keccak256\n        /* \"contracts/voting.sol\":5100:5130  voters[_addressVoter].hasVoted */\n      0x03\n      add\n      0x14\n        /* \"contracts/voting.sol\":5100:5137  voters[_addressVoter].hasVoted = true */\n      0x0100\n      exp\n      dup2\n      sload\n      dup2\n      0xff\n      mul\n      not\n      and\n      swap1\n      dup4\n      iszero\n      iszero\n      mul\n      or\n      swap1\n      sstore\n      pop\n        /* \"contracts/voting.sol\":4457:5144  function castVote(uint256 _candidateId, address _addressVoter) public {... */\n      pop\n      pop\n      jump\t// out\n        /* \"contracts/voting.sol\":3093:3542  function displayCandidateDetails(uint256 _candidateId) public view ... */\n    tag_40:\n        /* \"contracts/voting.sol\":3191:3210  uint256 candidateId */\n      0x00\n        /* \"contracts/voting.sol\":3224:3246  string memory proposal */\n      0x60\n        /* \"contracts/voting.sol\":3260:3278  string memory name */\n      dup1\n        /* \"contracts/voting.sol\":3311:3321  candidates */\n      0x03\n        /* \"contracts/voting.sol\":3311:3335  candidates[_candidateId] */\n      0x00\n        /* \"contracts/voting.sol\":3322:3334  _candidateId */\n      dup6\n        /* \"contracts/voting.sol\":3311:3335  candidates[_candidateId] */\n      dup2\n      mstore\n      0x20\n      add\n      swap1\n      dup2\n      mstore\n      0x20\n      add\n      0x00\n      keccak256\n        /* \"contracts/voting.sol\":3311:3340  candidates[_candidateId].flag */\n      0x03\n      add\n      0x00\n      swap1\n      sload\n      swap1\n      0x0100\n      exp\n      swap1\n      div\n      0xff\n      and\n        /* \"contracts/voting.sol\":3303:3377  require(candidates[_candidateId].flag, \"Candidate with id does not exist\") */\n      tag_159\n      jumpi\n      mload(0x40)\n      0x08c379a000000000000000000000000000000000000000000000000000000000\n      dup2\n      mstore\n      0x04\n      add\n      tag_160\n      swap1\n      tag_161\n      jump\t// in\n    tag_160:\n      mload(0x40)\n      dup1\n      swap2\n      sub\n      swap1\n      revert\n    tag_159:\n        /* \"contracts/voting.sol\":3408:3418  candidates */\n      0x03\n        /* \"contracts/voting.sol\":3408:3432  candidates[_candidateId] */\n      0x00\n        /* \"contracts/voting.sol\":3419:3431  _candidateId */\n      dup6\n        /* \"contracts/voting.sol\":3408:3432  candidates[_candidateId] */\n      dup2\n      mstore\n      0x20\n      add\n      swap1\n      dup2\n      mstore\n      0x20\n      add\n      0x00\n      keccak256\n        /* \"contracts/voting.sol\":3408:3435  candidates[_candidateId].id */\n      0x00\n      add\n      sload\n        /* \"contracts/voting.sol\":3449:3459  candidates */\n      0x03\n        /* \"contracts/voting.sol\":3449:3473  candidates[_candidateId] */\n      0x00\n        /* \"contracts/voting.sol\":3460:3472  _candidateId */\n      dup7\n        /* \"contracts/voting.sol\":3449:3473  candidates[_candidateId] */\n      dup2\n      mstore\n      0x20\n      add\n      swap1\n      dup2\n      mstore\n      0x20\n      add\n      0x00\n      keccak256\n        /* \"contracts/voting.sol\":3449:3482  candidates[_candidateId].proposal */\n      0x02\n      add\n        /* \"contracts/voting.sol\":3496:3506  candidates */\n      0x03\n        /* \"contracts/voting.sol\":3496:3520  candidates[_candidateId] */\n      0x00\n        /* \"contracts/voting.sol\":3507:3519  _candidateId */\n      dup8\n        /* \"contracts/voting.sol\":3496:3520  candidates[_candidateId] */\n      dup2\n      mstore\n      0x20\n      add\n      swap1\n      dup2\n      mstore\n      0x20\n      add\n      0x00\n      keccak256\n        /* \"contracts/voting.sol\":3496:3525  candidates[_candidateId].name */\n      0x01\n      add\n        /* \"contracts/voting.sol\":3387:3535  return (... */\n      dup2\n      dup1\n      sload\n      tag_162\n      swap1\n      tag_100\n      jump\t// in\n    tag_162:\n      dup1\n      0x1f\n      add\n      0x20\n      dup1\n      swap2\n      div\n      mul\n      0x20\n      add\n      mload(0x40)\n      swap1\n      dup2\n      add\n      0x40\n      mstore\n      dup1\n      swap3\n      swap2\n      swap1\n      dup2\n      dup2\n      mstore\n      0x20\n      add\n      dup3\n      dup1\n      sload\n      tag_163\n      swap1\n      tag_100\n      jump\t// in\n    tag_163:\n      dup1\n      iszero\n      tag_164\n      jumpi\n      dup1\n      0x1f\n      lt\n      tag_165\n      jumpi\n      0x0100\n      dup1\n      dup4\n      sload\n      div\n      mul\n      dup4\n      mstore\n      swap2\n      0x20\n      add\n      swap2\n      jump(tag_164)\n    tag_165:\n      dup3\n      add\n      swap2\n      swap1\n      0x00\n      mstore\n      keccak256(0x00, 0x20)\n      swap1\n    tag_166:\n      dup2\n      sload\n      dup2\n      mstore\n      swap1\n      0x01\n      add\n      swap1\n      0x20\n      add\n      dup1\n      dup4\n      gt\n      tag_166\n      jumpi\n      dup3\n      swap1\n      sub\n      0x1f\n      and\n      dup3\n      add\n      swap2\n    tag_164:\n      pop\n      pop\n      pop\n      pop\n      pop\n      swap2\n      pop\n      dup1\n      dup1\n      sload\n      tag_167\n      swap1\n      tag_100\n      jump\t// in\n    tag_167:\n      dup1\n      0x1f\n      add\n      0x20\n      dup1\n      swap2\n      div\n      mul\n      0x20\n      add\n      mload(0x40)\n      swap1\n      dup2\n      add\n      0x40\n      mstore\n      dup1\n      swap3\n      swap2\n      swap1\n      dup2\n      dup2\n      mstore\n      0x20\n      add\n      dup3\n      dup1\n      sload\n      tag_168\n      swap1\n      tag_100\n      jump\t// in\n    tag_168:\n      dup1\n      iszero\n      tag_169\n      jumpi\n      dup1\n      0x1f\n      lt\n      tag_170\n      jumpi\n      0x0100\n      dup1\n      dup4\n      sload\n      div\n      mul\n      dup4\n      mstore\n      swap2\n      0x20\n      add\n      swap2\n      jump(tag_169)\n    tag_170:\n      dup3\n      add\n      swap2\n      swap1\n      0x00\n      mstore\n      keccak256(0x00, 0x20)\n      swap1\n    tag_171:\n      dup2\n      sload\n      dup2\n      mstore\n      swap1\n      0x01\n      add\n      swap1\n      0x20\n      add\n      dup1\n      dup4\n      gt\n      tag_171\n      jumpi\n      dup3\n      swap1\n      sub\n      0x1f\n      and\n      dup3\n      add\n      swap2\n    tag_169:\n      pop\n      pop\n      pop\n      pop\n      pop\n      swap1\n      pop\n      swap3\n      pop\n      swap3\n      pop\n      swap3\n      pop\n        /* \"contracts/voting.sol\":3093:3542  function displayCandidateDetails(uint256 _candidateId) public view ... */\n      swap2\n      swap4\n      swap1\n      swap3\n      pop\n      jump\t// out\n        /* \"contracts/voting.sol\":151:177  address public votingAdmin */\n    tag_44:\n      0x00\n      dup1\n      sload\n      swap1\n      0x0100\n      exp\n      swap1\n      div\n      0xffffffffffffffffffffffffffffffffffffffff\n      and\n      dup2\n      jump\t// out\n        /* \"contracts/voting.sol\":2455:3043  function startElection(address _contractOwner) public onlyVotingAdmin{... */\n    tag_50:\n        /* \"contracts/voting.sol\":302:313  votingAdmin */\n      0x00\n      dup1\n      sload\n      swap1\n      0x0100\n      exp\n      swap1\n      div\n      0xffffffffffffffffffffffffffffffffffffffff\n      and\n        /* \"contracts/voting.sol\":288:313  msg.sender == votingAdmin */\n      0xffffffffffffffffffffffffffffffffffffffff\n      and\n        /* \"contracts/voting.sol\":288:298  msg.sender */\n      caller\n        /* \"contracts/voting.sol\":288:313  msg.sender == votingAdmin */\n      0xffffffffffffffffffffffffffffffffffffffff\n      and\n      eq\n        /* \"contracts/voting.sol\":280:314  require(msg.sender == votingAdmin) */\n      tag_173\n      jumpi\n      0x00\n      dup1\n      revert\n    tag_173:\n        /* \"contracts/voting.sol\":2560:2571  votingAdmin */\n      0x00\n      dup1\n      sload\n      swap1\n      0x0100\n      exp\n      swap1\n      div\n      0xffffffffffffffffffffffffffffffffffffffff\n      and\n        /* \"contracts/voting.sol\":2542:2571  _contractOwner == votingAdmin */\n      0xffffffffffffffffffffffffffffffffffffffff\n      and\n        /* \"contracts/voting.sol\":2542:2556  _contractOwner */\n      dup2\n        /* \"contracts/voting.sol\":2542:2571  _contractOwner == votingAdmin */\n      0xffffffffffffffffffffffffffffffffffffffff\n      and\n      eq\n        /* \"contracts/voting.sol\":2534:2609  require(_contractOwner == votingAdmin, \"Only admin has access to do this.\") */\n      tag_175\n      jumpi\n      mload(0x40)\n      0x08c379a000000000000000000000000000000000000000000000000000000000\n      dup2\n      mstore\n      0x04\n      add\n      tag_176\n      swap1\n      tag_61\n      jump\t// in\n    tag_176:\n      mload(0x40)\n      dup1\n      swap2\n      sub\n      swap1\n      revert\n    tag_175:\n        /* \"contracts/voting.sol\":2642:2643  0 */\n      0x00\n        /* \"contracts/voting.sol\":2627:2641  candidateCount */\n      sload(0x01)\n        /* \"contracts/voting.sol\":2627:2643  candidateCount>0 */\n      gt\n        /* \"contracts/voting.sol\":2619:2671  require(candidateCount>0, \"0 candidates registered\") */\n      tag_177\n      jumpi\n      mload(0x40)\n      0x08c379a000000000000000000000000000000000000000000000000000000000\n      dup2\n      mstore\n      0x04\n      add\n      tag_178\n      swap1\n      tag_142\n      jump\t// in\n    tag_178:\n      mload(0x40)\n      dup1\n      swap2\n      sub\n      swap1\n      revert\n    tag_177:\n        /* \"contracts/voting.sol\":2700:2701  0 */\n      0x00\n        /* \"contracts/voting.sol\":2689:2699  voterCount */\n      sload(0x02)\n        /* \"contracts/voting.sol\":2689:2701  voterCount>0 */\n      gt\n        /* \"contracts/voting.sol\":2681:2725  require(voterCount>0, \"0 voters registered\") */\n      tag_179\n      jumpi\n      mload(0x40)\n      0x08c379a000000000000000000000000000000000000000000000000000000000\n      dup2\n      mstore\n      0x04\n      add\n      tag_180\n      swap1\n      tag_181\n      jump\t// in\n    tag_180:\n      mload(0x40)\n      dup1\n      swap2\n      sub\n      swap1\n      revert\n    tag_179:\n        /* \"contracts/voting.sol\":2746:2766  VotingStatus.ONGOING */\n      0x01\n        /* \"contracts/voting.sol\":2738:2766  status==VotingStatus.ONGOING */\n      0x02\n      dup2\n      gt\n      iszero\n      tag_182\n      jumpi\n      tag_183\n      tag_64\n      jump\t// in\n    tag_183:\n    tag_182:\n        /* \"contracts/voting.sol\":2738:2744  status */\n      0x00\n      0x14\n      swap1\n      sload\n      swap1\n      0x0100\n      exp\n      swap1\n      div\n      0xff\n      and\n        /* \"contracts/voting.sol\":2738:2766  status==VotingStatus.ONGOING */\n      0x02\n      dup2\n      gt\n      iszero\n      tag_184\n      jumpi\n      tag_185\n      tag_64\n      jump\t// in\n    tag_185:\n    tag_184:\n      sub\n        /* \"contracts/voting.sol\":2735:3000  if(status==VotingStatus.ONGOING){... */\n      tag_186\n      jumpi\n        /* \"contracts/voting.sol\":2817:2823  status */\n      0x00\n      0x14\n      swap1\n      sload\n      swap1\n      0x0100\n      exp\n      swap1\n      div\n      0xff\n      and\n        /* \"contracts/voting.sol\":2788:2852  CanNotStartElection({status: status, message: \"Voting ongoing\"}) */\n      mload(0x40)\n      0xef90b1c100000000000000000000000000000000000000000000000000000000\n      dup2\n      mstore\n      0x04\n      add\n      tag_187\n      swap2\n      swap1\n      tag_188\n      jump\t// in\n    tag_187:\n      mload(0x40)\n      dup1\n      swap2\n      sub\n      swap1\n      revert\n        /* \"contracts/voting.sol\":2735:3000  if(status==VotingStatus.ONGOING){... */\n    tag_186:\n        /* \"contracts/voting.sol\":2879:2901  VotingStatus.COMPLETED */\n      0x02\n        /* \"contracts/voting.sol\":2871:2901  status==VotingStatus.COMPLETED */\n      dup1\n      dup2\n      gt\n      iszero\n      tag_190\n      jumpi\n      tag_191\n      tag_64\n      jump\t// in\n    tag_191:\n    tag_190:\n        /* \"contracts/voting.sol\":2871:2877  status */\n      0x00\n      0x14\n      swap1\n      sload\n      swap1\n      0x0100\n      exp\n      swap1\n      div\n      0xff\n      and\n        /* \"contracts/voting.sol\":2871:2901  status==VotingStatus.COMPLETED */\n      0x02\n      dup2\n      gt\n      iszero\n      tag_192\n      jumpi\n      tag_193\n      tag_64\n      jump\t// in\n    tag_193:\n    tag_192:\n      sub\n        /* \"contracts/voting.sol\":2868:3000  if(status==VotingStatus.COMPLETED){... */\n      tag_194\n      jumpi\n        /* \"contracts/voting.sol\":2952:2958  status */\n      0x00\n      0x14\n      swap1\n      sload\n      swap1\n      0x0100\n      exp\n      swap1\n      div\n      0xff\n      and\n        /* \"contracts/voting.sol\":2923:2989  CanNotStartElection({status: status, message: \"Voting completed\"}) */\n      mload(0x40)\n      0xef90b1c100000000000000000000000000000000000000000000000000000000\n      dup2\n      mstore\n      0x04\n      add\n      tag_195\n      swap2\n      swap1\n      tag_196\n      jump\t// in\n    tag_195:\n      mload(0x40)\n      dup1\n      swap2\n      sub\n      swap1\n      revert\n        /* \"contracts/voting.sol\":2868:3000  if(status==VotingStatus.COMPLETED){... */\n    tag_194:\n        /* \"contracts/voting.sol\":3016:3036  VotingStatus.ONGOING */\n      0x01\n        /* \"contracts/voting.sol\":3009:3015  status */\n      0x00\n      0x14\n        /* \"contracts/voting.sol\":3009:3036  status=VotingStatus.ONGOING */\n      0x0100\n      exp\n      dup2\n      sload\n      dup2\n      0xff\n      mul\n      not\n      and\n      swap1\n      dup4\n      0x02\n      dup2\n      gt\n      iszero\n      tag_197\n      jumpi\n      tag_198\n      tag_64\n      jump\t// in\n    tag_198:\n    tag_197:\n      mul\n      or\n      swap1\n      sstore\n      pop\n        /* \"contracts/voting.sol\":2455:3043  function startElection(address _contractOwner) public onlyVotingAdmin{... */\n      pop\n      jump\t// out\n        /* \"contracts/voting.sol\":5945:6410  function viewVoterDetails(address _addressVoter) public view returns (... */\n    tag_53:\n        /* \"contracts/voting.sol\":6028:6048  address addressVoter */\n      0x00\n        /* \"contracts/voting.sol\":6062:6080  string memory name */\n      0x60\n        /* \"contracts/voting.sol\":6094:6114  bool isVoteDelegated */\n      0x00\n        /* \"contracts/voting.sol\":6147:6153  voters */\n      0x04\n        /* \"contracts/voting.sol\":6147:6168  voters[_addressVoter] */\n      0x00\n        /* \"contracts/voting.sol\":6154:6167  _addressVoter */\n      dup6\n        /* \"contracts/voting.sol\":6147:6168  voters[_addressVoter] */\n      0xffffffffffffffffffffffffffffffffffffffff\n      and\n      0xffffffffffffffffffffffffffffffffffffffff\n      and\n      dup2\n      mstore\n      0x20\n      add\n      swap1\n      dup2\n      mstore\n      0x20\n      add\n      0x00\n      keccak256\n        /* \"contracts/voting.sol\":6147:6173  voters[_addressVoter].flag */\n      0x05\n      add\n      0x00\n      swap1\n      sload\n      swap1\n      0x0100\n      exp\n      swap1\n      div\n      0xff\n      and\n        /* \"contracts/voting.sol\":6139:6211  require(voters[_addressVoter].flag, \"voter with address does not exist\") */\n      tag_200\n      jumpi\n      mload(0x40)\n      0x08c379a000000000000000000000000000000000000000000000000000000000\n      dup2\n      mstore\n      0x04\n      add\n      tag_201\n      swap1\n      tag_148\n      jump\t// in\n    tag_201:\n      mload(0x40)\n      dup1\n      swap2\n      sub\n      swap1\n      revert\n    tag_200:\n        /* \"contracts/voting.sol\":6241:6247  voters */\n      0x04\n        /* \"contracts/voting.sol\":6241:6262  voters[_addressVoter] */\n      0x00\n        /* \"contracts/voting.sol\":6248:6261  _addressVoter */\n      dup6\n        /* \"contracts/voting.sol\":6241:6262  voters[_addressVoter] */\n      0xffffffffffffffffffffffffffffffffffffffff\n      and\n      0xffffffffffffffffffffffffffffffffffffffff\n      and\n      dup2\n      mstore\n      0x20\n      add\n      swap1\n      dup2\n      mstore\n      0x20\n      add\n      0x00\n      keccak256\n        /* \"contracts/voting.sol\":6241:6275  voters[_addressVoter].addressVoter */\n      0x02\n      add\n      0x00\n      swap1\n      sload\n      swap1\n      0x0100\n      exp\n      swap1\n      div\n      0xffffffffffffffffffffffffffffffffffffffff\n      and\n        /* \"contracts/voting.sol\":6289:6295  voters */\n      0x04\n        /* \"contracts/voting.sol\":6289:6310  voters[_addressVoter] */\n      0x00\n        /* \"contracts/voting.sol\":6296:6309  _addressVoter */\n      dup7\n        /* \"contracts/voting.sol\":6289:6310  voters[_addressVoter] */\n      0xffffffffffffffffffffffffffffffffffffffff\n      and\n      0xffffffffffffffffffffffffffffffffffffffff\n      and\n      dup2\n      mstore\n      0x20\n      add\n      swap1\n      dup2\n      mstore\n      0x20\n      add\n      0x00\n      keccak256\n        /* \"contracts/voting.sol\":6289:6315  voters[_addressVoter].name */\n      0x01\n      add\n        /* \"contracts/voting.sol\":6366:6378  addressVoter */\n      dup5\n        /* \"contracts/voting.sol\":6329:6378  voters[_addressVoter].delegatedTo == addressVoter */\n      0xffffffffffffffffffffffffffffffffffffffff\n      and\n        /* \"contracts/voting.sol\":6329:6335  voters */\n      0x04\n        /* \"contracts/voting.sol\":6329:6350  voters[_addressVoter] */\n      0x00\n        /* \"contracts/voting.sol\":6336:6349  _addressVoter */\n      dup9\n        /* \"contracts/voting.sol\":6329:6350  voters[_addressVoter] */\n      0xffffffffffffffffffffffffffffffffffffffff\n      and\n      0xffffffffffffffffffffffffffffffffffffffff\n      and\n      dup2\n      mstore\n      0x20\n      add\n      swap1\n      dup2\n      mstore\n      0x20\n      add\n      0x00\n      keccak256\n        /* \"contracts/voting.sol\":6329:6362  voters[_addressVoter].delegatedTo */\n      0x03\n      add\n      0x00\n      swap1\n      sload\n      swap1\n      0x0100\n      exp\n      swap1\n      div\n      0xffffffffffffffffffffffffffffffffffffffff\n      and\n        /* \"contracts/voting.sol\":6329:6378  voters[_addressVoter].delegatedTo == addressVoter */\n      0xffffffffffffffffffffffffffffffffffffffff\n      and\n      eq\n        /* \"contracts/voting.sol\":6329:6393  voters[_addressVoter].delegatedTo == addressVoter ? false : true */\n      tag_202\n      jumpi\n        /* \"contracts/voting.sol\":6389:6393  true */\n      0x01\n        /* \"contracts/voting.sol\":6329:6393  voters[_addressVoter].delegatedTo == addressVoter ? false : true */\n      jump(tag_203)\n    tag_202:\n        /* \"contracts/voting.sol\":6381:6386  false */\n      0x00\n        /* \"contracts/voting.sol\":6329:6393  voters[_addressVoter].delegatedTo == addressVoter ? false : true */\n    tag_203:\n        /* \"contracts/voting.sol\":6221:6403  return(... */\n      dup2\n      dup1\n      sload\n      tag_204\n      swap1\n      tag_100\n      jump\t// in\n    tag_204:\n      dup1\n      0x1f\n      add\n      0x20\n      dup1\n      swap2\n      div\n      mul\n      0x20\n      add\n      mload(0x40)\n      swap1\n      dup2\n      add\n      0x40\n      mstore\n      dup1\n      swap3\n      swap2\n      swap1\n      dup2\n      dup2\n      mstore\n      0x20\n      add\n      dup3\n      dup1\n      sload\n      tag_205\n      swap1\n      tag_100\n      jump\t// in\n    tag_205:\n      dup1\n      iszero\n      tag_206\n      jumpi\n      dup1\n      0x1f\n      lt\n      tag_207\n      jumpi\n      0x0100\n      dup1\n      dup4\n      sload\n      div\n      mul\n      dup4\n      mstore\n      swap2\n      0x20\n      add\n      swap2\n      jump(tag_206)\n    tag_207:\n      dup3\n      add\n      swap2\n      swap1\n      0x00\n      mstore\n      keccak256(0x00, 0x20)\n      swap1\n    tag_208:\n      dup2\n      sload\n      dup2\n      mstore\n      swap1\n      0x01\n      add\n      swap1\n      0x20\n      add\n      dup1\n      dup4\n      gt\n      tag_208\n      jumpi\n      dup3\n      swap1\n      sub\n      0x1f\n      and\n      dup3\n      add\n      swap2\n    tag_206:\n      pop\n      pop\n      pop\n      pop\n      pop\n      swap2\n      pop\n      swap3\n      pop\n      swap3\n      pop\n      swap3\n      pop\n        /* \"contracts/voting.sol\":5945:6410  function viewVoterDetails(address _addressVoter) public view returns (... */\n      swap2\n      swap4\n      swap1\n      swap3\n      pop\n      jump\t// out\n        /* \"#utility.yul\":7:82   */\n    tag_209:\n        /* \"#utility.yul\":40:46   */\n      0x00\n        /* \"#utility.yul\":73:75   */\n      0x40\n        /* \"#utility.yul\":67:76   */\n      mload\n        /* \"#utility.yul\":57:76   */\n      swap1\n      pop\n        /* \"#utility.yul\":7:82   */\n      swap1\n      jump\t// out\n        /* \"#utility.yul\":88:205   */\n    tag_210:\n        /* \"#utility.yul\":197:198   */\n      0x00\n        /* \"#utility.yul\":194:195   */\n      dup1\n        /* \"#utility.yul\":187:199   */\n      revert\n        /* \"#utility.yul\":211:328   */\n    tag_211:\n        /* \"#utility.yul\":320:321   */\n      0x00\n        /* \"#utility.yul\":317:318   */\n      dup1\n        /* \"#utility.yul\":310:322   */\n      revert\n        /* \"#utility.yul\":334:460   */\n    tag_212:\n        /* \"#utility.yul\":371:378   */\n      0x00\n        /* \"#utility.yul\":411:453   */\n      0xffffffffffffffffffffffffffffffffffffffff\n        /* \"#utility.yul\":404:409   */\n      dup3\n        /* \"#utility.yul\":400:454   */\n      and\n        /* \"#utility.yul\":389:454   */\n      swap1\n      pop\n        /* \"#utility.yul\":334:460   */\n      swap2\n      swap1\n      pop\n      jump\t// out\n        /* \"#utility.yul\":466:562   */\n    tag_213:\n        /* \"#utility.yul\":503:510   */\n      0x00\n        /* \"#utility.yul\":532:556   */\n      tag_300\n        /* \"#utility.yul\":550:555   */\n      dup3\n        /* \"#utility.yul\":532:556   */\n      tag_212\n      jump\t// in\n    tag_300:\n        /* \"#utility.yul\":521:556   */\n      swap1\n      pop\n        /* \"#utility.yul\":466:562   */\n      swap2\n      swap1\n      pop\n      jump\t// out\n        /* \"#utility.yul\":568:690   */\n    tag_214:\n        /* \"#utility.yul\":641:665   */\n      tag_302\n        /* \"#utility.yul\":659:664   */\n      dup2\n        /* \"#utility.yul\":641:665   */\n      tag_213\n      jump\t// in\n    tag_302:\n        /* \"#utility.yul\":634:639   */\n      dup2\n        /* \"#utility.yul\":631:666   */\n      eq\n        /* \"#utility.yul\":621:684   */\n      tag_303\n      jumpi\n        /* \"#utility.yul\":680:681   */\n      0x00\n        /* \"#utility.yul\":677:678   */\n      dup1\n        /* \"#utility.yul\":670:682   */\n      revert\n        /* \"#utility.yul\":621:684   */\n    tag_303:\n        /* \"#utility.yul\":568:690   */\n      pop\n      jump\t// out\n        /* \"#utility.yul\":696:835   */\n    tag_215:\n        /* \"#utility.yul\":742:747   */\n      0x00\n        /* \"#utility.yul\":780:786   */\n      dup2\n        /* \"#utility.yul\":767:787   */\n      calldataload\n        /* \"#utility.yul\":758:787   */\n      swap1\n      pop\n        /* \"#utility.yul\":796:829   */\n      tag_305\n        /* \"#utility.yul\":823:828   */\n      dup2\n        /* \"#utility.yul\":796:829   */\n      tag_214\n      jump\t// in\n    tag_305:\n        /* \"#utility.yul\":696:835   */\n      swap3\n      swap2\n      pop\n      pop\n      jump\t// out\n        /* \"#utility.yul\":841:958   */\n    tag_216:\n        /* \"#utility.yul\":950:951   */\n      0x00\n        /* \"#utility.yul\":947:948   */\n      dup1\n        /* \"#utility.yul\":940:952   */\n      revert\n        /* \"#utility.yul\":964:1081   */\n    tag_217:\n        /* \"#utility.yul\":1073:1074   */\n      0x00\n        /* \"#utility.yul\":1070:1071   */\n      dup1\n        /* \"#utility.yul\":1063:1075   */\n      revert\n        /* \"#utility.yul\":1087:1189   */\n    tag_218:\n        /* \"#utility.yul\":1128:1134   */\n      0x00\n        /* \"#utility.yul\":1179:1181   */\n      0x1f\n        /* \"#utility.yul\":1175:1182   */\n      not\n        /* \"#utility.yul\":1170:1172   */\n      0x1f\n        /* \"#utility.yul\":1163:1168   */\n      dup4\n        /* \"#utility.yul\":1159:1173   */\n      add\n        /* \"#utility.yul\":1155:1183   */\n      and\n        /* \"#utility.yul\":1145:1183   */\n      swap1\n      pop\n        /* \"#utility.yul\":1087:1189   */\n      swap2\n      swap1\n      pop\n      jump\t// out\n        /* \"#utility.yul\":1195:1375   */\n    tag_219:\n        /* \"#utility.yul\":1243:1320   */\n      0x4e487b7100000000000000000000000000000000000000000000000000000000\n        /* \"#utility.yul\":1240:1241   */\n      0x00\n        /* \"#utility.yul\":1233:1321   */\n      mstore\n        /* \"#utility.yul\":1340:1344   */\n      0x41\n        /* \"#utility.yul\":1337:1338   */\n      0x04\n        /* \"#utility.yul\":1330:1345   */\n      mstore\n        /* \"#utility.yul\":1364:1368   */\n      0x24\n        /* \"#utility.yul\":1361:1362   */\n      0x00\n        /* \"#utility.yul\":1354:1369   */\n      revert\n        /* \"#utility.yul\":1381:1662   */\n    tag_220:\n        /* \"#utility.yul\":1464:1491   */\n      tag_311\n        /* \"#utility.yul\":1486:1490   */\n      dup3\n        /* \"#utility.yul\":1464:1491   */\n      tag_218\n      jump\t// in\n    tag_311:\n        /* \"#utility.yul\":1456:1462   */\n      dup2\n        /* \"#utility.yul\":1452:1492   */\n      add\n        /* \"#utility.yul\":1594:1600   */\n      dup2\n        /* \"#utility.yul\":1582:1592   */\n      dup2\n        /* \"#utility.yul\":1579:1601   */\n      lt\n        /* \"#utility.yul\":1558:1576   */\n      0xffffffffffffffff\n        /* \"#utility.yul\":1546:1556   */\n      dup3\n        /* \"#utility.yul\":1543:1577   */\n      gt\n        /* \"#utility.yul\":1540:1602   */\n      or\n        /* \"#utility.yul\":1537:1625   */\n      iszero\n      tag_312\n      jumpi\n        /* \"#utility.yul\":1605:1623   */\n      tag_313\n      tag_219\n      jump\t// in\n    tag_313:\n        /* \"#utility.yul\":1537:1625   */\n    tag_312:\n        /* \"#utility.yul\":1645:1655   */\n      dup1\n        /* \"#utility.yul\":1641:1643   */\n      0x40\n        /* \"#utility.yul\":1634:1656   */\n      mstore\n        /* \"#utility.yul\":1424:1662   */\n      pop\n        /* \"#utility.yul\":1381:1662   */\n      pop\n      pop\n      jump\t// out\n        /* \"#utility.yul\":1668:1797   */\n    tag_221:\n        /* \"#utility.yul\":1702:1708   */\n      0x00\n        /* \"#utility.yul\":1729:1749   */\n      tag_315\n      tag_209\n      jump\t// in\n    tag_315:\n        /* \"#utility.yul\":1719:1749   */\n      swap1\n      pop\n        /* \"#utility.yul\":1758:1791   */\n      tag_316\n        /* \"#utility.yul\":1786:1790   */\n      dup3\n        /* \"#utility.yul\":1778:1784   */\n      dup3\n        /* \"#utility.yul\":1758:1791   */\n      tag_220\n      jump\t// in\n    tag_316:\n        /* \"#utility.yul\":1668:1797   */\n      swap2\n      swap1\n      pop\n      jump\t// out\n        /* \"#utility.yul\":1803:2111   */\n    tag_222:\n        /* \"#utility.yul\":1865:1869   */\n      0x00\n        /* \"#utility.yul\":1955:1973   */\n      0xffffffffffffffff\n        /* \"#utility.yul\":1947:1953   */\n      dup3\n        /* \"#utility.yul\":1944:1974   */\n      gt\n        /* \"#utility.yul\":1941:1997   */\n      iszero\n      tag_318\n      jumpi\n        /* \"#utility.yul\":1977:1995   */\n      tag_319\n      tag_219\n      jump\t// in\n    tag_319:\n        /* \"#utility.yul\":1941:1997   */\n    tag_318:\n        /* \"#utility.yul\":2015:2044   */\n      tag_320\n        /* \"#utility.yul\":2037:2043   */\n      dup3\n        /* \"#utility.yul\":2015:2044   */\n      tag_218\n      jump\t// in\n    tag_320:\n        /* \"#utility.yul\":2007:2044   */\n      swap1\n      pop\n        /* \"#utility.yul\":2099:2103   */\n      0x20\n        /* \"#utility.yul\":2093:2097   */\n      dup2\n        /* \"#utility.yul\":2089:2104   */\n      add\n        /* \"#utility.yul\":2081:2104   */\n      swap1\n      pop\n        /* \"#utility.yul\":1803:2111   */\n      swap2\n      swap1\n      pop\n      jump\t// out\n        /* \"#utility.yul\":2117:2263   */\n    tag_223:\n        /* \"#utility.yul\":2214:2220   */\n      dup3\n        /* \"#utility.yul\":2209:2212   */\n      dup2\n        /* \"#utility.yul\":2204:2207   */\n      dup4\n        /* \"#utility.yul\":2191:2221   */\n      calldatacopy\n        /* \"#utility.yul\":2255:2256   */\n      0x00\n        /* \"#utility.yul\":2246:2252   */\n      dup4\n        /* \"#utility.yul\":2241:2244   */\n      dup4\n        /* \"#utility.yul\":2237:2253   */\n      add\n        /* \"#utility.yul\":2230:2257   */\n      mstore\n        /* \"#utility.yul\":2117:2263   */\n      pop\n      pop\n      pop\n      jump\t// out\n        /* \"#utility.yul\":2269:2694   */\n    tag_224:\n        /* \"#utility.yul\":2347:2352   */\n      0x00\n        /* \"#utility.yul\":2372:2438   */\n      tag_323\n        /* \"#utility.yul\":2388:2437   */\n      tag_324\n        /* \"#utility.yul\":2430:2436   */\n      dup5\n        /* \"#utility.yul\":2388:2437   */\n      tag_222\n      jump\t// in\n    tag_324:\n        /* \"#utility.yul\":2372:2438   */\n      tag_221\n      jump\t// in\n    tag_323:\n        /* \"#utility.yul\":2363:2438   */\n      swap1\n      pop\n        /* \"#utility.yul\":2461:2467   */\n      dup3\n        /* \"#utility.yul\":2454:2459   */\n      dup2\n        /* \"#utility.yul\":2447:2468   */\n      mstore\n        /* \"#utility.yul\":2499:2503   */\n      0x20\n        /* \"#utility.yul\":2492:2497   */\n      dup2\n        /* \"#utility.yul\":2488:2504   */\n      add\n        /* \"#utility.yul\":2537:2540   */\n      dup5\n        /* \"#utility.yul\":2528:2534   */\n      dup5\n        /* \"#utility.yul\":2523:2526   */\n      dup5\n        /* \"#utility.yul\":2519:2535   */\n      add\n        /* \"#utility.yul\":2516:2541   */\n      gt\n        /* \"#utility.yul\":2513:2625   */\n      iszero\n      tag_325\n      jumpi\n        /* \"#utility.yul\":2544:2623   */\n      tag_326\n      tag_217\n      jump\t// in\n    tag_326:\n        /* \"#utility.yul\":2513:2625   */\n    tag_325:\n        /* \"#utility.yul\":2634:2688   */\n      tag_327\n        /* \"#utility.yul\":2681:2687   */\n      dup5\n        /* \"#utility.yul\":2676:2679   */\n      dup3\n        /* \"#utility.yul\":2671:2674   */\n      dup6\n        /* \"#utility.yul\":2634:2688   */\n      tag_223\n      jump\t// in\n    tag_327:\n        /* \"#utility.yul\":2353:2694   */\n      pop\n        /* \"#utility.yul\":2269:2694   */\n      swap4\n      swap3\n      pop\n      pop\n      pop\n      jump\t// out\n        /* \"#utility.yul\":2714:3054   */\n    tag_225:\n        /* \"#utility.yul\":2770:2775   */\n      0x00\n        /* \"#utility.yul\":2819:2822   */\n      dup3\n        /* \"#utility.yul\":2812:2816   */\n      0x1f\n        /* \"#utility.yul\":2804:2810   */\n      dup4\n        /* \"#utility.yul\":2800:2817   */\n      add\n        /* \"#utility.yul\":2796:2823   */\n      slt\n        /* \"#utility.yul\":2786:2908   */\n      tag_329\n      jumpi\n        /* \"#utility.yul\":2827:2906   */\n      tag_330\n      tag_216\n      jump\t// in\n    tag_330:\n        /* \"#utility.yul\":2786:2908   */\n    tag_329:\n        /* \"#utility.yul\":2944:2950   */\n      dup2\n        /* \"#utility.yul\":2931:2951   */\n      calldataload\n        /* \"#utility.yul\":2969:3048   */\n      tag_331\n        /* \"#utility.yul\":3044:3047   */\n      dup5\n        /* \"#utility.yul\":3036:3042   */\n      dup3\n        /* \"#utility.yul\":3029:3033   */\n      0x20\n        /* \"#utility.yul\":3021:3027   */\n      dup7\n        /* \"#utility.yul\":3017:3034   */\n      add\n        /* \"#utility.yul\":2969:3048   */\n      tag_224\n      jump\t// in\n    tag_331:\n        /* \"#utility.yul\":2960:3048   */\n      swap2\n      pop\n        /* \"#utility.yul\":2776:3054   */\n      pop\n        /* \"#utility.yul\":2714:3054   */\n      swap3\n      swap2\n      pop\n      pop\n      jump\t// out\n        /* \"#utility.yul\":3060:3859   */\n    tag_16:\n        /* \"#utility.yul\":3147:3153   */\n      0x00\n        /* \"#utility.yul\":3155:3161   */\n      dup1\n        /* \"#utility.yul\":3163:3169   */\n      0x00\n        /* \"#utility.yul\":3212:3214   */\n      0x60\n        /* \"#utility.yul\":3200:3209   */\n      dup5\n        /* \"#utility.yul\":3191:3198   */\n      dup7\n        /* \"#utility.yul\":3187:3210   */\n      sub\n        /* \"#utility.yul\":3183:3215   */\n      slt\n        /* \"#utility.yul\":3180:3299   */\n      iszero\n      tag_333\n      jumpi\n        /* \"#utility.yul\":3218:3297   */\n      tag_334\n      tag_210\n      jump\t// in\n    tag_334:\n        /* \"#utility.yul\":3180:3299   */\n    tag_333:\n        /* \"#utility.yul\":3338:3339   */\n      0x00\n        /* \"#utility.yul\":3363:3416   */\n      tag_335\n        /* \"#utility.yul\":3408:3415   */\n      dup7\n        /* \"#utility.yul\":3399:3405   */\n      dup3\n        /* \"#utility.yul\":3388:3397   */\n      dup8\n        /* \"#utility.yul\":3384:3406   */\n      add\n        /* \"#utility.yul\":3363:3416   */\n      tag_215\n      jump\t// in\n    tag_335:\n        /* \"#utility.yul\":3353:3416   */\n      swap4\n      pop\n        /* \"#utility.yul\":3309:3426   */\n      pop\n        /* \"#utility.yul\":3493:3495   */\n      0x20\n        /* \"#utility.yul\":3482:3491   */\n      dup5\n        /* \"#utility.yul\":3478:3496   */\n      add\n        /* \"#utility.yul\":3465:3497   */\n      calldataload\n        /* \"#utility.yul\":3524:3542   */\n      0xffffffffffffffff\n        /* \"#utility.yul\":3516:3522   */\n      dup2\n        /* \"#utility.yul\":3513:3543   */\n      gt\n        /* \"#utility.yul\":3510:3627   */\n      iszero\n      tag_336\n      jumpi\n        /* \"#utility.yul\":3546:3625   */\n      tag_337\n      tag_211\n      jump\t// in\n    tag_337:\n        /* \"#utility.yul\":3510:3627   */\n    tag_336:\n        /* \"#utility.yul\":3651:3714   */\n      tag_338\n        /* \"#utility.yul\":3706:3713   */\n      dup7\n        /* \"#utility.yul\":3697:3703   */\n      dup3\n        /* \"#utility.yul\":3686:3695   */\n      dup8\n        /* \"#utility.yul\":3682:3704   */\n      add\n        /* \"#utility.yul\":3651:3714   */\n      tag_225\n      jump\t// in\n    tag_338:\n        /* \"#utility.yul\":3641:3714   */\n      swap3\n      pop\n        /* \"#utility.yul\":3436:3724   */\n      pop\n        /* \"#utility.yul\":3763:3765   */\n      0x40\n        /* \"#utility.yul\":3789:3842   */\n      tag_339\n        /* \"#utility.yul\":3834:3841   */\n      dup7\n        /* \"#utility.yul\":3825:3831   */\n      dup3\n        /* \"#utility.yul\":3814:3823   */\n      dup8\n        /* \"#utility.yul\":3810:3832   */\n      add\n        /* \"#utility.yul\":3789:3842   */\n      tag_215\n      jump\t// in\n    tag_339:\n        /* \"#utility.yul\":3779:3842   */\n      swap2\n      pop\n        /* \"#utility.yul\":3734:3852   */\n      pop\n        /* \"#utility.yul\":3060:3859   */\n      swap3\n      pop\n      swap3\n      pop\n      swap3\n      jump\t// out\n        /* \"#utility.yul\":3865:4339   */\n    tag_20:\n        /* \"#utility.yul\":3933:3939   */\n      0x00\n        /* \"#utility.yul\":3941:3947   */\n      dup1\n        /* \"#utility.yul\":3990:3992   */\n      0x40\n        /* \"#utility.yul\":3978:3987   */\n      dup4\n        /* \"#utility.yul\":3969:3976   */\n      dup6\n        /* \"#utility.yul\":3965:3988   */\n      sub\n        /* \"#utility.yul\":3961:3993   */\n      slt\n        /* \"#utility.yul\":3958:4077   */\n      iszero\n      tag_341\n      jumpi\n        /* \"#utility.yul\":3996:4075   */\n      tag_342\n      tag_210\n      jump\t// in\n    tag_342:\n        /* \"#utility.yul\":3958:4077   */\n    tag_341:\n        /* \"#utility.yul\":4116:4117   */\n      0x00\n        /* \"#utility.yul\":4141:4194   */\n      tag_343\n        /* \"#utility.yul\":4186:4193   */\n      dup6\n        /* \"#utility.yul\":4177:4183   */\n      dup3\n        /* \"#utility.yul\":4166:4175   */\n      dup7\n        /* \"#utility.yul\":4162:4184   */\n      add\n        /* \"#utility.yul\":4141:4194   */\n      tag_215\n      jump\t// in\n    tag_343:\n        /* \"#utility.yul\":4131:4194   */\n      swap3\n      pop\n        /* \"#utility.yul\":4087:4204   */\n      pop\n        /* \"#utility.yul\":4243:4245   */\n      0x20\n        /* \"#utility.yul\":4269:4322   */\n      tag_344\n        /* \"#utility.yul\":4314:4321   */\n      dup6\n        /* \"#utility.yul\":4305:4311   */\n      dup3\n        /* \"#utility.yul\":4294:4303   */\n      dup7\n        /* \"#utility.yul\":4290:4312   */\n      add\n        /* \"#utility.yul\":4269:4322   */\n      tag_215\n      jump\t// in\n    tag_344:\n        /* \"#utility.yul\":4259:4322   */\n      swap2\n      pop\n        /* \"#utility.yul\":4214:4332   */\n      pop\n        /* \"#utility.yul\":3865:4339   */\n      swap3\n      pop\n      swap3\n      swap1\n      pop\n      jump\t// out\n        /* \"#utility.yul\":4345:4422   */\n    tag_226:\n        /* \"#utility.yul\":4382:4389   */\n      0x00\n        /* \"#utility.yul\":4411:4416   */\n      dup2\n        /* \"#utility.yul\":4400:4416   */\n      swap1\n      pop\n        /* \"#utility.yul\":4345:4422   */\n      swap2\n      swap1\n      pop\n      jump\t// out\n        /* \"#utility.yul\":4428:4550   */\n    tag_227:\n        /* \"#utility.yul\":4501:4525   */\n      tag_347\n        /* \"#utility.yul\":4519:4524   */\n      dup2\n        /* \"#utility.yul\":4501:4525   */\n      tag_226\n      jump\t// in\n    tag_347:\n        /* \"#utility.yul\":4494:4499   */\n      dup2\n        /* \"#utility.yul\":4491:4526   */\n      eq\n        /* \"#utility.yul\":4481:4544   */\n      tag_348\n      jumpi\n        /* \"#utility.yul\":4540:4541   */\n      0x00\n        /* \"#utility.yul\":4537:4538   */\n      dup1\n        /* \"#utility.yul\":4530:4542   */\n      revert\n        /* \"#utility.yul\":4481:4544   */\n    tag_348:\n        /* \"#utility.yul\":4428:4550   */\n      pop\n      jump\t// out\n        /* \"#utility.yul\":4556:4695   */\n    tag_228:\n        /* \"#utility.yul\":4602:4607   */\n      0x00\n        /* \"#utility.yul\":4640:4646   */\n      dup2\n        /* \"#utility.yul\":4627:4647   */\n      calldataload\n        /* \"#utility.yul\":4618:4647   */\n      swap1\n      pop\n        /* \"#utility.yul\":4656:4689   */\n      tag_350\n        /* \"#utility.yul\":4683:4688   */\n      dup2\n        /* \"#utility.yul\":4656:4689   */\n      tag_227\n      jump\t// in\n    tag_350:\n        /* \"#utility.yul\":4556:4695   */\n      swap3\n      swap2\n      pop\n      pop\n      jump\t// out\n        /* \"#utility.yul\":4701:5030   */\n    tag_24:\n        /* \"#utility.yul\":4760:4766   */\n      0x00\n        /* \"#utility.yul\":4809:4811   */\n      0x20\n        /* \"#utility.yul\":4797:4806   */\n      dup3\n        /* \"#utility.yul\":4788:4795   */\n      dup5\n        /* \"#utility.yul\":4784:4807   */\n      sub\n        /* \"#utility.yul\":4780:4812   */\n      slt\n        /* \"#utility.yul\":4777:4896   */\n      iszero\n      tag_352\n      jumpi\n        /* \"#utility.yul\":4815:4894   */\n      tag_353\n      tag_210\n      jump\t// in\n    tag_353:\n        /* \"#utility.yul\":4777:4896   */\n    tag_352:\n        /* \"#utility.yul\":4935:4936   */\n      0x00\n        /* \"#utility.yul\":4960:5013   */\n      tag_354\n        /* \"#utility.yul\":5005:5012   */\n      dup5\n        /* \"#utility.yul\":4996:5002   */\n      dup3\n        /* \"#utility.yul\":4985:4994   */\n      dup6\n        /* \"#utility.yul\":4981:5003   */\n      add\n        /* \"#utility.yul\":4960:5013   */\n      tag_228\n      jump\t// in\n    tag_354:\n        /* \"#utility.yul\":4950:5013   */\n      swap2\n      pop\n        /* \"#utility.yul\":4906:5023   */\n      pop\n        /* \"#utility.yul\":4701:5030   */\n      swap3\n      swap2\n      pop\n      pop\n      jump\t// out\n        /* \"#utility.yul\":5036:5154   */\n    tag_229:\n        /* \"#utility.yul\":5123:5147   */\n      tag_356\n        /* \"#utility.yul\":5141:5146   */\n      dup2\n        /* \"#utility.yul\":5123:5147   */\n      tag_226\n      jump\t// in\n    tag_356:\n        /* \"#utility.yul\":5118:5121   */\n      dup3\n        /* \"#utility.yul\":5111:5148   */\n      mstore\n        /* \"#utility.yul\":5036:5154   */\n      pop\n      pop\n      jump\t// out\n        /* \"#utility.yul\":5160:5259   */\n    tag_230:\n        /* \"#utility.yul\":5212:5218   */\n      0x00\n        /* \"#utility.yul\":5246:5251   */\n      dup2\n        /* \"#utility.yul\":5240:5252   */\n      mload\n        /* \"#utility.yul\":5230:5252   */\n      swap1\n      pop\n        /* \"#utility.yul\":5160:5259   */\n      swap2\n      swap1\n      pop\n      jump\t// out\n        /* \"#utility.yul\":5265:5434   */\n    tag_231:\n        /* \"#utility.yul\":5349:5360   */\n      0x00\n        /* \"#utility.yul\":5383:5389   */\n      dup3\n        /* \"#utility.yul\":5378:5381   */\n      dup3\n        /* \"#utility.yul\":5371:5390   */\n      mstore\n        /* \"#utility.yul\":5423:5427   */\n      0x20\n        /* \"#utility.yul\":5418:5421   */\n      dup3\n        /* \"#utility.yul\":5414:5428   */\n      add\n        /* \"#utility.yul\":5399:5428   */\n      swap1\n      pop\n        /* \"#utility.yul\":5265:5434   */\n      swap3\n      swap2\n      pop\n      pop\n      jump\t// out\n        /* \"#utility.yul\":5440:5686   */\n    tag_232:\n        /* \"#utility.yul\":5521:5522   */\n      0x00\n        /* \"#utility.yul\":5531:5644   */\n    tag_360:\n        /* \"#utility.yul\":5545:5551   */\n      dup4\n        /* \"#utility.yul\":5542:5543   */\n      dup2\n        /* \"#utility.yul\":5539:5552   */\n      lt\n        /* \"#utility.yul\":5531:5644   */\n      iszero\n      tag_362\n      jumpi\n        /* \"#utility.yul\":5630:5631   */\n      dup1\n        /* \"#utility.yul\":5625:5628   */\n      dup3\n        /* \"#utility.yul\":5621:5632   */\n      add\n        /* \"#utility.yul\":5615:5633   */\n      mload\n        /* \"#utility.yul\":5611:5612   */\n      dup2\n        /* \"#utility.yul\":5606:5609   */\n      dup5\n        /* \"#utility.yul\":5602:5613   */\n      add\n        /* \"#utility.yul\":5595:5634   */\n      mstore\n        /* \"#utility.yul\":5567:5569   */\n      0x20\n        /* \"#utility.yul\":5564:5565   */\n      dup2\n        /* \"#utility.yul\":5560:5570   */\n      add\n        /* \"#utility.yul\":5555:5570   */\n      swap1\n      pop\n        /* \"#utility.yul\":5531:5644   */\n      jump(tag_360)\n    tag_362:\n        /* \"#utility.yul\":5678:5679   */\n      0x00\n        /* \"#utility.yul\":5669:5675   */\n      dup5\n        /* \"#utility.yul\":5664:5667   */\n      dup5\n        /* \"#utility.yul\":5660:5676   */\n      add\n        /* \"#utility.yul\":5653:5680   */\n      mstore\n        /* \"#utility.yul\":5502:5686   */\n      pop\n        /* \"#utility.yul\":5440:5686   */\n      pop\n      pop\n      pop\n      jump\t// out\n        /* \"#utility.yul\":5692:6069   */\n    tag_233:\n        /* \"#utility.yul\":5780:5783   */\n      0x00\n        /* \"#utility.yul\":5808:5847   */\n      tag_364\n        /* \"#utility.yul\":5841:5846   */\n      dup3\n        /* \"#utility.yul\":5808:5847   */\n      tag_230\n      jump\t// in\n    tag_364:\n        /* \"#utility.yul\":5863:5934   */\n      tag_365\n        /* \"#utility.yul\":5927:5933   */\n      dup2\n        /* \"#utility.yul\":5922:5925   */\n      dup6\n        /* \"#utility.yul\":5863:5934   */\n      tag_231\n      jump\t// in\n    tag_365:\n        /* \"#utility.yul\":5856:5934   */\n      swap4\n      pop\n        /* \"#utility.yul\":5943:6008   */\n      tag_366\n        /* \"#utility.yul\":6001:6007   */\n      dup2\n        /* \"#utility.yul\":5996:5999   */\n      dup6\n        /* \"#utility.yul\":5989:5993   */\n      0x20\n        /* \"#utility.yul\":5982:5987   */\n      dup7\n        /* \"#utility.yul\":5978:5994   */\n      add\n        /* \"#utility.yul\":5943:6008   */\n      tag_232\n      jump\t// in\n    tag_366:\n        /* \"#utility.yul\":6033:6062   */\n      tag_367\n        /* \"#utility.yul\":6055:6061   */\n      dup2\n        /* \"#utility.yul\":6033:6062   */\n      tag_218\n      jump\t// in\n    tag_367:\n        /* \"#utility.yul\":6028:6031   */\n      dup5\n        /* \"#utility.yul\":6024:6063   */\n      add\n        /* \"#utility.yul\":6017:6063   */\n      swap2\n      pop\n        /* \"#utility.yul\":5784:6069   */\n      pop\n        /* \"#utility.yul\":5692:6069   */\n      swap3\n      swap2\n      pop\n      pop\n      jump\t// out\n        /* \"#utility.yul\":6075:6608   */\n    tag_27:\n        /* \"#utility.yul\":6244:6248   */\n      0x00\n        /* \"#utility.yul\":6282:6284   */\n      0x60\n        /* \"#utility.yul\":6271:6280   */\n      dup3\n        /* \"#utility.yul\":6267:6285   */\n      add\n        /* \"#utility.yul\":6259:6285   */\n      swap1\n      pop\n        /* \"#utility.yul\":6295:6366   */\n      tag_369\n        /* \"#utility.yul\":6363:6364   */\n      0x00\n        /* \"#utility.yul\":6352:6361   */\n      dup4\n        /* \"#utility.yul\":6348:6365   */\n      add\n        /* \"#utility.yul\":6339:6345   */\n      dup7\n        /* \"#utility.yul\":6295:6366   */\n      tag_229\n      jump\t// in\n    tag_369:\n        /* \"#utility.yul\":6413:6422   */\n      dup2\n        /* \"#utility.yul\":6407:6411   */\n      dup2\n        /* \"#utility.yul\":6403:6423   */\n      sub\n        /* \"#utility.yul\":6398:6400   */\n      0x20\n        /* \"#utility.yul\":6387:6396   */\n      dup4\n        /* \"#utility.yul\":6383:6401   */\n      add\n        /* \"#utility.yul\":6376:6424   */\n      mstore\n        /* \"#utility.yul\":6441:6519   */\n      tag_370\n        /* \"#utility.yul\":6514:6518   */\n      dup2\n        /* \"#utility.yul\":6505:6511   */\n      dup6\n        /* \"#utility.yul\":6441:6519   */\n      tag_233\n      jump\t// in\n    tag_370:\n        /* \"#utility.yul\":6433:6519   */\n      swap1\n      pop\n        /* \"#utility.yul\":6529:6601   */\n      tag_371\n        /* \"#utility.yul\":6597:6599   */\n      0x40\n        /* \"#utility.yul\":6586:6595   */\n      dup4\n        /* \"#utility.yul\":6582:6600   */\n      add\n        /* \"#utility.yul\":6573:6579   */\n      dup5\n        /* \"#utility.yul\":6529:6601   */\n      tag_229\n      jump\t// in\n    tag_371:\n        /* \"#utility.yul\":6075:6608   */\n      swap5\n      swap4\n      pop\n      pop\n      pop\n      pop\n      jump\t// out\n        /* \"#utility.yul\":6614:7593   */\n    tag_32:\n        /* \"#utility.yul\":6711:6717   */\n      0x00\n        /* \"#utility.yul\":6719:6725   */\n      dup1\n        /* \"#utility.yul\":6727:6733   */\n      0x00\n        /* \"#utility.yul\":6776:6778   */\n      0x60\n        /* \"#utility.yul\":6764:6773   */\n      dup5\n        /* \"#utility.yul\":6755:6762   */\n      dup7\n        /* \"#utility.yul\":6751:6774   */\n      sub\n        /* \"#utility.yul\":6747:6779   */\n      slt\n        /* \"#utility.yul\":6744:6863   */\n      iszero\n      tag_373\n      jumpi\n        /* \"#utility.yul\":6782:6861   */\n      tag_374\n      tag_210\n      jump\t// in\n    tag_374:\n        /* \"#utility.yul\":6744:6863   */\n    tag_373:\n        /* \"#utility.yul\":6930:6931   */\n      0x00\n        /* \"#utility.yul\":6919:6928   */\n      dup5\n        /* \"#utility.yul\":6915:6932   */\n      add\n        /* \"#utility.yul\":6902:6933   */\n      calldataload\n        /* \"#utility.yul\":6960:6978   */\n      0xffffffffffffffff\n        /* \"#utility.yul\":6952:6958   */\n      dup2\n        /* \"#utility.yul\":6949:6979   */\n      gt\n        /* \"#utility.yul\":6946:7063   */\n      iszero\n      tag_375\n      jumpi\n        /* \"#utility.yul\":6982:7061   */\n      tag_376\n      tag_211\n      jump\t// in\n    tag_376:\n        /* \"#utility.yul\":6946:7063   */\n    tag_375:\n        /* \"#utility.yul\":7087:7150   */\n      tag_377\n        /* \"#utility.yul\":7142:7149   */\n      dup7\n        /* \"#utility.yul\":7133:7139   */\n      dup3\n        /* \"#utility.yul\":7122:7131   */\n      dup8\n        /* \"#utility.yul\":7118:7140   */\n      add\n        /* \"#utility.yul\":7087:7150   */\n      tag_225\n      jump\t// in\n    tag_377:\n        /* \"#utility.yul\":7077:7150   */\n      swap4\n      pop\n        /* \"#utility.yul\":6873:7160   */\n      pop\n        /* \"#utility.yul\":7227:7229   */\n      0x20\n        /* \"#utility.yul\":7216:7225   */\n      dup5\n        /* \"#utility.yul\":7212:7230   */\n      add\n        /* \"#utility.yul\":7199:7231   */\n      calldataload\n        /* \"#utility.yul\":7258:7276   */\n      0xffffffffffffffff\n        /* \"#utility.yul\":7250:7256   */\n      dup2\n        /* \"#utility.yul\":7247:7277   */\n      gt\n        /* \"#utility.yul\":7244:7361   */\n      iszero\n      tag_378\n      jumpi\n        /* \"#utility.yul\":7280:7359   */\n      tag_379\n      tag_211\n      jump\t// in\n    tag_379:\n        /* \"#utility.yul\":7244:7361   */\n    tag_378:\n        /* \"#utility.yul\":7385:7448   */\n      tag_380\n        /* \"#utility.yul\":7440:7447   */\n      dup7\n        /* \"#utility.yul\":7431:7437   */\n      dup3\n        /* \"#utility.yul\":7420:7429   */\n      dup8\n        /* \"#utility.yul\":7416:7438   */\n      add\n        /* \"#utility.yul\":7385:7448   */\n      tag_225\n      jump\t// in\n    tag_380:\n        /* \"#utility.yul\":7375:7448   */\n      swap3\n      pop\n        /* \"#utility.yul\":7170:7458   */\n      pop\n        /* \"#utility.yul\":7497:7499   */\n      0x40\n        /* \"#utility.yul\":7523:7576   */\n      tag_381\n        /* \"#utility.yul\":7568:7575   */\n      dup7\n        /* \"#utility.yul\":7559:7565   */\n      dup3\n        /* \"#utility.yul\":7548:7557   */\n      dup8\n        /* \"#utility.yul\":7544:7566   */\n      add\n        /* \"#utility.yul\":7523:7576   */\n      tag_215\n      jump\t// in\n    tag_381:\n        /* \"#utility.yul\":7513:7576   */\n      swap2\n      pop\n        /* \"#utility.yul\":7468:7586   */\n      pop\n        /* \"#utility.yul\":6614:7593   */\n      swap3\n      pop\n      swap3\n      pop\n      swap3\n      jump\t// out\n        /* \"#utility.yul\":7599:8073   */\n    tag_36:\n        /* \"#utility.yul\":7667:7673   */\n      0x00\n        /* \"#utility.yul\":7675:7681   */\n      dup1\n        /* \"#utility.yul\":7724:7726   */\n      0x40\n        /* \"#utility.yul\":7712:7721   */\n      dup4\n        /* \"#utility.yul\":7703:7710   */\n      dup6\n        /* \"#utility.yul\":7699:7722   */\n      sub\n        /* \"#utility.yul\":7695:7727   */\n      slt\n        /* \"#utility.yul\":7692:7811   */\n      iszero\n      tag_383\n      jumpi\n        /* \"#utility.yul\":7730:7809   */\n      tag_384\n      tag_210\n      jump\t// in\n    tag_384:\n        /* \"#utility.yul\":7692:7811   */\n    tag_383:\n        /* \"#utility.yul\":7850:7851   */\n      0x00\n        /* \"#utility.yul\":7875:7928   */\n      tag_385\n        /* \"#utility.yul\":7920:7927   */\n      dup6\n        /* \"#utility.yul\":7911:7917   */\n      dup3\n        /* \"#utility.yul\":7900:7909   */\n      dup7\n        /* \"#utility.yul\":7896:7918   */\n      add\n        /* \"#utility.yul\":7875:7928   */\n      tag_228\n      jump\t// in\n    tag_385:\n        /* \"#utility.yul\":7865:7928   */\n      swap3\n      pop\n        /* \"#utility.yul\":7821:7938   */\n      pop\n        /* \"#utility.yul\":7977:7979   */\n      0x20\n        /* \"#utility.yul\":8003:8056   */\n      tag_386\n        /* \"#utility.yul\":8048:8055   */\n      dup6\n        /* \"#utility.yul\":8039:8045   */\n      dup3\n        /* \"#utility.yul\":8028:8037   */\n      dup7\n        /* \"#utility.yul\":8024:8046   */\n      add\n        /* \"#utility.yul\":8003:8056   */\n      tag_215\n      jump\t// in\n    tag_386:\n        /* \"#utility.yul\":7993:8056   */\n      swap2\n      pop\n        /* \"#utility.yul\":7948:8066   */\n      pop\n        /* \"#utility.yul\":7599:8073   */\n      swap3\n      pop\n      swap3\n      swap1\n      pop\n      jump\t// out\n        /* \"#utility.yul\":8079:8703   */\n    tag_42:\n        /* \"#utility.yul\":8268:8272   */\n      0x00\n        /* \"#utility.yul\":8306:8308   */\n      0x60\n        /* \"#utility.yul\":8295:8304   */\n      dup3\n        /* \"#utility.yul\":8291:8309   */\n      add\n        /* \"#utility.yul\":8283:8309   */\n      swap1\n      pop\n        /* \"#utility.yul\":8319:8390   */\n      tag_388\n        /* \"#utility.yul\":8387:8388   */\n      0x00\n        /* \"#utility.yul\":8376:8385   */\n      dup4\n        /* \"#utility.yul\":8372:8389   */\n      add\n        /* \"#utility.yul\":8363:8369   */\n      dup7\n        /* \"#utility.yul\":8319:8390   */\n      tag_229\n      jump\t// in\n    tag_388:\n        /* \"#utility.yul\":8437:8446   */\n      dup2\n        /* \"#utility.yul\":8431:8435   */\n      dup2\n        /* \"#utility.yul\":8427:8447   */\n      sub\n        /* \"#utility.yul\":8422:8424   */\n      0x20\n        /* \"#utility.yul\":8411:8420   */\n      dup4\n        /* \"#utility.yul\":8407:8425   */\n      add\n        /* \"#utility.yul\":8400:8448   */\n      mstore\n        /* \"#utility.yul\":8465:8543   */\n      tag_389\n        /* \"#utility.yul\":8538:8542   */\n      dup2\n        /* \"#utility.yul\":8529:8535   */\n      dup6\n        /* \"#utility.yul\":8465:8543   */\n      tag_233\n      jump\t// in\n    tag_389:\n        /* \"#utility.yul\":8457:8543   */\n      swap1\n      pop\n        /* \"#utility.yul\":8590:8599   */\n      dup2\n        /* \"#utility.yul\":8584:8588   */\n      dup2\n        /* \"#utility.yul\":8580:8600   */\n      sub\n        /* \"#utility.yul\":8575:8577   */\n      0x40\n        /* \"#utility.yul\":8564:8573   */\n      dup4\n        /* \"#utility.yul\":8560:8578   */\n      add\n        /* \"#utility.yul\":8553:8601   */\n      mstore\n        /* \"#utility.yul\":8618:8696   */\n      tag_390\n        /* \"#utility.yul\":8691:8695   */\n      dup2\n        /* \"#utility.yul\":8682:8688   */\n      dup5\n        /* \"#utility.yul\":8618:8696   */\n      tag_233\n      jump\t// in\n    tag_390:\n        /* \"#utility.yul\":8610:8696   */\n      swap1\n      pop\n        /* \"#utility.yul\":8079:8703   */\n      swap5\n      swap4\n      pop\n      pop\n      pop\n      pop\n      jump\t// out\n        /* \"#utility.yul\":8709:8827   */\n    tag_234:\n        /* \"#utility.yul\":8796:8820   */\n      tag_392\n        /* \"#utility.yul\":8814:8819   */\n      dup2\n        /* \"#utility.yul\":8796:8820   */\n      tag_213\n      jump\t// in\n    tag_392:\n        /* \"#utility.yul\":8791:8794   */\n      dup3\n        /* \"#utility.yul\":8784:8821   */\n      mstore\n        /* \"#utility.yul\":8709:8827   */\n      pop\n      pop\n      jump\t// out\n        /* \"#utility.yul\":8833:9055   */\n    tag_46:\n        /* \"#utility.yul\":8926:8930   */\n      0x00\n        /* \"#utility.yul\":8964:8966   */\n      0x20\n        /* \"#utility.yul\":8953:8962   */\n      dup3\n        /* \"#utility.yul\":8949:8967   */\n      add\n        /* \"#utility.yul\":8941:8967   */\n      swap1\n      pop\n        /* \"#utility.yul\":8977:9048   */\n      tag_394\n        /* \"#utility.yul\":9045:9046   */\n      0x00\n        /* \"#utility.yul\":9034:9043   */\n      dup4\n        /* \"#utility.yul\":9030:9047   */\n      add\n        /* \"#utility.yul\":9021:9027   */\n      dup5\n        /* \"#utility.yul\":8977:9048   */\n      tag_234\n      jump\t// in\n    tag_394:\n        /* \"#utility.yul\":8833:9055   */\n      swap3\n      swap2\n      pop\n      pop\n      jump\t// out\n        /* \"#utility.yul\":9061:9390   */\n    tag_49:\n        /* \"#utility.yul\":9120:9126   */\n      0x00\n        /* \"#utility.yul\":9169:9171   */\n      0x20\n        /* \"#utility.yul\":9157:9166   */\n      dup3\n        /* \"#utility.yul\":9148:9155   */\n      dup5\n        /* \"#utility.yul\":9144:9167   */\n      sub\n        /* \"#utility.yul\":9140:9172   */\n      slt\n        /* \"#utility.yul\":9137:9256   */\n      iszero\n      tag_396\n      jumpi\n        /* \"#utility.yul\":9175:9254   */\n      tag_397\n      tag_210\n      jump\t// in\n    tag_397:\n        /* \"#utility.yul\":9137:9256   */\n    tag_396:\n        /* \"#utility.yul\":9295:9296   */\n      0x00\n        /* \"#utility.yul\":9320:9373   */\n      tag_398\n        /* \"#utility.yul\":9365:9372   */\n      dup5\n        /* \"#utility.yul\":9356:9362   */\n      dup3\n        /* \"#utility.yul\":9345:9354   */\n      dup6\n        /* \"#utility.yul\":9341:9363   */\n      add\n        /* \"#utility.yul\":9320:9373   */\n      tag_215\n      jump\t// in\n    tag_398:\n        /* \"#utility.yul\":9310:9373   */\n      swap2\n      pop\n        /* \"#utility.yul\":9266:9383   */\n      pop\n        /* \"#utility.yul\":9061:9390   */\n      swap3\n      swap2\n      pop\n      pop\n      jump\t// out\n        /* \"#utility.yul\":9396:9486   */\n    tag_235:\n        /* \"#utility.yul\":9430:9437   */\n      0x00\n        /* \"#utility.yul\":9473:9478   */\n      dup2\n        /* \"#utility.yul\":9466:9479   */\n      iszero\n        /* \"#utility.yul\":9459:9480   */\n      iszero\n        /* \"#utility.yul\":9448:9480   */\n      swap1\n      pop\n        /* \"#utility.yul\":9396:9486   */\n      swap2\n      swap1\n      pop\n      jump\t// out\n        /* \"#utility.yul\":9492:9601   */\n    tag_236:\n        /* \"#utility.yul\":9573:9594   */\n      tag_401\n        /* \"#utility.yul\":9588:9593   */\n      dup2\n        /* \"#utility.yul\":9573:9594   */\n      tag_235\n      jump\t// in\n    tag_401:\n        /* \"#utility.yul\":9568:9571   */\n      dup3\n        /* \"#utility.yul\":9561:9595   */\n      mstore\n        /* \"#utility.yul\":9492:9601   */\n      pop\n      pop\n      jump\t// out\n        /* \"#utility.yul\":9607:10128   */\n    tag_55:\n        /* \"#utility.yul\":9770:9774   */\n      0x00\n        /* \"#utility.yul\":9808:9810   */\n      0x60\n        /* \"#utility.yul\":9797:9806   */\n      dup3\n        /* \"#utility.yul\":9793:9811   */\n      add\n        /* \"#utility.yul\":9785:9811   */\n      swap1\n      pop\n        /* \"#utility.yul\":9821:9892   */\n      tag_403\n        /* \"#utility.yul\":9889:9890   */\n      0x00\n        /* \"#utility.yul\":9878:9887   */\n      dup4\n        /* \"#utility.yul\":9874:9891   */\n      add\n        /* \"#utility.yul\":9865:9871   */\n      dup7\n        /* \"#utility.yul\":9821:9892   */\n      tag_234\n      jump\t// in\n    tag_403:\n        /* \"#utility.yul\":9939:9948   */\n      dup2\n        /* \"#utility.yul\":9933:9937   */\n      dup2\n        /* \"#utility.yul\":9929:9949   */\n      sub\n        /* \"#utility.yul\":9924:9926   */\n      0x20\n        /* \"#utility.yul\":9913:9922   */\n      dup4\n        /* \"#utility.yul\":9909:9927   */\n      add\n        /* \"#utility.yul\":9902:9950   */\n      mstore\n        /* \"#utility.yul\":9967:10045   */\n      tag_404\n        /* \"#utility.yul\":10040:10044   */\n      dup2\n        /* \"#utility.yul\":10031:10037   */\n      dup6\n        /* \"#utility.yul\":9967:10045   */\n      tag_233\n      jump\t// in\n    tag_404:\n        /* \"#utility.yul\":9959:10045   */\n      swap1\n      pop\n        /* \"#utility.yul\":10055:10121   */\n      tag_405\n        /* \"#utility.yul\":10117:10119   */\n      0x40\n        /* \"#utility.yul\":10106:10115   */\n      dup4\n        /* \"#utility.yul\":10102:10120   */\n      add\n        /* \"#utility.yul\":10093:10099   */\n      dup5\n        /* \"#utility.yul\":10055:10121   */\n      tag_236\n      jump\t// in\n    tag_405:\n        /* \"#utility.yul\":9607:10128   */\n      swap5\n      swap4\n      pop\n      pop\n      pop\n      pop\n      jump\t// out\n        /* \"#utility.yul\":10134:10354   */\n    tag_237:\n        /* \"#utility.yul\":10274:10308   */\n      0x4f6e6c792061646d696e206861732061636365737320746f20646f2074686973\n        /* \"#utility.yul\":10270:10271   */\n      0x00\n        /* \"#utility.yul\":10262:10268   */\n      dup3\n        /* \"#utility.yul\":10258:10272   */\n      add\n        /* \"#utility.yul\":10251:10309   */\n      mstore\n        /* \"#utility.yul\":10343:10346   */\n      0x2e00000000000000000000000000000000000000000000000000000000000000\n        /* \"#utility.yul\":10338:10340   */\n      0x20\n        /* \"#utility.yul\":10330:10336   */\n      dup3\n        /* \"#utility.yul\":10326:10341   */\n      add\n        /* \"#utility.yul\":10319:10347   */\n      mstore\n        /* \"#utility.yul\":10134:10354   */\n      pop\n      jump\t// out\n        /* \"#utility.yul\":10360:10726   */\n    tag_238:\n        /* \"#utility.yul\":10502:10505   */\n      0x00\n        /* \"#utility.yul\":10523:10590   */\n      tag_408\n        /* \"#utility.yul\":10587:10589   */\n      0x21\n        /* \"#utility.yul\":10582:10585   */\n      dup4\n        /* \"#utility.yul\":10523:10590   */\n      tag_231\n      jump\t// in\n    tag_408:\n        /* \"#utility.yul\":10516:10590   */\n      swap2\n      pop\n        /* \"#utility.yul\":10599:10692   */\n      tag_409\n        /* \"#utility.yul\":10688:10691   */\n      dup3\n        /* \"#utility.yul\":10599:10692   */\n      tag_237\n      jump\t// in\n    tag_409:\n        /* \"#utility.yul\":10717:10719   */\n      0x40\n        /* \"#utility.yul\":10712:10715   */\n      dup3\n        /* \"#utility.yul\":10708:10720   */\n      add\n        /* \"#utility.yul\":10701:10720   */\n      swap1\n      pop\n        /* \"#utility.yul\":10360:10726   */\n      swap2\n      swap1\n      pop\n      jump\t// out\n        /* \"#utility.yul\":10732:11151   */\n    tag_61:\n        /* \"#utility.yul\":10898:10902   */\n      0x00\n        /* \"#utility.yul\":10936:10938   */\n      0x20\n        /* \"#utility.yul\":10925:10934   */\n      dup3\n        /* \"#utility.yul\":10921:10939   */\n      add\n        /* \"#utility.yul\":10913:10939   */\n      swap1\n      pop\n        /* \"#utility.yul\":10985:10994   */\n      dup2\n        /* \"#utility.yul\":10979:10983   */\n      dup2\n        /* \"#utility.yul\":10975:10995   */\n      sub\n        /* \"#utility.yul\":10971:10972   */\n      0x00\n        /* \"#utility.yul\":10960:10969   */\n      dup4\n        /* \"#utility.yul\":10956:10973   */\n      add\n        /* \"#utility.yul\":10949:10996   */\n      mstore\n        /* \"#utility.yul\":11013:11144   */\n      tag_411\n        /* \"#utility.yul\":11139:11143   */\n      dup2\n        /* \"#utility.yul\":11013:11144   */\n      tag_238\n      jump\t// in\n    tag_411:\n        /* \"#utility.yul\":11005:11144   */\n      swap1\n      pop\n        /* \"#utility.yul\":10732:11151   */\n      swap2\n      swap1\n      pop\n      jump\t// out\n        /* \"#utility.yul\":11157:11337   */\n    tag_64:\n        /* \"#utility.yul\":11205:11282   */\n      0x4e487b7100000000000000000000000000000000000000000000000000000000\n        /* \"#utility.yul\":11202:11203   */\n      0x00\n        /* \"#utility.yul\":11195:11283   */\n      mstore\n        /* \"#utility.yul\":11302:11306   */\n      0x21\n        /* \"#utility.yul\":11299:11300   */\n      0x04\n        /* \"#utility.yul\":11292:11307   */\n      mstore\n        /* \"#utility.yul\":11326:11330   */\n      0x24\n        /* \"#utility.yul\":11323:11324   */\n      0x00\n        /* \"#utility.yul\":11316:11331   */\n      revert\n        /* \"#utility.yul\":11343:11565   */\n    tag_239:\n        /* \"#utility.yul\":11483:11517   */\n      0x566f74696e6720616c72656164792073746172746564206f7220636f6d706c65\n        /* \"#utility.yul\":11479:11480   */\n      0x00\n        /* \"#utility.yul\":11471:11477   */\n      dup3\n        /* \"#utility.yul\":11467:11481   */\n      add\n        /* \"#utility.yul\":11460:11518   */\n      mstore\n        /* \"#utility.yul\":11552:11557   */\n      0x7465640000000000000000000000000000000000000000000000000000000000\n        /* \"#utility.yul\":11547:11549   */\n      0x20\n        /* \"#utility.yul\":11539:11545   */\n      dup3\n        /* \"#utility.yul\":11535:11550   */\n      add\n        /* \"#utility.yul\":11528:11558   */\n      mstore\n        /* \"#utility.yul\":11343:11565   */\n      pop\n      jump\t// out\n        /* \"#utility.yul\":11571:11937   */\n    tag_240:\n        /* \"#utility.yul\":11713:11716   */\n      0x00\n        /* \"#utility.yul\":11734:11801   */\n      tag_415\n        /* \"#utility.yul\":11798:11800   */\n      0x23\n        /* \"#utility.yul\":11793:11796   */\n      dup4\n        /* \"#utility.yul\":11734:11801   */\n      tag_231\n      jump\t// in\n    tag_415:\n        /* \"#utility.yul\":11727:11801   */\n      swap2\n      pop\n        /* \"#utility.yul\":11810:11903   */\n      tag_416\n        /* \"#utility.yul\":11899:11902   */\n      dup3\n        /* \"#utility.yul\":11810:11903   */\n      tag_239\n      jump\t// in\n    tag_416:\n        /* \"#utility.yul\":11928:11930   */\n      0x40\n        /* \"#utility.yul\":11923:11926   */\n      dup3\n        /* \"#utility.yul\":11919:11931   */\n      add\n        /* \"#utility.yul\":11912:11931   */\n      swap1\n      pop\n        /* \"#utility.yul\":11571:11937   */\n      swap2\n      swap1\n      pop\n      jump\t// out\n        /* \"#utility.yul\":11943:12362   */\n    tag_69:\n        /* \"#utility.yul\":12109:12113   */\n      0x00\n        /* \"#utility.yul\":12147:12149   */\n      0x20\n        /* \"#utility.yul\":12136:12145   */\n      dup3\n        /* \"#utility.yul\":12132:12150   */\n      add\n        /* \"#utility.yul\":12124:12150   */\n      swap1\n      pop\n        /* \"#utility.yul\":12196:12205   */\n      dup2\n        /* \"#utility.yul\":12190:12194   */\n      dup2\n        /* \"#utility.yul\":12186:12206   */\n      sub\n        /* \"#utility.yul\":12182:12183   */\n      0x00\n        /* \"#utility.yul\":12171:12180   */\n      dup4\n        /* \"#utility.yul\":12167:12184   */\n      add\n        /* \"#utility.yul\":12160:12207   */\n      mstore\n        /* \"#utility.yul\":12224:12355   */\n      tag_418\n        /* \"#utility.yul\":12350:12354   */\n      dup2\n        /* \"#utility.yul\":12224:12355   */\n      tag_240\n      jump\t// in\n    tag_418:\n        /* \"#utility.yul\":12216:12355   */\n      swap1\n      pop\n        /* \"#utility.yul\":11943:12362   */\n      swap2\n      swap1\n      pop\n      jump\t// out\n        /* \"#utility.yul\":12368:12538   */\n    tag_241:\n        /* \"#utility.yul\":12508:12530   */\n      0x766f74657220616c72656164792061646465642e000000000000000000000000\n        /* \"#utility.yul\":12504:12505   */\n      0x00\n        /* \"#utility.yul\":12496:12502   */\n      dup3\n        /* \"#utility.yul\":12492:12506   */\n      add\n        /* \"#utility.yul\":12485:12531   */\n      mstore\n        /* \"#utility.yul\":12368:12538   */\n      pop\n      jump\t// out\n        /* \"#utility.yul\":12544:12910   */\n    tag_242:\n        /* \"#utility.yul\":12686:12689   */\n      0x00\n        /* \"#utility.yul\":12707:12774   */\n      tag_421\n        /* \"#utility.yul\":12771:12773   */\n      0x14\n        /* \"#utility.yul\":12766:12769   */\n      dup4\n        /* \"#utility.yul\":12707:12774   */\n      tag_231\n      jump\t// in\n    tag_421:\n        /* \"#utility.yul\":12700:12774   */\n      swap2\n      pop\n        /* \"#utility.yul\":12783:12876   */\n      tag_422\n        /* \"#utility.yul\":12872:12875   */\n      dup3\n        /* \"#utility.yul\":12783:12876   */\n      tag_241\n      jump\t// in\n    tag_422:\n        /* \"#utility.yul\":12901:12903   */\n      0x20\n        /* \"#utility.yul\":12896:12899   */\n      dup3\n        /* \"#utility.yul\":12892:12904   */\n      add\n        /* \"#utility.yul\":12885:12904   */\n      swap1\n      pop\n        /* \"#utility.yul\":12544:12910   */\n      swap2\n      swap1\n      pop\n      jump\t// out\n        /* \"#utility.yul\":12916:13335   */\n    tag_72:\n        /* \"#utility.yul\":13082:13086   */\n      0x00\n        /* \"#utility.yul\":13120:13122   */\n      0x20\n        /* \"#utility.yul\":13109:13118   */\n      dup3\n        /* \"#utility.yul\":13105:13123   */\n      add\n        /* \"#utility.yul\":13097:13123   */\n      swap1\n      pop\n        /* \"#utility.yul\":13169:13178   */\n      dup2\n        /* \"#utility.yul\":13163:13167   */\n      dup2\n        /* \"#utility.yul\":13159:13179   */\n      sub\n        /* \"#utility.yul\":13155:13156   */\n      0x00\n        /* \"#utility.yul\":13144:13153   */\n      dup4\n        /* \"#utility.yul\":13140:13157   */\n      add\n        /* \"#utility.yul\":13133:13180   */\n      mstore\n        /* \"#utility.yul\":13197:13328   */\n      tag_424\n        /* \"#utility.yul\":13323:13327   */\n      dup2\n        /* \"#utility.yul\":13197:13328   */\n      tag_242\n      jump\t// in\n    tag_424:\n        /* \"#utility.yul\":13189:13328   */\n      swap1\n      pop\n        /* \"#utility.yul\":12916:13335   */\n      swap2\n      swap1\n      pop\n      jump\t// out\n        /* \"#utility.yul\":13341:13521   */\n    tag_243:\n        /* \"#utility.yul\":13389:13466   */\n      0x4e487b7100000000000000000000000000000000000000000000000000000000\n        /* \"#utility.yul\":13386:13387   */\n      0x00\n        /* \"#utility.yul\":13379:13467   */\n      mstore\n        /* \"#utility.yul\":13486:13490   */\n      0x11\n        /* \"#utility.yul\":13483:13484   */\n      0x04\n        /* \"#utility.yul\":13476:13491   */\n      mstore\n        /* \"#utility.yul\":13510:13514   */\n      0x24\n        /* \"#utility.yul\":13507:13508   */\n      0x00\n        /* \"#utility.yul\":13500:13515   */\n      revert\n        /* \"#utility.yul\":13527:13760   */\n    tag_74:\n        /* \"#utility.yul\":13566:13569   */\n      0x00\n        /* \"#utility.yul\":13589:13613   */\n      tag_427\n        /* \"#utility.yul\":13607:13612   */\n      dup3\n        /* \"#utility.yul\":13589:13613   */\n      tag_226\n      jump\t// in\n    tag_427:\n        /* \"#utility.yul\":13580:13613   */\n      swap2\n      pop\n        /* \"#utility.yul\":13635:13701   */\n      0xffffffffffffffffffffffffffffffffffffffffffffffffffffffffffffffff\n        /* \"#utility.yul\":13628:13633   */\n      dup3\n        /* \"#utility.yul\":13625:13702   */\n      sub\n        /* \"#utility.yul\":13622:13725   */\n      tag_428\n      jumpi\n        /* \"#utility.yul\":13705:13723   */\n      tag_429\n      tag_243\n      jump\t// in\n    tag_429:\n        /* \"#utility.yul\":13622:13725   */\n    tag_428:\n        /* \"#utility.yul\":13752:13753   */\n      0x01\n        /* \"#utility.yul\":13745:13750   */\n      dup3\n        /* \"#utility.yul\":13741:13754   */\n      add\n        /* \"#utility.yul\":13734:13754   */\n      swap1\n      pop\n        /* \"#utility.yul\":13527:13760   */\n      swap2\n      swap1\n      pop\n      jump\t// out\n        /* \"#utility.yul\":13766:13946   */\n    tag_244:\n        /* \"#utility.yul\":13814:13891   */\n      0x4e487b7100000000000000000000000000000000000000000000000000000000\n        /* \"#utility.yul\":13811:13812   */\n      0x00\n        /* \"#utility.yul\":13804:13892   */\n      mstore\n        /* \"#utility.yul\":13911:13915   */\n      0x22\n        /* \"#utility.yul\":13908:13909   */\n      0x04\n        /* \"#utility.yul\":13901:13916   */\n      mstore\n        /* \"#utility.yul\":13935:13939   */\n      0x24\n        /* \"#utility.yul\":13932:13933   */\n      0x00\n        /* \"#utility.yul\":13925:13940   */\n      revert\n        /* \"#utility.yul\":13952:14272   */\n    tag_100:\n        /* \"#utility.yul\":13996:14002   */\n      0x00\n        /* \"#utility.yul\":14033:14034   */\n      0x02\n        /* \"#utility.yul\":14027:14031   */\n      dup3\n        /* \"#utility.yul\":14023:14035   */\n      div\n        /* \"#utility.yul\":14013:14035   */\n      swap1\n      pop\n        /* \"#utility.yul\":14080:14081   */\n      0x01\n        /* \"#utility.yul\":14074:14078   */\n      dup3\n        /* \"#utility.yul\":14070:14082   */\n      and\n        /* \"#utility.yul\":14101:14119   */\n      dup1\n        /* \"#utility.yul\":14091:14172   */\n      tag_432\n      jumpi\n        /* \"#utility.yul\":14157:14161   */\n      0x7f\n        /* \"#utility.yul\":14149:14155   */\n      dup3\n        /* \"#utility.yul\":14145:14162   */\n      and\n        /* \"#utility.yul\":14135:14162   */\n      swap2\n      pop\n        /* \"#utility.yul\":14091:14172   */\n    tag_432:\n        /* \"#utility.yul\":14219:14221   */\n      0x20\n        /* \"#utility.yul\":14211:14217   */\n      dup3\n        /* \"#utility.yul\":14208:14222   */\n      lt\n        /* \"#utility.yul\":14188:14206   */\n      dup2\n        /* \"#utility.yul\":14185:14223   */\n      sub\n        /* \"#utility.yul\":14182:14266   */\n      tag_433\n      jumpi\n        /* \"#utility.yul\":14238:14256   */\n      tag_434\n      tag_244\n      jump\t// in\n    tag_434:\n        /* \"#utility.yul\":14182:14266   */\n    tag_433:\n        /* \"#utility.yul\":14003:14272   */\n      pop\n        /* \"#utility.yul\":13952:14272   */\n      swap2\n      swap1\n      pop\n      jump\t// out\n        /* \"#utility.yul\":14278:14419   */\n    tag_245:\n        /* \"#utility.yul\":14327:14331   */\n      0x00\n        /* \"#utility.yul\":14350:14353   */\n      dup2\n        /* \"#utility.yul\":14342:14353   */\n      swap1\n      pop\n        /* \"#utility.yul\":14373:14376   */\n      dup2\n        /* \"#utility.yul\":14370:14371   */\n      0x00\n        /* \"#utility.yul\":14363:14377   */\n      mstore\n        /* \"#utility.yul\":14407:14411   */\n      0x20\n        /* \"#utility.yul\":14404:14405   */\n      0x00\n        /* \"#utility.yul\":14394:14412   */\n      keccak256\n        /* \"#utility.yul\":14386:14412   */\n      swap1\n      pop\n        /* \"#utility.yul\":14278:14419   */\n      swap2\n      swap1\n      pop\n      jump\t// out\n        /* \"#utility.yul\":14425:14518   */\n    tag_246:\n        /* \"#utility.yul\":14462:14468   */\n      0x00\n        /* \"#utility.yul\":14509:14511   */\n      0x20\n        /* \"#utility.yul\":14504:14506   */\n      0x1f\n        /* \"#utility.yul\":14497:14502   */\n      dup4\n        /* \"#utility.yul\":14493:14507   */\n      add\n        /* \"#utility.yul\":14489:14512   */\n      div\n        /* \"#utility.yul\":14479:14512   */\n      swap1\n      pop\n        /* \"#utility.yul\":14425:14518   */\n      swap2\n      swap1\n      pop\n      jump\t// out\n        /* \"#utility.yul\":14524:14631   */\n    tag_247:\n        /* \"#utility.yul\":14568:14576   */\n      0x00\n        /* \"#utility.yul\":14618:14623   */\n      dup3\n        /* \"#utility.yul\":14612:14616   */\n      dup3\n        /* \"#utility.yul\":14608:14624   */\n      shl\n        /* \"#utility.yul\":14587:14624   */\n      swap1\n      pop\n        /* \"#utility.yul\":14524:14631   */\n      swap3\n      swap2\n      pop\n      pop\n      jump\t// out\n        /* \"#utility.yul\":14637:15030   */\n    tag_248:\n        /* \"#utility.yul\":14706:14712   */\n      0x00\n        /* \"#utility.yul\":14756:14757   */\n      0x08\n        /* \"#utility.yul\":14744:14754   */\n      dup4\n        /* \"#utility.yul\":14740:14758   */\n      mul\n        /* \"#utility.yul\":14779:14876   */\n      tag_439\n        /* \"#utility.yul\":14809:14875   */\n      0xffffffffffffffffffffffffffffffffffffffffffffffffffffffffffffffff\n        /* \"#utility.yul\":14798:14807   */\n      dup3\n        /* \"#utility.yul\":14779:14876   */\n      tag_247\n      jump\t// in\n    tag_439:\n        /* \"#utility.yul\":14897:14936   */\n      tag_440\n        /* \"#utility.yul\":14927:14935   */\n      dup7\n        /* \"#utility.yul\":14916:14925   */\n      dup4\n        /* \"#utility.yul\":14897:14936   */\n      tag_247\n      jump\t// in\n    tag_440:\n        /* \"#utility.yul\":14885:14936   */\n      swap6\n      pop\n        /* \"#utility.yul\":14969:14973   */\n      dup1\n        /* \"#utility.yul\":14965:14974   */\n      not\n        /* \"#utility.yul\":14958:14963   */\n      dup5\n        /* \"#utility.yul\":14954:14975   */\n      and\n        /* \"#utility.yul\":14945:14975   */\n      swap4\n      pop\n        /* \"#utility.yul\":15018:15022   */\n      dup1\n        /* \"#utility.yul\":15008:15016   */\n      dup7\n        /* \"#utility.yul\":15004:15023   */\n      and\n        /* \"#utility.yul\":14997:15002   */\n      dup5\n        /* \"#utility.yul\":14994:15024   */\n      or\n        /* \"#utility.yul\":14984:15024   */\n      swap3\n      pop\n        /* \"#utility.yul\":14713:15030   */\n      pop\n      pop\n        /* \"#utility.yul\":14637:15030   */\n      swap4\n      swap3\n      pop\n      pop\n      pop\n      jump\t// out\n        /* \"#utility.yul\":15036:15096   */\n    tag_249:\n        /* \"#utility.yul\":15064:15067   */\n      0x00\n        /* \"#utility.yul\":15085:15090   */\n      dup2\n        /* \"#utility.yul\":15078:15090   */\n      swap1\n      pop\n        /* \"#utility.yul\":15036:15096   */\n      swap2\n      swap1\n      pop\n      jump\t// out\n        /* \"#utility.yul\":15102:15244   */\n    tag_250:\n        /* \"#utility.yul\":15152:15161   */\n      0x00\n        /* \"#utility.yul\":15185:15238   */\n      tag_443\n        /* \"#utility.yul\":15203:15237   */\n      tag_444\n        /* \"#utility.yul\":15212:15236   */\n      tag_445\n        /* \"#utility.yul\":15230:15235   */\n      dup5\n        /* \"#utility.yul\":15212:15236   */\n      tag_226\n      jump\t// in\n    tag_445:\n        /* \"#utility.yul\":15203:15237   */\n      tag_249\n      jump\t// in\n    tag_444:\n        /* \"#utility.yul\":15185:15238   */\n      tag_226\n      jump\t// in\n    tag_443:\n        /* \"#utility.yul\":15172:15238   */\n      swap1\n      pop\n        /* \"#utility.yul\":15102:15244   */\n      swap2\n      swap1\n      pop\n      jump\t// out\n        /* \"#utility.yul\":15250:15325   */\n    tag_251:\n        /* \"#utility.yul\":15293:15296   */\n      0x00\n        /* \"#utility.yul\":15314:15319   */\n      dup2\n        /* \"#utility.yul\":15307:15319   */\n      swap1\n      pop\n        /* \"#utility.yul\":15250:15325   */\n      swap2\n      swap1\n      pop\n      jump\t// out\n        /* \"#utility.yul\":15331:15600   */\n    tag_252:\n        /* \"#utility.yul\":15441:15480   */\n      tag_448\n        /* \"#utility.yul\":15472:15479   */\n      dup4\n        /* \"#utility.yul\":15441:15480   */\n      tag_250\n      jump\t// in\n    tag_448:\n        /* \"#utility.yul\":15502:15593   */\n      tag_449\n        /* \"#utility.yul\":15551:15592   */\n      tag_450\n        /* \"#utility.yul\":15575:15591   */\n      dup3\n        /* \"#utility.yul\":15551:15592   */\n      tag_251\n      jump\t// in\n    tag_450:\n        /* \"#utility.yul\":15543:15549   */\n      dup5\n        /* \"#utility.yul\":15536:15540   */\n      dup5\n        /* \"#utility.yul\":15530:15541   */\n      sload\n        /* \"#utility.yul\":15502:15593   */\n      tag_248\n      jump\t// in\n    tag_449:\n        /* \"#utility.yul\":15496:15500   */\n      dup3\n        /* \"#utility.yul\":15489:15594   */\n      sstore\n        /* \"#utility.yul\":15407:15600   */\n      pop\n        /* \"#utility.yul\":15331:15600   */\n      pop\n      pop\n      pop\n      jump\t// out\n        /* \"#utility.yul\":15606:15679   */\n    tag_253:\n        /* \"#utility.yul\":15651:15654   */\n      0x00\n        /* \"#utility.yul\":15606:15679   */\n      swap1\n      jump\t// out\n        /* \"#utility.yul\":15685:15874   */\n    tag_254:\n        /* \"#utility.yul\":15762:15794   */\n      tag_453\n      tag_253\n      jump\t// in\n    tag_453:\n        /* \"#utility.yul\":15803:15868   */\n      tag_454\n        /* \"#utility.yul\":15861:15867   */\n      dup2\n        /* \"#utility.yul\":15853:15859   */\n      dup5\n        /* \"#utility.yul\":15847:15851   */\n      dup5\n        /* \"#utility.yul\":15803:15868   */\n      tag_252\n      jump\t// in\n    tag_454:\n        /* \"#utility.yul\":15738:15874   */\n      pop\n        /* \"#utility.yul\":15685:15874   */\n      pop\n      pop\n      jump\t// out\n        /* \"#utility.yul\":15880:16066   */\n    tag_255:\n        /* \"#utility.yul\":15940:16060   */\n    tag_456:\n        /* \"#utility.yul\":15957:15960   */\n      dup2\n        /* \"#utility.yul\":15950:15955   */\n      dup2\n        /* \"#utility.yul\":15947:15961   */\n      lt\n        /* \"#utility.yul\":15940:16060   */\n      iszero\n      tag_458\n      jumpi\n        /* \"#utility.yul\":16011:16050   */\n      tag_459\n        /* \"#utility.yul\":16048:16049   */\n      0x00\n        /* \"#utility.yul\":16041:16046   */\n      dup3\n        /* \"#utility.yul\":16011:16050   */\n      tag_254\n      jump\t// in\n    tag_459:\n        /* \"#utility.yul\":15984:15985   */\n      0x01\n        /* \"#utility.yul\":15977:15982   */\n      dup2\n        /* \"#utility.yul\":15973:15986   */\n      add\n        /* \"#utility.yul\":15964:15986   */\n      swap1\n      pop\n        /* \"#utility.yul\":15940:16060   */\n      jump(tag_456)\n    tag_458:\n        /* \"#utility.yul\":15880:16066   */\n      pop\n      pop\n      jump\t// out\n        /* \"#utility.yul\":16072:16615   */\n    tag_256:\n        /* \"#utility.yul\":16173:16175   */\n      0x1f\n        /* \"#utility.yul\":16168:16171   */\n      dup3\n        /* \"#utility.yul\":16165:16176   */\n      gt\n        /* \"#utility.yul\":16162:16608   */\n      iszero\n      tag_461\n      jumpi\n        /* \"#utility.yul\":16207:16245   */\n      tag_462\n        /* \"#utility.yul\":16239:16244   */\n      dup2\n        /* \"#utility.yul\":16207:16245   */\n      tag_245\n      jump\t// in\n    tag_462:\n        /* \"#utility.yul\":16291:16320   */\n      tag_463\n        /* \"#utility.yul\":16309:16319   */\n      dup5\n        /* \"#utility.yul\":16291:16320   */\n      tag_246\n      jump\t// in\n    tag_463:\n        /* \"#utility.yul\":16281:16289   */\n      dup2\n        /* \"#utility.yul\":16277:16321   */\n      add\n        /* \"#utility.yul\":16474:16476   */\n      0x20\n        /* \"#utility.yul\":16462:16472   */\n      dup6\n        /* \"#utility.yul\":16459:16477   */\n      lt\n        /* \"#utility.yul\":16456:16505   */\n      iszero\n      tag_464\n      jumpi\n        /* \"#utility.yul\":16495:16503   */\n      dup2\n        /* \"#utility.yul\":16480:16503   */\n      swap1\n      pop\n        /* \"#utility.yul\":16456:16505   */\n    tag_464:\n        /* \"#utility.yul\":16518:16598   */\n      tag_465\n        /* \"#utility.yul\":16574:16596   */\n      tag_466\n        /* \"#utility.yul\":16592:16595   */\n      dup6\n        /* \"#utility.yul\":16574:16596   */\n      tag_246\n      jump\t// in\n    tag_466:\n        /* \"#utility.yul\":16564:16572   */\n      dup4\n        /* \"#utility.yul\":16560:16597   */\n      add\n        /* \"#utility.yul\":16547:16558   */\n      dup3\n        /* \"#utility.yul\":16518:16598   */\n      tag_255\n      jump\t// in\n    tag_465:\n        /* \"#utility.yul\":16177:16608   */\n      pop\n      pop\n        /* \"#utility.yul\":16162:16608   */\n    tag_461:\n        /* \"#utility.yul\":16072:16615   */\n      pop\n      pop\n      pop\n      jump\t// out\n        /* \"#utility.yul\":16621:16738   */\n    tag_257:\n        /* \"#utility.yul\":16675:16683   */\n      0x00\n        /* \"#utility.yul\":16725:16730   */\n      dup3\n        /* \"#utility.yul\":16719:16723   */\n      dup3\n        /* \"#utility.yul\":16715:16731   */\n      shr\n        /* \"#utility.yul\":16694:16731   */\n      swap1\n      pop\n        /* \"#utility.yul\":16621:16738   */\n      swap3\n      swap2\n      pop\n      pop\n      jump\t// out\n        /* \"#utility.yul\":16744:16913   */\n    tag_258:\n        /* \"#utility.yul\":16788:16794   */\n      0x00\n        /* \"#utility.yul\":16821:16872   */\n      tag_469\n        /* \"#utility.yul\":16869:16870   */\n      0x00\n        /* \"#utility.yul\":16865:16871   */\n      not\n        /* \"#utility.yul\":16857:16862   */\n      dup5\n        /* \"#utility.yul\":16854:16855   */\n      0x08\n        /* \"#utility.yul\":16850:16863   */\n      mul\n        /* \"#utility.yul\":16821:16872   */\n      tag_257\n      jump\t// in\n    tag_469:\n        /* \"#utility.yul\":16817:16873   */\n      not\n        /* \"#utility.yul\":16902:16906   */\n      dup1\n        /* \"#utility.yul\":16896:16900   */\n      dup4\n        /* \"#utility.yul\":16892:16907   */\n      and\n        /* \"#utility.yul\":16882:16907   */\n      swap2\n      pop\n        /* \"#utility.yul\":16795:16913   */\n      pop\n        /* \"#utility.yul\":16744:16913   */\n      swap3\n      swap2\n      pop\n      pop\n      jump\t// out\n        /* \"#utility.yul\":16918:17213   */\n    tag_259:\n        /* \"#utility.yul\":16994:16998   */\n      0x00\n        /* \"#utility.yul\":17140:17169   */\n      tag_471\n        /* \"#utility.yul\":17165:17168   */\n      dup4\n        /* \"#utility.yul\":17159:17163   */\n      dup4\n        /* \"#utility.yul\":17140:17169   */\n      tag_258\n      jump\t// in\n    tag_471:\n        /* \"#utility.yul\":17132:17169   */\n      swap2\n      pop\n        /* \"#utility.yul\":17202:17205   */\n      dup3\n        /* \"#utility.yul\":17199:17200   */\n      0x02\n        /* \"#utility.yul\":17195:17206   */\n      mul\n        /* \"#utility.yul\":17189:17193   */\n      dup3\n        /* \"#utility.yul\":17186:17207   */\n      or\n        /* \"#utility.yul\":17178:17207   */\n      swap1\n      pop\n        /* \"#utility.yul\":16918:17213   */\n      swap3\n      swap2\n      pop\n      pop\n      jump\t// out\n        /* \"#utility.yul\":17218:18613   */\n    tag_76:\n        /* \"#utility.yul\":17335:17372   */\n      tag_473\n        /* \"#utility.yul\":17368:17371   */\n      dup3\n        /* \"#utility.yul\":17335:17372   */\n      tag_230\n      jump\t// in\n    tag_473:\n        /* \"#utility.yul\":17437:17455   */\n      0xffffffffffffffff\n        /* \"#utility.yul\":17429:17435   */\n      dup2\n        /* \"#utility.yul\":17426:17456   */\n      gt\n        /* \"#utility.yul\":17423:17479   */\n      iszero\n      tag_474\n      jumpi\n        /* \"#utility.yul\":17459:17477   */\n      tag_475\n      tag_219\n      jump\t// in\n    tag_475:\n        /* \"#utility.yul\":17423:17479   */\n    tag_474:\n        /* \"#utility.yul\":17503:17541   */\n      tag_476\n        /* \"#utility.yul\":17535:17539   */\n      dup3\n        /* \"#utility.yul\":17529:17540   */\n      sload\n        /* \"#utility.yul\":17503:17541   */\n      tag_100\n      jump\t// in\n    tag_476:\n        /* \"#utility.yul\":17588:17655   */\n      tag_477\n        /* \"#utility.yul\":17648:17654   */\n      dup3\n        /* \"#utility.yul\":17640:17646   */\n      dup3\n        /* \"#utility.yul\":17634:17638   */\n      dup6\n        /* \"#utility.yul\":17588:17655   */\n      tag_256\n      jump\t// in\n    tag_477:\n        /* \"#utility.yul\":17682:17683   */\n      0x00\n        /* \"#utility.yul\":17706:17710   */\n      0x20\n        /* \"#utility.yul\":17693:17710   */\n      swap1\n      pop\n        /* \"#utility.yul\":17738:17740   */\n      0x1f\n        /* \"#utility.yul\":17730:17736   */\n      dup4\n        /* \"#utility.yul\":17727:17741   */\n      gt\n        /* \"#utility.yul\":17755:17756   */\n      0x01\n        /* \"#utility.yul\":17750:18368   */\n      dup2\n      eq\n      tag_479\n      jumpi\n        /* \"#utility.yul\":18412:18413   */\n      0x00\n        /* \"#utility.yul\":18429:18435   */\n      dup5\n        /* \"#utility.yul\":18426:18503   */\n      iszero\n      tag_480\n      jumpi\n        /* \"#utility.yul\":18478:18487   */\n      dup3\n        /* \"#utility.yul\":18473:18476   */\n      dup8\n        /* \"#utility.yul\":18469:18488   */\n      add\n        /* \"#utility.yul\":18463:18489   */\n      mload\n        /* \"#utility.yul\":18454:18489   */\n      swap1\n      pop\n        /* \"#utility.yul\":18426:18503   */\n    tag_480:\n        /* \"#utility.yul\":18529:18596   */\n      tag_481\n        /* \"#utility.yul\":18589:18595   */\n      dup6\n        /* \"#utility.yul\":18582:18587   */\n      dup3\n        /* \"#utility.yul\":18529:18596   */\n      tag_259\n      jump\t// in\n    tag_481:\n        /* \"#utility.yul\":18523:18527   */\n      dup7\n        /* \"#utility.yul\":18516:18597   */\n      sstore\n        /* \"#utility.yul\":18385:18607   */\n      pop\n        /* \"#utility.yul\":17720:18607   */\n      jump(tag_478)\n        /* \"#utility.yul\":17750:18368   */\n    tag_479:\n        /* \"#utility.yul\":17802:17806   */\n      0x1f\n        /* \"#utility.yul\":17798:17807   */\n      not\n        /* \"#utility.yul\":17790:17796   */\n      dup5\n        /* \"#utility.yul\":17786:17808   */\n      and\n        /* \"#utility.yul\":17836:17873   */\n      tag_482\n        /* \"#utility.yul\":17868:17872   */\n      dup7\n        /* \"#utility.yul\":17836:17873   */\n      tag_245\n      jump\t// in\n    tag_482:\n        /* \"#utility.yul\":17895:17896   */\n      0x00\n        /* \"#utility.yul\":17909:18117   */\n    tag_483:\n        /* \"#utility.yul\":17923:17930   */\n      dup3\n        /* \"#utility.yul\":17920:17921   */\n      dup2\n        /* \"#utility.yul\":17917:17931   */\n      lt\n        /* \"#utility.yul\":17909:18117   */\n      iszero\n      tag_485\n      jumpi\n        /* \"#utility.yul\":18002:18011   */\n      dup5\n        /* \"#utility.yul\":17997:18000   */\n      dup10\n        /* \"#utility.yul\":17993:18012   */\n      add\n        /* \"#utility.yul\":17987:18013   */\n      mload\n        /* \"#utility.yul\":17979:17985   */\n      dup3\n        /* \"#utility.yul\":17972:18014   */\n      sstore\n        /* \"#utility.yul\":18053:18054   */\n      0x01\n        /* \"#utility.yul\":18045:18051   */\n      dup3\n        /* \"#utility.yul\":18041:18055   */\n      add\n        /* \"#utility.yul\":18031:18055   */\n      swap2\n      pop\n        /* \"#utility.yul\":18100:18102   */\n      0x20\n        /* \"#utility.yul\":18089:18098   */\n      dup6\n        /* \"#utility.yul\":18085:18103   */\n      add\n        /* \"#utility.yul\":18072:18103   */\n      swap5\n      pop\n        /* \"#utility.yul\":17946:17950   */\n      0x20\n        /* \"#utility.yul\":17943:17944   */\n      dup2\n        /* \"#utility.yul\":17939:17951   */\n      add\n        /* \"#utility.yul\":17934:17951   */\n      swap1\n      pop\n        /* \"#utility.yul\":17909:18117   */\n      jump(tag_483)\n    tag_485:\n        /* \"#utility.yul\":18145:18151   */\n      dup7\n        /* \"#utility.yul\":18136:18143   */\n      dup4\n        /* \"#utility.yul\":18133:18152   */\n      lt\n        /* \"#utility.yul\":18130:18309   */\n      iszero\n      tag_486\n      jumpi\n        /* \"#utility.yul\":18203:18212   */\n      dup5\n        /* \"#utility.yul\":18198:18201   */\n      dup10\n        /* \"#utility.yul\":18194:18213   */\n      add\n        /* \"#utility.yul\":18188:18214   */\n      mload\n        /* \"#utility.yul\":18246:18294   */\n      tag_487\n        /* \"#utility.yul\":18288:18292   */\n      0x1f\n        /* \"#utility.yul\":18280:18286   */\n      dup10\n        /* \"#utility.yul\":18276:18293   */\n      and\n        /* \"#utility.yul\":18265:18274   */\n      dup3\n        /* \"#utility.yul\":18246:18294   */\n      tag_258\n      jump\t// in\n    tag_487:\n        /* \"#utility.yul\":18238:18244   */\n      dup4\n        /* \"#utility.yul\":18231:18295   */\n      sstore\n        /* \"#utility.yul\":18153:18309   */\n      pop\n        /* \"#utility.yul\":18130:18309   */\n    tag_486:\n        /* \"#utility.yul\":18355:18356   */\n      0x01\n        /* \"#utility.yul\":18351:18352   */\n      0x02\n        /* \"#utility.yul\":18343:18349   */\n      dup9\n        /* \"#utility.yul\":18339:18353   */\n      mul\n        /* \"#utility.yul\":18335:18357   */\n      add\n        /* \"#utility.yul\":18329:18333   */\n      dup9\n        /* \"#utility.yul\":18322:18358   */\n      sstore\n        /* \"#utility.yul\":17757:18368   */\n      pop\n      pop\n      pop\n        /* \"#utility.yul\":17720:18607   */\n    tag_478:\n      pop\n        /* \"#utility.yul\":17310:18613   */\n      pop\n      pop\n      pop\n        /* \"#utility.yul\":17218:18613   */\n      pop\n      pop\n      jump\t// out\n        /* \"#utility.yul\":18619:18857   */\n    tag_260:\n        /* \"#utility.yul\":18759:18793   */\n      0x566f74696e67206e6f7420696e2070726f67726573732e20596f752063616e20\n        /* \"#utility.yul\":18755:18756   */\n      0x00\n        /* \"#utility.yul\":18747:18753   */\n      dup3\n        /* \"#utility.yul\":18743:18757   */\n      add\n        /* \"#utility.yul\":18736:18794   */\n      mstore\n        /* \"#utility.yul\":18828:18849   */\n      0x6e6f742064656c65746567617465206e6f772e00000000000000000000000000\n        /* \"#utility.yul\":18823:18825   */\n      0x20\n        /* \"#utility.yul\":18815:18821   */\n      dup3\n        /* \"#utility.yul\":18811:18826   */\n      add\n        /* \"#utility.yul\":18804:18850   */\n      mstore\n        /* \"#utility.yul\":18619:18857   */\n      pop\n      jump\t// out\n        /* \"#utility.yul\":18863:19229   */\n    tag_261:\n        /* \"#utility.yul\":19005:19008   */\n      0x00\n        /* \"#utility.yul\":19026:19093   */\n      tag_490\n        /* \"#utility.yul\":19090:19092   */\n      0x33\n        /* \"#utility.yul\":19085:19088   */\n      dup4\n        /* \"#utility.yul\":19026:19093   */\n      tag_231\n      jump\t// in\n    tag_490:\n        /* \"#utility.yul\":19019:19093   */\n      swap2\n      pop\n        /* \"#utility.yul\":19102:19195   */\n      tag_491\n        /* \"#utility.yul\":19191:19194   */\n      dup3\n        /* \"#utility.yul\":19102:19195   */\n      tag_260\n      jump\t// in\n    tag_491:\n        /* \"#utility.yul\":19220:19222   */\n      0x40\n        /* \"#utility.yul\":19215:19218   */\n      dup3\n        /* \"#utility.yul\":19211:19223   */\n      add\n        /* \"#utility.yul\":19204:19223   */\n      swap1\n      pop\n        /* \"#utility.yul\":18863:19229   */\n      swap2\n      swap1\n      pop\n      jump\t// out\n        /* \"#utility.yul\":19235:19654   */\n    tag_84:\n        /* \"#utility.yul\":19401:19405   */\n      0x00\n        /* \"#utility.yul\":19439:19441   */\n      0x20\n        /* \"#utility.yul\":19428:19437   */\n      dup3\n        /* \"#utility.yul\":19424:19442   */\n      add\n        /* \"#utility.yul\":19416:19442   */\n      swap1\n      pop\n        /* \"#utility.yul\":19488:19497   */\n      dup2\n        /* \"#utility.yul\":19482:19486   */\n      dup2\n        /* \"#utility.yul\":19478:19498   */\n      sub\n        /* \"#utility.yul\":19474:19475   */\n      0x00\n        /* \"#utility.yul\":19463:19472   */\n      dup4\n        /* \"#utility.yul\":19459:19476   */\n      add\n        /* \"#utility.yul\":19452:19499   */\n      mstore\n        /* \"#utility.yul\":19516:19647   */\n      tag_493\n        /* \"#utility.yul\":19642:19646   */\n      dup2\n        /* \"#utility.yul\":19516:19647   */\n      tag_261\n      jump\t// in\n    tag_493:\n        /* \"#utility.yul\":19508:19647   */\n      swap1\n      pop\n        /* \"#utility.yul\":19235:19654   */\n      swap2\n      swap1\n      pop\n      jump\t// out\n        /* \"#utility.yul\":19660:19949   */\n    tag_262:\n        /* \"#utility.yul\":19800:19834   */\n      0x4f6e6c792061646472657373206f776e65722063616e2064656c656761746520\n        /* \"#utility.yul\":19796:19797   */\n      0x00\n        /* \"#utility.yul\":19788:19794   */\n      dup3\n        /* \"#utility.yul\":19784:19798   */\n      add\n        /* \"#utility.yul\":19777:19835   */\n      mstore\n        /* \"#utility.yul\":19869:19903   */\n      0x766f74696e672072696768747320746f20616e6f746865722061646472657373\n        /* \"#utility.yul\":19864:19866   */\n      0x20\n        /* \"#utility.yul\":19856:19862   */\n      dup3\n        /* \"#utility.yul\":19852:19867   */\n      add\n        /* \"#utility.yul\":19845:19904   */\n      mstore\n        /* \"#utility.yul\":19938:19941   */\n      0x2e00000000000000000000000000000000000000000000000000000000000000\n        /* \"#utility.yul\":19933:19935   */\n      0x40\n        /* \"#utility.yul\":19925:19931   */\n      dup3\n        /* \"#utility.yul\":19921:19936   */\n      add\n        /* \"#utility.yul\":19914:19942   */\n      mstore\n        /* \"#utility.yul\":19660:19949   */\n      pop\n      jump\t// out\n        /* \"#utility.yul\":19955:20321   */\n    tag_263:\n        /* \"#utility.yul\":20097:20100   */\n      0x00\n        /* \"#utility.yul\":20118:20185   */\n      tag_496\n        /* \"#utility.yul\":20182:20184   */\n      0x41\n        /* \"#utility.yul\":20177:20180   */\n      dup4\n        /* \"#utility.yul\":20118:20185   */\n      tag_231\n      jump\t// in\n    tag_496:\n        /* \"#utility.yul\":20111:20185   */\n      swap2\n      pop\n        /* \"#utility.yul\":20194:20287   */\n      tag_497\n        /* \"#utility.yul\":20283:20286   */\n      dup3\n        /* \"#utility.yul\":20194:20287   */\n      tag_262\n      jump\t// in\n    tag_497:\n        /* \"#utility.yul\":20312:20314   */\n      0x60\n        /* \"#utility.yul\":20307:20310   */\n      dup3\n        /* \"#utility.yul\":20303:20315   */\n      add\n        /* \"#utility.yul\":20296:20315   */\n      swap1\n      pop\n        /* \"#utility.yul\":19955:20321   */\n      swap2\n      swap1\n      pop\n      jump\t// out\n        /* \"#utility.yul\":20327:20746   */\n    tag_87:\n        /* \"#utility.yul\":20493:20497   */\n      0x00\n        /* \"#utility.yul\":20531:20533   */\n      0x20\n        /* \"#utility.yul\":20520:20529   */\n      dup3\n        /* \"#utility.yul\":20516:20534   */\n      add\n        /* \"#utility.yul\":20508:20534   */\n      swap1\n      pop\n        /* \"#utility.yul\":20580:20589   */\n      dup2\n        /* \"#utility.yul\":20574:20578   */\n      dup2\n        /* \"#utility.yul\":20570:20590   */\n      sub\n        /* \"#utility.yul\":20566:20567   */\n      0x00\n        /* \"#utility.yul\":20555:20564   */\n      dup4\n        /* \"#utility.yul\":20551:20568   */\n      add\n        /* \"#utility.yul\":20544:20591   */\n      mstore\n        /* \"#utility.yul\":20608:20739   */\n      tag_499\n        /* \"#utility.yul\":20734:20738   */\n      dup2\n        /* \"#utility.yul\":20608:20739   */\n      tag_263\n      jump\t// in\n    tag_499:\n        /* \"#utility.yul\":20600:20739   */\n      swap1\n      pop\n        /* \"#utility.yul\":20327:20746   */\n      swap2\n      swap1\n      pop\n      jump\t// out\n        /* \"#utility.yul\":20752:20998   */\n    tag_264:\n        /* \"#utility.yul\":20892:20926   */\n      0x596f752063616e206e6f742064656c656761746520766f74696e672072696768\n        /* \"#utility.yul\":20888:20889   */\n      0x00\n        /* \"#utility.yul\":20880:20886   */\n      dup3\n        /* \"#utility.yul\":20876:20890   */\n      add\n        /* \"#utility.yul\":20869:20927   */\n      mstore\n        /* \"#utility.yul\":20961:20990   */\n      0x74732e20596f75206861766520616c726561647920766f7465642e0000000000\n        /* \"#utility.yul\":20956:20958   */\n      0x20\n        /* \"#utility.yul\":20948:20954   */\n      dup3\n        /* \"#utility.yul\":20944:20959   */\n      add\n        /* \"#utility.yul\":20937:20991   */\n      mstore\n        /* \"#utility.yul\":20752:20998   */\n      pop\n      jump\t// out\n        /* \"#utility.yul\":21004:21370   */\n    tag_265:\n        /* \"#utility.yul\":21146:21149   */\n      0x00\n        /* \"#utility.yul\":21167:21234   */\n      tag_502\n        /* \"#utility.yul\":21231:21233   */\n      0x3b\n        /* \"#utility.yul\":21226:21229   */\n      dup4\n        /* \"#utility.yul\":21167:21234   */\n      tag_231\n      jump\t// in\n    tag_502:\n        /* \"#utility.yul\":21160:21234   */\n      swap2\n      pop\n        /* \"#utility.yul\":21243:21336   */\n      tag_503\n        /* \"#utility.yul\":21332:21335   */\n      dup3\n        /* \"#utility.yul\":21243:21336   */\n      tag_264\n      jump\t// in\n    tag_503:\n        /* \"#utility.yul\":21361:21363   */\n      0x40\n        /* \"#utility.yul\":21356:21359   */\n      dup3\n        /* \"#utility.yul\":21352:21364   */\n      add\n        /* \"#utility.yul\":21345:21364   */\n      swap1\n      pop\n        /* \"#utility.yul\":21004:21370   */\n      swap2\n      swap1\n      pop\n      jump\t// out\n        /* \"#utility.yul\":21376:21795   */\n    tag_90:\n        /* \"#utility.yul\":21542:21546   */\n      0x00\n        /* \"#utility.yul\":21580:21582   */\n      0x20\n        /* \"#utility.yul\":21569:21578   */\n      dup3\n        /* \"#utility.yul\":21565:21583   */\n      add\n        /* \"#utility.yul\":21557:21583   */\n      swap1\n      pop\n        /* \"#utility.yul\":21629:21638   */\n      dup2\n        /* \"#utility.yul\":21623:21627   */\n      dup2\n        /* \"#utility.yul\":21619:21639   */\n      sub\n        /* \"#utility.yul\":21615:21616   */\n      0x00\n        /* \"#utility.yul\":21604:21613   */\n      dup4\n        /* \"#utility.yul\":21600:21617   */\n      add\n        /* \"#utility.yul\":21593:21640   */\n      mstore\n        /* \"#utility.yul\":21657:21788   */\n      tag_505\n        /* \"#utility.yul\":21783:21787   */\n      dup2\n        /* \"#utility.yul\":21657:21788   */\n      tag_265\n      jump\t// in\n    tag_505:\n        /* \"#utility.yul\":21649:21788   */\n      swap1\n      pop\n        /* \"#utility.yul\":21376:21795   */\n      swap2\n      swap1\n      pop\n      jump\t// out\n        /* \"#utility.yul\":21801:21969   */\n    tag_266:\n        /* \"#utility.yul\":21941:21961   */\n      0x566f74696e67206e6f7420737461727465640000000000000000000000000000\n        /* \"#utility.yul\":21937:21938   */\n      0x00\n        /* \"#utility.yul\":21929:21935   */\n      dup3\n        /* \"#utility.yul\":21925:21939   */\n      add\n        /* \"#utility.yul\":21918:21962   */\n      mstore\n        /* \"#utility.yul\":21801:21969   */\n      pop\n      jump\t// out\n        /* \"#utility.yul\":21975:22341   */\n    tag_267:\n        /* \"#utility.yul\":22117:22120   */\n      0x00\n        /* \"#utility.yul\":22138:22205   */\n      tag_508\n        /* \"#utility.yul\":22202:22204   */\n      0x12\n        /* \"#utility.yul\":22197:22200   */\n      dup4\n        /* \"#utility.yul\":22138:22205   */\n      tag_231\n      jump\t// in\n    tag_508:\n        /* \"#utility.yul\":22131:22205   */\n      swap2\n      pop\n        /* \"#utility.yul\":22214:22307   */\n      tag_509\n        /* \"#utility.yul\":22303:22306   */\n      dup3\n        /* \"#utility.yul\":22214:22307   */\n      tag_266\n      jump\t// in\n    tag_509:\n        /* \"#utility.yul\":22332:22334   */\n      0x20\n        /* \"#utility.yul\":22327:22330   */\n      dup3\n        /* \"#utility.yul\":22323:22335   */\n      add\n        /* \"#utility.yul\":22316:22335   */\n      swap1\n      pop\n        /* \"#utility.yul\":21975:22341   */\n      swap2\n      swap1\n      pop\n      jump\t// out\n        /* \"#utility.yul\":22347:22766   */\n    tag_98:\n        /* \"#utility.yul\":22513:22517   */\n      0x00\n        /* \"#utility.yul\":22551:22553   */\n      0x20\n        /* \"#utility.yul\":22540:22549   */\n      dup3\n        /* \"#utility.yul\":22536:22554   */\n      add\n        /* \"#utility.yul\":22528:22554   */\n      swap1\n      pop\n        /* \"#utility.yul\":22600:22609   */\n      dup2\n        /* \"#utility.yul\":22594:22598   */\n      dup2\n        /* \"#utility.yul\":22590:22610   */\n      sub\n        /* \"#utility.yul\":22586:22587   */\n      0x00\n        /* \"#utility.yul\":22575:22584   */\n      dup4\n        /* \"#utility.yul\":22571:22588   */\n      add\n        /* \"#utility.yul\":22564:22611   */\n      mstore\n        /* \"#utility.yul\":22628:22759   */\n      tag_511\n        /* \"#utility.yul\":22754:22758   */\n      dup2\n        /* \"#utility.yul\":22628:22759   */\n      tag_267\n      jump\t// in\n    tag_511:\n        /* \"#utility.yul\":22620:22759   */\n      swap1\n      pop\n        /* \"#utility.yul\":22347:22766   */\n      swap2\n      swap1\n      pop\n      jump\t// out\n        /* \"#utility.yul\":22772:22940   */\n    tag_268:\n        /* \"#utility.yul\":22912:22932   */\n      0x766f74696e67206e6f7420737461727465640000000000000000000000000000\n        /* \"#utility.yul\":22908:22909   */\n      0x00\n        /* \"#utility.yul\":22900:22906   */\n      dup3\n        /* \"#utility.yul\":22896:22910   */\n      add\n        /* \"#utility.yul\":22889:22933   */\n      mstore\n        /* \"#utility.yul\":22772:22940   */\n      pop\n      jump\t// out\n        /* \"#utility.yul\":22946:23312   */\n    tag_269:\n        /* \"#utility.yul\":23088:23091   */\n      0x00\n        /* \"#utility.yul\":23109:23176   */\n      tag_514\n        /* \"#utility.yul\":23173:23175   */\n      0x12\n        /* \"#utility.yul\":23168:23171   */\n      dup4\n        /* \"#utility.yul\":23109:23176   */\n      tag_231\n      jump\t// in\n    tag_514:\n        /* \"#utility.yul\":23102:23176   */\n      swap2\n      pop\n        /* \"#utility.yul\":23185:23278   */\n      tag_515\n        /* \"#utility.yul\":23274:23277   */\n      dup3\n        /* \"#utility.yul\":23185:23278   */\n      tag_268\n      jump\t// in\n    tag_515:\n        /* \"#utility.yul\":23303:23305   */\n      0x20\n        /* \"#utility.yul\":23298:23301   */\n      dup3\n        /* \"#utility.yul\":23294:23306   */\n      add\n        /* \"#utility.yul\":23287:23306   */\n      swap1\n      pop\n        /* \"#utility.yul\":22946:23312   */\n      swap2\n      swap1\n      pop\n      jump\t// out\n        /* \"#utility.yul\":23318:23737   */\n    tag_114:\n        /* \"#utility.yul\":23484:23488   */\n      0x00\n        /* \"#utility.yul\":23522:23524   */\n      0x20\n        /* \"#utility.yul\":23511:23520   */\n      dup3\n        /* \"#utility.yul\":23507:23525   */\n      add\n        /* \"#utility.yul\":23499:23525   */\n      swap1\n      pop\n        /* \"#utility.yul\":23571:23580   */\n      dup2\n        /* \"#utility.yul\":23565:23569   */\n      dup2\n        /* \"#utility.yul\":23561:23581   */\n      sub\n        /* \"#utility.yul\":23557:23558   */\n      0x00\n        /* \"#utility.yul\":23546:23555   */\n      dup4\n        /* \"#utility.yul\":23542:23559   */\n      add\n        /* \"#utility.yul\":23535:23582   */\n      mstore\n        /* \"#utility.yul\":23599:23730   */\n      tag_517\n        /* \"#utility.yul\":23725:23729   */\n      dup2\n        /* \"#utility.yul\":23599:23730   */\n      tag_269\n      jump\t// in\n    tag_517:\n        /* \"#utility.yul\":23591:23730   */\n      swap1\n      pop\n        /* \"#utility.yul\":23318:23737   */\n      swap2\n      swap1\n      pop\n      jump\t// out\n        /* \"#utility.yul\":23743:23905   */\n    tag_270:\n        /* \"#utility.yul\":23883:23897   */\n      0x766f74696e6720656e6465640000000000000000000000000000000000000000\n        /* \"#utility.yul\":23879:23880   */\n      0x00\n        /* \"#utility.yul\":23871:23877   */\n      dup3\n        /* \"#utility.yul\":23867:23881   */\n      add\n        /* \"#utility.yul\":23860:23898   */\n      mstore\n        /* \"#utility.yul\":23743:23905   */\n      pop\n      jump\t// out\n        /* \"#utility.yul\":23911:24277   */\n    tag_271:\n        /* \"#utility.yul\":24053:24056   */\n      0x00\n        /* \"#utility.yul\":24074:24141   */\n      tag_520\n        /* \"#utility.yul\":24138:24140   */\n      0x0c\n        /* \"#utility.yul\":24133:24136   */\n      dup4\n        /* \"#utility.yul\":24074:24141   */\n      tag_231\n      jump\t// in\n    tag_520:\n        /* \"#utility.yul\":24067:24141   */\n      swap2\n      pop\n        /* \"#utility.yul\":24150:24243   */\n      tag_521\n        /* \"#utility.yul\":24239:24242   */\n      dup3\n        /* \"#utility.yul\":24150:24243   */\n      tag_270\n      jump\t// in\n    tag_521:\n        /* \"#utility.yul\":24268:24270   */\n      0x20\n        /* \"#utility.yul\":24263:24266   */\n      dup3\n        /* \"#utility.yul\":24259:24271   */\n      add\n        /* \"#utility.yul\":24252:24271   */\n      swap1\n      pop\n        /* \"#utility.yul\":23911:24277   */\n      swap2\n      swap1\n      pop\n      jump\t// out\n        /* \"#utility.yul\":24283:24702   */\n    tag_122:\n        /* \"#utility.yul\":24449:24453   */\n      0x00\n        /* \"#utility.yul\":24487:24489   */\n      0x20\n        /* \"#utility.yul\":24476:24485   */\n      dup3\n        /* \"#utility.yul\":24472:24490   */\n      add\n        /* \"#utility.yul\":24464:24490   */\n      swap1\n      pop\n        /* \"#utility.yul\":24536:24545   */\n      dup2\n        /* \"#utility.yul\":24530:24534   */\n      dup2\n        /* \"#utility.yul\":24526:24546   */\n      sub\n        /* \"#utility.yul\":24522:24523   */\n      0x00\n        /* \"#utility.yul\":24511:24520   */\n      dup4\n        /* \"#utility.yul\":24507:24524   */\n      add\n        /* \"#utility.yul\":24500:24547   */\n      mstore\n        /* \"#utility.yul\":24564:24695   */\n      tag_523\n        /* \"#utility.yul\":24690:24694   */\n      dup2\n        /* \"#utility.yul\":24564:24695   */\n      tag_271\n      jump\t// in\n    tag_523:\n        /* \"#utility.yul\":24556:24695   */\n      swap1\n      pop\n        /* \"#utility.yul\":24283:24702   */\n      swap2\n      swap1\n      pop\n      jump\t// out\n        /* \"#utility.yul\":24708:24881   */\n    tag_272:\n        /* \"#utility.yul\":24848:24873   */\n      0x302063616e646964617465732072656769737465726564000000000000000000\n        /* \"#utility.yul\":24844:24845   */\n      0x00\n        /* \"#utility.yul\":24836:24842   */\n      dup3\n        /* \"#utility.yul\":24832:24846   */\n      add\n        /* \"#utility.yul\":24825:24874   */\n      mstore\n        /* \"#utility.yul\":24708:24881   */\n      pop\n      jump\t// out\n        /* \"#utility.yul\":24887:25253   */\n    tag_273:\n        /* \"#utility.yul\":25029:25032   */\n      0x00\n        /* \"#utility.yul\":25050:25117   */\n      tag_526\n        /* \"#utility.yul\":25114:25116   */\n      0x17\n        /* \"#utility.yul\":25109:25112   */\n      dup4\n        /* \"#utility.yul\":25050:25117   */\n      tag_231\n      jump\t// in\n    tag_526:\n        /* \"#utility.yul\":25043:25117   */\n      swap2\n      pop\n        /* \"#utility.yul\":25126:25219   */\n      tag_527\n        /* \"#utility.yul\":25215:25218   */\n      dup3\n        /* \"#utility.yul\":25126:25219   */\n      tag_272\n      jump\t// in\n    tag_527:\n        /* \"#utility.yul\":25244:25246   */\n      0x20\n        /* \"#utility.yul\":25239:25242   */\n      dup3\n        /* \"#utility.yul\":25235:25247   */\n      add\n        /* \"#utility.yul\":25228:25247   */\n      swap1\n      pop\n        /* \"#utility.yul\":24887:25253   */\n      swap2\n      swap1\n      pop\n      jump\t// out\n        /* \"#utility.yul\":25259:25678   */\n    tag_142:\n        /* \"#utility.yul\":25425:25429   */\n      0x00\n        /* \"#utility.yul\":25463:25465   */\n      0x20\n        /* \"#utility.yul\":25452:25461   */\n      dup3\n        /* \"#utility.yul\":25448:25466   */\n      add\n        /* \"#utility.yul\":25440:25466   */\n      swap1\n      pop\n        /* \"#utility.yul\":25512:25521   */\n      dup2\n        /* \"#utility.yul\":25506:25510   */\n      dup2\n        /* \"#utility.yul\":25502:25522   */\n      sub\n        /* \"#utility.yul\":25498:25499   */\n      0x00\n        /* \"#utility.yul\":25487:25496   */\n      dup4\n        /* \"#utility.yul\":25483:25500   */\n      add\n        /* \"#utility.yul\":25476:25523   */\n      mstore\n        /* \"#utility.yul\":25540:25671   */\n      tag_529\n        /* \"#utility.yul\":25666:25670   */\n      dup2\n        /* \"#utility.yul\":25540:25671   */\n      tag_273\n      jump\t// in\n    tag_529:\n        /* \"#utility.yul\":25532:25671   */\n      swap1\n      pop\n        /* \"#utility.yul\":25259:25678   */\n      swap2\n      swap1\n      pop\n      jump\t// out\n        /* \"#utility.yul\":25684:25866   */\n    tag_274:\n        /* \"#utility.yul\":25824:25858   */\n      0x63616e646964617465207769746820696420646f6573206e6f74206578697374\n        /* \"#utility.yul\":25820:25821   */\n      0x00\n        /* \"#utility.yul\":25812:25818   */\n      dup3\n        /* \"#utility.yul\":25808:25822   */\n      add\n        /* \"#utility.yul\":25801:25859   */\n      mstore\n        /* \"#utility.yul\":25684:25866   */\n      pop\n      jump\t// out\n        /* \"#utility.yul\":25872:26238   */\n    tag_275:\n        /* \"#utility.yul\":26014:26017   */\n      0x00\n        /* \"#utility.yul\":26035:26102   */\n      tag_532\n        /* \"#utility.yul\":26099:26101   */\n      0x20\n        /* \"#utility.yul\":26094:26097   */\n      dup4\n        /* \"#utility.yul\":26035:26102   */\n      tag_231\n      jump\t// in\n    tag_532:\n        /* \"#utility.yul\":26028:26102   */\n      swap2\n      pop\n        /* \"#utility.yul\":26111:26204   */\n      tag_533\n        /* \"#utility.yul\":26200:26203   */\n      dup3\n        /* \"#utility.yul\":26111:26204   */\n      tag_274\n      jump\t// in\n    tag_533:\n        /* \"#utility.yul\":26229:26231   */\n      0x20\n        /* \"#utility.yul\":26224:26227   */\n      dup3\n        /* \"#utility.yul\":26220:26232   */\n      add\n        /* \"#utility.yul\":26213:26232   */\n      swap1\n      pop\n        /* \"#utility.yul\":25872:26238   */\n      swap2\n      swap1\n      pop\n      jump\t// out\n        /* \"#utility.yul\":26244:26663   */\n    tag_145:\n        /* \"#utility.yul\":26410:26414   */\n      0x00\n        /* \"#utility.yul\":26448:26450   */\n      0x20\n        /* \"#utility.yul\":26437:26446   */\n      dup3\n        /* \"#utility.yul\":26433:26451   */\n      add\n        /* \"#utility.yul\":26425:26451   */\n      swap1\n      pop\n        /* \"#utility.yul\":26497:26506   */\n      dup2\n        /* \"#utility.yul\":26491:26495   */\n      dup2\n        /* \"#utility.yul\":26487:26507   */\n      sub\n        /* \"#utility.yul\":26483:26484   */\n      0x00\n        /* \"#utility.yul\":26472:26481   */\n      dup4\n        /* \"#utility.yul\":26468:26485   */\n      add\n        /* \"#utility.yul\":26461:26508   */\n      mstore\n        /* \"#utility.yul\":26525:26656   */\n      tag_535\n        /* \"#utility.yul\":26651:26655   */\n      dup2\n        /* \"#utility.yul\":26525:26656   */\n      tag_275\n      jump\t// in\n    tag_535:\n        /* \"#utility.yul\":26517:26656   */\n      swap1\n      pop\n        /* \"#utility.yul\":26244:26663   */\n      swap2\n      swap1\n      pop\n      jump\t// out\n        /* \"#utility.yul\":26669:26889   */\n    tag_276:\n        /* \"#utility.yul\":26809:26843   */\n      0x766f7465722077697468206164647265737320646f6573206e6f742065786973\n        /* \"#utility.yul\":26805:26806   */\n      0x00\n        /* \"#utility.yul\":26797:26803   */\n      dup3\n        /* \"#utility.yul\":26793:26807   */\n      add\n        /* \"#utility.yul\":26786:26844   */\n      mstore\n        /* \"#utility.yul\":26878:26881   */\n      0x7400000000000000000000000000000000000000000000000000000000000000\n        /* \"#utility.yul\":26873:26875   */\n      0x20\n        /* \"#utility.yul\":26865:26871   */\n      dup3\n        /* \"#utility.yul\":26861:26876   */\n      add\n        /* \"#utility.yul\":26854:26882   */\n      mstore\n        /* \"#utility.yul\":26669:26889   */\n      pop\n      jump\t// out\n        /* \"#utility.yul\":26895:27261   */\n    tag_277:\n        /* \"#utility.yul\":27037:27040   */\n      0x00\n        /* \"#utility.yul\":27058:27125   */\n      tag_538\n        /* \"#utility.yul\":27122:27124   */\n      0x21\n        /* \"#utility.yul\":27117:27120   */\n      dup4\n        /* \"#utility.yul\":27058:27125   */\n      tag_231\n      jump\t// in\n    tag_538:\n        /* \"#utility.yul\":27051:27125   */\n      swap2\n      pop\n        /* \"#utility.yul\":27134:27227   */\n      tag_539\n        /* \"#utility.yul\":27223:27226   */\n      dup3\n        /* \"#utility.yul\":27134:27227   */\n      tag_276\n      jump\t// in\n    tag_539:\n        /* \"#utility.yul\":27252:27254   */\n      0x40\n        /* \"#utility.yul\":27247:27250   */\n      dup3\n        /* \"#utility.yul\":27243:27255   */\n      add\n        /* \"#utility.yul\":27236:27255   */\n      swap1\n      pop\n        /* \"#utility.yul\":26895:27261   */\n      swap2\n      swap1\n      pop\n      jump\t// out\n        /* \"#utility.yul\":27267:27686   */\n    tag_148:\n        /* \"#utility.yul\":27433:27437   */\n      0x00\n        /* \"#utility.yul\":27471:27473   */\n      0x20\n        /* \"#utility.yul\":27460:27469   */\n      dup3\n        /* \"#utility.yul\":27456:27474   */\n      add\n        /* \"#utility.yul\":27448:27474   */\n      swap1\n      pop\n        /* \"#utility.yul\":27520:27529   */\n      dup2\n        /* \"#utility.yul\":27514:27518   */\n      dup2\n        /* \"#utility.yul\":27510:27530   */\n      sub\n        /* \"#utility.yul\":27506:27507   */\n      0x00\n        /* \"#utility.yul\":27495:27504   */\n      dup4\n        /* \"#utility.yul\":27491:27508   */\n      add\n        /* \"#utility.yul\":27484:27531   */\n      mstore\n        /* \"#utility.yul\":27548:27679   */\n      tag_541\n        /* \"#utility.yul\":27674:27678   */\n      dup2\n        /* \"#utility.yul\":27548:27679   */\n      tag_277\n      jump\t// in\n    tag_541:\n        /* \"#utility.yul\":27540:27679   */\n      swap1\n      pop\n        /* \"#utility.yul\":27267:27686   */\n      swap2\n      swap1\n      pop\n      jump\t// out\n        /* \"#utility.yul\":27692:27861   */\n    tag_278:\n        /* \"#utility.yul\":27832:27853   */\n      0x566f746520616c726561647920706c6163656400000000000000000000000000\n        /* \"#utility.yul\":27828:27829   */\n      0x00\n        /* \"#utility.yul\":27820:27826   */\n      dup3\n        /* \"#utility.yul\":27816:27830   */\n      add\n        /* \"#utility.yul\":27809:27854   */\n      mstore\n        /* \"#utility.yul\":27692:27861   */\n      pop\n      jump\t// out\n        /* \"#utility.yul\":27867:28233   */\n    tag_279:\n        /* \"#utility.yul\":28009:28012   */\n      0x00\n        /* \"#utility.yul\":28030:28097   */\n      tag_544\n        /* \"#utility.yul\":28094:28096   */\n      0x13\n        /* \"#utility.yul\":28089:28092   */\n      dup4\n        /* \"#utility.yul\":28030:28097   */\n      tag_231\n      jump\t// in\n    tag_544:\n        /* \"#utility.yul\":28023:28097   */\n      swap2\n      pop\n        /* \"#utility.yul\":28106:28199   */\n      tag_545\n        /* \"#utility.yul\":28195:28198   */\n      dup3\n        /* \"#utility.yul\":28106:28199   */\n      tag_278\n      jump\t// in\n    tag_545:\n        /* \"#utility.yul\":28224:28226   */\n      0x20\n        /* \"#utility.yul\":28219:28222   */\n      dup3\n        /* \"#utility.yul\":28215:28227   */\n      add\n        /* \"#utility.yul\":28208:28227   */\n      swap1\n      pop\n        /* \"#utility.yul\":27867:28233   */\n      swap2\n      swap1\n      pop\n      jump\t// out\n        /* \"#utility.yul\":28239:28658   */\n    tag_151:\n        /* \"#utility.yul\":28405:28409   */\n      0x00\n        /* \"#utility.yul\":28443:28445   */\n      0x20\n        /* \"#utility.yul\":28432:28441   */\n      dup3\n        /* \"#utility.yul\":28428:28446   */\n      add\n        /* \"#utility.yul\":28420:28446   */\n      swap1\n      pop\n        /* \"#utility.yul\":28492:28501   */\n      dup2\n        /* \"#utility.yul\":28486:28490   */\n      dup2\n        /* \"#utility.yul\":28482:28502   */\n      sub\n        /* \"#utility.yul\":28478:28479   */\n      0x00\n        /* \"#utility.yul\":28467:28476   */\n      dup4\n        /* \"#utility.yul\":28463:28480   */\n      add\n        /* \"#utility.yul\":28456:28503   */\n      mstore\n        /* \"#utility.yul\":28520:28651   */\n      tag_547\n        /* \"#utility.yul\":28646:28650   */\n      dup2\n        /* \"#utility.yul\":28520:28651   */\n      tag_279\n      jump\t// in\n    tag_547:\n        /* \"#utility.yul\":28512:28651   */\n      swap1\n      pop\n        /* \"#utility.yul\":28239:28658   */\n      swap2\n      swap1\n      pop\n      jump\t// out\n        /* \"#utility.yul\":28664:28830   */\n    tag_280:\n        /* \"#utility.yul\":28804:28822   */\n      0x796f752063616e206e6f7420766f746500000000000000000000000000000000\n        /* \"#utility.yul\":28800:28801   */\n      0x00\n        /* \"#utility.yul\":28792:28798   */\n      dup3\n        /* \"#utility.yul\":28788:28802   */\n      add\n        /* \"#utility.yul\":28781:28823   */\n      mstore\n        /* \"#utility.yul\":28664:28830   */\n      pop\n      jump\t// out\n        /* \"#utility.yul\":28836:29202   */\n    tag_281:\n        /* \"#utility.yul\":28978:28981   */\n      0x00\n        /* \"#utility.yul\":28999:29066   */\n      tag_550\n        /* \"#utility.yul\":29063:29065   */\n      0x10\n        /* \"#utility.yul\":29058:29061   */\n      dup4\n        /* \"#utility.yul\":28999:29066   */\n      tag_231\n      jump\t// in\n    tag_550:\n        /* \"#utility.yul\":28992:29066   */\n      swap2\n      pop\n        /* \"#utility.yul\":29075:29168   */\n      tag_551\n        /* \"#utility.yul\":29164:29167   */\n      dup3\n        /* \"#utility.yul\":29075:29168   */\n      tag_280\n      jump\t// in\n    tag_551:\n        /* \"#utility.yul\":29193:29195   */\n      0x20\n        /* \"#utility.yul\":29188:29191   */\n      dup3\n        /* \"#utility.yul\":29184:29196   */\n      add\n        /* \"#utility.yul\":29177:29196   */\n      swap1\n      pop\n        /* \"#utility.yul\":28836:29202   */\n      swap2\n      swap1\n      pop\n      jump\t// out\n        /* \"#utility.yul\":29208:29627   */\n    tag_155:\n        /* \"#utility.yul\":29374:29378   */\n      0x00\n        /* \"#utility.yul\":29412:29414   */\n      0x20\n        /* \"#utility.yul\":29401:29410   */\n      dup3\n        /* \"#utility.yul\":29397:29415   */\n      add\n        /* \"#utility.yul\":29389:29415   */\n      swap1\n      pop\n        /* \"#utility.yul\":29461:29470   */\n      dup2\n        /* \"#utility.yul\":29455:29459   */\n      dup2\n        /* \"#utility.yul\":29451:29471   */\n      sub\n        /* \"#utility.yul\":29447:29448   */\n      0x00\n        /* \"#utility.yul\":29436:29445   */\n      dup4\n        /* \"#utility.yul\":29432:29449   */\n      add\n        /* \"#utility.yul\":29425:29472   */\n      mstore\n        /* \"#utility.yul\":29489:29620   */\n      tag_553\n        /* \"#utility.yul\":29615:29619   */\n      dup2\n        /* \"#utility.yul\":29489:29620   */\n      tag_281\n      jump\t// in\n    tag_553:\n        /* \"#utility.yul\":29481:29620   */\n      swap1\n      pop\n        /* \"#utility.yul\":29208:29627   */\n      swap2\n      swap1\n      pop\n      jump\t// out\n        /* \"#utility.yul\":29633:29824   */\n    tag_157:\n        /* \"#utility.yul\":29673:29676   */\n      0x00\n        /* \"#utility.yul\":29692:29712   */\n      tag_555\n        /* \"#utility.yul\":29710:29711   */\n      dup3\n        /* \"#utility.yul\":29692:29712   */\n      tag_226\n      jump\t// in\n    tag_555:\n        /* \"#utility.yul\":29687:29712   */\n      swap2\n      pop\n        /* \"#utility.yul\":29726:29746   */\n      tag_556\n        /* \"#utility.yul\":29744:29745   */\n      dup4\n        /* \"#utility.yul\":29726:29746   */\n      tag_226\n      jump\t// in\n    tag_556:\n        /* \"#utility.yul\":29721:29746   */\n      swap3\n      pop\n        /* \"#utility.yul\":29769:29770   */\n      dup3\n        /* \"#utility.yul\":29766:29767   */\n      dup3\n        /* \"#utility.yul\":29762:29771   */\n      add\n        /* \"#utility.yul\":29755:29771   */\n      swap1\n      pop\n        /* \"#utility.yul\":29790:29793   */\n      dup1\n        /* \"#utility.yul\":29787:29788   */\n      dup3\n        /* \"#utility.yul\":29784:29794   */\n      gt\n        /* \"#utility.yul\":29781:29817   */\n      iszero\n      tag_557\n      jumpi\n        /* \"#utility.yul\":29797:29815   */\n      tag_558\n      tag_243\n      jump\t// in\n    tag_558:\n        /* \"#utility.yul\":29781:29817   */\n    tag_557:\n        /* \"#utility.yul\":29633:29824   */\n      swap3\n      swap2\n      pop\n      pop\n      jump\t// out\n        /* \"#utility.yul\":29830:30012   */\n    tag_282:\n        /* \"#utility.yul\":29970:30004   */\n      0x43616e646964617465207769746820696420646f6573206e6f74206578697374\n        /* \"#utility.yul\":29966:29967   */\n      0x00\n        /* \"#utility.yul\":29958:29964   */\n      dup3\n        /* \"#utility.yul\":29954:29968   */\n      add\n        /* \"#utility.yul\":29947:30005   */\n      mstore\n        /* \"#utility.yul\":29830:30012   */\n      pop\n      jump\t// out\n        /* \"#utility.yul\":30018:30384   */\n    tag_283:\n        /* \"#utility.yul\":30160:30163   */\n      0x00\n        /* \"#utility.yul\":30181:30248   */\n      tag_561\n        /* \"#utility.yul\":30245:30247   */\n      0x20\n        /* \"#utility.yul\":30240:30243   */\n      dup4\n        /* \"#utility.yul\":30181:30248   */\n      tag_231\n      jump\t// in\n    tag_561:\n        /* \"#utility.yul\":30174:30248   */\n      swap2\n      pop\n        /* \"#utility.yul\":30257:30350   */\n      tag_562\n        /* \"#utility.yul\":30346:30349   */\n      dup3\n        /* \"#utility.yul\":30257:30350   */\n      tag_282\n      jump\t// in\n    tag_562:\n        /* \"#utility.yul\":30375:30377   */\n      0x20\n        /* \"#utility.yul\":30370:30373   */\n      dup3\n        /* \"#utility.yul\":30366:30378   */\n      add\n        /* \"#utility.yul\":30359:30378   */\n      swap1\n      pop\n        /* \"#utility.yul\":30018:30384   */\n      swap2\n      swap1\n      pop\n      jump\t// out\n        /* \"#utility.yul\":30390:30809   */\n    tag_161:\n        /* \"#utility.yul\":30556:30560   */\n      0x00\n        /* \"#utility.yul\":30594:30596   */\n      0x20\n        /* \"#utility.yul\":30583:30592   */\n      dup3\n        /* \"#utility.yul\":30579:30597   */\n      add\n        /* \"#utility.yul\":30571:30597   */\n      swap1\n      pop\n        /* \"#utility.yul\":30643:30652   */\n      dup2\n        /* \"#utility.yul\":30637:30641   */\n      dup2\n        /* \"#utility.yul\":30633:30653   */\n      sub\n        /* \"#utility.yul\":30629:30630   */\n      0x00\n        /* \"#utility.yul\":30618:30627   */\n      dup4\n        /* \"#utility.yul\":30614:30631   */\n      add\n        /* \"#utility.yul\":30607:30654   */\n      mstore\n        /* \"#utility.yul\":30671:30802   */\n      tag_564\n        /* \"#utility.yul\":30797:30801   */\n      dup2\n        /* \"#utility.yul\":30671:30802   */\n      tag_283\n      jump\t// in\n    tag_564:\n        /* \"#utility.yul\":30663:30802   */\n      swap1\n      pop\n        /* \"#utility.yul\":30390:30809   */\n      swap2\n      swap1\n      pop\n      jump\t// out\n        /* \"#utility.yul\":30815:30984   */\n    tag_284:\n        /* \"#utility.yul\":30955:30976   */\n      0x3020766f74657273207265676973746572656400000000000000000000000000\n        /* \"#utility.yul\":30951:30952   */\n      0x00\n        /* \"#utility.yul\":30943:30949   */\n      dup3\n        /* \"#utility.yul\":30939:30953   */\n      add\n        /* \"#utility.yul\":30932:30977   */\n      mstore\n        /* \"#utility.yul\":30815:30984   */\n      pop\n      jump\t// out\n        /* \"#utility.yul\":30990:31356   */\n    tag_285:\n        /* \"#utility.yul\":31132:31135   */\n      0x00\n        /* \"#utility.yul\":31153:31220   */\n      tag_567\n        /* \"#utility.yul\":31217:31219   */\n      0x13\n        /* \"#utility.yul\":31212:31215   */\n      dup4\n        /* \"#utility.yul\":31153:31220   */\n      tag_231\n      jump\t// in\n    tag_567:\n        /* \"#utility.yul\":31146:31220   */\n      swap2\n      pop\n        /* \"#utility.yul\":31229:31322   */\n      tag_568\n        /* \"#utility.yul\":31318:31321   */\n      dup3\n        /* \"#utility.yul\":31229:31322   */\n      tag_284\n      jump\t// in\n    tag_568:\n        /* \"#utility.yul\":31347:31349   */\n      0x20\n        /* \"#utility.yul\":31342:31345   */\n      dup3\n        /* \"#utility.yul\":31338:31350   */\n      add\n        /* \"#utility.yul\":31331:31350   */\n      swap1\n      pop\n        /* \"#utility.yul\":30990:31356   */\n      swap2\n      swap1\n      pop\n      jump\t// out\n        /* \"#utility.yul\":31362:31781   */\n    tag_181:\n        /* \"#utility.yul\":31528:31532   */\n      0x00\n        /* \"#utility.yul\":31566:31568   */\n      0x20\n        /* \"#utility.yul\":31555:31564   */\n      dup3\n        /* \"#utility.yul\":31551:31569   */\n      add\n        /* \"#utility.yul\":31543:31569   */\n      swap1\n      pop\n        /* \"#utility.yul\":31615:31624   */\n      dup2\n        /* \"#utility.yul\":31609:31613   */\n      dup2\n        /* \"#utility.yul\":31605:31625   */\n      sub\n        /* \"#utility.yul\":31601:31602   */\n      0x00\n        /* \"#utility.yul\":31590:31599   */\n      dup4\n        /* \"#utility.yul\":31586:31603   */\n      add\n        /* \"#utility.yul\":31579:31626   */\n      mstore\n        /* \"#utility.yul\":31643:31774   */\n      tag_570\n        /* \"#utility.yul\":31769:31773   */\n      dup2\n        /* \"#utility.yul\":31643:31774   */\n      tag_285\n      jump\t// in\n    tag_570:\n        /* \"#utility.yul\":31635:31774   */\n      swap1\n      pop\n        /* \"#utility.yul\":31362:31781   */\n      swap2\n      swap1\n      pop\n      jump\t// out\n        /* \"#utility.yul\":31787:31907   */\n    tag_286:\n        /* \"#utility.yul\":31875:31876   */\n      0x03\n        /* \"#utility.yul\":31868:31873   */\n      dup2\n        /* \"#utility.yul\":31865:31877   */\n      lt\n        /* \"#utility.yul\":31855:31901   */\n      tag_572\n      jumpi\n        /* \"#utility.yul\":31881:31899   */\n      tag_573\n      tag_64\n      jump\t// in\n    tag_573:\n        /* \"#utility.yul\":31855:31901   */\n    tag_572:\n        /* \"#utility.yul\":31787:31907   */\n      pop\n      jump\t// out\n        /* \"#utility.yul\":31913:32054   */\n    tag_287:\n        /* \"#utility.yul\":31965:31972   */\n      0x00\n        /* \"#utility.yul\":31994:31999   */\n      dup2\n        /* \"#utility.yul\":31983:31999   */\n      swap1\n      pop\n        /* \"#utility.yul\":32000:32048   */\n      tag_575\n        /* \"#utility.yul\":32042:32047   */\n      dup3\n        /* \"#utility.yul\":32000:32048   */\n      tag_286\n      jump\t// in\n    tag_575:\n        /* \"#utility.yul\":31913:32054   */\n      swap2\n      swap1\n      pop\n      jump\t// out\n        /* \"#utility.yul\":32060:32201   */\n    tag_288:\n        /* \"#utility.yul\":32123:32132   */\n      0x00\n        /* \"#utility.yul\":32156:32195   */\n      tag_577\n        /* \"#utility.yul\":32189:32194   */\n      dup3\n        /* \"#utility.yul\":32156:32195   */\n      tag_287\n      jump\t// in\n    tag_577:\n        /* \"#utility.yul\":32143:32195   */\n      swap1\n      pop\n        /* \"#utility.yul\":32060:32201   */\n      swap2\n      swap1\n      pop\n      jump\t// out\n        /* \"#utility.yul\":32207:32364   */\n    tag_289:\n        /* \"#utility.yul\":32307:32357   */\n      tag_579\n        /* \"#utility.yul\":32351:32356   */\n      dup2\n        /* \"#utility.yul\":32307:32357   */\n      tag_288\n      jump\t// in\n    tag_579:\n        /* \"#utility.yul\":32302:32305   */\n      dup3\n        /* \"#utility.yul\":32295:32358   */\n      mstore\n        /* \"#utility.yul\":32207:32364   */\n      pop\n      pop\n      jump\t// out\n        /* \"#utility.yul\":32370:32534   */\n    tag_290:\n        /* \"#utility.yul\":32510:32526   */\n      0x566f74696e67206f6e676f696e67000000000000000000000000000000000000\n        /* \"#utility.yul\":32506:32507   */\n      0x00\n        /* \"#utility.yul\":32498:32504   */\n      dup3\n        /* \"#utility.yul\":32494:32508   */\n      add\n        /* \"#utility.yul\":32487:32527   */\n      mstore\n        /* \"#utility.yul\":32370:32534   */\n      pop\n      jump\t// out\n        /* \"#utility.yul\":32540:32906   */\n    tag_291:\n        /* \"#utility.yul\":32682:32685   */\n      0x00\n        /* \"#utility.yul\":32703:32770   */\n      tag_582\n        /* \"#utility.yul\":32767:32769   */\n      0x0e\n        /* \"#utility.yul\":32762:32765   */\n      dup4\n        /* \"#utility.yul\":32703:32770   */\n      tag_231\n      jump\t// in\n    tag_582:\n        /* \"#utility.yul\":32696:32770   */\n      swap2\n      pop\n        /* \"#utility.yul\":32779:32872   */\n      tag_583\n        /* \"#utility.yul\":32868:32871   */\n      dup3\n        /* \"#utility.yul\":32779:32872   */\n      tag_290\n      jump\t// in\n    tag_583:\n        /* \"#utility.yul\":32897:32899   */\n      0x20\n        /* \"#utility.yul\":32892:32895   */\n      dup3\n        /* \"#utility.yul\":32888:32900   */\n      add\n        /* \"#utility.yul\":32881:32900   */\n      swap1\n      pop\n        /* \"#utility.yul\":32540:32906   */\n      swap2\n      swap1\n      pop\n      jump\t// out\n        /* \"#utility.yul\":32912:33467   */\n    tag_188:\n        /* \"#utility.yul\":33119:33123   */\n      0x00\n        /* \"#utility.yul\":33157:33159   */\n      0x40\n        /* \"#utility.yul\":33146:33155   */\n      dup3\n        /* \"#utility.yul\":33142:33160   */\n      add\n        /* \"#utility.yul\":33134:33160   */\n      swap1\n      pop\n        /* \"#utility.yul\":33170:33254   */\n      tag_585\n        /* \"#utility.yul\":33251:33252   */\n      0x00\n        /* \"#utility.yul\":33240:33249   */\n      dup4\n        /* \"#utility.yul\":33236:33253   */\n      add\n        /* \"#utility.yul\":33227:33233   */\n      dup5\n        /* \"#utility.yul\":33170:33254   */\n      tag_289\n      jump\t// in\n    tag_585:\n        /* \"#utility.yul\":33301:33310   */\n      dup2\n        /* \"#utility.yul\":33295:33299   */\n      dup2\n        /* \"#utility.yul\":33291:33311   */\n      sub\n        /* \"#utility.yul\":33286:33288   */\n      0x20\n        /* \"#utility.yul\":33275:33284   */\n      dup4\n        /* \"#utility.yul\":33271:33289   */\n      add\n        /* \"#utility.yul\":33264:33312   */\n      mstore\n        /* \"#utility.yul\":33329:33460   */\n      tag_586\n        /* \"#utility.yul\":33455:33459   */\n      dup2\n        /* \"#utility.yul\":33329:33460   */\n      tag_291\n      jump\t// in\n    tag_586:\n        /* \"#utility.yul\":33321:33460   */\n      swap1\n      pop\n        /* \"#utility.yul\":32912:33467   */\n      swap3\n      swap2\n      pop\n      pop\n      jump\t// out\n        /* \"#utility.yul\":33473:33639   */\n    tag_292:\n        /* \"#utility.yul\":33613:33631   */\n      0x566f74696e6720636f6d706c6574656400000000000000000000000000000000\n        /* \"#utility.yul\":33609:33610   */\n      0x00\n        /* \"#utility.yul\":33601:33607   */\n      dup3\n        /* \"#utility.yul\":33597:33611   */\n      add\n        /* \"#utility.yul\":33590:33632   */\n      mstore\n        /* \"#utility.yul\":33473:33639   */\n      pop\n      jump\t// out\n        /* \"#utility.yul\":33645:34011   */\n    tag_293:\n        /* \"#utility.yul\":33787:33790   */\n      0x00\n        /* \"#utility.yul\":33808:33875   */\n      tag_589\n        /* \"#utility.yul\":33872:33874   */\n      0x10\n        /* \"#utility.yul\":33867:33870   */\n      dup4\n        /* \"#utility.yul\":33808:33875   */\n      tag_231\n      jump\t// in\n    tag_589:\n        /* \"#utility.yul\":33801:33875   */\n      swap2\n      pop\n        /* \"#utility.yul\":33884:33977   */\n      tag_590\n        /* \"#utility.yul\":33973:33976   */\n      dup3\n        /* \"#utility.yul\":33884:33977   */\n      tag_292\n      jump\t// in\n    tag_590:\n        /* \"#utility.yul\":34002:34004   */\n      0x20\n        /* \"#utility.yul\":33997:34000   */\n      dup3\n        /* \"#utility.yul\":33993:34005   */\n      add\n        /* \"#utility.yul\":33986:34005   */\n      swap1\n      pop\n        /* \"#utility.yul\":33645:34011   */\n      swap2\n      swap1\n      pop\n      jump\t// out\n        /* \"#utility.yul\":34017:34572   */\n    tag_196:\n        /* \"#utility.yul\":34224:34228   */\n      0x00\n        /* \"#utility.yul\":34262:34264   */\n      0x40\n        /* \"#utility.yul\":34251:34260   */\n      dup3\n        /* \"#utility.yul\":34247:34265   */\n      add\n        /* \"#utility.yul\":34239:34265   */\n      swap1\n      pop\n        /* \"#utility.yul\":34275:34359   */\n      tag_592\n        /* \"#utility.yul\":34356:34357   */\n      0x00\n        /* \"#utility.yul\":34345:34354   */\n      dup4\n        /* \"#utility.yul\":34341:34358   */\n      add\n        /* \"#utility.yul\":34332:34338   */\n      dup5\n        /* \"#utility.yul\":34275:34359   */\n      tag_289\n      jump\t// in\n    tag_592:\n        /* \"#utility.yul\":34406:34415   */\n      dup2\n        /* \"#utility.yul\":34400:34404   */\n      dup2\n        /* \"#utility.yul\":34396:34416   */\n      sub\n        /* \"#utility.yul\":34391:34393   */\n      0x20\n        /* \"#utility.yul\":34380:34389   */\n      dup4\n        /* \"#utility.yul\":34376:34394   */\n      add\n        /* \"#utility.yul\":34369:34417   */\n      mstore\n        /* \"#utility.yul\":34434:34565   */\n      tag_593\n        /* \"#utility.yul\":34560:34564   */\n      dup2\n        /* \"#utility.yul\":34434:34565   */\n      tag_293\n      jump\t// in\n    tag_593:\n        /* \"#utility.yul\":34426:34565   */\n      swap1\n      pop\n        /* \"#utility.yul\":34017:34572   */\n      swap3\n      swap2\n      pop\n      pop\n      jump\t// out\n\n    auxdata: 0xa264697066735822122049441be3b5fcc9b4f60159991502cff25679f802f4cc5600376da488c527696d64736f6c63430008160033\n}\n",
				"bytecode": {
					"linkReferences": {},
					"object": "60806040525f8060146101000a81548160ff0219169083600281111561002857610027610085565b5b02179055505f6001555f600255348015610040575f80fd5b50335f806101000a81548173ffffffffffffffffffffffffffffffffffffffff021916908373ffffffffffffffffffffffffffffffffffffffff1602179055506100b2565b7f4e487b71000000000000000000000000000000000000000000000000000000005f52602160045260245ffd5b61282780620000c05f395ff3fe608060405234801561000f575f80fd5b506004361061009c575f3560e01c806377df41b71161006457806377df41b714610130578063a48292ce1461014c578063d45529f41461017e578063e6a5e61d1461019c578063f83bfa28146101b85761009c565b80633cdd97bf146100a05780633d0af840146100bc5780634ad7b863146100d857806359f784681461010a578063723309a014610114575b5f80fd5b6100ba60048036038101906100b59190611819565b6101ea565b005b6100d660048036038101906100d19190611885565b61055e565b005b6100f260048036038101906100ed91906118f6565b610756565b604051610101939291906119aa565b60405180910390f35b61011261088c565b005b61012e600480360381019061012991906119e6565b6109f6565b005b61014a60048036038101906101459190611a6e565b610bf8565b005b610166600480360381019061016191906118f6565b610f8b565b60405161017593929190611aac565b60405180910390f35b61018661114c565b6040516101939190611afe565b60405180910390f35b6101b660048036038101906101b19190611b17565b61116f565b005b6101d260048036038101906101cd9190611b17565b611410565b6040516101e193929190611b5c565b60405180910390f35b5f8054906101000a900473ffffffffffffffffffffffffffffffffffffffff1673ffffffffffffffffffffffffffffffffffffffff163373ffffffffffffffffffffffffffffffffffffffff1614610240575f80fd5b5f8054906101000a900473ffffffffffffffffffffffffffffffffffffffff1673ffffffffffffffffffffffffffffffffffffffff168173ffffffffffffffffffffffffffffffffffffffff16146102cd576040517f08c379a00000000000000000000000000000000000000000000000000000000081526004016102c490611c08565b60405180910390fd5b5f60028111156102e0576102df611c26565b5b5f60149054906101000a900460ff16600281111561030157610300611c26565b5b14610341576040517f08c379a000000000000000000000000000000000000000000000000000000000815260040161033890611cc3565b60405180910390fd5b5f151560045f8573ffffffffffffffffffffffffffffffffffffffff1673ffffffffffffffffffffffffffffffffffffffff1681526020019081526020015f206005015f9054906101000a900460ff161515146103d3576040517f08c379a00000000000000000000000000000000000000000000000000000000081526004016103ca90611d2b565b60405180910390fd5b60025f8154809291906103e590611d76565b91905055505f60025490508060045f8673ffffffffffffffffffffffffffffffffffffffff1673ffffffffffffffffffffffffffffffffffffffff1681526020019081526020015f205f01819055508360045f8673ffffffffffffffffffffffffffffffffffffffff1673ffffffffffffffffffffffffffffffffffffffff1681526020019081526020015f206002015f6101000a81548173ffffffffffffffffffffffffffffffffffffffff021916908373ffffffffffffffffffffffffffffffffffffffff1602179055508260045f8673ffffffffffffffffffffffffffffffffffffffff1673ffffffffffffffffffffffffffffffffffffffff1681526020019081526020015f2060010190816104ff9190611fb7565b50600160045f8673ffffffffffffffffffffffffffffffffffffffff1673ffffffffffffffffffffffffffffffffffffffff1681526020019081526020015f206005015f6101000a81548160ff02191690831515021790555050505050565b6001600281111561057257610571611c26565b5b5f60149054906101000a900460ff16600281111561059357610592611c26565b5b146105d3576040517f08c379a00000000000000000000000000000000000000000000000000000000081526004016105ca906120f6565b60405180910390fd5b8073ffffffffffffffffffffffffffffffffffffffff163373ffffffffffffffffffffffffffffffffffffffff1614610641576040517f08c379a0000000000000000000000000000000000000000000000000000000008152600401610638906121aa565b60405180910390fd5b5f151560045f8373ffffffffffffffffffffffffffffffffffffffff1673ffffffffffffffffffffffffffffffffffffffff1681526020019081526020015f2060030160149054906101000a900460ff161515146106d4576040517f08c379a00000000000000000000000000000000000000000000000000000000081526004016106cb90612238565b60405180910390fd5b8160045f8373ffffffffffffffffffffffffffffffffffffffff1673ffffffffffffffffffffffffffffffffffffffff1681526020019081526020015f206003015f6101000a81548173ffffffffffffffffffffffffffffffffffffffff021916908373ffffffffffffffffffffffffffffffffffffffff1602179055505050565b5f60605f80600281111561076d5761076c611c26565b5b5f60149054906101000a900460ff16600281111561078e5761078d611c26565b5b036107ce576040517f08c379a00000000000000000000000000000000000000000000000000000000081526004016107c5906122a0565b60405180910390fd5b8360035f8681526020019081526020015f2060010160055f8781526020019081526020015f205481805461080190611dea565b80601f016020809104026020016040519081016040528092919081815260200182805461082d90611dea565b80156108785780601f1061084f57610100808354040283529160200191610878565b820191905f5260205f20905b81548152906001019060200180831161085b57829003601f168201915b505050505091509250925092509193909250565b5f8054906101000a900473ffffffffffffffffffffffffffffffffffffffff1673ffffffffffffffffffffffffffffffffffffffff163373ffffffffffffffffffffffffffffffffffffffff16146108e2575f80fd5b5f60028111156108f5576108f4611c26565b5b5f60149054906101000a900460ff16600281111561091657610915611c26565b5b03610956576040517f08c379a000000000000000000000000000000000000000000000000000000000815260040161094d90612308565b60405180910390fd5b60028081111561096957610968611c26565b5b5f60149054906101000a900460ff16600281111561098a57610989611c26565b5b036109ca576040517f08c379a00000000000000000000000000000000000000000000000000000000081526004016109c190612370565b60405180910390fd5b60025f60146101000a81548160ff021916908360028111156109ef576109ee611c26565b5b0217905550565b5f8054906101000a900473ffffffffffffffffffffffffffffffffffffffff1673ffffffffffffffffffffffffffffffffffffffff163373ffffffffffffffffffffffffffffffffffffffff1614610a4c575f80fd5b5f8054906101000a900473ffffffffffffffffffffffffffffffffffffffff1673ffffffffffffffffffffffffffffffffffffffff168173ffffffffffffffffffffffffffffffffffffffff1614610ad9576040517f08c379a0000000000000000000000000000000000000000000000000000000008152600401610ad090611c08565b60405180910390fd5b5f6002811115610aec57610aeb611c26565b5b5f60149054906101000a900460ff166002811115610b0d57610b0c611c26565b5b14610b4d576040517f08c379a0000000000000000000000000000000000000000000000000000000008152600401610b4490611cc3565b60405180910390fd5b60015f815480929190610b5f90611d76565b91905055505f60015490508060035f8381526020019081526020015f205f01819055508360035f8381526020019081526020015f206001019081610ba39190611fb7565b508260035f8381526020019081526020015f206002019081610bc59190611fb7565b50600160035f8381526020019081526020015f206003015f6101000a81548160ff02191690831515021790555050505050565b5f60015411610c3c576040517f08c379a0000000000000000000000000000000000000000000000000000000008152600401610c33906123d8565b60405180910390fd5b60035f8381526020019081526020015f206003015f9054906101000a900460ff16610c9c576040517f08c379a0000000000000000000000000000000000000000000000000000000008152600401610c9390612440565b60405180910390fd5b60045f8273ffffffffffffffffffffffffffffffffffffffff1673ffffffffffffffffffffffffffffffffffffffff1681526020019081526020015f206005015f9054906101000a900460ff16610d28576040517f08c379a0000000000000000000000000000000000000000000000000000000008152600401610d1f906124ce565b60405180910390fd5b60045f8273ffffffffffffffffffffffffffffffffffffffff1673ffffffffffffffffffffffffffffffffffffffff1681526020019081526020015f2060030160149054906101000a900460ff16610db5576040517f08c379a0000000000000000000000000000000000000000000000000000000008152600401610dac90612536565b60405180910390fd5b3373ffffffffffffffffffffffffffffffffffffffff1660045f8373ffffffffffffffffffffffffffffffffffffffff1673ffffffffffffffffffffffffffffffffffffffff1681526020019081526020015f206003015f9054906101000a900473ffffffffffffffffffffffffffffffffffffffff1673ffffffffffffffffffffffffffffffffffffffff1614610eb6578073ffffffffffffffffffffffffffffffffffffffff163373ffffffffffffffffffffffffffffffffffffffff1614610eb5576040517f08c379a0000000000000000000000000000000000000000000000000000000008152600401610eac9061259e565b60405180910390fd5b5b600160055f8481526020019081526020015f2054610ed491906125bc565b60055f8481526020019081526020015f20819055508160045f8373ffffffffffffffffffffffffffffffffffffffff1673ffffffffffffffffffffffffffffffffffffffff1681526020019081526020015f2060040181905550600160045f8373ffffffffffffffffffffffffffffffffffffffff1673ffffffffffffffffffffffffffffffffffffffff1681526020019081526020015f2060030160146101000a81548160ff0219169083151502179055505050565b5f60608060035f8581526020019081526020015f206003015f9054906101000a900460ff16610fef576040517f08c379a0000000000000000000000000000000000000000000000000000000008152600401610fe690612639565b60405180910390fd5b60035f8581526020019081526020015f205f015460035f8681526020019081526020015f2060020160035f8781526020019081526020015f2060010181805461103790611dea565b80601f016020809104026020016040519081016040528092919081815260200182805461106390611dea565b80156110ae5780601f10611085576101008083540402835291602001916110ae565b820191905f5260205f20905b81548152906001019060200180831161109157829003601f168201915b505050505091508080546110c190611dea565b80601f01602080910402602001604051908101604052809291908181526020018280546110ed90611dea565b80156111385780601f1061110f57610100808354040283529160200191611138565b820191905f5260205f20905b81548152906001019060200180831161111b57829003601f168201915b505050505090509250925092509193909250565b5f8054906101000a900473ffffffffffffffffffffffffffffffffffffffff1681565b5f8054906101000a900473ffffffffffffffffffffffffffffffffffffffff1673ffffffffffffffffffffffffffffffffffffffff163373ffffffffffffffffffffffffffffffffffffffff16146111c5575f80fd5b5f8054906101000a900473ffffffffffffffffffffffffffffffffffffffff1673ffffffffffffffffffffffffffffffffffffffff168173ffffffffffffffffffffffffffffffffffffffff1614611252576040517f08c379a000000000000000000000000000000000000000000000000000000000815260040161124990611c08565b60405180910390fd5b5f60015411611296576040517f08c379a000000000000000000000000000000000000000000000000000000000815260040161128d906123d8565b60405180910390fd5b5f600254116112da576040517f08c379a00000000000000000000000000000000000000000000000000000000081526004016112d1906126a1565b60405180910390fd5b600160028111156112ee576112ed611c26565b5b5f60149054906101000a900460ff16600281111561130f5761130e611c26565b5b0361135f575f60149054906101000a900460ff166040517fef90b1c1000000000000000000000000000000000000000000000000000000008152600401611356919061274f565b60405180910390fd5b60028081111561137257611371611c26565b5b5f60149054906101000a900460ff16600281111561139357611392611c26565b5b036113e3575f60149054906101000a900460ff166040517fef90b1c10000000000000000000000000000000000000000000000000000000081526004016113da91906127c5565b60405180910390fd5b60015f60146101000a81548160ff0219169083600281111561140857611407611c26565b5b021790555050565b5f60605f60045f8573ffffffffffffffffffffffffffffffffffffffff1673ffffffffffffffffffffffffffffffffffffffff1681526020019081526020015f206005015f9054906101000a900460ff166114a0576040517f08c379a0000000000000000000000000000000000000000000000000000000008152600401611497906124ce565b60405180910390fd5b60045f8573ffffffffffffffffffffffffffffffffffffffff1673ffffffffffffffffffffffffffffffffffffffff1681526020019081526020015f206002015f9054906101000a900473ffffffffffffffffffffffffffffffffffffffff1660045f8673ffffffffffffffffffffffffffffffffffffffff1673ffffffffffffffffffffffffffffffffffffffff1681526020019081526020015f206001018473ffffffffffffffffffffffffffffffffffffffff1660045f8873ffffffffffffffffffffffffffffffffffffffff1673ffffffffffffffffffffffffffffffffffffffff1681526020019081526020015f206003015f9054906101000a900473ffffffffffffffffffffffffffffffffffffffff1673ffffffffffffffffffffffffffffffffffffffff16146115d95760016115db565b5f5b8180546115e790611dea565b80601f016020809104026020016040519081016040528092919081815260200182805461161390611dea565b801561165e5780601f106116355761010080835404028352916020019161165e565b820191905f5260205f20905b81548152906001019060200180831161164157829003601f168201915b505050505091509250925092509193909250565b5f604051905090565b5f80fd5b5f80fd5b5f73ffffffffffffffffffffffffffffffffffffffff82169050919050565b5f6116ac82611683565b9050919050565b6116bc816116a2565b81146116c6575f80fd5b50565b5f813590506116d7816116b3565b92915050565b5f80fd5b5f80fd5b5f601f19601f8301169050919050565b7f4e487b71000000000000000000000000000000000000000000000000000000005f52604160045260245ffd5b61172b826116e5565b810181811067ffffffffffffffff8211171561174a576117496116f5565b5b80604052505050565b5f61175c611672565b90506117688282611722565b919050565b5f67ffffffffffffffff821115611787576117866116f5565b5b611790826116e5565b9050602081019050919050565b828183375f83830152505050565b5f6117bd6117b88461176d565b611753565b9050828152602081018484840111156117d9576117d86116e1565b5b6117e484828561179d565b509392505050565b5f82601f830112611800576117ff6116dd565b5b81356118108482602086016117ab565b91505092915050565b5f805f606084860312156118305761182f61167b565b5b5f61183d868287016116c9565b935050602084013567ffffffffffffffff81111561185e5761185d61167f565b5b61186a868287016117ec565b925050604061187b868287016116c9565b9150509250925092565b5f806040838503121561189b5761189a61167b565b5b5f6118a8858286016116c9565b92505060206118b9858286016116c9565b9150509250929050565b5f819050919050565b6118d5816118c3565b81146118df575f80fd5b50565b5f813590506118f0816118cc565b92915050565b5f6020828403121561190b5761190a61167b565b5b5f611918848285016118e2565b91505092915050565b61192a816118c3565b82525050565b5f81519050919050565b5f82825260208201905092915050565b5f5b8381101561196757808201518184015260208101905061194c565b5f8484015250505050565b5f61197c82611930565b611986818561193a565b935061199681856020860161194a565b61199f816116e5565b840191505092915050565b5f6060820190506119bd5f830186611921565b81810360208301526119cf8185611972565b90506119de6040830184611921565b949350505050565b5f805f606084860312156119fd576119fc61167b565b5b5f84013567ffffffffffffffff811115611a1a57611a1961167f565b5b611a26868287016117ec565b935050602084013567ffffffffffffffff811115611a4757611a4661167f565b5b611a53868287016117ec565b9250506040611a64868287016116c9565b9150509250925092565b5f8060408385031215611a8457611a8361167b565b5b5f611a91858286016118e2565b9250506020611aa2858286016116c9565b9150509250929050565b5f606082019050611abf5f830186611921565b8181036020830152611ad18185611972565b90508181036040830152611ae58184611972565b9050949350505050565b611af8816116a2565b82525050565b5f602082019050611b115f830184611aef565b92915050565b5f60208284031215611b2c57611b2b61167b565b5b5f611b39848285016116c9565b91505092915050565b5f8115159050919050565b611b5681611b42565b82525050565b5f606082019050611b6f5f830186611aef565b8181036020830152611b818185611972565b9050611b906040830184611b4d565b949350505050565b7f4f6e6c792061646d696e206861732061636365737320746f20646f20746869735f8201527f2e00000000000000000000000000000000000000000000000000000000000000602082015250565b5f611bf260218361193a565b9150611bfd82611b98565b604082019050919050565b5f6020820190508181035f830152611c1f81611be6565b9050919050565b7f4e487b71000000000000000000000000000000000000000000000000000000005f52602160045260245ffd5b7f566f74696e6720616c72656164792073746172746564206f7220636f6d706c655f8201527f7465640000000000000000000000000000000000000000000000000000000000602082015250565b5f611cad60238361193a565b9150611cb882611c53565b604082019050919050565b5f6020820190508181035f830152611cda81611ca1565b9050919050565b7f766f74657220616c72656164792061646465642e0000000000000000000000005f82015250565b5f611d1560148361193a565b9150611d2082611ce1565b602082019050919050565b5f6020820190508181035f830152611d4281611d09565b9050919050565b7f4e487b71000000000000000000000000000000000000000000000000000000005f52601160045260245ffd5b5f611d80826118c3565b91507fffffffffffffffffffffffffffffffffffffffffffffffffffffffffffffffff8203611db257611db1611d49565b5b600182019050919050565b7f4e487b71000000000000000000000000000000000000000000000000000000005f52602260045260245ffd5b5f6002820490506001821680611e0157607f821691505b602082108103611e1457611e13611dbd565b5b50919050565b5f819050815f5260205f209050919050565b5f6020601f8301049050919050565b5f82821b905092915050565b5f60088302611e767fffffffffffffffffffffffffffffffffffffffffffffffffffffffffffffffff82611e3b565b611e808683611e3b565b95508019841693508086168417925050509392505050565b5f819050919050565b5f611ebb611eb6611eb1846118c3565b611e98565b6118c3565b9050919050565b5f819050919050565b611ed483611ea1565b611ee8611ee082611ec2565b848454611e47565b825550505050565b5f90565b611efc611ef0565b611f07818484611ecb565b505050565b5b81811015611f2a57611f1f5f82611ef4565b600181019050611f0d565b5050565b601f821115611f6f57611f4081611e1a565b611f4984611e2c565b81016020851015611f58578190505b611f6c611f6485611e2c565b830182611f0c565b50505b505050565b5f82821c905092915050565b5f611f8f5f1984600802611f74565b1980831691505092915050565b5f611fa78383611f80565b9150826002028217905092915050565b611fc082611930565b67ffffffffffffffff811115611fd957611fd86116f5565b5b611fe38254611dea565b611fee828285611f2e565b5f60209050601f83116001811461201f575f841561200d578287015190505b6120178582611f9c565b86555061207e565b601f19841661202d86611e1a565b5f5b828110156120545784890151825560018201915060208501945060208101905061202f565b86831015612071578489015161206d601f891682611f80565b8355505b6001600288020188555050505b505050505050565b7f566f74696e67206e6f7420696e2070726f67726573732e20596f752063616e205f8201527f6e6f742064656c65746567617465206e6f772e00000000000000000000000000602082015250565b5f6120e060338361193a565b91506120eb82612086565b604082019050919050565b5f6020820190508181035f83015261210d816120d4565b9050919050565b7f4f6e6c792061646472657373206f776e65722063616e2064656c6567617465205f8201527f766f74696e672072696768747320746f20616e6f74686572206164647265737360208201527f2e00000000000000000000000000000000000000000000000000000000000000604082015250565b5f61219460418361193a565b915061219f82612114565b606082019050919050565b5f6020820190508181035f8301526121c181612188565b9050919050565b7f596f752063616e206e6f742064656c656761746520766f74696e6720726967685f8201527f74732e20596f75206861766520616c726561647920766f7465642e0000000000602082015250565b5f612222603b8361193a565b915061222d826121c8565b604082019050919050565b5f6020820190508181035f83015261224f81612216565b9050919050565b7f566f74696e67206e6f74207374617274656400000000000000000000000000005f82015250565b5f61228a60128361193a565b915061229582612256565b602082019050919050565b5f6020820190508181035f8301526122b78161227e565b9050919050565b7f766f74696e67206e6f74207374617274656400000000000000000000000000005f82015250565b5f6122f260128361193a565b91506122fd826122be565b602082019050919050565b5f6020820190508181035f83015261231f816122e6565b9050919050565b7f766f74696e6720656e64656400000000000000000000000000000000000000005f82015250565b5f61235a600c8361193a565b915061236582612326565b602082019050919050565b5f6020820190508181035f8301526123878161234e565b9050919050565b7f302063616e6469646174657320726567697374657265640000000000000000005f82015250565b5f6123c260178361193a565b91506123cd8261238e565b602082019050919050565b5f6020820190508181035f8301526123ef816123b6565b9050919050565b7f63616e646964617465207769746820696420646f6573206e6f742065786973745f82015250565b5f61242a60208361193a565b9150612435826123f6565b602082019050919050565b5f6020820190508181035f8301526124578161241e565b9050919050565b7f766f7465722077697468206164647265737320646f6573206e6f7420657869735f8201527f7400000000000000000000000000000000000000000000000000000000000000602082015250565b5f6124b860218361193a565b91506124c38261245e565b604082019050919050565b5f6020820190508181035f8301526124e5816124ac565b9050919050565b7f566f746520616c726561647920706c61636564000000000000000000000000005f82015250565b5f61252060138361193a565b915061252b826124ec565b602082019050919050565b5f6020820190508181035f83015261254d81612514565b9050919050565b7f796f752063616e206e6f7420766f7465000000000000000000000000000000005f82015250565b5f61258860108361193a565b915061259382612554565b602082019050919050565b5f6020820190508181035f8301526125b58161257c565b9050919050565b5f6125c6826118c3565b91506125d1836118c3565b92508282019050808211156125e9576125e8611d49565b5b92915050565b7f43616e646964617465207769746820696420646f6573206e6f742065786973745f82015250565b5f61262360208361193a565b915061262e826125ef565b602082019050919050565b5f6020820190508181035f83015261265081612617565b9050919050565b7f3020766f746572732072656769737465726564000000000000000000000000005f82015250565b5f61268b60138361193a565b915061269682612657565b602082019050919050565b5f6020820190508181035f8301526126b88161267f565b9050919050565b600381106126d0576126cf611c26565b5b50565b5f8190506126e0826126bf565b919050565b5f6126ef826126d3565b9050919050565b6126ff816126e5565b82525050565b7f566f74696e67206f6e676f696e670000000000000000000000000000000000005f82015250565b5f612739600e8361193a565b915061274482612705565b602082019050919050565b5f6040820190506127625f8301846126f6565b81810360208301526127738161272d565b905092915050565b7f566f74696e6720636f6d706c65746564000000000000000000000000000000005f82015250565b5f6127af60108361193a565b91506127ba8261277b565b602082019050919050565b5f6040820190506127d85f8301846126f6565b81810360208301526127e9816127a3565b90509291505056fea264697066735822122049441be3b5fcc9b4f60159991502cff25679f802f4cc5600376da488c527696d64736f6c63430008160033",
					"opcodes": "PUSH1 0x80 PUSH1 0x40 MSTORE PUSH0 DUP1 PUSH1 0x14 PUSH2 0x100 EXP DUP2 SLOAD DUP2 PUSH1 0xFF MUL NOT AND SWAP1 DUP4 PUSH1 0x2 DUP2 GT ISZERO PUSH2 0x28 JUMPI PUSH2 0x27 PUSH2 0x85 JUMP JUMPDEST JUMPDEST MUL OR SWAP1 SSTORE POP PUSH0 PUSH1 0x1 SSTORE PUSH0 PUSH1 0x2 SSTORE CALLVALUE DUP1 ISZERO PUSH2 0x40 JUMPI PUSH0 DUP1 REVERT JUMPDEST POP CALLER PUSH0 DUP1 PUSH2 0x100 EXP DUP2 SLOAD DUP2 PUSH20 0xFFFFFFFFFFFFFFFFFFFFFFFFFFFFFFFFFFFFFFFF MUL NOT AND SWAP1 DUP4 PUSH20 0xFFFFFFFFFFFFFFFFFFFFFFFFFFFFFFFFFFFFFFFF AND MUL OR SWAP1 SSTORE POP PUSH2 0xB2 JUMP JUMPDEST PUSH32 0x4E487B7100000000000000000000000000000000000000000000000000000000 PUSH0 MSTORE PUSH1 0x21 PUSH1 0x4 MSTORE PUSH1 0x24 PUSH0 REVERT JUMPDEST PUSH2 0x2827 DUP1 PUSH3 0xC0 PUSH0 CODECOPY PUSH0 RETURN INVALID PUSH1 0x80 PUSH1 0x40 MSTORE CALLVALUE DUP1 ISZERO PUSH2 0xF JUMPI PUSH0 DUP1 REVERT JUMPDEST POP PUSH1 0x4 CALLDATASIZE LT PUSH2 0x9C JUMPI PUSH0 CALLDATALOAD PUSH1 0xE0 SHR DUP1 PUSH4 0x77DF41B7 GT PUSH2 0x64 JUMPI DUP1 PUSH4 0x77DF41B7 EQ PUSH2 0x130 JUMPI DUP1 PUSH4 0xA48292CE EQ PUSH2 0x14C JUMPI DUP1 PUSH4 0xD45529F4 EQ PUSH2 0x17E JUMPI DUP1 PUSH4 0xE6A5E61D EQ PUSH2 0x19C JUMPI DUP1 PUSH4 0xF83BFA28 EQ PUSH2 0x1B8 JUMPI PUSH2 0x9C JUMP JUMPDEST DUP1 PUSH4 0x3CDD97BF EQ PUSH2 0xA0 JUMPI DUP1 PUSH4 0x3D0AF840 EQ PUSH2 0xBC JUMPI DUP1 PUSH4 0x4AD7B863 EQ PUSH2 0xD8 JUMPI DUP1 PUSH4 0x59F78468 EQ PUSH2 0x10A JUMPI DUP1 PUSH4 0x723309A0 EQ PUSH2 0x114 JUMPI JUMPDEST PUSH0 DUP1 REVERT JUMPDEST PUSH2 0xBA PUSH1 0x4 DUP1 CALLDATASIZE SUB DUP2 ADD SWAP1 PUSH2 0xB5 SWAP2 SWAP1 PUSH2 0x1819 JUMP JUMPDEST PUSH2 0x1EA JUMP JUMPDEST STOP JUMPDEST PUSH2 0xD6 PUSH1 0x4 DUP1 CALLDATASIZE SUB DUP2 ADD SWAP1 PUSH2 0xD1 SWAP2 SWAP1 PUSH2 0x1885 JUMP JUMPDEST PUSH2 0x55E JUMP JUMPDEST STOP JUMPDEST PUSH2 0xF2 PUSH1 0x4 DUP1 CALLDATASIZE SUB DUP2 ADD SWAP1 PUSH2 0xED SWAP2 SWAP1 PUSH2 0x18F6 JUMP JUMPDEST PUSH2 0x756 JUMP JUMPDEST PUSH1 0x40 MLOAD PUSH2 0x101 SWAP4 SWAP3 SWAP2 SWAP1 PUSH2 0x19AA JUMP JUMPDEST PUSH1 0x40 MLOAD DUP1 SWAP2 SUB SWAP1 RETURN JUMPDEST PUSH2 0x112 PUSH2 0x88C JUMP JUMPDEST STOP JUMPDEST PUSH2 0x12E PUSH1 0x4 DUP1 CALLDATASIZE SUB DUP2 ADD SWAP1 PUSH2 0x129 SWAP2 SWAP1 PUSH2 0x19E6 JUMP JUMPDEST PUSH2 0x9F6 JUMP JUMPDEST STOP JUMPDEST PUSH2 0x14A PUSH1 0x4 DUP1 CALLDATASIZE SUB DUP2 ADD SWAP1 PUSH2 0x145 SWAP2 SWAP1 PUSH2 0x1A6E JUMP JUMPDEST PUSH2 0xBF8 JUMP JUMPDEST STOP JUMPDEST PUSH2 0x166 PUSH1 0x4 DUP1 CALLDATASIZE SUB DUP2 ADD SWAP1 PUSH2 0x161 SWAP2 SWAP1 PUSH2 0x18F6 JUMP JUMPDEST PUSH2 0xF8B JUMP JUMPDEST PUSH1 0x40 MLOAD PUSH2 0x175 SWAP4 SWAP3 SWAP2 SWAP1 PUSH2 0x1AAC JUMP JUMPDEST PUSH1 0x40 MLOAD DUP1 SWAP2 SUB SWAP1 RETURN JUMPDEST PUSH2 0x186 PUSH2 0x114C JUMP JUMPDEST PUSH1 0x40 MLOAD PUSH2 0x193 SWAP2 SWAP1 PUSH2 0x1AFE JUMP JUMPDEST PUSH1 0x40 MLOAD DUP1 SWAP2 SUB SWAP1 RETURN JUMPDEST PUSH2 0x1B6 PUSH1 0x4 DUP1 CALLDATASIZE SUB DUP2 ADD SWAP1 PUSH2 0x1B1 SWAP2 SWAP1 PUSH2 0x1B17 JUMP JUMPDEST PUSH2 0x116F JUMP JUMPDEST STOP JUMPDEST PUSH2 0x1D2 PUSH1 0x4 DUP1 CALLDATASIZE SUB DUP2 ADD SWAP1 PUSH2 0x1CD SWAP2 SWAP1 PUSH2 0x1B17 JUMP JUMPDEST PUSH2 0x1410 JUMP JUMPDEST PUSH1 0x40 MLOAD PUSH2 0x1E1 SWAP4 SWAP3 SWAP2 SWAP1 PUSH2 0x1B5C JUMP JUMPDEST PUSH1 0x40 MLOAD DUP1 SWAP2 SUB SWAP1 RETURN JUMPDEST PUSH0 DUP1 SLOAD SWAP1 PUSH2 0x100 EXP SWAP1 DIV PUSH20 0xFFFFFFFFFFFFFFFFFFFFFFFFFFFFFFFFFFFFFFFF AND PUSH20 0xFFFFFFFFFFFFFFFFFFFFFFFFFFFFFFFFFFFFFFFF AND CALLER PUSH20 0xFFFFFFFFFFFFFFFFFFFFFFFFFFFFFFFFFFFFFFFF AND EQ PUSH2 0x240 JUMPI PUSH0 DUP1 REVERT JUMPDEST PUSH0 DUP1 SLOAD SWAP1 PUSH2 0x100 EXP SWAP1 DIV PUSH20 0xFFFFFFFFFFFFFFFFFFFFFFFFFFFFFFFFFFFFFFFF AND PUSH20 0xFFFFFFFFFFFFFFFFFFFFFFFFFFFFFFFFFFFFFFFF AND DUP2 PUSH20 0xFFFFFFFFFFFFFFFFFFFFFFFFFFFFFFFFFFFFFFFF AND EQ PUSH2 0x2CD JUMPI PUSH1 0x40 MLOAD PUSH32 0x8C379A000000000000000000000000000000000000000000000000000000000 DUP2 MSTORE PUSH1 0x4 ADD PUSH2 0x2C4 SWAP1 PUSH2 0x1C08 JUMP JUMPDEST PUSH1 0x40 MLOAD DUP1 SWAP2 SUB SWAP1 REVERT JUMPDEST PUSH0 PUSH1 0x2 DUP2 GT ISZERO PUSH2 0x2E0 JUMPI PUSH2 0x2DF PUSH2 0x1C26 JUMP JUMPDEST JUMPDEST PUSH0 PUSH1 0x14 SWAP1 SLOAD SWAP1 PUSH2 0x100 EXP SWAP1 DIV PUSH1 0xFF AND PUSH1 0x2 DUP2 GT ISZERO PUSH2 0x301 JUMPI PUSH2 0x300 PUSH2 0x1C26 JUMP JUMPDEST JUMPDEST EQ PUSH2 0x341 JUMPI PUSH1 0x40 MLOAD PUSH32 0x8C379A000000000000000000000000000000000000000000000000000000000 DUP2 MSTORE PUSH1 0x4 ADD PUSH2 0x338 SWAP1 PUSH2 0x1CC3 JUMP JUMPDEST PUSH1 0x40 MLOAD DUP1 SWAP2 SUB SWAP1 REVERT JUMPDEST PUSH0 ISZERO ISZERO PUSH1 0x4 PUSH0 DUP6 PUSH20 0xFFFFFFFFFFFFFFFFFFFFFFFFFFFFFFFFFFFFFFFF AND PUSH20 0xFFFFFFFFFFFFFFFFFFFFFFFFFFFFFFFFFFFFFFFF AND DUP2 MSTORE PUSH1 0x20 ADD SWAP1 DUP2 MSTORE PUSH1 0x20 ADD PUSH0 KECCAK256 PUSH1 0x5 ADD PUSH0 SWAP1 SLOAD SWAP1 PUSH2 0x100 EXP SWAP1 DIV PUSH1 0xFF AND ISZERO ISZERO EQ PUSH2 0x3D3 JUMPI PUSH1 0x40 MLOAD PUSH32 0x8C379A000000000000000000000000000000000000000000000000000000000 DUP2 MSTORE PUSH1 0x4 ADD PUSH2 0x3CA SWAP1 PUSH2 0x1D2B JUMP JUMPDEST PUSH1 0x40 MLOAD DUP1 SWAP2 SUB SWAP1 REVERT JUMPDEST PUSH1 0x2 PUSH0 DUP2 SLOAD DUP1 SWAP3 SWAP2 SWAP1 PUSH2 0x3E5 SWAP1 PUSH2 0x1D76 JUMP JUMPDEST SWAP2 SWAP1 POP SSTORE POP PUSH0 PUSH1 0x2 SLOAD SWAP1 POP DUP1 PUSH1 0x4 PUSH0 DUP7 PUSH20 0xFFFFFFFFFFFFFFFFFFFFFFFFFFFFFFFFFFFFFFFF AND PUSH20 0xFFFFFFFFFFFFFFFFFFFFFFFFFFFFFFFFFFFFFFFF AND DUP2 MSTORE PUSH1 0x20 ADD SWAP1 DUP2 MSTORE PUSH1 0x20 ADD PUSH0 KECCAK256 PUSH0 ADD DUP2 SWAP1 SSTORE POP DUP4 PUSH1 0x4 PUSH0 DUP7 PUSH20 0xFFFFFFFFFFFFFFFFFFFFFFFFFFFFFFFFFFFFFFFF AND PUSH20 0xFFFFFFFFFFFFFFFFFFFFFFFFFFFFFFFFFFFFFFFF AND DUP2 MSTORE PUSH1 0x20 ADD SWAP1 DUP2 MSTORE PUSH1 0x20 ADD PUSH0 KECCAK256 PUSH1 0x2 ADD PUSH0 PUSH2 0x100 EXP DUP2 SLOAD DUP2 PUSH20 0xFFFFFFFFFFFFFFFFFFFFFFFFFFFFFFFFFFFFFFFF MUL NOT AND SWAP1 DUP4 PUSH20 0xFFFFFFFFFFFFFFFFFFFFFFFFFFFFFFFFFFFFFFFF AND MUL OR SWAP1 SSTORE POP DUP3 PUSH1 0x4 PUSH0 DUP7 PUSH20 0xFFFFFFFFFFFFFFFFFFFFFFFFFFFFFFFFFFFFFFFF AND PUSH20 0xFFFFFFFFFFFFFFFFFFFFFFFFFFFFFFFFFFFFFFFF AND DUP2 MSTORE PUSH1 0x20 ADD SWAP1 DUP2 MSTORE PUSH1 0x20 ADD PUSH0 KECCAK256 PUSH1 0x1 ADD SWAP1 DUP2 PUSH2 0x4FF SWAP2 SWAP1 PUSH2 0x1FB7 JUMP JUMPDEST POP PUSH1 0x1 PUSH1 0x4 PUSH0 DUP7 PUSH20 0xFFFFFFFFFFFFFFFFFFFFFFFFFFFFFFFFFFFFFFFF AND PUSH20 0xFFFFFFFFFFFFFFFFFFFFFFFFFFFFFFFFFFFFFFFF AND DUP2 MSTORE PUSH1 0x20 ADD SWAP1 DUP2 MSTORE PUSH1 0x20 ADD PUSH0 KECCAK256 PUSH1 0x5 ADD PUSH0 PUSH2 0x100 EXP DUP2 SLOAD DUP2 PUSH1 0xFF MUL NOT AND SWAP1 DUP4 ISZERO ISZERO MUL OR SWAP1 SSTORE POP POP POP POP POP JUMP JUMPDEST PUSH1 0x1 PUSH1 0x2 DUP2 GT ISZERO PUSH2 0x572 JUMPI PUSH2 0x571 PUSH2 0x1C26 JUMP JUMPDEST JUMPDEST PUSH0 PUSH1 0x14 SWAP1 SLOAD SWAP1 PUSH2 0x100 EXP SWAP1 DIV PUSH1 0xFF AND PUSH1 0x2 DUP2 GT ISZERO PUSH2 0x593 JUMPI PUSH2 0x592 PUSH2 0x1C26 JUMP JUMPDEST JUMPDEST EQ PUSH2 0x5D3 JUMPI PUSH1 0x40 MLOAD PUSH32 0x8C379A000000000000000000000000000000000000000000000000000000000 DUP2 MSTORE PUSH1 0x4 ADD PUSH2 0x5CA SWAP1 PUSH2 0x20F6 JUMP JUMPDEST PUSH1 0x40 MLOAD DUP1 SWAP2 SUB SWAP1 REVERT JUMPDEST DUP1 PUSH20 0xFFFFFFFFFFFFFFFFFFFFFFFFFFFFFFFFFFFFFFFF AND CALLER PUSH20 0xFFFFFFFFFFFFFFFFFFFFFFFFFFFFFFFFFFFFFFFF AND EQ PUSH2 0x641 JUMPI PUSH1 0x40 MLOAD PUSH32 0x8C379A000000000000000000000000000000000000000000000000000000000 DUP2 MSTORE PUSH1 0x4 ADD PUSH2 0x638 SWAP1 PUSH2 0x21AA JUMP JUMPDEST PUSH1 0x40 MLOAD DUP1 SWAP2 SUB SWAP1 REVERT JUMPDEST PUSH0 ISZERO ISZERO PUSH1 0x4 PUSH0 DUP4 PUSH20 0xFFFFFFFFFFFFFFFFFFFFFFFFFFFFFFFFFFFFFFFF AND PUSH20 0xFFFFFFFFFFFFFFFFFFFFFFFFFFFFFFFFFFFFFFFF AND DUP2 MSTORE PUSH1 0x20 ADD SWAP1 DUP2 MSTORE PUSH1 0x20 ADD PUSH0 KECCAK256 PUSH1 0x3 ADD PUSH1 0x14 SWAP1 SLOAD SWAP1 PUSH2 0x100 EXP SWAP1 DIV PUSH1 0xFF AND ISZERO ISZERO EQ PUSH2 0x6D4 JUMPI PUSH1 0x40 MLOAD PUSH32 0x8C379A000000000000000000000000000000000000000000000000000000000 DUP2 MSTORE PUSH1 0x4 ADD PUSH2 0x6CB SWAP1 PUSH2 0x2238 JUMP JUMPDEST PUSH1 0x40 MLOAD DUP1 SWAP2 SUB SWAP1 REVERT JUMPDEST DUP2 PUSH1 0x4 PUSH0 DUP4 PUSH20 0xFFFFFFFFFFFFFFFFFFFFFFFFFFFFFFFFFFFFFFFF AND PUSH20 0xFFFFFFFFFFFFFFFFFFFFFFFFFFFFFFFFFFFFFFFF AND DUP2 MSTORE PUSH1 0x20 ADD SWAP1 DUP2 MSTORE PUSH1 0x20 ADD PUSH0 KECCAK256 PUSH1 0x3 ADD PUSH0 PUSH2 0x100 EXP DUP2 SLOAD DUP2 PUSH20 0xFFFFFFFFFFFFFFFFFFFFFFFFFFFFFFFFFFFFFFFF MUL NOT AND SWAP1 DUP4 PUSH20 0xFFFFFFFFFFFFFFFFFFFFFFFFFFFFFFFFFFFFFFFF AND MUL OR SWAP1 SSTORE POP POP POP JUMP JUMPDEST PUSH0 PUSH1 0x60 PUSH0 DUP1 PUSH1 0x2 DUP2 GT ISZERO PUSH2 0x76D JUMPI PUSH2 0x76C PUSH2 0x1C26 JUMP JUMPDEST JUMPDEST PUSH0 PUSH1 0x14 SWAP1 SLOAD SWAP1 PUSH2 0x100 EXP SWAP1 DIV PUSH1 0xFF AND PUSH1 0x2 DUP2 GT ISZERO PUSH2 0x78E JUMPI PUSH2 0x78D PUSH2 0x1C26 JUMP JUMPDEST JUMPDEST SUB PUSH2 0x7CE JUMPI PUSH1 0x40 MLOAD PUSH32 0x8C379A000000000000000000000000000000000000000000000000000000000 DUP2 MSTORE PUSH1 0x4 ADD PUSH2 0x7C5 SWAP1 PUSH2 0x22A0 JUMP JUMPDEST PUSH1 0x40 MLOAD DUP1 SWAP2 SUB SWAP1 REVERT JUMPDEST DUP4 PUSH1 0x3 PUSH0 DUP7 DUP2 MSTORE PUSH1 0x20 ADD SWAP1 DUP2 MSTORE PUSH1 0x20 ADD PUSH0 KECCAK256 PUSH1 0x1 ADD PUSH1 0x5 PUSH0 DUP8 DUP2 MSTORE PUSH1 0x20 ADD SWAP1 DUP2 MSTORE PUSH1 0x20 ADD PUSH0 KECCAK256 SLOAD DUP2 DUP1 SLOAD PUSH2 0x801 SWAP1 PUSH2 0x1DEA JUMP JUMPDEST DUP1 PUSH1 0x1F ADD PUSH1 0x20 DUP1 SWAP2 DIV MUL PUSH1 0x20 ADD PUSH1 0x40 MLOAD SWAP1 DUP2 ADD PUSH1 0x40 MSTORE DUP1 SWAP3 SWAP2 SWAP1 DUP2 DUP2 MSTORE PUSH1 0x20 ADD DUP3 DUP1 SLOAD PUSH2 0x82D SWAP1 PUSH2 0x1DEA JUMP JUMPDEST DUP1 ISZERO PUSH2 0x878 JUMPI DUP1 PUSH1 0x1F LT PUSH2 0x84F JUMPI PUSH2 0x100 DUP1 DUP4 SLOAD DIV MUL DUP4 MSTORE SWAP2 PUSH1 0x20 ADD SWAP2 PUSH2 0x878 JUMP JUMPDEST DUP3 ADD SWAP2 SWAP1 PUSH0 MSTORE PUSH1 0x20 PUSH0 KECCAK256 SWAP1 JUMPDEST DUP2 SLOAD DUP2 MSTORE SWAP1 PUSH1 0x1 ADD SWAP1 PUSH1 0x20 ADD DUP1 DUP4 GT PUSH2 0x85B JUMPI DUP3 SWAP1 SUB PUSH1 0x1F AND DUP3 ADD SWAP2 JUMPDEST POP POP POP POP POP SWAP2 POP SWAP3 POP SWAP3 POP SWAP3 POP SWAP2 SWAP4 SWAP1 SWAP3 POP JUMP JUMPDEST PUSH0 DUP1 SLOAD SWAP1 PUSH2 0x100 EXP SWAP1 DIV PUSH20 0xFFFFFFFFFFFFFFFFFFFFFFFFFFFFFFFFFFFFFFFF AND PUSH20 0xFFFFFFFFFFFFFFFFFFFFFFFFFFFFFFFFFFFFFFFF AND CALLER PUSH20 0xFFFFFFFFFFFFFFFFFFFFFFFFFFFFFFFFFFFFFFFF AND EQ PUSH2 0x8E2 JUMPI PUSH0 DUP1 REVERT JUMPDEST PUSH0 PUSH1 0x2 DUP2 GT ISZERO PUSH2 0x8F5 JUMPI PUSH2 0x8F4 PUSH2 0x1C26 JUMP JUMPDEST JUMPDEST PUSH0 PUSH1 0x14 SWAP1 SLOAD SWAP1 PUSH2 0x100 EXP SWAP1 DIV PUSH1 0xFF AND PUSH1 0x2 DUP2 GT ISZERO PUSH2 0x916 JUMPI PUSH2 0x915 PUSH2 0x1C26 JUMP JUMPDEST JUMPDEST SUB PUSH2 0x956 JUMPI PUSH1 0x40 MLOAD PUSH32 0x8C379A000000000000000000000000000000000000000000000000000000000 DUP2 MSTORE PUSH1 0x4 ADD PUSH2 0x94D SWAP1 PUSH2 0x2308 JUMP JUMPDEST PUSH1 0x40 MLOAD DUP1 SWAP2 SUB SWAP1 REVERT JUMPDEST PUSH1 0x2 DUP1 DUP2 GT ISZERO PUSH2 0x969 JUMPI PUSH2 0x968 PUSH2 0x1C26 JUMP JUMPDEST JUMPDEST PUSH0 PUSH1 0x14 SWAP1 SLOAD SWAP1 PUSH2 0x100 EXP SWAP1 DIV PUSH1 0xFF AND PUSH1 0x2 DUP2 GT ISZERO PUSH2 0x98A JUMPI PUSH2 0x989 PUSH2 0x1C26 JUMP JUMPDEST JUMPDEST SUB PUSH2 0x9CA JUMPI PUSH1 0x40 MLOAD PUSH32 0x8C379A000000000000000000000000000000000000000000000000000000000 DUP2 MSTORE PUSH1 0x4 ADD PUSH2 0x9C1 SWAP1 PUSH2 0x2370 JUMP JUMPDEST PUSH1 0x40 MLOAD DUP1 SWAP2 SUB SWAP1 REVERT JUMPDEST PUSH1 0x2 PUSH0 PUSH1 0x14 PUSH2 0x100 EXP DUP2 SLOAD DUP2 PUSH1 0xFF MUL NOT AND SWAP1 DUP4 PUSH1 0x2 DUP2 GT ISZERO PUSH2 0x9EF JUMPI PUSH2 0x9EE PUSH2 0x1C26 JUMP JUMPDEST JUMPDEST MUL OR SWAP1 SSTORE POP JUMP JUMPDEST PUSH0 DUP1 SLOAD SWAP1 PUSH2 0x100 EXP SWAP1 DIV PUSH20 0xFFFFFFFFFFFFFFFFFFFFFFFFFFFFFFFFFFFFFFFF AND PUSH20 0xFFFFFFFFFFFFFFFFFFFFFFFFFFFFFFFFFFFFFFFF AND CALLER PUSH20 0xFFFFFFFFFFFFFFFFFFFFFFFFFFFFFFFFFFFFFFFF AND EQ PUSH2 0xA4C JUMPI PUSH0 DUP1 REVERT JUMPDEST PUSH0 DUP1 SLOAD SWAP1 PUSH2 0x100 EXP SWAP1 DIV PUSH20 0xFFFFFFFFFFFFFFFFFFFFFFFFFFFFFFFFFFFFFFFF AND PUSH20 0xFFFFFFFFFFFFFFFFFFFFFFFFFFFFFFFFFFFFFFFF AND DUP2 PUSH20 0xFFFFFFFFFFFFFFFFFFFFFFFFFFFFFFFFFFFFFFFF AND EQ PUSH2 0xAD9 JUMPI PUSH1 0x40 MLOAD PUSH32 0x8C379A000000000000000000000000000000000000000000000000000000000 DUP2 MSTORE PUSH1 0x4 ADD PUSH2 0xAD0 SWAP1 PUSH2 0x1C08 JUMP JUMPDEST PUSH1 0x40 MLOAD DUP1 SWAP2 SUB SWAP1 REVERT JUMPDEST PUSH0 PUSH1 0x2 DUP2 GT ISZERO PUSH2 0xAEC JUMPI PUSH2 0xAEB PUSH2 0x1C26 JUMP JUMPDEST JUMPDEST PUSH0 PUSH1 0x14 SWAP1 SLOAD SWAP1 PUSH2 0x100 EXP SWAP1 DIV PUSH1 0xFF AND PUSH1 0x2 DUP2 GT ISZERO PUSH2 0xB0D JUMPI PUSH2 0xB0C PUSH2 0x1C26 JUMP JUMPDEST JUMPDEST EQ PUSH2 0xB4D JUMPI PUSH1 0x40 MLOAD PUSH32 0x8C379A000000000000000000000000000000000000000000000000000000000 DUP2 MSTORE PUSH1 0x4 ADD PUSH2 0xB44 SWAP1 PUSH2 0x1CC3 JUMP JUMPDEST PUSH1 0x40 MLOAD DUP1 SWAP2 SUB SWAP1 REVERT JUMPDEST PUSH1 0x1 PUSH0 DUP2 SLOAD DUP1 SWAP3 SWAP2 SWAP1 PUSH2 0xB5F SWAP1 PUSH2 0x1D76 JUMP JUMPDEST SWAP2 SWAP1 POP SSTORE POP PUSH0 PUSH1 0x1 SLOAD SWAP1 POP DUP1 PUSH1 0x3 PUSH0 DUP4 DUP2 MSTORE PUSH1 0x20 ADD SWAP1 DUP2 MSTORE PUSH1 0x20 ADD PUSH0 KECCAK256 PUSH0 ADD DUP2 SWAP1 SSTORE POP DUP4 PUSH1 0x3 PUSH0 DUP4 DUP2 MSTORE PUSH1 0x20 ADD SWAP1 DUP2 MSTORE PUSH1 0x20 ADD PUSH0 KECCAK256 PUSH1 0x1 ADD SWAP1 DUP2 PUSH2 0xBA3 SWAP2 SWAP1 PUSH2 0x1FB7 JUMP JUMPDEST POP DUP3 PUSH1 0x3 PUSH0 DUP4 DUP2 MSTORE PUSH1 0x20 ADD SWAP1 DUP2 MSTORE PUSH1 0x20 ADD PUSH0 KECCAK256 PUSH1 0x2 ADD SWAP1 DUP2 PUSH2 0xBC5 SWAP2 SWAP1 PUSH2 0x1FB7 JUMP JUMPDEST POP PUSH1 0x1 PUSH1 0x3 PUSH0 DUP4 DUP2 MSTORE PUSH1 0x20 ADD SWAP1 DUP2 MSTORE PUSH1 0x20 ADD PUSH0 KECCAK256 PUSH1 0x3 ADD PUSH0 PUSH2 0x100 EXP DUP2 SLOAD DUP2 PUSH1 0xFF MUL NOT AND SWAP1 DUP4 ISZERO ISZERO MUL OR SWAP1 SSTORE POP POP POP POP POP JUMP JUMPDEST PUSH0 PUSH1 0x1 SLOAD GT PUSH2 0xC3C JUMPI PUSH1 0x40 MLOAD PUSH32 0x8C379A000000000000000000000000000000000000000000000000000000000 DUP2 MSTORE PUSH1 0x4 ADD PUSH2 0xC33 SWAP1 PUSH2 0x23D8 JUMP JUMPDEST PUSH1 0x40 MLOAD DUP1 SWAP2 SUB SWAP1 REVERT JUMPDEST PUSH1 0x3 PUSH0 DUP4 DUP2 MSTORE PUSH1 0x20 ADD SWAP1 DUP2 MSTORE PUSH1 0x20 ADD PUSH0 KECCAK256 PUSH1 0x3 ADD PUSH0 SWAP1 SLOAD SWAP1 PUSH2 0x100 EXP SWAP1 DIV PUSH1 0xFF AND PUSH2 0xC9C JUMPI PUSH1 0x40 MLOAD PUSH32 0x8C379A000000000000000000000000000000000000000000000000000000000 DUP2 MSTORE PUSH1 0x4 ADD PUSH2 0xC93 SWAP1 PUSH2 0x2440 JUMP JUMPDEST PUSH1 0x40 MLOAD DUP1 SWAP2 SUB SWAP1 REVERT JUMPDEST PUSH1 0x4 PUSH0 DUP3 PUSH20 0xFFFFFFFFFFFFFFFFFFFFFFFFFFFFFFFFFFFFFFFF AND PUSH20 0xFFFFFFFFFFFFFFFFFFFFFFFFFFFFFFFFFFFFFFFF AND DUP2 MSTORE PUSH1 0x20 ADD SWAP1 DUP2 MSTORE PUSH1 0x20 ADD PUSH0 KECCAK256 PUSH1 0x5 ADD PUSH0 SWAP1 SLOAD SWAP1 PUSH2 0x100 EXP SWAP1 DIV PUSH1 0xFF AND PUSH2 0xD28 JUMPI PUSH1 0x40 MLOAD PUSH32 0x8C379A000000000000000000000000000000000000000000000000000000000 DUP2 MSTORE PUSH1 0x4 ADD PUSH2 0xD1F SWAP1 PUSH2 0x24CE JUMP JUMPDEST PUSH1 0x40 MLOAD DUP1 SWAP2 SUB SWAP1 REVERT JUMPDEST PUSH1 0x4 PUSH0 DUP3 PUSH20 0xFFFFFFFFFFFFFFFFFFFFFFFFFFFFFFFFFFFFFFFF AND PUSH20 0xFFFFFFFFFFFFFFFFFFFFFFFFFFFFFFFFFFFFFFFF AND DUP2 MSTORE PUSH1 0x20 ADD SWAP1 DUP2 MSTORE PUSH1 0x20 ADD PUSH0 KECCAK256 PUSH1 0x3 ADD PUSH1 0x14 SWAP1 SLOAD SWAP1 PUSH2 0x100 EXP SWAP1 DIV PUSH1 0xFF AND PUSH2 0xDB5 JUMPI PUSH1 0x40 MLOAD PUSH32 0x8C379A000000000000000000000000000000000000000000000000000000000 DUP2 MSTORE PUSH1 0x4 ADD PUSH2 0xDAC SWAP1 PUSH2 0x2536 JUMP JUMPDEST PUSH1 0x40 MLOAD DUP1 SWAP2 SUB SWAP1 REVERT JUMPDEST CALLER PUSH20 0xFFFFFFFFFFFFFFFFFFFFFFFFFFFFFFFFFFFFFFFF AND PUSH1 0x4 PUSH0 DUP4 PUSH20 0xFFFFFFFFFFFFFFFFFFFFFFFFFFFFFFFFFFFFFFFF AND PUSH20 0xFFFFFFFFFFFFFFFFFFFFFFFFFFFFFFFFFFFFFFFF AND DUP2 MSTORE PUSH1 0x20 ADD SWAP1 DUP2 MSTORE PUSH1 0x20 ADD PUSH0 KECCAK256 PUSH1 0x3 ADD PUSH0 SWAP1 SLOAD SWAP1 PUSH2 0x100 EXP SWAP1 DIV PUSH20 0xFFFFFFFFFFFFFFFFFFFFFFFFFFFFFFFFFFFFFFFF AND PUSH20 0xFFFFFFFFFFFFFFFFFFFFFFFFFFFFFFFFFFFFFFFF AND EQ PUSH2 0xEB6 JUMPI DUP1 PUSH20 0xFFFFFFFFFFFFFFFFFFFFFFFFFFFFFFFFFFFFFFFF AND CALLER PUSH20 0xFFFFFFFFFFFFFFFFFFFFFFFFFFFFFFFFFFFFFFFF AND EQ PUSH2 0xEB5 JUMPI PUSH1 0x40 MLOAD PUSH32 0x8C379A000000000000000000000000000000000000000000000000000000000 DUP2 MSTORE PUSH1 0x4 ADD PUSH2 0xEAC SWAP1 PUSH2 0x259E JUMP JUMPDEST PUSH1 0x40 MLOAD DUP1 SWAP2 SUB SWAP1 REVERT JUMPDEST JUMPDEST PUSH1 0x1 PUSH1 0x5 PUSH0 DUP5 DUP2 MSTORE PUSH1 0x20 ADD SWAP1 DUP2 MSTORE PUSH1 0x20 ADD PUSH0 KECCAK256 SLOAD PUSH2 0xED4 SWAP2 SWAP1 PUSH2 0x25BC JUMP JUMPDEST PUSH1 0x5 PUSH0 DUP5 DUP2 MSTORE PUSH1 0x20 ADD SWAP1 DUP2 MSTORE PUSH1 0x20 ADD PUSH0 KECCAK256 DUP2 SWAP1 SSTORE POP DUP2 PUSH1 0x4 PUSH0 DUP4 PUSH20 0xFFFFFFFFFFFFFFFFFFFFFFFFFFFFFFFFFFFFFFFF AND PUSH20 0xFFFFFFFFFFFFFFFFFFFFFFFFFFFFFFFFFFFFFFFF AND DUP2 MSTORE PUSH1 0x20 ADD SWAP1 DUP2 MSTORE PUSH1 0x20 ADD PUSH0 KECCAK256 PUSH1 0x4 ADD DUP2 SWAP1 SSTORE POP PUSH1 0x1 PUSH1 0x4 PUSH0 DUP4 PUSH20 0xFFFFFFFFFFFFFFFFFFFFFFFFFFFFFFFFFFFFFFFF AND PUSH20 0xFFFFFFFFFFFFFFFFFFFFFFFFFFFFFFFFFFFFFFFF AND DUP2 MSTORE PUSH1 0x20 ADD SWAP1 DUP2 MSTORE PUSH1 0x20 ADD PUSH0 KECCAK256 PUSH1 0x3 ADD PUSH1 0x14 PUSH2 0x100 EXP DUP2 SLOAD DUP2 PUSH1 0xFF MUL NOT AND SWAP1 DUP4 ISZERO ISZERO MUL OR SWAP1 SSTORE POP POP POP JUMP JUMPDEST PUSH0 PUSH1 0x60 DUP1 PUSH1 0x3 PUSH0 DUP6 DUP2 MSTORE PUSH1 0x20 ADD SWAP1 DUP2 MSTORE PUSH1 0x20 ADD PUSH0 KECCAK256 PUSH1 0x3 ADD PUSH0 SWAP1 SLOAD SWAP1 PUSH2 0x100 EXP SWAP1 DIV PUSH1 0xFF AND PUSH2 0xFEF JUMPI PUSH1 0x40 MLOAD PUSH32 0x8C379A000000000000000000000000000000000000000000000000000000000 DUP2 MSTORE PUSH1 0x4 ADD PUSH2 0xFE6 SWAP1 PUSH2 0x2639 JUMP JUMPDEST PUSH1 0x40 MLOAD DUP1 SWAP2 SUB SWAP1 REVERT JUMPDEST PUSH1 0x3 PUSH0 DUP6 DUP2 MSTORE PUSH1 0x20 ADD SWAP1 DUP2 MSTORE PUSH1 0x20 ADD PUSH0 KECCAK256 PUSH0 ADD SLOAD PUSH1 0x3 PUSH0 DUP7 DUP2 MSTORE PUSH1 0x20 ADD SWAP1 DUP2 MSTORE PUSH1 0x20 ADD PUSH0 KECCAK256 PUSH1 0x2 ADD PUSH1 0x3 PUSH0 DUP8 DUP2 MSTORE PUSH1 0x20 ADD SWAP1 DUP2 MSTORE PUSH1 0x20 ADD PUSH0 KECCAK256 PUSH1 0x1 ADD DUP2 DUP1 SLOAD PUSH2 0x1037 SWAP1 PUSH2 0x1DEA JUMP JUMPDEST DUP1 PUSH1 0x1F ADD PUSH1 0x20 DUP1 SWAP2 DIV MUL PUSH1 0x20 ADD PUSH1 0x40 MLOAD SWAP1 DUP2 ADD PUSH1 0x40 MSTORE DUP1 SWAP3 SWAP2 SWAP1 DUP2 DUP2 MSTORE PUSH1 0x20 ADD DUP3 DUP1 SLOAD PUSH2 0x1063 SWAP1 PUSH2 0x1DEA JUMP JUMPDEST DUP1 ISZERO PUSH2 0x10AE JUMPI DUP1 PUSH1 0x1F LT PUSH2 0x1085 JUMPI PUSH2 0x100 DUP1 DUP4 SLOAD DIV MUL DUP4 MSTORE SWAP2 PUSH1 0x20 ADD SWAP2 PUSH2 0x10AE JUMP JUMPDEST DUP3 ADD SWAP2 SWAP1 PUSH0 MSTORE PUSH1 0x20 PUSH0 KECCAK256 SWAP1 JUMPDEST DUP2 SLOAD DUP2 MSTORE SWAP1 PUSH1 0x1 ADD SWAP1 PUSH1 0x20 ADD DUP1 DUP4 GT PUSH2 0x1091 JUMPI DUP3 SWAP1 SUB PUSH1 0x1F AND DUP3 ADD SWAP2 JUMPDEST POP POP POP POP POP SWAP2 POP DUP1 DUP1 SLOAD PUSH2 0x10C1 SWAP1 PUSH2 0x1DEA JUMP JUMPDEST DUP1 PUSH1 0x1F ADD PUSH1 0x20 DUP1 SWAP2 DIV MUL PUSH1 0x20 ADD PUSH1 0x40 MLOAD SWAP1 DUP2 ADD PUSH1 0x40 MSTORE DUP1 SWAP3 SWAP2 SWAP1 DUP2 DUP2 MSTORE PUSH1 0x20 ADD DUP3 DUP1 SLOAD PUSH2 0x10ED SWAP1 PUSH2 0x1DEA JUMP JUMPDEST DUP1 ISZERO PUSH2 0x1138 JUMPI DUP1 PUSH1 0x1F LT PUSH2 0x110F JUMPI PUSH2 0x100 DUP1 DUP4 SLOAD DIV MUL DUP4 MSTORE SWAP2 PUSH1 0x20 ADD SWAP2 PUSH2 0x1138 JUMP JUMPDEST DUP3 ADD SWAP2 SWAP1 PUSH0 MSTORE PUSH1 0x20 PUSH0 KECCAK256 SWAP1 JUMPDEST DUP2 SLOAD DUP2 MSTORE SWAP1 PUSH1 0x1 ADD SWAP1 PUSH1 0x20 ADD DUP1 DUP4 GT PUSH2 0x111B JUMPI DUP3 SWAP1 SUB PUSH1 0x1F AND DUP3 ADD SWAP2 JUMPDEST POP POP POP POP POP SWAP1 POP SWAP3 POP SWAP3 POP SWAP3 POP SWAP2 SWAP4 SWAP1 SWAP3 POP JUMP JUMPDEST PUSH0 DUP1 SLOAD SWAP1 PUSH2 0x100 EXP SWAP1 DIV PUSH20 0xFFFFFFFFFFFFFFFFFFFFFFFFFFFFFFFFFFFFFFFF AND DUP2 JUMP JUMPDEST PUSH0 DUP1 SLOAD SWAP1 PUSH2 0x100 EXP SWAP1 DIV PUSH20 0xFFFFFFFFFFFFFFFFFFFFFFFFFFFFFFFFFFFFFFFF AND PUSH20 0xFFFFFFFFFFFFFFFFFFFFFFFFFFFFFFFFFFFFFFFF AND CALLER PUSH20 0xFFFFFFFFFFFFFFFFFFFFFFFFFFFFFFFFFFFFFFFF AND EQ PUSH2 0x11C5 JUMPI PUSH0 DUP1 REVERT JUMPDEST PUSH0 DUP1 SLOAD SWAP1 PUSH2 0x100 EXP SWAP1 DIV PUSH20 0xFFFFFFFFFFFFFFFFFFFFFFFFFFFFFFFFFFFFFFFF AND PUSH20 0xFFFFFFFFFFFFFFFFFFFFFFFFFFFFFFFFFFFFFFFF AND DUP2 PUSH20 0xFFFFFFFFFFFFFFFFFFFFFFFFFFFFFFFFFFFFFFFF AND EQ PUSH2 0x1252 JUMPI PUSH1 0x40 MLOAD PUSH32 0x8C379A000000000000000000000000000000000000000000000000000000000 DUP2 MSTORE PUSH1 0x4 ADD PUSH2 0x1249 SWAP1 PUSH2 0x1C08 JUMP JUMPDEST PUSH1 0x40 MLOAD DUP1 SWAP2 SUB SWAP1 REVERT JUMPDEST PUSH0 PUSH1 0x1 SLOAD GT PUSH2 0x1296 JUMPI PUSH1 0x40 MLOAD PUSH32 0x8C379A000000000000000000000000000000000000000000000000000000000 DUP2 MSTORE PUSH1 0x4 ADD PUSH2 0x128D SWAP1 PUSH2 0x23D8 JUMP JUMPDEST PUSH1 0x40 MLOAD DUP1 SWAP2 SUB SWAP1 REVERT JUMPDEST PUSH0 PUSH1 0x2 SLOAD GT PUSH2 0x12DA JUMPI PUSH1 0x40 MLOAD PUSH32 0x8C379A000000000000000000000000000000000000000000000000000000000 DUP2 MSTORE PUSH1 0x4 ADD PUSH2 0x12D1 SWAP1 PUSH2 0x26A1 JUMP JUMPDEST PUSH1 0x40 MLOAD DUP1 SWAP2 SUB SWAP1 REVERT JUMPDEST PUSH1 0x1 PUSH1 0x2 DUP2 GT ISZERO PUSH2 0x12EE JUMPI PUSH2 0x12ED PUSH2 0x1C26 JUMP JUMPDEST JUMPDEST PUSH0 PUSH1 0x14 SWAP1 SLOAD SWAP1 PUSH2 0x100 EXP SWAP1 DIV PUSH1 0xFF AND PUSH1 0x2 DUP2 GT ISZERO PUSH2 0x130F JUMPI PUSH2 0x130E PUSH2 0x1C26 JUMP JUMPDEST JUMPDEST SUB PUSH2 0x135F JUMPI PUSH0 PUSH1 0x14 SWAP1 SLOAD SWAP1 PUSH2 0x100 EXP SWAP1 DIV PUSH1 0xFF AND PUSH1 0x40 MLOAD PUSH32 0xEF90B1C100000000000000000000000000000000000000000000000000000000 DUP2 MSTORE PUSH1 0x4 ADD PUSH2 0x1356 SWAP2 SWAP1 PUSH2 0x274F JUMP JUMPDEST PUSH1 0x40 MLOAD DUP1 SWAP2 SUB SWAP1 REVERT JUMPDEST PUSH1 0x2 DUP1 DUP2 GT ISZERO PUSH2 0x1372 JUMPI PUSH2 0x1371 PUSH2 0x1C26 JUMP JUMPDEST JUMPDEST PUSH0 PUSH1 0x14 SWAP1 SLOAD SWAP1 PUSH2 0x100 EXP SWAP1 DIV PUSH1 0xFF AND PUSH1 0x2 DUP2 GT ISZERO PUSH2 0x1393 JUMPI PUSH2 0x1392 PUSH2 0x1C26 JUMP JUMPDEST JUMPDEST SUB PUSH2 0x13E3 JUMPI PUSH0 PUSH1 0x14 SWAP1 SLOAD SWAP1 PUSH2 0x100 EXP SWAP1 DIV PUSH1 0xFF AND PUSH1 0x40 MLOAD PUSH32 0xEF90B1C100000000000000000000000000000000000000000000000000000000 DUP2 MSTORE PUSH1 0x4 ADD PUSH2 0x13DA SWAP2 SWAP1 PUSH2 0x27C5 JUMP JUMPDEST PUSH1 0x40 MLOAD DUP1 SWAP2 SUB SWAP1 REVERT JUMPDEST PUSH1 0x1 PUSH0 PUSH1 0x14 PUSH2 0x100 EXP DUP2 SLOAD DUP2 PUSH1 0xFF MUL NOT AND SWAP1 DUP4 PUSH1 0x2 DUP2 GT ISZERO PUSH2 0x1408 JUMPI PUSH2 0x1407 PUSH2 0x1C26 JUMP JUMPDEST JUMPDEST MUL OR SWAP1 SSTORE POP POP JUMP JUMPDEST PUSH0 PUSH1 0x60 PUSH0 PUSH1 0x4 PUSH0 DUP6 PUSH20 0xFFFFFFFFFFFFFFFFFFFFFFFFFFFFFFFFFFFFFFFF AND PUSH20 0xFFFFFFFFFFFFFFFFFFFFFFFFFFFFFFFFFFFFFFFF AND DUP2 MSTORE PUSH1 0x20 ADD SWAP1 DUP2 MSTORE PUSH1 0x20 ADD PUSH0 KECCAK256 PUSH1 0x5 ADD PUSH0 SWAP1 SLOAD SWAP1 PUSH2 0x100 EXP SWAP1 DIV PUSH1 0xFF AND PUSH2 0x14A0 JUMPI PUSH1 0x40 MLOAD PUSH32 0x8C379A000000000000000000000000000000000000000000000000000000000 DUP2 MSTORE PUSH1 0x4 ADD PUSH2 0x1497 SWAP1 PUSH2 0x24CE JUMP JUMPDEST PUSH1 0x40 MLOAD DUP1 SWAP2 SUB SWAP1 REVERT JUMPDEST PUSH1 0x4 PUSH0 DUP6 PUSH20 0xFFFFFFFFFFFFFFFFFFFFFFFFFFFFFFFFFFFFFFFF AND PUSH20 0xFFFFFFFFFFFFFFFFFFFFFFFFFFFFFFFFFFFFFFFF AND DUP2 MSTORE PUSH1 0x20 ADD SWAP1 DUP2 MSTORE PUSH1 0x20 ADD PUSH0 KECCAK256 PUSH1 0x2 ADD PUSH0 SWAP1 SLOAD SWAP1 PUSH2 0x100 EXP SWAP1 DIV PUSH20 0xFFFFFFFFFFFFFFFFFFFFFFFFFFFFFFFFFFFFFFFF AND PUSH1 0x4 PUSH0 DUP7 PUSH20 0xFFFFFFFFFFFFFFFFFFFFFFFFFFFFFFFFFFFFFFFF AND PUSH20 0xFFFFFFFFFFFFFFFFFFFFFFFFFFFFFFFFFFFFFFFF AND DUP2 MSTORE PUSH1 0x20 ADD SWAP1 DUP2 MSTORE PUSH1 0x20 ADD PUSH0 KECCAK256 PUSH1 0x1 ADD DUP5 PUSH20 0xFFFFFFFFFFFFFFFFFFFFFFFFFFFFFFFFFFFFFFFF AND PUSH1 0x4 PUSH0 DUP9 PUSH20 0xFFFFFFFFFFFFFFFFFFFFFFFFFFFFFFFFFFFFFFFF AND PUSH20 0xFFFFFFFFFFFFFFFFFFFFFFFFFFFFFFFFFFFFFFFF AND DUP2 MSTORE PUSH1 0x20 ADD SWAP1 DUP2 MSTORE PUSH1 0x20 ADD PUSH0 KECCAK256 PUSH1 0x3 ADD PUSH0 SWAP1 SLOAD SWAP1 PUSH2 0x100 EXP SWAP1 DIV PUSH20 0xFFFFFFFFFFFFFFFFFFFFFFFFFFFFFFFFFFFFFFFF AND PUSH20 0xFFFFFFFFFFFFFFFFFFFFFFFFFFFFFFFFFFFFFFFF AND EQ PUSH2 0x15D9 JUMPI PUSH1 0x1 PUSH2 0x15DB JUMP JUMPDEST PUSH0 JUMPDEST DUP2 DUP1 SLOAD PUSH2 0x15E7 SWAP1 PUSH2 0x1DEA JUMP JUMPDEST DUP1 PUSH1 0x1F ADD PUSH1 0x20 DUP1 SWAP2 DIV MUL PUSH1 0x20 ADD PUSH1 0x40 MLOAD SWAP1 DUP2 ADD PUSH1 0x40 MSTORE DUP1 SWAP3 SWAP2 SWAP1 DUP2 DUP2 MSTORE PUSH1 0x20 ADD DUP3 DUP1 SLOAD PUSH2 0x1613 SWAP1 PUSH2 0x1DEA JUMP JUMPDEST DUP1 ISZERO PUSH2 0x165E JUMPI DUP1 PUSH1 0x1F LT PUSH2 0x1635 JUMPI PUSH2 0x100 DUP1 DUP4 SLOAD DIV MUL DUP4 MSTORE SWAP2 PUSH1 0x20 ADD SWAP2 PUSH2 0x165E JUMP JUMPDEST DUP3 ADD SWAP2 SWAP1 PUSH0 MSTORE PUSH1 0x20 PUSH0 KECCAK256 SWAP1 JUMPDEST DUP2 SLOAD DUP2 MSTORE SWAP1 PUSH1 0x1 ADD SWAP1 PUSH1 0x20 ADD DUP1 DUP4 GT PUSH2 0x1641 JUMPI DUP3 SWAP1 SUB PUSH1 0x1F AND DUP3 ADD SWAP2 JUMPDEST POP POP POP POP POP SWAP2 POP SWAP3 POP SWAP3 POP SWAP3 POP SWAP2 SWAP4 SWAP1 SWAP3 POP JUMP JUMPDEST PUSH0 PUSH1 0x40 MLOAD SWAP1 POP SWAP1 JUMP JUMPDEST PUSH0 DUP1 REVERT JUMPDEST PUSH0 DUP1 REVERT JUMPDEST PUSH0 PUSH20 0xFFFFFFFFFFFFFFFFFFFFFFFFFFFFFFFFFFFFFFFF DUP3 AND SWAP1 POP SWAP2 SWAP1 POP JUMP JUMPDEST PUSH0 PUSH2 0x16AC DUP3 PUSH2 0x1683 JUMP JUMPDEST SWAP1 POP SWAP2 SWAP1 POP JUMP JUMPDEST PUSH2 0x16BC DUP2 PUSH2 0x16A2 JUMP JUMPDEST DUP2 EQ PUSH2 0x16C6 JUMPI PUSH0 DUP1 REVERT JUMPDEST POP JUMP JUMPDEST PUSH0 DUP2 CALLDATALOAD SWAP1 POP PUSH2 0x16D7 DUP2 PUSH2 0x16B3 JUMP JUMPDEST SWAP3 SWAP2 POP POP JUMP JUMPDEST PUSH0 DUP1 REVERT JUMPDEST PUSH0 DUP1 REVERT JUMPDEST PUSH0 PUSH1 0x1F NOT PUSH1 0x1F DUP4 ADD AND SWAP1 POP SWAP2 SWAP1 POP JUMP JUMPDEST PUSH32 0x4E487B7100000000000000000000000000000000000000000000000000000000 PUSH0 MSTORE PUSH1 0x41 PUSH1 0x4 MSTORE PUSH1 0x24 PUSH0 REVERT JUMPDEST PUSH2 0x172B DUP3 PUSH2 0x16E5 JUMP JUMPDEST DUP2 ADD DUP2 DUP2 LT PUSH8 0xFFFFFFFFFFFFFFFF DUP3 GT OR ISZERO PUSH2 0x174A JUMPI PUSH2 0x1749 PUSH2 0x16F5 JUMP JUMPDEST JUMPDEST DUP1 PUSH1 0x40 MSTORE POP POP POP JUMP JUMPDEST PUSH0 PUSH2 0x175C PUSH2 0x1672 JUMP JUMPDEST SWAP1 POP PUSH2 0x1768 DUP3 DUP3 PUSH2 0x1722 JUMP JUMPDEST SWAP2 SWAP1 POP JUMP JUMPDEST PUSH0 PUSH8 0xFFFFFFFFFFFFFFFF DUP3 GT ISZERO PUSH2 0x1787 JUMPI PUSH2 0x1786 PUSH2 0x16F5 JUMP JUMPDEST JUMPDEST PUSH2 0x1790 DUP3 PUSH2 0x16E5 JUMP JUMPDEST SWAP1 POP PUSH1 0x20 DUP2 ADD SWAP1 POP SWAP2 SWAP1 POP JUMP JUMPDEST DUP3 DUP2 DUP4 CALLDATACOPY PUSH0 DUP4 DUP4 ADD MSTORE POP POP POP JUMP JUMPDEST PUSH0 PUSH2 0x17BD PUSH2 0x17B8 DUP5 PUSH2 0x176D JUMP JUMPDEST PUSH2 0x1753 JUMP JUMPDEST SWAP1 POP DUP3 DUP2 MSTORE PUSH1 0x20 DUP2 ADD DUP5 DUP5 DUP5 ADD GT ISZERO PUSH2 0x17D9 JUMPI PUSH2 0x17D8 PUSH2 0x16E1 JUMP JUMPDEST JUMPDEST PUSH2 0x17E4 DUP5 DUP3 DUP6 PUSH2 0x179D JUMP JUMPDEST POP SWAP4 SWAP3 POP POP POP JUMP JUMPDEST PUSH0 DUP3 PUSH1 0x1F DUP4 ADD SLT PUSH2 0x1800 JUMPI PUSH2 0x17FF PUSH2 0x16DD JUMP JUMPDEST JUMPDEST DUP2 CALLDATALOAD PUSH2 0x1810 DUP5 DUP3 PUSH1 0x20 DUP7 ADD PUSH2 0x17AB JUMP JUMPDEST SWAP2 POP POP SWAP3 SWAP2 POP POP JUMP JUMPDEST PUSH0 DUP1 PUSH0 PUSH1 0x60 DUP5 DUP7 SUB SLT ISZERO PUSH2 0x1830 JUMPI PUSH2 0x182F PUSH2 0x167B JUMP JUMPDEST JUMPDEST PUSH0 PUSH2 0x183D DUP7 DUP3 DUP8 ADD PUSH2 0x16C9 JUMP JUMPDEST SWAP4 POP POP PUSH1 0x20 DUP5 ADD CALLDATALOAD PUSH8 0xFFFFFFFFFFFFFFFF DUP2 GT ISZERO PUSH2 0x185E JUMPI PUSH2 0x185D PUSH2 0x167F JUMP JUMPDEST JUMPDEST PUSH2 0x186A DUP7 DUP3 DUP8 ADD PUSH2 0x17EC JUMP JUMPDEST SWAP3 POP POP PUSH1 0x40 PUSH2 0x187B DUP7 DUP3 DUP8 ADD PUSH2 0x16C9 JUMP JUMPDEST SWAP2 POP POP SWAP3 POP SWAP3 POP SWAP3 JUMP JUMPDEST PUSH0 DUP1 PUSH1 0x40 DUP4 DUP6 SUB SLT ISZERO PUSH2 0x189B JUMPI PUSH2 0x189A PUSH2 0x167B JUMP JUMPDEST JUMPDEST PUSH0 PUSH2 0x18A8 DUP6 DUP3 DUP7 ADD PUSH2 0x16C9 JUMP JUMPDEST SWAP3 POP POP PUSH1 0x20 PUSH2 0x18B9 DUP6 DUP3 DUP7 ADD PUSH2 0x16C9 JUMP JUMPDEST SWAP2 POP POP SWAP3 POP SWAP3 SWAP1 POP JUMP JUMPDEST PUSH0 DUP2 SWAP1 POP SWAP2 SWAP1 POP JUMP JUMPDEST PUSH2 0x18D5 DUP2 PUSH2 0x18C3 JUMP JUMPDEST DUP2 EQ PUSH2 0x18DF JUMPI PUSH0 DUP1 REVERT JUMPDEST POP JUMP JUMPDEST PUSH0 DUP2 CALLDATALOAD SWAP1 POP PUSH2 0x18F0 DUP2 PUSH2 0x18CC JUMP JUMPDEST SWAP3 SWAP2 POP POP JUMP JUMPDEST PUSH0 PUSH1 0x20 DUP3 DUP5 SUB SLT ISZERO PUSH2 0x190B JUMPI PUSH2 0x190A PUSH2 0x167B JUMP JUMPDEST JUMPDEST PUSH0 PUSH2 0x1918 DUP5 DUP3 DUP6 ADD PUSH2 0x18E2 JUMP JUMPDEST SWAP2 POP POP SWAP3 SWAP2 POP POP JUMP JUMPDEST PUSH2 0x192A DUP2 PUSH2 0x18C3 JUMP JUMPDEST DUP3 MSTORE POP POP JUMP JUMPDEST PUSH0 DUP2 MLOAD SWAP1 POP SWAP2 SWAP1 POP JUMP JUMPDEST PUSH0 DUP3 DUP3 MSTORE PUSH1 0x20 DUP3 ADD SWAP1 POP SWAP3 SWAP2 POP POP JUMP JUMPDEST PUSH0 JUMPDEST DUP4 DUP2 LT ISZERO PUSH2 0x1967 JUMPI DUP1 DUP3 ADD MLOAD DUP2 DUP5 ADD MSTORE PUSH1 0x20 DUP2 ADD SWAP1 POP PUSH2 0x194C JUMP JUMPDEST PUSH0 DUP5 DUP5 ADD MSTORE POP POP POP POP JUMP JUMPDEST PUSH0 PUSH2 0x197C DUP3 PUSH2 0x1930 JUMP JUMPDEST PUSH2 0x1986 DUP2 DUP6 PUSH2 0x193A JUMP JUMPDEST SWAP4 POP PUSH2 0x1996 DUP2 DUP6 PUSH1 0x20 DUP7 ADD PUSH2 0x194A JUMP JUMPDEST PUSH2 0x199F DUP2 PUSH2 0x16E5 JUMP JUMPDEST DUP5 ADD SWAP2 POP POP SWAP3 SWAP2 POP POP JUMP JUMPDEST PUSH0 PUSH1 0x60 DUP3 ADD SWAP1 POP PUSH2 0x19BD PUSH0 DUP4 ADD DUP7 PUSH2 0x1921 JUMP JUMPDEST DUP2 DUP2 SUB PUSH1 0x20 DUP4 ADD MSTORE PUSH2 0x19CF DUP2 DUP6 PUSH2 0x1972 JUMP JUMPDEST SWAP1 POP PUSH2 0x19DE PUSH1 0x40 DUP4 ADD DUP5 PUSH2 0x1921 JUMP JUMPDEST SWAP5 SWAP4 POP POP POP POP JUMP JUMPDEST PUSH0 DUP1 PUSH0 PUSH1 0x60 DUP5 DUP7 SUB SLT ISZERO PUSH2 0x19FD JUMPI PUSH2 0x19FC PUSH2 0x167B JUMP JUMPDEST JUMPDEST PUSH0 DUP5 ADD CALLDATALOAD PUSH8 0xFFFFFFFFFFFFFFFF DUP2 GT ISZERO PUSH2 0x1A1A JUMPI PUSH2 0x1A19 PUSH2 0x167F JUMP JUMPDEST JUMPDEST PUSH2 0x1A26 DUP7 DUP3 DUP8 ADD PUSH2 0x17EC JUMP JUMPDEST SWAP4 POP POP PUSH1 0x20 DUP5 ADD CALLDATALOAD PUSH8 0xFFFFFFFFFFFFFFFF DUP2 GT ISZERO PUSH2 0x1A47 JUMPI PUSH2 0x1A46 PUSH2 0x167F JUMP JUMPDEST JUMPDEST PUSH2 0x1A53 DUP7 DUP3 DUP8 ADD PUSH2 0x17EC JUMP JUMPDEST SWAP3 POP POP PUSH1 0x40 PUSH2 0x1A64 DUP7 DUP3 DUP8 ADD PUSH2 0x16C9 JUMP JUMPDEST SWAP2 POP POP SWAP3 POP SWAP3 POP SWAP3 JUMP JUMPDEST PUSH0 DUP1 PUSH1 0x40 DUP4 DUP6 SUB SLT ISZERO PUSH2 0x1A84 JUMPI PUSH2 0x1A83 PUSH2 0x167B JUMP JUMPDEST JUMPDEST PUSH0 PUSH2 0x1A91 DUP6 DUP3 DUP7 ADD PUSH2 0x18E2 JUMP JUMPDEST SWAP3 POP POP PUSH1 0x20 PUSH2 0x1AA2 DUP6 DUP3 DUP7 ADD PUSH2 0x16C9 JUMP JUMPDEST SWAP2 POP POP SWAP3 POP SWAP3 SWAP1 POP JUMP JUMPDEST PUSH0 PUSH1 0x60 DUP3 ADD SWAP1 POP PUSH2 0x1ABF PUSH0 DUP4 ADD DUP7 PUSH2 0x1921 JUMP JUMPDEST DUP2 DUP2 SUB PUSH1 0x20 DUP4 ADD MSTORE PUSH2 0x1AD1 DUP2 DUP6 PUSH2 0x1972 JUMP JUMPDEST SWAP1 POP DUP2 DUP2 SUB PUSH1 0x40 DUP4 ADD MSTORE PUSH2 0x1AE5 DUP2 DUP5 PUSH2 0x1972 JUMP JUMPDEST SWAP1 POP SWAP5 SWAP4 POP POP POP POP JUMP JUMPDEST PUSH2 0x1AF8 DUP2 PUSH2 0x16A2 JUMP JUMPDEST DUP3 MSTORE POP POP JUMP JUMPDEST PUSH0 PUSH1 0x20 DUP3 ADD SWAP1 POP PUSH2 0x1B11 PUSH0 DUP4 ADD DUP5 PUSH2 0x1AEF JUMP JUMPDEST SWAP3 SWAP2 POP POP JUMP JUMPDEST PUSH0 PUSH1 0x20 DUP3 DUP5 SUB SLT ISZERO PUSH2 0x1B2C JUMPI PUSH2 0x1B2B PUSH2 0x167B JUMP JUMPDEST JUMPDEST PUSH0 PUSH2 0x1B39 DUP5 DUP3 DUP6 ADD PUSH2 0x16C9 JUMP JUMPDEST SWAP2 POP POP SWAP3 SWAP2 POP POP JUMP JUMPDEST PUSH0 DUP2 ISZERO ISZERO SWAP1 POP SWAP2 SWAP1 POP JUMP JUMPDEST PUSH2 0x1B56 DUP2 PUSH2 0x1B42 JUMP JUMPDEST DUP3 MSTORE POP POP JUMP JUMPDEST PUSH0 PUSH1 0x60 DUP3 ADD SWAP1 POP PUSH2 0x1B6F PUSH0 DUP4 ADD DUP7 PUSH2 0x1AEF JUMP JUMPDEST DUP2 DUP2 SUB PUSH1 0x20 DUP4 ADD MSTORE PUSH2 0x1B81 DUP2 DUP6 PUSH2 0x1972 JUMP JUMPDEST SWAP1 POP PUSH2 0x1B90 PUSH1 0x40 DUP4 ADD DUP5 PUSH2 0x1B4D JUMP JUMPDEST SWAP5 SWAP4 POP POP POP POP JUMP JUMPDEST PUSH32 0x4F6E6C792061646D696E206861732061636365737320746F20646F2074686973 PUSH0 DUP3 ADD MSTORE PUSH32 0x2E00000000000000000000000000000000000000000000000000000000000000 PUSH1 0x20 DUP3 ADD MSTORE POP JUMP JUMPDEST PUSH0 PUSH2 0x1BF2 PUSH1 0x21 DUP4 PUSH2 0x193A JUMP JUMPDEST SWAP2 POP PUSH2 0x1BFD DUP3 PUSH2 0x1B98 JUMP JUMPDEST PUSH1 0x40 DUP3 ADD SWAP1 POP SWAP2 SWAP1 POP JUMP JUMPDEST PUSH0 PUSH1 0x20 DUP3 ADD SWAP1 POP DUP2 DUP2 SUB PUSH0 DUP4 ADD MSTORE PUSH2 0x1C1F DUP2 PUSH2 0x1BE6 JUMP JUMPDEST SWAP1 POP SWAP2 SWAP1 POP JUMP JUMPDEST PUSH32 0x4E487B7100000000000000000000000000000000000000000000000000000000 PUSH0 MSTORE PUSH1 0x21 PUSH1 0x4 MSTORE PUSH1 0x24 PUSH0 REVERT JUMPDEST PUSH32 0x566F74696E6720616C72656164792073746172746564206F7220636F6D706C65 PUSH0 DUP3 ADD MSTORE PUSH32 0x7465640000000000000000000000000000000000000000000000000000000000 PUSH1 0x20 DUP3 ADD MSTORE POP JUMP JUMPDEST PUSH0 PUSH2 0x1CAD PUSH1 0x23 DUP4 PUSH2 0x193A JUMP JUMPDEST SWAP2 POP PUSH2 0x1CB8 DUP3 PUSH2 0x1C53 JUMP JUMPDEST PUSH1 0x40 DUP3 ADD SWAP1 POP SWAP2 SWAP1 POP JUMP JUMPDEST PUSH0 PUSH1 0x20 DUP3 ADD SWAP1 POP DUP2 DUP2 SUB PUSH0 DUP4 ADD MSTORE PUSH2 0x1CDA DUP2 PUSH2 0x1CA1 JUMP JUMPDEST SWAP1 POP SWAP2 SWAP1 POP JUMP JUMPDEST PUSH32 0x766F74657220616C72656164792061646465642E000000000000000000000000 PUSH0 DUP3 ADD MSTORE POP JUMP JUMPDEST PUSH0 PUSH2 0x1D15 PUSH1 0x14 DUP4 PUSH2 0x193A JUMP JUMPDEST SWAP2 POP PUSH2 0x1D20 DUP3 PUSH2 0x1CE1 JUMP JUMPDEST PUSH1 0x20 DUP3 ADD SWAP1 POP SWAP2 SWAP1 POP JUMP JUMPDEST PUSH0 PUSH1 0x20 DUP3 ADD SWAP1 POP DUP2 DUP2 SUB PUSH0 DUP4 ADD MSTORE PUSH2 0x1D42 DUP2 PUSH2 0x1D09 JUMP JUMPDEST SWAP1 POP SWAP2 SWAP1 POP JUMP JUMPDEST PUSH32 0x4E487B7100000000000000000000000000000000000000000000000000000000 PUSH0 MSTORE PUSH1 0x11 PUSH1 0x4 MSTORE PUSH1 0x24 PUSH0 REVERT JUMPDEST PUSH0 PUSH2 0x1D80 DUP3 PUSH2 0x18C3 JUMP JUMPDEST SWAP2 POP PUSH32 0xFFFFFFFFFFFFFFFFFFFFFFFFFFFFFFFFFFFFFFFFFFFFFFFFFFFFFFFFFFFFFFFF DUP3 SUB PUSH2 0x1DB2 JUMPI PUSH2 0x1DB1 PUSH2 0x1D49 JUMP JUMPDEST JUMPDEST PUSH1 0x1 DUP3 ADD SWAP1 POP SWAP2 SWAP1 POP JUMP JUMPDEST PUSH32 0x4E487B7100000000000000000000000000000000000000000000000000000000 PUSH0 MSTORE PUSH1 0x22 PUSH1 0x4 MSTORE PUSH1 0x24 PUSH0 REVERT JUMPDEST PUSH0 PUSH1 0x2 DUP3 DIV SWAP1 POP PUSH1 0x1 DUP3 AND DUP1 PUSH2 0x1E01 JUMPI PUSH1 0x7F DUP3 AND SWAP2 POP JUMPDEST PUSH1 0x20 DUP3 LT DUP2 SUB PUSH2 0x1E14 JUMPI PUSH2 0x1E13 PUSH2 0x1DBD JUMP JUMPDEST JUMPDEST POP SWAP2 SWAP1 POP JUMP JUMPDEST PUSH0 DUP2 SWAP1 POP DUP2 PUSH0 MSTORE PUSH1 0x20 PUSH0 KECCAK256 SWAP1 POP SWAP2 SWAP1 POP JUMP JUMPDEST PUSH0 PUSH1 0x20 PUSH1 0x1F DUP4 ADD DIV SWAP1 POP SWAP2 SWAP1 POP JUMP JUMPDEST PUSH0 DUP3 DUP3 SHL SWAP1 POP SWAP3 SWAP2 POP POP JUMP JUMPDEST PUSH0 PUSH1 0x8 DUP4 MUL PUSH2 0x1E76 PUSH32 0xFFFFFFFFFFFFFFFFFFFFFFFFFFFFFFFFFFFFFFFFFFFFFFFFFFFFFFFFFFFFFFFF DUP3 PUSH2 0x1E3B JUMP JUMPDEST PUSH2 0x1E80 DUP7 DUP4 PUSH2 0x1E3B JUMP JUMPDEST SWAP6 POP DUP1 NOT DUP5 AND SWAP4 POP DUP1 DUP7 AND DUP5 OR SWAP3 POP POP POP SWAP4 SWAP3 POP POP POP JUMP JUMPDEST PUSH0 DUP2 SWAP1 POP SWAP2 SWAP1 POP JUMP JUMPDEST PUSH0 PUSH2 0x1EBB PUSH2 0x1EB6 PUSH2 0x1EB1 DUP5 PUSH2 0x18C3 JUMP JUMPDEST PUSH2 0x1E98 JUMP JUMPDEST PUSH2 0x18C3 JUMP JUMPDEST SWAP1 POP SWAP2 SWAP1 POP JUMP JUMPDEST PUSH0 DUP2 SWAP1 POP SWAP2 SWAP1 POP JUMP JUMPDEST PUSH2 0x1ED4 DUP4 PUSH2 0x1EA1 JUMP JUMPDEST PUSH2 0x1EE8 PUSH2 0x1EE0 DUP3 PUSH2 0x1EC2 JUMP JUMPDEST DUP5 DUP5 SLOAD PUSH2 0x1E47 JUMP JUMPDEST DUP3 SSTORE POP POP POP POP JUMP JUMPDEST PUSH0 SWAP1 JUMP JUMPDEST PUSH2 0x1EFC PUSH2 0x1EF0 JUMP JUMPDEST PUSH2 0x1F07 DUP2 DUP5 DUP5 PUSH2 0x1ECB JUMP JUMPDEST POP POP POP JUMP JUMPDEST JUMPDEST DUP2 DUP2 LT ISZERO PUSH2 0x1F2A JUMPI PUSH2 0x1F1F PUSH0 DUP3 PUSH2 0x1EF4 JUMP JUMPDEST PUSH1 0x1 DUP2 ADD SWAP1 POP PUSH2 0x1F0D JUMP JUMPDEST POP POP JUMP JUMPDEST PUSH1 0x1F DUP3 GT ISZERO PUSH2 0x1F6F JUMPI PUSH2 0x1F40 DUP2 PUSH2 0x1E1A JUMP JUMPDEST PUSH2 0x1F49 DUP5 PUSH2 0x1E2C JUMP JUMPDEST DUP2 ADD PUSH1 0x20 DUP6 LT ISZERO PUSH2 0x1F58 JUMPI DUP2 SWAP1 POP JUMPDEST PUSH2 0x1F6C PUSH2 0x1F64 DUP6 PUSH2 0x1E2C JUMP JUMPDEST DUP4 ADD DUP3 PUSH2 0x1F0C JUMP JUMPDEST POP POP JUMPDEST POP POP POP JUMP JUMPDEST PUSH0 DUP3 DUP3 SHR SWAP1 POP SWAP3 SWAP2 POP POP JUMP JUMPDEST PUSH0 PUSH2 0x1F8F PUSH0 NOT DUP5 PUSH1 0x8 MUL PUSH2 0x1F74 JUMP JUMPDEST NOT DUP1 DUP4 AND SWAP2 POP POP SWAP3 SWAP2 POP POP JUMP JUMPDEST PUSH0 PUSH2 0x1FA7 DUP4 DUP4 PUSH2 0x1F80 JUMP JUMPDEST SWAP2 POP DUP3 PUSH1 0x2 MUL DUP3 OR SWAP1 POP SWAP3 SWAP2 POP POP JUMP JUMPDEST PUSH2 0x1FC0 DUP3 PUSH2 0x1930 JUMP JUMPDEST PUSH8 0xFFFFFFFFFFFFFFFF DUP2 GT ISZERO PUSH2 0x1FD9 JUMPI PUSH2 0x1FD8 PUSH2 0x16F5 JUMP JUMPDEST JUMPDEST PUSH2 0x1FE3 DUP3 SLOAD PUSH2 0x1DEA JUMP JUMPDEST PUSH2 0x1FEE DUP3 DUP3 DUP6 PUSH2 0x1F2E JUMP JUMPDEST PUSH0 PUSH1 0x20 SWAP1 POP PUSH1 0x1F DUP4 GT PUSH1 0x1 DUP2 EQ PUSH2 0x201F JUMPI PUSH0 DUP5 ISZERO PUSH2 0x200D JUMPI DUP3 DUP8 ADD MLOAD SWAP1 POP JUMPDEST PUSH2 0x2017 DUP6 DUP3 PUSH2 0x1F9C JUMP JUMPDEST DUP7 SSTORE POP PUSH2 0x207E JUMP JUMPDEST PUSH1 0x1F NOT DUP5 AND PUSH2 0x202D DUP7 PUSH2 0x1E1A JUMP JUMPDEST PUSH0 JUMPDEST DUP3 DUP2 LT ISZERO PUSH2 0x2054 JUMPI DUP5 DUP10 ADD MLOAD DUP3 SSTORE PUSH1 0x1 DUP3 ADD SWAP2 POP PUSH1 0x20 DUP6 ADD SWAP5 POP PUSH1 0x20 DUP2 ADD SWAP1 POP PUSH2 0x202F JUMP JUMPDEST DUP7 DUP4 LT ISZERO PUSH2 0x2071 JUMPI DUP5 DUP10 ADD MLOAD PUSH2 0x206D PUSH1 0x1F DUP10 AND DUP3 PUSH2 0x1F80 JUMP JUMPDEST DUP4 SSTORE POP JUMPDEST PUSH1 0x1 PUSH1 0x2 DUP9 MUL ADD DUP9 SSTORE POP POP POP JUMPDEST POP POP POP POP POP POP JUMP JUMPDEST PUSH32 0x566F74696E67206E6F7420696E2070726F67726573732E20596F752063616E20 PUSH0 DUP3 ADD MSTORE PUSH32 0x6E6F742064656C65746567617465206E6F772E00000000000000000000000000 PUSH1 0x20 DUP3 ADD MSTORE POP JUMP JUMPDEST PUSH0 PUSH2 0x20E0 PUSH1 0x33 DUP4 PUSH2 0x193A JUMP JUMPDEST SWAP2 POP PUSH2 0x20EB DUP3 PUSH2 0x2086 JUMP JUMPDEST PUSH1 0x40 DUP3 ADD SWAP1 POP SWAP2 SWAP1 POP JUMP JUMPDEST PUSH0 PUSH1 0x20 DUP3 ADD SWAP1 POP DUP2 DUP2 SUB PUSH0 DUP4 ADD MSTORE PUSH2 0x210D DUP2 PUSH2 0x20D4 JUMP JUMPDEST SWAP1 POP SWAP2 SWAP1 POP JUMP JUMPDEST PUSH32 0x4F6E6C792061646472657373206F776E65722063616E2064656C656761746520 PUSH0 DUP3 ADD MSTORE PUSH32 0x766F74696E672072696768747320746F20616E6F746865722061646472657373 PUSH1 0x20 DUP3 ADD MSTORE PUSH32 0x2E00000000000000000000000000000000000000000000000000000000000000 PUSH1 0x40 DUP3 ADD MSTORE POP JUMP JUMPDEST PUSH0 PUSH2 0x2194 PUSH1 0x41 DUP4 PUSH2 0x193A JUMP JUMPDEST SWAP2 POP PUSH2 0x219F DUP3 PUSH2 0x2114 JUMP JUMPDEST PUSH1 0x60 DUP3 ADD SWAP1 POP SWAP2 SWAP1 POP JUMP JUMPDEST PUSH0 PUSH1 0x20 DUP3 ADD SWAP1 POP DUP2 DUP2 SUB PUSH0 DUP4 ADD MSTORE PUSH2 0x21C1 DUP2 PUSH2 0x2188 JUMP JUMPDEST SWAP1 POP SWAP2 SWAP1 POP JUMP JUMPDEST PUSH32 0x596F752063616E206E6F742064656C656761746520766F74696E672072696768 PUSH0 DUP3 ADD MSTORE PUSH32 0x74732E20596F75206861766520616C726561647920766F7465642E0000000000 PUSH1 0x20 DUP3 ADD MSTORE POP JUMP JUMPDEST PUSH0 PUSH2 0x2222 PUSH1 0x3B DUP4 PUSH2 0x193A JUMP JUMPDEST SWAP2 POP PUSH2 0x222D DUP3 PUSH2 0x21C8 JUMP JUMPDEST PUSH1 0x40 DUP3 ADD SWAP1 POP SWAP2 SWAP1 POP JUMP JUMPDEST PUSH0 PUSH1 0x20 DUP3 ADD SWAP1 POP DUP2 DUP2 SUB PUSH0 DUP4 ADD MSTORE PUSH2 0x224F DUP2 PUSH2 0x2216 JUMP JUMPDEST SWAP1 POP SWAP2 SWAP1 POP JUMP JUMPDEST PUSH32 0x566F74696E67206E6F7420737461727465640000000000000000000000000000 PUSH0 DUP3 ADD MSTORE POP JUMP JUMPDEST PUSH0 PUSH2 0x228A PUSH1 0x12 DUP4 PUSH2 0x193A JUMP JUMPDEST SWAP2 POP PUSH2 0x2295 DUP3 PUSH2 0x2256 JUMP JUMPDEST PUSH1 0x20 DUP3 ADD SWAP1 POP SWAP2 SWAP1 POP JUMP JUMPDEST PUSH0 PUSH1 0x20 DUP3 ADD SWAP1 POP DUP2 DUP2 SUB PUSH0 DUP4 ADD MSTORE PUSH2 0x22B7 DUP2 PUSH2 0x227E JUMP JUMPDEST SWAP1 POP SWAP2 SWAP1 POP JUMP JUMPDEST PUSH32 0x766F74696E67206E6F7420737461727465640000000000000000000000000000 PUSH0 DUP3 ADD MSTORE POP JUMP JUMPDEST PUSH0 PUSH2 0x22F2 PUSH1 0x12 DUP4 PUSH2 0x193A JUMP JUMPDEST SWAP2 POP PUSH2 0x22FD DUP3 PUSH2 0x22BE JUMP JUMPDEST PUSH1 0x20 DUP3 ADD SWAP1 POP SWAP2 SWAP1 POP JUMP JUMPDEST PUSH0 PUSH1 0x20 DUP3 ADD SWAP1 POP DUP2 DUP2 SUB PUSH0 DUP4 ADD MSTORE PUSH2 0x231F DUP2 PUSH2 0x22E6 JUMP JUMPDEST SWAP1 POP SWAP2 SWAP1 POP JUMP JUMPDEST PUSH32 0x766F74696E6720656E6465640000000000000000000000000000000000000000 PUSH0 DUP3 ADD MSTORE POP JUMP JUMPDEST PUSH0 PUSH2 0x235A PUSH1 0xC DUP4 PUSH2 0x193A JUMP JUMPDEST SWAP2 POP PUSH2 0x2365 DUP3 PUSH2 0x2326 JUMP JUMPDEST PUSH1 0x20 DUP3 ADD SWAP1 POP SWAP2 SWAP1 POP JUMP JUMPDEST PUSH0 PUSH1 0x20 DUP3 ADD SWAP1 POP DUP2 DUP2 SUB PUSH0 DUP4 ADD MSTORE PUSH2 0x2387 DUP2 PUSH2 0x234E JUMP JUMPDEST SWAP1 POP SWAP2 SWAP1 POP JUMP JUMPDEST PUSH32 0x302063616E646964617465732072656769737465726564000000000000000000 PUSH0 DUP3 ADD MSTORE POP JUMP JUMPDEST PUSH0 PUSH2 0x23C2 PUSH1 0x17 DUP4 PUSH2 0x193A JUMP JUMPDEST SWAP2 POP PUSH2 0x23CD DUP3 PUSH2 0x238E JUMP JUMPDEST PUSH1 0x20 DUP3 ADD SWAP1 POP SWAP2 SWAP1 POP JUMP JUMPDEST PUSH0 PUSH1 0x20 DUP3 ADD SWAP1 POP DUP2 DUP2 SUB PUSH0 DUP4 ADD MSTORE PUSH2 0x23EF DUP2 PUSH2 0x23B6 JUMP JUMPDEST SWAP1 POP SWAP2 SWAP1 POP JUMP JUMPDEST PUSH32 0x63616E646964617465207769746820696420646F6573206E6F74206578697374 PUSH0 DUP3 ADD MSTORE POP JUMP JUMPDEST PUSH0 PUSH2 0x242A PUSH1 0x20 DUP4 PUSH2 0x193A JUMP JUMPDEST SWAP2 POP PUSH2 0x2435 DUP3 PUSH2 0x23F6 JUMP JUMPDEST PUSH1 0x20 DUP3 ADD SWAP1 POP SWAP2 SWAP1 POP JUMP JUMPDEST PUSH0 PUSH1 0x20 DUP3 ADD SWAP1 POP DUP2 DUP2 SUB PUSH0 DUP4 ADD MSTORE PUSH2 0x2457 DUP2 PUSH2 0x241E JUMP JUMPDEST SWAP1 POP SWAP2 SWAP1 POP JUMP JUMPDEST PUSH32 0x766F7465722077697468206164647265737320646F6573206E6F742065786973 PUSH0 DUP3 ADD MSTORE PUSH32 0x7400000000000000000000000000000000000000000000000000000000000000 PUSH1 0x20 DUP3 ADD MSTORE POP JUMP JUMPDEST PUSH0 PUSH2 0x24B8 PUSH1 0x21 DUP4 PUSH2 0x193A JUMP JUMPDEST SWAP2 POP PUSH2 0x24C3 DUP3 PUSH2 0x245E JUMP JUMPDEST PUSH1 0x40 DUP3 ADD SWAP1 POP SWAP2 SWAP1 POP JUMP JUMPDEST PUSH0 PUSH1 0x20 DUP3 ADD SWAP1 POP DUP2 DUP2 SUB PUSH0 DUP4 ADD MSTORE PUSH2 0x24E5 DUP2 PUSH2 0x24AC JUMP JUMPDEST SWAP1 POP SWAP2 SWAP1 POP JUMP JUMPDEST PUSH32 0x566F746520616C726561647920706C6163656400000000000000000000000000 PUSH0 DUP3 ADD MSTORE POP JUMP JUMPDEST PUSH0 PUSH2 0x2520 PUSH1 0x13 DUP4 PUSH2 0x193A JUMP JUMPDEST SWAP2 POP PUSH2 0x252B DUP3 PUSH2 0x24EC JUMP JUMPDEST PUSH1 0x20 DUP3 ADD SWAP1 POP SWAP2 SWAP1 POP JUMP JUMPDEST PUSH0 PUSH1 0x20 DUP3 ADD SWAP1 POP DUP2 DUP2 SUB PUSH0 DUP4 ADD MSTORE PUSH2 0x254D DUP2 PUSH2 0x2514 JUMP JUMPDEST SWAP1 POP SWAP2 SWAP1 POP JUMP JUMPDEST PUSH32 0x796F752063616E206E6F7420766F746500000000000000000000000000000000 PUSH0 DUP3 ADD MSTORE POP JUMP JUMPDEST PUSH0 PUSH2 0x2588 PUSH1 0x10 DUP4 PUSH2 0x193A JUMP JUMPDEST SWAP2 POP PUSH2 0x2593 DUP3 PUSH2 0x2554 JUMP JUMPDEST PUSH1 0x20 DUP3 ADD SWAP1 POP SWAP2 SWAP1 POP JUMP JUMPDEST PUSH0 PUSH1 0x20 DUP3 ADD SWAP1 POP DUP2 DUP2 SUB PUSH0 DUP4 ADD MSTORE PUSH2 0x25B5 DUP2 PUSH2 0x257C JUMP JUMPDEST SWAP1 POP SWAP2 SWAP1 POP JUMP JUMPDEST PUSH0 PUSH2 0x25C6 DUP3 PUSH2 0x18C3 JUMP JUMPDEST SWAP2 POP PUSH2 0x25D1 DUP4 PUSH2 0x18C3 JUMP JUMPDEST SWAP3 POP DUP3 DUP3 ADD SWAP1 POP DUP1 DUP3 GT ISZERO PUSH2 0x25E9 JUMPI PUSH2 0x25E8 PUSH2 0x1D49 JUMP JUMPDEST JUMPDEST SWAP3 SWAP2 POP POP JUMP JUMPDEST PUSH32 0x43616E646964617465207769746820696420646F6573206E6F74206578697374 PUSH0 DUP3 ADD MSTORE POP JUMP JUMPDEST PUSH0 PUSH2 0x2623 PUSH1 0x20 DUP4 PUSH2 0x193A JUMP JUMPDEST SWAP2 POP PUSH2 0x262E DUP3 PUSH2 0x25EF JUMP JUMPDEST PUSH1 0x20 DUP3 ADD SWAP1 POP SWAP2 SWAP1 POP JUMP JUMPDEST PUSH0 PUSH1 0x20 DUP3 ADD SWAP1 POP DUP2 DUP2 SUB PUSH0 DUP4 ADD MSTORE PUSH2 0x2650 DUP2 PUSH2 0x2617 JUMP JUMPDEST SWAP1 POP SWAP2 SWAP1 POP JUMP JUMPDEST PUSH32 0x3020766F74657273207265676973746572656400000000000000000000000000 PUSH0 DUP3 ADD MSTORE POP JUMP JUMPDEST PUSH0 PUSH2 0x268B PUSH1 0x13 DUP4 PUSH2 0x193A JUMP JUMPDEST SWAP2 POP PUSH2 0x2696 DUP3 PUSH2 0x2657 JUMP JUMPDEST PUSH1 0x20 DUP3 ADD SWAP1 POP SWAP2 SWAP1 POP JUMP JUMPDEST PUSH0 PUSH1 0x20 DUP3 ADD SWAP1 POP DUP2 DUP2 SUB PUSH0 DUP4 ADD MSTORE PUSH2 0x26B8 DUP2 PUSH2 0x267F JUMP JUMPDEST SWAP1 POP SWAP2 SWAP1 POP JUMP JUMPDEST PUSH1 0x3 DUP2 LT PUSH2 0x26D0 JUMPI PUSH2 0x26CF PUSH2 0x1C26 JUMP JUMPDEST JUMPDEST POP JUMP JUMPDEST PUSH0 DUP2 SWAP1 POP PUSH2 0x26E0 DUP3 PUSH2 0x26BF JUMP JUMPDEST SWAP2 SWAP1 POP JUMP JUMPDEST PUSH0 PUSH2 0x26EF DUP3 PUSH2 0x26D3 JUMP JUMPDEST SWAP1 POP SWAP2 SWAP1 POP JUMP JUMPDEST PUSH2 0x26FF DUP2 PUSH2 0x26E5 JUMP JUMPDEST DUP3 MSTORE POP POP JUMP JUMPDEST PUSH32 0x566F74696E67206F6E676F696E67000000000000000000000000000000000000 PUSH0 DUP3 ADD MSTORE POP JUMP JUMPDEST PUSH0 PUSH2 0x2739 PUSH1 0xE DUP4 PUSH2 0x193A JUMP JUMPDEST SWAP2 POP PUSH2 0x2744 DUP3 PUSH2 0x2705 JUMP JUMPDEST PUSH1 0x20 DUP3 ADD SWAP1 POP SWAP2 SWAP1 POP JUMP JUMPDEST PUSH0 PUSH1 0x40 DUP3 ADD SWAP1 POP PUSH2 0x2762 PUSH0 DUP4 ADD DUP5 PUSH2 0x26F6 JUMP JUMPDEST DUP2 DUP2 SUB PUSH1 0x20 DUP4 ADD MSTORE PUSH2 0x2773 DUP2 PUSH2 0x272D JUMP JUMPDEST SWAP1 POP SWAP3 SWAP2 POP POP JUMP JUMPDEST PUSH32 0x566F74696E6720636F6D706C6574656400000000000000000000000000000000 PUSH0 DUP3 ADD MSTORE POP JUMP JUMPDEST PUSH0 PUSH2 0x27AF PUSH1 0x10 DUP4 PUSH2 0x193A JUMP JUMPDEST SWAP2 POP PUSH2 0x27BA DUP3 PUSH2 0x277B JUMP JUMPDEST PUSH1 0x20 DUP3 ADD SWAP1 POP SWAP2 SWAP1 POP JUMP JUMPDEST PUSH0 PUSH1 0x40 DUP3 ADD SWAP1 POP PUSH2 0x27D8 PUSH0 DUP4 ADD DUP5 PUSH2 0x26F6 JUMP JUMPDEST DUP2 DUP2 SUB PUSH1 0x20 DUP4 ADD MSTORE PUSH2 0x27E9 DUP2 PUSH2 0x27A3 JUMP JUMPDEST SWAP1 POP SWAP3 SWAP2 POP POP JUMP INVALID LOG2 PUSH5 0x6970667358 0x22 SLT KECCAK256 0x49 PREVRANDAO SHL 0xE3 0xB5 0xFC 0xC9 0xB4 0xF6 ADD MSIZE SWAP10 ISZERO MUL 0xCF CALLCODE JUMP PUSH26 0xF802F4CC5600376DA488C527696D64736F6C6343000816003300 "
				},
				"gasEstimates": {
					"creation": {
						"codeDepositCost": "2055800",
						"executionCost": "60806",
						"totalCost": "2116606"
					},
					"external": {
						"addNewCandidate(string,string,address)": "infinite",
						"addNewVoter(address,string,address)": "infinite",
						"castVote(uint256,address)": "infinite",
						"delegateVotingRight(address,address)": "infinite",
						"displayCandidateDetails(uint256)": "infinite",
						"endElection()": "31231",
						"showElectionResults(uint256)": "infinite",
						"startElection(address)": "37948",
						"viewVoterDetails(address)": "infinite",
						"votingAdmin()": "2549"
					}
				},
				"methodIdentifiers": {
					"addNewCandidate(string,string,address)": "723309a0",
					"addNewVoter(address,string,address)": "3cdd97bf",
					"castVote(uint256,address)": "77df41b7",
					"delegateVotingRight(address,address)": "3d0af840",
					"displayCandidateDetails(uint256)": "a48292ce",
					"endElection()": "59f78468",
					"showElectionResults(uint256)": "4ad7b863",
					"startElection(address)": "e6a5e61d",
					"viewVoterDetails(address)": "f83bfa28",
					"votingAdmin()": "d45529f4"
				}
			},
			"storageLayout": {
				"storage": [
					{
						"astId": 3,
						"contract": "contracts/voting.sol:VotingSoftware",
						"label": "votingAdmin",
						"offset": 0,
						"slot": "0",
						"type": "t_address"
					},
					{
						"astId": 56,
						"contract": "contracts/voting.sol:VotingSoftware",
						"label": "status",
						"offset": 20,
						"slot": "0",
						"type": "t_enum(VotingStatus)51"
					},
					{
						"astId": 59,
						"contract": "contracts/voting.sol:VotingSoftware",
						"label": "candidateCount",
						"offset": 0,
						"slot": "1",
						"type": "t_uint256"
					},
					{
						"astId": 62,
						"contract": "contracts/voting.sol:VotingSoftware",
						"label": "voterCount",
						"offset": 0,
						"slot": "2",
						"type": "t_uint256"
					},
					{
						"astId": 67,
						"contract": "contracts/voting.sol:VotingSoftware",
						"label": "candidates",
						"offset": 0,
						"slot": "3",
						"type": "t_mapping(t_uint256,t_struct(Candidate)47_storage)"
					},
					{
						"astId": 72,
						"contract": "contracts/voting.sol:VotingSoftware",
						"label": "voters",
						"offset": 0,
						"slot": "4",
						"type": "t_mapping(t_address,t_struct(Voter)38_storage)"
					},
					{
						"astId": 76,
						"contract": "contracts/voting.sol:VotingSoftware",
						"label": "voteCounts",
						"offset": 0,
						"slot": "5",
						"type": "t_mapping(t_uint256,t_uint256)"
					}
				],
				"types": {
					"t_address": {
						"encoding": "inplace",
						"label": "address",
						"numberOfBytes": "20"
					},
					"t_bool": {
						"encoding": "inplace",
						"label": "bool",
						"numberOfBytes": "1"
					},
					"t_enum(VotingStatus)51": {
						"encoding": "inplace",
						"label": "enum VotingSoftware.VotingStatus",
						"numberOfBytes": "1"
					},
					"t_mapping(t_address,t_struct(Voter)38_storage)": {
						"encoding": "mapping",
						"key": "t_address",
						"label": "mapping(address => struct VotingSoftware.Voter)",
						"numberOfBytes": "32",
						"value": "t_struct(Voter)38_storage"
					},
					"t_mapping(t_uint256,t_struct(Candidate)47_storage)": {
						"encoding": "mapping",
						"key": "t_uint256",
						"label": "mapping(uint256 => struct VotingSoftware.Candidate)",
						"numberOfBytes": "32",
						"value": "t_struct(Candidate)47_storage"
					},
					"t_mapping(t_uint256,t_uint256)": {
						"encoding": "mapping",
						"key": "t_uint256",
						"label": "mapping(uint256 => uint256)",
						"numberOfBytes": "32",
						"value": "t_uint256"
					},
					"t_string_storage": {
						"encoding": "bytes",
						"label": "string",
						"numberOfBytes": "32"
					},
					"t_struct(Candidate)47_storage": {
						"encoding": "inplace",
						"label": "struct VotingSoftware.Candidate",
						"members": [
							{
								"astId": 40,
								"contract": "contracts/voting.sol:VotingSoftware",
								"label": "id",
								"offset": 0,
								"slot": "0",
								"type": "t_uint256"
							},
							{
								"astId": 42,
								"contract": "contracts/voting.sol:VotingSoftware",
								"label": "name",
								"offset": 0,
								"slot": "1",
								"type": "t_string_storage"
							},
							{
								"astId": 44,
								"contract": "contracts/voting.sol:VotingSoftware",
								"label": "proposal",
								"offset": 0,
								"slot": "2",
								"type": "t_string_storage"
							},
							{
								"astId": 46,
								"contract": "contracts/voting.sol:VotingSoftware",
								"label": "flag",
								"offset": 0,
								"slot": "3",
								"type": "t_bool"
							}
						],
						"numberOfBytes": "128"
					},
					"t_struct(Voter)38_storage": {
						"encoding": "inplace",
						"label": "struct VotingSoftware.Voter",
						"members": [
							{
								"astId": 25,
								"contract": "contracts/voting.sol:VotingSoftware",
								"label": "id",
								"offset": 0,
								"slot": "0",
								"type": "t_uint256"
							},
							{
								"astId": 27,
								"contract": "contracts/voting.sol:VotingSoftware",
								"label": "name",
								"offset": 0,
								"slot": "1",
								"type": "t_string_storage"
							},
							{
								"astId": 29,
								"contract": "contracts/voting.sol:VotingSoftware",
								"label": "addressVoter",
								"offset": 0,
								"slot": "2",
								"type": "t_address"
							},
							{
								"astId": 31,
								"contract": "contracts/voting.sol:VotingSoftware",
								"label": "delegatedTo",
								"offset": 0,
								"slot": "3",
								"type": "t_address"
							},
							{
								"astId": 33,
								"contract": "contracts/voting.sol:VotingSoftware",
								"label": "hasVoted",
								"offset": 20,
								"slot": "3",
								"type": "t_bool"
							},
							{
								"astId": 35,
								"contract": "contracts/voting.sol:VotingSoftware",
								"label": "cadidateId",
								"offset": 0,
								"slot": "4",
								"type": "t_uint256"
							},
							{
								"astId": 37,
								"contract": "contracts/voting.sol:VotingSoftware",
								"label": "flag",
								"offset": 0,
								"slot": "5",
								"type": "t_bool"
							}
						],
						"numberOfBytes": "192"
					},
					"t_uint256": {
						"encoding": "inplace",
						"label": "uint256",
						"numberOfBytes": "32"
					}
				}
			},
			"userdoc": {
				"kind": "user",
				"methods": {},
				"version": 1
			}
		}
	}
}