{
	"contracts/errorhandling.sol": {
		"errorhandlingSample": {
			"abi": [
				{
					"inputs": [
						{
							"internalType": "uint256",
							"name": "_amount",
							"type": "uint256"
						}
					],
					"name": "deductBal",
					"outputs": [
						{
							"internalType": "uint256",
							"name": "",
							"type": "uint256"
						}
					],
					"stateMutability": "nonpayable",
					"type": "function"
				},
				{
					"inputs": [
						{
							"internalType": "uint256",
							"name": "_amount",
							"type": "uint256"
						}
					],
					"name": "deductBal1",
					"outputs": [
						{
							"internalType": "uint256",
							"name": "",
							"type": "uint256"
						}
					],
					"stateMutability": "nonpayable",
					"type": "function"
				},
				{
					"inputs": [
						{
							"internalType": "uint256",
							"name": "_amount",
							"type": "uint256"
						}
					],
					"name": "deductBal2",
					"outputs": [
						{
							"internalType": "uint256",
							"name": "",
							"type": "uint256"
						}
					],
					"stateMutability": "nonpayable",
					"type": "function"
				}
			],
			"devdoc": {
				"kind": "dev",
				"methods": {},
				"version": 1
			},
			"evm": {
				"assembly": "    /* \"contracts/errorhandling.sol\":26:641  contract errorhandlingSample{... */\n  mstore(0x40, 0x80)\n    /* \"contracts/errorhandling.sol\":75:78  100 */\n  0x64\n    /* \"contracts/errorhandling.sol\":61:78  uint balance =100 */\n  0x00\n  sstore\n    /* \"contracts/errorhandling.sol\":26:641  contract errorhandlingSample{... */\n  callvalue\n  dup1\n  iszero\n  tag_1\n  jumpi\n  0x00\n  dup1\n  revert\ntag_1:\n  pop\n  dataSize(sub_0)\n  dup1\n  dataOffset(sub_0)\n  0x00\n  codecopy\n  0x00\n  return\nstop\n\nsub_0: assembly {\n        /* \"contracts/errorhandling.sol\":26:641  contract errorhandlingSample{... */\n      mstore(0x40, 0x80)\n      callvalue\n      dup1\n      iszero\n      tag_1\n      jumpi\n      0x00\n      dup1\n      revert\n    tag_1:\n      pop\n      jumpi(tag_2, lt(calldatasize, 0x04))\n      shr(0xe0, calldataload(0x00))\n      dup1\n      0x75da99fc\n      eq\n      tag_3\n      jumpi\n      dup1\n      0x92f75cd7\n      eq\n      tag_4\n      jumpi\n      dup1\n      0xa39dc6c7\n      eq\n      tag_5\n      jumpi\n    tag_2:\n      0x00\n      dup1\n      revert\n        /* \"contracts/errorhandling.sol\":298:478  function deductBal1(uint _amount) public returns(uint){... */\n    tag_3:\n      tag_6\n      0x04\n      dup1\n      calldatasize\n      sub\n      dup2\n      add\n      swap1\n      tag_7\n      swap2\n      swap1\n      tag_8\n      jump\t// in\n    tag_7:\n      tag_9\n      jump\t// in\n    tag_6:\n      mload(0x40)\n      tag_10\n      swap2\n      swap1\n      tag_11\n      jump\t// in\n    tag_10:\n      mload(0x40)\n      dup1\n      swap2\n      sub\n      swap1\n      return\n        /* \"contracts/errorhandling.sol\":483:634  function deductBal2(uint _amount) public returns(uint){... */\n    tag_4:\n      tag_12\n      0x04\n      dup1\n      calldatasize\n      sub\n      dup2\n      add\n      swap1\n      tag_13\n      swap2\n      swap1\n      tag_8\n      jump\t// in\n    tag_13:\n      tag_14\n      jump\t// in\n    tag_12:\n      mload(0x40)\n      tag_15\n      swap2\n      swap1\n      tag_11\n      jump\t// in\n    tag_15:\n      mload(0x40)\n      dup1\n      swap2\n      sub\n      swap1\n      return\n        /* \"contracts/errorhandling.sol\":85:292  function deductBal(uint _amount) public returns(uint){... */\n    tag_5:\n      tag_16\n      0x04\n      dup1\n      calldatasize\n      sub\n      dup2\n      add\n      swap1\n      tag_17\n      swap2\n      swap1\n      tag_8\n      jump\t// in\n    tag_17:\n      tag_18\n      jump\t// in\n    tag_16:\n      mload(0x40)\n      tag_19\n      swap2\n      swap1\n      tag_11\n      jump\t// in\n    tag_19:\n      mload(0x40)\n      dup1\n      swap2\n      sub\n      swap1\n      return\n        /* \"contracts/errorhandling.sol\":298:478  function deductBal1(uint _amount) public returns(uint){... */\n    tag_9:\n        /* \"contracts/errorhandling.sol\":347:351  uint */\n      0x00\n        /* \"contracts/errorhandling.sol\":378:379  1 */\n      0x01\n        /* \"contracts/errorhandling.sol\":370:377  _amount */\n      dup3\n        /* \"contracts/errorhandling.sol\":370:379  _amount>1 */\n      gt\n        /* \"contracts/errorhandling.sol\":362:408  require(_amount>1,\"Input amount is not valid\") */\n      tag_21\n      jumpi\n      mload(0x40)\n      0x08c379a000000000000000000000000000000000000000000000000000000000\n      dup2\n      mstore\n      0x04\n      add\n      tag_22\n      swap1\n      tag_23\n      jump\t// in\n    tag_22:\n      mload(0x40)\n      dup1\n      swap2\n      sub\n      swap1\n      revert\n    tag_21:\n        /* \"contracts/errorhandling.sol\":436:443  _amount */\n      dup2\n        /* \"contracts/errorhandling.sol\":426:433  balance */\n      sload(0x00)\n        /* \"contracts/errorhandling.sol\":426:443  balance - _amount */\n      tag_24\n      swap2\n      swap1\n      tag_25\n      jump\t// in\n    tag_24:\n        /* \"contracts/errorhandling.sol\":418:425  balance */\n      0x00\n        /* \"contracts/errorhandling.sol\":418:443  balance=balance - _amount */\n      dup2\n      swap1\n      sstore\n      pop\n        /* \"contracts/errorhandling.sol\":460:467  balance */\n      sload(0x00)\n        /* \"contracts/errorhandling.sol\":453:467  return balance */\n      swap1\n      pop\n        /* \"contracts/errorhandling.sol\":298:478  function deductBal1(uint _amount) public returns(uint){... */\n      swap2\n      swap1\n      pop\n      jump\t// out\n        /* \"contracts/errorhandling.sol\":483:634  function deductBal2(uint _amount) public returns(uint){... */\n    tag_14:\n        /* \"contracts/errorhandling.sol\":532:536  uint */\n      0x00\n        /* \"contracts/errorhandling.sol\":562:563  1 */\n      0x01\n        /* \"contracts/errorhandling.sol\":554:561  _amount */\n      dup3\n        /* \"contracts/errorhandling.sol\":554:563  _amount>1 */\n      gt\n        /* \"contracts/errorhandling.sol\":547:564  assert(_amount>1) */\n      tag_27\n      jumpi\n      tag_28\n      tag_29\n      jump\t// in\n    tag_28:\n    tag_27:\n        /* \"contracts/errorhandling.sol\":592:599  _amount */\n      dup2\n        /* \"contracts/errorhandling.sol\":582:589  balance */\n      sload(0x00)\n        /* \"contracts/errorhandling.sol\":582:599  balance - _amount */\n      tag_30\n      swap2\n      swap1\n      tag_25\n      jump\t// in\n    tag_30:\n        /* \"contracts/errorhandling.sol\":574:581  balance */\n      0x00\n        /* \"contracts/errorhandling.sol\":574:599  balance=balance - _amount */\n      dup2\n      swap1\n      sstore\n      pop\n        /* \"contracts/errorhandling.sol\":616:623  balance */\n      sload(0x00)\n        /* \"contracts/errorhandling.sol\":609:623  return balance */\n      swap1\n      pop\n        /* \"contracts/errorhandling.sol\":483:634  function deductBal2(uint _amount) public returns(uint){... */\n      swap2\n      swap1\n      pop\n      jump\t// out\n        /* \"contracts/errorhandling.sol\":85:292  function deductBal(uint _amount) public returns(uint){... */\n    tag_18:\n        /* \"contracts/errorhandling.sol\":133:137  uint */\n      0x00\n        /* \"contracts/errorhandling.sol\":161:162  2 */\n      0x02\n        /* \"contracts/errorhandling.sol\":151:158  _amount */\n      dup3\n        /* \"contracts/errorhandling.sol\":151:162  _amount < 2 */\n      lt\n        /* \"contracts/errorhandling.sol\":148:223  if(_amount < 2){... */\n      iszero\n      tag_32\n      jumpi\n        /* \"contracts/errorhandling.sol\":177:212  revert(\"Input amount is not valid\") */\n      mload(0x40)\n      0x08c379a000000000000000000000000000000000000000000000000000000000\n      dup2\n      mstore\n      0x04\n      add\n      tag_33\n      swap1\n      tag_23\n      jump\t// in\n    tag_33:\n      mload(0x40)\n      dup1\n      swap2\n      sub\n      swap1\n      revert\n        /* \"contracts/errorhandling.sol\":148:223  if(_amount < 2){... */\n    tag_32:\n        /* \"contracts/errorhandling.sol\":250:257  _amount */\n      dup2\n        /* \"contracts/errorhandling.sol\":240:247  balance */\n      sload(0x00)\n        /* \"contracts/errorhandling.sol\":240:257  balance - _amount */\n      tag_34\n      swap2\n      swap1\n      tag_25\n      jump\t// in\n    tag_34:\n        /* \"contracts/errorhandling.sol\":232:239  balance */\n      0x00\n        /* \"contracts/errorhandling.sol\":232:257  balance=balance - _amount */\n      dup2\n      swap1\n      sstore\n      pop\n        /* \"contracts/errorhandling.sol\":274:281  balance */\n      sload(0x00)\n        /* \"contracts/errorhandling.sol\":267:281  return balance */\n      swap1\n      pop\n        /* \"contracts/errorhandling.sol\":85:292  function deductBal(uint _amount) public returns(uint){... */\n      swap2\n      swap1\n      pop\n      jump\t// out\n        /* \"#utility.yul\":88:205   */\n    tag_36:\n        /* \"#utility.yul\":197:198   */\n      0x00\n        /* \"#utility.yul\":194:195   */\n      dup1\n        /* \"#utility.yul\":187:199   */\n      revert\n        /* \"#utility.yul\":334:411   */\n    tag_38:\n        /* \"#utility.yul\":371:378   */\n      0x00\n        /* \"#utility.yul\":400:405   */\n      dup2\n        /* \"#utility.yul\":389:405   */\n      swap1\n      pop\n        /* \"#utility.yul\":334:411   */\n      swap2\n      swap1\n      pop\n      jump\t// out\n        /* \"#utility.yul\":417:539   */\n    tag_39:\n        /* \"#utility.yul\":490:514   */\n      tag_52\n        /* \"#utility.yul\":508:513   */\n      dup2\n        /* \"#utility.yul\":490:514   */\n      tag_38\n      jump\t// in\n    tag_52:\n        /* \"#utility.yul\":483:488   */\n      dup2\n        /* \"#utility.yul\":480:515   */\n      eq\n        /* \"#utility.yul\":470:533   */\n      tag_53\n      jumpi\n        /* \"#utility.yul\":529:530   */\n      0x00\n        /* \"#utility.yul\":526:527   */\n      dup1\n        /* \"#utility.yul\":519:531   */\n      revert\n        /* \"#utility.yul\":470:533   */\n    tag_53:\n        /* \"#utility.yul\":417:539   */\n      pop\n      jump\t// out\n        /* \"#utility.yul\":545:684   */\n    tag_40:\n        /* \"#utility.yul\":591:596   */\n      0x00\n        /* \"#utility.yul\":629:635   */\n      dup2\n        /* \"#utility.yul\":616:636   */\n      calldataload\n        /* \"#utility.yul\":607:636   */\n      swap1\n      pop\n        /* \"#utility.yul\":645:678   */\n      tag_55\n        /* \"#utility.yul\":672:677   */\n      dup2\n        /* \"#utility.yul\":645:678   */\n      tag_39\n      jump\t// in\n    tag_55:\n        /* \"#utility.yul\":545:684   */\n      swap3\n      swap2\n      pop\n      pop\n      jump\t// out\n        /* \"#utility.yul\":690:1019   */\n    tag_8:\n        /* \"#utility.yul\":749:755   */\n      0x00\n        /* \"#utility.yul\":798:800   */\n      0x20\n        /* \"#utility.yul\":786:795   */\n      dup3\n        /* \"#utility.yul\":777:784   */\n      dup5\n        /* \"#utility.yul\":773:796   */\n      sub\n        /* \"#utility.yul\":769:801   */\n      slt\n        /* \"#utility.yul\":766:885   */\n      iszero\n      tag_57\n      jumpi\n        /* \"#utility.yul\":804:883   */\n      tag_58\n      tag_36\n      jump\t// in\n    tag_58:\n        /* \"#utility.yul\":766:885   */\n    tag_57:\n        /* \"#utility.yul\":924:925   */\n      0x00\n        /* \"#utility.yul\":949:1002   */\n      tag_59\n        /* \"#utility.yul\":994:1001   */\n      dup5\n        /* \"#utility.yul\":985:991   */\n      dup3\n        /* \"#utility.yul\":974:983   */\n      dup6\n        /* \"#utility.yul\":970:992   */\n      add\n        /* \"#utility.yul\":949:1002   */\n      tag_40\n      jump\t// in\n    tag_59:\n        /* \"#utility.yul\":939:1002   */\n      swap2\n      pop\n        /* \"#utility.yul\":895:1012   */\n      pop\n        /* \"#utility.yul\":690:1019   */\n      swap3\n      swap2\n      pop\n      pop\n      jump\t// out\n        /* \"#utility.yul\":1025:1143   */\n    tag_41:\n        /* \"#utility.yul\":1112:1136   */\n      tag_61\n        /* \"#utility.yul\":1130:1135   */\n      dup2\n        /* \"#utility.yul\":1112:1136   */\n      tag_38\n      jump\t// in\n    tag_61:\n        /* \"#utility.yul\":1107:1110   */\n      dup3\n        /* \"#utility.yul\":1100:1137   */\n      mstore\n        /* \"#utility.yul\":1025:1143   */\n      pop\n      pop\n      jump\t// out\n        /* \"#utility.yul\":1149:1371   */\n    tag_11:\n        /* \"#utility.yul\":1242:1246   */\n      0x00\n        /* \"#utility.yul\":1280:1282   */\n      0x20\n        /* \"#utility.yul\":1269:1278   */\n      dup3\n        /* \"#utility.yul\":1265:1283   */\n      add\n        /* \"#utility.yul\":1257:1283   */\n      swap1\n      pop\n        /* \"#utility.yul\":1293:1364   */\n      tag_63\n        /* \"#utility.yul\":1361:1362   */\n      0x00\n        /* \"#utility.yul\":1350:1359   */\n      dup4\n        /* \"#utility.yul\":1346:1363   */\n      add\n        /* \"#utility.yul\":1337:1343   */\n      dup5\n        /* \"#utility.yul\":1293:1364   */\n      tag_41\n      jump\t// in\n    tag_63:\n        /* \"#utility.yul\":1149:1371   */\n      swap3\n      swap2\n      pop\n      pop\n      jump\t// out\n        /* \"#utility.yul\":1377:1546   */\n    tag_42:\n        /* \"#utility.yul\":1461:1472   */\n      0x00\n        /* \"#utility.yul\":1495:1501   */\n      dup3\n        /* \"#utility.yul\":1490:1493   */\n      dup3\n        /* \"#utility.yul\":1483:1502   */\n      mstore\n        /* \"#utility.yul\":1535:1539   */\n      0x20\n        /* \"#utility.yul\":1530:1533   */\n      dup3\n        /* \"#utility.yul\":1526:1540   */\n      add\n        /* \"#utility.yul\":1511:1540   */\n      swap1\n      pop\n        /* \"#utility.yul\":1377:1546   */\n      swap3\n      swap2\n      pop\n      pop\n      jump\t// out\n        /* \"#utility.yul\":1552:1727   */\n    tag_43:\n        /* \"#utility.yul\":1692:1719   */\n      0x496e70757420616d6f756e74206973206e6f742076616c696400000000000000\n        /* \"#utility.yul\":1688:1689   */\n      0x00\n        /* \"#utility.yul\":1680:1686   */\n      dup3\n        /* \"#utility.yul\":1676:1690   */\n      add\n        /* \"#utility.yul\":1669:1720   */\n      mstore\n        /* \"#utility.yul\":1552:1727   */\n      pop\n      jump\t// out\n        /* \"#utility.yul\":1733:2099   */\n    tag_44:\n        /* \"#utility.yul\":1875:1878   */\n      0x00\n        /* \"#utility.yul\":1896:1963   */\n      tag_67\n        /* \"#utility.yul\":1960:1962   */\n      0x19\n        /* \"#utility.yul\":1955:1958   */\n      dup4\n        /* \"#utility.yul\":1896:1963   */\n      tag_42\n      jump\t// in\n    tag_67:\n        /* \"#utility.yul\":1889:1963   */\n      swap2\n      pop\n        /* \"#utility.yul\":1972:2065   */\n      tag_68\n        /* \"#utility.yul\":2061:2064   */\n      dup3\n        /* \"#utility.yul\":1972:2065   */\n      tag_43\n      jump\t// in\n    tag_68:\n        /* \"#utility.yul\":2090:2092   */\n      0x20\n        /* \"#utility.yul\":2085:2088   */\n      dup3\n        /* \"#utility.yul\":2081:2093   */\n      add\n        /* \"#utility.yul\":2074:2093   */\n      swap1\n      pop\n        /* \"#utility.yul\":1733:2099   */\n      swap2\n      swap1\n      pop\n      jump\t// out\n        /* \"#utility.yul\":2105:2524   */\n    tag_23:\n        /* \"#utility.yul\":2271:2275   */\n      0x00\n        /* \"#utility.yul\":2309:2311   */\n      0x20\n        /* \"#utility.yul\":2298:2307   */\n      dup3\n        /* \"#utility.yul\":2294:2312   */\n      add\n        /* \"#utility.yul\":2286:2312   */\n      swap1\n      pop\n        /* \"#utility.yul\":2358:2367   */\n      dup2\n        /* \"#utility.yul\":2352:2356   */\n      dup2\n        /* \"#utility.yul\":2348:2368   */\n      sub\n        /* \"#utility.yul\":2344:2345   */\n      0x00\n        /* \"#utility.yul\":2333:2342   */\n      dup4\n        /* \"#utility.yul\":2329:2346   */\n      add\n        /* \"#utility.yul\":2322:2369   */\n      mstore\n        /* \"#utility.yul\":2386:2517   */\n      tag_70\n        /* \"#utility.yul\":2512:2516   */\n      dup2\n        /* \"#utility.yul\":2386:2517   */\n      tag_44\n      jump\t// in\n    tag_70:\n        /* \"#utility.yul\":2378:2517   */\n      swap1\n      pop\n        /* \"#utility.yul\":2105:2524   */\n      swap2\n      swap1\n      pop\n      jump\t// out\n        /* \"#utility.yul\":2530:2710   */\n    tag_45:\n        /* \"#utility.yul\":2578:2655   */\n      0x4e487b7100000000000000000000000000000000000000000000000000000000\n        /* \"#utility.yul\":2575:2576   */\n      0x00\n        /* \"#utility.yul\":2568:2656   */\n      mstore\n        /* \"#utility.yul\":2675:2679   */\n      0x11\n        /* \"#utility.yul\":2672:2673   */\n      0x04\n        /* \"#utility.yul\":2665:2680   */\n      mstore\n        /* \"#utility.yul\":2699:2703   */\n      0x24\n        /* \"#utility.yul\":2696:2697   */\n      0x00\n        /* \"#utility.yul\":2689:2704   */\n      revert\n        /* \"#utility.yul\":2716:2910   */\n    tag_25:\n        /* \"#utility.yul\":2756:2760   */\n      0x00\n        /* \"#utility.yul\":2776:2796   */\n      tag_73\n        /* \"#utility.yul\":2794:2795   */\n      dup3\n        /* \"#utility.yul\":2776:2796   */\n      tag_38\n      jump\t// in\n    tag_73:\n        /* \"#utility.yul\":2771:2796   */\n      swap2\n      pop\n        /* \"#utility.yul\":2810:2830   */\n      tag_74\n        /* \"#utility.yul\":2828:2829   */\n      dup4\n        /* \"#utility.yul\":2810:2830   */\n      tag_38\n      jump\t// in\n    tag_74:\n        /* \"#utility.yul\":2805:2830   */\n      swap3\n      pop\n        /* \"#utility.yul\":2854:2855   */\n      dup3\n        /* \"#utility.yul\":2851:2852   */\n      dup3\n        /* \"#utility.yul\":2847:2856   */\n      sub\n        /* \"#utility.yul\":2839:2856   */\n      swap1\n      pop\n        /* \"#utility.yul\":2878:2879   */\n      dup2\n        /* \"#utility.yul\":2872:2876   */\n      dup2\n        /* \"#utility.yul\":2869:2880   */\n      gt\n        /* \"#utility.yul\":2866:2903   */\n      iszero\n      tag_75\n      jumpi\n        /* \"#utility.yul\":2883:2901   */\n      tag_76\n      tag_45\n      jump\t// in\n    tag_76:\n        /* \"#utility.yul\":2866:2903   */\n    tag_75:\n        /* \"#utility.yul\":2716:2910   */\n      swap3\n      swap2\n      pop\n      pop\n      jump\t// out\n        /* \"#utility.yul\":2916:3096   */\n    tag_29:\n        /* \"#utility.yul\":2964:3041   */\n      0x4e487b7100000000000000000000000000000000000000000000000000000000\n        /* \"#utility.yul\":2961:2962   */\n      0x00\n        /* \"#utility.yul\":2954:3042   */\n      mstore\n        /* \"#utility.yul\":3061:3065   */\n      0x01\n        /* \"#utility.yul\":3058:3059   */\n      0x04\n        /* \"#utility.yul\":3051:3066   */\n      mstore\n        /* \"#utility.yul\":3085:3089   */\n      0x24\n        /* \"#utility.yul\":3082:3083   */\n      0x00\n        /* \"#utility.yul\":3075:3090   */\n      revert\n\n    auxdata: 0xa2646970667358221220e75991969193fe51bc11d3f84b1d8b1c7b886b411a9f5be9eb647479762e510864736f6c63430008160033\n}\n",
				"bytecode": {
					"linkReferences": {},
					"object": "608060405260645f55348015610013575f80fd5b50610384806100215f395ff3fe608060405234801561000f575f80fd5b506004361061003f575f3560e01c806375da99fc1461004357806392f75cd714610073578063a39dc6c7146100a3575b5f80fd5b61005d600480360381019061005891906101f6565b6100d3565b60405161006a9190610230565b60405180910390f35b61008d600480360381019061008891906101f6565b610132565b60405161009a9190610230565b60405180910390f35b6100bd60048036038101906100b891906101f6565b61015f565b6040516100ca9190610230565b60405180910390f35b5f60018211610117576040517f08c379a000000000000000000000000000000000000000000000000000000000815260040161010e906102a3565b60405180910390fd5b815f5461012491906102ee565b5f819055505f549050919050565b5f6001821161014457610143610321565b5b815f5461015191906102ee565b5f819055505f549050919050565b5f60028210156101a4576040517f08c379a000000000000000000000000000000000000000000000000000000000815260040161019b906102a3565b60405180910390fd5b815f546101b191906102ee565b5f819055505f549050919050565b5f80fd5b5f819050919050565b6101d5816101c3565b81146101df575f80fd5b50565b5f813590506101f0816101cc565b92915050565b5f6020828403121561020b5761020a6101bf565b5b5f610218848285016101e2565b91505092915050565b61022a816101c3565b82525050565b5f6020820190506102435f830184610221565b92915050565b5f82825260208201905092915050565b7f496e70757420616d6f756e74206973206e6f742076616c6964000000000000005f82015250565b5f61028d601983610249565b915061029882610259565b602082019050919050565b5f6020820190508181035f8301526102ba81610281565b9050919050565b7f4e487b71000000000000000000000000000000000000000000000000000000005f52601160045260245ffd5b5f6102f8826101c3565b9150610303836101c3565b925082820390508181111561031b5761031a6102c1565b5b92915050565b7f4e487b71000000000000000000000000000000000000000000000000000000005f52600160045260245ffdfea2646970667358221220e75991969193fe51bc11d3f84b1d8b1c7b886b411a9f5be9eb647479762e510864736f6c63430008160033",
					"opcodes": "PUSH1 0x80 PUSH1 0x40 MSTORE PUSH1 0x64 PUSH0 SSTORE CALLVALUE DUP1 ISZERO PUSH2 0x13 JUMPI PUSH0 DUP1 REVERT JUMPDEST POP PUSH2 0x384 DUP1 PUSH2 0x21 PUSH0 CODECOPY PUSH0 RETURN INVALID PUSH1 0x80 PUSH1 0x40 MSTORE CALLVALUE DUP1 ISZERO PUSH2 0xF JUMPI PUSH0 DUP1 REVERT JUMPDEST POP PUSH1 0x4 CALLDATASIZE LT PUSH2 0x3F JUMPI PUSH0 CALLDATALOAD PUSH1 0xE0 SHR DUP1 PUSH4 0x75DA99FC EQ PUSH2 0x43 JUMPI DUP1 PUSH4 0x92F75CD7 EQ PUSH2 0x73 JUMPI DUP1 PUSH4 0xA39DC6C7 EQ PUSH2 0xA3 JUMPI JUMPDEST PUSH0 DUP1 REVERT JUMPDEST PUSH2 0x5D PUSH1 0x4 DUP1 CALLDATASIZE SUB DUP2 ADD SWAP1 PUSH2 0x58 SWAP2 SWAP1 PUSH2 0x1F6 JUMP JUMPDEST PUSH2 0xD3 JUMP JUMPDEST PUSH1 0x40 MLOAD PUSH2 0x6A SWAP2 SWAP1 PUSH2 0x230 JUMP JUMPDEST PUSH1 0x40 MLOAD DUP1 SWAP2 SUB SWAP1 RETURN JUMPDEST PUSH2 0x8D PUSH1 0x4 DUP1 CALLDATASIZE SUB DUP2 ADD SWAP1 PUSH2 0x88 SWAP2 SWAP1 PUSH2 0x1F6 JUMP JUMPDEST PUSH2 0x132 JUMP JUMPDEST PUSH1 0x40 MLOAD PUSH2 0x9A SWAP2 SWAP1 PUSH2 0x230 JUMP JUMPDEST PUSH1 0x40 MLOAD DUP1 SWAP2 SUB SWAP1 RETURN JUMPDEST PUSH2 0xBD PUSH1 0x4 DUP1 CALLDATASIZE SUB DUP2 ADD SWAP1 PUSH2 0xB8 SWAP2 SWAP1 PUSH2 0x1F6 JUMP JUMPDEST PUSH2 0x15F JUMP JUMPDEST PUSH1 0x40 MLOAD PUSH2 0xCA SWAP2 SWAP1 PUSH2 0x230 JUMP JUMPDEST PUSH1 0x40 MLOAD DUP1 SWAP2 SUB SWAP1 RETURN JUMPDEST PUSH0 PUSH1 0x1 DUP3 GT PUSH2 0x117 JUMPI PUSH1 0x40 MLOAD PUSH32 0x8C379A000000000000000000000000000000000000000000000000000000000 DUP2 MSTORE PUSH1 0x4 ADD PUSH2 0x10E SWAP1 PUSH2 0x2A3 JUMP JUMPDEST PUSH1 0x40 MLOAD DUP1 SWAP2 SUB SWAP1 REVERT JUMPDEST DUP2 PUSH0 SLOAD PUSH2 0x124 SWAP2 SWAP1 PUSH2 0x2EE JUMP JUMPDEST PUSH0 DUP2 SWAP1 SSTORE POP PUSH0 SLOAD SWAP1 POP SWAP2 SWAP1 POP JUMP JUMPDEST PUSH0 PUSH1 0x1 DUP3 GT PUSH2 0x144 JUMPI PUSH2 0x143 PUSH2 0x321 JUMP JUMPDEST JUMPDEST DUP2 PUSH0 SLOAD PUSH2 0x151 SWAP2 SWAP1 PUSH2 0x2EE JUMP JUMPDEST PUSH0 DUP2 SWAP1 SSTORE POP PUSH0 SLOAD SWAP1 POP SWAP2 SWAP1 POP JUMP JUMPDEST PUSH0 PUSH1 0x2 DUP3 LT ISZERO PUSH2 0x1A4 JUMPI PUSH1 0x40 MLOAD PUSH32 0x8C379A000000000000000000000000000000000000000000000000000000000 DUP2 MSTORE PUSH1 0x4 ADD PUSH2 0x19B SWAP1 PUSH2 0x2A3 JUMP JUMPDEST PUSH1 0x40 MLOAD DUP1 SWAP2 SUB SWAP1 REVERT JUMPDEST DUP2 PUSH0 SLOAD PUSH2 0x1B1 SWAP2 SWAP1 PUSH2 0x2EE JUMP JUMPDEST PUSH0 DUP2 SWAP1 SSTORE POP PUSH0 SLOAD SWAP1 POP SWAP2 SWAP1 POP JUMP JUMPDEST PUSH0 DUP1 REVERT JUMPDEST PUSH0 DUP2 SWAP1 POP SWAP2 SWAP1 POP JUMP JUMPDEST PUSH2 0x1D5 DUP2 PUSH2 0x1C3 JUMP JUMPDEST DUP2 EQ PUSH2 0x1DF JUMPI PUSH0 DUP1 REVERT JUMPDEST POP JUMP JUMPDEST PUSH0 DUP2 CALLDATALOAD SWAP1 POP PUSH2 0x1F0 DUP2 PUSH2 0x1CC JUMP JUMPDEST SWAP3 SWAP2 POP POP JUMP JUMPDEST PUSH0 PUSH1 0x20 DUP3 DUP5 SUB SLT ISZERO PUSH2 0x20B JUMPI PUSH2 0x20A PUSH2 0x1BF JUMP JUMPDEST JUMPDEST PUSH0 PUSH2 0x218 DUP5 DUP3 DUP6 ADD PUSH2 0x1E2 JUMP JUMPDEST SWAP2 POP POP SWAP3 SWAP2 POP POP JUMP JUMPDEST PUSH2 0x22A DUP2 PUSH2 0x1C3 JUMP JUMPDEST DUP3 MSTORE POP POP JUMP JUMPDEST PUSH0 PUSH1 0x20 DUP3 ADD SWAP1 POP PUSH2 0x243 PUSH0 DUP4 ADD DUP5 PUSH2 0x221 JUMP JUMPDEST SWAP3 SWAP2 POP POP JUMP JUMPDEST PUSH0 DUP3 DUP3 MSTORE PUSH1 0x20 DUP3 ADD SWAP1 POP SWAP3 SWAP2 POP POP JUMP JUMPDEST PUSH32 0x496E70757420616D6F756E74206973206E6F742076616C696400000000000000 PUSH0 DUP3 ADD MSTORE POP JUMP JUMPDEST PUSH0 PUSH2 0x28D PUSH1 0x19 DUP4 PUSH2 0x249 JUMP JUMPDEST SWAP2 POP PUSH2 0x298 DUP3 PUSH2 0x259 JUMP JUMPDEST PUSH1 0x20 DUP3 ADD SWAP1 POP SWAP2 SWAP1 POP JUMP JUMPDEST PUSH0 PUSH1 0x20 DUP3 ADD SWAP1 POP DUP2 DUP2 SUB PUSH0 DUP4 ADD MSTORE PUSH2 0x2BA DUP2 PUSH2 0x281 JUMP JUMPDEST SWAP1 POP SWAP2 SWAP1 POP JUMP JUMPDEST PUSH32 0x4E487B7100000000000000000000000000000000000000000000000000000000 PUSH0 MSTORE PUSH1 0x11 PUSH1 0x4 MSTORE PUSH1 0x24 PUSH0 REVERT JUMPDEST PUSH0 PUSH2 0x2F8 DUP3 PUSH2 0x1C3 JUMP JUMPDEST SWAP2 POP PUSH2 0x303 DUP4 PUSH2 0x1C3 JUMP JUMPDEST SWAP3 POP DUP3 DUP3 SUB SWAP1 POP DUP2 DUP2 GT ISZERO PUSH2 0x31B JUMPI PUSH2 0x31A PUSH2 0x2C1 JUMP JUMPDEST JUMPDEST SWAP3 SWAP2 POP POP JUMP JUMPDEST PUSH32 0x4E487B7100000000000000000000000000000000000000000000000000000000 PUSH0 MSTORE PUSH1 0x1 PUSH1 0x4 MSTORE PUSH1 0x24 PUSH0 REVERT INVALID LOG2 PUSH5 0x6970667358 0x22 SLT KECCAK256 0xE7 MSIZE SWAP2 SWAP7 SWAP2 SWAP4 INVALID MLOAD 0xBC GT 0xD3 0xF8 0x4B SAR DUP12 SHR PUSH28 0x886B411A9F5BE9EB647479762E510864736F6C634300081600330000 "
				},
				"gasEstimates": {
					"creation": {
						"codeDepositCost": "180000",
						"executionCost": "22329",
						"totalCost": "202329"
					},
					"external": {
						"deductBal(uint256)": "infinite",
						"deductBal1(uint256)": "infinite",
						"deductBal2(uint256)": "infinite"
					}
				},
				"methodIdentifiers": {
					"deductBal(uint256)": "a39dc6c7",
					"deductBal1(uint256)": "75da99fc",
					"deductBal2(uint256)": "92f75cd7"
				}
			},
			"storageLayout": {
				"storage": [
					{
						"astId": 4,
						"contract": "contracts/errorhandling.sol:errorhandlingSample",
						"label": "balance",
						"offset": 0,
						"slot": "0",
						"type": "t_uint256"
					}
				],
				"types": {
					"t_uint256": {
						"encoding": "inplace",
						"label": "uint256",
						"numberOfBytes": "32"
					}
				}
			},
			"userdoc": {
				"kind": "user",
				"methods": {},
				"version": 1
			}
		}
	}
}