{
	"contracts/library.sol": {
		"MathFunc": {
			"abi": [
				{
					"inputs": [
						{
							"internalType": "int256",
							"name": "a",
							"type": "int256"
						},
						{
							"internalType": "int256",
							"name": "b",
							"type": "int256"
						}
					],
					"name": "divide",
					"outputs": [
						{
							"internalType": "int256",
							"name": "",
							"type": "int256"
						}
					],
					"stateMutability": "pure",
					"type": "function"
				}
			],
			"devdoc": {
				"kind": "dev",
				"methods": {},
				"version": 1
			},
			"evm": {
				"assembly": "    /* \"contracts/library.sol\":80:236  library MathFunc{... */\n  dataSize(sub_0)\n  dataOffset(sub_0)\n  0x0b\n  dup3\n  dup3\n  dup3\n  codecopy\n  dup1\n  mload\n  0x00\n  byte\n  0x73\n  eq\n  tag_1\n  jumpi\n  mstore(0x00, 0x4e487b7100000000000000000000000000000000000000000000000000000000)\n  mstore(0x04, 0x00)\n  revert(0x00, 0x24)\ntag_1:\n  mstore(0x00, address)\n  0x73\n  dup2\n  mstore8\n  dup3\n  dup2\n  return\nstop\n\nsub_0: assembly {\n        /* \"contracts/library.sol\":80:236  library MathFunc{... */\n      eq(address, deployTimeAddress())\n      mstore(0x40, 0x80)\n      jumpi(tag_1, lt(calldatasize, 0x04))\n      shr(0xe0, calldataload(0x00))\n      dup1\n      0xf5984236\n      eq\n      tag_2\n      jumpi\n    tag_1:\n      0x00\n      dup1\n      revert\n        /* \"contracts/library.sol\":103:234  function divide (int a, int b) public pure returns(int){... */\n    tag_2:\n      tag_3\n      0x04\n      dup1\n      calldatasize\n      sub\n      dup2\n      add\n      swap1\n      tag_4\n      swap2\n      swap1\n      tag_5\n      jump\t// in\n    tag_4:\n      tag_6\n      jump\t// in\n    tag_3:\n      mload(0x40)\n      tag_7\n      swap2\n      swap1\n      tag_8\n      jump\t// in\n    tag_7:\n      mload(0x40)\n      dup1\n      swap2\n      sub\n      swap1\n      return\n    tag_6:\n        /* \"contracts/library.sol\":154:157  int */\n      0x00\n        /* \"contracts/library.sol\":179:180  0 */\n      dup1\n        /* \"contracts/library.sol\":176:177  b */\n      dup3\n        /* \"contracts/library.sol\":176:180  b!=0 */\n      sub\n        /* \"contracts/library.sol\":168:207  require(b!=0, \"Denominator can't be 0\") */\n      tag_10\n      jumpi\n      mload(0x40)\n      0x08c379a000000000000000000000000000000000000000000000000000000000\n      dup2\n      mstore\n      0x04\n      add\n      tag_11\n      swap1\n      tag_12\n      jump\t// in\n    tag_11:\n      mload(0x40)\n      dup1\n      swap2\n      sub\n      swap1\n      revert\n    tag_10:\n        /* \"contracts/library.sol\":226:227  b */\n      dup2\n        /* \"contracts/library.sol\":224:225  a */\n      dup4\n        /* \"contracts/library.sol\":224:227  a/b */\n      tag_13\n      swap2\n      swap1\n      tag_14\n      jump\t// in\n    tag_13:\n        /* \"contracts/library.sol\":217:227  return a/b */\n      swap1\n      pop\n        /* \"contracts/library.sol\":103:234  function divide (int a, int b) public pure returns(int){... */\n      swap3\n      swap2\n      pop\n      pop\n      jump\t// out\n        /* \"#utility.yul\":88:205   */\n    tag_16:\n        /* \"#utility.yul\":197:198   */\n      0x00\n        /* \"#utility.yul\":194:195   */\n      dup1\n        /* \"#utility.yul\":187:199   */\n      revert\n        /* \"#utility.yul\":334:410   */\n    tag_18:\n        /* \"#utility.yul\":370:377   */\n      0x00\n        /* \"#utility.yul\":399:404   */\n      dup2\n        /* \"#utility.yul\":388:404   */\n      swap1\n      pop\n        /* \"#utility.yul\":334:410   */\n      swap2\n      swap1\n      pop\n      jump\t// out\n        /* \"#utility.yul\":416:536   */\n    tag_19:\n        /* \"#utility.yul\":488:511   */\n      tag_33\n        /* \"#utility.yul\":505:510   */\n      dup2\n        /* \"#utility.yul\":488:511   */\n      tag_18\n      jump\t// in\n    tag_33:\n        /* \"#utility.yul\":481:486   */\n      dup2\n        /* \"#utility.yul\":478:512   */\n      eq\n        /* \"#utility.yul\":468:530   */\n      tag_34\n      jumpi\n        /* \"#utility.yul\":526:527   */\n      0x00\n        /* \"#utility.yul\":523:524   */\n      dup1\n        /* \"#utility.yul\":516:528   */\n      revert\n        /* \"#utility.yul\":468:530   */\n    tag_34:\n        /* \"#utility.yul\":416:536   */\n      pop\n      jump\t// out\n        /* \"#utility.yul\":542:679   */\n    tag_20:\n        /* \"#utility.yul\":587:592   */\n      0x00\n        /* \"#utility.yul\":625:631   */\n      dup2\n        /* \"#utility.yul\":612:632   */\n      calldataload\n        /* \"#utility.yul\":603:632   */\n      swap1\n      pop\n        /* \"#utility.yul\":641:673   */\n      tag_36\n        /* \"#utility.yul\":667:672   */\n      dup2\n        /* \"#utility.yul\":641:673   */\n      tag_19\n      jump\t// in\n    tag_36:\n        /* \"#utility.yul\":542:679   */\n      swap3\n      swap2\n      pop\n      pop\n      jump\t// out\n        /* \"#utility.yul\":685:1155   */\n    tag_5:\n        /* \"#utility.yul\":751:757   */\n      0x00\n        /* \"#utility.yul\":759:765   */\n      dup1\n        /* \"#utility.yul\":808:810   */\n      0x40\n        /* \"#utility.yul\":796:805   */\n      dup4\n        /* \"#utility.yul\":787:794   */\n      dup6\n        /* \"#utility.yul\":783:806   */\n      sub\n        /* \"#utility.yul\":779:811   */\n      slt\n        /* \"#utility.yul\":776:895   */\n      iszero\n      tag_38\n      jumpi\n        /* \"#utility.yul\":814:893   */\n      tag_39\n      tag_16\n      jump\t// in\n    tag_39:\n        /* \"#utility.yul\":776:895   */\n    tag_38:\n        /* \"#utility.yul\":934:935   */\n      0x00\n        /* \"#utility.yul\":959:1011   */\n      tag_40\n        /* \"#utility.yul\":1003:1010   */\n      dup6\n        /* \"#utility.yul\":994:1000   */\n      dup3\n        /* \"#utility.yul\":983:992   */\n      dup7\n        /* \"#utility.yul\":979:1001   */\n      add\n        /* \"#utility.yul\":959:1011   */\n      tag_20\n      jump\t// in\n    tag_40:\n        /* \"#utility.yul\":949:1011   */\n      swap3\n      pop\n        /* \"#utility.yul\":905:1021   */\n      pop\n        /* \"#utility.yul\":1060:1062   */\n      0x20\n        /* \"#utility.yul\":1086:1138   */\n      tag_41\n        /* \"#utility.yul\":1130:1137   */\n      dup6\n        /* \"#utility.yul\":1121:1127   */\n      dup3\n        /* \"#utility.yul\":1110:1119   */\n      dup7\n        /* \"#utility.yul\":1106:1128   */\n      add\n        /* \"#utility.yul\":1086:1138   */\n      tag_20\n      jump\t// in\n    tag_41:\n        /* \"#utility.yul\":1076:1138   */\n      swap2\n      pop\n        /* \"#utility.yul\":1031:1148   */\n      pop\n        /* \"#utility.yul\":685:1155   */\n      swap3\n      pop\n      swap3\n      swap1\n      pop\n      jump\t// out\n        /* \"#utility.yul\":1161:1284   */\n    tag_21:\n        /* \"#utility.yul\":1254:1277   */\n      tag_43\n        /* \"#utility.yul\":1271:1276   */\n      dup2\n        /* \"#utility.yul\":1254:1277   */\n      tag_18\n      jump\t// in\n    tag_43:\n        /* \"#utility.yul\":1249:1252   */\n      dup3\n        /* \"#utility.yul\":1242:1278   */\n      mstore\n        /* \"#utility.yul\":1161:1284   */\n      pop\n      pop\n      jump\t// out\n        /* \"#utility.yul\":1290:1524   */\n    tag_8:\n        /* \"#utility.yul\":1389:1393   */\n      0x00\n        /* \"#utility.yul\":1427:1429   */\n      0x20\n        /* \"#utility.yul\":1416:1425   */\n      dup3\n        /* \"#utility.yul\":1412:1430   */\n      add\n        /* \"#utility.yul\":1404:1430   */\n      swap1\n      pop\n        /* \"#utility.yul\":1440:1517   */\n      tag_45\n        /* \"#utility.yul\":1514:1515   */\n      0x00\n        /* \"#utility.yul\":1503:1512   */\n      dup4\n        /* \"#utility.yul\":1499:1516   */\n      add\n        /* \"#utility.yul\":1490:1496   */\n      dup5\n        /* \"#utility.yul\":1440:1517   */\n      tag_21\n      jump\t// in\n    tag_45:\n        /* \"#utility.yul\":1290:1524   */\n      swap3\n      swap2\n      pop\n      pop\n      jump\t// out\n        /* \"#utility.yul\":1530:1699   */\n    tag_22:\n        /* \"#utility.yul\":1614:1625   */\n      0x00\n        /* \"#utility.yul\":1648:1654   */\n      dup3\n        /* \"#utility.yul\":1643:1646   */\n      dup3\n        /* \"#utility.yul\":1636:1655   */\n      mstore\n        /* \"#utility.yul\":1688:1692   */\n      0x20\n        /* \"#utility.yul\":1683:1686   */\n      dup3\n        /* \"#utility.yul\":1679:1693   */\n      add\n        /* \"#utility.yul\":1664:1693   */\n      swap1\n      pop\n        /* \"#utility.yul\":1530:1699   */\n      swap3\n      swap2\n      pop\n      pop\n      jump\t// out\n        /* \"#utility.yul\":1705:1877   */\n    tag_23:\n        /* \"#utility.yul\":1845:1869   */\n      0x44656e6f6d696e61746f722063616e2774206265203000000000000000000000\n        /* \"#utility.yul\":1841:1842   */\n      0x00\n        /* \"#utility.yul\":1833:1839   */\n      dup3\n        /* \"#utility.yul\":1829:1843   */\n      add\n        /* \"#utility.yul\":1822:1870   */\n      mstore\n        /* \"#utility.yul\":1705:1877   */\n      pop\n      jump\t// out\n        /* \"#utility.yul\":1883:2249   */\n    tag_24:\n        /* \"#utility.yul\":2025:2028   */\n      0x00\n        /* \"#utility.yul\":2046:2113   */\n      tag_49\n        /* \"#utility.yul\":2110:2112   */\n      0x16\n        /* \"#utility.yul\":2105:2108   */\n      dup4\n        /* \"#utility.yul\":2046:2113   */\n      tag_22\n      jump\t// in\n    tag_49:\n        /* \"#utility.yul\":2039:2113   */\n      swap2\n      pop\n        /* \"#utility.yul\":2122:2215   */\n      tag_50\n        /* \"#utility.yul\":2211:2214   */\n      dup3\n        /* \"#utility.yul\":2122:2215   */\n      tag_23\n      jump\t// in\n    tag_50:\n        /* \"#utility.yul\":2240:2242   */\n      0x20\n        /* \"#utility.yul\":2235:2238   */\n      dup3\n        /* \"#utility.yul\":2231:2243   */\n      add\n        /* \"#utility.yul\":2224:2243   */\n      swap1\n      pop\n        /* \"#utility.yul\":1883:2249   */\n      swap2\n      swap1\n      pop\n      jump\t// out\n        /* \"#utility.yul\":2255:2674   */\n    tag_12:\n        /* \"#utility.yul\":2421:2425   */\n      0x00\n        /* \"#utility.yul\":2459:2461   */\n      0x20\n        /* \"#utility.yul\":2448:2457   */\n      dup3\n        /* \"#utility.yul\":2444:2462   */\n      add\n        /* \"#utility.yul\":2436:2462   */\n      swap1\n      pop\n        /* \"#utility.yul\":2508:2517   */\n      dup2\n        /* \"#utility.yul\":2502:2506   */\n      dup2\n        /* \"#utility.yul\":2498:2518   */\n      sub\n        /* \"#utility.yul\":2494:2495   */\n      0x00\n        /* \"#utility.yul\":2483:2492   */\n      dup4\n        /* \"#utility.yul\":2479:2496   */\n      add\n        /* \"#utility.yul\":2472:2519   */\n      mstore\n        /* \"#utility.yul\":2536:2667   */\n      tag_52\n        /* \"#utility.yul\":2662:2666   */\n      dup2\n        /* \"#utility.yul\":2536:2667   */\n      tag_24\n      jump\t// in\n    tag_52:\n        /* \"#utility.yul\":2528:2667   */\n      swap1\n      pop\n        /* \"#utility.yul\":2255:2674   */\n      swap2\n      swap1\n      pop\n      jump\t// out\n        /* \"#utility.yul\":2680:2860   */\n    tag_25:\n        /* \"#utility.yul\":2728:2805   */\n      0x4e487b7100000000000000000000000000000000000000000000000000000000\n        /* \"#utility.yul\":2725:2726   */\n      0x00\n        /* \"#utility.yul\":2718:2806   */\n      mstore\n        /* \"#utility.yul\":2825:2829   */\n      0x12\n        /* \"#utility.yul\":2822:2823   */\n      0x04\n        /* \"#utility.yul\":2815:2830   */\n      mstore\n        /* \"#utility.yul\":2849:2853   */\n      0x24\n        /* \"#utility.yul\":2846:2847   */\n      0x00\n        /* \"#utility.yul\":2839:2854   */\n      revert\n        /* \"#utility.yul\":2866:3046   */\n    tag_26:\n        /* \"#utility.yul\":2914:2991   */\n      0x4e487b7100000000000000000000000000000000000000000000000000000000\n        /* \"#utility.yul\":2911:2912   */\n      0x00\n        /* \"#utility.yul\":2904:2992   */\n      mstore\n        /* \"#utility.yul\":3011:3015   */\n      0x11\n        /* \"#utility.yul\":3008:3009   */\n      0x04\n        /* \"#utility.yul\":3001:3016   */\n      mstore\n        /* \"#utility.yul\":3035:3039   */\n      0x24\n        /* \"#utility.yul\":3032:3033   */\n      0x00\n        /* \"#utility.yul\":3025:3040   */\n      revert\n        /* \"#utility.yul\":3052:3437   */\n    tag_14:\n        /* \"#utility.yul\":3091:3092   */\n      0x00\n        /* \"#utility.yul\":3108:3127   */\n      tag_56\n        /* \"#utility.yul\":3125:3126   */\n      dup3\n        /* \"#utility.yul\":3108:3127   */\n      tag_18\n      jump\t// in\n    tag_56:\n        /* \"#utility.yul\":3103:3127   */\n      swap2\n      pop\n        /* \"#utility.yul\":3141:3160   */\n      tag_57\n        /* \"#utility.yul\":3158:3159   */\n      dup4\n        /* \"#utility.yul\":3141:3160   */\n      tag_18\n      jump\t// in\n    tag_57:\n        /* \"#utility.yul\":3136:3160   */\n      swap3\n      pop\n        /* \"#utility.yul\":3179:3180   */\n      dup3\n        /* \"#utility.yul\":3169:3204   */\n      tag_58\n      jumpi\n        /* \"#utility.yul\":3184:3202   */\n      tag_59\n      tag_25\n      jump\t// in\n    tag_59:\n        /* \"#utility.yul\":3169:3204   */\n    tag_58:\n        /* \"#utility.yul\":3370:3371   */\n      0x01\n        /* \"#utility.yul\":3367:3368   */\n      0x00\n        /* \"#utility.yul\":3363:3372   */\n      sub\n        /* \"#utility.yul\":3360:3361   */\n      dup4\n        /* \"#utility.yul\":3357:3373   */\n      eq\n        /* \"#utility.yul\":3276:3342   */\n      0x8000000000000000000000000000000000000000000000000000000000000000\n        /* \"#utility.yul\":3273:3274   */\n      dup4\n        /* \"#utility.yul\":3270:3343   */\n      eq\n        /* \"#utility.yul\":3253:3383   */\n      and\n        /* \"#utility.yul\":3250:3406   */\n      iszero\n      tag_60\n      jumpi\n        /* \"#utility.yul\":3386:3404   */\n      tag_61\n      tag_26\n      jump\t// in\n    tag_61:\n        /* \"#utility.yul\":3250:3406   */\n    tag_60:\n        /* \"#utility.yul\":3429:3430   */\n      dup3\n        /* \"#utility.yul\":3426:3427   */\n      dup3\n        /* \"#utility.yul\":3421:3431   */\n      sdiv\n        /* \"#utility.yul\":3416:3431   */\n      swap1\n      pop\n        /* \"#utility.yul\":3052:3437   */\n      swap3\n      swap2\n      pop\n      pop\n      jump\t// out\n\n    auxdata: 0xa26469706673582212202d1746919d3ec6e5fd61b26a29436815f7e6ee29897e22a1d98d3b8c46a7696d64736f6c63430008160033\n}\n",
				"bytecode": {
					"linkReferences": {},
					"object": "6102cc61004e600b8282823980515f1a607314610042577f4e487b71000000000000000000000000000000000000000000000000000000005f525f60045260245ffd5b305f52607381538281f3fe7300000000000000000000000000000000000000003014608060405260043610610034575f3560e01c8063f598423614610038575b5f80fd5b610052600480360381019061004d91906100f6565b610068565b60405161005f9190610143565b60405180910390f35b5f8082036100ab576040517f08c379a00000000000000000000000000000000000000000000000000000000081526004016100a2906101b6565b60405180910390fd5b81836100b7919061022e565b905092915050565b5f80fd5b5f819050919050565b6100d5816100c3565b81146100df575f80fd5b50565b5f813590506100f0816100cc565b92915050565b5f806040838503121561010c5761010b6100bf565b5b5f610119858286016100e2565b925050602061012a858286016100e2565b9150509250929050565b61013d816100c3565b82525050565b5f6020820190506101565f830184610134565b92915050565b5f82825260208201905092915050565b7f44656e6f6d696e61746f722063616e27742062652030000000000000000000005f82015250565b5f6101a060168361015c565b91506101ab8261016c565b602082019050919050565b5f6020820190508181035f8301526101cd81610194565b9050919050565b7f4e487b71000000000000000000000000000000000000000000000000000000005f52601260045260245ffd5b7f4e487b71000000000000000000000000000000000000000000000000000000005f52601160045260245ffd5b5f610238826100c3565b9150610243836100c3565b925082610253576102526101d4565b5b60015f0383147f80000000000000000000000000000000000000000000000000000000000000008314161561028b5761028a610201565b5b82820590509291505056fea26469706673582212202d1746919d3ec6e5fd61b26a29436815f7e6ee29897e22a1d98d3b8c46a7696d64736f6c63430008160033",
					"opcodes": "PUSH2 0x2CC PUSH2 0x4E PUSH1 0xB DUP3 DUP3 DUP3 CODECOPY DUP1 MLOAD PUSH0 BYTE PUSH1 0x73 EQ PUSH2 0x42 JUMPI PUSH32 0x4E487B7100000000000000000000000000000000000000000000000000000000 PUSH0 MSTORE PUSH0 PUSH1 0x4 MSTORE PUSH1 0x24 PUSH0 REVERT JUMPDEST ADDRESS PUSH0 MSTORE PUSH1 0x73 DUP2 MSTORE8 DUP3 DUP2 RETURN INVALID PUSH20 0x0 ADDRESS EQ PUSH1 0x80 PUSH1 0x40 MSTORE PUSH1 0x4 CALLDATASIZE LT PUSH2 0x34 JUMPI PUSH0 CALLDATALOAD PUSH1 0xE0 SHR DUP1 PUSH4 0xF5984236 EQ PUSH2 0x38 JUMPI JUMPDEST PUSH0 DUP1 REVERT JUMPDEST PUSH2 0x52 PUSH1 0x4 DUP1 CALLDATASIZE SUB DUP2 ADD SWAP1 PUSH2 0x4D SWAP2 SWAP1 PUSH2 0xF6 JUMP JUMPDEST PUSH2 0x68 JUMP JUMPDEST PUSH1 0x40 MLOAD PUSH2 0x5F SWAP2 SWAP1 PUSH2 0x143 JUMP JUMPDEST PUSH1 0x40 MLOAD DUP1 SWAP2 SUB SWAP1 RETURN JUMPDEST PUSH0 DUP1 DUP3 SUB PUSH2 0xAB JUMPI PUSH1 0x40 MLOAD PUSH32 0x8C379A000000000000000000000000000000000000000000000000000000000 DUP2 MSTORE PUSH1 0x4 ADD PUSH2 0xA2 SWAP1 PUSH2 0x1B6 JUMP JUMPDEST PUSH1 0x40 MLOAD DUP1 SWAP2 SUB SWAP1 REVERT JUMPDEST DUP2 DUP4 PUSH2 0xB7 SWAP2 SWAP1 PUSH2 0x22E JUMP JUMPDEST SWAP1 POP SWAP3 SWAP2 POP POP JUMP JUMPDEST PUSH0 DUP1 REVERT JUMPDEST PUSH0 DUP2 SWAP1 POP SWAP2 SWAP1 POP JUMP JUMPDEST PUSH2 0xD5 DUP2 PUSH2 0xC3 JUMP JUMPDEST DUP2 EQ PUSH2 0xDF JUMPI PUSH0 DUP1 REVERT JUMPDEST POP JUMP JUMPDEST PUSH0 DUP2 CALLDATALOAD SWAP1 POP PUSH2 0xF0 DUP2 PUSH2 0xCC JUMP JUMPDEST SWAP3 SWAP2 POP POP JUMP JUMPDEST PUSH0 DUP1 PUSH1 0x40 DUP4 DUP6 SUB SLT ISZERO PUSH2 0x10C JUMPI PUSH2 0x10B PUSH2 0xBF JUMP JUMPDEST JUMPDEST PUSH0 PUSH2 0x119 DUP6 DUP3 DUP7 ADD PUSH2 0xE2 JUMP JUMPDEST SWAP3 POP POP PUSH1 0x20 PUSH2 0x12A DUP6 DUP3 DUP7 ADD PUSH2 0xE2 JUMP JUMPDEST SWAP2 POP POP SWAP3 POP SWAP3 SWAP1 POP JUMP JUMPDEST PUSH2 0x13D DUP2 PUSH2 0xC3 JUMP JUMPDEST DUP3 MSTORE POP POP JUMP JUMPDEST PUSH0 PUSH1 0x20 DUP3 ADD SWAP1 POP PUSH2 0x156 PUSH0 DUP4 ADD DUP5 PUSH2 0x134 JUMP JUMPDEST SWAP3 SWAP2 POP POP JUMP JUMPDEST PUSH0 DUP3 DUP3 MSTORE PUSH1 0x20 DUP3 ADD SWAP1 POP SWAP3 SWAP2 POP POP JUMP JUMPDEST PUSH32 0x44656E6F6D696E61746F722063616E2774206265203000000000000000000000 PUSH0 DUP3 ADD MSTORE POP JUMP JUMPDEST PUSH0 PUSH2 0x1A0 PUSH1 0x16 DUP4 PUSH2 0x15C JUMP JUMPDEST SWAP2 POP PUSH2 0x1AB DUP3 PUSH2 0x16C JUMP JUMPDEST PUSH1 0x20 DUP3 ADD SWAP1 POP SWAP2 SWAP1 POP JUMP JUMPDEST PUSH0 PUSH1 0x20 DUP3 ADD SWAP1 POP DUP2 DUP2 SUB PUSH0 DUP4 ADD MSTORE PUSH2 0x1CD DUP2 PUSH2 0x194 JUMP JUMPDEST SWAP1 POP SWAP2 SWAP1 POP JUMP JUMPDEST PUSH32 0x4E487B7100000000000000000000000000000000000000000000000000000000 PUSH0 MSTORE PUSH1 0x12 PUSH1 0x4 MSTORE PUSH1 0x24 PUSH0 REVERT JUMPDEST PUSH32 0x4E487B7100000000000000000000000000000000000000000000000000000000 PUSH0 MSTORE PUSH1 0x11 PUSH1 0x4 MSTORE PUSH1 0x24 PUSH0 REVERT JUMPDEST PUSH0 PUSH2 0x238 DUP3 PUSH2 0xC3 JUMP JUMPDEST SWAP2 POP PUSH2 0x243 DUP4 PUSH2 0xC3 JUMP JUMPDEST SWAP3 POP DUP3 PUSH2 0x253 JUMPI PUSH2 0x252 PUSH2 0x1D4 JUMP JUMPDEST JUMPDEST PUSH1 0x1 PUSH0 SUB DUP4 EQ PUSH32 0x8000000000000000000000000000000000000000000000000000000000000000 DUP4 EQ AND ISZERO PUSH2 0x28B JUMPI PUSH2 0x28A PUSH2 0x201 JUMP JUMPDEST JUMPDEST DUP3 DUP3 SDIV SWAP1 POP SWAP3 SWAP2 POP POP JUMP INVALID LOG2 PUSH5 0x6970667358 0x22 SLT KECCAK256 0x2D OR CHAINID SWAP2 SWAP14 RETURNDATACOPY 0xC6 0xE5 REVERT PUSH2 0xB26A 0x29 NUMBER PUSH9 0x15F7E6EE29897E22A1 0xD9 DUP14 EXTCODESIZE DUP13 CHAINID 0xA7 PUSH10 0x6D64736F6C6343000816 STOP CALLER "
				},
				"gasEstimates": {
					"creation": {
						"codeDepositCost": "143200",
						"executionCost": "213",
						"totalCost": "143413"
					},
					"external": {
						"divide(int256,int256)": "infinite"
					}
				},
				"methodIdentifiers": {
					"divide(int256,int256)": "f5984236"
				}
			},
			"storageLayout": {
				"storage": [],
				"types": null
			},
			"userdoc": {
				"kind": "user",
				"methods": {},
				"version": 1
			}
		}
	}
}