{
	"contracts/patientrecord.sol": {
		"VotingSoftware": {
			"abi": [
				{
					"inputs": [],
					"stateMutability": "nonpayable",
					"type": "constructor"
				},
				{
					"inputs": [
						{
							"internalType": "uint256",
							"name": "_id",
							"type": "uint256"
						},
						{
							"internalType": "string",
							"name": "_name",
							"type": "string"
						},
						{
							"internalType": "string",
							"name": "_expiryDate",
							"type": "string"
						},
						{
							"internalType": "string",
							"name": "_dose",
							"type": "string"
						},
						{
							"internalType": "uint256",
							"name": "_price",
							"type": "uint256"
						}
					],
					"name": "addMedicine",
					"outputs": [],
					"stateMutability": "nonpayable",
					"type": "function"
				},
				{
					"inputs": [
						{
							"internalType": "uint256",
							"name": "_id",
							"type": "uint256"
						},
						{
							"internalType": "string",
							"name": "_disease",
							"type": "string"
						}
					],
					"name": "addPatientDisease",
					"outputs": [],
					"stateMutability": "nonpayable",
					"type": "function"
				},
				{
					"inputs": [],
					"name": "contractOwner",
					"outputs": [
						{
							"internalType": "address",
							"name": "",
							"type": "address"
						}
					],
					"stateMutability": "view",
					"type": "function"
				},
				{
					"inputs": [
						{
							"internalType": "uint256",
							"name": "_medicineId",
							"type": "uint256"
						},
						{
							"internalType": "address",
							"name": "_patientAddress",
							"type": "address"
						}
					],
					"name": "prescribeMedicine",
					"outputs": [],
					"stateMutability": "nonpayable",
					"type": "function"
				},
				{
					"inputs": [
						{
							"internalType": "string",
							"name": "_name",
							"type": "string"
						},
						{
							"internalType": "string",
							"name": "_qualification",
							"type": "string"
						},
						{
							"internalType": "string",
							"name": "_workPlace",
							"type": "string"
						}
					],
					"name": "registerNewDoctor",
					"outputs": [],
					"stateMutability": "nonpayable",
					"type": "function"
				},
				{
					"inputs": [
						{
							"internalType": "string",
							"name": "_name",
							"type": "string"
						},
						{
							"internalType": "uint256",
							"name": "_age",
							"type": "uint256"
						},
						{
							"internalType": "address",
							"name": "_patientAddress",
							"type": "address"
						}
					],
					"name": "registerNewPatient",
					"outputs": [],
					"stateMutability": "nonpayable",
					"type": "function"
				},
				{
					"inputs": [
						{
							"internalType": "uint256",
							"name": "_patientId",
							"type": "uint256"
						},
						{
							"internalType": "uint256",
							"name": "_age",
							"type": "uint256"
						}
					],
					"name": "updatePatientDetails",
					"outputs": [],
					"stateMutability": "nonpayable",
					"type": "function"
				},
				{
					"inputs": [
						{
							"internalType": "address",
							"name": "_patientAddress",
							"type": "address"
						},
						{
							"internalType": "uint256",
							"name": "_age",
							"type": "uint256"
						}
					],
					"name": "updatePatientDetails",
					"outputs": [],
					"stateMutability": "nonpayable",
					"type": "function"
				},
				{
					"inputs": [
						{
							"internalType": "uint256",
							"name": "_medicineId",
							"type": "uint256"
						}
					],
					"name": "viewMedicineDetails",
					"outputs": [
						{
							"internalType": "string",
							"name": "name",
							"type": "string"
						},
						{
							"internalType": "string",
							"name": "expiryDate",
							"type": "string"
						},
						{
							"internalType": "string",
							"name": "dose",
							"type": "string"
						},
						{
							"internalType": "uint256",
							"name": "price",
							"type": "uint256"
						}
					],
					"stateMutability": "view",
					"type": "function"
				},
				{
					"inputs": [
						{
							"internalType": "uint256",
							"name": "_patientId",
							"type": "uint256"
						}
					],
					"name": "viewPatiendData",
					"outputs": [
						{
							"internalType": "uint256",
							"name": "patientId",
							"type": "uint256"
						},
						{
							"internalType": "uint256",
							"name": "age",
							"type": "uint256"
						},
						{
							"internalType": "string",
							"name": "name",
							"type": "string"
						},
						{
							"internalType": "string[]",
							"name": "diseases",
							"type": "string[]"
						}
					],
					"stateMutability": "view",
					"type": "function"
				},
				{
					"inputs": [
						{
							"internalType": "address",
							"name": "_patientAddress",
							"type": "address"
						}
					],
					"name": "viewPatiendData",
					"outputs": [
						{
							"internalType": "uint256",
							"name": "patientId",
							"type": "uint256"
						},
						{
							"internalType": "uint256",
							"name": "age",
							"type": "uint256"
						},
						{
							"internalType": "string",
							"name": "name",
							"type": "string"
						},
						{
							"internalType": "string[]",
							"name": "diseases",
							"type": "string[]"
						}
					],
					"stateMutability": "view",
					"type": "function"
				}
			],
			"devdoc": {
				"kind": "dev",
				"methods": {},
				"version": 1
			},
			"evm": {
				"assembly": "    /* \"contracts/patientrecord.sol\":56:4777  contract VotingSoftware{... */\n  mstore(0x40, 0x80)\n    /* \"contracts/patientrecord.sol\":1131:1132  0 */\n  0x00\n    /* \"contracts/patientrecord.sol\":1109:1132  uint256 doctorCount = 0 */\n  0x01\n  sstore\n    /* \"contracts/patientrecord.sol\":1188:1189  0 */\n  0x00\n    /* \"contracts/patientrecord.sol\":1165:1189  uint256 patientCount = 0 */\n  0x02\n  sstore\n    /* \"contracts/patientrecord.sol\":1247:1248  0 */\n  0x00\n    /* \"contracts/patientrecord.sol\":1223:1248  uint256 medicineCount = 0 */\n  0x03\n  sstore\n    /* \"contracts/patientrecord.sol\":185:242  constructor() {... */\n  callvalue\n  dup1\n  iszero\n  tag_1\n  jumpi\n  0x00\n  dup1\n  revert\ntag_1:\n  pop\n    /* \"contracts/patientrecord.sol\":225:235  msg.sender */\n  caller\n    /* \"contracts/patientrecord.sol\":209:222  contractOwner */\n  0x00\n  dup1\n    /* \"contracts/patientrecord.sol\":209:235  contractOwner = msg.sender */\n  0x0100\n  exp\n  dup2\n  sload\n  dup2\n  0xffffffffffffffffffffffffffffffffffffffff\n  mul\n  not\n  and\n  swap1\n  dup4\n  0xffffffffffffffffffffffffffffffffffffffff\n  and\n  mul\n  or\n  swap1\n  sstore\n  pop\n    /* \"contracts/patientrecord.sol\":56:4777  contract VotingSoftware{... */\n  dataSize(sub_0)\n  dup1\n  dataOffset(sub_0)\n  0x00\n  codecopy\n  0x00\n  return\nstop\n\nsub_0: assembly {\n        /* \"contracts/patientrecord.sol\":56:4777  contract VotingSoftware{... */\n      mstore(0x40, 0x80)\n      callvalue\n      dup1\n      iszero\n      tag_1\n      jumpi\n      0x00\n      dup1\n      revert\n    tag_1:\n      pop\n      jumpi(tag_2, lt(calldatasize, 0x04))\n      shr(0xe0, calldataload(0x00))\n      dup1\n      0x58d72182\n      gt\n      tag_14\n      jumpi\n      dup1\n      0x58d72182\n      eq\n      tag_8\n      jumpi\n      dup1\n      0x75f49529\n      eq\n      tag_9\n      jumpi\n      dup1\n      0xcc7fa220\n      eq\n      tag_10\n      jumpi\n      dup1\n      0xce606ee0\n      eq\n      tag_11\n      jumpi\n      dup1\n      0xdb2f4912\n      eq\n      tag_12\n      jumpi\n      dup1\n      0xdcd0c2b2\n      eq\n      tag_13\n      jumpi\n      jump(tag_2)\n    tag_14:\n      dup1\n      0x05dfea94\n      eq\n      tag_3\n      jumpi\n      dup1\n      0x0b4be0f6\n      eq\n      tag_4\n      jumpi\n      dup1\n      0x1bc2fced\n      eq\n      tag_5\n      jumpi\n      dup1\n      0x32473b85\n      eq\n      tag_6\n      jumpi\n      dup1\n      0x46216098\n      eq\n      tag_7\n      jumpi\n    tag_2:\n      0x00\n      dup1\n      revert\n        /* \"contracts/patientrecord.sol\":3170:3289  function updatePatientDetails(uint256 _patientId, uint256 _age) public {... */\n    tag_3:\n      tag_15\n      0x04\n      dup1\n      calldatasize\n      sub\n      dup2\n      add\n      swap1\n      tag_16\n      swap2\n      swap1\n      tag_17\n      jump\t// in\n    tag_16:\n      tag_18\n      jump\t// in\n    tag_15:\n      stop\n        /* \"contracts/patientrecord.sol\":3560:3956  function viewPatiendData(uint256 _patientId) public view... */\n    tag_4:\n      tag_19\n      0x04\n      dup1\n      calldatasize\n      sub\n      dup2\n      add\n      swap1\n      tag_20\n      swap2\n      swap1\n      tag_21\n      jump\t// in\n    tag_20:\n      tag_22\n      jump\t// in\n    tag_19:\n      mload(0x40)\n      tag_23\n      swap5\n      swap4\n      swap3\n      swap2\n      swap1\n      tag_24\n      jump\t// in\n    tag_23:\n      mload(0x40)\n      dup1\n      swap2\n      sub\n      swap1\n      return\n        /* \"contracts/patientrecord.sol\":1956:2331  function registerNewPatient(string memory _name, uint256 _age, address _patientAddress) public {... */\n    tag_5:\n      tag_25\n      0x04\n      dup1\n      calldatasize\n      sub\n      dup2\n      add\n      swap1\n      tag_26\n      swap2\n      swap1\n      tag_27\n      jump\t// in\n    tag_26:\n      tag_28\n      jump\t// in\n    tag_25:\n      stop\n        /* \"contracts/patientrecord.sol\":2371:2496  function addPatientDisease(uint256 _id, string memory _disease) public {... */\n    tag_6:\n      tag_29\n      0x04\n      dup1\n      calldatasize\n      sub\n      dup2\n      add\n      swap1\n      tag_30\n      swap2\n      swap1\n      tag_31\n      jump\t// in\n    tag_30:\n      tag_32\n      jump\t// in\n    tag_29:\n      stop\n        /* \"contracts/patientrecord.sol\":1529:1917  function registerNewDoctor(string memory _name, string memory _qualification, string memory _workPlace) public {... */\n    tag_7:\n      tag_33\n      0x04\n      dup1\n      calldatasize\n      sub\n      dup2\n      add\n      swap1\n      tag_34\n      swap2\n      swap1\n      tag_35\n      jump\t// in\n    tag_34:\n      tag_36\n      jump\t// in\n    tag_33:\n      stop\n        /* \"contracts/patientrecord.sol\":3991:4318  function viewPatiendData(address _patientAddress) public view ... */\n    tag_8:\n      tag_37\n      0x04\n      dup1\n      calldatasize\n      sub\n      dup2\n      add\n      swap1\n      tag_38\n      swap2\n      swap1\n      tag_39\n      jump\t// in\n    tag_38:\n      tag_40\n      jump\t// in\n    tag_37:\n      mload(0x40)\n      tag_41\n      swap5\n      swap4\n      swap3\n      swap2\n      swap1\n      tag_24\n      jump\t// in\n    tag_41:\n      mload(0x40)\n      dup1\n      swap2\n      sub\n      swap1\n      return\n        /* \"contracts/patientrecord.sol\":2525:2878  function addMedicine(uint256 _id, string memory _name, string memory _expiryDate, string memory _dose, uint256 _price) public {... */\n    tag_9:\n      tag_42\n      0x04\n      dup1\n      calldatasize\n      sub\n      dup2\n      add\n      swap1\n      tag_43\n      swap2\n      swap1\n      tag_44\n      jump\t// in\n    tag_43:\n      tag_45\n      jump\t// in\n    tag_42:\n      stop\n        /* \"contracts/patientrecord.sol\":4356:4775  function viewMedicineDetails(uint256 _medicineId) public view ... */\n    tag_10:\n      tag_46\n      0x04\n      dup1\n      calldatasize\n      sub\n      dup2\n      add\n      swap1\n      tag_47\n      swap2\n      swap1\n      tag_21\n      jump\t// in\n    tag_47:\n      tag_48\n      jump\t// in\n    tag_46:\n      mload(0x40)\n      tag_49\n      swap5\n      swap4\n      swap3\n      swap2\n      swap1\n      tag_50\n      jump\t// in\n    tag_49:\n      mload(0x40)\n      dup1\n      swap2\n      sub\n      swap1\n      return\n        /* \"contracts/patientrecord.sol\":151:179  address public contractOwner */\n    tag_11:\n      tag_51\n      tag_52\n      jump\t// in\n    tag_51:\n      mload(0x40)\n      tag_53\n      swap2\n      swap1\n      tag_54\n      jump\t// in\n    tag_53:\n      mload(0x40)\n      dup1\n      swap2\n      sub\n      swap1\n      return\n        /* \"contracts/patientrecord.sol\":3340:3526  function updatePatientDetails(address _patientAddress, uint256 _age) public {... */\n    tag_12:\n      tag_55\n      0x04\n      dup1\n      calldatasize\n      sub\n      dup2\n      add\n      swap1\n      tag_56\n      swap2\n      swap1\n      tag_57\n      jump\t// in\n    tag_56:\n      tag_58\n      jump\t// in\n    tag_55:\n      stop\n        /* \"contracts/patientrecord.sol\":2913:3120  function prescribeMedicine(uint256 _medicineId, address _patientAddress) public {... */\n    tag_13:\n      tag_59\n      0x04\n      dup1\n      calldatasize\n      sub\n      dup2\n      add\n      swap1\n      tag_60\n      swap2\n      swap1\n      tag_61\n      jump\t// in\n    tag_60:\n      tag_62\n      jump\t// in\n    tag_59:\n      stop\n        /* \"contracts/patientrecord.sol\":3170:3289  function updatePatientDetails(uint256 _patientId, uint256 _age) public {... */\n    tag_18:\n        /* \"contracts/patientrecord.sol\":3278:3282  _age */\n      dup1\n        /* \"contracts/patientrecord.sol\":3251:3259  patients */\n      0x05\n        /* \"contracts/patientrecord.sol\":3251:3271  patients[_patientId] */\n      0x00\n        /* \"contracts/patientrecord.sol\":3260:3270  _patientId */\n      dup5\n        /* \"contracts/patientrecord.sol\":3251:3271  patients[_patientId] */\n      dup2\n      mstore\n      0x20\n      add\n      swap1\n      dup2\n      mstore\n      0x20\n      add\n      0x00\n      keccak256\n        /* \"contracts/patientrecord.sol\":3251:3275  patients[_patientId].age */\n      0x02\n      add\n        /* \"contracts/patientrecord.sol\":3251:3282  patients[_patientId].age = _age */\n      dup2\n      swap1\n      sstore\n      pop\n        /* \"contracts/patientrecord.sol\":3170:3289  function updatePatientDetails(uint256 _patientId, uint256 _age) public {... */\n      pop\n      pop\n      jump\t// out\n        /* \"contracts/patientrecord.sol\":3560:3956  function viewPatiendData(uint256 _patientId) public view... */\n    tag_22:\n        /* \"contracts/patientrecord.sol\":3633:3650  uint256 patientId */\n      0x00\n        /* \"contracts/patientrecord.sol\":3669:3680  uint256 age */\n      dup1\n        /* \"contracts/patientrecord.sol\":3699:3717  string memory name */\n      0x60\n        /* \"contracts/patientrecord.sol\":3736:3760  string[] memory diseases */\n      dup1\n        /* \"contracts/patientrecord.sol\":3796:3804  patients */\n      0x05\n        /* \"contracts/patientrecord.sol\":3796:3816  patients[_patientId] */\n      0x00\n        /* \"contracts/patientrecord.sol\":3805:3815  _patientId */\n      dup7\n        /* \"contracts/patientrecord.sol\":3796:3816  patients[_patientId] */\n      dup2\n      mstore\n      0x20\n      add\n      swap1\n      dup2\n      mstore\n      0x20\n      add\n      0x00\n      keccak256\n        /* \"contracts/patientrecord.sol\":3796:3819  patients[_patientId].id */\n      0x00\n      add\n      sload\n        /* \"contracts/patientrecord.sol\":3833:3841  patients */\n      0x05\n        /* \"contracts/patientrecord.sol\":3833:3853  patients[_patientId] */\n      0x00\n        /* \"contracts/patientrecord.sol\":3842:3852  _patientId */\n      dup8\n        /* \"contracts/patientrecord.sol\":3833:3853  patients[_patientId] */\n      dup2\n      mstore\n      0x20\n      add\n      swap1\n      dup2\n      mstore\n      0x20\n      add\n      0x00\n      keccak256\n        /* \"contracts/patientrecord.sol\":3833:3857  patients[_patientId].age */\n      0x02\n      add\n      sload\n        /* \"contracts/patientrecord.sol\":3871:3879  patients */\n      0x05\n        /* \"contracts/patientrecord.sol\":3871:3891  patients[_patientId] */\n      0x00\n        /* \"contracts/patientrecord.sol\":3880:3890  _patientId */\n      dup9\n        /* \"contracts/patientrecord.sol\":3871:3891  patients[_patientId] */\n      dup2\n      mstore\n      0x20\n      add\n      swap1\n      dup2\n      mstore\n      0x20\n      add\n      0x00\n      keccak256\n        /* \"contracts/patientrecord.sol\":3871:3896  patients[_patientId].name */\n      0x01\n      add\n        /* \"contracts/patientrecord.sol\":3910:3918  patients */\n      0x05\n        /* \"contracts/patientrecord.sol\":3910:3930  patients[_patientId] */\n      0x00\n        /* \"contracts/patientrecord.sol\":3919:3929  _patientId */\n      dup10\n        /* \"contracts/patientrecord.sol\":3910:3930  patients[_patientId] */\n      dup2\n      mstore\n      0x20\n      add\n      swap1\n      dup2\n      mstore\n      0x20\n      add\n      0x00\n      keccak256\n        /* \"contracts/patientrecord.sol\":3910:3939  patients[_patientId].diseases */\n      0x03\n      add\n        /* \"contracts/patientrecord.sol\":3776:3949  return(... */\n      dup2\n      dup1\n      sload\n      tag_65\n      swap1\n      tag_66\n      jump\t// in\n    tag_65:\n      dup1\n      0x1f\n      add\n      0x20\n      dup1\n      swap2\n      div\n      mul\n      0x20\n      add\n      mload(0x40)\n      swap1\n      dup2\n      add\n      0x40\n      mstore\n      dup1\n      swap3\n      swap2\n      swap1\n      dup2\n      dup2\n      mstore\n      0x20\n      add\n      dup3\n      dup1\n      sload\n      tag_67\n      swap1\n      tag_66\n      jump\t// in\n    tag_67:\n      dup1\n      iszero\n      tag_68\n      jumpi\n      dup1\n      0x1f\n      lt\n      tag_69\n      jumpi\n      0x0100\n      dup1\n      dup4\n      sload\n      div\n      mul\n      dup4\n      mstore\n      swap2\n      0x20\n      add\n      swap2\n      jump(tag_68)\n    tag_69:\n      dup3\n      add\n      swap2\n      swap1\n      0x00\n      mstore\n      keccak256(0x00, 0x20)\n      swap1\n    tag_70:\n      dup2\n      sload\n      dup2\n      mstore\n      swap1\n      0x01\n      add\n      swap1\n      0x20\n      add\n      dup1\n      dup4\n      gt\n      tag_70\n      jumpi\n      dup3\n      swap1\n      sub\n      0x1f\n      and\n      dup3\n      add\n      swap2\n    tag_68:\n      pop\n      pop\n      pop\n      pop\n      pop\n      swap2\n      pop\n      dup1\n      dup1\n      sload\n      dup1\n      0x20\n      mul\n      0x20\n      add\n      mload(0x40)\n      swap1\n      dup2\n      add\n      0x40\n      mstore\n      dup1\n      swap3\n      swap2\n      swap1\n      dup2\n      dup2\n      mstore\n      0x20\n      add\n      0x00\n      swap1\n    tag_71:\n      dup3\n      dup3\n      lt\n      iszero\n      tag_72\n      jumpi\n      dup4\n      dup3\n      swap1\n      0x00\n      mstore\n      keccak256(0x00, 0x20)\n      add\n      dup1\n      sload\n      tag_74\n      swap1\n      tag_66\n      jump\t// in\n    tag_74:\n      dup1\n      0x1f\n      add\n      0x20\n      dup1\n      swap2\n      div\n      mul\n      0x20\n      add\n      mload(0x40)\n      swap1\n      dup2\n      add\n      0x40\n      mstore\n      dup1\n      swap3\n      swap2\n      swap1\n      dup2\n      dup2\n      mstore\n      0x20\n      add\n      dup3\n      dup1\n      sload\n      tag_75\n      swap1\n      tag_66\n      jump\t// in\n    tag_75:\n      dup1\n      iszero\n      tag_76\n      jumpi\n      dup1\n      0x1f\n      lt\n      tag_77\n      jumpi\n      0x0100\n      dup1\n      dup4\n      sload\n      div\n      mul\n      dup4\n      mstore\n      swap2\n      0x20\n      add\n      swap2\n      jump(tag_76)\n    tag_77:\n      dup3\n      add\n      swap2\n      swap1\n      0x00\n      mstore\n      keccak256(0x00, 0x20)\n      swap1\n    tag_78:\n      dup2\n      sload\n      dup2\n      mstore\n      swap1\n      0x01\n      add\n      swap1\n      0x20\n      add\n      dup1\n      dup4\n      gt\n      tag_78\n      jumpi\n      dup3\n      swap1\n      sub\n      0x1f\n      and\n      dup3\n      add\n      swap2\n    tag_76:\n      pop\n      pop\n      pop\n      pop\n      pop\n      dup2\n      mstore\n      0x20\n      add\n      swap1\n      0x01\n      add\n      swap1\n      jump(tag_71)\n    tag_72:\n      pop\n      pop\n      pop\n      pop\n      swap1\n      pop\n      swap4\n      pop\n      swap4\n      pop\n      swap4\n      pop\n      swap4\n      pop\n        /* \"contracts/patientrecord.sol\":3560:3956  function viewPatiendData(uint256 _patientId) public view... */\n      swap2\n      swap4\n      pop\n      swap2\n      swap4\n      jump\t// out\n        /* \"contracts/patientrecord.sol\":1956:2331  function registerNewPatient(string memory _name, uint256 _age, address _patientAddress) public {... */\n    tag_28:\n        /* \"contracts/patientrecord.sol\":2061:2078  uint256 patientId */\n      0x00\n        /* \"contracts/patientrecord.sol\":2094:2095  1 */\n      0x01\n        /* \"contracts/patientrecord.sol\":2081:2093  patientCount */\n      sload(0x02)\n        /* \"contracts/patientrecord.sol\":2081:2095  patientCount+1 */\n      tag_80\n      swap2\n      swap1\n      tag_81\n      jump\t// in\n    tag_80:\n        /* \"contracts/patientrecord.sol\":2061:2095  uint256 patientId = patientCount+1 */\n      swap1\n      pop\n        /* \"contracts/patientrecord.sol\":2130:2139  patientId */\n      dup1\n        /* \"contracts/patientrecord.sol\":2105:2113  patients */\n      0x05\n        /* \"contracts/patientrecord.sol\":2105:2124  patients[patientId] */\n      0x00\n        /* \"contracts/patientrecord.sol\":2114:2123  patientId */\n      dup4\n        /* \"contracts/patientrecord.sol\":2105:2124  patients[patientId] */\n      dup2\n      mstore\n      0x20\n      add\n      swap1\n      dup2\n      mstore\n      0x20\n      add\n      0x00\n      keccak256\n        /* \"contracts/patientrecord.sol\":2105:2127  patients[patientId].id */\n      0x00\n      add\n        /* \"contracts/patientrecord.sol\":2105:2139  patients[patientId].id = patientId */\n      dup2\n      swap1\n      sstore\n      pop\n        /* \"contracts/patientrecord.sol\":2176:2181  _name */\n      dup4\n        /* \"contracts/patientrecord.sol\":2149:2157  patients */\n      0x05\n        /* \"contracts/patientrecord.sol\":2149:2168  patients[patientId] */\n      0x00\n        /* \"contracts/patientrecord.sol\":2158:2167  patientId */\n      dup4\n        /* \"contracts/patientrecord.sol\":2149:2168  patients[patientId] */\n      dup2\n      mstore\n      0x20\n      add\n      swap1\n      dup2\n      mstore\n      0x20\n      add\n      0x00\n      keccak256\n        /* \"contracts/patientrecord.sol\":2149:2173  patients[patientId].name */\n      0x01\n      add\n        /* \"contracts/patientrecord.sol\":2149:2181  patients[patientId].name = _name */\n      swap1\n      dup2\n      tag_82\n      swap2\n      swap1\n      tag_83\n      jump\t// in\n    tag_82:\n      pop\n        /* \"contracts/patientrecord.sol\":2217:2221  _age */\n      dup3\n        /* \"contracts/patientrecord.sol\":2191:2199  patients */\n      0x05\n        /* \"contracts/patientrecord.sol\":2191:2210  patients[patientId] */\n      0x00\n        /* \"contracts/patientrecord.sol\":2200:2209  patientId */\n      dup4\n        /* \"contracts/patientrecord.sol\":2191:2210  patients[patientId] */\n      dup2\n      mstore\n      0x20\n      add\n      swap1\n      dup2\n      mstore\n      0x20\n      add\n      0x00\n      keccak256\n        /* \"contracts/patientrecord.sol\":2191:2214  patients[patientId].age */\n      0x02\n      add\n        /* \"contracts/patientrecord.sol\":2191:2221  patients[patientId].age = _age */\n      dup2\n      swap1\n      sstore\n      pop\n        /* \"contracts/patientrecord.sol\":2258:2262  true */\n      0x01\n        /* \"contracts/patientrecord.sol\":2231:2239  patients */\n      0x05\n        /* \"contracts/patientrecord.sol\":2231:2250  patients[patientId] */\n      0x00\n        /* \"contracts/patientrecord.sol\":2240:2249  patientId */\n      dup4\n        /* \"contracts/patientrecord.sol\":2231:2250  patients[patientId] */\n      dup2\n      mstore\n      0x20\n      add\n      swap1\n      dup2\n      mstore\n      0x20\n      add\n      0x00\n      keccak256\n        /* \"contracts/patientrecord.sol\":2231:2255  patients[patientId].flag */\n      0x06\n      add\n      0x00\n        /* \"contracts/patientrecord.sol\":2231:2262  patients[patientId].flag = true */\n      0x0100\n      exp\n      dup2\n      sload\n      dup2\n      0xff\n      mul\n      not\n      and\n      swap1\n      dup4\n      iszero\n      iszero\n      mul\n      or\n      swap1\n      sstore\n      pop\n        /* \"contracts/patientrecord.sol\":2309:2324  _patientAddress */\n      dup2\n        /* \"contracts/patientrecord.sol\":2272:2280  patients */\n      0x05\n        /* \"contracts/patientrecord.sol\":2272:2291  patients[patientId] */\n      0x00\n        /* \"contracts/patientrecord.sol\":2281:2290  patientId */\n      dup4\n        /* \"contracts/patientrecord.sol\":2272:2291  patients[patientId] */\n      dup2\n      mstore\n      0x20\n      add\n      swap1\n      dup2\n      mstore\n      0x20\n      add\n      0x00\n      keccak256\n        /* \"contracts/patientrecord.sol\":2272:2306  patients[patientId].patientAddress */\n      0x04\n      add\n      0x00\n        /* \"contracts/patientrecord.sol\":2272:2324  patients[patientId].patientAddress = _patientAddress */\n      0x0100\n      exp\n      dup2\n      sload\n      dup2\n      0xffffffffffffffffffffffffffffffffffffffff\n      mul\n      not\n      and\n      swap1\n      dup4\n      0xffffffffffffffffffffffffffffffffffffffff\n      and\n      mul\n      or\n      swap1\n      sstore\n      pop\n        /* \"contracts/patientrecord.sol\":2051:2331  {... */\n      pop\n        /* \"contracts/patientrecord.sol\":1956:2331  function registerNewPatient(string memory _name, uint256 _age, address _patientAddress) public {... */\n      pop\n      pop\n      pop\n      jump\t// out\n        /* \"contracts/patientrecord.sol\":2371:2496  function addPatientDisease(uint256 _id, string memory _disease) public {... */\n    tag_32:\n        /* \"contracts/patientrecord.sol\":2452:2460  patients */\n      0x05\n        /* \"contracts/patientrecord.sol\":2452:2465  patients[_id] */\n      0x00\n        /* \"contracts/patientrecord.sol\":2461:2464  _id */\n      dup4\n        /* \"contracts/patientrecord.sol\":2452:2465  patients[_id] */\n      dup2\n      mstore\n      0x20\n      add\n      swap1\n      dup2\n      mstore\n      0x20\n      add\n      0x00\n      keccak256\n        /* \"contracts/patientrecord.sol\":2452:2474  patients[_id].diseases */\n      0x03\n      add\n        /* \"contracts/patientrecord.sol\":2480:2488  _disease */\n      dup2\n        /* \"contracts/patientrecord.sol\":2452:2489  patients[_id].diseases.push(_disease) */\n      swap1\n      dup1\n      0x01\n      dup2\n      sload\n      add\n      dup1\n      dup3\n      sstore\n      dup1\n      swap2\n      pop\n      pop\n      0x01\n      swap1\n      sub\n      swap1\n      0x00\n      mstore\n      keccak256(0x00, 0x20)\n      add\n      0x00\n      swap1\n      swap2\n      swap1\n      swap2\n      swap1\n      swap2\n      pop\n      swap1\n      dup2\n      tag_86\n      swap2\n      swap1\n      tag_83\n      jump\t// in\n    tag_86:\n      pop\n        /* \"contracts/patientrecord.sol\":2371:2496  function addPatientDisease(uint256 _id, string memory _disease) public {... */\n      pop\n      pop\n      jump\t// out\n        /* \"contracts/patientrecord.sol\":1529:1917  function registerNewDoctor(string memory _name, string memory _qualification, string memory _workPlace) public {... */\n    tag_36:\n        /* \"contracts/patientrecord.sol\":1650:1666  uint256 doctorId */\n      0x00\n        /* \"contracts/patientrecord.sol\":1681:1682  1 */\n      0x01\n        /* \"contracts/patientrecord.sol\":1669:1680  doctorCount */\n      dup1\n      sload\n        /* \"contracts/patientrecord.sol\":1669:1682  doctorCount+1 */\n      tag_88\n      swap2\n      swap1\n      tag_81\n      jump\t// in\n    tag_88:\n        /* \"contracts/patientrecord.sol\":1650:1682  uint256 doctorId = doctorCount+1 */\n      swap1\n      pop\n        /* \"contracts/patientrecord.sol\":1715:1723  doctorId */\n      dup1\n        /* \"contracts/patientrecord.sol\":1692:1699  doctors */\n      0x04\n        /* \"contracts/patientrecord.sol\":1692:1709  doctors[doctorId] */\n      0x00\n        /* \"contracts/patientrecord.sol\":1700:1708  doctorId */\n      dup4\n        /* \"contracts/patientrecord.sol\":1692:1709  doctors[doctorId] */\n      dup2\n      mstore\n      0x20\n      add\n      swap1\n      dup2\n      mstore\n      0x20\n      add\n      0x00\n      keccak256\n        /* \"contracts/patientrecord.sol\":1692:1712  doctors[doctorId].id */\n      0x00\n      add\n        /* \"contracts/patientrecord.sol\":1692:1723  doctors[doctorId].id = doctorId */\n      dup2\n      swap1\n      sstore\n      pop\n        /* \"contracts/patientrecord.sol\":1758:1763  _name */\n      dup4\n        /* \"contracts/patientrecord.sol\":1733:1740  doctors */\n      0x04\n        /* \"contracts/patientrecord.sol\":1733:1750  doctors[doctorId] */\n      0x00\n        /* \"contracts/patientrecord.sol\":1741:1749  doctorId */\n      dup4\n        /* \"contracts/patientrecord.sol\":1733:1750  doctors[doctorId] */\n      dup2\n      mstore\n      0x20\n      add\n      swap1\n      dup2\n      mstore\n      0x20\n      add\n      0x00\n      keccak256\n        /* \"contracts/patientrecord.sol\":1733:1755  doctors[doctorId].name */\n      0x01\n      add\n        /* \"contracts/patientrecord.sol\":1733:1763  doctors[doctorId].name = _name */\n      swap1\n      dup2\n      tag_89\n      swap2\n      swap1\n      tag_83\n      jump\t// in\n    tag_89:\n      pop\n        /* \"contracts/patientrecord.sol\":1807:1821  _qualification */\n      dup3\n        /* \"contracts/patientrecord.sol\":1773:1780  doctors */\n      0x04\n        /* \"contracts/patientrecord.sol\":1773:1790  doctors[doctorId] */\n      0x00\n        /* \"contracts/patientrecord.sol\":1781:1789  doctorId */\n      dup4\n        /* \"contracts/patientrecord.sol\":1773:1790  doctors[doctorId] */\n      dup2\n      mstore\n      0x20\n      add\n      swap1\n      dup2\n      mstore\n      0x20\n      add\n      0x00\n      keccak256\n        /* \"contracts/patientrecord.sol\":1773:1804  doctors[doctorId].qualification */\n      0x02\n      add\n        /* \"contracts/patientrecord.sol\":1773:1821  doctors[doctorId].qualification = _qualification */\n      swap1\n      dup2\n      tag_90\n      swap2\n      swap1\n      tag_83\n      jump\t// in\n    tag_90:\n      pop\n        /* \"contracts/patientrecord.sol\":1861:1871  _workPlace */\n      dup2\n        /* \"contracts/patientrecord.sol\":1831:1838  doctors */\n      0x04\n        /* \"contracts/patientrecord.sol\":1831:1848  doctors[doctorId] */\n      0x00\n        /* \"contracts/patientrecord.sol\":1839:1847  doctorId */\n      dup4\n        /* \"contracts/patientrecord.sol\":1831:1848  doctors[doctorId] */\n      dup2\n      mstore\n      0x20\n      add\n      swap1\n      dup2\n      mstore\n      0x20\n      add\n      0x00\n      keccak256\n        /* \"contracts/patientrecord.sol\":1831:1858  doctors[doctorId].workPlace */\n      0x03\n      add\n        /* \"contracts/patientrecord.sol\":1831:1871  doctors[doctorId].workPlace = _workPlace */\n      swap1\n      dup2\n      tag_91\n      swap2\n      swap1\n      tag_83\n      jump\t// in\n    tag_91:\n      pop\n        /* \"contracts/patientrecord.sol\":1906:1910  true */\n      0x01\n        /* \"contracts/patientrecord.sol\":1881:1888  doctors */\n      0x04\n        /* \"contracts/patientrecord.sol\":1881:1898  doctors[doctorId] */\n      0x00\n        /* \"contracts/patientrecord.sol\":1889:1897  doctorId */\n      dup4\n        /* \"contracts/patientrecord.sol\":1881:1898  doctors[doctorId] */\n      dup2\n      mstore\n      0x20\n      add\n      swap1\n      dup2\n      mstore\n      0x20\n      add\n      0x00\n      keccak256\n        /* \"contracts/patientrecord.sol\":1881:1903  doctors[doctorId].flag */\n      0x04\n      add\n      0x00\n        /* \"contracts/patientrecord.sol\":1881:1910  doctors[doctorId].flag = true */\n      0x0100\n      exp\n      dup2\n      sload\n      dup2\n      0xff\n      mul\n      not\n      and\n      swap1\n      dup4\n      iszero\n      iszero\n      mul\n      or\n      swap1\n      sstore\n      pop\n        /* \"contracts/patientrecord.sol\":1640:1917  {... */\n      pop\n        /* \"contracts/patientrecord.sol\":1529:1917  function registerNewDoctor(string memory _name, string memory _qualification, string memory _workPlace) public {... */\n      pop\n      pop\n      pop\n      jump\t// out\n        /* \"contracts/patientrecord.sol\":3991:4318  function viewPatiendData(address _patientAddress) public view ... */\n    tag_40:\n        /* \"contracts/patientrecord.sol\":4070:4087  uint256 patientId */\n      0x00\n        /* \"contracts/patientrecord.sol\":4106:4117  uint256 age */\n      dup1\n        /* \"contracts/patientrecord.sol\":4136:4154  string memory name */\n      0x60\n        /* \"contracts/patientrecord.sol\":4173:4197  string[] memory diseases */\n      dup1\n        /* \"contracts/patientrecord.sol\":4213:4231  uint256 _patientId */\n      0x00\n        /* \"contracts/patientrecord.sol\":4234:4250  patiendAddressID */\n      0x07\n        /* \"contracts/patientrecord.sol\":4234:4267  patiendAddressID[_patientAddress] */\n      0x00\n        /* \"contracts/patientrecord.sol\":4251:4266  _patientAddress */\n      dup8\n        /* \"contracts/patientrecord.sol\":4234:4267  patiendAddressID[_patientAddress] */\n      0xffffffffffffffffffffffffffffffffffffffff\n      and\n      0xffffffffffffffffffffffffffffffffffffffff\n      and\n      dup2\n      mstore\n      0x20\n      add\n      swap1\n      dup2\n      mstore\n      0x20\n      add\n      0x00\n      keccak256\n      sload\n        /* \"contracts/patientrecord.sol\":4213:4267  uint256 _patientId = patiendAddressID[_patientAddress] */\n      swap1\n      pop\n        /* \"contracts/patientrecord.sol\":4284:4311  viewPatiendData(_patientId) */\n      tag_93\n        /* \"contracts/patientrecord.sol\":4300:4310  _patientId */\n      dup2\n        /* \"contracts/patientrecord.sol\":4284:4299  viewPatiendData */\n      tag_22\n        /* \"contracts/patientrecord.sol\":4284:4311  viewPatiendData(_patientId) */\n      jump\t// in\n    tag_93:\n        /* \"contracts/patientrecord.sol\":4277:4311  return viewPatiendData(_patientId) */\n      swap5\n      pop\n      swap5\n      pop\n      swap5\n      pop\n      swap5\n      pop\n      pop\n        /* \"contracts/patientrecord.sol\":3991:4318  function viewPatiendData(address _patientAddress) public view ... */\n      swap2\n      swap4\n      pop\n      swap2\n      swap4\n      jump\t// out\n        /* \"contracts/patientrecord.sol\":2525:2878  function addMedicine(uint256 _id, string memory _name, string memory _expiryDate, string memory _dose, uint256 _price) public {... */\n    tag_45:\n        /* \"contracts/patientrecord.sol\":2661:2674  medicineCount */\n      0x03\n      0x00\n        /* \"contracts/patientrecord.sol\":2661:2676  medicineCount++ */\n      dup2\n      sload\n      dup1\n      swap3\n      swap2\n      swap1\n      tag_95\n      swap1\n      tag_96\n      jump\t// in\n    tag_95:\n      swap2\n      swap1\n      pop\n      sstore\n      pop\n        /* \"contracts/patientrecord.sol\":2706:2709  _id */\n      dup5\n        /* \"contracts/patientrecord.sol\":2686:2695  medicines */\n      0x06\n        /* \"contracts/patientrecord.sol\":2686:2700  medicines[_id] */\n      0x00\n        /* \"contracts/patientrecord.sol\":2696:2699  _id */\n      dup8\n        /* \"contracts/patientrecord.sol\":2686:2700  medicines[_id] */\n      dup2\n      mstore\n      0x20\n      add\n      swap1\n      dup2\n      mstore\n      0x20\n      add\n      0x00\n      keccak256\n        /* \"contracts/patientrecord.sol\":2686:2703  medicines[_id].id */\n      0x00\n      add\n        /* \"contracts/patientrecord.sol\":2686:2709  medicines[_id].id = _id */\n      dup2\n      swap1\n      sstore\n      pop\n        /* \"contracts/patientrecord.sol\":2741:2746  _name */\n      dup4\n        /* \"contracts/patientrecord.sol\":2719:2728  medicines */\n      0x06\n        /* \"contracts/patientrecord.sol\":2719:2733  medicines[_id] */\n      0x00\n        /* \"contracts/patientrecord.sol\":2729:2732  _id */\n      dup8\n        /* \"contracts/patientrecord.sol\":2719:2733  medicines[_id] */\n      dup2\n      mstore\n      0x20\n      add\n      swap1\n      dup2\n      mstore\n      0x20\n      add\n      0x00\n      keccak256\n        /* \"contracts/patientrecord.sol\":2719:2738  medicines[_id].name */\n      0x01\n      add\n        /* \"contracts/patientrecord.sol\":2719:2746  medicines[_id].name = _name */\n      swap1\n      dup2\n      tag_97\n      swap2\n      swap1\n      tag_83\n      jump\t// in\n    tag_97:\n      pop\n        /* \"contracts/patientrecord.sol\":2784:2795  _expiryDate */\n      dup3\n        /* \"contracts/patientrecord.sol\":2756:2765  medicines */\n      0x06\n        /* \"contracts/patientrecord.sol\":2756:2770  medicines[_id] */\n      0x00\n        /* \"contracts/patientrecord.sol\":2766:2769  _id */\n      dup8\n        /* \"contracts/patientrecord.sol\":2756:2770  medicines[_id] */\n      dup2\n      mstore\n      0x20\n      add\n      swap1\n      dup2\n      mstore\n      0x20\n      add\n      0x00\n      keccak256\n        /* \"contracts/patientrecord.sol\":2756:2781  medicines[_id].expiryDate */\n      0x02\n      add\n        /* \"contracts/patientrecord.sol\":2756:2795  medicines[_id].expiryDate = _expiryDate */\n      swap1\n      dup2\n      tag_98\n      swap2\n      swap1\n      tag_83\n      jump\t// in\n    tag_98:\n      pop\n        /* \"contracts/patientrecord.sol\":2827:2832  _dose */\n      dup2\n        /* \"contracts/patientrecord.sol\":2805:2814  medicines */\n      0x06\n        /* \"contracts/patientrecord.sol\":2805:2819  medicines[_id] */\n      0x00\n        /* \"contracts/patientrecord.sol\":2815:2818  _id */\n      dup8\n        /* \"contracts/patientrecord.sol\":2805:2819  medicines[_id] */\n      dup2\n      mstore\n      0x20\n      add\n      swap1\n      dup2\n      mstore\n      0x20\n      add\n      0x00\n      keccak256\n        /* \"contracts/patientrecord.sol\":2805:2824  medicines[_id].dose */\n      0x03\n      add\n        /* \"contracts/patientrecord.sol\":2805:2832  medicines[_id].dose = _dose */\n      swap1\n      dup2\n      tag_99\n      swap2\n      swap1\n      tag_83\n      jump\t// in\n    tag_99:\n      pop\n        /* \"contracts/patientrecord.sol\":2865:2871  _price */\n      dup1\n        /* \"contracts/patientrecord.sol\":2842:2851  medicines */\n      0x06\n        /* \"contracts/patientrecord.sol\":2842:2856  medicines[_id] */\n      0x00\n        /* \"contracts/patientrecord.sol\":2852:2855  _id */\n      dup8\n        /* \"contracts/patientrecord.sol\":2842:2856  medicines[_id] */\n      dup2\n      mstore\n      0x20\n      add\n      swap1\n      dup2\n      mstore\n      0x20\n      add\n      0x00\n      keccak256\n        /* \"contracts/patientrecord.sol\":2842:2862  medicines[_id].price */\n      0x04\n      add\n        /* \"contracts/patientrecord.sol\":2842:2871  medicines[_id].price = _price */\n      dup2\n      swap1\n      sstore\n      pop\n        /* \"contracts/patientrecord.sol\":2525:2878  function addMedicine(uint256 _id, string memory _name, string memory _expiryDate, string memory _dose, uint256 _price) public {... */\n      pop\n      pop\n      pop\n      pop\n      pop\n      jump\t// out\n        /* \"contracts/patientrecord.sol\":4356:4775  function viewMedicineDetails(uint256 _medicineId) public view ... */\n    tag_48:\n        /* \"contracts/patientrecord.sol\":4435:4453  string memory name */\n      0x60\n        /* \"contracts/patientrecord.sol\":4472:4496  string memory expiryDate */\n      dup1\n        /* \"contracts/patientrecord.sol\":4515:4533  string memory dose */\n      0x60\n        /* \"contracts/patientrecord.sol\":4552:4565  uint256 price */\n      0x00\n        /* \"contracts/patientrecord.sol\":4601:4610  medicines */\n      0x06\n        /* \"contracts/patientrecord.sol\":4601:4623  medicines[_medicineId] */\n      0x00\n        /* \"contracts/patientrecord.sol\":4611:4622  _medicineId */\n      dup7\n        /* \"contracts/patientrecord.sol\":4601:4623  medicines[_medicineId] */\n      dup2\n      mstore\n      0x20\n      add\n      swap1\n      dup2\n      mstore\n      0x20\n      add\n      0x00\n      keccak256\n        /* \"contracts/patientrecord.sol\":4601:4628  medicines[_medicineId].name */\n      0x01\n      add\n        /* \"contracts/patientrecord.sol\":4642:4651  medicines */\n      0x06\n        /* \"contracts/patientrecord.sol\":4642:4664  medicines[_medicineId] */\n      0x00\n        /* \"contracts/patientrecord.sol\":4652:4663  _medicineId */\n      dup8\n        /* \"contracts/patientrecord.sol\":4642:4664  medicines[_medicineId] */\n      dup2\n      mstore\n      0x20\n      add\n      swap1\n      dup2\n      mstore\n      0x20\n      add\n      0x00\n      keccak256\n        /* \"contracts/patientrecord.sol\":4642:4675  medicines[_medicineId].expiryDate */\n      0x02\n      add\n        /* \"contracts/patientrecord.sol\":4689:4698  medicines */\n      0x06\n        /* \"contracts/patientrecord.sol\":4689:4711  medicines[_medicineId] */\n      0x00\n        /* \"contracts/patientrecord.sol\":4699:4710  _medicineId */\n      dup9\n        /* \"contracts/patientrecord.sol\":4689:4711  medicines[_medicineId] */\n      dup2\n      mstore\n      0x20\n      add\n      swap1\n      dup2\n      mstore\n      0x20\n      add\n      0x00\n      keccak256\n        /* \"contracts/patientrecord.sol\":4689:4716  medicines[_medicineId].dose */\n      0x03\n      add\n        /* \"contracts/patientrecord.sol\":4730:4739  medicines */\n      0x06\n        /* \"contracts/patientrecord.sol\":4730:4752  medicines[_medicineId] */\n      0x00\n        /* \"contracts/patientrecord.sol\":4740:4751  _medicineId */\n      dup10\n        /* \"contracts/patientrecord.sol\":4730:4752  medicines[_medicineId] */\n      dup2\n      mstore\n      0x20\n      add\n      swap1\n      dup2\n      mstore\n      0x20\n      add\n      0x00\n      keccak256\n        /* \"contracts/patientrecord.sol\":4730:4758  medicines[_medicineId].price */\n      0x04\n      add\n      sload\n        /* \"contracts/patientrecord.sol\":4581:4768  return(... */\n      dup4\n      dup1\n      sload\n      tag_101\n      swap1\n      tag_66\n      jump\t// in\n    tag_101:\n      dup1\n      0x1f\n      add\n      0x20\n      dup1\n      swap2\n      div\n      mul\n      0x20\n      add\n      mload(0x40)\n      swap1\n      dup2\n      add\n      0x40\n      mstore\n      dup1\n      swap3\n      swap2\n      swap1\n      dup2\n      dup2\n      mstore\n      0x20\n      add\n      dup3\n      dup1\n      sload\n      tag_102\n      swap1\n      tag_66\n      jump\t// in\n    tag_102:\n      dup1\n      iszero\n      tag_103\n      jumpi\n      dup1\n      0x1f\n      lt\n      tag_104\n      jumpi\n      0x0100\n      dup1\n      dup4\n      sload\n      div\n      mul\n      dup4\n      mstore\n      swap2\n      0x20\n      add\n      swap2\n      jump(tag_103)\n    tag_104:\n      dup3\n      add\n      swap2\n      swap1\n      0x00\n      mstore\n      keccak256(0x00, 0x20)\n      swap1\n    tag_105:\n      dup2\n      sload\n      dup2\n      mstore\n      swap1\n      0x01\n      add\n      swap1\n      0x20\n      add\n      dup1\n      dup4\n      gt\n      tag_105\n      jumpi\n      dup3\n      swap1\n      sub\n      0x1f\n      and\n      dup3\n      add\n      swap2\n    tag_103:\n      pop\n      pop\n      pop\n      pop\n      pop\n      swap4\n      pop\n      dup3\n      dup1\n      sload\n      tag_106\n      swap1\n      tag_66\n      jump\t// in\n    tag_106:\n      dup1\n      0x1f\n      add\n      0x20\n      dup1\n      swap2\n      div\n      mul\n      0x20\n      add\n      mload(0x40)\n      swap1\n      dup2\n      add\n      0x40\n      mstore\n      dup1\n      swap3\n      swap2\n      swap1\n      dup2\n      dup2\n      mstore\n      0x20\n      add\n      dup3\n      dup1\n      sload\n      tag_107\n      swap1\n      tag_66\n      jump\t// in\n    tag_107:\n      dup1\n      iszero\n      tag_108\n      jumpi\n      dup1\n      0x1f\n      lt\n      tag_109\n      jumpi\n      0x0100\n      dup1\n      dup4\n      sload\n      div\n      mul\n      dup4\n      mstore\n      swap2\n      0x20\n      add\n      swap2\n      jump(tag_108)\n    tag_109:\n      dup3\n      add\n      swap2\n      swap1\n      0x00\n      mstore\n      keccak256(0x00, 0x20)\n      swap1\n    tag_110:\n      dup2\n      sload\n      dup2\n      mstore\n      swap1\n      0x01\n      add\n      swap1\n      0x20\n      add\n      dup1\n      dup4\n      gt\n      tag_110\n      jumpi\n      dup3\n      swap1\n      sub\n      0x1f\n      and\n      dup3\n      add\n      swap2\n    tag_108:\n      pop\n      pop\n      pop\n      pop\n      pop\n      swap3\n      pop\n      dup2\n      dup1\n      sload\n      tag_111\n      swap1\n      tag_66\n      jump\t// in\n    tag_111:\n      dup1\n      0x1f\n      add\n      0x20\n      dup1\n      swap2\n      div\n      mul\n      0x20\n      add\n      mload(0x40)\n      swap1\n      dup2\n      add\n      0x40\n      mstore\n      dup1\n      swap3\n      swap2\n      swap1\n      dup2\n      dup2\n      mstore\n      0x20\n      add\n      dup3\n      dup1\n      sload\n      tag_112\n      swap1\n      tag_66\n      jump\t// in\n    tag_112:\n      dup1\n      iszero\n      tag_113\n      jumpi\n      dup1\n      0x1f\n      lt\n      tag_114\n      jumpi\n      0x0100\n      dup1\n      dup4\n      sload\n      div\n      mul\n      dup4\n      mstore\n      swap2\n      0x20\n      add\n      swap2\n      jump(tag_113)\n    tag_114:\n      dup3\n      add\n      swap2\n      swap1\n      0x00\n      mstore\n      keccak256(0x00, 0x20)\n      swap1\n    tag_115:\n      dup2\n      sload\n      dup2\n      mstore\n      swap1\n      0x01\n      add\n      swap1\n      0x20\n      add\n      dup1\n      dup4\n      gt\n      tag_115\n      jumpi\n      dup3\n      swap1\n      sub\n      0x1f\n      and\n      dup3\n      add\n      swap2\n    tag_113:\n      pop\n      pop\n      pop\n      pop\n      pop\n      swap2\n      pop\n      swap4\n      pop\n      swap4\n      pop\n      swap4\n      pop\n      swap4\n      pop\n        /* \"contracts/patientrecord.sol\":4356:4775  function viewMedicineDetails(uint256 _medicineId) public view ... */\n      swap2\n      swap4\n      pop\n      swap2\n      swap4\n      jump\t// out\n        /* \"contracts/patientrecord.sol\":151:179  address public contractOwner */\n    tag_52:\n      0x00\n      dup1\n      sload\n      swap1\n      0x0100\n      exp\n      swap1\n      div\n      0xffffffffffffffffffffffffffffffffffffffff\n      and\n      dup2\n      jump\t// out\n        /* \"contracts/patientrecord.sol\":3340:3526  function updatePatientDetails(address _patientAddress, uint256 _age) public {... */\n    tag_58:\n        /* \"contracts/patientrecord.sol\":3426:3443  uint256 patientId */\n      0x00\n        /* \"contracts/patientrecord.sol\":3446:3462  patiendAddressID */\n      0x07\n        /* \"contracts/patientrecord.sol\":3446:3479  patiendAddressID[_patientAddress] */\n      0x00\n        /* \"contracts/patientrecord.sol\":3463:3478  _patientAddress */\n      dup5\n        /* \"contracts/patientrecord.sol\":3446:3479  patiendAddressID[_patientAddress] */\n      0xffffffffffffffffffffffffffffffffffffffff\n      and\n      0xffffffffffffffffffffffffffffffffffffffff\n      and\n      dup2\n      mstore\n      0x20\n      add\n      swap1\n      dup2\n      mstore\n      0x20\n      add\n      0x00\n      keccak256\n      sload\n        /* \"contracts/patientrecord.sol\":3426:3479  uint256 patientId = patiendAddressID[_patientAddress] */\n      swap1\n      pop\n        /* \"contracts/patientrecord.sol\":3515:3519  _age */\n      dup2\n        /* \"contracts/patientrecord.sol\":3489:3497  patients */\n      0x05\n        /* \"contracts/patientrecord.sol\":3489:3508  patients[patientId] */\n      0x00\n        /* \"contracts/patientrecord.sol\":3498:3507  patientId */\n      dup4\n        /* \"contracts/patientrecord.sol\":3489:3508  patients[patientId] */\n      dup2\n      mstore\n      0x20\n      add\n      swap1\n      dup2\n      mstore\n      0x20\n      add\n      0x00\n      keccak256\n        /* \"contracts/patientrecord.sol\":3489:3512  patients[patientId].age */\n      0x02\n      add\n        /* \"contracts/patientrecord.sol\":3489:3519  patients[patientId].age = _age */\n      dup2\n      swap1\n      sstore\n      pop\n        /* \"contracts/patientrecord.sol\":3416:3526  {... */\n      pop\n        /* \"contracts/patientrecord.sol\":3340:3526  function updatePatientDetails(address _patientAddress, uint256 _age) public {... */\n      pop\n      pop\n      jump\t// out\n        /* \"contracts/patientrecord.sol\":2913:3120  function prescribeMedicine(uint256 _medicineId, address _patientAddress) public {... */\n    tag_62:\n        /* \"contracts/patientrecord.sol\":3003:3020  uint256 patientId */\n      0x00\n        /* \"contracts/patientrecord.sol\":3023:3039  patiendAddressID */\n      0x07\n        /* \"contracts/patientrecord.sol\":3023:3056  patiendAddressID[_patientAddress] */\n      0x00\n        /* \"contracts/patientrecord.sol\":3040:3055  _patientAddress */\n      dup4\n        /* \"contracts/patientrecord.sol\":3023:3056  patiendAddressID[_patientAddress] */\n      0xffffffffffffffffffffffffffffffffffffffff\n      and\n      0xffffffffffffffffffffffffffffffffffffffff\n      and\n      dup2\n      mstore\n      0x20\n      add\n      swap1\n      dup2\n      mstore\n      0x20\n      add\n      0x00\n      keccak256\n      sload\n        /* \"contracts/patientrecord.sol\":3003:3056  uint256 patientId = patiendAddressID[_patientAddress] */\n      swap1\n      pop\n        /* \"contracts/patientrecord.sol\":3066:3074  patients */\n      0x05\n        /* \"contracts/patientrecord.sol\":3066:3085  patients[patientId] */\n      0x00\n        /* \"contracts/patientrecord.sol\":3075:3084  patientId */\n      dup3\n        /* \"contracts/patientrecord.sol\":3066:3085  patients[patientId] */\n      dup2\n      mstore\n      0x20\n      add\n      swap1\n      dup2\n      mstore\n      0x20\n      add\n      0x00\n      keccak256\n        /* \"contracts/patientrecord.sol\":3066:3095  patients[patientId].medicines */\n      0x05\n      add\n        /* \"contracts/patientrecord.sol\":3101:3112  _medicineId */\n      dup4\n        /* \"contracts/patientrecord.sol\":3066:3113  patients[patientId].medicines.push(_medicineId) */\n      swap1\n      dup1\n      0x01\n      dup2\n      sload\n      add\n      dup1\n      dup3\n      sstore\n      dup1\n      swap2\n      pop\n      pop\n      0x01\n      swap1\n      sub\n      swap1\n      0x00\n      mstore\n      keccak256(0x00, 0x20)\n      add\n      0x00\n      swap1\n      swap2\n      swap1\n      swap2\n      swap1\n      swap2\n      pop\n      sstore\n        /* \"contracts/patientrecord.sol\":2993:3120  {... */\n      pop\n        /* \"contracts/patientrecord.sol\":2913:3120  function prescribeMedicine(uint256 _medicineId, address _patientAddress) public {... */\n      pop\n      pop\n      jump\t// out\n        /* \"#utility.yul\":7:82   */\n    tag_119:\n        /* \"#utility.yul\":40:46   */\n      0x00\n        /* \"#utility.yul\":73:75   */\n      0x40\n        /* \"#utility.yul\":67:76   */\n      mload\n        /* \"#utility.yul\":57:76   */\n      swap1\n      pop\n        /* \"#utility.yul\":7:82   */\n      swap1\n      jump\t// out\n        /* \"#utility.yul\":88:205   */\n    tag_120:\n        /* \"#utility.yul\":197:198   */\n      0x00\n        /* \"#utility.yul\":194:195   */\n      dup1\n        /* \"#utility.yul\":187:199   */\n      revert\n        /* \"#utility.yul\":211:328   */\n    tag_121:\n        /* \"#utility.yul\":320:321   */\n      0x00\n        /* \"#utility.yul\":317:318   */\n      dup1\n        /* \"#utility.yul\":310:322   */\n      revert\n        /* \"#utility.yul\":334:411   */\n    tag_122:\n        /* \"#utility.yul\":371:378   */\n      0x00\n        /* \"#utility.yul\":400:405   */\n      dup2\n        /* \"#utility.yul\":389:405   */\n      swap1\n      pop\n        /* \"#utility.yul\":334:411   */\n      swap2\n      swap1\n      pop\n      jump\t// out\n        /* \"#utility.yul\":417:539   */\n    tag_123:\n        /* \"#utility.yul\":490:514   */\n      tag_176\n        /* \"#utility.yul\":508:513   */\n      dup2\n        /* \"#utility.yul\":490:514   */\n      tag_122\n      jump\t// in\n    tag_176:\n        /* \"#utility.yul\":483:488   */\n      dup2\n        /* \"#utility.yul\":480:515   */\n      eq\n        /* \"#utility.yul\":470:533   */\n      tag_177\n      jumpi\n        /* \"#utility.yul\":529:530   */\n      0x00\n        /* \"#utility.yul\":526:527   */\n      dup1\n        /* \"#utility.yul\":519:531   */\n      revert\n        /* \"#utility.yul\":470:533   */\n    tag_177:\n        /* \"#utility.yul\":417:539   */\n      pop\n      jump\t// out\n        /* \"#utility.yul\":545:684   */\n    tag_124:\n        /* \"#utility.yul\":591:596   */\n      0x00\n        /* \"#utility.yul\":629:635   */\n      dup2\n        /* \"#utility.yul\":616:636   */\n      calldataload\n        /* \"#utility.yul\":607:636   */\n      swap1\n      pop\n        /* \"#utility.yul\":645:678   */\n      tag_179\n        /* \"#utility.yul\":672:677   */\n      dup2\n        /* \"#utility.yul\":645:678   */\n      tag_123\n      jump\t// in\n    tag_179:\n        /* \"#utility.yul\":545:684   */\n      swap3\n      swap2\n      pop\n      pop\n      jump\t// out\n        /* \"#utility.yul\":690:1164   */\n    tag_17:\n        /* \"#utility.yul\":758:764   */\n      0x00\n        /* \"#utility.yul\":766:772   */\n      dup1\n        /* \"#utility.yul\":815:817   */\n      0x40\n        /* \"#utility.yul\":803:812   */\n      dup4\n        /* \"#utility.yul\":794:801   */\n      dup6\n        /* \"#utility.yul\":790:813   */\n      sub\n        /* \"#utility.yul\":786:818   */\n      slt\n        /* \"#utility.yul\":783:902   */\n      iszero\n      tag_181\n      jumpi\n        /* \"#utility.yul\":821:900   */\n      tag_182\n      tag_120\n      jump\t// in\n    tag_182:\n        /* \"#utility.yul\":783:902   */\n    tag_181:\n        /* \"#utility.yul\":941:942   */\n      0x00\n        /* \"#utility.yul\":966:1019   */\n      tag_183\n        /* \"#utility.yul\":1011:1018   */\n      dup6\n        /* \"#utility.yul\":1002:1008   */\n      dup3\n        /* \"#utility.yul\":991:1000   */\n      dup7\n        /* \"#utility.yul\":987:1009   */\n      add\n        /* \"#utility.yul\":966:1019   */\n      tag_124\n      jump\t// in\n    tag_183:\n        /* \"#utility.yul\":956:1019   */\n      swap3\n      pop\n        /* \"#utility.yul\":912:1029   */\n      pop\n        /* \"#utility.yul\":1068:1070   */\n      0x20\n        /* \"#utility.yul\":1094:1147   */\n      tag_184\n        /* \"#utility.yul\":1139:1146   */\n      dup6\n        /* \"#utility.yul\":1130:1136   */\n      dup3\n        /* \"#utility.yul\":1119:1128   */\n      dup7\n        /* \"#utility.yul\":1115:1137   */\n      add\n        /* \"#utility.yul\":1094:1147   */\n      tag_124\n      jump\t// in\n    tag_184:\n        /* \"#utility.yul\":1084:1147   */\n      swap2\n      pop\n        /* \"#utility.yul\":1039:1157   */\n      pop\n        /* \"#utility.yul\":690:1164   */\n      swap3\n      pop\n      swap3\n      swap1\n      pop\n      jump\t// out\n        /* \"#utility.yul\":1170:1499   */\n    tag_21:\n        /* \"#utility.yul\":1229:1235   */\n      0x00\n        /* \"#utility.yul\":1278:1280   */\n      0x20\n        /* \"#utility.yul\":1266:1275   */\n      dup3\n        /* \"#utility.yul\":1257:1264   */\n      dup5\n        /* \"#utility.yul\":1253:1276   */\n      sub\n        /* \"#utility.yul\":1249:1281   */\n      slt\n        /* \"#utility.yul\":1246:1365   */\n      iszero\n      tag_186\n      jumpi\n        /* \"#utility.yul\":1284:1363   */\n      tag_187\n      tag_120\n      jump\t// in\n    tag_187:\n        /* \"#utility.yul\":1246:1365   */\n    tag_186:\n        /* \"#utility.yul\":1404:1405   */\n      0x00\n        /* \"#utility.yul\":1429:1482   */\n      tag_188\n        /* \"#utility.yul\":1474:1481   */\n      dup5\n        /* \"#utility.yul\":1465:1471   */\n      dup3\n        /* \"#utility.yul\":1454:1463   */\n      dup6\n        /* \"#utility.yul\":1450:1472   */\n      add\n        /* \"#utility.yul\":1429:1482   */\n      tag_124\n      jump\t// in\n    tag_188:\n        /* \"#utility.yul\":1419:1482   */\n      swap2\n      pop\n        /* \"#utility.yul\":1375:1492   */\n      pop\n        /* \"#utility.yul\":1170:1499   */\n      swap3\n      swap2\n      pop\n      pop\n      jump\t// out\n        /* \"#utility.yul\":1505:1623   */\n    tag_125:\n        /* \"#utility.yul\":1592:1616   */\n      tag_190\n        /* \"#utility.yul\":1610:1615   */\n      dup2\n        /* \"#utility.yul\":1592:1616   */\n      tag_122\n      jump\t// in\n    tag_190:\n        /* \"#utility.yul\":1587:1590   */\n      dup3\n        /* \"#utility.yul\":1580:1617   */\n      mstore\n        /* \"#utility.yul\":1505:1623   */\n      pop\n      pop\n      jump\t// out\n        /* \"#utility.yul\":1629:1728   */\n    tag_126:\n        /* \"#utility.yul\":1681:1687   */\n      0x00\n        /* \"#utility.yul\":1715:1720   */\n      dup2\n        /* \"#utility.yul\":1709:1721   */\n      mload\n        /* \"#utility.yul\":1699:1721   */\n      swap1\n      pop\n        /* \"#utility.yul\":1629:1728   */\n      swap2\n      swap1\n      pop\n      jump\t// out\n        /* \"#utility.yul\":1734:1903   */\n    tag_127:\n        /* \"#utility.yul\":1818:1829   */\n      0x00\n        /* \"#utility.yul\":1852:1858   */\n      dup3\n        /* \"#utility.yul\":1847:1850   */\n      dup3\n        /* \"#utility.yul\":1840:1859   */\n      mstore\n        /* \"#utility.yul\":1892:1896   */\n      0x20\n        /* \"#utility.yul\":1887:1890   */\n      dup3\n        /* \"#utility.yul\":1883:1897   */\n      add\n        /* \"#utility.yul\":1868:1897   */\n      swap1\n      pop\n        /* \"#utility.yul\":1734:1903   */\n      swap3\n      swap2\n      pop\n      pop\n      jump\t// out\n        /* \"#utility.yul\":1909:2155   */\n    tag_128:\n        /* \"#utility.yul\":1990:1991   */\n      0x00\n        /* \"#utility.yul\":2000:2113   */\n    tag_194:\n        /* \"#utility.yul\":2014:2020   */\n      dup4\n        /* \"#utility.yul\":2011:2012   */\n      dup2\n        /* \"#utility.yul\":2008:2021   */\n      lt\n        /* \"#utility.yul\":2000:2113   */\n      iszero\n      tag_196\n      jumpi\n        /* \"#utility.yul\":2099:2100   */\n      dup1\n        /* \"#utility.yul\":2094:2097   */\n      dup3\n        /* \"#utility.yul\":2090:2101   */\n      add\n        /* \"#utility.yul\":2084:2102   */\n      mload\n        /* \"#utility.yul\":2080:2081   */\n      dup2\n        /* \"#utility.yul\":2075:2078   */\n      dup5\n        /* \"#utility.yul\":2071:2082   */\n      add\n        /* \"#utility.yul\":2064:2103   */\n      mstore\n        /* \"#utility.yul\":2036:2038   */\n      0x20\n        /* \"#utility.yul\":2033:2034   */\n      dup2\n        /* \"#utility.yul\":2029:2039   */\n      add\n        /* \"#utility.yul\":2024:2039   */\n      swap1\n      pop\n        /* \"#utility.yul\":2000:2113   */\n      jump(tag_194)\n    tag_196:\n        /* \"#utility.yul\":2147:2148   */\n      0x00\n        /* \"#utility.yul\":2138:2144   */\n      dup5\n        /* \"#utility.yul\":2133:2136   */\n      dup5\n        /* \"#utility.yul\":2129:2145   */\n      add\n        /* \"#utility.yul\":2122:2149   */\n      mstore\n        /* \"#utility.yul\":1971:2155   */\n      pop\n        /* \"#utility.yul\":1909:2155   */\n      pop\n      pop\n      pop\n      jump\t// out\n        /* \"#utility.yul\":2161:2263   */\n    tag_129:\n        /* \"#utility.yul\":2202:2208   */\n      0x00\n        /* \"#utility.yul\":2253:2255   */\n      0x1f\n        /* \"#utility.yul\":2249:2256   */\n      not\n        /* \"#utility.yul\":2244:2246   */\n      0x1f\n        /* \"#utility.yul\":2237:2242   */\n      dup4\n        /* \"#utility.yul\":2233:2247   */\n      add\n        /* \"#utility.yul\":2229:2257   */\n      and\n        /* \"#utility.yul\":2219:2257   */\n      swap1\n      pop\n        /* \"#utility.yul\":2161:2263   */\n      swap2\n      swap1\n      pop\n      jump\t// out\n        /* \"#utility.yul\":2269:2646   */\n    tag_130:\n        /* \"#utility.yul\":2357:2360   */\n      0x00\n        /* \"#utility.yul\":2385:2424   */\n      tag_199\n        /* \"#utility.yul\":2418:2423   */\n      dup3\n        /* \"#utility.yul\":2385:2424   */\n      tag_126\n      jump\t// in\n    tag_199:\n        /* \"#utility.yul\":2440:2511   */\n      tag_200\n        /* \"#utility.yul\":2504:2510   */\n      dup2\n        /* \"#utility.yul\":2499:2502   */\n      dup6\n        /* \"#utility.yul\":2440:2511   */\n      tag_127\n      jump\t// in\n    tag_200:\n        /* \"#utility.yul\":2433:2511   */\n      swap4\n      pop\n        /* \"#utility.yul\":2520:2585   */\n      tag_201\n        /* \"#utility.yul\":2578:2584   */\n      dup2\n        /* \"#utility.yul\":2573:2576   */\n      dup6\n        /* \"#utility.yul\":2566:2570   */\n      0x20\n        /* \"#utility.yul\":2559:2564   */\n      dup7\n        /* \"#utility.yul\":2555:2571   */\n      add\n        /* \"#utility.yul\":2520:2585   */\n      tag_128\n      jump\t// in\n    tag_201:\n        /* \"#utility.yul\":2610:2639   */\n      tag_202\n        /* \"#utility.yul\":2632:2638   */\n      dup2\n        /* \"#utility.yul\":2610:2639   */\n      tag_129\n      jump\t// in\n    tag_202:\n        /* \"#utility.yul\":2605:2608   */\n      dup5\n        /* \"#utility.yul\":2601:2640   */\n      add\n        /* \"#utility.yul\":2594:2640   */\n      swap2\n      pop\n        /* \"#utility.yul\":2361:2646   */\n      pop\n        /* \"#utility.yul\":2269:2646   */\n      swap3\n      swap2\n      pop\n      pop\n      jump\t// out\n        /* \"#utility.yul\":2652:2776   */\n    tag_131:\n        /* \"#utility.yul\":2729:2735   */\n      0x00\n        /* \"#utility.yul\":2763:2768   */\n      dup2\n        /* \"#utility.yul\":2757:2769   */\n      mload\n        /* \"#utility.yul\":2747:2769   */\n      swap1\n      pop\n        /* \"#utility.yul\":2652:2776   */\n      swap2\n      swap1\n      pop\n      jump\t// out\n        /* \"#utility.yul\":2782:2976   */\n    tag_132:\n        /* \"#utility.yul\":2891:2902   */\n      0x00\n        /* \"#utility.yul\":2925:2931   */\n      dup3\n        /* \"#utility.yul\":2920:2923   */\n      dup3\n        /* \"#utility.yul\":2913:2932   */\n      mstore\n        /* \"#utility.yul\":2965:2969   */\n      0x20\n        /* \"#utility.yul\":2960:2963   */\n      dup3\n        /* \"#utility.yul\":2956:2970   */\n      add\n        /* \"#utility.yul\":2941:2970   */\n      swap1\n      pop\n        /* \"#utility.yul\":2782:2976   */\n      swap3\n      swap2\n      pop\n      pop\n      jump\t// out\n        /* \"#utility.yul\":2982:3124   */\n    tag_133:\n        /* \"#utility.yul\":3059:3063   */\n      0x00\n        /* \"#utility.yul\":3082:3085   */\n      dup2\n        /* \"#utility.yul\":3074:3085   */\n      swap1\n      pop\n        /* \"#utility.yul\":3112:3116   */\n      0x20\n        /* \"#utility.yul\":3107:3110   */\n      dup3\n        /* \"#utility.yul\":3103:3117   */\n      add\n        /* \"#utility.yul\":3095:3117   */\n      swap1\n      pop\n        /* \"#utility.yul\":2982:3124   */\n      swap2\n      swap1\n      pop\n      jump\t// out\n        /* \"#utility.yul\":3130:3289   */\n    tag_134:\n        /* \"#utility.yul\":3204:3215   */\n      0x00\n        /* \"#utility.yul\":3238:3244   */\n      dup3\n        /* \"#utility.yul\":3233:3236   */\n      dup3\n        /* \"#utility.yul\":3226:3245   */\n      mstore\n        /* \"#utility.yul\":3278:3282   */\n      0x20\n        /* \"#utility.yul\":3273:3276   */\n      dup3\n        /* \"#utility.yul\":3269:3283   */\n      add\n        /* \"#utility.yul\":3254:3283   */\n      swap1\n      pop\n        /* \"#utility.yul\":3130:3289   */\n      swap3\n      swap2\n      pop\n      pop\n      jump\t// out\n        /* \"#utility.yul\":3295:3652   */\n    tag_135:\n        /* \"#utility.yul\":3373:3376   */\n      0x00\n        /* \"#utility.yul\":3401:3440   */\n      tag_208\n        /* \"#utility.yul\":3434:3439   */\n      dup3\n        /* \"#utility.yul\":3401:3440   */\n      tag_126\n      jump\t// in\n    tag_208:\n        /* \"#utility.yul\":3456:3517   */\n      tag_209\n        /* \"#utility.yul\":3510:3516   */\n      dup2\n        /* \"#utility.yul\":3505:3508   */\n      dup6\n        /* \"#utility.yul\":3456:3517   */\n      tag_134\n      jump\t// in\n    tag_209:\n        /* \"#utility.yul\":3449:3517   */\n      swap4\n      pop\n        /* \"#utility.yul\":3526:3591   */\n      tag_210\n        /* \"#utility.yul\":3584:3590   */\n      dup2\n        /* \"#utility.yul\":3579:3582   */\n      dup6\n        /* \"#utility.yul\":3572:3576   */\n      0x20\n        /* \"#utility.yul\":3565:3570   */\n      dup7\n        /* \"#utility.yul\":3561:3577   */\n      add\n        /* \"#utility.yul\":3526:3591   */\n      tag_128\n      jump\t// in\n    tag_210:\n        /* \"#utility.yul\":3616:3645   */\n      tag_211\n        /* \"#utility.yul\":3638:3644   */\n      dup2\n        /* \"#utility.yul\":3616:3645   */\n      tag_129\n      jump\t// in\n    tag_211:\n        /* \"#utility.yul\":3611:3614   */\n      dup5\n        /* \"#utility.yul\":3607:3646   */\n      add\n        /* \"#utility.yul\":3600:3646   */\n      swap2\n      pop\n        /* \"#utility.yul\":3377:3652   */\n      pop\n        /* \"#utility.yul\":3295:3652   */\n      swap3\n      swap2\n      pop\n      pop\n      jump\t// out\n        /* \"#utility.yul\":3658:3854   */\n    tag_136:\n        /* \"#utility.yul\":3747:3757   */\n      0x00\n        /* \"#utility.yul\":3782:3848   */\n      tag_213\n        /* \"#utility.yul\":3844:3847   */\n      dup4\n        /* \"#utility.yul\":3836:3842   */\n      dup4\n        /* \"#utility.yul\":3782:3848   */\n      tag_135\n      jump\t// in\n    tag_213:\n        /* \"#utility.yul\":3768:3848   */\n      swap1\n      pop\n        /* \"#utility.yul\":3658:3854   */\n      swap3\n      swap2\n      pop\n      pop\n      jump\t// out\n        /* \"#utility.yul\":3860:3983   */\n    tag_137:\n        /* \"#utility.yul\":3940:3944   */\n      0x00\n        /* \"#utility.yul\":3972:3976   */\n      0x20\n        /* \"#utility.yul\":3967:3970   */\n      dup3\n        /* \"#utility.yul\":3963:3977   */\n      add\n        /* \"#utility.yul\":3955:3977   */\n      swap1\n      pop\n        /* \"#utility.yul\":3860:3983   */\n      swap2\n      swap1\n      pop\n      jump\t// out\n        /* \"#utility.yul\":4017:5008   */\n    tag_138:\n        /* \"#utility.yul\":4156:4159   */\n      0x00\n        /* \"#utility.yul\":4185:4249   */\n      tag_216\n        /* \"#utility.yul\":4243:4248   */\n      dup3\n        /* \"#utility.yul\":4185:4249   */\n      tag_131\n      jump\t// in\n    tag_216:\n        /* \"#utility.yul\":4265:4361   */\n      tag_217\n        /* \"#utility.yul\":4354:4360   */\n      dup2\n        /* \"#utility.yul\":4349:4352   */\n      dup6\n        /* \"#utility.yul\":4265:4361   */\n      tag_132\n      jump\t// in\n    tag_217:\n        /* \"#utility.yul\":4258:4361   */\n      swap4\n      pop\n        /* \"#utility.yul\":4387:4390   */\n      dup4\n        /* \"#utility.yul\":4432:4436   */\n      0x20\n        /* \"#utility.yul\":4424:4430   */\n      dup3\n        /* \"#utility.yul\":4420:4437   */\n      mul\n        /* \"#utility.yul\":4415:4418   */\n      dup6\n        /* \"#utility.yul\":4411:4438   */\n      add\n        /* \"#utility.yul\":4462:4528   */\n      tag_218\n        /* \"#utility.yul\":4522:4527   */\n      dup6\n        /* \"#utility.yul\":4462:4528   */\n      tag_133\n      jump\t// in\n    tag_218:\n        /* \"#utility.yul\":4551:4558   */\n      dup1\n        /* \"#utility.yul\":4582:4583   */\n      0x00\n        /* \"#utility.yul\":4567:4963   */\n    tag_219:\n        /* \"#utility.yul\":4592:4598   */\n      dup6\n        /* \"#utility.yul\":4589:4590   */\n      dup2\n        /* \"#utility.yul\":4586:4599   */\n      lt\n        /* \"#utility.yul\":4567:4963   */\n      iszero\n      tag_221\n      jumpi\n        /* \"#utility.yul\":4663:4672   */\n      dup5\n        /* \"#utility.yul\":4657:4661   */\n      dup5\n        /* \"#utility.yul\":4653:4673   */\n      sub\n        /* \"#utility.yul\":4648:4651   */\n      dup10\n        /* \"#utility.yul\":4641:4674   */\n      mstore\n        /* \"#utility.yul\":4714:4720   */\n      dup2\n        /* \"#utility.yul\":4708:4721   */\n      mload\n        /* \"#utility.yul\":4742:4826   */\n      tag_222\n        /* \"#utility.yul\":4821:4825   */\n      dup6\n        /* \"#utility.yul\":4806:4819   */\n      dup3\n        /* \"#utility.yul\":4742:4826   */\n      tag_136\n      jump\t// in\n    tag_222:\n        /* \"#utility.yul\":4734:4826   */\n      swap5\n      pop\n        /* \"#utility.yul\":4849:4919   */\n      tag_223\n        /* \"#utility.yul\":4912:4918   */\n      dup4\n        /* \"#utility.yul\":4849:4919   */\n      tag_137\n      jump\t// in\n    tag_223:\n        /* \"#utility.yul\":4839:4919   */\n      swap3\n      pop\n        /* \"#utility.yul\":4948:4952   */\n      0x20\n        /* \"#utility.yul\":4943:4946   */\n      dup11\n        /* \"#utility.yul\":4939:4953   */\n      add\n        /* \"#utility.yul\":4932:4953   */\n      swap10\n      pop\n        /* \"#utility.yul\":4627:4963   */\n      pop\n        /* \"#utility.yul\":4614:4615   */\n      0x01\n        /* \"#utility.yul\":4611:4612   */\n      dup2\n        /* \"#utility.yul\":4607:4616   */\n      add\n        /* \"#utility.yul\":4602:4616   */\n      swap1\n      pop\n        /* \"#utility.yul\":4567:4963   */\n      jump(tag_219)\n    tag_221:\n        /* \"#utility.yul\":4571:4585   */\n      pop\n        /* \"#utility.yul\":4979:4983   */\n      dup3\n        /* \"#utility.yul\":4972:4983   */\n      swap8\n      pop\n        /* \"#utility.yul\":4999:5002   */\n      dup8\n        /* \"#utility.yul\":4992:5002   */\n      swap6\n      pop\n        /* \"#utility.yul\":4161:5008   */\n      pop\n      pop\n      pop\n      pop\n      pop\n        /* \"#utility.yul\":4017:5008   */\n      swap3\n      swap2\n      pop\n      pop\n      jump\t// out\n        /* \"#utility.yul\":5014:5849   */\n    tag_24:\n        /* \"#utility.yul\":5281:5285   */\n      0x00\n        /* \"#utility.yul\":5319:5322   */\n      0x80\n        /* \"#utility.yul\":5308:5317   */\n      dup3\n        /* \"#utility.yul\":5304:5323   */\n      add\n        /* \"#utility.yul\":5296:5323   */\n      swap1\n      pop\n        /* \"#utility.yul\":5333:5404   */\n      tag_225\n        /* \"#utility.yul\":5401:5402   */\n      0x00\n        /* \"#utility.yul\":5390:5399   */\n      dup4\n        /* \"#utility.yul\":5386:5403   */\n      add\n        /* \"#utility.yul\":5377:5383   */\n      dup8\n        /* \"#utility.yul\":5333:5404   */\n      tag_125\n      jump\t// in\n    tag_225:\n        /* \"#utility.yul\":5414:5486   */\n      tag_226\n        /* \"#utility.yul\":5482:5484   */\n      0x20\n        /* \"#utility.yul\":5471:5480   */\n      dup4\n        /* \"#utility.yul\":5467:5485   */\n      add\n        /* \"#utility.yul\":5458:5464   */\n      dup7\n        /* \"#utility.yul\":5414:5486   */\n      tag_125\n      jump\t// in\n    tag_226:\n        /* \"#utility.yul\":5533:5542   */\n      dup2\n        /* \"#utility.yul\":5527:5531   */\n      dup2\n        /* \"#utility.yul\":5523:5543   */\n      sub\n        /* \"#utility.yul\":5518:5520   */\n      0x40\n        /* \"#utility.yul\":5507:5516   */\n      dup4\n        /* \"#utility.yul\":5503:5521   */\n      add\n        /* \"#utility.yul\":5496:5544   */\n      mstore\n        /* \"#utility.yul\":5561:5639   */\n      tag_227\n        /* \"#utility.yul\":5634:5638   */\n      dup2\n        /* \"#utility.yul\":5625:5631   */\n      dup6\n        /* \"#utility.yul\":5561:5639   */\n      tag_130\n      jump\t// in\n    tag_227:\n        /* \"#utility.yul\":5553:5639   */\n      swap1\n      pop\n        /* \"#utility.yul\":5686:5695   */\n      dup2\n        /* \"#utility.yul\":5680:5684   */\n      dup2\n        /* \"#utility.yul\":5676:5696   */\n      sub\n        /* \"#utility.yul\":5671:5673   */\n      0x60\n        /* \"#utility.yul\":5660:5669   */\n      dup4\n        /* \"#utility.yul\":5656:5674   */\n      add\n        /* \"#utility.yul\":5649:5697   */\n      mstore\n        /* \"#utility.yul\":5714:5842   */\n      tag_228\n        /* \"#utility.yul\":5837:5841   */\n      dup2\n        /* \"#utility.yul\":5828:5834   */\n      dup5\n        /* \"#utility.yul\":5714:5842   */\n      tag_138\n      jump\t// in\n    tag_228:\n        /* \"#utility.yul\":5706:5842   */\n      swap1\n      pop\n        /* \"#utility.yul\":5014:5849   */\n      swap6\n      swap5\n      pop\n      pop\n      pop\n      pop\n      pop\n      jump\t// out\n        /* \"#utility.yul\":5855:5972   */\n    tag_139:\n        /* \"#utility.yul\":5964:5965   */\n      0x00\n        /* \"#utility.yul\":5961:5962   */\n      dup1\n        /* \"#utility.yul\":5954:5966   */\n      revert\n        /* \"#utility.yul\":5978:6095   */\n    tag_140:\n        /* \"#utility.yul\":6087:6088   */\n      0x00\n        /* \"#utility.yul\":6084:6085   */\n      dup1\n        /* \"#utility.yul\":6077:6089   */\n      revert\n        /* \"#utility.yul\":6101:6281   */\n    tag_141:\n        /* \"#utility.yul\":6149:6226   */\n      0x4e487b7100000000000000000000000000000000000000000000000000000000\n        /* \"#utility.yul\":6146:6147   */\n      0x00\n        /* \"#utility.yul\":6139:6227   */\n      mstore\n        /* \"#utility.yul\":6246:6250   */\n      0x41\n        /* \"#utility.yul\":6243:6244   */\n      0x04\n        /* \"#utility.yul\":6236:6251   */\n      mstore\n        /* \"#utility.yul\":6270:6274   */\n      0x24\n        /* \"#utility.yul\":6267:6268   */\n      0x00\n        /* \"#utility.yul\":6260:6275   */\n      revert\n        /* \"#utility.yul\":6287:6568   */\n    tag_142:\n        /* \"#utility.yul\":6370:6397   */\n      tag_233\n        /* \"#utility.yul\":6392:6396   */\n      dup3\n        /* \"#utility.yul\":6370:6397   */\n      tag_129\n      jump\t// in\n    tag_233:\n        /* \"#utility.yul\":6362:6368   */\n      dup2\n        /* \"#utility.yul\":6358:6398   */\n      add\n        /* \"#utility.yul\":6500:6506   */\n      dup2\n        /* \"#utility.yul\":6488:6498   */\n      dup2\n        /* \"#utility.yul\":6485:6507   */\n      lt\n        /* \"#utility.yul\":6464:6482   */\n      0xffffffffffffffff\n        /* \"#utility.yul\":6452:6462   */\n      dup3\n        /* \"#utility.yul\":6449:6483   */\n      gt\n        /* \"#utility.yul\":6446:6508   */\n      or\n        /* \"#utility.yul\":6443:6531   */\n      iszero\n      tag_234\n      jumpi\n        /* \"#utility.yul\":6511:6529   */\n      tag_235\n      tag_141\n      jump\t// in\n    tag_235:\n        /* \"#utility.yul\":6443:6531   */\n    tag_234:\n        /* \"#utility.yul\":6551:6561   */\n      dup1\n        /* \"#utility.yul\":6547:6549   */\n      0x40\n        /* \"#utility.yul\":6540:6562   */\n      mstore\n        /* \"#utility.yul\":6330:6568   */\n      pop\n        /* \"#utility.yul\":6287:6568   */\n      pop\n      pop\n      jump\t// out\n        /* \"#utility.yul\":6574:6703   */\n    tag_143:\n        /* \"#utility.yul\":6608:6614   */\n      0x00\n        /* \"#utility.yul\":6635:6655   */\n      tag_237\n      tag_119\n      jump\t// in\n    tag_237:\n        /* \"#utility.yul\":6625:6655   */\n      swap1\n      pop\n        /* \"#utility.yul\":6664:6697   */\n      tag_238\n        /* \"#utility.yul\":6692:6696   */\n      dup3\n        /* \"#utility.yul\":6684:6690   */\n      dup3\n        /* \"#utility.yul\":6664:6697   */\n      tag_142\n      jump\t// in\n    tag_238:\n        /* \"#utility.yul\":6574:6703   */\n      swap2\n      swap1\n      pop\n      jump\t// out\n        /* \"#utility.yul\":6709:7017   */\n    tag_144:\n        /* \"#utility.yul\":6771:6775   */\n      0x00\n        /* \"#utility.yul\":6861:6879   */\n      0xffffffffffffffff\n        /* \"#utility.yul\":6853:6859   */\n      dup3\n        /* \"#utility.yul\":6850:6880   */\n      gt\n        /* \"#utility.yul\":6847:6903   */\n      iszero\n      tag_240\n      jumpi\n        /* \"#utility.yul\":6883:6901   */\n      tag_241\n      tag_141\n      jump\t// in\n    tag_241:\n        /* \"#utility.yul\":6847:6903   */\n    tag_240:\n        /* \"#utility.yul\":6921:6950   */\n      tag_242\n        /* \"#utility.yul\":6943:6949   */\n      dup3\n        /* \"#utility.yul\":6921:6950   */\n      tag_129\n      jump\t// in\n    tag_242:\n        /* \"#utility.yul\":6913:6950   */\n      swap1\n      pop\n        /* \"#utility.yul\":7005:7009   */\n      0x20\n        /* \"#utility.yul\":6999:7003   */\n      dup2\n        /* \"#utility.yul\":6995:7010   */\n      add\n        /* \"#utility.yul\":6987:7010   */\n      swap1\n      pop\n        /* \"#utility.yul\":6709:7017   */\n      swap2\n      swap1\n      pop\n      jump\t// out\n        /* \"#utility.yul\":7023:7169   */\n    tag_145:\n        /* \"#utility.yul\":7120:7126   */\n      dup3\n        /* \"#utility.yul\":7115:7118   */\n      dup2\n        /* \"#utility.yul\":7110:7113   */\n      dup4\n        /* \"#utility.yul\":7097:7127   */\n      calldatacopy\n        /* \"#utility.yul\":7161:7162   */\n      0x00\n        /* \"#utility.yul\":7152:7158   */\n      dup4\n        /* \"#utility.yul\":7147:7150   */\n      dup4\n        /* \"#utility.yul\":7143:7159   */\n      add\n        /* \"#utility.yul\":7136:7163   */\n      mstore\n        /* \"#utility.yul\":7023:7169   */\n      pop\n      pop\n      pop\n      jump\t// out\n        /* \"#utility.yul\":7175:7600   */\n    tag_146:\n        /* \"#utility.yul\":7253:7258   */\n      0x00\n        /* \"#utility.yul\":7278:7344   */\n      tag_245\n        /* \"#utility.yul\":7294:7343   */\n      tag_246\n        /* \"#utility.yul\":7336:7342   */\n      dup5\n        /* \"#utility.yul\":7294:7343   */\n      tag_144\n      jump\t// in\n    tag_246:\n        /* \"#utility.yul\":7278:7344   */\n      tag_143\n      jump\t// in\n    tag_245:\n        /* \"#utility.yul\":7269:7344   */\n      swap1\n      pop\n        /* \"#utility.yul\":7367:7373   */\n      dup3\n        /* \"#utility.yul\":7360:7365   */\n      dup2\n        /* \"#utility.yul\":7353:7374   */\n      mstore\n        /* \"#utility.yul\":7405:7409   */\n      0x20\n        /* \"#utility.yul\":7398:7403   */\n      dup2\n        /* \"#utility.yul\":7394:7410   */\n      add\n        /* \"#utility.yul\":7443:7446   */\n      dup5\n        /* \"#utility.yul\":7434:7440   */\n      dup5\n        /* \"#utility.yul\":7429:7432   */\n      dup5\n        /* \"#utility.yul\":7425:7441   */\n      add\n        /* \"#utility.yul\":7422:7447   */\n      gt\n        /* \"#utility.yul\":7419:7531   */\n      iszero\n      tag_247\n      jumpi\n        /* \"#utility.yul\":7450:7529   */\n      tag_248\n      tag_140\n      jump\t// in\n    tag_248:\n        /* \"#utility.yul\":7419:7531   */\n    tag_247:\n        /* \"#utility.yul\":7540:7594   */\n      tag_249\n        /* \"#utility.yul\":7587:7593   */\n      dup5\n        /* \"#utility.yul\":7582:7585   */\n      dup3\n        /* \"#utility.yul\":7577:7580   */\n      dup6\n        /* \"#utility.yul\":7540:7594   */\n      tag_145\n      jump\t// in\n    tag_249:\n        /* \"#utility.yul\":7259:7600   */\n      pop\n        /* \"#utility.yul\":7175:7600   */\n      swap4\n      swap3\n      pop\n      pop\n      pop\n      jump\t// out\n        /* \"#utility.yul\":7620:7960   */\n    tag_147:\n        /* \"#utility.yul\":7676:7681   */\n      0x00\n        /* \"#utility.yul\":7725:7728   */\n      dup3\n        /* \"#utility.yul\":7718:7722   */\n      0x1f\n        /* \"#utility.yul\":7710:7716   */\n      dup4\n        /* \"#utility.yul\":7706:7723   */\n      add\n        /* \"#utility.yul\":7702:7729   */\n      slt\n        /* \"#utility.yul\":7692:7814   */\n      tag_251\n      jumpi\n        /* \"#utility.yul\":7733:7812   */\n      tag_252\n      tag_139\n      jump\t// in\n    tag_252:\n        /* \"#utility.yul\":7692:7814   */\n    tag_251:\n        /* \"#utility.yul\":7850:7856   */\n      dup2\n        /* \"#utility.yul\":7837:7857   */\n      calldataload\n        /* \"#utility.yul\":7875:7954   */\n      tag_253\n        /* \"#utility.yul\":7950:7953   */\n      dup5\n        /* \"#utility.yul\":7942:7948   */\n      dup3\n        /* \"#utility.yul\":7935:7939   */\n      0x20\n        /* \"#utility.yul\":7927:7933   */\n      dup7\n        /* \"#utility.yul\":7923:7940   */\n      add\n        /* \"#utility.yul\":7875:7954   */\n      tag_146\n      jump\t// in\n    tag_253:\n        /* \"#utility.yul\":7866:7954   */\n      swap2\n      pop\n        /* \"#utility.yul\":7682:7960   */\n      pop\n        /* \"#utility.yul\":7620:7960   */\n      swap3\n      swap2\n      pop\n      pop\n      jump\t// out\n        /* \"#utility.yul\":7966:8092   */\n    tag_148:\n        /* \"#utility.yul\":8003:8010   */\n      0x00\n        /* \"#utility.yul\":8043:8085   */\n      0xffffffffffffffffffffffffffffffffffffffff\n        /* \"#utility.yul\":8036:8041   */\n      dup3\n        /* \"#utility.yul\":8032:8086   */\n      and\n        /* \"#utility.yul\":8021:8086   */\n      swap1\n      pop\n        /* \"#utility.yul\":7966:8092   */\n      swap2\n      swap1\n      pop\n      jump\t// out\n        /* \"#utility.yul\":8098:8194   */\n    tag_149:\n        /* \"#utility.yul\":8135:8142   */\n      0x00\n        /* \"#utility.yul\":8164:8188   */\n      tag_256\n        /* \"#utility.yul\":8182:8187   */\n      dup3\n        /* \"#utility.yul\":8164:8188   */\n      tag_148\n      jump\t// in\n    tag_256:\n        /* \"#utility.yul\":8153:8188   */\n      swap1\n      pop\n        /* \"#utility.yul\":8098:8194   */\n      swap2\n      swap1\n      pop\n      jump\t// out\n        /* \"#utility.yul\":8200:8322   */\n    tag_150:\n        /* \"#utility.yul\":8273:8297   */\n      tag_258\n        /* \"#utility.yul\":8291:8296   */\n      dup2\n        /* \"#utility.yul\":8273:8297   */\n      tag_149\n      jump\t// in\n    tag_258:\n        /* \"#utility.yul\":8266:8271   */\n      dup2\n        /* \"#utility.yul\":8263:8298   */\n      eq\n        /* \"#utility.yul\":8253:8316   */\n      tag_259\n      jumpi\n        /* \"#utility.yul\":8312:8313   */\n      0x00\n        /* \"#utility.yul\":8309:8310   */\n      dup1\n        /* \"#utility.yul\":8302:8314   */\n      revert\n        /* \"#utility.yul\":8253:8316   */\n    tag_259:\n        /* \"#utility.yul\":8200:8322   */\n      pop\n      jump\t// out\n        /* \"#utility.yul\":8328:8467   */\n    tag_151:\n        /* \"#utility.yul\":8374:8379   */\n      0x00\n        /* \"#utility.yul\":8412:8418   */\n      dup2\n        /* \"#utility.yul\":8399:8419   */\n      calldataload\n        /* \"#utility.yul\":8390:8419   */\n      swap1\n      pop\n        /* \"#utility.yul\":8428:8461   */\n      tag_261\n        /* \"#utility.yul\":8455:8460   */\n      dup2\n        /* \"#utility.yul\":8428:8461   */\n      tag_150\n      jump\t// in\n    tag_261:\n        /* \"#utility.yul\":8328:8467   */\n      swap3\n      swap2\n      pop\n      pop\n      jump\t// out\n        /* \"#utility.yul\":8473:9272   */\n    tag_27:\n        /* \"#utility.yul\":8560:8566   */\n      0x00\n        /* \"#utility.yul\":8568:8574   */\n      dup1\n        /* \"#utility.yul\":8576:8582   */\n      0x00\n        /* \"#utility.yul\":8625:8627   */\n      0x60\n        /* \"#utility.yul\":8613:8622   */\n      dup5\n        /* \"#utility.yul\":8604:8611   */\n      dup7\n        /* \"#utility.yul\":8600:8623   */\n      sub\n        /* \"#utility.yul\":8596:8628   */\n      slt\n        /* \"#utility.yul\":8593:8712   */\n      iszero\n      tag_263\n      jumpi\n        /* \"#utility.yul\":8631:8710   */\n      tag_264\n      tag_120\n      jump\t// in\n    tag_264:\n        /* \"#utility.yul\":8593:8712   */\n    tag_263:\n        /* \"#utility.yul\":8779:8780   */\n      0x00\n        /* \"#utility.yul\":8768:8777   */\n      dup5\n        /* \"#utility.yul\":8764:8781   */\n      add\n        /* \"#utility.yul\":8751:8782   */\n      calldataload\n        /* \"#utility.yul\":8809:8827   */\n      0xffffffffffffffff\n        /* \"#utility.yul\":8801:8807   */\n      dup2\n        /* \"#utility.yul\":8798:8828   */\n      gt\n        /* \"#utility.yul\":8795:8912   */\n      iszero\n      tag_265\n      jumpi\n        /* \"#utility.yul\":8831:8910   */\n      tag_266\n      tag_121\n      jump\t// in\n    tag_266:\n        /* \"#utility.yul\":8795:8912   */\n    tag_265:\n        /* \"#utility.yul\":8936:8999   */\n      tag_267\n        /* \"#utility.yul\":8991:8998   */\n      dup7\n        /* \"#utility.yul\":8982:8988   */\n      dup3\n        /* \"#utility.yul\":8971:8980   */\n      dup8\n        /* \"#utility.yul\":8967:8989   */\n      add\n        /* \"#utility.yul\":8936:8999   */\n      tag_147\n      jump\t// in\n    tag_267:\n        /* \"#utility.yul\":8926:8999   */\n      swap4\n      pop\n        /* \"#utility.yul\":8722:9009   */\n      pop\n        /* \"#utility.yul\":9048:9050   */\n      0x20\n        /* \"#utility.yul\":9074:9127   */\n      tag_268\n        /* \"#utility.yul\":9119:9126   */\n      dup7\n        /* \"#utility.yul\":9110:9116   */\n      dup3\n        /* \"#utility.yul\":9099:9108   */\n      dup8\n        /* \"#utility.yul\":9095:9117   */\n      add\n        /* \"#utility.yul\":9074:9127   */\n      tag_124\n      jump\t// in\n    tag_268:\n        /* \"#utility.yul\":9064:9127   */\n      swap3\n      pop\n        /* \"#utility.yul\":9019:9137   */\n      pop\n        /* \"#utility.yul\":9176:9178   */\n      0x40\n        /* \"#utility.yul\":9202:9255   */\n      tag_269\n        /* \"#utility.yul\":9247:9254   */\n      dup7\n        /* \"#utility.yul\":9238:9244   */\n      dup3\n        /* \"#utility.yul\":9227:9236   */\n      dup8\n        /* \"#utility.yul\":9223:9245   */\n      add\n        /* \"#utility.yul\":9202:9255   */\n      tag_151\n      jump\t// in\n    tag_269:\n        /* \"#utility.yul\":9192:9255   */\n      swap2\n      pop\n        /* \"#utility.yul\":9147:9265   */\n      pop\n        /* \"#utility.yul\":8473:9272   */\n      swap3\n      pop\n      swap3\n      pop\n      swap3\n      jump\t// out\n        /* \"#utility.yul\":9278:9932   */\n    tag_31:\n        /* \"#utility.yul\":9356:9362   */\n      0x00\n        /* \"#utility.yul\":9364:9370   */\n      dup1\n        /* \"#utility.yul\":9413:9415   */\n      0x40\n        /* \"#utility.yul\":9401:9410   */\n      dup4\n        /* \"#utility.yul\":9392:9399   */\n      dup6\n        /* \"#utility.yul\":9388:9411   */\n      sub\n        /* \"#utility.yul\":9384:9416   */\n      slt\n        /* \"#utility.yul\":9381:9500   */\n      iszero\n      tag_271\n      jumpi\n        /* \"#utility.yul\":9419:9498   */\n      tag_272\n      tag_120\n      jump\t// in\n    tag_272:\n        /* \"#utility.yul\":9381:9500   */\n    tag_271:\n        /* \"#utility.yul\":9539:9540   */\n      0x00\n        /* \"#utility.yul\":9564:9617   */\n      tag_273\n        /* \"#utility.yul\":9609:9616   */\n      dup6\n        /* \"#utility.yul\":9600:9606   */\n      dup3\n        /* \"#utility.yul\":9589:9598   */\n      dup7\n        /* \"#utility.yul\":9585:9607   */\n      add\n        /* \"#utility.yul\":9564:9617   */\n      tag_124\n      jump\t// in\n    tag_273:\n        /* \"#utility.yul\":9554:9617   */\n      swap3\n      pop\n        /* \"#utility.yul\":9510:9627   */\n      pop\n        /* \"#utility.yul\":9694:9696   */\n      0x20\n        /* \"#utility.yul\":9683:9692   */\n      dup4\n        /* \"#utility.yul\":9679:9697   */\n      add\n        /* \"#utility.yul\":9666:9698   */\n      calldataload\n        /* \"#utility.yul\":9725:9743   */\n      0xffffffffffffffff\n        /* \"#utility.yul\":9717:9723   */\n      dup2\n        /* \"#utility.yul\":9714:9744   */\n      gt\n        /* \"#utility.yul\":9711:9828   */\n      iszero\n      tag_274\n      jumpi\n        /* \"#utility.yul\":9747:9826   */\n      tag_275\n      tag_121\n      jump\t// in\n    tag_275:\n        /* \"#utility.yul\":9711:9828   */\n    tag_274:\n        /* \"#utility.yul\":9852:9915   */\n      tag_276\n        /* \"#utility.yul\":9907:9914   */\n      dup6\n        /* \"#utility.yul\":9898:9904   */\n      dup3\n        /* \"#utility.yul\":9887:9896   */\n      dup7\n        /* \"#utility.yul\":9883:9905   */\n      add\n        /* \"#utility.yul\":9852:9915   */\n      tag_147\n      jump\t// in\n    tag_276:\n        /* \"#utility.yul\":9842:9915   */\n      swap2\n      pop\n        /* \"#utility.yul\":9637:9925   */\n      pop\n        /* \"#utility.yul\":9278:9932   */\n      swap3\n      pop\n      swap3\n      swap1\n      pop\n      jump\t// out\n        /* \"#utility.yul\":9938:11097   */\n    tag_35:\n        /* \"#utility.yul\":10045:10051   */\n      0x00\n        /* \"#utility.yul\":10053:10059   */\n      dup1\n        /* \"#utility.yul\":10061:10067   */\n      0x00\n        /* \"#utility.yul\":10110:10112   */\n      0x60\n        /* \"#utility.yul\":10098:10107   */\n      dup5\n        /* \"#utility.yul\":10089:10096   */\n      dup7\n        /* \"#utility.yul\":10085:10108   */\n      sub\n        /* \"#utility.yul\":10081:10113   */\n      slt\n        /* \"#utility.yul\":10078:10197   */\n      iszero\n      tag_278\n      jumpi\n        /* \"#utility.yul\":10116:10195   */\n      tag_279\n      tag_120\n      jump\t// in\n    tag_279:\n        /* \"#utility.yul\":10078:10197   */\n    tag_278:\n        /* \"#utility.yul\":10264:10265   */\n      0x00\n        /* \"#utility.yul\":10253:10262   */\n      dup5\n        /* \"#utility.yul\":10249:10266   */\n      add\n        /* \"#utility.yul\":10236:10267   */\n      calldataload\n        /* \"#utility.yul\":10294:10312   */\n      0xffffffffffffffff\n        /* \"#utility.yul\":10286:10292   */\n      dup2\n        /* \"#utility.yul\":10283:10313   */\n      gt\n        /* \"#utility.yul\":10280:10397   */\n      iszero\n      tag_280\n      jumpi\n        /* \"#utility.yul\":10316:10395   */\n      tag_281\n      tag_121\n      jump\t// in\n    tag_281:\n        /* \"#utility.yul\":10280:10397   */\n    tag_280:\n        /* \"#utility.yul\":10421:10484   */\n      tag_282\n        /* \"#utility.yul\":10476:10483   */\n      dup7\n        /* \"#utility.yul\":10467:10473   */\n      dup3\n        /* \"#utility.yul\":10456:10465   */\n      dup8\n        /* \"#utility.yul\":10452:10474   */\n      add\n        /* \"#utility.yul\":10421:10484   */\n      tag_147\n      jump\t// in\n    tag_282:\n        /* \"#utility.yul\":10411:10484   */\n      swap4\n      pop\n        /* \"#utility.yul\":10207:10494   */\n      pop\n        /* \"#utility.yul\":10561:10563   */\n      0x20\n        /* \"#utility.yul\":10550:10559   */\n      dup5\n        /* \"#utility.yul\":10546:10564   */\n      add\n        /* \"#utility.yul\":10533:10565   */\n      calldataload\n        /* \"#utility.yul\":10592:10610   */\n      0xffffffffffffffff\n        /* \"#utility.yul\":10584:10590   */\n      dup2\n        /* \"#utility.yul\":10581:10611   */\n      gt\n        /* \"#utility.yul\":10578:10695   */\n      iszero\n      tag_283\n      jumpi\n        /* \"#utility.yul\":10614:10693   */\n      tag_284\n      tag_121\n      jump\t// in\n    tag_284:\n        /* \"#utility.yul\":10578:10695   */\n    tag_283:\n        /* \"#utility.yul\":10719:10782   */\n      tag_285\n        /* \"#utility.yul\":10774:10781   */\n      dup7\n        /* \"#utility.yul\":10765:10771   */\n      dup3\n        /* \"#utility.yul\":10754:10763   */\n      dup8\n        /* \"#utility.yul\":10750:10772   */\n      add\n        /* \"#utility.yul\":10719:10782   */\n      tag_147\n      jump\t// in\n    tag_285:\n        /* \"#utility.yul\":10709:10782   */\n      swap3\n      pop\n        /* \"#utility.yul\":10504:10792   */\n      pop\n        /* \"#utility.yul\":10859:10861   */\n      0x40\n        /* \"#utility.yul\":10848:10857   */\n      dup5\n        /* \"#utility.yul\":10844:10862   */\n      add\n        /* \"#utility.yul\":10831:10863   */\n      calldataload\n        /* \"#utility.yul\":10890:10908   */\n      0xffffffffffffffff\n        /* \"#utility.yul\":10882:10888   */\n      dup2\n        /* \"#utility.yul\":10879:10909   */\n      gt\n        /* \"#utility.yul\":10876:10993   */\n      iszero\n      tag_286\n      jumpi\n        /* \"#utility.yul\":10912:10991   */\n      tag_287\n      tag_121\n      jump\t// in\n    tag_287:\n        /* \"#utility.yul\":10876:10993   */\n    tag_286:\n        /* \"#utility.yul\":11017:11080   */\n      tag_288\n        /* \"#utility.yul\":11072:11079   */\n      dup7\n        /* \"#utility.yul\":11063:11069   */\n      dup3\n        /* \"#utility.yul\":11052:11061   */\n      dup8\n        /* \"#utility.yul\":11048:11070   */\n      add\n        /* \"#utility.yul\":11017:11080   */\n      tag_147\n      jump\t// in\n    tag_288:\n        /* \"#utility.yul\":11007:11080   */\n      swap2\n      pop\n        /* \"#utility.yul\":10802:11090   */\n      pop\n        /* \"#utility.yul\":9938:11097   */\n      swap3\n      pop\n      swap3\n      pop\n      swap3\n      jump\t// out\n        /* \"#utility.yul\":11103:11432   */\n    tag_39:\n        /* \"#utility.yul\":11162:11168   */\n      0x00\n        /* \"#utility.yul\":11211:11213   */\n      0x20\n        /* \"#utility.yul\":11199:11208   */\n      dup3\n        /* \"#utility.yul\":11190:11197   */\n      dup5\n        /* \"#utility.yul\":11186:11209   */\n      sub\n        /* \"#utility.yul\":11182:11214   */\n      slt\n        /* \"#utility.yul\":11179:11298   */\n      iszero\n      tag_290\n      jumpi\n        /* \"#utility.yul\":11217:11296   */\n      tag_291\n      tag_120\n      jump\t// in\n    tag_291:\n        /* \"#utility.yul\":11179:11298   */\n    tag_290:\n        /* \"#utility.yul\":11337:11338   */\n      0x00\n        /* \"#utility.yul\":11362:11415   */\n      tag_292\n        /* \"#utility.yul\":11407:11414   */\n      dup5\n        /* \"#utility.yul\":11398:11404   */\n      dup3\n        /* \"#utility.yul\":11387:11396   */\n      dup6\n        /* \"#utility.yul\":11383:11405   */\n      add\n        /* \"#utility.yul\":11362:11415   */\n      tag_151\n      jump\t// in\n    tag_292:\n        /* \"#utility.yul\":11352:11415   */\n      swap2\n      pop\n        /* \"#utility.yul\":11308:11425   */\n      pop\n        /* \"#utility.yul\":11103:11432   */\n      swap3\n      swap2\n      pop\n      pop\n      jump\t// out\n        /* \"#utility.yul\":11438:12889   */\n    tag_44:\n        /* \"#utility.yul\":11563:11569   */\n      0x00\n        /* \"#utility.yul\":11571:11577   */\n      dup1\n        /* \"#utility.yul\":11579:11585   */\n      0x00\n        /* \"#utility.yul\":11587:11593   */\n      dup1\n        /* \"#utility.yul\":11595:11601   */\n      0x00\n        /* \"#utility.yul\":11644:11647   */\n      0xa0\n        /* \"#utility.yul\":11632:11641   */\n      dup7\n        /* \"#utility.yul\":11623:11630   */\n      dup9\n        /* \"#utility.yul\":11619:11642   */\n      sub\n        /* \"#utility.yul\":11615:11648   */\n      slt\n        /* \"#utility.yul\":11612:11732   */\n      iszero\n      tag_294\n      jumpi\n        /* \"#utility.yul\":11651:11730   */\n      tag_295\n      tag_120\n      jump\t// in\n    tag_295:\n        /* \"#utility.yul\":11612:11732   */\n    tag_294:\n        /* \"#utility.yul\":11771:11772   */\n      0x00\n        /* \"#utility.yul\":11796:11849   */\n      tag_296\n        /* \"#utility.yul\":11841:11848   */\n      dup9\n        /* \"#utility.yul\":11832:11838   */\n      dup3\n        /* \"#utility.yul\":11821:11830   */\n      dup10\n        /* \"#utility.yul\":11817:11839   */\n      add\n        /* \"#utility.yul\":11796:11849   */\n      tag_124\n      jump\t// in\n    tag_296:\n        /* \"#utility.yul\":11786:11849   */\n      swap6\n      pop\n        /* \"#utility.yul\":11742:11859   */\n      pop\n        /* \"#utility.yul\":11926:11928   */\n      0x20\n        /* \"#utility.yul\":11915:11924   */\n      dup7\n        /* \"#utility.yul\":11911:11929   */\n      add\n        /* \"#utility.yul\":11898:11930   */\n      calldataload\n        /* \"#utility.yul\":11957:11975   */\n      0xffffffffffffffff\n        /* \"#utility.yul\":11949:11955   */\n      dup2\n        /* \"#utility.yul\":11946:11976   */\n      gt\n        /* \"#utility.yul\":11943:12060   */\n      iszero\n      tag_297\n      jumpi\n        /* \"#utility.yul\":11979:12058   */\n      tag_298\n      tag_121\n      jump\t// in\n    tag_298:\n        /* \"#utility.yul\":11943:12060   */\n    tag_297:\n        /* \"#utility.yul\":12084:12147   */\n      tag_299\n        /* \"#utility.yul\":12139:12146   */\n      dup9\n        /* \"#utility.yul\":12130:12136   */\n      dup3\n        /* \"#utility.yul\":12119:12128   */\n      dup10\n        /* \"#utility.yul\":12115:12137   */\n      add\n        /* \"#utility.yul\":12084:12147   */\n      tag_147\n      jump\t// in\n    tag_299:\n        /* \"#utility.yul\":12074:12147   */\n      swap5\n      pop\n        /* \"#utility.yul\":11869:12157   */\n      pop\n        /* \"#utility.yul\":12224:12226   */\n      0x40\n        /* \"#utility.yul\":12213:12222   */\n      dup7\n        /* \"#utility.yul\":12209:12227   */\n      add\n        /* \"#utility.yul\":12196:12228   */\n      calldataload\n        /* \"#utility.yul\":12255:12273   */\n      0xffffffffffffffff\n        /* \"#utility.yul\":12247:12253   */\n      dup2\n        /* \"#utility.yul\":12244:12274   */\n      gt\n        /* \"#utility.yul\":12241:12358   */\n      iszero\n      tag_300\n      jumpi\n        /* \"#utility.yul\":12277:12356   */\n      tag_301\n      tag_121\n      jump\t// in\n    tag_301:\n        /* \"#utility.yul\":12241:12358   */\n    tag_300:\n        /* \"#utility.yul\":12382:12445   */\n      tag_302\n        /* \"#utility.yul\":12437:12444   */\n      dup9\n        /* \"#utility.yul\":12428:12434   */\n      dup3\n        /* \"#utility.yul\":12417:12426   */\n      dup10\n        /* \"#utility.yul\":12413:12435   */\n      add\n        /* \"#utility.yul\":12382:12445   */\n      tag_147\n      jump\t// in\n    tag_302:\n        /* \"#utility.yul\":12372:12445   */\n      swap4\n      pop\n        /* \"#utility.yul\":12167:12455   */\n      pop\n        /* \"#utility.yul\":12522:12524   */\n      0x60\n        /* \"#utility.yul\":12511:12520   */\n      dup7\n        /* \"#utility.yul\":12507:12525   */\n      add\n        /* \"#utility.yul\":12494:12526   */\n      calldataload\n        /* \"#utility.yul\":12553:12571   */\n      0xffffffffffffffff\n        /* \"#utility.yul\":12545:12551   */\n      dup2\n        /* \"#utility.yul\":12542:12572   */\n      gt\n        /* \"#utility.yul\":12539:12656   */\n      iszero\n      tag_303\n      jumpi\n        /* \"#utility.yul\":12575:12654   */\n      tag_304\n      tag_121\n      jump\t// in\n    tag_304:\n        /* \"#utility.yul\":12539:12656   */\n    tag_303:\n        /* \"#utility.yul\":12680:12743   */\n      tag_305\n        /* \"#utility.yul\":12735:12742   */\n      dup9\n        /* \"#utility.yul\":12726:12732   */\n      dup3\n        /* \"#utility.yul\":12715:12724   */\n      dup10\n        /* \"#utility.yul\":12711:12733   */\n      add\n        /* \"#utility.yul\":12680:12743   */\n      tag_147\n      jump\t// in\n    tag_305:\n        /* \"#utility.yul\":12670:12743   */\n      swap3\n      pop\n        /* \"#utility.yul\":12465:12753   */\n      pop\n        /* \"#utility.yul\":12792:12795   */\n      0x80\n        /* \"#utility.yul\":12819:12872   */\n      tag_306\n        /* \"#utility.yul\":12864:12871   */\n      dup9\n        /* \"#utility.yul\":12855:12861   */\n      dup3\n        /* \"#utility.yul\":12844:12853   */\n      dup10\n        /* \"#utility.yul\":12840:12862   */\n      add\n        /* \"#utility.yul\":12819:12872   */\n      tag_124\n      jump\t// in\n    tag_306:\n        /* \"#utility.yul\":12809:12872   */\n      swap2\n      pop\n        /* \"#utility.yul\":12763:12882   */\n      pop\n        /* \"#utility.yul\":11438:12889   */\n      swap3\n      swap6\n      pop\n      swap3\n      swap6\n      swap1\n      swap4\n      pop\n      jump\t// out\n        /* \"#utility.yul\":12895:13721   */\n    tag_50:\n        /* \"#utility.yul\":13132:13136   */\n      0x00\n        /* \"#utility.yul\":13170:13173   */\n      0x80\n        /* \"#utility.yul\":13159:13168   */\n      dup3\n        /* \"#utility.yul\":13155:13174   */\n      add\n        /* \"#utility.yul\":13147:13174   */\n      swap1\n      pop\n        /* \"#utility.yul\":13220:13229   */\n      dup2\n        /* \"#utility.yul\":13214:13218   */\n      dup2\n        /* \"#utility.yul\":13210:13230   */\n      sub\n        /* \"#utility.yul\":13206:13207   */\n      0x00\n        /* \"#utility.yul\":13195:13204   */\n      dup4\n        /* \"#utility.yul\":13191:13208   */\n      add\n        /* \"#utility.yul\":13184:13231   */\n      mstore\n        /* \"#utility.yul\":13248:13326   */\n      tag_308\n        /* \"#utility.yul\":13321:13325   */\n      dup2\n        /* \"#utility.yul\":13312:13318   */\n      dup8\n        /* \"#utility.yul\":13248:13326   */\n      tag_130\n      jump\t// in\n    tag_308:\n        /* \"#utility.yul\":13240:13326   */\n      swap1\n      pop\n        /* \"#utility.yul\":13373:13382   */\n      dup2\n        /* \"#utility.yul\":13367:13371   */\n      dup2\n        /* \"#utility.yul\":13363:13383   */\n      sub\n        /* \"#utility.yul\":13358:13360   */\n      0x20\n        /* \"#utility.yul\":13347:13356   */\n      dup4\n        /* \"#utility.yul\":13343:13361   */\n      add\n        /* \"#utility.yul\":13336:13384   */\n      mstore\n        /* \"#utility.yul\":13401:13479   */\n      tag_309\n        /* \"#utility.yul\":13474:13478   */\n      dup2\n        /* \"#utility.yul\":13465:13471   */\n      dup7\n        /* \"#utility.yul\":13401:13479   */\n      tag_130\n      jump\t// in\n    tag_309:\n        /* \"#utility.yul\":13393:13479   */\n      swap1\n      pop\n        /* \"#utility.yul\":13526:13535   */\n      dup2\n        /* \"#utility.yul\":13520:13524   */\n      dup2\n        /* \"#utility.yul\":13516:13536   */\n      sub\n        /* \"#utility.yul\":13511:13513   */\n      0x40\n        /* \"#utility.yul\":13500:13509   */\n      dup4\n        /* \"#utility.yul\":13496:13514   */\n      add\n        /* \"#utility.yul\":13489:13537   */\n      mstore\n        /* \"#utility.yul\":13554:13632   */\n      tag_310\n        /* \"#utility.yul\":13627:13631   */\n      dup2\n        /* \"#utility.yul\":13618:13624   */\n      dup6\n        /* \"#utility.yul\":13554:13632   */\n      tag_130\n      jump\t// in\n    tag_310:\n        /* \"#utility.yul\":13546:13632   */\n      swap1\n      pop\n        /* \"#utility.yul\":13642:13714   */\n      tag_311\n        /* \"#utility.yul\":13710:13712   */\n      0x60\n        /* \"#utility.yul\":13699:13708   */\n      dup4\n        /* \"#utility.yul\":13695:13713   */\n      add\n        /* \"#utility.yul\":13686:13692   */\n      dup5\n        /* \"#utility.yul\":13642:13714   */\n      tag_125\n      jump\t// in\n    tag_311:\n        /* \"#utility.yul\":12895:13721   */\n      swap6\n      swap5\n      pop\n      pop\n      pop\n      pop\n      pop\n      jump\t// out\n        /* \"#utility.yul\":13727:13845   */\n    tag_152:\n        /* \"#utility.yul\":13814:13838   */\n      tag_313\n        /* \"#utility.yul\":13832:13837   */\n      dup2\n        /* \"#utility.yul\":13814:13838   */\n      tag_149\n      jump\t// in\n    tag_313:\n        /* \"#utility.yul\":13809:13812   */\n      dup3\n        /* \"#utility.yul\":13802:13839   */\n      mstore\n        /* \"#utility.yul\":13727:13845   */\n      pop\n      pop\n      jump\t// out\n        /* \"#utility.yul\":13851:14073   */\n    tag_54:\n        /* \"#utility.yul\":13944:13948   */\n      0x00\n        /* \"#utility.yul\":13982:13984   */\n      0x20\n        /* \"#utility.yul\":13971:13980   */\n      dup3\n        /* \"#utility.yul\":13967:13985   */\n      add\n        /* \"#utility.yul\":13959:13985   */\n      swap1\n      pop\n        /* \"#utility.yul\":13995:14066   */\n      tag_315\n        /* \"#utility.yul\":14063:14064   */\n      0x00\n        /* \"#utility.yul\":14052:14061   */\n      dup4\n        /* \"#utility.yul\":14048:14065   */\n      add\n        /* \"#utility.yul\":14039:14045   */\n      dup5\n        /* \"#utility.yul\":13995:14066   */\n      tag_152\n      jump\t// in\n    tag_315:\n        /* \"#utility.yul\":13851:14073   */\n      swap3\n      swap2\n      pop\n      pop\n      jump\t// out\n        /* \"#utility.yul\":14079:14553   */\n    tag_57:\n        /* \"#utility.yul\":14147:14153   */\n      0x00\n        /* \"#utility.yul\":14155:14161   */\n      dup1\n        /* \"#utility.yul\":14204:14206   */\n      0x40\n        /* \"#utility.yul\":14192:14201   */\n      dup4\n        /* \"#utility.yul\":14183:14190   */\n      dup6\n        /* \"#utility.yul\":14179:14202   */\n      sub\n        /* \"#utility.yul\":14175:14207   */\n      slt\n        /* \"#utility.yul\":14172:14291   */\n      iszero\n      tag_317\n      jumpi\n        /* \"#utility.yul\":14210:14289   */\n      tag_318\n      tag_120\n      jump\t// in\n    tag_318:\n        /* \"#utility.yul\":14172:14291   */\n    tag_317:\n        /* \"#utility.yul\":14330:14331   */\n      0x00\n        /* \"#utility.yul\":14355:14408   */\n      tag_319\n        /* \"#utility.yul\":14400:14407   */\n      dup6\n        /* \"#utility.yul\":14391:14397   */\n      dup3\n        /* \"#utility.yul\":14380:14389   */\n      dup7\n        /* \"#utility.yul\":14376:14398   */\n      add\n        /* \"#utility.yul\":14355:14408   */\n      tag_151\n      jump\t// in\n    tag_319:\n        /* \"#utility.yul\":14345:14408   */\n      swap3\n      pop\n        /* \"#utility.yul\":14301:14418   */\n      pop\n        /* \"#utility.yul\":14457:14459   */\n      0x20\n        /* \"#utility.yul\":14483:14536   */\n      tag_320\n        /* \"#utility.yul\":14528:14535   */\n      dup6\n        /* \"#utility.yul\":14519:14525   */\n      dup3\n        /* \"#utility.yul\":14508:14517   */\n      dup7\n        /* \"#utility.yul\":14504:14526   */\n      add\n        /* \"#utility.yul\":14483:14536   */\n      tag_124\n      jump\t// in\n    tag_320:\n        /* \"#utility.yul\":14473:14536   */\n      swap2\n      pop\n        /* \"#utility.yul\":14428:14546   */\n      pop\n        /* \"#utility.yul\":14079:14553   */\n      swap3\n      pop\n      swap3\n      swap1\n      pop\n      jump\t// out\n        /* \"#utility.yul\":14559:15033   */\n    tag_61:\n        /* \"#utility.yul\":14627:14633   */\n      0x00\n        /* \"#utility.yul\":14635:14641   */\n      dup1\n        /* \"#utility.yul\":14684:14686   */\n      0x40\n        /* \"#utility.yul\":14672:14681   */\n      dup4\n        /* \"#utility.yul\":14663:14670   */\n      dup6\n        /* \"#utility.yul\":14659:14682   */\n      sub\n        /* \"#utility.yul\":14655:14687   */\n      slt\n        /* \"#utility.yul\":14652:14771   */\n      iszero\n      tag_322\n      jumpi\n        /* \"#utility.yul\":14690:14769   */\n      tag_323\n      tag_120\n      jump\t// in\n    tag_323:\n        /* \"#utility.yul\":14652:14771   */\n    tag_322:\n        /* \"#utility.yul\":14810:14811   */\n      0x00\n        /* \"#utility.yul\":14835:14888   */\n      tag_324\n        /* \"#utility.yul\":14880:14887   */\n      dup6\n        /* \"#utility.yul\":14871:14877   */\n      dup3\n        /* \"#utility.yul\":14860:14869   */\n      dup7\n        /* \"#utility.yul\":14856:14878   */\n      add\n        /* \"#utility.yul\":14835:14888   */\n      tag_124\n      jump\t// in\n    tag_324:\n        /* \"#utility.yul\":14825:14888   */\n      swap3\n      pop\n        /* \"#utility.yul\":14781:14898   */\n      pop\n        /* \"#utility.yul\":14937:14939   */\n      0x20\n        /* \"#utility.yul\":14963:15016   */\n      tag_325\n        /* \"#utility.yul\":15008:15015   */\n      dup6\n        /* \"#utility.yul\":14999:15005   */\n      dup3\n        /* \"#utility.yul\":14988:14997   */\n      dup7\n        /* \"#utility.yul\":14984:15006   */\n      add\n        /* \"#utility.yul\":14963:15016   */\n      tag_151\n      jump\t// in\n    tag_325:\n        /* \"#utility.yul\":14953:15016   */\n      swap2\n      pop\n        /* \"#utility.yul\":14908:15026   */\n      pop\n        /* \"#utility.yul\":14559:15033   */\n      swap3\n      pop\n      swap3\n      swap1\n      pop\n      jump\t// out\n        /* \"#utility.yul\":15039:15219   */\n    tag_153:\n        /* \"#utility.yul\":15087:15164   */\n      0x4e487b7100000000000000000000000000000000000000000000000000000000\n        /* \"#utility.yul\":15084:15085   */\n      0x00\n        /* \"#utility.yul\":15077:15165   */\n      mstore\n        /* \"#utility.yul\":15184:15188   */\n      0x22\n        /* \"#utility.yul\":15181:15182   */\n      0x04\n        /* \"#utility.yul\":15174:15189   */\n      mstore\n        /* \"#utility.yul\":15208:15212   */\n      0x24\n        /* \"#utility.yul\":15205:15206   */\n      0x00\n        /* \"#utility.yul\":15198:15213   */\n      revert\n        /* \"#utility.yul\":15225:15545   */\n    tag_66:\n        /* \"#utility.yul\":15269:15275   */\n      0x00\n        /* \"#utility.yul\":15306:15307   */\n      0x02\n        /* \"#utility.yul\":15300:15304   */\n      dup3\n        /* \"#utility.yul\":15296:15308   */\n      div\n        /* \"#utility.yul\":15286:15308   */\n      swap1\n      pop\n        /* \"#utility.yul\":15353:15354   */\n      0x01\n        /* \"#utility.yul\":15347:15351   */\n      dup3\n        /* \"#utility.yul\":15343:15355   */\n      and\n        /* \"#utility.yul\":15374:15392   */\n      dup1\n        /* \"#utility.yul\":15364:15445   */\n      tag_328\n      jumpi\n        /* \"#utility.yul\":15430:15434   */\n      0x7f\n        /* \"#utility.yul\":15422:15428   */\n      dup3\n        /* \"#utility.yul\":15418:15435   */\n      and\n        /* \"#utility.yul\":15408:15435   */\n      swap2\n      pop\n        /* \"#utility.yul\":15364:15445   */\n    tag_328:\n        /* \"#utility.yul\":15492:15494   */\n      0x20\n        /* \"#utility.yul\":15484:15490   */\n      dup3\n        /* \"#utility.yul\":15481:15495   */\n      lt\n        /* \"#utility.yul\":15461:15479   */\n      dup2\n        /* \"#utility.yul\":15458:15496   */\n      sub\n        /* \"#utility.yul\":15455:15539   */\n      tag_329\n      jumpi\n        /* \"#utility.yul\":15511:15529   */\n      tag_330\n      tag_153\n      jump\t// in\n    tag_330:\n        /* \"#utility.yul\":15455:15539   */\n    tag_329:\n        /* \"#utility.yul\":15276:15545   */\n      pop\n        /* \"#utility.yul\":15225:15545   */\n      swap2\n      swap1\n      pop\n      jump\t// out\n        /* \"#utility.yul\":15551:15731   */\n    tag_154:\n        /* \"#utility.yul\":15599:15676   */\n      0x4e487b7100000000000000000000000000000000000000000000000000000000\n        /* \"#utility.yul\":15596:15597   */\n      0x00\n        /* \"#utility.yul\":15589:15677   */\n      mstore\n        /* \"#utility.yul\":15696:15700   */\n      0x11\n        /* \"#utility.yul\":15693:15694   */\n      0x04\n        /* \"#utility.yul\":15686:15701   */\n      mstore\n        /* \"#utility.yul\":15720:15724   */\n      0x24\n        /* \"#utility.yul\":15717:15718   */\n      0x00\n        /* \"#utility.yul\":15710:15725   */\n      revert\n        /* \"#utility.yul\":15737:15928   */\n    tag_81:\n        /* \"#utility.yul\":15777:15780   */\n      0x00\n        /* \"#utility.yul\":15796:15816   */\n      tag_333\n        /* \"#utility.yul\":15814:15815   */\n      dup3\n        /* \"#utility.yul\":15796:15816   */\n      tag_122\n      jump\t// in\n    tag_333:\n        /* \"#utility.yul\":15791:15816   */\n      swap2\n      pop\n        /* \"#utility.yul\":15830:15850   */\n      tag_334\n        /* \"#utility.yul\":15848:15849   */\n      dup4\n        /* \"#utility.yul\":15830:15850   */\n      tag_122\n      jump\t// in\n    tag_334:\n        /* \"#utility.yul\":15825:15850   */\n      swap3\n      pop\n        /* \"#utility.yul\":15873:15874   */\n      dup3\n        /* \"#utility.yul\":15870:15871   */\n      dup3\n        /* \"#utility.yul\":15866:15875   */\n      add\n        /* \"#utility.yul\":15859:15875   */\n      swap1\n      pop\n        /* \"#utility.yul\":15894:15897   */\n      dup1\n        /* \"#utility.yul\":15891:15892   */\n      dup3\n        /* \"#utility.yul\":15888:15898   */\n      gt\n        /* \"#utility.yul\":15885:15921   */\n      iszero\n      tag_335\n      jumpi\n        /* \"#utility.yul\":15901:15919   */\n      tag_336\n      tag_154\n      jump\t// in\n    tag_336:\n        /* \"#utility.yul\":15885:15921   */\n    tag_335:\n        /* \"#utility.yul\":15737:15928   */\n      swap3\n      swap2\n      pop\n      pop\n      jump\t// out\n        /* \"#utility.yul\":15934:16075   */\n    tag_155:\n        /* \"#utility.yul\":15983:15987   */\n      0x00\n        /* \"#utility.yul\":16006:16009   */\n      dup2\n        /* \"#utility.yul\":15998:16009   */\n      swap1\n      pop\n        /* \"#utility.yul\":16029:16032   */\n      dup2\n        /* \"#utility.yul\":16026:16027   */\n      0x00\n        /* \"#utility.yul\":16019:16033   */\n      mstore\n        /* \"#utility.yul\":16063:16067   */\n      0x20\n        /* \"#utility.yul\":16060:16061   */\n      0x00\n        /* \"#utility.yul\":16050:16068   */\n      keccak256\n        /* \"#utility.yul\":16042:16068   */\n      swap1\n      pop\n        /* \"#utility.yul\":15934:16075   */\n      swap2\n      swap1\n      pop\n      jump\t// out\n        /* \"#utility.yul\":16081:16174   */\n    tag_156:\n        /* \"#utility.yul\":16118:16124   */\n      0x00\n        /* \"#utility.yul\":16165:16167   */\n      0x20\n        /* \"#utility.yul\":16160:16162   */\n      0x1f\n        /* \"#utility.yul\":16153:16158   */\n      dup4\n        /* \"#utility.yul\":16149:16163   */\n      add\n        /* \"#utility.yul\":16145:16168   */\n      div\n        /* \"#utility.yul\":16135:16168   */\n      swap1\n      pop\n        /* \"#utility.yul\":16081:16174   */\n      swap2\n      swap1\n      pop\n      jump\t// out\n        /* \"#utility.yul\":16180:16287   */\n    tag_157:\n        /* \"#utility.yul\":16224:16232   */\n      0x00\n        /* \"#utility.yul\":16274:16279   */\n      dup3\n        /* \"#utility.yul\":16268:16272   */\n      dup3\n        /* \"#utility.yul\":16264:16280   */\n      shl\n        /* \"#utility.yul\":16243:16280   */\n      swap1\n      pop\n        /* \"#utility.yul\":16180:16287   */\n      swap3\n      swap2\n      pop\n      pop\n      jump\t// out\n        /* \"#utility.yul\":16293:16686   */\n    tag_158:\n        /* \"#utility.yul\":16362:16368   */\n      0x00\n        /* \"#utility.yul\":16412:16413   */\n      0x08\n        /* \"#utility.yul\":16400:16410   */\n      dup4\n        /* \"#utility.yul\":16396:16414   */\n      mul\n        /* \"#utility.yul\":16435:16532   */\n      tag_341\n        /* \"#utility.yul\":16465:16531   */\n      0xffffffffffffffffffffffffffffffffffffffffffffffffffffffffffffffff\n        /* \"#utility.yul\":16454:16463   */\n      dup3\n        /* \"#utility.yul\":16435:16532   */\n      tag_157\n      jump\t// in\n    tag_341:\n        /* \"#utility.yul\":16553:16592   */\n      tag_342\n        /* \"#utility.yul\":16583:16591   */\n      dup7\n        /* \"#utility.yul\":16572:16581   */\n      dup4\n        /* \"#utility.yul\":16553:16592   */\n      tag_157\n      jump\t// in\n    tag_342:\n        /* \"#utility.yul\":16541:16592   */\n      swap6\n      pop\n        /* \"#utility.yul\":16625:16629   */\n      dup1\n        /* \"#utility.yul\":16621:16630   */\n      not\n        /* \"#utility.yul\":16614:16619   */\n      dup5\n        /* \"#utility.yul\":16610:16631   */\n      and\n        /* \"#utility.yul\":16601:16631   */\n      swap4\n      pop\n        /* \"#utility.yul\":16674:16678   */\n      dup1\n        /* \"#utility.yul\":16664:16672   */\n      dup7\n        /* \"#utility.yul\":16660:16679   */\n      and\n        /* \"#utility.yul\":16653:16658   */\n      dup5\n        /* \"#utility.yul\":16650:16680   */\n      or\n        /* \"#utility.yul\":16640:16680   */\n      swap3\n      pop\n        /* \"#utility.yul\":16369:16686   */\n      pop\n      pop\n        /* \"#utility.yul\":16293:16686   */\n      swap4\n      swap3\n      pop\n      pop\n      pop\n      jump\t// out\n        /* \"#utility.yul\":16692:16752   */\n    tag_159:\n        /* \"#utility.yul\":16720:16723   */\n      0x00\n        /* \"#utility.yul\":16741:16746   */\n      dup2\n        /* \"#utility.yul\":16734:16746   */\n      swap1\n      pop\n        /* \"#utility.yul\":16692:16752   */\n      swap2\n      swap1\n      pop\n      jump\t// out\n        /* \"#utility.yul\":16758:16900   */\n    tag_160:\n        /* \"#utility.yul\":16808:16817   */\n      0x00\n        /* \"#utility.yul\":16841:16894   */\n      tag_345\n        /* \"#utility.yul\":16859:16893   */\n      tag_346\n        /* \"#utility.yul\":16868:16892   */\n      tag_347\n        /* \"#utility.yul\":16886:16891   */\n      dup5\n        /* \"#utility.yul\":16868:16892   */\n      tag_122\n      jump\t// in\n    tag_347:\n        /* \"#utility.yul\":16859:16893   */\n      tag_159\n      jump\t// in\n    tag_346:\n        /* \"#utility.yul\":16841:16894   */\n      tag_122\n      jump\t// in\n    tag_345:\n        /* \"#utility.yul\":16828:16894   */\n      swap1\n      pop\n        /* \"#utility.yul\":16758:16900   */\n      swap2\n      swap1\n      pop\n      jump\t// out\n        /* \"#utility.yul\":16906:16981   */\n    tag_161:\n        /* \"#utility.yul\":16949:16952   */\n      0x00\n        /* \"#utility.yul\":16970:16975   */\n      dup2\n        /* \"#utility.yul\":16963:16975   */\n      swap1\n      pop\n        /* \"#utility.yul\":16906:16981   */\n      swap2\n      swap1\n      pop\n      jump\t// out\n        /* \"#utility.yul\":16987:17256   */\n    tag_162:\n        /* \"#utility.yul\":17097:17136   */\n      tag_350\n        /* \"#utility.yul\":17128:17135   */\n      dup4\n        /* \"#utility.yul\":17097:17136   */\n      tag_160\n      jump\t// in\n    tag_350:\n        /* \"#utility.yul\":17158:17249   */\n      tag_351\n        /* \"#utility.yul\":17207:17248   */\n      tag_352\n        /* \"#utility.yul\":17231:17247   */\n      dup3\n        /* \"#utility.yul\":17207:17248   */\n      tag_161\n      jump\t// in\n    tag_352:\n        /* \"#utility.yul\":17199:17205   */\n      dup5\n        /* \"#utility.yul\":17192:17196   */\n      dup5\n        /* \"#utility.yul\":17186:17197   */\n      sload\n        /* \"#utility.yul\":17158:17249   */\n      tag_158\n      jump\t// in\n    tag_351:\n        /* \"#utility.yul\":17152:17156   */\n      dup3\n        /* \"#utility.yul\":17145:17250   */\n      sstore\n        /* \"#utility.yul\":17063:17256   */\n      pop\n        /* \"#utility.yul\":16987:17256   */\n      pop\n      pop\n      pop\n      jump\t// out\n        /* \"#utility.yul\":17262:17335   */\n    tag_163:\n        /* \"#utility.yul\":17307:17310   */\n      0x00\n        /* \"#utility.yul\":17262:17335   */\n      swap1\n      jump\t// out\n        /* \"#utility.yul\":17341:17530   */\n    tag_164:\n        /* \"#utility.yul\":17418:17450   */\n      tag_355\n      tag_163\n      jump\t// in\n    tag_355:\n        /* \"#utility.yul\":17459:17524   */\n      tag_356\n        /* \"#utility.yul\":17517:17523   */\n      dup2\n        /* \"#utility.yul\":17509:17515   */\n      dup5\n        /* \"#utility.yul\":17503:17507   */\n      dup5\n        /* \"#utility.yul\":17459:17524   */\n      tag_162\n      jump\t// in\n    tag_356:\n        /* \"#utility.yul\":17394:17530   */\n      pop\n        /* \"#utility.yul\":17341:17530   */\n      pop\n      pop\n      jump\t// out\n        /* \"#utility.yul\":17536:17722   */\n    tag_165:\n        /* \"#utility.yul\":17596:17716   */\n    tag_358:\n        /* \"#utility.yul\":17613:17616   */\n      dup2\n        /* \"#utility.yul\":17606:17611   */\n      dup2\n        /* \"#utility.yul\":17603:17617   */\n      lt\n        /* \"#utility.yul\":17596:17716   */\n      iszero\n      tag_360\n      jumpi\n        /* \"#utility.yul\":17667:17706   */\n      tag_361\n        /* \"#utility.yul\":17704:17705   */\n      0x00\n        /* \"#utility.yul\":17697:17702   */\n      dup3\n        /* \"#utility.yul\":17667:17706   */\n      tag_164\n      jump\t// in\n    tag_361:\n        /* \"#utility.yul\":17640:17641   */\n      0x01\n        /* \"#utility.yul\":17633:17638   */\n      dup2\n        /* \"#utility.yul\":17629:17642   */\n      add\n        /* \"#utility.yul\":17620:17642   */\n      swap1\n      pop\n        /* \"#utility.yul\":17596:17716   */\n      jump(tag_358)\n    tag_360:\n        /* \"#utility.yul\":17536:17722   */\n      pop\n      pop\n      jump\t// out\n        /* \"#utility.yul\":17728:18271   */\n    tag_166:\n        /* \"#utility.yul\":17829:17831   */\n      0x1f\n        /* \"#utility.yul\":17824:17827   */\n      dup3\n        /* \"#utility.yul\":17821:17832   */\n      gt\n        /* \"#utility.yul\":17818:18264   */\n      iszero\n      tag_363\n      jumpi\n        /* \"#utility.yul\":17863:17901   */\n      tag_364\n        /* \"#utility.yul\":17895:17900   */\n      dup2\n        /* \"#utility.yul\":17863:17901   */\n      tag_155\n      jump\t// in\n    tag_364:\n        /* \"#utility.yul\":17947:17976   */\n      tag_365\n        /* \"#utility.yul\":17965:17975   */\n      dup5\n        /* \"#utility.yul\":17947:17976   */\n      tag_156\n      jump\t// in\n    tag_365:\n        /* \"#utility.yul\":17937:17945   */\n      dup2\n        /* \"#utility.yul\":17933:17977   */\n      add\n        /* \"#utility.yul\":18130:18132   */\n      0x20\n        /* \"#utility.yul\":18118:18128   */\n      dup6\n        /* \"#utility.yul\":18115:18133   */\n      lt\n        /* \"#utility.yul\":18112:18161   */\n      iszero\n      tag_366\n      jumpi\n        /* \"#utility.yul\":18151:18159   */\n      dup2\n        /* \"#utility.yul\":18136:18159   */\n      swap1\n      pop\n        /* \"#utility.yul\":18112:18161   */\n    tag_366:\n        /* \"#utility.yul\":18174:18254   */\n      tag_367\n        /* \"#utility.yul\":18230:18252   */\n      tag_368\n        /* \"#utility.yul\":18248:18251   */\n      dup6\n        /* \"#utility.yul\":18230:18252   */\n      tag_156\n      jump\t// in\n    tag_368:\n        /* \"#utility.yul\":18220:18228   */\n      dup4\n        /* \"#utility.yul\":18216:18253   */\n      add\n        /* \"#utility.yul\":18203:18214   */\n      dup3\n        /* \"#utility.yul\":18174:18254   */\n      tag_165\n      jump\t// in\n    tag_367:\n        /* \"#utility.yul\":17833:18264   */\n      pop\n      pop\n        /* \"#utility.yul\":17818:18264   */\n    tag_363:\n        /* \"#utility.yul\":17728:18271   */\n      pop\n      pop\n      pop\n      jump\t// out\n        /* \"#utility.yul\":18277:18394   */\n    tag_167:\n        /* \"#utility.yul\":18331:18339   */\n      0x00\n        /* \"#utility.yul\":18381:18386   */\n      dup3\n        /* \"#utility.yul\":18375:18379   */\n      dup3\n        /* \"#utility.yul\":18371:18387   */\n      shr\n        /* \"#utility.yul\":18350:18387   */\n      swap1\n      pop\n        /* \"#utility.yul\":18277:18394   */\n      swap3\n      swap2\n      pop\n      pop\n      jump\t// out\n        /* \"#utility.yul\":18400:18569   */\n    tag_168:\n        /* \"#utility.yul\":18444:18450   */\n      0x00\n        /* \"#utility.yul\":18477:18528   */\n      tag_371\n        /* \"#utility.yul\":18525:18526   */\n      0x00\n        /* \"#utility.yul\":18521:18527   */\n      not\n        /* \"#utility.yul\":18513:18518   */\n      dup5\n        /* \"#utility.yul\":18510:18511   */\n      0x08\n        /* \"#utility.yul\":18506:18519   */\n      mul\n        /* \"#utility.yul\":18477:18528   */\n      tag_167\n      jump\t// in\n    tag_371:\n        /* \"#utility.yul\":18473:18529   */\n      not\n        /* \"#utility.yul\":18558:18562   */\n      dup1\n        /* \"#utility.yul\":18552:18556   */\n      dup4\n        /* \"#utility.yul\":18548:18563   */\n      and\n        /* \"#utility.yul\":18538:18563   */\n      swap2\n      pop\n        /* \"#utility.yul\":18451:18569   */\n      pop\n        /* \"#utility.yul\":18400:18569   */\n      swap3\n      swap2\n      pop\n      pop\n      jump\t// out\n        /* \"#utility.yul\":18574:18869   */\n    tag_169:\n        /* \"#utility.yul\":18650:18654   */\n      0x00\n        /* \"#utility.yul\":18796:18825   */\n      tag_373\n        /* \"#utility.yul\":18821:18824   */\n      dup4\n        /* \"#utility.yul\":18815:18819   */\n      dup4\n        /* \"#utility.yul\":18796:18825   */\n      tag_168\n      jump\t// in\n    tag_373:\n        /* \"#utility.yul\":18788:18825   */\n      swap2\n      pop\n        /* \"#utility.yul\":18858:18861   */\n      dup3\n        /* \"#utility.yul\":18855:18856   */\n      0x02\n        /* \"#utility.yul\":18851:18862   */\n      mul\n        /* \"#utility.yul\":18845:18849   */\n      dup3\n        /* \"#utility.yul\":18842:18863   */\n      or\n        /* \"#utility.yul\":18834:18863   */\n      swap1\n      pop\n        /* \"#utility.yul\":18574:18869   */\n      swap3\n      swap2\n      pop\n      pop\n      jump\t// out\n        /* \"#utility.yul\":18874:20269   */\n    tag_83:\n        /* \"#utility.yul\":18991:19028   */\n      tag_375\n        /* \"#utility.yul\":19024:19027   */\n      dup3\n        /* \"#utility.yul\":18991:19028   */\n      tag_126\n      jump\t// in\n    tag_375:\n        /* \"#utility.yul\":19093:19111   */\n      0xffffffffffffffff\n        /* \"#utility.yul\":19085:19091   */\n      dup2\n        /* \"#utility.yul\":19082:19112   */\n      gt\n        /* \"#utility.yul\":19079:19135   */\n      iszero\n      tag_376\n      jumpi\n        /* \"#utility.yul\":19115:19133   */\n      tag_377\n      tag_141\n      jump\t// in\n    tag_377:\n        /* \"#utility.yul\":19079:19135   */\n    tag_376:\n        /* \"#utility.yul\":19159:19197   */\n      tag_378\n        /* \"#utility.yul\":19191:19195   */\n      dup3\n        /* \"#utility.yul\":19185:19196   */\n      sload\n        /* \"#utility.yul\":19159:19197   */\n      tag_66\n      jump\t// in\n    tag_378:\n        /* \"#utility.yul\":19244:19311   */\n      tag_379\n        /* \"#utility.yul\":19304:19310   */\n      dup3\n        /* \"#utility.yul\":19296:19302   */\n      dup3\n        /* \"#utility.yul\":19290:19294   */\n      dup6\n        /* \"#utility.yul\":19244:19311   */\n      tag_166\n      jump\t// in\n    tag_379:\n        /* \"#utility.yul\":19338:19339   */\n      0x00\n        /* \"#utility.yul\":19362:19366   */\n      0x20\n        /* \"#utility.yul\":19349:19366   */\n      swap1\n      pop\n        /* \"#utility.yul\":19394:19396   */\n      0x1f\n        /* \"#utility.yul\":19386:19392   */\n      dup4\n        /* \"#utility.yul\":19383:19397   */\n      gt\n        /* \"#utility.yul\":19411:19412   */\n      0x01\n        /* \"#utility.yul\":19406:20024   */\n      dup2\n      eq\n      tag_381\n      jumpi\n        /* \"#utility.yul\":20068:20069   */\n      0x00\n        /* \"#utility.yul\":20085:20091   */\n      dup5\n        /* \"#utility.yul\":20082:20159   */\n      iszero\n      tag_382\n      jumpi\n        /* \"#utility.yul\":20134:20143   */\n      dup3\n        /* \"#utility.yul\":20129:20132   */\n      dup8\n        /* \"#utility.yul\":20125:20144   */\n      add\n        /* \"#utility.yul\":20119:20145   */\n      mload\n        /* \"#utility.yul\":20110:20145   */\n      swap1\n      pop\n        /* \"#utility.yul\":20082:20159   */\n    tag_382:\n        /* \"#utility.yul\":20185:20252   */\n      tag_383\n        /* \"#utility.yul\":20245:20251   */\n      dup6\n        /* \"#utility.yul\":20238:20243   */\n      dup3\n        /* \"#utility.yul\":20185:20252   */\n      tag_169\n      jump\t// in\n    tag_383:\n        /* \"#utility.yul\":20179:20183   */\n      dup7\n        /* \"#utility.yul\":20172:20253   */\n      sstore\n        /* \"#utility.yul\":20041:20263   */\n      pop\n        /* \"#utility.yul\":19376:20263   */\n      jump(tag_380)\n        /* \"#utility.yul\":19406:20024   */\n    tag_381:\n        /* \"#utility.yul\":19458:19462   */\n      0x1f\n        /* \"#utility.yul\":19454:19463   */\n      not\n        /* \"#utility.yul\":19446:19452   */\n      dup5\n        /* \"#utility.yul\":19442:19464   */\n      and\n        /* \"#utility.yul\":19492:19529   */\n      tag_384\n        /* \"#utility.yul\":19524:19528   */\n      dup7\n        /* \"#utility.yul\":19492:19529   */\n      tag_155\n      jump\t// in\n    tag_384:\n        /* \"#utility.yul\":19551:19552   */\n      0x00\n        /* \"#utility.yul\":19565:19773   */\n    tag_385:\n        /* \"#utility.yul\":19579:19586   */\n      dup3\n        /* \"#utility.yul\":19576:19577   */\n      dup2\n        /* \"#utility.yul\":19573:19587   */\n      lt\n        /* \"#utility.yul\":19565:19773   */\n      iszero\n      tag_387\n      jumpi\n        /* \"#utility.yul\":19658:19667   */\n      dup5\n        /* \"#utility.yul\":19653:19656   */\n      dup10\n        /* \"#utility.yul\":19649:19668   */\n      add\n        /* \"#utility.yul\":19643:19669   */\n      mload\n        /* \"#utility.yul\":19635:19641   */\n      dup3\n        /* \"#utility.yul\":19628:19670   */\n      sstore\n        /* \"#utility.yul\":19709:19710   */\n      0x01\n        /* \"#utility.yul\":19701:19707   */\n      dup3\n        /* \"#utility.yul\":19697:19711   */\n      add\n        /* \"#utility.yul\":19687:19711   */\n      swap2\n      pop\n        /* \"#utility.yul\":19756:19758   */\n      0x20\n        /* \"#utility.yul\":19745:19754   */\n      dup6\n        /* \"#utility.yul\":19741:19759   */\n      add\n        /* \"#utility.yul\":19728:19759   */\n      swap5\n      pop\n        /* \"#utility.yul\":19602:19606   */\n      0x20\n        /* \"#utility.yul\":19599:19600   */\n      dup2\n        /* \"#utility.yul\":19595:19607   */\n      add\n        /* \"#utility.yul\":19590:19607   */\n      swap1\n      pop\n        /* \"#utility.yul\":19565:19773   */\n      jump(tag_385)\n    tag_387:\n        /* \"#utility.yul\":19801:19807   */\n      dup7\n        /* \"#utility.yul\":19792:19799   */\n      dup4\n        /* \"#utility.yul\":19789:19808   */\n      lt\n        /* \"#utility.yul\":19786:19965   */\n      iszero\n      tag_388\n      jumpi\n        /* \"#utility.yul\":19859:19868   */\n      dup5\n        /* \"#utility.yul\":19854:19857   */\n      dup10\n        /* \"#utility.yul\":19850:19869   */\n      add\n        /* \"#utility.yul\":19844:19870   */\n      mload\n        /* \"#utility.yul\":19902:19950   */\n      tag_389\n        /* \"#utility.yul\":19944:19948   */\n      0x1f\n        /* \"#utility.yul\":19936:19942   */\n      dup10\n        /* \"#utility.yul\":19932:19949   */\n      and\n        /* \"#utility.yul\":19921:19930   */\n      dup3\n        /* \"#utility.yul\":19902:19950   */\n      tag_168\n      jump\t// in\n    tag_389:\n        /* \"#utility.yul\":19894:19900   */\n      dup4\n        /* \"#utility.yul\":19887:19951   */\n      sstore\n        /* \"#utility.yul\":19809:19965   */\n      pop\n        /* \"#utility.yul\":19786:19965   */\n    tag_388:\n        /* \"#utility.yul\":20011:20012   */\n      0x01\n        /* \"#utility.yul\":20007:20008   */\n      0x02\n        /* \"#utility.yul\":19999:20005   */\n      dup9\n        /* \"#utility.yul\":19995:20009   */\n      mul\n        /* \"#utility.yul\":19991:20013   */\n      add\n        /* \"#utility.yul\":19985:19989   */\n      dup9\n        /* \"#utility.yul\":19978:20014   */\n      sstore\n        /* \"#utility.yul\":19413:20024   */\n      pop\n      pop\n      pop\n        /* \"#utility.yul\":19376:20263   */\n    tag_380:\n      pop\n        /* \"#utility.yul\":18966:20269   */\n      pop\n      pop\n      pop\n        /* \"#utility.yul\":18874:20269   */\n      pop\n      pop\n      jump\t// out\n        /* \"#utility.yul\":20275:20508   */\n    tag_96:\n        /* \"#utility.yul\":20314:20317   */\n      0x00\n        /* \"#utility.yul\":20337:20361   */\n      tag_391\n        /* \"#utility.yul\":20355:20360   */\n      dup3\n        /* \"#utility.yul\":20337:20361   */\n      tag_122\n      jump\t// in\n    tag_391:\n        /* \"#utility.yul\":20328:20361   */\n      swap2\n      pop\n        /* \"#utility.yul\":20383:20449   */\n      0xffffffffffffffffffffffffffffffffffffffffffffffffffffffffffffffff\n        /* \"#utility.yul\":20376:20381   */\n      dup3\n        /* \"#utility.yul\":20373:20450   */\n      sub\n        /* \"#utility.yul\":20370:20473   */\n      tag_392\n      jumpi\n        /* \"#utility.yul\":20453:20471   */\n      tag_393\n      tag_154\n      jump\t// in\n    tag_393:\n        /* \"#utility.yul\":20370:20473   */\n    tag_392:\n        /* \"#utility.yul\":20500:20501   */\n      0x01\n        /* \"#utility.yul\":20493:20498   */\n      dup3\n        /* \"#utility.yul\":20489:20502   */\n      add\n        /* \"#utility.yul\":20482:20502   */\n      swap1\n      pop\n        /* \"#utility.yul\":20275:20508   */\n      swap2\n      swap1\n      pop\n      jump\t// out\n\n    auxdata: 0xa264697066735822122002c33f82911bd269d1b6d088267c169d8043be8ca4b7d3307a41a1d1c406596f64736f6c63430008160033\n}\n",
				"bytecode": {
					"linkReferences": {},
					"object": "60806040525f6001555f6002555f60035534801561001b575f80fd5b50335f806101000a81548173ffffffffffffffffffffffffffffffffffffffff021916908373ffffffffffffffffffffffffffffffffffffffff16021790555061152c806100685f395ff3fe608060405234801561000f575f80fd5b50600436106100a7575f3560e01c806358d721821161006f57806358d721821461014e57806375f4952914610181578063cc7fa2201461019d578063ce606ee0146101d0578063db2f4912146101ee578063dcd0c2b21461020a576100a7565b806305dfea94146100ab5780630b4be0f6146100c75780631bc2fced146100fa57806332473b85146101165780634621609814610132575b5f80fd5b6100c560048036038101906100c09190610a4e565b610226565b005b6100e160048036038101906100dc9190610a8c565b610243565b6040516100f19493929190610c53565b60405180910390f35b610114600480360381019061010f9190610e2a565b610400565b005b610130600480360381019061012b9190610e96565b6104e9565b005b61014c60048036038101906101479190610ef0565b610531565b005b61016860048036038101906101639190610f94565b6105f2565b6040516101789493929190610c53565b60405180910390f35b61019b60048036038101906101969190610fbf565b610651565b005b6101b760048036038101906101b29190610a8c565b610706565b6040516101c7949392919061108a565b60405180910390f35b6101d861090a565b6040516101e591906110f1565b60405180910390f35b6102086004803603810190610203919061110a565b61092d565b005b610224600480360381019061021f9190611148565b61098c565b005b8060055f8481526020019081526020015f20600201819055505050565b5f8060608060055f8681526020019081526020015f205f015460055f8781526020019081526020015f206002015460055f8881526020019081526020015f2060010160055f8981526020019081526020015f206003018180546102a5906111b3565b80601f01602080910402602001604051908101604052809291908181526020018280546102d1906111b3565b801561031c5780601f106102f35761010080835404028352916020019161031c565b820191905f5260205f20905b8154815290600101906020018083116102ff57829003601f168201915b5050505050915080805480602002602001604051908101604052809291908181526020015f905b828210156103eb578382905f5260205f20018054610360906111b3565b80601f016020809104026020016040519081016040528092919081815260200182805461038c906111b3565b80156103d75780601f106103ae576101008083540402835291602001916103d7565b820191905f5260205f20905b8154815290600101906020018083116103ba57829003601f168201915b505050505081526020019060010190610343565b50505050905093509350935093509193509193565b5f60016002546104109190611210565b90508060055f8381526020019081526020015f205f01819055508360055f8381526020019081526020015f20600101908161044b91906113e0565b508260055f8381526020019081526020015f2060020181905550600160055f8381526020019081526020015f206006015f6101000a81548160ff0219169083151502179055508160055f8381526020019081526020015f206004015f6101000a81548173ffffffffffffffffffffffffffffffffffffffff021916908373ffffffffffffffffffffffffffffffffffffffff16021790555050505050565b60055f8381526020019081526020015f2060030181908060018154018082558091505060019003905f5260205f20015f90919091909150908161052c91906113e0565b505050565b5f600180546105409190611210565b90508060045f8381526020019081526020015f205f01819055508360045f8381526020019081526020015f20600101908161057b91906113e0565b508260045f8381526020019081526020015f20600201908161059d91906113e0565b508160045f8381526020019081526020015f2060030190816105bf91906113e0565b50600160045f8381526020019081526020015f206004015f6101000a81548160ff02191690831515021790555050505050565b5f806060805f60075f8773ffffffffffffffffffffffffffffffffffffffff1673ffffffffffffffffffffffffffffffffffffffff1681526020019081526020015f2054905061064181610243565b9450945094509450509193509193565b60035f815480929190610663906114af565b91905055508460065f8781526020019081526020015f205f01819055508360065f8781526020019081526020015f2060010190816106a191906113e0565b508260065f8781526020019081526020015f2060020190816106c391906113e0565b508160065f8781526020019081526020015f2060030190816106e591906113e0565b508060065f8781526020019081526020015f20600401819055505050505050565b60608060605f60065f8681526020019081526020015f2060010160065f8781526020019081526020015f2060020160065f8881526020019081526020015f2060030160065f8981526020019081526020015f2060040154838054610769906111b3565b80601f0160208091040260200160405190810160405280929190818152602001828054610795906111b3565b80156107e05780601f106107b7576101008083540402835291602001916107e0565b820191905f5260205f20905b8154815290600101906020018083116107c357829003601f168201915b505050505093508280546107f3906111b3565b80601f016020809104026020016040519081016040528092919081815260200182805461081f906111b3565b801561086a5780601f106108415761010080835404028352916020019161086a565b820191905f5260205f20905b81548152906001019060200180831161084d57829003601f168201915b5050505050925081805461087d906111b3565b80601f01602080910402602001604051908101604052809291908181526020018280546108a9906111b3565b80156108f45780601f106108cb576101008083540402835291602001916108f4565b820191905f5260205f20905b8154815290600101906020018083116108d757829003601f168201915b5050505050915093509350935093509193509193565b5f8054906101000a900473ffffffffffffffffffffffffffffffffffffffff1681565b5f60075f8473ffffffffffffffffffffffffffffffffffffffff1673ffffffffffffffffffffffffffffffffffffffff1681526020019081526020015f205490508160055f8381526020019081526020015f2060020181905550505050565b5f60075f8373ffffffffffffffffffffffffffffffffffffffff1673ffffffffffffffffffffffffffffffffffffffff1681526020019081526020015f2054905060055f8281526020019081526020015f2060050183908060018154018082558091505060019003905f5260205f20015f9091909190915055505050565b5f604051905090565b5f80fd5b5f80fd5b5f819050919050565b610a2d81610a1b565b8114610a37575f80fd5b50565b5f81359050610a4881610a24565b92915050565b5f8060408385031215610a6457610a63610a13565b5b5f610a7185828601610a3a565b9250506020610a8285828601610a3a565b9150509250929050565b5f60208284031215610aa157610aa0610a13565b5b5f610aae84828501610a3a565b91505092915050565b610ac081610a1b565b82525050565b5f81519050919050565b5f82825260208201905092915050565b5f5b83811015610afd578082015181840152602081019050610ae2565b5f8484015250505050565b5f601f19601f8301169050919050565b5f610b2282610ac6565b610b2c8185610ad0565b9350610b3c818560208601610ae0565b610b4581610b08565b840191505092915050565b5f81519050919050565b5f82825260208201905092915050565b5f819050602082019050919050565b5f82825260208201905092915050565b5f610b9382610ac6565b610b9d8185610b79565b9350610bad818560208601610ae0565b610bb681610b08565b840191505092915050565b5f610bcc8383610b89565b905092915050565b5f602082019050919050565b5f610bea82610b50565b610bf48185610b5a565b935083602082028501610c0685610b6a565b805f5b85811015610c415784840389528151610c228582610bc1565b9450610c2d83610bd4565b925060208a01995050600181019050610c09565b50829750879550505050505092915050565b5f608082019050610c665f830187610ab7565b610c736020830186610ab7565b8181036040830152610c858185610b18565b90508181036060830152610c998184610be0565b905095945050505050565b5f80fd5b5f80fd5b7f4e487b71000000000000000000000000000000000000000000000000000000005f52604160045260245ffd5b610ce282610b08565b810181811067ffffffffffffffff82111715610d0157610d00610cac565b5b80604052505050565b5f610d13610a0a565b9050610d1f8282610cd9565b919050565b5f67ffffffffffffffff821115610d3e57610d3d610cac565b5b610d4782610b08565b9050602081019050919050565b828183375f83830152505050565b5f610d74610d6f84610d24565b610d0a565b905082815260208101848484011115610d9057610d8f610ca8565b5b610d9b848285610d54565b509392505050565b5f82601f830112610db757610db6610ca4565b5b8135610dc7848260208601610d62565b91505092915050565b5f73ffffffffffffffffffffffffffffffffffffffff82169050919050565b5f610df982610dd0565b9050919050565b610e0981610def565b8114610e13575f80fd5b50565b5f81359050610e2481610e00565b92915050565b5f805f60608486031215610e4157610e40610a13565b5b5f84013567ffffffffffffffff811115610e5e57610e5d610a17565b5b610e6a86828701610da3565b9350506020610e7b86828701610a3a565b9250506040610e8c86828701610e16565b9150509250925092565b5f8060408385031215610eac57610eab610a13565b5b5f610eb985828601610a3a565b925050602083013567ffffffffffffffff811115610eda57610ed9610a17565b5b610ee685828601610da3565b9150509250929050565b5f805f60608486031215610f0757610f06610a13565b5b5f84013567ffffffffffffffff811115610f2457610f23610a17565b5b610f3086828701610da3565b935050602084013567ffffffffffffffff811115610f5157610f50610a17565b5b610f5d86828701610da3565b925050604084013567ffffffffffffffff811115610f7e57610f7d610a17565b5b610f8a86828701610da3565b9150509250925092565b5f60208284031215610fa957610fa8610a13565b5b5f610fb684828501610e16565b91505092915050565b5f805f805f60a08688031215610fd857610fd7610a13565b5b5f610fe588828901610a3a565b955050602086013567ffffffffffffffff81111561100657611005610a17565b5b61101288828901610da3565b945050604086013567ffffffffffffffff81111561103357611032610a17565b5b61103f88828901610da3565b935050606086013567ffffffffffffffff8111156110605761105f610a17565b5b61106c88828901610da3565b925050608061107d88828901610a3a565b9150509295509295909350565b5f6080820190508181035f8301526110a28187610b18565b905081810360208301526110b68186610b18565b905081810360408301526110ca8185610b18565b90506110d96060830184610ab7565b95945050505050565b6110eb81610def565b82525050565b5f6020820190506111045f8301846110e2565b92915050565b5f80604083850312156111205761111f610a13565b5b5f61112d85828601610e16565b925050602061113e85828601610a3a565b9150509250929050565b5f806040838503121561115e5761115d610a13565b5b5f61116b85828601610a3a565b925050602061117c85828601610e16565b9150509250929050565b7f4e487b71000000000000000000000000000000000000000000000000000000005f52602260045260245ffd5b5f60028204905060018216806111ca57607f821691505b6020821081036111dd576111dc611186565b5b50919050565b7f4e487b71000000000000000000000000000000000000000000000000000000005f52601160045260245ffd5b5f61121a82610a1b565b915061122583610a1b565b925082820190508082111561123d5761123c6111e3565b5b92915050565b5f819050815f5260205f209050919050565b5f6020601f8301049050919050565b5f82821b905092915050565b5f6008830261129f7fffffffffffffffffffffffffffffffffffffffffffffffffffffffffffffffff82611264565b6112a98683611264565b95508019841693508086168417925050509392505050565b5f819050919050565b5f6112e46112df6112da84610a1b565b6112c1565b610a1b565b9050919050565b5f819050919050565b6112fd836112ca565b611311611309826112eb565b848454611270565b825550505050565b5f90565b611325611319565b6113308184846112f4565b505050565b5b81811015611353576113485f8261131d565b600181019050611336565b5050565b601f8211156113985761136981611243565b61137284611255565b81016020851015611381578190505b61139561138d85611255565b830182611335565b50505b505050565b5f82821c905092915050565b5f6113b85f198460080261139d565b1980831691505092915050565b5f6113d083836113a9565b9150826002028217905092915050565b6113e982610ac6565b67ffffffffffffffff81111561140257611401610cac565b5b61140c82546111b3565b611417828285611357565b5f60209050601f831160018114611448575f8415611436578287015190505b61144085826113c5565b8655506114a7565b601f19841661145686611243565b5f5b8281101561147d57848901518255600182019150602085019450602081019050611458565b8683101561149a5784890151611496601f8916826113a9565b8355505b6001600288020188555050505b505050505050565b5f6114b982610a1b565b91507fffffffffffffffffffffffffffffffffffffffffffffffffffffffffffffffff82036114eb576114ea6111e3565b5b60018201905091905056fea264697066735822122002c33f82911bd269d1b6d088267c169d8043be8ca4b7d3307a41a1d1c406596f64736f6c63430008160033",
					"opcodes": "PUSH1 0x80 PUSH1 0x40 MSTORE PUSH0 PUSH1 0x1 SSTORE PUSH0 PUSH1 0x2 SSTORE PUSH0 PUSH1 0x3 SSTORE CALLVALUE DUP1 ISZERO PUSH2 0x1B JUMPI PUSH0 DUP1 REVERT JUMPDEST POP CALLER PUSH0 DUP1 PUSH2 0x100 EXP DUP2 SLOAD DUP2 PUSH20 0xFFFFFFFFFFFFFFFFFFFFFFFFFFFFFFFFFFFFFFFF MUL NOT AND SWAP1 DUP4 PUSH20 0xFFFFFFFFFFFFFFFFFFFFFFFFFFFFFFFFFFFFFFFF AND MUL OR SWAP1 SSTORE POP PUSH2 0x152C DUP1 PUSH2 0x68 PUSH0 CODECOPY PUSH0 RETURN INVALID PUSH1 0x80 PUSH1 0x40 MSTORE CALLVALUE DUP1 ISZERO PUSH2 0xF JUMPI PUSH0 DUP1 REVERT JUMPDEST POP PUSH1 0x4 CALLDATASIZE LT PUSH2 0xA7 JUMPI PUSH0 CALLDATALOAD PUSH1 0xE0 SHR DUP1 PUSH4 0x58D72182 GT PUSH2 0x6F JUMPI DUP1 PUSH4 0x58D72182 EQ PUSH2 0x14E JUMPI DUP1 PUSH4 0x75F49529 EQ PUSH2 0x181 JUMPI DUP1 PUSH4 0xCC7FA220 EQ PUSH2 0x19D JUMPI DUP1 PUSH4 0xCE606EE0 EQ PUSH2 0x1D0 JUMPI DUP1 PUSH4 0xDB2F4912 EQ PUSH2 0x1EE JUMPI DUP1 PUSH4 0xDCD0C2B2 EQ PUSH2 0x20A JUMPI PUSH2 0xA7 JUMP JUMPDEST DUP1 PUSH4 0x5DFEA94 EQ PUSH2 0xAB JUMPI DUP1 PUSH4 0xB4BE0F6 EQ PUSH2 0xC7 JUMPI DUP1 PUSH4 0x1BC2FCED EQ PUSH2 0xFA JUMPI DUP1 PUSH4 0x32473B85 EQ PUSH2 0x116 JUMPI DUP1 PUSH4 0x46216098 EQ PUSH2 0x132 JUMPI JUMPDEST PUSH0 DUP1 REVERT JUMPDEST PUSH2 0xC5 PUSH1 0x4 DUP1 CALLDATASIZE SUB DUP2 ADD SWAP1 PUSH2 0xC0 SWAP2 SWAP1 PUSH2 0xA4E JUMP JUMPDEST PUSH2 0x226 JUMP JUMPDEST STOP JUMPDEST PUSH2 0xE1 PUSH1 0x4 DUP1 CALLDATASIZE SUB DUP2 ADD SWAP1 PUSH2 0xDC SWAP2 SWAP1 PUSH2 0xA8C JUMP JUMPDEST PUSH2 0x243 JUMP JUMPDEST PUSH1 0x40 MLOAD PUSH2 0xF1 SWAP5 SWAP4 SWAP3 SWAP2 SWAP1 PUSH2 0xC53 JUMP JUMPDEST PUSH1 0x40 MLOAD DUP1 SWAP2 SUB SWAP1 RETURN JUMPDEST PUSH2 0x114 PUSH1 0x4 DUP1 CALLDATASIZE SUB DUP2 ADD SWAP1 PUSH2 0x10F SWAP2 SWAP1 PUSH2 0xE2A JUMP JUMPDEST PUSH2 0x400 JUMP JUMPDEST STOP JUMPDEST PUSH2 0x130 PUSH1 0x4 DUP1 CALLDATASIZE SUB DUP2 ADD SWAP1 PUSH2 0x12B SWAP2 SWAP1 PUSH2 0xE96 JUMP JUMPDEST PUSH2 0x4E9 JUMP JUMPDEST STOP JUMPDEST PUSH2 0x14C PUSH1 0x4 DUP1 CALLDATASIZE SUB DUP2 ADD SWAP1 PUSH2 0x147 SWAP2 SWAP1 PUSH2 0xEF0 JUMP JUMPDEST PUSH2 0x531 JUMP JUMPDEST STOP JUMPDEST PUSH2 0x168 PUSH1 0x4 DUP1 CALLDATASIZE SUB DUP2 ADD SWAP1 PUSH2 0x163 SWAP2 SWAP1 PUSH2 0xF94 JUMP JUMPDEST PUSH2 0x5F2 JUMP JUMPDEST PUSH1 0x40 MLOAD PUSH2 0x178 SWAP5 SWAP4 SWAP3 SWAP2 SWAP1 PUSH2 0xC53 JUMP JUMPDEST PUSH1 0x40 MLOAD DUP1 SWAP2 SUB SWAP1 RETURN JUMPDEST PUSH2 0x19B PUSH1 0x4 DUP1 CALLDATASIZE SUB DUP2 ADD SWAP1 PUSH2 0x196 SWAP2 SWAP1 PUSH2 0xFBF JUMP JUMPDEST PUSH2 0x651 JUMP JUMPDEST STOP JUMPDEST PUSH2 0x1B7 PUSH1 0x4 DUP1 CALLDATASIZE SUB DUP2 ADD SWAP1 PUSH2 0x1B2 SWAP2 SWAP1 PUSH2 0xA8C JUMP JUMPDEST PUSH2 0x706 JUMP JUMPDEST PUSH1 0x40 MLOAD PUSH2 0x1C7 SWAP5 SWAP4 SWAP3 SWAP2 SWAP1 PUSH2 0x108A JUMP JUMPDEST PUSH1 0x40 MLOAD DUP1 SWAP2 SUB SWAP1 RETURN JUMPDEST PUSH2 0x1D8 PUSH2 0x90A JUMP JUMPDEST PUSH1 0x40 MLOAD PUSH2 0x1E5 SWAP2 SWAP1 PUSH2 0x10F1 JUMP JUMPDEST PUSH1 0x40 MLOAD DUP1 SWAP2 SUB SWAP1 RETURN JUMPDEST PUSH2 0x208 PUSH1 0x4 DUP1 CALLDATASIZE SUB DUP2 ADD SWAP1 PUSH2 0x203 SWAP2 SWAP1 PUSH2 0x110A JUMP JUMPDEST PUSH2 0x92D JUMP JUMPDEST STOP JUMPDEST PUSH2 0x224 PUSH1 0x4 DUP1 CALLDATASIZE SUB DUP2 ADD SWAP1 PUSH2 0x21F SWAP2 SWAP1 PUSH2 0x1148 JUMP JUMPDEST PUSH2 0x98C JUMP JUMPDEST STOP JUMPDEST DUP1 PUSH1 0x5 PUSH0 DUP5 DUP2 MSTORE PUSH1 0x20 ADD SWAP1 DUP2 MSTORE PUSH1 0x20 ADD PUSH0 KECCAK256 PUSH1 0x2 ADD DUP2 SWAP1 SSTORE POP POP POP JUMP JUMPDEST PUSH0 DUP1 PUSH1 0x60 DUP1 PUSH1 0x5 PUSH0 DUP7 DUP2 MSTORE PUSH1 0x20 ADD SWAP1 DUP2 MSTORE PUSH1 0x20 ADD PUSH0 KECCAK256 PUSH0 ADD SLOAD PUSH1 0x5 PUSH0 DUP8 DUP2 MSTORE PUSH1 0x20 ADD SWAP1 DUP2 MSTORE PUSH1 0x20 ADD PUSH0 KECCAK256 PUSH1 0x2 ADD SLOAD PUSH1 0x5 PUSH0 DUP9 DUP2 MSTORE PUSH1 0x20 ADD SWAP1 DUP2 MSTORE PUSH1 0x20 ADD PUSH0 KECCAK256 PUSH1 0x1 ADD PUSH1 0x5 PUSH0 DUP10 DUP2 MSTORE PUSH1 0x20 ADD SWAP1 DUP2 MSTORE PUSH1 0x20 ADD PUSH0 KECCAK256 PUSH1 0x3 ADD DUP2 DUP1 SLOAD PUSH2 0x2A5 SWAP1 PUSH2 0x11B3 JUMP JUMPDEST DUP1 PUSH1 0x1F ADD PUSH1 0x20 DUP1 SWAP2 DIV MUL PUSH1 0x20 ADD PUSH1 0x40 MLOAD SWAP1 DUP2 ADD PUSH1 0x40 MSTORE DUP1 SWAP3 SWAP2 SWAP1 DUP2 DUP2 MSTORE PUSH1 0x20 ADD DUP3 DUP1 SLOAD PUSH2 0x2D1 SWAP1 PUSH2 0x11B3 JUMP JUMPDEST DUP1 ISZERO PUSH2 0x31C JUMPI DUP1 PUSH1 0x1F LT PUSH2 0x2F3 JUMPI PUSH2 0x100 DUP1 DUP4 SLOAD DIV MUL DUP4 MSTORE SWAP2 PUSH1 0x20 ADD SWAP2 PUSH2 0x31C JUMP JUMPDEST DUP3 ADD SWAP2 SWAP1 PUSH0 MSTORE PUSH1 0x20 PUSH0 KECCAK256 SWAP1 JUMPDEST DUP2 SLOAD DUP2 MSTORE SWAP1 PUSH1 0x1 ADD SWAP1 PUSH1 0x20 ADD DUP1 DUP4 GT PUSH2 0x2FF JUMPI DUP3 SWAP1 SUB PUSH1 0x1F AND DUP3 ADD SWAP2 JUMPDEST POP POP POP POP POP SWAP2 POP DUP1 DUP1 SLOAD DUP1 PUSH1 0x20 MUL PUSH1 0x20 ADD PUSH1 0x40 MLOAD SWAP1 DUP2 ADD PUSH1 0x40 MSTORE DUP1 SWAP3 SWAP2 SWAP1 DUP2 DUP2 MSTORE PUSH1 0x20 ADD PUSH0 SWAP1 JUMPDEST DUP3 DUP3 LT ISZERO PUSH2 0x3EB JUMPI DUP4 DUP3 SWAP1 PUSH0 MSTORE PUSH1 0x20 PUSH0 KECCAK256 ADD DUP1 SLOAD PUSH2 0x360 SWAP1 PUSH2 0x11B3 JUMP JUMPDEST DUP1 PUSH1 0x1F ADD PUSH1 0x20 DUP1 SWAP2 DIV MUL PUSH1 0x20 ADD PUSH1 0x40 MLOAD SWAP1 DUP2 ADD PUSH1 0x40 MSTORE DUP1 SWAP3 SWAP2 SWAP1 DUP2 DUP2 MSTORE PUSH1 0x20 ADD DUP3 DUP1 SLOAD PUSH2 0x38C SWAP1 PUSH2 0x11B3 JUMP JUMPDEST DUP1 ISZERO PUSH2 0x3D7 JUMPI DUP1 PUSH1 0x1F LT PUSH2 0x3AE JUMPI PUSH2 0x100 DUP1 DUP4 SLOAD DIV MUL DUP4 MSTORE SWAP2 PUSH1 0x20 ADD SWAP2 PUSH2 0x3D7 JUMP JUMPDEST DUP3 ADD SWAP2 SWAP1 PUSH0 MSTORE PUSH1 0x20 PUSH0 KECCAK256 SWAP1 JUMPDEST DUP2 SLOAD DUP2 MSTORE SWAP1 PUSH1 0x1 ADD SWAP1 PUSH1 0x20 ADD DUP1 DUP4 GT PUSH2 0x3BA JUMPI DUP3 SWAP1 SUB PUSH1 0x1F AND DUP3 ADD SWAP2 JUMPDEST POP POP POP POP POP DUP2 MSTORE PUSH1 0x20 ADD SWAP1 PUSH1 0x1 ADD SWAP1 PUSH2 0x343 JUMP JUMPDEST POP POP POP POP SWAP1 POP SWAP4 POP SWAP4 POP SWAP4 POP SWAP4 POP SWAP2 SWAP4 POP SWAP2 SWAP4 JUMP JUMPDEST PUSH0 PUSH1 0x1 PUSH1 0x2 SLOAD PUSH2 0x410 SWAP2 SWAP1 PUSH2 0x1210 JUMP JUMPDEST SWAP1 POP DUP1 PUSH1 0x5 PUSH0 DUP4 DUP2 MSTORE PUSH1 0x20 ADD SWAP1 DUP2 MSTORE PUSH1 0x20 ADD PUSH0 KECCAK256 PUSH0 ADD DUP2 SWAP1 SSTORE POP DUP4 PUSH1 0x5 PUSH0 DUP4 DUP2 MSTORE PUSH1 0x20 ADD SWAP1 DUP2 MSTORE PUSH1 0x20 ADD PUSH0 KECCAK256 PUSH1 0x1 ADD SWAP1 DUP2 PUSH2 0x44B SWAP2 SWAP1 PUSH2 0x13E0 JUMP JUMPDEST POP DUP3 PUSH1 0x5 PUSH0 DUP4 DUP2 MSTORE PUSH1 0x20 ADD SWAP1 DUP2 MSTORE PUSH1 0x20 ADD PUSH0 KECCAK256 PUSH1 0x2 ADD DUP2 SWAP1 SSTORE POP PUSH1 0x1 PUSH1 0x5 PUSH0 DUP4 DUP2 MSTORE PUSH1 0x20 ADD SWAP1 DUP2 MSTORE PUSH1 0x20 ADD PUSH0 KECCAK256 PUSH1 0x6 ADD PUSH0 PUSH2 0x100 EXP DUP2 SLOAD DUP2 PUSH1 0xFF MUL NOT AND SWAP1 DUP4 ISZERO ISZERO MUL OR SWAP1 SSTORE POP DUP2 PUSH1 0x5 PUSH0 DUP4 DUP2 MSTORE PUSH1 0x20 ADD SWAP1 DUP2 MSTORE PUSH1 0x20 ADD PUSH0 KECCAK256 PUSH1 0x4 ADD PUSH0 PUSH2 0x100 EXP DUP2 SLOAD DUP2 PUSH20 0xFFFFFFFFFFFFFFFFFFFFFFFFFFFFFFFFFFFFFFFF MUL NOT AND SWAP1 DUP4 PUSH20 0xFFFFFFFFFFFFFFFFFFFFFFFFFFFFFFFFFFFFFFFF AND MUL OR SWAP1 SSTORE POP POP POP POP POP JUMP JUMPDEST PUSH1 0x5 PUSH0 DUP4 DUP2 MSTORE PUSH1 0x20 ADD SWAP1 DUP2 MSTORE PUSH1 0x20 ADD PUSH0 KECCAK256 PUSH1 0x3 ADD DUP2 SWAP1 DUP1 PUSH1 0x1 DUP2 SLOAD ADD DUP1 DUP3 SSTORE DUP1 SWAP2 POP POP PUSH1 0x1 SWAP1 SUB SWAP1 PUSH0 MSTORE PUSH1 0x20 PUSH0 KECCAK256 ADD PUSH0 SWAP1 SWAP2 SWAP1 SWAP2 SWAP1 SWAP2 POP SWAP1 DUP2 PUSH2 0x52C SWAP2 SWAP1 PUSH2 0x13E0 JUMP JUMPDEST POP POP POP JUMP JUMPDEST PUSH0 PUSH1 0x1 DUP1 SLOAD PUSH2 0x540 SWAP2 SWAP1 PUSH2 0x1210 JUMP JUMPDEST SWAP1 POP DUP1 PUSH1 0x4 PUSH0 DUP4 DUP2 MSTORE PUSH1 0x20 ADD SWAP1 DUP2 MSTORE PUSH1 0x20 ADD PUSH0 KECCAK256 PUSH0 ADD DUP2 SWAP1 SSTORE POP DUP4 PUSH1 0x4 PUSH0 DUP4 DUP2 MSTORE PUSH1 0x20 ADD SWAP1 DUP2 MSTORE PUSH1 0x20 ADD PUSH0 KECCAK256 PUSH1 0x1 ADD SWAP1 DUP2 PUSH2 0x57B SWAP2 SWAP1 PUSH2 0x13E0 JUMP JUMPDEST POP DUP3 PUSH1 0x4 PUSH0 DUP4 DUP2 MSTORE PUSH1 0x20 ADD SWAP1 DUP2 MSTORE PUSH1 0x20 ADD PUSH0 KECCAK256 PUSH1 0x2 ADD SWAP1 DUP2 PUSH2 0x59D SWAP2 SWAP1 PUSH2 0x13E0 JUMP JUMPDEST POP DUP2 PUSH1 0x4 PUSH0 DUP4 DUP2 MSTORE PUSH1 0x20 ADD SWAP1 DUP2 MSTORE PUSH1 0x20 ADD PUSH0 KECCAK256 PUSH1 0x3 ADD SWAP1 DUP2 PUSH2 0x5BF SWAP2 SWAP1 PUSH2 0x13E0 JUMP JUMPDEST POP PUSH1 0x1 PUSH1 0x4 PUSH0 DUP4 DUP2 MSTORE PUSH1 0x20 ADD SWAP1 DUP2 MSTORE PUSH1 0x20 ADD PUSH0 KECCAK256 PUSH1 0x4 ADD PUSH0 PUSH2 0x100 EXP DUP2 SLOAD DUP2 PUSH1 0xFF MUL NOT AND SWAP1 DUP4 ISZERO ISZERO MUL OR SWAP1 SSTORE POP POP POP POP POP JUMP JUMPDEST PUSH0 DUP1 PUSH1 0x60 DUP1 PUSH0 PUSH1 0x7 PUSH0 DUP8 PUSH20 0xFFFFFFFFFFFFFFFFFFFFFFFFFFFFFFFFFFFFFFFF AND PUSH20 0xFFFFFFFFFFFFFFFFFFFFFFFFFFFFFFFFFFFFFFFF AND DUP2 MSTORE PUSH1 0x20 ADD SWAP1 DUP2 MSTORE PUSH1 0x20 ADD PUSH0 KECCAK256 SLOAD SWAP1 POP PUSH2 0x641 DUP2 PUSH2 0x243 JUMP JUMPDEST SWAP5 POP SWAP5 POP SWAP5 POP SWAP5 POP POP SWAP2 SWAP4 POP SWAP2 SWAP4 JUMP JUMPDEST PUSH1 0x3 PUSH0 DUP2 SLOAD DUP1 SWAP3 SWAP2 SWAP1 PUSH2 0x663 SWAP1 PUSH2 0x14AF JUMP JUMPDEST SWAP2 SWAP1 POP SSTORE POP DUP5 PUSH1 0x6 PUSH0 DUP8 DUP2 MSTORE PUSH1 0x20 ADD SWAP1 DUP2 MSTORE PUSH1 0x20 ADD PUSH0 KECCAK256 PUSH0 ADD DUP2 SWAP1 SSTORE POP DUP4 PUSH1 0x6 PUSH0 DUP8 DUP2 MSTORE PUSH1 0x20 ADD SWAP1 DUP2 MSTORE PUSH1 0x20 ADD PUSH0 KECCAK256 PUSH1 0x1 ADD SWAP1 DUP2 PUSH2 0x6A1 SWAP2 SWAP1 PUSH2 0x13E0 JUMP JUMPDEST POP DUP3 PUSH1 0x6 PUSH0 DUP8 DUP2 MSTORE PUSH1 0x20 ADD SWAP1 DUP2 MSTORE PUSH1 0x20 ADD PUSH0 KECCAK256 PUSH1 0x2 ADD SWAP1 DUP2 PUSH2 0x6C3 SWAP2 SWAP1 PUSH2 0x13E0 JUMP JUMPDEST POP DUP2 PUSH1 0x6 PUSH0 DUP8 DUP2 MSTORE PUSH1 0x20 ADD SWAP1 DUP2 MSTORE PUSH1 0x20 ADD PUSH0 KECCAK256 PUSH1 0x3 ADD SWAP1 DUP2 PUSH2 0x6E5 SWAP2 SWAP1 PUSH2 0x13E0 JUMP JUMPDEST POP DUP1 PUSH1 0x6 PUSH0 DUP8 DUP2 MSTORE PUSH1 0x20 ADD SWAP1 DUP2 MSTORE PUSH1 0x20 ADD PUSH0 KECCAK256 PUSH1 0x4 ADD DUP2 SWAP1 SSTORE POP POP POP POP POP POP JUMP JUMPDEST PUSH1 0x60 DUP1 PUSH1 0x60 PUSH0 PUSH1 0x6 PUSH0 DUP7 DUP2 MSTORE PUSH1 0x20 ADD SWAP1 DUP2 MSTORE PUSH1 0x20 ADD PUSH0 KECCAK256 PUSH1 0x1 ADD PUSH1 0x6 PUSH0 DUP8 DUP2 MSTORE PUSH1 0x20 ADD SWAP1 DUP2 MSTORE PUSH1 0x20 ADD PUSH0 KECCAK256 PUSH1 0x2 ADD PUSH1 0x6 PUSH0 DUP9 DUP2 MSTORE PUSH1 0x20 ADD SWAP1 DUP2 MSTORE PUSH1 0x20 ADD PUSH0 KECCAK256 PUSH1 0x3 ADD PUSH1 0x6 PUSH0 DUP10 DUP2 MSTORE PUSH1 0x20 ADD SWAP1 DUP2 MSTORE PUSH1 0x20 ADD PUSH0 KECCAK256 PUSH1 0x4 ADD SLOAD DUP4 DUP1 SLOAD PUSH2 0x769 SWAP1 PUSH2 0x11B3 JUMP JUMPDEST DUP1 PUSH1 0x1F ADD PUSH1 0x20 DUP1 SWAP2 DIV MUL PUSH1 0x20 ADD PUSH1 0x40 MLOAD SWAP1 DUP2 ADD PUSH1 0x40 MSTORE DUP1 SWAP3 SWAP2 SWAP1 DUP2 DUP2 MSTORE PUSH1 0x20 ADD DUP3 DUP1 SLOAD PUSH2 0x795 SWAP1 PUSH2 0x11B3 JUMP JUMPDEST DUP1 ISZERO PUSH2 0x7E0 JUMPI DUP1 PUSH1 0x1F LT PUSH2 0x7B7 JUMPI PUSH2 0x100 DUP1 DUP4 SLOAD DIV MUL DUP4 MSTORE SWAP2 PUSH1 0x20 ADD SWAP2 PUSH2 0x7E0 JUMP JUMPDEST DUP3 ADD SWAP2 SWAP1 PUSH0 MSTORE PUSH1 0x20 PUSH0 KECCAK256 SWAP1 JUMPDEST DUP2 SLOAD DUP2 MSTORE SWAP1 PUSH1 0x1 ADD SWAP1 PUSH1 0x20 ADD DUP1 DUP4 GT PUSH2 0x7C3 JUMPI DUP3 SWAP1 SUB PUSH1 0x1F AND DUP3 ADD SWAP2 JUMPDEST POP POP POP POP POP SWAP4 POP DUP3 DUP1 SLOAD PUSH2 0x7F3 SWAP1 PUSH2 0x11B3 JUMP JUMPDEST DUP1 PUSH1 0x1F ADD PUSH1 0x20 DUP1 SWAP2 DIV MUL PUSH1 0x20 ADD PUSH1 0x40 MLOAD SWAP1 DUP2 ADD PUSH1 0x40 MSTORE DUP1 SWAP3 SWAP2 SWAP1 DUP2 DUP2 MSTORE PUSH1 0x20 ADD DUP3 DUP1 SLOAD PUSH2 0x81F SWAP1 PUSH2 0x11B3 JUMP JUMPDEST DUP1 ISZERO PUSH2 0x86A JUMPI DUP1 PUSH1 0x1F LT PUSH2 0x841 JUMPI PUSH2 0x100 DUP1 DUP4 SLOAD DIV MUL DUP4 MSTORE SWAP2 PUSH1 0x20 ADD SWAP2 PUSH2 0x86A JUMP JUMPDEST DUP3 ADD SWAP2 SWAP1 PUSH0 MSTORE PUSH1 0x20 PUSH0 KECCAK256 SWAP1 JUMPDEST DUP2 SLOAD DUP2 MSTORE SWAP1 PUSH1 0x1 ADD SWAP1 PUSH1 0x20 ADD DUP1 DUP4 GT PUSH2 0x84D JUMPI DUP3 SWAP1 SUB PUSH1 0x1F AND DUP3 ADD SWAP2 JUMPDEST POP POP POP POP POP SWAP3 POP DUP2 DUP1 SLOAD PUSH2 0x87D SWAP1 PUSH2 0x11B3 JUMP JUMPDEST DUP1 PUSH1 0x1F ADD PUSH1 0x20 DUP1 SWAP2 DIV MUL PUSH1 0x20 ADD PUSH1 0x40 MLOAD SWAP1 DUP2 ADD PUSH1 0x40 MSTORE DUP1 SWAP3 SWAP2 SWAP1 DUP2 DUP2 MSTORE PUSH1 0x20 ADD DUP3 DUP1 SLOAD PUSH2 0x8A9 SWAP1 PUSH2 0x11B3 JUMP JUMPDEST DUP1 ISZERO PUSH2 0x8F4 JUMPI DUP1 PUSH1 0x1F LT PUSH2 0x8CB JUMPI PUSH2 0x100 DUP1 DUP4 SLOAD DIV MUL DUP4 MSTORE SWAP2 PUSH1 0x20 ADD SWAP2 PUSH2 0x8F4 JUMP JUMPDEST DUP3 ADD SWAP2 SWAP1 PUSH0 MSTORE PUSH1 0x20 PUSH0 KECCAK256 SWAP1 JUMPDEST DUP2 SLOAD DUP2 MSTORE SWAP1 PUSH1 0x1 ADD SWAP1 PUSH1 0x20 ADD DUP1 DUP4 GT PUSH2 0x8D7 JUMPI DUP3 SWAP1 SUB PUSH1 0x1F AND DUP3 ADD SWAP2 JUMPDEST POP POP POP POP POP SWAP2 POP SWAP4 POP SWAP4 POP SWAP4 POP SWAP4 POP SWAP2 SWAP4 POP SWAP2 SWAP4 JUMP JUMPDEST PUSH0 DUP1 SLOAD SWAP1 PUSH2 0x100 EXP SWAP1 DIV PUSH20 0xFFFFFFFFFFFFFFFFFFFFFFFFFFFFFFFFFFFFFFFF AND DUP2 JUMP JUMPDEST PUSH0 PUSH1 0x7 PUSH0 DUP5 PUSH20 0xFFFFFFFFFFFFFFFFFFFFFFFFFFFFFFFFFFFFFFFF AND PUSH20 0xFFFFFFFFFFFFFFFFFFFFFFFFFFFFFFFFFFFFFFFF AND DUP2 MSTORE PUSH1 0x20 ADD SWAP1 DUP2 MSTORE PUSH1 0x20 ADD PUSH0 KECCAK256 SLOAD SWAP1 POP DUP2 PUSH1 0x5 PUSH0 DUP4 DUP2 MSTORE PUSH1 0x20 ADD SWAP1 DUP2 MSTORE PUSH1 0x20 ADD PUSH0 KECCAK256 PUSH1 0x2 ADD DUP2 SWAP1 SSTORE POP POP POP POP JUMP JUMPDEST PUSH0 PUSH1 0x7 PUSH0 DUP4 PUSH20 0xFFFFFFFFFFFFFFFFFFFFFFFFFFFFFFFFFFFFFFFF AND PUSH20 0xFFFFFFFFFFFFFFFFFFFFFFFFFFFFFFFFFFFFFFFF AND DUP2 MSTORE PUSH1 0x20 ADD SWAP1 DUP2 MSTORE PUSH1 0x20 ADD PUSH0 KECCAK256 SLOAD SWAP1 POP PUSH1 0x5 PUSH0 DUP3 DUP2 MSTORE PUSH1 0x20 ADD SWAP1 DUP2 MSTORE PUSH1 0x20 ADD PUSH0 KECCAK256 PUSH1 0x5 ADD DUP4 SWAP1 DUP1 PUSH1 0x1 DUP2 SLOAD ADD DUP1 DUP3 SSTORE DUP1 SWAP2 POP POP PUSH1 0x1 SWAP1 SUB SWAP1 PUSH0 MSTORE PUSH1 0x20 PUSH0 KECCAK256 ADD PUSH0 SWAP1 SWAP2 SWAP1 SWAP2 SWAP1 SWAP2 POP SSTORE POP POP POP JUMP JUMPDEST PUSH0 PUSH1 0x40 MLOAD SWAP1 POP SWAP1 JUMP JUMPDEST PUSH0 DUP1 REVERT JUMPDEST PUSH0 DUP1 REVERT JUMPDEST PUSH0 DUP2 SWAP1 POP SWAP2 SWAP1 POP JUMP JUMPDEST PUSH2 0xA2D DUP2 PUSH2 0xA1B JUMP JUMPDEST DUP2 EQ PUSH2 0xA37 JUMPI PUSH0 DUP1 REVERT JUMPDEST POP JUMP JUMPDEST PUSH0 DUP2 CALLDATALOAD SWAP1 POP PUSH2 0xA48 DUP2 PUSH2 0xA24 JUMP JUMPDEST SWAP3 SWAP2 POP POP JUMP JUMPDEST PUSH0 DUP1 PUSH1 0x40 DUP4 DUP6 SUB SLT ISZERO PUSH2 0xA64 JUMPI PUSH2 0xA63 PUSH2 0xA13 JUMP JUMPDEST JUMPDEST PUSH0 PUSH2 0xA71 DUP6 DUP3 DUP7 ADD PUSH2 0xA3A JUMP JUMPDEST SWAP3 POP POP PUSH1 0x20 PUSH2 0xA82 DUP6 DUP3 DUP7 ADD PUSH2 0xA3A JUMP JUMPDEST SWAP2 POP POP SWAP3 POP SWAP3 SWAP1 POP JUMP JUMPDEST PUSH0 PUSH1 0x20 DUP3 DUP5 SUB SLT ISZERO PUSH2 0xAA1 JUMPI PUSH2 0xAA0 PUSH2 0xA13 JUMP JUMPDEST JUMPDEST PUSH0 PUSH2 0xAAE DUP5 DUP3 DUP6 ADD PUSH2 0xA3A JUMP JUMPDEST SWAP2 POP POP SWAP3 SWAP2 POP POP JUMP JUMPDEST PUSH2 0xAC0 DUP2 PUSH2 0xA1B JUMP JUMPDEST DUP3 MSTORE POP POP JUMP JUMPDEST PUSH0 DUP2 MLOAD SWAP1 POP SWAP2 SWAP1 POP JUMP JUMPDEST PUSH0 DUP3 DUP3 MSTORE PUSH1 0x20 DUP3 ADD SWAP1 POP SWAP3 SWAP2 POP POP JUMP JUMPDEST PUSH0 JUMPDEST DUP4 DUP2 LT ISZERO PUSH2 0xAFD JUMPI DUP1 DUP3 ADD MLOAD DUP2 DUP5 ADD MSTORE PUSH1 0x20 DUP2 ADD SWAP1 POP PUSH2 0xAE2 JUMP JUMPDEST PUSH0 DUP5 DUP5 ADD MSTORE POP POP POP POP JUMP JUMPDEST PUSH0 PUSH1 0x1F NOT PUSH1 0x1F DUP4 ADD AND SWAP1 POP SWAP2 SWAP1 POP JUMP JUMPDEST PUSH0 PUSH2 0xB22 DUP3 PUSH2 0xAC6 JUMP JUMPDEST PUSH2 0xB2C DUP2 DUP6 PUSH2 0xAD0 JUMP JUMPDEST SWAP4 POP PUSH2 0xB3C DUP2 DUP6 PUSH1 0x20 DUP7 ADD PUSH2 0xAE0 JUMP JUMPDEST PUSH2 0xB45 DUP2 PUSH2 0xB08 JUMP JUMPDEST DUP5 ADD SWAP2 POP POP SWAP3 SWAP2 POP POP JUMP JUMPDEST PUSH0 DUP2 MLOAD SWAP1 POP SWAP2 SWAP1 POP JUMP JUMPDEST PUSH0 DUP3 DUP3 MSTORE PUSH1 0x20 DUP3 ADD SWAP1 POP SWAP3 SWAP2 POP POP JUMP JUMPDEST PUSH0 DUP2 SWAP1 POP PUSH1 0x20 DUP3 ADD SWAP1 POP SWAP2 SWAP1 POP JUMP JUMPDEST PUSH0 DUP3 DUP3 MSTORE PUSH1 0x20 DUP3 ADD SWAP1 POP SWAP3 SWAP2 POP POP JUMP JUMPDEST PUSH0 PUSH2 0xB93 DUP3 PUSH2 0xAC6 JUMP JUMPDEST PUSH2 0xB9D DUP2 DUP6 PUSH2 0xB79 JUMP JUMPDEST SWAP4 POP PUSH2 0xBAD DUP2 DUP6 PUSH1 0x20 DUP7 ADD PUSH2 0xAE0 JUMP JUMPDEST PUSH2 0xBB6 DUP2 PUSH2 0xB08 JUMP JUMPDEST DUP5 ADD SWAP2 POP POP SWAP3 SWAP2 POP POP JUMP JUMPDEST PUSH0 PUSH2 0xBCC DUP4 DUP4 PUSH2 0xB89 JUMP JUMPDEST SWAP1 POP SWAP3 SWAP2 POP POP JUMP JUMPDEST PUSH0 PUSH1 0x20 DUP3 ADD SWAP1 POP SWAP2 SWAP1 POP JUMP JUMPDEST PUSH0 PUSH2 0xBEA DUP3 PUSH2 0xB50 JUMP JUMPDEST PUSH2 0xBF4 DUP2 DUP6 PUSH2 0xB5A JUMP JUMPDEST SWAP4 POP DUP4 PUSH1 0x20 DUP3 MUL DUP6 ADD PUSH2 0xC06 DUP6 PUSH2 0xB6A JUMP JUMPDEST DUP1 PUSH0 JUMPDEST DUP6 DUP2 LT ISZERO PUSH2 0xC41 JUMPI DUP5 DUP5 SUB DUP10 MSTORE DUP2 MLOAD PUSH2 0xC22 DUP6 DUP3 PUSH2 0xBC1 JUMP JUMPDEST SWAP5 POP PUSH2 0xC2D DUP4 PUSH2 0xBD4 JUMP JUMPDEST SWAP3 POP PUSH1 0x20 DUP11 ADD SWAP10 POP POP PUSH1 0x1 DUP2 ADD SWAP1 POP PUSH2 0xC09 JUMP JUMPDEST POP DUP3 SWAP8 POP DUP8 SWAP6 POP POP POP POP POP POP SWAP3 SWAP2 POP POP JUMP JUMPDEST PUSH0 PUSH1 0x80 DUP3 ADD SWAP1 POP PUSH2 0xC66 PUSH0 DUP4 ADD DUP8 PUSH2 0xAB7 JUMP JUMPDEST PUSH2 0xC73 PUSH1 0x20 DUP4 ADD DUP7 PUSH2 0xAB7 JUMP JUMPDEST DUP2 DUP2 SUB PUSH1 0x40 DUP4 ADD MSTORE PUSH2 0xC85 DUP2 DUP6 PUSH2 0xB18 JUMP JUMPDEST SWAP1 POP DUP2 DUP2 SUB PUSH1 0x60 DUP4 ADD MSTORE PUSH2 0xC99 DUP2 DUP5 PUSH2 0xBE0 JUMP JUMPDEST SWAP1 POP SWAP6 SWAP5 POP POP POP POP POP JUMP JUMPDEST PUSH0 DUP1 REVERT JUMPDEST PUSH0 DUP1 REVERT JUMPDEST PUSH32 0x4E487B7100000000000000000000000000000000000000000000000000000000 PUSH0 MSTORE PUSH1 0x41 PUSH1 0x4 MSTORE PUSH1 0x24 PUSH0 REVERT JUMPDEST PUSH2 0xCE2 DUP3 PUSH2 0xB08 JUMP JUMPDEST DUP2 ADD DUP2 DUP2 LT PUSH8 0xFFFFFFFFFFFFFFFF DUP3 GT OR ISZERO PUSH2 0xD01 JUMPI PUSH2 0xD00 PUSH2 0xCAC JUMP JUMPDEST JUMPDEST DUP1 PUSH1 0x40 MSTORE POP POP POP JUMP JUMPDEST PUSH0 PUSH2 0xD13 PUSH2 0xA0A JUMP JUMPDEST SWAP1 POP PUSH2 0xD1F DUP3 DUP3 PUSH2 0xCD9 JUMP JUMPDEST SWAP2 SWAP1 POP JUMP JUMPDEST PUSH0 PUSH8 0xFFFFFFFFFFFFFFFF DUP3 GT ISZERO PUSH2 0xD3E JUMPI PUSH2 0xD3D PUSH2 0xCAC JUMP JUMPDEST JUMPDEST PUSH2 0xD47 DUP3 PUSH2 0xB08 JUMP JUMPDEST SWAP1 POP PUSH1 0x20 DUP2 ADD SWAP1 POP SWAP2 SWAP1 POP JUMP JUMPDEST DUP3 DUP2 DUP4 CALLDATACOPY PUSH0 DUP4 DUP4 ADD MSTORE POP POP POP JUMP JUMPDEST PUSH0 PUSH2 0xD74 PUSH2 0xD6F DUP5 PUSH2 0xD24 JUMP JUMPDEST PUSH2 0xD0A JUMP JUMPDEST SWAP1 POP DUP3 DUP2 MSTORE PUSH1 0x20 DUP2 ADD DUP5 DUP5 DUP5 ADD GT ISZERO PUSH2 0xD90 JUMPI PUSH2 0xD8F PUSH2 0xCA8 JUMP JUMPDEST JUMPDEST PUSH2 0xD9B DUP5 DUP3 DUP6 PUSH2 0xD54 JUMP JUMPDEST POP SWAP4 SWAP3 POP POP POP JUMP JUMPDEST PUSH0 DUP3 PUSH1 0x1F DUP4 ADD SLT PUSH2 0xDB7 JUMPI PUSH2 0xDB6 PUSH2 0xCA4 JUMP JUMPDEST JUMPDEST DUP2 CALLDATALOAD PUSH2 0xDC7 DUP5 DUP3 PUSH1 0x20 DUP7 ADD PUSH2 0xD62 JUMP JUMPDEST SWAP2 POP POP SWAP3 SWAP2 POP POP JUMP JUMPDEST PUSH0 PUSH20 0xFFFFFFFFFFFFFFFFFFFFFFFFFFFFFFFFFFFFFFFF DUP3 AND SWAP1 POP SWAP2 SWAP1 POP JUMP JUMPDEST PUSH0 PUSH2 0xDF9 DUP3 PUSH2 0xDD0 JUMP JUMPDEST SWAP1 POP SWAP2 SWAP1 POP JUMP JUMPDEST PUSH2 0xE09 DUP2 PUSH2 0xDEF JUMP JUMPDEST DUP2 EQ PUSH2 0xE13 JUMPI PUSH0 DUP1 REVERT JUMPDEST POP JUMP JUMPDEST PUSH0 DUP2 CALLDATALOAD SWAP1 POP PUSH2 0xE24 DUP2 PUSH2 0xE00 JUMP JUMPDEST SWAP3 SWAP2 POP POP JUMP JUMPDEST PUSH0 DUP1 PUSH0 PUSH1 0x60 DUP5 DUP7 SUB SLT ISZERO PUSH2 0xE41 JUMPI PUSH2 0xE40 PUSH2 0xA13 JUMP JUMPDEST JUMPDEST PUSH0 DUP5 ADD CALLDATALOAD PUSH8 0xFFFFFFFFFFFFFFFF DUP2 GT ISZERO PUSH2 0xE5E JUMPI PUSH2 0xE5D PUSH2 0xA17 JUMP JUMPDEST JUMPDEST PUSH2 0xE6A DUP7 DUP3 DUP8 ADD PUSH2 0xDA3 JUMP JUMPDEST SWAP4 POP POP PUSH1 0x20 PUSH2 0xE7B DUP7 DUP3 DUP8 ADD PUSH2 0xA3A JUMP JUMPDEST SWAP3 POP POP PUSH1 0x40 PUSH2 0xE8C DUP7 DUP3 DUP8 ADD PUSH2 0xE16 JUMP JUMPDEST SWAP2 POP POP SWAP3 POP SWAP3 POP SWAP3 JUMP JUMPDEST PUSH0 DUP1 PUSH1 0x40 DUP4 DUP6 SUB SLT ISZERO PUSH2 0xEAC JUMPI PUSH2 0xEAB PUSH2 0xA13 JUMP JUMPDEST JUMPDEST PUSH0 PUSH2 0xEB9 DUP6 DUP3 DUP7 ADD PUSH2 0xA3A JUMP JUMPDEST SWAP3 POP POP PUSH1 0x20 DUP4 ADD CALLDATALOAD PUSH8 0xFFFFFFFFFFFFFFFF DUP2 GT ISZERO PUSH2 0xEDA JUMPI PUSH2 0xED9 PUSH2 0xA17 JUMP JUMPDEST JUMPDEST PUSH2 0xEE6 DUP6 DUP3 DUP7 ADD PUSH2 0xDA3 JUMP JUMPDEST SWAP2 POP POP SWAP3 POP SWAP3 SWAP1 POP JUMP JUMPDEST PUSH0 DUP1 PUSH0 PUSH1 0x60 DUP5 DUP7 SUB SLT ISZERO PUSH2 0xF07 JUMPI PUSH2 0xF06 PUSH2 0xA13 JUMP JUMPDEST JUMPDEST PUSH0 DUP5 ADD CALLDATALOAD PUSH8 0xFFFFFFFFFFFFFFFF DUP2 GT ISZERO PUSH2 0xF24 JUMPI PUSH2 0xF23 PUSH2 0xA17 JUMP JUMPDEST JUMPDEST PUSH2 0xF30 DUP7 DUP3 DUP8 ADD PUSH2 0xDA3 JUMP JUMPDEST SWAP4 POP POP PUSH1 0x20 DUP5 ADD CALLDATALOAD PUSH8 0xFFFFFFFFFFFFFFFF DUP2 GT ISZERO PUSH2 0xF51 JUMPI PUSH2 0xF50 PUSH2 0xA17 JUMP JUMPDEST JUMPDEST PUSH2 0xF5D DUP7 DUP3 DUP8 ADD PUSH2 0xDA3 JUMP JUMPDEST SWAP3 POP POP PUSH1 0x40 DUP5 ADD CALLDATALOAD PUSH8 0xFFFFFFFFFFFFFFFF DUP2 GT ISZERO PUSH2 0xF7E JUMPI PUSH2 0xF7D PUSH2 0xA17 JUMP JUMPDEST JUMPDEST PUSH2 0xF8A DUP7 DUP3 DUP8 ADD PUSH2 0xDA3 JUMP JUMPDEST SWAP2 POP POP SWAP3 POP SWAP3 POP SWAP3 JUMP JUMPDEST PUSH0 PUSH1 0x20 DUP3 DUP5 SUB SLT ISZERO PUSH2 0xFA9 JUMPI PUSH2 0xFA8 PUSH2 0xA13 JUMP JUMPDEST JUMPDEST PUSH0 PUSH2 0xFB6 DUP5 DUP3 DUP6 ADD PUSH2 0xE16 JUMP JUMPDEST SWAP2 POP POP SWAP3 SWAP2 POP POP JUMP JUMPDEST PUSH0 DUP1 PUSH0 DUP1 PUSH0 PUSH1 0xA0 DUP7 DUP9 SUB SLT ISZERO PUSH2 0xFD8 JUMPI PUSH2 0xFD7 PUSH2 0xA13 JUMP JUMPDEST JUMPDEST PUSH0 PUSH2 0xFE5 DUP9 DUP3 DUP10 ADD PUSH2 0xA3A JUMP JUMPDEST SWAP6 POP POP PUSH1 0x20 DUP7 ADD CALLDATALOAD PUSH8 0xFFFFFFFFFFFFFFFF DUP2 GT ISZERO PUSH2 0x1006 JUMPI PUSH2 0x1005 PUSH2 0xA17 JUMP JUMPDEST JUMPDEST PUSH2 0x1012 DUP9 DUP3 DUP10 ADD PUSH2 0xDA3 JUMP JUMPDEST SWAP5 POP POP PUSH1 0x40 DUP7 ADD CALLDATALOAD PUSH8 0xFFFFFFFFFFFFFFFF DUP2 GT ISZERO PUSH2 0x1033 JUMPI PUSH2 0x1032 PUSH2 0xA17 JUMP JUMPDEST JUMPDEST PUSH2 0x103F DUP9 DUP3 DUP10 ADD PUSH2 0xDA3 JUMP JUMPDEST SWAP4 POP POP PUSH1 0x60 DUP7 ADD CALLDATALOAD PUSH8 0xFFFFFFFFFFFFFFFF DUP2 GT ISZERO PUSH2 0x1060 JUMPI PUSH2 0x105F PUSH2 0xA17 JUMP JUMPDEST JUMPDEST PUSH2 0x106C DUP9 DUP3 DUP10 ADD PUSH2 0xDA3 JUMP JUMPDEST SWAP3 POP POP PUSH1 0x80 PUSH2 0x107D DUP9 DUP3 DUP10 ADD PUSH2 0xA3A JUMP JUMPDEST SWAP2 POP POP SWAP3 SWAP6 POP SWAP3 SWAP6 SWAP1 SWAP4 POP JUMP JUMPDEST PUSH0 PUSH1 0x80 DUP3 ADD SWAP1 POP DUP2 DUP2 SUB PUSH0 DUP4 ADD MSTORE PUSH2 0x10A2 DUP2 DUP8 PUSH2 0xB18 JUMP JUMPDEST SWAP1 POP DUP2 DUP2 SUB PUSH1 0x20 DUP4 ADD MSTORE PUSH2 0x10B6 DUP2 DUP7 PUSH2 0xB18 JUMP JUMPDEST SWAP1 POP DUP2 DUP2 SUB PUSH1 0x40 DUP4 ADD MSTORE PUSH2 0x10CA DUP2 DUP6 PUSH2 0xB18 JUMP JUMPDEST SWAP1 POP PUSH2 0x10D9 PUSH1 0x60 DUP4 ADD DUP5 PUSH2 0xAB7 JUMP JUMPDEST SWAP6 SWAP5 POP POP POP POP POP JUMP JUMPDEST PUSH2 0x10EB DUP2 PUSH2 0xDEF JUMP JUMPDEST DUP3 MSTORE POP POP JUMP JUMPDEST PUSH0 PUSH1 0x20 DUP3 ADD SWAP1 POP PUSH2 0x1104 PUSH0 DUP4 ADD DUP5 PUSH2 0x10E2 JUMP JUMPDEST SWAP3 SWAP2 POP POP JUMP JUMPDEST PUSH0 DUP1 PUSH1 0x40 DUP4 DUP6 SUB SLT ISZERO PUSH2 0x1120 JUMPI PUSH2 0x111F PUSH2 0xA13 JUMP JUMPDEST JUMPDEST PUSH0 PUSH2 0x112D DUP6 DUP3 DUP7 ADD PUSH2 0xE16 JUMP JUMPDEST SWAP3 POP POP PUSH1 0x20 PUSH2 0x113E DUP6 DUP3 DUP7 ADD PUSH2 0xA3A JUMP JUMPDEST SWAP2 POP POP SWAP3 POP SWAP3 SWAP1 POP JUMP JUMPDEST PUSH0 DUP1 PUSH1 0x40 DUP4 DUP6 SUB SLT ISZERO PUSH2 0x115E JUMPI PUSH2 0x115D PUSH2 0xA13 JUMP JUMPDEST JUMPDEST PUSH0 PUSH2 0x116B DUP6 DUP3 DUP7 ADD PUSH2 0xA3A JUMP JUMPDEST SWAP3 POP POP PUSH1 0x20 PUSH2 0x117C DUP6 DUP3 DUP7 ADD PUSH2 0xE16 JUMP JUMPDEST SWAP2 POP POP SWAP3 POP SWAP3 SWAP1 POP JUMP JUMPDEST PUSH32 0x4E487B7100000000000000000000000000000000000000000000000000000000 PUSH0 MSTORE PUSH1 0x22 PUSH1 0x4 MSTORE PUSH1 0x24 PUSH0 REVERT JUMPDEST PUSH0 PUSH1 0x2 DUP3 DIV SWAP1 POP PUSH1 0x1 DUP3 AND DUP1 PUSH2 0x11CA JUMPI PUSH1 0x7F DUP3 AND SWAP2 POP JUMPDEST PUSH1 0x20 DUP3 LT DUP2 SUB PUSH2 0x11DD JUMPI PUSH2 0x11DC PUSH2 0x1186 JUMP JUMPDEST JUMPDEST POP SWAP2 SWAP1 POP JUMP JUMPDEST PUSH32 0x4E487B7100000000000000000000000000000000000000000000000000000000 PUSH0 MSTORE PUSH1 0x11 PUSH1 0x4 MSTORE PUSH1 0x24 PUSH0 REVERT JUMPDEST PUSH0 PUSH2 0x121A DUP3 PUSH2 0xA1B JUMP JUMPDEST SWAP2 POP PUSH2 0x1225 DUP4 PUSH2 0xA1B JUMP JUMPDEST SWAP3 POP DUP3 DUP3 ADD SWAP1 POP DUP1 DUP3 GT ISZERO PUSH2 0x123D JUMPI PUSH2 0x123C PUSH2 0x11E3 JUMP JUMPDEST JUMPDEST SWAP3 SWAP2 POP POP JUMP JUMPDEST PUSH0 DUP2 SWAP1 POP DUP2 PUSH0 MSTORE PUSH1 0x20 PUSH0 KECCAK256 SWAP1 POP SWAP2 SWAP1 POP JUMP JUMPDEST PUSH0 PUSH1 0x20 PUSH1 0x1F DUP4 ADD DIV SWAP1 POP SWAP2 SWAP1 POP JUMP JUMPDEST PUSH0 DUP3 DUP3 SHL SWAP1 POP SWAP3 SWAP2 POP POP JUMP JUMPDEST PUSH0 PUSH1 0x8 DUP4 MUL PUSH2 0x129F PUSH32 0xFFFFFFFFFFFFFFFFFFFFFFFFFFFFFFFFFFFFFFFFFFFFFFFFFFFFFFFFFFFFFFFF DUP3 PUSH2 0x1264 JUMP JUMPDEST PUSH2 0x12A9 DUP7 DUP4 PUSH2 0x1264 JUMP JUMPDEST SWAP6 POP DUP1 NOT DUP5 AND SWAP4 POP DUP1 DUP7 AND DUP5 OR SWAP3 POP POP POP SWAP4 SWAP3 POP POP POP JUMP JUMPDEST PUSH0 DUP2 SWAP1 POP SWAP2 SWAP1 POP JUMP JUMPDEST PUSH0 PUSH2 0x12E4 PUSH2 0x12DF PUSH2 0x12DA DUP5 PUSH2 0xA1B JUMP JUMPDEST PUSH2 0x12C1 JUMP JUMPDEST PUSH2 0xA1B JUMP JUMPDEST SWAP1 POP SWAP2 SWAP1 POP JUMP JUMPDEST PUSH0 DUP2 SWAP1 POP SWAP2 SWAP1 POP JUMP JUMPDEST PUSH2 0x12FD DUP4 PUSH2 0x12CA JUMP JUMPDEST PUSH2 0x1311 PUSH2 0x1309 DUP3 PUSH2 0x12EB JUMP JUMPDEST DUP5 DUP5 SLOAD PUSH2 0x1270 JUMP JUMPDEST DUP3 SSTORE POP POP POP POP JUMP JUMPDEST PUSH0 SWAP1 JUMP JUMPDEST PUSH2 0x1325 PUSH2 0x1319 JUMP JUMPDEST PUSH2 0x1330 DUP2 DUP5 DUP5 PUSH2 0x12F4 JUMP JUMPDEST POP POP POP JUMP JUMPDEST JUMPDEST DUP2 DUP2 LT ISZERO PUSH2 0x1353 JUMPI PUSH2 0x1348 PUSH0 DUP3 PUSH2 0x131D JUMP JUMPDEST PUSH1 0x1 DUP2 ADD SWAP1 POP PUSH2 0x1336 JUMP JUMPDEST POP POP JUMP JUMPDEST PUSH1 0x1F DUP3 GT ISZERO PUSH2 0x1398 JUMPI PUSH2 0x1369 DUP2 PUSH2 0x1243 JUMP JUMPDEST PUSH2 0x1372 DUP5 PUSH2 0x1255 JUMP JUMPDEST DUP2 ADD PUSH1 0x20 DUP6 LT ISZERO PUSH2 0x1381 JUMPI DUP2 SWAP1 POP JUMPDEST PUSH2 0x1395 PUSH2 0x138D DUP6 PUSH2 0x1255 JUMP JUMPDEST DUP4 ADD DUP3 PUSH2 0x1335 JUMP JUMPDEST POP POP JUMPDEST POP POP POP JUMP JUMPDEST PUSH0 DUP3 DUP3 SHR SWAP1 POP SWAP3 SWAP2 POP POP JUMP JUMPDEST PUSH0 PUSH2 0x13B8 PUSH0 NOT DUP5 PUSH1 0x8 MUL PUSH2 0x139D JUMP JUMPDEST NOT DUP1 DUP4 AND SWAP2 POP POP SWAP3 SWAP2 POP POP JUMP JUMPDEST PUSH0 PUSH2 0x13D0 DUP4 DUP4 PUSH2 0x13A9 JUMP JUMPDEST SWAP2 POP DUP3 PUSH1 0x2 MUL DUP3 OR SWAP1 POP SWAP3 SWAP2 POP POP JUMP JUMPDEST PUSH2 0x13E9 DUP3 PUSH2 0xAC6 JUMP JUMPDEST PUSH8 0xFFFFFFFFFFFFFFFF DUP2 GT ISZERO PUSH2 0x1402 JUMPI PUSH2 0x1401 PUSH2 0xCAC JUMP JUMPDEST JUMPDEST PUSH2 0x140C DUP3 SLOAD PUSH2 0x11B3 JUMP JUMPDEST PUSH2 0x1417 DUP3 DUP3 DUP6 PUSH2 0x1357 JUMP JUMPDEST PUSH0 PUSH1 0x20 SWAP1 POP PUSH1 0x1F DUP4 GT PUSH1 0x1 DUP2 EQ PUSH2 0x1448 JUMPI PUSH0 DUP5 ISZERO PUSH2 0x1436 JUMPI DUP3 DUP8 ADD MLOAD SWAP1 POP JUMPDEST PUSH2 0x1440 DUP6 DUP3 PUSH2 0x13C5 JUMP JUMPDEST DUP7 SSTORE POP PUSH2 0x14A7 JUMP JUMPDEST PUSH1 0x1F NOT DUP5 AND PUSH2 0x1456 DUP7 PUSH2 0x1243 JUMP JUMPDEST PUSH0 JUMPDEST DUP3 DUP2 LT ISZERO PUSH2 0x147D JUMPI DUP5 DUP10 ADD MLOAD DUP3 SSTORE PUSH1 0x1 DUP3 ADD SWAP2 POP PUSH1 0x20 DUP6 ADD SWAP5 POP PUSH1 0x20 DUP2 ADD SWAP1 POP PUSH2 0x1458 JUMP JUMPDEST DUP7 DUP4 LT ISZERO PUSH2 0x149A JUMPI DUP5 DUP10 ADD MLOAD PUSH2 0x1496 PUSH1 0x1F DUP10 AND DUP3 PUSH2 0x13A9 JUMP JUMPDEST DUP4 SSTORE POP JUMPDEST PUSH1 0x1 PUSH1 0x2 DUP9 MUL ADD DUP9 SSTORE POP POP POP JUMPDEST POP POP POP POP POP POP JUMP JUMPDEST PUSH0 PUSH2 0x14B9 DUP3 PUSH2 0xA1B JUMP JUMPDEST SWAP2 POP PUSH32 0xFFFFFFFFFFFFFFFFFFFFFFFFFFFFFFFFFFFFFFFFFFFFFFFFFFFFFFFFFFFFFFFF DUP3 SUB PUSH2 0x14EB JUMPI PUSH2 0x14EA PUSH2 0x11E3 JUMP JUMPDEST JUMPDEST PUSH1 0x1 DUP3 ADD SWAP1 POP SWAP2 SWAP1 POP JUMP INVALID LOG2 PUSH5 0x6970667358 0x22 SLT KECCAK256 MUL 0xC3 EXTCODEHASH DUP3 SWAP2 SHL 0xD2 PUSH10 0xD1B6D088267C169D8043 0xBE DUP13 LOG4 0xB7 0xD3 ADDRESS PUSH27 0x41A1D1C406596F64736F6C63430008160033000000000000000000 "
				},
				"gasEstimates": {
					"creation": {
						"codeDepositCost": "1084000",
						"executionCost": "40405",
						"totalCost": "1124405"
					},
					"external": {
						"addMedicine(uint256,string,string,string,uint256)": "infinite",
						"addPatientDisease(uint256,string)": "infinite",
						"contractOwner()": "2571",
						"prescribeMedicine(uint256,address)": "49432",
						"registerNewDoctor(string,string,string)": "infinite",
						"registerNewPatient(string,uint256,address)": "infinite",
						"updatePatientDetails(address,uint256)": "25104",
						"updatePatientDetails(uint256,uint256)": "infinite",
						"viewMedicineDetails(uint256)": "infinite",
						"viewPatiendData(address)": "infinite",
						"viewPatiendData(uint256)": "infinite"
					}
				},
				"methodIdentifiers": {
					"addMedicine(uint256,string,string,string,uint256)": "75f49529",
					"addPatientDisease(uint256,string)": "32473b85",
					"contractOwner()": "ce606ee0",
					"prescribeMedicine(uint256,address)": "dcd0c2b2",
					"registerNewDoctor(string,string,string)": "46216098",
					"registerNewPatient(string,uint256,address)": "1bc2fced",
					"updatePatientDetails(address,uint256)": "db2f4912",
					"updatePatientDetails(uint256,uint256)": "05dfea94",
					"viewMedicineDetails(uint256)": "cc7fa220",
					"viewPatiendData(address)": "58d72182",
					"viewPatiendData(uint256)": "0b4be0f6"
				}
			},
			"storageLayout": {
				"storage": [
					{
						"astId": 3,
						"contract": "contracts/patientrecord.sol:VotingSoftware",
						"label": "contractOwner",
						"offset": 0,
						"slot": "0",
						"type": "t_address"
					},
					{
						"astId": 71,
						"contract": "contracts/patientrecord.sol:VotingSoftware",
						"label": "doctorCount",
						"offset": 0,
						"slot": "1",
						"type": "t_uint256"
					},
					{
						"astId": 74,
						"contract": "contracts/patientrecord.sol:VotingSoftware",
						"label": "patientCount",
						"offset": 0,
						"slot": "2",
						"type": "t_uint256"
					},
					{
						"astId": 77,
						"contract": "contracts/patientrecord.sol:VotingSoftware",
						"label": "medicineCount",
						"offset": 0,
						"slot": "3",
						"type": "t_uint256"
					},
					{
						"astId": 82,
						"contract": "contracts/patientrecord.sol:VotingSoftware",
						"label": "doctors",
						"offset": 0,
						"slot": "4",
						"type": "t_mapping(t_uint256,t_struct(Doctor)40_storage)"
					},
					{
						"astId": 87,
						"contract": "contracts/patientrecord.sol:VotingSoftware",
						"label": "patients",
						"offset": 0,
						"slot": "5",
						"type": "t_mapping(t_uint256,t_struct(Patient)57_storage)"
					},
					{
						"astId": 92,
						"contract": "contracts/patientrecord.sol:VotingSoftware",
						"label": "medicines",
						"offset": 0,
						"slot": "6",
						"type": "t_mapping(t_uint256,t_struct(Medicine)68_storage)"
					},
					{
						"astId": 96,
						"contract": "contracts/patientrecord.sol:VotingSoftware",
						"label": "patiendAddressID",
						"offset": 0,
						"slot": "7",
						"type": "t_mapping(t_address,t_uint256)"
					}
				],
				"types": {
					"t_address": {
						"encoding": "inplace",
						"label": "address",
						"numberOfBytes": "20"
					},
					"t_array(t_string_storage)dyn_storage": {
						"base": "t_string_storage",
						"encoding": "dynamic_array",
						"label": "string[]",
						"numberOfBytes": "32"
					},
					"t_array(t_uint256)dyn_storage": {
						"base": "t_uint256",
						"encoding": "dynamic_array",
						"label": "uint256[]",
						"numberOfBytes": "32"
					},
					"t_bool": {
						"encoding": "inplace",
						"label": "bool",
						"numberOfBytes": "1"
					},
					"t_mapping(t_address,t_uint256)": {
						"encoding": "mapping",
						"key": "t_address",
						"label": "mapping(address => uint256)",
						"numberOfBytes": "32",
						"value": "t_uint256"
					},
					"t_mapping(t_uint256,t_struct(Doctor)40_storage)": {
						"encoding": "mapping",
						"key": "t_uint256",
						"label": "mapping(uint256 => struct VotingSoftware.Doctor)",
						"numberOfBytes": "32",
						"value": "t_struct(Doctor)40_storage"
					},
					"t_mapping(t_uint256,t_struct(Medicine)68_storage)": {
						"encoding": "mapping",
						"key": "t_uint256",
						"label": "mapping(uint256 => struct VotingSoftware.Medicine)",
						"numberOfBytes": "32",
						"value": "t_struct(Medicine)68_storage"
					},
					"t_mapping(t_uint256,t_struct(Patient)57_storage)": {
						"encoding": "mapping",
						"key": "t_uint256",
						"label": "mapping(uint256 => struct VotingSoftware.Patient)",
						"numberOfBytes": "32",
						"value": "t_struct(Patient)57_storage"
					},
					"t_string_storage": {
						"encoding": "bytes",
						"label": "string",
						"numberOfBytes": "32"
					},
					"t_struct(Doctor)40_storage": {
						"encoding": "inplace",
						"label": "struct VotingSoftware.Doctor",
						"members": [
							{
								"astId": 25,
								"contract": "contracts/patientrecord.sol:VotingSoftware",
								"label": "id",
								"offset": 0,
								"slot": "0",
								"type": "t_uint256"
							},
							{
								"astId": 27,
								"contract": "contracts/patientrecord.sol:VotingSoftware",
								"label": "name",
								"offset": 0,
								"slot": "1",
								"type": "t_string_storage"
							},
							{
								"astId": 29,
								"contract": "contracts/patientrecord.sol:VotingSoftware",
								"label": "qualification",
								"offset": 0,
								"slot": "2",
								"type": "t_string_storage"
							},
							{
								"astId": 31,
								"contract": "contracts/patientrecord.sol:VotingSoftware",
								"label": "workPlace",
								"offset": 0,
								"slot": "3",
								"type": "t_string_storage"
							},
							{
								"astId": 33,
								"contract": "contracts/patientrecord.sol:VotingSoftware",
								"label": "flag",
								"offset": 0,
								"slot": "4",
								"type": "t_bool"
							},
							{
								"astId": 35,
								"contract": "contracts/patientrecord.sol:VotingSoftware",
								"label": "delegatedTo",
								"offset": 1,
								"slot": "4",
								"type": "t_address"
							},
							{
								"astId": 37,
								"contract": "contracts/patientrecord.sol:VotingSoftware",
								"label": "hasVoted",
								"offset": 21,
								"slot": "4",
								"type": "t_bool"
							},
							{
								"astId": 39,
								"contract": "contracts/patientrecord.sol:VotingSoftware",
								"label": "cadidateId",
								"offset": 0,
								"slot": "5",
								"type": "t_uint256"
							}
						],
						"numberOfBytes": "192"
					},
					"t_struct(Medicine)68_storage": {
						"encoding": "inplace",
						"label": "struct VotingSoftware.Medicine",
						"members": [
							{
								"astId": 59,
								"contract": "contracts/patientrecord.sol:VotingSoftware",
								"label": "id",
								"offset": 0,
								"slot": "0",
								"type": "t_uint256"
							},
							{
								"astId": 61,
								"contract": "contracts/patientrecord.sol:VotingSoftware",
								"label": "name",
								"offset": 0,
								"slot": "1",
								"type": "t_string_storage"
							},
							{
								"astId": 63,
								"contract": "contracts/patientrecord.sol:VotingSoftware",
								"label": "expiryDate",
								"offset": 0,
								"slot": "2",
								"type": "t_string_storage"
							},
							{
								"astId": 65,
								"contract": "contracts/patientrecord.sol:VotingSoftware",
								"label": "dose",
								"offset": 0,
								"slot": "3",
								"type": "t_string_storage"
							},
							{
								"astId": 67,
								"contract": "contracts/patientrecord.sol:VotingSoftware",
								"label": "price",
								"offset": 0,
								"slot": "4",
								"type": "t_uint256"
							}
						],
						"numberOfBytes": "160"
					},
					"t_struct(Patient)57_storage": {
						"encoding": "inplace",
						"label": "struct VotingSoftware.Patient",
						"members": [
							{
								"astId": 42,
								"contract": "contracts/patientrecord.sol:VotingSoftware",
								"label": "id",
								"offset": 0,
								"slot": "0",
								"type": "t_uint256"
							},
							{
								"astId": 44,
								"contract": "contracts/patientrecord.sol:VotingSoftware",
								"label": "name",
								"offset": 0,
								"slot": "1",
								"type": "t_string_storage"
							},
							{
								"astId": 46,
								"contract": "contracts/patientrecord.sol:VotingSoftware",
								"label": "age",
								"offset": 0,
								"slot": "2",
								"type": "t_uint256"
							},
							{
								"astId": 49,
								"contract": "contracts/patientrecord.sol:VotingSoftware",
								"label": "diseases",
								"offset": 0,
								"slot": "3",
								"type": "t_array(t_string_storage)dyn_storage"
							},
							{
								"astId": 51,
								"contract": "contracts/patientrecord.sol:VotingSoftware",
								"label": "patientAddress",
								"offset": 0,
								"slot": "4",
								"type": "t_address"
							},
							{
								"astId": 54,
								"contract": "contracts/patientrecord.sol:VotingSoftware",
								"label": "medicines",
								"offset": 0,
								"slot": "5",
								"type": "t_array(t_uint256)dyn_storage"
							},
							{
								"astId": 56,
								"contract": "contracts/patientrecord.sol:VotingSoftware",
								"label": "flag",
								"offset": 0,
								"slot": "6",
								"type": "t_bool"
							}
						],
						"numberOfBytes": "224"
					},
					"t_uint256": {
						"encoding": "inplace",
						"label": "uint256",
						"numberOfBytes": "32"
					}
				}
			},
			"userdoc": {
				"kind": "user",
				"methods": {},
				"version": 1
			}
		}
	}
}