{
	"contracts/voting.sol": {
		"VotingSoftware": {
			"abi": [
				{
					"inputs": [],
					"stateMutability": "nonpayable",
					"type": "constructor"
				},
				{
					"inputs": [
						{
							"internalType": "enum VotingSoftware.VotingStatus",
							"name": "status",
							"type": "uint8"
						},
						{
							"internalType": "string",
							"name": "message",
							"type": "string"
						}
					],
					"name": "CanNotStartElection",
					"type": "error"
				},
				{
					"inputs": [
						{
							"internalType": "string",
							"name": "_name",
							"type": "string"
						},
						{
							"internalType": "string",
							"name": "_proposal",
							"type": "string"
						},
						{
							"internalType": "address",
							"name": "_contractOwner",
							"type": "address"
						}
					],
					"name": "addNewCandidate",
					"outputs": [],
					"stateMutability": "nonpayable",
					"type": "function"
				},
				{
					"inputs": [
						{
							"internalType": "address",
							"name": "_addressVoter",
							"type": "address"
						},
						{
							"internalType": "string",
							"name": "_name",
							"type": "string"
						},
						{
							"internalType": "address",
							"name": "_contractOwner",
							"type": "address"
						}
					],
					"name": "addNewVoter",
					"outputs": [],
					"stateMutability": "nonpayable",
					"type": "function"
				},
				{
					"inputs": [
						{
							"internalType": "uint256",
							"name": "_candidateId",
							"type": "uint256"
						},
						{
							"internalType": "address",
							"name": "_addressVoter",
							"type": "address"
						}
					],
					"name": "castVote",
					"outputs": [],
					"stateMutability": "nonpayable",
					"type": "function"
				},
				{
					"inputs": [
						{
							"internalType": "address",
							"name": "_delegatedTo",
							"type": "address"
						},
						{
							"internalType": "address",
							"name": "_addressVoter",
							"type": "address"
						}
					],
					"name": "delegateVotingRight",
					"outputs": [],
					"stateMutability": "nonpayable",
					"type": "function"
				},
				{
					"inputs": [
						{
							"internalType": "uint256",
							"name": "_candidateId",
							"type": "uint256"
						}
					],
					"name": "displayCandidateDetails",
					"outputs": [
						{
							"internalType": "uint256",
							"name": "candidateId",
							"type": "uint256"
						},
						{
							"internalType": "string",
							"name": "proposal",
							"type": "string"
						},
						{
							"internalType": "string",
							"name": "name",
							"type": "string"
						}
					],
					"stateMutability": "view",
					"type": "function"
				},
				{
					"inputs": [],
					"name": "endElection",
					"outputs": [],
					"stateMutability": "nonpayable",
					"type": "function"
				},
				{
					"inputs": [
						{
							"internalType": "uint256",
							"name": "_candidateId",
							"type": "uint256"
						}
					],
					"name": "showElectionResults",
					"outputs": [
						{
							"internalType": "uint256",
							"name": "candidateId",
							"type": "uint256"
						},
						{
							"internalType": "string",
							"name": "name",
							"type": "string"
						},
						{
							"internalType": "uint256",
							"name": "voteCount",
							"type": "uint256"
						}
					],
					"stateMutability": "view",
					"type": "function"
				},
				{
					"inputs": [
						{
							"internalType": "address",
							"name": "_contractOwner",
							"type": "address"
						}
					],
					"name": "startElection",
					"outputs": [],
					"stateMutability": "nonpayable",
					"type": "function"
				},
				{
					"inputs": [
						{
							"internalType": "address",
							"name": "_addressVoter",
							"type": "address"
						}
					],
					"name": "viewVoterDetails",
					"outputs": [
						{
							"internalType": "address",
							"name": "addressVoter",
							"type": "address"
						},
						{
							"internalType": "string",
							"name": "name",
							"type": "string"
						},
						{
							"internalType": "bool",
							"name": "isVoteDelegated",
							"type": "bool"
						}
					],
					"stateMutability": "view",
					"type": "function"
				},
				{
					"inputs": [],
					"name": "votingAdmin",
					"outputs": [
						{
							"internalType": "address",
							"name": "",
							"type": "address"
						}
					],
					"stateMutability": "view",
					"type": "function"
				}
			],
			"devdoc": {
				"kind": "dev",
				"methods": {},
				"version": 1
			},
			"evm": {
				"assembly": "    /* \"contracts/voting.sol\":56:5965  contract VotingSoftware{... */\n  mstore(0x40, 0x80)\n    /* \"contracts/voting.sol\":778:802  VotingStatus.NOT_STARTED */\n  0x00\n    /* \"contracts/voting.sol\":756:802  VotingStatus status = VotingStatus.NOT_STARTED */\n  dup1\n  exp(0x0100, 0x14)\n  dup2\n  sload\n  dup2\n  0xff\n  mul\n  not\n  and\n  swap1\n  dup4\n  0x02\n  dup2\n  gt\n  iszero\n  tag_1\n  jumpi\n  tag_2\n  tag_3\n  jump\t// in\ntag_2:\ntag_1:\n  mul\n  or\n  swap1\n  sstore\n  pop\n    /* \"contracts/voting.sol\":856:857  0 */\n  0x00\n    /* \"contracts/voting.sol\":831:857  uint256 candidateCount = 0 */\n  0x01\n  sstore\n    /* \"contracts/voting.sol\":914:915  0 */\n  0x00\n    /* \"contracts/voting.sol\":893:915  uint256 voterCount = 0 */\n  0x02\n  sstore\n    /* \"contracts/voting.sol\":183:238  constructor() {... */\n  callvalue\n  dup1\n  iszero\n  tag_4\n  jumpi\n  0x00\n  dup1\n  revert\ntag_4:\n  pop\n    /* \"contracts/voting.sol\":221:231  msg.sender */\n  caller\n    /* \"contracts/voting.sol\":207:218  votingAdmin */\n  0x00\n  dup1\n    /* \"contracts/voting.sol\":207:231  votingAdmin = msg.sender */\n  0x0100\n  exp\n  dup2\n  sload\n  dup2\n  0xffffffffffffffffffffffffffffffffffffffff\n  mul\n  not\n  and\n  swap1\n  dup4\n  0xffffffffffffffffffffffffffffffffffffffff\n  and\n  mul\n  or\n  swap1\n  sstore\n  pop\n    /* \"contracts/voting.sol\":56:5965  contract VotingSoftware{... */\n  jump(tag_7)\n    /* \"#utility.yul\":7:187   */\ntag_3:\n    /* \"#utility.yul\":55:132   */\n  0x4e487b7100000000000000000000000000000000000000000000000000000000\n    /* \"#utility.yul\":52:53   */\n  0x00\n    /* \"#utility.yul\":45:133   */\n  mstore\n    /* \"#utility.yul\":152:156   */\n  0x21\n    /* \"#utility.yul\":149:150   */\n  0x04\n    /* \"#utility.yul\":142:157   */\n  mstore\n    /* \"#utility.yul\":176:180   */\n  0x24\n    /* \"#utility.yul\":173:174   */\n  0x00\n    /* \"#utility.yul\":166:181   */\n  revert\n    /* \"contracts/voting.sol\":56:5965  contract VotingSoftware{... */\ntag_7:\n  dataSize(sub_0)\n  dup1\n  dataOffset(sub_0)\n  0x00\n  codecopy\n  0x00\n  return\nstop\n\nsub_0: assembly {\n        /* \"contracts/voting.sol\":56:5965  contract VotingSoftware{... */\n      mstore(0x40, 0x80)\n      callvalue\n      dup1\n      iszero\n      tag_1\n      jumpi\n      0x00\n      dup1\n      revert\n    tag_1:\n      pop\n      jumpi(tag_2, lt(calldatasize, 0x04))\n      shr(0xe0, calldataload(0x00))\n      dup1\n      0x77df41b7\n      gt\n      tag_13\n      jumpi\n      dup1\n      0x77df41b7\n      eq\n      tag_8\n      jumpi\n      dup1\n      0xa48292ce\n      eq\n      tag_9\n      jumpi\n      dup1\n      0xd45529f4\n      eq\n      tag_10\n      jumpi\n      dup1\n      0xe6a5e61d\n      eq\n      tag_11\n      jumpi\n      dup1\n      0xf83bfa28\n      eq\n      tag_12\n      jumpi\n      jump(tag_2)\n    tag_13:\n      dup1\n      0x3cdd97bf\n      eq\n      tag_3\n      jumpi\n      dup1\n      0x3d0af840\n      eq\n      tag_4\n      jumpi\n      dup1\n      0x4ad7b863\n      eq\n      tag_5\n      jumpi\n      dup1\n      0x59f78468\n      eq\n      tag_6\n      jumpi\n      dup1\n      0x723309a0\n      eq\n      tag_7\n      jumpi\n    tag_2:\n      0x00\n      dup1\n      revert\n        /* \"contracts/voting.sol\":1685:2306  function addNewVoter(address _addressVoter, string memory _name, address _contractOwner) public onlyVotingAdmin {... */\n    tag_3:\n      tag_14\n      0x04\n      dup1\n      calldatasize\n      sub\n      dup2\n      add\n      swap1\n      tag_15\n      swap2\n      swap1\n      tag_16\n      jump\t// in\n    tag_15:\n      tag_17\n      jump\t// in\n    tag_14:\n      stop\n        /* \"contracts/voting.sol\":3811:4293  function delegateVotingRight(address _delegatedTo, address _addressVoter) public {... */\n    tag_4:\n      tag_18\n      0x04\n      dup1\n      calldatasize\n      sub\n      dup2\n      add\n      swap1\n      tag_19\n      swap2\n      swap1\n      tag_20\n      jump\t// in\n    tag_19:\n      tag_21\n      jump\t// in\n    tag_18:\n      stop\n        /* \"contracts/voting.sol\":5208:5534  function showElectionResults(uint256 _candidateId) public view ... */\n    tag_5:\n      tag_22\n      0x04\n      dup1\n      calldatasize\n      sub\n      dup2\n      add\n      swap1\n      tag_23\n      swap2\n      swap1\n      tag_24\n      jump\t// in\n    tag_23:\n      tag_25\n      jump\t// in\n    tag_22:\n      mload(0x40)\n      tag_26\n      swap4\n      swap3\n      swap2\n      swap1\n      tag_27\n      jump\t// in\n    tag_26:\n      mload(0x40)\n      dup1\n      swap2\n      sub\n      swap1\n      return\n        /* \"contracts/voting.sol\":4981:5170  function endElection() public onlyVotingAdmin(){... */\n    tag_6:\n      tag_28\n      tag_29\n      jump\t// in\n    tag_28:\n      stop\n        /* \"contracts/voting.sol\":1136:1653  function addNewCandidate(string memory _name, string memory _proposal, address _contractOwner) public onlyVotingAdmin {... */\n    tag_7:\n      tag_30\n      0x04\n      dup1\n      calldatasize\n      sub\n      dup2\n      add\n      swap1\n      tag_31\n      swap2\n      swap1\n      tag_32\n      jump\t// in\n    tag_31:\n      tag_33\n      jump\t// in\n    tag_30:\n      stop\n        /* \"contracts/voting.sol\":4323:4948  function castVote(uint256 _candidateId, address _addressVoter) public {... */\n    tag_8:\n      tag_34\n      0x04\n      dup1\n      calldatasize\n      sub\n      dup2\n      add\n      swap1\n      tag_35\n      swap2\n      swap1\n      tag_36\n      jump\t// in\n    tag_35:\n      tag_37\n      jump\t// in\n    tag_34:\n      stop\n        /* \"contracts/voting.sol\":3043:3408  function displayCandidateDetails(uint256 _candidateId) public view ... */\n    tag_9:\n      tag_38\n      0x04\n      dup1\n      calldatasize\n      sub\n      dup2\n      add\n      swap1\n      tag_39\n      swap2\n      swap1\n      tag_24\n      jump\t// in\n    tag_39:\n      tag_40\n      jump\t// in\n    tag_38:\n      mload(0x40)\n      tag_41\n      swap4\n      swap3\n      swap2\n      swap1\n      tag_42\n      jump\t// in\n    tag_41:\n      mload(0x40)\n      dup1\n      swap2\n      sub\n      swap1\n      return\n        /* \"contracts/voting.sol\":151:177  address public votingAdmin */\n    tag_10:\n      tag_43\n      tag_44\n      jump\t// in\n    tag_43:\n      mload(0x40)\n      tag_45\n      swap2\n      swap1\n      tag_46\n      jump\t// in\n    tag_45:\n      mload(0x40)\n      dup1\n      swap2\n      sub\n      swap1\n      return\n        /* \"contracts/voting.sol\":2405:2993  function startElection(address _contractOwner) public onlyVotingAdmin{... */\n    tag_11:\n      tag_47\n      0x04\n      dup1\n      calldatasize\n      sub\n      dup2\n      add\n      swap1\n      tag_48\n      swap2\n      swap1\n      tag_49\n      jump\t// in\n    tag_48:\n      tag_50\n      jump\t// in\n    tag_47:\n      stop\n        /* \"contracts/voting.sol\":5580:5963  function viewVoterDetails(address _addressVoter) public view returns (... */\n    tag_12:\n      tag_51\n      0x04\n      dup1\n      calldatasize\n      sub\n      dup2\n      add\n      swap1\n      tag_52\n      swap2\n      swap1\n      tag_49\n      jump\t// in\n    tag_52:\n      tag_53\n      jump\t// in\n    tag_51:\n      mload(0x40)\n      tag_54\n      swap4\n      swap3\n      swap2\n      swap1\n      tag_55\n      jump\t// in\n    tag_54:\n      mload(0x40)\n      dup1\n      swap2\n      sub\n      swap1\n      return\n        /* \"contracts/voting.sol\":1685:2306  function addNewVoter(address _addressVoter, string memory _name, address _contractOwner) public onlyVotingAdmin {... */\n    tag_17:\n        /* \"contracts/voting.sol\":302:313  votingAdmin */\n      0x00\n      dup1\n      sload\n      swap1\n      0x0100\n      exp\n      swap1\n      div\n      0xffffffffffffffffffffffffffffffffffffffff\n      and\n        /* \"contracts/voting.sol\":288:313  msg.sender == votingAdmin */\n      0xffffffffffffffffffffffffffffffffffffffff\n      and\n        /* \"contracts/voting.sol\":288:298  msg.sender */\n      caller\n        /* \"contracts/voting.sol\":288:313  msg.sender == votingAdmin */\n      0xffffffffffffffffffffffffffffffffffffffff\n      and\n      eq\n        /* \"contracts/voting.sol\":280:314  require(msg.sender == votingAdmin) */\n      tag_57\n      jumpi\n      0x00\n      dup1\n      revert\n    tag_57:\n        /* \"contracts/voting.sol\":1833:1844  votingAdmin */\n      0x00\n      dup1\n      sload\n      swap1\n      0x0100\n      exp\n      swap1\n      div\n      0xffffffffffffffffffffffffffffffffffffffff\n      and\n        /* \"contracts/voting.sol\":1815:1844  _contractOwner == votingAdmin */\n      0xffffffffffffffffffffffffffffffffffffffff\n      and\n        /* \"contracts/voting.sol\":1815:1829  _contractOwner */\n      dup2\n        /* \"contracts/voting.sol\":1815:1844  _contractOwner == votingAdmin */\n      0xffffffffffffffffffffffffffffffffffffffff\n      and\n      eq\n        /* \"contracts/voting.sol\":1807:1882  require(_contractOwner == votingAdmin, \"Only admin has access to do this.\") */\n      tag_59\n      jumpi\n      mload(0x40)\n      0x08c379a000000000000000000000000000000000000000000000000000000000\n      dup2\n      mstore\n      0x04\n      add\n      tag_60\n      swap1\n      tag_61\n      jump\t// in\n    tag_60:\n      mload(0x40)\n      dup1\n      swap2\n      sub\n      swap1\n      revert\n    tag_59:\n        /* \"contracts/voting.sol\":1908:1932  VotingStatus.NOT_STARTED */\n      0x00\n        /* \"contracts/voting.sol\":1900:1932  status==VotingStatus.NOT_STARTED */\n      0x02\n      dup2\n      gt\n      iszero\n      tag_62\n      jumpi\n      tag_63\n      tag_64\n      jump\t// in\n    tag_63:\n    tag_62:\n        /* \"contracts/voting.sol\":1900:1906  status */\n      0x00\n      0x14\n      swap1\n      sload\n      swap1\n      0x0100\n      exp\n      swap1\n      div\n      0xff\n      and\n        /* \"contracts/voting.sol\":1900:1932  status==VotingStatus.NOT_STARTED */\n      0x02\n      dup2\n      gt\n      iszero\n      tag_65\n      jumpi\n      tag_66\n      tag_64\n      jump\t// in\n    tag_66:\n    tag_65:\n      eq\n        /* \"contracts/voting.sol\":1892:1972  require(status==VotingStatus.NOT_STARTED, \"Voting already started or completed\") */\n      tag_67\n      jumpi\n      mload(0x40)\n      0x08c379a000000000000000000000000000000000000000000000000000000000\n      dup2\n      mstore\n      0x04\n      add\n      tag_68\n      swap1\n      tag_69\n      jump\t// in\n    tag_68:\n      mload(0x40)\n      dup1\n      swap2\n      sub\n      swap1\n      revert\n    tag_67:\n        /* \"contracts/voting.sol\":2018:2023  false */\n      0x00\n        /* \"contracts/voting.sol\":1990:2023  voters[_addressVoter].flag==false */\n      iszero\n      iszero\n        /* \"contracts/voting.sol\":1990:1996  voters */\n      0x04\n        /* \"contracts/voting.sol\":1990:2011  voters[_addressVoter] */\n      0x00\n        /* \"contracts/voting.sol\":1997:2010  _addressVoter */\n      dup6\n        /* \"contracts/voting.sol\":1990:2011  voters[_addressVoter] */\n      0xffffffffffffffffffffffffffffffffffffffff\n      and\n      0xffffffffffffffffffffffffffffffffffffffff\n      and\n      dup2\n      mstore\n      0x20\n      add\n      swap1\n      dup2\n      mstore\n      0x20\n      add\n      0x00\n      keccak256\n        /* \"contracts/voting.sol\":1990:2016  voters[_addressVoter].flag */\n      0x05\n      add\n      0x00\n      swap1\n      sload\n      swap1\n      0x0100\n      exp\n      swap1\n      div\n      0xff\n      and\n        /* \"contracts/voting.sol\":1990:2023  voters[_addressVoter].flag==false */\n      iszero\n      iszero\n      eq\n        /* \"contracts/voting.sol\":1982:2048  require(voters[_addressVoter].flag==false, \"voter already added.\") */\n      tag_70\n      jumpi\n      mload(0x40)\n      0x08c379a000000000000000000000000000000000000000000000000000000000\n      dup2\n      mstore\n      0x04\n      add\n      tag_71\n      swap1\n      tag_72\n      jump\t// in\n    tag_71:\n      mload(0x40)\n      dup1\n      swap2\n      sub\n      swap1\n      revert\n    tag_70:\n        /* \"contracts/voting.sol\":2058:2068  voterCount */\n      0x02\n      0x00\n        /* \"contracts/voting.sol\":2058:2070  voterCount++ */\n      dup2\n      sload\n      dup1\n      swap3\n      swap2\n      swap1\n      tag_73\n      swap1\n      tag_74\n      jump\t// in\n    tag_73:\n      swap2\n      swap1\n      pop\n      sstore\n      pop\n        /* \"contracts/voting.sol\":2080:2095  uint256 voterId */\n      0x00\n        /* \"contracts/voting.sol\":2098:2108  voterCount */\n      sload(0x02)\n        /* \"contracts/voting.sol\":2080:2108  uint256 voterId = voterCount */\n      swap1\n      pop\n        /* \"contracts/voting.sol\":2145:2152  voterId */\n      dup1\n        /* \"contracts/voting.sol\":2118:2124  voters */\n      0x04\n        /* \"contracts/voting.sol\":2118:2139  voters[_addressVoter] */\n      0x00\n        /* \"contracts/voting.sol\":2125:2138  _addressVoter */\n      dup7\n        /* \"contracts/voting.sol\":2118:2139  voters[_addressVoter] */\n      0xffffffffffffffffffffffffffffffffffffffff\n      and\n      0xffffffffffffffffffffffffffffffffffffffff\n      and\n      dup2\n      mstore\n      0x20\n      add\n      swap1\n      dup2\n      mstore\n      0x20\n      add\n      0x00\n      keccak256\n        /* \"contracts/voting.sol\":2118:2142  voters[_addressVoter].id */\n      0x00\n      add\n        /* \"contracts/voting.sol\":2118:2152  voters[_addressVoter].id = voterId */\n      dup2\n      swap1\n      sstore\n      pop\n        /* \"contracts/voting.sol\":2199:2212  _addressVoter */\n      dup4\n        /* \"contracts/voting.sol\":2162:2168  voters */\n      0x04\n        /* \"contracts/voting.sol\":2162:2183  voters[_addressVoter] */\n      0x00\n        /* \"contracts/voting.sol\":2169:2182  _addressVoter */\n      dup7\n        /* \"contracts/voting.sol\":2162:2183  voters[_addressVoter] */\n      0xffffffffffffffffffffffffffffffffffffffff\n      and\n      0xffffffffffffffffffffffffffffffffffffffff\n      and\n      dup2\n      mstore\n      0x20\n      add\n      swap1\n      dup2\n      mstore\n      0x20\n      add\n      0x00\n      keccak256\n        /* \"contracts/voting.sol\":2162:2196  voters[_addressVoter].addressVoter */\n      0x02\n      add\n      0x00\n        /* \"contracts/voting.sol\":2162:2212  voters[_addressVoter].addressVoter = _addressVoter */\n      0x0100\n      exp\n      dup2\n      sload\n      dup2\n      0xffffffffffffffffffffffffffffffffffffffff\n      mul\n      not\n      and\n      swap1\n      dup4\n      0xffffffffffffffffffffffffffffffffffffffff\n      and\n      mul\n      or\n      swap1\n      sstore\n      pop\n        /* \"contracts/voting.sol\":2251:2256  _name */\n      dup3\n        /* \"contracts/voting.sol\":2222:2228  voters */\n      0x04\n        /* \"contracts/voting.sol\":2222:2243  voters[_addressVoter] */\n      0x00\n        /* \"contracts/voting.sol\":2229:2242  _addressVoter */\n      dup7\n        /* \"contracts/voting.sol\":2222:2243  voters[_addressVoter] */\n      0xffffffffffffffffffffffffffffffffffffffff\n      and\n      0xffffffffffffffffffffffffffffffffffffffff\n      and\n      dup2\n      mstore\n      0x20\n      add\n      swap1\n      dup2\n      mstore\n      0x20\n      add\n      0x00\n      keccak256\n        /* \"contracts/voting.sol\":2222:2248  voters[_addressVoter].name */\n      0x01\n      add\n        /* \"contracts/voting.sol\":2222:2256  voters[_addressVoter].name = _name */\n      swap1\n      dup2\n      tag_75\n      swap2\n      swap1\n      tag_76\n      jump\t// in\n    tag_75:\n      pop\n        /* \"contracts/voting.sol\":2295:2299  true */\n      0x01\n        /* \"contracts/voting.sol\":2266:2272  voters */\n      0x04\n        /* \"contracts/voting.sol\":2266:2287  voters[_addressVoter] */\n      0x00\n        /* \"contracts/voting.sol\":2273:2286  _addressVoter */\n      dup7\n        /* \"contracts/voting.sol\":2266:2287  voters[_addressVoter] */\n      0xffffffffffffffffffffffffffffffffffffffff\n      and\n      0xffffffffffffffffffffffffffffffffffffffff\n      and\n      dup2\n      mstore\n      0x20\n      add\n      swap1\n      dup2\n      mstore\n      0x20\n      add\n      0x00\n      keccak256\n        /* \"contracts/voting.sol\":2266:2292  voters[_addressVoter].flag */\n      0x05\n      add\n      0x00\n        /* \"contracts/voting.sol\":2266:2299  voters[_addressVoter].flag = true */\n      0x0100\n      exp\n      dup2\n      sload\n      dup2\n      0xff\n      mul\n      not\n      and\n      swap1\n      dup4\n      iszero\n      iszero\n      mul\n      or\n      swap1\n      sstore\n      pop\n        /* \"contracts/voting.sol\":1797:2306  {... */\n      pop\n        /* \"contracts/voting.sol\":1685:2306  function addNewVoter(address _addressVoter, string memory _name, address _contractOwner) public onlyVotingAdmin {... */\n      pop\n      pop\n      pop\n      jump\t// out\n        /* \"contracts/voting.sol\":3811:4293  function delegateVotingRight(address _delegatedTo, address _addressVoter) public {... */\n    tag_21:\n        /* \"contracts/voting.sol\":3918:3938  VotingStatus.ONGOING */\n      0x01\n        /* \"contracts/voting.sol\":3910:3938  status==VotingStatus.ONGOING */\n      0x02\n      dup2\n      gt\n      iszero\n      tag_78\n      jumpi\n      tag_79\n      tag_64\n      jump\t// in\n    tag_79:\n    tag_78:\n        /* \"contracts/voting.sol\":3910:3916  status */\n      0x00\n      0x14\n      swap1\n      sload\n      swap1\n      0x0100\n      exp\n      swap1\n      div\n      0xff\n      and\n        /* \"contracts/voting.sol\":3910:3938  status==VotingStatus.ONGOING */\n      0x02\n      dup2\n      gt\n      iszero\n      tag_80\n      jumpi\n      tag_81\n      tag_64\n      jump\t// in\n    tag_81:\n    tag_80:\n      eq\n        /* \"contracts/voting.sol\":3902:3994  require(status==VotingStatus.ONGOING, \"Voting not in progress. You can not deletegate now.\") */\n      tag_82\n      jumpi\n      mload(0x40)\n      0x08c379a000000000000000000000000000000000000000000000000000000000\n      dup2\n      mstore\n      0x04\n      add\n      tag_83\n      swap1\n      tag_84\n      jump\t// in\n    tag_83:\n      mload(0x40)\n      dup1\n      swap2\n      sub\n      swap1\n      revert\n    tag_82:\n        /* \"contracts/voting.sol\":4024:4037  _addressVoter */\n      dup1\n        /* \"contracts/voting.sol\":4012:4037  msg.sender==_addressVoter */\n      0xffffffffffffffffffffffffffffffffffffffff\n      and\n        /* \"contracts/voting.sol\":4012:4022  msg.sender */\n      caller\n        /* \"contracts/voting.sol\":4012:4037  msg.sender==_addressVoter */\n      0xffffffffffffffffffffffffffffffffffffffff\n      and\n      eq\n        /* \"contracts/voting.sol\":4004:4107  require(msg.sender==_addressVoter, \"Only address owner can delegate voting rights to another address.\") */\n      tag_85\n      jumpi\n      mload(0x40)\n      0x08c379a000000000000000000000000000000000000000000000000000000000\n      dup2\n      mstore\n      0x04\n      add\n      tag_86\n      swap1\n      tag_87\n      jump\t// in\n    tag_86:\n      mload(0x40)\n      dup1\n      swap2\n      sub\n      swap1\n      revert\n    tag_85:\n        /* \"contracts/voting.sol\":4159:4164  false */\n      0x00\n        /* \"contracts/voting.sol\":4125:4164  voters[_addressVoter].hasVoted == false */\n      iszero\n      iszero\n        /* \"contracts/voting.sol\":4125:4131  voters */\n      0x04\n        /* \"contracts/voting.sol\":4125:4146  voters[_addressVoter] */\n      0x00\n        /* \"contracts/voting.sol\":4132:4145  _addressVoter */\n      dup4\n        /* \"contracts/voting.sol\":4125:4146  voters[_addressVoter] */\n      0xffffffffffffffffffffffffffffffffffffffff\n      and\n      0xffffffffffffffffffffffffffffffffffffffff\n      and\n      dup2\n      mstore\n      0x20\n      add\n      swap1\n      dup2\n      mstore\n      0x20\n      add\n      0x00\n      keccak256\n        /* \"contracts/voting.sol\":4125:4155  voters[_addressVoter].hasVoted */\n      0x03\n      add\n      0x14\n      swap1\n      sload\n      swap1\n      0x0100\n      exp\n      swap1\n      div\n      0xff\n      and\n        /* \"contracts/voting.sol\":4125:4164  voters[_addressVoter].hasVoted == false */\n      iszero\n      iszero\n      eq\n        /* \"contracts/voting.sol\":4117:4228  require(voters[_addressVoter].hasVoted == false, \"You can not delegate voting rights. You have already voted.\") */\n      tag_88\n      jumpi\n      mload(0x40)\n      0x08c379a000000000000000000000000000000000000000000000000000000000\n      dup2\n      mstore\n      0x04\n      add\n      tag_89\n      swap1\n      tag_90\n      jump\t// in\n    tag_89:\n      mload(0x40)\n      dup1\n      swap2\n      sub\n      swap1\n      revert\n    tag_88:\n        /* \"contracts/voting.sol\":4274:4286  _delegatedTo */\n      dup2\n        /* \"contracts/voting.sol\":4238:4244  voters */\n      0x04\n        /* \"contracts/voting.sol\":4238:4259  voters[_addressVoter] */\n      0x00\n        /* \"contracts/voting.sol\":4245:4258  _addressVoter */\n      dup4\n        /* \"contracts/voting.sol\":4238:4259  voters[_addressVoter] */\n      0xffffffffffffffffffffffffffffffffffffffff\n      and\n      0xffffffffffffffffffffffffffffffffffffffff\n      and\n      dup2\n      mstore\n      0x20\n      add\n      swap1\n      dup2\n      mstore\n      0x20\n      add\n      0x00\n      keccak256\n        /* \"contracts/voting.sol\":4238:4271  voters[_addressVoter].delegatedTo */\n      0x03\n      add\n      0x00\n        /* \"contracts/voting.sol\":4238:4286  voters[_addressVoter].delegatedTo = _delegatedTo */\n      0x0100\n      exp\n      dup2\n      sload\n      dup2\n      0xffffffffffffffffffffffffffffffffffffffff\n      mul\n      not\n      and\n      swap1\n      dup4\n      0xffffffffffffffffffffffffffffffffffffffff\n      and\n      mul\n      or\n      swap1\n      sstore\n      pop\n        /* \"contracts/voting.sol\":3811:4293  function delegateVotingRight(address _delegatedTo, address _addressVoter) public {... */\n      pop\n      pop\n      jump\t// out\n        /* \"contracts/voting.sol\":5208:5534  function showElectionResults(uint256 _candidateId) public view ... */\n    tag_25:\n        /* \"contracts/voting.sol\":5288:5307  uint256 candidateId */\n      0x00\n        /* \"contracts/voting.sol\":5326:5344  string memory name */\n      0x60\n        /* \"contracts/voting.sol\":5362:5379  uint256 voteCount */\n      0x00\n        /* \"contracts/voting.sol\":5424:5436  _candidateId */\n      dup4\n        /* \"contracts/voting.sol\":5450:5460  candidates */\n      0x03\n        /* \"contracts/voting.sol\":5450:5474  candidates[_candidateId] */\n      0x00\n        /* \"contracts/voting.sol\":5461:5473  _candidateId */\n      dup7\n        /* \"contracts/voting.sol\":5450:5474  candidates[_candidateId] */\n      dup2\n      mstore\n      0x20\n      add\n      swap1\n      dup2\n      mstore\n      0x20\n      add\n      0x00\n      keccak256\n        /* \"contracts/voting.sol\":5450:5479  candidates[_candidateId].name */\n      0x01\n      add\n        /* \"contracts/voting.sol\":5493:5503  voteCounts */\n      0x05\n        /* \"contracts/voting.sol\":5493:5517  voteCounts[_candidateId] */\n      0x00\n        /* \"contracts/voting.sol\":5504:5516  _candidateId */\n      dup8\n        /* \"contracts/voting.sol\":5493:5517  voteCounts[_candidateId] */\n      dup2\n      mstore\n      0x20\n      add\n      swap1\n      dup2\n      mstore\n      0x20\n      add\n      0x00\n      keccak256\n      sload\n        /* \"contracts/voting.sol\":5404:5527  return(... */\n      dup2\n      dup1\n      sload\n      tag_92\n      swap1\n      tag_93\n      jump\t// in\n    tag_92:\n      dup1\n      0x1f\n      add\n      0x20\n      dup1\n      swap2\n      div\n      mul\n      0x20\n      add\n      mload(0x40)\n      swap1\n      dup2\n      add\n      0x40\n      mstore\n      dup1\n      swap3\n      swap2\n      swap1\n      dup2\n      dup2\n      mstore\n      0x20\n      add\n      dup3\n      dup1\n      sload\n      tag_94\n      swap1\n      tag_93\n      jump\t// in\n    tag_94:\n      dup1\n      iszero\n      tag_95\n      jumpi\n      dup1\n      0x1f\n      lt\n      tag_96\n      jumpi\n      0x0100\n      dup1\n      dup4\n      sload\n      div\n      mul\n      dup4\n      mstore\n      swap2\n      0x20\n      add\n      swap2\n      jump(tag_95)\n    tag_96:\n      dup3\n      add\n      swap2\n      swap1\n      0x00\n      mstore\n      keccak256(0x00, 0x20)\n      swap1\n    tag_97:\n      dup2\n      sload\n      dup2\n      mstore\n      swap1\n      0x01\n      add\n      swap1\n      0x20\n      add\n      dup1\n      dup4\n      gt\n      tag_97\n      jumpi\n      dup3\n      swap1\n      sub\n      0x1f\n      and\n      dup3\n      add\n      swap2\n    tag_95:\n      pop\n      pop\n      pop\n      pop\n      pop\n      swap2\n      pop\n      swap3\n      pop\n      swap3\n      pop\n      swap3\n      pop\n        /* \"contracts/voting.sol\":5208:5534  function showElectionResults(uint256 _candidateId) public view ... */\n      swap2\n      swap4\n      swap1\n      swap3\n      pop\n      jump\t// out\n        /* \"contracts/voting.sol\":4981:5170  function endElection() public onlyVotingAdmin(){... */\n    tag_29:\n        /* \"contracts/voting.sol\":302:313  votingAdmin */\n      0x00\n      dup1\n      sload\n      swap1\n      0x0100\n      exp\n      swap1\n      div\n      0xffffffffffffffffffffffffffffffffffffffff\n      and\n        /* \"contracts/voting.sol\":288:313  msg.sender == votingAdmin */\n      0xffffffffffffffffffffffffffffffffffffffff\n      and\n        /* \"contracts/voting.sol\":288:298  msg.sender */\n      caller\n        /* \"contracts/voting.sol\":288:313  msg.sender == votingAdmin */\n      0xffffffffffffffffffffffffffffffffffffffff\n      and\n      eq\n        /* \"contracts/voting.sol\":280:314  require(msg.sender == votingAdmin) */\n      tag_99\n      jumpi\n      0x00\n      dup1\n      revert\n    tag_99:\n        /* \"contracts/voting.sol\":5054:5074  VotingStatus.ONGOING */\n      0x01\n        /* \"contracts/voting.sol\":5046:5074  status==VotingStatus.ONGOING */\n      0x02\n      dup2\n      gt\n      iszero\n      tag_101\n      jumpi\n      tag_102\n      tag_64\n      jump\t// in\n    tag_102:\n    tag_101:\n        /* \"contracts/voting.sol\":5046:5052  status */\n      0x00\n      0x14\n      swap1\n      sload\n      swap1\n      0x0100\n      exp\n      swap1\n      div\n      0xff\n      and\n        /* \"contracts/voting.sol\":5046:5074  status==VotingStatus.ONGOING */\n      0x02\n      dup2\n      gt\n      iszero\n      tag_103\n      jumpi\n      tag_104\n      tag_64\n      jump\t// in\n    tag_104:\n    tag_103:\n      eq\n        /* \"contracts/voting.sol\":5038:5122  require(status==VotingStatus.ONGOING, \"Either voting has not started or completed.\") */\n      tag_105\n      jumpi\n      mload(0x40)\n      0x08c379a000000000000000000000000000000000000000000000000000000000\n      dup2\n      mstore\n      0x04\n      add\n      tag_106\n      swap1\n      tag_107\n      jump\t// in\n    tag_106:\n      mload(0x40)\n      dup1\n      swap2\n      sub\n      swap1\n      revert\n    tag_105:\n        /* \"contracts/voting.sol\":5141:5163  VotingStatus.COMPLETED */\n      0x02\n        /* \"contracts/voting.sol\":5132:5138  status */\n      0x00\n      0x14\n        /* \"contracts/voting.sol\":5132:5163  status = VotingStatus.COMPLETED */\n      0x0100\n      exp\n      dup2\n      sload\n      dup2\n      0xff\n      mul\n      not\n      and\n      swap1\n      dup4\n      0x02\n      dup2\n      gt\n      iszero\n      tag_108\n      jumpi\n      tag_109\n      tag_64\n      jump\t// in\n    tag_109:\n    tag_108:\n      mul\n      or\n      swap1\n      sstore\n      pop\n        /* \"contracts/voting.sol\":4981:5170  function endElection() public onlyVotingAdmin(){... */\n      jump\t// out\n        /* \"contracts/voting.sol\":1136:1653  function addNewCandidate(string memory _name, string memory _proposal, address _contractOwner) public onlyVotingAdmin {... */\n    tag_33:\n        /* \"contracts/voting.sol\":302:313  votingAdmin */\n      0x00\n      dup1\n      sload\n      swap1\n      0x0100\n      exp\n      swap1\n      div\n      0xffffffffffffffffffffffffffffffffffffffff\n      and\n        /* \"contracts/voting.sol\":288:313  msg.sender == votingAdmin */\n      0xffffffffffffffffffffffffffffffffffffffff\n      and\n        /* \"contracts/voting.sol\":288:298  msg.sender */\n      caller\n        /* \"contracts/voting.sol\":288:313  msg.sender == votingAdmin */\n      0xffffffffffffffffffffffffffffffffffffffff\n      and\n      eq\n        /* \"contracts/voting.sol\":280:314  require(msg.sender == votingAdmin) */\n      tag_111\n      jumpi\n      0x00\n      dup1\n      revert\n    tag_111:\n        /* \"contracts/voting.sol\":1290:1301  votingAdmin */\n      0x00\n      dup1\n      sload\n      swap1\n      0x0100\n      exp\n      swap1\n      div\n      0xffffffffffffffffffffffffffffffffffffffff\n      and\n        /* \"contracts/voting.sol\":1272:1301  _contractOwner == votingAdmin */\n      0xffffffffffffffffffffffffffffffffffffffff\n      and\n        /* \"contracts/voting.sol\":1272:1286  _contractOwner */\n      dup2\n        /* \"contracts/voting.sol\":1272:1301  _contractOwner == votingAdmin */\n      0xffffffffffffffffffffffffffffffffffffffff\n      and\n      eq\n        /* \"contracts/voting.sol\":1264:1339  require(_contractOwner == votingAdmin, \"Only admin has access to do this.\") */\n      tag_113\n      jumpi\n      mload(0x40)\n      0x08c379a000000000000000000000000000000000000000000000000000000000\n      dup2\n      mstore\n      0x04\n      add\n      tag_114\n      swap1\n      tag_61\n      jump\t// in\n    tag_114:\n      mload(0x40)\n      dup1\n      swap2\n      sub\n      swap1\n      revert\n    tag_113:\n        /* \"contracts/voting.sol\":1365:1389  VotingStatus.NOT_STARTED */\n      0x00\n        /* \"contracts/voting.sol\":1357:1389  status==VotingStatus.NOT_STARTED */\n      0x02\n      dup2\n      gt\n      iszero\n      tag_115\n      jumpi\n      tag_116\n      tag_64\n      jump\t// in\n    tag_116:\n    tag_115:\n        /* \"contracts/voting.sol\":1357:1363  status */\n      0x00\n      0x14\n      swap1\n      sload\n      swap1\n      0x0100\n      exp\n      swap1\n      div\n      0xff\n      and\n        /* \"contracts/voting.sol\":1357:1389  status==VotingStatus.NOT_STARTED */\n      0x02\n      dup2\n      gt\n      iszero\n      tag_117\n      jumpi\n      tag_118\n      tag_64\n      jump\t// in\n    tag_118:\n    tag_117:\n      eq\n        /* \"contracts/voting.sol\":1349:1429  require(status==VotingStatus.NOT_STARTED, \"Voting already started or completed\") */\n      tag_119\n      jumpi\n      mload(0x40)\n      0x08c379a000000000000000000000000000000000000000000000000000000000\n      dup2\n      mstore\n      0x04\n      add\n      tag_120\n      swap1\n      tag_69\n      jump\t// in\n    tag_120:\n      mload(0x40)\n      dup1\n      swap2\n      sub\n      swap1\n      revert\n    tag_119:\n        /* \"contracts/voting.sol\":1439:1453  candidateCount */\n      0x01\n      0x00\n        /* \"contracts/voting.sol\":1439:1455  candidateCount++ */\n      dup2\n      sload\n      dup1\n      swap3\n      swap2\n      swap1\n      tag_121\n      swap1\n      tag_74\n      jump\t// in\n    tag_121:\n      swap2\n      swap1\n      pop\n      sstore\n      pop\n        /* \"contracts/voting.sol\":1465:1484  uint256 candidateId */\n      0x00\n        /* \"contracts/voting.sol\":1487:1501  candidateCount */\n      sload(0x01)\n        /* \"contracts/voting.sol\":1465:1501  uint256 candidateId = candidateCount */\n      swap1\n      pop\n        /* \"contracts/voting.sol\":1542:1547  _name */\n      dup4\n        /* \"contracts/voting.sol\":1511:1521  candidates */\n      0x03\n        /* \"contracts/voting.sol\":1511:1534  candidates[candidateId] */\n      0x00\n        /* \"contracts/voting.sol\":1522:1533  candidateId */\n      dup4\n        /* \"contracts/voting.sol\":1511:1534  candidates[candidateId] */\n      dup2\n      mstore\n      0x20\n      add\n      swap1\n      dup2\n      mstore\n      0x20\n      add\n      0x00\n      keccak256\n        /* \"contracts/voting.sol\":1511:1539  candidates[candidateId].name */\n      0x01\n      add\n        /* \"contracts/voting.sol\":1511:1547  candidates[candidateId].name = _name */\n      swap1\n      dup2\n      tag_122\n      swap2\n      swap1\n      tag_76\n      jump\t// in\n    tag_122:\n      pop\n        /* \"contracts/voting.sol\":1592:1601  _proposal */\n      dup3\n        /* \"contracts/voting.sol\":1557:1567  candidates */\n      0x03\n        /* \"contracts/voting.sol\":1557:1580  candidates[candidateId] */\n      0x00\n        /* \"contracts/voting.sol\":1568:1579  candidateId */\n      dup4\n        /* \"contracts/voting.sol\":1557:1580  candidates[candidateId] */\n      dup2\n      mstore\n      0x20\n      add\n      swap1\n      dup2\n      mstore\n      0x20\n      add\n      0x00\n      keccak256\n        /* \"contracts/voting.sol\":1557:1589  candidates[candidateId].proposal */\n      0x02\n      add\n        /* \"contracts/voting.sol\":1557:1601  candidates[candidateId].proposal = _proposal */\n      swap1\n      dup2\n      tag_123\n      swap2\n      swap1\n      tag_76\n      jump\t// in\n    tag_123:\n      pop\n        /* \"contracts/voting.sol\":1642:1646  true */\n      0x01\n        /* \"contracts/voting.sol\":1611:1621  candidates */\n      0x03\n        /* \"contracts/voting.sol\":1611:1634  candidates[candidateId] */\n      0x00\n        /* \"contracts/voting.sol\":1622:1633  candidateId */\n      dup4\n        /* \"contracts/voting.sol\":1611:1634  candidates[candidateId] */\n      dup2\n      mstore\n      0x20\n      add\n      swap1\n      dup2\n      mstore\n      0x20\n      add\n      0x00\n      keccak256\n        /* \"contracts/voting.sol\":1611:1639  candidates[candidateId].flag */\n      0x03\n      add\n      0x00\n        /* \"contracts/voting.sol\":1611:1646  candidates[candidateId].flag = true */\n      0x0100\n      exp\n      dup2\n      sload\n      dup2\n      0xff\n      mul\n      not\n      and\n      swap1\n      dup4\n      iszero\n      iszero\n      mul\n      or\n      swap1\n      sstore\n      pop\n        /* \"contracts/voting.sol\":1254:1653  {... */\n      pop\n        /* \"contracts/voting.sol\":1136:1653  function addNewCandidate(string memory _name, string memory _proposal, address _contractOwner) public onlyVotingAdmin {... */\n      pop\n      pop\n      pop\n      jump\t// out\n        /* \"contracts/voting.sol\":4323:4948  function castVote(uint256 _candidateId, address _addressVoter) public {... */\n    tag_37:\n        /* \"contracts/voting.sol\":4411:4421  candidates */\n      0x03\n        /* \"contracts/voting.sol\":4411:4435  candidates[_candidateId] */\n      0x00\n        /* \"contracts/voting.sol\":4422:4434  _candidateId */\n      dup4\n        /* \"contracts/voting.sol\":4411:4435  candidates[_candidateId] */\n      dup2\n      mstore\n      0x20\n      add\n      swap1\n      dup2\n      mstore\n      0x20\n      add\n      0x00\n      keccak256\n        /* \"contracts/voting.sol\":4411:4440  candidates[_candidateId].flag */\n      0x03\n      add\n      0x00\n      swap1\n      sload\n      swap1\n      0x0100\n      exp\n      swap1\n      div\n      0xff\n      and\n        /* \"contracts/voting.sol\":4403:4477  require(candidates[_candidateId].flag, \"candidate with id does not exist\") */\n      tag_125\n      jumpi\n      mload(0x40)\n      0x08c379a000000000000000000000000000000000000000000000000000000000\n      dup2\n      mstore\n      0x04\n      add\n      tag_126\n      swap1\n      tag_127\n      jump\t// in\n    tag_126:\n      mload(0x40)\n      dup1\n      swap2\n      sub\n      swap1\n      revert\n    tag_125:\n        /* \"contracts/voting.sol\":4495:4501  voters */\n      0x04\n        /* \"contracts/voting.sol\":4495:4516  voters[_addressVoter] */\n      0x00\n        /* \"contracts/voting.sol\":4502:4515  _addressVoter */\n      dup3\n        /* \"contracts/voting.sol\":4495:4516  voters[_addressVoter] */\n      0xffffffffffffffffffffffffffffffffffffffff\n      and\n      0xffffffffffffffffffffffffffffffffffffffff\n      and\n      dup2\n      mstore\n      0x20\n      add\n      swap1\n      dup2\n      mstore\n      0x20\n      add\n      0x00\n      keccak256\n        /* \"contracts/voting.sol\":4495:4521  voters[_addressVoter].flag */\n      0x05\n      add\n      0x00\n      swap1\n      sload\n      swap1\n      0x0100\n      exp\n      swap1\n      div\n      0xff\n      and\n        /* \"contracts/voting.sol\":4487:4559  require(voters[_addressVoter].flag, \"voter with address does not exist\") */\n      tag_128\n      jumpi\n      mload(0x40)\n      0x08c379a000000000000000000000000000000000000000000000000000000000\n      dup2\n      mstore\n      0x04\n      add\n      tag_129\n      swap1\n      tag_130\n      jump\t// in\n    tag_129:\n      mload(0x40)\n      dup1\n      swap2\n      sub\n      swap1\n      revert\n    tag_128:\n        /* \"contracts/voting.sol\":4577:4583  voters */\n      0x04\n        /* \"contracts/voting.sol\":4577:4598  voters[_addressVoter] */\n      0x00\n        /* \"contracts/voting.sol\":4584:4597  _addressVoter */\n      dup3\n        /* \"contracts/voting.sol\":4577:4598  voters[_addressVoter] */\n      0xffffffffffffffffffffffffffffffffffffffff\n      and\n      0xffffffffffffffffffffffffffffffffffffffff\n      and\n      dup2\n      mstore\n      0x20\n      add\n      swap1\n      dup2\n      mstore\n      0x20\n      add\n      0x00\n      keccak256\n        /* \"contracts/voting.sol\":4577:4607  voters[_addressVoter].hasVoted */\n      0x03\n      add\n      0x14\n      swap1\n      sload\n      swap1\n      0x0100\n      exp\n      swap1\n      div\n      0xff\n      and\n        /* \"contracts/voting.sol\":4569:4631  require(voters[_addressVoter].hasVoted, \"Vote already placed\") */\n      tag_131\n      jumpi\n      mload(0x40)\n      0x08c379a000000000000000000000000000000000000000000000000000000000\n      dup2\n      mstore\n      0x04\n      add\n      tag_132\n      swap1\n      tag_133\n      jump\t// in\n    tag_132:\n      mload(0x40)\n      dup1\n      swap2\n      sub\n      swap1\n      revert\n    tag_131:\n        /* \"contracts/voting.sol\":4682:4692  msg.sender */\n      caller\n        /* \"contracts/voting.sol\":4645:4692  voters[_addressVoter].delegatedTo != msg.sender */\n      0xffffffffffffffffffffffffffffffffffffffff\n      and\n        /* \"contracts/voting.sol\":4645:4651  voters */\n      0x04\n        /* \"contracts/voting.sol\":4645:4666  voters[_addressVoter] */\n      0x00\n        /* \"contracts/voting.sol\":4652:4665  _addressVoter */\n      dup4\n        /* \"contracts/voting.sol\":4645:4666  voters[_addressVoter] */\n      0xffffffffffffffffffffffffffffffffffffffff\n      and\n      0xffffffffffffffffffffffffffffffffffffffff\n      and\n      dup2\n      mstore\n      0x20\n      add\n      swap1\n      dup2\n      mstore\n      0x20\n      add\n      0x00\n      keccak256\n        /* \"contracts/voting.sol\":4645:4678  voters[_addressVoter].delegatedTo */\n      0x03\n      add\n      0x00\n      swap1\n      sload\n      swap1\n      0x0100\n      exp\n      swap1\n      div\n      0xffffffffffffffffffffffffffffffffffffffff\n      and\n        /* \"contracts/voting.sol\":4645:4692  voters[_addressVoter].delegatedTo != msg.sender */\n      0xffffffffffffffffffffffffffffffffffffffff\n      and\n      eq\n        /* \"contracts/voting.sol\":4641:4772  if (voters[_addressVoter].delegatedTo != msg.sender){... */\n      tag_134\n      jumpi\n        /* \"contracts/voting.sol\":4727:4740  _addressVoter */\n      dup1\n        /* \"contracts/voting.sol\":4715:4740  msg.sender==_addressVoter */\n      0xffffffffffffffffffffffffffffffffffffffff\n      and\n        /* \"contracts/voting.sol\":4715:4725  msg.sender */\n      caller\n        /* \"contracts/voting.sol\":4715:4740  msg.sender==_addressVoter */\n      0xffffffffffffffffffffffffffffffffffffffff\n      and\n      eq\n        /* \"contracts/voting.sol\":4707:4761  require(msg.sender==_addressVoter, \"you can not vote\") */\n      tag_135\n      jumpi\n      mload(0x40)\n      0x08c379a000000000000000000000000000000000000000000000000000000000\n      dup2\n      mstore\n      0x04\n      add\n      tag_136\n      swap1\n      tag_137\n      jump\t// in\n    tag_136:\n      mload(0x40)\n      dup1\n      swap2\n      sub\n      swap1\n      revert\n    tag_135:\n        /* \"contracts/voting.sol\":4641:4772  if (voters[_addressVoter].delegatedTo != msg.sender){... */\n    tag_134:\n        /* \"contracts/voting.sol\":4836:4837  1 */\n      0x01\n        /* \"contracts/voting.sol\":4809:4819  voteCounts */\n      0x05\n        /* \"contracts/voting.sol\":4809:4833  voteCounts[_candidateId] */\n      0x00\n        /* \"contracts/voting.sol\":4820:4832  _candidateId */\n      dup5\n        /* \"contracts/voting.sol\":4809:4833  voteCounts[_candidateId] */\n      dup2\n      mstore\n      0x20\n      add\n      swap1\n      dup2\n      mstore\n      0x20\n      add\n      0x00\n      keccak256\n      sload\n        /* \"contracts/voting.sol\":4809:4837  voteCounts[_candidateId] + 1 */\n      tag_138\n      swap2\n      swap1\n      tag_139\n      jump\t// in\n    tag_138:\n        /* \"contracts/voting.sol\":4781:4791  voteCounts */\n      0x05\n        /* \"contracts/voting.sol\":4781:4805  voteCounts[_candidateId] */\n      0x00\n        /* \"contracts/voting.sol\":4792:4804  _candidateId */\n      dup5\n        /* \"contracts/voting.sol\":4781:4805  voteCounts[_candidateId] */\n      dup2\n      mstore\n      0x20\n      add\n      swap1\n      dup2\n      mstore\n      0x20\n      add\n      0x00\n      keccak256\n        /* \"contracts/voting.sol\":4781:4837  voteCounts[_candidateId] =  voteCounts[_candidateId] + 1 */\n      dup2\n      swap1\n      sstore\n      pop\n        /* \"contracts/voting.sol\":4882:4894  _candidateId */\n      dup2\n        /* \"contracts/voting.sol\":4847:4853  voters */\n      0x04\n        /* \"contracts/voting.sol\":4847:4868  voters[_addressVoter] */\n      0x00\n        /* \"contracts/voting.sol\":4854:4867  _addressVoter */\n      dup4\n        /* \"contracts/voting.sol\":4847:4868  voters[_addressVoter] */\n      0xffffffffffffffffffffffffffffffffffffffff\n      and\n      0xffffffffffffffffffffffffffffffffffffffff\n      and\n      dup2\n      mstore\n      0x20\n      add\n      swap1\n      dup2\n      mstore\n      0x20\n      add\n      0x00\n      keccak256\n        /* \"contracts/voting.sol\":4847:4879  voters[_addressVoter].cadidateId */\n      0x04\n      add\n        /* \"contracts/voting.sol\":4847:4894  voters[_addressVoter].cadidateId = _candidateId */\n      dup2\n      swap1\n      sstore\n      pop\n        /* \"contracts/voting.sol\":4937:4941  true */\n      0x01\n        /* \"contracts/voting.sol\":4904:4910  voters */\n      0x04\n        /* \"contracts/voting.sol\":4904:4925  voters[_addressVoter] */\n      0x00\n        /* \"contracts/voting.sol\":4911:4924  _addressVoter */\n      dup4\n        /* \"contracts/voting.sol\":4904:4925  voters[_addressVoter] */\n      0xffffffffffffffffffffffffffffffffffffffff\n      and\n      0xffffffffffffffffffffffffffffffffffffffff\n      and\n      dup2\n      mstore\n      0x20\n      add\n      swap1\n      dup2\n      mstore\n      0x20\n      add\n      0x00\n      keccak256\n        /* \"contracts/voting.sol\":4904:4934  voters[_addressVoter].hasVoted */\n      0x03\n      add\n      0x14\n        /* \"contracts/voting.sol\":4904:4941  voters[_addressVoter].hasVoted = true */\n      0x0100\n      exp\n      dup2\n      sload\n      dup2\n      0xff\n      mul\n      not\n      and\n      swap1\n      dup4\n      iszero\n      iszero\n      mul\n      or\n      swap1\n      sstore\n      pop\n        /* \"contracts/voting.sol\":4323:4948  function castVote(uint256 _candidateId, address _addressVoter) public {... */\n      pop\n      pop\n      jump\t// out\n        /* \"contracts/voting.sol\":3043:3408  function displayCandidateDetails(uint256 _candidateId) public view ... */\n    tag_40:\n        /* \"contracts/voting.sol\":3141:3160  uint256 candidateId */\n      0x00\n        /* \"contracts/voting.sol\":3174:3196  string memory proposal */\n      0x60\n        /* \"contracts/voting.sol\":3210:3228  string memory name */\n      dup1\n        /* \"contracts/voting.sol\":3274:3284  candidates */\n      0x03\n        /* \"contracts/voting.sol\":3274:3298  candidates[_candidateId] */\n      0x00\n        /* \"contracts/voting.sol\":3285:3297  _candidateId */\n      dup6\n        /* \"contracts/voting.sol\":3274:3298  candidates[_candidateId] */\n      dup2\n      mstore\n      0x20\n      add\n      swap1\n      dup2\n      mstore\n      0x20\n      add\n      0x00\n      keccak256\n        /* \"contracts/voting.sol\":3274:3301  candidates[_candidateId].id */\n      0x00\n      add\n      sload\n        /* \"contracts/voting.sol\":3315:3325  candidates */\n      0x03\n        /* \"contracts/voting.sol\":3315:3339  candidates[_candidateId] */\n      0x00\n        /* \"contracts/voting.sol\":3326:3338  _candidateId */\n      dup7\n        /* \"contracts/voting.sol\":3315:3339  candidates[_candidateId] */\n      dup2\n      mstore\n      0x20\n      add\n      swap1\n      dup2\n      mstore\n      0x20\n      add\n      0x00\n      keccak256\n        /* \"contracts/voting.sol\":3315:3348  candidates[_candidateId].proposal */\n      0x02\n      add\n        /* \"contracts/voting.sol\":3362:3372  candidates */\n      0x03\n        /* \"contracts/voting.sol\":3362:3386  candidates[_candidateId] */\n      0x00\n        /* \"contracts/voting.sol\":3373:3385  _candidateId */\n      dup8\n        /* \"contracts/voting.sol\":3362:3386  candidates[_candidateId] */\n      dup2\n      mstore\n      0x20\n      add\n      swap1\n      dup2\n      mstore\n      0x20\n      add\n      0x00\n      keccak256\n        /* \"contracts/voting.sol\":3362:3391  candidates[_candidateId].name */\n      0x01\n      add\n        /* \"contracts/voting.sol\":3253:3401  return (... */\n      dup2\n      dup1\n      sload\n      tag_141\n      swap1\n      tag_93\n      jump\t// in\n    tag_141:\n      dup1\n      0x1f\n      add\n      0x20\n      dup1\n      swap2\n      div\n      mul\n      0x20\n      add\n      mload(0x40)\n      swap1\n      dup2\n      add\n      0x40\n      mstore\n      dup1\n      swap3\n      swap2\n      swap1\n      dup2\n      dup2\n      mstore\n      0x20\n      add\n      dup3\n      dup1\n      sload\n      tag_142\n      swap1\n      tag_93\n      jump\t// in\n    tag_142:\n      dup1\n      iszero\n      tag_143\n      jumpi\n      dup1\n      0x1f\n      lt\n      tag_144\n      jumpi\n      0x0100\n      dup1\n      dup4\n      sload\n      div\n      mul\n      dup4\n      mstore\n      swap2\n      0x20\n      add\n      swap2\n      jump(tag_143)\n    tag_144:\n      dup3\n      add\n      swap2\n      swap1\n      0x00\n      mstore\n      keccak256(0x00, 0x20)\n      swap1\n    tag_145:\n      dup2\n      sload\n      dup2\n      mstore\n      swap1\n      0x01\n      add\n      swap1\n      0x20\n      add\n      dup1\n      dup4\n      gt\n      tag_145\n      jumpi\n      dup3\n      swap1\n      sub\n      0x1f\n      and\n      dup3\n      add\n      swap2\n    tag_143:\n      pop\n      pop\n      pop\n      pop\n      pop\n      swap2\n      pop\n      dup1\n      dup1\n      sload\n      tag_146\n      swap1\n      tag_93\n      jump\t// in\n    tag_146:\n      dup1\n      0x1f\n      add\n      0x20\n      dup1\n      swap2\n      div\n      mul\n      0x20\n      add\n      mload(0x40)\n      swap1\n      dup2\n      add\n      0x40\n      mstore\n      dup1\n      swap3\n      swap2\n      swap1\n      dup2\n      dup2\n      mstore\n      0x20\n      add\n      dup3\n      dup1\n      sload\n      tag_147\n      swap1\n      tag_93\n      jump\t// in\n    tag_147:\n      dup1\n      iszero\n      tag_148\n      jumpi\n      dup1\n      0x1f\n      lt\n      tag_149\n      jumpi\n      0x0100\n      dup1\n      dup4\n      sload\n      div\n      mul\n      dup4\n      mstore\n      swap2\n      0x20\n      add\n      swap2\n      jump(tag_148)\n    tag_149:\n      dup3\n      add\n      swap2\n      swap1\n      0x00\n      mstore\n      keccak256(0x00, 0x20)\n      swap1\n    tag_150:\n      dup2\n      sload\n      dup2\n      mstore\n      swap1\n      0x01\n      add\n      swap1\n      0x20\n      add\n      dup1\n      dup4\n      gt\n      tag_150\n      jumpi\n      dup3\n      swap1\n      sub\n      0x1f\n      and\n      dup3\n      add\n      swap2\n    tag_148:\n      pop\n      pop\n      pop\n      pop\n      pop\n      swap1\n      pop\n      swap3\n      pop\n      swap3\n      pop\n      swap3\n      pop\n        /* \"contracts/voting.sol\":3043:3408  function displayCandidateDetails(uint256 _candidateId) public view ... */\n      swap2\n      swap4\n      swap1\n      swap3\n      pop\n      jump\t// out\n        /* \"contracts/voting.sol\":151:177  address public votingAdmin */\n    tag_44:\n      0x00\n      dup1\n      sload\n      swap1\n      0x0100\n      exp\n      swap1\n      div\n      0xffffffffffffffffffffffffffffffffffffffff\n      and\n      dup2\n      jump\t// out\n        /* \"contracts/voting.sol\":2405:2993  function startElection(address _contractOwner) public onlyVotingAdmin{... */\n    tag_50:\n        /* \"contracts/voting.sol\":302:313  votingAdmin */\n      0x00\n      dup1\n      sload\n      swap1\n      0x0100\n      exp\n      swap1\n      div\n      0xffffffffffffffffffffffffffffffffffffffff\n      and\n        /* \"contracts/voting.sol\":288:313  msg.sender == votingAdmin */\n      0xffffffffffffffffffffffffffffffffffffffff\n      and\n        /* \"contracts/voting.sol\":288:298  msg.sender */\n      caller\n        /* \"contracts/voting.sol\":288:313  msg.sender == votingAdmin */\n      0xffffffffffffffffffffffffffffffffffffffff\n      and\n      eq\n        /* \"contracts/voting.sol\":280:314  require(msg.sender == votingAdmin) */\n      tag_152\n      jumpi\n      0x00\n      dup1\n      revert\n    tag_152:\n        /* \"contracts/voting.sol\":2510:2521  votingAdmin */\n      0x00\n      dup1\n      sload\n      swap1\n      0x0100\n      exp\n      swap1\n      div\n      0xffffffffffffffffffffffffffffffffffffffff\n      and\n        /* \"contracts/voting.sol\":2492:2521  _contractOwner == votingAdmin */\n      0xffffffffffffffffffffffffffffffffffffffff\n      and\n        /* \"contracts/voting.sol\":2492:2506  _contractOwner */\n      dup2\n        /* \"contracts/voting.sol\":2492:2521  _contractOwner == votingAdmin */\n      0xffffffffffffffffffffffffffffffffffffffff\n      and\n      eq\n        /* \"contracts/voting.sol\":2484:2559  require(_contractOwner == votingAdmin, \"Only admin has access to do this.\") */\n      tag_154\n      jumpi\n      mload(0x40)\n      0x08c379a000000000000000000000000000000000000000000000000000000000\n      dup2\n      mstore\n      0x04\n      add\n      tag_155\n      swap1\n      tag_61\n      jump\t// in\n    tag_155:\n      mload(0x40)\n      dup1\n      swap2\n      sub\n      swap1\n      revert\n    tag_154:\n        /* \"contracts/voting.sol\":2592:2593  0 */\n      0x00\n        /* \"contracts/voting.sol\":2577:2591  candidateCount */\n      sload(0x01)\n        /* \"contracts/voting.sol\":2577:2593  candidateCount>0 */\n      gt\n        /* \"contracts/voting.sol\":2569:2621  require(candidateCount>0, \"0 candidates registered\") */\n      tag_156\n      jumpi\n      mload(0x40)\n      0x08c379a000000000000000000000000000000000000000000000000000000000\n      dup2\n      mstore\n      0x04\n      add\n      tag_157\n      swap1\n      tag_158\n      jump\t// in\n    tag_157:\n      mload(0x40)\n      dup1\n      swap2\n      sub\n      swap1\n      revert\n    tag_156:\n        /* \"contracts/voting.sol\":2650:2651  0 */\n      0x00\n        /* \"contracts/voting.sol\":2639:2649  voterCount */\n      sload(0x02)\n        /* \"contracts/voting.sol\":2639:2651  voterCount>0 */\n      gt\n        /* \"contracts/voting.sol\":2631:2675  require(voterCount>0, \"0 voters registered\") */\n      tag_159\n      jumpi\n      mload(0x40)\n      0x08c379a000000000000000000000000000000000000000000000000000000000\n      dup2\n      mstore\n      0x04\n      add\n      tag_160\n      swap1\n      tag_161\n      jump\t// in\n    tag_160:\n      mload(0x40)\n      dup1\n      swap2\n      sub\n      swap1\n      revert\n    tag_159:\n        /* \"contracts/voting.sol\":2696:2716  VotingStatus.ONGOING */\n      0x01\n        /* \"contracts/voting.sol\":2688:2716  status==VotingStatus.ONGOING */\n      0x02\n      dup2\n      gt\n      iszero\n      tag_162\n      jumpi\n      tag_163\n      tag_64\n      jump\t// in\n    tag_163:\n    tag_162:\n        /* \"contracts/voting.sol\":2688:2694  status */\n      0x00\n      0x14\n      swap1\n      sload\n      swap1\n      0x0100\n      exp\n      swap1\n      div\n      0xff\n      and\n        /* \"contracts/voting.sol\":2688:2716  status==VotingStatus.ONGOING */\n      0x02\n      dup2\n      gt\n      iszero\n      tag_164\n      jumpi\n      tag_165\n      tag_64\n      jump\t// in\n    tag_165:\n    tag_164:\n      sub\n        /* \"contracts/voting.sol\":2685:2950  if(status==VotingStatus.ONGOING){... */\n      tag_166\n      jumpi\n        /* \"contracts/voting.sol\":2767:2773  status */\n      0x00\n      0x14\n      swap1\n      sload\n      swap1\n      0x0100\n      exp\n      swap1\n      div\n      0xff\n      and\n        /* \"contracts/voting.sol\":2738:2802  CanNotStartElection({status: status, message: \"Voting ongoing\"}) */\n      mload(0x40)\n      0xef90b1c100000000000000000000000000000000000000000000000000000000\n      dup2\n      mstore\n      0x04\n      add\n      tag_167\n      swap2\n      swap1\n      tag_168\n      jump\t// in\n    tag_167:\n      mload(0x40)\n      dup1\n      swap2\n      sub\n      swap1\n      revert\n        /* \"contracts/voting.sol\":2685:2950  if(status==VotingStatus.ONGOING){... */\n    tag_166:\n        /* \"contracts/voting.sol\":2829:2851  VotingStatus.COMPLETED */\n      0x02\n        /* \"contracts/voting.sol\":2821:2851  status==VotingStatus.COMPLETED */\n      dup1\n      dup2\n      gt\n      iszero\n      tag_170\n      jumpi\n      tag_171\n      tag_64\n      jump\t// in\n    tag_171:\n    tag_170:\n        /* \"contracts/voting.sol\":2821:2827  status */\n      0x00\n      0x14\n      swap1\n      sload\n      swap1\n      0x0100\n      exp\n      swap1\n      div\n      0xff\n      and\n        /* \"contracts/voting.sol\":2821:2851  status==VotingStatus.COMPLETED */\n      0x02\n      dup2\n      gt\n      iszero\n      tag_172\n      jumpi\n      tag_173\n      tag_64\n      jump\t// in\n    tag_173:\n    tag_172:\n      sub\n        /* \"contracts/voting.sol\":2818:2950  if(status==VotingStatus.COMPLETED){... */\n      tag_174\n      jumpi\n        /* \"contracts/voting.sol\":2902:2908  status */\n      0x00\n      0x14\n      swap1\n      sload\n      swap1\n      0x0100\n      exp\n      swap1\n      div\n      0xff\n      and\n        /* \"contracts/voting.sol\":2873:2939  CanNotStartElection({status: status, message: \"Voting completed\"}) */\n      mload(0x40)\n      0xef90b1c100000000000000000000000000000000000000000000000000000000\n      dup2\n      mstore\n      0x04\n      add\n      tag_175\n      swap2\n      swap1\n      tag_176\n      jump\t// in\n    tag_175:\n      mload(0x40)\n      dup1\n      swap2\n      sub\n      swap1\n      revert\n        /* \"contracts/voting.sol\":2818:2950  if(status==VotingStatus.COMPLETED){... */\n    tag_174:\n        /* \"contracts/voting.sol\":2966:2986  VotingStatus.ONGOING */\n      0x01\n        /* \"contracts/voting.sol\":2959:2965  status */\n      0x00\n      0x14\n        /* \"contracts/voting.sol\":2959:2986  status=VotingStatus.ONGOING */\n      0x0100\n      exp\n      dup2\n      sload\n      dup2\n      0xff\n      mul\n      not\n      and\n      swap1\n      dup4\n      0x02\n      dup2\n      gt\n      iszero\n      tag_177\n      jumpi\n      tag_178\n      tag_64\n      jump\t// in\n    tag_178:\n    tag_177:\n      mul\n      or\n      swap1\n      sstore\n      pop\n        /* \"contracts/voting.sol\":2405:2993  function startElection(address _contractOwner) public onlyVotingAdmin{... */\n      pop\n      jump\t// out\n        /* \"contracts/voting.sol\":5580:5963  function viewVoterDetails(address _addressVoter) public view returns (... */\n    tag_53:\n        /* \"contracts/voting.sol\":5663:5683  address addressVoter */\n      0x00\n        /* \"contracts/voting.sol\":5697:5715  string memory name */\n      0x60\n        /* \"contracts/voting.sol\":5729:5749  bool isVoteDelegated */\n      0x00\n        /* \"contracts/voting.sol\":5794:5800  voters */\n      0x04\n        /* \"contracts/voting.sol\":5794:5815  voters[_addressVoter] */\n      0x00\n        /* \"contracts/voting.sol\":5801:5814  _addressVoter */\n      dup6\n        /* \"contracts/voting.sol\":5794:5815  voters[_addressVoter] */\n      0xffffffffffffffffffffffffffffffffffffffff\n      and\n      0xffffffffffffffffffffffffffffffffffffffff\n      and\n      dup2\n      mstore\n      0x20\n      add\n      swap1\n      dup2\n      mstore\n      0x20\n      add\n      0x00\n      keccak256\n        /* \"contracts/voting.sol\":5794:5828  voters[_addressVoter].addressVoter */\n      0x02\n      add\n      0x00\n      swap1\n      sload\n      swap1\n      0x0100\n      exp\n      swap1\n      div\n      0xffffffffffffffffffffffffffffffffffffffff\n      and\n        /* \"contracts/voting.sol\":5842:5848  voters */\n      0x04\n        /* \"contracts/voting.sol\":5842:5863  voters[_addressVoter] */\n      0x00\n        /* \"contracts/voting.sol\":5849:5862  _addressVoter */\n      dup7\n        /* \"contracts/voting.sol\":5842:5863  voters[_addressVoter] */\n      0xffffffffffffffffffffffffffffffffffffffff\n      and\n      0xffffffffffffffffffffffffffffffffffffffff\n      and\n      dup2\n      mstore\n      0x20\n      add\n      swap1\n      dup2\n      mstore\n      0x20\n      add\n      0x00\n      keccak256\n        /* \"contracts/voting.sol\":5842:5868  voters[_addressVoter].name */\n      0x01\n      add\n        /* \"contracts/voting.sol\":5919:5931  addressVoter */\n      dup5\n        /* \"contracts/voting.sol\":5882:5931  voters[_addressVoter].delegatedTo == addressVoter */\n      0xffffffffffffffffffffffffffffffffffffffff\n      and\n        /* \"contracts/voting.sol\":5882:5888  voters */\n      0x04\n        /* \"contracts/voting.sol\":5882:5903  voters[_addressVoter] */\n      0x00\n        /* \"contracts/voting.sol\":5889:5902  _addressVoter */\n      dup9\n        /* \"contracts/voting.sol\":5882:5903  voters[_addressVoter] */\n      0xffffffffffffffffffffffffffffffffffffffff\n      and\n      0xffffffffffffffffffffffffffffffffffffffff\n      and\n      dup2\n      mstore\n      0x20\n      add\n      swap1\n      dup2\n      mstore\n      0x20\n      add\n      0x00\n      keccak256\n        /* \"contracts/voting.sol\":5882:5915  voters[_addressVoter].delegatedTo */\n      0x03\n      add\n      0x00\n      swap1\n      sload\n      swap1\n      0x0100\n      exp\n      swap1\n      div\n      0xffffffffffffffffffffffffffffffffffffffff\n      and\n        /* \"contracts/voting.sol\":5882:5931  voters[_addressVoter].delegatedTo == addressVoter */\n      0xffffffffffffffffffffffffffffffffffffffff\n      and\n      eq\n        /* \"contracts/voting.sol\":5882:5946  voters[_addressVoter].delegatedTo == addressVoter ? false : true */\n      tag_180\n      jumpi\n        /* \"contracts/voting.sol\":5942:5946  true */\n      0x01\n        /* \"contracts/voting.sol\":5882:5946  voters[_addressVoter].delegatedTo == addressVoter ? false : true */\n      jump(tag_181)\n    tag_180:\n        /* \"contracts/voting.sol\":5934:5939  false */\n      0x00\n        /* \"contracts/voting.sol\":5882:5946  voters[_addressVoter].delegatedTo == addressVoter ? false : true */\n    tag_181:\n        /* \"contracts/voting.sol\":5774:5956  return(... */\n      dup2\n      dup1\n      sload\n      tag_182\n      swap1\n      tag_93\n      jump\t// in\n    tag_182:\n      dup1\n      0x1f\n      add\n      0x20\n      dup1\n      swap2\n      div\n      mul\n      0x20\n      add\n      mload(0x40)\n      swap1\n      dup2\n      add\n      0x40\n      mstore\n      dup1\n      swap3\n      swap2\n      swap1\n      dup2\n      dup2\n      mstore\n      0x20\n      add\n      dup3\n      dup1\n      sload\n      tag_183\n      swap1\n      tag_93\n      jump\t// in\n    tag_183:\n      dup1\n      iszero\n      tag_184\n      jumpi\n      dup1\n      0x1f\n      lt\n      tag_185\n      jumpi\n      0x0100\n      dup1\n      dup4\n      sload\n      div\n      mul\n      dup4\n      mstore\n      swap2\n      0x20\n      add\n      swap2\n      jump(tag_184)\n    tag_185:\n      dup3\n      add\n      swap2\n      swap1\n      0x00\n      mstore\n      keccak256(0x00, 0x20)\n      swap1\n    tag_186:\n      dup2\n      sload\n      dup2\n      mstore\n      swap1\n      0x01\n      add\n      swap1\n      0x20\n      add\n      dup1\n      dup4\n      gt\n      tag_186\n      jumpi\n      dup3\n      swap1\n      sub\n      0x1f\n      and\n      dup3\n      add\n      swap2\n    tag_184:\n      pop\n      pop\n      pop\n      pop\n      pop\n      swap2\n      pop\n      swap3\n      pop\n      swap3\n      pop\n      swap3\n      pop\n        /* \"contracts/voting.sol\":5580:5963  function viewVoterDetails(address _addressVoter) public view returns (... */\n      swap2\n      swap4\n      swap1\n      swap3\n      pop\n      jump\t// out\n        /* \"#utility.yul\":7:82   */\n    tag_187:\n        /* \"#utility.yul\":40:46   */\n      0x00\n        /* \"#utility.yul\":73:75   */\n      0x40\n        /* \"#utility.yul\":67:76   */\n      mload\n        /* \"#utility.yul\":57:76   */\n      swap1\n      pop\n        /* \"#utility.yul\":7:82   */\n      swap1\n      jump\t// out\n        /* \"#utility.yul\":88:205   */\n    tag_188:\n        /* \"#utility.yul\":197:198   */\n      0x00\n        /* \"#utility.yul\":194:195   */\n      dup1\n        /* \"#utility.yul\":187:199   */\n      revert\n        /* \"#utility.yul\":211:328   */\n    tag_189:\n        /* \"#utility.yul\":320:321   */\n      0x00\n        /* \"#utility.yul\":317:318   */\n      dup1\n        /* \"#utility.yul\":310:322   */\n      revert\n        /* \"#utility.yul\":334:460   */\n    tag_190:\n        /* \"#utility.yul\":371:378   */\n      0x00\n        /* \"#utility.yul\":411:453   */\n      0xffffffffffffffffffffffffffffffffffffffff\n        /* \"#utility.yul\":404:409   */\n      dup3\n        /* \"#utility.yul\":400:454   */\n      and\n        /* \"#utility.yul\":389:454   */\n      swap1\n      pop\n        /* \"#utility.yul\":334:460   */\n      swap2\n      swap1\n      pop\n      jump\t// out\n        /* \"#utility.yul\":466:562   */\n    tag_191:\n        /* \"#utility.yul\":503:510   */\n      0x00\n        /* \"#utility.yul\":532:556   */\n      tag_272\n        /* \"#utility.yul\":550:555   */\n      dup3\n        /* \"#utility.yul\":532:556   */\n      tag_190\n      jump\t// in\n    tag_272:\n        /* \"#utility.yul\":521:556   */\n      swap1\n      pop\n        /* \"#utility.yul\":466:562   */\n      swap2\n      swap1\n      pop\n      jump\t// out\n        /* \"#utility.yul\":568:690   */\n    tag_192:\n        /* \"#utility.yul\":641:665   */\n      tag_274\n        /* \"#utility.yul\":659:664   */\n      dup2\n        /* \"#utility.yul\":641:665   */\n      tag_191\n      jump\t// in\n    tag_274:\n        /* \"#utility.yul\":634:639   */\n      dup2\n        /* \"#utility.yul\":631:666   */\n      eq\n        /* \"#utility.yul\":621:684   */\n      tag_275\n      jumpi\n        /* \"#utility.yul\":680:681   */\n      0x00\n        /* \"#utility.yul\":677:678   */\n      dup1\n        /* \"#utility.yul\":670:682   */\n      revert\n        /* \"#utility.yul\":621:684   */\n    tag_275:\n        /* \"#utility.yul\":568:690   */\n      pop\n      jump\t// out\n        /* \"#utility.yul\":696:835   */\n    tag_193:\n        /* \"#utility.yul\":742:747   */\n      0x00\n        /* \"#utility.yul\":780:786   */\n      dup2\n        /* \"#utility.yul\":767:787   */\n      calldataload\n        /* \"#utility.yul\":758:787   */\n      swap1\n      pop\n        /* \"#utility.yul\":796:829   */\n      tag_277\n        /* \"#utility.yul\":823:828   */\n      dup2\n        /* \"#utility.yul\":796:829   */\n      tag_192\n      jump\t// in\n    tag_277:\n        /* \"#utility.yul\":696:835   */\n      swap3\n      swap2\n      pop\n      pop\n      jump\t// out\n        /* \"#utility.yul\":841:958   */\n    tag_194:\n        /* \"#utility.yul\":950:951   */\n      0x00\n        /* \"#utility.yul\":947:948   */\n      dup1\n        /* \"#utility.yul\":940:952   */\n      revert\n        /* \"#utility.yul\":964:1081   */\n    tag_195:\n        /* \"#utility.yul\":1073:1074   */\n      0x00\n        /* \"#utility.yul\":1070:1071   */\n      dup1\n        /* \"#utility.yul\":1063:1075   */\n      revert\n        /* \"#utility.yul\":1087:1189   */\n    tag_196:\n        /* \"#utility.yul\":1128:1134   */\n      0x00\n        /* \"#utility.yul\":1179:1181   */\n      0x1f\n        /* \"#utility.yul\":1175:1182   */\n      not\n        /* \"#utility.yul\":1170:1172   */\n      0x1f\n        /* \"#utility.yul\":1163:1168   */\n      dup4\n        /* \"#utility.yul\":1159:1173   */\n      add\n        /* \"#utility.yul\":1155:1183   */\n      and\n        /* \"#utility.yul\":1145:1183   */\n      swap1\n      pop\n        /* \"#utility.yul\":1087:1189   */\n      swap2\n      swap1\n      pop\n      jump\t// out\n        /* \"#utility.yul\":1195:1375   */\n    tag_197:\n        /* \"#utility.yul\":1243:1320   */\n      0x4e487b7100000000000000000000000000000000000000000000000000000000\n        /* \"#utility.yul\":1240:1241   */\n      0x00\n        /* \"#utility.yul\":1233:1321   */\n      mstore\n        /* \"#utility.yul\":1340:1344   */\n      0x41\n        /* \"#utility.yul\":1337:1338   */\n      0x04\n        /* \"#utility.yul\":1330:1345   */\n      mstore\n        /* \"#utility.yul\":1364:1368   */\n      0x24\n        /* \"#utility.yul\":1361:1362   */\n      0x00\n        /* \"#utility.yul\":1354:1369   */\n      revert\n        /* \"#utility.yul\":1381:1662   */\n    tag_198:\n        /* \"#utility.yul\":1464:1491   */\n      tag_283\n        /* \"#utility.yul\":1486:1490   */\n      dup3\n        /* \"#utility.yul\":1464:1491   */\n      tag_196\n      jump\t// in\n    tag_283:\n        /* \"#utility.yul\":1456:1462   */\n      dup2\n        /* \"#utility.yul\":1452:1492   */\n      add\n        /* \"#utility.yul\":1594:1600   */\n      dup2\n        /* \"#utility.yul\":1582:1592   */\n      dup2\n        /* \"#utility.yul\":1579:1601   */\n      lt\n        /* \"#utility.yul\":1558:1576   */\n      0xffffffffffffffff\n        /* \"#utility.yul\":1546:1556   */\n      dup3\n        /* \"#utility.yul\":1543:1577   */\n      gt\n        /* \"#utility.yul\":1540:1602   */\n      or\n        /* \"#utility.yul\":1537:1625   */\n      iszero\n      tag_284\n      jumpi\n        /* \"#utility.yul\":1605:1623   */\n      tag_285\n      tag_197\n      jump\t// in\n    tag_285:\n        /* \"#utility.yul\":1537:1625   */\n    tag_284:\n        /* \"#utility.yul\":1645:1655   */\n      dup1\n        /* \"#utility.yul\":1641:1643   */\n      0x40\n        /* \"#utility.yul\":1634:1656   */\n      mstore\n        /* \"#utility.yul\":1424:1662   */\n      pop\n        /* \"#utility.yul\":1381:1662   */\n      pop\n      pop\n      jump\t// out\n        /* \"#utility.yul\":1668:1797   */\n    tag_199:\n        /* \"#utility.yul\":1702:1708   */\n      0x00\n        /* \"#utility.yul\":1729:1749   */\n      tag_287\n      tag_187\n      jump\t// in\n    tag_287:\n        /* \"#utility.yul\":1719:1749   */\n      swap1\n      pop\n        /* \"#utility.yul\":1758:1791   */\n      tag_288\n        /* \"#utility.yul\":1786:1790   */\n      dup3\n        /* \"#utility.yul\":1778:1784   */\n      dup3\n        /* \"#utility.yul\":1758:1791   */\n      tag_198\n      jump\t// in\n    tag_288:\n        /* \"#utility.yul\":1668:1797   */\n      swap2\n      swap1\n      pop\n      jump\t// out\n        /* \"#utility.yul\":1803:2111   */\n    tag_200:\n        /* \"#utility.yul\":1865:1869   */\n      0x00\n        /* \"#utility.yul\":1955:1973   */\n      0xffffffffffffffff\n        /* \"#utility.yul\":1947:1953   */\n      dup3\n        /* \"#utility.yul\":1944:1974   */\n      gt\n        /* \"#utility.yul\":1941:1997   */\n      iszero\n      tag_290\n      jumpi\n        /* \"#utility.yul\":1977:1995   */\n      tag_291\n      tag_197\n      jump\t// in\n    tag_291:\n        /* \"#utility.yul\":1941:1997   */\n    tag_290:\n        /* \"#utility.yul\":2015:2044   */\n      tag_292\n        /* \"#utility.yul\":2037:2043   */\n      dup3\n        /* \"#utility.yul\":2015:2044   */\n      tag_196\n      jump\t// in\n    tag_292:\n        /* \"#utility.yul\":2007:2044   */\n      swap1\n      pop\n        /* \"#utility.yul\":2099:2103   */\n      0x20\n        /* \"#utility.yul\":2093:2097   */\n      dup2\n        /* \"#utility.yul\":2089:2104   */\n      add\n        /* \"#utility.yul\":2081:2104   */\n      swap1\n      pop\n        /* \"#utility.yul\":1803:2111   */\n      swap2\n      swap1\n      pop\n      jump\t// out\n        /* \"#utility.yul\":2117:2263   */\n    tag_201:\n        /* \"#utility.yul\":2214:2220   */\n      dup3\n        /* \"#utility.yul\":2209:2212   */\n      dup2\n        /* \"#utility.yul\":2204:2207   */\n      dup4\n        /* \"#utility.yul\":2191:2221   */\n      calldatacopy\n        /* \"#utility.yul\":2255:2256   */\n      0x00\n        /* \"#utility.yul\":2246:2252   */\n      dup4\n        /* \"#utility.yul\":2241:2244   */\n      dup4\n        /* \"#utility.yul\":2237:2253   */\n      add\n        /* \"#utility.yul\":2230:2257   */\n      mstore\n        /* \"#utility.yul\":2117:2263   */\n      pop\n      pop\n      pop\n      jump\t// out\n        /* \"#utility.yul\":2269:2694   */\n    tag_202:\n        /* \"#utility.yul\":2347:2352   */\n      0x00\n        /* \"#utility.yul\":2372:2438   */\n      tag_295\n        /* \"#utility.yul\":2388:2437   */\n      tag_296\n        /* \"#utility.yul\":2430:2436   */\n      dup5\n        /* \"#utility.yul\":2388:2437   */\n      tag_200\n      jump\t// in\n    tag_296:\n        /* \"#utility.yul\":2372:2438   */\n      tag_199\n      jump\t// in\n    tag_295:\n        /* \"#utility.yul\":2363:2438   */\n      swap1\n      pop\n        /* \"#utility.yul\":2461:2467   */\n      dup3\n        /* \"#utility.yul\":2454:2459   */\n      dup2\n        /* \"#utility.yul\":2447:2468   */\n      mstore\n        /* \"#utility.yul\":2499:2503   */\n      0x20\n        /* \"#utility.yul\":2492:2497   */\n      dup2\n        /* \"#utility.yul\":2488:2504   */\n      add\n        /* \"#utility.yul\":2537:2540   */\n      dup5\n        /* \"#utility.yul\":2528:2534   */\n      dup5\n        /* \"#utility.yul\":2523:2526   */\n      dup5\n        /* \"#utility.yul\":2519:2535   */\n      add\n        /* \"#utility.yul\":2516:2541   */\n      gt\n        /* \"#utility.yul\":2513:2625   */\n      iszero\n      tag_297\n      jumpi\n        /* \"#utility.yul\":2544:2623   */\n      tag_298\n      tag_195\n      jump\t// in\n    tag_298:\n        /* \"#utility.yul\":2513:2625   */\n    tag_297:\n        /* \"#utility.yul\":2634:2688   */\n      tag_299\n        /* \"#utility.yul\":2681:2687   */\n      dup5\n        /* \"#utility.yul\":2676:2679   */\n      dup3\n        /* \"#utility.yul\":2671:2674   */\n      dup6\n        /* \"#utility.yul\":2634:2688   */\n      tag_201\n      jump\t// in\n    tag_299:\n        /* \"#utility.yul\":2353:2694   */\n      pop\n        /* \"#utility.yul\":2269:2694   */\n      swap4\n      swap3\n      pop\n      pop\n      pop\n      jump\t// out\n        /* \"#utility.yul\":2714:3054   */\n    tag_203:\n        /* \"#utility.yul\":2770:2775   */\n      0x00\n        /* \"#utility.yul\":2819:2822   */\n      dup3\n        /* \"#utility.yul\":2812:2816   */\n      0x1f\n        /* \"#utility.yul\":2804:2810   */\n      dup4\n        /* \"#utility.yul\":2800:2817   */\n      add\n        /* \"#utility.yul\":2796:2823   */\n      slt\n        /* \"#utility.yul\":2786:2908   */\n      tag_301\n      jumpi\n        /* \"#utility.yul\":2827:2906   */\n      tag_302\n      tag_194\n      jump\t// in\n    tag_302:\n        /* \"#utility.yul\":2786:2908   */\n    tag_301:\n        /* \"#utility.yul\":2944:2950   */\n      dup2\n        /* \"#utility.yul\":2931:2951   */\n      calldataload\n        /* \"#utility.yul\":2969:3048   */\n      tag_303\n        /* \"#utility.yul\":3044:3047   */\n      dup5\n        /* \"#utility.yul\":3036:3042   */\n      dup3\n        /* \"#utility.yul\":3029:3033   */\n      0x20\n        /* \"#utility.yul\":3021:3027   */\n      dup7\n        /* \"#utility.yul\":3017:3034   */\n      add\n        /* \"#utility.yul\":2969:3048   */\n      tag_202\n      jump\t// in\n    tag_303:\n        /* \"#utility.yul\":2960:3048   */\n      swap2\n      pop\n        /* \"#utility.yul\":2776:3054   */\n      pop\n        /* \"#utility.yul\":2714:3054   */\n      swap3\n      swap2\n      pop\n      pop\n      jump\t// out\n        /* \"#utility.yul\":3060:3859   */\n    tag_16:\n        /* \"#utility.yul\":3147:3153   */\n      0x00\n        /* \"#utility.yul\":3155:3161   */\n      dup1\n        /* \"#utility.yul\":3163:3169   */\n      0x00\n        /* \"#utility.yul\":3212:3214   */\n      0x60\n        /* \"#utility.yul\":3200:3209   */\n      dup5\n        /* \"#utility.yul\":3191:3198   */\n      dup7\n        /* \"#utility.yul\":3187:3210   */\n      sub\n        /* \"#utility.yul\":3183:3215   */\n      slt\n        /* \"#utility.yul\":3180:3299   */\n      iszero\n      tag_305\n      jumpi\n        /* \"#utility.yul\":3218:3297   */\n      tag_306\n      tag_188\n      jump\t// in\n    tag_306:\n        /* \"#utility.yul\":3180:3299   */\n    tag_305:\n        /* \"#utility.yul\":3338:3339   */\n      0x00\n        /* \"#utility.yul\":3363:3416   */\n      tag_307\n        /* \"#utility.yul\":3408:3415   */\n      dup7\n        /* \"#utility.yul\":3399:3405   */\n      dup3\n        /* \"#utility.yul\":3388:3397   */\n      dup8\n        /* \"#utility.yul\":3384:3406   */\n      add\n        /* \"#utility.yul\":3363:3416   */\n      tag_193\n      jump\t// in\n    tag_307:\n        /* \"#utility.yul\":3353:3416   */\n      swap4\n      pop\n        /* \"#utility.yul\":3309:3426   */\n      pop\n        /* \"#utility.yul\":3493:3495   */\n      0x20\n        /* \"#utility.yul\":3482:3491   */\n      dup5\n        /* \"#utility.yul\":3478:3496   */\n      add\n        /* \"#utility.yul\":3465:3497   */\n      calldataload\n        /* \"#utility.yul\":3524:3542   */\n      0xffffffffffffffff\n        /* \"#utility.yul\":3516:3522   */\n      dup2\n        /* \"#utility.yul\":3513:3543   */\n      gt\n        /* \"#utility.yul\":3510:3627   */\n      iszero\n      tag_308\n      jumpi\n        /* \"#utility.yul\":3546:3625   */\n      tag_309\n      tag_189\n      jump\t// in\n    tag_309:\n        /* \"#utility.yul\":3510:3627   */\n    tag_308:\n        /* \"#utility.yul\":3651:3714   */\n      tag_310\n        /* \"#utility.yul\":3706:3713   */\n      dup7\n        /* \"#utility.yul\":3697:3703   */\n      dup3\n        /* \"#utility.yul\":3686:3695   */\n      dup8\n        /* \"#utility.yul\":3682:3704   */\n      add\n        /* \"#utility.yul\":3651:3714   */\n      tag_203\n      jump\t// in\n    tag_310:\n        /* \"#utility.yul\":3641:3714   */\n      swap3\n      pop\n        /* \"#utility.yul\":3436:3724   */\n      pop\n        /* \"#utility.yul\":3763:3765   */\n      0x40\n        /* \"#utility.yul\":3789:3842   */\n      tag_311\n        /* \"#utility.yul\":3834:3841   */\n      dup7\n        /* \"#utility.yul\":3825:3831   */\n      dup3\n        /* \"#utility.yul\":3814:3823   */\n      dup8\n        /* \"#utility.yul\":3810:3832   */\n      add\n        /* \"#utility.yul\":3789:3842   */\n      tag_193\n      jump\t// in\n    tag_311:\n        /* \"#utility.yul\":3779:3842   */\n      swap2\n      pop\n        /* \"#utility.yul\":3734:3852   */\n      pop\n        /* \"#utility.yul\":3060:3859   */\n      swap3\n      pop\n      swap3\n      pop\n      swap3\n      jump\t// out\n        /* \"#utility.yul\":3865:4339   */\n    tag_20:\n        /* \"#utility.yul\":3933:3939   */\n      0x00\n        /* \"#utility.yul\":3941:3947   */\n      dup1\n        /* \"#utility.yul\":3990:3992   */\n      0x40\n        /* \"#utility.yul\":3978:3987   */\n      dup4\n        /* \"#utility.yul\":3969:3976   */\n      dup6\n        /* \"#utility.yul\":3965:3988   */\n      sub\n        /* \"#utility.yul\":3961:3993   */\n      slt\n        /* \"#utility.yul\":3958:4077   */\n      iszero\n      tag_313\n      jumpi\n        /* \"#utility.yul\":3996:4075   */\n      tag_314\n      tag_188\n      jump\t// in\n    tag_314:\n        /* \"#utility.yul\":3958:4077   */\n    tag_313:\n        /* \"#utility.yul\":4116:4117   */\n      0x00\n        /* \"#utility.yul\":4141:4194   */\n      tag_315\n        /* \"#utility.yul\":4186:4193   */\n      dup6\n        /* \"#utility.yul\":4177:4183   */\n      dup3\n        /* \"#utility.yul\":4166:4175   */\n      dup7\n        /* \"#utility.yul\":4162:4184   */\n      add\n        /* \"#utility.yul\":4141:4194   */\n      tag_193\n      jump\t// in\n    tag_315:\n        /* \"#utility.yul\":4131:4194   */\n      swap3\n      pop\n        /* \"#utility.yul\":4087:4204   */\n      pop\n        /* \"#utility.yul\":4243:4245   */\n      0x20\n        /* \"#utility.yul\":4269:4322   */\n      tag_316\n        /* \"#utility.yul\":4314:4321   */\n      dup6\n        /* \"#utility.yul\":4305:4311   */\n      dup3\n        /* \"#utility.yul\":4294:4303   */\n      dup7\n        /* \"#utility.yul\":4290:4312   */\n      add\n        /* \"#utility.yul\":4269:4322   */\n      tag_193\n      jump\t// in\n    tag_316:\n        /* \"#utility.yul\":4259:4322   */\n      swap2\n      pop\n        /* \"#utility.yul\":4214:4332   */\n      pop\n        /* \"#utility.yul\":3865:4339   */\n      swap3\n      pop\n      swap3\n      swap1\n      pop\n      jump\t// out\n        /* \"#utility.yul\":4345:4422   */\n    tag_204:\n        /* \"#utility.yul\":4382:4389   */\n      0x00\n        /* \"#utility.yul\":4411:4416   */\n      dup2\n        /* \"#utility.yul\":4400:4416   */\n      swap1\n      pop\n        /* \"#utility.yul\":4345:4422   */\n      swap2\n      swap1\n      pop\n      jump\t// out\n        /* \"#utility.yul\":4428:4550   */\n    tag_205:\n        /* \"#utility.yul\":4501:4525   */\n      tag_319\n        /* \"#utility.yul\":4519:4524   */\n      dup2\n        /* \"#utility.yul\":4501:4525   */\n      tag_204\n      jump\t// in\n    tag_319:\n        /* \"#utility.yul\":4494:4499   */\n      dup2\n        /* \"#utility.yul\":4491:4526   */\n      eq\n        /* \"#utility.yul\":4481:4544   */\n      tag_320\n      jumpi\n        /* \"#utility.yul\":4540:4541   */\n      0x00\n        /* \"#utility.yul\":4537:4538   */\n      dup1\n        /* \"#utility.yul\":4530:4542   */\n      revert\n        /* \"#utility.yul\":4481:4544   */\n    tag_320:\n        /* \"#utility.yul\":4428:4550   */\n      pop\n      jump\t// out\n        /* \"#utility.yul\":4556:4695   */\n    tag_206:\n        /* \"#utility.yul\":4602:4607   */\n      0x00\n        /* \"#utility.yul\":4640:4646   */\n      dup2\n        /* \"#utility.yul\":4627:4647   */\n      calldataload\n        /* \"#utility.yul\":4618:4647   */\n      swap1\n      pop\n        /* \"#utility.yul\":4656:4689   */\n      tag_322\n        /* \"#utility.yul\":4683:4688   */\n      dup2\n        /* \"#utility.yul\":4656:4689   */\n      tag_205\n      jump\t// in\n    tag_322:\n        /* \"#utility.yul\":4556:4695   */\n      swap3\n      swap2\n      pop\n      pop\n      jump\t// out\n        /* \"#utility.yul\":4701:5030   */\n    tag_24:\n        /* \"#utility.yul\":4760:4766   */\n      0x00\n        /* \"#utility.yul\":4809:4811   */\n      0x20\n        /* \"#utility.yul\":4797:4806   */\n      dup3\n        /* \"#utility.yul\":4788:4795   */\n      dup5\n        /* \"#utility.yul\":4784:4807   */\n      sub\n        /* \"#utility.yul\":4780:4812   */\n      slt\n        /* \"#utility.yul\":4777:4896   */\n      iszero\n      tag_324\n      jumpi\n        /* \"#utility.yul\":4815:4894   */\n      tag_325\n      tag_188\n      jump\t// in\n    tag_325:\n        /* \"#utility.yul\":4777:4896   */\n    tag_324:\n        /* \"#utility.yul\":4935:4936   */\n      0x00\n        /* \"#utility.yul\":4960:5013   */\n      tag_326\n        /* \"#utility.yul\":5005:5012   */\n      dup5\n        /* \"#utility.yul\":4996:5002   */\n      dup3\n        /* \"#utility.yul\":4985:4994   */\n      dup6\n        /* \"#utility.yul\":4981:5003   */\n      add\n        /* \"#utility.yul\":4960:5013   */\n      tag_206\n      jump\t// in\n    tag_326:\n        /* \"#utility.yul\":4950:5013   */\n      swap2\n      pop\n        /* \"#utility.yul\":4906:5023   */\n      pop\n        /* \"#utility.yul\":4701:5030   */\n      swap3\n      swap2\n      pop\n      pop\n      jump\t// out\n        /* \"#utility.yul\":5036:5154   */\n    tag_207:\n        /* \"#utility.yul\":5123:5147   */\n      tag_328\n        /* \"#utility.yul\":5141:5146   */\n      dup2\n        /* \"#utility.yul\":5123:5147   */\n      tag_204\n      jump\t// in\n    tag_328:\n        /* \"#utility.yul\":5118:5121   */\n      dup3\n        /* \"#utility.yul\":5111:5148   */\n      mstore\n        /* \"#utility.yul\":5036:5154   */\n      pop\n      pop\n      jump\t// out\n        /* \"#utility.yul\":5160:5259   */\n    tag_208:\n        /* \"#utility.yul\":5212:5218   */\n      0x00\n        /* \"#utility.yul\":5246:5251   */\n      dup2\n        /* \"#utility.yul\":5240:5252   */\n      mload\n        /* \"#utility.yul\":5230:5252   */\n      swap1\n      pop\n        /* \"#utility.yul\":5160:5259   */\n      swap2\n      swap1\n      pop\n      jump\t// out\n        /* \"#utility.yul\":5265:5434   */\n    tag_209:\n        /* \"#utility.yul\":5349:5360   */\n      0x00\n        /* \"#utility.yul\":5383:5389   */\n      dup3\n        /* \"#utility.yul\":5378:5381   */\n      dup3\n        /* \"#utility.yul\":5371:5390   */\n      mstore\n        /* \"#utility.yul\":5423:5427   */\n      0x20\n        /* \"#utility.yul\":5418:5421   */\n      dup3\n        /* \"#utility.yul\":5414:5428   */\n      add\n        /* \"#utility.yul\":5399:5428   */\n      swap1\n      pop\n        /* \"#utility.yul\":5265:5434   */\n      swap3\n      swap2\n      pop\n      pop\n      jump\t// out\n        /* \"#utility.yul\":5440:5686   */\n    tag_210:\n        /* \"#utility.yul\":5521:5522   */\n      0x00\n        /* \"#utility.yul\":5531:5644   */\n    tag_332:\n        /* \"#utility.yul\":5545:5551   */\n      dup4\n        /* \"#utility.yul\":5542:5543   */\n      dup2\n        /* \"#utility.yul\":5539:5552   */\n      lt\n        /* \"#utility.yul\":5531:5644   */\n      iszero\n      tag_334\n      jumpi\n        /* \"#utility.yul\":5630:5631   */\n      dup1\n        /* \"#utility.yul\":5625:5628   */\n      dup3\n        /* \"#utility.yul\":5621:5632   */\n      add\n        /* \"#utility.yul\":5615:5633   */\n      mload\n        /* \"#utility.yul\":5611:5612   */\n      dup2\n        /* \"#utility.yul\":5606:5609   */\n      dup5\n        /* \"#utility.yul\":5602:5613   */\n      add\n        /* \"#utility.yul\":5595:5634   */\n      mstore\n        /* \"#utility.yul\":5567:5569   */\n      0x20\n        /* \"#utility.yul\":5564:5565   */\n      dup2\n        /* \"#utility.yul\":5560:5570   */\n      add\n        /* \"#utility.yul\":5555:5570   */\n      swap1\n      pop\n        /* \"#utility.yul\":5531:5644   */\n      jump(tag_332)\n    tag_334:\n        /* \"#utility.yul\":5678:5679   */\n      0x00\n        /* \"#utility.yul\":5669:5675   */\n      dup5\n        /* \"#utility.yul\":5664:5667   */\n      dup5\n        /* \"#utility.yul\":5660:5676   */\n      add\n        /* \"#utility.yul\":5653:5680   */\n      mstore\n        /* \"#utility.yul\":5502:5686   */\n      pop\n        /* \"#utility.yul\":5440:5686   */\n      pop\n      pop\n      pop\n      jump\t// out\n        /* \"#utility.yul\":5692:6069   */\n    tag_211:\n        /* \"#utility.yul\":5780:5783   */\n      0x00\n        /* \"#utility.yul\":5808:5847   */\n      tag_336\n        /* \"#utility.yul\":5841:5846   */\n      dup3\n        /* \"#utility.yul\":5808:5847   */\n      tag_208\n      jump\t// in\n    tag_336:\n        /* \"#utility.yul\":5863:5934   */\n      tag_337\n        /* \"#utility.yul\":5927:5933   */\n      dup2\n        /* \"#utility.yul\":5922:5925   */\n      dup6\n        /* \"#utility.yul\":5863:5934   */\n      tag_209\n      jump\t// in\n    tag_337:\n        /* \"#utility.yul\":5856:5934   */\n      swap4\n      pop\n        /* \"#utility.yul\":5943:6008   */\n      tag_338\n        /* \"#utility.yul\":6001:6007   */\n      dup2\n        /* \"#utility.yul\":5996:5999   */\n      dup6\n        /* \"#utility.yul\":5989:5993   */\n      0x20\n        /* \"#utility.yul\":5982:5987   */\n      dup7\n        /* \"#utility.yul\":5978:5994   */\n      add\n        /* \"#utility.yul\":5943:6008   */\n      tag_210\n      jump\t// in\n    tag_338:\n        /* \"#utility.yul\":6033:6062   */\n      tag_339\n        /* \"#utility.yul\":6055:6061   */\n      dup2\n        /* \"#utility.yul\":6033:6062   */\n      tag_196\n      jump\t// in\n    tag_339:\n        /* \"#utility.yul\":6028:6031   */\n      dup5\n        /* \"#utility.yul\":6024:6063   */\n      add\n        /* \"#utility.yul\":6017:6063   */\n      swap2\n      pop\n        /* \"#utility.yul\":5784:6069   */\n      pop\n        /* \"#utility.yul\":5692:6069   */\n      swap3\n      swap2\n      pop\n      pop\n      jump\t// out\n        /* \"#utility.yul\":6075:6608   */\n    tag_27:\n        /* \"#utility.yul\":6244:6248   */\n      0x00\n        /* \"#utility.yul\":6282:6284   */\n      0x60\n        /* \"#utility.yul\":6271:6280   */\n      dup3\n        /* \"#utility.yul\":6267:6285   */\n      add\n        /* \"#utility.yul\":6259:6285   */\n      swap1\n      pop\n        /* \"#utility.yul\":6295:6366   */\n      tag_341\n        /* \"#utility.yul\":6363:6364   */\n      0x00\n        /* \"#utility.yul\":6352:6361   */\n      dup4\n        /* \"#utility.yul\":6348:6365   */\n      add\n        /* \"#utility.yul\":6339:6345   */\n      dup7\n        /* \"#utility.yul\":6295:6366   */\n      tag_207\n      jump\t// in\n    tag_341:\n        /* \"#utility.yul\":6413:6422   */\n      dup2\n        /* \"#utility.yul\":6407:6411   */\n      dup2\n        /* \"#utility.yul\":6403:6423   */\n      sub\n        /* \"#utility.yul\":6398:6400   */\n      0x20\n        /* \"#utility.yul\":6387:6396   */\n      dup4\n        /* \"#utility.yul\":6383:6401   */\n      add\n        /* \"#utility.yul\":6376:6424   */\n      mstore\n        /* \"#utility.yul\":6441:6519   */\n      tag_342\n        /* \"#utility.yul\":6514:6518   */\n      dup2\n        /* \"#utility.yul\":6505:6511   */\n      dup6\n        /* \"#utility.yul\":6441:6519   */\n      tag_211\n      jump\t// in\n    tag_342:\n        /* \"#utility.yul\":6433:6519   */\n      swap1\n      pop\n        /* \"#utility.yul\":6529:6601   */\n      tag_343\n        /* \"#utility.yul\":6597:6599   */\n      0x40\n        /* \"#utility.yul\":6586:6595   */\n      dup4\n        /* \"#utility.yul\":6582:6600   */\n      add\n        /* \"#utility.yul\":6573:6579   */\n      dup5\n        /* \"#utility.yul\":6529:6601   */\n      tag_207\n      jump\t// in\n    tag_343:\n        /* \"#utility.yul\":6075:6608   */\n      swap5\n      swap4\n      pop\n      pop\n      pop\n      pop\n      jump\t// out\n        /* \"#utility.yul\":6614:7593   */\n    tag_32:\n        /* \"#utility.yul\":6711:6717   */\n      0x00\n        /* \"#utility.yul\":6719:6725   */\n      dup1\n        /* \"#utility.yul\":6727:6733   */\n      0x00\n        /* \"#utility.yul\":6776:6778   */\n      0x60\n        /* \"#utility.yul\":6764:6773   */\n      dup5\n        /* \"#utility.yul\":6755:6762   */\n      dup7\n        /* \"#utility.yul\":6751:6774   */\n      sub\n        /* \"#utility.yul\":6747:6779   */\n      slt\n        /* \"#utility.yul\":6744:6863   */\n      iszero\n      tag_345\n      jumpi\n        /* \"#utility.yul\":6782:6861   */\n      tag_346\n      tag_188\n      jump\t// in\n    tag_346:\n        /* \"#utility.yul\":6744:6863   */\n    tag_345:\n        /* \"#utility.yul\":6930:6931   */\n      0x00\n        /* \"#utility.yul\":6919:6928   */\n      dup5\n        /* \"#utility.yul\":6915:6932   */\n      add\n        /* \"#utility.yul\":6902:6933   */\n      calldataload\n        /* \"#utility.yul\":6960:6978   */\n      0xffffffffffffffff\n        /* \"#utility.yul\":6952:6958   */\n      dup2\n        /* \"#utility.yul\":6949:6979   */\n      gt\n        /* \"#utility.yul\":6946:7063   */\n      iszero\n      tag_347\n      jumpi\n        /* \"#utility.yul\":6982:7061   */\n      tag_348\n      tag_189\n      jump\t// in\n    tag_348:\n        /* \"#utility.yul\":6946:7063   */\n    tag_347:\n        /* \"#utility.yul\":7087:7150   */\n      tag_349\n        /* \"#utility.yul\":7142:7149   */\n      dup7\n        /* \"#utility.yul\":7133:7139   */\n      dup3\n        /* \"#utility.yul\":7122:7131   */\n      dup8\n        /* \"#utility.yul\":7118:7140   */\n      add\n        /* \"#utility.yul\":7087:7150   */\n      tag_203\n      jump\t// in\n    tag_349:\n        /* \"#utility.yul\":7077:7150   */\n      swap4\n      pop\n        /* \"#utility.yul\":6873:7160   */\n      pop\n        /* \"#utility.yul\":7227:7229   */\n      0x20\n        /* \"#utility.yul\":7216:7225   */\n      dup5\n        /* \"#utility.yul\":7212:7230   */\n      add\n        /* \"#utility.yul\":7199:7231   */\n      calldataload\n        /* \"#utility.yul\":7258:7276   */\n      0xffffffffffffffff\n        /* \"#utility.yul\":7250:7256   */\n      dup2\n        /* \"#utility.yul\":7247:7277   */\n      gt\n        /* \"#utility.yul\":7244:7361   */\n      iszero\n      tag_350\n      jumpi\n        /* \"#utility.yul\":7280:7359   */\n      tag_351\n      tag_189\n      jump\t// in\n    tag_351:\n        /* \"#utility.yul\":7244:7361   */\n    tag_350:\n        /* \"#utility.yul\":7385:7448   */\n      tag_352\n        /* \"#utility.yul\":7440:7447   */\n      dup7\n        /* \"#utility.yul\":7431:7437   */\n      dup3\n        /* \"#utility.yul\":7420:7429   */\n      dup8\n        /* \"#utility.yul\":7416:7438   */\n      add\n        /* \"#utility.yul\":7385:7448   */\n      tag_203\n      jump\t// in\n    tag_352:\n        /* \"#utility.yul\":7375:7448   */\n      swap3\n      pop\n        /* \"#utility.yul\":7170:7458   */\n      pop\n        /* \"#utility.yul\":7497:7499   */\n      0x40\n        /* \"#utility.yul\":7523:7576   */\n      tag_353\n        /* \"#utility.yul\":7568:7575   */\n      dup7\n        /* \"#utility.yul\":7559:7565   */\n      dup3\n        /* \"#utility.yul\":7548:7557   */\n      dup8\n        /* \"#utility.yul\":7544:7566   */\n      add\n        /* \"#utility.yul\":7523:7576   */\n      tag_193\n      jump\t// in\n    tag_353:\n        /* \"#utility.yul\":7513:7576   */\n      swap2\n      pop\n        /* \"#utility.yul\":7468:7586   */\n      pop\n        /* \"#utility.yul\":6614:7593   */\n      swap3\n      pop\n      swap3\n      pop\n      swap3\n      jump\t// out\n        /* \"#utility.yul\":7599:8073   */\n    tag_36:\n        /* \"#utility.yul\":7667:7673   */\n      0x00\n        /* \"#utility.yul\":7675:7681   */\n      dup1\n        /* \"#utility.yul\":7724:7726   */\n      0x40\n        /* \"#utility.yul\":7712:7721   */\n      dup4\n        /* \"#utility.yul\":7703:7710   */\n      dup6\n        /* \"#utility.yul\":7699:7722   */\n      sub\n        /* \"#utility.yul\":7695:7727   */\n      slt\n        /* \"#utility.yul\":7692:7811   */\n      iszero\n      tag_355\n      jumpi\n        /* \"#utility.yul\":7730:7809   */\n      tag_356\n      tag_188\n      jump\t// in\n    tag_356:\n        /* \"#utility.yul\":7692:7811   */\n    tag_355:\n        /* \"#utility.yul\":7850:7851   */\n      0x00\n        /* \"#utility.yul\":7875:7928   */\n      tag_357\n        /* \"#utility.yul\":7920:7927   */\n      dup6\n        /* \"#utility.yul\":7911:7917   */\n      dup3\n        /* \"#utility.yul\":7900:7909   */\n      dup7\n        /* \"#utility.yul\":7896:7918   */\n      add\n        /* \"#utility.yul\":7875:7928   */\n      tag_206\n      jump\t// in\n    tag_357:\n        /* \"#utility.yul\":7865:7928   */\n      swap3\n      pop\n        /* \"#utility.yul\":7821:7938   */\n      pop\n        /* \"#utility.yul\":7977:7979   */\n      0x20\n        /* \"#utility.yul\":8003:8056   */\n      tag_358\n        /* \"#utility.yul\":8048:8055   */\n      dup6\n        /* \"#utility.yul\":8039:8045   */\n      dup3\n        /* \"#utility.yul\":8028:8037   */\n      dup7\n        /* \"#utility.yul\":8024:8046   */\n      add\n        /* \"#utility.yul\":8003:8056   */\n      tag_193\n      jump\t// in\n    tag_358:\n        /* \"#utility.yul\":7993:8056   */\n      swap2\n      pop\n        /* \"#utility.yul\":7948:8066   */\n      pop\n        /* \"#utility.yul\":7599:8073   */\n      swap3\n      pop\n      swap3\n      swap1\n      pop\n      jump\t// out\n        /* \"#utility.yul\":8079:8703   */\n    tag_42:\n        /* \"#utility.yul\":8268:8272   */\n      0x00\n        /* \"#utility.yul\":8306:8308   */\n      0x60\n        /* \"#utility.yul\":8295:8304   */\n      dup3\n        /* \"#utility.yul\":8291:8309   */\n      add\n        /* \"#utility.yul\":8283:8309   */\n      swap1\n      pop\n        /* \"#utility.yul\":8319:8390   */\n      tag_360\n        /* \"#utility.yul\":8387:8388   */\n      0x00\n        /* \"#utility.yul\":8376:8385   */\n      dup4\n        /* \"#utility.yul\":8372:8389   */\n      add\n        /* \"#utility.yul\":8363:8369   */\n      dup7\n        /* \"#utility.yul\":8319:8390   */\n      tag_207\n      jump\t// in\n    tag_360:\n        /* \"#utility.yul\":8437:8446   */\n      dup2\n        /* \"#utility.yul\":8431:8435   */\n      dup2\n        /* \"#utility.yul\":8427:8447   */\n      sub\n        /* \"#utility.yul\":8422:8424   */\n      0x20\n        /* \"#utility.yul\":8411:8420   */\n      dup4\n        /* \"#utility.yul\":8407:8425   */\n      add\n        /* \"#utility.yul\":8400:8448   */\n      mstore\n        /* \"#utility.yul\":8465:8543   */\n      tag_361\n        /* \"#utility.yul\":8538:8542   */\n      dup2\n        /* \"#utility.yul\":8529:8535   */\n      dup6\n        /* \"#utility.yul\":8465:8543   */\n      tag_211\n      jump\t// in\n    tag_361:\n        /* \"#utility.yul\":8457:8543   */\n      swap1\n      pop\n        /* \"#utility.yul\":8590:8599   */\n      dup2\n        /* \"#utility.yul\":8584:8588   */\n      dup2\n        /* \"#utility.yul\":8580:8600   */\n      sub\n        /* \"#utility.yul\":8575:8577   */\n      0x40\n        /* \"#utility.yul\":8564:8573   */\n      dup4\n        /* \"#utility.yul\":8560:8578   */\n      add\n        /* \"#utility.yul\":8553:8601   */\n      mstore\n        /* \"#utility.yul\":8618:8696   */\n      tag_362\n        /* \"#utility.yul\":8691:8695   */\n      dup2\n        /* \"#utility.yul\":8682:8688   */\n      dup5\n        /* \"#utility.yul\":8618:8696   */\n      tag_211\n      jump\t// in\n    tag_362:\n        /* \"#utility.yul\":8610:8696   */\n      swap1\n      pop\n        /* \"#utility.yul\":8079:8703   */\n      swap5\n      swap4\n      pop\n      pop\n      pop\n      pop\n      jump\t// out\n        /* \"#utility.yul\":8709:8827   */\n    tag_212:\n        /* \"#utility.yul\":8796:8820   */\n      tag_364\n        /* \"#utility.yul\":8814:8819   */\n      dup2\n        /* \"#utility.yul\":8796:8820   */\n      tag_191\n      jump\t// in\n    tag_364:\n        /* \"#utility.yul\":8791:8794   */\n      dup3\n        /* \"#utility.yul\":8784:8821   */\n      mstore\n        /* \"#utility.yul\":8709:8827   */\n      pop\n      pop\n      jump\t// out\n        /* \"#utility.yul\":8833:9055   */\n    tag_46:\n        /* \"#utility.yul\":8926:8930   */\n      0x00\n        /* \"#utility.yul\":8964:8966   */\n      0x20\n        /* \"#utility.yul\":8953:8962   */\n      dup3\n        /* \"#utility.yul\":8949:8967   */\n      add\n        /* \"#utility.yul\":8941:8967   */\n      swap1\n      pop\n        /* \"#utility.yul\":8977:9048   */\n      tag_366\n        /* \"#utility.yul\":9045:9046   */\n      0x00\n        /* \"#utility.yul\":9034:9043   */\n      dup4\n        /* \"#utility.yul\":9030:9047   */\n      add\n        /* \"#utility.yul\":9021:9027   */\n      dup5\n        /* \"#utility.yul\":8977:9048   */\n      tag_212\n      jump\t// in\n    tag_366:\n        /* \"#utility.yul\":8833:9055   */\n      swap3\n      swap2\n      pop\n      pop\n      jump\t// out\n        /* \"#utility.yul\":9061:9390   */\n    tag_49:\n        /* \"#utility.yul\":9120:9126   */\n      0x00\n        /* \"#utility.yul\":9169:9171   */\n      0x20\n        /* \"#utility.yul\":9157:9166   */\n      dup3\n        /* \"#utility.yul\":9148:9155   */\n      dup5\n        /* \"#utility.yul\":9144:9167   */\n      sub\n        /* \"#utility.yul\":9140:9172   */\n      slt\n        /* \"#utility.yul\":9137:9256   */\n      iszero\n      tag_368\n      jumpi\n        /* \"#utility.yul\":9175:9254   */\n      tag_369\n      tag_188\n      jump\t// in\n    tag_369:\n        /* \"#utility.yul\":9137:9256   */\n    tag_368:\n        /* \"#utility.yul\":9295:9296   */\n      0x00\n        /* \"#utility.yul\":9320:9373   */\n      tag_370\n        /* \"#utility.yul\":9365:9372   */\n      dup5\n        /* \"#utility.yul\":9356:9362   */\n      dup3\n        /* \"#utility.yul\":9345:9354   */\n      dup6\n        /* \"#utility.yul\":9341:9363   */\n      add\n        /* \"#utility.yul\":9320:9373   */\n      tag_193\n      jump\t// in\n    tag_370:\n        /* \"#utility.yul\":9310:9373   */\n      swap2\n      pop\n        /* \"#utility.yul\":9266:9383   */\n      pop\n        /* \"#utility.yul\":9061:9390   */\n      swap3\n      swap2\n      pop\n      pop\n      jump\t// out\n        /* \"#utility.yul\":9396:9486   */\n    tag_213:\n        /* \"#utility.yul\":9430:9437   */\n      0x00\n        /* \"#utility.yul\":9473:9478   */\n      dup2\n        /* \"#utility.yul\":9466:9479   */\n      iszero\n        /* \"#utility.yul\":9459:9480   */\n      iszero\n        /* \"#utility.yul\":9448:9480   */\n      swap1\n      pop\n        /* \"#utility.yul\":9396:9486   */\n      swap2\n      swap1\n      pop\n      jump\t// out\n        /* \"#utility.yul\":9492:9601   */\n    tag_214:\n        /* \"#utility.yul\":9573:9594   */\n      tag_373\n        /* \"#utility.yul\":9588:9593   */\n      dup2\n        /* \"#utility.yul\":9573:9594   */\n      tag_213\n      jump\t// in\n    tag_373:\n        /* \"#utility.yul\":9568:9571   */\n      dup3\n        /* \"#utility.yul\":9561:9595   */\n      mstore\n        /* \"#utility.yul\":9492:9601   */\n      pop\n      pop\n      jump\t// out\n        /* \"#utility.yul\":9607:10128   */\n    tag_55:\n        /* \"#utility.yul\":9770:9774   */\n      0x00\n        /* \"#utility.yul\":9808:9810   */\n      0x60\n        /* \"#utility.yul\":9797:9806   */\n      dup3\n        /* \"#utility.yul\":9793:9811   */\n      add\n        /* \"#utility.yul\":9785:9811   */\n      swap1\n      pop\n        /* \"#utility.yul\":9821:9892   */\n      tag_375\n        /* \"#utility.yul\":9889:9890   */\n      0x00\n        /* \"#utility.yul\":9878:9887   */\n      dup4\n        /* \"#utility.yul\":9874:9891   */\n      add\n        /* \"#utility.yul\":9865:9871   */\n      dup7\n        /* \"#utility.yul\":9821:9892   */\n      tag_212\n      jump\t// in\n    tag_375:\n        /* \"#utility.yul\":9939:9948   */\n      dup2\n        /* \"#utility.yul\":9933:9937   */\n      dup2\n        /* \"#utility.yul\":9929:9949   */\n      sub\n        /* \"#utility.yul\":9924:9926   */\n      0x20\n        /* \"#utility.yul\":9913:9922   */\n      dup4\n        /* \"#utility.yul\":9909:9927   */\n      add\n        /* \"#utility.yul\":9902:9950   */\n      mstore\n        /* \"#utility.yul\":9967:10045   */\n      tag_376\n        /* \"#utility.yul\":10040:10044   */\n      dup2\n        /* \"#utility.yul\":10031:10037   */\n      dup6\n        /* \"#utility.yul\":9967:10045   */\n      tag_211\n      jump\t// in\n    tag_376:\n        /* \"#utility.yul\":9959:10045   */\n      swap1\n      pop\n        /* \"#utility.yul\":10055:10121   */\n      tag_377\n        /* \"#utility.yul\":10117:10119   */\n      0x40\n        /* \"#utility.yul\":10106:10115   */\n      dup4\n        /* \"#utility.yul\":10102:10120   */\n      add\n        /* \"#utility.yul\":10093:10099   */\n      dup5\n        /* \"#utility.yul\":10055:10121   */\n      tag_214\n      jump\t// in\n    tag_377:\n        /* \"#utility.yul\":9607:10128   */\n      swap5\n      swap4\n      pop\n      pop\n      pop\n      pop\n      jump\t// out\n        /* \"#utility.yul\":10134:10354   */\n    tag_215:\n        /* \"#utility.yul\":10274:10308   */\n      0x4f6e6c792061646d696e206861732061636365737320746f20646f2074686973\n        /* \"#utility.yul\":10270:10271   */\n      0x00\n        /* \"#utility.yul\":10262:10268   */\n      dup3\n        /* \"#utility.yul\":10258:10272   */\n      add\n        /* \"#utility.yul\":10251:10309   */\n      mstore\n        /* \"#utility.yul\":10343:10346   */\n      0x2e00000000000000000000000000000000000000000000000000000000000000\n        /* \"#utility.yul\":10338:10340   */\n      0x20\n        /* \"#utility.yul\":10330:10336   */\n      dup3\n        /* \"#utility.yul\":10326:10341   */\n      add\n        /* \"#utility.yul\":10319:10347   */\n      mstore\n        /* \"#utility.yul\":10134:10354   */\n      pop\n      jump\t// out\n        /* \"#utility.yul\":10360:10726   */\n    tag_216:\n        /* \"#utility.yul\":10502:10505   */\n      0x00\n        /* \"#utility.yul\":10523:10590   */\n      tag_380\n        /* \"#utility.yul\":10587:10589   */\n      0x21\n        /* \"#utility.yul\":10582:10585   */\n      dup4\n        /* \"#utility.yul\":10523:10590   */\n      tag_209\n      jump\t// in\n    tag_380:\n        /* \"#utility.yul\":10516:10590   */\n      swap2\n      pop\n        /* \"#utility.yul\":10599:10692   */\n      tag_381\n        /* \"#utility.yul\":10688:10691   */\n      dup3\n        /* \"#utility.yul\":10599:10692   */\n      tag_215\n      jump\t// in\n    tag_381:\n        /* \"#utility.yul\":10717:10719   */\n      0x40\n        /* \"#utility.yul\":10712:10715   */\n      dup3\n        /* \"#utility.yul\":10708:10720   */\n      add\n        /* \"#utility.yul\":10701:10720   */\n      swap1\n      pop\n        /* \"#utility.yul\":10360:10726   */\n      swap2\n      swap1\n      pop\n      jump\t// out\n        /* \"#utility.yul\":10732:11151   */\n    tag_61:\n        /* \"#utility.yul\":10898:10902   */\n      0x00\n        /* \"#utility.yul\":10936:10938   */\n      0x20\n        /* \"#utility.yul\":10925:10934   */\n      dup3\n        /* \"#utility.yul\":10921:10939   */\n      add\n        /* \"#utility.yul\":10913:10939   */\n      swap1\n      pop\n        /* \"#utility.yul\":10985:10994   */\n      dup2\n        /* \"#utility.yul\":10979:10983   */\n      dup2\n        /* \"#utility.yul\":10975:10995   */\n      sub\n        /* \"#utility.yul\":10971:10972   */\n      0x00\n        /* \"#utility.yul\":10960:10969   */\n      dup4\n        /* \"#utility.yul\":10956:10973   */\n      add\n        /* \"#utility.yul\":10949:10996   */\n      mstore\n        /* \"#utility.yul\":11013:11144   */\n      tag_383\n        /* \"#utility.yul\":11139:11143   */\n      dup2\n        /* \"#utility.yul\":11013:11144   */\n      tag_216\n      jump\t// in\n    tag_383:\n        /* \"#utility.yul\":11005:11144   */\n      swap1\n      pop\n        /* \"#utility.yul\":10732:11151   */\n      swap2\n      swap1\n      pop\n      jump\t// out\n        /* \"#utility.yul\":11157:11337   */\n    tag_64:\n        /* \"#utility.yul\":11205:11282   */\n      0x4e487b7100000000000000000000000000000000000000000000000000000000\n        /* \"#utility.yul\":11202:11203   */\n      0x00\n        /* \"#utility.yul\":11195:11283   */\n      mstore\n        /* \"#utility.yul\":11302:11306   */\n      0x21\n        /* \"#utility.yul\":11299:11300   */\n      0x04\n        /* \"#utility.yul\":11292:11307   */\n      mstore\n        /* \"#utility.yul\":11326:11330   */\n      0x24\n        /* \"#utility.yul\":11323:11324   */\n      0x00\n        /* \"#utility.yul\":11316:11331   */\n      revert\n        /* \"#utility.yul\":11343:11565   */\n    tag_217:\n        /* \"#utility.yul\":11483:11517   */\n      0x566f74696e6720616c72656164792073746172746564206f7220636f6d706c65\n        /* \"#utility.yul\":11479:11480   */\n      0x00\n        /* \"#utility.yul\":11471:11477   */\n      dup3\n        /* \"#utility.yul\":11467:11481   */\n      add\n        /* \"#utility.yul\":11460:11518   */\n      mstore\n        /* \"#utility.yul\":11552:11557   */\n      0x7465640000000000000000000000000000000000000000000000000000000000\n        /* \"#utility.yul\":11547:11549   */\n      0x20\n        /* \"#utility.yul\":11539:11545   */\n      dup3\n        /* \"#utility.yul\":11535:11550   */\n      add\n        /* \"#utility.yul\":11528:11558   */\n      mstore\n        /* \"#utility.yul\":11343:11565   */\n      pop\n      jump\t// out\n        /* \"#utility.yul\":11571:11937   */\n    tag_218:\n        /* \"#utility.yul\":11713:11716   */\n      0x00\n        /* \"#utility.yul\":11734:11801   */\n      tag_387\n        /* \"#utility.yul\":11798:11800   */\n      0x23\n        /* \"#utility.yul\":11793:11796   */\n      dup4\n        /* \"#utility.yul\":11734:11801   */\n      tag_209\n      jump\t// in\n    tag_387:\n        /* \"#utility.yul\":11727:11801   */\n      swap2\n      pop\n        /* \"#utility.yul\":11810:11903   */\n      tag_388\n        /* \"#utility.yul\":11899:11902   */\n      dup3\n        /* \"#utility.yul\":11810:11903   */\n      tag_217\n      jump\t// in\n    tag_388:\n        /* \"#utility.yul\":11928:11930   */\n      0x40\n        /* \"#utility.yul\":11923:11926   */\n      dup3\n        /* \"#utility.yul\":11919:11931   */\n      add\n        /* \"#utility.yul\":11912:11931   */\n      swap1\n      pop\n        /* \"#utility.yul\":11571:11937   */\n      swap2\n      swap1\n      pop\n      jump\t// out\n        /* \"#utility.yul\":11943:12362   */\n    tag_69:\n        /* \"#utility.yul\":12109:12113   */\n      0x00\n        /* \"#utility.yul\":12147:12149   */\n      0x20\n        /* \"#utility.yul\":12136:12145   */\n      dup3\n        /* \"#utility.yul\":12132:12150   */\n      add\n        /* \"#utility.yul\":12124:12150   */\n      swap1\n      pop\n        /* \"#utility.yul\":12196:12205   */\n      dup2\n        /* \"#utility.yul\":12190:12194   */\n      dup2\n        /* \"#utility.yul\":12186:12206   */\n      sub\n        /* \"#utility.yul\":12182:12183   */\n      0x00\n        /* \"#utility.yul\":12171:12180   */\n      dup4\n        /* \"#utility.yul\":12167:12184   */\n      add\n        /* \"#utility.yul\":12160:12207   */\n      mstore\n        /* \"#utility.yul\":12224:12355   */\n      tag_390\n        /* \"#utility.yul\":12350:12354   */\n      dup2\n        /* \"#utility.yul\":12224:12355   */\n      tag_218\n      jump\t// in\n    tag_390:\n        /* \"#utility.yul\":12216:12355   */\n      swap1\n      pop\n        /* \"#utility.yul\":11943:12362   */\n      swap2\n      swap1\n      pop\n      jump\t// out\n        /* \"#utility.yul\":12368:12538   */\n    tag_219:\n        /* \"#utility.yul\":12508:12530   */\n      0x766f74657220616c72656164792061646465642e000000000000000000000000\n        /* \"#utility.yul\":12504:12505   */\n      0x00\n        /* \"#utility.yul\":12496:12502   */\n      dup3\n        /* \"#utility.yul\":12492:12506   */\n      add\n        /* \"#utility.yul\":12485:12531   */\n      mstore\n        /* \"#utility.yul\":12368:12538   */\n      pop\n      jump\t// out\n        /* \"#utility.yul\":12544:12910   */\n    tag_220:\n        /* \"#utility.yul\":12686:12689   */\n      0x00\n        /* \"#utility.yul\":12707:12774   */\n      tag_393\n        /* \"#utility.yul\":12771:12773   */\n      0x14\n        /* \"#utility.yul\":12766:12769   */\n      dup4\n        /* \"#utility.yul\":12707:12774   */\n      tag_209\n      jump\t// in\n    tag_393:\n        /* \"#utility.yul\":12700:12774   */\n      swap2\n      pop\n        /* \"#utility.yul\":12783:12876   */\n      tag_394\n        /* \"#utility.yul\":12872:12875   */\n      dup3\n        /* \"#utility.yul\":12783:12876   */\n      tag_219\n      jump\t// in\n    tag_394:\n        /* \"#utility.yul\":12901:12903   */\n      0x20\n        /* \"#utility.yul\":12896:12899   */\n      dup3\n        /* \"#utility.yul\":12892:12904   */\n      add\n        /* \"#utility.yul\":12885:12904   */\n      swap1\n      pop\n        /* \"#utility.yul\":12544:12910   */\n      swap2\n      swap1\n      pop\n      jump\t// out\n        /* \"#utility.yul\":12916:13335   */\n    tag_72:\n        /* \"#utility.yul\":13082:13086   */\n      0x00\n        /* \"#utility.yul\":13120:13122   */\n      0x20\n        /* \"#utility.yul\":13109:13118   */\n      dup3\n        /* \"#utility.yul\":13105:13123   */\n      add\n        /* \"#utility.yul\":13097:13123   */\n      swap1\n      pop\n        /* \"#utility.yul\":13169:13178   */\n      dup2\n        /* \"#utility.yul\":13163:13167   */\n      dup2\n        /* \"#utility.yul\":13159:13179   */\n      sub\n        /* \"#utility.yul\":13155:13156   */\n      0x00\n        /* \"#utility.yul\":13144:13153   */\n      dup4\n        /* \"#utility.yul\":13140:13157   */\n      add\n        /* \"#utility.yul\":13133:13180   */\n      mstore\n        /* \"#utility.yul\":13197:13328   */\n      tag_396\n        /* \"#utility.yul\":13323:13327   */\n      dup2\n        /* \"#utility.yul\":13197:13328   */\n      tag_220\n      jump\t// in\n    tag_396:\n        /* \"#utility.yul\":13189:13328   */\n      swap1\n      pop\n        /* \"#utility.yul\":12916:13335   */\n      swap2\n      swap1\n      pop\n      jump\t// out\n        /* \"#utility.yul\":13341:13521   */\n    tag_221:\n        /* \"#utility.yul\":13389:13466   */\n      0x4e487b7100000000000000000000000000000000000000000000000000000000\n        /* \"#utility.yul\":13386:13387   */\n      0x00\n        /* \"#utility.yul\":13379:13467   */\n      mstore\n        /* \"#utility.yul\":13486:13490   */\n      0x11\n        /* \"#utility.yul\":13483:13484   */\n      0x04\n        /* \"#utility.yul\":13476:13491   */\n      mstore\n        /* \"#utility.yul\":13510:13514   */\n      0x24\n        /* \"#utility.yul\":13507:13508   */\n      0x00\n        /* \"#utility.yul\":13500:13515   */\n      revert\n        /* \"#utility.yul\":13527:13760   */\n    tag_74:\n        /* \"#utility.yul\":13566:13569   */\n      0x00\n        /* \"#utility.yul\":13589:13613   */\n      tag_399\n        /* \"#utility.yul\":13607:13612   */\n      dup3\n        /* \"#utility.yul\":13589:13613   */\n      tag_204\n      jump\t// in\n    tag_399:\n        /* \"#utility.yul\":13580:13613   */\n      swap2\n      pop\n        /* \"#utility.yul\":13635:13701   */\n      0xffffffffffffffffffffffffffffffffffffffffffffffffffffffffffffffff\n        /* \"#utility.yul\":13628:13633   */\n      dup3\n        /* \"#utility.yul\":13625:13702   */\n      sub\n        /* \"#utility.yul\":13622:13725   */\n      tag_400\n      jumpi\n        /* \"#utility.yul\":13705:13723   */\n      tag_401\n      tag_221\n      jump\t// in\n    tag_401:\n        /* \"#utility.yul\":13622:13725   */\n    tag_400:\n        /* \"#utility.yul\":13752:13753   */\n      0x01\n        /* \"#utility.yul\":13745:13750   */\n      dup3\n        /* \"#utility.yul\":13741:13754   */\n      add\n        /* \"#utility.yul\":13734:13754   */\n      swap1\n      pop\n        /* \"#utility.yul\":13527:13760   */\n      swap2\n      swap1\n      pop\n      jump\t// out\n        /* \"#utility.yul\":13766:13946   */\n    tag_222:\n        /* \"#utility.yul\":13814:13891   */\n      0x4e487b7100000000000000000000000000000000000000000000000000000000\n        /* \"#utility.yul\":13811:13812   */\n      0x00\n        /* \"#utility.yul\":13804:13892   */\n      mstore\n        /* \"#utility.yul\":13911:13915   */\n      0x22\n        /* \"#utility.yul\":13908:13909   */\n      0x04\n        /* \"#utility.yul\":13901:13916   */\n      mstore\n        /* \"#utility.yul\":13935:13939   */\n      0x24\n        /* \"#utility.yul\":13932:13933   */\n      0x00\n        /* \"#utility.yul\":13925:13940   */\n      revert\n        /* \"#utility.yul\":13952:14272   */\n    tag_93:\n        /* \"#utility.yul\":13996:14002   */\n      0x00\n        /* \"#utility.yul\":14033:14034   */\n      0x02\n        /* \"#utility.yul\":14027:14031   */\n      dup3\n        /* \"#utility.yul\":14023:14035   */\n      div\n        /* \"#utility.yul\":14013:14035   */\n      swap1\n      pop\n        /* \"#utility.yul\":14080:14081   */\n      0x01\n        /* \"#utility.yul\":14074:14078   */\n      dup3\n        /* \"#utility.yul\":14070:14082   */\n      and\n        /* \"#utility.yul\":14101:14119   */\n      dup1\n        /* \"#utility.yul\":14091:14172   */\n      tag_404\n      jumpi\n        /* \"#utility.yul\":14157:14161   */\n      0x7f\n        /* \"#utility.yul\":14149:14155   */\n      dup3\n        /* \"#utility.yul\":14145:14162   */\n      and\n        /* \"#utility.yul\":14135:14162   */\n      swap2\n      pop\n        /* \"#utility.yul\":14091:14172   */\n    tag_404:\n        /* \"#utility.yul\":14219:14221   */\n      0x20\n        /* \"#utility.yul\":14211:14217   */\n      dup3\n        /* \"#utility.yul\":14208:14222   */\n      lt\n        /* \"#utility.yul\":14188:14206   */\n      dup2\n        /* \"#utility.yul\":14185:14223   */\n      sub\n        /* \"#utility.yul\":14182:14266   */\n      tag_405\n      jumpi\n        /* \"#utility.yul\":14238:14256   */\n      tag_406\n      tag_222\n      jump\t// in\n    tag_406:\n        /* \"#utility.yul\":14182:14266   */\n    tag_405:\n        /* \"#utility.yul\":14003:14272   */\n      pop\n        /* \"#utility.yul\":13952:14272   */\n      swap2\n      swap1\n      pop\n      jump\t// out\n        /* \"#utility.yul\":14278:14419   */\n    tag_223:\n        /* \"#utility.yul\":14327:14331   */\n      0x00\n        /* \"#utility.yul\":14350:14353   */\n      dup2\n        /* \"#utility.yul\":14342:14353   */\n      swap1\n      pop\n        /* \"#utility.yul\":14373:14376   */\n      dup2\n        /* \"#utility.yul\":14370:14371   */\n      0x00\n        /* \"#utility.yul\":14363:14377   */\n      mstore\n        /* \"#utility.yul\":14407:14411   */\n      0x20\n        /* \"#utility.yul\":14404:14405   */\n      0x00\n        /* \"#utility.yul\":14394:14412   */\n      keccak256\n        /* \"#utility.yul\":14386:14412   */\n      swap1\n      pop\n        /* \"#utility.yul\":14278:14419   */\n      swap2\n      swap1\n      pop\n      jump\t// out\n        /* \"#utility.yul\":14425:14518   */\n    tag_224:\n        /* \"#utility.yul\":14462:14468   */\n      0x00\n        /* \"#utility.yul\":14509:14511   */\n      0x20\n        /* \"#utility.yul\":14504:14506   */\n      0x1f\n        /* \"#utility.yul\":14497:14502   */\n      dup4\n        /* \"#utility.yul\":14493:14507   */\n      add\n        /* \"#utility.yul\":14489:14512   */\n      div\n        /* \"#utility.yul\":14479:14512   */\n      swap1\n      pop\n        /* \"#utility.yul\":14425:14518   */\n      swap2\n      swap1\n      pop\n      jump\t// out\n        /* \"#utility.yul\":14524:14631   */\n    tag_225:\n        /* \"#utility.yul\":14568:14576   */\n      0x00\n        /* \"#utility.yul\":14618:14623   */\n      dup3\n        /* \"#utility.yul\":14612:14616   */\n      dup3\n        /* \"#utility.yul\":14608:14624   */\n      shl\n        /* \"#utility.yul\":14587:14624   */\n      swap1\n      pop\n        /* \"#utility.yul\":14524:14631   */\n      swap3\n      swap2\n      pop\n      pop\n      jump\t// out\n        /* \"#utility.yul\":14637:15030   */\n    tag_226:\n        /* \"#utility.yul\":14706:14712   */\n      0x00\n        /* \"#utility.yul\":14756:14757   */\n      0x08\n        /* \"#utility.yul\":14744:14754   */\n      dup4\n        /* \"#utility.yul\":14740:14758   */\n      mul\n        /* \"#utility.yul\":14779:14876   */\n      tag_411\n        /* \"#utility.yul\":14809:14875   */\n      0xffffffffffffffffffffffffffffffffffffffffffffffffffffffffffffffff\n        /* \"#utility.yul\":14798:14807   */\n      dup3\n        /* \"#utility.yul\":14779:14876   */\n      tag_225\n      jump\t// in\n    tag_411:\n        /* \"#utility.yul\":14897:14936   */\n      tag_412\n        /* \"#utility.yul\":14927:14935   */\n      dup7\n        /* \"#utility.yul\":14916:14925   */\n      dup4\n        /* \"#utility.yul\":14897:14936   */\n      tag_225\n      jump\t// in\n    tag_412:\n        /* \"#utility.yul\":14885:14936   */\n      swap6\n      pop\n        /* \"#utility.yul\":14969:14973   */\n      dup1\n        /* \"#utility.yul\":14965:14974   */\n      not\n        /* \"#utility.yul\":14958:14963   */\n      dup5\n        /* \"#utility.yul\":14954:14975   */\n      and\n        /* \"#utility.yul\":14945:14975   */\n      swap4\n      pop\n        /* \"#utility.yul\":15018:15022   */\n      dup1\n        /* \"#utility.yul\":15008:15016   */\n      dup7\n        /* \"#utility.yul\":15004:15023   */\n      and\n        /* \"#utility.yul\":14997:15002   */\n      dup5\n        /* \"#utility.yul\":14994:15024   */\n      or\n        /* \"#utility.yul\":14984:15024   */\n      swap3\n      pop\n        /* \"#utility.yul\":14713:15030   */\n      pop\n      pop\n        /* \"#utility.yul\":14637:15030   */\n      swap4\n      swap3\n      pop\n      pop\n      pop\n      jump\t// out\n        /* \"#utility.yul\":15036:15096   */\n    tag_227:\n        /* \"#utility.yul\":15064:15067   */\n      0x00\n        /* \"#utility.yul\":15085:15090   */\n      dup2\n        /* \"#utility.yul\":15078:15090   */\n      swap1\n      pop\n        /* \"#utility.yul\":15036:15096   */\n      swap2\n      swap1\n      pop\n      jump\t// out\n        /* \"#utility.yul\":15102:15244   */\n    tag_228:\n        /* \"#utility.yul\":15152:15161   */\n      0x00\n        /* \"#utility.yul\":15185:15238   */\n      tag_415\n        /* \"#utility.yul\":15203:15237   */\n      tag_416\n        /* \"#utility.yul\":15212:15236   */\n      tag_417\n        /* \"#utility.yul\":15230:15235   */\n      dup5\n        /* \"#utility.yul\":15212:15236   */\n      tag_204\n      jump\t// in\n    tag_417:\n        /* \"#utility.yul\":15203:15237   */\n      tag_227\n      jump\t// in\n    tag_416:\n        /* \"#utility.yul\":15185:15238   */\n      tag_204\n      jump\t// in\n    tag_415:\n        /* \"#utility.yul\":15172:15238   */\n      swap1\n      pop\n        /* \"#utility.yul\":15102:15244   */\n      swap2\n      swap1\n      pop\n      jump\t// out\n        /* \"#utility.yul\":15250:15325   */\n    tag_229:\n        /* \"#utility.yul\":15293:15296   */\n      0x00\n        /* \"#utility.yul\":15314:15319   */\n      dup2\n        /* \"#utility.yul\":15307:15319   */\n      swap1\n      pop\n        /* \"#utility.yul\":15250:15325   */\n      swap2\n      swap1\n      pop\n      jump\t// out\n        /* \"#utility.yul\":15331:15600   */\n    tag_230:\n        /* \"#utility.yul\":15441:15480   */\n      tag_420\n        /* \"#utility.yul\":15472:15479   */\n      dup4\n        /* \"#utility.yul\":15441:15480   */\n      tag_228\n      jump\t// in\n    tag_420:\n        /* \"#utility.yul\":15502:15593   */\n      tag_421\n        /* \"#utility.yul\":15551:15592   */\n      tag_422\n        /* \"#utility.yul\":15575:15591   */\n      dup3\n        /* \"#utility.yul\":15551:15592   */\n      tag_229\n      jump\t// in\n    tag_422:\n        /* \"#utility.yul\":15543:15549   */\n      dup5\n        /* \"#utility.yul\":15536:15540   */\n      dup5\n        /* \"#utility.yul\":15530:15541   */\n      sload\n        /* \"#utility.yul\":15502:15593   */\n      tag_226\n      jump\t// in\n    tag_421:\n        /* \"#utility.yul\":15496:15500   */\n      dup3\n        /* \"#utility.yul\":15489:15594   */\n      sstore\n        /* \"#utility.yul\":15407:15600   */\n      pop\n        /* \"#utility.yul\":15331:15600   */\n      pop\n      pop\n      pop\n      jump\t// out\n        /* \"#utility.yul\":15606:15679   */\n    tag_231:\n        /* \"#utility.yul\":15651:15654   */\n      0x00\n        /* \"#utility.yul\":15606:15679   */\n      swap1\n      jump\t// out\n        /* \"#utility.yul\":15685:15874   */\n    tag_232:\n        /* \"#utility.yul\":15762:15794   */\n      tag_425\n      tag_231\n      jump\t// in\n    tag_425:\n        /* \"#utility.yul\":15803:15868   */\n      tag_426\n        /* \"#utility.yul\":15861:15867   */\n      dup2\n        /* \"#utility.yul\":15853:15859   */\n      dup5\n        /* \"#utility.yul\":15847:15851   */\n      dup5\n        /* \"#utility.yul\":15803:15868   */\n      tag_230\n      jump\t// in\n    tag_426:\n        /* \"#utility.yul\":15738:15874   */\n      pop\n        /* \"#utility.yul\":15685:15874   */\n      pop\n      pop\n      jump\t// out\n        /* \"#utility.yul\":15880:16066   */\n    tag_233:\n        /* \"#utility.yul\":15940:16060   */\n    tag_428:\n        /* \"#utility.yul\":15957:15960   */\n      dup2\n        /* \"#utility.yul\":15950:15955   */\n      dup2\n        /* \"#utility.yul\":15947:15961   */\n      lt\n        /* \"#utility.yul\":15940:16060   */\n      iszero\n      tag_430\n      jumpi\n        /* \"#utility.yul\":16011:16050   */\n      tag_431\n        /* \"#utility.yul\":16048:16049   */\n      0x00\n        /* \"#utility.yul\":16041:16046   */\n      dup3\n        /* \"#utility.yul\":16011:16050   */\n      tag_232\n      jump\t// in\n    tag_431:\n        /* \"#utility.yul\":15984:15985   */\n      0x01\n        /* \"#utility.yul\":15977:15982   */\n      dup2\n        /* \"#utility.yul\":15973:15986   */\n      add\n        /* \"#utility.yul\":15964:15986   */\n      swap1\n      pop\n        /* \"#utility.yul\":15940:16060   */\n      jump(tag_428)\n    tag_430:\n        /* \"#utility.yul\":15880:16066   */\n      pop\n      pop\n      jump\t// out\n        /* \"#utility.yul\":16072:16615   */\n    tag_234:\n        /* \"#utility.yul\":16173:16175   */\n      0x1f\n        /* \"#utility.yul\":16168:16171   */\n      dup3\n        /* \"#utility.yul\":16165:16176   */\n      gt\n        /* \"#utility.yul\":16162:16608   */\n      iszero\n      tag_433\n      jumpi\n        /* \"#utility.yul\":16207:16245   */\n      tag_434\n        /* \"#utility.yul\":16239:16244   */\n      dup2\n        /* \"#utility.yul\":16207:16245   */\n      tag_223\n      jump\t// in\n    tag_434:\n        /* \"#utility.yul\":16291:16320   */\n      tag_435\n        /* \"#utility.yul\":16309:16319   */\n      dup5\n        /* \"#utility.yul\":16291:16320   */\n      tag_224\n      jump\t// in\n    tag_435:\n        /* \"#utility.yul\":16281:16289   */\n      dup2\n        /* \"#utility.yul\":16277:16321   */\n      add\n        /* \"#utility.yul\":16474:16476   */\n      0x20\n        /* \"#utility.yul\":16462:16472   */\n      dup6\n        /* \"#utility.yul\":16459:16477   */\n      lt\n        /* \"#utility.yul\":16456:16505   */\n      iszero\n      tag_436\n      jumpi\n        /* \"#utility.yul\":16495:16503   */\n      dup2\n        /* \"#utility.yul\":16480:16503   */\n      swap1\n      pop\n        /* \"#utility.yul\":16456:16505   */\n    tag_436:\n        /* \"#utility.yul\":16518:16598   */\n      tag_437\n        /* \"#utility.yul\":16574:16596   */\n      tag_438\n        /* \"#utility.yul\":16592:16595   */\n      dup6\n        /* \"#utility.yul\":16574:16596   */\n      tag_224\n      jump\t// in\n    tag_438:\n        /* \"#utility.yul\":16564:16572   */\n      dup4\n        /* \"#utility.yul\":16560:16597   */\n      add\n        /* \"#utility.yul\":16547:16558   */\n      dup3\n        /* \"#utility.yul\":16518:16598   */\n      tag_233\n      jump\t// in\n    tag_437:\n        /* \"#utility.yul\":16177:16608   */\n      pop\n      pop\n        /* \"#utility.yul\":16162:16608   */\n    tag_433:\n        /* \"#utility.yul\":16072:16615   */\n      pop\n      pop\n      pop\n      jump\t// out\n        /* \"#utility.yul\":16621:16738   */\n    tag_235:\n        /* \"#utility.yul\":16675:16683   */\n      0x00\n        /* \"#utility.yul\":16725:16730   */\n      dup3\n        /* \"#utility.yul\":16719:16723   */\n      dup3\n        /* \"#utility.yul\":16715:16731   */\n      shr\n        /* \"#utility.yul\":16694:16731   */\n      swap1\n      pop\n        /* \"#utility.yul\":16621:16738   */\n      swap3\n      swap2\n      pop\n      pop\n      jump\t// out\n        /* \"#utility.yul\":16744:16913   */\n    tag_236:\n        /* \"#utility.yul\":16788:16794   */\n      0x00\n        /* \"#utility.yul\":16821:16872   */\n      tag_441\n        /* \"#utility.yul\":16869:16870   */\n      0x00\n        /* \"#utility.yul\":16865:16871   */\n      not\n        /* \"#utility.yul\":16857:16862   */\n      dup5\n        /* \"#utility.yul\":16854:16855   */\n      0x08\n        /* \"#utility.yul\":16850:16863   */\n      mul\n        /* \"#utility.yul\":16821:16872   */\n      tag_235\n      jump\t// in\n    tag_441:\n        /* \"#utility.yul\":16817:16873   */\n      not\n        /* \"#utility.yul\":16902:16906   */\n      dup1\n        /* \"#utility.yul\":16896:16900   */\n      dup4\n        /* \"#utility.yul\":16892:16907   */\n      and\n        /* \"#utility.yul\":16882:16907   */\n      swap2\n      pop\n        /* \"#utility.yul\":16795:16913   */\n      pop\n        /* \"#utility.yul\":16744:16913   */\n      swap3\n      swap2\n      pop\n      pop\n      jump\t// out\n        /* \"#utility.yul\":16918:17213   */\n    tag_237:\n        /* \"#utility.yul\":16994:16998   */\n      0x00\n        /* \"#utility.yul\":17140:17169   */\n      tag_443\n        /* \"#utility.yul\":17165:17168   */\n      dup4\n        /* \"#utility.yul\":17159:17163   */\n      dup4\n        /* \"#utility.yul\":17140:17169   */\n      tag_236\n      jump\t// in\n    tag_443:\n        /* \"#utility.yul\":17132:17169   */\n      swap2\n      pop\n        /* \"#utility.yul\":17202:17205   */\n      dup3\n        /* \"#utility.yul\":17199:17200   */\n      0x02\n        /* \"#utility.yul\":17195:17206   */\n      mul\n        /* \"#utility.yul\":17189:17193   */\n      dup3\n        /* \"#utility.yul\":17186:17207   */\n      or\n        /* \"#utility.yul\":17178:17207   */\n      swap1\n      pop\n        /* \"#utility.yul\":16918:17213   */\n      swap3\n      swap2\n      pop\n      pop\n      jump\t// out\n        /* \"#utility.yul\":17218:18613   */\n    tag_76:\n        /* \"#utility.yul\":17335:17372   */\n      tag_445\n        /* \"#utility.yul\":17368:17371   */\n      dup3\n        /* \"#utility.yul\":17335:17372   */\n      tag_208\n      jump\t// in\n    tag_445:\n        /* \"#utility.yul\":17437:17455   */\n      0xffffffffffffffff\n        /* \"#utility.yul\":17429:17435   */\n      dup2\n        /* \"#utility.yul\":17426:17456   */\n      gt\n        /* \"#utility.yul\":17423:17479   */\n      iszero\n      tag_446\n      jumpi\n        /* \"#utility.yul\":17459:17477   */\n      tag_447\n      tag_197\n      jump\t// in\n    tag_447:\n        /* \"#utility.yul\":17423:17479   */\n    tag_446:\n        /* \"#utility.yul\":17503:17541   */\n      tag_448\n        /* \"#utility.yul\":17535:17539   */\n      dup3\n        /* \"#utility.yul\":17529:17540   */\n      sload\n        /* \"#utility.yul\":17503:17541   */\n      tag_93\n      jump\t// in\n    tag_448:\n        /* \"#utility.yul\":17588:17655   */\n      tag_449\n        /* \"#utility.yul\":17648:17654   */\n      dup3\n        /* \"#utility.yul\":17640:17646   */\n      dup3\n        /* \"#utility.yul\":17634:17638   */\n      dup6\n        /* \"#utility.yul\":17588:17655   */\n      tag_234\n      jump\t// in\n    tag_449:\n        /* \"#utility.yul\":17682:17683   */\n      0x00\n        /* \"#utility.yul\":17706:17710   */\n      0x20\n        /* \"#utility.yul\":17693:17710   */\n      swap1\n      pop\n        /* \"#utility.yul\":17738:17740   */\n      0x1f\n        /* \"#utility.yul\":17730:17736   */\n      dup4\n        /* \"#utility.yul\":17727:17741   */\n      gt\n        /* \"#utility.yul\":17755:17756   */\n      0x01\n        /* \"#utility.yul\":17750:18368   */\n      dup2\n      eq\n      tag_451\n      jumpi\n        /* \"#utility.yul\":18412:18413   */\n      0x00\n        /* \"#utility.yul\":18429:18435   */\n      dup5\n        /* \"#utility.yul\":18426:18503   */\n      iszero\n      tag_452\n      jumpi\n        /* \"#utility.yul\":18478:18487   */\n      dup3\n        /* \"#utility.yul\":18473:18476   */\n      dup8\n        /* \"#utility.yul\":18469:18488   */\n      add\n        /* \"#utility.yul\":18463:18489   */\n      mload\n        /* \"#utility.yul\":18454:18489   */\n      swap1\n      pop\n        /* \"#utility.yul\":18426:18503   */\n    tag_452:\n        /* \"#utility.yul\":18529:18596   */\n      tag_453\n        /* \"#utility.yul\":18589:18595   */\n      dup6\n        /* \"#utility.yul\":18582:18587   */\n      dup3\n        /* \"#utility.yul\":18529:18596   */\n      tag_237\n      jump\t// in\n    tag_453:\n        /* \"#utility.yul\":18523:18527   */\n      dup7\n        /* \"#utility.yul\":18516:18597   */\n      sstore\n        /* \"#utility.yul\":18385:18607   */\n      pop\n        /* \"#utility.yul\":17720:18607   */\n      jump(tag_450)\n        /* \"#utility.yul\":17750:18368   */\n    tag_451:\n        /* \"#utility.yul\":17802:17806   */\n      0x1f\n        /* \"#utility.yul\":17798:17807   */\n      not\n        /* \"#utility.yul\":17790:17796   */\n      dup5\n        /* \"#utility.yul\":17786:17808   */\n      and\n        /* \"#utility.yul\":17836:17873   */\n      tag_454\n        /* \"#utility.yul\":17868:17872   */\n      dup7\n        /* \"#utility.yul\":17836:17873   */\n      tag_223\n      jump\t// in\n    tag_454:\n        /* \"#utility.yul\":17895:17896   */\n      0x00\n        /* \"#utility.yul\":17909:18117   */\n    tag_455:\n        /* \"#utility.yul\":17923:17930   */\n      dup3\n        /* \"#utility.yul\":17920:17921   */\n      dup2\n        /* \"#utility.yul\":17917:17931   */\n      lt\n        /* \"#utility.yul\":17909:18117   */\n      iszero\n      tag_457\n      jumpi\n        /* \"#utility.yul\":18002:18011   */\n      dup5\n        /* \"#utility.yul\":17997:18000   */\n      dup10\n        /* \"#utility.yul\":17993:18012   */\n      add\n        /* \"#utility.yul\":17987:18013   */\n      mload\n        /* \"#utility.yul\":17979:17985   */\n      dup3\n        /* \"#utility.yul\":17972:18014   */\n      sstore\n        /* \"#utility.yul\":18053:18054   */\n      0x01\n        /* \"#utility.yul\":18045:18051   */\n      dup3\n        /* \"#utility.yul\":18041:18055   */\n      add\n        /* \"#utility.yul\":18031:18055   */\n      swap2\n      pop\n        /* \"#utility.yul\":18100:18102   */\n      0x20\n        /* \"#utility.yul\":18089:18098   */\n      dup6\n        /* \"#utility.yul\":18085:18103   */\n      add\n        /* \"#utility.yul\":18072:18103   */\n      swap5\n      pop\n        /* \"#utility.yul\":17946:17950   */\n      0x20\n        /* \"#utility.yul\":17943:17944   */\n      dup2\n        /* \"#utility.yul\":17939:17951   */\n      add\n        /* \"#utility.yul\":17934:17951   */\n      swap1\n      pop\n        /* \"#utility.yul\":17909:18117   */\n      jump(tag_455)\n    tag_457:\n        /* \"#utility.yul\":18145:18151   */\n      dup7\n        /* \"#utility.yul\":18136:18143   */\n      dup4\n        /* \"#utility.yul\":18133:18152   */\n      lt\n        /* \"#utility.yul\":18130:18309   */\n      iszero\n      tag_458\n      jumpi\n        /* \"#utility.yul\":18203:18212   */\n      dup5\n        /* \"#utility.yul\":18198:18201   */\n      dup10\n        /* \"#utility.yul\":18194:18213   */\n      add\n        /* \"#utility.yul\":18188:18214   */\n      mload\n        /* \"#utility.yul\":18246:18294   */\n      tag_459\n        /* \"#utility.yul\":18288:18292   */\n      0x1f\n        /* \"#utility.yul\":18280:18286   */\n      dup10\n        /* \"#utility.yul\":18276:18293   */\n      and\n        /* \"#utility.yul\":18265:18274   */\n      dup3\n        /* \"#utility.yul\":18246:18294   */\n      tag_236\n      jump\t// in\n    tag_459:\n        /* \"#utility.yul\":18238:18244   */\n      dup4\n        /* \"#utility.yul\":18231:18295   */\n      sstore\n        /* \"#utility.yul\":18153:18309   */\n      pop\n        /* \"#utility.yul\":18130:18309   */\n    tag_458:\n        /* \"#utility.yul\":18355:18356   */\n      0x01\n        /* \"#utility.yul\":18351:18352   */\n      0x02\n        /* \"#utility.yul\":18343:18349   */\n      dup9\n        /* \"#utility.yul\":18339:18353   */\n      mul\n        /* \"#utility.yul\":18335:18357   */\n      add\n        /* \"#utility.yul\":18329:18333   */\n      dup9\n        /* \"#utility.yul\":18322:18358   */\n      sstore\n        /* \"#utility.yul\":17757:18368   */\n      pop\n      pop\n      pop\n        /* \"#utility.yul\":17720:18607   */\n    tag_450:\n      pop\n        /* \"#utility.yul\":17310:18613   */\n      pop\n      pop\n      pop\n        /* \"#utility.yul\":17218:18613   */\n      pop\n      pop\n      jump\t// out\n        /* \"#utility.yul\":18619:18857   */\n    tag_238:\n        /* \"#utility.yul\":18759:18793   */\n      0x566f74696e67206e6f7420696e2070726f67726573732e20596f752063616e20\n        /* \"#utility.yul\":18755:18756   */\n      0x00\n        /* \"#utility.yul\":18747:18753   */\n      dup3\n        /* \"#utility.yul\":18743:18757   */\n      add\n        /* \"#utility.yul\":18736:18794   */\n      mstore\n        /* \"#utility.yul\":18828:18849   */\n      0x6e6f742064656c65746567617465206e6f772e00000000000000000000000000\n        /* \"#utility.yul\":18823:18825   */\n      0x20\n        /* \"#utility.yul\":18815:18821   */\n      dup3\n        /* \"#utility.yul\":18811:18826   */\n      add\n        /* \"#utility.yul\":18804:18850   */\n      mstore\n        /* \"#utility.yul\":18619:18857   */\n      pop\n      jump\t// out\n        /* \"#utility.yul\":18863:19229   */\n    tag_239:\n        /* \"#utility.yul\":19005:19008   */\n      0x00\n        /* \"#utility.yul\":19026:19093   */\n      tag_462\n        /* \"#utility.yul\":19090:19092   */\n      0x33\n        /* \"#utility.yul\":19085:19088   */\n      dup4\n        /* \"#utility.yul\":19026:19093   */\n      tag_209\n      jump\t// in\n    tag_462:\n        /* \"#utility.yul\":19019:19093   */\n      swap2\n      pop\n        /* \"#utility.yul\":19102:19195   */\n      tag_463\n        /* \"#utility.yul\":19191:19194   */\n      dup3\n        /* \"#utility.yul\":19102:19195   */\n      tag_238\n      jump\t// in\n    tag_463:\n        /* \"#utility.yul\":19220:19222   */\n      0x40\n        /* \"#utility.yul\":19215:19218   */\n      dup3\n        /* \"#utility.yul\":19211:19223   */\n      add\n        /* \"#utility.yul\":19204:19223   */\n      swap1\n      pop\n        /* \"#utility.yul\":18863:19229   */\n      swap2\n      swap1\n      pop\n      jump\t// out\n        /* \"#utility.yul\":19235:19654   */\n    tag_84:\n        /* \"#utility.yul\":19401:19405   */\n      0x00\n        /* \"#utility.yul\":19439:19441   */\n      0x20\n        /* \"#utility.yul\":19428:19437   */\n      dup3\n        /* \"#utility.yul\":19424:19442   */\n      add\n        /* \"#utility.yul\":19416:19442   */\n      swap1\n      pop\n        /* \"#utility.yul\":19488:19497   */\n      dup2\n        /* \"#utility.yul\":19482:19486   */\n      dup2\n        /* \"#utility.yul\":19478:19498   */\n      sub\n        /* \"#utility.yul\":19474:19475   */\n      0x00\n        /* \"#utility.yul\":19463:19472   */\n      dup4\n        /* \"#utility.yul\":19459:19476   */\n      add\n        /* \"#utility.yul\":19452:19499   */\n      mstore\n        /* \"#utility.yul\":19516:19647   */\n      tag_465\n        /* \"#utility.yul\":19642:19646   */\n      dup2\n        /* \"#utility.yul\":19516:19647   */\n      tag_239\n      jump\t// in\n    tag_465:\n        /* \"#utility.yul\":19508:19647   */\n      swap1\n      pop\n        /* \"#utility.yul\":19235:19654   */\n      swap2\n      swap1\n      pop\n      jump\t// out\n        /* \"#utility.yul\":19660:19949   */\n    tag_240:\n        /* \"#utility.yul\":19800:19834   */\n      0x4f6e6c792061646472657373206f776e65722063616e2064656c656761746520\n        /* \"#utility.yul\":19796:19797   */\n      0x00\n        /* \"#utility.yul\":19788:19794   */\n      dup3\n        /* \"#utility.yul\":19784:19798   */\n      add\n        /* \"#utility.yul\":19777:19835   */\n      mstore\n        /* \"#utility.yul\":19869:19903   */\n      0x766f74696e672072696768747320746f20616e6f746865722061646472657373\n        /* \"#utility.yul\":19864:19866   */\n      0x20\n        /* \"#utility.yul\":19856:19862   */\n      dup3\n        /* \"#utility.yul\":19852:19867   */\n      add\n        /* \"#utility.yul\":19845:19904   */\n      mstore\n        /* \"#utility.yul\":19938:19941   */\n      0x2e00000000000000000000000000000000000000000000000000000000000000\n        /* \"#utility.yul\":19933:19935   */\n      0x40\n        /* \"#utility.yul\":19925:19931   */\n      dup3\n        /* \"#utility.yul\":19921:19936   */\n      add\n        /* \"#utility.yul\":19914:19942   */\n      mstore\n        /* \"#utility.yul\":19660:19949   */\n      pop\n      jump\t// out\n        /* \"#utility.yul\":19955:20321   */\n    tag_241:\n        /* \"#utility.yul\":20097:20100   */\n      0x00\n        /* \"#utility.yul\":20118:20185   */\n      tag_468\n        /* \"#utility.yul\":20182:20184   */\n      0x41\n        /* \"#utility.yul\":20177:20180   */\n      dup4\n        /* \"#utility.yul\":20118:20185   */\n      tag_209\n      jump\t// in\n    tag_468:\n        /* \"#utility.yul\":20111:20185   */\n      swap2\n      pop\n        /* \"#utility.yul\":20194:20287   */\n      tag_469\n        /* \"#utility.yul\":20283:20286   */\n      dup3\n        /* \"#utility.yul\":20194:20287   */\n      tag_240\n      jump\t// in\n    tag_469:\n        /* \"#utility.yul\":20312:20314   */\n      0x60\n        /* \"#utility.yul\":20307:20310   */\n      dup3\n        /* \"#utility.yul\":20303:20315   */\n      add\n        /* \"#utility.yul\":20296:20315   */\n      swap1\n      pop\n        /* \"#utility.yul\":19955:20321   */\n      swap2\n      swap1\n      pop\n      jump\t// out\n        /* \"#utility.yul\":20327:20746   */\n    tag_87:\n        /* \"#utility.yul\":20493:20497   */\n      0x00\n        /* \"#utility.yul\":20531:20533   */\n      0x20\n        /* \"#utility.yul\":20520:20529   */\n      dup3\n        /* \"#utility.yul\":20516:20534   */\n      add\n        /* \"#utility.yul\":20508:20534   */\n      swap1\n      pop\n        /* \"#utility.yul\":20580:20589   */\n      dup2\n        /* \"#utility.yul\":20574:20578   */\n      dup2\n        /* \"#utility.yul\":20570:20590   */\n      sub\n        /* \"#utility.yul\":20566:20567   */\n      0x00\n        /* \"#utility.yul\":20555:20564   */\n      dup4\n        /* \"#utility.yul\":20551:20568   */\n      add\n        /* \"#utility.yul\":20544:20591   */\n      mstore\n        /* \"#utility.yul\":20608:20739   */\n      tag_471\n        /* \"#utility.yul\":20734:20738   */\n      dup2\n        /* \"#utility.yul\":20608:20739   */\n      tag_241\n      jump\t// in\n    tag_471:\n        /* \"#utility.yul\":20600:20739   */\n      swap1\n      pop\n        /* \"#utility.yul\":20327:20746   */\n      swap2\n      swap1\n      pop\n      jump\t// out\n        /* \"#utility.yul\":20752:20998   */\n    tag_242:\n        /* \"#utility.yul\":20892:20926   */\n      0x596f752063616e206e6f742064656c656761746520766f74696e672072696768\n        /* \"#utility.yul\":20888:20889   */\n      0x00\n        /* \"#utility.yul\":20880:20886   */\n      dup3\n        /* \"#utility.yul\":20876:20890   */\n      add\n        /* \"#utility.yul\":20869:20927   */\n      mstore\n        /* \"#utility.yul\":20961:20990   */\n      0x74732e20596f75206861766520616c726561647920766f7465642e0000000000\n        /* \"#utility.yul\":20956:20958   */\n      0x20\n        /* \"#utility.yul\":20948:20954   */\n      dup3\n        /* \"#utility.yul\":20944:20959   */\n      add\n        /* \"#utility.yul\":20937:20991   */\n      mstore\n        /* \"#utility.yul\":20752:20998   */\n      pop\n      jump\t// out\n        /* \"#utility.yul\":21004:21370   */\n    tag_243:\n        /* \"#utility.yul\":21146:21149   */\n      0x00\n        /* \"#utility.yul\":21167:21234   */\n      tag_474\n        /* \"#utility.yul\":21231:21233   */\n      0x3b\n        /* \"#utility.yul\":21226:21229   */\n      dup4\n        /* \"#utility.yul\":21167:21234   */\n      tag_209\n      jump\t// in\n    tag_474:\n        /* \"#utility.yul\":21160:21234   */\n      swap2\n      pop\n        /* \"#utility.yul\":21243:21336   */\n      tag_475\n        /* \"#utility.yul\":21332:21335   */\n      dup3\n        /* \"#utility.yul\":21243:21336   */\n      tag_242\n      jump\t// in\n    tag_475:\n        /* \"#utility.yul\":21361:21363   */\n      0x40\n        /* \"#utility.yul\":21356:21359   */\n      dup3\n        /* \"#utility.yul\":21352:21364   */\n      add\n        /* \"#utility.yul\":21345:21364   */\n      swap1\n      pop\n        /* \"#utility.yul\":21004:21370   */\n      swap2\n      swap1\n      pop\n      jump\t// out\n        /* \"#utility.yul\":21376:21795   */\n    tag_90:\n        /* \"#utility.yul\":21542:21546   */\n      0x00\n        /* \"#utility.yul\":21580:21582   */\n      0x20\n        /* \"#utility.yul\":21569:21578   */\n      dup3\n        /* \"#utility.yul\":21565:21583   */\n      add\n        /* \"#utility.yul\":21557:21583   */\n      swap1\n      pop\n        /* \"#utility.yul\":21629:21638   */\n      dup2\n        /* \"#utility.yul\":21623:21627   */\n      dup2\n        /* \"#utility.yul\":21619:21639   */\n      sub\n        /* \"#utility.yul\":21615:21616   */\n      0x00\n        /* \"#utility.yul\":21604:21613   */\n      dup4\n        /* \"#utility.yul\":21600:21617   */\n      add\n        /* \"#utility.yul\":21593:21640   */\n      mstore\n        /* \"#utility.yul\":21657:21788   */\n      tag_477\n        /* \"#utility.yul\":21783:21787   */\n      dup2\n        /* \"#utility.yul\":21657:21788   */\n      tag_243\n      jump\t// in\n    tag_477:\n        /* \"#utility.yul\":21649:21788   */\n      swap1\n      pop\n        /* \"#utility.yul\":21376:21795   */\n      swap2\n      swap1\n      pop\n      jump\t// out\n        /* \"#utility.yul\":21801:22031   */\n    tag_244:\n        /* \"#utility.yul\":21941:21975   */\n      0x45697468657220766f74696e6720686173206e6f742073746172746564206f72\n        /* \"#utility.yul\":21937:21938   */\n      0x00\n        /* \"#utility.yul\":21929:21935   */\n      dup3\n        /* \"#utility.yul\":21925:21939   */\n      add\n        /* \"#utility.yul\":21918:21976   */\n      mstore\n        /* \"#utility.yul\":22010:22023   */\n      0x20636f6d706c657465642e000000000000000000000000000000000000000000\n        /* \"#utility.yul\":22005:22007   */\n      0x20\n        /* \"#utility.yul\":21997:22003   */\n      dup3\n        /* \"#utility.yul\":21993:22008   */\n      add\n        /* \"#utility.yul\":21986:22024   */\n      mstore\n        /* \"#utility.yul\":21801:22031   */\n      pop\n      jump\t// out\n        /* \"#utility.yul\":22037:22403   */\n    tag_245:\n        /* \"#utility.yul\":22179:22182   */\n      0x00\n        /* \"#utility.yul\":22200:22267   */\n      tag_480\n        /* \"#utility.yul\":22264:22266   */\n      0x2b\n        /* \"#utility.yul\":22259:22262   */\n      dup4\n        /* \"#utility.yul\":22200:22267   */\n      tag_209\n      jump\t// in\n    tag_480:\n        /* \"#utility.yul\":22193:22267   */\n      swap2\n      pop\n        /* \"#utility.yul\":22276:22369   */\n      tag_481\n        /* \"#utility.yul\":22365:22368   */\n      dup3\n        /* \"#utility.yul\":22276:22369   */\n      tag_244\n      jump\t// in\n    tag_481:\n        /* \"#utility.yul\":22394:22396   */\n      0x40\n        /* \"#utility.yul\":22389:22392   */\n      dup3\n        /* \"#utility.yul\":22385:22397   */\n      add\n        /* \"#utility.yul\":22378:22397   */\n      swap1\n      pop\n        /* \"#utility.yul\":22037:22403   */\n      swap2\n      swap1\n      pop\n      jump\t// out\n        /* \"#utility.yul\":22409:22828   */\n    tag_107:\n        /* \"#utility.yul\":22575:22579   */\n      0x00\n        /* \"#utility.yul\":22613:22615   */\n      0x20\n        /* \"#utility.yul\":22602:22611   */\n      dup3\n        /* \"#utility.yul\":22598:22616   */\n      add\n        /* \"#utility.yul\":22590:22616   */\n      swap1\n      pop\n        /* \"#utility.yul\":22662:22671   */\n      dup2\n        /* \"#utility.yul\":22656:22660   */\n      dup2\n        /* \"#utility.yul\":22652:22672   */\n      sub\n        /* \"#utility.yul\":22648:22649   */\n      0x00\n        /* \"#utility.yul\":22637:22646   */\n      dup4\n        /* \"#utility.yul\":22633:22650   */\n      add\n        /* \"#utility.yul\":22626:22673   */\n      mstore\n        /* \"#utility.yul\":22690:22821   */\n      tag_483\n        /* \"#utility.yul\":22816:22820   */\n      dup2\n        /* \"#utility.yul\":22690:22821   */\n      tag_245\n      jump\t// in\n    tag_483:\n        /* \"#utility.yul\":22682:22821   */\n      swap1\n      pop\n        /* \"#utility.yul\":22409:22828   */\n      swap2\n      swap1\n      pop\n      jump\t// out\n        /* \"#utility.yul\":22834:23016   */\n    tag_246:\n        /* \"#utility.yul\":22974:23008   */\n      0x63616e646964617465207769746820696420646f6573206e6f74206578697374\n        /* \"#utility.yul\":22970:22971   */\n      0x00\n        /* \"#utility.yul\":22962:22968   */\n      dup3\n        /* \"#utility.yul\":22958:22972   */\n      add\n        /* \"#utility.yul\":22951:23009   */\n      mstore\n        /* \"#utility.yul\":22834:23016   */\n      pop\n      jump\t// out\n        /* \"#utility.yul\":23022:23388   */\n    tag_247:\n        /* \"#utility.yul\":23164:23167   */\n      0x00\n        /* \"#utility.yul\":23185:23252   */\n      tag_486\n        /* \"#utility.yul\":23249:23251   */\n      0x20\n        /* \"#utility.yul\":23244:23247   */\n      dup4\n        /* \"#utility.yul\":23185:23252   */\n      tag_209\n      jump\t// in\n    tag_486:\n        /* \"#utility.yul\":23178:23252   */\n      swap2\n      pop\n        /* \"#utility.yul\":23261:23354   */\n      tag_487\n        /* \"#utility.yul\":23350:23353   */\n      dup3\n        /* \"#utility.yul\":23261:23354   */\n      tag_246\n      jump\t// in\n    tag_487:\n        /* \"#utility.yul\":23379:23381   */\n      0x20\n        /* \"#utility.yul\":23374:23377   */\n      dup3\n        /* \"#utility.yul\":23370:23382   */\n      add\n        /* \"#utility.yul\":23363:23382   */\n      swap1\n      pop\n        /* \"#utility.yul\":23022:23388   */\n      swap2\n      swap1\n      pop\n      jump\t// out\n        /* \"#utility.yul\":23394:23813   */\n    tag_127:\n        /* \"#utility.yul\":23560:23564   */\n      0x00\n        /* \"#utility.yul\":23598:23600   */\n      0x20\n        /* \"#utility.yul\":23587:23596   */\n      dup3\n        /* \"#utility.yul\":23583:23601   */\n      add\n        /* \"#utility.yul\":23575:23601   */\n      swap1\n      pop\n        /* \"#utility.yul\":23647:23656   */\n      dup2\n        /* \"#utility.yul\":23641:23645   */\n      dup2\n        /* \"#utility.yul\":23637:23657   */\n      sub\n        /* \"#utility.yul\":23633:23634   */\n      0x00\n        /* \"#utility.yul\":23622:23631   */\n      dup4\n        /* \"#utility.yul\":23618:23635   */\n      add\n        /* \"#utility.yul\":23611:23658   */\n      mstore\n        /* \"#utility.yul\":23675:23806   */\n      tag_489\n        /* \"#utility.yul\":23801:23805   */\n      dup2\n        /* \"#utility.yul\":23675:23806   */\n      tag_247\n      jump\t// in\n    tag_489:\n        /* \"#utility.yul\":23667:23806   */\n      swap1\n      pop\n        /* \"#utility.yul\":23394:23813   */\n      swap2\n      swap1\n      pop\n      jump\t// out\n        /* \"#utility.yul\":23819:24039   */\n    tag_248:\n        /* \"#utility.yul\":23959:23993   */\n      0x766f7465722077697468206164647265737320646f6573206e6f742065786973\n        /* \"#utility.yul\":23955:23956   */\n      0x00\n        /* \"#utility.yul\":23947:23953   */\n      dup3\n        /* \"#utility.yul\":23943:23957   */\n      add\n        /* \"#utility.yul\":23936:23994   */\n      mstore\n        /* \"#utility.yul\":24028:24031   */\n      0x7400000000000000000000000000000000000000000000000000000000000000\n        /* \"#utility.yul\":24023:24025   */\n      0x20\n        /* \"#utility.yul\":24015:24021   */\n      dup3\n        /* \"#utility.yul\":24011:24026   */\n      add\n        /* \"#utility.yul\":24004:24032   */\n      mstore\n        /* \"#utility.yul\":23819:24039   */\n      pop\n      jump\t// out\n        /* \"#utility.yul\":24045:24411   */\n    tag_249:\n        /* \"#utility.yul\":24187:24190   */\n      0x00\n        /* \"#utility.yul\":24208:24275   */\n      tag_492\n        /* \"#utility.yul\":24272:24274   */\n      0x21\n        /* \"#utility.yul\":24267:24270   */\n      dup4\n        /* \"#utility.yul\":24208:24275   */\n      tag_209\n      jump\t// in\n    tag_492:\n        /* \"#utility.yul\":24201:24275   */\n      swap2\n      pop\n        /* \"#utility.yul\":24284:24377   */\n      tag_493\n        /* \"#utility.yul\":24373:24376   */\n      dup3\n        /* \"#utility.yul\":24284:24377   */\n      tag_248\n      jump\t// in\n    tag_493:\n        /* \"#utility.yul\":24402:24404   */\n      0x40\n        /* \"#utility.yul\":24397:24400   */\n      dup3\n        /* \"#utility.yul\":24393:24405   */\n      add\n        /* \"#utility.yul\":24386:24405   */\n      swap1\n      pop\n        /* \"#utility.yul\":24045:24411   */\n      swap2\n      swap1\n      pop\n      jump\t// out\n        /* \"#utility.yul\":24417:24836   */\n    tag_130:\n        /* \"#utility.yul\":24583:24587   */\n      0x00\n        /* \"#utility.yul\":24621:24623   */\n      0x20\n        /* \"#utility.yul\":24610:24619   */\n      dup3\n        /* \"#utility.yul\":24606:24624   */\n      add\n        /* \"#utility.yul\":24598:24624   */\n      swap1\n      pop\n        /* \"#utility.yul\":24670:24679   */\n      dup2\n        /* \"#utility.yul\":24664:24668   */\n      dup2\n        /* \"#utility.yul\":24660:24680   */\n      sub\n        /* \"#utility.yul\":24656:24657   */\n      0x00\n        /* \"#utility.yul\":24645:24654   */\n      dup4\n        /* \"#utility.yul\":24641:24658   */\n      add\n        /* \"#utility.yul\":24634:24681   */\n      mstore\n        /* \"#utility.yul\":24698:24829   */\n      tag_495\n        /* \"#utility.yul\":24824:24828   */\n      dup2\n        /* \"#utility.yul\":24698:24829   */\n      tag_249\n      jump\t// in\n    tag_495:\n        /* \"#utility.yul\":24690:24829   */\n      swap1\n      pop\n        /* \"#utility.yul\":24417:24836   */\n      swap2\n      swap1\n      pop\n      jump\t// out\n        /* \"#utility.yul\":24842:25011   */\n    tag_250:\n        /* \"#utility.yul\":24982:25003   */\n      0x566f746520616c726561647920706c6163656400000000000000000000000000\n        /* \"#utility.yul\":24978:24979   */\n      0x00\n        /* \"#utility.yul\":24970:24976   */\n      dup3\n        /* \"#utility.yul\":24966:24980   */\n      add\n        /* \"#utility.yul\":24959:25004   */\n      mstore\n        /* \"#utility.yul\":24842:25011   */\n      pop\n      jump\t// out\n        /* \"#utility.yul\":25017:25383   */\n    tag_251:\n        /* \"#utility.yul\":25159:25162   */\n      0x00\n        /* \"#utility.yul\":25180:25247   */\n      tag_498\n        /* \"#utility.yul\":25244:25246   */\n      0x13\n        /* \"#utility.yul\":25239:25242   */\n      dup4\n        /* \"#utility.yul\":25180:25247   */\n      tag_209\n      jump\t// in\n    tag_498:\n        /* \"#utility.yul\":25173:25247   */\n      swap2\n      pop\n        /* \"#utility.yul\":25256:25349   */\n      tag_499\n        /* \"#utility.yul\":25345:25348   */\n      dup3\n        /* \"#utility.yul\":25256:25349   */\n      tag_250\n      jump\t// in\n    tag_499:\n        /* \"#utility.yul\":25374:25376   */\n      0x20\n        /* \"#utility.yul\":25369:25372   */\n      dup3\n        /* \"#utility.yul\":25365:25377   */\n      add\n        /* \"#utility.yul\":25358:25377   */\n      swap1\n      pop\n        /* \"#utility.yul\":25017:25383   */\n      swap2\n      swap1\n      pop\n      jump\t// out\n        /* \"#utility.yul\":25389:25808   */\n    tag_133:\n        /* \"#utility.yul\":25555:25559   */\n      0x00\n        /* \"#utility.yul\":25593:25595   */\n      0x20\n        /* \"#utility.yul\":25582:25591   */\n      dup3\n        /* \"#utility.yul\":25578:25596   */\n      add\n        /* \"#utility.yul\":25570:25596   */\n      swap1\n      pop\n        /* \"#utility.yul\":25642:25651   */\n      dup2\n        /* \"#utility.yul\":25636:25640   */\n      dup2\n        /* \"#utility.yul\":25632:25652   */\n      sub\n        /* \"#utility.yul\":25628:25629   */\n      0x00\n        /* \"#utility.yul\":25617:25626   */\n      dup4\n        /* \"#utility.yul\":25613:25630   */\n      add\n        /* \"#utility.yul\":25606:25653   */\n      mstore\n        /* \"#utility.yul\":25670:25801   */\n      tag_501\n        /* \"#utility.yul\":25796:25800   */\n      dup2\n        /* \"#utility.yul\":25670:25801   */\n      tag_251\n      jump\t// in\n    tag_501:\n        /* \"#utility.yul\":25662:25801   */\n      swap1\n      pop\n        /* \"#utility.yul\":25389:25808   */\n      swap2\n      swap1\n      pop\n      jump\t// out\n        /* \"#utility.yul\":25814:25980   */\n    tag_252:\n        /* \"#utility.yul\":25954:25972   */\n      0x796f752063616e206e6f7420766f746500000000000000000000000000000000\n        /* \"#utility.yul\":25950:25951   */\n      0x00\n        /* \"#utility.yul\":25942:25948   */\n      dup3\n        /* \"#utility.yul\":25938:25952   */\n      add\n        /* \"#utility.yul\":25931:25973   */\n      mstore\n        /* \"#utility.yul\":25814:25980   */\n      pop\n      jump\t// out\n        /* \"#utility.yul\":25986:26352   */\n    tag_253:\n        /* \"#utility.yul\":26128:26131   */\n      0x00\n        /* \"#utility.yul\":26149:26216   */\n      tag_504\n        /* \"#utility.yul\":26213:26215   */\n      0x10\n        /* \"#utility.yul\":26208:26211   */\n      dup4\n        /* \"#utility.yul\":26149:26216   */\n      tag_209\n      jump\t// in\n    tag_504:\n        /* \"#utility.yul\":26142:26216   */\n      swap2\n      pop\n        /* \"#utility.yul\":26225:26318   */\n      tag_505\n        /* \"#utility.yul\":26314:26317   */\n      dup3\n        /* \"#utility.yul\":26225:26318   */\n      tag_252\n      jump\t// in\n    tag_505:\n        /* \"#utility.yul\":26343:26345   */\n      0x20\n        /* \"#utility.yul\":26338:26341   */\n      dup3\n        /* \"#utility.yul\":26334:26346   */\n      add\n        /* \"#utility.yul\":26327:26346   */\n      swap1\n      pop\n        /* \"#utility.yul\":25986:26352   */\n      swap2\n      swap1\n      pop\n      jump\t// out\n        /* \"#utility.yul\":26358:26777   */\n    tag_137:\n        /* \"#utility.yul\":26524:26528   */\n      0x00\n        /* \"#utility.yul\":26562:26564   */\n      0x20\n        /* \"#utility.yul\":26551:26560   */\n      dup3\n        /* \"#utility.yul\":26547:26565   */\n      add\n        /* \"#utility.yul\":26539:26565   */\n      swap1\n      pop\n        /* \"#utility.yul\":26611:26620   */\n      dup2\n        /* \"#utility.yul\":26605:26609   */\n      dup2\n        /* \"#utility.yul\":26601:26621   */\n      sub\n        /* \"#utility.yul\":26597:26598   */\n      0x00\n        /* \"#utility.yul\":26586:26595   */\n      dup4\n        /* \"#utility.yul\":26582:26599   */\n      add\n        /* \"#utility.yul\":26575:26622   */\n      mstore\n        /* \"#utility.yul\":26639:26770   */\n      tag_507\n        /* \"#utility.yul\":26765:26769   */\n      dup2\n        /* \"#utility.yul\":26639:26770   */\n      tag_253\n      jump\t// in\n    tag_507:\n        /* \"#utility.yul\":26631:26770   */\n      swap1\n      pop\n        /* \"#utility.yul\":26358:26777   */\n      swap2\n      swap1\n      pop\n      jump\t// out\n        /* \"#utility.yul\":26783:26974   */\n    tag_139:\n        /* \"#utility.yul\":26823:26826   */\n      0x00\n        /* \"#utility.yul\":26842:26862   */\n      tag_509\n        /* \"#utility.yul\":26860:26861   */\n      dup3\n        /* \"#utility.yul\":26842:26862   */\n      tag_204\n      jump\t// in\n    tag_509:\n        /* \"#utility.yul\":26837:26862   */\n      swap2\n      pop\n        /* \"#utility.yul\":26876:26896   */\n      tag_510\n        /* \"#utility.yul\":26894:26895   */\n      dup4\n        /* \"#utility.yul\":26876:26896   */\n      tag_204\n      jump\t// in\n    tag_510:\n        /* \"#utility.yul\":26871:26896   */\n      swap3\n      pop\n        /* \"#utility.yul\":26919:26920   */\n      dup3\n        /* \"#utility.yul\":26916:26917   */\n      dup3\n        /* \"#utility.yul\":26912:26921   */\n      add\n        /* \"#utility.yul\":26905:26921   */\n      swap1\n      pop\n        /* \"#utility.yul\":26940:26943   */\n      dup1\n        /* \"#utility.yul\":26937:26938   */\n      dup3\n        /* \"#utility.yul\":26934:26944   */\n      gt\n        /* \"#utility.yul\":26931:26967   */\n      iszero\n      tag_511\n      jumpi\n        /* \"#utility.yul\":26947:26965   */\n      tag_512\n      tag_221\n      jump\t// in\n    tag_512:\n        /* \"#utility.yul\":26931:26967   */\n    tag_511:\n        /* \"#utility.yul\":26783:26974   */\n      swap3\n      swap2\n      pop\n      pop\n      jump\t// out\n        /* \"#utility.yul\":26980:27153   */\n    tag_254:\n        /* \"#utility.yul\":27120:27145   */\n      0x302063616e646964617465732072656769737465726564000000000000000000\n        /* \"#utility.yul\":27116:27117   */\n      0x00\n        /* \"#utility.yul\":27108:27114   */\n      dup3\n        /* \"#utility.yul\":27104:27118   */\n      add\n        /* \"#utility.yul\":27097:27146   */\n      mstore\n        /* \"#utility.yul\":26980:27153   */\n      pop\n      jump\t// out\n        /* \"#utility.yul\":27159:27525   */\n    tag_255:\n        /* \"#utility.yul\":27301:27304   */\n      0x00\n        /* \"#utility.yul\":27322:27389   */\n      tag_515\n        /* \"#utility.yul\":27386:27388   */\n      0x17\n        /* \"#utility.yul\":27381:27384   */\n      dup4\n        /* \"#utility.yul\":27322:27389   */\n      tag_209\n      jump\t// in\n    tag_515:\n        /* \"#utility.yul\":27315:27389   */\n      swap2\n      pop\n        /* \"#utility.yul\":27398:27491   */\n      tag_516\n        /* \"#utility.yul\":27487:27490   */\n      dup3\n        /* \"#utility.yul\":27398:27491   */\n      tag_254\n      jump\t// in\n    tag_516:\n        /* \"#utility.yul\":27516:27518   */\n      0x20\n        /* \"#utility.yul\":27511:27514   */\n      dup3\n        /* \"#utility.yul\":27507:27519   */\n      add\n        /* \"#utility.yul\":27500:27519   */\n      swap1\n      pop\n        /* \"#utility.yul\":27159:27525   */\n      swap2\n      swap1\n      pop\n      jump\t// out\n        /* \"#utility.yul\":27531:27950   */\n    tag_158:\n        /* \"#utility.yul\":27697:27701   */\n      0x00\n        /* \"#utility.yul\":27735:27737   */\n      0x20\n        /* \"#utility.yul\":27724:27733   */\n      dup3\n        /* \"#utility.yul\":27720:27738   */\n      add\n        /* \"#utility.yul\":27712:27738   */\n      swap1\n      pop\n        /* \"#utility.yul\":27784:27793   */\n      dup2\n        /* \"#utility.yul\":27778:27782   */\n      dup2\n        /* \"#utility.yul\":27774:27794   */\n      sub\n        /* \"#utility.yul\":27770:27771   */\n      0x00\n        /* \"#utility.yul\":27759:27768   */\n      dup4\n        /* \"#utility.yul\":27755:27772   */\n      add\n        /* \"#utility.yul\":27748:27795   */\n      mstore\n        /* \"#utility.yul\":27812:27943   */\n      tag_518\n        /* \"#utility.yul\":27938:27942   */\n      dup2\n        /* \"#utility.yul\":27812:27943   */\n      tag_255\n      jump\t// in\n    tag_518:\n        /* \"#utility.yul\":27804:27943   */\n      swap1\n      pop\n        /* \"#utility.yul\":27531:27950   */\n      swap2\n      swap1\n      pop\n      jump\t// out\n        /* \"#utility.yul\":27956:28125   */\n    tag_256:\n        /* \"#utility.yul\":28096:28117   */\n      0x3020766f74657273207265676973746572656400000000000000000000000000\n        /* \"#utility.yul\":28092:28093   */\n      0x00\n        /* \"#utility.yul\":28084:28090   */\n      dup3\n        /* \"#utility.yul\":28080:28094   */\n      add\n        /* \"#utility.yul\":28073:28118   */\n      mstore\n        /* \"#utility.yul\":27956:28125   */\n      pop\n      jump\t// out\n        /* \"#utility.yul\":28131:28497   */\n    tag_257:\n        /* \"#utility.yul\":28273:28276   */\n      0x00\n        /* \"#utility.yul\":28294:28361   */\n      tag_521\n        /* \"#utility.yul\":28358:28360   */\n      0x13\n        /* \"#utility.yul\":28353:28356   */\n      dup4\n        /* \"#utility.yul\":28294:28361   */\n      tag_209\n      jump\t// in\n    tag_521:\n        /* \"#utility.yul\":28287:28361   */\n      swap2\n      pop\n        /* \"#utility.yul\":28370:28463   */\n      tag_522\n        /* \"#utility.yul\":28459:28462   */\n      dup3\n        /* \"#utility.yul\":28370:28463   */\n      tag_256\n      jump\t// in\n    tag_522:\n        /* \"#utility.yul\":28488:28490   */\n      0x20\n        /* \"#utility.yul\":28483:28486   */\n      dup3\n        /* \"#utility.yul\":28479:28491   */\n      add\n        /* \"#utility.yul\":28472:28491   */\n      swap1\n      pop\n        /* \"#utility.yul\":28131:28497   */\n      swap2\n      swap1\n      pop\n      jump\t// out\n        /* \"#utility.yul\":28503:28922   */\n    tag_161:\n        /* \"#utility.yul\":28669:28673   */\n      0x00\n        /* \"#utility.yul\":28707:28709   */\n      0x20\n        /* \"#utility.yul\":28696:28705   */\n      dup3\n        /* \"#utility.yul\":28692:28710   */\n      add\n        /* \"#utility.yul\":28684:28710   */\n      swap1\n      pop\n        /* \"#utility.yul\":28756:28765   */\n      dup2\n        /* \"#utility.yul\":28750:28754   */\n      dup2\n        /* \"#utility.yul\":28746:28766   */\n      sub\n        /* \"#utility.yul\":28742:28743   */\n      0x00\n        /* \"#utility.yul\":28731:28740   */\n      dup4\n        /* \"#utility.yul\":28727:28744   */\n      add\n        /* \"#utility.yul\":28720:28767   */\n      mstore\n        /* \"#utility.yul\":28784:28915   */\n      tag_524\n        /* \"#utility.yul\":28910:28914   */\n      dup2\n        /* \"#utility.yul\":28784:28915   */\n      tag_257\n      jump\t// in\n    tag_524:\n        /* \"#utility.yul\":28776:28915   */\n      swap1\n      pop\n        /* \"#utility.yul\":28503:28922   */\n      swap2\n      swap1\n      pop\n      jump\t// out\n        /* \"#utility.yul\":28928:29048   */\n    tag_258:\n        /* \"#utility.yul\":29016:29017   */\n      0x03\n        /* \"#utility.yul\":29009:29014   */\n      dup2\n        /* \"#utility.yul\":29006:29018   */\n      lt\n        /* \"#utility.yul\":28996:29042   */\n      tag_526\n      jumpi\n        /* \"#utility.yul\":29022:29040   */\n      tag_527\n      tag_64\n      jump\t// in\n    tag_527:\n        /* \"#utility.yul\":28996:29042   */\n    tag_526:\n        /* \"#utility.yul\":28928:29048   */\n      pop\n      jump\t// out\n        /* \"#utility.yul\":29054:29195   */\n    tag_259:\n        /* \"#utility.yul\":29106:29113   */\n      0x00\n        /* \"#utility.yul\":29135:29140   */\n      dup2\n        /* \"#utility.yul\":29124:29140   */\n      swap1\n      pop\n        /* \"#utility.yul\":29141:29189   */\n      tag_529\n        /* \"#utility.yul\":29183:29188   */\n      dup3\n        /* \"#utility.yul\":29141:29189   */\n      tag_258\n      jump\t// in\n    tag_529:\n        /* \"#utility.yul\":29054:29195   */\n      swap2\n      swap1\n      pop\n      jump\t// out\n        /* \"#utility.yul\":29201:29342   */\n    tag_260:\n        /* \"#utility.yul\":29264:29273   */\n      0x00\n        /* \"#utility.yul\":29297:29336   */\n      tag_531\n        /* \"#utility.yul\":29330:29335   */\n      dup3\n        /* \"#utility.yul\":29297:29336   */\n      tag_259\n      jump\t// in\n    tag_531:\n        /* \"#utility.yul\":29284:29336   */\n      swap1\n      pop\n        /* \"#utility.yul\":29201:29342   */\n      swap2\n      swap1\n      pop\n      jump\t// out\n        /* \"#utility.yul\":29348:29505   */\n    tag_261:\n        /* \"#utility.yul\":29448:29498   */\n      tag_533\n        /* \"#utility.yul\":29492:29497   */\n      dup2\n        /* \"#utility.yul\":29448:29498   */\n      tag_260\n      jump\t// in\n    tag_533:\n        /* \"#utility.yul\":29443:29446   */\n      dup3\n        /* \"#utility.yul\":29436:29499   */\n      mstore\n        /* \"#utility.yul\":29348:29505   */\n      pop\n      pop\n      jump\t// out\n        /* \"#utility.yul\":29511:29675   */\n    tag_262:\n        /* \"#utility.yul\":29651:29667   */\n      0x566f74696e67206f6e676f696e67000000000000000000000000000000000000\n        /* \"#utility.yul\":29647:29648   */\n      0x00\n        /* \"#utility.yul\":29639:29645   */\n      dup3\n        /* \"#utility.yul\":29635:29649   */\n      add\n        /* \"#utility.yul\":29628:29668   */\n      mstore\n        /* \"#utility.yul\":29511:29675   */\n      pop\n      jump\t// out\n        /* \"#utility.yul\":29681:30047   */\n    tag_263:\n        /* \"#utility.yul\":29823:29826   */\n      0x00\n        /* \"#utility.yul\":29844:29911   */\n      tag_536\n        /* \"#utility.yul\":29908:29910   */\n      0x0e\n        /* \"#utility.yul\":29903:29906   */\n      dup4\n        /* \"#utility.yul\":29844:29911   */\n      tag_209\n      jump\t// in\n    tag_536:\n        /* \"#utility.yul\":29837:29911   */\n      swap2\n      pop\n        /* \"#utility.yul\":29920:30013   */\n      tag_537\n        /* \"#utility.yul\":30009:30012   */\n      dup3\n        /* \"#utility.yul\":29920:30013   */\n      tag_262\n      jump\t// in\n    tag_537:\n        /* \"#utility.yul\":30038:30040   */\n      0x20\n        /* \"#utility.yul\":30033:30036   */\n      dup3\n        /* \"#utility.yul\":30029:30041   */\n      add\n        /* \"#utility.yul\":30022:30041   */\n      swap1\n      pop\n        /* \"#utility.yul\":29681:30047   */\n      swap2\n      swap1\n      pop\n      jump\t// out\n        /* \"#utility.yul\":30053:30608   */\n    tag_168:\n        /* \"#utility.yul\":30260:30264   */\n      0x00\n        /* \"#utility.yul\":30298:30300   */\n      0x40\n        /* \"#utility.yul\":30287:30296   */\n      dup3\n        /* \"#utility.yul\":30283:30301   */\n      add\n        /* \"#utility.yul\":30275:30301   */\n      swap1\n      pop\n        /* \"#utility.yul\":30311:30395   */\n      tag_539\n        /* \"#utility.yul\":30392:30393   */\n      0x00\n        /* \"#utility.yul\":30381:30390   */\n      dup4\n        /* \"#utility.yul\":30377:30394   */\n      add\n        /* \"#utility.yul\":30368:30374   */\n      dup5\n        /* \"#utility.yul\":30311:30395   */\n      tag_261\n      jump\t// in\n    tag_539:\n        /* \"#utility.yul\":30442:30451   */\n      dup2\n        /* \"#utility.yul\":30436:30440   */\n      dup2\n        /* \"#utility.yul\":30432:30452   */\n      sub\n        /* \"#utility.yul\":30427:30429   */\n      0x20\n        /* \"#utility.yul\":30416:30425   */\n      dup4\n        /* \"#utility.yul\":30412:30430   */\n      add\n        /* \"#utility.yul\":30405:30453   */\n      mstore\n        /* \"#utility.yul\":30470:30601   */\n      tag_540\n        /* \"#utility.yul\":30596:30600   */\n      dup2\n        /* \"#utility.yul\":30470:30601   */\n      tag_263\n      jump\t// in\n    tag_540:\n        /* \"#utility.yul\":30462:30601   */\n      swap1\n      pop\n        /* \"#utility.yul\":30053:30608   */\n      swap3\n      swap2\n      pop\n      pop\n      jump\t// out\n        /* \"#utility.yul\":30614:30780   */\n    tag_264:\n        /* \"#utility.yul\":30754:30772   */\n      0x566f74696e6720636f6d706c6574656400000000000000000000000000000000\n        /* \"#utility.yul\":30750:30751   */\n      0x00\n        /* \"#utility.yul\":30742:30748   */\n      dup3\n        /* \"#utility.yul\":30738:30752   */\n      add\n        /* \"#utility.yul\":30731:30773   */\n      mstore\n        /* \"#utility.yul\":30614:30780   */\n      pop\n      jump\t// out\n        /* \"#utility.yul\":30786:31152   */\n    tag_265:\n        /* \"#utility.yul\":30928:30931   */\n      0x00\n        /* \"#utility.yul\":30949:31016   */\n      tag_543\n        /* \"#utility.yul\":31013:31015   */\n      0x10\n        /* \"#utility.yul\":31008:31011   */\n      dup4\n        /* \"#utility.yul\":30949:31016   */\n      tag_209\n      jump\t// in\n    tag_543:\n        /* \"#utility.yul\":30942:31016   */\n      swap2\n      pop\n        /* \"#utility.yul\":31025:31118   */\n      tag_544\n        /* \"#utility.yul\":31114:31117   */\n      dup3\n        /* \"#utility.yul\":31025:31118   */\n      tag_264\n      jump\t// in\n    tag_544:\n        /* \"#utility.yul\":31143:31145   */\n      0x20\n        /* \"#utility.yul\":31138:31141   */\n      dup3\n        /* \"#utility.yul\":31134:31146   */\n      add\n        /* \"#utility.yul\":31127:31146   */\n      swap1\n      pop\n        /* \"#utility.yul\":30786:31152   */\n      swap2\n      swap1\n      pop\n      jump\t// out\n        /* \"#utility.yul\":31158:31713   */\n    tag_176:\n        /* \"#utility.yul\":31365:31369   */\n      0x00\n        /* \"#utility.yul\":31403:31405   */\n      0x40\n        /* \"#utility.yul\":31392:31401   */\n      dup3\n        /* \"#utility.yul\":31388:31406   */\n      add\n        /* \"#utility.yul\":31380:31406   */\n      swap1\n      pop\n        /* \"#utility.yul\":31416:31500   */\n      tag_546\n        /* \"#utility.yul\":31497:31498   */\n      0x00\n        /* \"#utility.yul\":31486:31495   */\n      dup4\n        /* \"#utility.yul\":31482:31499   */\n      add\n        /* \"#utility.yul\":31473:31479   */\n      dup5\n        /* \"#utility.yul\":31416:31500   */\n      tag_261\n      jump\t// in\n    tag_546:\n        /* \"#utility.yul\":31547:31556   */\n      dup2\n        /* \"#utility.yul\":31541:31545   */\n      dup2\n        /* \"#utility.yul\":31537:31557   */\n      sub\n        /* \"#utility.yul\":31532:31534   */\n      0x20\n        /* \"#utility.yul\":31521:31530   */\n      dup4\n        /* \"#utility.yul\":31517:31535   */\n      add\n        /* \"#utility.yul\":31510:31558   */\n      mstore\n        /* \"#utility.yul\":31575:31706   */\n      tag_547\n        /* \"#utility.yul\":31701:31705   */\n      dup2\n        /* \"#utility.yul\":31575:31706   */\n      tag_265\n      jump\t// in\n    tag_547:\n        /* \"#utility.yul\":31567:31706   */\n      swap1\n      pop\n        /* \"#utility.yul\":31158:31713   */\n      swap3\n      swap2\n      pop\n      pop\n      jump\t// out\n\n    auxdata: 0xa2646970667358221220ade70ac3d6f240adeec4428bed6076e6f99b0f1700392cb3b90e53d93a51e6b464736f6c63430008160033\n}\n",
				"bytecode": {
					"linkReferences": {},
					"object": "60806040525f8060146101000a81548160ff0219169083600281111561002857610027610085565b5b02179055505f6001555f600255348015610040575f80fd5b50335f806101000a81548173ffffffffffffffffffffffffffffffffffffffff021916908373ffffffffffffffffffffffffffffffffffffffff1602179055506100b2565b7f4e487b71000000000000000000000000000000000000000000000000000000005f52602160045260245ffd5b6124e680620000c05f395ff3fe608060405234801561000f575f80fd5b506004361061009c575f3560e01c806377df41b71161006457806377df41b714610130578063a48292ce1461014c578063d45529f41461017e578063e6a5e61d1461019c578063f83bfa28146101b85761009c565b80633cdd97bf146100a05780633d0af840146100bc5780634ad7b863146100d857806359f784681461010a578063723309a014610114575b5f80fd5b6100ba60048036038101906100b591906115ea565b6101ea565b005b6100d660048036038101906100d19190611656565b61055e565b005b6100f260048036038101906100ed91906116c7565b610756565b6040516101019392919061177b565b60405180910390f35b610112610818565b005b61012e600480360381019061012991906117b7565b61090f565b005b61014a6004803603810190610145919061183f565b610af9565b005b610166600480360381019061016191906116c7565b610e48565b6040516101759392919061187d565b60405180910390f35b610186610fa9565b60405161019391906118cf565b60405180910390f35b6101b660048036038101906101b191906118e8565b610fcc565b005b6101d260048036038101906101cd91906118e8565b61126d565b6040516101e19392919061192d565b60405180910390f35b5f8054906101000a900473ffffffffffffffffffffffffffffffffffffffff1673ffffffffffffffffffffffffffffffffffffffff163373ffffffffffffffffffffffffffffffffffffffff1614610240575f80fd5b5f8054906101000a900473ffffffffffffffffffffffffffffffffffffffff1673ffffffffffffffffffffffffffffffffffffffff168173ffffffffffffffffffffffffffffffffffffffff16146102cd576040517f08c379a00000000000000000000000000000000000000000000000000000000081526004016102c4906119d9565b60405180910390fd5b5f60028111156102e0576102df6119f7565b5b5f60149054906101000a900460ff166002811115610301576103006119f7565b5b14610341576040517f08c379a000000000000000000000000000000000000000000000000000000000815260040161033890611a94565b60405180910390fd5b5f151560045f8573ffffffffffffffffffffffffffffffffffffffff1673ffffffffffffffffffffffffffffffffffffffff1681526020019081526020015f206005015f9054906101000a900460ff161515146103d3576040517f08c379a00000000000000000000000000000000000000000000000000000000081526004016103ca90611afc565b60405180910390fd5b60025f8154809291906103e590611b47565b91905055505f60025490508060045f8673ffffffffffffffffffffffffffffffffffffffff1673ffffffffffffffffffffffffffffffffffffffff1681526020019081526020015f205f01819055508360045f8673ffffffffffffffffffffffffffffffffffffffff1673ffffffffffffffffffffffffffffffffffffffff1681526020019081526020015f206002015f6101000a81548173ffffffffffffffffffffffffffffffffffffffff021916908373ffffffffffffffffffffffffffffffffffffffff1602179055508260045f8673ffffffffffffffffffffffffffffffffffffffff1673ffffffffffffffffffffffffffffffffffffffff1681526020019081526020015f2060010190816104ff9190611d88565b50600160045f8673ffffffffffffffffffffffffffffffffffffffff1673ffffffffffffffffffffffffffffffffffffffff1681526020019081526020015f206005015f6101000a81548160ff02191690831515021790555050505050565b60016002811115610572576105716119f7565b5b5f60149054906101000a900460ff166002811115610593576105926119f7565b5b146105d3576040517f08c379a00000000000000000000000000000000000000000000000000000000081526004016105ca90611ec7565b60405180910390fd5b8073ffffffffffffffffffffffffffffffffffffffff163373ffffffffffffffffffffffffffffffffffffffff1614610641576040517f08c379a000000000000000000000000000000000000000000000000000000000815260040161063890611f7b565b60405180910390fd5b5f151560045f8373ffffffffffffffffffffffffffffffffffffffff1673ffffffffffffffffffffffffffffffffffffffff1681526020019081526020015f2060030160149054906101000a900460ff161515146106d4576040517f08c379a00000000000000000000000000000000000000000000000000000000081526004016106cb90612009565b60405180910390fd5b8160045f8373ffffffffffffffffffffffffffffffffffffffff1673ffffffffffffffffffffffffffffffffffffffff1681526020019081526020015f206003015f6101000a81548173ffffffffffffffffffffffffffffffffffffffff021916908373ffffffffffffffffffffffffffffffffffffffff1602179055505050565b5f60605f8360035f8681526020019081526020015f2060010160055f8781526020019081526020015f205481805461078d90611bbb565b80601f01602080910402602001604051908101604052809291908181526020018280546107b990611bbb565b80156108045780601f106107db57610100808354040283529160200191610804565b820191905f5260205f20905b8154815290600101906020018083116107e757829003601f168201915b505050505091509250925092509193909250565b5f8054906101000a900473ffffffffffffffffffffffffffffffffffffffff1673ffffffffffffffffffffffffffffffffffffffff163373ffffffffffffffffffffffffffffffffffffffff161461086e575f80fd5b60016002811115610882576108816119f7565b5b5f60149054906101000a900460ff1660028111156108a3576108a26119f7565b5b146108e3576040517f08c379a00000000000000000000000000000000000000000000000000000000081526004016108da90612097565b60405180910390fd5b60025f60146101000a81548160ff02191690836002811115610908576109076119f7565b5b0217905550565b5f8054906101000a900473ffffffffffffffffffffffffffffffffffffffff1673ffffffffffffffffffffffffffffffffffffffff163373ffffffffffffffffffffffffffffffffffffffff1614610965575f80fd5b5f8054906101000a900473ffffffffffffffffffffffffffffffffffffffff1673ffffffffffffffffffffffffffffffffffffffff168173ffffffffffffffffffffffffffffffffffffffff16146109f2576040517f08c379a00000000000000000000000000000000000000000000000000000000081526004016109e9906119d9565b60405180910390fd5b5f6002811115610a0557610a046119f7565b5b5f60149054906101000a900460ff166002811115610a2657610a256119f7565b5b14610a66576040517f08c379a0000000000000000000000000000000000000000000000000000000008152600401610a5d90611a94565b60405180910390fd5b60015f815480929190610a7890611b47565b91905055505f60015490508360035f8381526020019081526020015f206001019081610aa49190611d88565b508260035f8381526020019081526020015f206002019081610ac69190611d88565b50600160035f8381526020019081526020015f206003015f6101000a81548160ff02191690831515021790555050505050565b60035f8381526020019081526020015f206003015f9054906101000a900460ff16610b59576040517f08c379a0000000000000000000000000000000000000000000000000000000008152600401610b50906120ff565b60405180910390fd5b60045f8273ffffffffffffffffffffffffffffffffffffffff1673ffffffffffffffffffffffffffffffffffffffff1681526020019081526020015f206005015f9054906101000a900460ff16610be5576040517f08c379a0000000000000000000000000000000000000000000000000000000008152600401610bdc9061218d565b60405180910390fd5b60045f8273ffffffffffffffffffffffffffffffffffffffff1673ffffffffffffffffffffffffffffffffffffffff1681526020019081526020015f2060030160149054906101000a900460ff16610c72576040517f08c379a0000000000000000000000000000000000000000000000000000000008152600401610c69906121f5565b60405180910390fd5b3373ffffffffffffffffffffffffffffffffffffffff1660045f8373ffffffffffffffffffffffffffffffffffffffff1673ffffffffffffffffffffffffffffffffffffffff1681526020019081526020015f206003015f9054906101000a900473ffffffffffffffffffffffffffffffffffffffff1673ffffffffffffffffffffffffffffffffffffffff1614610d73578073ffffffffffffffffffffffffffffffffffffffff163373ffffffffffffffffffffffffffffffffffffffff1614610d72576040517f08c379a0000000000000000000000000000000000000000000000000000000008152600401610d699061225d565b60405180910390fd5b5b600160055f8481526020019081526020015f2054610d91919061227b565b60055f8481526020019081526020015f20819055508160045f8373ffffffffffffffffffffffffffffffffffffffff1673ffffffffffffffffffffffffffffffffffffffff1681526020019081526020015f2060040181905550600160045f8373ffffffffffffffffffffffffffffffffffffffff1673ffffffffffffffffffffffffffffffffffffffff1681526020019081526020015f2060030160146101000a81548160ff0219169083151502179055505050565b5f60608060035f8581526020019081526020015f205f015460035f8681526020019081526020015f2060020160035f8781526020019081526020015f20600101818054610e9490611bbb565b80601f0160208091040260200160405190810160405280929190818152602001828054610ec090611bbb565b8015610f0b5780601f10610ee257610100808354040283529160200191610f0b565b820191905f5260205f20905b815481529060010190602001808311610eee57829003601f168201915b50505050509150808054610f1e90611bbb565b80601f0160208091040260200160405190810160405280929190818152602001828054610f4a90611bbb565b8015610f955780601f10610f6c57610100808354040283529160200191610f95565b820191905f5260205f20905b815481529060010190602001808311610f7857829003601f168201915b505050505090509250925092509193909250565b5f8054906101000a900473ffffffffffffffffffffffffffffffffffffffff1681565b5f8054906101000a900473ffffffffffffffffffffffffffffffffffffffff1673ffffffffffffffffffffffffffffffffffffffff163373ffffffffffffffffffffffffffffffffffffffff1614611022575f80fd5b5f8054906101000a900473ffffffffffffffffffffffffffffffffffffffff1673ffffffffffffffffffffffffffffffffffffffff168173ffffffffffffffffffffffffffffffffffffffff16146110af576040517f08c379a00000000000000000000000000000000000000000000000000000000081526004016110a6906119d9565b60405180910390fd5b5f600154116110f3576040517f08c379a00000000000000000000000000000000000000000000000000000000081526004016110ea906122f8565b60405180910390fd5b5f60025411611137576040517f08c379a000000000000000000000000000000000000000000000000000000000815260040161112e90612360565b60405180910390fd5b6001600281111561114b5761114a6119f7565b5b5f60149054906101000a900460ff16600281111561116c5761116b6119f7565b5b036111bc575f60149054906101000a900460ff166040517fef90b1c10000000000000000000000000000000000000000000000000000000081526004016111b3919061240e565b60405180910390fd5b6002808111156111cf576111ce6119f7565b5b5f60149054906101000a900460ff1660028111156111f0576111ef6119f7565b5b03611240575f60149054906101000a900460ff166040517fef90b1c10000000000000000000000000000000000000000000000000000000081526004016112379190612484565b60405180910390fd5b60015f60146101000a81548160ff02191690836002811115611265576112646119f7565b5b021790555050565b5f60605f60045f8573ffffffffffffffffffffffffffffffffffffffff1673ffffffffffffffffffffffffffffffffffffffff1681526020019081526020015f206002015f9054906101000a900473ffffffffffffffffffffffffffffffffffffffff1660045f8673ffffffffffffffffffffffffffffffffffffffff1673ffffffffffffffffffffffffffffffffffffffff1681526020019081526020015f206001018473ffffffffffffffffffffffffffffffffffffffff1660045f8873ffffffffffffffffffffffffffffffffffffffff1673ffffffffffffffffffffffffffffffffffffffff1681526020019081526020015f206003015f9054906101000a900473ffffffffffffffffffffffffffffffffffffffff1673ffffffffffffffffffffffffffffffffffffffff16146113aa5760016113ac565b5f5b8180546113b890611bbb565b80601f01602080910402602001604051908101604052809291908181526020018280546113e490611bbb565b801561142f5780601f106114065761010080835404028352916020019161142f565b820191905f5260205f20905b81548152906001019060200180831161141257829003601f168201915b505050505091509250925092509193909250565b5f604051905090565b5f80fd5b5f80fd5b5f73ffffffffffffffffffffffffffffffffffffffff82169050919050565b5f61147d82611454565b9050919050565b61148d81611473565b8114611497575f80fd5b50565b5f813590506114a881611484565b92915050565b5f80fd5b5f80fd5b5f601f19601f8301169050919050565b7f4e487b71000000000000000000000000000000000000000000000000000000005f52604160045260245ffd5b6114fc826114b6565b810181811067ffffffffffffffff8211171561151b5761151a6114c6565b5b80604052505050565b5f61152d611443565b905061153982826114f3565b919050565b5f67ffffffffffffffff821115611558576115576114c6565b5b611561826114b6565b9050602081019050919050565b828183375f83830152505050565b5f61158e6115898461153e565b611524565b9050828152602081018484840111156115aa576115a96114b2565b5b6115b584828561156e565b509392505050565b5f82601f8301126115d1576115d06114ae565b5b81356115e184826020860161157c565b91505092915050565b5f805f606084860312156116015761160061144c565b5b5f61160e8682870161149a565b935050602084013567ffffffffffffffff81111561162f5761162e611450565b5b61163b868287016115bd565b925050604061164c8682870161149a565b9150509250925092565b5f806040838503121561166c5761166b61144c565b5b5f6116798582860161149a565b925050602061168a8582860161149a565b9150509250929050565b5f819050919050565b6116a681611694565b81146116b0575f80fd5b50565b5f813590506116c18161169d565b92915050565b5f602082840312156116dc576116db61144c565b5b5f6116e9848285016116b3565b91505092915050565b6116fb81611694565b82525050565b5f81519050919050565b5f82825260208201905092915050565b5f5b8381101561173857808201518184015260208101905061171d565b5f8484015250505050565b5f61174d82611701565b611757818561170b565b935061176781856020860161171b565b611770816114b6565b840191505092915050565b5f60608201905061178e5f8301866116f2565b81810360208301526117a08185611743565b90506117af60408301846116f2565b949350505050565b5f805f606084860312156117ce576117cd61144c565b5b5f84013567ffffffffffffffff8111156117eb576117ea611450565b5b6117f7868287016115bd565b935050602084013567ffffffffffffffff81111561181857611817611450565b5b611824868287016115bd565b92505060406118358682870161149a565b9150509250925092565b5f80604083850312156118555761185461144c565b5b5f611862858286016116b3565b92505060206118738582860161149a565b9150509250929050565b5f6060820190506118905f8301866116f2565b81810360208301526118a28185611743565b905081810360408301526118b68184611743565b9050949350505050565b6118c981611473565b82525050565b5f6020820190506118e25f8301846118c0565b92915050565b5f602082840312156118fd576118fc61144c565b5b5f61190a8482850161149a565b91505092915050565b5f8115159050919050565b61192781611913565b82525050565b5f6060820190506119405f8301866118c0565b81810360208301526119528185611743565b9050611961604083018461191e565b949350505050565b7f4f6e6c792061646d696e206861732061636365737320746f20646f20746869735f8201527f2e00000000000000000000000000000000000000000000000000000000000000602082015250565b5f6119c360218361170b565b91506119ce82611969565b604082019050919050565b5f6020820190508181035f8301526119f0816119b7565b9050919050565b7f4e487b71000000000000000000000000000000000000000000000000000000005f52602160045260245ffd5b7f566f74696e6720616c72656164792073746172746564206f7220636f6d706c655f8201527f7465640000000000000000000000000000000000000000000000000000000000602082015250565b5f611a7e60238361170b565b9150611a8982611a24565b604082019050919050565b5f6020820190508181035f830152611aab81611a72565b9050919050565b7f766f74657220616c72656164792061646465642e0000000000000000000000005f82015250565b5f611ae660148361170b565b9150611af182611ab2565b602082019050919050565b5f6020820190508181035f830152611b1381611ada565b9050919050565b7f4e487b71000000000000000000000000000000000000000000000000000000005f52601160045260245ffd5b5f611b5182611694565b91507fffffffffffffffffffffffffffffffffffffffffffffffffffffffffffffffff8203611b8357611b82611b1a565b5b600182019050919050565b7f4e487b71000000000000000000000000000000000000000000000000000000005f52602260045260245ffd5b5f6002820490506001821680611bd257607f821691505b602082108103611be557611be4611b8e565b5b50919050565b5f819050815f5260205f209050919050565b5f6020601f8301049050919050565b5f82821b905092915050565b5f60088302611c477fffffffffffffffffffffffffffffffffffffffffffffffffffffffffffffffff82611c0c565b611c518683611c0c565b95508019841693508086168417925050509392505050565b5f819050919050565b5f611c8c611c87611c8284611694565b611c69565b611694565b9050919050565b5f819050919050565b611ca583611c72565b611cb9611cb182611c93565b848454611c18565b825550505050565b5f90565b611ccd611cc1565b611cd8818484611c9c565b505050565b5b81811015611cfb57611cf05f82611cc5565b600181019050611cde565b5050565b601f821115611d4057611d1181611beb565b611d1a84611bfd565b81016020851015611d29578190505b611d3d611d3585611bfd565b830182611cdd565b50505b505050565b5f82821c905092915050565b5f611d605f1984600802611d45565b1980831691505092915050565b5f611d788383611d51565b9150826002028217905092915050565b611d9182611701565b67ffffffffffffffff811115611daa57611da96114c6565b5b611db48254611bbb565b611dbf828285611cff565b5f60209050601f831160018114611df0575f8415611dde578287015190505b611de88582611d6d565b865550611e4f565b601f198416611dfe86611beb565b5f5b82811015611e2557848901518255600182019150602085019450602081019050611e00565b86831015611e425784890151611e3e601f891682611d51565b8355505b6001600288020188555050505b505050505050565b7f566f74696e67206e6f7420696e2070726f67726573732e20596f752063616e205f8201527f6e6f742064656c65746567617465206e6f772e00000000000000000000000000602082015250565b5f611eb160338361170b565b9150611ebc82611e57565b604082019050919050565b5f6020820190508181035f830152611ede81611ea5565b9050919050565b7f4f6e6c792061646472657373206f776e65722063616e2064656c6567617465205f8201527f766f74696e672072696768747320746f20616e6f74686572206164647265737360208201527f2e00000000000000000000000000000000000000000000000000000000000000604082015250565b5f611f6560418361170b565b9150611f7082611ee5565b606082019050919050565b5f6020820190508181035f830152611f9281611f59565b9050919050565b7f596f752063616e206e6f742064656c656761746520766f74696e6720726967685f8201527f74732e20596f75206861766520616c726561647920766f7465642e0000000000602082015250565b5f611ff3603b8361170b565b9150611ffe82611f99565b604082019050919050565b5f6020820190508181035f83015261202081611fe7565b9050919050565b7f45697468657220766f74696e6720686173206e6f742073746172746564206f725f8201527f20636f6d706c657465642e000000000000000000000000000000000000000000602082015250565b5f612081602b8361170b565b915061208c82612027565b604082019050919050565b5f6020820190508181035f8301526120ae81612075565b9050919050565b7f63616e646964617465207769746820696420646f6573206e6f742065786973745f82015250565b5f6120e960208361170b565b91506120f4826120b5565b602082019050919050565b5f6020820190508181035f830152612116816120dd565b9050919050565b7f766f7465722077697468206164647265737320646f6573206e6f7420657869735f8201527f7400000000000000000000000000000000000000000000000000000000000000602082015250565b5f61217760218361170b565b91506121828261211d565b604082019050919050565b5f6020820190508181035f8301526121a48161216b565b9050919050565b7f566f746520616c726561647920706c61636564000000000000000000000000005f82015250565b5f6121df60138361170b565b91506121ea826121ab565b602082019050919050565b5f6020820190508181035f83015261220c816121d3565b9050919050565b7f796f752063616e206e6f7420766f7465000000000000000000000000000000005f82015250565b5f61224760108361170b565b915061225282612213565b602082019050919050565b5f6020820190508181035f8301526122748161223b565b9050919050565b5f61228582611694565b915061229083611694565b92508282019050808211156122a8576122a7611b1a565b5b92915050565b7f302063616e6469646174657320726567697374657265640000000000000000005f82015250565b5f6122e260178361170b565b91506122ed826122ae565b602082019050919050565b5f6020820190508181035f83015261230f816122d6565b9050919050565b7f3020766f746572732072656769737465726564000000000000000000000000005f82015250565b5f61234a60138361170b565b915061235582612316565b602082019050919050565b5f6020820190508181035f8301526123778161233e565b9050919050565b6003811061238f5761238e6119f7565b5b50565b5f81905061239f8261237e565b919050565b5f6123ae82612392565b9050919050565b6123be816123a4565b82525050565b7f566f74696e67206f6e676f696e670000000000000000000000000000000000005f82015250565b5f6123f8600e8361170b565b9150612403826123c4565b602082019050919050565b5f6040820190506124215f8301846123b5565b8181036020830152612432816123ec565b905092915050565b7f566f74696e6720636f6d706c65746564000000000000000000000000000000005f82015250565b5f61246e60108361170b565b91506124798261243a565b602082019050919050565b5f6040820190506124975f8301846123b5565b81810360208301526124a881612462565b90509291505056fea2646970667358221220ade70ac3d6f240adeec4428bed6076e6f99b0f1700392cb3b90e53d93a51e6b464736f6c63430008160033",
					"opcodes": "PUSH1 0x80 PUSH1 0x40 MSTORE PUSH0 DUP1 PUSH1 0x14 PUSH2 0x100 EXP DUP2 SLOAD DUP2 PUSH1 0xFF MUL NOT AND SWAP1 DUP4 PUSH1 0x2 DUP2 GT ISZERO PUSH2 0x28 JUMPI PUSH2 0x27 PUSH2 0x85 JUMP JUMPDEST JUMPDEST MUL OR SWAP1 SSTORE POP PUSH0 PUSH1 0x1 SSTORE PUSH0 PUSH1 0x2 SSTORE CALLVALUE DUP1 ISZERO PUSH2 0x40 JUMPI PUSH0 DUP1 REVERT JUMPDEST POP CALLER PUSH0 DUP1 PUSH2 0x100 EXP DUP2 SLOAD DUP2 PUSH20 0xFFFFFFFFFFFFFFFFFFFFFFFFFFFFFFFFFFFFFFFF MUL NOT AND SWAP1 DUP4 PUSH20 0xFFFFFFFFFFFFFFFFFFFFFFFFFFFFFFFFFFFFFFFF AND MUL OR SWAP1 SSTORE POP PUSH2 0xB2 JUMP JUMPDEST PUSH32 0x4E487B7100000000000000000000000000000000000000000000000000000000 PUSH0 MSTORE PUSH1 0x21 PUSH1 0x4 MSTORE PUSH1 0x24 PUSH0 REVERT JUMPDEST PUSH2 0x24E6 DUP1 PUSH3 0xC0 PUSH0 CODECOPY PUSH0 RETURN INVALID PUSH1 0x80 PUSH1 0x40 MSTORE CALLVALUE DUP1 ISZERO PUSH2 0xF JUMPI PUSH0 DUP1 REVERT JUMPDEST POP PUSH1 0x4 CALLDATASIZE LT PUSH2 0x9C JUMPI PUSH0 CALLDATALOAD PUSH1 0xE0 SHR DUP1 PUSH4 0x77DF41B7 GT PUSH2 0x64 JUMPI DUP1 PUSH4 0x77DF41B7 EQ PUSH2 0x130 JUMPI DUP1 PUSH4 0xA48292CE EQ PUSH2 0x14C JUMPI DUP1 PUSH4 0xD45529F4 EQ PUSH2 0x17E JUMPI DUP1 PUSH4 0xE6A5E61D EQ PUSH2 0x19C JUMPI DUP1 PUSH4 0xF83BFA28 EQ PUSH2 0x1B8 JUMPI PUSH2 0x9C JUMP JUMPDEST DUP1 PUSH4 0x3CDD97BF EQ PUSH2 0xA0 JUMPI DUP1 PUSH4 0x3D0AF840 EQ PUSH2 0xBC JUMPI DUP1 PUSH4 0x4AD7B863 EQ PUSH2 0xD8 JUMPI DUP1 PUSH4 0x59F78468 EQ PUSH2 0x10A JUMPI DUP1 PUSH4 0x723309A0 EQ PUSH2 0x114 JUMPI JUMPDEST PUSH0 DUP1 REVERT JUMPDEST PUSH2 0xBA PUSH1 0x4 DUP1 CALLDATASIZE SUB DUP2 ADD SWAP1 PUSH2 0xB5 SWAP2 SWAP1 PUSH2 0x15EA JUMP JUMPDEST PUSH2 0x1EA JUMP JUMPDEST STOP JUMPDEST PUSH2 0xD6 PUSH1 0x4 DUP1 CALLDATASIZE SUB DUP2 ADD SWAP1 PUSH2 0xD1 SWAP2 SWAP1 PUSH2 0x1656 JUMP JUMPDEST PUSH2 0x55E JUMP JUMPDEST STOP JUMPDEST PUSH2 0xF2 PUSH1 0x4 DUP1 CALLDATASIZE SUB DUP2 ADD SWAP1 PUSH2 0xED SWAP2 SWAP1 PUSH2 0x16C7 JUMP JUMPDEST PUSH2 0x756 JUMP JUMPDEST PUSH1 0x40 MLOAD PUSH2 0x101 SWAP4 SWAP3 SWAP2 SWAP1 PUSH2 0x177B JUMP JUMPDEST PUSH1 0x40 MLOAD DUP1 SWAP2 SUB SWAP1 RETURN JUMPDEST PUSH2 0x112 PUSH2 0x818 JUMP JUMPDEST STOP JUMPDEST PUSH2 0x12E PUSH1 0x4 DUP1 CALLDATASIZE SUB DUP2 ADD SWAP1 PUSH2 0x129 SWAP2 SWAP1 PUSH2 0x17B7 JUMP JUMPDEST PUSH2 0x90F JUMP JUMPDEST STOP JUMPDEST PUSH2 0x14A PUSH1 0x4 DUP1 CALLDATASIZE SUB DUP2 ADD SWAP1 PUSH2 0x145 SWAP2 SWAP1 PUSH2 0x183F JUMP JUMPDEST PUSH2 0xAF9 JUMP JUMPDEST STOP JUMPDEST PUSH2 0x166 PUSH1 0x4 DUP1 CALLDATASIZE SUB DUP2 ADD SWAP1 PUSH2 0x161 SWAP2 SWAP1 PUSH2 0x16C7 JUMP JUMPDEST PUSH2 0xE48 JUMP JUMPDEST PUSH1 0x40 MLOAD PUSH2 0x175 SWAP4 SWAP3 SWAP2 SWAP1 PUSH2 0x187D JUMP JUMPDEST PUSH1 0x40 MLOAD DUP1 SWAP2 SUB SWAP1 RETURN JUMPDEST PUSH2 0x186 PUSH2 0xFA9 JUMP JUMPDEST PUSH1 0x40 MLOAD PUSH2 0x193 SWAP2 SWAP1 PUSH2 0x18CF JUMP JUMPDEST PUSH1 0x40 MLOAD DUP1 SWAP2 SUB SWAP1 RETURN JUMPDEST PUSH2 0x1B6 PUSH1 0x4 DUP1 CALLDATASIZE SUB DUP2 ADD SWAP1 PUSH2 0x1B1 SWAP2 SWAP1 PUSH2 0x18E8 JUMP JUMPDEST PUSH2 0xFCC JUMP JUMPDEST STOP JUMPDEST PUSH2 0x1D2 PUSH1 0x4 DUP1 CALLDATASIZE SUB DUP2 ADD SWAP1 PUSH2 0x1CD SWAP2 SWAP1 PUSH2 0x18E8 JUMP JUMPDEST PUSH2 0x126D JUMP JUMPDEST PUSH1 0x40 MLOAD PUSH2 0x1E1 SWAP4 SWAP3 SWAP2 SWAP1 PUSH2 0x192D JUMP JUMPDEST PUSH1 0x40 MLOAD DUP1 SWAP2 SUB SWAP1 RETURN JUMPDEST PUSH0 DUP1 SLOAD SWAP1 PUSH2 0x100 EXP SWAP1 DIV PUSH20 0xFFFFFFFFFFFFFFFFFFFFFFFFFFFFFFFFFFFFFFFF AND PUSH20 0xFFFFFFFFFFFFFFFFFFFFFFFFFFFFFFFFFFFFFFFF AND CALLER PUSH20 0xFFFFFFFFFFFFFFFFFFFFFFFFFFFFFFFFFFFFFFFF AND EQ PUSH2 0x240 JUMPI PUSH0 DUP1 REVERT JUMPDEST PUSH0 DUP1 SLOAD SWAP1 PUSH2 0x100 EXP SWAP1 DIV PUSH20 0xFFFFFFFFFFFFFFFFFFFFFFFFFFFFFFFFFFFFFFFF AND PUSH20 0xFFFFFFFFFFFFFFFFFFFFFFFFFFFFFFFFFFFFFFFF AND DUP2 PUSH20 0xFFFFFFFFFFFFFFFFFFFFFFFFFFFFFFFFFFFFFFFF AND EQ PUSH2 0x2CD JUMPI PUSH1 0x40 MLOAD PUSH32 0x8C379A000000000000000000000000000000000000000000000000000000000 DUP2 MSTORE PUSH1 0x4 ADD PUSH2 0x2C4 SWAP1 PUSH2 0x19D9 JUMP JUMPDEST PUSH1 0x40 MLOAD DUP1 SWAP2 SUB SWAP1 REVERT JUMPDEST PUSH0 PUSH1 0x2 DUP2 GT ISZERO PUSH2 0x2E0 JUMPI PUSH2 0x2DF PUSH2 0x19F7 JUMP JUMPDEST JUMPDEST PUSH0 PUSH1 0x14 SWAP1 SLOAD SWAP1 PUSH2 0x100 EXP SWAP1 DIV PUSH1 0xFF AND PUSH1 0x2 DUP2 GT ISZERO PUSH2 0x301 JUMPI PUSH2 0x300 PUSH2 0x19F7 JUMP JUMPDEST JUMPDEST EQ PUSH2 0x341 JUMPI PUSH1 0x40 MLOAD PUSH32 0x8C379A000000000000000000000000000000000000000000000000000000000 DUP2 MSTORE PUSH1 0x4 ADD PUSH2 0x338 SWAP1 PUSH2 0x1A94 JUMP JUMPDEST PUSH1 0x40 MLOAD DUP1 SWAP2 SUB SWAP1 REVERT JUMPDEST PUSH0 ISZERO ISZERO PUSH1 0x4 PUSH0 DUP6 PUSH20 0xFFFFFFFFFFFFFFFFFFFFFFFFFFFFFFFFFFFFFFFF AND PUSH20 0xFFFFFFFFFFFFFFFFFFFFFFFFFFFFFFFFFFFFFFFF AND DUP2 MSTORE PUSH1 0x20 ADD SWAP1 DUP2 MSTORE PUSH1 0x20 ADD PUSH0 KECCAK256 PUSH1 0x5 ADD PUSH0 SWAP1 SLOAD SWAP1 PUSH2 0x100 EXP SWAP1 DIV PUSH1 0xFF AND ISZERO ISZERO EQ PUSH2 0x3D3 JUMPI PUSH1 0x40 MLOAD PUSH32 0x8C379A000000000000000000000000000000000000000000000000000000000 DUP2 MSTORE PUSH1 0x4 ADD PUSH2 0x3CA SWAP1 PUSH2 0x1AFC JUMP JUMPDEST PUSH1 0x40 MLOAD DUP1 SWAP2 SUB SWAP1 REVERT JUMPDEST PUSH1 0x2 PUSH0 DUP2 SLOAD DUP1 SWAP3 SWAP2 SWAP1 PUSH2 0x3E5 SWAP1 PUSH2 0x1B47 JUMP JUMPDEST SWAP2 SWAP1 POP SSTORE POP PUSH0 PUSH1 0x2 SLOAD SWAP1 POP DUP1 PUSH1 0x4 PUSH0 DUP7 PUSH20 0xFFFFFFFFFFFFFFFFFFFFFFFFFFFFFFFFFFFFFFFF AND PUSH20 0xFFFFFFFFFFFFFFFFFFFFFFFFFFFFFFFFFFFFFFFF AND DUP2 MSTORE PUSH1 0x20 ADD SWAP1 DUP2 MSTORE PUSH1 0x20 ADD PUSH0 KECCAK256 PUSH0 ADD DUP2 SWAP1 SSTORE POP DUP4 PUSH1 0x4 PUSH0 DUP7 PUSH20 0xFFFFFFFFFFFFFFFFFFFFFFFFFFFFFFFFFFFFFFFF AND PUSH20 0xFFFFFFFFFFFFFFFFFFFFFFFFFFFFFFFFFFFFFFFF AND DUP2 MSTORE PUSH1 0x20 ADD SWAP1 DUP2 MSTORE PUSH1 0x20 ADD PUSH0 KECCAK256 PUSH1 0x2 ADD PUSH0 PUSH2 0x100 EXP DUP2 SLOAD DUP2 PUSH20 0xFFFFFFFFFFFFFFFFFFFFFFFFFFFFFFFFFFFFFFFF MUL NOT AND SWAP1 DUP4 PUSH20 0xFFFFFFFFFFFFFFFFFFFFFFFFFFFFFFFFFFFFFFFF AND MUL OR SWAP1 SSTORE POP DUP3 PUSH1 0x4 PUSH0 DUP7 PUSH20 0xFFFFFFFFFFFFFFFFFFFFFFFFFFFFFFFFFFFFFFFF AND PUSH20 0xFFFFFFFFFFFFFFFFFFFFFFFFFFFFFFFFFFFFFFFF AND DUP2 MSTORE PUSH1 0x20 ADD SWAP1 DUP2 MSTORE PUSH1 0x20 ADD PUSH0 KECCAK256 PUSH1 0x1 ADD SWAP1 DUP2 PUSH2 0x4FF SWAP2 SWAP1 PUSH2 0x1D88 JUMP JUMPDEST POP PUSH1 0x1 PUSH1 0x4 PUSH0 DUP7 PUSH20 0xFFFFFFFFFFFFFFFFFFFFFFFFFFFFFFFFFFFFFFFF AND PUSH20 0xFFFFFFFFFFFFFFFFFFFFFFFFFFFFFFFFFFFFFFFF AND DUP2 MSTORE PUSH1 0x20 ADD SWAP1 DUP2 MSTORE PUSH1 0x20 ADD PUSH0 KECCAK256 PUSH1 0x5 ADD PUSH0 PUSH2 0x100 EXP DUP2 SLOAD DUP2 PUSH1 0xFF MUL NOT AND SWAP1 DUP4 ISZERO ISZERO MUL OR SWAP1 SSTORE POP POP POP POP POP JUMP JUMPDEST PUSH1 0x1 PUSH1 0x2 DUP2 GT ISZERO PUSH2 0x572 JUMPI PUSH2 0x571 PUSH2 0x19F7 JUMP JUMPDEST JUMPDEST PUSH0 PUSH1 0x14 SWAP1 SLOAD SWAP1 PUSH2 0x100 EXP SWAP1 DIV PUSH1 0xFF AND PUSH1 0x2 DUP2 GT ISZERO PUSH2 0x593 JUMPI PUSH2 0x592 PUSH2 0x19F7 JUMP JUMPDEST JUMPDEST EQ PUSH2 0x5D3 JUMPI PUSH1 0x40 MLOAD PUSH32 0x8C379A000000000000000000000000000000000000000000000000000000000 DUP2 MSTORE PUSH1 0x4 ADD PUSH2 0x5CA SWAP1 PUSH2 0x1EC7 JUMP JUMPDEST PUSH1 0x40 MLOAD DUP1 SWAP2 SUB SWAP1 REVERT JUMPDEST DUP1 PUSH20 0xFFFFFFFFFFFFFFFFFFFFFFFFFFFFFFFFFFFFFFFF AND CALLER PUSH20 0xFFFFFFFFFFFFFFFFFFFFFFFFFFFFFFFFFFFFFFFF AND EQ PUSH2 0x641 JUMPI PUSH1 0x40 MLOAD PUSH32 0x8C379A000000000000000000000000000000000000000000000000000000000 DUP2 MSTORE PUSH1 0x4 ADD PUSH2 0x638 SWAP1 PUSH2 0x1F7B JUMP JUMPDEST PUSH1 0x40 MLOAD DUP1 SWAP2 SUB SWAP1 REVERT JUMPDEST PUSH0 ISZERO ISZERO PUSH1 0x4 PUSH0 DUP4 PUSH20 0xFFFFFFFFFFFFFFFFFFFFFFFFFFFFFFFFFFFFFFFF AND PUSH20 0xFFFFFFFFFFFFFFFFFFFFFFFFFFFFFFFFFFFFFFFF AND DUP2 MSTORE PUSH1 0x20 ADD SWAP1 DUP2 MSTORE PUSH1 0x20 ADD PUSH0 KECCAK256 PUSH1 0x3 ADD PUSH1 0x14 SWAP1 SLOAD SWAP1 PUSH2 0x100 EXP SWAP1 DIV PUSH1 0xFF AND ISZERO ISZERO EQ PUSH2 0x6D4 JUMPI PUSH1 0x40 MLOAD PUSH32 0x8C379A000000000000000000000000000000000000000000000000000000000 DUP2 MSTORE PUSH1 0x4 ADD PUSH2 0x6CB SWAP1 PUSH2 0x2009 JUMP JUMPDEST PUSH1 0x40 MLOAD DUP1 SWAP2 SUB SWAP1 REVERT JUMPDEST DUP2 PUSH1 0x4 PUSH0 DUP4 PUSH20 0xFFFFFFFFFFFFFFFFFFFFFFFFFFFFFFFFFFFFFFFF AND PUSH20 0xFFFFFFFFFFFFFFFFFFFFFFFFFFFFFFFFFFFFFFFF AND DUP2 MSTORE PUSH1 0x20 ADD SWAP1 DUP2 MSTORE PUSH1 0x20 ADD PUSH0 KECCAK256 PUSH1 0x3 ADD PUSH0 PUSH2 0x100 EXP DUP2 SLOAD DUP2 PUSH20 0xFFFFFFFFFFFFFFFFFFFFFFFFFFFFFFFFFFFFFFFF MUL NOT AND SWAP1 DUP4 PUSH20 0xFFFFFFFFFFFFFFFFFFFFFFFFFFFFFFFFFFFFFFFF AND MUL OR SWAP1 SSTORE POP POP POP JUMP JUMPDEST PUSH0 PUSH1 0x60 PUSH0 DUP4 PUSH1 0x3 PUSH0 DUP7 DUP2 MSTORE PUSH1 0x20 ADD SWAP1 DUP2 MSTORE PUSH1 0x20 ADD PUSH0 KECCAK256 PUSH1 0x1 ADD PUSH1 0x5 PUSH0 DUP8 DUP2 MSTORE PUSH1 0x20 ADD SWAP1 DUP2 MSTORE PUSH1 0x20 ADD PUSH0 KECCAK256 SLOAD DUP2 DUP1 SLOAD PUSH2 0x78D SWAP1 PUSH2 0x1BBB JUMP JUMPDEST DUP1 PUSH1 0x1F ADD PUSH1 0x20 DUP1 SWAP2 DIV MUL PUSH1 0x20 ADD PUSH1 0x40 MLOAD SWAP1 DUP2 ADD PUSH1 0x40 MSTORE DUP1 SWAP3 SWAP2 SWAP1 DUP2 DUP2 MSTORE PUSH1 0x20 ADD DUP3 DUP1 SLOAD PUSH2 0x7B9 SWAP1 PUSH2 0x1BBB JUMP JUMPDEST DUP1 ISZERO PUSH2 0x804 JUMPI DUP1 PUSH1 0x1F LT PUSH2 0x7DB JUMPI PUSH2 0x100 DUP1 DUP4 SLOAD DIV MUL DUP4 MSTORE SWAP2 PUSH1 0x20 ADD SWAP2 PUSH2 0x804 JUMP JUMPDEST DUP3 ADD SWAP2 SWAP1 PUSH0 MSTORE PUSH1 0x20 PUSH0 KECCAK256 SWAP1 JUMPDEST DUP2 SLOAD DUP2 MSTORE SWAP1 PUSH1 0x1 ADD SWAP1 PUSH1 0x20 ADD DUP1 DUP4 GT PUSH2 0x7E7 JUMPI DUP3 SWAP1 SUB PUSH1 0x1F AND DUP3 ADD SWAP2 JUMPDEST POP POP POP POP POP SWAP2 POP SWAP3 POP SWAP3 POP SWAP3 POP SWAP2 SWAP4 SWAP1 SWAP3 POP JUMP JUMPDEST PUSH0 DUP1 SLOAD SWAP1 PUSH2 0x100 EXP SWAP1 DIV PUSH20 0xFFFFFFFFFFFFFFFFFFFFFFFFFFFFFFFFFFFFFFFF AND PUSH20 0xFFFFFFFFFFFFFFFFFFFFFFFFFFFFFFFFFFFFFFFF AND CALLER PUSH20 0xFFFFFFFFFFFFFFFFFFFFFFFFFFFFFFFFFFFFFFFF AND EQ PUSH2 0x86E JUMPI PUSH0 DUP1 REVERT JUMPDEST PUSH1 0x1 PUSH1 0x2 DUP2 GT ISZERO PUSH2 0x882 JUMPI PUSH2 0x881 PUSH2 0x19F7 JUMP JUMPDEST JUMPDEST PUSH0 PUSH1 0x14 SWAP1 SLOAD SWAP1 PUSH2 0x100 EXP SWAP1 DIV PUSH1 0xFF AND PUSH1 0x2 DUP2 GT ISZERO PUSH2 0x8A3 JUMPI PUSH2 0x8A2 PUSH2 0x19F7 JUMP JUMPDEST JUMPDEST EQ PUSH2 0x8E3 JUMPI PUSH1 0x40 MLOAD PUSH32 0x8C379A000000000000000000000000000000000000000000000000000000000 DUP2 MSTORE PUSH1 0x4 ADD PUSH2 0x8DA SWAP1 PUSH2 0x2097 JUMP JUMPDEST PUSH1 0x40 MLOAD DUP1 SWAP2 SUB SWAP1 REVERT JUMPDEST PUSH1 0x2 PUSH0 PUSH1 0x14 PUSH2 0x100 EXP DUP2 SLOAD DUP2 PUSH1 0xFF MUL NOT AND SWAP1 DUP4 PUSH1 0x2 DUP2 GT ISZERO PUSH2 0x908 JUMPI PUSH2 0x907 PUSH2 0x19F7 JUMP JUMPDEST JUMPDEST MUL OR SWAP1 SSTORE POP JUMP JUMPDEST PUSH0 DUP1 SLOAD SWAP1 PUSH2 0x100 EXP SWAP1 DIV PUSH20 0xFFFFFFFFFFFFFFFFFFFFFFFFFFFFFFFFFFFFFFFF AND PUSH20 0xFFFFFFFFFFFFFFFFFFFFFFFFFFFFFFFFFFFFFFFF AND CALLER PUSH20 0xFFFFFFFFFFFFFFFFFFFFFFFFFFFFFFFFFFFFFFFF AND EQ PUSH2 0x965 JUMPI PUSH0 DUP1 REVERT JUMPDEST PUSH0 DUP1 SLOAD SWAP1 PUSH2 0x100 EXP SWAP1 DIV PUSH20 0xFFFFFFFFFFFFFFFFFFFFFFFFFFFFFFFFFFFFFFFF AND PUSH20 0xFFFFFFFFFFFFFFFFFFFFFFFFFFFFFFFFFFFFFFFF AND DUP2 PUSH20 0xFFFFFFFFFFFFFFFFFFFFFFFFFFFFFFFFFFFFFFFF AND EQ PUSH2 0x9F2 JUMPI PUSH1 0x40 MLOAD PUSH32 0x8C379A000000000000000000000000000000000000000000000000000000000 DUP2 MSTORE PUSH1 0x4 ADD PUSH2 0x9E9 SWAP1 PUSH2 0x19D9 JUMP JUMPDEST PUSH1 0x40 MLOAD DUP1 SWAP2 SUB SWAP1 REVERT JUMPDEST PUSH0 PUSH1 0x2 DUP2 GT ISZERO PUSH2 0xA05 JUMPI PUSH2 0xA04 PUSH2 0x19F7 JUMP JUMPDEST JUMPDEST PUSH0 PUSH1 0x14 SWAP1 SLOAD SWAP1 PUSH2 0x100 EXP SWAP1 DIV PUSH1 0xFF AND PUSH1 0x2 DUP2 GT ISZERO PUSH2 0xA26 JUMPI PUSH2 0xA25 PUSH2 0x19F7 JUMP JUMPDEST JUMPDEST EQ PUSH2 0xA66 JUMPI PUSH1 0x40 MLOAD PUSH32 0x8C379A000000000000000000000000000000000000000000000000000000000 DUP2 MSTORE PUSH1 0x4 ADD PUSH2 0xA5D SWAP1 PUSH2 0x1A94 JUMP JUMPDEST PUSH1 0x40 MLOAD DUP1 SWAP2 SUB SWAP1 REVERT JUMPDEST PUSH1 0x1 PUSH0 DUP2 SLOAD DUP1 SWAP3 SWAP2 SWAP1 PUSH2 0xA78 SWAP1 PUSH2 0x1B47 JUMP JUMPDEST SWAP2 SWAP1 POP SSTORE POP PUSH0 PUSH1 0x1 SLOAD SWAP1 POP DUP4 PUSH1 0x3 PUSH0 DUP4 DUP2 MSTORE PUSH1 0x20 ADD SWAP1 DUP2 MSTORE PUSH1 0x20 ADD PUSH0 KECCAK256 PUSH1 0x1 ADD SWAP1 DUP2 PUSH2 0xAA4 SWAP2 SWAP1 PUSH2 0x1D88 JUMP JUMPDEST POP DUP3 PUSH1 0x3 PUSH0 DUP4 DUP2 MSTORE PUSH1 0x20 ADD SWAP1 DUP2 MSTORE PUSH1 0x20 ADD PUSH0 KECCAK256 PUSH1 0x2 ADD SWAP1 DUP2 PUSH2 0xAC6 SWAP2 SWAP1 PUSH2 0x1D88 JUMP JUMPDEST POP PUSH1 0x1 PUSH1 0x3 PUSH0 DUP4 DUP2 MSTORE PUSH1 0x20 ADD SWAP1 DUP2 MSTORE PUSH1 0x20 ADD PUSH0 KECCAK256 PUSH1 0x3 ADD PUSH0 PUSH2 0x100 EXP DUP2 SLOAD DUP2 PUSH1 0xFF MUL NOT AND SWAP1 DUP4 ISZERO ISZERO MUL OR SWAP1 SSTORE POP POP POP POP POP JUMP JUMPDEST PUSH1 0x3 PUSH0 DUP4 DUP2 MSTORE PUSH1 0x20 ADD SWAP1 DUP2 MSTORE PUSH1 0x20 ADD PUSH0 KECCAK256 PUSH1 0x3 ADD PUSH0 SWAP1 SLOAD SWAP1 PUSH2 0x100 EXP SWAP1 DIV PUSH1 0xFF AND PUSH2 0xB59 JUMPI PUSH1 0x40 MLOAD PUSH32 0x8C379A000000000000000000000000000000000000000000000000000000000 DUP2 MSTORE PUSH1 0x4 ADD PUSH2 0xB50 SWAP1 PUSH2 0x20FF JUMP JUMPDEST PUSH1 0x40 MLOAD DUP1 SWAP2 SUB SWAP1 REVERT JUMPDEST PUSH1 0x4 PUSH0 DUP3 PUSH20 0xFFFFFFFFFFFFFFFFFFFFFFFFFFFFFFFFFFFFFFFF AND PUSH20 0xFFFFFFFFFFFFFFFFFFFFFFFFFFFFFFFFFFFFFFFF AND DUP2 MSTORE PUSH1 0x20 ADD SWAP1 DUP2 MSTORE PUSH1 0x20 ADD PUSH0 KECCAK256 PUSH1 0x5 ADD PUSH0 SWAP1 SLOAD SWAP1 PUSH2 0x100 EXP SWAP1 DIV PUSH1 0xFF AND PUSH2 0xBE5 JUMPI PUSH1 0x40 MLOAD PUSH32 0x8C379A000000000000000000000000000000000000000000000000000000000 DUP2 MSTORE PUSH1 0x4 ADD PUSH2 0xBDC SWAP1 PUSH2 0x218D JUMP JUMPDEST PUSH1 0x40 MLOAD DUP1 SWAP2 SUB SWAP1 REVERT JUMPDEST PUSH1 0x4 PUSH0 DUP3 PUSH20 0xFFFFFFFFFFFFFFFFFFFFFFFFFFFFFFFFFFFFFFFF AND PUSH20 0xFFFFFFFFFFFFFFFFFFFFFFFFFFFFFFFFFFFFFFFF AND DUP2 MSTORE PUSH1 0x20 ADD SWAP1 DUP2 MSTORE PUSH1 0x20 ADD PUSH0 KECCAK256 PUSH1 0x3 ADD PUSH1 0x14 SWAP1 SLOAD SWAP1 PUSH2 0x100 EXP SWAP1 DIV PUSH1 0xFF AND PUSH2 0xC72 JUMPI PUSH1 0x40 MLOAD PUSH32 0x8C379A000000000000000000000000000000000000000000000000000000000 DUP2 MSTORE PUSH1 0x4 ADD PUSH2 0xC69 SWAP1 PUSH2 0x21F5 JUMP JUMPDEST PUSH1 0x40 MLOAD DUP1 SWAP2 SUB SWAP1 REVERT JUMPDEST CALLER PUSH20 0xFFFFFFFFFFFFFFFFFFFFFFFFFFFFFFFFFFFFFFFF AND PUSH1 0x4 PUSH0 DUP4 PUSH20 0xFFFFFFFFFFFFFFFFFFFFFFFFFFFFFFFFFFFFFFFF AND PUSH20 0xFFFFFFFFFFFFFFFFFFFFFFFFFFFFFFFFFFFFFFFF AND DUP2 MSTORE PUSH1 0x20 ADD SWAP1 DUP2 MSTORE PUSH1 0x20 ADD PUSH0 KECCAK256 PUSH1 0x3 ADD PUSH0 SWAP1 SLOAD SWAP1 PUSH2 0x100 EXP SWAP1 DIV PUSH20 0xFFFFFFFFFFFFFFFFFFFFFFFFFFFFFFFFFFFFFFFF AND PUSH20 0xFFFFFFFFFFFFFFFFFFFFFFFFFFFFFFFFFFFFFFFF AND EQ PUSH2 0xD73 JUMPI DUP1 PUSH20 0xFFFFFFFFFFFFFFFFFFFFFFFFFFFFFFFFFFFFFFFF AND CALLER PUSH20 0xFFFFFFFFFFFFFFFFFFFFFFFFFFFFFFFFFFFFFFFF AND EQ PUSH2 0xD72 JUMPI PUSH1 0x40 MLOAD PUSH32 0x8C379A000000000000000000000000000000000000000000000000000000000 DUP2 MSTORE PUSH1 0x4 ADD PUSH2 0xD69 SWAP1 PUSH2 0x225D JUMP JUMPDEST PUSH1 0x40 MLOAD DUP1 SWAP2 SUB SWAP1 REVERT JUMPDEST JUMPDEST PUSH1 0x1 PUSH1 0x5 PUSH0 DUP5 DUP2 MSTORE PUSH1 0x20 ADD SWAP1 DUP2 MSTORE PUSH1 0x20 ADD PUSH0 KECCAK256 SLOAD PUSH2 0xD91 SWAP2 SWAP1 PUSH2 0x227B JUMP JUMPDEST PUSH1 0x5 PUSH0 DUP5 DUP2 MSTORE PUSH1 0x20 ADD SWAP1 DUP2 MSTORE PUSH1 0x20 ADD PUSH0 KECCAK256 DUP2 SWAP1 SSTORE POP DUP2 PUSH1 0x4 PUSH0 DUP4 PUSH20 0xFFFFFFFFFFFFFFFFFFFFFFFFFFFFFFFFFFFFFFFF AND PUSH20 0xFFFFFFFFFFFFFFFFFFFFFFFFFFFFFFFFFFFFFFFF AND DUP2 MSTORE PUSH1 0x20 ADD SWAP1 DUP2 MSTORE PUSH1 0x20 ADD PUSH0 KECCAK256 PUSH1 0x4 ADD DUP2 SWAP1 SSTORE POP PUSH1 0x1 PUSH1 0x4 PUSH0 DUP4 PUSH20 0xFFFFFFFFFFFFFFFFFFFFFFFFFFFFFFFFFFFFFFFF AND PUSH20 0xFFFFFFFFFFFFFFFFFFFFFFFFFFFFFFFFFFFFFFFF AND DUP2 MSTORE PUSH1 0x20 ADD SWAP1 DUP2 MSTORE PUSH1 0x20 ADD PUSH0 KECCAK256 PUSH1 0x3 ADD PUSH1 0x14 PUSH2 0x100 EXP DUP2 SLOAD DUP2 PUSH1 0xFF MUL NOT AND SWAP1 DUP4 ISZERO ISZERO MUL OR SWAP1 SSTORE POP POP POP JUMP JUMPDEST PUSH0 PUSH1 0x60 DUP1 PUSH1 0x3 PUSH0 DUP6 DUP2 MSTORE PUSH1 0x20 ADD SWAP1 DUP2 MSTORE PUSH1 0x20 ADD PUSH0 KECCAK256 PUSH0 ADD SLOAD PUSH1 0x3 PUSH0 DUP7 DUP2 MSTORE PUSH1 0x20 ADD SWAP1 DUP2 MSTORE PUSH1 0x20 ADD PUSH0 KECCAK256 PUSH1 0x2 ADD PUSH1 0x3 PUSH0 DUP8 DUP2 MSTORE PUSH1 0x20 ADD SWAP1 DUP2 MSTORE PUSH1 0x20 ADD PUSH0 KECCAK256 PUSH1 0x1 ADD DUP2 DUP1 SLOAD PUSH2 0xE94 SWAP1 PUSH2 0x1BBB JUMP JUMPDEST DUP1 PUSH1 0x1F ADD PUSH1 0x20 DUP1 SWAP2 DIV MUL PUSH1 0x20 ADD PUSH1 0x40 MLOAD SWAP1 DUP2 ADD PUSH1 0x40 MSTORE DUP1 SWAP3 SWAP2 SWAP1 DUP2 DUP2 MSTORE PUSH1 0x20 ADD DUP3 DUP1 SLOAD PUSH2 0xEC0 SWAP1 PUSH2 0x1BBB JUMP JUMPDEST DUP1 ISZERO PUSH2 0xF0B JUMPI DUP1 PUSH1 0x1F LT PUSH2 0xEE2 JUMPI PUSH2 0x100 DUP1 DUP4 SLOAD DIV MUL DUP4 MSTORE SWAP2 PUSH1 0x20 ADD SWAP2 PUSH2 0xF0B JUMP JUMPDEST DUP3 ADD SWAP2 SWAP1 PUSH0 MSTORE PUSH1 0x20 PUSH0 KECCAK256 SWAP1 JUMPDEST DUP2 SLOAD DUP2 MSTORE SWAP1 PUSH1 0x1 ADD SWAP1 PUSH1 0x20 ADD DUP1 DUP4 GT PUSH2 0xEEE JUMPI DUP3 SWAP1 SUB PUSH1 0x1F AND DUP3 ADD SWAP2 JUMPDEST POP POP POP POP POP SWAP2 POP DUP1 DUP1 SLOAD PUSH2 0xF1E SWAP1 PUSH2 0x1BBB JUMP JUMPDEST DUP1 PUSH1 0x1F ADD PUSH1 0x20 DUP1 SWAP2 DIV MUL PUSH1 0x20 ADD PUSH1 0x40 MLOAD SWAP1 DUP2 ADD PUSH1 0x40 MSTORE DUP1 SWAP3 SWAP2 SWAP1 DUP2 DUP2 MSTORE PUSH1 0x20 ADD DUP3 DUP1 SLOAD PUSH2 0xF4A SWAP1 PUSH2 0x1BBB JUMP JUMPDEST DUP1 ISZERO PUSH2 0xF95 JUMPI DUP1 PUSH1 0x1F LT PUSH2 0xF6C JUMPI PUSH2 0x100 DUP1 DUP4 SLOAD DIV MUL DUP4 MSTORE SWAP2 PUSH1 0x20 ADD SWAP2 PUSH2 0xF95 JUMP JUMPDEST DUP3 ADD SWAP2 SWAP1 PUSH0 MSTORE PUSH1 0x20 PUSH0 KECCAK256 SWAP1 JUMPDEST DUP2 SLOAD DUP2 MSTORE SWAP1 PUSH1 0x1 ADD SWAP1 PUSH1 0x20 ADD DUP1 DUP4 GT PUSH2 0xF78 JUMPI DUP3 SWAP1 SUB PUSH1 0x1F AND DUP3 ADD SWAP2 JUMPDEST POP POP POP POP POP SWAP1 POP SWAP3 POP SWAP3 POP SWAP3 POP SWAP2 SWAP4 SWAP1 SWAP3 POP JUMP JUMPDEST PUSH0 DUP1 SLOAD SWAP1 PUSH2 0x100 EXP SWAP1 DIV PUSH20 0xFFFFFFFFFFFFFFFFFFFFFFFFFFFFFFFFFFFFFFFF AND DUP2 JUMP JUMPDEST PUSH0 DUP1 SLOAD SWAP1 PUSH2 0x100 EXP SWAP1 DIV PUSH20 0xFFFFFFFFFFFFFFFFFFFFFFFFFFFFFFFFFFFFFFFF AND PUSH20 0xFFFFFFFFFFFFFFFFFFFFFFFFFFFFFFFFFFFFFFFF AND CALLER PUSH20 0xFFFFFFFFFFFFFFFFFFFFFFFFFFFFFFFFFFFFFFFF AND EQ PUSH2 0x1022 JUMPI PUSH0 DUP1 REVERT JUMPDEST PUSH0 DUP1 SLOAD SWAP1 PUSH2 0x100 EXP SWAP1 DIV PUSH20 0xFFFFFFFFFFFFFFFFFFFFFFFFFFFFFFFFFFFFFFFF AND PUSH20 0xFFFFFFFFFFFFFFFFFFFFFFFFFFFFFFFFFFFFFFFF AND DUP2 PUSH20 0xFFFFFFFFFFFFFFFFFFFFFFFFFFFFFFFFFFFFFFFF AND EQ PUSH2 0x10AF JUMPI PUSH1 0x40 MLOAD PUSH32 0x8C379A000000000000000000000000000000000000000000000000000000000 DUP2 MSTORE PUSH1 0x4 ADD PUSH2 0x10A6 SWAP1 PUSH2 0x19D9 JUMP JUMPDEST PUSH1 0x40 MLOAD DUP1 SWAP2 SUB SWAP1 REVERT JUMPDEST PUSH0 PUSH1 0x1 SLOAD GT PUSH2 0x10F3 JUMPI PUSH1 0x40 MLOAD PUSH32 0x8C379A000000000000000000000000000000000000000000000000000000000 DUP2 MSTORE PUSH1 0x4 ADD PUSH2 0x10EA SWAP1 PUSH2 0x22F8 JUMP JUMPDEST PUSH1 0x40 MLOAD DUP1 SWAP2 SUB SWAP1 REVERT JUMPDEST PUSH0 PUSH1 0x2 SLOAD GT PUSH2 0x1137 JUMPI PUSH1 0x40 MLOAD PUSH32 0x8C379A000000000000000000000000000000000000000000000000000000000 DUP2 MSTORE PUSH1 0x4 ADD PUSH2 0x112E SWAP1 PUSH2 0x2360 JUMP JUMPDEST PUSH1 0x40 MLOAD DUP1 SWAP2 SUB SWAP1 REVERT JUMPDEST PUSH1 0x1 PUSH1 0x2 DUP2 GT ISZERO PUSH2 0x114B JUMPI PUSH2 0x114A PUSH2 0x19F7 JUMP JUMPDEST JUMPDEST PUSH0 PUSH1 0x14 SWAP1 SLOAD SWAP1 PUSH2 0x100 EXP SWAP1 DIV PUSH1 0xFF AND PUSH1 0x2 DUP2 GT ISZERO PUSH2 0x116C JUMPI PUSH2 0x116B PUSH2 0x19F7 JUMP JUMPDEST JUMPDEST SUB PUSH2 0x11BC JUMPI PUSH0 PUSH1 0x14 SWAP1 SLOAD SWAP1 PUSH2 0x100 EXP SWAP1 DIV PUSH1 0xFF AND PUSH1 0x40 MLOAD PUSH32 0xEF90B1C100000000000000000000000000000000000000000000000000000000 DUP2 MSTORE PUSH1 0x4 ADD PUSH2 0x11B3 SWAP2 SWAP1 PUSH2 0x240E JUMP JUMPDEST PUSH1 0x40 MLOAD DUP1 SWAP2 SUB SWAP1 REVERT JUMPDEST PUSH1 0x2 DUP1 DUP2 GT ISZERO PUSH2 0x11CF JUMPI PUSH2 0x11CE PUSH2 0x19F7 JUMP JUMPDEST JUMPDEST PUSH0 PUSH1 0x14 SWAP1 SLOAD SWAP1 PUSH2 0x100 EXP SWAP1 DIV PUSH1 0xFF AND PUSH1 0x2 DUP2 GT ISZERO PUSH2 0x11F0 JUMPI PUSH2 0x11EF PUSH2 0x19F7 JUMP JUMPDEST JUMPDEST SUB PUSH2 0x1240 JUMPI PUSH0 PUSH1 0x14 SWAP1 SLOAD SWAP1 PUSH2 0x100 EXP SWAP1 DIV PUSH1 0xFF AND PUSH1 0x40 MLOAD PUSH32 0xEF90B1C100000000000000000000000000000000000000000000000000000000 DUP2 MSTORE PUSH1 0x4 ADD PUSH2 0x1237 SWAP2 SWAP1 PUSH2 0x2484 JUMP JUMPDEST PUSH1 0x40 MLOAD DUP1 SWAP2 SUB SWAP1 REVERT JUMPDEST PUSH1 0x1 PUSH0 PUSH1 0x14 PUSH2 0x100 EXP DUP2 SLOAD DUP2 PUSH1 0xFF MUL NOT AND SWAP1 DUP4 PUSH1 0x2 DUP2 GT ISZERO PUSH2 0x1265 JUMPI PUSH2 0x1264 PUSH2 0x19F7 JUMP JUMPDEST JUMPDEST MUL OR SWAP1 SSTORE POP POP JUMP JUMPDEST PUSH0 PUSH1 0x60 PUSH0 PUSH1 0x4 PUSH0 DUP6 PUSH20 0xFFFFFFFFFFFFFFFFFFFFFFFFFFFFFFFFFFFFFFFF AND PUSH20 0xFFFFFFFFFFFFFFFFFFFFFFFFFFFFFFFFFFFFFFFF AND DUP2 MSTORE PUSH1 0x20 ADD SWAP1 DUP2 MSTORE PUSH1 0x20 ADD PUSH0 KECCAK256 PUSH1 0x2 ADD PUSH0 SWAP1 SLOAD SWAP1 PUSH2 0x100 EXP SWAP1 DIV PUSH20 0xFFFFFFFFFFFFFFFFFFFFFFFFFFFFFFFFFFFFFFFF AND PUSH1 0x4 PUSH0 DUP7 PUSH20 0xFFFFFFFFFFFFFFFFFFFFFFFFFFFFFFFFFFFFFFFF AND PUSH20 0xFFFFFFFFFFFFFFFFFFFFFFFFFFFFFFFFFFFFFFFF AND DUP2 MSTORE PUSH1 0x20 ADD SWAP1 DUP2 MSTORE PUSH1 0x20 ADD PUSH0 KECCAK256 PUSH1 0x1 ADD DUP5 PUSH20 0xFFFFFFFFFFFFFFFFFFFFFFFFFFFFFFFFFFFFFFFF AND PUSH1 0x4 PUSH0 DUP9 PUSH20 0xFFFFFFFFFFFFFFFFFFFFFFFFFFFFFFFFFFFFFFFF AND PUSH20 0xFFFFFFFFFFFFFFFFFFFFFFFFFFFFFFFFFFFFFFFF AND DUP2 MSTORE PUSH1 0x20 ADD SWAP1 DUP2 MSTORE PUSH1 0x20 ADD PUSH0 KECCAK256 PUSH1 0x3 ADD PUSH0 SWAP1 SLOAD SWAP1 PUSH2 0x100 EXP SWAP1 DIV PUSH20 0xFFFFFFFFFFFFFFFFFFFFFFFFFFFFFFFFFFFFFFFF AND PUSH20 0xFFFFFFFFFFFFFFFFFFFFFFFFFFFFFFFFFFFFFFFF AND EQ PUSH2 0x13AA JUMPI PUSH1 0x1 PUSH2 0x13AC JUMP JUMPDEST PUSH0 JUMPDEST DUP2 DUP1 SLOAD PUSH2 0x13B8 SWAP1 PUSH2 0x1BBB JUMP JUMPDEST DUP1 PUSH1 0x1F ADD PUSH1 0x20 DUP1 SWAP2 DIV MUL PUSH1 0x20 ADD PUSH1 0x40 MLOAD SWAP1 DUP2 ADD PUSH1 0x40 MSTORE DUP1 SWAP3 SWAP2 SWAP1 DUP2 DUP2 MSTORE PUSH1 0x20 ADD DUP3 DUP1 SLOAD PUSH2 0x13E4 SWAP1 PUSH2 0x1BBB JUMP JUMPDEST DUP1 ISZERO PUSH2 0x142F JUMPI DUP1 PUSH1 0x1F LT PUSH2 0x1406 JUMPI PUSH2 0x100 DUP1 DUP4 SLOAD DIV MUL DUP4 MSTORE SWAP2 PUSH1 0x20 ADD SWAP2 PUSH2 0x142F JUMP JUMPDEST DUP3 ADD SWAP2 SWAP1 PUSH0 MSTORE PUSH1 0x20 PUSH0 KECCAK256 SWAP1 JUMPDEST DUP2 SLOAD DUP2 MSTORE SWAP1 PUSH1 0x1 ADD SWAP1 PUSH1 0x20 ADD DUP1 DUP4 GT PUSH2 0x1412 JUMPI DUP3 SWAP1 SUB PUSH1 0x1F AND DUP3 ADD SWAP2 JUMPDEST POP POP POP POP POP SWAP2 POP SWAP3 POP SWAP3 POP SWAP3 POP SWAP2 SWAP4 SWAP1 SWAP3 POP JUMP JUMPDEST PUSH0 PUSH1 0x40 MLOAD SWAP1 POP SWAP1 JUMP JUMPDEST PUSH0 DUP1 REVERT JUMPDEST PUSH0 DUP1 REVERT JUMPDEST PUSH0 PUSH20 0xFFFFFFFFFFFFFFFFFFFFFFFFFFFFFFFFFFFFFFFF DUP3 AND SWAP1 POP SWAP2 SWAP1 POP JUMP JUMPDEST PUSH0 PUSH2 0x147D DUP3 PUSH2 0x1454 JUMP JUMPDEST SWAP1 POP SWAP2 SWAP1 POP JUMP JUMPDEST PUSH2 0x148D DUP2 PUSH2 0x1473 JUMP JUMPDEST DUP2 EQ PUSH2 0x1497 JUMPI PUSH0 DUP1 REVERT JUMPDEST POP JUMP JUMPDEST PUSH0 DUP2 CALLDATALOAD SWAP1 POP PUSH2 0x14A8 DUP2 PUSH2 0x1484 JUMP JUMPDEST SWAP3 SWAP2 POP POP JUMP JUMPDEST PUSH0 DUP1 REVERT JUMPDEST PUSH0 DUP1 REVERT JUMPDEST PUSH0 PUSH1 0x1F NOT PUSH1 0x1F DUP4 ADD AND SWAP1 POP SWAP2 SWAP1 POP JUMP JUMPDEST PUSH32 0x4E487B7100000000000000000000000000000000000000000000000000000000 PUSH0 MSTORE PUSH1 0x41 PUSH1 0x4 MSTORE PUSH1 0x24 PUSH0 REVERT JUMPDEST PUSH2 0x14FC DUP3 PUSH2 0x14B6 JUMP JUMPDEST DUP2 ADD DUP2 DUP2 LT PUSH8 0xFFFFFFFFFFFFFFFF DUP3 GT OR ISZERO PUSH2 0x151B JUMPI PUSH2 0x151A PUSH2 0x14C6 JUMP JUMPDEST JUMPDEST DUP1 PUSH1 0x40 MSTORE POP POP POP JUMP JUMPDEST PUSH0 PUSH2 0x152D PUSH2 0x1443 JUMP JUMPDEST SWAP1 POP PUSH2 0x1539 DUP3 DUP3 PUSH2 0x14F3 JUMP JUMPDEST SWAP2 SWAP1 POP JUMP JUMPDEST PUSH0 PUSH8 0xFFFFFFFFFFFFFFFF DUP3 GT ISZERO PUSH2 0x1558 JUMPI PUSH2 0x1557 PUSH2 0x14C6 JUMP JUMPDEST JUMPDEST PUSH2 0x1561 DUP3 PUSH2 0x14B6 JUMP JUMPDEST SWAP1 POP PUSH1 0x20 DUP2 ADD SWAP1 POP SWAP2 SWAP1 POP JUMP JUMPDEST DUP3 DUP2 DUP4 CALLDATACOPY PUSH0 DUP4 DUP4 ADD MSTORE POP POP POP JUMP JUMPDEST PUSH0 PUSH2 0x158E PUSH2 0x1589 DUP5 PUSH2 0x153E JUMP JUMPDEST PUSH2 0x1524 JUMP JUMPDEST SWAP1 POP DUP3 DUP2 MSTORE PUSH1 0x20 DUP2 ADD DUP5 DUP5 DUP5 ADD GT ISZERO PUSH2 0x15AA JUMPI PUSH2 0x15A9 PUSH2 0x14B2 JUMP JUMPDEST JUMPDEST PUSH2 0x15B5 DUP5 DUP3 DUP6 PUSH2 0x156E JUMP JUMPDEST POP SWAP4 SWAP3 POP POP POP JUMP JUMPDEST PUSH0 DUP3 PUSH1 0x1F DUP4 ADD SLT PUSH2 0x15D1 JUMPI PUSH2 0x15D0 PUSH2 0x14AE JUMP JUMPDEST JUMPDEST DUP2 CALLDATALOAD PUSH2 0x15E1 DUP5 DUP3 PUSH1 0x20 DUP7 ADD PUSH2 0x157C JUMP JUMPDEST SWAP2 POP POP SWAP3 SWAP2 POP POP JUMP JUMPDEST PUSH0 DUP1 PUSH0 PUSH1 0x60 DUP5 DUP7 SUB SLT ISZERO PUSH2 0x1601 JUMPI PUSH2 0x1600 PUSH2 0x144C JUMP JUMPDEST JUMPDEST PUSH0 PUSH2 0x160E DUP7 DUP3 DUP8 ADD PUSH2 0x149A JUMP JUMPDEST SWAP4 POP POP PUSH1 0x20 DUP5 ADD CALLDATALOAD PUSH8 0xFFFFFFFFFFFFFFFF DUP2 GT ISZERO PUSH2 0x162F JUMPI PUSH2 0x162E PUSH2 0x1450 JUMP JUMPDEST JUMPDEST PUSH2 0x163B DUP7 DUP3 DUP8 ADD PUSH2 0x15BD JUMP JUMPDEST SWAP3 POP POP PUSH1 0x40 PUSH2 0x164C DUP7 DUP3 DUP8 ADD PUSH2 0x149A JUMP JUMPDEST SWAP2 POP POP SWAP3 POP SWAP3 POP SWAP3 JUMP JUMPDEST PUSH0 DUP1 PUSH1 0x40 DUP4 DUP6 SUB SLT ISZERO PUSH2 0x166C JUMPI PUSH2 0x166B PUSH2 0x144C JUMP JUMPDEST JUMPDEST PUSH0 PUSH2 0x1679 DUP6 DUP3 DUP7 ADD PUSH2 0x149A JUMP JUMPDEST SWAP3 POP POP PUSH1 0x20 PUSH2 0x168A DUP6 DUP3 DUP7 ADD PUSH2 0x149A JUMP JUMPDEST SWAP2 POP POP SWAP3 POP SWAP3 SWAP1 POP JUMP JUMPDEST PUSH0 DUP2 SWAP1 POP SWAP2 SWAP1 POP JUMP JUMPDEST PUSH2 0x16A6 DUP2 PUSH2 0x1694 JUMP JUMPDEST DUP2 EQ PUSH2 0x16B0 JUMPI PUSH0 DUP1 REVERT JUMPDEST POP JUMP JUMPDEST PUSH0 DUP2 CALLDATALOAD SWAP1 POP PUSH2 0x16C1 DUP2 PUSH2 0x169D JUMP JUMPDEST SWAP3 SWAP2 POP POP JUMP JUMPDEST PUSH0 PUSH1 0x20 DUP3 DUP5 SUB SLT ISZERO PUSH2 0x16DC JUMPI PUSH2 0x16DB PUSH2 0x144C JUMP JUMPDEST JUMPDEST PUSH0 PUSH2 0x16E9 DUP5 DUP3 DUP6 ADD PUSH2 0x16B3 JUMP JUMPDEST SWAP2 POP POP SWAP3 SWAP2 POP POP JUMP JUMPDEST PUSH2 0x16FB DUP2 PUSH2 0x1694 JUMP JUMPDEST DUP3 MSTORE POP POP JUMP JUMPDEST PUSH0 DUP2 MLOAD SWAP1 POP SWAP2 SWAP1 POP JUMP JUMPDEST PUSH0 DUP3 DUP3 MSTORE PUSH1 0x20 DUP3 ADD SWAP1 POP SWAP3 SWAP2 POP POP JUMP JUMPDEST PUSH0 JUMPDEST DUP4 DUP2 LT ISZERO PUSH2 0x1738 JUMPI DUP1 DUP3 ADD MLOAD DUP2 DUP5 ADD MSTORE PUSH1 0x20 DUP2 ADD SWAP1 POP PUSH2 0x171D JUMP JUMPDEST PUSH0 DUP5 DUP5 ADD MSTORE POP POP POP POP JUMP JUMPDEST PUSH0 PUSH2 0x174D DUP3 PUSH2 0x1701 JUMP JUMPDEST PUSH2 0x1757 DUP2 DUP6 PUSH2 0x170B JUMP JUMPDEST SWAP4 POP PUSH2 0x1767 DUP2 DUP6 PUSH1 0x20 DUP7 ADD PUSH2 0x171B JUMP JUMPDEST PUSH2 0x1770 DUP2 PUSH2 0x14B6 JUMP JUMPDEST DUP5 ADD SWAP2 POP POP SWAP3 SWAP2 POP POP JUMP JUMPDEST PUSH0 PUSH1 0x60 DUP3 ADD SWAP1 POP PUSH2 0x178E PUSH0 DUP4 ADD DUP7 PUSH2 0x16F2 JUMP JUMPDEST DUP2 DUP2 SUB PUSH1 0x20 DUP4 ADD MSTORE PUSH2 0x17A0 DUP2 DUP6 PUSH2 0x1743 JUMP JUMPDEST SWAP1 POP PUSH2 0x17AF PUSH1 0x40 DUP4 ADD DUP5 PUSH2 0x16F2 JUMP JUMPDEST SWAP5 SWAP4 POP POP POP POP JUMP JUMPDEST PUSH0 DUP1 PUSH0 PUSH1 0x60 DUP5 DUP7 SUB SLT ISZERO PUSH2 0x17CE JUMPI PUSH2 0x17CD PUSH2 0x144C JUMP JUMPDEST JUMPDEST PUSH0 DUP5 ADD CALLDATALOAD PUSH8 0xFFFFFFFFFFFFFFFF DUP2 GT ISZERO PUSH2 0x17EB JUMPI PUSH2 0x17EA PUSH2 0x1450 JUMP JUMPDEST JUMPDEST PUSH2 0x17F7 DUP7 DUP3 DUP8 ADD PUSH2 0x15BD JUMP JUMPDEST SWAP4 POP POP PUSH1 0x20 DUP5 ADD CALLDATALOAD PUSH8 0xFFFFFFFFFFFFFFFF DUP2 GT ISZERO PUSH2 0x1818 JUMPI PUSH2 0x1817 PUSH2 0x1450 JUMP JUMPDEST JUMPDEST PUSH2 0x1824 DUP7 DUP3 DUP8 ADD PUSH2 0x15BD JUMP JUMPDEST SWAP3 POP POP PUSH1 0x40 PUSH2 0x1835 DUP7 DUP3 DUP8 ADD PUSH2 0x149A JUMP JUMPDEST SWAP2 POP POP SWAP3 POP SWAP3 POP SWAP3 JUMP JUMPDEST PUSH0 DUP1 PUSH1 0x40 DUP4 DUP6 SUB SLT ISZERO PUSH2 0x1855 JUMPI PUSH2 0x1854 PUSH2 0x144C JUMP JUMPDEST JUMPDEST PUSH0 PUSH2 0x1862 DUP6 DUP3 DUP7 ADD PUSH2 0x16B3 JUMP JUMPDEST SWAP3 POP POP PUSH1 0x20 PUSH2 0x1873 DUP6 DUP3 DUP7 ADD PUSH2 0x149A JUMP JUMPDEST SWAP2 POP POP SWAP3 POP SWAP3 SWAP1 POP JUMP JUMPDEST PUSH0 PUSH1 0x60 DUP3 ADD SWAP1 POP PUSH2 0x1890 PUSH0 DUP4 ADD DUP7 PUSH2 0x16F2 JUMP JUMPDEST DUP2 DUP2 SUB PUSH1 0x20 DUP4 ADD MSTORE PUSH2 0x18A2 DUP2 DUP6 PUSH2 0x1743 JUMP JUMPDEST SWAP1 POP DUP2 DUP2 SUB PUSH1 0x40 DUP4 ADD MSTORE PUSH2 0x18B6 DUP2 DUP5 PUSH2 0x1743 JUMP JUMPDEST SWAP1 POP SWAP5 SWAP4 POP POP POP POP JUMP JUMPDEST PUSH2 0x18C9 DUP2 PUSH2 0x1473 JUMP JUMPDEST DUP3 MSTORE POP POP JUMP JUMPDEST PUSH0 PUSH1 0x20 DUP3 ADD SWAP1 POP PUSH2 0x18E2 PUSH0 DUP4 ADD DUP5 PUSH2 0x18C0 JUMP JUMPDEST SWAP3 SWAP2 POP POP JUMP JUMPDEST PUSH0 PUSH1 0x20 DUP3 DUP5 SUB SLT ISZERO PUSH2 0x18FD JUMPI PUSH2 0x18FC PUSH2 0x144C JUMP JUMPDEST JUMPDEST PUSH0 PUSH2 0x190A DUP5 DUP3 DUP6 ADD PUSH2 0x149A JUMP JUMPDEST SWAP2 POP POP SWAP3 SWAP2 POP POP JUMP JUMPDEST PUSH0 DUP2 ISZERO ISZERO SWAP1 POP SWAP2 SWAP1 POP JUMP JUMPDEST PUSH2 0x1927 DUP2 PUSH2 0x1913 JUMP JUMPDEST DUP3 MSTORE POP POP JUMP JUMPDEST PUSH0 PUSH1 0x60 DUP3 ADD SWAP1 POP PUSH2 0x1940 PUSH0 DUP4 ADD DUP7 PUSH2 0x18C0 JUMP JUMPDEST DUP2 DUP2 SUB PUSH1 0x20 DUP4 ADD MSTORE PUSH2 0x1952 DUP2 DUP6 PUSH2 0x1743 JUMP JUMPDEST SWAP1 POP PUSH2 0x1961 PUSH1 0x40 DUP4 ADD DUP5 PUSH2 0x191E JUMP JUMPDEST SWAP5 SWAP4 POP POP POP POP JUMP JUMPDEST PUSH32 0x4F6E6C792061646D696E206861732061636365737320746F20646F2074686973 PUSH0 DUP3 ADD MSTORE PUSH32 0x2E00000000000000000000000000000000000000000000000000000000000000 PUSH1 0x20 DUP3 ADD MSTORE POP JUMP JUMPDEST PUSH0 PUSH2 0x19C3 PUSH1 0x21 DUP4 PUSH2 0x170B JUMP JUMPDEST SWAP2 POP PUSH2 0x19CE DUP3 PUSH2 0x1969 JUMP JUMPDEST PUSH1 0x40 DUP3 ADD SWAP1 POP SWAP2 SWAP1 POP JUMP JUMPDEST PUSH0 PUSH1 0x20 DUP3 ADD SWAP1 POP DUP2 DUP2 SUB PUSH0 DUP4 ADD MSTORE PUSH2 0x19F0 DUP2 PUSH2 0x19B7 JUMP JUMPDEST SWAP1 POP SWAP2 SWAP1 POP JUMP JUMPDEST PUSH32 0x4E487B7100000000000000000000000000000000000000000000000000000000 PUSH0 MSTORE PUSH1 0x21 PUSH1 0x4 MSTORE PUSH1 0x24 PUSH0 REVERT JUMPDEST PUSH32 0x566F74696E6720616C72656164792073746172746564206F7220636F6D706C65 PUSH0 DUP3 ADD MSTORE PUSH32 0x7465640000000000000000000000000000000000000000000000000000000000 PUSH1 0x20 DUP3 ADD MSTORE POP JUMP JUMPDEST PUSH0 PUSH2 0x1A7E PUSH1 0x23 DUP4 PUSH2 0x170B JUMP JUMPDEST SWAP2 POP PUSH2 0x1A89 DUP3 PUSH2 0x1A24 JUMP JUMPDEST PUSH1 0x40 DUP3 ADD SWAP1 POP SWAP2 SWAP1 POP JUMP JUMPDEST PUSH0 PUSH1 0x20 DUP3 ADD SWAP1 POP DUP2 DUP2 SUB PUSH0 DUP4 ADD MSTORE PUSH2 0x1AAB DUP2 PUSH2 0x1A72 JUMP JUMPDEST SWAP1 POP SWAP2 SWAP1 POP JUMP JUMPDEST PUSH32 0x766F74657220616C72656164792061646465642E000000000000000000000000 PUSH0 DUP3 ADD MSTORE POP JUMP JUMPDEST PUSH0 PUSH2 0x1AE6 PUSH1 0x14 DUP4 PUSH2 0x170B JUMP JUMPDEST SWAP2 POP PUSH2 0x1AF1 DUP3 PUSH2 0x1AB2 JUMP JUMPDEST PUSH1 0x20 DUP3 ADD SWAP1 POP SWAP2 SWAP1 POP JUMP JUMPDEST PUSH0 PUSH1 0x20 DUP3 ADD SWAP1 POP DUP2 DUP2 SUB PUSH0 DUP4 ADD MSTORE PUSH2 0x1B13 DUP2 PUSH2 0x1ADA JUMP JUMPDEST SWAP1 POP SWAP2 SWAP1 POP JUMP JUMPDEST PUSH32 0x4E487B7100000000000000000000000000000000000000000000000000000000 PUSH0 MSTORE PUSH1 0x11 PUSH1 0x4 MSTORE PUSH1 0x24 PUSH0 REVERT JUMPDEST PUSH0 PUSH2 0x1B51 DUP3 PUSH2 0x1694 JUMP JUMPDEST SWAP2 POP PUSH32 0xFFFFFFFFFFFFFFFFFFFFFFFFFFFFFFFFFFFFFFFFFFFFFFFFFFFFFFFFFFFFFFFF DUP3 SUB PUSH2 0x1B83 JUMPI PUSH2 0x1B82 PUSH2 0x1B1A JUMP JUMPDEST JUMPDEST PUSH1 0x1 DUP3 ADD SWAP1 POP SWAP2 SWAP1 POP JUMP JUMPDEST PUSH32 0x4E487B7100000000000000000000000000000000000000000000000000000000 PUSH0 MSTORE PUSH1 0x22 PUSH1 0x4 MSTORE PUSH1 0x24 PUSH0 REVERT JUMPDEST PUSH0 PUSH1 0x2 DUP3 DIV SWAP1 POP PUSH1 0x1 DUP3 AND DUP1 PUSH2 0x1BD2 JUMPI PUSH1 0x7F DUP3 AND SWAP2 POP JUMPDEST PUSH1 0x20 DUP3 LT DUP2 SUB PUSH2 0x1BE5 JUMPI PUSH2 0x1BE4 PUSH2 0x1B8E JUMP JUMPDEST JUMPDEST POP SWAP2 SWAP1 POP JUMP JUMPDEST PUSH0 DUP2 SWAP1 POP DUP2 PUSH0 MSTORE PUSH1 0x20 PUSH0 KECCAK256 SWAP1 POP SWAP2 SWAP1 POP JUMP JUMPDEST PUSH0 PUSH1 0x20 PUSH1 0x1F DUP4 ADD DIV SWAP1 POP SWAP2 SWAP1 POP JUMP JUMPDEST PUSH0 DUP3 DUP3 SHL SWAP1 POP SWAP3 SWAP2 POP POP JUMP JUMPDEST PUSH0 PUSH1 0x8 DUP4 MUL PUSH2 0x1C47 PUSH32 0xFFFFFFFFFFFFFFFFFFFFFFFFFFFFFFFFFFFFFFFFFFFFFFFFFFFFFFFFFFFFFFFF DUP3 PUSH2 0x1C0C JUMP JUMPDEST PUSH2 0x1C51 DUP7 DUP4 PUSH2 0x1C0C JUMP JUMPDEST SWAP6 POP DUP1 NOT DUP5 AND SWAP4 POP DUP1 DUP7 AND DUP5 OR SWAP3 POP POP POP SWAP4 SWAP3 POP POP POP JUMP JUMPDEST PUSH0 DUP2 SWAP1 POP SWAP2 SWAP1 POP JUMP JUMPDEST PUSH0 PUSH2 0x1C8C PUSH2 0x1C87 PUSH2 0x1C82 DUP5 PUSH2 0x1694 JUMP JUMPDEST PUSH2 0x1C69 JUMP JUMPDEST PUSH2 0x1694 JUMP JUMPDEST SWAP1 POP SWAP2 SWAP1 POP JUMP JUMPDEST PUSH0 DUP2 SWAP1 POP SWAP2 SWAP1 POP JUMP JUMPDEST PUSH2 0x1CA5 DUP4 PUSH2 0x1C72 JUMP JUMPDEST PUSH2 0x1CB9 PUSH2 0x1CB1 DUP3 PUSH2 0x1C93 JUMP JUMPDEST DUP5 DUP5 SLOAD PUSH2 0x1C18 JUMP JUMPDEST DUP3 SSTORE POP POP POP POP JUMP JUMPDEST PUSH0 SWAP1 JUMP JUMPDEST PUSH2 0x1CCD PUSH2 0x1CC1 JUMP JUMPDEST PUSH2 0x1CD8 DUP2 DUP5 DUP5 PUSH2 0x1C9C JUMP JUMPDEST POP POP POP JUMP JUMPDEST JUMPDEST DUP2 DUP2 LT ISZERO PUSH2 0x1CFB JUMPI PUSH2 0x1CF0 PUSH0 DUP3 PUSH2 0x1CC5 JUMP JUMPDEST PUSH1 0x1 DUP2 ADD SWAP1 POP PUSH2 0x1CDE JUMP JUMPDEST POP POP JUMP JUMPDEST PUSH1 0x1F DUP3 GT ISZERO PUSH2 0x1D40 JUMPI PUSH2 0x1D11 DUP2 PUSH2 0x1BEB JUMP JUMPDEST PUSH2 0x1D1A DUP5 PUSH2 0x1BFD JUMP JUMPDEST DUP2 ADD PUSH1 0x20 DUP6 LT ISZERO PUSH2 0x1D29 JUMPI DUP2 SWAP1 POP JUMPDEST PUSH2 0x1D3D PUSH2 0x1D35 DUP6 PUSH2 0x1BFD JUMP JUMPDEST DUP4 ADD DUP3 PUSH2 0x1CDD JUMP JUMPDEST POP POP JUMPDEST POP POP POP JUMP JUMPDEST PUSH0 DUP3 DUP3 SHR SWAP1 POP SWAP3 SWAP2 POP POP JUMP JUMPDEST PUSH0 PUSH2 0x1D60 PUSH0 NOT DUP5 PUSH1 0x8 MUL PUSH2 0x1D45 JUMP JUMPDEST NOT DUP1 DUP4 AND SWAP2 POP POP SWAP3 SWAP2 POP POP JUMP JUMPDEST PUSH0 PUSH2 0x1D78 DUP4 DUP4 PUSH2 0x1D51 JUMP JUMPDEST SWAP2 POP DUP3 PUSH1 0x2 MUL DUP3 OR SWAP1 POP SWAP3 SWAP2 POP POP JUMP JUMPDEST PUSH2 0x1D91 DUP3 PUSH2 0x1701 JUMP JUMPDEST PUSH8 0xFFFFFFFFFFFFFFFF DUP2 GT ISZERO PUSH2 0x1DAA JUMPI PUSH2 0x1DA9 PUSH2 0x14C6 JUMP JUMPDEST JUMPDEST PUSH2 0x1DB4 DUP3 SLOAD PUSH2 0x1BBB JUMP JUMPDEST PUSH2 0x1DBF DUP3 DUP3 DUP6 PUSH2 0x1CFF JUMP JUMPDEST PUSH0 PUSH1 0x20 SWAP1 POP PUSH1 0x1F DUP4 GT PUSH1 0x1 DUP2 EQ PUSH2 0x1DF0 JUMPI PUSH0 DUP5 ISZERO PUSH2 0x1DDE JUMPI DUP3 DUP8 ADD MLOAD SWAP1 POP JUMPDEST PUSH2 0x1DE8 DUP6 DUP3 PUSH2 0x1D6D JUMP JUMPDEST DUP7 SSTORE POP PUSH2 0x1E4F JUMP JUMPDEST PUSH1 0x1F NOT DUP5 AND PUSH2 0x1DFE DUP7 PUSH2 0x1BEB JUMP JUMPDEST PUSH0 JUMPDEST DUP3 DUP2 LT ISZERO PUSH2 0x1E25 JUMPI DUP5 DUP10 ADD MLOAD DUP3 SSTORE PUSH1 0x1 DUP3 ADD SWAP2 POP PUSH1 0x20 DUP6 ADD SWAP5 POP PUSH1 0x20 DUP2 ADD SWAP1 POP PUSH2 0x1E00 JUMP JUMPDEST DUP7 DUP4 LT ISZERO PUSH2 0x1E42 JUMPI DUP5 DUP10 ADD MLOAD PUSH2 0x1E3E PUSH1 0x1F DUP10 AND DUP3 PUSH2 0x1D51 JUMP JUMPDEST DUP4 SSTORE POP JUMPDEST PUSH1 0x1 PUSH1 0x2 DUP9 MUL ADD DUP9 SSTORE POP POP POP JUMPDEST POP POP POP POP POP POP JUMP JUMPDEST PUSH32 0x566F74696E67206E6F7420696E2070726F67726573732E20596F752063616E20 PUSH0 DUP3 ADD MSTORE PUSH32 0x6E6F742064656C65746567617465206E6F772E00000000000000000000000000 PUSH1 0x20 DUP3 ADD MSTORE POP JUMP JUMPDEST PUSH0 PUSH2 0x1EB1 PUSH1 0x33 DUP4 PUSH2 0x170B JUMP JUMPDEST SWAP2 POP PUSH2 0x1EBC DUP3 PUSH2 0x1E57 JUMP JUMPDEST PUSH1 0x40 DUP3 ADD SWAP1 POP SWAP2 SWAP1 POP JUMP JUMPDEST PUSH0 PUSH1 0x20 DUP3 ADD SWAP1 POP DUP2 DUP2 SUB PUSH0 DUP4 ADD MSTORE PUSH2 0x1EDE DUP2 PUSH2 0x1EA5 JUMP JUMPDEST SWAP1 POP SWAP2 SWAP1 POP JUMP JUMPDEST PUSH32 0x4F6E6C792061646472657373206F776E65722063616E2064656C656761746520 PUSH0 DUP3 ADD MSTORE PUSH32 0x766F74696E672072696768747320746F20616E6F746865722061646472657373 PUSH1 0x20 DUP3 ADD MSTORE PUSH32 0x2E00000000000000000000000000000000000000000000000000000000000000 PUSH1 0x40 DUP3 ADD MSTORE POP JUMP JUMPDEST PUSH0 PUSH2 0x1F65 PUSH1 0x41 DUP4 PUSH2 0x170B JUMP JUMPDEST SWAP2 POP PUSH2 0x1F70 DUP3 PUSH2 0x1EE5 JUMP JUMPDEST PUSH1 0x60 DUP3 ADD SWAP1 POP SWAP2 SWAP1 POP JUMP JUMPDEST PUSH0 PUSH1 0x20 DUP3 ADD SWAP1 POP DUP2 DUP2 SUB PUSH0 DUP4 ADD MSTORE PUSH2 0x1F92 DUP2 PUSH2 0x1F59 JUMP JUMPDEST SWAP1 POP SWAP2 SWAP1 POP JUMP JUMPDEST PUSH32 0x596F752063616E206E6F742064656C656761746520766F74696E672072696768 PUSH0 DUP3 ADD MSTORE PUSH32 0x74732E20596F75206861766520616C726561647920766F7465642E0000000000 PUSH1 0x20 DUP3 ADD MSTORE POP JUMP JUMPDEST PUSH0 PUSH2 0x1FF3 PUSH1 0x3B DUP4 PUSH2 0x170B JUMP JUMPDEST SWAP2 POP PUSH2 0x1FFE DUP3 PUSH2 0x1F99 JUMP JUMPDEST PUSH1 0x40 DUP3 ADD SWAP1 POP SWAP2 SWAP1 POP JUMP JUMPDEST PUSH0 PUSH1 0x20 DUP3 ADD SWAP1 POP DUP2 DUP2 SUB PUSH0 DUP4 ADD MSTORE PUSH2 0x2020 DUP2 PUSH2 0x1FE7 JUMP JUMPDEST SWAP1 POP SWAP2 SWAP1 POP JUMP JUMPDEST PUSH32 0x45697468657220766F74696E6720686173206E6F742073746172746564206F72 PUSH0 DUP3 ADD MSTORE PUSH32 0x20636F6D706C657465642E000000000000000000000000000000000000000000 PUSH1 0x20 DUP3 ADD MSTORE POP JUMP JUMPDEST PUSH0 PUSH2 0x2081 PUSH1 0x2B DUP4 PUSH2 0x170B JUMP JUMPDEST SWAP2 POP PUSH2 0x208C DUP3 PUSH2 0x2027 JUMP JUMPDEST PUSH1 0x40 DUP3 ADD SWAP1 POP SWAP2 SWAP1 POP JUMP JUMPDEST PUSH0 PUSH1 0x20 DUP3 ADD SWAP1 POP DUP2 DUP2 SUB PUSH0 DUP4 ADD MSTORE PUSH2 0x20AE DUP2 PUSH2 0x2075 JUMP JUMPDEST SWAP1 POP SWAP2 SWAP1 POP JUMP JUMPDEST PUSH32 0x63616E646964617465207769746820696420646F6573206E6F74206578697374 PUSH0 DUP3 ADD MSTORE POP JUMP JUMPDEST PUSH0 PUSH2 0x20E9 PUSH1 0x20 DUP4 PUSH2 0x170B JUMP JUMPDEST SWAP2 POP PUSH2 0x20F4 DUP3 PUSH2 0x20B5 JUMP JUMPDEST PUSH1 0x20 DUP3 ADD SWAP1 POP SWAP2 SWAP1 POP JUMP JUMPDEST PUSH0 PUSH1 0x20 DUP3 ADD SWAP1 POP DUP2 DUP2 SUB PUSH0 DUP4 ADD MSTORE PUSH2 0x2116 DUP2 PUSH2 0x20DD JUMP JUMPDEST SWAP1 POP SWAP2 SWAP1 POP JUMP JUMPDEST PUSH32 0x766F7465722077697468206164647265737320646F6573206E6F742065786973 PUSH0 DUP3 ADD MSTORE PUSH32 0x7400000000000000000000000000000000000000000000000000000000000000 PUSH1 0x20 DUP3 ADD MSTORE POP JUMP JUMPDEST PUSH0 PUSH2 0x2177 PUSH1 0x21 DUP4 PUSH2 0x170B JUMP JUMPDEST SWAP2 POP PUSH2 0x2182 DUP3 PUSH2 0x211D JUMP JUMPDEST PUSH1 0x40 DUP3 ADD SWAP1 POP SWAP2 SWAP1 POP JUMP JUMPDEST PUSH0 PUSH1 0x20 DUP3 ADD SWAP1 POP DUP2 DUP2 SUB PUSH0 DUP4 ADD MSTORE PUSH2 0x21A4 DUP2 PUSH2 0x216B JUMP JUMPDEST SWAP1 POP SWAP2 SWAP1 POP JUMP JUMPDEST PUSH32 0x566F746520616C726561647920706C6163656400000000000000000000000000 PUSH0 DUP3 ADD MSTORE POP JUMP JUMPDEST PUSH0 PUSH2 0x21DF PUSH1 0x13 DUP4 PUSH2 0x170B JUMP JUMPDEST SWAP2 POP PUSH2 0x21EA DUP3 PUSH2 0x21AB JUMP JUMPDEST PUSH1 0x20 DUP3 ADD SWAP1 POP SWAP2 SWAP1 POP JUMP JUMPDEST PUSH0 PUSH1 0x20 DUP3 ADD SWAP1 POP DUP2 DUP2 SUB PUSH0 DUP4 ADD MSTORE PUSH2 0x220C DUP2 PUSH2 0x21D3 JUMP JUMPDEST SWAP1 POP SWAP2 SWAP1 POP JUMP JUMPDEST PUSH32 0x796F752063616E206E6F7420766F746500000000000000000000000000000000 PUSH0 DUP3 ADD MSTORE POP JUMP JUMPDEST PUSH0 PUSH2 0x2247 PUSH1 0x10 DUP4 PUSH2 0x170B JUMP JUMPDEST SWAP2 POP PUSH2 0x2252 DUP3 PUSH2 0x2213 JUMP JUMPDEST PUSH1 0x20 DUP3 ADD SWAP1 POP SWAP2 SWAP1 POP JUMP JUMPDEST PUSH0 PUSH1 0x20 DUP3 ADD SWAP1 POP DUP2 DUP2 SUB PUSH0 DUP4 ADD MSTORE PUSH2 0x2274 DUP2 PUSH2 0x223B JUMP JUMPDEST SWAP1 POP SWAP2 SWAP1 POP JUMP JUMPDEST PUSH0 PUSH2 0x2285 DUP3 PUSH2 0x1694 JUMP JUMPDEST SWAP2 POP PUSH2 0x2290 DUP4 PUSH2 0x1694 JUMP JUMPDEST SWAP3 POP DUP3 DUP3 ADD SWAP1 POP DUP1 DUP3 GT ISZERO PUSH2 0x22A8 JUMPI PUSH2 0x22A7 PUSH2 0x1B1A JUMP JUMPDEST JUMPDEST SWAP3 SWAP2 POP POP JUMP JUMPDEST PUSH32 0x302063616E646964617465732072656769737465726564000000000000000000 PUSH0 DUP3 ADD MSTORE POP JUMP JUMPDEST PUSH0 PUSH2 0x22E2 PUSH1 0x17 DUP4 PUSH2 0x170B JUMP JUMPDEST SWAP2 POP PUSH2 0x22ED DUP3 PUSH2 0x22AE JUMP JUMPDEST PUSH1 0x20 DUP3 ADD SWAP1 POP SWAP2 SWAP1 POP JUMP JUMPDEST PUSH0 PUSH1 0x20 DUP3 ADD SWAP1 POP DUP2 DUP2 SUB PUSH0 DUP4 ADD MSTORE PUSH2 0x230F DUP2 PUSH2 0x22D6 JUMP JUMPDEST SWAP1 POP SWAP2 SWAP1 POP JUMP JUMPDEST PUSH32 0x3020766F74657273207265676973746572656400000000000000000000000000 PUSH0 DUP3 ADD MSTORE POP JUMP JUMPDEST PUSH0 PUSH2 0x234A PUSH1 0x13 DUP4 PUSH2 0x170B JUMP JUMPDEST SWAP2 POP PUSH2 0x2355 DUP3 PUSH2 0x2316 JUMP JUMPDEST PUSH1 0x20 DUP3 ADD SWAP1 POP SWAP2 SWAP1 POP JUMP JUMPDEST PUSH0 PUSH1 0x20 DUP3 ADD SWAP1 POP DUP2 DUP2 SUB PUSH0 DUP4 ADD MSTORE PUSH2 0x2377 DUP2 PUSH2 0x233E JUMP JUMPDEST SWAP1 POP SWAP2 SWAP1 POP JUMP JUMPDEST PUSH1 0x3 DUP2 LT PUSH2 0x238F JUMPI PUSH2 0x238E PUSH2 0x19F7 JUMP JUMPDEST JUMPDEST POP JUMP JUMPDEST PUSH0 DUP2 SWAP1 POP PUSH2 0x239F DUP3 PUSH2 0x237E JUMP JUMPDEST SWAP2 SWAP1 POP JUMP JUMPDEST PUSH0 PUSH2 0x23AE DUP3 PUSH2 0x2392 JUMP JUMPDEST SWAP1 POP SWAP2 SWAP1 POP JUMP JUMPDEST PUSH2 0x23BE DUP2 PUSH2 0x23A4 JUMP JUMPDEST DUP3 MSTORE POP POP JUMP JUMPDEST PUSH32 0x566F74696E67206F6E676F696E67000000000000000000000000000000000000 PUSH0 DUP3 ADD MSTORE POP JUMP JUMPDEST PUSH0 PUSH2 0x23F8 PUSH1 0xE DUP4 PUSH2 0x170B JUMP JUMPDEST SWAP2 POP PUSH2 0x2403 DUP3 PUSH2 0x23C4 JUMP JUMPDEST PUSH1 0x20 DUP3 ADD SWAP1 POP SWAP2 SWAP1 POP JUMP JUMPDEST PUSH0 PUSH1 0x40 DUP3 ADD SWAP1 POP PUSH2 0x2421 PUSH0 DUP4 ADD DUP5 PUSH2 0x23B5 JUMP JUMPDEST DUP2 DUP2 SUB PUSH1 0x20 DUP4 ADD MSTORE PUSH2 0x2432 DUP2 PUSH2 0x23EC JUMP JUMPDEST SWAP1 POP SWAP3 SWAP2 POP POP JUMP JUMPDEST PUSH32 0x566F74696E6720636F6D706C6574656400000000000000000000000000000000 PUSH0 DUP3 ADD MSTORE POP JUMP JUMPDEST PUSH0 PUSH2 0x246E PUSH1 0x10 DUP4 PUSH2 0x170B JUMP JUMPDEST SWAP2 POP PUSH2 0x2479 DUP3 PUSH2 0x243A JUMP JUMPDEST PUSH1 0x20 DUP3 ADD SWAP1 POP SWAP2 SWAP1 POP JUMP JUMPDEST PUSH0 PUSH1 0x40 DUP3 ADD SWAP1 POP PUSH2 0x2497 PUSH0 DUP4 ADD DUP5 PUSH2 0x23B5 JUMP JUMPDEST DUP2 DUP2 SUB PUSH1 0x20 DUP4 ADD MSTORE PUSH2 0x24A8 DUP2 PUSH2 0x2462 JUMP JUMPDEST SWAP1 POP SWAP3 SWAP2 POP POP JUMP INVALID LOG2 PUSH5 0x6970667358 0x22 SLT KECCAK256 0xAD 0xE7 EXP 0xC3 0xD6 CALLCODE BLOCKHASH 0xAD 0xEE 0xC4 TIMESTAMP DUP12 0xED PUSH1 0x76 0xE6 0xF9 SWAP12 0xF OR STOP CODECOPY 0x2C 0xB3 0xB9 0xE MSTORE8 0xD9 GASPRICE MLOAD 0xE6 0xB4 PUSH5 0x736F6C6343 STOP ADDMOD AND STOP CALLER "
				},
				"gasEstimates": {
					"creation": {
						"codeDepositCost": "1889200",
						"executionCost": "60619",
						"totalCost": "1949819"
					},
					"external": {
						"addNewCandidate(string,string,address)": "infinite",
						"addNewVoter(address,string,address)": "infinite",
						"castVote(uint256,address)": "infinite",
						"delegateVotingRight(address,address)": "infinite",
						"displayCandidateDetails(uint256)": "infinite",
						"endElection()": "28972",
						"showElectionResults(uint256)": "infinite",
						"startElection(address)": "37948",
						"viewVoterDetails(address)": "infinite",
						"votingAdmin()": "2549"
					}
				},
				"methodIdentifiers": {
					"addNewCandidate(string,string,address)": "723309a0",
					"addNewVoter(address,string,address)": "3cdd97bf",
					"castVote(uint256,address)": "77df41b7",
					"delegateVotingRight(address,address)": "3d0af840",
					"displayCandidateDetails(uint256)": "a48292ce",
					"endElection()": "59f78468",
					"showElectionResults(uint256)": "4ad7b863",
					"startElection(address)": "e6a5e61d",
					"viewVoterDetails(address)": "f83bfa28",
					"votingAdmin()": "d45529f4"
				}
			},
			"storageLayout": {
				"storage": [
					{
						"astId": 3,
						"contract": "contracts/voting.sol:VotingSoftware",
						"label": "votingAdmin",
						"offset": 0,
						"slot": "0",
						"type": "t_address"
					},
					{
						"astId": 56,
						"contract": "contracts/voting.sol:VotingSoftware",
						"label": "status",
						"offset": 20,
						"slot": "0",
						"type": "t_enum(VotingStatus)51"
					},
					{
						"astId": 59,
						"contract": "contracts/voting.sol:VotingSoftware",
						"label": "candidateCount",
						"offset": 0,
						"slot": "1",
						"type": "t_uint256"
					},
					{
						"astId": 62,
						"contract": "contracts/voting.sol:VotingSoftware",
						"label": "voterCount",
						"offset": 0,
						"slot": "2",
						"type": "t_uint256"
					},
					{
						"astId": 67,
						"contract": "contracts/voting.sol:VotingSoftware",
						"label": "candidates",
						"offset": 0,
						"slot": "3",
						"type": "t_mapping(t_uint256,t_struct(Candidate)47_storage)"
					},
					{
						"astId": 72,
						"contract": "contracts/voting.sol:VotingSoftware",
						"label": "voters",
						"offset": 0,
						"slot": "4",
						"type": "t_mapping(t_address,t_struct(Voter)38_storage)"
					},
					{
						"astId": 76,
						"contract": "contracts/voting.sol:VotingSoftware",
						"label": "voteCounts",
						"offset": 0,
						"slot": "5",
						"type": "t_mapping(t_uint256,t_uint256)"
					}
				],
				"types": {
					"t_address": {
						"encoding": "inplace",
						"label": "address",
						"numberOfBytes": "20"
					},
					"t_bool": {
						"encoding": "inplace",
						"label": "bool",
						"numberOfBytes": "1"
					},
					"t_enum(VotingStatus)51": {
						"encoding": "inplace",
						"label": "enum VotingSoftware.VotingStatus",
						"numberOfBytes": "1"
					},
					"t_mapping(t_address,t_struct(Voter)38_storage)": {
						"encoding": "mapping",
						"key": "t_address",
						"label": "mapping(address => struct VotingSoftware.Voter)",
						"numberOfBytes": "32",
						"value": "t_struct(Voter)38_storage"
					},
					"t_mapping(t_uint256,t_struct(Candidate)47_storage)": {
						"encoding": "mapping",
						"key": "t_uint256",
						"label": "mapping(uint256 => struct VotingSoftware.Candidate)",
						"numberOfBytes": "32",
						"value": "t_struct(Candidate)47_storage"
					},
					"t_mapping(t_uint256,t_uint256)": {
						"encoding": "mapping",
						"key": "t_uint256",
						"label": "mapping(uint256 => uint256)",
						"numberOfBytes": "32",
						"value": "t_uint256"
					},
					"t_string_storage": {
						"encoding": "bytes",
						"label": "string",
						"numberOfBytes": "32"
					},
					"t_struct(Candidate)47_storage": {
						"encoding": "inplace",
						"label": "struct VotingSoftware.Candidate",
						"members": [
							{
								"astId": 40,
								"contract": "contracts/voting.sol:VotingSoftware",
								"label": "id",
								"offset": 0,
								"slot": "0",
								"type": "t_uint256"
							},
							{
								"astId": 42,
								"contract": "contracts/voting.sol:VotingSoftware",
								"label": "name",
								"offset": 0,
								"slot": "1",
								"type": "t_string_storage"
							},
							{
								"astId": 44,
								"contract": "contracts/voting.sol:VotingSoftware",
								"label": "proposal",
								"offset": 0,
								"slot": "2",
								"type": "t_string_storage"
							},
							{
								"astId": 46,
								"contract": "contracts/voting.sol:VotingSoftware",
								"label": "flag",
								"offset": 0,
								"slot": "3",
								"type": "t_bool"
							}
						],
						"numberOfBytes": "128"
					},
					"t_struct(Voter)38_storage": {
						"encoding": "inplace",
						"label": "struct VotingSoftware.Voter",
						"members": [
							{
								"astId": 25,
								"contract": "contracts/voting.sol:VotingSoftware",
								"label": "id",
								"offset": 0,
								"slot": "0",
								"type": "t_uint256"
							},
							{
								"astId": 27,
								"contract": "contracts/voting.sol:VotingSoftware",
								"label": "name",
								"offset": 0,
								"slot": "1",
								"type": "t_string_storage"
							},
							{
								"astId": 29,
								"contract": "contracts/voting.sol:VotingSoftware",
								"label": "addressVoter",
								"offset": 0,
								"slot": "2",
								"type": "t_address"
							},
							{
								"astId": 31,
								"contract": "contracts/voting.sol:VotingSoftware",
								"label": "delegatedTo",
								"offset": 0,
								"slot": "3",
								"type": "t_address"
							},
							{
								"astId": 33,
								"contract": "contracts/voting.sol:VotingSoftware",
								"label": "hasVoted",
								"offset": 20,
								"slot": "3",
								"type": "t_bool"
							},
							{
								"astId": 35,
								"contract": "contracts/voting.sol:VotingSoftware",
								"label": "cadidateId",
								"offset": 0,
								"slot": "4",
								"type": "t_uint256"
							},
							{
								"astId": 37,
								"contract": "contracts/voting.sol:VotingSoftware",
								"label": "flag",
								"offset": 0,
								"slot": "5",
								"type": "t_bool"
							}
						],
						"numberOfBytes": "192"
					},
					"t_uint256": {
						"encoding": "inplace",
						"label": "uint256",
						"numberOfBytes": "32"
					}
				}
			},
			"userdoc": {
				"kind": "user",
				"methods": {},
				"version": 1
			}
		}
	}
}