{
	"contracts/voting.sol": {
		"VotingSoftware": {
			"abi": [
				{
					"inputs": [],
					"stateMutability": "nonpayable",
					"type": "constructor"
				},
				{
					"inputs": [
						{
							"internalType": "enum VotingSoftware.VotingStatus",
							"name": "status",
							"type": "uint8"
						},
						{
							"internalType": "string",
							"name": "message",
							"type": "string"
						}
					],
					"name": "CanNotStartElection",
					"type": "error"
				},
				{
					"inputs": [
						{
							"internalType": "string",
							"name": "_name",
							"type": "string"
						},
						{
							"internalType": "string",
							"name": "_proposal",
							"type": "string"
						}
					],
					"name": "addNewCandidate",
					"outputs": [],
					"stateMutability": "nonpayable",
					"type": "function"
				},
				{
					"inputs": [
						{
							"internalType": "address",
							"name": "_addressVoter",
							"type": "address"
						},
						{
							"internalType": "string",
							"name": "_name",
							"type": "string"
						}
					],
					"name": "addNewVoter",
					"outputs": [],
					"stateMutability": "nonpayable",
					"type": "function"
				},
				{
					"inputs": [
						{
							"internalType": "uint256",
							"name": "_candidateId",
							"type": "uint256"
						},
						{
							"internalType": "address",
							"name": "_addressVoter",
							"type": "address"
						}
					],
					"name": "castVote",
					"outputs": [],
					"stateMutability": "nonpayable",
					"type": "function"
				},
				{
					"inputs": [
						{
							"internalType": "address",
							"name": "_delegatedTo",
							"type": "address"
						},
						{
							"internalType": "address",
							"name": "_addressVoter",
							"type": "address"
						}
					],
					"name": "delegateVotingRight",
					"outputs": [],
					"stateMutability": "nonpayable",
					"type": "function"
				},
				{
					"inputs": [
						{
							"internalType": "uint256",
							"name": "_candidateId",
							"type": "uint256"
						}
					],
					"name": "displayCandidateDetails",
					"outputs": [
						{
							"internalType": "uint256",
							"name": "candidateId",
							"type": "uint256"
						},
						{
							"internalType": "string",
							"name": "proposal",
							"type": "string"
						},
						{
							"internalType": "string",
							"name": "name",
							"type": "string"
						}
					],
					"stateMutability": "view",
					"type": "function"
				},
				{
					"inputs": [],
					"name": "endElection",
					"outputs": [],
					"stateMutability": "nonpayable",
					"type": "function"
				},
				{
					"inputs": [
						{
							"internalType": "uint256",
							"name": "_candidateId",
							"type": "uint256"
						}
					],
					"name": "showElectionResults",
					"outputs": [
						{
							"internalType": "uint256",
							"name": "candidateId",
							"type": "uint256"
						},
						{
							"internalType": "string",
							"name": "name",
							"type": "string"
						},
						{
							"internalType": "uint256",
							"name": "voteCount",
							"type": "uint256"
						}
					],
					"stateMutability": "view",
					"type": "function"
				},
				{
					"inputs": [],
					"name": "startElection",
					"outputs": [],
					"stateMutability": "nonpayable",
					"type": "function"
				},
				{
					"inputs": [
						{
							"internalType": "address",
							"name": "_addressVoter",
							"type": "address"
						}
					],
					"name": "viewVoterDetails",
					"outputs": [
						{
							"internalType": "address",
							"name": "addressVoter",
							"type": "address"
						},
						{
							"internalType": "string",
							"name": "name",
							"type": "string"
						},
						{
							"internalType": "bool",
							"name": "isVoteDelegated",
							"type": "bool"
						}
					],
					"stateMutability": "view",
					"type": "function"
				},
				{
					"inputs": [],
					"name": "votingAdmin",
					"outputs": [
						{
							"internalType": "address",
							"name": "",
							"type": "address"
						}
					],
					"stateMutability": "view",
					"type": "function"
				}
			],
			"devdoc": {
				"kind": "dev",
				"methods": {},
				"version": 1
			},
			"evm": {
				"assembly": "    /* \"contracts/voting.sol\":56:4761  contract VotingSoftware{... */\n  mstore(0x40, 0x80)\n    /* \"contracts/voting.sol\":832:856  VotingStatus.NOT_STARTED */\n  0x00\n    /* \"contracts/voting.sol\":810:856  VotingStatus status = VotingStatus.NOT_STARTED */\n  dup1\n  exp(0x0100, 0x14)\n  dup2\n  sload\n  dup2\n  0xff\n  mul\n  not\n  and\n  swap1\n  dup4\n  0x02\n  dup2\n  gt\n  iszero\n  tag_1\n  jumpi\n  tag_2\n  tag_3\n  jump\t// in\ntag_2:\ntag_1:\n  mul\n  or\n  swap1\n  sstore\n  pop\n    /* \"contracts/voting.sol\":910:911  0 */\n  0x00\n    /* \"contracts/voting.sol\":885:911  uint256 candidateCount = 0 */\n  0x01\n  sstore\n    /* \"contracts/voting.sol\":938:939  0 */\n  0x00\n    /* \"contracts/voting.sol\":917:939  uint256 voterCount = 0 */\n  0x02\n  sstore\n    /* \"contracts/voting.sol\":183:238  constructor() {... */\n  callvalue\n  dup1\n  iszero\n  tag_4\n  jumpi\n  0x00\n  dup1\n  revert\ntag_4:\n  pop\n    /* \"contracts/voting.sol\":221:231  msg.sender */\n  caller\n    /* \"contracts/voting.sol\":207:218  votingAdmin */\n  0x00\n  dup1\n    /* \"contracts/voting.sol\":207:231  votingAdmin = msg.sender */\n  0x0100\n  exp\n  dup2\n  sload\n  dup2\n  0xffffffffffffffffffffffffffffffffffffffff\n  mul\n  not\n  and\n  swap1\n  dup4\n  0xffffffffffffffffffffffffffffffffffffffff\n  and\n  mul\n  or\n  swap1\n  sstore\n  pop\n    /* \"contracts/voting.sol\":56:4761  contract VotingSoftware{... */\n  jump(tag_7)\n    /* \"#utility.yul\":7:187   */\ntag_3:\n    /* \"#utility.yul\":55:132   */\n  0x4e487b7100000000000000000000000000000000000000000000000000000000\n    /* \"#utility.yul\":52:53   */\n  0x00\n    /* \"#utility.yul\":45:133   */\n  mstore\n    /* \"#utility.yul\":152:156   */\n  0x21\n    /* \"#utility.yul\":149:150   */\n  0x04\n    /* \"#utility.yul\":142:157   */\n  mstore\n    /* \"#utility.yul\":176:180   */\n  0x24\n    /* \"#utility.yul\":173:174   */\n  0x00\n    /* \"#utility.yul\":166:181   */\n  revert\n    /* \"contracts/voting.sol\":56:4761  contract VotingSoftware{... */\ntag_7:\n  dataSize(sub_0)\n  dup1\n  dataOffset(sub_0)\n  0x00\n  codecopy\n  0x00\n  return\nstop\n\nsub_0: assembly {\n        /* \"contracts/voting.sol\":56:4761  contract VotingSoftware{... */\n      mstore(0x40, 0x80)\n      callvalue\n      dup1\n      iszero\n      tag_1\n      jumpi\n      0x00\n      dup1\n      revert\n    tag_1:\n      pop\n      jumpi(tag_2, lt(calldatasize, 0x04))\n      shr(0xe0, calldataload(0x00))\n      dup1\n      0x77df41b7\n      gt\n      tag_13\n      jumpi\n      dup1\n      0x77df41b7\n      eq\n      tag_8\n      jumpi\n      dup1\n      0xa48292ce\n      eq\n      tag_9\n      jumpi\n      dup1\n      0xbd7bf4f0\n      eq\n      tag_10\n      jumpi\n      dup1\n      0xd45529f4\n      eq\n      tag_11\n      jumpi\n      dup1\n      0xf83bfa28\n      eq\n      tag_12\n      jumpi\n      jump(tag_2)\n    tag_13:\n      dup1\n      0x3d0af840\n      eq\n      tag_3\n      jumpi\n      dup1\n      0x4ad7b863\n      eq\n      tag_4\n      jumpi\n      dup1\n      0x577c689a\n      eq\n      tag_5\n      jumpi\n      dup1\n      0x59f78468\n      eq\n      tag_6\n      jumpi\n      dup1\n      0x62d73eb8\n      eq\n      tag_7\n      jumpi\n    tag_2:\n      0x00\n      dup1\n      revert\n        /* \"contracts/voting.sol\":3360:3608  function delegateVotingRight(address _delegatedTo, address _addressVoter) public {... */\n    tag_3:\n      tag_14\n      0x04\n      dup1\n      calldatasize\n      sub\n      dup2\n      add\n      swap1\n      tag_15\n      swap2\n      swap1\n      tag_16\n      jump\t// in\n    tag_15:\n      tag_17\n      jump\t// in\n    tag_14:\n      stop\n        /* \"contracts/voting.sol\":4004:4330  function showElectionResults(uint256 _candidateId) public view ... */\n    tag_4:\n      tag_18\n      0x04\n      dup1\n      calldatasize\n      sub\n      dup2\n      add\n      swap1\n      tag_19\n      swap2\n      swap1\n      tag_20\n      jump\t// in\n    tag_19:\n      tag_21\n      jump\t// in\n    tag_18:\n      mload(0x40)\n      tag_22\n      swap4\n      swap3\n      swap2\n      swap1\n      tag_23\n      jump\t// in\n    tag_22:\n      mload(0x40)\n      dup1\n      swap2\n      sub\n      swap1\n      return\n        /* \"contracts/voting.sol\":1134:1519  function addNewCandidate(... */\n    tag_5:\n      tag_24\n      0x04\n      dup1\n      calldatasize\n      sub\n      dup2\n      add\n      swap1\n      tag_25\n      swap2\n      swap1\n      tag_26\n      jump\t// in\n    tag_25:\n      tag_27\n      jump\t// in\n    tag_24:\n      stop\n        /* \"contracts/voting.sol\":3871:3966  function endElection() public onlyVotingAdmin(){... */\n    tag_6:\n      tag_28\n      tag_29\n      jump\t// in\n    tag_28:\n      stop\n        /* \"contracts/voting.sol\":2065:2546  function startElection() public onlyVotingAdmin{... */\n    tag_7:\n      tag_30\n      tag_31\n      jump\t// in\n    tag_30:\n      stop\n        /* \"contracts/voting.sol\":3638:3838  function castVote(uint256 _candidateId, address _addressVoter) public {... */\n    tag_8:\n      tag_32\n      0x04\n      dup1\n      calldatasize\n      sub\n      dup2\n      add\n      swap1\n      tag_33\n      swap2\n      swap1\n      tag_34\n      jump\t// in\n    tag_33:\n      tag_35\n      jump\t// in\n    tag_32:\n      stop\n        /* \"contracts/voting.sol\":2596:2957  function displayCandidateDetails(uint256 _candidateId)... */\n    tag_9:\n      tag_36\n      0x04\n      dup1\n      calldatasize\n      sub\n      dup2\n      add\n      swap1\n      tag_37\n      swap2\n      swap1\n      tag_20\n      jump\t// in\n    tag_37:\n      tag_38\n      jump\t// in\n    tag_36:\n      mload(0x40)\n      tag_39\n      swap4\n      swap3\n      swap2\n      swap1\n      tag_40\n      jump\t// in\n    tag_39:\n      mload(0x40)\n      dup1\n      swap2\n      sub\n      swap1\n      return\n        /* \"contracts/voting.sol\":1551:1966  function addNewVoter(... */\n    tag_10:\n      tag_41\n      0x04\n      dup1\n      calldatasize\n      sub\n      dup2\n      add\n      swap1\n      tag_42\n      swap2\n      swap1\n      tag_43\n      jump\t// in\n    tag_42:\n      tag_44\n      jump\t// in\n    tag_41:\n      stop\n        /* \"contracts/voting.sol\":151:177  address public votingAdmin */\n    tag_11:\n      tag_45\n      tag_46\n      jump\t// in\n    tag_45:\n      mload(0x40)\n      tag_47\n      swap2\n      swap1\n      tag_48\n      jump\t// in\n    tag_47:\n      mload(0x40)\n      dup1\n      swap2\n      sub\n      swap1\n      return\n        /* \"contracts/voting.sol\":4376:4759  function viewVoterDetails(address _addressVoter) public view returns (... */\n    tag_12:\n      tag_49\n      0x04\n      dup1\n      calldatasize\n      sub\n      dup2\n      add\n      swap1\n      tag_50\n      swap2\n      swap1\n      tag_51\n      jump\t// in\n    tag_50:\n      tag_52\n      jump\t// in\n    tag_49:\n      mload(0x40)\n      tag_53\n      swap4\n      swap3\n      swap2\n      swap1\n      tag_54\n      jump\t// in\n    tag_53:\n      mload(0x40)\n      dup1\n      swap2\n      sub\n      swap1\n      return\n        /* \"contracts/voting.sol\":3360:3608  function delegateVotingRight(address _delegatedTo, address _addressVoter) public {... */\n    tag_17:\n        /* \"contracts/voting.sol\":3467:3487  VotingStatus.ONGOING */\n      0x01\n        /* \"contracts/voting.sol\":3459:3487  status==VotingStatus.ONGOING */\n      0x02\n      dup2\n      gt\n      iszero\n      tag_56\n      jumpi\n      tag_57\n      tag_58\n      jump\t// in\n    tag_57:\n    tag_56:\n        /* \"contracts/voting.sol\":3459:3465  status */\n      0x00\n      0x14\n      swap1\n      sload\n      swap1\n      0x0100\n      exp\n      swap1\n      div\n      0xff\n      and\n        /* \"contracts/voting.sol\":3459:3487  status==VotingStatus.ONGOING */\n      0x02\n      dup2\n      gt\n      iszero\n      tag_59\n      jumpi\n      tag_60\n      tag_58\n      jump\t// in\n    tag_60:\n    tag_59:\n      eq\n        /* \"contracts/voting.sol\":3451:3543  require(status==VotingStatus.ONGOING, \"Voting not in progress. You can not deletegate now.\") */\n      tag_61\n      jumpi\n      mload(0x40)\n      0x08c379a000000000000000000000000000000000000000000000000000000000\n      dup2\n      mstore\n      0x04\n      add\n      tag_62\n      swap1\n      tag_63\n      jump\t// in\n    tag_62:\n      mload(0x40)\n      dup1\n      swap2\n      sub\n      swap1\n      revert\n    tag_61:\n        /* \"contracts/voting.sol\":3589:3601  _delegatedTo */\n      dup2\n        /* \"contracts/voting.sol\":3553:3559  voters */\n      0x04\n        /* \"contracts/voting.sol\":3553:3574  voters[_addressVoter] */\n      0x00\n        /* \"contracts/voting.sol\":3560:3573  _addressVoter */\n      dup4\n        /* \"contracts/voting.sol\":3553:3574  voters[_addressVoter] */\n      0xffffffffffffffffffffffffffffffffffffffff\n      and\n      0xffffffffffffffffffffffffffffffffffffffff\n      and\n      dup2\n      mstore\n      0x20\n      add\n      swap1\n      dup2\n      mstore\n      0x20\n      add\n      0x00\n      keccak256\n        /* \"contracts/voting.sol\":3553:3586  voters[_addressVoter].delegatedTo */\n      0x03\n      add\n      0x00\n        /* \"contracts/voting.sol\":3553:3601  voters[_addressVoter].delegatedTo = _delegatedTo */\n      0x0100\n      exp\n      dup2\n      sload\n      dup2\n      0xffffffffffffffffffffffffffffffffffffffff\n      mul\n      not\n      and\n      swap1\n      dup4\n      0xffffffffffffffffffffffffffffffffffffffff\n      and\n      mul\n      or\n      swap1\n      sstore\n      pop\n        /* \"contracts/voting.sol\":3360:3608  function delegateVotingRight(address _delegatedTo, address _addressVoter) public {... */\n      pop\n      pop\n      jump\t// out\n        /* \"contracts/voting.sol\":4004:4330  function showElectionResults(uint256 _candidateId) public view ... */\n    tag_21:\n        /* \"contracts/voting.sol\":4084:4103  uint256 candidateId */\n      0x00\n        /* \"contracts/voting.sol\":4122:4140  string memory name */\n      0x60\n        /* \"contracts/voting.sol\":4158:4175  uint256 voteCount */\n      0x00\n        /* \"contracts/voting.sol\":4220:4232  _candidateId */\n      dup4\n        /* \"contracts/voting.sol\":4246:4256  candidates */\n      0x03\n        /* \"contracts/voting.sol\":4246:4270  candidates[_candidateId] */\n      0x00\n        /* \"contracts/voting.sol\":4257:4269  _candidateId */\n      dup7\n        /* \"contracts/voting.sol\":4246:4270  candidates[_candidateId] */\n      dup2\n      mstore\n      0x20\n      add\n      swap1\n      dup2\n      mstore\n      0x20\n      add\n      0x00\n      keccak256\n        /* \"contracts/voting.sol\":4246:4275  candidates[_candidateId].name */\n      0x01\n      add\n        /* \"contracts/voting.sol\":4289:4299  voteCounts */\n      0x05\n        /* \"contracts/voting.sol\":4289:4313  voteCounts[_candidateId] */\n      0x00\n        /* \"contracts/voting.sol\":4300:4312  _candidateId */\n      dup8\n        /* \"contracts/voting.sol\":4289:4313  voteCounts[_candidateId] */\n      dup2\n      mstore\n      0x20\n      add\n      swap1\n      dup2\n      mstore\n      0x20\n      add\n      0x00\n      keccak256\n      sload\n        /* \"contracts/voting.sol\":4200:4323  return(... */\n      dup2\n      dup1\n      sload\n      tag_65\n      swap1\n      tag_66\n      jump\t// in\n    tag_65:\n      dup1\n      0x1f\n      add\n      0x20\n      dup1\n      swap2\n      div\n      mul\n      0x20\n      add\n      mload(0x40)\n      swap1\n      dup2\n      add\n      0x40\n      mstore\n      dup1\n      swap3\n      swap2\n      swap1\n      dup2\n      dup2\n      mstore\n      0x20\n      add\n      dup3\n      dup1\n      sload\n      tag_67\n      swap1\n      tag_66\n      jump\t// in\n    tag_67:\n      dup1\n      iszero\n      tag_68\n      jumpi\n      dup1\n      0x1f\n      lt\n      tag_69\n      jumpi\n      0x0100\n      dup1\n      dup4\n      sload\n      div\n      mul\n      dup4\n      mstore\n      swap2\n      0x20\n      add\n      swap2\n      jump(tag_68)\n    tag_69:\n      dup3\n      add\n      swap2\n      swap1\n      0x00\n      mstore\n      keccak256(0x00, 0x20)\n      swap1\n    tag_70:\n      dup2\n      sload\n      dup2\n      mstore\n      swap1\n      0x01\n      add\n      swap1\n      0x20\n      add\n      dup1\n      dup4\n      gt\n      tag_70\n      jumpi\n      dup3\n      swap1\n      sub\n      0x1f\n      and\n      dup3\n      add\n      swap2\n    tag_68:\n      pop\n      pop\n      pop\n      pop\n      pop\n      swap2\n      pop\n      swap3\n      pop\n      swap3\n      pop\n      swap3\n      pop\n        /* \"contracts/voting.sol\":4004:4330  function showElectionResults(uint256 _candidateId) public view ... */\n      swap2\n      swap4\n      swap1\n      swap3\n      pop\n      jump\t// out\n        /* \"contracts/voting.sol\":1134:1519  function addNewCandidate(... */\n    tag_27:\n        /* \"contracts/voting.sol\":302:313  votingAdmin */\n      0x00\n      dup1\n      sload\n      swap1\n      0x0100\n      exp\n      swap1\n      div\n      0xffffffffffffffffffffffffffffffffffffffff\n      and\n        /* \"contracts/voting.sol\":288:313  msg.sender == votingAdmin */\n      0xffffffffffffffffffffffffffffffffffffffff\n      and\n        /* \"contracts/voting.sol\":288:298  msg.sender */\n      caller\n        /* \"contracts/voting.sol\":288:313  msg.sender == votingAdmin */\n      0xffffffffffffffffffffffffffffffffffffffff\n      and\n      eq\n        /* \"contracts/voting.sol\":280:314  require(msg.sender == votingAdmin) */\n      tag_72\n      jumpi\n      0x00\n      dup1\n      revert\n    tag_72:\n        /* \"contracts/voting.sol\":1276:1300  VotingStatus.NOT_STARTED */\n      0x00\n        /* \"contracts/voting.sol\":1268:1300  status==VotingStatus.NOT_STARTED */\n      0x02\n      dup2\n      gt\n      iszero\n      tag_74\n      jumpi\n      tag_75\n      tag_58\n      jump\t// in\n    tag_75:\n    tag_74:\n        /* \"contracts/voting.sol\":1268:1274  status */\n      0x00\n      0x14\n      swap1\n      sload\n      swap1\n      0x0100\n      exp\n      swap1\n      div\n      0xff\n      and\n        /* \"contracts/voting.sol\":1268:1300  status==VotingStatus.NOT_STARTED */\n      0x02\n      dup2\n      gt\n      iszero\n      tag_76\n      jumpi\n      tag_77\n      tag_58\n      jump\t// in\n    tag_77:\n    tag_76:\n      eq\n        /* \"contracts/voting.sol\":1260:1340  require(status==VotingStatus.NOT_STARTED, \"Voting already started or completed\") */\n      tag_78\n      jumpi\n      mload(0x40)\n      0x08c379a000000000000000000000000000000000000000000000000000000000\n      dup2\n      mstore\n      0x04\n      add\n      tag_79\n      swap1\n      tag_80\n      jump\t// in\n    tag_79:\n      mload(0x40)\n      dup1\n      swap2\n      sub\n      swap1\n      revert\n    tag_78:\n        /* \"contracts/voting.sol\":1350:1364  candidateCount */\n      0x01\n      0x00\n        /* \"contracts/voting.sol\":1350:1366  candidateCount++ */\n      dup2\n      sload\n      dup1\n      swap3\n      swap2\n      swap1\n      tag_81\n      swap1\n      tag_82\n      jump\t// in\n    tag_81:\n      swap2\n      swap1\n      pop\n      sstore\n      pop\n        /* \"contracts/voting.sol\":1376:1395  uint256 candidateId */\n      0x00\n        /* \"contracts/voting.sol\":1398:1412  candidateCount */\n      sload(0x01)\n        /* \"contracts/voting.sol\":1376:1412  uint256 candidateId = candidateCount */\n      swap1\n      pop\n        /* \"contracts/voting.sol\":1453:1458  _name */\n      dup3\n        /* \"contracts/voting.sol\":1422:1432  candidates */\n      0x03\n        /* \"contracts/voting.sol\":1422:1445  candidates[candidateId] */\n      0x00\n        /* \"contracts/voting.sol\":1433:1444  candidateId */\n      dup4\n        /* \"contracts/voting.sol\":1422:1445  candidates[candidateId] */\n      dup2\n      mstore\n      0x20\n      add\n      swap1\n      dup2\n      mstore\n      0x20\n      add\n      0x00\n      keccak256\n        /* \"contracts/voting.sol\":1422:1450  candidates[candidateId].name */\n      0x01\n      add\n        /* \"contracts/voting.sol\":1422:1458  candidates[candidateId].name = _name */\n      swap1\n      dup2\n      tag_83\n      swap2\n      swap1\n      tag_84\n      jump\t// in\n    tag_83:\n      pop\n        /* \"contracts/voting.sol\":1503:1512  _proposal */\n      dup2\n        /* \"contracts/voting.sol\":1468:1478  candidates */\n      0x03\n        /* \"contracts/voting.sol\":1468:1491  candidates[candidateId] */\n      0x00\n        /* \"contracts/voting.sol\":1479:1490  candidateId */\n      dup4\n        /* \"contracts/voting.sol\":1468:1491  candidates[candidateId] */\n      dup2\n      mstore\n      0x20\n      add\n      swap1\n      dup2\n      mstore\n      0x20\n      add\n      0x00\n      keccak256\n        /* \"contracts/voting.sol\":1468:1500  candidates[candidateId].proposal */\n      0x02\n      add\n        /* \"contracts/voting.sol\":1468:1512  candidates[candidateId].proposal = _proposal */\n      swap1\n      dup2\n      tag_85\n      swap2\n      swap1\n      tag_84\n      jump\t// in\n    tag_85:\n      pop\n        /* \"contracts/voting.sol\":1250:1519  {... */\n      pop\n        /* \"contracts/voting.sol\":1134:1519  function addNewCandidate(... */\n      pop\n      pop\n      jump\t// out\n        /* \"contracts/voting.sol\":3871:3966  function endElection() public onlyVotingAdmin(){... */\n    tag_29:\n        /* \"contracts/voting.sol\":302:313  votingAdmin */\n      0x00\n      dup1\n      sload\n      swap1\n      0x0100\n      exp\n      swap1\n      div\n      0xffffffffffffffffffffffffffffffffffffffff\n      and\n        /* \"contracts/voting.sol\":288:313  msg.sender == votingAdmin */\n      0xffffffffffffffffffffffffffffffffffffffff\n      and\n        /* \"contracts/voting.sol\":288:298  msg.sender */\n      caller\n        /* \"contracts/voting.sol\":288:313  msg.sender == votingAdmin */\n      0xffffffffffffffffffffffffffffffffffffffff\n      and\n      eq\n        /* \"contracts/voting.sol\":280:314  require(msg.sender == votingAdmin) */\n      tag_87\n      jumpi\n      0x00\n      dup1\n      revert\n    tag_87:\n        /* \"contracts/voting.sol\":3937:3959  VotingStatus.COMPLETED */\n      0x02\n        /* \"contracts/voting.sol\":3928:3934  status */\n      0x00\n      0x14\n        /* \"contracts/voting.sol\":3928:3959  status = VotingStatus.COMPLETED */\n      0x0100\n      exp\n      dup2\n      sload\n      dup2\n      0xff\n      mul\n      not\n      and\n      swap1\n      dup4\n      0x02\n      dup2\n      gt\n      iszero\n      tag_89\n      jumpi\n      tag_90\n      tag_58\n      jump\t// in\n    tag_90:\n    tag_89:\n      mul\n      or\n      swap1\n      sstore\n      pop\n        /* \"contracts/voting.sol\":3871:3966  function endElection() public onlyVotingAdmin(){... */\n      jump\t// out\n        /* \"contracts/voting.sol\":2065:2546  function startElection() public onlyVotingAdmin{... */\n    tag_31:\n        /* \"contracts/voting.sol\":302:313  votingAdmin */\n      0x00\n      dup1\n      sload\n      swap1\n      0x0100\n      exp\n      swap1\n      div\n      0xffffffffffffffffffffffffffffffffffffffff\n      and\n        /* \"contracts/voting.sol\":288:313  msg.sender == votingAdmin */\n      0xffffffffffffffffffffffffffffffffffffffff\n      and\n        /* \"contracts/voting.sol\":288:298  msg.sender */\n      caller\n        /* \"contracts/voting.sol\":288:313  msg.sender == votingAdmin */\n      0xffffffffffffffffffffffffffffffffffffffff\n      and\n      eq\n        /* \"contracts/voting.sol\":280:314  require(msg.sender == votingAdmin) */\n      tag_92\n      jumpi\n      0x00\n      dup1\n      revert\n    tag_92:\n        /* \"contracts/voting.sol\":2141:2142  0 */\n      0x00\n        /* \"contracts/voting.sol\":2130:2140  voterCount */\n      sload(0x02)\n        /* \"contracts/voting.sol\":2130:2142  voterCount>0 */\n      gt\n        /* \"contracts/voting.sol\":2122:2166  require(voterCount>0, \"0 voters registered\") */\n      tag_94\n      jumpi\n      mload(0x40)\n      0x08c379a000000000000000000000000000000000000000000000000000000000\n      dup2\n      mstore\n      0x04\n      add\n      tag_95\n      swap1\n      tag_96\n      jump\t// in\n    tag_95:\n      mload(0x40)\n      dup1\n      swap2\n      sub\n      swap1\n      revert\n    tag_94:\n        /* \"contracts/voting.sol\":2199:2200  0 */\n      0x00\n        /* \"contracts/voting.sol\":2184:2198  candidateCount */\n      sload(0x01)\n        /* \"contracts/voting.sol\":2184:2200  candidateCount>0 */\n      gt\n        /* \"contracts/voting.sol\":2176:2228  require(candidateCount>0, \"0 candidates registered\") */\n      tag_97\n      jumpi\n      mload(0x40)\n      0x08c379a000000000000000000000000000000000000000000000000000000000\n      dup2\n      mstore\n      0x04\n      add\n      tag_98\n      swap1\n      tag_99\n      jump\t// in\n    tag_98:\n      mload(0x40)\n      dup1\n      swap2\n      sub\n      swap1\n      revert\n    tag_97:\n        /* \"contracts/voting.sol\":2249:2269  VotingStatus.ONGOING */\n      0x01\n        /* \"contracts/voting.sol\":2241:2269  status==VotingStatus.ONGOING */\n      0x02\n      dup2\n      gt\n      iszero\n      tag_100\n      jumpi\n      tag_101\n      tag_58\n      jump\t// in\n    tag_101:\n    tag_100:\n        /* \"contracts/voting.sol\":2241:2247  status */\n      0x00\n      0x14\n      swap1\n      sload\n      swap1\n      0x0100\n      exp\n      swap1\n      div\n      0xff\n      and\n        /* \"contracts/voting.sol\":2241:2269  status==VotingStatus.ONGOING */\n      0x02\n      dup2\n      gt\n      iszero\n      tag_102\n      jumpi\n      tag_103\n      tag_58\n      jump\t// in\n    tag_103:\n    tag_102:\n      sub\n        /* \"contracts/voting.sol\":2238:2503  if(status==VotingStatus.ONGOING){... */\n      tag_104\n      jumpi\n        /* \"contracts/voting.sol\":2320:2326  status */\n      0x00\n      0x14\n      swap1\n      sload\n      swap1\n      0x0100\n      exp\n      swap1\n      div\n      0xff\n      and\n        /* \"contracts/voting.sol\":2291:2355  CanNotStartElection({status: status, message: \"Voting ongoing\"}) */\n      mload(0x40)\n      0xef90b1c100000000000000000000000000000000000000000000000000000000\n      dup2\n      mstore\n      0x04\n      add\n      tag_105\n      swap2\n      swap1\n      tag_106\n      jump\t// in\n    tag_105:\n      mload(0x40)\n      dup1\n      swap2\n      sub\n      swap1\n      revert\n        /* \"contracts/voting.sol\":2238:2503  if(status==VotingStatus.ONGOING){... */\n    tag_104:\n        /* \"contracts/voting.sol\":2382:2404  VotingStatus.COMPLETED */\n      0x02\n        /* \"contracts/voting.sol\":2374:2404  status==VotingStatus.COMPLETED */\n      dup1\n      dup2\n      gt\n      iszero\n      tag_108\n      jumpi\n      tag_109\n      tag_58\n      jump\t// in\n    tag_109:\n    tag_108:\n        /* \"contracts/voting.sol\":2374:2380  status */\n      0x00\n      0x14\n      swap1\n      sload\n      swap1\n      0x0100\n      exp\n      swap1\n      div\n      0xff\n      and\n        /* \"contracts/voting.sol\":2374:2404  status==VotingStatus.COMPLETED */\n      0x02\n      dup2\n      gt\n      iszero\n      tag_110\n      jumpi\n      tag_111\n      tag_58\n      jump\t// in\n    tag_111:\n    tag_110:\n      sub\n        /* \"contracts/voting.sol\":2371:2503  if(status==VotingStatus.COMPLETED){... */\n      tag_112\n      jumpi\n        /* \"contracts/voting.sol\":2455:2461  status */\n      0x00\n      0x14\n      swap1\n      sload\n      swap1\n      0x0100\n      exp\n      swap1\n      div\n      0xff\n      and\n        /* \"contracts/voting.sol\":2426:2492  CanNotStartElection({status: status, message: \"Voting completed\"}) */\n      mload(0x40)\n      0xef90b1c100000000000000000000000000000000000000000000000000000000\n      dup2\n      mstore\n      0x04\n      add\n      tag_113\n      swap2\n      swap1\n      tag_114\n      jump\t// in\n    tag_113:\n      mload(0x40)\n      dup1\n      swap2\n      sub\n      swap1\n      revert\n        /* \"contracts/voting.sol\":2371:2503  if(status==VotingStatus.COMPLETED){... */\n    tag_112:\n        /* \"contracts/voting.sol\":2519:2539  VotingStatus.ONGOING */\n      0x01\n        /* \"contracts/voting.sol\":2512:2518  status */\n      0x00\n      0x14\n        /* \"contracts/voting.sol\":2512:2539  status=VotingStatus.ONGOING */\n      0x0100\n      exp\n      dup2\n      sload\n      dup2\n      0xff\n      mul\n      not\n      and\n      swap1\n      dup4\n      0x02\n      dup2\n      gt\n      iszero\n      tag_115\n      jumpi\n      tag_116\n      tag_58\n      jump\t// in\n    tag_116:\n    tag_115:\n      mul\n      or\n      swap1\n      sstore\n      pop\n        /* \"contracts/voting.sol\":2065:2546  function startElection() public onlyVotingAdmin{... */\n      jump\t// out\n        /* \"contracts/voting.sol\":3638:3838  function castVote(uint256 _candidateId, address _addressVoter) public {... */\n    tag_35:\n        /* \"contracts/voting.sol\":3773:3774  1 */\n      0x01\n        /* \"contracts/voting.sol\":3746:3756  voteCounts */\n      0x05\n        /* \"contracts/voting.sol\":3746:3770  voteCounts[_candidateId] */\n      0x00\n        /* \"contracts/voting.sol\":3757:3769  _candidateId */\n      dup5\n        /* \"contracts/voting.sol\":3746:3770  voteCounts[_candidateId] */\n      dup2\n      mstore\n      0x20\n      add\n      swap1\n      dup2\n      mstore\n      0x20\n      add\n      0x00\n      keccak256\n      sload\n        /* \"contracts/voting.sol\":3746:3774  voteCounts[_candidateId] + 1 */\n      tag_118\n      swap2\n      swap1\n      tag_119\n      jump\t// in\n    tag_118:\n        /* \"contracts/voting.sol\":3718:3728  voteCounts */\n      0x05\n        /* \"contracts/voting.sol\":3718:3742  voteCounts[_candidateId] */\n      0x00\n        /* \"contracts/voting.sol\":3729:3741  _candidateId */\n      dup5\n        /* \"contracts/voting.sol\":3718:3742  voteCounts[_candidateId] */\n      dup2\n      mstore\n      0x20\n      add\n      swap1\n      dup2\n      mstore\n      0x20\n      add\n      0x00\n      keccak256\n        /* \"contracts/voting.sol\":3718:3774  voteCounts[_candidateId] =  voteCounts[_candidateId] + 1 */\n      dup2\n      swap1\n      sstore\n      pop\n        /* \"contracts/voting.sol\":3819:3831  _candidateId */\n      dup2\n        /* \"contracts/voting.sol\":3784:3790  voters */\n      0x04\n        /* \"contracts/voting.sol\":3784:3805  voters[_addressVoter] */\n      0x00\n        /* \"contracts/voting.sol\":3791:3804  _addressVoter */\n      dup4\n        /* \"contracts/voting.sol\":3784:3805  voters[_addressVoter] */\n      0xffffffffffffffffffffffffffffffffffffffff\n      and\n      0xffffffffffffffffffffffffffffffffffffffff\n      and\n      dup2\n      mstore\n      0x20\n      add\n      swap1\n      dup2\n      mstore\n      0x20\n      add\n      0x00\n      keccak256\n        /* \"contracts/voting.sol\":3784:3816  voters[_addressVoter].cadidateId */\n      0x04\n      add\n        /* \"contracts/voting.sol\":3784:3831  voters[_addressVoter].cadidateId = _candidateId */\n      dup2\n      swap1\n      sstore\n      pop\n        /* \"contracts/voting.sol\":3638:3838  function castVote(uint256 _candidateId, address _addressVoter) public {... */\n      pop\n      pop\n      jump\t// out\n        /* \"contracts/voting.sol\":2596:2957  function displayCandidateDetails(uint256 _candidateId)... */\n    tag_38:\n        /* \"contracts/voting.sol\":2693:2712  uint256 candidateId */\n      0x00\n        /* \"contracts/voting.sol\":2726:2748  string memory proposal */\n      0x60\n        /* \"contracts/voting.sol\":2762:2780  string memory name */\n      dup1\n        /* \"contracts/voting.sol\":2826:2836  candidates */\n      0x03\n        /* \"contracts/voting.sol\":2826:2849  candidates[candidateId] */\n      0x00\n        /* \"contracts/voting.sol\":2837:2848  candidateId */\n      dup5\n        /* \"contracts/voting.sol\":2826:2849  candidates[candidateId] */\n      dup2\n      mstore\n      0x20\n      add\n      swap1\n      dup2\n      mstore\n      0x20\n      add\n      0x00\n      keccak256\n        /* \"contracts/voting.sol\":2826:2852  candidates[candidateId].id */\n      0x00\n      add\n      sload\n        /* \"contracts/voting.sol\":2866:2876  candidates */\n      0x03\n        /* \"contracts/voting.sol\":2866:2889  candidates[candidateId] */\n      0x00\n        /* \"contracts/voting.sol\":2877:2888  candidateId */\n      dup6\n        /* \"contracts/voting.sol\":2866:2889  candidates[candidateId] */\n      dup2\n      mstore\n      0x20\n      add\n      swap1\n      dup2\n      mstore\n      0x20\n      add\n      0x00\n      keccak256\n        /* \"contracts/voting.sol\":2866:2898  candidates[candidateId].proposal */\n      0x02\n      add\n        /* \"contracts/voting.sol\":2912:2922  candidates */\n      0x03\n        /* \"contracts/voting.sol\":2912:2935  candidates[candidateId] */\n      0x00\n        /* \"contracts/voting.sol\":2923:2934  candidateId */\n      dup7\n        /* \"contracts/voting.sol\":2912:2935  candidates[candidateId] */\n      dup2\n      mstore\n      0x20\n      add\n      swap1\n      dup2\n      mstore\n      0x20\n      add\n      0x00\n      keccak256\n        /* \"contracts/voting.sol\":2912:2940  candidates[candidateId].name */\n      0x01\n      add\n        /* \"contracts/voting.sol\":2805:2950  return (... */\n      dup2\n      dup1\n      sload\n      tag_121\n      swap1\n      tag_66\n      jump\t// in\n    tag_121:\n      dup1\n      0x1f\n      add\n      0x20\n      dup1\n      swap2\n      div\n      mul\n      0x20\n      add\n      mload(0x40)\n      swap1\n      dup2\n      add\n      0x40\n      mstore\n      dup1\n      swap3\n      swap2\n      swap1\n      dup2\n      dup2\n      mstore\n      0x20\n      add\n      dup3\n      dup1\n      sload\n      tag_122\n      swap1\n      tag_66\n      jump\t// in\n    tag_122:\n      dup1\n      iszero\n      tag_123\n      jumpi\n      dup1\n      0x1f\n      lt\n      tag_124\n      jumpi\n      0x0100\n      dup1\n      dup4\n      sload\n      div\n      mul\n      dup4\n      mstore\n      swap2\n      0x20\n      add\n      swap2\n      jump(tag_123)\n    tag_124:\n      dup3\n      add\n      swap2\n      swap1\n      0x00\n      mstore\n      keccak256(0x00, 0x20)\n      swap1\n    tag_125:\n      dup2\n      sload\n      dup2\n      mstore\n      swap1\n      0x01\n      add\n      swap1\n      0x20\n      add\n      dup1\n      dup4\n      gt\n      tag_125\n      jumpi\n      dup3\n      swap1\n      sub\n      0x1f\n      and\n      dup3\n      add\n      swap2\n    tag_123:\n      pop\n      pop\n      pop\n      pop\n      pop\n      swap2\n      pop\n      dup1\n      dup1\n      sload\n      tag_126\n      swap1\n      tag_66\n      jump\t// in\n    tag_126:\n      dup1\n      0x1f\n      add\n      0x20\n      dup1\n      swap2\n      div\n      mul\n      0x20\n      add\n      mload(0x40)\n      swap1\n      dup2\n      add\n      0x40\n      mstore\n      dup1\n      swap3\n      swap2\n      swap1\n      dup2\n      dup2\n      mstore\n      0x20\n      add\n      dup3\n      dup1\n      sload\n      tag_127\n      swap1\n      tag_66\n      jump\t// in\n    tag_127:\n      dup1\n      iszero\n      tag_128\n      jumpi\n      dup1\n      0x1f\n      lt\n      tag_129\n      jumpi\n      0x0100\n      dup1\n      dup4\n      sload\n      div\n      mul\n      dup4\n      mstore\n      swap2\n      0x20\n      add\n      swap2\n      jump(tag_128)\n    tag_129:\n      dup3\n      add\n      swap2\n      swap1\n      0x00\n      mstore\n      keccak256(0x00, 0x20)\n      swap1\n    tag_130:\n      dup2\n      sload\n      dup2\n      mstore\n      swap1\n      0x01\n      add\n      swap1\n      0x20\n      add\n      dup1\n      dup4\n      gt\n      tag_130\n      jumpi\n      dup3\n      swap1\n      sub\n      0x1f\n      and\n      dup3\n      add\n      swap2\n    tag_128:\n      pop\n      pop\n      pop\n      pop\n      pop\n      swap1\n      pop\n      swap3\n      pop\n      swap3\n      pop\n      swap3\n      pop\n        /* \"contracts/voting.sol\":2596:2957  function displayCandidateDetails(uint256 _candidateId)... */\n      swap2\n      swap4\n      swap1\n      swap3\n      pop\n      jump\t// out\n        /* \"contracts/voting.sol\":1551:1966  function addNewVoter(... */\n    tag_44:\n        /* \"contracts/voting.sol\":302:313  votingAdmin */\n      0x00\n      dup1\n      sload\n      swap1\n      0x0100\n      exp\n      swap1\n      div\n      0xffffffffffffffffffffffffffffffffffffffff\n      and\n        /* \"contracts/voting.sol\":288:313  msg.sender == votingAdmin */\n      0xffffffffffffffffffffffffffffffffffffffff\n      and\n        /* \"contracts/voting.sol\":288:298  msg.sender */\n      caller\n        /* \"contracts/voting.sol\":288:313  msg.sender == votingAdmin */\n      0xffffffffffffffffffffffffffffffffffffffff\n      and\n      eq\n        /* \"contracts/voting.sol\":280:314  require(msg.sender == votingAdmin) */\n      tag_132\n      jumpi\n      0x00\n      dup1\n      revert\n    tag_132:\n        /* \"contracts/voting.sol\":1687:1711  VotingStatus.NOT_STARTED */\n      0x00\n        /* \"contracts/voting.sol\":1679:1711  status==VotingStatus.NOT_STARTED */\n      0x02\n      dup2\n      gt\n      iszero\n      tag_134\n      jumpi\n      tag_135\n      tag_58\n      jump\t// in\n    tag_135:\n    tag_134:\n        /* \"contracts/voting.sol\":1679:1685  status */\n      0x00\n      0x14\n      swap1\n      sload\n      swap1\n      0x0100\n      exp\n      swap1\n      div\n      0xff\n      and\n        /* \"contracts/voting.sol\":1679:1711  status==VotingStatus.NOT_STARTED */\n      0x02\n      dup2\n      gt\n      iszero\n      tag_136\n      jumpi\n      tag_137\n      tag_58\n      jump\t// in\n    tag_137:\n    tag_136:\n      eq\n        /* \"contracts/voting.sol\":1671:1751  require(status==VotingStatus.NOT_STARTED, \"Voting already started or completed\") */\n      tag_138\n      jumpi\n      mload(0x40)\n      0x08c379a000000000000000000000000000000000000000000000000000000000\n      dup2\n      mstore\n      0x04\n      add\n      tag_139\n      swap1\n      tag_80\n      jump\t// in\n    tag_139:\n      mload(0x40)\n      dup1\n      swap2\n      sub\n      swap1\n      revert\n    tag_138:\n        /* \"contracts/voting.sol\":1761:1771  voterCount */\n      0x02\n      0x00\n        /* \"contracts/voting.sol\":1761:1773  voterCount++ */\n      dup2\n      sload\n      dup1\n      swap3\n      swap2\n      swap1\n      tag_140\n      swap1\n      tag_82\n      jump\t// in\n    tag_140:\n      swap2\n      swap1\n      pop\n      sstore\n      pop\n        /* \"contracts/voting.sol\":1783:1798  uint256 voterId */\n      0x00\n        /* \"contracts/voting.sol\":1801:1811  voterCount */\n      sload(0x02)\n        /* \"contracts/voting.sol\":1783:1811  uint256 voterId = voterCount */\n      swap1\n      pop\n        /* \"contracts/voting.sol\":1848:1855  voterId */\n      dup1\n        /* \"contracts/voting.sol\":1821:1827  voters */\n      0x04\n        /* \"contracts/voting.sol\":1821:1842  voters[_addressVoter] */\n      0x00\n        /* \"contracts/voting.sol\":1828:1841  _addressVoter */\n      dup6\n        /* \"contracts/voting.sol\":1821:1842  voters[_addressVoter] */\n      0xffffffffffffffffffffffffffffffffffffffff\n      and\n      0xffffffffffffffffffffffffffffffffffffffff\n      and\n      dup2\n      mstore\n      0x20\n      add\n      swap1\n      dup2\n      mstore\n      0x20\n      add\n      0x00\n      keccak256\n        /* \"contracts/voting.sol\":1821:1845  voters[_addressVoter].id */\n      0x00\n      add\n        /* \"contracts/voting.sol\":1821:1855  voters[_addressVoter].id = voterId */\n      dup2\n      swap1\n      sstore\n      pop\n        /* \"contracts/voting.sol\":1902:1915  _addressVoter */\n      dup3\n        /* \"contracts/voting.sol\":1865:1871  voters */\n      0x04\n        /* \"contracts/voting.sol\":1865:1886  voters[_addressVoter] */\n      0x00\n        /* \"contracts/voting.sol\":1872:1885  _addressVoter */\n      dup6\n        /* \"contracts/voting.sol\":1865:1886  voters[_addressVoter] */\n      0xffffffffffffffffffffffffffffffffffffffff\n      and\n      0xffffffffffffffffffffffffffffffffffffffff\n      and\n      dup2\n      mstore\n      0x20\n      add\n      swap1\n      dup2\n      mstore\n      0x20\n      add\n      0x00\n      keccak256\n        /* \"contracts/voting.sol\":1865:1899  voters[_addressVoter].addressVoter */\n      0x02\n      add\n      0x00\n        /* \"contracts/voting.sol\":1865:1915  voters[_addressVoter].addressVoter = _addressVoter */\n      0x0100\n      exp\n      dup2\n      sload\n      dup2\n      0xffffffffffffffffffffffffffffffffffffffff\n      mul\n      not\n      and\n      swap1\n      dup4\n      0xffffffffffffffffffffffffffffffffffffffff\n      and\n      mul\n      or\n      swap1\n      sstore\n      pop\n        /* \"contracts/voting.sol\":1954:1959  _name */\n      dup2\n        /* \"contracts/voting.sol\":1925:1931  voters */\n      0x04\n        /* \"contracts/voting.sol\":1925:1946  voters[_addressVoter] */\n      0x00\n        /* \"contracts/voting.sol\":1932:1945  _addressVoter */\n      dup6\n        /* \"contracts/voting.sol\":1925:1946  voters[_addressVoter] */\n      0xffffffffffffffffffffffffffffffffffffffff\n      and\n      0xffffffffffffffffffffffffffffffffffffffff\n      and\n      dup2\n      mstore\n      0x20\n      add\n      swap1\n      dup2\n      mstore\n      0x20\n      add\n      0x00\n      keccak256\n        /* \"contracts/voting.sol\":1925:1951  voters[_addressVoter].name */\n      0x01\n      add\n        /* \"contracts/voting.sol\":1925:1959  voters[_addressVoter].name = _name */\n      swap1\n      dup2\n      tag_141\n      swap2\n      swap1\n      tag_84\n      jump\t// in\n    tag_141:\n      pop\n        /* \"contracts/voting.sol\":1661:1966  {... */\n      pop\n        /* \"contracts/voting.sol\":1551:1966  function addNewVoter(... */\n      pop\n      pop\n      jump\t// out\n        /* \"contracts/voting.sol\":151:177  address public votingAdmin */\n    tag_46:\n      0x00\n      dup1\n      sload\n      swap1\n      0x0100\n      exp\n      swap1\n      div\n      0xffffffffffffffffffffffffffffffffffffffff\n      and\n      dup2\n      jump\t// out\n        /* \"contracts/voting.sol\":4376:4759  function viewVoterDetails(address _addressVoter) public view returns (... */\n    tag_52:\n        /* \"contracts/voting.sol\":4459:4479  address addressVoter */\n      0x00\n        /* \"contracts/voting.sol\":4493:4511  string memory name */\n      0x60\n        /* \"contracts/voting.sol\":4525:4545  bool isVoteDelegated */\n      0x00\n        /* \"contracts/voting.sol\":4590:4596  voters */\n      0x04\n        /* \"contracts/voting.sol\":4590:4611  voters[_addressVoter] */\n      0x00\n        /* \"contracts/voting.sol\":4597:4610  _addressVoter */\n      dup6\n        /* \"contracts/voting.sol\":4590:4611  voters[_addressVoter] */\n      0xffffffffffffffffffffffffffffffffffffffff\n      and\n      0xffffffffffffffffffffffffffffffffffffffff\n      and\n      dup2\n      mstore\n      0x20\n      add\n      swap1\n      dup2\n      mstore\n      0x20\n      add\n      0x00\n      keccak256\n        /* \"contracts/voting.sol\":4590:4624  voters[_addressVoter].addressVoter */\n      0x02\n      add\n      0x00\n      swap1\n      sload\n      swap1\n      0x0100\n      exp\n      swap1\n      div\n      0xffffffffffffffffffffffffffffffffffffffff\n      and\n        /* \"contracts/voting.sol\":4638:4644  voters */\n      0x04\n        /* \"contracts/voting.sol\":4638:4659  voters[_addressVoter] */\n      0x00\n        /* \"contracts/voting.sol\":4645:4658  _addressVoter */\n      dup7\n        /* \"contracts/voting.sol\":4638:4659  voters[_addressVoter] */\n      0xffffffffffffffffffffffffffffffffffffffff\n      and\n      0xffffffffffffffffffffffffffffffffffffffff\n      and\n      dup2\n      mstore\n      0x20\n      add\n      swap1\n      dup2\n      mstore\n      0x20\n      add\n      0x00\n      keccak256\n        /* \"contracts/voting.sol\":4638:4664  voters[_addressVoter].name */\n      0x01\n      add\n        /* \"contracts/voting.sol\":4715:4727  addressVoter */\n      dup5\n        /* \"contracts/voting.sol\":4678:4727  voters[_addressVoter].delegatedTo == addressVoter */\n      0xffffffffffffffffffffffffffffffffffffffff\n      and\n        /* \"contracts/voting.sol\":4678:4684  voters */\n      0x04\n        /* \"contracts/voting.sol\":4678:4699  voters[_addressVoter] */\n      0x00\n        /* \"contracts/voting.sol\":4685:4698  _addressVoter */\n      dup9\n        /* \"contracts/voting.sol\":4678:4699  voters[_addressVoter] */\n      0xffffffffffffffffffffffffffffffffffffffff\n      and\n      0xffffffffffffffffffffffffffffffffffffffff\n      and\n      dup2\n      mstore\n      0x20\n      add\n      swap1\n      dup2\n      mstore\n      0x20\n      add\n      0x00\n      keccak256\n        /* \"contracts/voting.sol\":4678:4711  voters[_addressVoter].delegatedTo */\n      0x03\n      add\n      0x00\n      swap1\n      sload\n      swap1\n      0x0100\n      exp\n      swap1\n      div\n      0xffffffffffffffffffffffffffffffffffffffff\n      and\n        /* \"contracts/voting.sol\":4678:4727  voters[_addressVoter].delegatedTo == addressVoter */\n      0xffffffffffffffffffffffffffffffffffffffff\n      and\n      eq\n        /* \"contracts/voting.sol\":4678:4742  voters[_addressVoter].delegatedTo == addressVoter ? false : true */\n      tag_143\n      jumpi\n        /* \"contracts/voting.sol\":4738:4742  true */\n      0x01\n        /* \"contracts/voting.sol\":4678:4742  voters[_addressVoter].delegatedTo == addressVoter ? false : true */\n      jump(tag_144)\n    tag_143:\n        /* \"contracts/voting.sol\":4730:4735  false */\n      0x00\n        /* \"contracts/voting.sol\":4678:4742  voters[_addressVoter].delegatedTo == addressVoter ? false : true */\n    tag_144:\n        /* \"contracts/voting.sol\":4570:4752  return(... */\n      dup2\n      dup1\n      sload\n      tag_145\n      swap1\n      tag_66\n      jump\t// in\n    tag_145:\n      dup1\n      0x1f\n      add\n      0x20\n      dup1\n      swap2\n      div\n      mul\n      0x20\n      add\n      mload(0x40)\n      swap1\n      dup2\n      add\n      0x40\n      mstore\n      dup1\n      swap3\n      swap2\n      swap1\n      dup2\n      dup2\n      mstore\n      0x20\n      add\n      dup3\n      dup1\n      sload\n      tag_146\n      swap1\n      tag_66\n      jump\t// in\n    tag_146:\n      dup1\n      iszero\n      tag_147\n      jumpi\n      dup1\n      0x1f\n      lt\n      tag_148\n      jumpi\n      0x0100\n      dup1\n      dup4\n      sload\n      div\n      mul\n      dup4\n      mstore\n      swap2\n      0x20\n      add\n      swap2\n      jump(tag_147)\n    tag_148:\n      dup3\n      add\n      swap2\n      swap1\n      0x00\n      mstore\n      keccak256(0x00, 0x20)\n      swap1\n    tag_149:\n      dup2\n      sload\n      dup2\n      mstore\n      swap1\n      0x01\n      add\n      swap1\n      0x20\n      add\n      dup1\n      dup4\n      gt\n      tag_149\n      jumpi\n      dup3\n      swap1\n      sub\n      0x1f\n      and\n      dup3\n      add\n      swap2\n    tag_147:\n      pop\n      pop\n      pop\n      pop\n      pop\n      swap2\n      pop\n      swap3\n      pop\n      swap3\n      pop\n      swap3\n      pop\n        /* \"contracts/voting.sol\":4376:4759  function viewVoterDetails(address _addressVoter) public view returns (... */\n      swap2\n      swap4\n      swap1\n      swap3\n      pop\n      jump\t// out\n        /* \"#utility.yul\":7:82   */\n    tag_150:\n        /* \"#utility.yul\":40:46   */\n      0x00\n        /* \"#utility.yul\":73:75   */\n      0x40\n        /* \"#utility.yul\":67:76   */\n      mload\n        /* \"#utility.yul\":57:76   */\n      swap1\n      pop\n        /* \"#utility.yul\":7:82   */\n      swap1\n      jump\t// out\n        /* \"#utility.yul\":88:205   */\n    tag_151:\n        /* \"#utility.yul\":197:198   */\n      0x00\n        /* \"#utility.yul\":194:195   */\n      dup1\n        /* \"#utility.yul\":187:199   */\n      revert\n        /* \"#utility.yul\":211:328   */\n    tag_152:\n        /* \"#utility.yul\":320:321   */\n      0x00\n        /* \"#utility.yul\":317:318   */\n      dup1\n        /* \"#utility.yul\":310:322   */\n      revert\n        /* \"#utility.yul\":334:460   */\n    tag_153:\n        /* \"#utility.yul\":371:378   */\n      0x00\n        /* \"#utility.yul\":411:453   */\n      0xffffffffffffffffffffffffffffffffffffffff\n        /* \"#utility.yul\":404:409   */\n      dup3\n        /* \"#utility.yul\":400:454   */\n      and\n        /* \"#utility.yul\":389:454   */\n      swap1\n      pop\n        /* \"#utility.yul\":334:460   */\n      swap2\n      swap1\n      pop\n      jump\t// out\n        /* \"#utility.yul\":466:562   */\n    tag_154:\n        /* \"#utility.yul\":503:510   */\n      0x00\n        /* \"#utility.yul\":532:556   */\n      tag_217\n        /* \"#utility.yul\":550:555   */\n      dup3\n        /* \"#utility.yul\":532:556   */\n      tag_153\n      jump\t// in\n    tag_217:\n        /* \"#utility.yul\":521:556   */\n      swap1\n      pop\n        /* \"#utility.yul\":466:562   */\n      swap2\n      swap1\n      pop\n      jump\t// out\n        /* \"#utility.yul\":568:690   */\n    tag_155:\n        /* \"#utility.yul\":641:665   */\n      tag_219\n        /* \"#utility.yul\":659:664   */\n      dup2\n        /* \"#utility.yul\":641:665   */\n      tag_154\n      jump\t// in\n    tag_219:\n        /* \"#utility.yul\":634:639   */\n      dup2\n        /* \"#utility.yul\":631:666   */\n      eq\n        /* \"#utility.yul\":621:684   */\n      tag_220\n      jumpi\n        /* \"#utility.yul\":680:681   */\n      0x00\n        /* \"#utility.yul\":677:678   */\n      dup1\n        /* \"#utility.yul\":670:682   */\n      revert\n        /* \"#utility.yul\":621:684   */\n    tag_220:\n        /* \"#utility.yul\":568:690   */\n      pop\n      jump\t// out\n        /* \"#utility.yul\":696:835   */\n    tag_156:\n        /* \"#utility.yul\":742:747   */\n      0x00\n        /* \"#utility.yul\":780:786   */\n      dup2\n        /* \"#utility.yul\":767:787   */\n      calldataload\n        /* \"#utility.yul\":758:787   */\n      swap1\n      pop\n        /* \"#utility.yul\":796:829   */\n      tag_222\n        /* \"#utility.yul\":823:828   */\n      dup2\n        /* \"#utility.yul\":796:829   */\n      tag_155\n      jump\t// in\n    tag_222:\n        /* \"#utility.yul\":696:835   */\n      swap3\n      swap2\n      pop\n      pop\n      jump\t// out\n        /* \"#utility.yul\":841:1315   */\n    tag_16:\n        /* \"#utility.yul\":909:915   */\n      0x00\n        /* \"#utility.yul\":917:923   */\n      dup1\n        /* \"#utility.yul\":966:968   */\n      0x40\n        /* \"#utility.yul\":954:963   */\n      dup4\n        /* \"#utility.yul\":945:952   */\n      dup6\n        /* \"#utility.yul\":941:964   */\n      sub\n        /* \"#utility.yul\":937:969   */\n      slt\n        /* \"#utility.yul\":934:1053   */\n      iszero\n      tag_224\n      jumpi\n        /* \"#utility.yul\":972:1051   */\n      tag_225\n      tag_151\n      jump\t// in\n    tag_225:\n        /* \"#utility.yul\":934:1053   */\n    tag_224:\n        /* \"#utility.yul\":1092:1093   */\n      0x00\n        /* \"#utility.yul\":1117:1170   */\n      tag_226\n        /* \"#utility.yul\":1162:1169   */\n      dup6\n        /* \"#utility.yul\":1153:1159   */\n      dup3\n        /* \"#utility.yul\":1142:1151   */\n      dup7\n        /* \"#utility.yul\":1138:1160   */\n      add\n        /* \"#utility.yul\":1117:1170   */\n      tag_156\n      jump\t// in\n    tag_226:\n        /* \"#utility.yul\":1107:1170   */\n      swap3\n      pop\n        /* \"#utility.yul\":1063:1180   */\n      pop\n        /* \"#utility.yul\":1219:1221   */\n      0x20\n        /* \"#utility.yul\":1245:1298   */\n      tag_227\n        /* \"#utility.yul\":1290:1297   */\n      dup6\n        /* \"#utility.yul\":1281:1287   */\n      dup3\n        /* \"#utility.yul\":1270:1279   */\n      dup7\n        /* \"#utility.yul\":1266:1288   */\n      add\n        /* \"#utility.yul\":1245:1298   */\n      tag_156\n      jump\t// in\n    tag_227:\n        /* \"#utility.yul\":1235:1298   */\n      swap2\n      pop\n        /* \"#utility.yul\":1190:1308   */\n      pop\n        /* \"#utility.yul\":841:1315   */\n      swap3\n      pop\n      swap3\n      swap1\n      pop\n      jump\t// out\n        /* \"#utility.yul\":1321:1398   */\n    tag_157:\n        /* \"#utility.yul\":1358:1365   */\n      0x00\n        /* \"#utility.yul\":1387:1392   */\n      dup2\n        /* \"#utility.yul\":1376:1392   */\n      swap1\n      pop\n        /* \"#utility.yul\":1321:1398   */\n      swap2\n      swap1\n      pop\n      jump\t// out\n        /* \"#utility.yul\":1404:1526   */\n    tag_158:\n        /* \"#utility.yul\":1477:1501   */\n      tag_230\n        /* \"#utility.yul\":1495:1500   */\n      dup2\n        /* \"#utility.yul\":1477:1501   */\n      tag_157\n      jump\t// in\n    tag_230:\n        /* \"#utility.yul\":1470:1475   */\n      dup2\n        /* \"#utility.yul\":1467:1502   */\n      eq\n        /* \"#utility.yul\":1457:1520   */\n      tag_231\n      jumpi\n        /* \"#utility.yul\":1516:1517   */\n      0x00\n        /* \"#utility.yul\":1513:1514   */\n      dup1\n        /* \"#utility.yul\":1506:1518   */\n      revert\n        /* \"#utility.yul\":1457:1520   */\n    tag_231:\n        /* \"#utility.yul\":1404:1526   */\n      pop\n      jump\t// out\n        /* \"#utility.yul\":1532:1671   */\n    tag_159:\n        /* \"#utility.yul\":1578:1583   */\n      0x00\n        /* \"#utility.yul\":1616:1622   */\n      dup2\n        /* \"#utility.yul\":1603:1623   */\n      calldataload\n        /* \"#utility.yul\":1594:1623   */\n      swap1\n      pop\n        /* \"#utility.yul\":1632:1665   */\n      tag_233\n        /* \"#utility.yul\":1659:1664   */\n      dup2\n        /* \"#utility.yul\":1632:1665   */\n      tag_158\n      jump\t// in\n    tag_233:\n        /* \"#utility.yul\":1532:1671   */\n      swap3\n      swap2\n      pop\n      pop\n      jump\t// out\n        /* \"#utility.yul\":1677:2006   */\n    tag_20:\n        /* \"#utility.yul\":1736:1742   */\n      0x00\n        /* \"#utility.yul\":1785:1787   */\n      0x20\n        /* \"#utility.yul\":1773:1782   */\n      dup3\n        /* \"#utility.yul\":1764:1771   */\n      dup5\n        /* \"#utility.yul\":1760:1783   */\n      sub\n        /* \"#utility.yul\":1756:1788   */\n      slt\n        /* \"#utility.yul\":1753:1872   */\n      iszero\n      tag_235\n      jumpi\n        /* \"#utility.yul\":1791:1870   */\n      tag_236\n      tag_151\n      jump\t// in\n    tag_236:\n        /* \"#utility.yul\":1753:1872   */\n    tag_235:\n        /* \"#utility.yul\":1911:1912   */\n      0x00\n        /* \"#utility.yul\":1936:1989   */\n      tag_237\n        /* \"#utility.yul\":1981:1988   */\n      dup5\n        /* \"#utility.yul\":1972:1978   */\n      dup3\n        /* \"#utility.yul\":1961:1970   */\n      dup6\n        /* \"#utility.yul\":1957:1979   */\n      add\n        /* \"#utility.yul\":1936:1989   */\n      tag_159\n      jump\t// in\n    tag_237:\n        /* \"#utility.yul\":1926:1989   */\n      swap2\n      pop\n        /* \"#utility.yul\":1882:1999   */\n      pop\n        /* \"#utility.yul\":1677:2006   */\n      swap3\n      swap2\n      pop\n      pop\n      jump\t// out\n        /* \"#utility.yul\":2012:2130   */\n    tag_160:\n        /* \"#utility.yul\":2099:2123   */\n      tag_239\n        /* \"#utility.yul\":2117:2122   */\n      dup2\n        /* \"#utility.yul\":2099:2123   */\n      tag_157\n      jump\t// in\n    tag_239:\n        /* \"#utility.yul\":2094:2097   */\n      dup3\n        /* \"#utility.yul\":2087:2124   */\n      mstore\n        /* \"#utility.yul\":2012:2130   */\n      pop\n      pop\n      jump\t// out\n        /* \"#utility.yul\":2136:2235   */\n    tag_161:\n        /* \"#utility.yul\":2188:2194   */\n      0x00\n        /* \"#utility.yul\":2222:2227   */\n      dup2\n        /* \"#utility.yul\":2216:2228   */\n      mload\n        /* \"#utility.yul\":2206:2228   */\n      swap1\n      pop\n        /* \"#utility.yul\":2136:2235   */\n      swap2\n      swap1\n      pop\n      jump\t// out\n        /* \"#utility.yul\":2241:2410   */\n    tag_162:\n        /* \"#utility.yul\":2325:2336   */\n      0x00\n        /* \"#utility.yul\":2359:2365   */\n      dup3\n        /* \"#utility.yul\":2354:2357   */\n      dup3\n        /* \"#utility.yul\":2347:2366   */\n      mstore\n        /* \"#utility.yul\":2399:2403   */\n      0x20\n        /* \"#utility.yul\":2394:2397   */\n      dup3\n        /* \"#utility.yul\":2390:2404   */\n      add\n        /* \"#utility.yul\":2375:2404   */\n      swap1\n      pop\n        /* \"#utility.yul\":2241:2410   */\n      swap3\n      swap2\n      pop\n      pop\n      jump\t// out\n        /* \"#utility.yul\":2416:2662   */\n    tag_163:\n        /* \"#utility.yul\":2497:2498   */\n      0x00\n        /* \"#utility.yul\":2507:2620   */\n    tag_243:\n        /* \"#utility.yul\":2521:2527   */\n      dup4\n        /* \"#utility.yul\":2518:2519   */\n      dup2\n        /* \"#utility.yul\":2515:2528   */\n      lt\n        /* \"#utility.yul\":2507:2620   */\n      iszero\n      tag_245\n      jumpi\n        /* \"#utility.yul\":2606:2607   */\n      dup1\n        /* \"#utility.yul\":2601:2604   */\n      dup3\n        /* \"#utility.yul\":2597:2608   */\n      add\n        /* \"#utility.yul\":2591:2609   */\n      mload\n        /* \"#utility.yul\":2587:2588   */\n      dup2\n        /* \"#utility.yul\":2582:2585   */\n      dup5\n        /* \"#utility.yul\":2578:2589   */\n      add\n        /* \"#utility.yul\":2571:2610   */\n      mstore\n        /* \"#utility.yul\":2543:2545   */\n      0x20\n        /* \"#utility.yul\":2540:2541   */\n      dup2\n        /* \"#utility.yul\":2536:2546   */\n      add\n        /* \"#utility.yul\":2531:2546   */\n      swap1\n      pop\n        /* \"#utility.yul\":2507:2620   */\n      jump(tag_243)\n    tag_245:\n        /* \"#utility.yul\":2654:2655   */\n      0x00\n        /* \"#utility.yul\":2645:2651   */\n      dup5\n        /* \"#utility.yul\":2640:2643   */\n      dup5\n        /* \"#utility.yul\":2636:2652   */\n      add\n        /* \"#utility.yul\":2629:2656   */\n      mstore\n        /* \"#utility.yul\":2478:2662   */\n      pop\n        /* \"#utility.yul\":2416:2662   */\n      pop\n      pop\n      pop\n      jump\t// out\n        /* \"#utility.yul\":2668:2770   */\n    tag_164:\n        /* \"#utility.yul\":2709:2715   */\n      0x00\n        /* \"#utility.yul\":2760:2762   */\n      0x1f\n        /* \"#utility.yul\":2756:2763   */\n      not\n        /* \"#utility.yul\":2751:2753   */\n      0x1f\n        /* \"#utility.yul\":2744:2749   */\n      dup4\n        /* \"#utility.yul\":2740:2754   */\n      add\n        /* \"#utility.yul\":2736:2764   */\n      and\n        /* \"#utility.yul\":2726:2764   */\n      swap1\n      pop\n        /* \"#utility.yul\":2668:2770   */\n      swap2\n      swap1\n      pop\n      jump\t// out\n        /* \"#utility.yul\":2776:3153   */\n    tag_165:\n        /* \"#utility.yul\":2864:2867   */\n      0x00\n        /* \"#utility.yul\":2892:2931   */\n      tag_248\n        /* \"#utility.yul\":2925:2930   */\n      dup3\n        /* \"#utility.yul\":2892:2931   */\n      tag_161\n      jump\t// in\n    tag_248:\n        /* \"#utility.yul\":2947:3018   */\n      tag_249\n        /* \"#utility.yul\":3011:3017   */\n      dup2\n        /* \"#utility.yul\":3006:3009   */\n      dup6\n        /* \"#utility.yul\":2947:3018   */\n      tag_162\n      jump\t// in\n    tag_249:\n        /* \"#utility.yul\":2940:3018   */\n      swap4\n      pop\n        /* \"#utility.yul\":3027:3092   */\n      tag_250\n        /* \"#utility.yul\":3085:3091   */\n      dup2\n        /* \"#utility.yul\":3080:3083   */\n      dup6\n        /* \"#utility.yul\":3073:3077   */\n      0x20\n        /* \"#utility.yul\":3066:3071   */\n      dup7\n        /* \"#utility.yul\":3062:3078   */\n      add\n        /* \"#utility.yul\":3027:3092   */\n      tag_163\n      jump\t// in\n    tag_250:\n        /* \"#utility.yul\":3117:3146   */\n      tag_251\n        /* \"#utility.yul\":3139:3145   */\n      dup2\n        /* \"#utility.yul\":3117:3146   */\n      tag_164\n      jump\t// in\n    tag_251:\n        /* \"#utility.yul\":3112:3115   */\n      dup5\n        /* \"#utility.yul\":3108:3147   */\n      add\n        /* \"#utility.yul\":3101:3147   */\n      swap2\n      pop\n        /* \"#utility.yul\":2868:3153   */\n      pop\n        /* \"#utility.yul\":2776:3153   */\n      swap3\n      swap2\n      pop\n      pop\n      jump\t// out\n        /* \"#utility.yul\":3159:3692   */\n    tag_23:\n        /* \"#utility.yul\":3328:3332   */\n      0x00\n        /* \"#utility.yul\":3366:3368   */\n      0x60\n        /* \"#utility.yul\":3355:3364   */\n      dup3\n        /* \"#utility.yul\":3351:3369   */\n      add\n        /* \"#utility.yul\":3343:3369   */\n      swap1\n      pop\n        /* \"#utility.yul\":3379:3450   */\n      tag_253\n        /* \"#utility.yul\":3447:3448   */\n      0x00\n        /* \"#utility.yul\":3436:3445   */\n      dup4\n        /* \"#utility.yul\":3432:3449   */\n      add\n        /* \"#utility.yul\":3423:3429   */\n      dup7\n        /* \"#utility.yul\":3379:3450   */\n      tag_160\n      jump\t// in\n    tag_253:\n        /* \"#utility.yul\":3497:3506   */\n      dup2\n        /* \"#utility.yul\":3491:3495   */\n      dup2\n        /* \"#utility.yul\":3487:3507   */\n      sub\n        /* \"#utility.yul\":3482:3484   */\n      0x20\n        /* \"#utility.yul\":3471:3480   */\n      dup4\n        /* \"#utility.yul\":3467:3485   */\n      add\n        /* \"#utility.yul\":3460:3508   */\n      mstore\n        /* \"#utility.yul\":3525:3603   */\n      tag_254\n        /* \"#utility.yul\":3598:3602   */\n      dup2\n        /* \"#utility.yul\":3589:3595   */\n      dup6\n        /* \"#utility.yul\":3525:3603   */\n      tag_165\n      jump\t// in\n    tag_254:\n        /* \"#utility.yul\":3517:3603   */\n      swap1\n      pop\n        /* \"#utility.yul\":3613:3685   */\n      tag_255\n        /* \"#utility.yul\":3681:3683   */\n      0x40\n        /* \"#utility.yul\":3670:3679   */\n      dup4\n        /* \"#utility.yul\":3666:3684   */\n      add\n        /* \"#utility.yul\":3657:3663   */\n      dup5\n        /* \"#utility.yul\":3613:3685   */\n      tag_160\n      jump\t// in\n    tag_255:\n        /* \"#utility.yul\":3159:3692   */\n      swap5\n      swap4\n      pop\n      pop\n      pop\n      pop\n      jump\t// out\n        /* \"#utility.yul\":3698:3815   */\n    tag_166:\n        /* \"#utility.yul\":3807:3808   */\n      0x00\n        /* \"#utility.yul\":3804:3805   */\n      dup1\n        /* \"#utility.yul\":3797:3809   */\n      revert\n        /* \"#utility.yul\":3821:3938   */\n    tag_167:\n        /* \"#utility.yul\":3930:3931   */\n      0x00\n        /* \"#utility.yul\":3927:3928   */\n      dup1\n        /* \"#utility.yul\":3920:3932   */\n      revert\n        /* \"#utility.yul\":3944:4124   */\n    tag_168:\n        /* \"#utility.yul\":3992:4069   */\n      0x4e487b7100000000000000000000000000000000000000000000000000000000\n        /* \"#utility.yul\":3989:3990   */\n      0x00\n        /* \"#utility.yul\":3982:4070   */\n      mstore\n        /* \"#utility.yul\":4089:4093   */\n      0x41\n        /* \"#utility.yul\":4086:4087   */\n      0x04\n        /* \"#utility.yul\":4079:4094   */\n      mstore\n        /* \"#utility.yul\":4113:4117   */\n      0x24\n        /* \"#utility.yul\":4110:4111   */\n      0x00\n        /* \"#utility.yul\":4103:4118   */\n      revert\n        /* \"#utility.yul\":4130:4411   */\n    tag_169:\n        /* \"#utility.yul\":4213:4240   */\n      tag_260\n        /* \"#utility.yul\":4235:4239   */\n      dup3\n        /* \"#utility.yul\":4213:4240   */\n      tag_164\n      jump\t// in\n    tag_260:\n        /* \"#utility.yul\":4205:4211   */\n      dup2\n        /* \"#utility.yul\":4201:4241   */\n      add\n        /* \"#utility.yul\":4343:4349   */\n      dup2\n        /* \"#utility.yul\":4331:4341   */\n      dup2\n        /* \"#utility.yul\":4328:4350   */\n      lt\n        /* \"#utility.yul\":4307:4325   */\n      0xffffffffffffffff\n        /* \"#utility.yul\":4295:4305   */\n      dup3\n        /* \"#utility.yul\":4292:4326   */\n      gt\n        /* \"#utility.yul\":4289:4351   */\n      or\n        /* \"#utility.yul\":4286:4374   */\n      iszero\n      tag_261\n      jumpi\n        /* \"#utility.yul\":4354:4372   */\n      tag_262\n      tag_168\n      jump\t// in\n    tag_262:\n        /* \"#utility.yul\":4286:4374   */\n    tag_261:\n        /* \"#utility.yul\":4394:4404   */\n      dup1\n        /* \"#utility.yul\":4390:4392   */\n      0x40\n        /* \"#utility.yul\":4383:4405   */\n      mstore\n        /* \"#utility.yul\":4173:4411   */\n      pop\n        /* \"#utility.yul\":4130:4411   */\n      pop\n      pop\n      jump\t// out\n        /* \"#utility.yul\":4417:4546   */\n    tag_170:\n        /* \"#utility.yul\":4451:4457   */\n      0x00\n        /* \"#utility.yul\":4478:4498   */\n      tag_264\n      tag_150\n      jump\t// in\n    tag_264:\n        /* \"#utility.yul\":4468:4498   */\n      swap1\n      pop\n        /* \"#utility.yul\":4507:4540   */\n      tag_265\n        /* \"#utility.yul\":4535:4539   */\n      dup3\n        /* \"#utility.yul\":4527:4533   */\n      dup3\n        /* \"#utility.yul\":4507:4540   */\n      tag_169\n      jump\t// in\n    tag_265:\n        /* \"#utility.yul\":4417:4546   */\n      swap2\n      swap1\n      pop\n      jump\t// out\n        /* \"#utility.yul\":4552:4860   */\n    tag_171:\n        /* \"#utility.yul\":4614:4618   */\n      0x00\n        /* \"#utility.yul\":4704:4722   */\n      0xffffffffffffffff\n        /* \"#utility.yul\":4696:4702   */\n      dup3\n        /* \"#utility.yul\":4693:4723   */\n      gt\n        /* \"#utility.yul\":4690:4746   */\n      iszero\n      tag_267\n      jumpi\n        /* \"#utility.yul\":4726:4744   */\n      tag_268\n      tag_168\n      jump\t// in\n    tag_268:\n        /* \"#utility.yul\":4690:4746   */\n    tag_267:\n        /* \"#utility.yul\":4764:4793   */\n      tag_269\n        /* \"#utility.yul\":4786:4792   */\n      dup3\n        /* \"#utility.yul\":4764:4793   */\n      tag_164\n      jump\t// in\n    tag_269:\n        /* \"#utility.yul\":4756:4793   */\n      swap1\n      pop\n        /* \"#utility.yul\":4848:4852   */\n      0x20\n        /* \"#utility.yul\":4842:4846   */\n      dup2\n        /* \"#utility.yul\":4838:4853   */\n      add\n        /* \"#utility.yul\":4830:4853   */\n      swap1\n      pop\n        /* \"#utility.yul\":4552:4860   */\n      swap2\n      swap1\n      pop\n      jump\t// out\n        /* \"#utility.yul\":4866:5012   */\n    tag_172:\n        /* \"#utility.yul\":4963:4969   */\n      dup3\n        /* \"#utility.yul\":4958:4961   */\n      dup2\n        /* \"#utility.yul\":4953:4956   */\n      dup4\n        /* \"#utility.yul\":4940:4970   */\n      calldatacopy\n        /* \"#utility.yul\":5004:5005   */\n      0x00\n        /* \"#utility.yul\":4995:5001   */\n      dup4\n        /* \"#utility.yul\":4990:4993   */\n      dup4\n        /* \"#utility.yul\":4986:5002   */\n      add\n        /* \"#utility.yul\":4979:5006   */\n      mstore\n        /* \"#utility.yul\":4866:5012   */\n      pop\n      pop\n      pop\n      jump\t// out\n        /* \"#utility.yul\":5018:5443   */\n    tag_173:\n        /* \"#utility.yul\":5096:5101   */\n      0x00\n        /* \"#utility.yul\":5121:5187   */\n      tag_272\n        /* \"#utility.yul\":5137:5186   */\n      tag_273\n        /* \"#utility.yul\":5179:5185   */\n      dup5\n        /* \"#utility.yul\":5137:5186   */\n      tag_171\n      jump\t// in\n    tag_273:\n        /* \"#utility.yul\":5121:5187   */\n      tag_170\n      jump\t// in\n    tag_272:\n        /* \"#utility.yul\":5112:5187   */\n      swap1\n      pop\n        /* \"#utility.yul\":5210:5216   */\n      dup3\n        /* \"#utility.yul\":5203:5208   */\n      dup2\n        /* \"#utility.yul\":5196:5217   */\n      mstore\n        /* \"#utility.yul\":5248:5252   */\n      0x20\n        /* \"#utility.yul\":5241:5246   */\n      dup2\n        /* \"#utility.yul\":5237:5253   */\n      add\n        /* \"#utility.yul\":5286:5289   */\n      dup5\n        /* \"#utility.yul\":5277:5283   */\n      dup5\n        /* \"#utility.yul\":5272:5275   */\n      dup5\n        /* \"#utility.yul\":5268:5284   */\n      add\n        /* \"#utility.yul\":5265:5290   */\n      gt\n        /* \"#utility.yul\":5262:5374   */\n      iszero\n      tag_274\n      jumpi\n        /* \"#utility.yul\":5293:5372   */\n      tag_275\n      tag_167\n      jump\t// in\n    tag_275:\n        /* \"#utility.yul\":5262:5374   */\n    tag_274:\n        /* \"#utility.yul\":5383:5437   */\n      tag_276\n        /* \"#utility.yul\":5430:5436   */\n      dup5\n        /* \"#utility.yul\":5425:5428   */\n      dup3\n        /* \"#utility.yul\":5420:5423   */\n      dup6\n        /* \"#utility.yul\":5383:5437   */\n      tag_172\n      jump\t// in\n    tag_276:\n        /* \"#utility.yul\":5102:5443   */\n      pop\n        /* \"#utility.yul\":5018:5443   */\n      swap4\n      swap3\n      pop\n      pop\n      pop\n      jump\t// out\n        /* \"#utility.yul\":5463:5803   */\n    tag_174:\n        /* \"#utility.yul\":5519:5524   */\n      0x00\n        /* \"#utility.yul\":5568:5571   */\n      dup3\n        /* \"#utility.yul\":5561:5565   */\n      0x1f\n        /* \"#utility.yul\":5553:5559   */\n      dup4\n        /* \"#utility.yul\":5549:5566   */\n      add\n        /* \"#utility.yul\":5545:5572   */\n      slt\n        /* \"#utility.yul\":5535:5657   */\n      tag_278\n      jumpi\n        /* \"#utility.yul\":5576:5655   */\n      tag_279\n      tag_166\n      jump\t// in\n    tag_279:\n        /* \"#utility.yul\":5535:5657   */\n    tag_278:\n        /* \"#utility.yul\":5693:5699   */\n      dup2\n        /* \"#utility.yul\":5680:5700   */\n      calldataload\n        /* \"#utility.yul\":5718:5797   */\n      tag_280\n        /* \"#utility.yul\":5793:5796   */\n      dup5\n        /* \"#utility.yul\":5785:5791   */\n      dup3\n        /* \"#utility.yul\":5778:5782   */\n      0x20\n        /* \"#utility.yul\":5770:5776   */\n      dup7\n        /* \"#utility.yul\":5766:5783   */\n      add\n        /* \"#utility.yul\":5718:5797   */\n      tag_173\n      jump\t// in\n    tag_280:\n        /* \"#utility.yul\":5709:5797   */\n      swap2\n      pop\n        /* \"#utility.yul\":5525:5803   */\n      pop\n        /* \"#utility.yul\":5463:5803   */\n      swap3\n      swap2\n      pop\n      pop\n      jump\t// out\n        /* \"#utility.yul\":5809:6643   */\n    tag_26:\n        /* \"#utility.yul\":5897:5903   */\n      0x00\n        /* \"#utility.yul\":5905:5911   */\n      dup1\n        /* \"#utility.yul\":5954:5956   */\n      0x40\n        /* \"#utility.yul\":5942:5951   */\n      dup4\n        /* \"#utility.yul\":5933:5940   */\n      dup6\n        /* \"#utility.yul\":5929:5952   */\n      sub\n        /* \"#utility.yul\":5925:5957   */\n      slt\n        /* \"#utility.yul\":5922:6041   */\n      iszero\n      tag_282\n      jumpi\n        /* \"#utility.yul\":5960:6039   */\n      tag_283\n      tag_151\n      jump\t// in\n    tag_283:\n        /* \"#utility.yul\":5922:6041   */\n    tag_282:\n        /* \"#utility.yul\":6108:6109   */\n      0x00\n        /* \"#utility.yul\":6097:6106   */\n      dup4\n        /* \"#utility.yul\":6093:6110   */\n      add\n        /* \"#utility.yul\":6080:6111   */\n      calldataload\n        /* \"#utility.yul\":6138:6156   */\n      0xffffffffffffffff\n        /* \"#utility.yul\":6130:6136   */\n      dup2\n        /* \"#utility.yul\":6127:6157   */\n      gt\n        /* \"#utility.yul\":6124:6241   */\n      iszero\n      tag_284\n      jumpi\n        /* \"#utility.yul\":6160:6239   */\n      tag_285\n      tag_152\n      jump\t// in\n    tag_285:\n        /* \"#utility.yul\":6124:6241   */\n    tag_284:\n        /* \"#utility.yul\":6265:6328   */\n      tag_286\n        /* \"#utility.yul\":6320:6327   */\n      dup6\n        /* \"#utility.yul\":6311:6317   */\n      dup3\n        /* \"#utility.yul\":6300:6309   */\n      dup7\n        /* \"#utility.yul\":6296:6318   */\n      add\n        /* \"#utility.yul\":6265:6328   */\n      tag_174\n      jump\t// in\n    tag_286:\n        /* \"#utility.yul\":6255:6328   */\n      swap3\n      pop\n        /* \"#utility.yul\":6051:6338   */\n      pop\n        /* \"#utility.yul\":6405:6407   */\n      0x20\n        /* \"#utility.yul\":6394:6403   */\n      dup4\n        /* \"#utility.yul\":6390:6408   */\n      add\n        /* \"#utility.yul\":6377:6409   */\n      calldataload\n        /* \"#utility.yul\":6436:6454   */\n      0xffffffffffffffff\n        /* \"#utility.yul\":6428:6434   */\n      dup2\n        /* \"#utility.yul\":6425:6455   */\n      gt\n        /* \"#utility.yul\":6422:6539   */\n      iszero\n      tag_287\n      jumpi\n        /* \"#utility.yul\":6458:6537   */\n      tag_288\n      tag_152\n      jump\t// in\n    tag_288:\n        /* \"#utility.yul\":6422:6539   */\n    tag_287:\n        /* \"#utility.yul\":6563:6626   */\n      tag_289\n        /* \"#utility.yul\":6618:6625   */\n      dup6\n        /* \"#utility.yul\":6609:6615   */\n      dup3\n        /* \"#utility.yul\":6598:6607   */\n      dup7\n        /* \"#utility.yul\":6594:6616   */\n      add\n        /* \"#utility.yul\":6563:6626   */\n      tag_174\n      jump\t// in\n    tag_289:\n        /* \"#utility.yul\":6553:6626   */\n      swap2\n      pop\n        /* \"#utility.yul\":6348:6636   */\n      pop\n        /* \"#utility.yul\":5809:6643   */\n      swap3\n      pop\n      swap3\n      swap1\n      pop\n      jump\t// out\n        /* \"#utility.yul\":6649:7123   */\n    tag_34:\n        /* \"#utility.yul\":6717:6723   */\n      0x00\n        /* \"#utility.yul\":6725:6731   */\n      dup1\n        /* \"#utility.yul\":6774:6776   */\n      0x40\n        /* \"#utility.yul\":6762:6771   */\n      dup4\n        /* \"#utility.yul\":6753:6760   */\n      dup6\n        /* \"#utility.yul\":6749:6772   */\n      sub\n        /* \"#utility.yul\":6745:6777   */\n      slt\n        /* \"#utility.yul\":6742:6861   */\n      iszero\n      tag_291\n      jumpi\n        /* \"#utility.yul\":6780:6859   */\n      tag_292\n      tag_151\n      jump\t// in\n    tag_292:\n        /* \"#utility.yul\":6742:6861   */\n    tag_291:\n        /* \"#utility.yul\":6900:6901   */\n      0x00\n        /* \"#utility.yul\":6925:6978   */\n      tag_293\n        /* \"#utility.yul\":6970:6977   */\n      dup6\n        /* \"#utility.yul\":6961:6967   */\n      dup3\n        /* \"#utility.yul\":6950:6959   */\n      dup7\n        /* \"#utility.yul\":6946:6968   */\n      add\n        /* \"#utility.yul\":6925:6978   */\n      tag_159\n      jump\t// in\n    tag_293:\n        /* \"#utility.yul\":6915:6978   */\n      swap3\n      pop\n        /* \"#utility.yul\":6871:6988   */\n      pop\n        /* \"#utility.yul\":7027:7029   */\n      0x20\n        /* \"#utility.yul\":7053:7106   */\n      tag_294\n        /* \"#utility.yul\":7098:7105   */\n      dup6\n        /* \"#utility.yul\":7089:7095   */\n      dup3\n        /* \"#utility.yul\":7078:7087   */\n      dup7\n        /* \"#utility.yul\":7074:7096   */\n      add\n        /* \"#utility.yul\":7053:7106   */\n      tag_156\n      jump\t// in\n    tag_294:\n        /* \"#utility.yul\":7043:7106   */\n      swap2\n      pop\n        /* \"#utility.yul\":6998:7116   */\n      pop\n        /* \"#utility.yul\":6649:7123   */\n      swap3\n      pop\n      swap3\n      swap1\n      pop\n      jump\t// out\n        /* \"#utility.yul\":7129:7753   */\n    tag_40:\n        /* \"#utility.yul\":7318:7322   */\n      0x00\n        /* \"#utility.yul\":7356:7358   */\n      0x60\n        /* \"#utility.yul\":7345:7354   */\n      dup3\n        /* \"#utility.yul\":7341:7359   */\n      add\n        /* \"#utility.yul\":7333:7359   */\n      swap1\n      pop\n        /* \"#utility.yul\":7369:7440   */\n      tag_296\n        /* \"#utility.yul\":7437:7438   */\n      0x00\n        /* \"#utility.yul\":7426:7435   */\n      dup4\n        /* \"#utility.yul\":7422:7439   */\n      add\n        /* \"#utility.yul\":7413:7419   */\n      dup7\n        /* \"#utility.yul\":7369:7440   */\n      tag_160\n      jump\t// in\n    tag_296:\n        /* \"#utility.yul\":7487:7496   */\n      dup2\n        /* \"#utility.yul\":7481:7485   */\n      dup2\n        /* \"#utility.yul\":7477:7497   */\n      sub\n        /* \"#utility.yul\":7472:7474   */\n      0x20\n        /* \"#utility.yul\":7461:7470   */\n      dup4\n        /* \"#utility.yul\":7457:7475   */\n      add\n        /* \"#utility.yul\":7450:7498   */\n      mstore\n        /* \"#utility.yul\":7515:7593   */\n      tag_297\n        /* \"#utility.yul\":7588:7592   */\n      dup2\n        /* \"#utility.yul\":7579:7585   */\n      dup6\n        /* \"#utility.yul\":7515:7593   */\n      tag_165\n      jump\t// in\n    tag_297:\n        /* \"#utility.yul\":7507:7593   */\n      swap1\n      pop\n        /* \"#utility.yul\":7640:7649   */\n      dup2\n        /* \"#utility.yul\":7634:7638   */\n      dup2\n        /* \"#utility.yul\":7630:7650   */\n      sub\n        /* \"#utility.yul\":7625:7627   */\n      0x40\n        /* \"#utility.yul\":7614:7623   */\n      dup4\n        /* \"#utility.yul\":7610:7628   */\n      add\n        /* \"#utility.yul\":7603:7651   */\n      mstore\n        /* \"#utility.yul\":7668:7746   */\n      tag_298\n        /* \"#utility.yul\":7741:7745   */\n      dup2\n        /* \"#utility.yul\":7732:7738   */\n      dup5\n        /* \"#utility.yul\":7668:7746   */\n      tag_165\n      jump\t// in\n    tag_298:\n        /* \"#utility.yul\":7660:7746   */\n      swap1\n      pop\n        /* \"#utility.yul\":7129:7753   */\n      swap5\n      swap4\n      pop\n      pop\n      pop\n      pop\n      jump\t// out\n        /* \"#utility.yul\":7759:8413   */\n    tag_43:\n        /* \"#utility.yul\":7837:7843   */\n      0x00\n        /* \"#utility.yul\":7845:7851   */\n      dup1\n        /* \"#utility.yul\":7894:7896   */\n      0x40\n        /* \"#utility.yul\":7882:7891   */\n      dup4\n        /* \"#utility.yul\":7873:7880   */\n      dup6\n        /* \"#utility.yul\":7869:7892   */\n      sub\n        /* \"#utility.yul\":7865:7897   */\n      slt\n        /* \"#utility.yul\":7862:7981   */\n      iszero\n      tag_300\n      jumpi\n        /* \"#utility.yul\":7900:7979   */\n      tag_301\n      tag_151\n      jump\t// in\n    tag_301:\n        /* \"#utility.yul\":7862:7981   */\n    tag_300:\n        /* \"#utility.yul\":8020:8021   */\n      0x00\n        /* \"#utility.yul\":8045:8098   */\n      tag_302\n        /* \"#utility.yul\":8090:8097   */\n      dup6\n        /* \"#utility.yul\":8081:8087   */\n      dup3\n        /* \"#utility.yul\":8070:8079   */\n      dup7\n        /* \"#utility.yul\":8066:8088   */\n      add\n        /* \"#utility.yul\":8045:8098   */\n      tag_156\n      jump\t// in\n    tag_302:\n        /* \"#utility.yul\":8035:8098   */\n      swap3\n      pop\n        /* \"#utility.yul\":7991:8108   */\n      pop\n        /* \"#utility.yul\":8175:8177   */\n      0x20\n        /* \"#utility.yul\":8164:8173   */\n      dup4\n        /* \"#utility.yul\":8160:8178   */\n      add\n        /* \"#utility.yul\":8147:8179   */\n      calldataload\n        /* \"#utility.yul\":8206:8224   */\n      0xffffffffffffffff\n        /* \"#utility.yul\":8198:8204   */\n      dup2\n        /* \"#utility.yul\":8195:8225   */\n      gt\n        /* \"#utility.yul\":8192:8309   */\n      iszero\n      tag_303\n      jumpi\n        /* \"#utility.yul\":8228:8307   */\n      tag_304\n      tag_152\n      jump\t// in\n    tag_304:\n        /* \"#utility.yul\":8192:8309   */\n    tag_303:\n        /* \"#utility.yul\":8333:8396   */\n      tag_305\n        /* \"#utility.yul\":8388:8395   */\n      dup6\n        /* \"#utility.yul\":8379:8385   */\n      dup3\n        /* \"#utility.yul\":8368:8377   */\n      dup7\n        /* \"#utility.yul\":8364:8386   */\n      add\n        /* \"#utility.yul\":8333:8396   */\n      tag_174\n      jump\t// in\n    tag_305:\n        /* \"#utility.yul\":8323:8396   */\n      swap2\n      pop\n        /* \"#utility.yul\":8118:8406   */\n      pop\n        /* \"#utility.yul\":7759:8413   */\n      swap3\n      pop\n      swap3\n      swap1\n      pop\n      jump\t// out\n        /* \"#utility.yul\":8419:8537   */\n    tag_175:\n        /* \"#utility.yul\":8506:8530   */\n      tag_307\n        /* \"#utility.yul\":8524:8529   */\n      dup2\n        /* \"#utility.yul\":8506:8530   */\n      tag_154\n      jump\t// in\n    tag_307:\n        /* \"#utility.yul\":8501:8504   */\n      dup3\n        /* \"#utility.yul\":8494:8531   */\n      mstore\n        /* \"#utility.yul\":8419:8537   */\n      pop\n      pop\n      jump\t// out\n        /* \"#utility.yul\":8543:8765   */\n    tag_48:\n        /* \"#utility.yul\":8636:8640   */\n      0x00\n        /* \"#utility.yul\":8674:8676   */\n      0x20\n        /* \"#utility.yul\":8663:8672   */\n      dup3\n        /* \"#utility.yul\":8659:8677   */\n      add\n        /* \"#utility.yul\":8651:8677   */\n      swap1\n      pop\n        /* \"#utility.yul\":8687:8758   */\n      tag_309\n        /* \"#utility.yul\":8755:8756   */\n      0x00\n        /* \"#utility.yul\":8744:8753   */\n      dup4\n        /* \"#utility.yul\":8740:8757   */\n      add\n        /* \"#utility.yul\":8731:8737   */\n      dup5\n        /* \"#utility.yul\":8687:8758   */\n      tag_175\n      jump\t// in\n    tag_309:\n        /* \"#utility.yul\":8543:8765   */\n      swap3\n      swap2\n      pop\n      pop\n      jump\t// out\n        /* \"#utility.yul\":8771:9100   */\n    tag_51:\n        /* \"#utility.yul\":8830:8836   */\n      0x00\n        /* \"#utility.yul\":8879:8881   */\n      0x20\n        /* \"#utility.yul\":8867:8876   */\n      dup3\n        /* \"#utility.yul\":8858:8865   */\n      dup5\n        /* \"#utility.yul\":8854:8877   */\n      sub\n        /* \"#utility.yul\":8850:8882   */\n      slt\n        /* \"#utility.yul\":8847:8966   */\n      iszero\n      tag_311\n      jumpi\n        /* \"#utility.yul\":8885:8964   */\n      tag_312\n      tag_151\n      jump\t// in\n    tag_312:\n        /* \"#utility.yul\":8847:8966   */\n    tag_311:\n        /* \"#utility.yul\":9005:9006   */\n      0x00\n        /* \"#utility.yul\":9030:9083   */\n      tag_313\n        /* \"#utility.yul\":9075:9082   */\n      dup5\n        /* \"#utility.yul\":9066:9072   */\n      dup3\n        /* \"#utility.yul\":9055:9064   */\n      dup6\n        /* \"#utility.yul\":9051:9073   */\n      add\n        /* \"#utility.yul\":9030:9083   */\n      tag_156\n      jump\t// in\n    tag_313:\n        /* \"#utility.yul\":9020:9083   */\n      swap2\n      pop\n        /* \"#utility.yul\":8976:9093   */\n      pop\n        /* \"#utility.yul\":8771:9100   */\n      swap3\n      swap2\n      pop\n      pop\n      jump\t// out\n        /* \"#utility.yul\":9106:9196   */\n    tag_176:\n        /* \"#utility.yul\":9140:9147   */\n      0x00\n        /* \"#utility.yul\":9183:9188   */\n      dup2\n        /* \"#utility.yul\":9176:9189   */\n      iszero\n        /* \"#utility.yul\":9169:9190   */\n      iszero\n        /* \"#utility.yul\":9158:9190   */\n      swap1\n      pop\n        /* \"#utility.yul\":9106:9196   */\n      swap2\n      swap1\n      pop\n      jump\t// out\n        /* \"#utility.yul\":9202:9311   */\n    tag_177:\n        /* \"#utility.yul\":9283:9304   */\n      tag_316\n        /* \"#utility.yul\":9298:9303   */\n      dup2\n        /* \"#utility.yul\":9283:9304   */\n      tag_176\n      jump\t// in\n    tag_316:\n        /* \"#utility.yul\":9278:9281   */\n      dup3\n        /* \"#utility.yul\":9271:9305   */\n      mstore\n        /* \"#utility.yul\":9202:9311   */\n      pop\n      pop\n      jump\t// out\n        /* \"#utility.yul\":9317:9838   */\n    tag_54:\n        /* \"#utility.yul\":9480:9484   */\n      0x00\n        /* \"#utility.yul\":9518:9520   */\n      0x60\n        /* \"#utility.yul\":9507:9516   */\n      dup3\n        /* \"#utility.yul\":9503:9521   */\n      add\n        /* \"#utility.yul\":9495:9521   */\n      swap1\n      pop\n        /* \"#utility.yul\":9531:9602   */\n      tag_318\n        /* \"#utility.yul\":9599:9600   */\n      0x00\n        /* \"#utility.yul\":9588:9597   */\n      dup4\n        /* \"#utility.yul\":9584:9601   */\n      add\n        /* \"#utility.yul\":9575:9581   */\n      dup7\n        /* \"#utility.yul\":9531:9602   */\n      tag_175\n      jump\t// in\n    tag_318:\n        /* \"#utility.yul\":9649:9658   */\n      dup2\n        /* \"#utility.yul\":9643:9647   */\n      dup2\n        /* \"#utility.yul\":9639:9659   */\n      sub\n        /* \"#utility.yul\":9634:9636   */\n      0x20\n        /* \"#utility.yul\":9623:9632   */\n      dup4\n        /* \"#utility.yul\":9619:9637   */\n      add\n        /* \"#utility.yul\":9612:9660   */\n      mstore\n        /* \"#utility.yul\":9677:9755   */\n      tag_319\n        /* \"#utility.yul\":9750:9754   */\n      dup2\n        /* \"#utility.yul\":9741:9747   */\n      dup6\n        /* \"#utility.yul\":9677:9755   */\n      tag_165\n      jump\t// in\n    tag_319:\n        /* \"#utility.yul\":9669:9755   */\n      swap1\n      pop\n        /* \"#utility.yul\":9765:9831   */\n      tag_320\n        /* \"#utility.yul\":9827:9829   */\n      0x40\n        /* \"#utility.yul\":9816:9825   */\n      dup4\n        /* \"#utility.yul\":9812:9830   */\n      add\n        /* \"#utility.yul\":9803:9809   */\n      dup5\n        /* \"#utility.yul\":9765:9831   */\n      tag_177\n      jump\t// in\n    tag_320:\n        /* \"#utility.yul\":9317:9838   */\n      swap5\n      swap4\n      pop\n      pop\n      pop\n      pop\n      jump\t// out\n        /* \"#utility.yul\":9844:10024   */\n    tag_58:\n        /* \"#utility.yul\":9892:9969   */\n      0x4e487b7100000000000000000000000000000000000000000000000000000000\n        /* \"#utility.yul\":9889:9890   */\n      0x00\n        /* \"#utility.yul\":9882:9970   */\n      mstore\n        /* \"#utility.yul\":9989:9993   */\n      0x21\n        /* \"#utility.yul\":9986:9987   */\n      0x04\n        /* \"#utility.yul\":9979:9994   */\n      mstore\n        /* \"#utility.yul\":10013:10017   */\n      0x24\n        /* \"#utility.yul\":10010:10011   */\n      0x00\n        /* \"#utility.yul\":10003:10018   */\n      revert\n        /* \"#utility.yul\":10030:10268   */\n    tag_178:\n        /* \"#utility.yul\":10170:10204   */\n      0x566f74696e67206e6f7420696e2070726f67726573732e20596f752063616e20\n        /* \"#utility.yul\":10166:10167   */\n      0x00\n        /* \"#utility.yul\":10158:10164   */\n      dup3\n        /* \"#utility.yul\":10154:10168   */\n      add\n        /* \"#utility.yul\":10147:10205   */\n      mstore\n        /* \"#utility.yul\":10239:10260   */\n      0x6e6f742064656c65746567617465206e6f772e00000000000000000000000000\n        /* \"#utility.yul\":10234:10236   */\n      0x20\n        /* \"#utility.yul\":10226:10232   */\n      dup3\n        /* \"#utility.yul\":10222:10237   */\n      add\n        /* \"#utility.yul\":10215:10261   */\n      mstore\n        /* \"#utility.yul\":10030:10268   */\n      pop\n      jump\t// out\n        /* \"#utility.yul\":10274:10640   */\n    tag_179:\n        /* \"#utility.yul\":10416:10419   */\n      0x00\n        /* \"#utility.yul\":10437:10504   */\n      tag_324\n        /* \"#utility.yul\":10501:10503   */\n      0x33\n        /* \"#utility.yul\":10496:10499   */\n      dup4\n        /* \"#utility.yul\":10437:10504   */\n      tag_162\n      jump\t// in\n    tag_324:\n        /* \"#utility.yul\":10430:10504   */\n      swap2\n      pop\n        /* \"#utility.yul\":10513:10606   */\n      tag_325\n        /* \"#utility.yul\":10602:10605   */\n      dup3\n        /* \"#utility.yul\":10513:10606   */\n      tag_178\n      jump\t// in\n    tag_325:\n        /* \"#utility.yul\":10631:10633   */\n      0x40\n        /* \"#utility.yul\":10626:10629   */\n      dup3\n        /* \"#utility.yul\":10622:10634   */\n      add\n        /* \"#utility.yul\":10615:10634   */\n      swap1\n      pop\n        /* \"#utility.yul\":10274:10640   */\n      swap2\n      swap1\n      pop\n      jump\t// out\n        /* \"#utility.yul\":10646:11065   */\n    tag_63:\n        /* \"#utility.yul\":10812:10816   */\n      0x00\n        /* \"#utility.yul\":10850:10852   */\n      0x20\n        /* \"#utility.yul\":10839:10848   */\n      dup3\n        /* \"#utility.yul\":10835:10853   */\n      add\n        /* \"#utility.yul\":10827:10853   */\n      swap1\n      pop\n        /* \"#utility.yul\":10899:10908   */\n      dup2\n        /* \"#utility.yul\":10893:10897   */\n      dup2\n        /* \"#utility.yul\":10889:10909   */\n      sub\n        /* \"#utility.yul\":10885:10886   */\n      0x00\n        /* \"#utility.yul\":10874:10883   */\n      dup4\n        /* \"#utility.yul\":10870:10887   */\n      add\n        /* \"#utility.yul\":10863:10910   */\n      mstore\n        /* \"#utility.yul\":10927:11058   */\n      tag_327\n        /* \"#utility.yul\":11053:11057   */\n      dup2\n        /* \"#utility.yul\":10927:11058   */\n      tag_179\n      jump\t// in\n    tag_327:\n        /* \"#utility.yul\":10919:11058   */\n      swap1\n      pop\n        /* \"#utility.yul\":10646:11065   */\n      swap2\n      swap1\n      pop\n      jump\t// out\n        /* \"#utility.yul\":11071:11251   */\n    tag_180:\n        /* \"#utility.yul\":11119:11196   */\n      0x4e487b7100000000000000000000000000000000000000000000000000000000\n        /* \"#utility.yul\":11116:11117   */\n      0x00\n        /* \"#utility.yul\":11109:11197   */\n      mstore\n        /* \"#utility.yul\":11216:11220   */\n      0x22\n        /* \"#utility.yul\":11213:11214   */\n      0x04\n        /* \"#utility.yul\":11206:11221   */\n      mstore\n        /* \"#utility.yul\":11240:11244   */\n      0x24\n        /* \"#utility.yul\":11237:11238   */\n      0x00\n        /* \"#utility.yul\":11230:11245   */\n      revert\n        /* \"#utility.yul\":11257:11577   */\n    tag_66:\n        /* \"#utility.yul\":11301:11307   */\n      0x00\n        /* \"#utility.yul\":11338:11339   */\n      0x02\n        /* \"#utility.yul\":11332:11336   */\n      dup3\n        /* \"#utility.yul\":11328:11340   */\n      div\n        /* \"#utility.yul\":11318:11340   */\n      swap1\n      pop\n        /* \"#utility.yul\":11385:11386   */\n      0x01\n        /* \"#utility.yul\":11379:11383   */\n      dup3\n        /* \"#utility.yul\":11375:11387   */\n      and\n        /* \"#utility.yul\":11406:11424   */\n      dup1\n        /* \"#utility.yul\":11396:11477   */\n      tag_330\n      jumpi\n        /* \"#utility.yul\":11462:11466   */\n      0x7f\n        /* \"#utility.yul\":11454:11460   */\n      dup3\n        /* \"#utility.yul\":11450:11467   */\n      and\n        /* \"#utility.yul\":11440:11467   */\n      swap2\n      pop\n        /* \"#utility.yul\":11396:11477   */\n    tag_330:\n        /* \"#utility.yul\":11524:11526   */\n      0x20\n        /* \"#utility.yul\":11516:11522   */\n      dup3\n        /* \"#utility.yul\":11513:11527   */\n      lt\n        /* \"#utility.yul\":11493:11511   */\n      dup2\n        /* \"#utility.yul\":11490:11528   */\n      sub\n        /* \"#utility.yul\":11487:11571   */\n      tag_331\n      jumpi\n        /* \"#utility.yul\":11543:11561   */\n      tag_332\n      tag_180\n      jump\t// in\n    tag_332:\n        /* \"#utility.yul\":11487:11571   */\n    tag_331:\n        /* \"#utility.yul\":11308:11577   */\n      pop\n        /* \"#utility.yul\":11257:11577   */\n      swap2\n      swap1\n      pop\n      jump\t// out\n        /* \"#utility.yul\":11583:11805   */\n    tag_181:\n        /* \"#utility.yul\":11723:11757   */\n      0x566f74696e6720616c72656164792073746172746564206f7220636f6d706c65\n        /* \"#utility.yul\":11719:11720   */\n      0x00\n        /* \"#utility.yul\":11711:11717   */\n      dup3\n        /* \"#utility.yul\":11707:11721   */\n      add\n        /* \"#utility.yul\":11700:11758   */\n      mstore\n        /* \"#utility.yul\":11792:11797   */\n      0x7465640000000000000000000000000000000000000000000000000000000000\n        /* \"#utility.yul\":11787:11789   */\n      0x20\n        /* \"#utility.yul\":11779:11785   */\n      dup3\n        /* \"#utility.yul\":11775:11790   */\n      add\n        /* \"#utility.yul\":11768:11798   */\n      mstore\n        /* \"#utility.yul\":11583:11805   */\n      pop\n      jump\t// out\n        /* \"#utility.yul\":11811:12177   */\n    tag_182:\n        /* \"#utility.yul\":11953:11956   */\n      0x00\n        /* \"#utility.yul\":11974:12041   */\n      tag_335\n        /* \"#utility.yul\":12038:12040   */\n      0x23\n        /* \"#utility.yul\":12033:12036   */\n      dup4\n        /* \"#utility.yul\":11974:12041   */\n      tag_162\n      jump\t// in\n    tag_335:\n        /* \"#utility.yul\":11967:12041   */\n      swap2\n      pop\n        /* \"#utility.yul\":12050:12143   */\n      tag_336\n        /* \"#utility.yul\":12139:12142   */\n      dup3\n        /* \"#utility.yul\":12050:12143   */\n      tag_181\n      jump\t// in\n    tag_336:\n        /* \"#utility.yul\":12168:12170   */\n      0x40\n        /* \"#utility.yul\":12163:12166   */\n      dup3\n        /* \"#utility.yul\":12159:12171   */\n      add\n        /* \"#utility.yul\":12152:12171   */\n      swap1\n      pop\n        /* \"#utility.yul\":11811:12177   */\n      swap2\n      swap1\n      pop\n      jump\t// out\n        /* \"#utility.yul\":12183:12602   */\n    tag_80:\n        /* \"#utility.yul\":12349:12353   */\n      0x00\n        /* \"#utility.yul\":12387:12389   */\n      0x20\n        /* \"#utility.yul\":12376:12385   */\n      dup3\n        /* \"#utility.yul\":12372:12390   */\n      add\n        /* \"#utility.yul\":12364:12390   */\n      swap1\n      pop\n        /* \"#utility.yul\":12436:12445   */\n      dup2\n        /* \"#utility.yul\":12430:12434   */\n      dup2\n        /* \"#utility.yul\":12426:12446   */\n      sub\n        /* \"#utility.yul\":12422:12423   */\n      0x00\n        /* \"#utility.yul\":12411:12420   */\n      dup4\n        /* \"#utility.yul\":12407:12424   */\n      add\n        /* \"#utility.yul\":12400:12447   */\n      mstore\n        /* \"#utility.yul\":12464:12595   */\n      tag_338\n        /* \"#utility.yul\":12590:12594   */\n      dup2\n        /* \"#utility.yul\":12464:12595   */\n      tag_182\n      jump\t// in\n    tag_338:\n        /* \"#utility.yul\":12456:12595   */\n      swap1\n      pop\n        /* \"#utility.yul\":12183:12602   */\n      swap2\n      swap1\n      pop\n      jump\t// out\n        /* \"#utility.yul\":12608:12788   */\n    tag_183:\n        /* \"#utility.yul\":12656:12733   */\n      0x4e487b7100000000000000000000000000000000000000000000000000000000\n        /* \"#utility.yul\":12653:12654   */\n      0x00\n        /* \"#utility.yul\":12646:12734   */\n      mstore\n        /* \"#utility.yul\":12753:12757   */\n      0x11\n        /* \"#utility.yul\":12750:12751   */\n      0x04\n        /* \"#utility.yul\":12743:12758   */\n      mstore\n        /* \"#utility.yul\":12777:12781   */\n      0x24\n        /* \"#utility.yul\":12774:12775   */\n      0x00\n        /* \"#utility.yul\":12767:12782   */\n      revert\n        /* \"#utility.yul\":12794:13027   */\n    tag_82:\n        /* \"#utility.yul\":12833:12836   */\n      0x00\n        /* \"#utility.yul\":12856:12880   */\n      tag_341\n        /* \"#utility.yul\":12874:12879   */\n      dup3\n        /* \"#utility.yul\":12856:12880   */\n      tag_157\n      jump\t// in\n    tag_341:\n        /* \"#utility.yul\":12847:12880   */\n      swap2\n      pop\n        /* \"#utility.yul\":12902:12968   */\n      0xffffffffffffffffffffffffffffffffffffffffffffffffffffffffffffffff\n        /* \"#utility.yul\":12895:12900   */\n      dup3\n        /* \"#utility.yul\":12892:12969   */\n      sub\n        /* \"#utility.yul\":12889:12992   */\n      tag_342\n      jumpi\n        /* \"#utility.yul\":12972:12990   */\n      tag_343\n      tag_183\n      jump\t// in\n    tag_343:\n        /* \"#utility.yul\":12889:12992   */\n    tag_342:\n        /* \"#utility.yul\":13019:13020   */\n      0x01\n        /* \"#utility.yul\":13012:13017   */\n      dup3\n        /* \"#utility.yul\":13008:13021   */\n      add\n        /* \"#utility.yul\":13001:13021   */\n      swap1\n      pop\n        /* \"#utility.yul\":12794:13027   */\n      swap2\n      swap1\n      pop\n      jump\t// out\n        /* \"#utility.yul\":13033:13174   */\n    tag_184:\n        /* \"#utility.yul\":13082:13086   */\n      0x00\n        /* \"#utility.yul\":13105:13108   */\n      dup2\n        /* \"#utility.yul\":13097:13108   */\n      swap1\n      pop\n        /* \"#utility.yul\":13128:13131   */\n      dup2\n        /* \"#utility.yul\":13125:13126   */\n      0x00\n        /* \"#utility.yul\":13118:13132   */\n      mstore\n        /* \"#utility.yul\":13162:13166   */\n      0x20\n        /* \"#utility.yul\":13159:13160   */\n      0x00\n        /* \"#utility.yul\":13149:13167   */\n      keccak256\n        /* \"#utility.yul\":13141:13167   */\n      swap1\n      pop\n        /* \"#utility.yul\":13033:13174   */\n      swap2\n      swap1\n      pop\n      jump\t// out\n        /* \"#utility.yul\":13180:13273   */\n    tag_185:\n        /* \"#utility.yul\":13217:13223   */\n      0x00\n        /* \"#utility.yul\":13264:13266   */\n      0x20\n        /* \"#utility.yul\":13259:13261   */\n      0x1f\n        /* \"#utility.yul\":13252:13257   */\n      dup4\n        /* \"#utility.yul\":13248:13262   */\n      add\n        /* \"#utility.yul\":13244:13267   */\n      div\n        /* \"#utility.yul\":13234:13267   */\n      swap1\n      pop\n        /* \"#utility.yul\":13180:13273   */\n      swap2\n      swap1\n      pop\n      jump\t// out\n        /* \"#utility.yul\":13279:13386   */\n    tag_186:\n        /* \"#utility.yul\":13323:13331   */\n      0x00\n        /* \"#utility.yul\":13373:13378   */\n      dup3\n        /* \"#utility.yul\":13367:13371   */\n      dup3\n        /* \"#utility.yul\":13363:13379   */\n      shl\n        /* \"#utility.yul\":13342:13379   */\n      swap1\n      pop\n        /* \"#utility.yul\":13279:13386   */\n      swap3\n      swap2\n      pop\n      pop\n      jump\t// out\n        /* \"#utility.yul\":13392:13785   */\n    tag_187:\n        /* \"#utility.yul\":13461:13467   */\n      0x00\n        /* \"#utility.yul\":13511:13512   */\n      0x08\n        /* \"#utility.yul\":13499:13509   */\n      dup4\n        /* \"#utility.yul\":13495:13513   */\n      mul\n        /* \"#utility.yul\":13534:13631   */\n      tag_348\n        /* \"#utility.yul\":13564:13630   */\n      0xffffffffffffffffffffffffffffffffffffffffffffffffffffffffffffffff\n        /* \"#utility.yul\":13553:13562   */\n      dup3\n        /* \"#utility.yul\":13534:13631   */\n      tag_186\n      jump\t// in\n    tag_348:\n        /* \"#utility.yul\":13652:13691   */\n      tag_349\n        /* \"#utility.yul\":13682:13690   */\n      dup7\n        /* \"#utility.yul\":13671:13680   */\n      dup4\n        /* \"#utility.yul\":13652:13691   */\n      tag_186\n      jump\t// in\n    tag_349:\n        /* \"#utility.yul\":13640:13691   */\n      swap6\n      pop\n        /* \"#utility.yul\":13724:13728   */\n      dup1\n        /* \"#utility.yul\":13720:13729   */\n      not\n        /* \"#utility.yul\":13713:13718   */\n      dup5\n        /* \"#utility.yul\":13709:13730   */\n      and\n        /* \"#utility.yul\":13700:13730   */\n      swap4\n      pop\n        /* \"#utility.yul\":13773:13777   */\n      dup1\n        /* \"#utility.yul\":13763:13771   */\n      dup7\n        /* \"#utility.yul\":13759:13778   */\n      and\n        /* \"#utility.yul\":13752:13757   */\n      dup5\n        /* \"#utility.yul\":13749:13779   */\n      or\n        /* \"#utility.yul\":13739:13779   */\n      swap3\n      pop\n        /* \"#utility.yul\":13468:13785   */\n      pop\n      pop\n        /* \"#utility.yul\":13392:13785   */\n      swap4\n      swap3\n      pop\n      pop\n      pop\n      jump\t// out\n        /* \"#utility.yul\":13791:13851   */\n    tag_188:\n        /* \"#utility.yul\":13819:13822   */\n      0x00\n        /* \"#utility.yul\":13840:13845   */\n      dup2\n        /* \"#utility.yul\":13833:13845   */\n      swap1\n      pop\n        /* \"#utility.yul\":13791:13851   */\n      swap2\n      swap1\n      pop\n      jump\t// out\n        /* \"#utility.yul\":13857:13999   */\n    tag_189:\n        /* \"#utility.yul\":13907:13916   */\n      0x00\n        /* \"#utility.yul\":13940:13993   */\n      tag_352\n        /* \"#utility.yul\":13958:13992   */\n      tag_353\n        /* \"#utility.yul\":13967:13991   */\n      tag_354\n        /* \"#utility.yul\":13985:13990   */\n      dup5\n        /* \"#utility.yul\":13967:13991   */\n      tag_157\n      jump\t// in\n    tag_354:\n        /* \"#utility.yul\":13958:13992   */\n      tag_188\n      jump\t// in\n    tag_353:\n        /* \"#utility.yul\":13940:13993   */\n      tag_157\n      jump\t// in\n    tag_352:\n        /* \"#utility.yul\":13927:13993   */\n      swap1\n      pop\n        /* \"#utility.yul\":13857:13999   */\n      swap2\n      swap1\n      pop\n      jump\t// out\n        /* \"#utility.yul\":14005:14080   */\n    tag_190:\n        /* \"#utility.yul\":14048:14051   */\n      0x00\n        /* \"#utility.yul\":14069:14074   */\n      dup2\n        /* \"#utility.yul\":14062:14074   */\n      swap1\n      pop\n        /* \"#utility.yul\":14005:14080   */\n      swap2\n      swap1\n      pop\n      jump\t// out\n        /* \"#utility.yul\":14086:14355   */\n    tag_191:\n        /* \"#utility.yul\":14196:14235   */\n      tag_357\n        /* \"#utility.yul\":14227:14234   */\n      dup4\n        /* \"#utility.yul\":14196:14235   */\n      tag_189\n      jump\t// in\n    tag_357:\n        /* \"#utility.yul\":14257:14348   */\n      tag_358\n        /* \"#utility.yul\":14306:14347   */\n      tag_359\n        /* \"#utility.yul\":14330:14346   */\n      dup3\n        /* \"#utility.yul\":14306:14347   */\n      tag_190\n      jump\t// in\n    tag_359:\n        /* \"#utility.yul\":14298:14304   */\n      dup5\n        /* \"#utility.yul\":14291:14295   */\n      dup5\n        /* \"#utility.yul\":14285:14296   */\n      sload\n        /* \"#utility.yul\":14257:14348   */\n      tag_187\n      jump\t// in\n    tag_358:\n        /* \"#utility.yul\":14251:14255   */\n      dup3\n        /* \"#utility.yul\":14244:14349   */\n      sstore\n        /* \"#utility.yul\":14162:14355   */\n      pop\n        /* \"#utility.yul\":14086:14355   */\n      pop\n      pop\n      pop\n      jump\t// out\n        /* \"#utility.yul\":14361:14434   */\n    tag_192:\n        /* \"#utility.yul\":14406:14409   */\n      0x00\n        /* \"#utility.yul\":14361:14434   */\n      swap1\n      jump\t// out\n        /* \"#utility.yul\":14440:14629   */\n    tag_193:\n        /* \"#utility.yul\":14517:14549   */\n      tag_362\n      tag_192\n      jump\t// in\n    tag_362:\n        /* \"#utility.yul\":14558:14623   */\n      tag_363\n        /* \"#utility.yul\":14616:14622   */\n      dup2\n        /* \"#utility.yul\":14608:14614   */\n      dup5\n        /* \"#utility.yul\":14602:14606   */\n      dup5\n        /* \"#utility.yul\":14558:14623   */\n      tag_191\n      jump\t// in\n    tag_363:\n        /* \"#utility.yul\":14493:14629   */\n      pop\n        /* \"#utility.yul\":14440:14629   */\n      pop\n      pop\n      jump\t// out\n        /* \"#utility.yul\":14635:14821   */\n    tag_194:\n        /* \"#utility.yul\":14695:14815   */\n    tag_365:\n        /* \"#utility.yul\":14712:14715   */\n      dup2\n        /* \"#utility.yul\":14705:14710   */\n      dup2\n        /* \"#utility.yul\":14702:14716   */\n      lt\n        /* \"#utility.yul\":14695:14815   */\n      iszero\n      tag_367\n      jumpi\n        /* \"#utility.yul\":14766:14805   */\n      tag_368\n        /* \"#utility.yul\":14803:14804   */\n      0x00\n        /* \"#utility.yul\":14796:14801   */\n      dup3\n        /* \"#utility.yul\":14766:14805   */\n      tag_193\n      jump\t// in\n    tag_368:\n        /* \"#utility.yul\":14739:14740   */\n      0x01\n        /* \"#utility.yul\":14732:14737   */\n      dup2\n        /* \"#utility.yul\":14728:14741   */\n      add\n        /* \"#utility.yul\":14719:14741   */\n      swap1\n      pop\n        /* \"#utility.yul\":14695:14815   */\n      jump(tag_365)\n    tag_367:\n        /* \"#utility.yul\":14635:14821   */\n      pop\n      pop\n      jump\t// out\n        /* \"#utility.yul\":14827:15370   */\n    tag_195:\n        /* \"#utility.yul\":14928:14930   */\n      0x1f\n        /* \"#utility.yul\":14923:14926   */\n      dup3\n        /* \"#utility.yul\":14920:14931   */\n      gt\n        /* \"#utility.yul\":14917:15363   */\n      iszero\n      tag_370\n      jumpi\n        /* \"#utility.yul\":14962:15000   */\n      tag_371\n        /* \"#utility.yul\":14994:14999   */\n      dup2\n        /* \"#utility.yul\":14962:15000   */\n      tag_184\n      jump\t// in\n    tag_371:\n        /* \"#utility.yul\":15046:15075   */\n      tag_372\n        /* \"#utility.yul\":15064:15074   */\n      dup5\n        /* \"#utility.yul\":15046:15075   */\n      tag_185\n      jump\t// in\n    tag_372:\n        /* \"#utility.yul\":15036:15044   */\n      dup2\n        /* \"#utility.yul\":15032:15076   */\n      add\n        /* \"#utility.yul\":15229:15231   */\n      0x20\n        /* \"#utility.yul\":15217:15227   */\n      dup6\n        /* \"#utility.yul\":15214:15232   */\n      lt\n        /* \"#utility.yul\":15211:15260   */\n      iszero\n      tag_373\n      jumpi\n        /* \"#utility.yul\":15250:15258   */\n      dup2\n        /* \"#utility.yul\":15235:15258   */\n      swap1\n      pop\n        /* \"#utility.yul\":15211:15260   */\n    tag_373:\n        /* \"#utility.yul\":15273:15353   */\n      tag_374\n        /* \"#utility.yul\":15329:15351   */\n      tag_375\n        /* \"#utility.yul\":15347:15350   */\n      dup6\n        /* \"#utility.yul\":15329:15351   */\n      tag_185\n      jump\t// in\n    tag_375:\n        /* \"#utility.yul\":15319:15327   */\n      dup4\n        /* \"#utility.yul\":15315:15352   */\n      add\n        /* \"#utility.yul\":15302:15313   */\n      dup3\n        /* \"#utility.yul\":15273:15353   */\n      tag_194\n      jump\t// in\n    tag_374:\n        /* \"#utility.yul\":14932:15363   */\n      pop\n      pop\n        /* \"#utility.yul\":14917:15363   */\n    tag_370:\n        /* \"#utility.yul\":14827:15370   */\n      pop\n      pop\n      pop\n      jump\t// out\n        /* \"#utility.yul\":15376:15493   */\n    tag_196:\n        /* \"#utility.yul\":15430:15438   */\n      0x00\n        /* \"#utility.yul\":15480:15485   */\n      dup3\n        /* \"#utility.yul\":15474:15478   */\n      dup3\n        /* \"#utility.yul\":15470:15486   */\n      shr\n        /* \"#utility.yul\":15449:15486   */\n      swap1\n      pop\n        /* \"#utility.yul\":15376:15493   */\n      swap3\n      swap2\n      pop\n      pop\n      jump\t// out\n        /* \"#utility.yul\":15499:15668   */\n    tag_197:\n        /* \"#utility.yul\":15543:15549   */\n      0x00\n        /* \"#utility.yul\":15576:15627   */\n      tag_378\n        /* \"#utility.yul\":15624:15625   */\n      0x00\n        /* \"#utility.yul\":15620:15626   */\n      not\n        /* \"#utility.yul\":15612:15617   */\n      dup5\n        /* \"#utility.yul\":15609:15610   */\n      0x08\n        /* \"#utility.yul\":15605:15618   */\n      mul\n        /* \"#utility.yul\":15576:15627   */\n      tag_196\n      jump\t// in\n    tag_378:\n        /* \"#utility.yul\":15572:15628   */\n      not\n        /* \"#utility.yul\":15657:15661   */\n      dup1\n        /* \"#utility.yul\":15651:15655   */\n      dup4\n        /* \"#utility.yul\":15647:15662   */\n      and\n        /* \"#utility.yul\":15637:15662   */\n      swap2\n      pop\n        /* \"#utility.yul\":15550:15668   */\n      pop\n        /* \"#utility.yul\":15499:15668   */\n      swap3\n      swap2\n      pop\n      pop\n      jump\t// out\n        /* \"#utility.yul\":15673:15968   */\n    tag_198:\n        /* \"#utility.yul\":15749:15753   */\n      0x00\n        /* \"#utility.yul\":15895:15924   */\n      tag_380\n        /* \"#utility.yul\":15920:15923   */\n      dup4\n        /* \"#utility.yul\":15914:15918   */\n      dup4\n        /* \"#utility.yul\":15895:15924   */\n      tag_197\n      jump\t// in\n    tag_380:\n        /* \"#utility.yul\":15887:15924   */\n      swap2\n      pop\n        /* \"#utility.yul\":15957:15960   */\n      dup3\n        /* \"#utility.yul\":15954:15955   */\n      0x02\n        /* \"#utility.yul\":15950:15961   */\n      mul\n        /* \"#utility.yul\":15944:15948   */\n      dup3\n        /* \"#utility.yul\":15941:15962   */\n      or\n        /* \"#utility.yul\":15933:15962   */\n      swap1\n      pop\n        /* \"#utility.yul\":15673:15968   */\n      swap3\n      swap2\n      pop\n      pop\n      jump\t// out\n        /* \"#utility.yul\":15973:17368   */\n    tag_84:\n        /* \"#utility.yul\":16090:16127   */\n      tag_382\n        /* \"#utility.yul\":16123:16126   */\n      dup3\n        /* \"#utility.yul\":16090:16127   */\n      tag_161\n      jump\t// in\n    tag_382:\n        /* \"#utility.yul\":16192:16210   */\n      0xffffffffffffffff\n        /* \"#utility.yul\":16184:16190   */\n      dup2\n        /* \"#utility.yul\":16181:16211   */\n      gt\n        /* \"#utility.yul\":16178:16234   */\n      iszero\n      tag_383\n      jumpi\n        /* \"#utility.yul\":16214:16232   */\n      tag_384\n      tag_168\n      jump\t// in\n    tag_384:\n        /* \"#utility.yul\":16178:16234   */\n    tag_383:\n        /* \"#utility.yul\":16258:16296   */\n      tag_385\n        /* \"#utility.yul\":16290:16294   */\n      dup3\n        /* \"#utility.yul\":16284:16295   */\n      sload\n        /* \"#utility.yul\":16258:16296   */\n      tag_66\n      jump\t// in\n    tag_385:\n        /* \"#utility.yul\":16343:16410   */\n      tag_386\n        /* \"#utility.yul\":16403:16409   */\n      dup3\n        /* \"#utility.yul\":16395:16401   */\n      dup3\n        /* \"#utility.yul\":16389:16393   */\n      dup6\n        /* \"#utility.yul\":16343:16410   */\n      tag_195\n      jump\t// in\n    tag_386:\n        /* \"#utility.yul\":16437:16438   */\n      0x00\n        /* \"#utility.yul\":16461:16465   */\n      0x20\n        /* \"#utility.yul\":16448:16465   */\n      swap1\n      pop\n        /* \"#utility.yul\":16493:16495   */\n      0x1f\n        /* \"#utility.yul\":16485:16491   */\n      dup4\n        /* \"#utility.yul\":16482:16496   */\n      gt\n        /* \"#utility.yul\":16510:16511   */\n      0x01\n        /* \"#utility.yul\":16505:17123   */\n      dup2\n      eq\n      tag_388\n      jumpi\n        /* \"#utility.yul\":17167:17168   */\n      0x00\n        /* \"#utility.yul\":17184:17190   */\n      dup5\n        /* \"#utility.yul\":17181:17258   */\n      iszero\n      tag_389\n      jumpi\n        /* \"#utility.yul\":17233:17242   */\n      dup3\n        /* \"#utility.yul\":17228:17231   */\n      dup8\n        /* \"#utility.yul\":17224:17243   */\n      add\n        /* \"#utility.yul\":17218:17244   */\n      mload\n        /* \"#utility.yul\":17209:17244   */\n      swap1\n      pop\n        /* \"#utility.yul\":17181:17258   */\n    tag_389:\n        /* \"#utility.yul\":17284:17351   */\n      tag_390\n        /* \"#utility.yul\":17344:17350   */\n      dup6\n        /* \"#utility.yul\":17337:17342   */\n      dup3\n        /* \"#utility.yul\":17284:17351   */\n      tag_198\n      jump\t// in\n    tag_390:\n        /* \"#utility.yul\":17278:17282   */\n      dup7\n        /* \"#utility.yul\":17271:17352   */\n      sstore\n        /* \"#utility.yul\":17140:17362   */\n      pop\n        /* \"#utility.yul\":16475:17362   */\n      jump(tag_387)\n        /* \"#utility.yul\":16505:17123   */\n    tag_388:\n        /* \"#utility.yul\":16557:16561   */\n      0x1f\n        /* \"#utility.yul\":16553:16562   */\n      not\n        /* \"#utility.yul\":16545:16551   */\n      dup5\n        /* \"#utility.yul\":16541:16563   */\n      and\n        /* \"#utility.yul\":16591:16628   */\n      tag_391\n        /* \"#utility.yul\":16623:16627   */\n      dup7\n        /* \"#utility.yul\":16591:16628   */\n      tag_184\n      jump\t// in\n    tag_391:\n        /* \"#utility.yul\":16650:16651   */\n      0x00\n        /* \"#utility.yul\":16664:16872   */\n    tag_392:\n        /* \"#utility.yul\":16678:16685   */\n      dup3\n        /* \"#utility.yul\":16675:16676   */\n      dup2\n        /* \"#utility.yul\":16672:16686   */\n      lt\n        /* \"#utility.yul\":16664:16872   */\n      iszero\n      tag_394\n      jumpi\n        /* \"#utility.yul\":16757:16766   */\n      dup5\n        /* \"#utility.yul\":16752:16755   */\n      dup10\n        /* \"#utility.yul\":16748:16767   */\n      add\n        /* \"#utility.yul\":16742:16768   */\n      mload\n        /* \"#utility.yul\":16734:16740   */\n      dup3\n        /* \"#utility.yul\":16727:16769   */\n      sstore\n        /* \"#utility.yul\":16808:16809   */\n      0x01\n        /* \"#utility.yul\":16800:16806   */\n      dup3\n        /* \"#utility.yul\":16796:16810   */\n      add\n        /* \"#utility.yul\":16786:16810   */\n      swap2\n      pop\n        /* \"#utility.yul\":16855:16857   */\n      0x20\n        /* \"#utility.yul\":16844:16853   */\n      dup6\n        /* \"#utility.yul\":16840:16858   */\n      add\n        /* \"#utility.yul\":16827:16858   */\n      swap5\n      pop\n        /* \"#utility.yul\":16701:16705   */\n      0x20\n        /* \"#utility.yul\":16698:16699   */\n      dup2\n        /* \"#utility.yul\":16694:16706   */\n      add\n        /* \"#utility.yul\":16689:16706   */\n      swap1\n      pop\n        /* \"#utility.yul\":16664:16872   */\n      jump(tag_392)\n    tag_394:\n        /* \"#utility.yul\":16900:16906   */\n      dup7\n        /* \"#utility.yul\":16891:16898   */\n      dup4\n        /* \"#utility.yul\":16888:16907   */\n      lt\n        /* \"#utility.yul\":16885:17064   */\n      iszero\n      tag_395\n      jumpi\n        /* \"#utility.yul\":16958:16967   */\n      dup5\n        /* \"#utility.yul\":16953:16956   */\n      dup10\n        /* \"#utility.yul\":16949:16968   */\n      add\n        /* \"#utility.yul\":16943:16969   */\n      mload\n        /* \"#utility.yul\":17001:17049   */\n      tag_396\n        /* \"#utility.yul\":17043:17047   */\n      0x1f\n        /* \"#utility.yul\":17035:17041   */\n      dup10\n        /* \"#utility.yul\":17031:17048   */\n      and\n        /* \"#utility.yul\":17020:17029   */\n      dup3\n        /* \"#utility.yul\":17001:17049   */\n      tag_197\n      jump\t// in\n    tag_396:\n        /* \"#utility.yul\":16993:16999   */\n      dup4\n        /* \"#utility.yul\":16986:17050   */\n      sstore\n        /* \"#utility.yul\":16908:17064   */\n      pop\n        /* \"#utility.yul\":16885:17064   */\n    tag_395:\n        /* \"#utility.yul\":17110:17111   */\n      0x01\n        /* \"#utility.yul\":17106:17107   */\n      0x02\n        /* \"#utility.yul\":17098:17104   */\n      dup9\n        /* \"#utility.yul\":17094:17108   */\n      mul\n        /* \"#utility.yul\":17090:17112   */\n      add\n        /* \"#utility.yul\":17084:17088   */\n      dup9\n        /* \"#utility.yul\":17077:17113   */\n      sstore\n        /* \"#utility.yul\":16512:17123   */\n      pop\n      pop\n      pop\n        /* \"#utility.yul\":16475:17362   */\n    tag_387:\n      pop\n        /* \"#utility.yul\":16065:17368   */\n      pop\n      pop\n      pop\n        /* \"#utility.yul\":15973:17368   */\n      pop\n      pop\n      jump\t// out\n        /* \"#utility.yul\":17374:17543   */\n    tag_199:\n        /* \"#utility.yul\":17514:17535   */\n      0x3020766f74657273207265676973746572656400000000000000000000000000\n        /* \"#utility.yul\":17510:17511   */\n      0x00\n        /* \"#utility.yul\":17502:17508   */\n      dup3\n        /* \"#utility.yul\":17498:17512   */\n      add\n        /* \"#utility.yul\":17491:17536   */\n      mstore\n        /* \"#utility.yul\":17374:17543   */\n      pop\n      jump\t// out\n        /* \"#utility.yul\":17549:17915   */\n    tag_200:\n        /* \"#utility.yul\":17691:17694   */\n      0x00\n        /* \"#utility.yul\":17712:17779   */\n      tag_399\n        /* \"#utility.yul\":17776:17778   */\n      0x13\n        /* \"#utility.yul\":17771:17774   */\n      dup4\n        /* \"#utility.yul\":17712:17779   */\n      tag_162\n      jump\t// in\n    tag_399:\n        /* \"#utility.yul\":17705:17779   */\n      swap2\n      pop\n        /* \"#utility.yul\":17788:17881   */\n      tag_400\n        /* \"#utility.yul\":17877:17880   */\n      dup3\n        /* \"#utility.yul\":17788:17881   */\n      tag_199\n      jump\t// in\n    tag_400:\n        /* \"#utility.yul\":17906:17908   */\n      0x20\n        /* \"#utility.yul\":17901:17904   */\n      dup3\n        /* \"#utility.yul\":17897:17909   */\n      add\n        /* \"#utility.yul\":17890:17909   */\n      swap1\n      pop\n        /* \"#utility.yul\":17549:17915   */\n      swap2\n      swap1\n      pop\n      jump\t// out\n        /* \"#utility.yul\":17921:18340   */\n    tag_96:\n        /* \"#utility.yul\":18087:18091   */\n      0x00\n        /* \"#utility.yul\":18125:18127   */\n      0x20\n        /* \"#utility.yul\":18114:18123   */\n      dup3\n        /* \"#utility.yul\":18110:18128   */\n      add\n        /* \"#utility.yul\":18102:18128   */\n      swap1\n      pop\n        /* \"#utility.yul\":18174:18183   */\n      dup2\n        /* \"#utility.yul\":18168:18172   */\n      dup2\n        /* \"#utility.yul\":18164:18184   */\n      sub\n        /* \"#utility.yul\":18160:18161   */\n      0x00\n        /* \"#utility.yul\":18149:18158   */\n      dup4\n        /* \"#utility.yul\":18145:18162   */\n      add\n        /* \"#utility.yul\":18138:18185   */\n      mstore\n        /* \"#utility.yul\":18202:18333   */\n      tag_402\n        /* \"#utility.yul\":18328:18332   */\n      dup2\n        /* \"#utility.yul\":18202:18333   */\n      tag_200\n      jump\t// in\n    tag_402:\n        /* \"#utility.yul\":18194:18333   */\n      swap1\n      pop\n        /* \"#utility.yul\":17921:18340   */\n      swap2\n      swap1\n      pop\n      jump\t// out\n        /* \"#utility.yul\":18346:18519   */\n    tag_201:\n        /* \"#utility.yul\":18486:18511   */\n      0x302063616e646964617465732072656769737465726564000000000000000000\n        /* \"#utility.yul\":18482:18483   */\n      0x00\n        /* \"#utility.yul\":18474:18480   */\n      dup3\n        /* \"#utility.yul\":18470:18484   */\n      add\n        /* \"#utility.yul\":18463:18512   */\n      mstore\n        /* \"#utility.yul\":18346:18519   */\n      pop\n      jump\t// out\n        /* \"#utility.yul\":18525:18891   */\n    tag_202:\n        /* \"#utility.yul\":18667:18670   */\n      0x00\n        /* \"#utility.yul\":18688:18755   */\n      tag_405\n        /* \"#utility.yul\":18752:18754   */\n      0x17\n        /* \"#utility.yul\":18747:18750   */\n      dup4\n        /* \"#utility.yul\":18688:18755   */\n      tag_162\n      jump\t// in\n    tag_405:\n        /* \"#utility.yul\":18681:18755   */\n      swap2\n      pop\n        /* \"#utility.yul\":18764:18857   */\n      tag_406\n        /* \"#utility.yul\":18853:18856   */\n      dup3\n        /* \"#utility.yul\":18764:18857   */\n      tag_201\n      jump\t// in\n    tag_406:\n        /* \"#utility.yul\":18882:18884   */\n      0x20\n        /* \"#utility.yul\":18877:18880   */\n      dup3\n        /* \"#utility.yul\":18873:18885   */\n      add\n        /* \"#utility.yul\":18866:18885   */\n      swap1\n      pop\n        /* \"#utility.yul\":18525:18891   */\n      swap2\n      swap1\n      pop\n      jump\t// out\n        /* \"#utility.yul\":18897:19316   */\n    tag_99:\n        /* \"#utility.yul\":19063:19067   */\n      0x00\n        /* \"#utility.yul\":19101:19103   */\n      0x20\n        /* \"#utility.yul\":19090:19099   */\n      dup3\n        /* \"#utility.yul\":19086:19104   */\n      add\n        /* \"#utility.yul\":19078:19104   */\n      swap1\n      pop\n        /* \"#utility.yul\":19150:19159   */\n      dup2\n        /* \"#utility.yul\":19144:19148   */\n      dup2\n        /* \"#utility.yul\":19140:19160   */\n      sub\n        /* \"#utility.yul\":19136:19137   */\n      0x00\n        /* \"#utility.yul\":19125:19134   */\n      dup4\n        /* \"#utility.yul\":19121:19138   */\n      add\n        /* \"#utility.yul\":19114:19161   */\n      mstore\n        /* \"#utility.yul\":19178:19309   */\n      tag_408\n        /* \"#utility.yul\":19304:19308   */\n      dup2\n        /* \"#utility.yul\":19178:19309   */\n      tag_202\n      jump\t// in\n    tag_408:\n        /* \"#utility.yul\":19170:19309   */\n      swap1\n      pop\n        /* \"#utility.yul\":18897:19316   */\n      swap2\n      swap1\n      pop\n      jump\t// out\n        /* \"#utility.yul\":19322:19442   */\n    tag_203:\n        /* \"#utility.yul\":19410:19411   */\n      0x03\n        /* \"#utility.yul\":19403:19408   */\n      dup2\n        /* \"#utility.yul\":19400:19412   */\n      lt\n        /* \"#utility.yul\":19390:19436   */\n      tag_410\n      jumpi\n        /* \"#utility.yul\":19416:19434   */\n      tag_411\n      tag_58\n      jump\t// in\n    tag_411:\n        /* \"#utility.yul\":19390:19436   */\n    tag_410:\n        /* \"#utility.yul\":19322:19442   */\n      pop\n      jump\t// out\n        /* \"#utility.yul\":19448:19589   */\n    tag_204:\n        /* \"#utility.yul\":19500:19507   */\n      0x00\n        /* \"#utility.yul\":19529:19534   */\n      dup2\n        /* \"#utility.yul\":19518:19534   */\n      swap1\n      pop\n        /* \"#utility.yul\":19535:19583   */\n      tag_413\n        /* \"#utility.yul\":19577:19582   */\n      dup3\n        /* \"#utility.yul\":19535:19583   */\n      tag_203\n      jump\t// in\n    tag_413:\n        /* \"#utility.yul\":19448:19589   */\n      swap2\n      swap1\n      pop\n      jump\t// out\n        /* \"#utility.yul\":19595:19736   */\n    tag_205:\n        /* \"#utility.yul\":19658:19667   */\n      0x00\n        /* \"#utility.yul\":19691:19730   */\n      tag_415\n        /* \"#utility.yul\":19724:19729   */\n      dup3\n        /* \"#utility.yul\":19691:19730   */\n      tag_204\n      jump\t// in\n    tag_415:\n        /* \"#utility.yul\":19678:19730   */\n      swap1\n      pop\n        /* \"#utility.yul\":19595:19736   */\n      swap2\n      swap1\n      pop\n      jump\t// out\n        /* \"#utility.yul\":19742:19899   */\n    tag_206:\n        /* \"#utility.yul\":19842:19892   */\n      tag_417\n        /* \"#utility.yul\":19886:19891   */\n      dup2\n        /* \"#utility.yul\":19842:19892   */\n      tag_205\n      jump\t// in\n    tag_417:\n        /* \"#utility.yul\":19837:19840   */\n      dup3\n        /* \"#utility.yul\":19830:19893   */\n      mstore\n        /* \"#utility.yul\":19742:19899   */\n      pop\n      pop\n      jump\t// out\n        /* \"#utility.yul\":19905:20069   */\n    tag_207:\n        /* \"#utility.yul\":20045:20061   */\n      0x566f74696e67206f6e676f696e67000000000000000000000000000000000000\n        /* \"#utility.yul\":20041:20042   */\n      0x00\n        /* \"#utility.yul\":20033:20039   */\n      dup3\n        /* \"#utility.yul\":20029:20043   */\n      add\n        /* \"#utility.yul\":20022:20062   */\n      mstore\n        /* \"#utility.yul\":19905:20069   */\n      pop\n      jump\t// out\n        /* \"#utility.yul\":20075:20441   */\n    tag_208:\n        /* \"#utility.yul\":20217:20220   */\n      0x00\n        /* \"#utility.yul\":20238:20305   */\n      tag_420\n        /* \"#utility.yul\":20302:20304   */\n      0x0e\n        /* \"#utility.yul\":20297:20300   */\n      dup4\n        /* \"#utility.yul\":20238:20305   */\n      tag_162\n      jump\t// in\n    tag_420:\n        /* \"#utility.yul\":20231:20305   */\n      swap2\n      pop\n        /* \"#utility.yul\":20314:20407   */\n      tag_421\n        /* \"#utility.yul\":20403:20406   */\n      dup3\n        /* \"#utility.yul\":20314:20407   */\n      tag_207\n      jump\t// in\n    tag_421:\n        /* \"#utility.yul\":20432:20434   */\n      0x20\n        /* \"#utility.yul\":20427:20430   */\n      dup3\n        /* \"#utility.yul\":20423:20435   */\n      add\n        /* \"#utility.yul\":20416:20435   */\n      swap1\n      pop\n        /* \"#utility.yul\":20075:20441   */\n      swap2\n      swap1\n      pop\n      jump\t// out\n        /* \"#utility.yul\":20447:21002   */\n    tag_106:\n        /* \"#utility.yul\":20654:20658   */\n      0x00\n        /* \"#utility.yul\":20692:20694   */\n      0x40\n        /* \"#utility.yul\":20681:20690   */\n      dup3\n        /* \"#utility.yul\":20677:20695   */\n      add\n        /* \"#utility.yul\":20669:20695   */\n      swap1\n      pop\n        /* \"#utility.yul\":20705:20789   */\n      tag_423\n        /* \"#utility.yul\":20786:20787   */\n      0x00\n        /* \"#utility.yul\":20775:20784   */\n      dup4\n        /* \"#utility.yul\":20771:20788   */\n      add\n        /* \"#utility.yul\":20762:20768   */\n      dup5\n        /* \"#utility.yul\":20705:20789   */\n      tag_206\n      jump\t// in\n    tag_423:\n        /* \"#utility.yul\":20836:20845   */\n      dup2\n        /* \"#utility.yul\":20830:20834   */\n      dup2\n        /* \"#utility.yul\":20826:20846   */\n      sub\n        /* \"#utility.yul\":20821:20823   */\n      0x20\n        /* \"#utility.yul\":20810:20819   */\n      dup4\n        /* \"#utility.yul\":20806:20824   */\n      add\n        /* \"#utility.yul\":20799:20847   */\n      mstore\n        /* \"#utility.yul\":20864:20995   */\n      tag_424\n        /* \"#utility.yul\":20990:20994   */\n      dup2\n        /* \"#utility.yul\":20864:20995   */\n      tag_208\n      jump\t// in\n    tag_424:\n        /* \"#utility.yul\":20856:20995   */\n      swap1\n      pop\n        /* \"#utility.yul\":20447:21002   */\n      swap3\n      swap2\n      pop\n      pop\n      jump\t// out\n        /* \"#utility.yul\":21008:21174   */\n    tag_209:\n        /* \"#utility.yul\":21148:21166   */\n      0x566f74696e6720636f6d706c6574656400000000000000000000000000000000\n        /* \"#utility.yul\":21144:21145   */\n      0x00\n        /* \"#utility.yul\":21136:21142   */\n      dup3\n        /* \"#utility.yul\":21132:21146   */\n      add\n        /* \"#utility.yul\":21125:21167   */\n      mstore\n        /* \"#utility.yul\":21008:21174   */\n      pop\n      jump\t// out\n        /* \"#utility.yul\":21180:21546   */\n    tag_210:\n        /* \"#utility.yul\":21322:21325   */\n      0x00\n        /* \"#utility.yul\":21343:21410   */\n      tag_427\n        /* \"#utility.yul\":21407:21409   */\n      0x10\n        /* \"#utility.yul\":21402:21405   */\n      dup4\n        /* \"#utility.yul\":21343:21410   */\n      tag_162\n      jump\t// in\n    tag_427:\n        /* \"#utility.yul\":21336:21410   */\n      swap2\n      pop\n        /* \"#utility.yul\":21419:21512   */\n      tag_428\n        /* \"#utility.yul\":21508:21511   */\n      dup3\n        /* \"#utility.yul\":21419:21512   */\n      tag_209\n      jump\t// in\n    tag_428:\n        /* \"#utility.yul\":21537:21539   */\n      0x20\n        /* \"#utility.yul\":21532:21535   */\n      dup3\n        /* \"#utility.yul\":21528:21540   */\n      add\n        /* \"#utility.yul\":21521:21540   */\n      swap1\n      pop\n        /* \"#utility.yul\":21180:21546   */\n      swap2\n      swap1\n      pop\n      jump\t// out\n        /* \"#utility.yul\":21552:22107   */\n    tag_114:\n        /* \"#utility.yul\":21759:21763   */\n      0x00\n        /* \"#utility.yul\":21797:21799   */\n      0x40\n        /* \"#utility.yul\":21786:21795   */\n      dup3\n        /* \"#utility.yul\":21782:21800   */\n      add\n        /* \"#utility.yul\":21774:21800   */\n      swap1\n      pop\n        /* \"#utility.yul\":21810:21894   */\n      tag_430\n        /* \"#utility.yul\":21891:21892   */\n      0x00\n        /* \"#utility.yul\":21880:21889   */\n      dup4\n        /* \"#utility.yul\":21876:21893   */\n      add\n        /* \"#utility.yul\":21867:21873   */\n      dup5\n        /* \"#utility.yul\":21810:21894   */\n      tag_206\n      jump\t// in\n    tag_430:\n        /* \"#utility.yul\":21941:21950   */\n      dup2\n        /* \"#utility.yul\":21935:21939   */\n      dup2\n        /* \"#utility.yul\":21931:21951   */\n      sub\n        /* \"#utility.yul\":21926:21928   */\n      0x20\n        /* \"#utility.yul\":21915:21924   */\n      dup4\n        /* \"#utility.yul\":21911:21929   */\n      add\n        /* \"#utility.yul\":21904:21952   */\n      mstore\n        /* \"#utility.yul\":21969:22100   */\n      tag_431\n        /* \"#utility.yul\":22095:22099   */\n      dup2\n        /* \"#utility.yul\":21969:22100   */\n      tag_210\n      jump\t// in\n    tag_431:\n        /* \"#utility.yul\":21961:22100   */\n      swap1\n      pop\n        /* \"#utility.yul\":21552:22107   */\n      swap3\n      swap2\n      pop\n      pop\n      jump\t// out\n        /* \"#utility.yul\":22113:22304   */\n    tag_119:\n        /* \"#utility.yul\":22153:22156   */\n      0x00\n        /* \"#utility.yul\":22172:22192   */\n      tag_433\n        /* \"#utility.yul\":22190:22191   */\n      dup3\n        /* \"#utility.yul\":22172:22192   */\n      tag_157\n      jump\t// in\n    tag_433:\n        /* \"#utility.yul\":22167:22192   */\n      swap2\n      pop\n        /* \"#utility.yul\":22206:22226   */\n      tag_434\n        /* \"#utility.yul\":22224:22225   */\n      dup4\n        /* \"#utility.yul\":22206:22226   */\n      tag_157\n      jump\t// in\n    tag_434:\n        /* \"#utility.yul\":22201:22226   */\n      swap3\n      pop\n        /* \"#utility.yul\":22249:22250   */\n      dup3\n        /* \"#utility.yul\":22246:22247   */\n      dup3\n        /* \"#utility.yul\":22242:22251   */\n      add\n        /* \"#utility.yul\":22235:22251   */\n      swap1\n      pop\n        /* \"#utility.yul\":22270:22273   */\n      dup1\n        /* \"#utility.yul\":22267:22268   */\n      dup3\n        /* \"#utility.yul\":22264:22274   */\n      gt\n        /* \"#utility.yul\":22261:22297   */\n      iszero\n      tag_435\n      jumpi\n        /* \"#utility.yul\":22277:22295   */\n      tag_436\n      tag_183\n      jump\t// in\n    tag_436:\n        /* \"#utility.yul\":22261:22297   */\n    tag_435:\n        /* \"#utility.yul\":22113:22304   */\n      swap3\n      swap2\n      pop\n      pop\n      jump\t// out\n\n    auxdata: 0xa2646970667358221220cd6e327749a7d35cc1de6869c9a09cb6a4811baf6289c9525728f0ed9b50699c64736f6c63430008160033\n}\n",
				"bytecode": {
					"linkReferences": {},
					"object": "60806040525f8060146101000a81548160ff0219169083600281111561002857610027610085565b5b02179055505f6001555f600255348015610040575f80fd5b50335f806101000a81548173ffffffffffffffffffffffffffffffffffffffff021916908373ffffffffffffffffffffffffffffffffffffffff1602179055506100b2565b7f4e487b71000000000000000000000000000000000000000000000000000000005f52602160045260245ffd5b61191b806100bf5f395ff3fe608060405234801561000f575f80fd5b506004361061009c575f3560e01c806377df41b71161006457806377df41b71461011e578063a48292ce1461013a578063bd7bf4f01461016c578063d45529f414610188578063f83bfa28146101a65761009c565b80633d0af840146100a05780634ad7b863146100bc578063577c689a146100ee57806359f784681461010a57806362d73eb814610114575b5f80fd5b6100ba60048036038101906100b59190610d93565b6101d8565b005b6100d660048036038101906100d19190610e04565b6102cf565b6040516100e593929190610ec8565b60405180910390f35b61010860048036038101906101039190611030565b610391565b005b6101126104c1565b005b61011c610543565b005b610138600480360381019061013391906110a6565b610756565b005b610154600480360381019061014f9190610e04565b6107d2565b604051610163939291906110e4565b60405180910390f35b61018660048036038101906101819190611127565b610933565b005b610190610b2f565b60405161019d9190611190565b60405180910390f35b6101c060048036038101906101bb91906111a9565b610b52565b6040516101cf939291906111ee565b60405180910390f35b600160028111156101ec576101eb61122a565b5b5f60149054906101000a900460ff16600281111561020d5761020c61122a565b5b1461024d576040517f08c379a0000000000000000000000000000000000000000000000000000000008152600401610244906112c7565b60405180910390fd5b8160045f8373ffffffffffffffffffffffffffffffffffffffff1673ffffffffffffffffffffffffffffffffffffffff1681526020019081526020015f206003015f6101000a81548173ffffffffffffffffffffffffffffffffffffffff021916908373ffffffffffffffffffffffffffffffffffffffff1602179055505050565b5f60605f8360035f8681526020019081526020015f2060010160055f8781526020019081526020015f205481805461030690611312565b80601f016020809104026020016040519081016040528092919081815260200182805461033290611312565b801561037d5780601f106103545761010080835404028352916020019161037d565b820191905f5260205f20905b81548152906001019060200180831161036057829003601f168201915b505050505091509250925092509193909250565b5f8054906101000a900473ffffffffffffffffffffffffffffffffffffffff1673ffffffffffffffffffffffffffffffffffffffff163373ffffffffffffffffffffffffffffffffffffffff16146103e7575f80fd5b5f60028111156103fa576103f961122a565b5b5f60149054906101000a900460ff16600281111561041b5761041a61122a565b5b1461045b576040517f08c379a0000000000000000000000000000000000000000000000000000000008152600401610452906113b2565b60405180910390fd5b60015f81548092919061046d906113fd565b91905055505f60015490508260035f8381526020019081526020015f20600101908161049991906115e1565b508160035f8381526020019081526020015f2060020190816104bb91906115e1565b50505050565b5f8054906101000a900473ffffffffffffffffffffffffffffffffffffffff1673ffffffffffffffffffffffffffffffffffffffff163373ffffffffffffffffffffffffffffffffffffffff1614610517575f80fd5b60025f60146101000a81548160ff0219169083600281111561053c5761053b61122a565b5b0217905550565b5f8054906101000a900473ffffffffffffffffffffffffffffffffffffffff1673ffffffffffffffffffffffffffffffffffffffff163373ffffffffffffffffffffffffffffffffffffffff1614610599575f80fd5b5f600254116105dd576040517f08c379a00000000000000000000000000000000000000000000000000000000081526004016105d4906116fa565b60405180910390fd5b5f60015411610621576040517f08c379a000000000000000000000000000000000000000000000000000000000815260040161061890611762565b60405180910390fd5b600160028111156106355761063461122a565b5b5f60149054906101000a900460ff1660028111156106565761065561122a565b5b036106a6575f60149054906101000a900460ff166040517fef90b1c100000000000000000000000000000000000000000000000000000000815260040161069d9190611810565b60405180910390fd5b6002808111156106b9576106b861122a565b5b5f60149054906101000a900460ff1660028111156106da576106d961122a565b5b0361072a575f60149054906101000a900460ff166040517fef90b1c10000000000000000000000000000000000000000000000000000000081526004016107219190611886565b60405180910390fd5b60015f60146101000a81548160ff0219169083600281111561074f5761074e61122a565b5b0217905550565b600160055f8481526020019081526020015f205461077491906118b2565b60055f8481526020019081526020015f20819055508160045f8373ffffffffffffffffffffffffffffffffffffffff1673ffffffffffffffffffffffffffffffffffffffff1681526020019081526020015f20600401819055505050565b5f60608060035f8481526020019081526020015f205f015460035f8581526020019081526020015f2060020160035f8681526020019081526020015f2060010181805461081e90611312565b80601f016020809104026020016040519081016040528092919081815260200182805461084a90611312565b80156108955780601f1061086c57610100808354040283529160200191610895565b820191905f5260205f20905b81548152906001019060200180831161087857829003601f168201915b505050505091508080546108a890611312565b80601f01602080910402602001604051908101604052809291908181526020018280546108d490611312565b801561091f5780601f106108f65761010080835404028352916020019161091f565b820191905f5260205f20905b81548152906001019060200180831161090257829003601f168201915b505050505090509250925092509193909250565b5f8054906101000a900473ffffffffffffffffffffffffffffffffffffffff1673ffffffffffffffffffffffffffffffffffffffff163373ffffffffffffffffffffffffffffffffffffffff1614610989575f80fd5b5f600281111561099c5761099b61122a565b5b5f60149054906101000a900460ff1660028111156109bd576109bc61122a565b5b146109fd576040517f08c379a00000000000000000000000000000000000000000000000000000000081526004016109f4906113b2565b60405180910390fd5b60025f815480929190610a0f906113fd565b91905055505f60025490508060045f8573ffffffffffffffffffffffffffffffffffffffff1673ffffffffffffffffffffffffffffffffffffffff1681526020019081526020015f205f01819055508260045f8573ffffffffffffffffffffffffffffffffffffffff1673ffffffffffffffffffffffffffffffffffffffff1681526020019081526020015f206002015f6101000a81548173ffffffffffffffffffffffffffffffffffffffff021916908373ffffffffffffffffffffffffffffffffffffffff1602179055508160045f8573ffffffffffffffffffffffffffffffffffffffff1673ffffffffffffffffffffffffffffffffffffffff1681526020019081526020015f206001019081610b2991906115e1565b50505050565b5f8054906101000a900473ffffffffffffffffffffffffffffffffffffffff1681565b5f60605f60045f8573ffffffffffffffffffffffffffffffffffffffff1673ffffffffffffffffffffffffffffffffffffffff1681526020019081526020015f206002015f9054906101000a900473ffffffffffffffffffffffffffffffffffffffff1660045f8673ffffffffffffffffffffffffffffffffffffffff1673ffffffffffffffffffffffffffffffffffffffff1681526020019081526020015f206001018473ffffffffffffffffffffffffffffffffffffffff1660045f8873ffffffffffffffffffffffffffffffffffffffff1673ffffffffffffffffffffffffffffffffffffffff1681526020019081526020015f206003015f9054906101000a900473ffffffffffffffffffffffffffffffffffffffff1673ffffffffffffffffffffffffffffffffffffffff1614610c8f576001610c91565b5f5b818054610c9d90611312565b80601f0160208091040260200160405190810160405280929190818152602001828054610cc990611312565b8015610d145780601f10610ceb57610100808354040283529160200191610d14565b820191905f5260205f20905b815481529060010190602001808311610cf757829003601f168201915b505050505091509250925092509193909250565b5f604051905090565b5f80fd5b5f80fd5b5f73ffffffffffffffffffffffffffffffffffffffff82169050919050565b5f610d6282610d39565b9050919050565b610d7281610d58565b8114610d7c575f80fd5b50565b5f81359050610d8d81610d69565b92915050565b5f8060408385031215610da957610da8610d31565b5b5f610db685828601610d7f565b9250506020610dc785828601610d7f565b9150509250929050565b5f819050919050565b610de381610dd1565b8114610ded575f80fd5b50565b5f81359050610dfe81610dda565b92915050565b5f60208284031215610e1957610e18610d31565b5b5f610e2684828501610df0565b91505092915050565b610e3881610dd1565b82525050565b5f81519050919050565b5f82825260208201905092915050565b5f5b83811015610e75578082015181840152602081019050610e5a565b5f8484015250505050565b5f601f19601f8301169050919050565b5f610e9a82610e3e565b610ea48185610e48565b9350610eb4818560208601610e58565b610ebd81610e80565b840191505092915050565b5f606082019050610edb5f830186610e2f565b8181036020830152610eed8185610e90565b9050610efc6040830184610e2f565b949350505050565b5f80fd5b5f80fd5b7f4e487b71000000000000000000000000000000000000000000000000000000005f52604160045260245ffd5b610f4282610e80565b810181811067ffffffffffffffff82111715610f6157610f60610f0c565b5b80604052505050565b5f610f73610d28565b9050610f7f8282610f39565b919050565b5f67ffffffffffffffff821115610f9e57610f9d610f0c565b5b610fa782610e80565b9050602081019050919050565b828183375f83830152505050565b5f610fd4610fcf84610f84565b610f6a565b905082815260208101848484011115610ff057610fef610f08565b5b610ffb848285610fb4565b509392505050565b5f82601f83011261101757611016610f04565b5b8135611027848260208601610fc2565b91505092915050565b5f806040838503121561104657611045610d31565b5b5f83013567ffffffffffffffff81111561106357611062610d35565b5b61106f85828601611003565b925050602083013567ffffffffffffffff8111156110905761108f610d35565b5b61109c85828601611003565b9150509250929050565b5f80604083850312156110bc576110bb610d31565b5b5f6110c985828601610df0565b92505060206110da85828601610d7f565b9150509250929050565b5f6060820190506110f75f830186610e2f565b81810360208301526111098185610e90565b9050818103604083015261111d8184610e90565b9050949350505050565b5f806040838503121561113d5761113c610d31565b5b5f61114a85828601610d7f565b925050602083013567ffffffffffffffff81111561116b5761116a610d35565b5b61117785828601611003565b9150509250929050565b61118a81610d58565b82525050565b5f6020820190506111a35f830184611181565b92915050565b5f602082840312156111be576111bd610d31565b5b5f6111cb84828501610d7f565b91505092915050565b5f8115159050919050565b6111e8816111d4565b82525050565b5f6060820190506112015f830186611181565b81810360208301526112138185610e90565b905061122260408301846111df565b949350505050565b7f4e487b71000000000000000000000000000000000000000000000000000000005f52602160045260245ffd5b7f566f74696e67206e6f7420696e2070726f67726573732e20596f752063616e205f8201527f6e6f742064656c65746567617465206e6f772e00000000000000000000000000602082015250565b5f6112b1603383610e48565b91506112bc82611257565b604082019050919050565b5f6020820190508181035f8301526112de816112a5565b9050919050565b7f4e487b71000000000000000000000000000000000000000000000000000000005f52602260045260245ffd5b5f600282049050600182168061132957607f821691505b60208210810361133c5761133b6112e5565b5b50919050565b7f566f74696e6720616c72656164792073746172746564206f7220636f6d706c655f8201527f7465640000000000000000000000000000000000000000000000000000000000602082015250565b5f61139c602383610e48565b91506113a782611342565b604082019050919050565b5f6020820190508181035f8301526113c981611390565b9050919050565b7f4e487b71000000000000000000000000000000000000000000000000000000005f52601160045260245ffd5b5f61140782610dd1565b91507fffffffffffffffffffffffffffffffffffffffffffffffffffffffffffffffff8203611439576114386113d0565b5b600182019050919050565b5f819050815f5260205f209050919050565b5f6020601f8301049050919050565b5f82821b905092915050565b5f600883026114a07fffffffffffffffffffffffffffffffffffffffffffffffffffffffffffffffff82611465565b6114aa8683611465565b95508019841693508086168417925050509392505050565b5f819050919050565b5f6114e56114e06114db84610dd1565b6114c2565b610dd1565b9050919050565b5f819050919050565b6114fe836114cb565b61151261150a826114ec565b848454611471565b825550505050565b5f90565b61152661151a565b6115318184846114f5565b505050565b5b81811015611554576115495f8261151e565b600181019050611537565b5050565b601f8211156115995761156a81611444565b61157384611456565b81016020851015611582578190505b61159661158e85611456565b830182611536565b50505b505050565b5f82821c905092915050565b5f6115b95f198460080261159e565b1980831691505092915050565b5f6115d183836115aa565b9150826002028217905092915050565b6115ea82610e3e565b67ffffffffffffffff81111561160357611602610f0c565b5b61160d8254611312565b611618828285611558565b5f60209050601f831160018114611649575f8415611637578287015190505b61164185826115c6565b8655506116a8565b601f19841661165786611444565b5f5b8281101561167e57848901518255600182019150602085019450602081019050611659565b8683101561169b5784890151611697601f8916826115aa565b8355505b6001600288020188555050505b505050505050565b7f3020766f746572732072656769737465726564000000000000000000000000005f82015250565b5f6116e4601383610e48565b91506116ef826116b0565b602082019050919050565b5f6020820190508181035f830152611711816116d8565b9050919050565b7f302063616e6469646174657320726567697374657265640000000000000000005f82015250565b5f61174c601783610e48565b915061175782611718565b602082019050919050565b5f6020820190508181035f83015261177981611740565b9050919050565b600381106117915761179061122a565b5b50565b5f8190506117a182611780565b919050565b5f6117b082611794565b9050919050565b6117c0816117a6565b82525050565b7f566f74696e67206f6e676f696e670000000000000000000000000000000000005f82015250565b5f6117fa600e83610e48565b9150611805826117c6565b602082019050919050565b5f6040820190506118235f8301846117b7565b8181036020830152611834816117ee565b905092915050565b7f566f74696e6720636f6d706c65746564000000000000000000000000000000005f82015250565b5f611870601083610e48565b915061187b8261183c565b602082019050919050565b5f6040820190506118995f8301846117b7565b81810360208301526118aa81611864565b905092915050565b5f6118bc82610dd1565b91506118c783610dd1565b92508282019050808211156118df576118de6113d0565b5b9291505056fea2646970667358221220cd6e327749a7d35cc1de6869c9a09cb6a4811baf6289c9525728f0ed9b50699c64736f6c63430008160033",
					"opcodes": "PUSH1 0x80 PUSH1 0x40 MSTORE PUSH0 DUP1 PUSH1 0x14 PUSH2 0x100 EXP DUP2 SLOAD DUP2 PUSH1 0xFF MUL NOT AND SWAP1 DUP4 PUSH1 0x2 DUP2 GT ISZERO PUSH2 0x28 JUMPI PUSH2 0x27 PUSH2 0x85 JUMP JUMPDEST JUMPDEST MUL OR SWAP1 SSTORE POP PUSH0 PUSH1 0x1 SSTORE PUSH0 PUSH1 0x2 SSTORE CALLVALUE DUP1 ISZERO PUSH2 0x40 JUMPI PUSH0 DUP1 REVERT JUMPDEST POP CALLER PUSH0 DUP1 PUSH2 0x100 EXP DUP2 SLOAD DUP2 PUSH20 0xFFFFFFFFFFFFFFFFFFFFFFFFFFFFFFFFFFFFFFFF MUL NOT AND SWAP1 DUP4 PUSH20 0xFFFFFFFFFFFFFFFFFFFFFFFFFFFFFFFFFFFFFFFF AND MUL OR SWAP1 SSTORE POP PUSH2 0xB2 JUMP JUMPDEST PUSH32 0x4E487B7100000000000000000000000000000000000000000000000000000000 PUSH0 MSTORE PUSH1 0x21 PUSH1 0x4 MSTORE PUSH1 0x24 PUSH0 REVERT JUMPDEST PUSH2 0x191B DUP1 PUSH2 0xBF PUSH0 CODECOPY PUSH0 RETURN INVALID PUSH1 0x80 PUSH1 0x40 MSTORE CALLVALUE DUP1 ISZERO PUSH2 0xF JUMPI PUSH0 DUP1 REVERT JUMPDEST POP PUSH1 0x4 CALLDATASIZE LT PUSH2 0x9C JUMPI PUSH0 CALLDATALOAD PUSH1 0xE0 SHR DUP1 PUSH4 0x77DF41B7 GT PUSH2 0x64 JUMPI DUP1 PUSH4 0x77DF41B7 EQ PUSH2 0x11E JUMPI DUP1 PUSH4 0xA48292CE EQ PUSH2 0x13A JUMPI DUP1 PUSH4 0xBD7BF4F0 EQ PUSH2 0x16C JUMPI DUP1 PUSH4 0xD45529F4 EQ PUSH2 0x188 JUMPI DUP1 PUSH4 0xF83BFA28 EQ PUSH2 0x1A6 JUMPI PUSH2 0x9C JUMP JUMPDEST DUP1 PUSH4 0x3D0AF840 EQ PUSH2 0xA0 JUMPI DUP1 PUSH4 0x4AD7B863 EQ PUSH2 0xBC JUMPI DUP1 PUSH4 0x577C689A EQ PUSH2 0xEE JUMPI DUP1 PUSH4 0x59F78468 EQ PUSH2 0x10A JUMPI DUP1 PUSH4 0x62D73EB8 EQ PUSH2 0x114 JUMPI JUMPDEST PUSH0 DUP1 REVERT JUMPDEST PUSH2 0xBA PUSH1 0x4 DUP1 CALLDATASIZE SUB DUP2 ADD SWAP1 PUSH2 0xB5 SWAP2 SWAP1 PUSH2 0xD93 JUMP JUMPDEST PUSH2 0x1D8 JUMP JUMPDEST STOP JUMPDEST PUSH2 0xD6 PUSH1 0x4 DUP1 CALLDATASIZE SUB DUP2 ADD SWAP1 PUSH2 0xD1 SWAP2 SWAP1 PUSH2 0xE04 JUMP JUMPDEST PUSH2 0x2CF JUMP JUMPDEST PUSH1 0x40 MLOAD PUSH2 0xE5 SWAP4 SWAP3 SWAP2 SWAP1 PUSH2 0xEC8 JUMP JUMPDEST PUSH1 0x40 MLOAD DUP1 SWAP2 SUB SWAP1 RETURN JUMPDEST PUSH2 0x108 PUSH1 0x4 DUP1 CALLDATASIZE SUB DUP2 ADD SWAP1 PUSH2 0x103 SWAP2 SWAP1 PUSH2 0x1030 JUMP JUMPDEST PUSH2 0x391 JUMP JUMPDEST STOP JUMPDEST PUSH2 0x112 PUSH2 0x4C1 JUMP JUMPDEST STOP JUMPDEST PUSH2 0x11C PUSH2 0x543 JUMP JUMPDEST STOP JUMPDEST PUSH2 0x138 PUSH1 0x4 DUP1 CALLDATASIZE SUB DUP2 ADD SWAP1 PUSH2 0x133 SWAP2 SWAP1 PUSH2 0x10A6 JUMP JUMPDEST PUSH2 0x756 JUMP JUMPDEST STOP JUMPDEST PUSH2 0x154 PUSH1 0x4 DUP1 CALLDATASIZE SUB DUP2 ADD SWAP1 PUSH2 0x14F SWAP2 SWAP1 PUSH2 0xE04 JUMP JUMPDEST PUSH2 0x7D2 JUMP JUMPDEST PUSH1 0x40 MLOAD PUSH2 0x163 SWAP4 SWAP3 SWAP2 SWAP1 PUSH2 0x10E4 JUMP JUMPDEST PUSH1 0x40 MLOAD DUP1 SWAP2 SUB SWAP1 RETURN JUMPDEST PUSH2 0x186 PUSH1 0x4 DUP1 CALLDATASIZE SUB DUP2 ADD SWAP1 PUSH2 0x181 SWAP2 SWAP1 PUSH2 0x1127 JUMP JUMPDEST PUSH2 0x933 JUMP JUMPDEST STOP JUMPDEST PUSH2 0x190 PUSH2 0xB2F JUMP JUMPDEST PUSH1 0x40 MLOAD PUSH2 0x19D SWAP2 SWAP1 PUSH2 0x1190 JUMP JUMPDEST PUSH1 0x40 MLOAD DUP1 SWAP2 SUB SWAP1 RETURN JUMPDEST PUSH2 0x1C0 PUSH1 0x4 DUP1 CALLDATASIZE SUB DUP2 ADD SWAP1 PUSH2 0x1BB SWAP2 SWAP1 PUSH2 0x11A9 JUMP JUMPDEST PUSH2 0xB52 JUMP JUMPDEST PUSH1 0x40 MLOAD PUSH2 0x1CF SWAP4 SWAP3 SWAP2 SWAP1 PUSH2 0x11EE JUMP JUMPDEST PUSH1 0x40 MLOAD DUP1 SWAP2 SUB SWAP1 RETURN JUMPDEST PUSH1 0x1 PUSH1 0x2 DUP2 GT ISZERO PUSH2 0x1EC JUMPI PUSH2 0x1EB PUSH2 0x122A JUMP JUMPDEST JUMPDEST PUSH0 PUSH1 0x14 SWAP1 SLOAD SWAP1 PUSH2 0x100 EXP SWAP1 DIV PUSH1 0xFF AND PUSH1 0x2 DUP2 GT ISZERO PUSH2 0x20D JUMPI PUSH2 0x20C PUSH2 0x122A JUMP JUMPDEST JUMPDEST EQ PUSH2 0x24D JUMPI PUSH1 0x40 MLOAD PUSH32 0x8C379A000000000000000000000000000000000000000000000000000000000 DUP2 MSTORE PUSH1 0x4 ADD PUSH2 0x244 SWAP1 PUSH2 0x12C7 JUMP JUMPDEST PUSH1 0x40 MLOAD DUP1 SWAP2 SUB SWAP1 REVERT JUMPDEST DUP2 PUSH1 0x4 PUSH0 DUP4 PUSH20 0xFFFFFFFFFFFFFFFFFFFFFFFFFFFFFFFFFFFFFFFF AND PUSH20 0xFFFFFFFFFFFFFFFFFFFFFFFFFFFFFFFFFFFFFFFF AND DUP2 MSTORE PUSH1 0x20 ADD SWAP1 DUP2 MSTORE PUSH1 0x20 ADD PUSH0 KECCAK256 PUSH1 0x3 ADD PUSH0 PUSH2 0x100 EXP DUP2 SLOAD DUP2 PUSH20 0xFFFFFFFFFFFFFFFFFFFFFFFFFFFFFFFFFFFFFFFF MUL NOT AND SWAP1 DUP4 PUSH20 0xFFFFFFFFFFFFFFFFFFFFFFFFFFFFFFFFFFFFFFFF AND MUL OR SWAP1 SSTORE POP POP POP JUMP JUMPDEST PUSH0 PUSH1 0x60 PUSH0 DUP4 PUSH1 0x3 PUSH0 DUP7 DUP2 MSTORE PUSH1 0x20 ADD SWAP1 DUP2 MSTORE PUSH1 0x20 ADD PUSH0 KECCAK256 PUSH1 0x1 ADD PUSH1 0x5 PUSH0 DUP8 DUP2 MSTORE PUSH1 0x20 ADD SWAP1 DUP2 MSTORE PUSH1 0x20 ADD PUSH0 KECCAK256 SLOAD DUP2 DUP1 SLOAD PUSH2 0x306 SWAP1 PUSH2 0x1312 JUMP JUMPDEST DUP1 PUSH1 0x1F ADD PUSH1 0x20 DUP1 SWAP2 DIV MUL PUSH1 0x20 ADD PUSH1 0x40 MLOAD SWAP1 DUP2 ADD PUSH1 0x40 MSTORE DUP1 SWAP3 SWAP2 SWAP1 DUP2 DUP2 MSTORE PUSH1 0x20 ADD DUP3 DUP1 SLOAD PUSH2 0x332 SWAP1 PUSH2 0x1312 JUMP JUMPDEST DUP1 ISZERO PUSH2 0x37D JUMPI DUP1 PUSH1 0x1F LT PUSH2 0x354 JUMPI PUSH2 0x100 DUP1 DUP4 SLOAD DIV MUL DUP4 MSTORE SWAP2 PUSH1 0x20 ADD SWAP2 PUSH2 0x37D JUMP JUMPDEST DUP3 ADD SWAP2 SWAP1 PUSH0 MSTORE PUSH1 0x20 PUSH0 KECCAK256 SWAP1 JUMPDEST DUP2 SLOAD DUP2 MSTORE SWAP1 PUSH1 0x1 ADD SWAP1 PUSH1 0x20 ADD DUP1 DUP4 GT PUSH2 0x360 JUMPI DUP3 SWAP1 SUB PUSH1 0x1F AND DUP3 ADD SWAP2 JUMPDEST POP POP POP POP POP SWAP2 POP SWAP3 POP SWAP3 POP SWAP3 POP SWAP2 SWAP4 SWAP1 SWAP3 POP JUMP JUMPDEST PUSH0 DUP1 SLOAD SWAP1 PUSH2 0x100 EXP SWAP1 DIV PUSH20 0xFFFFFFFFFFFFFFFFFFFFFFFFFFFFFFFFFFFFFFFF AND PUSH20 0xFFFFFFFFFFFFFFFFFFFFFFFFFFFFFFFFFFFFFFFF AND CALLER PUSH20 0xFFFFFFFFFFFFFFFFFFFFFFFFFFFFFFFFFFFFFFFF AND EQ PUSH2 0x3E7 JUMPI PUSH0 DUP1 REVERT JUMPDEST PUSH0 PUSH1 0x2 DUP2 GT ISZERO PUSH2 0x3FA JUMPI PUSH2 0x3F9 PUSH2 0x122A JUMP JUMPDEST JUMPDEST PUSH0 PUSH1 0x14 SWAP1 SLOAD SWAP1 PUSH2 0x100 EXP SWAP1 DIV PUSH1 0xFF AND PUSH1 0x2 DUP2 GT ISZERO PUSH2 0x41B JUMPI PUSH2 0x41A PUSH2 0x122A JUMP JUMPDEST JUMPDEST EQ PUSH2 0x45B JUMPI PUSH1 0x40 MLOAD PUSH32 0x8C379A000000000000000000000000000000000000000000000000000000000 DUP2 MSTORE PUSH1 0x4 ADD PUSH2 0x452 SWAP1 PUSH2 0x13B2 JUMP JUMPDEST PUSH1 0x40 MLOAD DUP1 SWAP2 SUB SWAP1 REVERT JUMPDEST PUSH1 0x1 PUSH0 DUP2 SLOAD DUP1 SWAP3 SWAP2 SWAP1 PUSH2 0x46D SWAP1 PUSH2 0x13FD JUMP JUMPDEST SWAP2 SWAP1 POP SSTORE POP PUSH0 PUSH1 0x1 SLOAD SWAP1 POP DUP3 PUSH1 0x3 PUSH0 DUP4 DUP2 MSTORE PUSH1 0x20 ADD SWAP1 DUP2 MSTORE PUSH1 0x20 ADD PUSH0 KECCAK256 PUSH1 0x1 ADD SWAP1 DUP2 PUSH2 0x499 SWAP2 SWAP1 PUSH2 0x15E1 JUMP JUMPDEST POP DUP2 PUSH1 0x3 PUSH0 DUP4 DUP2 MSTORE PUSH1 0x20 ADD SWAP1 DUP2 MSTORE PUSH1 0x20 ADD PUSH0 KECCAK256 PUSH1 0x2 ADD SWAP1 DUP2 PUSH2 0x4BB SWAP2 SWAP1 PUSH2 0x15E1 JUMP JUMPDEST POP POP POP POP JUMP JUMPDEST PUSH0 DUP1 SLOAD SWAP1 PUSH2 0x100 EXP SWAP1 DIV PUSH20 0xFFFFFFFFFFFFFFFFFFFFFFFFFFFFFFFFFFFFFFFF AND PUSH20 0xFFFFFFFFFFFFFFFFFFFFFFFFFFFFFFFFFFFFFFFF AND CALLER PUSH20 0xFFFFFFFFFFFFFFFFFFFFFFFFFFFFFFFFFFFFFFFF AND EQ PUSH2 0x517 JUMPI PUSH0 DUP1 REVERT JUMPDEST PUSH1 0x2 PUSH0 PUSH1 0x14 PUSH2 0x100 EXP DUP2 SLOAD DUP2 PUSH1 0xFF MUL NOT AND SWAP1 DUP4 PUSH1 0x2 DUP2 GT ISZERO PUSH2 0x53C JUMPI PUSH2 0x53B PUSH2 0x122A JUMP JUMPDEST JUMPDEST MUL OR SWAP1 SSTORE POP JUMP JUMPDEST PUSH0 DUP1 SLOAD SWAP1 PUSH2 0x100 EXP SWAP1 DIV PUSH20 0xFFFFFFFFFFFFFFFFFFFFFFFFFFFFFFFFFFFFFFFF AND PUSH20 0xFFFFFFFFFFFFFFFFFFFFFFFFFFFFFFFFFFFFFFFF AND CALLER PUSH20 0xFFFFFFFFFFFFFFFFFFFFFFFFFFFFFFFFFFFFFFFF AND EQ PUSH2 0x599 JUMPI PUSH0 DUP1 REVERT JUMPDEST PUSH0 PUSH1 0x2 SLOAD GT PUSH2 0x5DD JUMPI PUSH1 0x40 MLOAD PUSH32 0x8C379A000000000000000000000000000000000000000000000000000000000 DUP2 MSTORE PUSH1 0x4 ADD PUSH2 0x5D4 SWAP1 PUSH2 0x16FA JUMP JUMPDEST PUSH1 0x40 MLOAD DUP1 SWAP2 SUB SWAP1 REVERT JUMPDEST PUSH0 PUSH1 0x1 SLOAD GT PUSH2 0x621 JUMPI PUSH1 0x40 MLOAD PUSH32 0x8C379A000000000000000000000000000000000000000000000000000000000 DUP2 MSTORE PUSH1 0x4 ADD PUSH2 0x618 SWAP1 PUSH2 0x1762 JUMP JUMPDEST PUSH1 0x40 MLOAD DUP1 SWAP2 SUB SWAP1 REVERT JUMPDEST PUSH1 0x1 PUSH1 0x2 DUP2 GT ISZERO PUSH2 0x635 JUMPI PUSH2 0x634 PUSH2 0x122A JUMP JUMPDEST JUMPDEST PUSH0 PUSH1 0x14 SWAP1 SLOAD SWAP1 PUSH2 0x100 EXP SWAP1 DIV PUSH1 0xFF AND PUSH1 0x2 DUP2 GT ISZERO PUSH2 0x656 JUMPI PUSH2 0x655 PUSH2 0x122A JUMP JUMPDEST JUMPDEST SUB PUSH2 0x6A6 JUMPI PUSH0 PUSH1 0x14 SWAP1 SLOAD SWAP1 PUSH2 0x100 EXP SWAP1 DIV PUSH1 0xFF AND PUSH1 0x40 MLOAD PUSH32 0xEF90B1C100000000000000000000000000000000000000000000000000000000 DUP2 MSTORE PUSH1 0x4 ADD PUSH2 0x69D SWAP2 SWAP1 PUSH2 0x1810 JUMP JUMPDEST PUSH1 0x40 MLOAD DUP1 SWAP2 SUB SWAP1 REVERT JUMPDEST PUSH1 0x2 DUP1 DUP2 GT ISZERO PUSH2 0x6B9 JUMPI PUSH2 0x6B8 PUSH2 0x122A JUMP JUMPDEST JUMPDEST PUSH0 PUSH1 0x14 SWAP1 SLOAD SWAP1 PUSH2 0x100 EXP SWAP1 DIV PUSH1 0xFF AND PUSH1 0x2 DUP2 GT ISZERO PUSH2 0x6DA JUMPI PUSH2 0x6D9 PUSH2 0x122A JUMP JUMPDEST JUMPDEST SUB PUSH2 0x72A JUMPI PUSH0 PUSH1 0x14 SWAP1 SLOAD SWAP1 PUSH2 0x100 EXP SWAP1 DIV PUSH1 0xFF AND PUSH1 0x40 MLOAD PUSH32 0xEF90B1C100000000000000000000000000000000000000000000000000000000 DUP2 MSTORE PUSH1 0x4 ADD PUSH2 0x721 SWAP2 SWAP1 PUSH2 0x1886 JUMP JUMPDEST PUSH1 0x40 MLOAD DUP1 SWAP2 SUB SWAP1 REVERT JUMPDEST PUSH1 0x1 PUSH0 PUSH1 0x14 PUSH2 0x100 EXP DUP2 SLOAD DUP2 PUSH1 0xFF MUL NOT AND SWAP1 DUP4 PUSH1 0x2 DUP2 GT ISZERO PUSH2 0x74F JUMPI PUSH2 0x74E PUSH2 0x122A JUMP JUMPDEST JUMPDEST MUL OR SWAP1 SSTORE POP JUMP JUMPDEST PUSH1 0x1 PUSH1 0x5 PUSH0 DUP5 DUP2 MSTORE PUSH1 0x20 ADD SWAP1 DUP2 MSTORE PUSH1 0x20 ADD PUSH0 KECCAK256 SLOAD PUSH2 0x774 SWAP2 SWAP1 PUSH2 0x18B2 JUMP JUMPDEST PUSH1 0x5 PUSH0 DUP5 DUP2 MSTORE PUSH1 0x20 ADD SWAP1 DUP2 MSTORE PUSH1 0x20 ADD PUSH0 KECCAK256 DUP2 SWAP1 SSTORE POP DUP2 PUSH1 0x4 PUSH0 DUP4 PUSH20 0xFFFFFFFFFFFFFFFFFFFFFFFFFFFFFFFFFFFFFFFF AND PUSH20 0xFFFFFFFFFFFFFFFFFFFFFFFFFFFFFFFFFFFFFFFF AND DUP2 MSTORE PUSH1 0x20 ADD SWAP1 DUP2 MSTORE PUSH1 0x20 ADD PUSH0 KECCAK256 PUSH1 0x4 ADD DUP2 SWAP1 SSTORE POP POP POP JUMP JUMPDEST PUSH0 PUSH1 0x60 DUP1 PUSH1 0x3 PUSH0 DUP5 DUP2 MSTORE PUSH1 0x20 ADD SWAP1 DUP2 MSTORE PUSH1 0x20 ADD PUSH0 KECCAK256 PUSH0 ADD SLOAD PUSH1 0x3 PUSH0 DUP6 DUP2 MSTORE PUSH1 0x20 ADD SWAP1 DUP2 MSTORE PUSH1 0x20 ADD PUSH0 KECCAK256 PUSH1 0x2 ADD PUSH1 0x3 PUSH0 DUP7 DUP2 MSTORE PUSH1 0x20 ADD SWAP1 DUP2 MSTORE PUSH1 0x20 ADD PUSH0 KECCAK256 PUSH1 0x1 ADD DUP2 DUP1 SLOAD PUSH2 0x81E SWAP1 PUSH2 0x1312 JUMP JUMPDEST DUP1 PUSH1 0x1F ADD PUSH1 0x20 DUP1 SWAP2 DIV MUL PUSH1 0x20 ADD PUSH1 0x40 MLOAD SWAP1 DUP2 ADD PUSH1 0x40 MSTORE DUP1 SWAP3 SWAP2 SWAP1 DUP2 DUP2 MSTORE PUSH1 0x20 ADD DUP3 DUP1 SLOAD PUSH2 0x84A SWAP1 PUSH2 0x1312 JUMP JUMPDEST DUP1 ISZERO PUSH2 0x895 JUMPI DUP1 PUSH1 0x1F LT PUSH2 0x86C JUMPI PUSH2 0x100 DUP1 DUP4 SLOAD DIV MUL DUP4 MSTORE SWAP2 PUSH1 0x20 ADD SWAP2 PUSH2 0x895 JUMP JUMPDEST DUP3 ADD SWAP2 SWAP1 PUSH0 MSTORE PUSH1 0x20 PUSH0 KECCAK256 SWAP1 JUMPDEST DUP2 SLOAD DUP2 MSTORE SWAP1 PUSH1 0x1 ADD SWAP1 PUSH1 0x20 ADD DUP1 DUP4 GT PUSH2 0x878 JUMPI DUP3 SWAP1 SUB PUSH1 0x1F AND DUP3 ADD SWAP2 JUMPDEST POP POP POP POP POP SWAP2 POP DUP1 DUP1 SLOAD PUSH2 0x8A8 SWAP1 PUSH2 0x1312 JUMP JUMPDEST DUP1 PUSH1 0x1F ADD PUSH1 0x20 DUP1 SWAP2 DIV MUL PUSH1 0x20 ADD PUSH1 0x40 MLOAD SWAP1 DUP2 ADD PUSH1 0x40 MSTORE DUP1 SWAP3 SWAP2 SWAP1 DUP2 DUP2 MSTORE PUSH1 0x20 ADD DUP3 DUP1 SLOAD PUSH2 0x8D4 SWAP1 PUSH2 0x1312 JUMP JUMPDEST DUP1 ISZERO PUSH2 0x91F JUMPI DUP1 PUSH1 0x1F LT PUSH2 0x8F6 JUMPI PUSH2 0x100 DUP1 DUP4 SLOAD DIV MUL DUP4 MSTORE SWAP2 PUSH1 0x20 ADD SWAP2 PUSH2 0x91F JUMP JUMPDEST DUP3 ADD SWAP2 SWAP1 PUSH0 MSTORE PUSH1 0x20 PUSH0 KECCAK256 SWAP1 JUMPDEST DUP2 SLOAD DUP2 MSTORE SWAP1 PUSH1 0x1 ADD SWAP1 PUSH1 0x20 ADD DUP1 DUP4 GT PUSH2 0x902 JUMPI DUP3 SWAP1 SUB PUSH1 0x1F AND DUP3 ADD SWAP2 JUMPDEST POP POP POP POP POP SWAP1 POP SWAP3 POP SWAP3 POP SWAP3 POP SWAP2 SWAP4 SWAP1 SWAP3 POP JUMP JUMPDEST PUSH0 DUP1 SLOAD SWAP1 PUSH2 0x100 EXP SWAP1 DIV PUSH20 0xFFFFFFFFFFFFFFFFFFFFFFFFFFFFFFFFFFFFFFFF AND PUSH20 0xFFFFFFFFFFFFFFFFFFFFFFFFFFFFFFFFFFFFFFFF AND CALLER PUSH20 0xFFFFFFFFFFFFFFFFFFFFFFFFFFFFFFFFFFFFFFFF AND EQ PUSH2 0x989 JUMPI PUSH0 DUP1 REVERT JUMPDEST PUSH0 PUSH1 0x2 DUP2 GT ISZERO PUSH2 0x99C JUMPI PUSH2 0x99B PUSH2 0x122A JUMP JUMPDEST JUMPDEST PUSH0 PUSH1 0x14 SWAP1 SLOAD SWAP1 PUSH2 0x100 EXP SWAP1 DIV PUSH1 0xFF AND PUSH1 0x2 DUP2 GT ISZERO PUSH2 0x9BD JUMPI PUSH2 0x9BC PUSH2 0x122A JUMP JUMPDEST JUMPDEST EQ PUSH2 0x9FD JUMPI PUSH1 0x40 MLOAD PUSH32 0x8C379A000000000000000000000000000000000000000000000000000000000 DUP2 MSTORE PUSH1 0x4 ADD PUSH2 0x9F4 SWAP1 PUSH2 0x13B2 JUMP JUMPDEST PUSH1 0x40 MLOAD DUP1 SWAP2 SUB SWAP1 REVERT JUMPDEST PUSH1 0x2 PUSH0 DUP2 SLOAD DUP1 SWAP3 SWAP2 SWAP1 PUSH2 0xA0F SWAP1 PUSH2 0x13FD JUMP JUMPDEST SWAP2 SWAP1 POP SSTORE POP PUSH0 PUSH1 0x2 SLOAD SWAP1 POP DUP1 PUSH1 0x4 PUSH0 DUP6 PUSH20 0xFFFFFFFFFFFFFFFFFFFFFFFFFFFFFFFFFFFFFFFF AND PUSH20 0xFFFFFFFFFFFFFFFFFFFFFFFFFFFFFFFFFFFFFFFF AND DUP2 MSTORE PUSH1 0x20 ADD SWAP1 DUP2 MSTORE PUSH1 0x20 ADD PUSH0 KECCAK256 PUSH0 ADD DUP2 SWAP1 SSTORE POP DUP3 PUSH1 0x4 PUSH0 DUP6 PUSH20 0xFFFFFFFFFFFFFFFFFFFFFFFFFFFFFFFFFFFFFFFF AND PUSH20 0xFFFFFFFFFFFFFFFFFFFFFFFFFFFFFFFFFFFFFFFF AND DUP2 MSTORE PUSH1 0x20 ADD SWAP1 DUP2 MSTORE PUSH1 0x20 ADD PUSH0 KECCAK256 PUSH1 0x2 ADD PUSH0 PUSH2 0x100 EXP DUP2 SLOAD DUP2 PUSH20 0xFFFFFFFFFFFFFFFFFFFFFFFFFFFFFFFFFFFFFFFF MUL NOT AND SWAP1 DUP4 PUSH20 0xFFFFFFFFFFFFFFFFFFFFFFFFFFFFFFFFFFFFFFFF AND MUL OR SWAP1 SSTORE POP DUP2 PUSH1 0x4 PUSH0 DUP6 PUSH20 0xFFFFFFFFFFFFFFFFFFFFFFFFFFFFFFFFFFFFFFFF AND PUSH20 0xFFFFFFFFFFFFFFFFFFFFFFFFFFFFFFFFFFFFFFFF AND DUP2 MSTORE PUSH1 0x20 ADD SWAP1 DUP2 MSTORE PUSH1 0x20 ADD PUSH0 KECCAK256 PUSH1 0x1 ADD SWAP1 DUP2 PUSH2 0xB29 SWAP2 SWAP1 PUSH2 0x15E1 JUMP JUMPDEST POP POP POP POP JUMP JUMPDEST PUSH0 DUP1 SLOAD SWAP1 PUSH2 0x100 EXP SWAP1 DIV PUSH20 0xFFFFFFFFFFFFFFFFFFFFFFFFFFFFFFFFFFFFFFFF AND DUP2 JUMP JUMPDEST PUSH0 PUSH1 0x60 PUSH0 PUSH1 0x4 PUSH0 DUP6 PUSH20 0xFFFFFFFFFFFFFFFFFFFFFFFFFFFFFFFFFFFFFFFF AND PUSH20 0xFFFFFFFFFFFFFFFFFFFFFFFFFFFFFFFFFFFFFFFF AND DUP2 MSTORE PUSH1 0x20 ADD SWAP1 DUP2 MSTORE PUSH1 0x20 ADD PUSH0 KECCAK256 PUSH1 0x2 ADD PUSH0 SWAP1 SLOAD SWAP1 PUSH2 0x100 EXP SWAP1 DIV PUSH20 0xFFFFFFFFFFFFFFFFFFFFFFFFFFFFFFFFFFFFFFFF AND PUSH1 0x4 PUSH0 DUP7 PUSH20 0xFFFFFFFFFFFFFFFFFFFFFFFFFFFFFFFFFFFFFFFF AND PUSH20 0xFFFFFFFFFFFFFFFFFFFFFFFFFFFFFFFFFFFFFFFF AND DUP2 MSTORE PUSH1 0x20 ADD SWAP1 DUP2 MSTORE PUSH1 0x20 ADD PUSH0 KECCAK256 PUSH1 0x1 ADD DUP5 PUSH20 0xFFFFFFFFFFFFFFFFFFFFFFFFFFFFFFFFFFFFFFFF AND PUSH1 0x4 PUSH0 DUP9 PUSH20 0xFFFFFFFFFFFFFFFFFFFFFFFFFFFFFFFFFFFFFFFF AND PUSH20 0xFFFFFFFFFFFFFFFFFFFFFFFFFFFFFFFFFFFFFFFF AND DUP2 MSTORE PUSH1 0x20 ADD SWAP1 DUP2 MSTORE PUSH1 0x20 ADD PUSH0 KECCAK256 PUSH1 0x3 ADD PUSH0 SWAP1 SLOAD SWAP1 PUSH2 0x100 EXP SWAP1 DIV PUSH20 0xFFFFFFFFFFFFFFFFFFFFFFFFFFFFFFFFFFFFFFFF AND PUSH20 0xFFFFFFFFFFFFFFFFFFFFFFFFFFFFFFFFFFFFFFFF AND EQ PUSH2 0xC8F JUMPI PUSH1 0x1 PUSH2 0xC91 JUMP JUMPDEST PUSH0 JUMPDEST DUP2 DUP1 SLOAD PUSH2 0xC9D SWAP1 PUSH2 0x1312 JUMP JUMPDEST DUP1 PUSH1 0x1F ADD PUSH1 0x20 DUP1 SWAP2 DIV MUL PUSH1 0x20 ADD PUSH1 0x40 MLOAD SWAP1 DUP2 ADD PUSH1 0x40 MSTORE DUP1 SWAP3 SWAP2 SWAP1 DUP2 DUP2 MSTORE PUSH1 0x20 ADD DUP3 DUP1 SLOAD PUSH2 0xCC9 SWAP1 PUSH2 0x1312 JUMP JUMPDEST DUP1 ISZERO PUSH2 0xD14 JUMPI DUP1 PUSH1 0x1F LT PUSH2 0xCEB JUMPI PUSH2 0x100 DUP1 DUP4 SLOAD DIV MUL DUP4 MSTORE SWAP2 PUSH1 0x20 ADD SWAP2 PUSH2 0xD14 JUMP JUMPDEST DUP3 ADD SWAP2 SWAP1 PUSH0 MSTORE PUSH1 0x20 PUSH0 KECCAK256 SWAP1 JUMPDEST DUP2 SLOAD DUP2 MSTORE SWAP1 PUSH1 0x1 ADD SWAP1 PUSH1 0x20 ADD DUP1 DUP4 GT PUSH2 0xCF7 JUMPI DUP3 SWAP1 SUB PUSH1 0x1F AND DUP3 ADD SWAP2 JUMPDEST POP POP POP POP POP SWAP2 POP SWAP3 POP SWAP3 POP SWAP3 POP SWAP2 SWAP4 SWAP1 SWAP3 POP JUMP JUMPDEST PUSH0 PUSH1 0x40 MLOAD SWAP1 POP SWAP1 JUMP JUMPDEST PUSH0 DUP1 REVERT JUMPDEST PUSH0 DUP1 REVERT JUMPDEST PUSH0 PUSH20 0xFFFFFFFFFFFFFFFFFFFFFFFFFFFFFFFFFFFFFFFF DUP3 AND SWAP1 POP SWAP2 SWAP1 POP JUMP JUMPDEST PUSH0 PUSH2 0xD62 DUP3 PUSH2 0xD39 JUMP JUMPDEST SWAP1 POP SWAP2 SWAP1 POP JUMP JUMPDEST PUSH2 0xD72 DUP2 PUSH2 0xD58 JUMP JUMPDEST DUP2 EQ PUSH2 0xD7C JUMPI PUSH0 DUP1 REVERT JUMPDEST POP JUMP JUMPDEST PUSH0 DUP2 CALLDATALOAD SWAP1 POP PUSH2 0xD8D DUP2 PUSH2 0xD69 JUMP JUMPDEST SWAP3 SWAP2 POP POP JUMP JUMPDEST PUSH0 DUP1 PUSH1 0x40 DUP4 DUP6 SUB SLT ISZERO PUSH2 0xDA9 JUMPI PUSH2 0xDA8 PUSH2 0xD31 JUMP JUMPDEST JUMPDEST PUSH0 PUSH2 0xDB6 DUP6 DUP3 DUP7 ADD PUSH2 0xD7F JUMP JUMPDEST SWAP3 POP POP PUSH1 0x20 PUSH2 0xDC7 DUP6 DUP3 DUP7 ADD PUSH2 0xD7F JUMP JUMPDEST SWAP2 POP POP SWAP3 POP SWAP3 SWAP1 POP JUMP JUMPDEST PUSH0 DUP2 SWAP1 POP SWAP2 SWAP1 POP JUMP JUMPDEST PUSH2 0xDE3 DUP2 PUSH2 0xDD1 JUMP JUMPDEST DUP2 EQ PUSH2 0xDED JUMPI PUSH0 DUP1 REVERT JUMPDEST POP JUMP JUMPDEST PUSH0 DUP2 CALLDATALOAD SWAP1 POP PUSH2 0xDFE DUP2 PUSH2 0xDDA JUMP JUMPDEST SWAP3 SWAP2 POP POP JUMP JUMPDEST PUSH0 PUSH1 0x20 DUP3 DUP5 SUB SLT ISZERO PUSH2 0xE19 JUMPI PUSH2 0xE18 PUSH2 0xD31 JUMP JUMPDEST JUMPDEST PUSH0 PUSH2 0xE26 DUP5 DUP3 DUP6 ADD PUSH2 0xDF0 JUMP JUMPDEST SWAP2 POP POP SWAP3 SWAP2 POP POP JUMP JUMPDEST PUSH2 0xE38 DUP2 PUSH2 0xDD1 JUMP JUMPDEST DUP3 MSTORE POP POP JUMP JUMPDEST PUSH0 DUP2 MLOAD SWAP1 POP SWAP2 SWAP1 POP JUMP JUMPDEST PUSH0 DUP3 DUP3 MSTORE PUSH1 0x20 DUP3 ADD SWAP1 POP SWAP3 SWAP2 POP POP JUMP JUMPDEST PUSH0 JUMPDEST DUP4 DUP2 LT ISZERO PUSH2 0xE75 JUMPI DUP1 DUP3 ADD MLOAD DUP2 DUP5 ADD MSTORE PUSH1 0x20 DUP2 ADD SWAP1 POP PUSH2 0xE5A JUMP JUMPDEST PUSH0 DUP5 DUP5 ADD MSTORE POP POP POP POP JUMP JUMPDEST PUSH0 PUSH1 0x1F NOT PUSH1 0x1F DUP4 ADD AND SWAP1 POP SWAP2 SWAP1 POP JUMP JUMPDEST PUSH0 PUSH2 0xE9A DUP3 PUSH2 0xE3E JUMP JUMPDEST PUSH2 0xEA4 DUP2 DUP6 PUSH2 0xE48 JUMP JUMPDEST SWAP4 POP PUSH2 0xEB4 DUP2 DUP6 PUSH1 0x20 DUP7 ADD PUSH2 0xE58 JUMP JUMPDEST PUSH2 0xEBD DUP2 PUSH2 0xE80 JUMP JUMPDEST DUP5 ADD SWAP2 POP POP SWAP3 SWAP2 POP POP JUMP JUMPDEST PUSH0 PUSH1 0x60 DUP3 ADD SWAP1 POP PUSH2 0xEDB PUSH0 DUP4 ADD DUP7 PUSH2 0xE2F JUMP JUMPDEST DUP2 DUP2 SUB PUSH1 0x20 DUP4 ADD MSTORE PUSH2 0xEED DUP2 DUP6 PUSH2 0xE90 JUMP JUMPDEST SWAP1 POP PUSH2 0xEFC PUSH1 0x40 DUP4 ADD DUP5 PUSH2 0xE2F JUMP JUMPDEST SWAP5 SWAP4 POP POP POP POP JUMP JUMPDEST PUSH0 DUP1 REVERT JUMPDEST PUSH0 DUP1 REVERT JUMPDEST PUSH32 0x4E487B7100000000000000000000000000000000000000000000000000000000 PUSH0 MSTORE PUSH1 0x41 PUSH1 0x4 MSTORE PUSH1 0x24 PUSH0 REVERT JUMPDEST PUSH2 0xF42 DUP3 PUSH2 0xE80 JUMP JUMPDEST DUP2 ADD DUP2 DUP2 LT PUSH8 0xFFFFFFFFFFFFFFFF DUP3 GT OR ISZERO PUSH2 0xF61 JUMPI PUSH2 0xF60 PUSH2 0xF0C JUMP JUMPDEST JUMPDEST DUP1 PUSH1 0x40 MSTORE POP POP POP JUMP JUMPDEST PUSH0 PUSH2 0xF73 PUSH2 0xD28 JUMP JUMPDEST SWAP1 POP PUSH2 0xF7F DUP3 DUP3 PUSH2 0xF39 JUMP JUMPDEST SWAP2 SWAP1 POP JUMP JUMPDEST PUSH0 PUSH8 0xFFFFFFFFFFFFFFFF DUP3 GT ISZERO PUSH2 0xF9E JUMPI PUSH2 0xF9D PUSH2 0xF0C JUMP JUMPDEST JUMPDEST PUSH2 0xFA7 DUP3 PUSH2 0xE80 JUMP JUMPDEST SWAP1 POP PUSH1 0x20 DUP2 ADD SWAP1 POP SWAP2 SWAP1 POP JUMP JUMPDEST DUP3 DUP2 DUP4 CALLDATACOPY PUSH0 DUP4 DUP4 ADD MSTORE POP POP POP JUMP JUMPDEST PUSH0 PUSH2 0xFD4 PUSH2 0xFCF DUP5 PUSH2 0xF84 JUMP JUMPDEST PUSH2 0xF6A JUMP JUMPDEST SWAP1 POP DUP3 DUP2 MSTORE PUSH1 0x20 DUP2 ADD DUP5 DUP5 DUP5 ADD GT ISZERO PUSH2 0xFF0 JUMPI PUSH2 0xFEF PUSH2 0xF08 JUMP JUMPDEST JUMPDEST PUSH2 0xFFB DUP5 DUP3 DUP6 PUSH2 0xFB4 JUMP JUMPDEST POP SWAP4 SWAP3 POP POP POP JUMP JUMPDEST PUSH0 DUP3 PUSH1 0x1F DUP4 ADD SLT PUSH2 0x1017 JUMPI PUSH2 0x1016 PUSH2 0xF04 JUMP JUMPDEST JUMPDEST DUP2 CALLDATALOAD PUSH2 0x1027 DUP5 DUP3 PUSH1 0x20 DUP7 ADD PUSH2 0xFC2 JUMP JUMPDEST SWAP2 POP POP SWAP3 SWAP2 POP POP JUMP JUMPDEST PUSH0 DUP1 PUSH1 0x40 DUP4 DUP6 SUB SLT ISZERO PUSH2 0x1046 JUMPI PUSH2 0x1045 PUSH2 0xD31 JUMP JUMPDEST JUMPDEST PUSH0 DUP4 ADD CALLDATALOAD PUSH8 0xFFFFFFFFFFFFFFFF DUP2 GT ISZERO PUSH2 0x1063 JUMPI PUSH2 0x1062 PUSH2 0xD35 JUMP JUMPDEST JUMPDEST PUSH2 0x106F DUP6 DUP3 DUP7 ADD PUSH2 0x1003 JUMP JUMPDEST SWAP3 POP POP PUSH1 0x20 DUP4 ADD CALLDATALOAD PUSH8 0xFFFFFFFFFFFFFFFF DUP2 GT ISZERO PUSH2 0x1090 JUMPI PUSH2 0x108F PUSH2 0xD35 JUMP JUMPDEST JUMPDEST PUSH2 0x109C DUP6 DUP3 DUP7 ADD PUSH2 0x1003 JUMP JUMPDEST SWAP2 POP POP SWAP3 POP SWAP3 SWAP1 POP JUMP JUMPDEST PUSH0 DUP1 PUSH1 0x40 DUP4 DUP6 SUB SLT ISZERO PUSH2 0x10BC JUMPI PUSH2 0x10BB PUSH2 0xD31 JUMP JUMPDEST JUMPDEST PUSH0 PUSH2 0x10C9 DUP6 DUP3 DUP7 ADD PUSH2 0xDF0 JUMP JUMPDEST SWAP3 POP POP PUSH1 0x20 PUSH2 0x10DA DUP6 DUP3 DUP7 ADD PUSH2 0xD7F JUMP JUMPDEST SWAP2 POP POP SWAP3 POP SWAP3 SWAP1 POP JUMP JUMPDEST PUSH0 PUSH1 0x60 DUP3 ADD SWAP1 POP PUSH2 0x10F7 PUSH0 DUP4 ADD DUP7 PUSH2 0xE2F JUMP JUMPDEST DUP2 DUP2 SUB PUSH1 0x20 DUP4 ADD MSTORE PUSH2 0x1109 DUP2 DUP6 PUSH2 0xE90 JUMP JUMPDEST SWAP1 POP DUP2 DUP2 SUB PUSH1 0x40 DUP4 ADD MSTORE PUSH2 0x111D DUP2 DUP5 PUSH2 0xE90 JUMP JUMPDEST SWAP1 POP SWAP5 SWAP4 POP POP POP POP JUMP JUMPDEST PUSH0 DUP1 PUSH1 0x40 DUP4 DUP6 SUB SLT ISZERO PUSH2 0x113D JUMPI PUSH2 0x113C PUSH2 0xD31 JUMP JUMPDEST JUMPDEST PUSH0 PUSH2 0x114A DUP6 DUP3 DUP7 ADD PUSH2 0xD7F JUMP JUMPDEST SWAP3 POP POP PUSH1 0x20 DUP4 ADD CALLDATALOAD PUSH8 0xFFFFFFFFFFFFFFFF DUP2 GT ISZERO PUSH2 0x116B JUMPI PUSH2 0x116A PUSH2 0xD35 JUMP JUMPDEST JUMPDEST PUSH2 0x1177 DUP6 DUP3 DUP7 ADD PUSH2 0x1003 JUMP JUMPDEST SWAP2 POP POP SWAP3 POP SWAP3 SWAP1 POP JUMP JUMPDEST PUSH2 0x118A DUP2 PUSH2 0xD58 JUMP JUMPDEST DUP3 MSTORE POP POP JUMP JUMPDEST PUSH0 PUSH1 0x20 DUP3 ADD SWAP1 POP PUSH2 0x11A3 PUSH0 DUP4 ADD DUP5 PUSH2 0x1181 JUMP JUMPDEST SWAP3 SWAP2 POP POP JUMP JUMPDEST PUSH0 PUSH1 0x20 DUP3 DUP5 SUB SLT ISZERO PUSH2 0x11BE JUMPI PUSH2 0x11BD PUSH2 0xD31 JUMP JUMPDEST JUMPDEST PUSH0 PUSH2 0x11CB DUP5 DUP3 DUP6 ADD PUSH2 0xD7F JUMP JUMPDEST SWAP2 POP POP SWAP3 SWAP2 POP POP JUMP JUMPDEST PUSH0 DUP2 ISZERO ISZERO SWAP1 POP SWAP2 SWAP1 POP JUMP JUMPDEST PUSH2 0x11E8 DUP2 PUSH2 0x11D4 JUMP JUMPDEST DUP3 MSTORE POP POP JUMP JUMPDEST PUSH0 PUSH1 0x60 DUP3 ADD SWAP1 POP PUSH2 0x1201 PUSH0 DUP4 ADD DUP7 PUSH2 0x1181 JUMP JUMPDEST DUP2 DUP2 SUB PUSH1 0x20 DUP4 ADD MSTORE PUSH2 0x1213 DUP2 DUP6 PUSH2 0xE90 JUMP JUMPDEST SWAP1 POP PUSH2 0x1222 PUSH1 0x40 DUP4 ADD DUP5 PUSH2 0x11DF JUMP JUMPDEST SWAP5 SWAP4 POP POP POP POP JUMP JUMPDEST PUSH32 0x4E487B7100000000000000000000000000000000000000000000000000000000 PUSH0 MSTORE PUSH1 0x21 PUSH1 0x4 MSTORE PUSH1 0x24 PUSH0 REVERT JUMPDEST PUSH32 0x566F74696E67206E6F7420696E2070726F67726573732E20596F752063616E20 PUSH0 DUP3 ADD MSTORE PUSH32 0x6E6F742064656C65746567617465206E6F772E00000000000000000000000000 PUSH1 0x20 DUP3 ADD MSTORE POP JUMP JUMPDEST PUSH0 PUSH2 0x12B1 PUSH1 0x33 DUP4 PUSH2 0xE48 JUMP JUMPDEST SWAP2 POP PUSH2 0x12BC DUP3 PUSH2 0x1257 JUMP JUMPDEST PUSH1 0x40 DUP3 ADD SWAP1 POP SWAP2 SWAP1 POP JUMP JUMPDEST PUSH0 PUSH1 0x20 DUP3 ADD SWAP1 POP DUP2 DUP2 SUB PUSH0 DUP4 ADD MSTORE PUSH2 0x12DE DUP2 PUSH2 0x12A5 JUMP JUMPDEST SWAP1 POP SWAP2 SWAP1 POP JUMP JUMPDEST PUSH32 0x4E487B7100000000000000000000000000000000000000000000000000000000 PUSH0 MSTORE PUSH1 0x22 PUSH1 0x4 MSTORE PUSH1 0x24 PUSH0 REVERT JUMPDEST PUSH0 PUSH1 0x2 DUP3 DIV SWAP1 POP PUSH1 0x1 DUP3 AND DUP1 PUSH2 0x1329 JUMPI PUSH1 0x7F DUP3 AND SWAP2 POP JUMPDEST PUSH1 0x20 DUP3 LT DUP2 SUB PUSH2 0x133C JUMPI PUSH2 0x133B PUSH2 0x12E5 JUMP JUMPDEST JUMPDEST POP SWAP2 SWAP1 POP JUMP JUMPDEST PUSH32 0x566F74696E6720616C72656164792073746172746564206F7220636F6D706C65 PUSH0 DUP3 ADD MSTORE PUSH32 0x7465640000000000000000000000000000000000000000000000000000000000 PUSH1 0x20 DUP3 ADD MSTORE POP JUMP JUMPDEST PUSH0 PUSH2 0x139C PUSH1 0x23 DUP4 PUSH2 0xE48 JUMP JUMPDEST SWAP2 POP PUSH2 0x13A7 DUP3 PUSH2 0x1342 JUMP JUMPDEST PUSH1 0x40 DUP3 ADD SWAP1 POP SWAP2 SWAP1 POP JUMP JUMPDEST PUSH0 PUSH1 0x20 DUP3 ADD SWAP1 POP DUP2 DUP2 SUB PUSH0 DUP4 ADD MSTORE PUSH2 0x13C9 DUP2 PUSH2 0x1390 JUMP JUMPDEST SWAP1 POP SWAP2 SWAP1 POP JUMP JUMPDEST PUSH32 0x4E487B7100000000000000000000000000000000000000000000000000000000 PUSH0 MSTORE PUSH1 0x11 PUSH1 0x4 MSTORE PUSH1 0x24 PUSH0 REVERT JUMPDEST PUSH0 PUSH2 0x1407 DUP3 PUSH2 0xDD1 JUMP JUMPDEST SWAP2 POP PUSH32 0xFFFFFFFFFFFFFFFFFFFFFFFFFFFFFFFFFFFFFFFFFFFFFFFFFFFFFFFFFFFFFFFF DUP3 SUB PUSH2 0x1439 JUMPI PUSH2 0x1438 PUSH2 0x13D0 JUMP JUMPDEST JUMPDEST PUSH1 0x1 DUP3 ADD SWAP1 POP SWAP2 SWAP1 POP JUMP JUMPDEST PUSH0 DUP2 SWAP1 POP DUP2 PUSH0 MSTORE PUSH1 0x20 PUSH0 KECCAK256 SWAP1 POP SWAP2 SWAP1 POP JUMP JUMPDEST PUSH0 PUSH1 0x20 PUSH1 0x1F DUP4 ADD DIV SWAP1 POP SWAP2 SWAP1 POP JUMP JUMPDEST PUSH0 DUP3 DUP3 SHL SWAP1 POP SWAP3 SWAP2 POP POP JUMP JUMPDEST PUSH0 PUSH1 0x8 DUP4 MUL PUSH2 0x14A0 PUSH32 0xFFFFFFFFFFFFFFFFFFFFFFFFFFFFFFFFFFFFFFFFFFFFFFFFFFFFFFFFFFFFFFFF DUP3 PUSH2 0x1465 JUMP JUMPDEST PUSH2 0x14AA DUP7 DUP4 PUSH2 0x1465 JUMP JUMPDEST SWAP6 POP DUP1 NOT DUP5 AND SWAP4 POP DUP1 DUP7 AND DUP5 OR SWAP3 POP POP POP SWAP4 SWAP3 POP POP POP JUMP JUMPDEST PUSH0 DUP2 SWAP1 POP SWAP2 SWAP1 POP JUMP JUMPDEST PUSH0 PUSH2 0x14E5 PUSH2 0x14E0 PUSH2 0x14DB DUP5 PUSH2 0xDD1 JUMP JUMPDEST PUSH2 0x14C2 JUMP JUMPDEST PUSH2 0xDD1 JUMP JUMPDEST SWAP1 POP SWAP2 SWAP1 POP JUMP JUMPDEST PUSH0 DUP2 SWAP1 POP SWAP2 SWAP1 POP JUMP JUMPDEST PUSH2 0x14FE DUP4 PUSH2 0x14CB JUMP JUMPDEST PUSH2 0x1512 PUSH2 0x150A DUP3 PUSH2 0x14EC JUMP JUMPDEST DUP5 DUP5 SLOAD PUSH2 0x1471 JUMP JUMPDEST DUP3 SSTORE POP POP POP POP JUMP JUMPDEST PUSH0 SWAP1 JUMP JUMPDEST PUSH2 0x1526 PUSH2 0x151A JUMP JUMPDEST PUSH2 0x1531 DUP2 DUP5 DUP5 PUSH2 0x14F5 JUMP JUMPDEST POP POP POP JUMP JUMPDEST JUMPDEST DUP2 DUP2 LT ISZERO PUSH2 0x1554 JUMPI PUSH2 0x1549 PUSH0 DUP3 PUSH2 0x151E JUMP JUMPDEST PUSH1 0x1 DUP2 ADD SWAP1 POP PUSH2 0x1537 JUMP JUMPDEST POP POP JUMP JUMPDEST PUSH1 0x1F DUP3 GT ISZERO PUSH2 0x1599 JUMPI PUSH2 0x156A DUP2 PUSH2 0x1444 JUMP JUMPDEST PUSH2 0x1573 DUP5 PUSH2 0x1456 JUMP JUMPDEST DUP2 ADD PUSH1 0x20 DUP6 LT ISZERO PUSH2 0x1582 JUMPI DUP2 SWAP1 POP JUMPDEST PUSH2 0x1596 PUSH2 0x158E DUP6 PUSH2 0x1456 JUMP JUMPDEST DUP4 ADD DUP3 PUSH2 0x1536 JUMP JUMPDEST POP POP JUMPDEST POP POP POP JUMP JUMPDEST PUSH0 DUP3 DUP3 SHR SWAP1 POP SWAP3 SWAP2 POP POP JUMP JUMPDEST PUSH0 PUSH2 0x15B9 PUSH0 NOT DUP5 PUSH1 0x8 MUL PUSH2 0x159E JUMP JUMPDEST NOT DUP1 DUP4 AND SWAP2 POP POP SWAP3 SWAP2 POP POP JUMP JUMPDEST PUSH0 PUSH2 0x15D1 DUP4 DUP4 PUSH2 0x15AA JUMP JUMPDEST SWAP2 POP DUP3 PUSH1 0x2 MUL DUP3 OR SWAP1 POP SWAP3 SWAP2 POP POP JUMP JUMPDEST PUSH2 0x15EA DUP3 PUSH2 0xE3E JUMP JUMPDEST PUSH8 0xFFFFFFFFFFFFFFFF DUP2 GT ISZERO PUSH2 0x1603 JUMPI PUSH2 0x1602 PUSH2 0xF0C JUMP JUMPDEST JUMPDEST PUSH2 0x160D DUP3 SLOAD PUSH2 0x1312 JUMP JUMPDEST PUSH2 0x1618 DUP3 DUP3 DUP6 PUSH2 0x1558 JUMP JUMPDEST PUSH0 PUSH1 0x20 SWAP1 POP PUSH1 0x1F DUP4 GT PUSH1 0x1 DUP2 EQ PUSH2 0x1649 JUMPI PUSH0 DUP5 ISZERO PUSH2 0x1637 JUMPI DUP3 DUP8 ADD MLOAD SWAP1 POP JUMPDEST PUSH2 0x1641 DUP6 DUP3 PUSH2 0x15C6 JUMP JUMPDEST DUP7 SSTORE POP PUSH2 0x16A8 JUMP JUMPDEST PUSH1 0x1F NOT DUP5 AND PUSH2 0x1657 DUP7 PUSH2 0x1444 JUMP JUMPDEST PUSH0 JUMPDEST DUP3 DUP2 LT ISZERO PUSH2 0x167E JUMPI DUP5 DUP10 ADD MLOAD DUP3 SSTORE PUSH1 0x1 DUP3 ADD SWAP2 POP PUSH1 0x20 DUP6 ADD SWAP5 POP PUSH1 0x20 DUP2 ADD SWAP1 POP PUSH2 0x1659 JUMP JUMPDEST DUP7 DUP4 LT ISZERO PUSH2 0x169B JUMPI DUP5 DUP10 ADD MLOAD PUSH2 0x1697 PUSH1 0x1F DUP10 AND DUP3 PUSH2 0x15AA JUMP JUMPDEST DUP4 SSTORE POP JUMPDEST PUSH1 0x1 PUSH1 0x2 DUP9 MUL ADD DUP9 SSTORE POP POP POP JUMPDEST POP POP POP POP POP POP JUMP JUMPDEST PUSH32 0x3020766F74657273207265676973746572656400000000000000000000000000 PUSH0 DUP3 ADD MSTORE POP JUMP JUMPDEST PUSH0 PUSH2 0x16E4 PUSH1 0x13 DUP4 PUSH2 0xE48 JUMP JUMPDEST SWAP2 POP PUSH2 0x16EF DUP3 PUSH2 0x16B0 JUMP JUMPDEST PUSH1 0x20 DUP3 ADD SWAP1 POP SWAP2 SWAP1 POP JUMP JUMPDEST PUSH0 PUSH1 0x20 DUP3 ADD SWAP1 POP DUP2 DUP2 SUB PUSH0 DUP4 ADD MSTORE PUSH2 0x1711 DUP2 PUSH2 0x16D8 JUMP JUMPDEST SWAP1 POP SWAP2 SWAP1 POP JUMP JUMPDEST PUSH32 0x302063616E646964617465732072656769737465726564000000000000000000 PUSH0 DUP3 ADD MSTORE POP JUMP JUMPDEST PUSH0 PUSH2 0x174C PUSH1 0x17 DUP4 PUSH2 0xE48 JUMP JUMPDEST SWAP2 POP PUSH2 0x1757 DUP3 PUSH2 0x1718 JUMP JUMPDEST PUSH1 0x20 DUP3 ADD SWAP1 POP SWAP2 SWAP1 POP JUMP JUMPDEST PUSH0 PUSH1 0x20 DUP3 ADD SWAP1 POP DUP2 DUP2 SUB PUSH0 DUP4 ADD MSTORE PUSH2 0x1779 DUP2 PUSH2 0x1740 JUMP JUMPDEST SWAP1 POP SWAP2 SWAP1 POP JUMP JUMPDEST PUSH1 0x3 DUP2 LT PUSH2 0x1791 JUMPI PUSH2 0x1790 PUSH2 0x122A JUMP JUMPDEST JUMPDEST POP JUMP JUMPDEST PUSH0 DUP2 SWAP1 POP PUSH2 0x17A1 DUP3 PUSH2 0x1780 JUMP JUMPDEST SWAP2 SWAP1 POP JUMP JUMPDEST PUSH0 PUSH2 0x17B0 DUP3 PUSH2 0x1794 JUMP JUMPDEST SWAP1 POP SWAP2 SWAP1 POP JUMP JUMPDEST PUSH2 0x17C0 DUP2 PUSH2 0x17A6 JUMP JUMPDEST DUP3 MSTORE POP POP JUMP JUMPDEST PUSH32 0x566F74696E67206F6E676F696E67000000000000000000000000000000000000 PUSH0 DUP3 ADD MSTORE POP JUMP JUMPDEST PUSH0 PUSH2 0x17FA PUSH1 0xE DUP4 PUSH2 0xE48 JUMP JUMPDEST SWAP2 POP PUSH2 0x1805 DUP3 PUSH2 0x17C6 JUMP JUMPDEST PUSH1 0x20 DUP3 ADD SWAP1 POP SWAP2 SWAP1 POP JUMP JUMPDEST PUSH0 PUSH1 0x40 DUP3 ADD SWAP1 POP PUSH2 0x1823 PUSH0 DUP4 ADD DUP5 PUSH2 0x17B7 JUMP JUMPDEST DUP2 DUP2 SUB PUSH1 0x20 DUP4 ADD MSTORE PUSH2 0x1834 DUP2 PUSH2 0x17EE JUMP JUMPDEST SWAP1 POP SWAP3 SWAP2 POP POP JUMP JUMPDEST PUSH32 0x566F74696E6720636F6D706C6574656400000000000000000000000000000000 PUSH0 DUP3 ADD MSTORE POP JUMP JUMPDEST PUSH0 PUSH2 0x1870 PUSH1 0x10 DUP4 PUSH2 0xE48 JUMP JUMPDEST SWAP2 POP PUSH2 0x187B DUP3 PUSH2 0x183C JUMP JUMPDEST PUSH1 0x20 DUP3 ADD SWAP1 POP SWAP2 SWAP1 POP JUMP JUMPDEST PUSH0 PUSH1 0x40 DUP3 ADD SWAP1 POP PUSH2 0x1899 PUSH0 DUP4 ADD DUP5 PUSH2 0x17B7 JUMP JUMPDEST DUP2 DUP2 SUB PUSH1 0x20 DUP4 ADD MSTORE PUSH2 0x18AA DUP2 PUSH2 0x1864 JUMP JUMPDEST SWAP1 POP SWAP3 SWAP2 POP POP JUMP JUMPDEST PUSH0 PUSH2 0x18BC DUP3 PUSH2 0xDD1 JUMP JUMPDEST SWAP2 POP PUSH2 0x18C7 DUP4 PUSH2 0xDD1 JUMP JUMPDEST SWAP3 POP DUP3 DUP3 ADD SWAP1 POP DUP1 DUP3 GT ISZERO PUSH2 0x18DF JUMPI PUSH2 0x18DE PUSH2 0x13D0 JUMP JUMPDEST JUMPDEST SWAP3 SWAP2 POP POP JUMP INVALID LOG2 PUSH5 0x6970667358 0x22 SLT KECCAK256 0xCD PUSH15 0x327749A7D35CC1DE6869C9A09CB6A4 DUP2 SHL 0xAF PUSH3 0x89C952 JUMPI 0x28 CREATE 0xED SWAP12 POP PUSH10 0x9C64736F6C6343000816 STOP CALLER "
				},
				"gasEstimates": {
					"creation": {
						"codeDepositCost": "1285400",
						"executionCost": "59956",
						"totalCost": "1345356"
					},
					"external": {
						"addNewCandidate(string,string)": "infinite",
						"addNewVoter(address,string)": "infinite",
						"castVote(uint256,address)": "infinite",
						"delegateVotingRight(address,address)": "infinite",
						"displayCandidateDetails(uint256)": "infinite",
						"endElection()": "26712",
						"showElectionResults(uint256)": "infinite",
						"startElection()": "35498",
						"viewVoterDetails(address)": "infinite",
						"votingAdmin()": "2571"
					}
				},
				"methodIdentifiers": {
					"addNewCandidate(string,string)": "577c689a",
					"addNewVoter(address,string)": "bd7bf4f0",
					"castVote(uint256,address)": "77df41b7",
					"delegateVotingRight(address,address)": "3d0af840",
					"displayCandidateDetails(uint256)": "a48292ce",
					"endElection()": "59f78468",
					"showElectionResults(uint256)": "4ad7b863",
					"startElection()": "62d73eb8",
					"viewVoterDetails(address)": "f83bfa28",
					"votingAdmin()": "d45529f4"
				}
			},
			"storageLayout": {
				"storage": [
					{
						"astId": 3,
						"contract": "contracts/voting.sol:VotingSoftware",
						"label": "votingAdmin",
						"offset": 0,
						"slot": "0",
						"type": "t_address"
					},
					{
						"astId": 62,
						"contract": "contracts/voting.sol:VotingSoftware",
						"label": "status",
						"offset": 20,
						"slot": "0",
						"type": "t_enum(VotingStatus)57"
					},
					{
						"astId": 65,
						"contract": "contracts/voting.sol:VotingSoftware",
						"label": "candidateCount",
						"offset": 0,
						"slot": "1",
						"type": "t_uint256"
					},
					{
						"astId": 68,
						"contract": "contracts/voting.sol:VotingSoftware",
						"label": "voterCount",
						"offset": 0,
						"slot": "2",
						"type": "t_uint256"
					},
					{
						"astId": 73,
						"contract": "contracts/voting.sol:VotingSoftware",
						"label": "candidates",
						"offset": 0,
						"slot": "3",
						"type": "t_mapping(t_uint256,t_struct(Candidate)53_storage)"
					},
					{
						"astId": 78,
						"contract": "contracts/voting.sol:VotingSoftware",
						"label": "voters",
						"offset": 0,
						"slot": "4",
						"type": "t_mapping(t_address,t_struct(Voter)46_storage)"
					},
					{
						"astId": 82,
						"contract": "contracts/voting.sol:VotingSoftware",
						"label": "voteCounts",
						"offset": 0,
						"slot": "5",
						"type": "t_mapping(t_uint256,t_uint256)"
					}
				],
				"types": {
					"t_address": {
						"encoding": "inplace",
						"label": "address",
						"numberOfBytes": "20"
					},
					"t_enum(VotingStatus)57": {
						"encoding": "inplace",
						"label": "enum VotingSoftware.VotingStatus",
						"numberOfBytes": "1"
					},
					"t_mapping(t_address,t_struct(Voter)46_storage)": {
						"encoding": "mapping",
						"key": "t_address",
						"label": "mapping(address => struct VotingSoftware.Voter)",
						"numberOfBytes": "32",
						"value": "t_struct(Voter)46_storage"
					},
					"t_mapping(t_uint256,t_struct(Candidate)53_storage)": {
						"encoding": "mapping",
						"key": "t_uint256",
						"label": "mapping(uint256 => struct VotingSoftware.Candidate)",
						"numberOfBytes": "32",
						"value": "t_struct(Candidate)53_storage"
					},
					"t_mapping(t_uint256,t_uint256)": {
						"encoding": "mapping",
						"key": "t_uint256",
						"label": "mapping(uint256 => uint256)",
						"numberOfBytes": "32",
						"value": "t_uint256"
					},
					"t_string_storage": {
						"encoding": "bytes",
						"label": "string",
						"numberOfBytes": "32"
					},
					"t_struct(Candidate)53_storage": {
						"encoding": "inplace",
						"label": "struct VotingSoftware.Candidate",
						"members": [
							{
								"astId": 48,
								"contract": "contracts/voting.sol:VotingSoftware",
								"label": "id",
								"offset": 0,
								"slot": "0",
								"type": "t_uint256"
							},
							{
								"astId": 50,
								"contract": "contracts/voting.sol:VotingSoftware",
								"label": "name",
								"offset": 0,
								"slot": "1",
								"type": "t_string_storage"
							},
							{
								"astId": 52,
								"contract": "contracts/voting.sol:VotingSoftware",
								"label": "proposal",
								"offset": 0,
								"slot": "2",
								"type": "t_string_storage"
							}
						],
						"numberOfBytes": "96"
					},
					"t_struct(Voter)46_storage": {
						"encoding": "inplace",
						"label": "struct VotingSoftware.Voter",
						"members": [
							{
								"astId": 37,
								"contract": "contracts/voting.sol:VotingSoftware",
								"label": "id",
								"offset": 0,
								"slot": "0",
								"type": "t_uint256"
							},
							{
								"astId": 39,
								"contract": "contracts/voting.sol:VotingSoftware",
								"label": "name",
								"offset": 0,
								"slot": "1",
								"type": "t_string_storage"
							},
							{
								"astId": 41,
								"contract": "contracts/voting.sol:VotingSoftware",
								"label": "addressVoter",
								"offset": 0,
								"slot": "2",
								"type": "t_address"
							},
							{
								"astId": 43,
								"contract": "contracts/voting.sol:VotingSoftware",
								"label": "delegatedTo",
								"offset": 0,
								"slot": "3",
								"type": "t_address"
							},
							{
								"astId": 45,
								"contract": "contracts/voting.sol:VotingSoftware",
								"label": "cadidateId",
								"offset": 0,
								"slot": "4",
								"type": "t_uint256"
							}
						],
						"numberOfBytes": "160"
					},
					"t_uint256": {
						"encoding": "inplace",
						"label": "uint256",
						"numberOfBytes": "32"
					}
				}
			},
			"userdoc": {
				"kind": "user",
				"methods": {},
				"version": 1
			}
		}
	}
}