{
	"contracts/voting.sol": {
		"VotingSoftware": {
			"abi": [
				{
					"inputs": [],
					"stateMutability": "nonpayable",
					"type": "constructor"
				},
				{
					"inputs": [
						{
							"internalType": "enum VotingSoftware.VotingStatus",
							"name": "status",
							"type": "uint8"
						},
						{
							"internalType": "string",
							"name": "message",
							"type": "string"
						}
					],
					"name": "CanNotStartElection",
					"type": "error"
				},
				{
					"inputs": [
						{
							"internalType": "string",
							"name": "_name",
							"type": "string"
						},
						{
							"internalType": "string",
							"name": "_proposal",
							"type": "string"
						},
						{
							"internalType": "address",
							"name": "_contractOwner",
							"type": "address"
						}
					],
					"name": "addNewCandidate",
					"outputs": [],
					"stateMutability": "nonpayable",
					"type": "function"
				},
				{
					"inputs": [
						{
							"internalType": "address",
							"name": "_addressVoter",
							"type": "address"
						},
						{
							"internalType": "string",
							"name": "_name",
							"type": "string"
						},
						{
							"internalType": "address",
							"name": "_contractOwner",
							"type": "address"
						}
					],
					"name": "addNewVoter",
					"outputs": [],
					"stateMutability": "nonpayable",
					"type": "function"
				},
				{
					"inputs": [
						{
							"internalType": "uint256",
							"name": "_candidateId",
							"type": "uint256"
						},
						{
							"internalType": "address",
							"name": "_addressVoter",
							"type": "address"
						}
					],
					"name": "castVote",
					"outputs": [],
					"stateMutability": "nonpayable",
					"type": "function"
				},
				{
					"inputs": [
						{
							"internalType": "address",
							"name": "_delegatedTo",
							"type": "address"
						},
						{
							"internalType": "address",
							"name": "_addressVoter",
							"type": "address"
						}
					],
					"name": "delegateVotingRight",
					"outputs": [],
					"stateMutability": "nonpayable",
					"type": "function"
				},
				{
					"inputs": [
						{
							"internalType": "uint256",
							"name": "_candidateId",
							"type": "uint256"
						}
					],
					"name": "displayCandidateDetails",
					"outputs": [
						{
							"internalType": "uint256",
							"name": "candidateId",
							"type": "uint256"
						},
						{
							"internalType": "string",
							"name": "proposal",
							"type": "string"
						},
						{
							"internalType": "string",
							"name": "name",
							"type": "string"
						}
					],
					"stateMutability": "view",
					"type": "function"
				},
				{
					"inputs": [],
					"name": "endElection",
					"outputs": [],
					"stateMutability": "nonpayable",
					"type": "function"
				},
				{
					"inputs": [
						{
							"internalType": "uint256",
							"name": "_candidateId",
							"type": "uint256"
						}
					],
					"name": "showElectionResults",
					"outputs": [
						{
							"internalType": "uint256",
							"name": "candidateId",
							"type": "uint256"
						},
						{
							"internalType": "string",
							"name": "name",
							"type": "string"
						},
						{
							"internalType": "uint256",
							"name": "voteCount",
							"type": "uint256"
						}
					],
					"stateMutability": "view",
					"type": "function"
				},
				{
					"inputs": [],
					"name": "showWinner",
					"outputs": [
						{
							"internalType": "uint256",
							"name": "candidateId",
							"type": "uint256"
						},
						{
							"internalType": "string",
							"name": "name",
							"type": "string"
						},
						{
							"internalType": "uint256",
							"name": "votesSecured",
							"type": "uint256"
						}
					],
					"stateMutability": "view",
					"type": "function"
				},
				{
					"inputs": [
						{
							"internalType": "address",
							"name": "_contractOwner",
							"type": "address"
						}
					],
					"name": "startElection",
					"outputs": [],
					"stateMutability": "nonpayable",
					"type": "function"
				},
				{
					"inputs": [
						{
							"internalType": "address",
							"name": "_addressVoter",
							"type": "address"
						}
					],
					"name": "viewVoterDetails",
					"outputs": [
						{
							"internalType": "address",
							"name": "addressVoter",
							"type": "address"
						},
						{
							"internalType": "string",
							"name": "name",
							"type": "string"
						},
						{
							"internalType": "bool",
							"name": "isVoteDelegated",
							"type": "bool"
						}
					],
					"stateMutability": "view",
					"type": "function"
				},
				{
					"inputs": [],
					"name": "votingAdmin",
					"outputs": [
						{
							"internalType": "address",
							"name": "",
							"type": "address"
						}
					],
					"stateMutability": "view",
					"type": "function"
				}
			],
			"devdoc": {
				"kind": "dev",
				"methods": {},
				"version": 1
			},
			"evm": {
				"assembly": "    /* \"contracts/voting.sol\":56:7288  contract VotingSoftware{... */\n  mstore(0x40, 0x80)\n    /* \"contracts/voting.sol\":805:829  VotingStatus.NOT_STARTED */\n  0x00\n    /* \"contracts/voting.sol\":783:829  VotingStatus status = VotingStatus.NOT_STARTED */\n  dup1\n  exp(0x0100, 0x14)\n  dup2\n  sload\n  dup2\n  0xff\n  mul\n  not\n  and\n  swap1\n  dup4\n  0x02\n  dup2\n  gt\n  iszero\n  tag_1\n  jumpi\n  tag_2\n  tag_3\n  jump\t// in\ntag_2:\ntag_1:\n  mul\n  or\n  swap1\n  sstore\n  pop\n    /* \"contracts/voting.sol\":883:884  0 */\n  0x00\n    /* \"contracts/voting.sol\":858:884  uint256 candidateCount = 0 */\n  0x01\n  sstore\n    /* \"contracts/voting.sol\":941:942  0 */\n  0x00\n    /* \"contracts/voting.sol\":920:942  uint256 voterCount = 0 */\n  0x02\n  sstore\n    /* \"contracts/voting.sol\":183:238  constructor() {... */\n  callvalue\n  dup1\n  iszero\n  tag_4\n  jumpi\n  0x00\n  dup1\n  revert\ntag_4:\n  pop\n    /* \"contracts/voting.sol\":221:231  msg.sender */\n  caller\n    /* \"contracts/voting.sol\":207:218  votingAdmin */\n  0x00\n  dup1\n    /* \"contracts/voting.sol\":207:231  votingAdmin = msg.sender */\n  0x0100\n  exp\n  dup2\n  sload\n  dup2\n  0xffffffffffffffffffffffffffffffffffffffff\n  mul\n  not\n  and\n  swap1\n  dup4\n  0xffffffffffffffffffffffffffffffffffffffff\n  and\n  mul\n  or\n  swap1\n  sstore\n  pop\n    /* \"contracts/voting.sol\":56:7288  contract VotingSoftware{... */\n  jump(tag_7)\n    /* \"#utility.yul\":7:187   */\ntag_3:\n    /* \"#utility.yul\":55:132   */\n  0x4e487b7100000000000000000000000000000000000000000000000000000000\n    /* \"#utility.yul\":52:53   */\n  0x00\n    /* \"#utility.yul\":45:133   */\n  mstore\n    /* \"#utility.yul\":152:156   */\n  0x21\n    /* \"#utility.yul\":149:150   */\n  0x04\n    /* \"#utility.yul\":142:157   */\n  mstore\n    /* \"#utility.yul\":176:180   */\n  0x24\n    /* \"#utility.yul\":173:174   */\n  0x00\n    /* \"#utility.yul\":166:181   */\n  revert\n    /* \"contracts/voting.sol\":56:7288  contract VotingSoftware{... */\ntag_7:\n  dataSize(sub_0)\n  dup1\n  dataOffset(sub_0)\n  0x00\n  codecopy\n  0x00\n  return\nstop\n\nsub_0: assembly {\n        /* \"contracts/voting.sol\":56:7288  contract VotingSoftware{... */\n      mstore(0x40, 0x80)\n      callvalue\n      dup1\n      iszero\n      tag_1\n      jumpi\n      0x00\n      dup1\n      revert\n    tag_1:\n      pop\n      jumpi(tag_2, lt(calldatasize, 0x04))\n      shr(0xe0, calldataload(0x00))\n      dup1\n      0x77df41b7\n      gt\n      tag_14\n      jumpi\n      dup1\n      0x77df41b7\n      eq\n      tag_8\n      jumpi\n      dup1\n      0xa48292ce\n      eq\n      tag_9\n      jumpi\n      dup1\n      0xb7e03264\n      eq\n      tag_10\n      jumpi\n      dup1\n      0xd45529f4\n      eq\n      tag_11\n      jumpi\n      dup1\n      0xe6a5e61d\n      eq\n      tag_12\n      jumpi\n      dup1\n      0xf83bfa28\n      eq\n      tag_13\n      jumpi\n      jump(tag_2)\n    tag_14:\n      dup1\n      0x3cdd97bf\n      eq\n      tag_3\n      jumpi\n      dup1\n      0x3d0af840\n      eq\n      tag_4\n      jumpi\n      dup1\n      0x4ad7b863\n      eq\n      tag_5\n      jumpi\n      dup1\n      0x59f78468\n      eq\n      tag_6\n      jumpi\n      dup1\n      0x723309a0\n      eq\n      tag_7\n      jumpi\n    tag_2:\n      0x00\n      dup1\n      revert\n        /* \"contracts/voting.sol\":1762:2383  function addNewVoter(address _addressVoter, string memory _name, address _contractOwner) public onlyVotingAdmin {... */\n    tag_3:\n      tag_15\n      0x04\n      dup1\n      calldatasize\n      sub\n      dup2\n      add\n      swap1\n      tag_16\n      swap2\n      swap1\n      tag_17\n      jump\t// in\n    tag_16:\n      tag_18\n      jump\t// in\n    tag_15:\n      stop\n        /* \"contracts/voting.sol\":4430:4963  function delegateVotingRight(address _delegatedTo, address _addressVoter) public {... */\n    tag_4:\n      tag_19\n      0x04\n      dup1\n      calldatasize\n      sub\n      dup2\n      add\n      swap1\n      tag_20\n      swap2\n      swap1\n      tag_21\n      jump\t// in\n    tag_20:\n      tag_22\n      jump\t// in\n    tag_19:\n      stop\n        /* \"contracts/voting.sol\":6376:6775  function showElectionResults(uint256 _candidateId) public view ... */\n    tag_5:\n      tag_23\n      0x04\n      dup1\n      calldatasize\n      sub\n      dup2\n      add\n      swap1\n      tag_24\n      swap2\n      swap1\n      tag_25\n      jump\t// in\n    tag_24:\n      tag_26\n      jump\t// in\n    tag_23:\n      mload(0x40)\n      tag_27\n      swap4\n      swap3\n      swap2\n      swap1\n      tag_28\n      jump\t// in\n    tag_27:\n      mload(0x40)\n      dup1\n      swap2\n      sub\n      swap1\n      return\n        /* \"contracts/voting.sol\":6053:6338  function endElection() public onlyVotingAdmin(){... */\n    tag_6:\n      tag_29\n      tag_30\n      jump\t// in\n    tag_29:\n      stop\n        /* \"contracts/voting.sol\":1163:1730  function addNewCandidate(string memory _name, string memory _proposal, address _contractOwner) public onlyVotingAdmin {... */\n    tag_7:\n      tag_31\n      0x04\n      dup1\n      calldatasize\n      sub\n      dup2\n      add\n      swap1\n      tag_32\n      swap2\n      swap1\n      tag_33\n      jump\t// in\n    tag_32:\n      tag_34\n      jump\t// in\n    tag_31:\n      stop\n        /* \"contracts/voting.sol\":4993:6020  function castVote(uint256 _candidateId, address _addressVoter) public {... */\n    tag_8:\n      tag_35\n      0x04\n      dup1\n      calldatasize\n      sub\n      dup2\n      add\n      swap1\n      tag_36\n      swap2\n      swap1\n      tag_37\n      jump\t// in\n    tag_36:\n      tag_38\n      jump\t// in\n    tag_35:\n      stop\n        /* \"contracts/voting.sol\":3120:3569  function displayCandidateDetails(uint256 _candidateId) public view ... */\n    tag_9:\n      tag_39\n      0x04\n      dup1\n      calldatasize\n      sub\n      dup2\n      add\n      swap1\n      tag_40\n      swap2\n      swap1\n      tag_25\n      jump\t// in\n    tag_40:\n      tag_41\n      jump\t// in\n    tag_39:\n      mload(0x40)\n      tag_42\n      swap4\n      swap3\n      swap2\n      swap1\n      tag_43\n      jump\t// in\n    tag_42:\n      mload(0x40)\n      dup1\n      swap2\n      sub\n      swap1\n      return\n        /* \"contracts/voting.sol\":3616:4388  function showWinner() public view ... */\n    tag_10:\n      tag_44\n      tag_45\n      jump\t// in\n    tag_44:\n      mload(0x40)\n      tag_46\n      swap4\n      swap3\n      swap2\n      swap1\n      tag_28\n      jump\t// in\n    tag_46:\n      mload(0x40)\n      dup1\n      swap2\n      sub\n      swap1\n      return\n        /* \"contracts/voting.sol\":151:177  address public votingAdmin */\n    tag_11:\n      tag_47\n      tag_48\n      jump\t// in\n    tag_47:\n      mload(0x40)\n      tag_49\n      swap2\n      swap1\n      tag_50\n      jump\t// in\n    tag_49:\n      mload(0x40)\n      dup1\n      swap2\n      sub\n      swap1\n      return\n        /* \"contracts/voting.sol\":2482:3070  function startElection(address _contractOwner) public onlyVotingAdmin{... */\n    tag_12:\n      tag_51\n      0x04\n      dup1\n      calldatasize\n      sub\n      dup2\n      add\n      swap1\n      tag_52\n      swap2\n      swap1\n      tag_53\n      jump\t// in\n    tag_52:\n      tag_54\n      jump\t// in\n    tag_51:\n      stop\n        /* \"contracts/voting.sol\":6821:7286  function viewVoterDetails(address _addressVoter) public view returns (... */\n    tag_13:\n      tag_55\n      0x04\n      dup1\n      calldatasize\n      sub\n      dup2\n      add\n      swap1\n      tag_56\n      swap2\n      swap1\n      tag_53\n      jump\t// in\n    tag_56:\n      tag_57\n      jump\t// in\n    tag_55:\n      mload(0x40)\n      tag_58\n      swap4\n      swap3\n      swap2\n      swap1\n      tag_59\n      jump\t// in\n    tag_58:\n      mload(0x40)\n      dup1\n      swap2\n      sub\n      swap1\n      return\n        /* \"contracts/voting.sol\":1762:2383  function addNewVoter(address _addressVoter, string memory _name, address _contractOwner) public onlyVotingAdmin {... */\n    tag_18:\n        /* \"contracts/voting.sol\":302:313  votingAdmin */\n      0x00\n      dup1\n      sload\n      swap1\n      0x0100\n      exp\n      swap1\n      div\n      0xffffffffffffffffffffffffffffffffffffffff\n      and\n        /* \"contracts/voting.sol\":288:313  msg.sender == votingAdmin */\n      0xffffffffffffffffffffffffffffffffffffffff\n      and\n        /* \"contracts/voting.sol\":288:298  msg.sender */\n      caller\n        /* \"contracts/voting.sol\":288:313  msg.sender == votingAdmin */\n      0xffffffffffffffffffffffffffffffffffffffff\n      and\n      eq\n        /* \"contracts/voting.sol\":280:314  require(msg.sender == votingAdmin) */\n      tag_61\n      jumpi\n      0x00\n      dup1\n      revert\n    tag_61:\n        /* \"contracts/voting.sol\":1910:1921  votingAdmin */\n      0x00\n      dup1\n      sload\n      swap1\n      0x0100\n      exp\n      swap1\n      div\n      0xffffffffffffffffffffffffffffffffffffffff\n      and\n        /* \"contracts/voting.sol\":1892:1921  _contractOwner == votingAdmin */\n      0xffffffffffffffffffffffffffffffffffffffff\n      and\n        /* \"contracts/voting.sol\":1892:1906  _contractOwner */\n      dup2\n        /* \"contracts/voting.sol\":1892:1921  _contractOwner == votingAdmin */\n      0xffffffffffffffffffffffffffffffffffffffff\n      and\n      eq\n        /* \"contracts/voting.sol\":1884:1959  require(_contractOwner == votingAdmin, \"Only admin has access to do this.\") */\n      tag_63\n      jumpi\n      mload(0x40)\n      0x08c379a000000000000000000000000000000000000000000000000000000000\n      dup2\n      mstore\n      0x04\n      add\n      tag_64\n      swap1\n      tag_65\n      jump\t// in\n    tag_64:\n      mload(0x40)\n      dup1\n      swap2\n      sub\n      swap1\n      revert\n    tag_63:\n        /* \"contracts/voting.sol\":1985:2009  VotingStatus.NOT_STARTED */\n      0x00\n        /* \"contracts/voting.sol\":1977:2009  status==VotingStatus.NOT_STARTED */\n      0x02\n      dup2\n      gt\n      iszero\n      tag_66\n      jumpi\n      tag_67\n      tag_68\n      jump\t// in\n    tag_67:\n    tag_66:\n        /* \"contracts/voting.sol\":1977:1983  status */\n      0x00\n      0x14\n      swap1\n      sload\n      swap1\n      0x0100\n      exp\n      swap1\n      div\n      0xff\n      and\n        /* \"contracts/voting.sol\":1977:2009  status==VotingStatus.NOT_STARTED */\n      0x02\n      dup2\n      gt\n      iszero\n      tag_69\n      jumpi\n      tag_70\n      tag_68\n      jump\t// in\n    tag_70:\n    tag_69:\n      eq\n        /* \"contracts/voting.sol\":1969:2049  require(status==VotingStatus.NOT_STARTED, \"Voting already started or completed\") */\n      tag_71\n      jumpi\n      mload(0x40)\n      0x08c379a000000000000000000000000000000000000000000000000000000000\n      dup2\n      mstore\n      0x04\n      add\n      tag_72\n      swap1\n      tag_73\n      jump\t// in\n    tag_72:\n      mload(0x40)\n      dup1\n      swap2\n      sub\n      swap1\n      revert\n    tag_71:\n        /* \"contracts/voting.sol\":2095:2100  false */\n      0x00\n        /* \"contracts/voting.sol\":2067:2100  voters[_addressVoter].flag==false */\n      iszero\n      iszero\n        /* \"contracts/voting.sol\":2067:2073  voters */\n      0x04\n        /* \"contracts/voting.sol\":2067:2088  voters[_addressVoter] */\n      0x00\n        /* \"contracts/voting.sol\":2074:2087  _addressVoter */\n      dup6\n        /* \"contracts/voting.sol\":2067:2088  voters[_addressVoter] */\n      0xffffffffffffffffffffffffffffffffffffffff\n      and\n      0xffffffffffffffffffffffffffffffffffffffff\n      and\n      dup2\n      mstore\n      0x20\n      add\n      swap1\n      dup2\n      mstore\n      0x20\n      add\n      0x00\n      keccak256\n        /* \"contracts/voting.sol\":2067:2093  voters[_addressVoter].flag */\n      0x05\n      add\n      0x00\n      swap1\n      sload\n      swap1\n      0x0100\n      exp\n      swap1\n      div\n      0xff\n      and\n        /* \"contracts/voting.sol\":2067:2100  voters[_addressVoter].flag==false */\n      iszero\n      iszero\n      eq\n        /* \"contracts/voting.sol\":2059:2125  require(voters[_addressVoter].flag==false, \"voter already added.\") */\n      tag_74\n      jumpi\n      mload(0x40)\n      0x08c379a000000000000000000000000000000000000000000000000000000000\n      dup2\n      mstore\n      0x04\n      add\n      tag_75\n      swap1\n      tag_76\n      jump\t// in\n    tag_75:\n      mload(0x40)\n      dup1\n      swap2\n      sub\n      swap1\n      revert\n    tag_74:\n        /* \"contracts/voting.sol\":2135:2145  voterCount */\n      0x02\n      0x00\n        /* \"contracts/voting.sol\":2135:2147  voterCount++ */\n      dup2\n      sload\n      dup1\n      swap3\n      swap2\n      swap1\n      tag_77\n      swap1\n      tag_78\n      jump\t// in\n    tag_77:\n      swap2\n      swap1\n      pop\n      sstore\n      pop\n        /* \"contracts/voting.sol\":2157:2172  uint256 voterId */\n      0x00\n        /* \"contracts/voting.sol\":2175:2185  voterCount */\n      sload(0x02)\n        /* \"contracts/voting.sol\":2157:2185  uint256 voterId = voterCount */\n      swap1\n      pop\n        /* \"contracts/voting.sol\":2222:2229  voterId */\n      dup1\n        /* \"contracts/voting.sol\":2195:2201  voters */\n      0x04\n        /* \"contracts/voting.sol\":2195:2216  voters[_addressVoter] */\n      0x00\n        /* \"contracts/voting.sol\":2202:2215  _addressVoter */\n      dup7\n        /* \"contracts/voting.sol\":2195:2216  voters[_addressVoter] */\n      0xffffffffffffffffffffffffffffffffffffffff\n      and\n      0xffffffffffffffffffffffffffffffffffffffff\n      and\n      dup2\n      mstore\n      0x20\n      add\n      swap1\n      dup2\n      mstore\n      0x20\n      add\n      0x00\n      keccak256\n        /* \"contracts/voting.sol\":2195:2219  voters[_addressVoter].id */\n      0x00\n      add\n        /* \"contracts/voting.sol\":2195:2229  voters[_addressVoter].id = voterId */\n      dup2\n      swap1\n      sstore\n      pop\n        /* \"contracts/voting.sol\":2276:2289  _addressVoter */\n      dup4\n        /* \"contracts/voting.sol\":2239:2245  voters */\n      0x04\n        /* \"contracts/voting.sol\":2239:2260  voters[_addressVoter] */\n      0x00\n        /* \"contracts/voting.sol\":2246:2259  _addressVoter */\n      dup7\n        /* \"contracts/voting.sol\":2239:2260  voters[_addressVoter] */\n      0xffffffffffffffffffffffffffffffffffffffff\n      and\n      0xffffffffffffffffffffffffffffffffffffffff\n      and\n      dup2\n      mstore\n      0x20\n      add\n      swap1\n      dup2\n      mstore\n      0x20\n      add\n      0x00\n      keccak256\n        /* \"contracts/voting.sol\":2239:2273  voters[_addressVoter].addressVoter */\n      0x02\n      add\n      0x00\n        /* \"contracts/voting.sol\":2239:2289  voters[_addressVoter].addressVoter = _addressVoter */\n      0x0100\n      exp\n      dup2\n      sload\n      dup2\n      0xffffffffffffffffffffffffffffffffffffffff\n      mul\n      not\n      and\n      swap1\n      dup4\n      0xffffffffffffffffffffffffffffffffffffffff\n      and\n      mul\n      or\n      swap1\n      sstore\n      pop\n        /* \"contracts/voting.sol\":2328:2333  _name */\n      dup3\n        /* \"contracts/voting.sol\":2299:2305  voters */\n      0x04\n        /* \"contracts/voting.sol\":2299:2320  voters[_addressVoter] */\n      0x00\n        /* \"contracts/voting.sol\":2306:2319  _addressVoter */\n      dup7\n        /* \"contracts/voting.sol\":2299:2320  voters[_addressVoter] */\n      0xffffffffffffffffffffffffffffffffffffffff\n      and\n      0xffffffffffffffffffffffffffffffffffffffff\n      and\n      dup2\n      mstore\n      0x20\n      add\n      swap1\n      dup2\n      mstore\n      0x20\n      add\n      0x00\n      keccak256\n        /* \"contracts/voting.sol\":2299:2325  voters[_addressVoter].name */\n      0x01\n      add\n        /* \"contracts/voting.sol\":2299:2333  voters[_addressVoter].name = _name */\n      swap1\n      dup2\n      tag_79\n      swap2\n      swap1\n      tag_80\n      jump\t// in\n    tag_79:\n      pop\n        /* \"contracts/voting.sol\":2372:2376  true */\n      0x01\n        /* \"contracts/voting.sol\":2343:2349  voters */\n      0x04\n        /* \"contracts/voting.sol\":2343:2364  voters[_addressVoter] */\n      0x00\n        /* \"contracts/voting.sol\":2350:2363  _addressVoter */\n      dup7\n        /* \"contracts/voting.sol\":2343:2364  voters[_addressVoter] */\n      0xffffffffffffffffffffffffffffffffffffffff\n      and\n      0xffffffffffffffffffffffffffffffffffffffff\n      and\n      dup2\n      mstore\n      0x20\n      add\n      swap1\n      dup2\n      mstore\n      0x20\n      add\n      0x00\n      keccak256\n        /* \"contracts/voting.sol\":2343:2369  voters[_addressVoter].flag */\n      0x05\n      add\n      0x00\n        /* \"contracts/voting.sol\":2343:2376  voters[_addressVoter].flag = true */\n      0x0100\n      exp\n      dup2\n      sload\n      dup2\n      0xff\n      mul\n      not\n      and\n      swap1\n      dup4\n      iszero\n      iszero\n      mul\n      or\n      swap1\n      sstore\n      pop\n        /* \"contracts/voting.sol\":1874:2383  {... */\n      pop\n        /* \"contracts/voting.sol\":1762:2383  function addNewVoter(address _addressVoter, string memory _name, address _contractOwner) public onlyVotingAdmin {... */\n      pop\n      pop\n      pop\n      jump\t// out\n        /* \"contracts/voting.sol\":4430:4963  function delegateVotingRight(address _delegatedTo, address _addressVoter) public {... */\n    tag_22:\n        /* \"contracts/voting.sol\":4537:4557  VotingStatus.ONGOING */\n      0x01\n        /* \"contracts/voting.sol\":4529:4557  status==VotingStatus.ONGOING */\n      0x02\n      dup2\n      gt\n      iszero\n      tag_82\n      jumpi\n      tag_83\n      tag_68\n      jump\t// in\n    tag_83:\n    tag_82:\n        /* \"contracts/voting.sol\":4529:4535  status */\n      0x00\n      0x14\n      swap1\n      sload\n      swap1\n      0x0100\n      exp\n      swap1\n      div\n      0xff\n      and\n        /* \"contracts/voting.sol\":4529:4557  status==VotingStatus.ONGOING */\n      0x02\n      dup2\n      gt\n      iszero\n      tag_84\n      jumpi\n      tag_85\n      tag_68\n      jump\t// in\n    tag_85:\n    tag_84:\n      eq\n        /* \"contracts/voting.sol\":4521:4613  require(status==VotingStatus.ONGOING, \"Voting not in progress. You can not deletegate now.\") */\n      tag_86\n      jumpi\n      mload(0x40)\n      0x08c379a000000000000000000000000000000000000000000000000000000000\n      dup2\n      mstore\n      0x04\n      add\n      tag_87\n      swap1\n      tag_88\n      jump\t// in\n    tag_87:\n      mload(0x40)\n      dup1\n      swap2\n      sub\n      swap1\n      revert\n    tag_86:\n        /* \"contracts/voting.sol\":4643:4656  _addressVoter */\n      dup1\n        /* \"contracts/voting.sol\":4631:4656  msg.sender==_addressVoter */\n      0xffffffffffffffffffffffffffffffffffffffff\n      and\n        /* \"contracts/voting.sol\":4631:4641  msg.sender */\n      caller\n        /* \"contracts/voting.sol\":4631:4656  msg.sender==_addressVoter */\n      0xffffffffffffffffffffffffffffffffffffffff\n      and\n      eq\n        /* \"contracts/voting.sol\":4623:4726  require(msg.sender==_addressVoter, \"Only address owner can delegate voting rights to another address.\") */\n      tag_89\n      jumpi\n      mload(0x40)\n      0x08c379a000000000000000000000000000000000000000000000000000000000\n      dup2\n      mstore\n      0x04\n      add\n      tag_90\n      swap1\n      tag_91\n      jump\t// in\n    tag_90:\n      mload(0x40)\n      dup1\n      swap2\n      sub\n      swap1\n      revert\n    tag_89:\n        /* \"contracts/voting.sol\":4778:4783  false */\n      0x00\n        /* \"contracts/voting.sol\":4744:4783  voters[_addressVoter].hasVoted == false */\n      iszero\n      iszero\n        /* \"contracts/voting.sol\":4744:4750  voters */\n      0x04\n        /* \"contracts/voting.sol\":4744:4765  voters[_addressVoter] */\n      0x00\n        /* \"contracts/voting.sol\":4751:4764  _addressVoter */\n      dup4\n        /* \"contracts/voting.sol\":4744:4765  voters[_addressVoter] */\n      0xffffffffffffffffffffffffffffffffffffffff\n      and\n      0xffffffffffffffffffffffffffffffffffffffff\n      and\n      dup2\n      mstore\n      0x20\n      add\n      swap1\n      dup2\n      mstore\n      0x20\n      add\n      0x00\n      keccak256\n        /* \"contracts/voting.sol\":4744:4774  voters[_addressVoter].hasVoted */\n      0x03\n      add\n      0x14\n      swap1\n      sload\n      swap1\n      0x0100\n      exp\n      swap1\n      div\n      0xff\n      and\n        /* \"contracts/voting.sol\":4744:4783  voters[_addressVoter].hasVoted == false */\n      iszero\n      iszero\n      eq\n        /* \"contracts/voting.sol\":4736:4847  require(voters[_addressVoter].hasVoted == false, \"You can not delegate voting rights. You have already voted.\") */\n      tag_92\n      jumpi\n      mload(0x40)\n      0x08c379a000000000000000000000000000000000000000000000000000000000\n      dup2\n      mstore\n      0x04\n      add\n      tag_93\n      swap1\n      tag_94\n      jump\t// in\n    tag_93:\n      mload(0x40)\n      dup1\n      swap2\n      sub\n      swap1\n      revert\n    tag_92:\n        /* \"contracts/voting.sol\":4893:4905  _delegatedTo */\n      dup2\n        /* \"contracts/voting.sol\":4857:4863  voters */\n      0x04\n        /* \"contracts/voting.sol\":4857:4878  voters[_addressVoter] */\n      0x00\n        /* \"contracts/voting.sol\":4864:4877  _addressVoter */\n      dup4\n        /* \"contracts/voting.sol\":4857:4878  voters[_addressVoter] */\n      0xffffffffffffffffffffffffffffffffffffffff\n      and\n      0xffffffffffffffffffffffffffffffffffffffff\n      and\n      dup2\n      mstore\n      0x20\n      add\n      swap1\n      dup2\n      mstore\n      0x20\n      add\n      0x00\n      keccak256\n        /* \"contracts/voting.sol\":4857:4890  voters[_addressVoter].delegatedTo */\n      0x03\n      add\n      0x00\n        /* \"contracts/voting.sol\":4857:4905  voters[_addressVoter].delegatedTo = _delegatedTo */\n      0x0100\n      exp\n      dup2\n      sload\n      dup2\n      0xffffffffffffffffffffffffffffffffffffffff\n      mul\n      not\n      and\n      swap1\n      dup4\n      0xffffffffffffffffffffffffffffffffffffffff\n      and\n      mul\n      or\n      swap1\n      sstore\n      pop\n        /* \"contracts/voting.sol\":4952:4956  true */\n      0x01\n        /* \"contracts/voting.sol\":4915:4921  voters */\n      0x04\n        /* \"contracts/voting.sol\":4915:4936  voters[_addressVoter] */\n      0x00\n        /* \"contracts/voting.sol\":4922:4935  _addressVoter */\n      dup4\n        /* \"contracts/voting.sol\":4915:4936  voters[_addressVoter] */\n      0xffffffffffffffffffffffffffffffffffffffff\n      and\n      0xffffffffffffffffffffffffffffffffffffffff\n      and\n      dup2\n      mstore\n      0x20\n      add\n      swap1\n      dup2\n      mstore\n      0x20\n      add\n      0x00\n      keccak256\n        /* \"contracts/voting.sol\":4915:4949  voters[_addressVoter].hasDelegated */\n      0x02\n      add\n      0x14\n        /* \"contracts/voting.sol\":4915:4956  voters[_addressVoter].hasDelegated = true */\n      0x0100\n      exp\n      dup2\n      sload\n      dup2\n      0xff\n      mul\n      not\n      and\n      swap1\n      dup4\n      iszero\n      iszero\n      mul\n      or\n      swap1\n      sstore\n      pop\n        /* \"contracts/voting.sol\":4430:4963  function delegateVotingRight(address _delegatedTo, address _addressVoter) public {... */\n      pop\n      pop\n      jump\t// out\n        /* \"contracts/voting.sol\":6376:6775  function showElectionResults(uint256 _candidateId) public view ... */\n    tag_26:\n        /* \"contracts/voting.sol\":6456:6475  uint256 candidateId */\n      0x00\n        /* \"contracts/voting.sol\":6494:6512  string memory name */\n      0x60\n        /* \"contracts/voting.sol\":6530:6547  uint256 voteCount */\n      0x00\n        /* \"contracts/voting.sol\":6588:6612  VotingStatus.NOT_STARTED */\n      dup1\n        /* \"contracts/voting.sol\":6580:6612  status!=VotingStatus.NOT_STARTED */\n      0x02\n      dup2\n      gt\n      iszero\n      tag_96\n      jumpi\n      tag_97\n      tag_68\n      jump\t// in\n    tag_97:\n    tag_96:\n        /* \"contracts/voting.sol\":6580:6586  status */\n      0x00\n      0x14\n      swap1\n      sload\n      swap1\n      0x0100\n      exp\n      swap1\n      div\n      0xff\n      and\n        /* \"contracts/voting.sol\":6580:6612  status!=VotingStatus.NOT_STARTED */\n      0x02\n      dup2\n      gt\n      iszero\n      tag_98\n      jumpi\n      tag_99\n      tag_68\n      jump\t// in\n    tag_99:\n    tag_98:\n      sub\n        /* \"contracts/voting.sol\":6572:6635  require(status!=VotingStatus.NOT_STARTED, \"Voting not started\") */\n      tag_100\n      jumpi\n      mload(0x40)\n      0x08c379a000000000000000000000000000000000000000000000000000000000\n      dup2\n      mstore\n      0x04\n      add\n      tag_101\n      swap1\n      tag_102\n      jump\t// in\n    tag_101:\n      mload(0x40)\n      dup1\n      swap2\n      sub\n      swap1\n      revert\n    tag_100:\n        /* \"contracts/voting.sol\":6665:6677  _candidateId */\n      dup4\n        /* \"contracts/voting.sol\":6691:6701  candidates */\n      0x03\n        /* \"contracts/voting.sol\":6691:6715  candidates[_candidateId] */\n      0x00\n        /* \"contracts/voting.sol\":6702:6714  _candidateId */\n      dup7\n        /* \"contracts/voting.sol\":6691:6715  candidates[_candidateId] */\n      dup2\n      mstore\n      0x20\n      add\n      swap1\n      dup2\n      mstore\n      0x20\n      add\n      0x00\n      keccak256\n        /* \"contracts/voting.sol\":6691:6720  candidates[_candidateId].name */\n      0x01\n      add\n        /* \"contracts/voting.sol\":6734:6744  voteCounts */\n      0x05\n        /* \"contracts/voting.sol\":6734:6758  voteCounts[_candidateId] */\n      0x00\n        /* \"contracts/voting.sol\":6745:6757  _candidateId */\n      dup8\n        /* \"contracts/voting.sol\":6734:6758  voteCounts[_candidateId] */\n      dup2\n      mstore\n      0x20\n      add\n      swap1\n      dup2\n      mstore\n      0x20\n      add\n      0x00\n      keccak256\n      sload\n        /* \"contracts/voting.sol\":6645:6768  return(... */\n      dup2\n      dup1\n      sload\n      tag_103\n      swap1\n      tag_104\n      jump\t// in\n    tag_103:\n      dup1\n      0x1f\n      add\n      0x20\n      dup1\n      swap2\n      div\n      mul\n      0x20\n      add\n      mload(0x40)\n      swap1\n      dup2\n      add\n      0x40\n      mstore\n      dup1\n      swap3\n      swap2\n      swap1\n      dup2\n      dup2\n      mstore\n      0x20\n      add\n      dup3\n      dup1\n      sload\n      tag_105\n      swap1\n      tag_104\n      jump\t// in\n    tag_105:\n      dup1\n      iszero\n      tag_106\n      jumpi\n      dup1\n      0x1f\n      lt\n      tag_107\n      jumpi\n      0x0100\n      dup1\n      dup4\n      sload\n      div\n      mul\n      dup4\n      mstore\n      swap2\n      0x20\n      add\n      swap2\n      jump(tag_106)\n    tag_107:\n      dup3\n      add\n      swap2\n      swap1\n      0x00\n      mstore\n      keccak256(0x00, 0x20)\n      swap1\n    tag_108:\n      dup2\n      sload\n      dup2\n      mstore\n      swap1\n      0x01\n      add\n      swap1\n      0x20\n      add\n      dup1\n      dup4\n      gt\n      tag_108\n      jumpi\n      dup3\n      swap1\n      sub\n      0x1f\n      and\n      dup3\n      add\n      swap2\n    tag_106:\n      pop\n      pop\n      pop\n      pop\n      pop\n      swap2\n      pop\n      swap3\n      pop\n      swap3\n      pop\n      swap3\n      pop\n        /* \"contracts/voting.sol\":6376:6775  function showElectionResults(uint256 _candidateId) public view ... */\n      swap2\n      swap4\n      swap1\n      swap3\n      pop\n      jump\t// out\n        /* \"contracts/voting.sol\":6053:6338  function endElection() public onlyVotingAdmin(){... */\n    tag_30:\n        /* \"contracts/voting.sol\":302:313  votingAdmin */\n      0x00\n      dup1\n      sload\n      swap1\n      0x0100\n      exp\n      swap1\n      div\n      0xffffffffffffffffffffffffffffffffffffffff\n      and\n        /* \"contracts/voting.sol\":288:313  msg.sender == votingAdmin */\n      0xffffffffffffffffffffffffffffffffffffffff\n      and\n        /* \"contracts/voting.sol\":288:298  msg.sender */\n      caller\n        /* \"contracts/voting.sol\":288:313  msg.sender == votingAdmin */\n      0xffffffffffffffffffffffffffffffffffffffff\n      and\n      eq\n        /* \"contracts/voting.sol\":280:314  require(msg.sender == votingAdmin) */\n      tag_110\n      jumpi\n      0x00\n      dup1\n      revert\n    tag_110:\n        /* \"contracts/voting.sol\":6124:6148  VotingStatus.NOT_STARTED */\n      0x00\n        /* \"contracts/voting.sol\":6114:6148  status == VotingStatus.NOT_STARTED */\n      0x02\n      dup2\n      gt\n      iszero\n      tag_112\n      jumpi\n      tag_113\n      tag_68\n      jump\t// in\n    tag_113:\n    tag_112:\n        /* \"contracts/voting.sol\":6114:6120  status */\n      0x00\n      0x14\n      swap1\n      sload\n      swap1\n      0x0100\n      exp\n      swap1\n      div\n      0xff\n      and\n        /* \"contracts/voting.sol\":6114:6148  status == VotingStatus.NOT_STARTED */\n      0x02\n      dup2\n      gt\n      iszero\n      tag_114\n      jumpi\n      tag_115\n      tag_68\n      jump\t// in\n    tag_115:\n    tag_114:\n      sub\n        /* \"contracts/voting.sol\":6110:6291  if( status == VotingStatus.NOT_STARTED){... */\n      tag_116\n      jumpi\n        /* \"contracts/voting.sol\":6163:6191  revert(\"voting not started\") */\n      mload(0x40)\n      0x08c379a000000000000000000000000000000000000000000000000000000000\n      dup2\n      mstore\n      0x04\n      add\n      tag_117\n      swap1\n      tag_118\n      jump\t// in\n    tag_117:\n      mload(0x40)\n      dup1\n      swap2\n      sub\n      swap1\n      revert\n        /* \"contracts/voting.sol\":6110:6291  if( status == VotingStatus.NOT_STARTED){... */\n    tag_116:\n        /* \"contracts/voting.sol\":6221:6243  VotingStatus.COMPLETED */\n      0x02\n        /* \"contracts/voting.sol\":6211:6243  status == VotingStatus.COMPLETED */\n      dup1\n      dup2\n      gt\n      iszero\n      tag_120\n      jumpi\n      tag_121\n      tag_68\n      jump\t// in\n    tag_121:\n    tag_120:\n        /* \"contracts/voting.sol\":6211:6217  status */\n      0x00\n      0x14\n      swap1\n      sload\n      swap1\n      0x0100\n      exp\n      swap1\n      div\n      0xff\n      and\n        /* \"contracts/voting.sol\":6211:6243  status == VotingStatus.COMPLETED */\n      0x02\n      dup2\n      gt\n      iszero\n      tag_122\n      jumpi\n      tag_123\n      tag_68\n      jump\t// in\n    tag_123:\n    tag_122:\n      sub\n        /* \"contracts/voting.sol\":6207:6291  if (status == VotingStatus.COMPLETED){... */\n      tag_124\n      jumpi\n        /* \"contracts/voting.sol\":6258:6280  revert(\"voting ended\") */\n      mload(0x40)\n      0x08c379a000000000000000000000000000000000000000000000000000000000\n      dup2\n      mstore\n      0x04\n      add\n      tag_125\n      swap1\n      tag_126\n      jump\t// in\n    tag_125:\n      mload(0x40)\n      dup1\n      swap2\n      sub\n      swap1\n      revert\n        /* \"contracts/voting.sol\":6207:6291  if (status == VotingStatus.COMPLETED){... */\n    tag_124:\n        /* \"contracts/voting.sol\":6309:6331  VotingStatus.COMPLETED */\n      0x02\n        /* \"contracts/voting.sol\":6300:6306  status */\n      0x00\n      0x14\n        /* \"contracts/voting.sol\":6300:6331  status = VotingStatus.COMPLETED */\n      0x0100\n      exp\n      dup2\n      sload\n      dup2\n      0xff\n      mul\n      not\n      and\n      swap1\n      dup4\n      0x02\n      dup2\n      gt\n      iszero\n      tag_127\n      jumpi\n      tag_128\n      tag_68\n      jump\t// in\n    tag_128:\n    tag_127:\n      mul\n      or\n      swap1\n      sstore\n      pop\n        /* \"contracts/voting.sol\":6053:6338  function endElection() public onlyVotingAdmin(){... */\n      jump\t// out\n        /* \"contracts/voting.sol\":1163:1730  function addNewCandidate(string memory _name, string memory _proposal, address _contractOwner) public onlyVotingAdmin {... */\n    tag_34:\n        /* \"contracts/voting.sol\":302:313  votingAdmin */\n      0x00\n      dup1\n      sload\n      swap1\n      0x0100\n      exp\n      swap1\n      div\n      0xffffffffffffffffffffffffffffffffffffffff\n      and\n        /* \"contracts/voting.sol\":288:313  msg.sender == votingAdmin */\n      0xffffffffffffffffffffffffffffffffffffffff\n      and\n        /* \"contracts/voting.sol\":288:298  msg.sender */\n      caller\n        /* \"contracts/voting.sol\":288:313  msg.sender == votingAdmin */\n      0xffffffffffffffffffffffffffffffffffffffff\n      and\n      eq\n        /* \"contracts/voting.sol\":280:314  require(msg.sender == votingAdmin) */\n      tag_130\n      jumpi\n      0x00\n      dup1\n      revert\n    tag_130:\n        /* \"contracts/voting.sol\":1317:1328  votingAdmin */\n      0x00\n      dup1\n      sload\n      swap1\n      0x0100\n      exp\n      swap1\n      div\n      0xffffffffffffffffffffffffffffffffffffffff\n      and\n        /* \"contracts/voting.sol\":1299:1328  _contractOwner == votingAdmin */\n      0xffffffffffffffffffffffffffffffffffffffff\n      and\n        /* \"contracts/voting.sol\":1299:1313  _contractOwner */\n      dup2\n        /* \"contracts/voting.sol\":1299:1328  _contractOwner == votingAdmin */\n      0xffffffffffffffffffffffffffffffffffffffff\n      and\n      eq\n        /* \"contracts/voting.sol\":1291:1366  require(_contractOwner == votingAdmin, \"Only admin has access to do this.\") */\n      tag_132\n      jumpi\n      mload(0x40)\n      0x08c379a000000000000000000000000000000000000000000000000000000000\n      dup2\n      mstore\n      0x04\n      add\n      tag_133\n      swap1\n      tag_65\n      jump\t// in\n    tag_133:\n      mload(0x40)\n      dup1\n      swap2\n      sub\n      swap1\n      revert\n    tag_132:\n        /* \"contracts/voting.sol\":1392:1416  VotingStatus.NOT_STARTED */\n      0x00\n        /* \"contracts/voting.sol\":1384:1416  status==VotingStatus.NOT_STARTED */\n      0x02\n      dup2\n      gt\n      iszero\n      tag_134\n      jumpi\n      tag_135\n      tag_68\n      jump\t// in\n    tag_135:\n    tag_134:\n        /* \"contracts/voting.sol\":1384:1390  status */\n      0x00\n      0x14\n      swap1\n      sload\n      swap1\n      0x0100\n      exp\n      swap1\n      div\n      0xff\n      and\n        /* \"contracts/voting.sol\":1384:1416  status==VotingStatus.NOT_STARTED */\n      0x02\n      dup2\n      gt\n      iszero\n      tag_136\n      jumpi\n      tag_137\n      tag_68\n      jump\t// in\n    tag_137:\n    tag_136:\n      eq\n        /* \"contracts/voting.sol\":1376:1456  require(status==VotingStatus.NOT_STARTED, \"Voting already started or completed\") */\n      tag_138\n      jumpi\n      mload(0x40)\n      0x08c379a000000000000000000000000000000000000000000000000000000000\n      dup2\n      mstore\n      0x04\n      add\n      tag_139\n      swap1\n      tag_73\n      jump\t// in\n    tag_139:\n      mload(0x40)\n      dup1\n      swap2\n      sub\n      swap1\n      revert\n    tag_138:\n        /* \"contracts/voting.sol\":1466:1480  candidateCount */\n      0x01\n      0x00\n        /* \"contracts/voting.sol\":1466:1482  candidateCount++ */\n      dup2\n      sload\n      dup1\n      swap3\n      swap2\n      swap1\n      tag_140\n      swap1\n      tag_78\n      jump\t// in\n    tag_140:\n      swap2\n      swap1\n      pop\n      sstore\n      pop\n        /* \"contracts/voting.sol\":1492:1511  uint256 candidateId */\n      0x00\n        /* \"contracts/voting.sol\":1514:1528  candidateCount */\n      sload(0x01)\n        /* \"contracts/voting.sol\":1492:1528  uint256 candidateId = candidateCount */\n      swap1\n      pop\n        /* \"contracts/voting.sol\":1567:1578  candidateId */\n      dup1\n        /* \"contracts/voting.sol\":1538:1548  candidates */\n      0x03\n        /* \"contracts/voting.sol\":1538:1561  candidates[candidateId] */\n      0x00\n        /* \"contracts/voting.sol\":1549:1560  candidateId */\n      dup4\n        /* \"contracts/voting.sol\":1538:1561  candidates[candidateId] */\n      dup2\n      mstore\n      0x20\n      add\n      swap1\n      dup2\n      mstore\n      0x20\n      add\n      0x00\n      keccak256\n        /* \"contracts/voting.sol\":1538:1564  candidates[candidateId].id */\n      0x00\n      add\n        /* \"contracts/voting.sol\":1538:1578  candidates[candidateId].id = candidateId */\n      dup2\n      swap1\n      sstore\n      pop\n        /* \"contracts/voting.sol\":1619:1624  _name */\n      dup4\n        /* \"contracts/voting.sol\":1588:1598  candidates */\n      0x03\n        /* \"contracts/voting.sol\":1588:1611  candidates[candidateId] */\n      0x00\n        /* \"contracts/voting.sol\":1599:1610  candidateId */\n      dup4\n        /* \"contracts/voting.sol\":1588:1611  candidates[candidateId] */\n      dup2\n      mstore\n      0x20\n      add\n      swap1\n      dup2\n      mstore\n      0x20\n      add\n      0x00\n      keccak256\n        /* \"contracts/voting.sol\":1588:1616  candidates[candidateId].name */\n      0x01\n      add\n        /* \"contracts/voting.sol\":1588:1624  candidates[candidateId].name = _name */\n      swap1\n      dup2\n      tag_141\n      swap2\n      swap1\n      tag_80\n      jump\t// in\n    tag_141:\n      pop\n        /* \"contracts/voting.sol\":1669:1678  _proposal */\n      dup3\n        /* \"contracts/voting.sol\":1634:1644  candidates */\n      0x03\n        /* \"contracts/voting.sol\":1634:1657  candidates[candidateId] */\n      0x00\n        /* \"contracts/voting.sol\":1645:1656  candidateId */\n      dup4\n        /* \"contracts/voting.sol\":1634:1657  candidates[candidateId] */\n      dup2\n      mstore\n      0x20\n      add\n      swap1\n      dup2\n      mstore\n      0x20\n      add\n      0x00\n      keccak256\n        /* \"contracts/voting.sol\":1634:1666  candidates[candidateId].proposal */\n      0x02\n      add\n        /* \"contracts/voting.sol\":1634:1678  candidates[candidateId].proposal = _proposal */\n      swap1\n      dup2\n      tag_142\n      swap2\n      swap1\n      tag_80\n      jump\t// in\n    tag_142:\n      pop\n        /* \"contracts/voting.sol\":1719:1723  true */\n      0x01\n        /* \"contracts/voting.sol\":1688:1698  candidates */\n      0x03\n        /* \"contracts/voting.sol\":1688:1711  candidates[candidateId] */\n      0x00\n        /* \"contracts/voting.sol\":1699:1710  candidateId */\n      dup4\n        /* \"contracts/voting.sol\":1688:1711  candidates[candidateId] */\n      dup2\n      mstore\n      0x20\n      add\n      swap1\n      dup2\n      mstore\n      0x20\n      add\n      0x00\n      keccak256\n        /* \"contracts/voting.sol\":1688:1716  candidates[candidateId].flag */\n      0x03\n      add\n      0x00\n        /* \"contracts/voting.sol\":1688:1723  candidates[candidateId].flag = true */\n      0x0100\n      exp\n      dup2\n      sload\n      dup2\n      0xff\n      mul\n      not\n      and\n      swap1\n      dup4\n      iszero\n      iszero\n      mul\n      or\n      swap1\n      sstore\n      pop\n        /* \"contracts/voting.sol\":1281:1730  {... */\n      pop\n        /* \"contracts/voting.sol\":1163:1730  function addNewCandidate(string memory _name, string memory _proposal, address _contractOwner) public onlyVotingAdmin {... */\n      pop\n      pop\n      pop\n      jump\t// out\n        /* \"contracts/voting.sol\":4993:6020  function castVote(uint256 _candidateId, address _addressVoter) public {... */\n    tag_38:\n        /* \"contracts/voting.sol\":5089:5109  VotingStatus.ONGOING */\n      0x01\n        /* \"contracts/voting.sol\":5081:5109  status==VotingStatus.ONGOING */\n      0x02\n      dup2\n      gt\n      iszero\n      tag_144\n      jumpi\n      tag_145\n      tag_68\n      jump\t// in\n    tag_145:\n    tag_144:\n        /* \"contracts/voting.sol\":5081:5087  status */\n      0x00\n      0x14\n      swap1\n      sload\n      swap1\n      0x0100\n      exp\n      swap1\n      div\n      0xff\n      and\n        /* \"contracts/voting.sol\":5081:5109  status==VotingStatus.ONGOING */\n      0x02\n      dup2\n      gt\n      iszero\n      tag_146\n      jumpi\n      tag_147\n      tag_68\n      jump\t// in\n    tag_147:\n    tag_146:\n      eq\n        /* \"contracts/voting.sol\":5073:5159  require(status==VotingStatus.ONGOING, \"Voting not in progress. You can not vote now.\") */\n      tag_148\n      jumpi\n      mload(0x40)\n      0x08c379a000000000000000000000000000000000000000000000000000000000\n      dup2\n      mstore\n      0x04\n      add\n      tag_149\n      swap1\n      tag_150\n      jump\t// in\n    tag_149:\n      mload(0x40)\n      dup1\n      swap2\n      sub\n      swap1\n      revert\n    tag_148:\n        /* \"contracts/voting.sol\":5192:5193  0 */\n      0x00\n        /* \"contracts/voting.sol\":5177:5191  candidateCount */\n      sload(0x01)\n        /* \"contracts/voting.sol\":5177:5193  candidateCount>0 */\n      gt\n        /* \"contracts/voting.sol\":5169:5221  require(candidateCount>0, \"0 candidates registered\") */\n      tag_151\n      jumpi\n      mload(0x40)\n      0x08c379a000000000000000000000000000000000000000000000000000000000\n      dup2\n      mstore\n      0x04\n      add\n      tag_152\n      swap1\n      tag_153\n      jump\t// in\n    tag_152:\n      mload(0x40)\n      dup1\n      swap2\n      sub\n      swap1\n      revert\n    tag_151:\n        /* \"contracts/voting.sol\":5239:5249  candidates */\n      0x03\n        /* \"contracts/voting.sol\":5239:5263  candidates[_candidateId] */\n      0x00\n        /* \"contracts/voting.sol\":5250:5262  _candidateId */\n      dup4\n        /* \"contracts/voting.sol\":5239:5263  candidates[_candidateId] */\n      dup2\n      mstore\n      0x20\n      add\n      swap1\n      dup2\n      mstore\n      0x20\n      add\n      0x00\n      keccak256\n        /* \"contracts/voting.sol\":5239:5268  candidates[_candidateId].flag */\n      0x03\n      add\n      0x00\n      swap1\n      sload\n      swap1\n      0x0100\n      exp\n      swap1\n      div\n      0xff\n      and\n        /* \"contracts/voting.sol\":5231:5305  require(candidates[_candidateId].flag, \"candidate with id does not exist\") */\n      tag_154\n      jumpi\n      mload(0x40)\n      0x08c379a000000000000000000000000000000000000000000000000000000000\n      dup2\n      mstore\n      0x04\n      add\n      tag_155\n      swap1\n      tag_156\n      jump\t// in\n    tag_155:\n      mload(0x40)\n      dup1\n      swap2\n      sub\n      swap1\n      revert\n    tag_154:\n        /* \"contracts/voting.sol\":5323:5329  voters */\n      0x04\n        /* \"contracts/voting.sol\":5323:5344  voters[_addressVoter] */\n      0x00\n        /* \"contracts/voting.sol\":5330:5343  _addressVoter */\n      dup3\n        /* \"contracts/voting.sol\":5323:5344  voters[_addressVoter] */\n      0xffffffffffffffffffffffffffffffffffffffff\n      and\n      0xffffffffffffffffffffffffffffffffffffffff\n      and\n      dup2\n      mstore\n      0x20\n      add\n      swap1\n      dup2\n      mstore\n      0x20\n      add\n      0x00\n      keccak256\n        /* \"contracts/voting.sol\":5323:5349  voters[_addressVoter].flag */\n      0x05\n      add\n      0x00\n      swap1\n      sload\n      swap1\n      0x0100\n      exp\n      swap1\n      div\n      0xff\n      and\n        /* \"contracts/voting.sol\":5315:5387  require(voters[_addressVoter].flag, \"voter with address does not exist\") */\n      tag_157\n      jumpi\n      mload(0x40)\n      0x08c379a000000000000000000000000000000000000000000000000000000000\n      dup2\n      mstore\n      0x04\n      add\n      tag_158\n      swap1\n      tag_159\n      jump\t// in\n    tag_158:\n      mload(0x40)\n      dup1\n      swap2\n      sub\n      swap1\n      revert\n    tag_157:\n        /* \"contracts/voting.sol\":5437:5442  false */\n      0x00\n        /* \"contracts/voting.sol\":5405:5442  voters[_addressVoter].hasVoted==false */\n      iszero\n      iszero\n        /* \"contracts/voting.sol\":5405:5411  voters */\n      0x04\n        /* \"contracts/voting.sol\":5405:5426  voters[_addressVoter] */\n      0x00\n        /* \"contracts/voting.sol\":5412:5425  _addressVoter */\n      dup4\n        /* \"contracts/voting.sol\":5405:5426  voters[_addressVoter] */\n      0xffffffffffffffffffffffffffffffffffffffff\n      and\n      0xffffffffffffffffffffffffffffffffffffffff\n      and\n      dup2\n      mstore\n      0x20\n      add\n      swap1\n      dup2\n      mstore\n      0x20\n      add\n      0x00\n      keccak256\n        /* \"contracts/voting.sol\":5405:5435  voters[_addressVoter].hasVoted */\n      0x03\n      add\n      0x14\n      swap1\n      sload\n      swap1\n      0x0100\n      exp\n      swap1\n      div\n      0xff\n      and\n        /* \"contracts/voting.sol\":5405:5442  voters[_addressVoter].hasVoted==false */\n      iszero\n      iszero\n      eq\n        /* \"contracts/voting.sol\":5397:5466  require(voters[_addressVoter].hasVoted==false, \"Vote already placed\") */\n      tag_160\n      jumpi\n      mload(0x40)\n      0x08c379a000000000000000000000000000000000000000000000000000000000\n      dup2\n      mstore\n      0x04\n      add\n      tag_161\n      swap1\n      tag_162\n      jump\t// in\n    tag_161:\n      mload(0x40)\n      dup1\n      swap2\n      sub\n      swap1\n      revert\n    tag_160:\n        /* \"contracts/voting.sol\":5518:5523  false */\n      0x00\n        /* \"contracts/voting.sol\":5480:5523  voters[_addressVoter].hasDelegated == false */\n      iszero\n      iszero\n        /* \"contracts/voting.sol\":5480:5486  voters */\n      0x04\n        /* \"contracts/voting.sol\":5480:5501  voters[_addressVoter] */\n      0x00\n        /* \"contracts/voting.sol\":5487:5500  _addressVoter */\n      dup4\n        /* \"contracts/voting.sol\":5480:5501  voters[_addressVoter] */\n      0xffffffffffffffffffffffffffffffffffffffff\n      and\n      0xffffffffffffffffffffffffffffffffffffffff\n      and\n      dup2\n      mstore\n      0x20\n      add\n      swap1\n      dup2\n      mstore\n      0x20\n      add\n      0x00\n      keccak256\n        /* \"contracts/voting.sol\":5480:5514  voters[_addressVoter].hasDelegated */\n      0x02\n      add\n      0x14\n      swap1\n      sload\n      swap1\n      0x0100\n      exp\n      swap1\n      div\n      0xff\n      and\n        /* \"contracts/voting.sol\":5480:5523  voters[_addressVoter].hasDelegated == false */\n      iszero\n      iszero\n      sub\n        /* \"contracts/voting.sol\":5476:5844  if (voters[_addressVoter].hasDelegated == false){... */\n      tag_163\n      jumpi\n        /* \"contracts/voting.sol\":5560:5573  _addressVoter */\n      dup1\n        /* \"contracts/voting.sol\":5546:5573  msg.sender == _addressVoter */\n      0xffffffffffffffffffffffffffffffffffffffff\n      and\n        /* \"contracts/voting.sol\":5546:5556  msg.sender */\n      caller\n        /* \"contracts/voting.sol\":5546:5573  msg.sender == _addressVoter */\n      0xffffffffffffffffffffffffffffffffffffffff\n      and\n      eq\n        /* \"contracts/voting.sol\":5538:5638  require(msg.sender == _addressVoter, \"you can not vote for this address. You don't own the address\") */\n      tag_164\n      jumpi\n      mload(0x40)\n      0x08c379a000000000000000000000000000000000000000000000000000000000\n      dup2\n      mstore\n      0x04\n      add\n      tag_165\n      swap1\n      tag_166\n      jump\t// in\n    tag_165:\n      mload(0x40)\n      dup1\n      swap2\n      sub\n      swap1\n      revert\n    tag_164:\n        /* \"contracts/voting.sol\":5476:5844  if (voters[_addressVoter].hasDelegated == false){... */\n      jump(tag_167)\n    tag_163:\n        /* \"contracts/voting.sol\":5657:5663  voters */\n      0x04\n        /* \"contracts/voting.sol\":5657:5678  voters[_addressVoter] */\n      0x00\n        /* \"contracts/voting.sol\":5664:5677  _addressVoter */\n      dup3\n        /* \"contracts/voting.sol\":5657:5678  voters[_addressVoter] */\n      0xffffffffffffffffffffffffffffffffffffffff\n      and\n      0xffffffffffffffffffffffffffffffffffffffff\n      and\n      dup2\n      mstore\n      0x20\n      add\n      swap1\n      dup2\n      mstore\n      0x20\n      add\n      0x00\n      keccak256\n        /* \"contracts/voting.sol\":5657:5691  voters[_addressVoter].hasDelegated */\n      0x02\n      add\n      0x14\n      swap1\n      sload\n      swap1\n      0x0100\n      exp\n      swap1\n      div\n      0xff\n      and\n        /* \"contracts/voting.sol\":5654:5844  if(voters[_addressVoter].hasDelegated){... */\n      iszero\n      tag_168\n      jumpi\n        /* \"contracts/voting.sol\":5726:5732  voters */\n      0x04\n        /* \"contracts/voting.sol\":5726:5747  voters[_addressVoter] */\n      0x00\n        /* \"contracts/voting.sol\":5733:5746  _addressVoter */\n      dup3\n        /* \"contracts/voting.sol\":5726:5747  voters[_addressVoter] */\n      0xffffffffffffffffffffffffffffffffffffffff\n      and\n      0xffffffffffffffffffffffffffffffffffffffff\n      and\n      dup2\n      mstore\n      0x20\n      add\n      swap1\n      dup2\n      mstore\n      0x20\n      add\n      0x00\n      keccak256\n        /* \"contracts/voting.sol\":5726:5759  voters[_addressVoter].delegatedTo */\n      0x03\n      add\n      0x00\n      swap1\n      sload\n      swap1\n      0x0100\n      exp\n      swap1\n      div\n      0xffffffffffffffffffffffffffffffffffffffff\n      and\n        /* \"contracts/voting.sol\":5714:5759  msg.sender==voters[_addressVoter].delegatedTo */\n      0xffffffffffffffffffffffffffffffffffffffff\n      and\n        /* \"contracts/voting.sol\":5714:5724  msg.sender */\n      caller\n        /* \"contracts/voting.sol\":5714:5759  msg.sender==voters[_addressVoter].delegatedTo */\n      0xffffffffffffffffffffffffffffffffffffffff\n      and\n      eq\n        /* \"contracts/voting.sol\":5706:5833  require(msg.sender==voters[_addressVoter].delegatedTo, \"You don't own the address. The address owner has not delegated to you\") */\n      tag_169\n      jumpi\n      mload(0x40)\n      0x08c379a000000000000000000000000000000000000000000000000000000000\n      dup2\n      mstore\n      0x04\n      add\n      tag_170\n      swap1\n      tag_171\n      jump\t// in\n    tag_170:\n      mload(0x40)\n      dup1\n      swap2\n      sub\n      swap1\n      revert\n    tag_169:\n        /* \"contracts/voting.sol\":5654:5844  if(voters[_addressVoter].hasDelegated){... */\n    tag_168:\n        /* \"contracts/voting.sol\":5476:5844  if (voters[_addressVoter].hasDelegated == false){... */\n    tag_167:\n        /* \"contracts/voting.sol\":5908:5909  1 */\n      0x01\n        /* \"contracts/voting.sol\":5881:5891  voteCounts */\n      0x05\n        /* \"contracts/voting.sol\":5881:5905  voteCounts[_candidateId] */\n      0x00\n        /* \"contracts/voting.sol\":5892:5904  _candidateId */\n      dup5\n        /* \"contracts/voting.sol\":5881:5905  voteCounts[_candidateId] */\n      dup2\n      mstore\n      0x20\n      add\n      swap1\n      dup2\n      mstore\n      0x20\n      add\n      0x00\n      keccak256\n      sload\n        /* \"contracts/voting.sol\":5881:5909  voteCounts[_candidateId] + 1 */\n      tag_172\n      swap2\n      swap1\n      tag_173\n      jump\t// in\n    tag_172:\n        /* \"contracts/voting.sol\":5853:5863  voteCounts */\n      0x05\n        /* \"contracts/voting.sol\":5853:5877  voteCounts[_candidateId] */\n      0x00\n        /* \"contracts/voting.sol\":5864:5876  _candidateId */\n      dup5\n        /* \"contracts/voting.sol\":5853:5877  voteCounts[_candidateId] */\n      dup2\n      mstore\n      0x20\n      add\n      swap1\n      dup2\n      mstore\n      0x20\n      add\n      0x00\n      keccak256\n        /* \"contracts/voting.sol\":5853:5909  voteCounts[_candidateId] =  voteCounts[_candidateId] + 1 */\n      dup2\n      swap1\n      sstore\n      pop\n        /* \"contracts/voting.sol\":5954:5966  _candidateId */\n      dup2\n        /* \"contracts/voting.sol\":5919:5925  voters */\n      0x04\n        /* \"contracts/voting.sol\":5919:5940  voters[_addressVoter] */\n      0x00\n        /* \"contracts/voting.sol\":5926:5939  _addressVoter */\n      dup4\n        /* \"contracts/voting.sol\":5919:5940  voters[_addressVoter] */\n      0xffffffffffffffffffffffffffffffffffffffff\n      and\n      0xffffffffffffffffffffffffffffffffffffffff\n      and\n      dup2\n      mstore\n      0x20\n      add\n      swap1\n      dup2\n      mstore\n      0x20\n      add\n      0x00\n      keccak256\n        /* \"contracts/voting.sol\":5919:5951  voters[_addressVoter].cadidateId */\n      0x04\n      add\n        /* \"contracts/voting.sol\":5919:5966  voters[_addressVoter].cadidateId = _candidateId */\n      dup2\n      swap1\n      sstore\n      pop\n        /* \"contracts/voting.sol\":6009:6013  true */\n      0x01\n        /* \"contracts/voting.sol\":5976:5982  voters */\n      0x04\n        /* \"contracts/voting.sol\":5976:5997  voters[_addressVoter] */\n      0x00\n        /* \"contracts/voting.sol\":5983:5996  _addressVoter */\n      dup4\n        /* \"contracts/voting.sol\":5976:5997  voters[_addressVoter] */\n      0xffffffffffffffffffffffffffffffffffffffff\n      and\n      0xffffffffffffffffffffffffffffffffffffffff\n      and\n      dup2\n      mstore\n      0x20\n      add\n      swap1\n      dup2\n      mstore\n      0x20\n      add\n      0x00\n      keccak256\n        /* \"contracts/voting.sol\":5976:6006  voters[_addressVoter].hasVoted */\n      0x03\n      add\n      0x14\n        /* \"contracts/voting.sol\":5976:6013  voters[_addressVoter].hasVoted = true */\n      0x0100\n      exp\n      dup2\n      sload\n      dup2\n      0xff\n      mul\n      not\n      and\n      swap1\n      dup4\n      iszero\n      iszero\n      mul\n      or\n      swap1\n      sstore\n      pop\n        /* \"contracts/voting.sol\":4993:6020  function castVote(uint256 _candidateId, address _addressVoter) public {... */\n      pop\n      pop\n      jump\t// out\n        /* \"contracts/voting.sol\":3120:3569  function displayCandidateDetails(uint256 _candidateId) public view ... */\n    tag_41:\n        /* \"contracts/voting.sol\":3218:3237  uint256 candidateId */\n      0x00\n        /* \"contracts/voting.sol\":3251:3273  string memory proposal */\n      0x60\n        /* \"contracts/voting.sol\":3287:3305  string memory name */\n      dup1\n        /* \"contracts/voting.sol\":3338:3348  candidates */\n      0x03\n        /* \"contracts/voting.sol\":3338:3362  candidates[_candidateId] */\n      0x00\n        /* \"contracts/voting.sol\":3349:3361  _candidateId */\n      dup6\n        /* \"contracts/voting.sol\":3338:3362  candidates[_candidateId] */\n      dup2\n      mstore\n      0x20\n      add\n      swap1\n      dup2\n      mstore\n      0x20\n      add\n      0x00\n      keccak256\n        /* \"contracts/voting.sol\":3338:3367  candidates[_candidateId].flag */\n      0x03\n      add\n      0x00\n      swap1\n      sload\n      swap1\n      0x0100\n      exp\n      swap1\n      div\n      0xff\n      and\n        /* \"contracts/voting.sol\":3330:3404  require(candidates[_candidateId].flag, \"Candidate with id does not exist\") */\n      tag_175\n      jumpi\n      mload(0x40)\n      0x08c379a000000000000000000000000000000000000000000000000000000000\n      dup2\n      mstore\n      0x04\n      add\n      tag_176\n      swap1\n      tag_177\n      jump\t// in\n    tag_176:\n      mload(0x40)\n      dup1\n      swap2\n      sub\n      swap1\n      revert\n    tag_175:\n        /* \"contracts/voting.sol\":3435:3445  candidates */\n      0x03\n        /* \"contracts/voting.sol\":3435:3459  candidates[_candidateId] */\n      0x00\n        /* \"contracts/voting.sol\":3446:3458  _candidateId */\n      dup6\n        /* \"contracts/voting.sol\":3435:3459  candidates[_candidateId] */\n      dup2\n      mstore\n      0x20\n      add\n      swap1\n      dup2\n      mstore\n      0x20\n      add\n      0x00\n      keccak256\n        /* \"contracts/voting.sol\":3435:3462  candidates[_candidateId].id */\n      0x00\n      add\n      sload\n        /* \"contracts/voting.sol\":3476:3486  candidates */\n      0x03\n        /* \"contracts/voting.sol\":3476:3500  candidates[_candidateId] */\n      0x00\n        /* \"contracts/voting.sol\":3487:3499  _candidateId */\n      dup7\n        /* \"contracts/voting.sol\":3476:3500  candidates[_candidateId] */\n      dup2\n      mstore\n      0x20\n      add\n      swap1\n      dup2\n      mstore\n      0x20\n      add\n      0x00\n      keccak256\n        /* \"contracts/voting.sol\":3476:3509  candidates[_candidateId].proposal */\n      0x02\n      add\n        /* \"contracts/voting.sol\":3523:3533  candidates */\n      0x03\n        /* \"contracts/voting.sol\":3523:3547  candidates[_candidateId] */\n      0x00\n        /* \"contracts/voting.sol\":3534:3546  _candidateId */\n      dup8\n        /* \"contracts/voting.sol\":3523:3547  candidates[_candidateId] */\n      dup2\n      mstore\n      0x20\n      add\n      swap1\n      dup2\n      mstore\n      0x20\n      add\n      0x00\n      keccak256\n        /* \"contracts/voting.sol\":3523:3552  candidates[_candidateId].name */\n      0x01\n      add\n        /* \"contracts/voting.sol\":3414:3562  return (... */\n      dup2\n      dup1\n      sload\n      tag_178\n      swap1\n      tag_104\n      jump\t// in\n    tag_178:\n      dup1\n      0x1f\n      add\n      0x20\n      dup1\n      swap2\n      div\n      mul\n      0x20\n      add\n      mload(0x40)\n      swap1\n      dup2\n      add\n      0x40\n      mstore\n      dup1\n      swap3\n      swap2\n      swap1\n      dup2\n      dup2\n      mstore\n      0x20\n      add\n      dup3\n      dup1\n      sload\n      tag_179\n      swap1\n      tag_104\n      jump\t// in\n    tag_179:\n      dup1\n      iszero\n      tag_180\n      jumpi\n      dup1\n      0x1f\n      lt\n      tag_181\n      jumpi\n      0x0100\n      dup1\n      dup4\n      sload\n      div\n      mul\n      dup4\n      mstore\n      swap2\n      0x20\n      add\n      swap2\n      jump(tag_180)\n    tag_181:\n      dup3\n      add\n      swap2\n      swap1\n      0x00\n      mstore\n      keccak256(0x00, 0x20)\n      swap1\n    tag_182:\n      dup2\n      sload\n      dup2\n      mstore\n      swap1\n      0x01\n      add\n      swap1\n      0x20\n      add\n      dup1\n      dup4\n      gt\n      tag_182\n      jumpi\n      dup3\n      swap1\n      sub\n      0x1f\n      and\n      dup3\n      add\n      swap2\n    tag_180:\n      pop\n      pop\n      pop\n      pop\n      pop\n      swap2\n      pop\n      dup1\n      dup1\n      sload\n      tag_183\n      swap1\n      tag_104\n      jump\t// in\n    tag_183:\n      dup1\n      0x1f\n      add\n      0x20\n      dup1\n      swap2\n      div\n      mul\n      0x20\n      add\n      mload(0x40)\n      swap1\n      dup2\n      add\n      0x40\n      mstore\n      dup1\n      swap3\n      swap2\n      swap1\n      dup2\n      dup2\n      mstore\n      0x20\n      add\n      dup3\n      dup1\n      sload\n      tag_184\n      swap1\n      tag_104\n      jump\t// in\n    tag_184:\n      dup1\n      iszero\n      tag_185\n      jumpi\n      dup1\n      0x1f\n      lt\n      tag_186\n      jumpi\n      0x0100\n      dup1\n      dup4\n      sload\n      div\n      mul\n      dup4\n      mstore\n      swap2\n      0x20\n      add\n      swap2\n      jump(tag_185)\n    tag_186:\n      dup3\n      add\n      swap2\n      swap1\n      0x00\n      mstore\n      keccak256(0x00, 0x20)\n      swap1\n    tag_187:\n      dup2\n      sload\n      dup2\n      mstore\n      swap1\n      0x01\n      add\n      swap1\n      0x20\n      add\n      dup1\n      dup4\n      gt\n      tag_187\n      jumpi\n      dup3\n      swap1\n      sub\n      0x1f\n      and\n      dup3\n      add\n      swap2\n    tag_185:\n      pop\n      pop\n      pop\n      pop\n      pop\n      swap1\n      pop\n      swap3\n      pop\n      swap3\n      pop\n      swap3\n      pop\n        /* \"contracts/voting.sol\":3120:3569  function displayCandidateDetails(uint256 _candidateId) public view ... */\n      swap2\n      swap4\n      swap1\n      swap3\n      pop\n      jump\t// out\n        /* \"contracts/voting.sol\":3616:4388  function showWinner() public view ... */\n    tag_45:\n        /* \"contracts/voting.sol\":3680:3699  uint256 candidateId */\n      0x00\n        /* \"contracts/voting.sol\":3713:3731  string memory name */\n      0x60\n        /* \"contracts/voting.sol\":3745:3765  uint256 votesSecured */\n      0x00\n        /* \"contracts/voting.sol\":3806:3830  VotingStatus.NOT_STARTED */\n      dup1\n        /* \"contracts/voting.sol\":3798:3830  status!=VotingStatus.NOT_STARTED */\n      0x02\n      dup2\n      gt\n      iszero\n      tag_189\n      jumpi\n      tag_190\n      tag_68\n      jump\t// in\n    tag_190:\n    tag_189:\n        /* \"contracts/voting.sol\":3798:3804  status */\n      0x00\n      0x14\n      swap1\n      sload\n      swap1\n      0x0100\n      exp\n      swap1\n      div\n      0xff\n      and\n        /* \"contracts/voting.sol\":3798:3830  status!=VotingStatus.NOT_STARTED */\n      0x02\n      dup2\n      gt\n      iszero\n      tag_191\n      jumpi\n      tag_192\n      tag_68\n      jump\t// in\n    tag_192:\n    tag_191:\n      sub\n        /* \"contracts/voting.sol\":3790:3853  require(status!=VotingStatus.NOT_STARTED, \"Voting not started\") */\n      tag_193\n      jumpi\n      mload(0x40)\n      0x08c379a000000000000000000000000000000000000000000000000000000000\n      dup2\n      mstore\n      0x04\n      add\n      tag_194\n      swap1\n      tag_102\n      jump\t// in\n    tag_194:\n      mload(0x40)\n      dup1\n      swap2\n      sub\n      swap1\n      revert\n    tag_193:\n        /* \"contracts/voting.sol\":3863:3888  uint256 winnerCandidateId */\n      0x00\n        /* \"contracts/voting.sol\":3898:3922  uint256 highestVoteCount */\n      dup1\n        /* \"contracts/voting.sol\":3936:3942  uint i */\n      0x00\n        /* \"contracts/voting.sol\":3943:3944  1 */\n      0x01\n        /* \"contracts/voting.sol\":3936:3944  uint i=1 */\n      swap1\n      pop\n        /* \"contracts/voting.sol\":3932:4239  for(uint i=1; i<=candidateCount; i++){... */\n    tag_195:\n        /* \"contracts/voting.sol\":3949:3963  candidateCount */\n      sload(0x01)\n        /* \"contracts/voting.sol\":3946:3947  i */\n      dup2\n        /* \"contracts/voting.sol\":3946:3963  i<=candidateCount */\n      gt\n        /* \"contracts/voting.sol\":3932:4239  for(uint i=1; i<=candidateCount; i++){... */\n      tag_196\n      jumpi\n        /* \"contracts/voting.sol\":3983:3996  uint256 canId */\n      0x00\n        /* \"contracts/voting.sol\":3999:4000  i */\n      dup2\n        /* \"contracts/voting.sol\":3983:4000  uint256 canId = i */\n      swap1\n      pop\n        /* \"contracts/voting.sol\":4014:4040  uint256 candidateVoteCount */\n      0x00\n        /* \"contracts/voting.sol\":4043:4053  voteCounts */\n      0x05\n        /* \"contracts/voting.sol\":4043:4060  voteCounts[canId] */\n      0x00\n        /* \"contracts/voting.sol\":4054:4059  canId */\n      dup4\n        /* \"contracts/voting.sol\":4043:4060  voteCounts[canId] */\n      dup2\n      mstore\n      0x20\n      add\n      swap1\n      dup2\n      mstore\n      0x20\n      add\n      0x00\n      keccak256\n      sload\n        /* \"contracts/voting.sol\":4014:4060  uint256 candidateVoteCount = voteCounts[canId] */\n      swap1\n      pop\n        /* \"contracts/voting.sol\":4099:4115  highestVoteCount */\n      dup4\n        /* \"contracts/voting.sol\":4078:4096  candidateVoteCount */\n      dup2\n        /* \"contracts/voting.sol\":4078:4115  candidateVoteCount > highestVoteCount */\n      gt\n        /* \"contracts/voting.sol\":4074:4229  if (candidateVoteCount > highestVoteCount){... */\n      iszero\n      tag_198\n      jumpi\n        /* \"contracts/voting.sol\":4154:4159  canId */\n      dup2\n        /* \"contracts/voting.sol\":4134:4159  winnerCandidateId = canId */\n      swap5\n      pop\n        /* \"contracts/voting.sol\":4196:4214  candidateVoteCount */\n      dup1\n        /* \"contracts/voting.sol\":4177:4214  highestVoteCount = candidateVoteCount */\n      swap4\n      pop\n        /* \"contracts/voting.sol\":4074:4229  if (candidateVoteCount > highestVoteCount){... */\n    tag_198:\n        /* \"contracts/voting.sol\":3969:4239  {... */\n      pop\n      pop\n        /* \"contracts/voting.sol\":3965:3968  i++ */\n      dup1\n      dup1\n      tag_199\n      swap1\n      tag_78\n      jump\t// in\n    tag_199:\n      swap2\n      pop\n      pop\n        /* \"contracts/voting.sol\":3932:4239  for(uint i=1; i<=candidateCount; i++){... */\n      jump(tag_195)\n    tag_196:\n      pop\n        /* \"contracts/voting.sol\":4273:4274  0 */\n      0x00\n        /* \"contracts/voting.sol\":4256:4272  highestVoteCount */\n      dup2\n        /* \"contracts/voting.sol\":4256:4274  highestVoteCount>0 */\n      gt\n        /* \"contracts/voting.sol\":4248:4291  require(highestVoteCount>0, \"No votes yet\") */\n      tag_200\n      jumpi\n      mload(0x40)\n      0x08c379a000000000000000000000000000000000000000000000000000000000\n      dup2\n      mstore\n      0x04\n      add\n      tag_201\n      swap1\n      tag_202\n      jump\t// in\n    tag_201:\n      mload(0x40)\n      dup1\n      swap2\n      sub\n      swap1\n      revert\n    tag_200:\n        /* \"contracts/voting.sol\":4309:4326  winnerCandidateId */\n      dup2\n        /* \"contracts/voting.sol\":4328:4338  candidates */\n      0x03\n        /* \"contracts/voting.sol\":4328:4357  candidates[winnerCandidateId] */\n      0x00\n        /* \"contracts/voting.sol\":4339:4356  winnerCandidateId */\n      dup5\n        /* \"contracts/voting.sol\":4328:4357  candidates[winnerCandidateId] */\n      dup2\n      mstore\n      0x20\n      add\n      swap1\n      dup2\n      mstore\n      0x20\n      add\n      0x00\n      keccak256\n        /* \"contracts/voting.sol\":4328:4362  candidates[winnerCandidateId].name */\n      0x01\n      add\n        /* \"contracts/voting.sol\":4364:4380  highestVoteCount */\n      dup3\n        /* \"contracts/voting.sol\":4301:4381  return (winnerCandidateId, candidates[winnerCandidateId].name, highestVoteCount) */\n      dup2\n      dup1\n      sload\n      tag_203\n      swap1\n      tag_104\n      jump\t// in\n    tag_203:\n      dup1\n      0x1f\n      add\n      0x20\n      dup1\n      swap2\n      div\n      mul\n      0x20\n      add\n      mload(0x40)\n      swap1\n      dup2\n      add\n      0x40\n      mstore\n      dup1\n      swap3\n      swap2\n      swap1\n      dup2\n      dup2\n      mstore\n      0x20\n      add\n      dup3\n      dup1\n      sload\n      tag_204\n      swap1\n      tag_104\n      jump\t// in\n    tag_204:\n      dup1\n      iszero\n      tag_205\n      jumpi\n      dup1\n      0x1f\n      lt\n      tag_206\n      jumpi\n      0x0100\n      dup1\n      dup4\n      sload\n      div\n      mul\n      dup4\n      mstore\n      swap2\n      0x20\n      add\n      swap2\n      jump(tag_205)\n    tag_206:\n      dup3\n      add\n      swap2\n      swap1\n      0x00\n      mstore\n      keccak256(0x00, 0x20)\n      swap1\n    tag_207:\n      dup2\n      sload\n      dup2\n      mstore\n      swap1\n      0x01\n      add\n      swap1\n      0x20\n      add\n      dup1\n      dup4\n      gt\n      tag_207\n      jumpi\n      dup3\n      swap1\n      sub\n      0x1f\n      and\n      dup3\n      add\n      swap2\n    tag_205:\n      pop\n      pop\n      pop\n      pop\n      pop\n      swap2\n      pop\n      swap5\n      pop\n      swap5\n      pop\n      swap5\n      pop\n      pop\n      pop\n        /* \"contracts/voting.sol\":3616:4388  function showWinner() public view ... */\n      swap1\n      swap2\n      swap3\n      jump\t// out\n        /* \"contracts/voting.sol\":151:177  address public votingAdmin */\n    tag_48:\n      0x00\n      dup1\n      sload\n      swap1\n      0x0100\n      exp\n      swap1\n      div\n      0xffffffffffffffffffffffffffffffffffffffff\n      and\n      dup2\n      jump\t// out\n        /* \"contracts/voting.sol\":2482:3070  function startElection(address _contractOwner) public onlyVotingAdmin{... */\n    tag_54:\n        /* \"contracts/voting.sol\":302:313  votingAdmin */\n      0x00\n      dup1\n      sload\n      swap1\n      0x0100\n      exp\n      swap1\n      div\n      0xffffffffffffffffffffffffffffffffffffffff\n      and\n        /* \"contracts/voting.sol\":288:313  msg.sender == votingAdmin */\n      0xffffffffffffffffffffffffffffffffffffffff\n      and\n        /* \"contracts/voting.sol\":288:298  msg.sender */\n      caller\n        /* \"contracts/voting.sol\":288:313  msg.sender == votingAdmin */\n      0xffffffffffffffffffffffffffffffffffffffff\n      and\n      eq\n        /* \"contracts/voting.sol\":280:314  require(msg.sender == votingAdmin) */\n      tag_209\n      jumpi\n      0x00\n      dup1\n      revert\n    tag_209:\n        /* \"contracts/voting.sol\":2587:2598  votingAdmin */\n      0x00\n      dup1\n      sload\n      swap1\n      0x0100\n      exp\n      swap1\n      div\n      0xffffffffffffffffffffffffffffffffffffffff\n      and\n        /* \"contracts/voting.sol\":2569:2598  _contractOwner == votingAdmin */\n      0xffffffffffffffffffffffffffffffffffffffff\n      and\n        /* \"contracts/voting.sol\":2569:2583  _contractOwner */\n      dup2\n        /* \"contracts/voting.sol\":2569:2598  _contractOwner == votingAdmin */\n      0xffffffffffffffffffffffffffffffffffffffff\n      and\n      eq\n        /* \"contracts/voting.sol\":2561:2636  require(_contractOwner == votingAdmin, \"Only admin has access to do this.\") */\n      tag_211\n      jumpi\n      mload(0x40)\n      0x08c379a000000000000000000000000000000000000000000000000000000000\n      dup2\n      mstore\n      0x04\n      add\n      tag_212\n      swap1\n      tag_65\n      jump\t// in\n    tag_212:\n      mload(0x40)\n      dup1\n      swap2\n      sub\n      swap1\n      revert\n    tag_211:\n        /* \"contracts/voting.sol\":2669:2670  0 */\n      0x00\n        /* \"contracts/voting.sol\":2654:2668  candidateCount */\n      sload(0x01)\n        /* \"contracts/voting.sol\":2654:2670  candidateCount>0 */\n      gt\n        /* \"contracts/voting.sol\":2646:2698  require(candidateCount>0, \"0 candidates registered\") */\n      tag_213\n      jumpi\n      mload(0x40)\n      0x08c379a000000000000000000000000000000000000000000000000000000000\n      dup2\n      mstore\n      0x04\n      add\n      tag_214\n      swap1\n      tag_153\n      jump\t// in\n    tag_214:\n      mload(0x40)\n      dup1\n      swap2\n      sub\n      swap1\n      revert\n    tag_213:\n        /* \"contracts/voting.sol\":2727:2728  0 */\n      0x00\n        /* \"contracts/voting.sol\":2716:2726  voterCount */\n      sload(0x02)\n        /* \"contracts/voting.sol\":2716:2728  voterCount>0 */\n      gt\n        /* \"contracts/voting.sol\":2708:2752  require(voterCount>0, \"0 voters registered\") */\n      tag_215\n      jumpi\n      mload(0x40)\n      0x08c379a000000000000000000000000000000000000000000000000000000000\n      dup2\n      mstore\n      0x04\n      add\n      tag_216\n      swap1\n      tag_217\n      jump\t// in\n    tag_216:\n      mload(0x40)\n      dup1\n      swap2\n      sub\n      swap1\n      revert\n    tag_215:\n        /* \"contracts/voting.sol\":2773:2793  VotingStatus.ONGOING */\n      0x01\n        /* \"contracts/voting.sol\":2765:2793  status==VotingStatus.ONGOING */\n      0x02\n      dup2\n      gt\n      iszero\n      tag_218\n      jumpi\n      tag_219\n      tag_68\n      jump\t// in\n    tag_219:\n    tag_218:\n        /* \"contracts/voting.sol\":2765:2771  status */\n      0x00\n      0x14\n      swap1\n      sload\n      swap1\n      0x0100\n      exp\n      swap1\n      div\n      0xff\n      and\n        /* \"contracts/voting.sol\":2765:2793  status==VotingStatus.ONGOING */\n      0x02\n      dup2\n      gt\n      iszero\n      tag_220\n      jumpi\n      tag_221\n      tag_68\n      jump\t// in\n    tag_221:\n    tag_220:\n      sub\n        /* \"contracts/voting.sol\":2762:3027  if(status==VotingStatus.ONGOING){... */\n      tag_222\n      jumpi\n        /* \"contracts/voting.sol\":2844:2850  status */\n      0x00\n      0x14\n      swap1\n      sload\n      swap1\n      0x0100\n      exp\n      swap1\n      div\n      0xff\n      and\n        /* \"contracts/voting.sol\":2815:2879  CanNotStartElection({status: status, message: \"Voting ongoing\"}) */\n      mload(0x40)\n      0xef90b1c100000000000000000000000000000000000000000000000000000000\n      dup2\n      mstore\n      0x04\n      add\n      tag_223\n      swap2\n      swap1\n      tag_224\n      jump\t// in\n    tag_223:\n      mload(0x40)\n      dup1\n      swap2\n      sub\n      swap1\n      revert\n        /* \"contracts/voting.sol\":2762:3027  if(status==VotingStatus.ONGOING){... */\n    tag_222:\n        /* \"contracts/voting.sol\":2906:2928  VotingStatus.COMPLETED */\n      0x02\n        /* \"contracts/voting.sol\":2898:2928  status==VotingStatus.COMPLETED */\n      dup1\n      dup2\n      gt\n      iszero\n      tag_226\n      jumpi\n      tag_227\n      tag_68\n      jump\t// in\n    tag_227:\n    tag_226:\n        /* \"contracts/voting.sol\":2898:2904  status */\n      0x00\n      0x14\n      swap1\n      sload\n      swap1\n      0x0100\n      exp\n      swap1\n      div\n      0xff\n      and\n        /* \"contracts/voting.sol\":2898:2928  status==VotingStatus.COMPLETED */\n      0x02\n      dup2\n      gt\n      iszero\n      tag_228\n      jumpi\n      tag_229\n      tag_68\n      jump\t// in\n    tag_229:\n    tag_228:\n      sub\n        /* \"contracts/voting.sol\":2895:3027  if(status==VotingStatus.COMPLETED){... */\n      tag_230\n      jumpi\n        /* \"contracts/voting.sol\":2979:2985  status */\n      0x00\n      0x14\n      swap1\n      sload\n      swap1\n      0x0100\n      exp\n      swap1\n      div\n      0xff\n      and\n        /* \"contracts/voting.sol\":2950:3016  CanNotStartElection({status: status, message: \"Voting completed\"}) */\n      mload(0x40)\n      0xef90b1c100000000000000000000000000000000000000000000000000000000\n      dup2\n      mstore\n      0x04\n      add\n      tag_231\n      swap2\n      swap1\n      tag_232\n      jump\t// in\n    tag_231:\n      mload(0x40)\n      dup1\n      swap2\n      sub\n      swap1\n      revert\n        /* \"contracts/voting.sol\":2895:3027  if(status==VotingStatus.COMPLETED){... */\n    tag_230:\n        /* \"contracts/voting.sol\":3043:3063  VotingStatus.ONGOING */\n      0x01\n        /* \"contracts/voting.sol\":3036:3042  status */\n      0x00\n      0x14\n        /* \"contracts/voting.sol\":3036:3063  status=VotingStatus.ONGOING */\n      0x0100\n      exp\n      dup2\n      sload\n      dup2\n      0xff\n      mul\n      not\n      and\n      swap1\n      dup4\n      0x02\n      dup2\n      gt\n      iszero\n      tag_233\n      jumpi\n      tag_234\n      tag_68\n      jump\t// in\n    tag_234:\n    tag_233:\n      mul\n      or\n      swap1\n      sstore\n      pop\n        /* \"contracts/voting.sol\":2482:3070  function startElection(address _contractOwner) public onlyVotingAdmin{... */\n      pop\n      jump\t// out\n        /* \"contracts/voting.sol\":6821:7286  function viewVoterDetails(address _addressVoter) public view returns (... */\n    tag_57:\n        /* \"contracts/voting.sol\":6904:6924  address addressVoter */\n      0x00\n        /* \"contracts/voting.sol\":6938:6956  string memory name */\n      0x60\n        /* \"contracts/voting.sol\":6970:6990  bool isVoteDelegated */\n      0x00\n        /* \"contracts/voting.sol\":7023:7029  voters */\n      0x04\n        /* \"contracts/voting.sol\":7023:7044  voters[_addressVoter] */\n      0x00\n        /* \"contracts/voting.sol\":7030:7043  _addressVoter */\n      dup6\n        /* \"contracts/voting.sol\":7023:7044  voters[_addressVoter] */\n      0xffffffffffffffffffffffffffffffffffffffff\n      and\n      0xffffffffffffffffffffffffffffffffffffffff\n      and\n      dup2\n      mstore\n      0x20\n      add\n      swap1\n      dup2\n      mstore\n      0x20\n      add\n      0x00\n      keccak256\n        /* \"contracts/voting.sol\":7023:7049  voters[_addressVoter].flag */\n      0x05\n      add\n      0x00\n      swap1\n      sload\n      swap1\n      0x0100\n      exp\n      swap1\n      div\n      0xff\n      and\n        /* \"contracts/voting.sol\":7015:7087  require(voters[_addressVoter].flag, \"voter with address does not exist\") */\n      tag_236\n      jumpi\n      mload(0x40)\n      0x08c379a000000000000000000000000000000000000000000000000000000000\n      dup2\n      mstore\n      0x04\n      add\n      tag_237\n      swap1\n      tag_159\n      jump\t// in\n    tag_237:\n      mload(0x40)\n      dup1\n      swap2\n      sub\n      swap1\n      revert\n    tag_236:\n        /* \"contracts/voting.sol\":7117:7123  voters */\n      0x04\n        /* \"contracts/voting.sol\":7117:7138  voters[_addressVoter] */\n      0x00\n        /* \"contracts/voting.sol\":7124:7137  _addressVoter */\n      dup6\n        /* \"contracts/voting.sol\":7117:7138  voters[_addressVoter] */\n      0xffffffffffffffffffffffffffffffffffffffff\n      and\n      0xffffffffffffffffffffffffffffffffffffffff\n      and\n      dup2\n      mstore\n      0x20\n      add\n      swap1\n      dup2\n      mstore\n      0x20\n      add\n      0x00\n      keccak256\n        /* \"contracts/voting.sol\":7117:7151  voters[_addressVoter].addressVoter */\n      0x02\n      add\n      0x00\n      swap1\n      sload\n      swap1\n      0x0100\n      exp\n      swap1\n      div\n      0xffffffffffffffffffffffffffffffffffffffff\n      and\n        /* \"contracts/voting.sol\":7165:7171  voters */\n      0x04\n        /* \"contracts/voting.sol\":7165:7186  voters[_addressVoter] */\n      0x00\n        /* \"contracts/voting.sol\":7172:7185  _addressVoter */\n      dup7\n        /* \"contracts/voting.sol\":7165:7186  voters[_addressVoter] */\n      0xffffffffffffffffffffffffffffffffffffffff\n      and\n      0xffffffffffffffffffffffffffffffffffffffff\n      and\n      dup2\n      mstore\n      0x20\n      add\n      swap1\n      dup2\n      mstore\n      0x20\n      add\n      0x00\n      keccak256\n        /* \"contracts/voting.sol\":7165:7191  voters[_addressVoter].name */\n      0x01\n      add\n        /* \"contracts/voting.sol\":7242:7254  addressVoter */\n      dup5\n        /* \"contracts/voting.sol\":7205:7254  voters[_addressVoter].delegatedTo == addressVoter */\n      0xffffffffffffffffffffffffffffffffffffffff\n      and\n        /* \"contracts/voting.sol\":7205:7211  voters */\n      0x04\n        /* \"contracts/voting.sol\":7205:7226  voters[_addressVoter] */\n      0x00\n        /* \"contracts/voting.sol\":7212:7225  _addressVoter */\n      dup9\n        /* \"contracts/voting.sol\":7205:7226  voters[_addressVoter] */\n      0xffffffffffffffffffffffffffffffffffffffff\n      and\n      0xffffffffffffffffffffffffffffffffffffffff\n      and\n      dup2\n      mstore\n      0x20\n      add\n      swap1\n      dup2\n      mstore\n      0x20\n      add\n      0x00\n      keccak256\n        /* \"contracts/voting.sol\":7205:7238  voters[_addressVoter].delegatedTo */\n      0x03\n      add\n      0x00\n      swap1\n      sload\n      swap1\n      0x0100\n      exp\n      swap1\n      div\n      0xffffffffffffffffffffffffffffffffffffffff\n      and\n        /* \"contracts/voting.sol\":7205:7254  voters[_addressVoter].delegatedTo == addressVoter */\n      0xffffffffffffffffffffffffffffffffffffffff\n      and\n      eq\n        /* \"contracts/voting.sol\":7205:7269  voters[_addressVoter].delegatedTo == addressVoter ? false : true */\n      tag_238\n      jumpi\n        /* \"contracts/voting.sol\":7265:7269  true */\n      0x01\n        /* \"contracts/voting.sol\":7205:7269  voters[_addressVoter].delegatedTo == addressVoter ? false : true */\n      jump(tag_239)\n    tag_238:\n        /* \"contracts/voting.sol\":7257:7262  false */\n      0x00\n        /* \"contracts/voting.sol\":7205:7269  voters[_addressVoter].delegatedTo == addressVoter ? false : true */\n    tag_239:\n        /* \"contracts/voting.sol\":7097:7279  return(... */\n      dup2\n      dup1\n      sload\n      tag_240\n      swap1\n      tag_104\n      jump\t// in\n    tag_240:\n      dup1\n      0x1f\n      add\n      0x20\n      dup1\n      swap2\n      div\n      mul\n      0x20\n      add\n      mload(0x40)\n      swap1\n      dup2\n      add\n      0x40\n      mstore\n      dup1\n      swap3\n      swap2\n      swap1\n      dup2\n      dup2\n      mstore\n      0x20\n      add\n      dup3\n      dup1\n      sload\n      tag_241\n      swap1\n      tag_104\n      jump\t// in\n    tag_241:\n      dup1\n      iszero\n      tag_242\n      jumpi\n      dup1\n      0x1f\n      lt\n      tag_243\n      jumpi\n      0x0100\n      dup1\n      dup4\n      sload\n      div\n      mul\n      dup4\n      mstore\n      swap2\n      0x20\n      add\n      swap2\n      jump(tag_242)\n    tag_243:\n      dup3\n      add\n      swap2\n      swap1\n      0x00\n      mstore\n      keccak256(0x00, 0x20)\n      swap1\n    tag_244:\n      dup2\n      sload\n      dup2\n      mstore\n      swap1\n      0x01\n      add\n      swap1\n      0x20\n      add\n      dup1\n      dup4\n      gt\n      tag_244\n      jumpi\n      dup3\n      swap1\n      sub\n      0x1f\n      and\n      dup3\n      add\n      swap2\n    tag_242:\n      pop\n      pop\n      pop\n      pop\n      pop\n      swap2\n      pop\n      swap3\n      pop\n      swap3\n      pop\n      swap3\n      pop\n        /* \"contracts/voting.sol\":6821:7286  function viewVoterDetails(address _addressVoter) public view returns (... */\n      swap2\n      swap4\n      swap1\n      swap3\n      pop\n      jump\t// out\n        /* \"#utility.yul\":7:82   */\n    tag_245:\n        /* \"#utility.yul\":40:46   */\n      0x00\n        /* \"#utility.yul\":73:75   */\n      0x40\n        /* \"#utility.yul\":67:76   */\n      mload\n        /* \"#utility.yul\":57:76   */\n      swap1\n      pop\n        /* \"#utility.yul\":7:82   */\n      swap1\n      jump\t// out\n        /* \"#utility.yul\":88:205   */\n    tag_246:\n        /* \"#utility.yul\":197:198   */\n      0x00\n        /* \"#utility.yul\":194:195   */\n      dup1\n        /* \"#utility.yul\":187:199   */\n      revert\n        /* \"#utility.yul\":211:328   */\n    tag_247:\n        /* \"#utility.yul\":320:321   */\n      0x00\n        /* \"#utility.yul\":317:318   */\n      dup1\n        /* \"#utility.yul\":310:322   */\n      revert\n        /* \"#utility.yul\":334:460   */\n    tag_248:\n        /* \"#utility.yul\":371:378   */\n      0x00\n        /* \"#utility.yul\":411:453   */\n      0xffffffffffffffffffffffffffffffffffffffff\n        /* \"#utility.yul\":404:409   */\n      dup3\n        /* \"#utility.yul\":400:454   */\n      and\n        /* \"#utility.yul\":389:454   */\n      swap1\n      pop\n        /* \"#utility.yul\":334:460   */\n      swap2\n      swap1\n      pop\n      jump\t// out\n        /* \"#utility.yul\":466:562   */\n    tag_249:\n        /* \"#utility.yul\":503:510   */\n      0x00\n        /* \"#utility.yul\":532:556   */\n      tag_342\n        /* \"#utility.yul\":550:555   */\n      dup3\n        /* \"#utility.yul\":532:556   */\n      tag_248\n      jump\t// in\n    tag_342:\n        /* \"#utility.yul\":521:556   */\n      swap1\n      pop\n        /* \"#utility.yul\":466:562   */\n      swap2\n      swap1\n      pop\n      jump\t// out\n        /* \"#utility.yul\":568:690   */\n    tag_250:\n        /* \"#utility.yul\":641:665   */\n      tag_344\n        /* \"#utility.yul\":659:664   */\n      dup2\n        /* \"#utility.yul\":641:665   */\n      tag_249\n      jump\t// in\n    tag_344:\n        /* \"#utility.yul\":634:639   */\n      dup2\n        /* \"#utility.yul\":631:666   */\n      eq\n        /* \"#utility.yul\":621:684   */\n      tag_345\n      jumpi\n        /* \"#utility.yul\":680:681   */\n      0x00\n        /* \"#utility.yul\":677:678   */\n      dup1\n        /* \"#utility.yul\":670:682   */\n      revert\n        /* \"#utility.yul\":621:684   */\n    tag_345:\n        /* \"#utility.yul\":568:690   */\n      pop\n      jump\t// out\n        /* \"#utility.yul\":696:835   */\n    tag_251:\n        /* \"#utility.yul\":742:747   */\n      0x00\n        /* \"#utility.yul\":780:786   */\n      dup2\n        /* \"#utility.yul\":767:787   */\n      calldataload\n        /* \"#utility.yul\":758:787   */\n      swap1\n      pop\n        /* \"#utility.yul\":796:829   */\n      tag_347\n        /* \"#utility.yul\":823:828   */\n      dup2\n        /* \"#utility.yul\":796:829   */\n      tag_250\n      jump\t// in\n    tag_347:\n        /* \"#utility.yul\":696:835   */\n      swap3\n      swap2\n      pop\n      pop\n      jump\t// out\n        /* \"#utility.yul\":841:958   */\n    tag_252:\n        /* \"#utility.yul\":950:951   */\n      0x00\n        /* \"#utility.yul\":947:948   */\n      dup1\n        /* \"#utility.yul\":940:952   */\n      revert\n        /* \"#utility.yul\":964:1081   */\n    tag_253:\n        /* \"#utility.yul\":1073:1074   */\n      0x00\n        /* \"#utility.yul\":1070:1071   */\n      dup1\n        /* \"#utility.yul\":1063:1075   */\n      revert\n        /* \"#utility.yul\":1087:1189   */\n    tag_254:\n        /* \"#utility.yul\":1128:1134   */\n      0x00\n        /* \"#utility.yul\":1179:1181   */\n      0x1f\n        /* \"#utility.yul\":1175:1182   */\n      not\n        /* \"#utility.yul\":1170:1172   */\n      0x1f\n        /* \"#utility.yul\":1163:1168   */\n      dup4\n        /* \"#utility.yul\":1159:1173   */\n      add\n        /* \"#utility.yul\":1155:1183   */\n      and\n        /* \"#utility.yul\":1145:1183   */\n      swap1\n      pop\n        /* \"#utility.yul\":1087:1189   */\n      swap2\n      swap1\n      pop\n      jump\t// out\n        /* \"#utility.yul\":1195:1375   */\n    tag_255:\n        /* \"#utility.yul\":1243:1320   */\n      0x4e487b7100000000000000000000000000000000000000000000000000000000\n        /* \"#utility.yul\":1240:1241   */\n      0x00\n        /* \"#utility.yul\":1233:1321   */\n      mstore\n        /* \"#utility.yul\":1340:1344   */\n      0x41\n        /* \"#utility.yul\":1337:1338   */\n      0x04\n        /* \"#utility.yul\":1330:1345   */\n      mstore\n        /* \"#utility.yul\":1364:1368   */\n      0x24\n        /* \"#utility.yul\":1361:1362   */\n      0x00\n        /* \"#utility.yul\":1354:1369   */\n      revert\n        /* \"#utility.yul\":1381:1662   */\n    tag_256:\n        /* \"#utility.yul\":1464:1491   */\n      tag_353\n        /* \"#utility.yul\":1486:1490   */\n      dup3\n        /* \"#utility.yul\":1464:1491   */\n      tag_254\n      jump\t// in\n    tag_353:\n        /* \"#utility.yul\":1456:1462   */\n      dup2\n        /* \"#utility.yul\":1452:1492   */\n      add\n        /* \"#utility.yul\":1594:1600   */\n      dup2\n        /* \"#utility.yul\":1582:1592   */\n      dup2\n        /* \"#utility.yul\":1579:1601   */\n      lt\n        /* \"#utility.yul\":1558:1576   */\n      0xffffffffffffffff\n        /* \"#utility.yul\":1546:1556   */\n      dup3\n        /* \"#utility.yul\":1543:1577   */\n      gt\n        /* \"#utility.yul\":1540:1602   */\n      or\n        /* \"#utility.yul\":1537:1625   */\n      iszero\n      tag_354\n      jumpi\n        /* \"#utility.yul\":1605:1623   */\n      tag_355\n      tag_255\n      jump\t// in\n    tag_355:\n        /* \"#utility.yul\":1537:1625   */\n    tag_354:\n        /* \"#utility.yul\":1645:1655   */\n      dup1\n        /* \"#utility.yul\":1641:1643   */\n      0x40\n        /* \"#utility.yul\":1634:1656   */\n      mstore\n        /* \"#utility.yul\":1424:1662   */\n      pop\n        /* \"#utility.yul\":1381:1662   */\n      pop\n      pop\n      jump\t// out\n        /* \"#utility.yul\":1668:1797   */\n    tag_257:\n        /* \"#utility.yul\":1702:1708   */\n      0x00\n        /* \"#utility.yul\":1729:1749   */\n      tag_357\n      tag_245\n      jump\t// in\n    tag_357:\n        /* \"#utility.yul\":1719:1749   */\n      swap1\n      pop\n        /* \"#utility.yul\":1758:1791   */\n      tag_358\n        /* \"#utility.yul\":1786:1790   */\n      dup3\n        /* \"#utility.yul\":1778:1784   */\n      dup3\n        /* \"#utility.yul\":1758:1791   */\n      tag_256\n      jump\t// in\n    tag_358:\n        /* \"#utility.yul\":1668:1797   */\n      swap2\n      swap1\n      pop\n      jump\t// out\n        /* \"#utility.yul\":1803:2111   */\n    tag_258:\n        /* \"#utility.yul\":1865:1869   */\n      0x00\n        /* \"#utility.yul\":1955:1973   */\n      0xffffffffffffffff\n        /* \"#utility.yul\":1947:1953   */\n      dup3\n        /* \"#utility.yul\":1944:1974   */\n      gt\n        /* \"#utility.yul\":1941:1997   */\n      iszero\n      tag_360\n      jumpi\n        /* \"#utility.yul\":1977:1995   */\n      tag_361\n      tag_255\n      jump\t// in\n    tag_361:\n        /* \"#utility.yul\":1941:1997   */\n    tag_360:\n        /* \"#utility.yul\":2015:2044   */\n      tag_362\n        /* \"#utility.yul\":2037:2043   */\n      dup3\n        /* \"#utility.yul\":2015:2044   */\n      tag_254\n      jump\t// in\n    tag_362:\n        /* \"#utility.yul\":2007:2044   */\n      swap1\n      pop\n        /* \"#utility.yul\":2099:2103   */\n      0x20\n        /* \"#utility.yul\":2093:2097   */\n      dup2\n        /* \"#utility.yul\":2089:2104   */\n      add\n        /* \"#utility.yul\":2081:2104   */\n      swap1\n      pop\n        /* \"#utility.yul\":1803:2111   */\n      swap2\n      swap1\n      pop\n      jump\t// out\n        /* \"#utility.yul\":2117:2263   */\n    tag_259:\n        /* \"#utility.yul\":2214:2220   */\n      dup3\n        /* \"#utility.yul\":2209:2212   */\n      dup2\n        /* \"#utility.yul\":2204:2207   */\n      dup4\n        /* \"#utility.yul\":2191:2221   */\n      calldatacopy\n        /* \"#utility.yul\":2255:2256   */\n      0x00\n        /* \"#utility.yul\":2246:2252   */\n      dup4\n        /* \"#utility.yul\":2241:2244   */\n      dup4\n        /* \"#utility.yul\":2237:2253   */\n      add\n        /* \"#utility.yul\":2230:2257   */\n      mstore\n        /* \"#utility.yul\":2117:2263   */\n      pop\n      pop\n      pop\n      jump\t// out\n        /* \"#utility.yul\":2269:2694   */\n    tag_260:\n        /* \"#utility.yul\":2347:2352   */\n      0x00\n        /* \"#utility.yul\":2372:2438   */\n      tag_365\n        /* \"#utility.yul\":2388:2437   */\n      tag_366\n        /* \"#utility.yul\":2430:2436   */\n      dup5\n        /* \"#utility.yul\":2388:2437   */\n      tag_258\n      jump\t// in\n    tag_366:\n        /* \"#utility.yul\":2372:2438   */\n      tag_257\n      jump\t// in\n    tag_365:\n        /* \"#utility.yul\":2363:2438   */\n      swap1\n      pop\n        /* \"#utility.yul\":2461:2467   */\n      dup3\n        /* \"#utility.yul\":2454:2459   */\n      dup2\n        /* \"#utility.yul\":2447:2468   */\n      mstore\n        /* \"#utility.yul\":2499:2503   */\n      0x20\n        /* \"#utility.yul\":2492:2497   */\n      dup2\n        /* \"#utility.yul\":2488:2504   */\n      add\n        /* \"#utility.yul\":2537:2540   */\n      dup5\n        /* \"#utility.yul\":2528:2534   */\n      dup5\n        /* \"#utility.yul\":2523:2526   */\n      dup5\n        /* \"#utility.yul\":2519:2535   */\n      add\n        /* \"#utility.yul\":2516:2541   */\n      gt\n        /* \"#utility.yul\":2513:2625   */\n      iszero\n      tag_367\n      jumpi\n        /* \"#utility.yul\":2544:2623   */\n      tag_368\n      tag_253\n      jump\t// in\n    tag_368:\n        /* \"#utility.yul\":2513:2625   */\n    tag_367:\n        /* \"#utility.yul\":2634:2688   */\n      tag_369\n        /* \"#utility.yul\":2681:2687   */\n      dup5\n        /* \"#utility.yul\":2676:2679   */\n      dup3\n        /* \"#utility.yul\":2671:2674   */\n      dup6\n        /* \"#utility.yul\":2634:2688   */\n      tag_259\n      jump\t// in\n    tag_369:\n        /* \"#utility.yul\":2353:2694   */\n      pop\n        /* \"#utility.yul\":2269:2694   */\n      swap4\n      swap3\n      pop\n      pop\n      pop\n      jump\t// out\n        /* \"#utility.yul\":2714:3054   */\n    tag_261:\n        /* \"#utility.yul\":2770:2775   */\n      0x00\n        /* \"#utility.yul\":2819:2822   */\n      dup3\n        /* \"#utility.yul\":2812:2816   */\n      0x1f\n        /* \"#utility.yul\":2804:2810   */\n      dup4\n        /* \"#utility.yul\":2800:2817   */\n      add\n        /* \"#utility.yul\":2796:2823   */\n      slt\n        /* \"#utility.yul\":2786:2908   */\n      tag_371\n      jumpi\n        /* \"#utility.yul\":2827:2906   */\n      tag_372\n      tag_252\n      jump\t// in\n    tag_372:\n        /* \"#utility.yul\":2786:2908   */\n    tag_371:\n        /* \"#utility.yul\":2944:2950   */\n      dup2\n        /* \"#utility.yul\":2931:2951   */\n      calldataload\n        /* \"#utility.yul\":2969:3048   */\n      tag_373\n        /* \"#utility.yul\":3044:3047   */\n      dup5\n        /* \"#utility.yul\":3036:3042   */\n      dup3\n        /* \"#utility.yul\":3029:3033   */\n      0x20\n        /* \"#utility.yul\":3021:3027   */\n      dup7\n        /* \"#utility.yul\":3017:3034   */\n      add\n        /* \"#utility.yul\":2969:3048   */\n      tag_260\n      jump\t// in\n    tag_373:\n        /* \"#utility.yul\":2960:3048   */\n      swap2\n      pop\n        /* \"#utility.yul\":2776:3054   */\n      pop\n        /* \"#utility.yul\":2714:3054   */\n      swap3\n      swap2\n      pop\n      pop\n      jump\t// out\n        /* \"#utility.yul\":3060:3859   */\n    tag_17:\n        /* \"#utility.yul\":3147:3153   */\n      0x00\n        /* \"#utility.yul\":3155:3161   */\n      dup1\n        /* \"#utility.yul\":3163:3169   */\n      0x00\n        /* \"#utility.yul\":3212:3214   */\n      0x60\n        /* \"#utility.yul\":3200:3209   */\n      dup5\n        /* \"#utility.yul\":3191:3198   */\n      dup7\n        /* \"#utility.yul\":3187:3210   */\n      sub\n        /* \"#utility.yul\":3183:3215   */\n      slt\n        /* \"#utility.yul\":3180:3299   */\n      iszero\n      tag_375\n      jumpi\n        /* \"#utility.yul\":3218:3297   */\n      tag_376\n      tag_246\n      jump\t// in\n    tag_376:\n        /* \"#utility.yul\":3180:3299   */\n    tag_375:\n        /* \"#utility.yul\":3338:3339   */\n      0x00\n        /* \"#utility.yul\":3363:3416   */\n      tag_377\n        /* \"#utility.yul\":3408:3415   */\n      dup7\n        /* \"#utility.yul\":3399:3405   */\n      dup3\n        /* \"#utility.yul\":3388:3397   */\n      dup8\n        /* \"#utility.yul\":3384:3406   */\n      add\n        /* \"#utility.yul\":3363:3416   */\n      tag_251\n      jump\t// in\n    tag_377:\n        /* \"#utility.yul\":3353:3416   */\n      swap4\n      pop\n        /* \"#utility.yul\":3309:3426   */\n      pop\n        /* \"#utility.yul\":3493:3495   */\n      0x20\n        /* \"#utility.yul\":3482:3491   */\n      dup5\n        /* \"#utility.yul\":3478:3496   */\n      add\n        /* \"#utility.yul\":3465:3497   */\n      calldataload\n        /* \"#utility.yul\":3524:3542   */\n      0xffffffffffffffff\n        /* \"#utility.yul\":3516:3522   */\n      dup2\n        /* \"#utility.yul\":3513:3543   */\n      gt\n        /* \"#utility.yul\":3510:3627   */\n      iszero\n      tag_378\n      jumpi\n        /* \"#utility.yul\":3546:3625   */\n      tag_379\n      tag_247\n      jump\t// in\n    tag_379:\n        /* \"#utility.yul\":3510:3627   */\n    tag_378:\n        /* \"#utility.yul\":3651:3714   */\n      tag_380\n        /* \"#utility.yul\":3706:3713   */\n      dup7\n        /* \"#utility.yul\":3697:3703   */\n      dup3\n        /* \"#utility.yul\":3686:3695   */\n      dup8\n        /* \"#utility.yul\":3682:3704   */\n      add\n        /* \"#utility.yul\":3651:3714   */\n      tag_261\n      jump\t// in\n    tag_380:\n        /* \"#utility.yul\":3641:3714   */\n      swap3\n      pop\n        /* \"#utility.yul\":3436:3724   */\n      pop\n        /* \"#utility.yul\":3763:3765   */\n      0x40\n        /* \"#utility.yul\":3789:3842   */\n      tag_381\n        /* \"#utility.yul\":3834:3841   */\n      dup7\n        /* \"#utility.yul\":3825:3831   */\n      dup3\n        /* \"#utility.yul\":3814:3823   */\n      dup8\n        /* \"#utility.yul\":3810:3832   */\n      add\n        /* \"#utility.yul\":3789:3842   */\n      tag_251\n      jump\t// in\n    tag_381:\n        /* \"#utility.yul\":3779:3842   */\n      swap2\n      pop\n        /* \"#utility.yul\":3734:3852   */\n      pop\n        /* \"#utility.yul\":3060:3859   */\n      swap3\n      pop\n      swap3\n      pop\n      swap3\n      jump\t// out\n        /* \"#utility.yul\":3865:4339   */\n    tag_21:\n        /* \"#utility.yul\":3933:3939   */\n      0x00\n        /* \"#utility.yul\":3941:3947   */\n      dup1\n        /* \"#utility.yul\":3990:3992   */\n      0x40\n        /* \"#utility.yul\":3978:3987   */\n      dup4\n        /* \"#utility.yul\":3969:3976   */\n      dup6\n        /* \"#utility.yul\":3965:3988   */\n      sub\n        /* \"#utility.yul\":3961:3993   */\n      slt\n        /* \"#utility.yul\":3958:4077   */\n      iszero\n      tag_383\n      jumpi\n        /* \"#utility.yul\":3996:4075   */\n      tag_384\n      tag_246\n      jump\t// in\n    tag_384:\n        /* \"#utility.yul\":3958:4077   */\n    tag_383:\n        /* \"#utility.yul\":4116:4117   */\n      0x00\n        /* \"#utility.yul\":4141:4194   */\n      tag_385\n        /* \"#utility.yul\":4186:4193   */\n      dup6\n        /* \"#utility.yul\":4177:4183   */\n      dup3\n        /* \"#utility.yul\":4166:4175   */\n      dup7\n        /* \"#utility.yul\":4162:4184   */\n      add\n        /* \"#utility.yul\":4141:4194   */\n      tag_251\n      jump\t// in\n    tag_385:\n        /* \"#utility.yul\":4131:4194   */\n      swap3\n      pop\n        /* \"#utility.yul\":4087:4204   */\n      pop\n        /* \"#utility.yul\":4243:4245   */\n      0x20\n        /* \"#utility.yul\":4269:4322   */\n      tag_386\n        /* \"#utility.yul\":4314:4321   */\n      dup6\n        /* \"#utility.yul\":4305:4311   */\n      dup3\n        /* \"#utility.yul\":4294:4303   */\n      dup7\n        /* \"#utility.yul\":4290:4312   */\n      add\n        /* \"#utility.yul\":4269:4322   */\n      tag_251\n      jump\t// in\n    tag_386:\n        /* \"#utility.yul\":4259:4322   */\n      swap2\n      pop\n        /* \"#utility.yul\":4214:4332   */\n      pop\n        /* \"#utility.yul\":3865:4339   */\n      swap3\n      pop\n      swap3\n      swap1\n      pop\n      jump\t// out\n        /* \"#utility.yul\":4345:4422   */\n    tag_262:\n        /* \"#utility.yul\":4382:4389   */\n      0x00\n        /* \"#utility.yul\":4411:4416   */\n      dup2\n        /* \"#utility.yul\":4400:4416   */\n      swap1\n      pop\n        /* \"#utility.yul\":4345:4422   */\n      swap2\n      swap1\n      pop\n      jump\t// out\n        /* \"#utility.yul\":4428:4550   */\n    tag_263:\n        /* \"#utility.yul\":4501:4525   */\n      tag_389\n        /* \"#utility.yul\":4519:4524   */\n      dup2\n        /* \"#utility.yul\":4501:4525   */\n      tag_262\n      jump\t// in\n    tag_389:\n        /* \"#utility.yul\":4494:4499   */\n      dup2\n        /* \"#utility.yul\":4491:4526   */\n      eq\n        /* \"#utility.yul\":4481:4544   */\n      tag_390\n      jumpi\n        /* \"#utility.yul\":4540:4541   */\n      0x00\n        /* \"#utility.yul\":4537:4538   */\n      dup1\n        /* \"#utility.yul\":4530:4542   */\n      revert\n        /* \"#utility.yul\":4481:4544   */\n    tag_390:\n        /* \"#utility.yul\":4428:4550   */\n      pop\n      jump\t// out\n        /* \"#utility.yul\":4556:4695   */\n    tag_264:\n        /* \"#utility.yul\":4602:4607   */\n      0x00\n        /* \"#utility.yul\":4640:4646   */\n      dup2\n        /* \"#utility.yul\":4627:4647   */\n      calldataload\n        /* \"#utility.yul\":4618:4647   */\n      swap1\n      pop\n        /* \"#utility.yul\":4656:4689   */\n      tag_392\n        /* \"#utility.yul\":4683:4688   */\n      dup2\n        /* \"#utility.yul\":4656:4689   */\n      tag_263\n      jump\t// in\n    tag_392:\n        /* \"#utility.yul\":4556:4695   */\n      swap3\n      swap2\n      pop\n      pop\n      jump\t// out\n        /* \"#utility.yul\":4701:5030   */\n    tag_25:\n        /* \"#utility.yul\":4760:4766   */\n      0x00\n        /* \"#utility.yul\":4809:4811   */\n      0x20\n        /* \"#utility.yul\":4797:4806   */\n      dup3\n        /* \"#utility.yul\":4788:4795   */\n      dup5\n        /* \"#utility.yul\":4784:4807   */\n      sub\n        /* \"#utility.yul\":4780:4812   */\n      slt\n        /* \"#utility.yul\":4777:4896   */\n      iszero\n      tag_394\n      jumpi\n        /* \"#utility.yul\":4815:4894   */\n      tag_395\n      tag_246\n      jump\t// in\n    tag_395:\n        /* \"#utility.yul\":4777:4896   */\n    tag_394:\n        /* \"#utility.yul\":4935:4936   */\n      0x00\n        /* \"#utility.yul\":4960:5013   */\n      tag_396\n        /* \"#utility.yul\":5005:5012   */\n      dup5\n        /* \"#utility.yul\":4996:5002   */\n      dup3\n        /* \"#utility.yul\":4985:4994   */\n      dup6\n        /* \"#utility.yul\":4981:5003   */\n      add\n        /* \"#utility.yul\":4960:5013   */\n      tag_264\n      jump\t// in\n    tag_396:\n        /* \"#utility.yul\":4950:5013   */\n      swap2\n      pop\n        /* \"#utility.yul\":4906:5023   */\n      pop\n        /* \"#utility.yul\":4701:5030   */\n      swap3\n      swap2\n      pop\n      pop\n      jump\t// out\n        /* \"#utility.yul\":5036:5154   */\n    tag_265:\n        /* \"#utility.yul\":5123:5147   */\n      tag_398\n        /* \"#utility.yul\":5141:5146   */\n      dup2\n        /* \"#utility.yul\":5123:5147   */\n      tag_262\n      jump\t// in\n    tag_398:\n        /* \"#utility.yul\":5118:5121   */\n      dup3\n        /* \"#utility.yul\":5111:5148   */\n      mstore\n        /* \"#utility.yul\":5036:5154   */\n      pop\n      pop\n      jump\t// out\n        /* \"#utility.yul\":5160:5259   */\n    tag_266:\n        /* \"#utility.yul\":5212:5218   */\n      0x00\n        /* \"#utility.yul\":5246:5251   */\n      dup2\n        /* \"#utility.yul\":5240:5252   */\n      mload\n        /* \"#utility.yul\":5230:5252   */\n      swap1\n      pop\n        /* \"#utility.yul\":5160:5259   */\n      swap2\n      swap1\n      pop\n      jump\t// out\n        /* \"#utility.yul\":5265:5434   */\n    tag_267:\n        /* \"#utility.yul\":5349:5360   */\n      0x00\n        /* \"#utility.yul\":5383:5389   */\n      dup3\n        /* \"#utility.yul\":5378:5381   */\n      dup3\n        /* \"#utility.yul\":5371:5390   */\n      mstore\n        /* \"#utility.yul\":5423:5427   */\n      0x20\n        /* \"#utility.yul\":5418:5421   */\n      dup3\n        /* \"#utility.yul\":5414:5428   */\n      add\n        /* \"#utility.yul\":5399:5428   */\n      swap1\n      pop\n        /* \"#utility.yul\":5265:5434   */\n      swap3\n      swap2\n      pop\n      pop\n      jump\t// out\n        /* \"#utility.yul\":5440:5686   */\n    tag_268:\n        /* \"#utility.yul\":5521:5522   */\n      0x00\n        /* \"#utility.yul\":5531:5644   */\n    tag_402:\n        /* \"#utility.yul\":5545:5551   */\n      dup4\n        /* \"#utility.yul\":5542:5543   */\n      dup2\n        /* \"#utility.yul\":5539:5552   */\n      lt\n        /* \"#utility.yul\":5531:5644   */\n      iszero\n      tag_404\n      jumpi\n        /* \"#utility.yul\":5630:5631   */\n      dup1\n        /* \"#utility.yul\":5625:5628   */\n      dup3\n        /* \"#utility.yul\":5621:5632   */\n      add\n        /* \"#utility.yul\":5615:5633   */\n      mload\n        /* \"#utility.yul\":5611:5612   */\n      dup2\n        /* \"#utility.yul\":5606:5609   */\n      dup5\n        /* \"#utility.yul\":5602:5613   */\n      add\n        /* \"#utility.yul\":5595:5634   */\n      mstore\n        /* \"#utility.yul\":5567:5569   */\n      0x20\n        /* \"#utility.yul\":5564:5565   */\n      dup2\n        /* \"#utility.yul\":5560:5570   */\n      add\n        /* \"#utility.yul\":5555:5570   */\n      swap1\n      pop\n        /* \"#utility.yul\":5531:5644   */\n      jump(tag_402)\n    tag_404:\n        /* \"#utility.yul\":5678:5679   */\n      0x00\n        /* \"#utility.yul\":5669:5675   */\n      dup5\n        /* \"#utility.yul\":5664:5667   */\n      dup5\n        /* \"#utility.yul\":5660:5676   */\n      add\n        /* \"#utility.yul\":5653:5680   */\n      mstore\n        /* \"#utility.yul\":5502:5686   */\n      pop\n        /* \"#utility.yul\":5440:5686   */\n      pop\n      pop\n      pop\n      jump\t// out\n        /* \"#utility.yul\":5692:6069   */\n    tag_269:\n        /* \"#utility.yul\":5780:5783   */\n      0x00\n        /* \"#utility.yul\":5808:5847   */\n      tag_406\n        /* \"#utility.yul\":5841:5846   */\n      dup3\n        /* \"#utility.yul\":5808:5847   */\n      tag_266\n      jump\t// in\n    tag_406:\n        /* \"#utility.yul\":5863:5934   */\n      tag_407\n        /* \"#utility.yul\":5927:5933   */\n      dup2\n        /* \"#utility.yul\":5922:5925   */\n      dup6\n        /* \"#utility.yul\":5863:5934   */\n      tag_267\n      jump\t// in\n    tag_407:\n        /* \"#utility.yul\":5856:5934   */\n      swap4\n      pop\n        /* \"#utility.yul\":5943:6008   */\n      tag_408\n        /* \"#utility.yul\":6001:6007   */\n      dup2\n        /* \"#utility.yul\":5996:5999   */\n      dup6\n        /* \"#utility.yul\":5989:5993   */\n      0x20\n        /* \"#utility.yul\":5982:5987   */\n      dup7\n        /* \"#utility.yul\":5978:5994   */\n      add\n        /* \"#utility.yul\":5943:6008   */\n      tag_268\n      jump\t// in\n    tag_408:\n        /* \"#utility.yul\":6033:6062   */\n      tag_409\n        /* \"#utility.yul\":6055:6061   */\n      dup2\n        /* \"#utility.yul\":6033:6062   */\n      tag_254\n      jump\t// in\n    tag_409:\n        /* \"#utility.yul\":6028:6031   */\n      dup5\n        /* \"#utility.yul\":6024:6063   */\n      add\n        /* \"#utility.yul\":6017:6063   */\n      swap2\n      pop\n        /* \"#utility.yul\":5784:6069   */\n      pop\n        /* \"#utility.yul\":5692:6069   */\n      swap3\n      swap2\n      pop\n      pop\n      jump\t// out\n        /* \"#utility.yul\":6075:6608   */\n    tag_28:\n        /* \"#utility.yul\":6244:6248   */\n      0x00\n        /* \"#utility.yul\":6282:6284   */\n      0x60\n        /* \"#utility.yul\":6271:6280   */\n      dup3\n        /* \"#utility.yul\":6267:6285   */\n      add\n        /* \"#utility.yul\":6259:6285   */\n      swap1\n      pop\n        /* \"#utility.yul\":6295:6366   */\n      tag_411\n        /* \"#utility.yul\":6363:6364   */\n      0x00\n        /* \"#utility.yul\":6352:6361   */\n      dup4\n        /* \"#utility.yul\":6348:6365   */\n      add\n        /* \"#utility.yul\":6339:6345   */\n      dup7\n        /* \"#utility.yul\":6295:6366   */\n      tag_265\n      jump\t// in\n    tag_411:\n        /* \"#utility.yul\":6413:6422   */\n      dup2\n        /* \"#utility.yul\":6407:6411   */\n      dup2\n        /* \"#utility.yul\":6403:6423   */\n      sub\n        /* \"#utility.yul\":6398:6400   */\n      0x20\n        /* \"#utility.yul\":6387:6396   */\n      dup4\n        /* \"#utility.yul\":6383:6401   */\n      add\n        /* \"#utility.yul\":6376:6424   */\n      mstore\n        /* \"#utility.yul\":6441:6519   */\n      tag_412\n        /* \"#utility.yul\":6514:6518   */\n      dup2\n        /* \"#utility.yul\":6505:6511   */\n      dup6\n        /* \"#utility.yul\":6441:6519   */\n      tag_269\n      jump\t// in\n    tag_412:\n        /* \"#utility.yul\":6433:6519   */\n      swap1\n      pop\n        /* \"#utility.yul\":6529:6601   */\n      tag_413\n        /* \"#utility.yul\":6597:6599   */\n      0x40\n        /* \"#utility.yul\":6586:6595   */\n      dup4\n        /* \"#utility.yul\":6582:6600   */\n      add\n        /* \"#utility.yul\":6573:6579   */\n      dup5\n        /* \"#utility.yul\":6529:6601   */\n      tag_265\n      jump\t// in\n    tag_413:\n        /* \"#utility.yul\":6075:6608   */\n      swap5\n      swap4\n      pop\n      pop\n      pop\n      pop\n      jump\t// out\n        /* \"#utility.yul\":6614:7593   */\n    tag_33:\n        /* \"#utility.yul\":6711:6717   */\n      0x00\n        /* \"#utility.yul\":6719:6725   */\n      dup1\n        /* \"#utility.yul\":6727:6733   */\n      0x00\n        /* \"#utility.yul\":6776:6778   */\n      0x60\n        /* \"#utility.yul\":6764:6773   */\n      dup5\n        /* \"#utility.yul\":6755:6762   */\n      dup7\n        /* \"#utility.yul\":6751:6774   */\n      sub\n        /* \"#utility.yul\":6747:6779   */\n      slt\n        /* \"#utility.yul\":6744:6863   */\n      iszero\n      tag_415\n      jumpi\n        /* \"#utility.yul\":6782:6861   */\n      tag_416\n      tag_246\n      jump\t// in\n    tag_416:\n        /* \"#utility.yul\":6744:6863   */\n    tag_415:\n        /* \"#utility.yul\":6930:6931   */\n      0x00\n        /* \"#utility.yul\":6919:6928   */\n      dup5\n        /* \"#utility.yul\":6915:6932   */\n      add\n        /* \"#utility.yul\":6902:6933   */\n      calldataload\n        /* \"#utility.yul\":6960:6978   */\n      0xffffffffffffffff\n        /* \"#utility.yul\":6952:6958   */\n      dup2\n        /* \"#utility.yul\":6949:6979   */\n      gt\n        /* \"#utility.yul\":6946:7063   */\n      iszero\n      tag_417\n      jumpi\n        /* \"#utility.yul\":6982:7061   */\n      tag_418\n      tag_247\n      jump\t// in\n    tag_418:\n        /* \"#utility.yul\":6946:7063   */\n    tag_417:\n        /* \"#utility.yul\":7087:7150   */\n      tag_419\n        /* \"#utility.yul\":7142:7149   */\n      dup7\n        /* \"#utility.yul\":7133:7139   */\n      dup3\n        /* \"#utility.yul\":7122:7131   */\n      dup8\n        /* \"#utility.yul\":7118:7140   */\n      add\n        /* \"#utility.yul\":7087:7150   */\n      tag_261\n      jump\t// in\n    tag_419:\n        /* \"#utility.yul\":7077:7150   */\n      swap4\n      pop\n        /* \"#utility.yul\":6873:7160   */\n      pop\n        /* \"#utility.yul\":7227:7229   */\n      0x20\n        /* \"#utility.yul\":7216:7225   */\n      dup5\n        /* \"#utility.yul\":7212:7230   */\n      add\n        /* \"#utility.yul\":7199:7231   */\n      calldataload\n        /* \"#utility.yul\":7258:7276   */\n      0xffffffffffffffff\n        /* \"#utility.yul\":7250:7256   */\n      dup2\n        /* \"#utility.yul\":7247:7277   */\n      gt\n        /* \"#utility.yul\":7244:7361   */\n      iszero\n      tag_420\n      jumpi\n        /* \"#utility.yul\":7280:7359   */\n      tag_421\n      tag_247\n      jump\t// in\n    tag_421:\n        /* \"#utility.yul\":7244:7361   */\n    tag_420:\n        /* \"#utility.yul\":7385:7448   */\n      tag_422\n        /* \"#utility.yul\":7440:7447   */\n      dup7\n        /* \"#utility.yul\":7431:7437   */\n      dup3\n        /* \"#utility.yul\":7420:7429   */\n      dup8\n        /* \"#utility.yul\":7416:7438   */\n      add\n        /* \"#utility.yul\":7385:7448   */\n      tag_261\n      jump\t// in\n    tag_422:\n        /* \"#utility.yul\":7375:7448   */\n      swap3\n      pop\n        /* \"#utility.yul\":7170:7458   */\n      pop\n        /* \"#utility.yul\":7497:7499   */\n      0x40\n        /* \"#utility.yul\":7523:7576   */\n      tag_423\n        /* \"#utility.yul\":7568:7575   */\n      dup7\n        /* \"#utility.yul\":7559:7565   */\n      dup3\n        /* \"#utility.yul\":7548:7557   */\n      dup8\n        /* \"#utility.yul\":7544:7566   */\n      add\n        /* \"#utility.yul\":7523:7576   */\n      tag_251\n      jump\t// in\n    tag_423:\n        /* \"#utility.yul\":7513:7576   */\n      swap2\n      pop\n        /* \"#utility.yul\":7468:7586   */\n      pop\n        /* \"#utility.yul\":6614:7593   */\n      swap3\n      pop\n      swap3\n      pop\n      swap3\n      jump\t// out\n        /* \"#utility.yul\":7599:8073   */\n    tag_37:\n        /* \"#utility.yul\":7667:7673   */\n      0x00\n        /* \"#utility.yul\":7675:7681   */\n      dup1\n        /* \"#utility.yul\":7724:7726   */\n      0x40\n        /* \"#utility.yul\":7712:7721   */\n      dup4\n        /* \"#utility.yul\":7703:7710   */\n      dup6\n        /* \"#utility.yul\":7699:7722   */\n      sub\n        /* \"#utility.yul\":7695:7727   */\n      slt\n        /* \"#utility.yul\":7692:7811   */\n      iszero\n      tag_425\n      jumpi\n        /* \"#utility.yul\":7730:7809   */\n      tag_426\n      tag_246\n      jump\t// in\n    tag_426:\n        /* \"#utility.yul\":7692:7811   */\n    tag_425:\n        /* \"#utility.yul\":7850:7851   */\n      0x00\n        /* \"#utility.yul\":7875:7928   */\n      tag_427\n        /* \"#utility.yul\":7920:7927   */\n      dup6\n        /* \"#utility.yul\":7911:7917   */\n      dup3\n        /* \"#utility.yul\":7900:7909   */\n      dup7\n        /* \"#utility.yul\":7896:7918   */\n      add\n        /* \"#utility.yul\":7875:7928   */\n      tag_264\n      jump\t// in\n    tag_427:\n        /* \"#utility.yul\":7865:7928   */\n      swap3\n      pop\n        /* \"#utility.yul\":7821:7938   */\n      pop\n        /* \"#utility.yul\":7977:7979   */\n      0x20\n        /* \"#utility.yul\":8003:8056   */\n      tag_428\n        /* \"#utility.yul\":8048:8055   */\n      dup6\n        /* \"#utility.yul\":8039:8045   */\n      dup3\n        /* \"#utility.yul\":8028:8037   */\n      dup7\n        /* \"#utility.yul\":8024:8046   */\n      add\n        /* \"#utility.yul\":8003:8056   */\n      tag_251\n      jump\t// in\n    tag_428:\n        /* \"#utility.yul\":7993:8056   */\n      swap2\n      pop\n        /* \"#utility.yul\":7948:8066   */\n      pop\n        /* \"#utility.yul\":7599:8073   */\n      swap3\n      pop\n      swap3\n      swap1\n      pop\n      jump\t// out\n        /* \"#utility.yul\":8079:8703   */\n    tag_43:\n        /* \"#utility.yul\":8268:8272   */\n      0x00\n        /* \"#utility.yul\":8306:8308   */\n      0x60\n        /* \"#utility.yul\":8295:8304   */\n      dup3\n        /* \"#utility.yul\":8291:8309   */\n      add\n        /* \"#utility.yul\":8283:8309   */\n      swap1\n      pop\n        /* \"#utility.yul\":8319:8390   */\n      tag_430\n        /* \"#utility.yul\":8387:8388   */\n      0x00\n        /* \"#utility.yul\":8376:8385   */\n      dup4\n        /* \"#utility.yul\":8372:8389   */\n      add\n        /* \"#utility.yul\":8363:8369   */\n      dup7\n        /* \"#utility.yul\":8319:8390   */\n      tag_265\n      jump\t// in\n    tag_430:\n        /* \"#utility.yul\":8437:8446   */\n      dup2\n        /* \"#utility.yul\":8431:8435   */\n      dup2\n        /* \"#utility.yul\":8427:8447   */\n      sub\n        /* \"#utility.yul\":8422:8424   */\n      0x20\n        /* \"#utility.yul\":8411:8420   */\n      dup4\n        /* \"#utility.yul\":8407:8425   */\n      add\n        /* \"#utility.yul\":8400:8448   */\n      mstore\n        /* \"#utility.yul\":8465:8543   */\n      tag_431\n        /* \"#utility.yul\":8538:8542   */\n      dup2\n        /* \"#utility.yul\":8529:8535   */\n      dup6\n        /* \"#utility.yul\":8465:8543   */\n      tag_269\n      jump\t// in\n    tag_431:\n        /* \"#utility.yul\":8457:8543   */\n      swap1\n      pop\n        /* \"#utility.yul\":8590:8599   */\n      dup2\n        /* \"#utility.yul\":8584:8588   */\n      dup2\n        /* \"#utility.yul\":8580:8600   */\n      sub\n        /* \"#utility.yul\":8575:8577   */\n      0x40\n        /* \"#utility.yul\":8564:8573   */\n      dup4\n        /* \"#utility.yul\":8560:8578   */\n      add\n        /* \"#utility.yul\":8553:8601   */\n      mstore\n        /* \"#utility.yul\":8618:8696   */\n      tag_432\n        /* \"#utility.yul\":8691:8695   */\n      dup2\n        /* \"#utility.yul\":8682:8688   */\n      dup5\n        /* \"#utility.yul\":8618:8696   */\n      tag_269\n      jump\t// in\n    tag_432:\n        /* \"#utility.yul\":8610:8696   */\n      swap1\n      pop\n        /* \"#utility.yul\":8079:8703   */\n      swap5\n      swap4\n      pop\n      pop\n      pop\n      pop\n      jump\t// out\n        /* \"#utility.yul\":8709:8827   */\n    tag_270:\n        /* \"#utility.yul\":8796:8820   */\n      tag_434\n        /* \"#utility.yul\":8814:8819   */\n      dup2\n        /* \"#utility.yul\":8796:8820   */\n      tag_249\n      jump\t// in\n    tag_434:\n        /* \"#utility.yul\":8791:8794   */\n      dup3\n        /* \"#utility.yul\":8784:8821   */\n      mstore\n        /* \"#utility.yul\":8709:8827   */\n      pop\n      pop\n      jump\t// out\n        /* \"#utility.yul\":8833:9055   */\n    tag_50:\n        /* \"#utility.yul\":8926:8930   */\n      0x00\n        /* \"#utility.yul\":8964:8966   */\n      0x20\n        /* \"#utility.yul\":8953:8962   */\n      dup3\n        /* \"#utility.yul\":8949:8967   */\n      add\n        /* \"#utility.yul\":8941:8967   */\n      swap1\n      pop\n        /* \"#utility.yul\":8977:9048   */\n      tag_436\n        /* \"#utility.yul\":9045:9046   */\n      0x00\n        /* \"#utility.yul\":9034:9043   */\n      dup4\n        /* \"#utility.yul\":9030:9047   */\n      add\n        /* \"#utility.yul\":9021:9027   */\n      dup5\n        /* \"#utility.yul\":8977:9048   */\n      tag_270\n      jump\t// in\n    tag_436:\n        /* \"#utility.yul\":8833:9055   */\n      swap3\n      swap2\n      pop\n      pop\n      jump\t// out\n        /* \"#utility.yul\":9061:9390   */\n    tag_53:\n        /* \"#utility.yul\":9120:9126   */\n      0x00\n        /* \"#utility.yul\":9169:9171   */\n      0x20\n        /* \"#utility.yul\":9157:9166   */\n      dup3\n        /* \"#utility.yul\":9148:9155   */\n      dup5\n        /* \"#utility.yul\":9144:9167   */\n      sub\n        /* \"#utility.yul\":9140:9172   */\n      slt\n        /* \"#utility.yul\":9137:9256   */\n      iszero\n      tag_438\n      jumpi\n        /* \"#utility.yul\":9175:9254   */\n      tag_439\n      tag_246\n      jump\t// in\n    tag_439:\n        /* \"#utility.yul\":9137:9256   */\n    tag_438:\n        /* \"#utility.yul\":9295:9296   */\n      0x00\n        /* \"#utility.yul\":9320:9373   */\n      tag_440\n        /* \"#utility.yul\":9365:9372   */\n      dup5\n        /* \"#utility.yul\":9356:9362   */\n      dup3\n        /* \"#utility.yul\":9345:9354   */\n      dup6\n        /* \"#utility.yul\":9341:9363   */\n      add\n        /* \"#utility.yul\":9320:9373   */\n      tag_251\n      jump\t// in\n    tag_440:\n        /* \"#utility.yul\":9310:9373   */\n      swap2\n      pop\n        /* \"#utility.yul\":9266:9383   */\n      pop\n        /* \"#utility.yul\":9061:9390   */\n      swap3\n      swap2\n      pop\n      pop\n      jump\t// out\n        /* \"#utility.yul\":9396:9486   */\n    tag_271:\n        /* \"#utility.yul\":9430:9437   */\n      0x00\n        /* \"#utility.yul\":9473:9478   */\n      dup2\n        /* \"#utility.yul\":9466:9479   */\n      iszero\n        /* \"#utility.yul\":9459:9480   */\n      iszero\n        /* \"#utility.yul\":9448:9480   */\n      swap1\n      pop\n        /* \"#utility.yul\":9396:9486   */\n      swap2\n      swap1\n      pop\n      jump\t// out\n        /* \"#utility.yul\":9492:9601   */\n    tag_272:\n        /* \"#utility.yul\":9573:9594   */\n      tag_443\n        /* \"#utility.yul\":9588:9593   */\n      dup2\n        /* \"#utility.yul\":9573:9594   */\n      tag_271\n      jump\t// in\n    tag_443:\n        /* \"#utility.yul\":9568:9571   */\n      dup3\n        /* \"#utility.yul\":9561:9595   */\n      mstore\n        /* \"#utility.yul\":9492:9601   */\n      pop\n      pop\n      jump\t// out\n        /* \"#utility.yul\":9607:10128   */\n    tag_59:\n        /* \"#utility.yul\":9770:9774   */\n      0x00\n        /* \"#utility.yul\":9808:9810   */\n      0x60\n        /* \"#utility.yul\":9797:9806   */\n      dup3\n        /* \"#utility.yul\":9793:9811   */\n      add\n        /* \"#utility.yul\":9785:9811   */\n      swap1\n      pop\n        /* \"#utility.yul\":9821:9892   */\n      tag_445\n        /* \"#utility.yul\":9889:9890   */\n      0x00\n        /* \"#utility.yul\":9878:9887   */\n      dup4\n        /* \"#utility.yul\":9874:9891   */\n      add\n        /* \"#utility.yul\":9865:9871   */\n      dup7\n        /* \"#utility.yul\":9821:9892   */\n      tag_270\n      jump\t// in\n    tag_445:\n        /* \"#utility.yul\":9939:9948   */\n      dup2\n        /* \"#utility.yul\":9933:9937   */\n      dup2\n        /* \"#utility.yul\":9929:9949   */\n      sub\n        /* \"#utility.yul\":9924:9926   */\n      0x20\n        /* \"#utility.yul\":9913:9922   */\n      dup4\n        /* \"#utility.yul\":9909:9927   */\n      add\n        /* \"#utility.yul\":9902:9950   */\n      mstore\n        /* \"#utility.yul\":9967:10045   */\n      tag_446\n        /* \"#utility.yul\":10040:10044   */\n      dup2\n        /* \"#utility.yul\":10031:10037   */\n      dup6\n        /* \"#utility.yul\":9967:10045   */\n      tag_269\n      jump\t// in\n    tag_446:\n        /* \"#utility.yul\":9959:10045   */\n      swap1\n      pop\n        /* \"#utility.yul\":10055:10121   */\n      tag_447\n        /* \"#utility.yul\":10117:10119   */\n      0x40\n        /* \"#utility.yul\":10106:10115   */\n      dup4\n        /* \"#utility.yul\":10102:10120   */\n      add\n        /* \"#utility.yul\":10093:10099   */\n      dup5\n        /* \"#utility.yul\":10055:10121   */\n      tag_272\n      jump\t// in\n    tag_447:\n        /* \"#utility.yul\":9607:10128   */\n      swap5\n      swap4\n      pop\n      pop\n      pop\n      pop\n      jump\t// out\n        /* \"#utility.yul\":10134:10354   */\n    tag_273:\n        /* \"#utility.yul\":10274:10308   */\n      0x4f6e6c792061646d696e206861732061636365737320746f20646f2074686973\n        /* \"#utility.yul\":10270:10271   */\n      0x00\n        /* \"#utility.yul\":10262:10268   */\n      dup3\n        /* \"#utility.yul\":10258:10272   */\n      add\n        /* \"#utility.yul\":10251:10309   */\n      mstore\n        /* \"#utility.yul\":10343:10346   */\n      0x2e00000000000000000000000000000000000000000000000000000000000000\n        /* \"#utility.yul\":10338:10340   */\n      0x20\n        /* \"#utility.yul\":10330:10336   */\n      dup3\n        /* \"#utility.yul\":10326:10341   */\n      add\n        /* \"#utility.yul\":10319:10347   */\n      mstore\n        /* \"#utility.yul\":10134:10354   */\n      pop\n      jump\t// out\n        /* \"#utility.yul\":10360:10726   */\n    tag_274:\n        /* \"#utility.yul\":10502:10505   */\n      0x00\n        /* \"#utility.yul\":10523:10590   */\n      tag_450\n        /* \"#utility.yul\":10587:10589   */\n      0x21\n        /* \"#utility.yul\":10582:10585   */\n      dup4\n        /* \"#utility.yul\":10523:10590   */\n      tag_267\n      jump\t// in\n    tag_450:\n        /* \"#utility.yul\":10516:10590   */\n      swap2\n      pop\n        /* \"#utility.yul\":10599:10692   */\n      tag_451\n        /* \"#utility.yul\":10688:10691   */\n      dup3\n        /* \"#utility.yul\":10599:10692   */\n      tag_273\n      jump\t// in\n    tag_451:\n        /* \"#utility.yul\":10717:10719   */\n      0x40\n        /* \"#utility.yul\":10712:10715   */\n      dup3\n        /* \"#utility.yul\":10708:10720   */\n      add\n        /* \"#utility.yul\":10701:10720   */\n      swap1\n      pop\n        /* \"#utility.yul\":10360:10726   */\n      swap2\n      swap1\n      pop\n      jump\t// out\n        /* \"#utility.yul\":10732:11151   */\n    tag_65:\n        /* \"#utility.yul\":10898:10902   */\n      0x00\n        /* \"#utility.yul\":10936:10938   */\n      0x20\n        /* \"#utility.yul\":10925:10934   */\n      dup3\n        /* \"#utility.yul\":10921:10939   */\n      add\n        /* \"#utility.yul\":10913:10939   */\n      swap1\n      pop\n        /* \"#utility.yul\":10985:10994   */\n      dup2\n        /* \"#utility.yul\":10979:10983   */\n      dup2\n        /* \"#utility.yul\":10975:10995   */\n      sub\n        /* \"#utility.yul\":10971:10972   */\n      0x00\n        /* \"#utility.yul\":10960:10969   */\n      dup4\n        /* \"#utility.yul\":10956:10973   */\n      add\n        /* \"#utility.yul\":10949:10996   */\n      mstore\n        /* \"#utility.yul\":11013:11144   */\n      tag_453\n        /* \"#utility.yul\":11139:11143   */\n      dup2\n        /* \"#utility.yul\":11013:11144   */\n      tag_274\n      jump\t// in\n    tag_453:\n        /* \"#utility.yul\":11005:11144   */\n      swap1\n      pop\n        /* \"#utility.yul\":10732:11151   */\n      swap2\n      swap1\n      pop\n      jump\t// out\n        /* \"#utility.yul\":11157:11337   */\n    tag_68:\n        /* \"#utility.yul\":11205:11282   */\n      0x4e487b7100000000000000000000000000000000000000000000000000000000\n        /* \"#utility.yul\":11202:11203   */\n      0x00\n        /* \"#utility.yul\":11195:11283   */\n      mstore\n        /* \"#utility.yul\":11302:11306   */\n      0x21\n        /* \"#utility.yul\":11299:11300   */\n      0x04\n        /* \"#utility.yul\":11292:11307   */\n      mstore\n        /* \"#utility.yul\":11326:11330   */\n      0x24\n        /* \"#utility.yul\":11323:11324   */\n      0x00\n        /* \"#utility.yul\":11316:11331   */\n      revert\n        /* \"#utility.yul\":11343:11565   */\n    tag_275:\n        /* \"#utility.yul\":11483:11517   */\n      0x566f74696e6720616c72656164792073746172746564206f7220636f6d706c65\n        /* \"#utility.yul\":11479:11480   */\n      0x00\n        /* \"#utility.yul\":11471:11477   */\n      dup3\n        /* \"#utility.yul\":11467:11481   */\n      add\n        /* \"#utility.yul\":11460:11518   */\n      mstore\n        /* \"#utility.yul\":11552:11557   */\n      0x7465640000000000000000000000000000000000000000000000000000000000\n        /* \"#utility.yul\":11547:11549   */\n      0x20\n        /* \"#utility.yul\":11539:11545   */\n      dup3\n        /* \"#utility.yul\":11535:11550   */\n      add\n        /* \"#utility.yul\":11528:11558   */\n      mstore\n        /* \"#utility.yul\":11343:11565   */\n      pop\n      jump\t// out\n        /* \"#utility.yul\":11571:11937   */\n    tag_276:\n        /* \"#utility.yul\":11713:11716   */\n      0x00\n        /* \"#utility.yul\":11734:11801   */\n      tag_457\n        /* \"#utility.yul\":11798:11800   */\n      0x23\n        /* \"#utility.yul\":11793:11796   */\n      dup4\n        /* \"#utility.yul\":11734:11801   */\n      tag_267\n      jump\t// in\n    tag_457:\n        /* \"#utility.yul\":11727:11801   */\n      swap2\n      pop\n        /* \"#utility.yul\":11810:11903   */\n      tag_458\n        /* \"#utility.yul\":11899:11902   */\n      dup3\n        /* \"#utility.yul\":11810:11903   */\n      tag_275\n      jump\t// in\n    tag_458:\n        /* \"#utility.yul\":11928:11930   */\n      0x40\n        /* \"#utility.yul\":11923:11926   */\n      dup3\n        /* \"#utility.yul\":11919:11931   */\n      add\n        /* \"#utility.yul\":11912:11931   */\n      swap1\n      pop\n        /* \"#utility.yul\":11571:11937   */\n      swap2\n      swap1\n      pop\n      jump\t// out\n        /* \"#utility.yul\":11943:12362   */\n    tag_73:\n        /* \"#utility.yul\":12109:12113   */\n      0x00\n        /* \"#utility.yul\":12147:12149   */\n      0x20\n        /* \"#utility.yul\":12136:12145   */\n      dup3\n        /* \"#utility.yul\":12132:12150   */\n      add\n        /* \"#utility.yul\":12124:12150   */\n      swap1\n      pop\n        /* \"#utility.yul\":12196:12205   */\n      dup2\n        /* \"#utility.yul\":12190:12194   */\n      dup2\n        /* \"#utility.yul\":12186:12206   */\n      sub\n        /* \"#utility.yul\":12182:12183   */\n      0x00\n        /* \"#utility.yul\":12171:12180   */\n      dup4\n        /* \"#utility.yul\":12167:12184   */\n      add\n        /* \"#utility.yul\":12160:12207   */\n      mstore\n        /* \"#utility.yul\":12224:12355   */\n      tag_460\n        /* \"#utility.yul\":12350:12354   */\n      dup2\n        /* \"#utility.yul\":12224:12355   */\n      tag_276\n      jump\t// in\n    tag_460:\n        /* \"#utility.yul\":12216:12355   */\n      swap1\n      pop\n        /* \"#utility.yul\":11943:12362   */\n      swap2\n      swap1\n      pop\n      jump\t// out\n        /* \"#utility.yul\":12368:12538   */\n    tag_277:\n        /* \"#utility.yul\":12508:12530   */\n      0x766f74657220616c72656164792061646465642e000000000000000000000000\n        /* \"#utility.yul\":12504:12505   */\n      0x00\n        /* \"#utility.yul\":12496:12502   */\n      dup3\n        /* \"#utility.yul\":12492:12506   */\n      add\n        /* \"#utility.yul\":12485:12531   */\n      mstore\n        /* \"#utility.yul\":12368:12538   */\n      pop\n      jump\t// out\n        /* \"#utility.yul\":12544:12910   */\n    tag_278:\n        /* \"#utility.yul\":12686:12689   */\n      0x00\n        /* \"#utility.yul\":12707:12774   */\n      tag_463\n        /* \"#utility.yul\":12771:12773   */\n      0x14\n        /* \"#utility.yul\":12766:12769   */\n      dup4\n        /* \"#utility.yul\":12707:12774   */\n      tag_267\n      jump\t// in\n    tag_463:\n        /* \"#utility.yul\":12700:12774   */\n      swap2\n      pop\n        /* \"#utility.yul\":12783:12876   */\n      tag_464\n        /* \"#utility.yul\":12872:12875   */\n      dup3\n        /* \"#utility.yul\":12783:12876   */\n      tag_277\n      jump\t// in\n    tag_464:\n        /* \"#utility.yul\":12901:12903   */\n      0x20\n        /* \"#utility.yul\":12896:12899   */\n      dup3\n        /* \"#utility.yul\":12892:12904   */\n      add\n        /* \"#utility.yul\":12885:12904   */\n      swap1\n      pop\n        /* \"#utility.yul\":12544:12910   */\n      swap2\n      swap1\n      pop\n      jump\t// out\n        /* \"#utility.yul\":12916:13335   */\n    tag_76:\n        /* \"#utility.yul\":13082:13086   */\n      0x00\n        /* \"#utility.yul\":13120:13122   */\n      0x20\n        /* \"#utility.yul\":13109:13118   */\n      dup3\n        /* \"#utility.yul\":13105:13123   */\n      add\n        /* \"#utility.yul\":13097:13123   */\n      swap1\n      pop\n        /* \"#utility.yul\":13169:13178   */\n      dup2\n        /* \"#utility.yul\":13163:13167   */\n      dup2\n        /* \"#utility.yul\":13159:13179   */\n      sub\n        /* \"#utility.yul\":13155:13156   */\n      0x00\n        /* \"#utility.yul\":13144:13153   */\n      dup4\n        /* \"#utility.yul\":13140:13157   */\n      add\n        /* \"#utility.yul\":13133:13180   */\n      mstore\n        /* \"#utility.yul\":13197:13328   */\n      tag_466\n        /* \"#utility.yul\":13323:13327   */\n      dup2\n        /* \"#utility.yul\":13197:13328   */\n      tag_278\n      jump\t// in\n    tag_466:\n        /* \"#utility.yul\":13189:13328   */\n      swap1\n      pop\n        /* \"#utility.yul\":12916:13335   */\n      swap2\n      swap1\n      pop\n      jump\t// out\n        /* \"#utility.yul\":13341:13521   */\n    tag_279:\n        /* \"#utility.yul\":13389:13466   */\n      0x4e487b7100000000000000000000000000000000000000000000000000000000\n        /* \"#utility.yul\":13386:13387   */\n      0x00\n        /* \"#utility.yul\":13379:13467   */\n      mstore\n        /* \"#utility.yul\":13486:13490   */\n      0x11\n        /* \"#utility.yul\":13483:13484   */\n      0x04\n        /* \"#utility.yul\":13476:13491   */\n      mstore\n        /* \"#utility.yul\":13510:13514   */\n      0x24\n        /* \"#utility.yul\":13507:13508   */\n      0x00\n        /* \"#utility.yul\":13500:13515   */\n      revert\n        /* \"#utility.yul\":13527:13760   */\n    tag_78:\n        /* \"#utility.yul\":13566:13569   */\n      0x00\n        /* \"#utility.yul\":13589:13613   */\n      tag_469\n        /* \"#utility.yul\":13607:13612   */\n      dup3\n        /* \"#utility.yul\":13589:13613   */\n      tag_262\n      jump\t// in\n    tag_469:\n        /* \"#utility.yul\":13580:13613   */\n      swap2\n      pop\n        /* \"#utility.yul\":13635:13701   */\n      0xffffffffffffffffffffffffffffffffffffffffffffffffffffffffffffffff\n        /* \"#utility.yul\":13628:13633   */\n      dup3\n        /* \"#utility.yul\":13625:13702   */\n      sub\n        /* \"#utility.yul\":13622:13725   */\n      tag_470\n      jumpi\n        /* \"#utility.yul\":13705:13723   */\n      tag_471\n      tag_279\n      jump\t// in\n    tag_471:\n        /* \"#utility.yul\":13622:13725   */\n    tag_470:\n        /* \"#utility.yul\":13752:13753   */\n      0x01\n        /* \"#utility.yul\":13745:13750   */\n      dup3\n        /* \"#utility.yul\":13741:13754   */\n      add\n        /* \"#utility.yul\":13734:13754   */\n      swap1\n      pop\n        /* \"#utility.yul\":13527:13760   */\n      swap2\n      swap1\n      pop\n      jump\t// out\n        /* \"#utility.yul\":13766:13946   */\n    tag_280:\n        /* \"#utility.yul\":13814:13891   */\n      0x4e487b7100000000000000000000000000000000000000000000000000000000\n        /* \"#utility.yul\":13811:13812   */\n      0x00\n        /* \"#utility.yul\":13804:13892   */\n      mstore\n        /* \"#utility.yul\":13911:13915   */\n      0x22\n        /* \"#utility.yul\":13908:13909   */\n      0x04\n        /* \"#utility.yul\":13901:13916   */\n      mstore\n        /* \"#utility.yul\":13935:13939   */\n      0x24\n        /* \"#utility.yul\":13932:13933   */\n      0x00\n        /* \"#utility.yul\":13925:13940   */\n      revert\n        /* \"#utility.yul\":13952:14272   */\n    tag_104:\n        /* \"#utility.yul\":13996:14002   */\n      0x00\n        /* \"#utility.yul\":14033:14034   */\n      0x02\n        /* \"#utility.yul\":14027:14031   */\n      dup3\n        /* \"#utility.yul\":14023:14035   */\n      div\n        /* \"#utility.yul\":14013:14035   */\n      swap1\n      pop\n        /* \"#utility.yul\":14080:14081   */\n      0x01\n        /* \"#utility.yul\":14074:14078   */\n      dup3\n        /* \"#utility.yul\":14070:14082   */\n      and\n        /* \"#utility.yul\":14101:14119   */\n      dup1\n        /* \"#utility.yul\":14091:14172   */\n      tag_474\n      jumpi\n        /* \"#utility.yul\":14157:14161   */\n      0x7f\n        /* \"#utility.yul\":14149:14155   */\n      dup3\n        /* \"#utility.yul\":14145:14162   */\n      and\n        /* \"#utility.yul\":14135:14162   */\n      swap2\n      pop\n        /* \"#utility.yul\":14091:14172   */\n    tag_474:\n        /* \"#utility.yul\":14219:14221   */\n      0x20\n        /* \"#utility.yul\":14211:14217   */\n      dup3\n        /* \"#utility.yul\":14208:14222   */\n      lt\n        /* \"#utility.yul\":14188:14206   */\n      dup2\n        /* \"#utility.yul\":14185:14223   */\n      sub\n        /* \"#utility.yul\":14182:14266   */\n      tag_475\n      jumpi\n        /* \"#utility.yul\":14238:14256   */\n      tag_476\n      tag_280\n      jump\t// in\n    tag_476:\n        /* \"#utility.yul\":14182:14266   */\n    tag_475:\n        /* \"#utility.yul\":14003:14272   */\n      pop\n        /* \"#utility.yul\":13952:14272   */\n      swap2\n      swap1\n      pop\n      jump\t// out\n        /* \"#utility.yul\":14278:14419   */\n    tag_281:\n        /* \"#utility.yul\":14327:14331   */\n      0x00\n        /* \"#utility.yul\":14350:14353   */\n      dup2\n        /* \"#utility.yul\":14342:14353   */\n      swap1\n      pop\n        /* \"#utility.yul\":14373:14376   */\n      dup2\n        /* \"#utility.yul\":14370:14371   */\n      0x00\n        /* \"#utility.yul\":14363:14377   */\n      mstore\n        /* \"#utility.yul\":14407:14411   */\n      0x20\n        /* \"#utility.yul\":14404:14405   */\n      0x00\n        /* \"#utility.yul\":14394:14412   */\n      keccak256\n        /* \"#utility.yul\":14386:14412   */\n      swap1\n      pop\n        /* \"#utility.yul\":14278:14419   */\n      swap2\n      swap1\n      pop\n      jump\t// out\n        /* \"#utility.yul\":14425:14518   */\n    tag_282:\n        /* \"#utility.yul\":14462:14468   */\n      0x00\n        /* \"#utility.yul\":14509:14511   */\n      0x20\n        /* \"#utility.yul\":14504:14506   */\n      0x1f\n        /* \"#utility.yul\":14497:14502   */\n      dup4\n        /* \"#utility.yul\":14493:14507   */\n      add\n        /* \"#utility.yul\":14489:14512   */\n      div\n        /* \"#utility.yul\":14479:14512   */\n      swap1\n      pop\n        /* \"#utility.yul\":14425:14518   */\n      swap2\n      swap1\n      pop\n      jump\t// out\n        /* \"#utility.yul\":14524:14631   */\n    tag_283:\n        /* \"#utility.yul\":14568:14576   */\n      0x00\n        /* \"#utility.yul\":14618:14623   */\n      dup3\n        /* \"#utility.yul\":14612:14616   */\n      dup3\n        /* \"#utility.yul\":14608:14624   */\n      shl\n        /* \"#utility.yul\":14587:14624   */\n      swap1\n      pop\n        /* \"#utility.yul\":14524:14631   */\n      swap3\n      swap2\n      pop\n      pop\n      jump\t// out\n        /* \"#utility.yul\":14637:15030   */\n    tag_284:\n        /* \"#utility.yul\":14706:14712   */\n      0x00\n        /* \"#utility.yul\":14756:14757   */\n      0x08\n        /* \"#utility.yul\":14744:14754   */\n      dup4\n        /* \"#utility.yul\":14740:14758   */\n      mul\n        /* \"#utility.yul\":14779:14876   */\n      tag_481\n        /* \"#utility.yul\":14809:14875   */\n      0xffffffffffffffffffffffffffffffffffffffffffffffffffffffffffffffff\n        /* \"#utility.yul\":14798:14807   */\n      dup3\n        /* \"#utility.yul\":14779:14876   */\n      tag_283\n      jump\t// in\n    tag_481:\n        /* \"#utility.yul\":14897:14936   */\n      tag_482\n        /* \"#utility.yul\":14927:14935   */\n      dup7\n        /* \"#utility.yul\":14916:14925   */\n      dup4\n        /* \"#utility.yul\":14897:14936   */\n      tag_283\n      jump\t// in\n    tag_482:\n        /* \"#utility.yul\":14885:14936   */\n      swap6\n      pop\n        /* \"#utility.yul\":14969:14973   */\n      dup1\n        /* \"#utility.yul\":14965:14974   */\n      not\n        /* \"#utility.yul\":14958:14963   */\n      dup5\n        /* \"#utility.yul\":14954:14975   */\n      and\n        /* \"#utility.yul\":14945:14975   */\n      swap4\n      pop\n        /* \"#utility.yul\":15018:15022   */\n      dup1\n        /* \"#utility.yul\":15008:15016   */\n      dup7\n        /* \"#utility.yul\":15004:15023   */\n      and\n        /* \"#utility.yul\":14997:15002   */\n      dup5\n        /* \"#utility.yul\":14994:15024   */\n      or\n        /* \"#utility.yul\":14984:15024   */\n      swap3\n      pop\n        /* \"#utility.yul\":14713:15030   */\n      pop\n      pop\n        /* \"#utility.yul\":14637:15030   */\n      swap4\n      swap3\n      pop\n      pop\n      pop\n      jump\t// out\n        /* \"#utility.yul\":15036:15096   */\n    tag_285:\n        /* \"#utility.yul\":15064:15067   */\n      0x00\n        /* \"#utility.yul\":15085:15090   */\n      dup2\n        /* \"#utility.yul\":15078:15090   */\n      swap1\n      pop\n        /* \"#utility.yul\":15036:15096   */\n      swap2\n      swap1\n      pop\n      jump\t// out\n        /* \"#utility.yul\":15102:15244   */\n    tag_286:\n        /* \"#utility.yul\":15152:15161   */\n      0x00\n        /* \"#utility.yul\":15185:15238   */\n      tag_485\n        /* \"#utility.yul\":15203:15237   */\n      tag_486\n        /* \"#utility.yul\":15212:15236   */\n      tag_487\n        /* \"#utility.yul\":15230:15235   */\n      dup5\n        /* \"#utility.yul\":15212:15236   */\n      tag_262\n      jump\t// in\n    tag_487:\n        /* \"#utility.yul\":15203:15237   */\n      tag_285\n      jump\t// in\n    tag_486:\n        /* \"#utility.yul\":15185:15238   */\n      tag_262\n      jump\t// in\n    tag_485:\n        /* \"#utility.yul\":15172:15238   */\n      swap1\n      pop\n        /* \"#utility.yul\":15102:15244   */\n      swap2\n      swap1\n      pop\n      jump\t// out\n        /* \"#utility.yul\":15250:15325   */\n    tag_287:\n        /* \"#utility.yul\":15293:15296   */\n      0x00\n        /* \"#utility.yul\":15314:15319   */\n      dup2\n        /* \"#utility.yul\":15307:15319   */\n      swap1\n      pop\n        /* \"#utility.yul\":15250:15325   */\n      swap2\n      swap1\n      pop\n      jump\t// out\n        /* \"#utility.yul\":15331:15600   */\n    tag_288:\n        /* \"#utility.yul\":15441:15480   */\n      tag_490\n        /* \"#utility.yul\":15472:15479   */\n      dup4\n        /* \"#utility.yul\":15441:15480   */\n      tag_286\n      jump\t// in\n    tag_490:\n        /* \"#utility.yul\":15502:15593   */\n      tag_491\n        /* \"#utility.yul\":15551:15592   */\n      tag_492\n        /* \"#utility.yul\":15575:15591   */\n      dup3\n        /* \"#utility.yul\":15551:15592   */\n      tag_287\n      jump\t// in\n    tag_492:\n        /* \"#utility.yul\":15543:15549   */\n      dup5\n        /* \"#utility.yul\":15536:15540   */\n      dup5\n        /* \"#utility.yul\":15530:15541   */\n      sload\n        /* \"#utility.yul\":15502:15593   */\n      tag_284\n      jump\t// in\n    tag_491:\n        /* \"#utility.yul\":15496:15500   */\n      dup3\n        /* \"#utility.yul\":15489:15594   */\n      sstore\n        /* \"#utility.yul\":15407:15600   */\n      pop\n        /* \"#utility.yul\":15331:15600   */\n      pop\n      pop\n      pop\n      jump\t// out\n        /* \"#utility.yul\":15606:15679   */\n    tag_289:\n        /* \"#utility.yul\":15651:15654   */\n      0x00\n        /* \"#utility.yul\":15606:15679   */\n      swap1\n      jump\t// out\n        /* \"#utility.yul\":15685:15874   */\n    tag_290:\n        /* \"#utility.yul\":15762:15794   */\n      tag_495\n      tag_289\n      jump\t// in\n    tag_495:\n        /* \"#utility.yul\":15803:15868   */\n      tag_496\n        /* \"#utility.yul\":15861:15867   */\n      dup2\n        /* \"#utility.yul\":15853:15859   */\n      dup5\n        /* \"#utility.yul\":15847:15851   */\n      dup5\n        /* \"#utility.yul\":15803:15868   */\n      tag_288\n      jump\t// in\n    tag_496:\n        /* \"#utility.yul\":15738:15874   */\n      pop\n        /* \"#utility.yul\":15685:15874   */\n      pop\n      pop\n      jump\t// out\n        /* \"#utility.yul\":15880:16066   */\n    tag_291:\n        /* \"#utility.yul\":15940:16060   */\n    tag_498:\n        /* \"#utility.yul\":15957:15960   */\n      dup2\n        /* \"#utility.yul\":15950:15955   */\n      dup2\n        /* \"#utility.yul\":15947:15961   */\n      lt\n        /* \"#utility.yul\":15940:16060   */\n      iszero\n      tag_500\n      jumpi\n        /* \"#utility.yul\":16011:16050   */\n      tag_501\n        /* \"#utility.yul\":16048:16049   */\n      0x00\n        /* \"#utility.yul\":16041:16046   */\n      dup3\n        /* \"#utility.yul\":16011:16050   */\n      tag_290\n      jump\t// in\n    tag_501:\n        /* \"#utility.yul\":15984:15985   */\n      0x01\n        /* \"#utility.yul\":15977:15982   */\n      dup2\n        /* \"#utility.yul\":15973:15986   */\n      add\n        /* \"#utility.yul\":15964:15986   */\n      swap1\n      pop\n        /* \"#utility.yul\":15940:16060   */\n      jump(tag_498)\n    tag_500:\n        /* \"#utility.yul\":15880:16066   */\n      pop\n      pop\n      jump\t// out\n        /* \"#utility.yul\":16072:16615   */\n    tag_292:\n        /* \"#utility.yul\":16173:16175   */\n      0x1f\n        /* \"#utility.yul\":16168:16171   */\n      dup3\n        /* \"#utility.yul\":16165:16176   */\n      gt\n        /* \"#utility.yul\":16162:16608   */\n      iszero\n      tag_503\n      jumpi\n        /* \"#utility.yul\":16207:16245   */\n      tag_504\n        /* \"#utility.yul\":16239:16244   */\n      dup2\n        /* \"#utility.yul\":16207:16245   */\n      tag_281\n      jump\t// in\n    tag_504:\n        /* \"#utility.yul\":16291:16320   */\n      tag_505\n        /* \"#utility.yul\":16309:16319   */\n      dup5\n        /* \"#utility.yul\":16291:16320   */\n      tag_282\n      jump\t// in\n    tag_505:\n        /* \"#utility.yul\":16281:16289   */\n      dup2\n        /* \"#utility.yul\":16277:16321   */\n      add\n        /* \"#utility.yul\":16474:16476   */\n      0x20\n        /* \"#utility.yul\":16462:16472   */\n      dup6\n        /* \"#utility.yul\":16459:16477   */\n      lt\n        /* \"#utility.yul\":16456:16505   */\n      iszero\n      tag_506\n      jumpi\n        /* \"#utility.yul\":16495:16503   */\n      dup2\n        /* \"#utility.yul\":16480:16503   */\n      swap1\n      pop\n        /* \"#utility.yul\":16456:16505   */\n    tag_506:\n        /* \"#utility.yul\":16518:16598   */\n      tag_507\n        /* \"#utility.yul\":16574:16596   */\n      tag_508\n        /* \"#utility.yul\":16592:16595   */\n      dup6\n        /* \"#utility.yul\":16574:16596   */\n      tag_282\n      jump\t// in\n    tag_508:\n        /* \"#utility.yul\":16564:16572   */\n      dup4\n        /* \"#utility.yul\":16560:16597   */\n      add\n        /* \"#utility.yul\":16547:16558   */\n      dup3\n        /* \"#utility.yul\":16518:16598   */\n      tag_291\n      jump\t// in\n    tag_507:\n        /* \"#utility.yul\":16177:16608   */\n      pop\n      pop\n        /* \"#utility.yul\":16162:16608   */\n    tag_503:\n        /* \"#utility.yul\":16072:16615   */\n      pop\n      pop\n      pop\n      jump\t// out\n        /* \"#utility.yul\":16621:16738   */\n    tag_293:\n        /* \"#utility.yul\":16675:16683   */\n      0x00\n        /* \"#utility.yul\":16725:16730   */\n      dup3\n        /* \"#utility.yul\":16719:16723   */\n      dup3\n        /* \"#utility.yul\":16715:16731   */\n      shr\n        /* \"#utility.yul\":16694:16731   */\n      swap1\n      pop\n        /* \"#utility.yul\":16621:16738   */\n      swap3\n      swap2\n      pop\n      pop\n      jump\t// out\n        /* \"#utility.yul\":16744:16913   */\n    tag_294:\n        /* \"#utility.yul\":16788:16794   */\n      0x00\n        /* \"#utility.yul\":16821:16872   */\n      tag_511\n        /* \"#utility.yul\":16869:16870   */\n      0x00\n        /* \"#utility.yul\":16865:16871   */\n      not\n        /* \"#utility.yul\":16857:16862   */\n      dup5\n        /* \"#utility.yul\":16854:16855   */\n      0x08\n        /* \"#utility.yul\":16850:16863   */\n      mul\n        /* \"#utility.yul\":16821:16872   */\n      tag_293\n      jump\t// in\n    tag_511:\n        /* \"#utility.yul\":16817:16873   */\n      not\n        /* \"#utility.yul\":16902:16906   */\n      dup1\n        /* \"#utility.yul\":16896:16900   */\n      dup4\n        /* \"#utility.yul\":16892:16907   */\n      and\n        /* \"#utility.yul\":16882:16907   */\n      swap2\n      pop\n        /* \"#utility.yul\":16795:16913   */\n      pop\n        /* \"#utility.yul\":16744:16913   */\n      swap3\n      swap2\n      pop\n      pop\n      jump\t// out\n        /* \"#utility.yul\":16918:17213   */\n    tag_295:\n        /* \"#utility.yul\":16994:16998   */\n      0x00\n        /* \"#utility.yul\":17140:17169   */\n      tag_513\n        /* \"#utility.yul\":17165:17168   */\n      dup4\n        /* \"#utility.yul\":17159:17163   */\n      dup4\n        /* \"#utility.yul\":17140:17169   */\n      tag_294\n      jump\t// in\n    tag_513:\n        /* \"#utility.yul\":17132:17169   */\n      swap2\n      pop\n        /* \"#utility.yul\":17202:17205   */\n      dup3\n        /* \"#utility.yul\":17199:17200   */\n      0x02\n        /* \"#utility.yul\":17195:17206   */\n      mul\n        /* \"#utility.yul\":17189:17193   */\n      dup3\n        /* \"#utility.yul\":17186:17207   */\n      or\n        /* \"#utility.yul\":17178:17207   */\n      swap1\n      pop\n        /* \"#utility.yul\":16918:17213   */\n      swap3\n      swap2\n      pop\n      pop\n      jump\t// out\n        /* \"#utility.yul\":17218:18613   */\n    tag_80:\n        /* \"#utility.yul\":17335:17372   */\n      tag_515\n        /* \"#utility.yul\":17368:17371   */\n      dup3\n        /* \"#utility.yul\":17335:17372   */\n      tag_266\n      jump\t// in\n    tag_515:\n        /* \"#utility.yul\":17437:17455   */\n      0xffffffffffffffff\n        /* \"#utility.yul\":17429:17435   */\n      dup2\n        /* \"#utility.yul\":17426:17456   */\n      gt\n        /* \"#utility.yul\":17423:17479   */\n      iszero\n      tag_516\n      jumpi\n        /* \"#utility.yul\":17459:17477   */\n      tag_517\n      tag_255\n      jump\t// in\n    tag_517:\n        /* \"#utility.yul\":17423:17479   */\n    tag_516:\n        /* \"#utility.yul\":17503:17541   */\n      tag_518\n        /* \"#utility.yul\":17535:17539   */\n      dup3\n        /* \"#utility.yul\":17529:17540   */\n      sload\n        /* \"#utility.yul\":17503:17541   */\n      tag_104\n      jump\t// in\n    tag_518:\n        /* \"#utility.yul\":17588:17655   */\n      tag_519\n        /* \"#utility.yul\":17648:17654   */\n      dup3\n        /* \"#utility.yul\":17640:17646   */\n      dup3\n        /* \"#utility.yul\":17634:17638   */\n      dup6\n        /* \"#utility.yul\":17588:17655   */\n      tag_292\n      jump\t// in\n    tag_519:\n        /* \"#utility.yul\":17682:17683   */\n      0x00\n        /* \"#utility.yul\":17706:17710   */\n      0x20\n        /* \"#utility.yul\":17693:17710   */\n      swap1\n      pop\n        /* \"#utility.yul\":17738:17740   */\n      0x1f\n        /* \"#utility.yul\":17730:17736   */\n      dup4\n        /* \"#utility.yul\":17727:17741   */\n      gt\n        /* \"#utility.yul\":17755:17756   */\n      0x01\n        /* \"#utility.yul\":17750:18368   */\n      dup2\n      eq\n      tag_521\n      jumpi\n        /* \"#utility.yul\":18412:18413   */\n      0x00\n        /* \"#utility.yul\":18429:18435   */\n      dup5\n        /* \"#utility.yul\":18426:18503   */\n      iszero\n      tag_522\n      jumpi\n        /* \"#utility.yul\":18478:18487   */\n      dup3\n        /* \"#utility.yul\":18473:18476   */\n      dup8\n        /* \"#utility.yul\":18469:18488   */\n      add\n        /* \"#utility.yul\":18463:18489   */\n      mload\n        /* \"#utility.yul\":18454:18489   */\n      swap1\n      pop\n        /* \"#utility.yul\":18426:18503   */\n    tag_522:\n        /* \"#utility.yul\":18529:18596   */\n      tag_523\n        /* \"#utility.yul\":18589:18595   */\n      dup6\n        /* \"#utility.yul\":18582:18587   */\n      dup3\n        /* \"#utility.yul\":18529:18596   */\n      tag_295\n      jump\t// in\n    tag_523:\n        /* \"#utility.yul\":18523:18527   */\n      dup7\n        /* \"#utility.yul\":18516:18597   */\n      sstore\n        /* \"#utility.yul\":18385:18607   */\n      pop\n        /* \"#utility.yul\":17720:18607   */\n      jump(tag_520)\n        /* \"#utility.yul\":17750:18368   */\n    tag_521:\n        /* \"#utility.yul\":17802:17806   */\n      0x1f\n        /* \"#utility.yul\":17798:17807   */\n      not\n        /* \"#utility.yul\":17790:17796   */\n      dup5\n        /* \"#utility.yul\":17786:17808   */\n      and\n        /* \"#utility.yul\":17836:17873   */\n      tag_524\n        /* \"#utility.yul\":17868:17872   */\n      dup7\n        /* \"#utility.yul\":17836:17873   */\n      tag_281\n      jump\t// in\n    tag_524:\n        /* \"#utility.yul\":17895:17896   */\n      0x00\n        /* \"#utility.yul\":17909:18117   */\n    tag_525:\n        /* \"#utility.yul\":17923:17930   */\n      dup3\n        /* \"#utility.yul\":17920:17921   */\n      dup2\n        /* \"#utility.yul\":17917:17931   */\n      lt\n        /* \"#utility.yul\":17909:18117   */\n      iszero\n      tag_527\n      jumpi\n        /* \"#utility.yul\":18002:18011   */\n      dup5\n        /* \"#utility.yul\":17997:18000   */\n      dup10\n        /* \"#utility.yul\":17993:18012   */\n      add\n        /* \"#utility.yul\":17987:18013   */\n      mload\n        /* \"#utility.yul\":17979:17985   */\n      dup3\n        /* \"#utility.yul\":17972:18014   */\n      sstore\n        /* \"#utility.yul\":18053:18054   */\n      0x01\n        /* \"#utility.yul\":18045:18051   */\n      dup3\n        /* \"#utility.yul\":18041:18055   */\n      add\n        /* \"#utility.yul\":18031:18055   */\n      swap2\n      pop\n        /* \"#utility.yul\":18100:18102   */\n      0x20\n        /* \"#utility.yul\":18089:18098   */\n      dup6\n        /* \"#utility.yul\":18085:18103   */\n      add\n        /* \"#utility.yul\":18072:18103   */\n      swap5\n      pop\n        /* \"#utility.yul\":17946:17950   */\n      0x20\n        /* \"#utility.yul\":17943:17944   */\n      dup2\n        /* \"#utility.yul\":17939:17951   */\n      add\n        /* \"#utility.yul\":17934:17951   */\n      swap1\n      pop\n        /* \"#utility.yul\":17909:18117   */\n      jump(tag_525)\n    tag_527:\n        /* \"#utility.yul\":18145:18151   */\n      dup7\n        /* \"#utility.yul\":18136:18143   */\n      dup4\n        /* \"#utility.yul\":18133:18152   */\n      lt\n        /* \"#utility.yul\":18130:18309   */\n      iszero\n      tag_528\n      jumpi\n        /* \"#utility.yul\":18203:18212   */\n      dup5\n        /* \"#utility.yul\":18198:18201   */\n      dup10\n        /* \"#utility.yul\":18194:18213   */\n      add\n        /* \"#utility.yul\":18188:18214   */\n      mload\n        /* \"#utility.yul\":18246:18294   */\n      tag_529\n        /* \"#utility.yul\":18288:18292   */\n      0x1f\n        /* \"#utility.yul\":18280:18286   */\n      dup10\n        /* \"#utility.yul\":18276:18293   */\n      and\n        /* \"#utility.yul\":18265:18274   */\n      dup3\n        /* \"#utility.yul\":18246:18294   */\n      tag_294\n      jump\t// in\n    tag_529:\n        /* \"#utility.yul\":18238:18244   */\n      dup4\n        /* \"#utility.yul\":18231:18295   */\n      sstore\n        /* \"#utility.yul\":18153:18309   */\n      pop\n        /* \"#utility.yul\":18130:18309   */\n    tag_528:\n        /* \"#utility.yul\":18355:18356   */\n      0x01\n        /* \"#utility.yul\":18351:18352   */\n      0x02\n        /* \"#utility.yul\":18343:18349   */\n      dup9\n        /* \"#utility.yul\":18339:18353   */\n      mul\n        /* \"#utility.yul\":18335:18357   */\n      add\n        /* \"#utility.yul\":18329:18333   */\n      dup9\n        /* \"#utility.yul\":18322:18358   */\n      sstore\n        /* \"#utility.yul\":17757:18368   */\n      pop\n      pop\n      pop\n        /* \"#utility.yul\":17720:18607   */\n    tag_520:\n      pop\n        /* \"#utility.yul\":17310:18613   */\n      pop\n      pop\n      pop\n        /* \"#utility.yul\":17218:18613   */\n      pop\n      pop\n      jump\t// out\n        /* \"#utility.yul\":18619:18857   */\n    tag_296:\n        /* \"#utility.yul\":18759:18793   */\n      0x566f74696e67206e6f7420696e2070726f67726573732e20596f752063616e20\n        /* \"#utility.yul\":18755:18756   */\n      0x00\n        /* \"#utility.yul\":18747:18753   */\n      dup3\n        /* \"#utility.yul\":18743:18757   */\n      add\n        /* \"#utility.yul\":18736:18794   */\n      mstore\n        /* \"#utility.yul\":18828:18849   */\n      0x6e6f742064656c65746567617465206e6f772e00000000000000000000000000\n        /* \"#utility.yul\":18823:18825   */\n      0x20\n        /* \"#utility.yul\":18815:18821   */\n      dup3\n        /* \"#utility.yul\":18811:18826   */\n      add\n        /* \"#utility.yul\":18804:18850   */\n      mstore\n        /* \"#utility.yul\":18619:18857   */\n      pop\n      jump\t// out\n        /* \"#utility.yul\":18863:19229   */\n    tag_297:\n        /* \"#utility.yul\":19005:19008   */\n      0x00\n        /* \"#utility.yul\":19026:19093   */\n      tag_532\n        /* \"#utility.yul\":19090:19092   */\n      0x33\n        /* \"#utility.yul\":19085:19088   */\n      dup4\n        /* \"#utility.yul\":19026:19093   */\n      tag_267\n      jump\t// in\n    tag_532:\n        /* \"#utility.yul\":19019:19093   */\n      swap2\n      pop\n        /* \"#utility.yul\":19102:19195   */\n      tag_533\n        /* \"#utility.yul\":19191:19194   */\n      dup3\n        /* \"#utility.yul\":19102:19195   */\n      tag_296\n      jump\t// in\n    tag_533:\n        /* \"#utility.yul\":19220:19222   */\n      0x40\n        /* \"#utility.yul\":19215:19218   */\n      dup3\n        /* \"#utility.yul\":19211:19223   */\n      add\n        /* \"#utility.yul\":19204:19223   */\n      swap1\n      pop\n        /* \"#utility.yul\":18863:19229   */\n      swap2\n      swap1\n      pop\n      jump\t// out\n        /* \"#utility.yul\":19235:19654   */\n    tag_88:\n        /* \"#utility.yul\":19401:19405   */\n      0x00\n        /* \"#utility.yul\":19439:19441   */\n      0x20\n        /* \"#utility.yul\":19428:19437   */\n      dup3\n        /* \"#utility.yul\":19424:19442   */\n      add\n        /* \"#utility.yul\":19416:19442   */\n      swap1\n      pop\n        /* \"#utility.yul\":19488:19497   */\n      dup2\n        /* \"#utility.yul\":19482:19486   */\n      dup2\n        /* \"#utility.yul\":19478:19498   */\n      sub\n        /* \"#utility.yul\":19474:19475   */\n      0x00\n        /* \"#utility.yul\":19463:19472   */\n      dup4\n        /* \"#utility.yul\":19459:19476   */\n      add\n        /* \"#utility.yul\":19452:19499   */\n      mstore\n        /* \"#utility.yul\":19516:19647   */\n      tag_535\n        /* \"#utility.yul\":19642:19646   */\n      dup2\n        /* \"#utility.yul\":19516:19647   */\n      tag_297\n      jump\t// in\n    tag_535:\n        /* \"#utility.yul\":19508:19647   */\n      swap1\n      pop\n        /* \"#utility.yul\":19235:19654   */\n      swap2\n      swap1\n      pop\n      jump\t// out\n        /* \"#utility.yul\":19660:19949   */\n    tag_298:\n        /* \"#utility.yul\":19800:19834   */\n      0x4f6e6c792061646472657373206f776e65722063616e2064656c656761746520\n        /* \"#utility.yul\":19796:19797   */\n      0x00\n        /* \"#utility.yul\":19788:19794   */\n      dup3\n        /* \"#utility.yul\":19784:19798   */\n      add\n        /* \"#utility.yul\":19777:19835   */\n      mstore\n        /* \"#utility.yul\":19869:19903   */\n      0x766f74696e672072696768747320746f20616e6f746865722061646472657373\n        /* \"#utility.yul\":19864:19866   */\n      0x20\n        /* \"#utility.yul\":19856:19862   */\n      dup3\n        /* \"#utility.yul\":19852:19867   */\n      add\n        /* \"#utility.yul\":19845:19904   */\n      mstore\n        /* \"#utility.yul\":19938:19941   */\n      0x2e00000000000000000000000000000000000000000000000000000000000000\n        /* \"#utility.yul\":19933:19935   */\n      0x40\n        /* \"#utility.yul\":19925:19931   */\n      dup3\n        /* \"#utility.yul\":19921:19936   */\n      add\n        /* \"#utility.yul\":19914:19942   */\n      mstore\n        /* \"#utility.yul\":19660:19949   */\n      pop\n      jump\t// out\n        /* \"#utility.yul\":19955:20321   */\n    tag_299:\n        /* \"#utility.yul\":20097:20100   */\n      0x00\n        /* \"#utility.yul\":20118:20185   */\n      tag_538\n        /* \"#utility.yul\":20182:20184   */\n      0x41\n        /* \"#utility.yul\":20177:20180   */\n      dup4\n        /* \"#utility.yul\":20118:20185   */\n      tag_267\n      jump\t// in\n    tag_538:\n        /* \"#utility.yul\":20111:20185   */\n      swap2\n      pop\n        /* \"#utility.yul\":20194:20287   */\n      tag_539\n        /* \"#utility.yul\":20283:20286   */\n      dup3\n        /* \"#utility.yul\":20194:20287   */\n      tag_298\n      jump\t// in\n    tag_539:\n        /* \"#utility.yul\":20312:20314   */\n      0x60\n        /* \"#utility.yul\":20307:20310   */\n      dup3\n        /* \"#utility.yul\":20303:20315   */\n      add\n        /* \"#utility.yul\":20296:20315   */\n      swap1\n      pop\n        /* \"#utility.yul\":19955:20321   */\n      swap2\n      swap1\n      pop\n      jump\t// out\n        /* \"#utility.yul\":20327:20746   */\n    tag_91:\n        /* \"#utility.yul\":20493:20497   */\n      0x00\n        /* \"#utility.yul\":20531:20533   */\n      0x20\n        /* \"#utility.yul\":20520:20529   */\n      dup3\n        /* \"#utility.yul\":20516:20534   */\n      add\n        /* \"#utility.yul\":20508:20534   */\n      swap1\n      pop\n        /* \"#utility.yul\":20580:20589   */\n      dup2\n        /* \"#utility.yul\":20574:20578   */\n      dup2\n        /* \"#utility.yul\":20570:20590   */\n      sub\n        /* \"#utility.yul\":20566:20567   */\n      0x00\n        /* \"#utility.yul\":20555:20564   */\n      dup4\n        /* \"#utility.yul\":20551:20568   */\n      add\n        /* \"#utility.yul\":20544:20591   */\n      mstore\n        /* \"#utility.yul\":20608:20739   */\n      tag_541\n        /* \"#utility.yul\":20734:20738   */\n      dup2\n        /* \"#utility.yul\":20608:20739   */\n      tag_299\n      jump\t// in\n    tag_541:\n        /* \"#utility.yul\":20600:20739   */\n      swap1\n      pop\n        /* \"#utility.yul\":20327:20746   */\n      swap2\n      swap1\n      pop\n      jump\t// out\n        /* \"#utility.yul\":20752:20998   */\n    tag_300:\n        /* \"#utility.yul\":20892:20926   */\n      0x596f752063616e206e6f742064656c656761746520766f74696e672072696768\n        /* \"#utility.yul\":20888:20889   */\n      0x00\n        /* \"#utility.yul\":20880:20886   */\n      dup3\n        /* \"#utility.yul\":20876:20890   */\n      add\n        /* \"#utility.yul\":20869:20927   */\n      mstore\n        /* \"#utility.yul\":20961:20990   */\n      0x74732e20596f75206861766520616c726561647920766f7465642e0000000000\n        /* \"#utility.yul\":20956:20958   */\n      0x20\n        /* \"#utility.yul\":20948:20954   */\n      dup3\n        /* \"#utility.yul\":20944:20959   */\n      add\n        /* \"#utility.yul\":20937:20991   */\n      mstore\n        /* \"#utility.yul\":20752:20998   */\n      pop\n      jump\t// out\n        /* \"#utility.yul\":21004:21370   */\n    tag_301:\n        /* \"#utility.yul\":21146:21149   */\n      0x00\n        /* \"#utility.yul\":21167:21234   */\n      tag_544\n        /* \"#utility.yul\":21231:21233   */\n      0x3b\n        /* \"#utility.yul\":21226:21229   */\n      dup4\n        /* \"#utility.yul\":21167:21234   */\n      tag_267\n      jump\t// in\n    tag_544:\n        /* \"#utility.yul\":21160:21234   */\n      swap2\n      pop\n        /* \"#utility.yul\":21243:21336   */\n      tag_545\n        /* \"#utility.yul\":21332:21335   */\n      dup3\n        /* \"#utility.yul\":21243:21336   */\n      tag_300\n      jump\t// in\n    tag_545:\n        /* \"#utility.yul\":21361:21363   */\n      0x40\n        /* \"#utility.yul\":21356:21359   */\n      dup3\n        /* \"#utility.yul\":21352:21364   */\n      add\n        /* \"#utility.yul\":21345:21364   */\n      swap1\n      pop\n        /* \"#utility.yul\":21004:21370   */\n      swap2\n      swap1\n      pop\n      jump\t// out\n        /* \"#utility.yul\":21376:21795   */\n    tag_94:\n        /* \"#utility.yul\":21542:21546   */\n      0x00\n        /* \"#utility.yul\":21580:21582   */\n      0x20\n        /* \"#utility.yul\":21569:21578   */\n      dup3\n        /* \"#utility.yul\":21565:21583   */\n      add\n        /* \"#utility.yul\":21557:21583   */\n      swap1\n      pop\n        /* \"#utility.yul\":21629:21638   */\n      dup2\n        /* \"#utility.yul\":21623:21627   */\n      dup2\n        /* \"#utility.yul\":21619:21639   */\n      sub\n        /* \"#utility.yul\":21615:21616   */\n      0x00\n        /* \"#utility.yul\":21604:21613   */\n      dup4\n        /* \"#utility.yul\":21600:21617   */\n      add\n        /* \"#utility.yul\":21593:21640   */\n      mstore\n        /* \"#utility.yul\":21657:21788   */\n      tag_547\n        /* \"#utility.yul\":21783:21787   */\n      dup2\n        /* \"#utility.yul\":21657:21788   */\n      tag_301\n      jump\t// in\n    tag_547:\n        /* \"#utility.yul\":21649:21788   */\n      swap1\n      pop\n        /* \"#utility.yul\":21376:21795   */\n      swap2\n      swap1\n      pop\n      jump\t// out\n        /* \"#utility.yul\":21801:21969   */\n    tag_302:\n        /* \"#utility.yul\":21941:21961   */\n      0x566f74696e67206e6f7420737461727465640000000000000000000000000000\n        /* \"#utility.yul\":21937:21938   */\n      0x00\n        /* \"#utility.yul\":21929:21935   */\n      dup3\n        /* \"#utility.yul\":21925:21939   */\n      add\n        /* \"#utility.yul\":21918:21962   */\n      mstore\n        /* \"#utility.yul\":21801:21969   */\n      pop\n      jump\t// out\n        /* \"#utility.yul\":21975:22341   */\n    tag_303:\n        /* \"#utility.yul\":22117:22120   */\n      0x00\n        /* \"#utility.yul\":22138:22205   */\n      tag_550\n        /* \"#utility.yul\":22202:22204   */\n      0x12\n        /* \"#utility.yul\":22197:22200   */\n      dup4\n        /* \"#utility.yul\":22138:22205   */\n      tag_267\n      jump\t// in\n    tag_550:\n        /* \"#utility.yul\":22131:22205   */\n      swap2\n      pop\n        /* \"#utility.yul\":22214:22307   */\n      tag_551\n        /* \"#utility.yul\":22303:22306   */\n      dup3\n        /* \"#utility.yul\":22214:22307   */\n      tag_302\n      jump\t// in\n    tag_551:\n        /* \"#utility.yul\":22332:22334   */\n      0x20\n        /* \"#utility.yul\":22327:22330   */\n      dup3\n        /* \"#utility.yul\":22323:22335   */\n      add\n        /* \"#utility.yul\":22316:22335   */\n      swap1\n      pop\n        /* \"#utility.yul\":21975:22341   */\n      swap2\n      swap1\n      pop\n      jump\t// out\n        /* \"#utility.yul\":22347:22766   */\n    tag_102:\n        /* \"#utility.yul\":22513:22517   */\n      0x00\n        /* \"#utility.yul\":22551:22553   */\n      0x20\n        /* \"#utility.yul\":22540:22549   */\n      dup3\n        /* \"#utility.yul\":22536:22554   */\n      add\n        /* \"#utility.yul\":22528:22554   */\n      swap1\n      pop\n        /* \"#utility.yul\":22600:22609   */\n      dup2\n        /* \"#utility.yul\":22594:22598   */\n      dup2\n        /* \"#utility.yul\":22590:22610   */\n      sub\n        /* \"#utility.yul\":22586:22587   */\n      0x00\n        /* \"#utility.yul\":22575:22584   */\n      dup4\n        /* \"#utility.yul\":22571:22588   */\n      add\n        /* \"#utility.yul\":22564:22611   */\n      mstore\n        /* \"#utility.yul\":22628:22759   */\n      tag_553\n        /* \"#utility.yul\":22754:22758   */\n      dup2\n        /* \"#utility.yul\":22628:22759   */\n      tag_303\n      jump\t// in\n    tag_553:\n        /* \"#utility.yul\":22620:22759   */\n      swap1\n      pop\n        /* \"#utility.yul\":22347:22766   */\n      swap2\n      swap1\n      pop\n      jump\t// out\n        /* \"#utility.yul\":22772:22940   */\n    tag_304:\n        /* \"#utility.yul\":22912:22932   */\n      0x766f74696e67206e6f7420737461727465640000000000000000000000000000\n        /* \"#utility.yul\":22908:22909   */\n      0x00\n        /* \"#utility.yul\":22900:22906   */\n      dup3\n        /* \"#utility.yul\":22896:22910   */\n      add\n        /* \"#utility.yul\":22889:22933   */\n      mstore\n        /* \"#utility.yul\":22772:22940   */\n      pop\n      jump\t// out\n        /* \"#utility.yul\":22946:23312   */\n    tag_305:\n        /* \"#utility.yul\":23088:23091   */\n      0x00\n        /* \"#utility.yul\":23109:23176   */\n      tag_556\n        /* \"#utility.yul\":23173:23175   */\n      0x12\n        /* \"#utility.yul\":23168:23171   */\n      dup4\n        /* \"#utility.yul\":23109:23176   */\n      tag_267\n      jump\t// in\n    tag_556:\n        /* \"#utility.yul\":23102:23176   */\n      swap2\n      pop\n        /* \"#utility.yul\":23185:23278   */\n      tag_557\n        /* \"#utility.yul\":23274:23277   */\n      dup3\n        /* \"#utility.yul\":23185:23278   */\n      tag_304\n      jump\t// in\n    tag_557:\n        /* \"#utility.yul\":23303:23305   */\n      0x20\n        /* \"#utility.yul\":23298:23301   */\n      dup3\n        /* \"#utility.yul\":23294:23306   */\n      add\n        /* \"#utility.yul\":23287:23306   */\n      swap1\n      pop\n        /* \"#utility.yul\":22946:23312   */\n      swap2\n      swap1\n      pop\n      jump\t// out\n        /* \"#utility.yul\":23318:23737   */\n    tag_118:\n        /* \"#utility.yul\":23484:23488   */\n      0x00\n        /* \"#utility.yul\":23522:23524   */\n      0x20\n        /* \"#utility.yul\":23511:23520   */\n      dup3\n        /* \"#utility.yul\":23507:23525   */\n      add\n        /* \"#utility.yul\":23499:23525   */\n      swap1\n      pop\n        /* \"#utility.yul\":23571:23580   */\n      dup2\n        /* \"#utility.yul\":23565:23569   */\n      dup2\n        /* \"#utility.yul\":23561:23581   */\n      sub\n        /* \"#utility.yul\":23557:23558   */\n      0x00\n        /* \"#utility.yul\":23546:23555   */\n      dup4\n        /* \"#utility.yul\":23542:23559   */\n      add\n        /* \"#utility.yul\":23535:23582   */\n      mstore\n        /* \"#utility.yul\":23599:23730   */\n      tag_559\n        /* \"#utility.yul\":23725:23729   */\n      dup2\n        /* \"#utility.yul\":23599:23730   */\n      tag_305\n      jump\t// in\n    tag_559:\n        /* \"#utility.yul\":23591:23730   */\n      swap1\n      pop\n        /* \"#utility.yul\":23318:23737   */\n      swap2\n      swap1\n      pop\n      jump\t// out\n        /* \"#utility.yul\":23743:23905   */\n    tag_306:\n        /* \"#utility.yul\":23883:23897   */\n      0x766f74696e6720656e6465640000000000000000000000000000000000000000\n        /* \"#utility.yul\":23879:23880   */\n      0x00\n        /* \"#utility.yul\":23871:23877   */\n      dup3\n        /* \"#utility.yul\":23867:23881   */\n      add\n        /* \"#utility.yul\":23860:23898   */\n      mstore\n        /* \"#utility.yul\":23743:23905   */\n      pop\n      jump\t// out\n        /* \"#utility.yul\":23911:24277   */\n    tag_307:\n        /* \"#utility.yul\":24053:24056   */\n      0x00\n        /* \"#utility.yul\":24074:24141   */\n      tag_562\n        /* \"#utility.yul\":24138:24140   */\n      0x0c\n        /* \"#utility.yul\":24133:24136   */\n      dup4\n        /* \"#utility.yul\":24074:24141   */\n      tag_267\n      jump\t// in\n    tag_562:\n        /* \"#utility.yul\":24067:24141   */\n      swap2\n      pop\n        /* \"#utility.yul\":24150:24243   */\n      tag_563\n        /* \"#utility.yul\":24239:24242   */\n      dup3\n        /* \"#utility.yul\":24150:24243   */\n      tag_306\n      jump\t// in\n    tag_563:\n        /* \"#utility.yul\":24268:24270   */\n      0x20\n        /* \"#utility.yul\":24263:24266   */\n      dup3\n        /* \"#utility.yul\":24259:24271   */\n      add\n        /* \"#utility.yul\":24252:24271   */\n      swap1\n      pop\n        /* \"#utility.yul\":23911:24277   */\n      swap2\n      swap1\n      pop\n      jump\t// out\n        /* \"#utility.yul\":24283:24702   */\n    tag_126:\n        /* \"#utility.yul\":24449:24453   */\n      0x00\n        /* \"#utility.yul\":24487:24489   */\n      0x20\n        /* \"#utility.yul\":24476:24485   */\n      dup3\n        /* \"#utility.yul\":24472:24490   */\n      add\n        /* \"#utility.yul\":24464:24490   */\n      swap1\n      pop\n        /* \"#utility.yul\":24536:24545   */\n      dup2\n        /* \"#utility.yul\":24530:24534   */\n      dup2\n        /* \"#utility.yul\":24526:24546   */\n      sub\n        /* \"#utility.yul\":24522:24523   */\n      0x00\n        /* \"#utility.yul\":24511:24520   */\n      dup4\n        /* \"#utility.yul\":24507:24524   */\n      add\n        /* \"#utility.yul\":24500:24547   */\n      mstore\n        /* \"#utility.yul\":24564:24695   */\n      tag_565\n        /* \"#utility.yul\":24690:24694   */\n      dup2\n        /* \"#utility.yul\":24564:24695   */\n      tag_307\n      jump\t// in\n    tag_565:\n        /* \"#utility.yul\":24556:24695   */\n      swap1\n      pop\n        /* \"#utility.yul\":24283:24702   */\n      swap2\n      swap1\n      pop\n      jump\t// out\n        /* \"#utility.yul\":24708:24940   */\n    tag_308:\n        /* \"#utility.yul\":24848:24882   */\n      0x566f74696e67206e6f7420696e2070726f67726573732e20596f752063616e20\n        /* \"#utility.yul\":24844:24845   */\n      0x00\n        /* \"#utility.yul\":24836:24842   */\n      dup3\n        /* \"#utility.yul\":24832:24846   */\n      add\n        /* \"#utility.yul\":24825:24883   */\n      mstore\n        /* \"#utility.yul\":24917:24932   */\n      0x6e6f7420766f7465206e6f772e00000000000000000000000000000000000000\n        /* \"#utility.yul\":24912:24914   */\n      0x20\n        /* \"#utility.yul\":24904:24910   */\n      dup3\n        /* \"#utility.yul\":24900:24915   */\n      add\n        /* \"#utility.yul\":24893:24933   */\n      mstore\n        /* \"#utility.yul\":24708:24940   */\n      pop\n      jump\t// out\n        /* \"#utility.yul\":24946:25312   */\n    tag_309:\n        /* \"#utility.yul\":25088:25091   */\n      0x00\n        /* \"#utility.yul\":25109:25176   */\n      tag_568\n        /* \"#utility.yul\":25173:25175   */\n      0x2d\n        /* \"#utility.yul\":25168:25171   */\n      dup4\n        /* \"#utility.yul\":25109:25176   */\n      tag_267\n      jump\t// in\n    tag_568:\n        /* \"#utility.yul\":25102:25176   */\n      swap2\n      pop\n        /* \"#utility.yul\":25185:25278   */\n      tag_569\n        /* \"#utility.yul\":25274:25277   */\n      dup3\n        /* \"#utility.yul\":25185:25278   */\n      tag_308\n      jump\t// in\n    tag_569:\n        /* \"#utility.yul\":25303:25305   */\n      0x40\n        /* \"#utility.yul\":25298:25301   */\n      dup3\n        /* \"#utility.yul\":25294:25306   */\n      add\n        /* \"#utility.yul\":25287:25306   */\n      swap1\n      pop\n        /* \"#utility.yul\":24946:25312   */\n      swap2\n      swap1\n      pop\n      jump\t// out\n        /* \"#utility.yul\":25318:25737   */\n    tag_150:\n        /* \"#utility.yul\":25484:25488   */\n      0x00\n        /* \"#utility.yul\":25522:25524   */\n      0x20\n        /* \"#utility.yul\":25511:25520   */\n      dup3\n        /* \"#utility.yul\":25507:25525   */\n      add\n        /* \"#utility.yul\":25499:25525   */\n      swap1\n      pop\n        /* \"#utility.yul\":25571:25580   */\n      dup2\n        /* \"#utility.yul\":25565:25569   */\n      dup2\n        /* \"#utility.yul\":25561:25581   */\n      sub\n        /* \"#utility.yul\":25557:25558   */\n      0x00\n        /* \"#utility.yul\":25546:25555   */\n      dup4\n        /* \"#utility.yul\":25542:25559   */\n      add\n        /* \"#utility.yul\":25535:25582   */\n      mstore\n        /* \"#utility.yul\":25599:25730   */\n      tag_571\n        /* \"#utility.yul\":25725:25729   */\n      dup2\n        /* \"#utility.yul\":25599:25730   */\n      tag_309\n      jump\t// in\n    tag_571:\n        /* \"#utility.yul\":25591:25730   */\n      swap1\n      pop\n        /* \"#utility.yul\":25318:25737   */\n      swap2\n      swap1\n      pop\n      jump\t// out\n        /* \"#utility.yul\":25743:25916   */\n    tag_310:\n        /* \"#utility.yul\":25883:25908   */\n      0x302063616e646964617465732072656769737465726564000000000000000000\n        /* \"#utility.yul\":25879:25880   */\n      0x00\n        /* \"#utility.yul\":25871:25877   */\n      dup3\n        /* \"#utility.yul\":25867:25881   */\n      add\n        /* \"#utility.yul\":25860:25909   */\n      mstore\n        /* \"#utility.yul\":25743:25916   */\n      pop\n      jump\t// out\n        /* \"#utility.yul\":25922:26288   */\n    tag_311:\n        /* \"#utility.yul\":26064:26067   */\n      0x00\n        /* \"#utility.yul\":26085:26152   */\n      tag_574\n        /* \"#utility.yul\":26149:26151   */\n      0x17\n        /* \"#utility.yul\":26144:26147   */\n      dup4\n        /* \"#utility.yul\":26085:26152   */\n      tag_267\n      jump\t// in\n    tag_574:\n        /* \"#utility.yul\":26078:26152   */\n      swap2\n      pop\n        /* \"#utility.yul\":26161:26254   */\n      tag_575\n        /* \"#utility.yul\":26250:26253   */\n      dup3\n        /* \"#utility.yul\":26161:26254   */\n      tag_310\n      jump\t// in\n    tag_575:\n        /* \"#utility.yul\":26279:26281   */\n      0x20\n        /* \"#utility.yul\":26274:26277   */\n      dup3\n        /* \"#utility.yul\":26270:26282   */\n      add\n        /* \"#utility.yul\":26263:26282   */\n      swap1\n      pop\n        /* \"#utility.yul\":25922:26288   */\n      swap2\n      swap1\n      pop\n      jump\t// out\n        /* \"#utility.yul\":26294:26713   */\n    tag_153:\n        /* \"#utility.yul\":26460:26464   */\n      0x00\n        /* \"#utility.yul\":26498:26500   */\n      0x20\n        /* \"#utility.yul\":26487:26496   */\n      dup3\n        /* \"#utility.yul\":26483:26501   */\n      add\n        /* \"#utility.yul\":26475:26501   */\n      swap1\n      pop\n        /* \"#utility.yul\":26547:26556   */\n      dup2\n        /* \"#utility.yul\":26541:26545   */\n      dup2\n        /* \"#utility.yul\":26537:26557   */\n      sub\n        /* \"#utility.yul\":26533:26534   */\n      0x00\n        /* \"#utility.yul\":26522:26531   */\n      dup4\n        /* \"#utility.yul\":26518:26535   */\n      add\n        /* \"#utility.yul\":26511:26558   */\n      mstore\n        /* \"#utility.yul\":26575:26706   */\n      tag_577\n        /* \"#utility.yul\":26701:26705   */\n      dup2\n        /* \"#utility.yul\":26575:26706   */\n      tag_311\n      jump\t// in\n    tag_577:\n        /* \"#utility.yul\":26567:26706   */\n      swap1\n      pop\n        /* \"#utility.yul\":26294:26713   */\n      swap2\n      swap1\n      pop\n      jump\t// out\n        /* \"#utility.yul\":26719:26901   */\n    tag_312:\n        /* \"#utility.yul\":26859:26893   */\n      0x63616e646964617465207769746820696420646f6573206e6f74206578697374\n        /* \"#utility.yul\":26855:26856   */\n      0x00\n        /* \"#utility.yul\":26847:26853   */\n      dup3\n        /* \"#utility.yul\":26843:26857   */\n      add\n        /* \"#utility.yul\":26836:26894   */\n      mstore\n        /* \"#utility.yul\":26719:26901   */\n      pop\n      jump\t// out\n        /* \"#utility.yul\":26907:27273   */\n    tag_313:\n        /* \"#utility.yul\":27049:27052   */\n      0x00\n        /* \"#utility.yul\":27070:27137   */\n      tag_580\n        /* \"#utility.yul\":27134:27136   */\n      0x20\n        /* \"#utility.yul\":27129:27132   */\n      dup4\n        /* \"#utility.yul\":27070:27137   */\n      tag_267\n      jump\t// in\n    tag_580:\n        /* \"#utility.yul\":27063:27137   */\n      swap2\n      pop\n        /* \"#utility.yul\":27146:27239   */\n      tag_581\n        /* \"#utility.yul\":27235:27238   */\n      dup3\n        /* \"#utility.yul\":27146:27239   */\n      tag_312\n      jump\t// in\n    tag_581:\n        /* \"#utility.yul\":27264:27266   */\n      0x20\n        /* \"#utility.yul\":27259:27262   */\n      dup3\n        /* \"#utility.yul\":27255:27267   */\n      add\n        /* \"#utility.yul\":27248:27267   */\n      swap1\n      pop\n        /* \"#utility.yul\":26907:27273   */\n      swap2\n      swap1\n      pop\n      jump\t// out\n        /* \"#utility.yul\":27279:27698   */\n    tag_156:\n        /* \"#utility.yul\":27445:27449   */\n      0x00\n        /* \"#utility.yul\":27483:27485   */\n      0x20\n        /* \"#utility.yul\":27472:27481   */\n      dup3\n        /* \"#utility.yul\":27468:27486   */\n      add\n        /* \"#utility.yul\":27460:27486   */\n      swap1\n      pop\n        /* \"#utility.yul\":27532:27541   */\n      dup2\n        /* \"#utility.yul\":27526:27530   */\n      dup2\n        /* \"#utility.yul\":27522:27542   */\n      sub\n        /* \"#utility.yul\":27518:27519   */\n      0x00\n        /* \"#utility.yul\":27507:27516   */\n      dup4\n        /* \"#utility.yul\":27503:27520   */\n      add\n        /* \"#utility.yul\":27496:27543   */\n      mstore\n        /* \"#utility.yul\":27560:27691   */\n      tag_583\n        /* \"#utility.yul\":27686:27690   */\n      dup2\n        /* \"#utility.yul\":27560:27691   */\n      tag_313\n      jump\t// in\n    tag_583:\n        /* \"#utility.yul\":27552:27691   */\n      swap1\n      pop\n        /* \"#utility.yul\":27279:27698   */\n      swap2\n      swap1\n      pop\n      jump\t// out\n        /* \"#utility.yul\":27704:27924   */\n    tag_314:\n        /* \"#utility.yul\":27844:27878   */\n      0x766f7465722077697468206164647265737320646f6573206e6f742065786973\n        /* \"#utility.yul\":27840:27841   */\n      0x00\n        /* \"#utility.yul\":27832:27838   */\n      dup3\n        /* \"#utility.yul\":27828:27842   */\n      add\n        /* \"#utility.yul\":27821:27879   */\n      mstore\n        /* \"#utility.yul\":27913:27916   */\n      0x7400000000000000000000000000000000000000000000000000000000000000\n        /* \"#utility.yul\":27908:27910   */\n      0x20\n        /* \"#utility.yul\":27900:27906   */\n      dup3\n        /* \"#utility.yul\":27896:27911   */\n      add\n        /* \"#utility.yul\":27889:27917   */\n      mstore\n        /* \"#utility.yul\":27704:27924   */\n      pop\n      jump\t// out\n        /* \"#utility.yul\":27930:28296   */\n    tag_315:\n        /* \"#utility.yul\":28072:28075   */\n      0x00\n        /* \"#utility.yul\":28093:28160   */\n      tag_586\n        /* \"#utility.yul\":28157:28159   */\n      0x21\n        /* \"#utility.yul\":28152:28155   */\n      dup4\n        /* \"#utility.yul\":28093:28160   */\n      tag_267\n      jump\t// in\n    tag_586:\n        /* \"#utility.yul\":28086:28160   */\n      swap2\n      pop\n        /* \"#utility.yul\":28169:28262   */\n      tag_587\n        /* \"#utility.yul\":28258:28261   */\n      dup3\n        /* \"#utility.yul\":28169:28262   */\n      tag_314\n      jump\t// in\n    tag_587:\n        /* \"#utility.yul\":28287:28289   */\n      0x40\n        /* \"#utility.yul\":28282:28285   */\n      dup3\n        /* \"#utility.yul\":28278:28290   */\n      add\n        /* \"#utility.yul\":28271:28290   */\n      swap1\n      pop\n        /* \"#utility.yul\":27930:28296   */\n      swap2\n      swap1\n      pop\n      jump\t// out\n        /* \"#utility.yul\":28302:28721   */\n    tag_159:\n        /* \"#utility.yul\":28468:28472   */\n      0x00\n        /* \"#utility.yul\":28506:28508   */\n      0x20\n        /* \"#utility.yul\":28495:28504   */\n      dup3\n        /* \"#utility.yul\":28491:28509   */\n      add\n        /* \"#utility.yul\":28483:28509   */\n      swap1\n      pop\n        /* \"#utility.yul\":28555:28564   */\n      dup2\n        /* \"#utility.yul\":28549:28553   */\n      dup2\n        /* \"#utility.yul\":28545:28565   */\n      sub\n        /* \"#utility.yul\":28541:28542   */\n      0x00\n        /* \"#utility.yul\":28530:28539   */\n      dup4\n        /* \"#utility.yul\":28526:28543   */\n      add\n        /* \"#utility.yul\":28519:28566   */\n      mstore\n        /* \"#utility.yul\":28583:28714   */\n      tag_589\n        /* \"#utility.yul\":28709:28713   */\n      dup2\n        /* \"#utility.yul\":28583:28714   */\n      tag_315\n      jump\t// in\n    tag_589:\n        /* \"#utility.yul\":28575:28714   */\n      swap1\n      pop\n        /* \"#utility.yul\":28302:28721   */\n      swap2\n      swap1\n      pop\n      jump\t// out\n        /* \"#utility.yul\":28727:28896   */\n    tag_316:\n        /* \"#utility.yul\":28867:28888   */\n      0x566f746520616c726561647920706c6163656400000000000000000000000000\n        /* \"#utility.yul\":28863:28864   */\n      0x00\n        /* \"#utility.yul\":28855:28861   */\n      dup3\n        /* \"#utility.yul\":28851:28865   */\n      add\n        /* \"#utility.yul\":28844:28889   */\n      mstore\n        /* \"#utility.yul\":28727:28896   */\n      pop\n      jump\t// out\n        /* \"#utility.yul\":28902:29268   */\n    tag_317:\n        /* \"#utility.yul\":29044:29047   */\n      0x00\n        /* \"#utility.yul\":29065:29132   */\n      tag_592\n        /* \"#utility.yul\":29129:29131   */\n      0x13\n        /* \"#utility.yul\":29124:29127   */\n      dup4\n        /* \"#utility.yul\":29065:29132   */\n      tag_267\n      jump\t// in\n    tag_592:\n        /* \"#utility.yul\":29058:29132   */\n      swap2\n      pop\n        /* \"#utility.yul\":29141:29234   */\n      tag_593\n        /* \"#utility.yul\":29230:29233   */\n      dup3\n        /* \"#utility.yul\":29141:29234   */\n      tag_316\n      jump\t// in\n    tag_593:\n        /* \"#utility.yul\":29259:29261   */\n      0x20\n        /* \"#utility.yul\":29254:29257   */\n      dup3\n        /* \"#utility.yul\":29250:29262   */\n      add\n        /* \"#utility.yul\":29243:29262   */\n      swap1\n      pop\n        /* \"#utility.yul\":28902:29268   */\n      swap2\n      swap1\n      pop\n      jump\t// out\n        /* \"#utility.yul\":29274:29693   */\n    tag_162:\n        /* \"#utility.yul\":29440:29444   */\n      0x00\n        /* \"#utility.yul\":29478:29480   */\n      0x20\n        /* \"#utility.yul\":29467:29476   */\n      dup3\n        /* \"#utility.yul\":29463:29481   */\n      add\n        /* \"#utility.yul\":29455:29481   */\n      swap1\n      pop\n        /* \"#utility.yul\":29527:29536   */\n      dup2\n        /* \"#utility.yul\":29521:29525   */\n      dup2\n        /* \"#utility.yul\":29517:29537   */\n      sub\n        /* \"#utility.yul\":29513:29514   */\n      0x00\n        /* \"#utility.yul\":29502:29511   */\n      dup4\n        /* \"#utility.yul\":29498:29515   */\n      add\n        /* \"#utility.yul\":29491:29538   */\n      mstore\n        /* \"#utility.yul\":29555:29686   */\n      tag_595\n        /* \"#utility.yul\":29681:29685   */\n      dup2\n        /* \"#utility.yul\":29555:29686   */\n      tag_317\n      jump\t// in\n    tag_595:\n        /* \"#utility.yul\":29547:29686   */\n      swap1\n      pop\n        /* \"#utility.yul\":29274:29693   */\n      swap2\n      swap1\n      pop\n      jump\t// out\n        /* \"#utility.yul\":29699:29946   */\n    tag_318:\n        /* \"#utility.yul\":29839:29873   */\n      0x796f752063616e206e6f7420766f746520666f72207468697320616464726573\n        /* \"#utility.yul\":29835:29836   */\n      0x00\n        /* \"#utility.yul\":29827:29833   */\n      dup3\n        /* \"#utility.yul\":29823:29837   */\n      add\n        /* \"#utility.yul\":29816:29874   */\n      mstore\n        /* \"#utility.yul\":29908:29938   */\n      0x732e20596f7520646f6e2774206f776e20746865206164647265737300000000\n        /* \"#utility.yul\":29903:29905   */\n      0x20\n        /* \"#utility.yul\":29895:29901   */\n      dup3\n        /* \"#utility.yul\":29891:29906   */\n      add\n        /* \"#utility.yul\":29884:29939   */\n      mstore\n        /* \"#utility.yul\":29699:29946   */\n      pop\n      jump\t// out\n        /* \"#utility.yul\":29952:30318   */\n    tag_319:\n        /* \"#utility.yul\":30094:30097   */\n      0x00\n        /* \"#utility.yul\":30115:30182   */\n      tag_598\n        /* \"#utility.yul\":30179:30181   */\n      0x3c\n        /* \"#utility.yul\":30174:30177   */\n      dup4\n        /* \"#utility.yul\":30115:30182   */\n      tag_267\n      jump\t// in\n    tag_598:\n        /* \"#utility.yul\":30108:30182   */\n      swap2\n      pop\n        /* \"#utility.yul\":30191:30284   */\n      tag_599\n        /* \"#utility.yul\":30280:30283   */\n      dup3\n        /* \"#utility.yul\":30191:30284   */\n      tag_318\n      jump\t// in\n    tag_599:\n        /* \"#utility.yul\":30309:30311   */\n      0x40\n        /* \"#utility.yul\":30304:30307   */\n      dup3\n        /* \"#utility.yul\":30300:30312   */\n      add\n        /* \"#utility.yul\":30293:30312   */\n      swap1\n      pop\n        /* \"#utility.yul\":29952:30318   */\n      swap2\n      swap1\n      pop\n      jump\t// out\n        /* \"#utility.yul\":30324:30743   */\n    tag_166:\n        /* \"#utility.yul\":30490:30494   */\n      0x00\n        /* \"#utility.yul\":30528:30530   */\n      0x20\n        /* \"#utility.yul\":30517:30526   */\n      dup3\n        /* \"#utility.yul\":30513:30531   */\n      add\n        /* \"#utility.yul\":30505:30531   */\n      swap1\n      pop\n        /* \"#utility.yul\":30577:30586   */\n      dup2\n        /* \"#utility.yul\":30571:30575   */\n      dup2\n        /* \"#utility.yul\":30567:30587   */\n      sub\n        /* \"#utility.yul\":30563:30564   */\n      0x00\n        /* \"#utility.yul\":30552:30561   */\n      dup4\n        /* \"#utility.yul\":30548:30565   */\n      add\n        /* \"#utility.yul\":30541:30588   */\n      mstore\n        /* \"#utility.yul\":30605:30736   */\n      tag_601\n        /* \"#utility.yul\":30731:30735   */\n      dup2\n        /* \"#utility.yul\":30605:30736   */\n      tag_319\n      jump\t// in\n    tag_601:\n        /* \"#utility.yul\":30597:30736   */\n      swap1\n      pop\n        /* \"#utility.yul\":30324:30743   */\n      swap2\n      swap1\n      pop\n      jump\t// out\n        /* \"#utility.yul\":30749:31042   */\n    tag_320:\n        /* \"#utility.yul\":30889:30923   */\n      0x596f7520646f6e2774206f776e2074686520616464726573732e205468652061\n        /* \"#utility.yul\":30885:30886   */\n      0x00\n        /* \"#utility.yul\":30877:30883   */\n      dup3\n        /* \"#utility.yul\":30873:30887   */\n      add\n        /* \"#utility.yul\":30866:30924   */\n      mstore\n        /* \"#utility.yul\":30958:30992   */\n      0x646472657373206f776e657220686173206e6f742064656c6567617465642074\n        /* \"#utility.yul\":30953:30955   */\n      0x20\n        /* \"#utility.yul\":30945:30951   */\n      dup3\n        /* \"#utility.yul\":30941:30956   */\n      add\n        /* \"#utility.yul\":30934:30993   */\n      mstore\n        /* \"#utility.yul\":31027:31034   */\n      0x6f20796f75000000000000000000000000000000000000000000000000000000\n        /* \"#utility.yul\":31022:31024   */\n      0x40\n        /* \"#utility.yul\":31014:31020   */\n      dup3\n        /* \"#utility.yul\":31010:31025   */\n      add\n        /* \"#utility.yul\":31003:31035   */\n      mstore\n        /* \"#utility.yul\":30749:31042   */\n      pop\n      jump\t// out\n        /* \"#utility.yul\":31048:31414   */\n    tag_321:\n        /* \"#utility.yul\":31190:31193   */\n      0x00\n        /* \"#utility.yul\":31211:31278   */\n      tag_604\n        /* \"#utility.yul\":31275:31277   */\n      0x45\n        /* \"#utility.yul\":31270:31273   */\n      dup4\n        /* \"#utility.yul\":31211:31278   */\n      tag_267\n      jump\t// in\n    tag_604:\n        /* \"#utility.yul\":31204:31278   */\n      swap2\n      pop\n        /* \"#utility.yul\":31287:31380   */\n      tag_605\n        /* \"#utility.yul\":31376:31379   */\n      dup3\n        /* \"#utility.yul\":31287:31380   */\n      tag_320\n      jump\t// in\n    tag_605:\n        /* \"#utility.yul\":31405:31407   */\n      0x60\n        /* \"#utility.yul\":31400:31403   */\n      dup3\n        /* \"#utility.yul\":31396:31408   */\n      add\n        /* \"#utility.yul\":31389:31408   */\n      swap1\n      pop\n        /* \"#utility.yul\":31048:31414   */\n      swap2\n      swap1\n      pop\n      jump\t// out\n        /* \"#utility.yul\":31420:31839   */\n    tag_171:\n        /* \"#utility.yul\":31586:31590   */\n      0x00\n        /* \"#utility.yul\":31624:31626   */\n      0x20\n        /* \"#utility.yul\":31613:31622   */\n      dup3\n        /* \"#utility.yul\":31609:31627   */\n      add\n        /* \"#utility.yul\":31601:31627   */\n      swap1\n      pop\n        /* \"#utility.yul\":31673:31682   */\n      dup2\n        /* \"#utility.yul\":31667:31671   */\n      dup2\n        /* \"#utility.yul\":31663:31683   */\n      sub\n        /* \"#utility.yul\":31659:31660   */\n      0x00\n        /* \"#utility.yul\":31648:31657   */\n      dup4\n        /* \"#utility.yul\":31644:31661   */\n      add\n        /* \"#utility.yul\":31637:31684   */\n      mstore\n        /* \"#utility.yul\":31701:31832   */\n      tag_607\n        /* \"#utility.yul\":31827:31831   */\n      dup2\n        /* \"#utility.yul\":31701:31832   */\n      tag_321\n      jump\t// in\n    tag_607:\n        /* \"#utility.yul\":31693:31832   */\n      swap1\n      pop\n        /* \"#utility.yul\":31420:31839   */\n      swap2\n      swap1\n      pop\n      jump\t// out\n        /* \"#utility.yul\":31845:32036   */\n    tag_173:\n        /* \"#utility.yul\":31885:31888   */\n      0x00\n        /* \"#utility.yul\":31904:31924   */\n      tag_609\n        /* \"#utility.yul\":31922:31923   */\n      dup3\n        /* \"#utility.yul\":31904:31924   */\n      tag_262\n      jump\t// in\n    tag_609:\n        /* \"#utility.yul\":31899:31924   */\n      swap2\n      pop\n        /* \"#utility.yul\":31938:31958   */\n      tag_610\n        /* \"#utility.yul\":31956:31957   */\n      dup4\n        /* \"#utility.yul\":31938:31958   */\n      tag_262\n      jump\t// in\n    tag_610:\n        /* \"#utility.yul\":31933:31958   */\n      swap3\n      pop\n        /* \"#utility.yul\":31981:31982   */\n      dup3\n        /* \"#utility.yul\":31978:31979   */\n      dup3\n        /* \"#utility.yul\":31974:31983   */\n      add\n        /* \"#utility.yul\":31967:31983   */\n      swap1\n      pop\n        /* \"#utility.yul\":32002:32005   */\n      dup1\n        /* \"#utility.yul\":31999:32000   */\n      dup3\n        /* \"#utility.yul\":31996:32006   */\n      gt\n        /* \"#utility.yul\":31993:32029   */\n      iszero\n      tag_611\n      jumpi\n        /* \"#utility.yul\":32009:32027   */\n      tag_612\n      tag_279\n      jump\t// in\n    tag_612:\n        /* \"#utility.yul\":31993:32029   */\n    tag_611:\n        /* \"#utility.yul\":31845:32036   */\n      swap3\n      swap2\n      pop\n      pop\n      jump\t// out\n        /* \"#utility.yul\":32042:32224   */\n    tag_322:\n        /* \"#utility.yul\":32182:32216   */\n      0x43616e646964617465207769746820696420646f6573206e6f74206578697374\n        /* \"#utility.yul\":32178:32179   */\n      0x00\n        /* \"#utility.yul\":32170:32176   */\n      dup3\n        /* \"#utility.yul\":32166:32180   */\n      add\n        /* \"#utility.yul\":32159:32217   */\n      mstore\n        /* \"#utility.yul\":32042:32224   */\n      pop\n      jump\t// out\n        /* \"#utility.yul\":32230:32596   */\n    tag_323:\n        /* \"#utility.yul\":32372:32375   */\n      0x00\n        /* \"#utility.yul\":32393:32460   */\n      tag_615\n        /* \"#utility.yul\":32457:32459   */\n      0x20\n        /* \"#utility.yul\":32452:32455   */\n      dup4\n        /* \"#utility.yul\":32393:32460   */\n      tag_267\n      jump\t// in\n    tag_615:\n        /* \"#utility.yul\":32386:32460   */\n      swap2\n      pop\n        /* \"#utility.yul\":32469:32562   */\n      tag_616\n        /* \"#utility.yul\":32558:32561   */\n      dup3\n        /* \"#utility.yul\":32469:32562   */\n      tag_322\n      jump\t// in\n    tag_616:\n        /* \"#utility.yul\":32587:32589   */\n      0x20\n        /* \"#utility.yul\":32582:32585   */\n      dup3\n        /* \"#utility.yul\":32578:32590   */\n      add\n        /* \"#utility.yul\":32571:32590   */\n      swap1\n      pop\n        /* \"#utility.yul\":32230:32596   */\n      swap2\n      swap1\n      pop\n      jump\t// out\n        /* \"#utility.yul\":32602:33021   */\n    tag_177:\n        /* \"#utility.yul\":32768:32772   */\n      0x00\n        /* \"#utility.yul\":32806:32808   */\n      0x20\n        /* \"#utility.yul\":32795:32804   */\n      dup3\n        /* \"#utility.yul\":32791:32809   */\n      add\n        /* \"#utility.yul\":32783:32809   */\n      swap1\n      pop\n        /* \"#utility.yul\":32855:32864   */\n      dup2\n        /* \"#utility.yul\":32849:32853   */\n      dup2\n        /* \"#utility.yul\":32845:32865   */\n      sub\n        /* \"#utility.yul\":32841:32842   */\n      0x00\n        /* \"#utility.yul\":32830:32839   */\n      dup4\n        /* \"#utility.yul\":32826:32843   */\n      add\n        /* \"#utility.yul\":32819:32866   */\n      mstore\n        /* \"#utility.yul\":32883:33014   */\n      tag_618\n        /* \"#utility.yul\":33009:33013   */\n      dup2\n        /* \"#utility.yul\":32883:33014   */\n      tag_323\n      jump\t// in\n    tag_618:\n        /* \"#utility.yul\":32875:33014   */\n      swap1\n      pop\n        /* \"#utility.yul\":32602:33021   */\n      swap2\n      swap1\n      pop\n      jump\t// out\n        /* \"#utility.yul\":33027:33189   */\n    tag_324:\n        /* \"#utility.yul\":33167:33181   */\n      0x4e6f20766f746573207965740000000000000000000000000000000000000000\n        /* \"#utility.yul\":33163:33164   */\n      0x00\n        /* \"#utility.yul\":33155:33161   */\n      dup3\n        /* \"#utility.yul\":33151:33165   */\n      add\n        /* \"#utility.yul\":33144:33182   */\n      mstore\n        /* \"#utility.yul\":33027:33189   */\n      pop\n      jump\t// out\n        /* \"#utility.yul\":33195:33561   */\n    tag_325:\n        /* \"#utility.yul\":33337:33340   */\n      0x00\n        /* \"#utility.yul\":33358:33425   */\n      tag_621\n        /* \"#utility.yul\":33422:33424   */\n      0x0c\n        /* \"#utility.yul\":33417:33420   */\n      dup4\n        /* \"#utility.yul\":33358:33425   */\n      tag_267\n      jump\t// in\n    tag_621:\n        /* \"#utility.yul\":33351:33425   */\n      swap2\n      pop\n        /* \"#utility.yul\":33434:33527   */\n      tag_622\n        /* \"#utility.yul\":33523:33526   */\n      dup3\n        /* \"#utility.yul\":33434:33527   */\n      tag_324\n      jump\t// in\n    tag_622:\n        /* \"#utility.yul\":33552:33554   */\n      0x20\n        /* \"#utility.yul\":33547:33550   */\n      dup3\n        /* \"#utility.yul\":33543:33555   */\n      add\n        /* \"#utility.yul\":33536:33555   */\n      swap1\n      pop\n        /* \"#utility.yul\":33195:33561   */\n      swap2\n      swap1\n      pop\n      jump\t// out\n        /* \"#utility.yul\":33567:33986   */\n    tag_202:\n        /* \"#utility.yul\":33733:33737   */\n      0x00\n        /* \"#utility.yul\":33771:33773   */\n      0x20\n        /* \"#utility.yul\":33760:33769   */\n      dup3\n        /* \"#utility.yul\":33756:33774   */\n      add\n        /* \"#utility.yul\":33748:33774   */\n      swap1\n      pop\n        /* \"#utility.yul\":33820:33829   */\n      dup2\n        /* \"#utility.yul\":33814:33818   */\n      dup2\n        /* \"#utility.yul\":33810:33830   */\n      sub\n        /* \"#utility.yul\":33806:33807   */\n      0x00\n        /* \"#utility.yul\":33795:33804   */\n      dup4\n        /* \"#utility.yul\":33791:33808   */\n      add\n        /* \"#utility.yul\":33784:33831   */\n      mstore\n        /* \"#utility.yul\":33848:33979   */\n      tag_624\n        /* \"#utility.yul\":33974:33978   */\n      dup2\n        /* \"#utility.yul\":33848:33979   */\n      tag_325\n      jump\t// in\n    tag_624:\n        /* \"#utility.yul\":33840:33979   */\n      swap1\n      pop\n        /* \"#utility.yul\":33567:33986   */\n      swap2\n      swap1\n      pop\n      jump\t// out\n        /* \"#utility.yul\":33992:34161   */\n    tag_326:\n        /* \"#utility.yul\":34132:34153   */\n      0x3020766f74657273207265676973746572656400000000000000000000000000\n        /* \"#utility.yul\":34128:34129   */\n      0x00\n        /* \"#utility.yul\":34120:34126   */\n      dup3\n        /* \"#utility.yul\":34116:34130   */\n      add\n        /* \"#utility.yul\":34109:34154   */\n      mstore\n        /* \"#utility.yul\":33992:34161   */\n      pop\n      jump\t// out\n        /* \"#utility.yul\":34167:34533   */\n    tag_327:\n        /* \"#utility.yul\":34309:34312   */\n      0x00\n        /* \"#utility.yul\":34330:34397   */\n      tag_627\n        /* \"#utility.yul\":34394:34396   */\n      0x13\n        /* \"#utility.yul\":34389:34392   */\n      dup4\n        /* \"#utility.yul\":34330:34397   */\n      tag_267\n      jump\t// in\n    tag_627:\n        /* \"#utility.yul\":34323:34397   */\n      swap2\n      pop\n        /* \"#utility.yul\":34406:34499   */\n      tag_628\n        /* \"#utility.yul\":34495:34498   */\n      dup3\n        /* \"#utility.yul\":34406:34499   */\n      tag_326\n      jump\t// in\n    tag_628:\n        /* \"#utility.yul\":34524:34526   */\n      0x20\n        /* \"#utility.yul\":34519:34522   */\n      dup3\n        /* \"#utility.yul\":34515:34527   */\n      add\n        /* \"#utility.yul\":34508:34527   */\n      swap1\n      pop\n        /* \"#utility.yul\":34167:34533   */\n      swap2\n      swap1\n      pop\n      jump\t// out\n        /* \"#utility.yul\":34539:34958   */\n    tag_217:\n        /* \"#utility.yul\":34705:34709   */\n      0x00\n        /* \"#utility.yul\":34743:34745   */\n      0x20\n        /* \"#utility.yul\":34732:34741   */\n      dup3\n        /* \"#utility.yul\":34728:34746   */\n      add\n        /* \"#utility.yul\":34720:34746   */\n      swap1\n      pop\n        /* \"#utility.yul\":34792:34801   */\n      dup2\n        /* \"#utility.yul\":34786:34790   */\n      dup2\n        /* \"#utility.yul\":34782:34802   */\n      sub\n        /* \"#utility.yul\":34778:34779   */\n      0x00\n        /* \"#utility.yul\":34767:34776   */\n      dup4\n        /* \"#utility.yul\":34763:34780   */\n      add\n        /* \"#utility.yul\":34756:34803   */\n      mstore\n        /* \"#utility.yul\":34820:34951   */\n      tag_630\n        /* \"#utility.yul\":34946:34950   */\n      dup2\n        /* \"#utility.yul\":34820:34951   */\n      tag_327\n      jump\t// in\n    tag_630:\n        /* \"#utility.yul\":34812:34951   */\n      swap1\n      pop\n        /* \"#utility.yul\":34539:34958   */\n      swap2\n      swap1\n      pop\n      jump\t// out\n        /* \"#utility.yul\":34964:35084   */\n    tag_328:\n        /* \"#utility.yul\":35052:35053   */\n      0x03\n        /* \"#utility.yul\":35045:35050   */\n      dup2\n        /* \"#utility.yul\":35042:35054   */\n      lt\n        /* \"#utility.yul\":35032:35078   */\n      tag_632\n      jumpi\n        /* \"#utility.yul\":35058:35076   */\n      tag_633\n      tag_68\n      jump\t// in\n    tag_633:\n        /* \"#utility.yul\":35032:35078   */\n    tag_632:\n        /* \"#utility.yul\":34964:35084   */\n      pop\n      jump\t// out\n        /* \"#utility.yul\":35090:35231   */\n    tag_329:\n        /* \"#utility.yul\":35142:35149   */\n      0x00\n        /* \"#utility.yul\":35171:35176   */\n      dup2\n        /* \"#utility.yul\":35160:35176   */\n      swap1\n      pop\n        /* \"#utility.yul\":35177:35225   */\n      tag_635\n        /* \"#utility.yul\":35219:35224   */\n      dup3\n        /* \"#utility.yul\":35177:35225   */\n      tag_328\n      jump\t// in\n    tag_635:\n        /* \"#utility.yul\":35090:35231   */\n      swap2\n      swap1\n      pop\n      jump\t// out\n        /* \"#utility.yul\":35237:35378   */\n    tag_330:\n        /* \"#utility.yul\":35300:35309   */\n      0x00\n        /* \"#utility.yul\":35333:35372   */\n      tag_637\n        /* \"#utility.yul\":35366:35371   */\n      dup3\n        /* \"#utility.yul\":35333:35372   */\n      tag_329\n      jump\t// in\n    tag_637:\n        /* \"#utility.yul\":35320:35372   */\n      swap1\n      pop\n        /* \"#utility.yul\":35237:35378   */\n      swap2\n      swap1\n      pop\n      jump\t// out\n        /* \"#utility.yul\":35384:35541   */\n    tag_331:\n        /* \"#utility.yul\":35484:35534   */\n      tag_639\n        /* \"#utility.yul\":35528:35533   */\n      dup2\n        /* \"#utility.yul\":35484:35534   */\n      tag_330\n      jump\t// in\n    tag_639:\n        /* \"#utility.yul\":35479:35482   */\n      dup3\n        /* \"#utility.yul\":35472:35535   */\n      mstore\n        /* \"#utility.yul\":35384:35541   */\n      pop\n      pop\n      jump\t// out\n        /* \"#utility.yul\":35547:35711   */\n    tag_332:\n        /* \"#utility.yul\":35687:35703   */\n      0x566f74696e67206f6e676f696e67000000000000000000000000000000000000\n        /* \"#utility.yul\":35683:35684   */\n      0x00\n        /* \"#utility.yul\":35675:35681   */\n      dup3\n        /* \"#utility.yul\":35671:35685   */\n      add\n        /* \"#utility.yul\":35664:35704   */\n      mstore\n        /* \"#utility.yul\":35547:35711   */\n      pop\n      jump\t// out\n        /* \"#utility.yul\":35717:36083   */\n    tag_333:\n        /* \"#utility.yul\":35859:35862   */\n      0x00\n        /* \"#utility.yul\":35880:35947   */\n      tag_642\n        /* \"#utility.yul\":35944:35946   */\n      0x0e\n        /* \"#utility.yul\":35939:35942   */\n      dup4\n        /* \"#utility.yul\":35880:35947   */\n      tag_267\n      jump\t// in\n    tag_642:\n        /* \"#utility.yul\":35873:35947   */\n      swap2\n      pop\n        /* \"#utility.yul\":35956:36049   */\n      tag_643\n        /* \"#utility.yul\":36045:36048   */\n      dup3\n        /* \"#utility.yul\":35956:36049   */\n      tag_332\n      jump\t// in\n    tag_643:\n        /* \"#utility.yul\":36074:36076   */\n      0x20\n        /* \"#utility.yul\":36069:36072   */\n      dup3\n        /* \"#utility.yul\":36065:36077   */\n      add\n        /* \"#utility.yul\":36058:36077   */\n      swap1\n      pop\n        /* \"#utility.yul\":35717:36083   */\n      swap2\n      swap1\n      pop\n      jump\t// out\n        /* \"#utility.yul\":36089:36644   */\n    tag_224:\n        /* \"#utility.yul\":36296:36300   */\n      0x00\n        /* \"#utility.yul\":36334:36336   */\n      0x40\n        /* \"#utility.yul\":36323:36332   */\n      dup3\n        /* \"#utility.yul\":36319:36337   */\n      add\n        /* \"#utility.yul\":36311:36337   */\n      swap1\n      pop\n        /* \"#utility.yul\":36347:36431   */\n      tag_645\n        /* \"#utility.yul\":36428:36429   */\n      0x00\n        /* \"#utility.yul\":36417:36426   */\n      dup4\n        /* \"#utility.yul\":36413:36430   */\n      add\n        /* \"#utility.yul\":36404:36410   */\n      dup5\n        /* \"#utility.yul\":36347:36431   */\n      tag_331\n      jump\t// in\n    tag_645:\n        /* \"#utility.yul\":36478:36487   */\n      dup2\n        /* \"#utility.yul\":36472:36476   */\n      dup2\n        /* \"#utility.yul\":36468:36488   */\n      sub\n        /* \"#utility.yul\":36463:36465   */\n      0x20\n        /* \"#utility.yul\":36452:36461   */\n      dup4\n        /* \"#utility.yul\":36448:36466   */\n      add\n        /* \"#utility.yul\":36441:36489   */\n      mstore\n        /* \"#utility.yul\":36506:36637   */\n      tag_646\n        /* \"#utility.yul\":36632:36636   */\n      dup2\n        /* \"#utility.yul\":36506:36637   */\n      tag_333\n      jump\t// in\n    tag_646:\n        /* \"#utility.yul\":36498:36637   */\n      swap1\n      pop\n        /* \"#utility.yul\":36089:36644   */\n      swap3\n      swap2\n      pop\n      pop\n      jump\t// out\n        /* \"#utility.yul\":36650:36816   */\n    tag_334:\n        /* \"#utility.yul\":36790:36808   */\n      0x566f74696e6720636f6d706c6574656400000000000000000000000000000000\n        /* \"#utility.yul\":36786:36787   */\n      0x00\n        /* \"#utility.yul\":36778:36784   */\n      dup3\n        /* \"#utility.yul\":36774:36788   */\n      add\n        /* \"#utility.yul\":36767:36809   */\n      mstore\n        /* \"#utility.yul\":36650:36816   */\n      pop\n      jump\t// out\n        /* \"#utility.yul\":36822:37188   */\n    tag_335:\n        /* \"#utility.yul\":36964:36967   */\n      0x00\n        /* \"#utility.yul\":36985:37052   */\n      tag_649\n        /* \"#utility.yul\":37049:37051   */\n      0x10\n        /* \"#utility.yul\":37044:37047   */\n      dup4\n        /* \"#utility.yul\":36985:37052   */\n      tag_267\n      jump\t// in\n    tag_649:\n        /* \"#utility.yul\":36978:37052   */\n      swap2\n      pop\n        /* \"#utility.yul\":37061:37154   */\n      tag_650\n        /* \"#utility.yul\":37150:37153   */\n      dup3\n        /* \"#utility.yul\":37061:37154   */\n      tag_334\n      jump\t// in\n    tag_650:\n        /* \"#utility.yul\":37179:37181   */\n      0x20\n        /* \"#utility.yul\":37174:37177   */\n      dup3\n        /* \"#utility.yul\":37170:37182   */\n      add\n        /* \"#utility.yul\":37163:37182   */\n      swap1\n      pop\n        /* \"#utility.yul\":36822:37188   */\n      swap2\n      swap1\n      pop\n      jump\t// out\n        /* \"#utility.yul\":37194:37749   */\n    tag_232:\n        /* \"#utility.yul\":37401:37405   */\n      0x00\n        /* \"#utility.yul\":37439:37441   */\n      0x40\n        /* \"#utility.yul\":37428:37437   */\n      dup3\n        /* \"#utility.yul\":37424:37442   */\n      add\n        /* \"#utility.yul\":37416:37442   */\n      swap1\n      pop\n        /* \"#utility.yul\":37452:37536   */\n      tag_652\n        /* \"#utility.yul\":37533:37534   */\n      0x00\n        /* \"#utility.yul\":37522:37531   */\n      dup4\n        /* \"#utility.yul\":37518:37535   */\n      add\n        /* \"#utility.yul\":37509:37515   */\n      dup5\n        /* \"#utility.yul\":37452:37536   */\n      tag_331\n      jump\t// in\n    tag_652:\n        /* \"#utility.yul\":37583:37592   */\n      dup2\n        /* \"#utility.yul\":37577:37581   */\n      dup2\n        /* \"#utility.yul\":37573:37593   */\n      sub\n        /* \"#utility.yul\":37568:37570   */\n      0x20\n        /* \"#utility.yul\":37557:37566   */\n      dup4\n        /* \"#utility.yul\":37553:37571   */\n      add\n        /* \"#utility.yul\":37546:37594   */\n      mstore\n        /* \"#utility.yul\":37611:37742   */\n      tag_653\n        /* \"#utility.yul\":37737:37741   */\n      dup2\n        /* \"#utility.yul\":37611:37742   */\n      tag_335\n      jump\t// in\n    tag_653:\n        /* \"#utility.yul\":37603:37742   */\n      swap1\n      pop\n        /* \"#utility.yul\":37194:37749   */\n      swap3\n      swap2\n      pop\n      pop\n      jump\t// out\n\n    auxdata: 0xa26469706673582212206c1b2579e885855d757b40ba5bebd2484df89ada921feaf5f3cdcdcf3fddea8164736f6c63430008160033\n}\n",
				"bytecode": {
					"linkReferences": {},
					"object": "60806040525f8060146101000a81548160ff021916908360028111156200002b576200002a6200008a565b5b02179055505f6001555f60025534801562000044575f80fd5b50335f806101000a81548173ffffffffffffffffffffffffffffffffffffffff021916908373ffffffffffffffffffffffffffffffffffffffff160217905550620000b7565b7f4e487b71000000000000000000000000000000000000000000000000000000005f52602160045260245ffd5b612d9880620000c55f395ff3fe608060405234801561000f575f80fd5b50600436106100a7575f3560e01c806377df41b71161006f57806377df41b71461013b578063a48292ce14610157578063b7e0326414610189578063d45529f4146101a9578063e6a5e61d146101c7578063f83bfa28146101e3576100a7565b80633cdd97bf146100ab5780633d0af840146100c75780634ad7b863146100e357806359f7846814610115578063723309a01461011f575b5f80fd5b6100c560048036038101906100c09190611bba565b610215565b005b6100e160048036038101906100dc9190611c26565b610589565b005b6100fd60048036038101906100f89190611c97565b6107da565b60405161010c93929190611d4b565b60405180910390f35b61011d610910565b005b61013960048036038101906101349190611d87565b610a7a565b005b61015560048036038101906101509190611e0f565b610c7c565b005b610171600480360381019061016c9190611c97565b611176565b60405161018093929190611e4d565b60405180910390f35b610191611337565b6040516101a093929190611d4b565b60405180910390f35b6101b16114ed565b6040516101be9190611e9f565b60405180910390f35b6101e160048036038101906101dc9190611eb8565b611510565b005b6101fd60048036038101906101f89190611eb8565b6117b1565b60405161020c93929190611efd565b60405180910390f35b5f8054906101000a900473ffffffffffffffffffffffffffffffffffffffff1673ffffffffffffffffffffffffffffffffffffffff163373ffffffffffffffffffffffffffffffffffffffff161461026b575f80fd5b5f8054906101000a900473ffffffffffffffffffffffffffffffffffffffff1673ffffffffffffffffffffffffffffffffffffffff168173ffffffffffffffffffffffffffffffffffffffff16146102f8576040517f08c379a00000000000000000000000000000000000000000000000000000000081526004016102ef90611fa9565b60405180910390fd5b5f600281111561030b5761030a611fc7565b5b5f60149054906101000a900460ff16600281111561032c5761032b611fc7565b5b1461036c576040517f08c379a000000000000000000000000000000000000000000000000000000000815260040161036390612064565b60405180910390fd5b5f151560045f8573ffffffffffffffffffffffffffffffffffffffff1673ffffffffffffffffffffffffffffffffffffffff1681526020019081526020015f206005015f9054906101000a900460ff161515146103fe576040517f08c379a00000000000000000000000000000000000000000000000000000000081526004016103f5906120cc565b60405180910390fd5b60025f81548092919061041090612117565b91905055505f60025490508060045f8673ffffffffffffffffffffffffffffffffffffffff1673ffffffffffffffffffffffffffffffffffffffff1681526020019081526020015f205f01819055508360045f8673ffffffffffffffffffffffffffffffffffffffff1673ffffffffffffffffffffffffffffffffffffffff1681526020019081526020015f206002015f6101000a81548173ffffffffffffffffffffffffffffffffffffffff021916908373ffffffffffffffffffffffffffffffffffffffff1602179055508260045f8673ffffffffffffffffffffffffffffffffffffffff1673ffffffffffffffffffffffffffffffffffffffff1681526020019081526020015f20600101908161052a9190612358565b50600160045f8673ffffffffffffffffffffffffffffffffffffffff1673ffffffffffffffffffffffffffffffffffffffff1681526020019081526020015f206005015f6101000a81548160ff02191690831515021790555050505050565b6001600281111561059d5761059c611fc7565b5b5f60149054906101000a900460ff1660028111156105be576105bd611fc7565b5b146105fe576040517f08c379a00000000000000000000000000000000000000000000000000000000081526004016105f590612497565b60405180910390fd5b8073ffffffffffffffffffffffffffffffffffffffff163373ffffffffffffffffffffffffffffffffffffffff161461066c576040517f08c379a00000000000000000000000000000000000000000000000000000000081526004016106639061254b565b60405180910390fd5b5f151560045f8373ffffffffffffffffffffffffffffffffffffffff1673ffffffffffffffffffffffffffffffffffffffff1681526020019081526020015f2060030160149054906101000a900460ff161515146106ff576040517f08c379a00000000000000000000000000000000000000000000000000000000081526004016106f6906125d9565b60405180910390fd5b8160045f8373ffffffffffffffffffffffffffffffffffffffff1673ffffffffffffffffffffffffffffffffffffffff1681526020019081526020015f206003015f6101000a81548173ffffffffffffffffffffffffffffffffffffffff021916908373ffffffffffffffffffffffffffffffffffffffff160217905550600160045f8373ffffffffffffffffffffffffffffffffffffffff1673ffffffffffffffffffffffffffffffffffffffff1681526020019081526020015f2060020160146101000a81548160ff0219169083151502179055505050565b5f60605f8060028111156107f1576107f0611fc7565b5b5f60149054906101000a900460ff16600281111561081257610811611fc7565b5b03610852576040517f08c379a000000000000000000000000000000000000000000000000000000000815260040161084990612641565b60405180910390fd5b8360035f8681526020019081526020015f2060010160055f8781526020019081526020015f20548180546108859061218b565b80601f01602080910402602001604051908101604052809291908181526020018280546108b19061218b565b80156108fc5780601f106108d3576101008083540402835291602001916108fc565b820191905f5260205f20905b8154815290600101906020018083116108df57829003601f168201915b505050505091509250925092509193909250565b5f8054906101000a900473ffffffffffffffffffffffffffffffffffffffff1673ffffffffffffffffffffffffffffffffffffffff163373ffffffffffffffffffffffffffffffffffffffff1614610966575f80fd5b5f600281111561097957610978611fc7565b5b5f60149054906101000a900460ff16600281111561099a57610999611fc7565b5b036109da576040517f08c379a00000000000000000000000000000000000000000000000000000000081526004016109d1906126a9565b60405180910390fd5b6002808111156109ed576109ec611fc7565b5b5f60149054906101000a900460ff166002811115610a0e57610a0d611fc7565b5b03610a4e576040517f08c379a0000000000000000000000000000000000000000000000000000000008152600401610a4590612711565b60405180910390fd5b60025f60146101000a81548160ff02191690836002811115610a7357610a72611fc7565b5b0217905550565b5f8054906101000a900473ffffffffffffffffffffffffffffffffffffffff1673ffffffffffffffffffffffffffffffffffffffff163373ffffffffffffffffffffffffffffffffffffffff1614610ad0575f80fd5b5f8054906101000a900473ffffffffffffffffffffffffffffffffffffffff1673ffffffffffffffffffffffffffffffffffffffff168173ffffffffffffffffffffffffffffffffffffffff1614610b5d576040517f08c379a0000000000000000000000000000000000000000000000000000000008152600401610b5490611fa9565b60405180910390fd5b5f6002811115610b7057610b6f611fc7565b5b5f60149054906101000a900460ff166002811115610b9157610b90611fc7565b5b14610bd1576040517f08c379a0000000000000000000000000000000000000000000000000000000008152600401610bc890612064565b60405180910390fd5b60015f815480929190610be390612117565b91905055505f60015490508060035f8381526020019081526020015f205f01819055508360035f8381526020019081526020015f206001019081610c279190612358565b508260035f8381526020019081526020015f206002019081610c499190612358565b50600160035f8381526020019081526020015f206003015f6101000a81548160ff02191690831515021790555050505050565b60016002811115610c9057610c8f611fc7565b5b5f60149054906101000a900460ff166002811115610cb157610cb0611fc7565b5b14610cf1576040517f08c379a0000000000000000000000000000000000000000000000000000000008152600401610ce89061279f565b60405180910390fd5b5f60015411610d35576040517f08c379a0000000000000000000000000000000000000000000000000000000008152600401610d2c90612807565b60405180910390fd5b60035f8381526020019081526020015f206003015f9054906101000a900460ff16610d95576040517f08c379a0000000000000000000000000000000000000000000000000000000008152600401610d8c9061286f565b60405180910390fd5b60045f8273ffffffffffffffffffffffffffffffffffffffff1673ffffffffffffffffffffffffffffffffffffffff1681526020019081526020015f206005015f9054906101000a900460ff16610e21576040517f08c379a0000000000000000000000000000000000000000000000000000000008152600401610e18906128fd565b60405180910390fd5b5f151560045f8373ffffffffffffffffffffffffffffffffffffffff1673ffffffffffffffffffffffffffffffffffffffff1681526020019081526020015f2060030160149054906101000a900460ff16151514610eb4576040517f08c379a0000000000000000000000000000000000000000000000000000000008152600401610eab90612965565b60405180910390fd5b5f151560045f8373ffffffffffffffffffffffffffffffffffffffff1673ffffffffffffffffffffffffffffffffffffffff1681526020019081526020015f2060020160149054906101000a900460ff16151503610f7f578073ffffffffffffffffffffffffffffffffffffffff163373ffffffffffffffffffffffffffffffffffffffff1614610f7a576040517f08c379a0000000000000000000000000000000000000000000000000000000008152600401610f71906129f3565b60405180910390fd5b6110a1565b60045f8273ffffffffffffffffffffffffffffffffffffffff1673ffffffffffffffffffffffffffffffffffffffff1681526020019081526020015f2060020160149054906101000a900460ff16156110a05760045f8273ffffffffffffffffffffffffffffffffffffffff1673ffffffffffffffffffffffffffffffffffffffff1681526020019081526020015f206003015f9054906101000a900473ffffffffffffffffffffffffffffffffffffffff1673ffffffffffffffffffffffffffffffffffffffff163373ffffffffffffffffffffffffffffffffffffffff161461109f576040517f08c379a000000000000000000000000000000000000000000000000000000000815260040161109690612aa7565b60405180910390fd5b5b5b600160055f8481526020019081526020015f20546110bf9190612ac5565b60055f8481526020019081526020015f20819055508160045f8373ffffffffffffffffffffffffffffffffffffffff1673ffffffffffffffffffffffffffffffffffffffff1681526020019081526020015f2060040181905550600160045f8373ffffffffffffffffffffffffffffffffffffffff1673ffffffffffffffffffffffffffffffffffffffff1681526020019081526020015f2060030160146101000a81548160ff0219169083151502179055505050565b5f60608060035f8581526020019081526020015f206003015f9054906101000a900460ff166111da576040517f08c379a00000000000000000000000000000000000000000000000000000000081526004016111d190612b42565b60405180910390fd5b60035f8581526020019081526020015f205f015460035f8681526020019081526020015f2060020160035f8781526020019081526020015f206001018180546112229061218b565b80601f016020809104026020016040519081016040528092919081815260200182805461124e9061218b565b80156112995780601f1061127057610100808354040283529160200191611299565b820191905f5260205f20905b81548152906001019060200180831161127c57829003601f168201915b505050505091508080546112ac9061218b565b80601f01602080910402602001604051908101604052809291908181526020018280546112d89061218b565b80156113235780601f106112fa57610100808354040283529160200191611323565b820191905f5260205f20905b81548152906001019060200180831161130657829003601f168201915b505050505090509250925092509193909250565b5f60605f80600281111561134e5761134d611fc7565b5b5f60149054906101000a900460ff16600281111561136f5761136e611fc7565b5b036113af576040517f08c379a00000000000000000000000000000000000000000000000000000000081526004016113a690612641565b60405180910390fd5b5f805f600190505b60015481116113fd575f8190505f60055f8381526020019081526020015f20549050838111156113e8578194508093505b505080806113f590612117565b9150506113b7565b505f8111611440576040517f08c379a000000000000000000000000000000000000000000000000000000000815260040161143790612baa565b60405180910390fd5b8160035f8481526020019081526020015f20600101828180546114629061218b565b80601f016020809104026020016040519081016040528092919081815260200182805461148e9061218b565b80156114d95780601f106114b0576101008083540402835291602001916114d9565b820191905f5260205f20905b8154815290600101906020018083116114bc57829003601f168201915b505050505091509450945094505050909192565b5f8054906101000a900473ffffffffffffffffffffffffffffffffffffffff1681565b5f8054906101000a900473ffffffffffffffffffffffffffffffffffffffff1673ffffffffffffffffffffffffffffffffffffffff163373ffffffffffffffffffffffffffffffffffffffff1614611566575f80fd5b5f8054906101000a900473ffffffffffffffffffffffffffffffffffffffff1673ffffffffffffffffffffffffffffffffffffffff168173ffffffffffffffffffffffffffffffffffffffff16146115f3576040517f08c379a00000000000000000000000000000000000000000000000000000000081526004016115ea90611fa9565b60405180910390fd5b5f60015411611637576040517f08c379a000000000000000000000000000000000000000000000000000000000815260040161162e90612807565b60405180910390fd5b5f6002541161167b576040517f08c379a000000000000000000000000000000000000000000000000000000000815260040161167290612c12565b60405180910390fd5b6001600281111561168f5761168e611fc7565b5b5f60149054906101000a900460ff1660028111156116b0576116af611fc7565b5b03611700575f60149054906101000a900460ff166040517fef90b1c10000000000000000000000000000000000000000000000000000000081526004016116f79190612cc0565b60405180910390fd5b60028081111561171357611712611fc7565b5b5f60149054906101000a900460ff16600281111561173457611733611fc7565b5b03611784575f60149054906101000a900460ff166040517fef90b1c100000000000000000000000000000000000000000000000000000000815260040161177b9190612d36565b60405180910390fd5b60015f60146101000a81548160ff021916908360028111156117a9576117a8611fc7565b5b021790555050565b5f60605f60045f8573ffffffffffffffffffffffffffffffffffffffff1673ffffffffffffffffffffffffffffffffffffffff1681526020019081526020015f206005015f9054906101000a900460ff16611841576040517f08c379a0000000000000000000000000000000000000000000000000000000008152600401611838906128fd565b60405180910390fd5b60045f8573ffffffffffffffffffffffffffffffffffffffff1673ffffffffffffffffffffffffffffffffffffffff1681526020019081526020015f206002015f9054906101000a900473ffffffffffffffffffffffffffffffffffffffff1660045f8673ffffffffffffffffffffffffffffffffffffffff1673ffffffffffffffffffffffffffffffffffffffff1681526020019081526020015f206001018473ffffffffffffffffffffffffffffffffffffffff1660045f8873ffffffffffffffffffffffffffffffffffffffff1673ffffffffffffffffffffffffffffffffffffffff1681526020019081526020015f206003015f9054906101000a900473ffffffffffffffffffffffffffffffffffffffff1673ffffffffffffffffffffffffffffffffffffffff161461197a57600161197c565b5f5b8180546119889061218b565b80601f01602080910402602001604051908101604052809291908181526020018280546119b49061218b565b80156119ff5780601f106119d6576101008083540402835291602001916119ff565b820191905f5260205f20905b8154815290600101906020018083116119e257829003601f168201915b505050505091509250925092509193909250565b5f604051905090565b5f80fd5b5f80fd5b5f73ffffffffffffffffffffffffffffffffffffffff82169050919050565b5f611a4d82611a24565b9050919050565b611a5d81611a43565b8114611a67575f80fd5b50565b5f81359050611a7881611a54565b92915050565b5f80fd5b5f80fd5b5f601f19601f8301169050919050565b7f4e487b71000000000000000000000000000000000000000000000000000000005f52604160045260245ffd5b611acc82611a86565b810181811067ffffffffffffffff82111715611aeb57611aea611a96565b5b80604052505050565b5f611afd611a13565b9050611b098282611ac3565b919050565b5f67ffffffffffffffff821115611b2857611b27611a96565b5b611b3182611a86565b9050602081019050919050565b828183375f83830152505050565b5f611b5e611b5984611b0e565b611af4565b905082815260208101848484011115611b7a57611b79611a82565b5b611b85848285611b3e565b509392505050565b5f82601f830112611ba157611ba0611a7e565b5b8135611bb1848260208601611b4c565b91505092915050565b5f805f60608486031215611bd157611bd0611a1c565b5b5f611bde86828701611a6a565b935050602084013567ffffffffffffffff811115611bff57611bfe611a20565b5b611c0b86828701611b8d565b9250506040611c1c86828701611a6a565b9150509250925092565b5f8060408385031215611c3c57611c3b611a1c565b5b5f611c4985828601611a6a565b9250506020611c5a85828601611a6a565b9150509250929050565b5f819050919050565b611c7681611c64565b8114611c80575f80fd5b50565b5f81359050611c9181611c6d565b92915050565b5f60208284031215611cac57611cab611a1c565b5b5f611cb984828501611c83565b91505092915050565b611ccb81611c64565b82525050565b5f81519050919050565b5f82825260208201905092915050565b5f5b83811015611d08578082015181840152602081019050611ced565b5f8484015250505050565b5f611d1d82611cd1565b611d278185611cdb565b9350611d37818560208601611ceb565b611d4081611a86565b840191505092915050565b5f606082019050611d5e5f830186611cc2565b8181036020830152611d708185611d13565b9050611d7f6040830184611cc2565b949350505050565b5f805f60608486031215611d9e57611d9d611a1c565b5b5f84013567ffffffffffffffff811115611dbb57611dba611a20565b5b611dc786828701611b8d565b935050602084013567ffffffffffffffff811115611de857611de7611a20565b5b611df486828701611b8d565b9250506040611e0586828701611a6a565b9150509250925092565b5f8060408385031215611e2557611e24611a1c565b5b5f611e3285828601611c83565b9250506020611e4385828601611a6a565b9150509250929050565b5f606082019050611e605f830186611cc2565b8181036020830152611e728185611d13565b90508181036040830152611e868184611d13565b9050949350505050565b611e9981611a43565b82525050565b5f602082019050611eb25f830184611e90565b92915050565b5f60208284031215611ecd57611ecc611a1c565b5b5f611eda84828501611a6a565b91505092915050565b5f8115159050919050565b611ef781611ee3565b82525050565b5f606082019050611f105f830186611e90565b8181036020830152611f228185611d13565b9050611f316040830184611eee565b949350505050565b7f4f6e6c792061646d696e206861732061636365737320746f20646f20746869735f8201527f2e00000000000000000000000000000000000000000000000000000000000000602082015250565b5f611f93602183611cdb565b9150611f9e82611f39565b604082019050919050565b5f6020820190508181035f830152611fc081611f87565b9050919050565b7f4e487b71000000000000000000000000000000000000000000000000000000005f52602160045260245ffd5b7f566f74696e6720616c72656164792073746172746564206f7220636f6d706c655f8201527f7465640000000000000000000000000000000000000000000000000000000000602082015250565b5f61204e602383611cdb565b915061205982611ff4565b604082019050919050565b5f6020820190508181035f83015261207b81612042565b9050919050565b7f766f74657220616c72656164792061646465642e0000000000000000000000005f82015250565b5f6120b6601483611cdb565b91506120c182612082565b602082019050919050565b5f6020820190508181035f8301526120e3816120aa565b9050919050565b7f4e487b71000000000000000000000000000000000000000000000000000000005f52601160045260245ffd5b5f61212182611c64565b91507fffffffffffffffffffffffffffffffffffffffffffffffffffffffffffffffff8203612153576121526120ea565b5b600182019050919050565b7f4e487b71000000000000000000000000000000000000000000000000000000005f52602260045260245ffd5b5f60028204905060018216806121a257607f821691505b6020821081036121b5576121b461215e565b5b50919050565b5f819050815f5260205f209050919050565b5f6020601f8301049050919050565b5f82821b905092915050565b5f600883026122177fffffffffffffffffffffffffffffffffffffffffffffffffffffffffffffffff826121dc565b61222186836121dc565b95508019841693508086168417925050509392505050565b5f819050919050565b5f61225c61225761225284611c64565b612239565b611c64565b9050919050565b5f819050919050565b61227583612242565b61228961228182612263565b8484546121e8565b825550505050565b5f90565b61229d612291565b6122a881848461226c565b505050565b5b818110156122cb576122c05f82612295565b6001810190506122ae565b5050565b601f821115612310576122e1816121bb565b6122ea846121cd565b810160208510156122f9578190505b61230d612305856121cd565b8301826122ad565b50505b505050565b5f82821c905092915050565b5f6123305f1984600802612315565b1980831691505092915050565b5f6123488383612321565b9150826002028217905092915050565b61236182611cd1565b67ffffffffffffffff81111561237a57612379611a96565b5b612384825461218b565b61238f8282856122cf565b5f60209050601f8311600181146123c0575f84156123ae578287015190505b6123b8858261233d565b86555061241f565b601f1984166123ce866121bb565b5f5b828110156123f5578489015182556001820191506020850194506020810190506123d0565b86831015612412578489015161240e601f891682612321565b8355505b6001600288020188555050505b505050505050565b7f566f74696e67206e6f7420696e2070726f67726573732e20596f752063616e205f8201527f6e6f742064656c65746567617465206e6f772e00000000000000000000000000602082015250565b5f612481603383611cdb565b915061248c82612427565b604082019050919050565b5f6020820190508181035f8301526124ae81612475565b9050919050565b7f4f6e6c792061646472657373206f776e65722063616e2064656c6567617465205f8201527f766f74696e672072696768747320746f20616e6f74686572206164647265737360208201527f2e00000000000000000000000000000000000000000000000000000000000000604082015250565b5f612535604183611cdb565b9150612540826124b5565b606082019050919050565b5f6020820190508181035f83015261256281612529565b9050919050565b7f596f752063616e206e6f742064656c656761746520766f74696e6720726967685f8201527f74732e20596f75206861766520616c726561647920766f7465642e0000000000602082015250565b5f6125c3603b83611cdb565b91506125ce82612569565b604082019050919050565b5f6020820190508181035f8301526125f0816125b7565b9050919050565b7f566f74696e67206e6f74207374617274656400000000000000000000000000005f82015250565b5f61262b601283611cdb565b9150612636826125f7565b602082019050919050565b5f6020820190508181035f8301526126588161261f565b9050919050565b7f766f74696e67206e6f74207374617274656400000000000000000000000000005f82015250565b5f612693601283611cdb565b915061269e8261265f565b602082019050919050565b5f6020820190508181035f8301526126c081612687565b9050919050565b7f766f74696e6720656e64656400000000000000000000000000000000000000005f82015250565b5f6126fb600c83611cdb565b9150612706826126c7565b602082019050919050565b5f6020820190508181035f830152612728816126ef565b9050919050565b7f566f74696e67206e6f7420696e2070726f67726573732e20596f752063616e205f8201527f6e6f7420766f7465206e6f772e00000000000000000000000000000000000000602082015250565b5f612789602d83611cdb565b91506127948261272f565b604082019050919050565b5f6020820190508181035f8301526127b68161277d565b9050919050565b7f302063616e6469646174657320726567697374657265640000000000000000005f82015250565b5f6127f1601783611cdb565b91506127fc826127bd565b602082019050919050565b5f6020820190508181035f83015261281e816127e5565b9050919050565b7f63616e646964617465207769746820696420646f6573206e6f742065786973745f82015250565b5f612859602083611cdb565b915061286482612825565b602082019050919050565b5f6020820190508181035f8301526128868161284d565b9050919050565b7f766f7465722077697468206164647265737320646f6573206e6f7420657869735f8201527f7400000000000000000000000000000000000000000000000000000000000000602082015250565b5f6128e7602183611cdb565b91506128f28261288d565b604082019050919050565b5f6020820190508181035f830152612914816128db565b9050919050565b7f566f746520616c726561647920706c61636564000000000000000000000000005f82015250565b5f61294f601383611cdb565b915061295a8261291b565b602082019050919050565b5f6020820190508181035f83015261297c81612943565b9050919050565b7f796f752063616e206e6f7420766f746520666f722074686973206164647265735f8201527f732e20596f7520646f6e2774206f776e20746865206164647265737300000000602082015250565b5f6129dd603c83611cdb565b91506129e882612983565b604082019050919050565b5f6020820190508181035f830152612a0a816129d1565b9050919050565b7f596f7520646f6e2774206f776e2074686520616464726573732e2054686520615f8201527f646472657373206f776e657220686173206e6f742064656c656761746564207460208201527f6f20796f75000000000000000000000000000000000000000000000000000000604082015250565b5f612a91604583611cdb565b9150612a9c82612a11565b606082019050919050565b5f6020820190508181035f830152612abe81612a85565b9050919050565b5f612acf82611c64565b9150612ada83611c64565b9250828201905080821115612af257612af16120ea565b5b92915050565b7f43616e646964617465207769746820696420646f6573206e6f742065786973745f82015250565b5f612b2c602083611cdb565b9150612b3782612af8565b602082019050919050565b5f6020820190508181035f830152612b5981612b20565b9050919050565b7f4e6f20766f7465732079657400000000000000000000000000000000000000005f82015250565b5f612b94600c83611cdb565b9150612b9f82612b60565b602082019050919050565b5f6020820190508181035f830152612bc181612b88565b9050919050565b7f3020766f746572732072656769737465726564000000000000000000000000005f82015250565b5f612bfc601383611cdb565b9150612c0782612bc8565b602082019050919050565b5f6020820190508181035f830152612c2981612bf0565b9050919050565b60038110612c4157612c40611fc7565b5b50565b5f819050612c5182612c30565b919050565b5f612c6082612c44565b9050919050565b612c7081612c56565b82525050565b7f566f74696e67206f6e676f696e670000000000000000000000000000000000005f82015250565b5f612caa600e83611cdb565b9150612cb582612c76565b602082019050919050565b5f604082019050612cd35f830184612c67565b8181036020830152612ce481612c9e565b905092915050565b7f566f74696e6720636f6d706c65746564000000000000000000000000000000005f82015250565b5f612d20601083611cdb565b9150612d2b82612cec565b602082019050919050565b5f604082019050612d495f830184612c67565b8181036020830152612d5a81612d14565b90509291505056fea26469706673582212206c1b2579e885855d757b40ba5bebd2484df89ada921feaf5f3cdcdcf3fddea8164736f6c63430008160033",
					"opcodes": "PUSH1 0x80 PUSH1 0x40 MSTORE PUSH0 DUP1 PUSH1 0x14 PUSH2 0x100 EXP DUP2 SLOAD DUP2 PUSH1 0xFF MUL NOT AND SWAP1 DUP4 PUSH1 0x2 DUP2 GT ISZERO PUSH3 0x2B JUMPI PUSH3 0x2A PUSH3 0x8A JUMP JUMPDEST JUMPDEST MUL OR SWAP1 SSTORE POP PUSH0 PUSH1 0x1 SSTORE PUSH0 PUSH1 0x2 SSTORE CALLVALUE DUP1 ISZERO PUSH3 0x44 JUMPI PUSH0 DUP1 REVERT JUMPDEST POP CALLER PUSH0 DUP1 PUSH2 0x100 EXP DUP2 SLOAD DUP2 PUSH20 0xFFFFFFFFFFFFFFFFFFFFFFFFFFFFFFFFFFFFFFFF MUL NOT AND SWAP1 DUP4 PUSH20 0xFFFFFFFFFFFFFFFFFFFFFFFFFFFFFFFFFFFFFFFF AND MUL OR SWAP1 SSTORE POP PUSH3 0xB7 JUMP JUMPDEST PUSH32 0x4E487B7100000000000000000000000000000000000000000000000000000000 PUSH0 MSTORE PUSH1 0x21 PUSH1 0x4 MSTORE PUSH1 0x24 PUSH0 REVERT JUMPDEST PUSH2 0x2D98 DUP1 PUSH3 0xC5 PUSH0 CODECOPY PUSH0 RETURN INVALID PUSH1 0x80 PUSH1 0x40 MSTORE CALLVALUE DUP1 ISZERO PUSH2 0xF JUMPI PUSH0 DUP1 REVERT JUMPDEST POP PUSH1 0x4 CALLDATASIZE LT PUSH2 0xA7 JUMPI PUSH0 CALLDATALOAD PUSH1 0xE0 SHR DUP1 PUSH4 0x77DF41B7 GT PUSH2 0x6F JUMPI DUP1 PUSH4 0x77DF41B7 EQ PUSH2 0x13B JUMPI DUP1 PUSH4 0xA48292CE EQ PUSH2 0x157 JUMPI DUP1 PUSH4 0xB7E03264 EQ PUSH2 0x189 JUMPI DUP1 PUSH4 0xD45529F4 EQ PUSH2 0x1A9 JUMPI DUP1 PUSH4 0xE6A5E61D EQ PUSH2 0x1C7 JUMPI DUP1 PUSH4 0xF83BFA28 EQ PUSH2 0x1E3 JUMPI PUSH2 0xA7 JUMP JUMPDEST DUP1 PUSH4 0x3CDD97BF EQ PUSH2 0xAB JUMPI DUP1 PUSH4 0x3D0AF840 EQ PUSH2 0xC7 JUMPI DUP1 PUSH4 0x4AD7B863 EQ PUSH2 0xE3 JUMPI DUP1 PUSH4 0x59F78468 EQ PUSH2 0x115 JUMPI DUP1 PUSH4 0x723309A0 EQ PUSH2 0x11F JUMPI JUMPDEST PUSH0 DUP1 REVERT JUMPDEST PUSH2 0xC5 PUSH1 0x4 DUP1 CALLDATASIZE SUB DUP2 ADD SWAP1 PUSH2 0xC0 SWAP2 SWAP1 PUSH2 0x1BBA JUMP JUMPDEST PUSH2 0x215 JUMP JUMPDEST STOP JUMPDEST PUSH2 0xE1 PUSH1 0x4 DUP1 CALLDATASIZE SUB DUP2 ADD SWAP1 PUSH2 0xDC SWAP2 SWAP1 PUSH2 0x1C26 JUMP JUMPDEST PUSH2 0x589 JUMP JUMPDEST STOP JUMPDEST PUSH2 0xFD PUSH1 0x4 DUP1 CALLDATASIZE SUB DUP2 ADD SWAP1 PUSH2 0xF8 SWAP2 SWAP1 PUSH2 0x1C97 JUMP JUMPDEST PUSH2 0x7DA JUMP JUMPDEST PUSH1 0x40 MLOAD PUSH2 0x10C SWAP4 SWAP3 SWAP2 SWAP1 PUSH2 0x1D4B JUMP JUMPDEST PUSH1 0x40 MLOAD DUP1 SWAP2 SUB SWAP1 RETURN JUMPDEST PUSH2 0x11D PUSH2 0x910 JUMP JUMPDEST STOP JUMPDEST PUSH2 0x139 PUSH1 0x4 DUP1 CALLDATASIZE SUB DUP2 ADD SWAP1 PUSH2 0x134 SWAP2 SWAP1 PUSH2 0x1D87 JUMP JUMPDEST PUSH2 0xA7A JUMP JUMPDEST STOP JUMPDEST PUSH2 0x155 PUSH1 0x4 DUP1 CALLDATASIZE SUB DUP2 ADD SWAP1 PUSH2 0x150 SWAP2 SWAP1 PUSH2 0x1E0F JUMP JUMPDEST PUSH2 0xC7C JUMP JUMPDEST STOP JUMPDEST PUSH2 0x171 PUSH1 0x4 DUP1 CALLDATASIZE SUB DUP2 ADD SWAP1 PUSH2 0x16C SWAP2 SWAP1 PUSH2 0x1C97 JUMP JUMPDEST PUSH2 0x1176 JUMP JUMPDEST PUSH1 0x40 MLOAD PUSH2 0x180 SWAP4 SWAP3 SWAP2 SWAP1 PUSH2 0x1E4D JUMP JUMPDEST PUSH1 0x40 MLOAD DUP1 SWAP2 SUB SWAP1 RETURN JUMPDEST PUSH2 0x191 PUSH2 0x1337 JUMP JUMPDEST PUSH1 0x40 MLOAD PUSH2 0x1A0 SWAP4 SWAP3 SWAP2 SWAP1 PUSH2 0x1D4B JUMP JUMPDEST PUSH1 0x40 MLOAD DUP1 SWAP2 SUB SWAP1 RETURN JUMPDEST PUSH2 0x1B1 PUSH2 0x14ED JUMP JUMPDEST PUSH1 0x40 MLOAD PUSH2 0x1BE SWAP2 SWAP1 PUSH2 0x1E9F JUMP JUMPDEST PUSH1 0x40 MLOAD DUP1 SWAP2 SUB SWAP1 RETURN JUMPDEST PUSH2 0x1E1 PUSH1 0x4 DUP1 CALLDATASIZE SUB DUP2 ADD SWAP1 PUSH2 0x1DC SWAP2 SWAP1 PUSH2 0x1EB8 JUMP JUMPDEST PUSH2 0x1510 JUMP JUMPDEST STOP JUMPDEST PUSH2 0x1FD PUSH1 0x4 DUP1 CALLDATASIZE SUB DUP2 ADD SWAP1 PUSH2 0x1F8 SWAP2 SWAP1 PUSH2 0x1EB8 JUMP JUMPDEST PUSH2 0x17B1 JUMP JUMPDEST PUSH1 0x40 MLOAD PUSH2 0x20C SWAP4 SWAP3 SWAP2 SWAP1 PUSH2 0x1EFD JUMP JUMPDEST PUSH1 0x40 MLOAD DUP1 SWAP2 SUB SWAP1 RETURN JUMPDEST PUSH0 DUP1 SLOAD SWAP1 PUSH2 0x100 EXP SWAP1 DIV PUSH20 0xFFFFFFFFFFFFFFFFFFFFFFFFFFFFFFFFFFFFFFFF AND PUSH20 0xFFFFFFFFFFFFFFFFFFFFFFFFFFFFFFFFFFFFFFFF AND CALLER PUSH20 0xFFFFFFFFFFFFFFFFFFFFFFFFFFFFFFFFFFFFFFFF AND EQ PUSH2 0x26B JUMPI PUSH0 DUP1 REVERT JUMPDEST PUSH0 DUP1 SLOAD SWAP1 PUSH2 0x100 EXP SWAP1 DIV PUSH20 0xFFFFFFFFFFFFFFFFFFFFFFFFFFFFFFFFFFFFFFFF AND PUSH20 0xFFFFFFFFFFFFFFFFFFFFFFFFFFFFFFFFFFFFFFFF AND DUP2 PUSH20 0xFFFFFFFFFFFFFFFFFFFFFFFFFFFFFFFFFFFFFFFF AND EQ PUSH2 0x2F8 JUMPI PUSH1 0x40 MLOAD PUSH32 0x8C379A000000000000000000000000000000000000000000000000000000000 DUP2 MSTORE PUSH1 0x4 ADD PUSH2 0x2EF SWAP1 PUSH2 0x1FA9 JUMP JUMPDEST PUSH1 0x40 MLOAD DUP1 SWAP2 SUB SWAP1 REVERT JUMPDEST PUSH0 PUSH1 0x2 DUP2 GT ISZERO PUSH2 0x30B JUMPI PUSH2 0x30A PUSH2 0x1FC7 JUMP JUMPDEST JUMPDEST PUSH0 PUSH1 0x14 SWAP1 SLOAD SWAP1 PUSH2 0x100 EXP SWAP1 DIV PUSH1 0xFF AND PUSH1 0x2 DUP2 GT ISZERO PUSH2 0x32C JUMPI PUSH2 0x32B PUSH2 0x1FC7 JUMP JUMPDEST JUMPDEST EQ PUSH2 0x36C JUMPI PUSH1 0x40 MLOAD PUSH32 0x8C379A000000000000000000000000000000000000000000000000000000000 DUP2 MSTORE PUSH1 0x4 ADD PUSH2 0x363 SWAP1 PUSH2 0x2064 JUMP JUMPDEST PUSH1 0x40 MLOAD DUP1 SWAP2 SUB SWAP1 REVERT JUMPDEST PUSH0 ISZERO ISZERO PUSH1 0x4 PUSH0 DUP6 PUSH20 0xFFFFFFFFFFFFFFFFFFFFFFFFFFFFFFFFFFFFFFFF AND PUSH20 0xFFFFFFFFFFFFFFFFFFFFFFFFFFFFFFFFFFFFFFFF AND DUP2 MSTORE PUSH1 0x20 ADD SWAP1 DUP2 MSTORE PUSH1 0x20 ADD PUSH0 KECCAK256 PUSH1 0x5 ADD PUSH0 SWAP1 SLOAD SWAP1 PUSH2 0x100 EXP SWAP1 DIV PUSH1 0xFF AND ISZERO ISZERO EQ PUSH2 0x3FE JUMPI PUSH1 0x40 MLOAD PUSH32 0x8C379A000000000000000000000000000000000000000000000000000000000 DUP2 MSTORE PUSH1 0x4 ADD PUSH2 0x3F5 SWAP1 PUSH2 0x20CC JUMP JUMPDEST PUSH1 0x40 MLOAD DUP1 SWAP2 SUB SWAP1 REVERT JUMPDEST PUSH1 0x2 PUSH0 DUP2 SLOAD DUP1 SWAP3 SWAP2 SWAP1 PUSH2 0x410 SWAP1 PUSH2 0x2117 JUMP JUMPDEST SWAP2 SWAP1 POP SSTORE POP PUSH0 PUSH1 0x2 SLOAD SWAP1 POP DUP1 PUSH1 0x4 PUSH0 DUP7 PUSH20 0xFFFFFFFFFFFFFFFFFFFFFFFFFFFFFFFFFFFFFFFF AND PUSH20 0xFFFFFFFFFFFFFFFFFFFFFFFFFFFFFFFFFFFFFFFF AND DUP2 MSTORE PUSH1 0x20 ADD SWAP1 DUP2 MSTORE PUSH1 0x20 ADD PUSH0 KECCAK256 PUSH0 ADD DUP2 SWAP1 SSTORE POP DUP4 PUSH1 0x4 PUSH0 DUP7 PUSH20 0xFFFFFFFFFFFFFFFFFFFFFFFFFFFFFFFFFFFFFFFF AND PUSH20 0xFFFFFFFFFFFFFFFFFFFFFFFFFFFFFFFFFFFFFFFF AND DUP2 MSTORE PUSH1 0x20 ADD SWAP1 DUP2 MSTORE PUSH1 0x20 ADD PUSH0 KECCAK256 PUSH1 0x2 ADD PUSH0 PUSH2 0x100 EXP DUP2 SLOAD DUP2 PUSH20 0xFFFFFFFFFFFFFFFFFFFFFFFFFFFFFFFFFFFFFFFF MUL NOT AND SWAP1 DUP4 PUSH20 0xFFFFFFFFFFFFFFFFFFFFFFFFFFFFFFFFFFFFFFFF AND MUL OR SWAP1 SSTORE POP DUP3 PUSH1 0x4 PUSH0 DUP7 PUSH20 0xFFFFFFFFFFFFFFFFFFFFFFFFFFFFFFFFFFFFFFFF AND PUSH20 0xFFFFFFFFFFFFFFFFFFFFFFFFFFFFFFFFFFFFFFFF AND DUP2 MSTORE PUSH1 0x20 ADD SWAP1 DUP2 MSTORE PUSH1 0x20 ADD PUSH0 KECCAK256 PUSH1 0x1 ADD SWAP1 DUP2 PUSH2 0x52A SWAP2 SWAP1 PUSH2 0x2358 JUMP JUMPDEST POP PUSH1 0x1 PUSH1 0x4 PUSH0 DUP7 PUSH20 0xFFFFFFFFFFFFFFFFFFFFFFFFFFFFFFFFFFFFFFFF AND PUSH20 0xFFFFFFFFFFFFFFFFFFFFFFFFFFFFFFFFFFFFFFFF AND DUP2 MSTORE PUSH1 0x20 ADD SWAP1 DUP2 MSTORE PUSH1 0x20 ADD PUSH0 KECCAK256 PUSH1 0x5 ADD PUSH0 PUSH2 0x100 EXP DUP2 SLOAD DUP2 PUSH1 0xFF MUL NOT AND SWAP1 DUP4 ISZERO ISZERO MUL OR SWAP1 SSTORE POP POP POP POP POP JUMP JUMPDEST PUSH1 0x1 PUSH1 0x2 DUP2 GT ISZERO PUSH2 0x59D JUMPI PUSH2 0x59C PUSH2 0x1FC7 JUMP JUMPDEST JUMPDEST PUSH0 PUSH1 0x14 SWAP1 SLOAD SWAP1 PUSH2 0x100 EXP SWAP1 DIV PUSH1 0xFF AND PUSH1 0x2 DUP2 GT ISZERO PUSH2 0x5BE JUMPI PUSH2 0x5BD PUSH2 0x1FC7 JUMP JUMPDEST JUMPDEST EQ PUSH2 0x5FE JUMPI PUSH1 0x40 MLOAD PUSH32 0x8C379A000000000000000000000000000000000000000000000000000000000 DUP2 MSTORE PUSH1 0x4 ADD PUSH2 0x5F5 SWAP1 PUSH2 0x2497 JUMP JUMPDEST PUSH1 0x40 MLOAD DUP1 SWAP2 SUB SWAP1 REVERT JUMPDEST DUP1 PUSH20 0xFFFFFFFFFFFFFFFFFFFFFFFFFFFFFFFFFFFFFFFF AND CALLER PUSH20 0xFFFFFFFFFFFFFFFFFFFFFFFFFFFFFFFFFFFFFFFF AND EQ PUSH2 0x66C JUMPI PUSH1 0x40 MLOAD PUSH32 0x8C379A000000000000000000000000000000000000000000000000000000000 DUP2 MSTORE PUSH1 0x4 ADD PUSH2 0x663 SWAP1 PUSH2 0x254B JUMP JUMPDEST PUSH1 0x40 MLOAD DUP1 SWAP2 SUB SWAP1 REVERT JUMPDEST PUSH0 ISZERO ISZERO PUSH1 0x4 PUSH0 DUP4 PUSH20 0xFFFFFFFFFFFFFFFFFFFFFFFFFFFFFFFFFFFFFFFF AND PUSH20 0xFFFFFFFFFFFFFFFFFFFFFFFFFFFFFFFFFFFFFFFF AND DUP2 MSTORE PUSH1 0x20 ADD SWAP1 DUP2 MSTORE PUSH1 0x20 ADD PUSH0 KECCAK256 PUSH1 0x3 ADD PUSH1 0x14 SWAP1 SLOAD SWAP1 PUSH2 0x100 EXP SWAP1 DIV PUSH1 0xFF AND ISZERO ISZERO EQ PUSH2 0x6FF JUMPI PUSH1 0x40 MLOAD PUSH32 0x8C379A000000000000000000000000000000000000000000000000000000000 DUP2 MSTORE PUSH1 0x4 ADD PUSH2 0x6F6 SWAP1 PUSH2 0x25D9 JUMP JUMPDEST PUSH1 0x40 MLOAD DUP1 SWAP2 SUB SWAP1 REVERT JUMPDEST DUP2 PUSH1 0x4 PUSH0 DUP4 PUSH20 0xFFFFFFFFFFFFFFFFFFFFFFFFFFFFFFFFFFFFFFFF AND PUSH20 0xFFFFFFFFFFFFFFFFFFFFFFFFFFFFFFFFFFFFFFFF AND DUP2 MSTORE PUSH1 0x20 ADD SWAP1 DUP2 MSTORE PUSH1 0x20 ADD PUSH0 KECCAK256 PUSH1 0x3 ADD PUSH0 PUSH2 0x100 EXP DUP2 SLOAD DUP2 PUSH20 0xFFFFFFFFFFFFFFFFFFFFFFFFFFFFFFFFFFFFFFFF MUL NOT AND SWAP1 DUP4 PUSH20 0xFFFFFFFFFFFFFFFFFFFFFFFFFFFFFFFFFFFFFFFF AND MUL OR SWAP1 SSTORE POP PUSH1 0x1 PUSH1 0x4 PUSH0 DUP4 PUSH20 0xFFFFFFFFFFFFFFFFFFFFFFFFFFFFFFFFFFFFFFFF AND PUSH20 0xFFFFFFFFFFFFFFFFFFFFFFFFFFFFFFFFFFFFFFFF AND DUP2 MSTORE PUSH1 0x20 ADD SWAP1 DUP2 MSTORE PUSH1 0x20 ADD PUSH0 KECCAK256 PUSH1 0x2 ADD PUSH1 0x14 PUSH2 0x100 EXP DUP2 SLOAD DUP2 PUSH1 0xFF MUL NOT AND SWAP1 DUP4 ISZERO ISZERO MUL OR SWAP1 SSTORE POP POP POP JUMP JUMPDEST PUSH0 PUSH1 0x60 PUSH0 DUP1 PUSH1 0x2 DUP2 GT ISZERO PUSH2 0x7F1 JUMPI PUSH2 0x7F0 PUSH2 0x1FC7 JUMP JUMPDEST JUMPDEST PUSH0 PUSH1 0x14 SWAP1 SLOAD SWAP1 PUSH2 0x100 EXP SWAP1 DIV PUSH1 0xFF AND PUSH1 0x2 DUP2 GT ISZERO PUSH2 0x812 JUMPI PUSH2 0x811 PUSH2 0x1FC7 JUMP JUMPDEST JUMPDEST SUB PUSH2 0x852 JUMPI PUSH1 0x40 MLOAD PUSH32 0x8C379A000000000000000000000000000000000000000000000000000000000 DUP2 MSTORE PUSH1 0x4 ADD PUSH2 0x849 SWAP1 PUSH2 0x2641 JUMP JUMPDEST PUSH1 0x40 MLOAD DUP1 SWAP2 SUB SWAP1 REVERT JUMPDEST DUP4 PUSH1 0x3 PUSH0 DUP7 DUP2 MSTORE PUSH1 0x20 ADD SWAP1 DUP2 MSTORE PUSH1 0x20 ADD PUSH0 KECCAK256 PUSH1 0x1 ADD PUSH1 0x5 PUSH0 DUP8 DUP2 MSTORE PUSH1 0x20 ADD SWAP1 DUP2 MSTORE PUSH1 0x20 ADD PUSH0 KECCAK256 SLOAD DUP2 DUP1 SLOAD PUSH2 0x885 SWAP1 PUSH2 0x218B JUMP JUMPDEST DUP1 PUSH1 0x1F ADD PUSH1 0x20 DUP1 SWAP2 DIV MUL PUSH1 0x20 ADD PUSH1 0x40 MLOAD SWAP1 DUP2 ADD PUSH1 0x40 MSTORE DUP1 SWAP3 SWAP2 SWAP1 DUP2 DUP2 MSTORE PUSH1 0x20 ADD DUP3 DUP1 SLOAD PUSH2 0x8B1 SWAP1 PUSH2 0x218B JUMP JUMPDEST DUP1 ISZERO PUSH2 0x8FC JUMPI DUP1 PUSH1 0x1F LT PUSH2 0x8D3 JUMPI PUSH2 0x100 DUP1 DUP4 SLOAD DIV MUL DUP4 MSTORE SWAP2 PUSH1 0x20 ADD SWAP2 PUSH2 0x8FC JUMP JUMPDEST DUP3 ADD SWAP2 SWAP1 PUSH0 MSTORE PUSH1 0x20 PUSH0 KECCAK256 SWAP1 JUMPDEST DUP2 SLOAD DUP2 MSTORE SWAP1 PUSH1 0x1 ADD SWAP1 PUSH1 0x20 ADD DUP1 DUP4 GT PUSH2 0x8DF JUMPI DUP3 SWAP1 SUB PUSH1 0x1F AND DUP3 ADD SWAP2 JUMPDEST POP POP POP POP POP SWAP2 POP SWAP3 POP SWAP3 POP SWAP3 POP SWAP2 SWAP4 SWAP1 SWAP3 POP JUMP JUMPDEST PUSH0 DUP1 SLOAD SWAP1 PUSH2 0x100 EXP SWAP1 DIV PUSH20 0xFFFFFFFFFFFFFFFFFFFFFFFFFFFFFFFFFFFFFFFF AND PUSH20 0xFFFFFFFFFFFFFFFFFFFFFFFFFFFFFFFFFFFFFFFF AND CALLER PUSH20 0xFFFFFFFFFFFFFFFFFFFFFFFFFFFFFFFFFFFFFFFF AND EQ PUSH2 0x966 JUMPI PUSH0 DUP1 REVERT JUMPDEST PUSH0 PUSH1 0x2 DUP2 GT ISZERO PUSH2 0x979 JUMPI PUSH2 0x978 PUSH2 0x1FC7 JUMP JUMPDEST JUMPDEST PUSH0 PUSH1 0x14 SWAP1 SLOAD SWAP1 PUSH2 0x100 EXP SWAP1 DIV PUSH1 0xFF AND PUSH1 0x2 DUP2 GT ISZERO PUSH2 0x99A JUMPI PUSH2 0x999 PUSH2 0x1FC7 JUMP JUMPDEST JUMPDEST SUB PUSH2 0x9DA JUMPI PUSH1 0x40 MLOAD PUSH32 0x8C379A000000000000000000000000000000000000000000000000000000000 DUP2 MSTORE PUSH1 0x4 ADD PUSH2 0x9D1 SWAP1 PUSH2 0x26A9 JUMP JUMPDEST PUSH1 0x40 MLOAD DUP1 SWAP2 SUB SWAP1 REVERT JUMPDEST PUSH1 0x2 DUP1 DUP2 GT ISZERO PUSH2 0x9ED JUMPI PUSH2 0x9EC PUSH2 0x1FC7 JUMP JUMPDEST JUMPDEST PUSH0 PUSH1 0x14 SWAP1 SLOAD SWAP1 PUSH2 0x100 EXP SWAP1 DIV PUSH1 0xFF AND PUSH1 0x2 DUP2 GT ISZERO PUSH2 0xA0E JUMPI PUSH2 0xA0D PUSH2 0x1FC7 JUMP JUMPDEST JUMPDEST SUB PUSH2 0xA4E JUMPI PUSH1 0x40 MLOAD PUSH32 0x8C379A000000000000000000000000000000000000000000000000000000000 DUP2 MSTORE PUSH1 0x4 ADD PUSH2 0xA45 SWAP1 PUSH2 0x2711 JUMP JUMPDEST PUSH1 0x40 MLOAD DUP1 SWAP2 SUB SWAP1 REVERT JUMPDEST PUSH1 0x2 PUSH0 PUSH1 0x14 PUSH2 0x100 EXP DUP2 SLOAD DUP2 PUSH1 0xFF MUL NOT AND SWAP1 DUP4 PUSH1 0x2 DUP2 GT ISZERO PUSH2 0xA73 JUMPI PUSH2 0xA72 PUSH2 0x1FC7 JUMP JUMPDEST JUMPDEST MUL OR SWAP1 SSTORE POP JUMP JUMPDEST PUSH0 DUP1 SLOAD SWAP1 PUSH2 0x100 EXP SWAP1 DIV PUSH20 0xFFFFFFFFFFFFFFFFFFFFFFFFFFFFFFFFFFFFFFFF AND PUSH20 0xFFFFFFFFFFFFFFFFFFFFFFFFFFFFFFFFFFFFFFFF AND CALLER PUSH20 0xFFFFFFFFFFFFFFFFFFFFFFFFFFFFFFFFFFFFFFFF AND EQ PUSH2 0xAD0 JUMPI PUSH0 DUP1 REVERT JUMPDEST PUSH0 DUP1 SLOAD SWAP1 PUSH2 0x100 EXP SWAP1 DIV PUSH20 0xFFFFFFFFFFFFFFFFFFFFFFFFFFFFFFFFFFFFFFFF AND PUSH20 0xFFFFFFFFFFFFFFFFFFFFFFFFFFFFFFFFFFFFFFFF AND DUP2 PUSH20 0xFFFFFFFFFFFFFFFFFFFFFFFFFFFFFFFFFFFFFFFF AND EQ PUSH2 0xB5D JUMPI PUSH1 0x40 MLOAD PUSH32 0x8C379A000000000000000000000000000000000000000000000000000000000 DUP2 MSTORE PUSH1 0x4 ADD PUSH2 0xB54 SWAP1 PUSH2 0x1FA9 JUMP JUMPDEST PUSH1 0x40 MLOAD DUP1 SWAP2 SUB SWAP1 REVERT JUMPDEST PUSH0 PUSH1 0x2 DUP2 GT ISZERO PUSH2 0xB70 JUMPI PUSH2 0xB6F PUSH2 0x1FC7 JUMP JUMPDEST JUMPDEST PUSH0 PUSH1 0x14 SWAP1 SLOAD SWAP1 PUSH2 0x100 EXP SWAP1 DIV PUSH1 0xFF AND PUSH1 0x2 DUP2 GT ISZERO PUSH2 0xB91 JUMPI PUSH2 0xB90 PUSH2 0x1FC7 JUMP JUMPDEST JUMPDEST EQ PUSH2 0xBD1 JUMPI PUSH1 0x40 MLOAD PUSH32 0x8C379A000000000000000000000000000000000000000000000000000000000 DUP2 MSTORE PUSH1 0x4 ADD PUSH2 0xBC8 SWAP1 PUSH2 0x2064 JUMP JUMPDEST PUSH1 0x40 MLOAD DUP1 SWAP2 SUB SWAP1 REVERT JUMPDEST PUSH1 0x1 PUSH0 DUP2 SLOAD DUP1 SWAP3 SWAP2 SWAP1 PUSH2 0xBE3 SWAP1 PUSH2 0x2117 JUMP JUMPDEST SWAP2 SWAP1 POP SSTORE POP PUSH0 PUSH1 0x1 SLOAD SWAP1 POP DUP1 PUSH1 0x3 PUSH0 DUP4 DUP2 MSTORE PUSH1 0x20 ADD SWAP1 DUP2 MSTORE PUSH1 0x20 ADD PUSH0 KECCAK256 PUSH0 ADD DUP2 SWAP1 SSTORE POP DUP4 PUSH1 0x3 PUSH0 DUP4 DUP2 MSTORE PUSH1 0x20 ADD SWAP1 DUP2 MSTORE PUSH1 0x20 ADD PUSH0 KECCAK256 PUSH1 0x1 ADD SWAP1 DUP2 PUSH2 0xC27 SWAP2 SWAP1 PUSH2 0x2358 JUMP JUMPDEST POP DUP3 PUSH1 0x3 PUSH0 DUP4 DUP2 MSTORE PUSH1 0x20 ADD SWAP1 DUP2 MSTORE PUSH1 0x20 ADD PUSH0 KECCAK256 PUSH1 0x2 ADD SWAP1 DUP2 PUSH2 0xC49 SWAP2 SWAP1 PUSH2 0x2358 JUMP JUMPDEST POP PUSH1 0x1 PUSH1 0x3 PUSH0 DUP4 DUP2 MSTORE PUSH1 0x20 ADD SWAP1 DUP2 MSTORE PUSH1 0x20 ADD PUSH0 KECCAK256 PUSH1 0x3 ADD PUSH0 PUSH2 0x100 EXP DUP2 SLOAD DUP2 PUSH1 0xFF MUL NOT AND SWAP1 DUP4 ISZERO ISZERO MUL OR SWAP1 SSTORE POP POP POP POP POP JUMP JUMPDEST PUSH1 0x1 PUSH1 0x2 DUP2 GT ISZERO PUSH2 0xC90 JUMPI PUSH2 0xC8F PUSH2 0x1FC7 JUMP JUMPDEST JUMPDEST PUSH0 PUSH1 0x14 SWAP1 SLOAD SWAP1 PUSH2 0x100 EXP SWAP1 DIV PUSH1 0xFF AND PUSH1 0x2 DUP2 GT ISZERO PUSH2 0xCB1 JUMPI PUSH2 0xCB0 PUSH2 0x1FC7 JUMP JUMPDEST JUMPDEST EQ PUSH2 0xCF1 JUMPI PUSH1 0x40 MLOAD PUSH32 0x8C379A000000000000000000000000000000000000000000000000000000000 DUP2 MSTORE PUSH1 0x4 ADD PUSH2 0xCE8 SWAP1 PUSH2 0x279F JUMP JUMPDEST PUSH1 0x40 MLOAD DUP1 SWAP2 SUB SWAP1 REVERT JUMPDEST PUSH0 PUSH1 0x1 SLOAD GT PUSH2 0xD35 JUMPI PUSH1 0x40 MLOAD PUSH32 0x8C379A000000000000000000000000000000000000000000000000000000000 DUP2 MSTORE PUSH1 0x4 ADD PUSH2 0xD2C SWAP1 PUSH2 0x2807 JUMP JUMPDEST PUSH1 0x40 MLOAD DUP1 SWAP2 SUB SWAP1 REVERT JUMPDEST PUSH1 0x3 PUSH0 DUP4 DUP2 MSTORE PUSH1 0x20 ADD SWAP1 DUP2 MSTORE PUSH1 0x20 ADD PUSH0 KECCAK256 PUSH1 0x3 ADD PUSH0 SWAP1 SLOAD SWAP1 PUSH2 0x100 EXP SWAP1 DIV PUSH1 0xFF AND PUSH2 0xD95 JUMPI PUSH1 0x40 MLOAD PUSH32 0x8C379A000000000000000000000000000000000000000000000000000000000 DUP2 MSTORE PUSH1 0x4 ADD PUSH2 0xD8C SWAP1 PUSH2 0x286F JUMP JUMPDEST PUSH1 0x40 MLOAD DUP1 SWAP2 SUB SWAP1 REVERT JUMPDEST PUSH1 0x4 PUSH0 DUP3 PUSH20 0xFFFFFFFFFFFFFFFFFFFFFFFFFFFFFFFFFFFFFFFF AND PUSH20 0xFFFFFFFFFFFFFFFFFFFFFFFFFFFFFFFFFFFFFFFF AND DUP2 MSTORE PUSH1 0x20 ADD SWAP1 DUP2 MSTORE PUSH1 0x20 ADD PUSH0 KECCAK256 PUSH1 0x5 ADD PUSH0 SWAP1 SLOAD SWAP1 PUSH2 0x100 EXP SWAP1 DIV PUSH1 0xFF AND PUSH2 0xE21 JUMPI PUSH1 0x40 MLOAD PUSH32 0x8C379A000000000000000000000000000000000000000000000000000000000 DUP2 MSTORE PUSH1 0x4 ADD PUSH2 0xE18 SWAP1 PUSH2 0x28FD JUMP JUMPDEST PUSH1 0x40 MLOAD DUP1 SWAP2 SUB SWAP1 REVERT JUMPDEST PUSH0 ISZERO ISZERO PUSH1 0x4 PUSH0 DUP4 PUSH20 0xFFFFFFFFFFFFFFFFFFFFFFFFFFFFFFFFFFFFFFFF AND PUSH20 0xFFFFFFFFFFFFFFFFFFFFFFFFFFFFFFFFFFFFFFFF AND DUP2 MSTORE PUSH1 0x20 ADD SWAP1 DUP2 MSTORE PUSH1 0x20 ADD PUSH0 KECCAK256 PUSH1 0x3 ADD PUSH1 0x14 SWAP1 SLOAD SWAP1 PUSH2 0x100 EXP SWAP1 DIV PUSH1 0xFF AND ISZERO ISZERO EQ PUSH2 0xEB4 JUMPI PUSH1 0x40 MLOAD PUSH32 0x8C379A000000000000000000000000000000000000000000000000000000000 DUP2 MSTORE PUSH1 0x4 ADD PUSH2 0xEAB SWAP1 PUSH2 0x2965 JUMP JUMPDEST PUSH1 0x40 MLOAD DUP1 SWAP2 SUB SWAP1 REVERT JUMPDEST PUSH0 ISZERO ISZERO PUSH1 0x4 PUSH0 DUP4 PUSH20 0xFFFFFFFFFFFFFFFFFFFFFFFFFFFFFFFFFFFFFFFF AND PUSH20 0xFFFFFFFFFFFFFFFFFFFFFFFFFFFFFFFFFFFFFFFF AND DUP2 MSTORE PUSH1 0x20 ADD SWAP1 DUP2 MSTORE PUSH1 0x20 ADD PUSH0 KECCAK256 PUSH1 0x2 ADD PUSH1 0x14 SWAP1 SLOAD SWAP1 PUSH2 0x100 EXP SWAP1 DIV PUSH1 0xFF AND ISZERO ISZERO SUB PUSH2 0xF7F JUMPI DUP1 PUSH20 0xFFFFFFFFFFFFFFFFFFFFFFFFFFFFFFFFFFFFFFFF AND CALLER PUSH20 0xFFFFFFFFFFFFFFFFFFFFFFFFFFFFFFFFFFFFFFFF AND EQ PUSH2 0xF7A JUMPI PUSH1 0x40 MLOAD PUSH32 0x8C379A000000000000000000000000000000000000000000000000000000000 DUP2 MSTORE PUSH1 0x4 ADD PUSH2 0xF71 SWAP1 PUSH2 0x29F3 JUMP JUMPDEST PUSH1 0x40 MLOAD DUP1 SWAP2 SUB SWAP1 REVERT JUMPDEST PUSH2 0x10A1 JUMP JUMPDEST PUSH1 0x4 PUSH0 DUP3 PUSH20 0xFFFFFFFFFFFFFFFFFFFFFFFFFFFFFFFFFFFFFFFF AND PUSH20 0xFFFFFFFFFFFFFFFFFFFFFFFFFFFFFFFFFFFFFFFF AND DUP2 MSTORE PUSH1 0x20 ADD SWAP1 DUP2 MSTORE PUSH1 0x20 ADD PUSH0 KECCAK256 PUSH1 0x2 ADD PUSH1 0x14 SWAP1 SLOAD SWAP1 PUSH2 0x100 EXP SWAP1 DIV PUSH1 0xFF AND ISZERO PUSH2 0x10A0 JUMPI PUSH1 0x4 PUSH0 DUP3 PUSH20 0xFFFFFFFFFFFFFFFFFFFFFFFFFFFFFFFFFFFFFFFF AND PUSH20 0xFFFFFFFFFFFFFFFFFFFFFFFFFFFFFFFFFFFFFFFF AND DUP2 MSTORE PUSH1 0x20 ADD SWAP1 DUP2 MSTORE PUSH1 0x20 ADD PUSH0 KECCAK256 PUSH1 0x3 ADD PUSH0 SWAP1 SLOAD SWAP1 PUSH2 0x100 EXP SWAP1 DIV PUSH20 0xFFFFFFFFFFFFFFFFFFFFFFFFFFFFFFFFFFFFFFFF AND PUSH20 0xFFFFFFFFFFFFFFFFFFFFFFFFFFFFFFFFFFFFFFFF AND CALLER PUSH20 0xFFFFFFFFFFFFFFFFFFFFFFFFFFFFFFFFFFFFFFFF AND EQ PUSH2 0x109F JUMPI PUSH1 0x40 MLOAD PUSH32 0x8C379A000000000000000000000000000000000000000000000000000000000 DUP2 MSTORE PUSH1 0x4 ADD PUSH2 0x1096 SWAP1 PUSH2 0x2AA7 JUMP JUMPDEST PUSH1 0x40 MLOAD DUP1 SWAP2 SUB SWAP1 REVERT JUMPDEST JUMPDEST JUMPDEST PUSH1 0x1 PUSH1 0x5 PUSH0 DUP5 DUP2 MSTORE PUSH1 0x20 ADD SWAP1 DUP2 MSTORE PUSH1 0x20 ADD PUSH0 KECCAK256 SLOAD PUSH2 0x10BF SWAP2 SWAP1 PUSH2 0x2AC5 JUMP JUMPDEST PUSH1 0x5 PUSH0 DUP5 DUP2 MSTORE PUSH1 0x20 ADD SWAP1 DUP2 MSTORE PUSH1 0x20 ADD PUSH0 KECCAK256 DUP2 SWAP1 SSTORE POP DUP2 PUSH1 0x4 PUSH0 DUP4 PUSH20 0xFFFFFFFFFFFFFFFFFFFFFFFFFFFFFFFFFFFFFFFF AND PUSH20 0xFFFFFFFFFFFFFFFFFFFFFFFFFFFFFFFFFFFFFFFF AND DUP2 MSTORE PUSH1 0x20 ADD SWAP1 DUP2 MSTORE PUSH1 0x20 ADD PUSH0 KECCAK256 PUSH1 0x4 ADD DUP2 SWAP1 SSTORE POP PUSH1 0x1 PUSH1 0x4 PUSH0 DUP4 PUSH20 0xFFFFFFFFFFFFFFFFFFFFFFFFFFFFFFFFFFFFFFFF AND PUSH20 0xFFFFFFFFFFFFFFFFFFFFFFFFFFFFFFFFFFFFFFFF AND DUP2 MSTORE PUSH1 0x20 ADD SWAP1 DUP2 MSTORE PUSH1 0x20 ADD PUSH0 KECCAK256 PUSH1 0x3 ADD PUSH1 0x14 PUSH2 0x100 EXP DUP2 SLOAD DUP2 PUSH1 0xFF MUL NOT AND SWAP1 DUP4 ISZERO ISZERO MUL OR SWAP1 SSTORE POP POP POP JUMP JUMPDEST PUSH0 PUSH1 0x60 DUP1 PUSH1 0x3 PUSH0 DUP6 DUP2 MSTORE PUSH1 0x20 ADD SWAP1 DUP2 MSTORE PUSH1 0x20 ADD PUSH0 KECCAK256 PUSH1 0x3 ADD PUSH0 SWAP1 SLOAD SWAP1 PUSH2 0x100 EXP SWAP1 DIV PUSH1 0xFF AND PUSH2 0x11DA JUMPI PUSH1 0x40 MLOAD PUSH32 0x8C379A000000000000000000000000000000000000000000000000000000000 DUP2 MSTORE PUSH1 0x4 ADD PUSH2 0x11D1 SWAP1 PUSH2 0x2B42 JUMP JUMPDEST PUSH1 0x40 MLOAD DUP1 SWAP2 SUB SWAP1 REVERT JUMPDEST PUSH1 0x3 PUSH0 DUP6 DUP2 MSTORE PUSH1 0x20 ADD SWAP1 DUP2 MSTORE PUSH1 0x20 ADD PUSH0 KECCAK256 PUSH0 ADD SLOAD PUSH1 0x3 PUSH0 DUP7 DUP2 MSTORE PUSH1 0x20 ADD SWAP1 DUP2 MSTORE PUSH1 0x20 ADD PUSH0 KECCAK256 PUSH1 0x2 ADD PUSH1 0x3 PUSH0 DUP8 DUP2 MSTORE PUSH1 0x20 ADD SWAP1 DUP2 MSTORE PUSH1 0x20 ADD PUSH0 KECCAK256 PUSH1 0x1 ADD DUP2 DUP1 SLOAD PUSH2 0x1222 SWAP1 PUSH2 0x218B JUMP JUMPDEST DUP1 PUSH1 0x1F ADD PUSH1 0x20 DUP1 SWAP2 DIV MUL PUSH1 0x20 ADD PUSH1 0x40 MLOAD SWAP1 DUP2 ADD PUSH1 0x40 MSTORE DUP1 SWAP3 SWAP2 SWAP1 DUP2 DUP2 MSTORE PUSH1 0x20 ADD DUP3 DUP1 SLOAD PUSH2 0x124E SWAP1 PUSH2 0x218B JUMP JUMPDEST DUP1 ISZERO PUSH2 0x1299 JUMPI DUP1 PUSH1 0x1F LT PUSH2 0x1270 JUMPI PUSH2 0x100 DUP1 DUP4 SLOAD DIV MUL DUP4 MSTORE SWAP2 PUSH1 0x20 ADD SWAP2 PUSH2 0x1299 JUMP JUMPDEST DUP3 ADD SWAP2 SWAP1 PUSH0 MSTORE PUSH1 0x20 PUSH0 KECCAK256 SWAP1 JUMPDEST DUP2 SLOAD DUP2 MSTORE SWAP1 PUSH1 0x1 ADD SWAP1 PUSH1 0x20 ADD DUP1 DUP4 GT PUSH2 0x127C JUMPI DUP3 SWAP1 SUB PUSH1 0x1F AND DUP3 ADD SWAP2 JUMPDEST POP POP POP POP POP SWAP2 POP DUP1 DUP1 SLOAD PUSH2 0x12AC SWAP1 PUSH2 0x218B JUMP JUMPDEST DUP1 PUSH1 0x1F ADD PUSH1 0x20 DUP1 SWAP2 DIV MUL PUSH1 0x20 ADD PUSH1 0x40 MLOAD SWAP1 DUP2 ADD PUSH1 0x40 MSTORE DUP1 SWAP3 SWAP2 SWAP1 DUP2 DUP2 MSTORE PUSH1 0x20 ADD DUP3 DUP1 SLOAD PUSH2 0x12D8 SWAP1 PUSH2 0x218B JUMP JUMPDEST DUP1 ISZERO PUSH2 0x1323 JUMPI DUP1 PUSH1 0x1F LT PUSH2 0x12FA JUMPI PUSH2 0x100 DUP1 DUP4 SLOAD DIV MUL DUP4 MSTORE SWAP2 PUSH1 0x20 ADD SWAP2 PUSH2 0x1323 JUMP JUMPDEST DUP3 ADD SWAP2 SWAP1 PUSH0 MSTORE PUSH1 0x20 PUSH0 KECCAK256 SWAP1 JUMPDEST DUP2 SLOAD DUP2 MSTORE SWAP1 PUSH1 0x1 ADD SWAP1 PUSH1 0x20 ADD DUP1 DUP4 GT PUSH2 0x1306 JUMPI DUP3 SWAP1 SUB PUSH1 0x1F AND DUP3 ADD SWAP2 JUMPDEST POP POP POP POP POP SWAP1 POP SWAP3 POP SWAP3 POP SWAP3 POP SWAP2 SWAP4 SWAP1 SWAP3 POP JUMP JUMPDEST PUSH0 PUSH1 0x60 PUSH0 DUP1 PUSH1 0x2 DUP2 GT ISZERO PUSH2 0x134E JUMPI PUSH2 0x134D PUSH2 0x1FC7 JUMP JUMPDEST JUMPDEST PUSH0 PUSH1 0x14 SWAP1 SLOAD SWAP1 PUSH2 0x100 EXP SWAP1 DIV PUSH1 0xFF AND PUSH1 0x2 DUP2 GT ISZERO PUSH2 0x136F JUMPI PUSH2 0x136E PUSH2 0x1FC7 JUMP JUMPDEST JUMPDEST SUB PUSH2 0x13AF JUMPI PUSH1 0x40 MLOAD PUSH32 0x8C379A000000000000000000000000000000000000000000000000000000000 DUP2 MSTORE PUSH1 0x4 ADD PUSH2 0x13A6 SWAP1 PUSH2 0x2641 JUMP JUMPDEST PUSH1 0x40 MLOAD DUP1 SWAP2 SUB SWAP1 REVERT JUMPDEST PUSH0 DUP1 PUSH0 PUSH1 0x1 SWAP1 POP JUMPDEST PUSH1 0x1 SLOAD DUP2 GT PUSH2 0x13FD JUMPI PUSH0 DUP2 SWAP1 POP PUSH0 PUSH1 0x5 PUSH0 DUP4 DUP2 MSTORE PUSH1 0x20 ADD SWAP1 DUP2 MSTORE PUSH1 0x20 ADD PUSH0 KECCAK256 SLOAD SWAP1 POP DUP4 DUP2 GT ISZERO PUSH2 0x13E8 JUMPI DUP2 SWAP5 POP DUP1 SWAP4 POP JUMPDEST POP POP DUP1 DUP1 PUSH2 0x13F5 SWAP1 PUSH2 0x2117 JUMP JUMPDEST SWAP2 POP POP PUSH2 0x13B7 JUMP JUMPDEST POP PUSH0 DUP2 GT PUSH2 0x1440 JUMPI PUSH1 0x40 MLOAD PUSH32 0x8C379A000000000000000000000000000000000000000000000000000000000 DUP2 MSTORE PUSH1 0x4 ADD PUSH2 0x1437 SWAP1 PUSH2 0x2BAA JUMP JUMPDEST PUSH1 0x40 MLOAD DUP1 SWAP2 SUB SWAP1 REVERT JUMPDEST DUP2 PUSH1 0x3 PUSH0 DUP5 DUP2 MSTORE PUSH1 0x20 ADD SWAP1 DUP2 MSTORE PUSH1 0x20 ADD PUSH0 KECCAK256 PUSH1 0x1 ADD DUP3 DUP2 DUP1 SLOAD PUSH2 0x1462 SWAP1 PUSH2 0x218B JUMP JUMPDEST DUP1 PUSH1 0x1F ADD PUSH1 0x20 DUP1 SWAP2 DIV MUL PUSH1 0x20 ADD PUSH1 0x40 MLOAD SWAP1 DUP2 ADD PUSH1 0x40 MSTORE DUP1 SWAP3 SWAP2 SWAP1 DUP2 DUP2 MSTORE PUSH1 0x20 ADD DUP3 DUP1 SLOAD PUSH2 0x148E SWAP1 PUSH2 0x218B JUMP JUMPDEST DUP1 ISZERO PUSH2 0x14D9 JUMPI DUP1 PUSH1 0x1F LT PUSH2 0x14B0 JUMPI PUSH2 0x100 DUP1 DUP4 SLOAD DIV MUL DUP4 MSTORE SWAP2 PUSH1 0x20 ADD SWAP2 PUSH2 0x14D9 JUMP JUMPDEST DUP3 ADD SWAP2 SWAP1 PUSH0 MSTORE PUSH1 0x20 PUSH0 KECCAK256 SWAP1 JUMPDEST DUP2 SLOAD DUP2 MSTORE SWAP1 PUSH1 0x1 ADD SWAP1 PUSH1 0x20 ADD DUP1 DUP4 GT PUSH2 0x14BC JUMPI DUP3 SWAP1 SUB PUSH1 0x1F AND DUP3 ADD SWAP2 JUMPDEST POP POP POP POP POP SWAP2 POP SWAP5 POP SWAP5 POP SWAP5 POP POP POP SWAP1 SWAP2 SWAP3 JUMP JUMPDEST PUSH0 DUP1 SLOAD SWAP1 PUSH2 0x100 EXP SWAP1 DIV PUSH20 0xFFFFFFFFFFFFFFFFFFFFFFFFFFFFFFFFFFFFFFFF AND DUP2 JUMP JUMPDEST PUSH0 DUP1 SLOAD SWAP1 PUSH2 0x100 EXP SWAP1 DIV PUSH20 0xFFFFFFFFFFFFFFFFFFFFFFFFFFFFFFFFFFFFFFFF AND PUSH20 0xFFFFFFFFFFFFFFFFFFFFFFFFFFFFFFFFFFFFFFFF AND CALLER PUSH20 0xFFFFFFFFFFFFFFFFFFFFFFFFFFFFFFFFFFFFFFFF AND EQ PUSH2 0x1566 JUMPI PUSH0 DUP1 REVERT JUMPDEST PUSH0 DUP1 SLOAD SWAP1 PUSH2 0x100 EXP SWAP1 DIV PUSH20 0xFFFFFFFFFFFFFFFFFFFFFFFFFFFFFFFFFFFFFFFF AND PUSH20 0xFFFFFFFFFFFFFFFFFFFFFFFFFFFFFFFFFFFFFFFF AND DUP2 PUSH20 0xFFFFFFFFFFFFFFFFFFFFFFFFFFFFFFFFFFFFFFFF AND EQ PUSH2 0x15F3 JUMPI PUSH1 0x40 MLOAD PUSH32 0x8C379A000000000000000000000000000000000000000000000000000000000 DUP2 MSTORE PUSH1 0x4 ADD PUSH2 0x15EA SWAP1 PUSH2 0x1FA9 JUMP JUMPDEST PUSH1 0x40 MLOAD DUP1 SWAP2 SUB SWAP1 REVERT JUMPDEST PUSH0 PUSH1 0x1 SLOAD GT PUSH2 0x1637 JUMPI PUSH1 0x40 MLOAD PUSH32 0x8C379A000000000000000000000000000000000000000000000000000000000 DUP2 MSTORE PUSH1 0x4 ADD PUSH2 0x162E SWAP1 PUSH2 0x2807 JUMP JUMPDEST PUSH1 0x40 MLOAD DUP1 SWAP2 SUB SWAP1 REVERT JUMPDEST PUSH0 PUSH1 0x2 SLOAD GT PUSH2 0x167B JUMPI PUSH1 0x40 MLOAD PUSH32 0x8C379A000000000000000000000000000000000000000000000000000000000 DUP2 MSTORE PUSH1 0x4 ADD PUSH2 0x1672 SWAP1 PUSH2 0x2C12 JUMP JUMPDEST PUSH1 0x40 MLOAD DUP1 SWAP2 SUB SWAP1 REVERT JUMPDEST PUSH1 0x1 PUSH1 0x2 DUP2 GT ISZERO PUSH2 0x168F JUMPI PUSH2 0x168E PUSH2 0x1FC7 JUMP JUMPDEST JUMPDEST PUSH0 PUSH1 0x14 SWAP1 SLOAD SWAP1 PUSH2 0x100 EXP SWAP1 DIV PUSH1 0xFF AND PUSH1 0x2 DUP2 GT ISZERO PUSH2 0x16B0 JUMPI PUSH2 0x16AF PUSH2 0x1FC7 JUMP JUMPDEST JUMPDEST SUB PUSH2 0x1700 JUMPI PUSH0 PUSH1 0x14 SWAP1 SLOAD SWAP1 PUSH2 0x100 EXP SWAP1 DIV PUSH1 0xFF AND PUSH1 0x40 MLOAD PUSH32 0xEF90B1C100000000000000000000000000000000000000000000000000000000 DUP2 MSTORE PUSH1 0x4 ADD PUSH2 0x16F7 SWAP2 SWAP1 PUSH2 0x2CC0 JUMP JUMPDEST PUSH1 0x40 MLOAD DUP1 SWAP2 SUB SWAP1 REVERT JUMPDEST PUSH1 0x2 DUP1 DUP2 GT ISZERO PUSH2 0x1713 JUMPI PUSH2 0x1712 PUSH2 0x1FC7 JUMP JUMPDEST JUMPDEST PUSH0 PUSH1 0x14 SWAP1 SLOAD SWAP1 PUSH2 0x100 EXP SWAP1 DIV PUSH1 0xFF AND PUSH1 0x2 DUP2 GT ISZERO PUSH2 0x1734 JUMPI PUSH2 0x1733 PUSH2 0x1FC7 JUMP JUMPDEST JUMPDEST SUB PUSH2 0x1784 JUMPI PUSH0 PUSH1 0x14 SWAP1 SLOAD SWAP1 PUSH2 0x100 EXP SWAP1 DIV PUSH1 0xFF AND PUSH1 0x40 MLOAD PUSH32 0xEF90B1C100000000000000000000000000000000000000000000000000000000 DUP2 MSTORE PUSH1 0x4 ADD PUSH2 0x177B SWAP2 SWAP1 PUSH2 0x2D36 JUMP JUMPDEST PUSH1 0x40 MLOAD DUP1 SWAP2 SUB SWAP1 REVERT JUMPDEST PUSH1 0x1 PUSH0 PUSH1 0x14 PUSH2 0x100 EXP DUP2 SLOAD DUP2 PUSH1 0xFF MUL NOT AND SWAP1 DUP4 PUSH1 0x2 DUP2 GT ISZERO PUSH2 0x17A9 JUMPI PUSH2 0x17A8 PUSH2 0x1FC7 JUMP JUMPDEST JUMPDEST MUL OR SWAP1 SSTORE POP POP JUMP JUMPDEST PUSH0 PUSH1 0x60 PUSH0 PUSH1 0x4 PUSH0 DUP6 PUSH20 0xFFFFFFFFFFFFFFFFFFFFFFFFFFFFFFFFFFFFFFFF AND PUSH20 0xFFFFFFFFFFFFFFFFFFFFFFFFFFFFFFFFFFFFFFFF AND DUP2 MSTORE PUSH1 0x20 ADD SWAP1 DUP2 MSTORE PUSH1 0x20 ADD PUSH0 KECCAK256 PUSH1 0x5 ADD PUSH0 SWAP1 SLOAD SWAP1 PUSH2 0x100 EXP SWAP1 DIV PUSH1 0xFF AND PUSH2 0x1841 JUMPI PUSH1 0x40 MLOAD PUSH32 0x8C379A000000000000000000000000000000000000000000000000000000000 DUP2 MSTORE PUSH1 0x4 ADD PUSH2 0x1838 SWAP1 PUSH2 0x28FD JUMP JUMPDEST PUSH1 0x40 MLOAD DUP1 SWAP2 SUB SWAP1 REVERT JUMPDEST PUSH1 0x4 PUSH0 DUP6 PUSH20 0xFFFFFFFFFFFFFFFFFFFFFFFFFFFFFFFFFFFFFFFF AND PUSH20 0xFFFFFFFFFFFFFFFFFFFFFFFFFFFFFFFFFFFFFFFF AND DUP2 MSTORE PUSH1 0x20 ADD SWAP1 DUP2 MSTORE PUSH1 0x20 ADD PUSH0 KECCAK256 PUSH1 0x2 ADD PUSH0 SWAP1 SLOAD SWAP1 PUSH2 0x100 EXP SWAP1 DIV PUSH20 0xFFFFFFFFFFFFFFFFFFFFFFFFFFFFFFFFFFFFFFFF AND PUSH1 0x4 PUSH0 DUP7 PUSH20 0xFFFFFFFFFFFFFFFFFFFFFFFFFFFFFFFFFFFFFFFF AND PUSH20 0xFFFFFFFFFFFFFFFFFFFFFFFFFFFFFFFFFFFFFFFF AND DUP2 MSTORE PUSH1 0x20 ADD SWAP1 DUP2 MSTORE PUSH1 0x20 ADD PUSH0 KECCAK256 PUSH1 0x1 ADD DUP5 PUSH20 0xFFFFFFFFFFFFFFFFFFFFFFFFFFFFFFFFFFFFFFFF AND PUSH1 0x4 PUSH0 DUP9 PUSH20 0xFFFFFFFFFFFFFFFFFFFFFFFFFFFFFFFFFFFFFFFF AND PUSH20 0xFFFFFFFFFFFFFFFFFFFFFFFFFFFFFFFFFFFFFFFF AND DUP2 MSTORE PUSH1 0x20 ADD SWAP1 DUP2 MSTORE PUSH1 0x20 ADD PUSH0 KECCAK256 PUSH1 0x3 ADD PUSH0 SWAP1 SLOAD SWAP1 PUSH2 0x100 EXP SWAP1 DIV PUSH20 0xFFFFFFFFFFFFFFFFFFFFFFFFFFFFFFFFFFFFFFFF AND PUSH20 0xFFFFFFFFFFFFFFFFFFFFFFFFFFFFFFFFFFFFFFFF AND EQ PUSH2 0x197A JUMPI PUSH1 0x1 PUSH2 0x197C JUMP JUMPDEST PUSH0 JUMPDEST DUP2 DUP1 SLOAD PUSH2 0x1988 SWAP1 PUSH2 0x218B JUMP JUMPDEST DUP1 PUSH1 0x1F ADD PUSH1 0x20 DUP1 SWAP2 DIV MUL PUSH1 0x20 ADD PUSH1 0x40 MLOAD SWAP1 DUP2 ADD PUSH1 0x40 MSTORE DUP1 SWAP3 SWAP2 SWAP1 DUP2 DUP2 MSTORE PUSH1 0x20 ADD DUP3 DUP1 SLOAD PUSH2 0x19B4 SWAP1 PUSH2 0x218B JUMP JUMPDEST DUP1 ISZERO PUSH2 0x19FF JUMPI DUP1 PUSH1 0x1F LT PUSH2 0x19D6 JUMPI PUSH2 0x100 DUP1 DUP4 SLOAD DIV MUL DUP4 MSTORE SWAP2 PUSH1 0x20 ADD SWAP2 PUSH2 0x19FF JUMP JUMPDEST DUP3 ADD SWAP2 SWAP1 PUSH0 MSTORE PUSH1 0x20 PUSH0 KECCAK256 SWAP1 JUMPDEST DUP2 SLOAD DUP2 MSTORE SWAP1 PUSH1 0x1 ADD SWAP1 PUSH1 0x20 ADD DUP1 DUP4 GT PUSH2 0x19E2 JUMPI DUP3 SWAP1 SUB PUSH1 0x1F AND DUP3 ADD SWAP2 JUMPDEST POP POP POP POP POP SWAP2 POP SWAP3 POP SWAP3 POP SWAP3 POP SWAP2 SWAP4 SWAP1 SWAP3 POP JUMP JUMPDEST PUSH0 PUSH1 0x40 MLOAD SWAP1 POP SWAP1 JUMP JUMPDEST PUSH0 DUP1 REVERT JUMPDEST PUSH0 DUP1 REVERT JUMPDEST PUSH0 PUSH20 0xFFFFFFFFFFFFFFFFFFFFFFFFFFFFFFFFFFFFFFFF DUP3 AND SWAP1 POP SWAP2 SWAP1 POP JUMP JUMPDEST PUSH0 PUSH2 0x1A4D DUP3 PUSH2 0x1A24 JUMP JUMPDEST SWAP1 POP SWAP2 SWAP1 POP JUMP JUMPDEST PUSH2 0x1A5D DUP2 PUSH2 0x1A43 JUMP JUMPDEST DUP2 EQ PUSH2 0x1A67 JUMPI PUSH0 DUP1 REVERT JUMPDEST POP JUMP JUMPDEST PUSH0 DUP2 CALLDATALOAD SWAP1 POP PUSH2 0x1A78 DUP2 PUSH2 0x1A54 JUMP JUMPDEST SWAP3 SWAP2 POP POP JUMP JUMPDEST PUSH0 DUP1 REVERT JUMPDEST PUSH0 DUP1 REVERT JUMPDEST PUSH0 PUSH1 0x1F NOT PUSH1 0x1F DUP4 ADD AND SWAP1 POP SWAP2 SWAP1 POP JUMP JUMPDEST PUSH32 0x4E487B7100000000000000000000000000000000000000000000000000000000 PUSH0 MSTORE PUSH1 0x41 PUSH1 0x4 MSTORE PUSH1 0x24 PUSH0 REVERT JUMPDEST PUSH2 0x1ACC DUP3 PUSH2 0x1A86 JUMP JUMPDEST DUP2 ADD DUP2 DUP2 LT PUSH8 0xFFFFFFFFFFFFFFFF DUP3 GT OR ISZERO PUSH2 0x1AEB JUMPI PUSH2 0x1AEA PUSH2 0x1A96 JUMP JUMPDEST JUMPDEST DUP1 PUSH1 0x40 MSTORE POP POP POP JUMP JUMPDEST PUSH0 PUSH2 0x1AFD PUSH2 0x1A13 JUMP JUMPDEST SWAP1 POP PUSH2 0x1B09 DUP3 DUP3 PUSH2 0x1AC3 JUMP JUMPDEST SWAP2 SWAP1 POP JUMP JUMPDEST PUSH0 PUSH8 0xFFFFFFFFFFFFFFFF DUP3 GT ISZERO PUSH2 0x1B28 JUMPI PUSH2 0x1B27 PUSH2 0x1A96 JUMP JUMPDEST JUMPDEST PUSH2 0x1B31 DUP3 PUSH2 0x1A86 JUMP JUMPDEST SWAP1 POP PUSH1 0x20 DUP2 ADD SWAP1 POP SWAP2 SWAP1 POP JUMP JUMPDEST DUP3 DUP2 DUP4 CALLDATACOPY PUSH0 DUP4 DUP4 ADD MSTORE POP POP POP JUMP JUMPDEST PUSH0 PUSH2 0x1B5E PUSH2 0x1B59 DUP5 PUSH2 0x1B0E JUMP JUMPDEST PUSH2 0x1AF4 JUMP JUMPDEST SWAP1 POP DUP3 DUP2 MSTORE PUSH1 0x20 DUP2 ADD DUP5 DUP5 DUP5 ADD GT ISZERO PUSH2 0x1B7A JUMPI PUSH2 0x1B79 PUSH2 0x1A82 JUMP JUMPDEST JUMPDEST PUSH2 0x1B85 DUP5 DUP3 DUP6 PUSH2 0x1B3E JUMP JUMPDEST POP SWAP4 SWAP3 POP POP POP JUMP JUMPDEST PUSH0 DUP3 PUSH1 0x1F DUP4 ADD SLT PUSH2 0x1BA1 JUMPI PUSH2 0x1BA0 PUSH2 0x1A7E JUMP JUMPDEST JUMPDEST DUP2 CALLDATALOAD PUSH2 0x1BB1 DUP5 DUP3 PUSH1 0x20 DUP7 ADD PUSH2 0x1B4C JUMP JUMPDEST SWAP2 POP POP SWAP3 SWAP2 POP POP JUMP JUMPDEST PUSH0 DUP1 PUSH0 PUSH1 0x60 DUP5 DUP7 SUB SLT ISZERO PUSH2 0x1BD1 JUMPI PUSH2 0x1BD0 PUSH2 0x1A1C JUMP JUMPDEST JUMPDEST PUSH0 PUSH2 0x1BDE DUP7 DUP3 DUP8 ADD PUSH2 0x1A6A JUMP JUMPDEST SWAP4 POP POP PUSH1 0x20 DUP5 ADD CALLDATALOAD PUSH8 0xFFFFFFFFFFFFFFFF DUP2 GT ISZERO PUSH2 0x1BFF JUMPI PUSH2 0x1BFE PUSH2 0x1A20 JUMP JUMPDEST JUMPDEST PUSH2 0x1C0B DUP7 DUP3 DUP8 ADD PUSH2 0x1B8D JUMP JUMPDEST SWAP3 POP POP PUSH1 0x40 PUSH2 0x1C1C DUP7 DUP3 DUP8 ADD PUSH2 0x1A6A JUMP JUMPDEST SWAP2 POP POP SWAP3 POP SWAP3 POP SWAP3 JUMP JUMPDEST PUSH0 DUP1 PUSH1 0x40 DUP4 DUP6 SUB SLT ISZERO PUSH2 0x1C3C JUMPI PUSH2 0x1C3B PUSH2 0x1A1C JUMP JUMPDEST JUMPDEST PUSH0 PUSH2 0x1C49 DUP6 DUP3 DUP7 ADD PUSH2 0x1A6A JUMP JUMPDEST SWAP3 POP POP PUSH1 0x20 PUSH2 0x1C5A DUP6 DUP3 DUP7 ADD PUSH2 0x1A6A JUMP JUMPDEST SWAP2 POP POP SWAP3 POP SWAP3 SWAP1 POP JUMP JUMPDEST PUSH0 DUP2 SWAP1 POP SWAP2 SWAP1 POP JUMP JUMPDEST PUSH2 0x1C76 DUP2 PUSH2 0x1C64 JUMP JUMPDEST DUP2 EQ PUSH2 0x1C80 JUMPI PUSH0 DUP1 REVERT JUMPDEST POP JUMP JUMPDEST PUSH0 DUP2 CALLDATALOAD SWAP1 POP PUSH2 0x1C91 DUP2 PUSH2 0x1C6D JUMP JUMPDEST SWAP3 SWAP2 POP POP JUMP JUMPDEST PUSH0 PUSH1 0x20 DUP3 DUP5 SUB SLT ISZERO PUSH2 0x1CAC JUMPI PUSH2 0x1CAB PUSH2 0x1A1C JUMP JUMPDEST JUMPDEST PUSH0 PUSH2 0x1CB9 DUP5 DUP3 DUP6 ADD PUSH2 0x1C83 JUMP JUMPDEST SWAP2 POP POP SWAP3 SWAP2 POP POP JUMP JUMPDEST PUSH2 0x1CCB DUP2 PUSH2 0x1C64 JUMP JUMPDEST DUP3 MSTORE POP POP JUMP JUMPDEST PUSH0 DUP2 MLOAD SWAP1 POP SWAP2 SWAP1 POP JUMP JUMPDEST PUSH0 DUP3 DUP3 MSTORE PUSH1 0x20 DUP3 ADD SWAP1 POP SWAP3 SWAP2 POP POP JUMP JUMPDEST PUSH0 JUMPDEST DUP4 DUP2 LT ISZERO PUSH2 0x1D08 JUMPI DUP1 DUP3 ADD MLOAD DUP2 DUP5 ADD MSTORE PUSH1 0x20 DUP2 ADD SWAP1 POP PUSH2 0x1CED JUMP JUMPDEST PUSH0 DUP5 DUP5 ADD MSTORE POP POP POP POP JUMP JUMPDEST PUSH0 PUSH2 0x1D1D DUP3 PUSH2 0x1CD1 JUMP JUMPDEST PUSH2 0x1D27 DUP2 DUP6 PUSH2 0x1CDB JUMP JUMPDEST SWAP4 POP PUSH2 0x1D37 DUP2 DUP6 PUSH1 0x20 DUP7 ADD PUSH2 0x1CEB JUMP JUMPDEST PUSH2 0x1D40 DUP2 PUSH2 0x1A86 JUMP JUMPDEST DUP5 ADD SWAP2 POP POP SWAP3 SWAP2 POP POP JUMP JUMPDEST PUSH0 PUSH1 0x60 DUP3 ADD SWAP1 POP PUSH2 0x1D5E PUSH0 DUP4 ADD DUP7 PUSH2 0x1CC2 JUMP JUMPDEST DUP2 DUP2 SUB PUSH1 0x20 DUP4 ADD MSTORE PUSH2 0x1D70 DUP2 DUP6 PUSH2 0x1D13 JUMP JUMPDEST SWAP1 POP PUSH2 0x1D7F PUSH1 0x40 DUP4 ADD DUP5 PUSH2 0x1CC2 JUMP JUMPDEST SWAP5 SWAP4 POP POP POP POP JUMP JUMPDEST PUSH0 DUP1 PUSH0 PUSH1 0x60 DUP5 DUP7 SUB SLT ISZERO PUSH2 0x1D9E JUMPI PUSH2 0x1D9D PUSH2 0x1A1C JUMP JUMPDEST JUMPDEST PUSH0 DUP5 ADD CALLDATALOAD PUSH8 0xFFFFFFFFFFFFFFFF DUP2 GT ISZERO PUSH2 0x1DBB JUMPI PUSH2 0x1DBA PUSH2 0x1A20 JUMP JUMPDEST JUMPDEST PUSH2 0x1DC7 DUP7 DUP3 DUP8 ADD PUSH2 0x1B8D JUMP JUMPDEST SWAP4 POP POP PUSH1 0x20 DUP5 ADD CALLDATALOAD PUSH8 0xFFFFFFFFFFFFFFFF DUP2 GT ISZERO PUSH2 0x1DE8 JUMPI PUSH2 0x1DE7 PUSH2 0x1A20 JUMP JUMPDEST JUMPDEST PUSH2 0x1DF4 DUP7 DUP3 DUP8 ADD PUSH2 0x1B8D JUMP JUMPDEST SWAP3 POP POP PUSH1 0x40 PUSH2 0x1E05 DUP7 DUP3 DUP8 ADD PUSH2 0x1A6A JUMP JUMPDEST SWAP2 POP POP SWAP3 POP SWAP3 POP SWAP3 JUMP JUMPDEST PUSH0 DUP1 PUSH1 0x40 DUP4 DUP6 SUB SLT ISZERO PUSH2 0x1E25 JUMPI PUSH2 0x1E24 PUSH2 0x1A1C JUMP JUMPDEST JUMPDEST PUSH0 PUSH2 0x1E32 DUP6 DUP3 DUP7 ADD PUSH2 0x1C83 JUMP JUMPDEST SWAP3 POP POP PUSH1 0x20 PUSH2 0x1E43 DUP6 DUP3 DUP7 ADD PUSH2 0x1A6A JUMP JUMPDEST SWAP2 POP POP SWAP3 POP SWAP3 SWAP1 POP JUMP JUMPDEST PUSH0 PUSH1 0x60 DUP3 ADD SWAP1 POP PUSH2 0x1E60 PUSH0 DUP4 ADD DUP7 PUSH2 0x1CC2 JUMP JUMPDEST DUP2 DUP2 SUB PUSH1 0x20 DUP4 ADD MSTORE PUSH2 0x1E72 DUP2 DUP6 PUSH2 0x1D13 JUMP JUMPDEST SWAP1 POP DUP2 DUP2 SUB PUSH1 0x40 DUP4 ADD MSTORE PUSH2 0x1E86 DUP2 DUP5 PUSH2 0x1D13 JUMP JUMPDEST SWAP1 POP SWAP5 SWAP4 POP POP POP POP JUMP JUMPDEST PUSH2 0x1E99 DUP2 PUSH2 0x1A43 JUMP JUMPDEST DUP3 MSTORE POP POP JUMP JUMPDEST PUSH0 PUSH1 0x20 DUP3 ADD SWAP1 POP PUSH2 0x1EB2 PUSH0 DUP4 ADD DUP5 PUSH2 0x1E90 JUMP JUMPDEST SWAP3 SWAP2 POP POP JUMP JUMPDEST PUSH0 PUSH1 0x20 DUP3 DUP5 SUB SLT ISZERO PUSH2 0x1ECD JUMPI PUSH2 0x1ECC PUSH2 0x1A1C JUMP JUMPDEST JUMPDEST PUSH0 PUSH2 0x1EDA DUP5 DUP3 DUP6 ADD PUSH2 0x1A6A JUMP JUMPDEST SWAP2 POP POP SWAP3 SWAP2 POP POP JUMP JUMPDEST PUSH0 DUP2 ISZERO ISZERO SWAP1 POP SWAP2 SWAP1 POP JUMP JUMPDEST PUSH2 0x1EF7 DUP2 PUSH2 0x1EE3 JUMP JUMPDEST DUP3 MSTORE POP POP JUMP JUMPDEST PUSH0 PUSH1 0x60 DUP3 ADD SWAP1 POP PUSH2 0x1F10 PUSH0 DUP4 ADD DUP7 PUSH2 0x1E90 JUMP JUMPDEST DUP2 DUP2 SUB PUSH1 0x20 DUP4 ADD MSTORE PUSH2 0x1F22 DUP2 DUP6 PUSH2 0x1D13 JUMP JUMPDEST SWAP1 POP PUSH2 0x1F31 PUSH1 0x40 DUP4 ADD DUP5 PUSH2 0x1EEE JUMP JUMPDEST SWAP5 SWAP4 POP POP POP POP JUMP JUMPDEST PUSH32 0x4F6E6C792061646D696E206861732061636365737320746F20646F2074686973 PUSH0 DUP3 ADD MSTORE PUSH32 0x2E00000000000000000000000000000000000000000000000000000000000000 PUSH1 0x20 DUP3 ADD MSTORE POP JUMP JUMPDEST PUSH0 PUSH2 0x1F93 PUSH1 0x21 DUP4 PUSH2 0x1CDB JUMP JUMPDEST SWAP2 POP PUSH2 0x1F9E DUP3 PUSH2 0x1F39 JUMP JUMPDEST PUSH1 0x40 DUP3 ADD SWAP1 POP SWAP2 SWAP1 POP JUMP JUMPDEST PUSH0 PUSH1 0x20 DUP3 ADD SWAP1 POP DUP2 DUP2 SUB PUSH0 DUP4 ADD MSTORE PUSH2 0x1FC0 DUP2 PUSH2 0x1F87 JUMP JUMPDEST SWAP1 POP SWAP2 SWAP1 POP JUMP JUMPDEST PUSH32 0x4E487B7100000000000000000000000000000000000000000000000000000000 PUSH0 MSTORE PUSH1 0x21 PUSH1 0x4 MSTORE PUSH1 0x24 PUSH0 REVERT JUMPDEST PUSH32 0x566F74696E6720616C72656164792073746172746564206F7220636F6D706C65 PUSH0 DUP3 ADD MSTORE PUSH32 0x7465640000000000000000000000000000000000000000000000000000000000 PUSH1 0x20 DUP3 ADD MSTORE POP JUMP JUMPDEST PUSH0 PUSH2 0x204E PUSH1 0x23 DUP4 PUSH2 0x1CDB JUMP JUMPDEST SWAP2 POP PUSH2 0x2059 DUP3 PUSH2 0x1FF4 JUMP JUMPDEST PUSH1 0x40 DUP3 ADD SWAP1 POP SWAP2 SWAP1 POP JUMP JUMPDEST PUSH0 PUSH1 0x20 DUP3 ADD SWAP1 POP DUP2 DUP2 SUB PUSH0 DUP4 ADD MSTORE PUSH2 0x207B DUP2 PUSH2 0x2042 JUMP JUMPDEST SWAP1 POP SWAP2 SWAP1 POP JUMP JUMPDEST PUSH32 0x766F74657220616C72656164792061646465642E000000000000000000000000 PUSH0 DUP3 ADD MSTORE POP JUMP JUMPDEST PUSH0 PUSH2 0x20B6 PUSH1 0x14 DUP4 PUSH2 0x1CDB JUMP JUMPDEST SWAP2 POP PUSH2 0x20C1 DUP3 PUSH2 0x2082 JUMP JUMPDEST PUSH1 0x20 DUP3 ADD SWAP1 POP SWAP2 SWAP1 POP JUMP JUMPDEST PUSH0 PUSH1 0x20 DUP3 ADD SWAP1 POP DUP2 DUP2 SUB PUSH0 DUP4 ADD MSTORE PUSH2 0x20E3 DUP2 PUSH2 0x20AA JUMP JUMPDEST SWAP1 POP SWAP2 SWAP1 POP JUMP JUMPDEST PUSH32 0x4E487B7100000000000000000000000000000000000000000000000000000000 PUSH0 MSTORE PUSH1 0x11 PUSH1 0x4 MSTORE PUSH1 0x24 PUSH0 REVERT JUMPDEST PUSH0 PUSH2 0x2121 DUP3 PUSH2 0x1C64 JUMP JUMPDEST SWAP2 POP PUSH32 0xFFFFFFFFFFFFFFFFFFFFFFFFFFFFFFFFFFFFFFFFFFFFFFFFFFFFFFFFFFFFFFFF DUP3 SUB PUSH2 0x2153 JUMPI PUSH2 0x2152 PUSH2 0x20EA JUMP JUMPDEST JUMPDEST PUSH1 0x1 DUP3 ADD SWAP1 POP SWAP2 SWAP1 POP JUMP JUMPDEST PUSH32 0x4E487B7100000000000000000000000000000000000000000000000000000000 PUSH0 MSTORE PUSH1 0x22 PUSH1 0x4 MSTORE PUSH1 0x24 PUSH0 REVERT JUMPDEST PUSH0 PUSH1 0x2 DUP3 DIV SWAP1 POP PUSH1 0x1 DUP3 AND DUP1 PUSH2 0x21A2 JUMPI PUSH1 0x7F DUP3 AND SWAP2 POP JUMPDEST PUSH1 0x20 DUP3 LT DUP2 SUB PUSH2 0x21B5 JUMPI PUSH2 0x21B4 PUSH2 0x215E JUMP JUMPDEST JUMPDEST POP SWAP2 SWAP1 POP JUMP JUMPDEST PUSH0 DUP2 SWAP1 POP DUP2 PUSH0 MSTORE PUSH1 0x20 PUSH0 KECCAK256 SWAP1 POP SWAP2 SWAP1 POP JUMP JUMPDEST PUSH0 PUSH1 0x20 PUSH1 0x1F DUP4 ADD DIV SWAP1 POP SWAP2 SWAP1 POP JUMP JUMPDEST PUSH0 DUP3 DUP3 SHL SWAP1 POP SWAP3 SWAP2 POP POP JUMP JUMPDEST PUSH0 PUSH1 0x8 DUP4 MUL PUSH2 0x2217 PUSH32 0xFFFFFFFFFFFFFFFFFFFFFFFFFFFFFFFFFFFFFFFFFFFFFFFFFFFFFFFFFFFFFFFF DUP3 PUSH2 0x21DC JUMP JUMPDEST PUSH2 0x2221 DUP7 DUP4 PUSH2 0x21DC JUMP JUMPDEST SWAP6 POP DUP1 NOT DUP5 AND SWAP4 POP DUP1 DUP7 AND DUP5 OR SWAP3 POP POP POP SWAP4 SWAP3 POP POP POP JUMP JUMPDEST PUSH0 DUP2 SWAP1 POP SWAP2 SWAP1 POP JUMP JUMPDEST PUSH0 PUSH2 0x225C PUSH2 0x2257 PUSH2 0x2252 DUP5 PUSH2 0x1C64 JUMP JUMPDEST PUSH2 0x2239 JUMP JUMPDEST PUSH2 0x1C64 JUMP JUMPDEST SWAP1 POP SWAP2 SWAP1 POP JUMP JUMPDEST PUSH0 DUP2 SWAP1 POP SWAP2 SWAP1 POP JUMP JUMPDEST PUSH2 0x2275 DUP4 PUSH2 0x2242 JUMP JUMPDEST PUSH2 0x2289 PUSH2 0x2281 DUP3 PUSH2 0x2263 JUMP JUMPDEST DUP5 DUP5 SLOAD PUSH2 0x21E8 JUMP JUMPDEST DUP3 SSTORE POP POP POP POP JUMP JUMPDEST PUSH0 SWAP1 JUMP JUMPDEST PUSH2 0x229D PUSH2 0x2291 JUMP JUMPDEST PUSH2 0x22A8 DUP2 DUP5 DUP5 PUSH2 0x226C JUMP JUMPDEST POP POP POP JUMP JUMPDEST JUMPDEST DUP2 DUP2 LT ISZERO PUSH2 0x22CB JUMPI PUSH2 0x22C0 PUSH0 DUP3 PUSH2 0x2295 JUMP JUMPDEST PUSH1 0x1 DUP2 ADD SWAP1 POP PUSH2 0x22AE JUMP JUMPDEST POP POP JUMP JUMPDEST PUSH1 0x1F DUP3 GT ISZERO PUSH2 0x2310 JUMPI PUSH2 0x22E1 DUP2 PUSH2 0x21BB JUMP JUMPDEST PUSH2 0x22EA DUP5 PUSH2 0x21CD JUMP JUMPDEST DUP2 ADD PUSH1 0x20 DUP6 LT ISZERO PUSH2 0x22F9 JUMPI DUP2 SWAP1 POP JUMPDEST PUSH2 0x230D PUSH2 0x2305 DUP6 PUSH2 0x21CD JUMP JUMPDEST DUP4 ADD DUP3 PUSH2 0x22AD JUMP JUMPDEST POP POP JUMPDEST POP POP POP JUMP JUMPDEST PUSH0 DUP3 DUP3 SHR SWAP1 POP SWAP3 SWAP2 POP POP JUMP JUMPDEST PUSH0 PUSH2 0x2330 PUSH0 NOT DUP5 PUSH1 0x8 MUL PUSH2 0x2315 JUMP JUMPDEST NOT DUP1 DUP4 AND SWAP2 POP POP SWAP3 SWAP2 POP POP JUMP JUMPDEST PUSH0 PUSH2 0x2348 DUP4 DUP4 PUSH2 0x2321 JUMP JUMPDEST SWAP2 POP DUP3 PUSH1 0x2 MUL DUP3 OR SWAP1 POP SWAP3 SWAP2 POP POP JUMP JUMPDEST PUSH2 0x2361 DUP3 PUSH2 0x1CD1 JUMP JUMPDEST PUSH8 0xFFFFFFFFFFFFFFFF DUP2 GT ISZERO PUSH2 0x237A JUMPI PUSH2 0x2379 PUSH2 0x1A96 JUMP JUMPDEST JUMPDEST PUSH2 0x2384 DUP3 SLOAD PUSH2 0x218B JUMP JUMPDEST PUSH2 0x238F DUP3 DUP3 DUP6 PUSH2 0x22CF JUMP JUMPDEST PUSH0 PUSH1 0x20 SWAP1 POP PUSH1 0x1F DUP4 GT PUSH1 0x1 DUP2 EQ PUSH2 0x23C0 JUMPI PUSH0 DUP5 ISZERO PUSH2 0x23AE JUMPI DUP3 DUP8 ADD MLOAD SWAP1 POP JUMPDEST PUSH2 0x23B8 DUP6 DUP3 PUSH2 0x233D JUMP JUMPDEST DUP7 SSTORE POP PUSH2 0x241F JUMP JUMPDEST PUSH1 0x1F NOT DUP5 AND PUSH2 0x23CE DUP7 PUSH2 0x21BB JUMP JUMPDEST PUSH0 JUMPDEST DUP3 DUP2 LT ISZERO PUSH2 0x23F5 JUMPI DUP5 DUP10 ADD MLOAD DUP3 SSTORE PUSH1 0x1 DUP3 ADD SWAP2 POP PUSH1 0x20 DUP6 ADD SWAP5 POP PUSH1 0x20 DUP2 ADD SWAP1 POP PUSH2 0x23D0 JUMP JUMPDEST DUP7 DUP4 LT ISZERO PUSH2 0x2412 JUMPI DUP5 DUP10 ADD MLOAD PUSH2 0x240E PUSH1 0x1F DUP10 AND DUP3 PUSH2 0x2321 JUMP JUMPDEST DUP4 SSTORE POP JUMPDEST PUSH1 0x1 PUSH1 0x2 DUP9 MUL ADD DUP9 SSTORE POP POP POP JUMPDEST POP POP POP POP POP POP JUMP JUMPDEST PUSH32 0x566F74696E67206E6F7420696E2070726F67726573732E20596F752063616E20 PUSH0 DUP3 ADD MSTORE PUSH32 0x6E6F742064656C65746567617465206E6F772E00000000000000000000000000 PUSH1 0x20 DUP3 ADD MSTORE POP JUMP JUMPDEST PUSH0 PUSH2 0x2481 PUSH1 0x33 DUP4 PUSH2 0x1CDB JUMP JUMPDEST SWAP2 POP PUSH2 0x248C DUP3 PUSH2 0x2427 JUMP JUMPDEST PUSH1 0x40 DUP3 ADD SWAP1 POP SWAP2 SWAP1 POP JUMP JUMPDEST PUSH0 PUSH1 0x20 DUP3 ADD SWAP1 POP DUP2 DUP2 SUB PUSH0 DUP4 ADD MSTORE PUSH2 0x24AE DUP2 PUSH2 0x2475 JUMP JUMPDEST SWAP1 POP SWAP2 SWAP1 POP JUMP JUMPDEST PUSH32 0x4F6E6C792061646472657373206F776E65722063616E2064656C656761746520 PUSH0 DUP3 ADD MSTORE PUSH32 0x766F74696E672072696768747320746F20616E6F746865722061646472657373 PUSH1 0x20 DUP3 ADD MSTORE PUSH32 0x2E00000000000000000000000000000000000000000000000000000000000000 PUSH1 0x40 DUP3 ADD MSTORE POP JUMP JUMPDEST PUSH0 PUSH2 0x2535 PUSH1 0x41 DUP4 PUSH2 0x1CDB JUMP JUMPDEST SWAP2 POP PUSH2 0x2540 DUP3 PUSH2 0x24B5 JUMP JUMPDEST PUSH1 0x60 DUP3 ADD SWAP1 POP SWAP2 SWAP1 POP JUMP JUMPDEST PUSH0 PUSH1 0x20 DUP3 ADD SWAP1 POP DUP2 DUP2 SUB PUSH0 DUP4 ADD MSTORE PUSH2 0x2562 DUP2 PUSH2 0x2529 JUMP JUMPDEST SWAP1 POP SWAP2 SWAP1 POP JUMP JUMPDEST PUSH32 0x596F752063616E206E6F742064656C656761746520766F74696E672072696768 PUSH0 DUP3 ADD MSTORE PUSH32 0x74732E20596F75206861766520616C726561647920766F7465642E0000000000 PUSH1 0x20 DUP3 ADD MSTORE POP JUMP JUMPDEST PUSH0 PUSH2 0x25C3 PUSH1 0x3B DUP4 PUSH2 0x1CDB JUMP JUMPDEST SWAP2 POP PUSH2 0x25CE DUP3 PUSH2 0x2569 JUMP JUMPDEST PUSH1 0x40 DUP3 ADD SWAP1 POP SWAP2 SWAP1 POP JUMP JUMPDEST PUSH0 PUSH1 0x20 DUP3 ADD SWAP1 POP DUP2 DUP2 SUB PUSH0 DUP4 ADD MSTORE PUSH2 0x25F0 DUP2 PUSH2 0x25B7 JUMP JUMPDEST SWAP1 POP SWAP2 SWAP1 POP JUMP JUMPDEST PUSH32 0x566F74696E67206E6F7420737461727465640000000000000000000000000000 PUSH0 DUP3 ADD MSTORE POP JUMP JUMPDEST PUSH0 PUSH2 0x262B PUSH1 0x12 DUP4 PUSH2 0x1CDB JUMP JUMPDEST SWAP2 POP PUSH2 0x2636 DUP3 PUSH2 0x25F7 JUMP JUMPDEST PUSH1 0x20 DUP3 ADD SWAP1 POP SWAP2 SWAP1 POP JUMP JUMPDEST PUSH0 PUSH1 0x20 DUP3 ADD SWAP1 POP DUP2 DUP2 SUB PUSH0 DUP4 ADD MSTORE PUSH2 0x2658 DUP2 PUSH2 0x261F JUMP JUMPDEST SWAP1 POP SWAP2 SWAP1 POP JUMP JUMPDEST PUSH32 0x766F74696E67206E6F7420737461727465640000000000000000000000000000 PUSH0 DUP3 ADD MSTORE POP JUMP JUMPDEST PUSH0 PUSH2 0x2693 PUSH1 0x12 DUP4 PUSH2 0x1CDB JUMP JUMPDEST SWAP2 POP PUSH2 0x269E DUP3 PUSH2 0x265F JUMP JUMPDEST PUSH1 0x20 DUP3 ADD SWAP1 POP SWAP2 SWAP1 POP JUMP JUMPDEST PUSH0 PUSH1 0x20 DUP3 ADD SWAP1 POP DUP2 DUP2 SUB PUSH0 DUP4 ADD MSTORE PUSH2 0x26C0 DUP2 PUSH2 0x2687 JUMP JUMPDEST SWAP1 POP SWAP2 SWAP1 POP JUMP JUMPDEST PUSH32 0x766F74696E6720656E6465640000000000000000000000000000000000000000 PUSH0 DUP3 ADD MSTORE POP JUMP JUMPDEST PUSH0 PUSH2 0x26FB PUSH1 0xC DUP4 PUSH2 0x1CDB JUMP JUMPDEST SWAP2 POP PUSH2 0x2706 DUP3 PUSH2 0x26C7 JUMP JUMPDEST PUSH1 0x20 DUP3 ADD SWAP1 POP SWAP2 SWAP1 POP JUMP JUMPDEST PUSH0 PUSH1 0x20 DUP3 ADD SWAP1 POP DUP2 DUP2 SUB PUSH0 DUP4 ADD MSTORE PUSH2 0x2728 DUP2 PUSH2 0x26EF JUMP JUMPDEST SWAP1 POP SWAP2 SWAP1 POP JUMP JUMPDEST PUSH32 0x566F74696E67206E6F7420696E2070726F67726573732E20596F752063616E20 PUSH0 DUP3 ADD MSTORE PUSH32 0x6E6F7420766F7465206E6F772E00000000000000000000000000000000000000 PUSH1 0x20 DUP3 ADD MSTORE POP JUMP JUMPDEST PUSH0 PUSH2 0x2789 PUSH1 0x2D DUP4 PUSH2 0x1CDB JUMP JUMPDEST SWAP2 POP PUSH2 0x2794 DUP3 PUSH2 0x272F JUMP JUMPDEST PUSH1 0x40 DUP3 ADD SWAP1 POP SWAP2 SWAP1 POP JUMP JUMPDEST PUSH0 PUSH1 0x20 DUP3 ADD SWAP1 POP DUP2 DUP2 SUB PUSH0 DUP4 ADD MSTORE PUSH2 0x27B6 DUP2 PUSH2 0x277D JUMP JUMPDEST SWAP1 POP SWAP2 SWAP1 POP JUMP JUMPDEST PUSH32 0x302063616E646964617465732072656769737465726564000000000000000000 PUSH0 DUP3 ADD MSTORE POP JUMP JUMPDEST PUSH0 PUSH2 0x27F1 PUSH1 0x17 DUP4 PUSH2 0x1CDB JUMP JUMPDEST SWAP2 POP PUSH2 0x27FC DUP3 PUSH2 0x27BD JUMP JUMPDEST PUSH1 0x20 DUP3 ADD SWAP1 POP SWAP2 SWAP1 POP JUMP JUMPDEST PUSH0 PUSH1 0x20 DUP3 ADD SWAP1 POP DUP2 DUP2 SUB PUSH0 DUP4 ADD MSTORE PUSH2 0x281E DUP2 PUSH2 0x27E5 JUMP JUMPDEST SWAP1 POP SWAP2 SWAP1 POP JUMP JUMPDEST PUSH32 0x63616E646964617465207769746820696420646F6573206E6F74206578697374 PUSH0 DUP3 ADD MSTORE POP JUMP JUMPDEST PUSH0 PUSH2 0x2859 PUSH1 0x20 DUP4 PUSH2 0x1CDB JUMP JUMPDEST SWAP2 POP PUSH2 0x2864 DUP3 PUSH2 0x2825 JUMP JUMPDEST PUSH1 0x20 DUP3 ADD SWAP1 POP SWAP2 SWAP1 POP JUMP JUMPDEST PUSH0 PUSH1 0x20 DUP3 ADD SWAP1 POP DUP2 DUP2 SUB PUSH0 DUP4 ADD MSTORE PUSH2 0x2886 DUP2 PUSH2 0x284D JUMP JUMPDEST SWAP1 POP SWAP2 SWAP1 POP JUMP JUMPDEST PUSH32 0x766F7465722077697468206164647265737320646F6573206E6F742065786973 PUSH0 DUP3 ADD MSTORE PUSH32 0x7400000000000000000000000000000000000000000000000000000000000000 PUSH1 0x20 DUP3 ADD MSTORE POP JUMP JUMPDEST PUSH0 PUSH2 0x28E7 PUSH1 0x21 DUP4 PUSH2 0x1CDB JUMP JUMPDEST SWAP2 POP PUSH2 0x28F2 DUP3 PUSH2 0x288D JUMP JUMPDEST PUSH1 0x40 DUP3 ADD SWAP1 POP SWAP2 SWAP1 POP JUMP JUMPDEST PUSH0 PUSH1 0x20 DUP3 ADD SWAP1 POP DUP2 DUP2 SUB PUSH0 DUP4 ADD MSTORE PUSH2 0x2914 DUP2 PUSH2 0x28DB JUMP JUMPDEST SWAP1 POP SWAP2 SWAP1 POP JUMP JUMPDEST PUSH32 0x566F746520616C726561647920706C6163656400000000000000000000000000 PUSH0 DUP3 ADD MSTORE POP JUMP JUMPDEST PUSH0 PUSH2 0x294F PUSH1 0x13 DUP4 PUSH2 0x1CDB JUMP JUMPDEST SWAP2 POP PUSH2 0x295A DUP3 PUSH2 0x291B JUMP JUMPDEST PUSH1 0x20 DUP3 ADD SWAP1 POP SWAP2 SWAP1 POP JUMP JUMPDEST PUSH0 PUSH1 0x20 DUP3 ADD SWAP1 POP DUP2 DUP2 SUB PUSH0 DUP4 ADD MSTORE PUSH2 0x297C DUP2 PUSH2 0x2943 JUMP JUMPDEST SWAP1 POP SWAP2 SWAP1 POP JUMP JUMPDEST PUSH32 0x796F752063616E206E6F7420766F746520666F72207468697320616464726573 PUSH0 DUP3 ADD MSTORE PUSH32 0x732E20596F7520646F6E2774206F776E20746865206164647265737300000000 PUSH1 0x20 DUP3 ADD MSTORE POP JUMP JUMPDEST PUSH0 PUSH2 0x29DD PUSH1 0x3C DUP4 PUSH2 0x1CDB JUMP JUMPDEST SWAP2 POP PUSH2 0x29E8 DUP3 PUSH2 0x2983 JUMP JUMPDEST PUSH1 0x40 DUP3 ADD SWAP1 POP SWAP2 SWAP1 POP JUMP JUMPDEST PUSH0 PUSH1 0x20 DUP3 ADD SWAP1 POP DUP2 DUP2 SUB PUSH0 DUP4 ADD MSTORE PUSH2 0x2A0A DUP2 PUSH2 0x29D1 JUMP JUMPDEST SWAP1 POP SWAP2 SWAP1 POP JUMP JUMPDEST PUSH32 0x596F7520646F6E2774206F776E2074686520616464726573732E205468652061 PUSH0 DUP3 ADD MSTORE PUSH32 0x646472657373206F776E657220686173206E6F742064656C6567617465642074 PUSH1 0x20 DUP3 ADD MSTORE PUSH32 0x6F20796F75000000000000000000000000000000000000000000000000000000 PUSH1 0x40 DUP3 ADD MSTORE POP JUMP JUMPDEST PUSH0 PUSH2 0x2A91 PUSH1 0x45 DUP4 PUSH2 0x1CDB JUMP JUMPDEST SWAP2 POP PUSH2 0x2A9C DUP3 PUSH2 0x2A11 JUMP JUMPDEST PUSH1 0x60 DUP3 ADD SWAP1 POP SWAP2 SWAP1 POP JUMP JUMPDEST PUSH0 PUSH1 0x20 DUP3 ADD SWAP1 POP DUP2 DUP2 SUB PUSH0 DUP4 ADD MSTORE PUSH2 0x2ABE DUP2 PUSH2 0x2A85 JUMP JUMPDEST SWAP1 POP SWAP2 SWAP1 POP JUMP JUMPDEST PUSH0 PUSH2 0x2ACF DUP3 PUSH2 0x1C64 JUMP JUMPDEST SWAP2 POP PUSH2 0x2ADA DUP4 PUSH2 0x1C64 JUMP JUMPDEST SWAP3 POP DUP3 DUP3 ADD SWAP1 POP DUP1 DUP3 GT ISZERO PUSH2 0x2AF2 JUMPI PUSH2 0x2AF1 PUSH2 0x20EA JUMP JUMPDEST JUMPDEST SWAP3 SWAP2 POP POP JUMP JUMPDEST PUSH32 0x43616E646964617465207769746820696420646F6573206E6F74206578697374 PUSH0 DUP3 ADD MSTORE POP JUMP JUMPDEST PUSH0 PUSH2 0x2B2C PUSH1 0x20 DUP4 PUSH2 0x1CDB JUMP JUMPDEST SWAP2 POP PUSH2 0x2B37 DUP3 PUSH2 0x2AF8 JUMP JUMPDEST PUSH1 0x20 DUP3 ADD SWAP1 POP SWAP2 SWAP1 POP JUMP JUMPDEST PUSH0 PUSH1 0x20 DUP3 ADD SWAP1 POP DUP2 DUP2 SUB PUSH0 DUP4 ADD MSTORE PUSH2 0x2B59 DUP2 PUSH2 0x2B20 JUMP JUMPDEST SWAP1 POP SWAP2 SWAP1 POP JUMP JUMPDEST PUSH32 0x4E6F20766F746573207965740000000000000000000000000000000000000000 PUSH0 DUP3 ADD MSTORE POP JUMP JUMPDEST PUSH0 PUSH2 0x2B94 PUSH1 0xC DUP4 PUSH2 0x1CDB JUMP JUMPDEST SWAP2 POP PUSH2 0x2B9F DUP3 PUSH2 0x2B60 JUMP JUMPDEST PUSH1 0x20 DUP3 ADD SWAP1 POP SWAP2 SWAP1 POP JUMP JUMPDEST PUSH0 PUSH1 0x20 DUP3 ADD SWAP1 POP DUP2 DUP2 SUB PUSH0 DUP4 ADD MSTORE PUSH2 0x2BC1 DUP2 PUSH2 0x2B88 JUMP JUMPDEST SWAP1 POP SWAP2 SWAP1 POP JUMP JUMPDEST PUSH32 0x3020766F74657273207265676973746572656400000000000000000000000000 PUSH0 DUP3 ADD MSTORE POP JUMP JUMPDEST PUSH0 PUSH2 0x2BFC PUSH1 0x13 DUP4 PUSH2 0x1CDB JUMP JUMPDEST SWAP2 POP PUSH2 0x2C07 DUP3 PUSH2 0x2BC8 JUMP JUMPDEST PUSH1 0x20 DUP3 ADD SWAP1 POP SWAP2 SWAP1 POP JUMP JUMPDEST PUSH0 PUSH1 0x20 DUP3 ADD SWAP1 POP DUP2 DUP2 SUB PUSH0 DUP4 ADD MSTORE PUSH2 0x2C29 DUP2 PUSH2 0x2BF0 JUMP JUMPDEST SWAP1 POP SWAP2 SWAP1 POP JUMP JUMPDEST PUSH1 0x3 DUP2 LT PUSH2 0x2C41 JUMPI PUSH2 0x2C40 PUSH2 0x1FC7 JUMP JUMPDEST JUMPDEST POP JUMP JUMPDEST PUSH0 DUP2 SWAP1 POP PUSH2 0x2C51 DUP3 PUSH2 0x2C30 JUMP JUMPDEST SWAP2 SWAP1 POP JUMP JUMPDEST PUSH0 PUSH2 0x2C60 DUP3 PUSH2 0x2C44 JUMP JUMPDEST SWAP1 POP SWAP2 SWAP1 POP JUMP JUMPDEST PUSH2 0x2C70 DUP2 PUSH2 0x2C56 JUMP JUMPDEST DUP3 MSTORE POP POP JUMP JUMPDEST PUSH32 0x566F74696E67206F6E676F696E67000000000000000000000000000000000000 PUSH0 DUP3 ADD MSTORE POP JUMP JUMPDEST PUSH0 PUSH2 0x2CAA PUSH1 0xE DUP4 PUSH2 0x1CDB JUMP JUMPDEST SWAP2 POP PUSH2 0x2CB5 DUP3 PUSH2 0x2C76 JUMP JUMPDEST PUSH1 0x20 DUP3 ADD SWAP1 POP SWAP2 SWAP1 POP JUMP JUMPDEST PUSH0 PUSH1 0x40 DUP3 ADD SWAP1 POP PUSH2 0x2CD3 PUSH0 DUP4 ADD DUP5 PUSH2 0x2C67 JUMP JUMPDEST DUP2 DUP2 SUB PUSH1 0x20 DUP4 ADD MSTORE PUSH2 0x2CE4 DUP2 PUSH2 0x2C9E JUMP JUMPDEST SWAP1 POP SWAP3 SWAP2 POP POP JUMP JUMPDEST PUSH32 0x566F74696E6720636F6D706C6574656400000000000000000000000000000000 PUSH0 DUP3 ADD MSTORE POP JUMP JUMPDEST PUSH0 PUSH2 0x2D20 PUSH1 0x10 DUP4 PUSH2 0x1CDB JUMP JUMPDEST SWAP2 POP PUSH2 0x2D2B DUP3 PUSH2 0x2CEC JUMP JUMPDEST PUSH1 0x20 DUP3 ADD SWAP1 POP SWAP2 SWAP1 POP JUMP JUMPDEST PUSH0 PUSH1 0x40 DUP3 ADD SWAP1 POP PUSH2 0x2D49 PUSH0 DUP4 ADD DUP5 PUSH2 0x2C67 JUMP JUMPDEST DUP2 DUP2 SUB PUSH1 0x20 DUP4 ADD MSTORE PUSH2 0x2D5A DUP2 PUSH2 0x2D14 JUMP JUMPDEST SWAP1 POP SWAP3 SWAP2 POP POP JUMP INVALID LOG2 PUSH5 0x6970667358 0x22 SLT KECCAK256 PUSH13 0x1B2579E885855D757B40BA5BEB 0xD2 BASEFEE 0x4D 0xF8 SWAP11 0xDA SWAP3 0x1F 0xEA CREATE2 RETURN 0xCD 0xCD 0xCF EXTCODEHASH 0xDD 0xEA DUP2 PUSH5 0x736F6C6343 STOP ADDMOD AND STOP CALLER "
				},
				"gasEstimates": {
					"creation": {
						"codeDepositCost": "2334400",
						"executionCost": "61122",
						"totalCost": "2395522"
					},
					"external": {
						"addNewCandidate(string,string,address)": "infinite",
						"addNewVoter(address,string,address)": "infinite",
						"castVote(uint256,address)": "infinite",
						"delegateVotingRight(address,address)": "infinite",
						"displayCandidateDetails(uint256)": "infinite",
						"endElection()": "31231",
						"showElectionResults(uint256)": "infinite",
						"showWinner()": "infinite",
						"startElection(address)": "37970",
						"viewVoterDetails(address)": "infinite",
						"votingAdmin()": "2571"
					}
				},
				"methodIdentifiers": {
					"addNewCandidate(string,string,address)": "723309a0",
					"addNewVoter(address,string,address)": "3cdd97bf",
					"castVote(uint256,address)": "77df41b7",
					"delegateVotingRight(address,address)": "3d0af840",
					"displayCandidateDetails(uint256)": "a48292ce",
					"endElection()": "59f78468",
					"showElectionResults(uint256)": "4ad7b863",
					"showWinner()": "b7e03264",
					"startElection(address)": "e6a5e61d",
					"viewVoterDetails(address)": "f83bfa28",
					"votingAdmin()": "d45529f4"
				}
			},
			"storageLayout": {
				"storage": [
					{
						"astId": 3,
						"contract": "contracts/voting.sol:VotingSoftware",
						"label": "votingAdmin",
						"offset": 0,
						"slot": "0",
						"type": "t_address"
					},
					{
						"astId": 58,
						"contract": "contracts/voting.sol:VotingSoftware",
						"label": "status",
						"offset": 20,
						"slot": "0",
						"type": "t_enum(VotingStatus)53"
					},
					{
						"astId": 61,
						"contract": "contracts/voting.sol:VotingSoftware",
						"label": "candidateCount",
						"offset": 0,
						"slot": "1",
						"type": "t_uint256"
					},
					{
						"astId": 64,
						"contract": "contracts/voting.sol:VotingSoftware",
						"label": "voterCount",
						"offset": 0,
						"slot": "2",
						"type": "t_uint256"
					},
					{
						"astId": 69,
						"contract": "contracts/voting.sol:VotingSoftware",
						"label": "candidates",
						"offset": 0,
						"slot": "3",
						"type": "t_mapping(t_uint256,t_struct(Candidate)49_storage)"
					},
					{
						"astId": 74,
						"contract": "contracts/voting.sol:VotingSoftware",
						"label": "voters",
						"offset": 0,
						"slot": "4",
						"type": "t_mapping(t_address,t_struct(Voter)40_storage)"
					},
					{
						"astId": 78,
						"contract": "contracts/voting.sol:VotingSoftware",
						"label": "voteCounts",
						"offset": 0,
						"slot": "5",
						"type": "t_mapping(t_uint256,t_uint256)"
					}
				],
				"types": {
					"t_address": {
						"encoding": "inplace",
						"label": "address",
						"numberOfBytes": "20"
					},
					"t_bool": {
						"encoding": "inplace",
						"label": "bool",
						"numberOfBytes": "1"
					},
					"t_enum(VotingStatus)53": {
						"encoding": "inplace",
						"label": "enum VotingSoftware.VotingStatus",
						"numberOfBytes": "1"
					},
					"t_mapping(t_address,t_struct(Voter)40_storage)": {
						"encoding": "mapping",
						"key": "t_address",
						"label": "mapping(address => struct VotingSoftware.Voter)",
						"numberOfBytes": "32",
						"value": "t_struct(Voter)40_storage"
					},
					"t_mapping(t_uint256,t_struct(Candidate)49_storage)": {
						"encoding": "mapping",
						"key": "t_uint256",
						"label": "mapping(uint256 => struct VotingSoftware.Candidate)",
						"numberOfBytes": "32",
						"value": "t_struct(Candidate)49_storage"
					},
					"t_mapping(t_uint256,t_uint256)": {
						"encoding": "mapping",
						"key": "t_uint256",
						"label": "mapping(uint256 => uint256)",
						"numberOfBytes": "32",
						"value": "t_uint256"
					},
					"t_string_storage": {
						"encoding": "bytes",
						"label": "string",
						"numberOfBytes": "32"
					},
					"t_struct(Candidate)49_storage": {
						"encoding": "inplace",
						"label": "struct VotingSoftware.Candidate",
						"members": [
							{
								"astId": 42,
								"contract": "contracts/voting.sol:VotingSoftware",
								"label": "id",
								"offset": 0,
								"slot": "0",
								"type": "t_uint256"
							},
							{
								"astId": 44,
								"contract": "contracts/voting.sol:VotingSoftware",
								"label": "name",
								"offset": 0,
								"slot": "1",
								"type": "t_string_storage"
							},
							{
								"astId": 46,
								"contract": "contracts/voting.sol:VotingSoftware",
								"label": "proposal",
								"offset": 0,
								"slot": "2",
								"type": "t_string_storage"
							},
							{
								"astId": 48,
								"contract": "contracts/voting.sol:VotingSoftware",
								"label": "flag",
								"offset": 0,
								"slot": "3",
								"type": "t_bool"
							}
						],
						"numberOfBytes": "128"
					},
					"t_struct(Voter)40_storage": {
						"encoding": "inplace",
						"label": "struct VotingSoftware.Voter",
						"members": [
							{
								"astId": 25,
								"contract": "contracts/voting.sol:VotingSoftware",
								"label": "id",
								"offset": 0,
								"slot": "0",
								"type": "t_uint256"
							},
							{
								"astId": 27,
								"contract": "contracts/voting.sol:VotingSoftware",
								"label": "name",
								"offset": 0,
								"slot": "1",
								"type": "t_string_storage"
							},
							{
								"astId": 29,
								"contract": "contracts/voting.sol:VotingSoftware",
								"label": "addressVoter",
								"offset": 0,
								"slot": "2",
								"type": "t_address"
							},
							{
								"astId": 31,
								"contract": "contracts/voting.sol:VotingSoftware",
								"label": "hasDelegated",
								"offset": 20,
								"slot": "2",
								"type": "t_bool"
							},
							{
								"astId": 33,
								"contract": "contracts/voting.sol:VotingSoftware",
								"label": "delegatedTo",
								"offset": 0,
								"slot": "3",
								"type": "t_address"
							},
							{
								"astId": 35,
								"contract": "contracts/voting.sol:VotingSoftware",
								"label": "hasVoted",
								"offset": 20,
								"slot": "3",
								"type": "t_bool"
							},
							{
								"astId": 37,
								"contract": "contracts/voting.sol:VotingSoftware",
								"label": "cadidateId",
								"offset": 0,
								"slot": "4",
								"type": "t_uint256"
							},
							{
								"astId": 39,
								"contract": "contracts/voting.sol:VotingSoftware",
								"label": "flag",
								"offset": 0,
								"slot": "5",
								"type": "t_bool"
							}
						],
						"numberOfBytes": "192"
					},
					"t_uint256": {
						"encoding": "inplace",
						"label": "uint256",
						"numberOfBytes": "32"
					}
				}
			},
			"userdoc": {
				"kind": "user",
				"methods": {},
				"version": 1
			}
		}
	}
}