{
	"data": {
		"bytecode": {
			"linkReferences": {
				"contracts/Copy_library.sol": {
					"MathFunc": [
						{
							"length": 20,
							"start": 126
						}
					]
				}
			},
			"object": "608060405234801561000f575f80fd5b506102708061001d5f395ff3fe608060405234801561000f575f80fd5b5060043610610029575f3560e01c80638784b8001461002d575b5f80fd5b6100476004803603810190610042919061011d565b61005d565b6040516100549190610190565b60405180910390f35b5f8473__$6896419439e2336f297dae9deef2783cc8$__636271f50e90918686866040518563ffffffff1660e01b815260040161009d94939291906101b8565b602060405180830381865af41580156100b8573d5f803e3d5ffd5b505050506040513d601f19601f820116820180604052508101906100dc919061020f565b9050949350505050565b5f80fd5b5f819050919050565b6100fc816100ea565b8114610106575f80fd5b50565b5f81359050610117816100f3565b92915050565b5f805f8060808587031215610135576101346100e6565b5b5f61014287828801610109565b945050602061015387828801610109565b935050604061016487828801610109565b925050606061017587828801610109565b91505092959194509250565b61018a816100ea565b82525050565b5f6020820190506101a35f830184610181565b92915050565b6101b2816100ea565b82525050565b5f6080820190506101cb5f8301876101a9565b6101d860208301866101a9565b6101e560408301856101a9565b6101f260608301846101a9565b95945050505050565b5f81519050610209816100f3565b92915050565b5f60208284031215610224576102236100e6565b5b5f610231848285016101fb565b9150509291505056fea264697066735822122005656fd4b267c00d3705fd96fc23279734433228a9e76456f5a7314d27aec9d164736f6c63430008160033",
			"opcodes": "PUSH1 0x80 PUSH1 0x40 MSTORE CALLVALUE DUP1 ISZERO PUSH2 0xF JUMPI PUSH0 DUP1 REVERT JUMPDEST POP PUSH2 0x270 DUP1 PUSH2 0x1D PUSH0 CODECOPY PUSH0 RETURN INVALID PUSH1 0x80 PUSH1 0x40 MSTORE CALLVALUE DUP1 ISZERO PUSH2 0xF JUMPI PUSH0 DUP1 REVERT JUMPDEST POP PUSH1 0x4 CALLDATASIZE LT PUSH2 0x29 JUMPI PUSH0 CALLDATALOAD PUSH1 0xE0 SHR DUP1 PUSH4 0x8784B800 EQ PUSH2 0x2D JUMPI JUMPDEST PUSH0 DUP1 REVERT JUMPDEST PUSH2 0x47 PUSH1 0x4 DUP1 CALLDATASIZE SUB DUP2 ADD SWAP1 PUSH2 0x42 SWAP2 SWAP1 PUSH2 0x11D JUMP JUMPDEST PUSH2 0x5D JUMP JUMPDEST PUSH1 0x40 MLOAD PUSH2 0x54 SWAP2 SWAP1 PUSH2 0x190 JUMP JUMPDEST PUSH1 0x40 MLOAD DUP1 SWAP2 SUB SWAP1 RETURN JUMPDEST PUSH0 DUP5 PUSH20 0x0 PUSH4 0x6271F50E SWAP1 SWAP2 DUP7 DUP7 DUP7 PUSH1 0x40 MLOAD DUP6 PUSH4 0xFFFFFFFF AND PUSH1 0xE0 SHL DUP2 MSTORE PUSH1 0x4 ADD PUSH2 0x9D SWAP5 SWAP4 SWAP3 SWAP2 SWAP1 PUSH2 0x1B8 JUMP JUMPDEST PUSH1 0x20 PUSH1 0x40 MLOAD DUP1 DUP4 SUB DUP2 DUP7 GAS DELEGATECALL ISZERO DUP1 ISZERO PUSH2 0xB8 JUMPI RETURNDATASIZE PUSH0 DUP1 RETURNDATACOPY RETURNDATASIZE PUSH0 REVERT JUMPDEST POP POP POP POP PUSH1 0x40 MLOAD RETURNDATASIZE PUSH1 0x1F NOT PUSH1 0x1F DUP3 ADD AND DUP3 ADD DUP1 PUSH1 0x40 MSTORE POP DUP2 ADD SWAP1 PUSH2 0xDC SWAP2 SWAP1 PUSH2 0x20F JUMP JUMPDEST SWAP1 POP SWAP5 SWAP4 POP POP POP POP JUMP JUMPDEST PUSH0 DUP1 REVERT JUMPDEST PUSH0 DUP2 SWAP1 POP SWAP2 SWAP1 POP JUMP JUMPDEST PUSH2 0xFC DUP2 PUSH2 0xEA JUMP JUMPDEST DUP2 EQ PUSH2 0x106 JUMPI PUSH0 DUP1 REVERT JUMPDEST POP JUMP JUMPDEST PUSH0 DUP2 CALLDATALOAD SWAP1 POP PUSH2 0x117 DUP2 PUSH2 0xF3 JUMP JUMPDEST SWAP3 SWAP2 POP POP JUMP JUMPDEST PUSH0 DUP1 PUSH0 DUP1 PUSH1 0x80 DUP6 DUP8 SUB SLT ISZERO PUSH2 0x135 JUMPI PUSH2 0x134 PUSH2 0xE6 JUMP JUMPDEST JUMPDEST PUSH0 PUSH2 0x142 DUP8 DUP3 DUP9 ADD PUSH2 0x109 JUMP JUMPDEST SWAP5 POP POP PUSH1 0x20 PUSH2 0x153 DUP8 DUP3 DUP9 ADD PUSH2 0x109 JUMP JUMPDEST SWAP4 POP POP PUSH1 0x40 PUSH2 0x164 DUP8 DUP3 DUP9 ADD PUSH2 0x109 JUMP JUMPDEST SWAP3 POP POP PUSH1 0x60 PUSH2 0x175 DUP8 DUP3 DUP9 ADD PUSH2 0x109 JUMP JUMPDEST SWAP2 POP POP SWAP3 SWAP6 SWAP2 SWAP5 POP SWAP3 POP JUMP JUMPDEST PUSH2 0x18A DUP2 PUSH2 0xEA JUMP JUMPDEST DUP3 MSTORE POP POP JUMP JUMPDEST PUSH0 PUSH1 0x20 DUP3 ADD SWAP1 POP PUSH2 0x1A3 PUSH0 DUP4 ADD DUP5 PUSH2 0x181 JUMP JUMPDEST SWAP3 SWAP2 POP POP JUMP JUMPDEST PUSH2 0x1B2 DUP2 PUSH2 0xEA JUMP JUMPDEST DUP3 MSTORE POP POP JUMP JUMPDEST PUSH0 PUSH1 0x80 DUP3 ADD SWAP1 POP PUSH2 0x1CB PUSH0 DUP4 ADD DUP8 PUSH2 0x1A9 JUMP JUMPDEST PUSH2 0x1D8 PUSH1 0x20 DUP4 ADD DUP7 PUSH2 0x1A9 JUMP JUMPDEST PUSH2 0x1E5 PUSH1 0x40 DUP4 ADD DUP6 PUSH2 0x1A9 JUMP JUMPDEST PUSH2 0x1F2 PUSH1 0x60 DUP4 ADD DUP5 PUSH2 0x1A9 JUMP JUMPDEST SWAP6 SWAP5 POP POP POP POP POP JUMP JUMPDEST PUSH0 DUP2 MLOAD SWAP1 POP PUSH2 0x209 DUP2 PUSH2 0xF3 JUMP JUMPDEST SWAP3 SWAP2 POP POP JUMP JUMPDEST PUSH0 PUSH1 0x20 DUP3 DUP5 SUB SLT ISZERO PUSH2 0x224 JUMPI PUSH2 0x223 PUSH2 0xE6 JUMP JUMPDEST JUMPDEST PUSH0 PUSH2 0x231 DUP5 DUP3 DUP6 ADD PUSH2 0x1FB JUMP JUMPDEST SWAP2 POP POP SWAP3 SWAP2 POP POP JUMP INVALID LOG2 PUSH5 0x6970667358 0x22 SLT KECCAK256 SDIV PUSH6 0x6FD4B267C00D CALLDATACOPY SDIV REVERT SWAP7 0xFC 0x23 0x27 SWAP8 CALLVALUE NUMBER ORIGIN 0x28 0xA9 0xE7 PUSH5 0x56F5A7314D 0x27 0xAE 0xC9 0xD1 PUSH5 0x736F6C6343 STOP ADDMOD AND STOP CALLER "
		},
		"gasEstimates": {
			"creation": {
				"codeDepositCost": "124800",
				"executionCost": "169",
				"totalCost": "124969"
			},
			"external": {
				"adding(int256,int256,int256,int256)": "infinite"
			}
		},
		"methodIdentifiers": {
			"adding(int256,int256,int256,int256)": "8784b800"
		}
	},
	"abi": [
		{
			"inputs": [
				{
					"internalType": "int256",
					"name": "a",
					"type": "int256"
				},
				{
					"internalType": "int256",
					"name": "b",
					"type": "int256"
				},
				{
					"internalType": "int256",
					"name": "c",
					"type": "int256"
				},
				{
					"internalType": "int256",
					"name": "d",
					"type": "int256"
				}
			],
			"name": "adding",
			"outputs": [
				{
					"internalType": "int256",
					"name": "",
					"type": "int256"
				}
			],
			"stateMutability": "pure",
			"type": "function"
		}
	]
}