{
	"data": {
		"bytecode": {
			"linkReferences": {},
			"object": "6101fc61004e600b8282823980515f1a607314610042577f4e487b71000000000000000000000000000000000000000000000000000000005f525f60045260245ffd5b305f52607381538281f3fe7300000000000000000000000000000000000000003014608060405260043610610034575f3560e01c80636271f50e14610038575b5f80fd5b610052600480360381019061004d91906100cc565b610068565b60405161005f919061013f565b60405180910390f35b5f818385876100779190610185565b6100819190610185565b61008b9190610185565b9050949350505050565b5f80fd5b5f819050919050565b6100ab81610099565b81146100b5575f80fd5b50565b5f813590506100c6816100a2565b92915050565b5f805f80608085870312156100e4576100e3610095565b5b5f6100f1878288016100b8565b9450506020610102878288016100b8565b9350506040610113878288016100b8565b9250506060610124878288016100b8565b91505092959194509250565b61013981610099565b82525050565b5f6020820190506101525f830184610130565b92915050565b7f4e487b71000000000000000000000000000000000000000000000000000000005f52601160045260245ffd5b5f61018f82610099565b915061019a83610099565b92508282019050828112155f8312168382125f8412151617156101c0576101bf610158565b5b9291505056fea26469706673582212206350c0f5c0910e05919a77a397929ab0746dfae85ab302a5f6b54ae8e781c07e64736f6c63430008160033",
			"opcodes": "PUSH2 0x1FC PUSH2 0x4E PUSH1 0xB DUP3 DUP3 DUP3 CODECOPY DUP1 MLOAD PUSH0 BYTE PUSH1 0x73 EQ PUSH2 0x42 JUMPI PUSH32 0x4E487B7100000000000000000000000000000000000000000000000000000000 PUSH0 MSTORE PUSH0 PUSH1 0x4 MSTORE PUSH1 0x24 PUSH0 REVERT JUMPDEST ADDRESS PUSH0 MSTORE PUSH1 0x73 DUP2 MSTORE8 DUP3 DUP2 RETURN INVALID PUSH20 0x0 ADDRESS EQ PUSH1 0x80 PUSH1 0x40 MSTORE PUSH1 0x4 CALLDATASIZE LT PUSH2 0x34 JUMPI PUSH0 CALLDATALOAD PUSH1 0xE0 SHR DUP1 PUSH4 0x6271F50E EQ PUSH2 0x38 JUMPI JUMPDEST PUSH0 DUP1 REVERT JUMPDEST PUSH2 0x52 PUSH1 0x4 DUP1 CALLDATASIZE SUB DUP2 ADD SWAP1 PUSH2 0x4D SWAP2 SWAP1 PUSH2 0xCC JUMP JUMPDEST PUSH2 0x68 JUMP JUMPDEST PUSH1 0x40 MLOAD PUSH2 0x5F SWAP2 SWAP1 PUSH2 0x13F JUMP JUMPDEST PUSH1 0x40 MLOAD DUP1 SWAP2 SUB SWAP1 RETURN JUMPDEST PUSH0 DUP2 DUP4 DUP6 DUP8 PUSH2 0x77 SWAP2 SWAP1 PUSH2 0x185 JUMP JUMPDEST PUSH2 0x81 SWAP2 SWAP1 PUSH2 0x185 JUMP JUMPDEST PUSH2 0x8B SWAP2 SWAP1 PUSH2 0x185 JUMP JUMPDEST SWAP1 POP SWAP5 SWAP4 POP POP POP POP JUMP JUMPDEST PUSH0 DUP1 REVERT JUMPDEST PUSH0 DUP2 SWAP1 POP SWAP2 SWAP1 POP JUMP JUMPDEST PUSH2 0xAB DUP2 PUSH2 0x99 JUMP JUMPDEST DUP2 EQ PUSH2 0xB5 JUMPI PUSH0 DUP1 REVERT JUMPDEST POP JUMP JUMPDEST PUSH0 DUP2 CALLDATALOAD SWAP1 POP PUSH2 0xC6 DUP2 PUSH2 0xA2 JUMP JUMPDEST SWAP3 SWAP2 POP POP JUMP JUMPDEST PUSH0 DUP1 PUSH0 DUP1 PUSH1 0x80 DUP6 DUP8 SUB SLT ISZERO PUSH2 0xE4 JUMPI PUSH2 0xE3 PUSH2 0x95 JUMP JUMPDEST JUMPDEST PUSH0 PUSH2 0xF1 DUP8 DUP3 DUP9 ADD PUSH2 0xB8 JUMP JUMPDEST SWAP5 POP POP PUSH1 0x20 PUSH2 0x102 DUP8 DUP3 DUP9 ADD PUSH2 0xB8 JUMP JUMPDEST SWAP4 POP POP PUSH1 0x40 PUSH2 0x113 DUP8 DUP3 DUP9 ADD PUSH2 0xB8 JUMP JUMPDEST SWAP3 POP POP PUSH1 0x60 PUSH2 0x124 DUP8 DUP3 DUP9 ADD PUSH2 0xB8 JUMP JUMPDEST SWAP2 POP POP SWAP3 SWAP6 SWAP2 SWAP5 POP SWAP3 POP JUMP JUMPDEST PUSH2 0x139 DUP2 PUSH2 0x99 JUMP JUMPDEST DUP3 MSTORE POP POP JUMP JUMPDEST PUSH0 PUSH1 0x20 DUP3 ADD SWAP1 POP PUSH2 0x152 PUSH0 DUP4 ADD DUP5 PUSH2 0x130 JUMP JUMPDEST SWAP3 SWAP2 POP POP JUMP JUMPDEST PUSH32 0x4E487B7100000000000000000000000000000000000000000000000000000000 PUSH0 MSTORE PUSH1 0x11 PUSH1 0x4 MSTORE PUSH1 0x24 PUSH0 REVERT JUMPDEST PUSH0 PUSH2 0x18F DUP3 PUSH2 0x99 JUMP JUMPDEST SWAP2 POP PUSH2 0x19A DUP4 PUSH2 0x99 JUMP JUMPDEST SWAP3 POP DUP3 DUP3 ADD SWAP1 POP DUP3 DUP2 SLT ISZERO PUSH0 DUP4 SLT AND DUP4 DUP3 SLT PUSH0 DUP5 SLT ISZERO AND OR ISZERO PUSH2 0x1C0 JUMPI PUSH2 0x1BF PUSH2 0x158 JUMP JUMPDEST JUMPDEST SWAP3 SWAP2 POP POP JUMP INVALID LOG2 PUSH5 0x6970667358 0x22 SLT KECCAK256 PUSH4 0x50C0F5C0 SWAP2 0xE SDIV SWAP2 SWAP11 PUSH24 0xA397929AB0746DFAE85AB302A5F6B54AE8E781C07E64736F PUSH13 0x63430008160033000000000000 "
		},
		"gasEstimates": {
			"creation": {
				"codeDepositCost": "101600",
				"executionCost": "173",
				"totalCost": "101773"
			},
			"external": {
				"add(int256,int256,int256,int256)": "infinite"
			}
		},
		"methodIdentifiers": {
			"add(int256,int256,int256,int256)": "6271f50e"
		}
	},
	"abi": [
		{
			"inputs": [
				{
					"internalType": "int256",
					"name": "a",
					"type": "int256"
				},
				{
					"internalType": "int256",
					"name": "b",
					"type": "int256"
				},
				{
					"internalType": "int256",
					"name": "c",
					"type": "int256"
				},
				{
					"internalType": "int256",
					"name": "d",
					"type": "int256"
				}
			],
			"name": "add",
			"outputs": [
				{
					"internalType": "int256",
					"name": "",
					"type": "int256"
				}
			],
			"stateMutability": "pure",
			"type": "function"
		}
	]
}