{
	"data": {
		"bytecode": {
			"linkReferences": {},
			"object": "608060405234801561000f575f80fd5b506106548061001d5f395ff3fe608060405234801561000f575f80fd5b506004361061003f575f3560e01c80631b86d170146100435780633e8a80091461005f57806357e2c79d1461007b575b5f80fd5b61005d60048036038101906100589190610276565b610097565b005b610079600480360381019061007491906102d0565b6100c4565b005b61009560048036038101906100909190610317565b6100d6565b005b815f90816100a5919061054f565b508060015f6101000a81548160ff021916908360ff1602179055505050565b805f90816100d2919061054f565b5050565b8060015f6101000a81548160ff021916908360ff16021790555050565b5f604051905090565b5f80fd5b5f80fd5b5f80fd5b5f80fd5b5f601f19601f8301169050919050565b7f4e487b71000000000000000000000000000000000000000000000000000000005f52604160045260245ffd5b6101528261010c565b810181811067ffffffffffffffff821117156101715761017061011c565b5b80604052505050565b5f6101836100f3565b905061018f8282610149565b919050565b5f67ffffffffffffffff8211156101ae576101ad61011c565b5b6101b78261010c565b9050602081019050919050565b828183375f83830152505050565b5f6101e46101df84610194565b61017a565b905082815260208101848484011115610200576101ff610108565b5b61020b8482856101c4565b509392505050565b5f82601f83011261022757610226610104565b5b81356102378482602086016101d2565b91505092915050565b5f60ff82169050919050565b61025581610240565b811461025f575f80fd5b50565b5f813590506102708161024c565b92915050565b5f806040838503121561028c5761028b6100fc565b5b5f83013567ffffffffffffffff8111156102a9576102a8610100565b5b6102b585828601610213565b92505060206102c685828601610262565b9150509250929050565b5f602082840312156102e5576102e46100fc565b5b5f82013567ffffffffffffffff81111561030257610301610100565b5b61030e84828501610213565b91505092915050565b5f6020828403121561032c5761032b6100fc565b5b5f61033984828501610262565b91505092915050565b5f81519050919050565b7f4e487b71000000000000000000000000000000000000000000000000000000005f52602260045260245ffd5b5f600282049050600182168061039057607f821691505b6020821081036103a3576103a261034c565b5b50919050565b5f819050815f5260205f209050919050565b5f6020601f8301049050919050565b5f82821b905092915050565b5f600883026104057fffffffffffffffffffffffffffffffffffffffffffffffffffffffffffffffff826103ca565b61040f86836103ca565b95508019841693508086168417925050509392505050565b5f819050919050565b5f819050919050565b5f61045361044e61044984610427565b610430565b610427565b9050919050565b5f819050919050565b61046c83610439565b6104806104788261045a565b8484546103d6565b825550505050565b5f90565b610494610488565b61049f818484610463565b505050565b5b818110156104c2576104b75f8261048c565b6001810190506104a5565b5050565b601f821115610507576104d8816103a9565b6104e1846103bb565b810160208510156104f0578190505b6105046104fc856103bb565b8301826104a4565b50505b505050565b5f82821c905092915050565b5f6105275f198460080261050c565b1980831691505092915050565b5f61053f8383610518565b9150826002028217905092915050565b61055882610342565b67ffffffffffffffff8111156105715761057061011c565b5b61057b8254610379565b6105868282856104c6565b5f60209050601f8311600181146105b7575f84156105a5578287015190505b6105af8582610534565b865550610616565b601f1984166105c5866103a9565b5f5b828110156105ec578489015182556001820191506020850194506020810190506105c7565b868310156106095784890151610605601f891682610518565b8355505b6001600288020188555050505b50505050505056fea264697066735822122093aae8290bac1ab2ff2d1dab92154f8ad1baa44c9afb55ff6cc7bcfe60c4257264736f6c63430008160033",
			"opcodes": "PUSH1 0x80 PUSH1 0x40 MSTORE CALLVALUE DUP1 ISZERO PUSH2 0xF JUMPI PUSH0 DUP1 REVERT JUMPDEST POP PUSH2 0x654 DUP1 PUSH2 0x1D PUSH0 CODECOPY PUSH0 RETURN INVALID PUSH1 0x80 PUSH1 0x40 MSTORE CALLVALUE DUP1 ISZERO PUSH2 0xF JUMPI PUSH0 DUP1 REVERT JUMPDEST POP PUSH1 0x4 CALLDATASIZE LT PUSH2 0x3F JUMPI PUSH0 CALLDATALOAD PUSH1 0xE0 SHR DUP1 PUSH4 0x1B86D170 EQ PUSH2 0x43 JUMPI DUP1 PUSH4 0x3E8A8009 EQ PUSH2 0x5F JUMPI DUP1 PUSH4 0x57E2C79D EQ PUSH2 0x7B JUMPI JUMPDEST PUSH0 DUP1 REVERT JUMPDEST PUSH2 0x5D PUSH1 0x4 DUP1 CALLDATASIZE SUB DUP2 ADD SWAP1 PUSH2 0x58 SWAP2 SWAP1 PUSH2 0x276 JUMP JUMPDEST PUSH2 0x97 JUMP JUMPDEST STOP JUMPDEST PUSH2 0x79 PUSH1 0x4 DUP1 CALLDATASIZE SUB DUP2 ADD SWAP1 PUSH2 0x74 SWAP2 SWAP1 PUSH2 0x2D0 JUMP JUMPDEST PUSH2 0xC4 JUMP JUMPDEST STOP JUMPDEST PUSH2 0x95 PUSH1 0x4 DUP1 CALLDATASIZE SUB DUP2 ADD SWAP1 PUSH2 0x90 SWAP2 SWAP1 PUSH2 0x317 JUMP JUMPDEST PUSH2 0xD6 JUMP JUMPDEST STOP JUMPDEST DUP2 PUSH0 SWAP1 DUP2 PUSH2 0xA5 SWAP2 SWAP1 PUSH2 0x54F JUMP JUMPDEST POP DUP1 PUSH1 0x1 PUSH0 PUSH2 0x100 EXP DUP2 SLOAD DUP2 PUSH1 0xFF MUL NOT AND SWAP1 DUP4 PUSH1 0xFF AND MUL OR SWAP1 SSTORE POP POP POP JUMP JUMPDEST DUP1 PUSH0 SWAP1 DUP2 PUSH2 0xD2 SWAP2 SWAP1 PUSH2 0x54F JUMP JUMPDEST POP POP JUMP JUMPDEST DUP1 PUSH1 0x1 PUSH0 PUSH2 0x100 EXP DUP2 SLOAD DUP2 PUSH1 0xFF MUL NOT AND SWAP1 DUP4 PUSH1 0xFF AND MUL OR SWAP1 SSTORE POP POP JUMP JUMPDEST PUSH0 PUSH1 0x40 MLOAD SWAP1 POP SWAP1 JUMP JUMPDEST PUSH0 DUP1 REVERT JUMPDEST PUSH0 DUP1 REVERT JUMPDEST PUSH0 DUP1 REVERT JUMPDEST PUSH0 DUP1 REVERT JUMPDEST PUSH0 PUSH1 0x1F NOT PUSH1 0x1F DUP4 ADD AND SWAP1 POP SWAP2 SWAP1 POP JUMP JUMPDEST PUSH32 0x4E487B7100000000000000000000000000000000000000000000000000000000 PUSH0 MSTORE PUSH1 0x41 PUSH1 0x4 MSTORE PUSH1 0x24 PUSH0 REVERT JUMPDEST PUSH2 0x152 DUP3 PUSH2 0x10C JUMP JUMPDEST DUP2 ADD DUP2 DUP2 LT PUSH8 0xFFFFFFFFFFFFFFFF DUP3 GT OR ISZERO PUSH2 0x171 JUMPI PUSH2 0x170 PUSH2 0x11C JUMP JUMPDEST JUMPDEST DUP1 PUSH1 0x40 MSTORE POP POP POP JUMP JUMPDEST PUSH0 PUSH2 0x183 PUSH2 0xF3 JUMP JUMPDEST SWAP1 POP PUSH2 0x18F DUP3 DUP3 PUSH2 0x149 JUMP JUMPDEST SWAP2 SWAP1 POP JUMP JUMPDEST PUSH0 PUSH8 0xFFFFFFFFFFFFFFFF DUP3 GT ISZERO PUSH2 0x1AE JUMPI PUSH2 0x1AD PUSH2 0x11C JUMP JUMPDEST JUMPDEST PUSH2 0x1B7 DUP3 PUSH2 0x10C JUMP JUMPDEST SWAP1 POP PUSH1 0x20 DUP2 ADD SWAP1 POP SWAP2 SWAP1 POP JUMP JUMPDEST DUP3 DUP2 DUP4 CALLDATACOPY PUSH0 DUP4 DUP4 ADD MSTORE POP POP POP JUMP JUMPDEST PUSH0 PUSH2 0x1E4 PUSH2 0x1DF DUP5 PUSH2 0x194 JUMP JUMPDEST PUSH2 0x17A JUMP JUMPDEST SWAP1 POP DUP3 DUP2 MSTORE PUSH1 0x20 DUP2 ADD DUP5 DUP5 DUP5 ADD GT ISZERO PUSH2 0x200 JUMPI PUSH2 0x1FF PUSH2 0x108 JUMP JUMPDEST JUMPDEST PUSH2 0x20B DUP5 DUP3 DUP6 PUSH2 0x1C4 JUMP JUMPDEST POP SWAP4 SWAP3 POP POP POP JUMP JUMPDEST PUSH0 DUP3 PUSH1 0x1F DUP4 ADD SLT PUSH2 0x227 JUMPI PUSH2 0x226 PUSH2 0x104 JUMP JUMPDEST JUMPDEST DUP2 CALLDATALOAD PUSH2 0x237 DUP5 DUP3 PUSH1 0x20 DUP7 ADD PUSH2 0x1D2 JUMP JUMPDEST SWAP2 POP POP SWAP3 SWAP2 POP POP JUMP JUMPDEST PUSH0 PUSH1 0xFF DUP3 AND SWAP1 POP SWAP2 SWAP1 POP JUMP JUMPDEST PUSH2 0x255 DUP2 PUSH2 0x240 JUMP JUMPDEST DUP2 EQ PUSH2 0x25F JUMPI PUSH0 DUP1 REVERT JUMPDEST POP JUMP JUMPDEST PUSH0 DUP2 CALLDATALOAD SWAP1 POP PUSH2 0x270 DUP2 PUSH2 0x24C JUMP JUMPDEST SWAP3 SWAP2 POP POP JUMP JUMPDEST PUSH0 DUP1 PUSH1 0x40 DUP4 DUP6 SUB SLT ISZERO PUSH2 0x28C JUMPI PUSH2 0x28B PUSH2 0xFC JUMP JUMPDEST JUMPDEST PUSH0 DUP4 ADD CALLDATALOAD PUSH8 0xFFFFFFFFFFFFFFFF DUP2 GT ISZERO PUSH2 0x2A9 JUMPI PUSH2 0x2A8 PUSH2 0x100 JUMP JUMPDEST JUMPDEST PUSH2 0x2B5 DUP6 DUP3 DUP7 ADD PUSH2 0x213 JUMP JUMPDEST SWAP3 POP POP PUSH1 0x20 PUSH2 0x2C6 DUP6 DUP3 DUP7 ADD PUSH2 0x262 JUMP JUMPDEST SWAP2 POP POP SWAP3 POP SWAP3 SWAP1 POP JUMP JUMPDEST PUSH0 PUSH1 0x20 DUP3 DUP5 SUB SLT ISZERO PUSH2 0x2E5 JUMPI PUSH2 0x2E4 PUSH2 0xFC JUMP JUMPDEST JUMPDEST PUSH0 DUP3 ADD CALLDATALOAD PUSH8 0xFFFFFFFFFFFFFFFF DUP2 GT ISZERO PUSH2 0x302 JUMPI PUSH2 0x301 PUSH2 0x100 JUMP JUMPDEST JUMPDEST PUSH2 0x30E DUP5 DUP3 DUP6 ADD PUSH2 0x213 JUMP JUMPDEST SWAP2 POP POP SWAP3 SWAP2 POP POP JUMP JUMPDEST PUSH0 PUSH1 0x20 DUP3 DUP5 SUB SLT ISZERO PUSH2 0x32C JUMPI PUSH2 0x32B PUSH2 0xFC JUMP JUMPDEST JUMPDEST PUSH0 PUSH2 0x339 DUP5 DUP3 DUP6 ADD PUSH2 0x262 JUMP JUMPDEST SWAP2 POP POP SWAP3 SWAP2 POP POP JUMP JUMPDEST PUSH0 DUP2 MLOAD SWAP1 POP SWAP2 SWAP1 POP JUMP JUMPDEST PUSH32 0x4E487B7100000000000000000000000000000000000000000000000000000000 PUSH0 MSTORE PUSH1 0x22 PUSH1 0x4 MSTORE PUSH1 0x24 PUSH0 REVERT JUMPDEST PUSH0 PUSH1 0x2 DUP3 DIV SWAP1 POP PUSH1 0x1 DUP3 AND DUP1 PUSH2 0x390 JUMPI PUSH1 0x7F DUP3 AND SWAP2 POP JUMPDEST PUSH1 0x20 DUP3 LT DUP2 SUB PUSH2 0x3A3 JUMPI PUSH2 0x3A2 PUSH2 0x34C JUMP JUMPDEST JUMPDEST POP SWAP2 SWAP1 POP JUMP JUMPDEST PUSH0 DUP2 SWAP1 POP DUP2 PUSH0 MSTORE PUSH1 0x20 PUSH0 KECCAK256 SWAP1 POP SWAP2 SWAP1 POP JUMP JUMPDEST PUSH0 PUSH1 0x20 PUSH1 0x1F DUP4 ADD DIV SWAP1 POP SWAP2 SWAP1 POP JUMP JUMPDEST PUSH0 DUP3 DUP3 SHL SWAP1 POP SWAP3 SWAP2 POP POP JUMP JUMPDEST PUSH0 PUSH1 0x8 DUP4 MUL PUSH2 0x405 PUSH32 0xFFFFFFFFFFFFFFFFFFFFFFFFFFFFFFFFFFFFFFFFFFFFFFFFFFFFFFFFFFFFFFFF DUP3 PUSH2 0x3CA JUMP JUMPDEST PUSH2 0x40F DUP7 DUP4 PUSH2 0x3CA JUMP JUMPDEST SWAP6 POP DUP1 NOT DUP5 AND SWAP4 POP DUP1 DUP7 AND DUP5 OR SWAP3 POP POP POP SWAP4 SWAP3 POP POP POP JUMP JUMPDEST PUSH0 DUP2 SWAP1 POP SWAP2 SWAP1 POP JUMP JUMPDEST PUSH0 DUP2 SWAP1 POP SWAP2 SWAP1 POP JUMP JUMPDEST PUSH0 PUSH2 0x453 PUSH2 0x44E PUSH2 0x449 DUP5 PUSH2 0x427 JUMP JUMPDEST PUSH2 0x430 JUMP JUMPDEST PUSH2 0x427 JUMP JUMPDEST SWAP1 POP SWAP2 SWAP1 POP JUMP JUMPDEST PUSH0 DUP2 SWAP1 POP SWAP2 SWAP1 POP JUMP JUMPDEST PUSH2 0x46C DUP4 PUSH2 0x439 JUMP JUMPDEST PUSH2 0x480 PUSH2 0x478 DUP3 PUSH2 0x45A JUMP JUMPDEST DUP5 DUP5 SLOAD PUSH2 0x3D6 JUMP JUMPDEST DUP3 SSTORE POP POP POP POP JUMP JUMPDEST PUSH0 SWAP1 JUMP JUMPDEST PUSH2 0x494 PUSH2 0x488 JUMP JUMPDEST PUSH2 0x49F DUP2 DUP5 DUP5 PUSH2 0x463 JUMP JUMPDEST POP POP POP JUMP JUMPDEST JUMPDEST DUP2 DUP2 LT ISZERO PUSH2 0x4C2 JUMPI PUSH2 0x4B7 PUSH0 DUP3 PUSH2 0x48C JUMP JUMPDEST PUSH1 0x1 DUP2 ADD SWAP1 POP PUSH2 0x4A5 JUMP JUMPDEST POP POP JUMP JUMPDEST PUSH1 0x1F DUP3 GT ISZERO PUSH2 0x507 JUMPI PUSH2 0x4D8 DUP2 PUSH2 0x3A9 JUMP JUMPDEST PUSH2 0x4E1 DUP5 PUSH2 0x3BB JUMP JUMPDEST DUP2 ADD PUSH1 0x20 DUP6 LT ISZERO PUSH2 0x4F0 JUMPI DUP2 SWAP1 POP JUMPDEST PUSH2 0x504 PUSH2 0x4FC DUP6 PUSH2 0x3BB JUMP JUMPDEST DUP4 ADD DUP3 PUSH2 0x4A4 JUMP JUMPDEST POP POP JUMPDEST POP POP POP JUMP JUMPDEST PUSH0 DUP3 DUP3 SHR SWAP1 POP SWAP3 SWAP2 POP POP JUMP JUMPDEST PUSH0 PUSH2 0x527 PUSH0 NOT DUP5 PUSH1 0x8 MUL PUSH2 0x50C JUMP JUMPDEST NOT DUP1 DUP4 AND SWAP2 POP POP SWAP3 SWAP2 POP POP JUMP JUMPDEST PUSH0 PUSH2 0x53F DUP4 DUP4 PUSH2 0x518 JUMP JUMPDEST SWAP2 POP DUP3 PUSH1 0x2 MUL DUP3 OR SWAP1 POP SWAP3 SWAP2 POP POP JUMP JUMPDEST PUSH2 0x558 DUP3 PUSH2 0x342 JUMP JUMPDEST PUSH8 0xFFFFFFFFFFFFFFFF DUP2 GT ISZERO PUSH2 0x571 JUMPI PUSH2 0x570 PUSH2 0x11C JUMP JUMPDEST JUMPDEST PUSH2 0x57B DUP3 SLOAD PUSH2 0x379 JUMP JUMPDEST PUSH2 0x586 DUP3 DUP3 DUP6 PUSH2 0x4C6 JUMP JUMPDEST PUSH0 PUSH1 0x20 SWAP1 POP PUSH1 0x1F DUP4 GT PUSH1 0x1 DUP2 EQ PUSH2 0x5B7 JUMPI PUSH0 DUP5 ISZERO PUSH2 0x5A5 JUMPI DUP3 DUP8 ADD MLOAD SWAP1 POP JUMPDEST PUSH2 0x5AF DUP6 DUP3 PUSH2 0x534 JUMP JUMPDEST DUP7 SSTORE POP PUSH2 0x616 JUMP JUMPDEST PUSH1 0x1F NOT DUP5 AND PUSH2 0x5C5 DUP7 PUSH2 0x3A9 JUMP JUMPDEST PUSH0 JUMPDEST DUP3 DUP2 LT ISZERO PUSH2 0x5EC JUMPI DUP5 DUP10 ADD MLOAD DUP3 SSTORE PUSH1 0x1 DUP3 ADD SWAP2 POP PUSH1 0x20 DUP6 ADD SWAP5 POP PUSH1 0x20 DUP2 ADD SWAP1 POP PUSH2 0x5C7 JUMP JUMPDEST DUP7 DUP4 LT ISZERO PUSH2 0x609 JUMPI DUP5 DUP10 ADD MLOAD PUSH2 0x605 PUSH1 0x1F DUP10 AND DUP3 PUSH2 0x518 JUMP JUMPDEST DUP4 SSTORE POP JUMPDEST PUSH1 0x1 PUSH1 0x2 DUP9 MUL ADD DUP9 SSTORE POP POP POP JUMPDEST POP POP POP POP POP POP JUMP INVALID LOG2 PUSH5 0x6970667358 0x22 SLT KECCAK256 SWAP4 0xAA 0xE8 0x29 SIGNEXTEND 0xAC BYTE 0xB2 SELFDESTRUCT 0x2D SAR 0xAB SWAP3 ISZERO 0x4F DUP11 0xD1 0xBA LOG4 0x4C SWAP11 0xFB SSTORE SELFDESTRUCT PUSH13 0xC7BCFE60C4257264736F6C6343 STOP ADDMOD AND STOP CALLER "
		},
		"gasEstimates": {
			"creation": {
				"codeDepositCost": "324000",
				"executionCost": "360",
				"totalCost": "324360"
			},
			"external": {
				"setDetails(string)": "infinite",
				"setDetails(string,uint8)": "infinite",
				"setDetails(uint8)": "24695"
			}
		},
		"methodIdentifiers": {
			"setDetails(string)": "3e8a8009",
			"setDetails(string,uint8)": "1b86d170",
			"setDetails(uint8)": "57e2c79d"
		}
	},
	"abi": [
		{
			"inputs": [
				{
					"internalType": "string",
					"name": "_name",
					"type": "string"
				},
				{
					"internalType": "uint8",
					"name": "_age",
					"type": "uint8"
				}
			],
			"name": "setDetails",
			"outputs": [],
			"stateMutability": "nonpayable",
			"type": "function"
		},
		{
			"inputs": [
				{
					"internalType": "string",
					"name": "_name",
					"type": "string"
				}
			],
			"name": "setDetails",
			"outputs": [],
			"stateMutability": "nonpayable",
			"type": "function"
		},
		{
			"inputs": [
				{
					"internalType": "uint8",
					"name": "_age",
					"type": "uint8"
				}
			],
			"name": "setDetails",
			"outputs": [],
			"stateMutability": "nonpayable",
			"type": "function"
		}
	]
}