{
	"data": {
		"bytecode": {
			"linkReferences": {},
			"object": "608060405260645f55348015610013575f80fd5b50610174806100215f395ff3fe608060405234801561000f575f80fd5b5060043610610029575f3560e01c8063454a2ab31461002d575b5f80fd5b610047600480360381019061004291906100e0565b61005d565b6040516100549190610125565b60405180910390f35b5f80548211156100a0577f6a1fe2e35f595f2851d0555726d14b8221f6eb6f45ff0d6d4a7b7fa2e5f2086460016040516100979190610125565b60405180910390a15b60019050919050565b5f80fd5b5f819050919050565b6100bf816100ad565b81146100c9575f80fd5b50565b5f813590506100da816100b6565b92915050565b5f602082840312156100f5576100f46100a9565b5b5f610102848285016100cc565b91505092915050565b5f8115159050919050565b61011f8161010b565b82525050565b5f6020820190506101385f830184610116565b9291505056fea264697066735822122035eed6e78b5f904acac01ee7d3cacd7ae7782daba7392608524c5651b4a2aa8264736f6c63430008160033",
			"opcodes": "PUSH1 0x80 PUSH1 0x40 MSTORE PUSH1 0x64 PUSH0 SSTORE CALLVALUE DUP1 ISZERO PUSH2 0x13 JUMPI PUSH0 DUP1 REVERT JUMPDEST POP PUSH2 0x174 DUP1 PUSH2 0x21 PUSH0 CODECOPY PUSH0 RETURN INVALID PUSH1 0x80 PUSH1 0x40 MSTORE CALLVALUE DUP1 ISZERO PUSH2 0xF JUMPI PUSH0 DUP1 REVERT JUMPDEST POP PUSH1 0x4 CALLDATASIZE LT PUSH2 0x29 JUMPI PUSH0 CALLDATALOAD PUSH1 0xE0 SHR DUP1 PUSH4 0x454A2AB3 EQ PUSH2 0x2D JUMPI JUMPDEST PUSH0 DUP1 REVERT JUMPDEST PUSH2 0x47 PUSH1 0x4 DUP1 CALLDATASIZE SUB DUP2 ADD SWAP1 PUSH2 0x42 SWAP2 SWAP1 PUSH2 0xE0 JUMP JUMPDEST PUSH2 0x5D JUMP JUMPDEST PUSH1 0x40 MLOAD PUSH2 0x54 SWAP2 SWAP1 PUSH2 0x125 JUMP JUMPDEST PUSH1 0x40 MLOAD DUP1 SWAP2 SUB SWAP1 RETURN JUMPDEST PUSH0 DUP1 SLOAD DUP3 GT ISZERO PUSH2 0xA0 JUMPI PUSH32 0x6A1FE2E35F595F2851D0555726D14B8221F6EB6F45FF0D6D4A7B7FA2E5F20864 PUSH1 0x1 PUSH1 0x40 MLOAD PUSH2 0x97 SWAP2 SWAP1 PUSH2 0x125 JUMP JUMPDEST PUSH1 0x40 MLOAD DUP1 SWAP2 SUB SWAP1 LOG1 JUMPDEST PUSH1 0x1 SWAP1 POP SWAP2 SWAP1 POP JUMP JUMPDEST PUSH0 DUP1 REVERT JUMPDEST PUSH0 DUP2 SWAP1 POP SWAP2 SWAP1 POP JUMP JUMPDEST PUSH2 0xBF DUP2 PUSH2 0xAD JUMP JUMPDEST DUP2 EQ PUSH2 0xC9 JUMPI PUSH0 DUP1 REVERT JUMPDEST POP JUMP JUMPDEST PUSH0 DUP2 CALLDATALOAD SWAP1 POP PUSH2 0xDA DUP2 PUSH2 0xB6 JUMP JUMPDEST SWAP3 SWAP2 POP POP JUMP JUMPDEST PUSH0 PUSH1 0x20 DUP3 DUP5 SUB SLT ISZERO PUSH2 0xF5 JUMPI PUSH2 0xF4 PUSH2 0xA9 JUMP JUMPDEST JUMPDEST PUSH0 PUSH2 0x102 DUP5 DUP3 DUP6 ADD PUSH2 0xCC JUMP JUMPDEST SWAP2 POP POP SWAP3 SWAP2 POP POP JUMP JUMPDEST PUSH0 DUP2 ISZERO ISZERO SWAP1 POP SWAP2 SWAP1 POP JUMP JUMPDEST PUSH2 0x11F DUP2 PUSH2 0x10B JUMP JUMPDEST DUP3 MSTORE POP POP JUMP JUMPDEST PUSH0 PUSH1 0x20 DUP3 ADD SWAP1 POP PUSH2 0x138 PUSH0 DUP4 ADD DUP5 PUSH2 0x116 JUMP JUMPDEST SWAP3 SWAP2 POP POP JUMP INVALID LOG2 PUSH5 0x6970667358 0x22 SLT KECCAK256 CALLDATALOAD 0xEE 0xD6 0xE7 DUP12 PUSH0 SWAP1 0x4A 0xCA 0xC0 0x1E 0xE7 0xD3 0xCA 0xCD PUSH27 0xE7782DABA7392608524C5651B4A2AA8264736F6C63430008160033 "
		},
		"gasEstimates": {
			"creation": {
				"codeDepositCost": "74400",
				"executionCost": "22226",
				"totalCost": "96626"
			},
			"external": {
				"bid(uint256)": "infinite"
			}
		},
		"methodIdentifiers": {
			"bid(uint256)": "454a2ab3"
		}
	},
	"abi": [
		{
			"anonymous": false,
			"inputs": [
				{
					"indexed": false,
					"internalType": "bool",
					"name": "returnvalue",
					"type": "bool"
				}
			],
			"name": "priceEvent",
			"type": "event"
		},
		{
			"inputs": [
				{
					"internalType": "uint256",
					"name": "_amount",
					"type": "uint256"
				}
			],
			"name": "bid",
			"outputs": [
				{
					"internalType": "bool",
					"name": "",
					"type": "bool"
				}
			],
			"stateMutability": "nonpayable",
			"type": "function"
		}
	]
}