{
	"data": {
		"bytecode": {
			"linkReferences": {},
			"object": "60806040525f6001555f6002555f60035534801561001b575f80fd5b50335f806101000a81548173ffffffffffffffffffffffffffffffffffffffff021916908373ffffffffffffffffffffffffffffffffffffffff160217905550612488806100685f395ff3fe608060405234801561000f575f80fd5b50600436106100b2575f3560e01c8063cc7fa2201161006f578063cc7fa22014610172578063ce606ee0146101a5578063d5cfcb06146101c3578063dcd0c2b2146101f6578063eddf377414610212578063f770da3a14610245576100b2565b806346216098146100b65780635ef2322d146100d257806375f49529146100ee578063791264ad1461010a578063a9ed3ff91461013a578063ba5e7f7f14610156575b5f80fd5b6100d060048036038101906100cb9190611627565b610266565b005b6100ec60048036038101906100e791906116fe565b61043b565b005b61010860048036038101906101039190611758565b6105a2565b005b610124600480360381019061011f919061187d565b6106e9565b604051610131919061195f565b60405180910390f35b610154600480360381019061014f919061197f565b610814565b005b610170600480360381019061016b91906119c6565b61091c565b005b61018c600480360381019061018791906119c6565b6109f9565b60405161019c9493929190611a7a565b60405180910390f35b6101ad610c5d565b6040516101ba9190611ae1565b60405180910390f35b6101dd60048036038101906101d891906119c6565b610c80565b6040516101ed9493929190611afa565b60405180910390f35b610210600480360381019061020b9190611b52565b610ee3565b005b61022c600480360381019061022791906119c6565b611040565b60405161023c9493929190611c93565b60405180910390f35b61024d61125d565b60405161025d9493929190611c93565b60405180910390f35b5f60085f3373ffffffffffffffffffffffffffffffffffffffff1673ffffffffffffffffffffffffffffffffffffffff1681526020019081526020015f2054146102e5576040517f08c379a00000000000000000000000000000000000000000000000000000000081526004016102dc90611d54565b60405180910390fd5b5f600180546102f49190611d9f565b90508060045f8381526020019081526020015f205f01819055508360045f8381526020019081526020015f20600101908161032f9190611fcc565b508260045f8381526020019081526020015f2060020190816103519190611fcc565b508160045f8381526020019081526020015f2060030190816103739190611fcc565b503360045f8381526020019081526020015f2060040160016101000a81548173ffffffffffffffffffffffffffffffffffffffff021916908373ffffffffffffffffffffffffffffffffffffffff160217905550600160045f8381526020019081526020015f206004015f6101000a81548160ff0219169083151502179055508060085f3373ffffffffffffffffffffffffffffffffffffffff1673ffffffffffffffffffffffffffffffffffffffff1681526020019081526020015f208190555050505050565b5f60075f3373ffffffffffffffffffffffffffffffffffffffff1673ffffffffffffffffffffffffffffffffffffffff1681526020019081526020015f2054146104ba576040517f08c379a00000000000000000000000000000000000000000000000000000000081526004016104b19061210b565b60405180910390fd5b5f60016002546104ca9190611d9f565b90508060055f8381526020019081526020015f205f01819055508260055f8381526020019081526020015f2060010190816105059190611fcc565b508160055f8381526020019081526020015f2060020181905550600160055f8381526020019081526020015f206006015f6101000a81548160ff0219169083151502179055503360055f8381526020019081526020015f206004015f6101000a81548173ffffffffffffffffffffffffffffffffffffffff021916908373ffffffffffffffffffffffffffffffffffffffff160217905550505050565b5f151560065f8781526020019081526020015f206005015f9054906101000a900460ff16151514610608576040517f08c379a00000000000000000000000000000000000000000000000000000000081526004016105ff90612173565b60405180910390fd5b60035f81548092919061061a90612191565b91905055508460065f8781526020019081526020015f205f01819055508360065f8781526020019081526020015f2060010190816106589190611fcc565b508260065f8781526020019081526020015f20600201908161067a9190611fcc565b508160065f8781526020019081526020015f20600301908161069c9190611fcc565b508060065f8781526020019081526020015f2060040181905550600160065f8781526020019081526020015f206005015f6101000a81548160ff0219169083151502179055505050505050565b60605f60075f8473ffffffffffffffffffffffffffffffffffffffff1673ffffffffffffffffffffffffffffffffffffffff1681526020019081526020015f20540361076a576040517f08c379a000000000000000000000000000000000000000000000000000000000815260040161076190612248565b60405180910390fd5b5f60075f8473ffffffffffffffffffffffffffffffffffffffff1673ffffffffffffffffffffffffffffffffffffffff1681526020019081526020015f2054905060055f8281526020019081526020015f2060050180548060200260200160405190810160405280929190818152602001828054801561080757602002820191905f5260205f20905b8154815260200190600101908083116107f3575b5050505050915050919050565b5f60075f3373ffffffffffffffffffffffffffffffffffffffff1673ffffffffffffffffffffffffffffffffffffffff1681526020019081526020015f205403610893576040517f08c379a000000000000000000000000000000000000000000000000000000000815260040161088a906122fc565b60405180910390fd5b5f60075f3373ffffffffffffffffffffffffffffffffffffffff1673ffffffffffffffffffffffffffffffffffffffff1681526020019081526020015f2054905060055f8281526020019081526020015f2060030182908060018154018082558091505060019003905f5260205f20015f9091909190915090816109179190611fcc565b505050565b5f60075f3373ffffffffffffffffffffffffffffffffffffffff1673ffffffffffffffffffffffffffffffffffffffff1681526020019081526020015f20540361099b576040517f08c379a0000000000000000000000000000000000000000000000000000000008152600401610992906122fc565b60405180910390fd5b5f60075f3373ffffffffffffffffffffffffffffffffffffffff1673ffffffffffffffffffffffffffffffffffffffff1681526020019081526020015f205490508160055f8381526020019081526020015f20600201819055505050565b60608060605f60065f8681526020019081526020015f206005015f9054906101000a900460ff16610a5f576040517f08c379a0000000000000000000000000000000000000000000000000000000008152600401610a5690612364565b60405180910390fd5b60065f8681526020019081526020015f2060010160065f8781526020019081526020015f2060020160065f8881526020019081526020015f2060030160065f8981526020019081526020015f2060040154838054610abc90611dff565b80601f0160208091040260200160405190810160405280929190818152602001828054610ae890611dff565b8015610b335780601f10610b0a57610100808354040283529160200191610b33565b820191905f5260205f20905b815481529060010190602001808311610b1657829003601f168201915b50505050509350828054610b4690611dff565b80601f0160208091040260200160405190810160405280929190818152602001828054610b7290611dff565b8015610bbd5780601f10610b9457610100808354040283529160200191610bbd565b820191905f5260205f20905b815481529060010190602001808311610ba057829003601f168201915b50505050509250818054610bd090611dff565b80601f0160208091040260200160405190810160405280929190818152602001828054610bfc90611dff565b8015610c475780601f10610c1e57610100808354040283529160200191610c47565b820191905f5260205f20905b815481529060010190602001808311610c2a57829003601f168201915b5050505050915093509350935093509193509193565b5f8054906101000a900473ffffffffffffffffffffffffffffffffffffffff1681565b5f606080606060045f8681526020019081526020015f206004015f9054906101000a900460ff16610ce6576040517f08c379a0000000000000000000000000000000000000000000000000000000008152600401610cdd906123cc565b60405180910390fd5b60045f8681526020019081526020015f205f015460045f8781526020019081526020015f2060010160045f8881526020019081526020015f2060020160045f8981526020019081526020015f20600301828054610d4290611dff565b80601f0160208091040260200160405190810160405280929190818152602001828054610d6e90611dff565b8015610db95780601f10610d9057610100808354040283529160200191610db9565b820191905f5260205f20905b815481529060010190602001808311610d9c57829003601f168201915b50505050509250818054610dcc90611dff565b80601f0160208091040260200160405190810160405280929190818152602001828054610df890611dff565b8015610e435780601f10610e1a57610100808354040283529160200191610e43565b820191905f5260205f20905b815481529060010190602001808311610e2657829003601f168201915b50505050509150808054610e5690611dff565b80601f0160208091040260200160405190810160405280929190818152602001828054610e8290611dff565b8015610ecd5780601f10610ea457610100808354040283529160200191610ecd565b820191905f5260205f20905b815481529060010190602001808311610eb057829003601f168201915b5050505050905093509350935093509193509193565b5f60075f8373ffffffffffffffffffffffffffffffffffffffff1673ffffffffffffffffffffffffffffffffffffffff1681526020019081526020015f205403610f62576040517f08c379a0000000000000000000000000000000000000000000000000000000008152600401610f5990612248565b60405180910390fd5b60065f8381526020019081526020015f206005015f9054906101000a900460ff16610fc2576040517f08c379a0000000000000000000000000000000000000000000000000000000008152600401610fb990612364565b60405180910390fd5b5f60075f8373ffffffffffffffffffffffffffffffffffffffff1673ffffffffffffffffffffffffffffffffffffffff1681526020019081526020015f2054905060055f8281526020019081526020015f2060050183908060018154018082558091505060019003905f5260205f20015f9091909190915055505050565b5f8060608060055f8681526020019081526020015f206006015f9054906101000a900460ff166110a5576040517f08c379a000000000000000000000000000000000000000000000000000000000815260040161109c90612434565b60405180910390fd5b60055f8681526020019081526020015f205f015460055f8781526020019081526020015f206002015460055f8881526020019081526020015f2060010160055f8981526020019081526020015f2060030181805461110290611dff565b80601f016020809104026020016040519081016040528092919081815260200182805461112e90611dff565b80156111795780601f1061115057610100808354040283529160200191611179565b820191905f5260205f20905b81548152906001019060200180831161115c57829003601f168201915b5050505050915080805480602002602001604051908101604052809291908181526020015f905b82821015611248578382905f5260205f200180546111bd90611dff565b80601f01602080910402602001604051908101604052809291908181526020018280546111e990611dff565b80156112345780601f1061120b57610100808354040283529160200191611234565b820191905f5260205f20905b81548152906001019060200180831161121757829003601f168201915b5050505050815260200190600101906111a0565b50505050905093509350935093509193509193565b5f806060805f60075f3373ffffffffffffffffffffffffffffffffffffffff1673ffffffffffffffffffffffffffffffffffffffff1681526020019081526020015f2054036112e1576040517f08c379a00000000000000000000000000000000000000000000000000000000081526004016112d8906122fc565b60405180910390fd5b5f60075f3373ffffffffffffffffffffffffffffffffffffffff1673ffffffffffffffffffffffffffffffffffffffff1681526020019081526020015f2054905060055f8281526020019081526020015f205f015460055f8381526020019081526020015f206002015460055f8481526020019081526020015f2060010160055f8581526020019081526020015f2060030181805461137f90611dff565b80601f01602080910402602001604051908101604052809291908181526020018280546113ab90611dff565b80156113f65780601f106113cd576101008083540402835291602001916113f6565b820191905f5260205f20905b8154815290600101906020018083116113d957829003601f168201915b5050505050915080805480602002602001604051908101604052809291908181526020015f905b828210156114c5578382905f5260205f2001805461143a90611dff565b80601f016020809104026020016040519081016040528092919081815260200182805461146690611dff565b80156114b15780601f10611488576101008083540402835291602001916114b1565b820191905f5260205f20905b81548152906001019060200180831161149457829003601f168201915b50505050508152602001906001019061141d565b50505050905094509450945094505090919293565b5f604051905090565b5f80fd5b5f80fd5b5f80fd5b5f80fd5b5f601f19601f8301169050919050565b7f4e487b71000000000000000000000000000000000000000000000000000000005f52604160045260245ffd5b611539826114f3565b810181811067ffffffffffffffff8211171561155857611557611503565b5b80604052505050565b5f61156a6114da565b90506115768282611530565b919050565b5f67ffffffffffffffff82111561159557611594611503565b5b61159e826114f3565b9050602081019050919050565b828183375f83830152505050565b5f6115cb6115c68461157b565b611561565b9050828152602081018484840111156115e7576115e66114ef565b5b6115f28482856115ab565b509392505050565b5f82601f83011261160e5761160d6114eb565b5b813561161e8482602086016115b9565b91505092915050565b5f805f6060848603121561163e5761163d6114e3565b5b5f84013567ffffffffffffffff81111561165b5761165a6114e7565b5b611667868287016115fa565b935050602084013567ffffffffffffffff811115611688576116876114e7565b5b611694868287016115fa565b925050604084013567ffffffffffffffff8111156116b5576116b46114e7565b5b6116c1868287016115fa565b9150509250925092565b5f819050919050565b6116dd816116cb565b81146116e7575f80fd5b50565b5f813590506116f8816116d4565b92915050565b5f8060408385031215611714576117136114e3565b5b5f83013567ffffffffffffffff811115611731576117306114e7565b5b61173d858286016115fa565b925050602061174e858286016116ea565b9150509250929050565b5f805f805f60a08688031215611771576117706114e3565b5b5f61177e888289016116ea565b955050602086013567ffffffffffffffff81111561179f5761179e6114e7565b5b6117ab888289016115fa565b945050604086013567ffffffffffffffff8111156117cc576117cb6114e7565b5b6117d8888289016115fa565b935050606086013567ffffffffffffffff8111156117f9576117f86114e7565b5b611805888289016115fa565b9250506080611816888289016116ea565b9150509295509295909350565b5f73ffffffffffffffffffffffffffffffffffffffff82169050919050565b5f61184c82611823565b9050919050565b61185c81611842565b8114611866575f80fd5b50565b5f8135905061187781611853565b92915050565b5f60208284031215611892576118916114e3565b5b5f61189f84828501611869565b91505092915050565b5f81519050919050565b5f82825260208201905092915050565b5f819050602082019050919050565b6118da816116cb565b82525050565b5f6118eb83836118d1565b60208301905092915050565b5f602082019050919050565b5f61190d826118a8565b61191781856118b2565b9350611922836118c2565b805f5b8381101561195257815161193988826118e0565b9750611944836118f7565b925050600181019050611925565b5085935050505092915050565b5f6020820190508181035f8301526119778184611903565b905092915050565b5f60208284031215611994576119936114e3565b5b5f82013567ffffffffffffffff8111156119b1576119b06114e7565b5b6119bd848285016115fa565b91505092915050565b5f602082840312156119db576119da6114e3565b5b5f6119e8848285016116ea565b91505092915050565b5f81519050919050565b5f82825260208201905092915050565b5f5b83811015611a28578082015181840152602081019050611a0d565b5f8484015250505050565b5f611a3d826119f1565b611a4781856119fb565b9350611a57818560208601611a0b565b611a60816114f3565b840191505092915050565b611a74816116cb565b82525050565b5f6080820190508181035f830152611a928187611a33565b90508181036020830152611aa68186611a33565b90508181036040830152611aba8185611a33565b9050611ac96060830184611a6b565b95945050505050565b611adb81611842565b82525050565b5f602082019050611af45f830184611ad2565b92915050565b5f608082019050611b0d5f830187611a6b565b8181036020830152611b1f8186611a33565b90508181036040830152611b338185611a33565b90508181036060830152611b478184611a33565b905095945050505050565b5f8060408385031215611b6857611b676114e3565b5b5f611b75858286016116ea565b9250506020611b8685828601611869565b9150509250929050565b5f81519050919050565b5f82825260208201905092915050565b5f819050602082019050919050565b5f82825260208201905092915050565b5f611bd3826119f1565b611bdd8185611bb9565b9350611bed818560208601611a0b565b611bf6816114f3565b840191505092915050565b5f611c0c8383611bc9565b905092915050565b5f602082019050919050565b5f611c2a82611b90565b611c348185611b9a565b935083602082028501611c4685611baa565b805f5b85811015611c815784840389528151611c628582611c01565b9450611c6d83611c14565b925060208a01995050600181019050611c49565b50829750879550505050505092915050565b5f608082019050611ca65f830187611a6b565b611cb36020830186611a6b565b8181036040830152611cc58185611a33565b90508181036060830152611cd98184611c20565b905095945050505050565b7f446f63746f72206163636f756e7420616c7265616479206578697374732077695f8201527f7468207468697320626c6f636b636861696e2061646472657373000000000000602082015250565b5f611d3e603a836119fb565b9150611d4982611ce4565b604082019050919050565b5f6020820190508181035f830152611d6b81611d32565b9050919050565b7f4e487b71000000000000000000000000000000000000000000000000000000005f52601160045260245ffd5b5f611da9826116cb565b9150611db4836116cb565b9250828201905080821115611dcc57611dcb611d72565b5b92915050565b7f4e487b71000000000000000000000000000000000000000000000000000000005f52602260045260245ffd5b5f6002820490506001821680611e1657607f821691505b602082108103611e2957611e28611dd2565b5b50919050565b5f819050815f5260205f209050919050565b5f6020601f8301049050919050565b5f82821b905092915050565b5f60088302611e8b7fffffffffffffffffffffffffffffffffffffffffffffffffffffffffffffffff82611e50565b611e958683611e50565b95508019841693508086168417925050509392505050565b5f819050919050565b5f611ed0611ecb611ec6846116cb565b611ead565b6116cb565b9050919050565b5f819050919050565b611ee983611eb6565b611efd611ef582611ed7565b848454611e5c565b825550505050565b5f90565b611f11611f05565b611f1c818484611ee0565b505050565b5b81811015611f3f57611f345f82611f09565b600181019050611f22565b5050565b601f821115611f8457611f5581611e2f565b611f5e84611e41565b81016020851015611f6d578190505b611f81611f7985611e41565b830182611f21565b50505b505050565b5f82821c905092915050565b5f611fa45f1984600802611f89565b1980831691505092915050565b5f611fbc8383611f95565b9150826002028217905092915050565b611fd5826119f1565b67ffffffffffffffff811115611fee57611fed611503565b5b611ff88254611dff565b612003828285611f43565b5f60209050601f831160018114612034575f8415612022578287015190505b61202c8582611fb1565b865550612093565b601f19841661204286611e2f565b5f5b8281101561206957848901518255600182019150602085019450602081019050612044565b868310156120865784890151612082601f891682611f95565b8355505b6001600288020188555050505b505050505050565b7f50617469656e74206163636f756e7420616c72656164792065786973747320775f8201527f697468207468697320626c6f636b636861696e20616464726573730000000000602082015250565b5f6120f5603b836119fb565b91506121008261209b565b604082019050919050565b5f6020820190508181035f830152612122816120e9565b9050919050565b7f4d65646963696e65207769746820696420616c726561647920657869737473005f82015250565b5f61215d601f836119fb565b915061216882612129565b602082019050919050565b5f6020820190508181035f83015261218a81612151565b9050919050565b5f61219b826116cb565b91507fffffffffffffffffffffffffffffffffffffffffffffffffffffffffffffffff82036121cd576121cc611d72565b5b600182019050919050565b7f50617469656e742077697468206164647265737320646f6573206e6f742065785f8201527f6973740000000000000000000000000000000000000000000000000000000000602082015250565b5f6122326023836119fb565b915061223d826121d8565b604082019050919050565b5f6020820190508181035f83015261225f81612226565b9050919050565b7f50617469656e74206163636f756e74207769746820626c6f636b636861696e205f8201527f6164647265737320646f6573206e6f742065786973742e20506c65617365207260208201527f6567697374657200000000000000000000000000000000000000000000000000604082015250565b5f6122e66047836119fb565b91506122f182612266565b606082019050919050565b5f6020820190508181035f830152612313816122da565b9050919050565b7f4d65646963696e65207769746820696420646f6573206e6f74206578697374005f82015250565b5f61234e601f836119fb565b91506123598261231a565b602082019050919050565b5f6020820190508181035f83015261237b81612342565b9050919050565b7f446f63746f72207769746820696420646f6573206e6f742065786973740000005f82015250565b5f6123b6601d836119fb565b91506123c182612382565b602082019050919050565b5f6020820190508181035f8301526123e3816123aa565b9050919050565b7f50617469656e74207769746820696420646f6573206e6f7420657869737400005f82015250565b5f61241e601e836119fb565b9150612429826123ea565b602082019050919050565b5f6020820190508181035f83015261244b81612412565b905091905056fea2646970667358221220b6f8415518c4123de709e280163844878747091c914a4c42163f2e82da1cac3764736f6c63430008160033",
			"opcodes": "PUSH1 0x80 PUSH1 0x40 MSTORE PUSH0 PUSH1 0x1 SSTORE PUSH0 PUSH1 0x2 SSTORE PUSH0 PUSH1 0x3 SSTORE CALLVALUE DUP1 ISZERO PUSH2 0x1B JUMPI PUSH0 DUP1 REVERT JUMPDEST POP CALLER PUSH0 DUP1 PUSH2 0x100 EXP DUP2 SLOAD DUP2 PUSH20 0xFFFFFFFFFFFFFFFFFFFFFFFFFFFFFFFFFFFFFFFF MUL NOT AND SWAP1 DUP4 PUSH20 0xFFFFFFFFFFFFFFFFFFFFFFFFFFFFFFFFFFFFFFFF AND MUL OR SWAP1 SSTORE POP PUSH2 0x2488 DUP1 PUSH2 0x68 PUSH0 CODECOPY PUSH0 RETURN INVALID PUSH1 0x80 PUSH1 0x40 MSTORE CALLVALUE DUP1 ISZERO PUSH2 0xF JUMPI PUSH0 DUP1 REVERT JUMPDEST POP PUSH1 0x4 CALLDATASIZE LT PUSH2 0xB2 JUMPI PUSH0 CALLDATALOAD PUSH1 0xE0 SHR DUP1 PUSH4 0xCC7FA220 GT PUSH2 0x6F JUMPI DUP1 PUSH4 0xCC7FA220 EQ PUSH2 0x172 JUMPI DUP1 PUSH4 0xCE606EE0 EQ PUSH2 0x1A5 JUMPI DUP1 PUSH4 0xD5CFCB06 EQ PUSH2 0x1C3 JUMPI DUP1 PUSH4 0xDCD0C2B2 EQ PUSH2 0x1F6 JUMPI DUP1 PUSH4 0xEDDF3774 EQ PUSH2 0x212 JUMPI DUP1 PUSH4 0xF770DA3A EQ PUSH2 0x245 JUMPI PUSH2 0xB2 JUMP JUMPDEST DUP1 PUSH4 0x46216098 EQ PUSH2 0xB6 JUMPI DUP1 PUSH4 0x5EF2322D EQ PUSH2 0xD2 JUMPI DUP1 PUSH4 0x75F49529 EQ PUSH2 0xEE JUMPI DUP1 PUSH4 0x791264AD EQ PUSH2 0x10A JUMPI DUP1 PUSH4 0xA9ED3FF9 EQ PUSH2 0x13A JUMPI DUP1 PUSH4 0xBA5E7F7F EQ PUSH2 0x156 JUMPI JUMPDEST PUSH0 DUP1 REVERT JUMPDEST PUSH2 0xD0 PUSH1 0x4 DUP1 CALLDATASIZE SUB DUP2 ADD SWAP1 PUSH2 0xCB SWAP2 SWAP1 PUSH2 0x1627 JUMP JUMPDEST PUSH2 0x266 JUMP JUMPDEST STOP JUMPDEST PUSH2 0xEC PUSH1 0x4 DUP1 CALLDATASIZE SUB DUP2 ADD SWAP1 PUSH2 0xE7 SWAP2 SWAP1 PUSH2 0x16FE JUMP JUMPDEST PUSH2 0x43B JUMP JUMPDEST STOP JUMPDEST PUSH2 0x108 PUSH1 0x4 DUP1 CALLDATASIZE SUB DUP2 ADD SWAP1 PUSH2 0x103 SWAP2 SWAP1 PUSH2 0x1758 JUMP JUMPDEST PUSH2 0x5A2 JUMP JUMPDEST STOP JUMPDEST PUSH2 0x124 PUSH1 0x4 DUP1 CALLDATASIZE SUB DUP2 ADD SWAP1 PUSH2 0x11F SWAP2 SWAP1 PUSH2 0x187D JUMP JUMPDEST PUSH2 0x6E9 JUMP JUMPDEST PUSH1 0x40 MLOAD PUSH2 0x131 SWAP2 SWAP1 PUSH2 0x195F JUMP JUMPDEST PUSH1 0x40 MLOAD DUP1 SWAP2 SUB SWAP1 RETURN JUMPDEST PUSH2 0x154 PUSH1 0x4 DUP1 CALLDATASIZE SUB DUP2 ADD SWAP1 PUSH2 0x14F SWAP2 SWAP1 PUSH2 0x197F JUMP JUMPDEST PUSH2 0x814 JUMP JUMPDEST STOP JUMPDEST PUSH2 0x170 PUSH1 0x4 DUP1 CALLDATASIZE SUB DUP2 ADD SWAP1 PUSH2 0x16B SWAP2 SWAP1 PUSH2 0x19C6 JUMP JUMPDEST PUSH2 0x91C JUMP JUMPDEST STOP JUMPDEST PUSH2 0x18C PUSH1 0x4 DUP1 CALLDATASIZE SUB DUP2 ADD SWAP1 PUSH2 0x187 SWAP2 SWAP1 PUSH2 0x19C6 JUMP JUMPDEST PUSH2 0x9F9 JUMP JUMPDEST PUSH1 0x40 MLOAD PUSH2 0x19C SWAP5 SWAP4 SWAP3 SWAP2 SWAP1 PUSH2 0x1A7A JUMP JUMPDEST PUSH1 0x40 MLOAD DUP1 SWAP2 SUB SWAP1 RETURN JUMPDEST PUSH2 0x1AD PUSH2 0xC5D JUMP JUMPDEST PUSH1 0x40 MLOAD PUSH2 0x1BA SWAP2 SWAP1 PUSH2 0x1AE1 JUMP JUMPDEST PUSH1 0x40 MLOAD DUP1 SWAP2 SUB SWAP1 RETURN JUMPDEST PUSH2 0x1DD PUSH1 0x4 DUP1 CALLDATASIZE SUB DUP2 ADD SWAP1 PUSH2 0x1D8 SWAP2 SWAP1 PUSH2 0x19C6 JUMP JUMPDEST PUSH2 0xC80 JUMP JUMPDEST PUSH1 0x40 MLOAD PUSH2 0x1ED SWAP5 SWAP4 SWAP3 SWAP2 SWAP1 PUSH2 0x1AFA JUMP JUMPDEST PUSH1 0x40 MLOAD DUP1 SWAP2 SUB SWAP1 RETURN JUMPDEST PUSH2 0x210 PUSH1 0x4 DUP1 CALLDATASIZE SUB DUP2 ADD SWAP1 PUSH2 0x20B SWAP2 SWAP1 PUSH2 0x1B52 JUMP JUMPDEST PUSH2 0xEE3 JUMP JUMPDEST STOP JUMPDEST PUSH2 0x22C PUSH1 0x4 DUP1 CALLDATASIZE SUB DUP2 ADD SWAP1 PUSH2 0x227 SWAP2 SWAP1 PUSH2 0x19C6 JUMP JUMPDEST PUSH2 0x1040 JUMP JUMPDEST PUSH1 0x40 MLOAD PUSH2 0x23C SWAP5 SWAP4 SWAP3 SWAP2 SWAP1 PUSH2 0x1C93 JUMP JUMPDEST PUSH1 0x40 MLOAD DUP1 SWAP2 SUB SWAP1 RETURN JUMPDEST PUSH2 0x24D PUSH2 0x125D JUMP JUMPDEST PUSH1 0x40 MLOAD PUSH2 0x25D SWAP5 SWAP4 SWAP3 SWAP2 SWAP1 PUSH2 0x1C93 JUMP JUMPDEST PUSH1 0x40 MLOAD DUP1 SWAP2 SUB SWAP1 RETURN JUMPDEST PUSH0 PUSH1 0x8 PUSH0 CALLER PUSH20 0xFFFFFFFFFFFFFFFFFFFFFFFFFFFFFFFFFFFFFFFF AND PUSH20 0xFFFFFFFFFFFFFFFFFFFFFFFFFFFFFFFFFFFFFFFF AND DUP2 MSTORE PUSH1 0x20 ADD SWAP1 DUP2 MSTORE PUSH1 0x20 ADD PUSH0 KECCAK256 SLOAD EQ PUSH2 0x2E5 JUMPI PUSH1 0x40 MLOAD PUSH32 0x8C379A000000000000000000000000000000000000000000000000000000000 DUP2 MSTORE PUSH1 0x4 ADD PUSH2 0x2DC SWAP1 PUSH2 0x1D54 JUMP JUMPDEST PUSH1 0x40 MLOAD DUP1 SWAP2 SUB SWAP1 REVERT JUMPDEST PUSH0 PUSH1 0x1 DUP1 SLOAD PUSH2 0x2F4 SWAP2 SWAP1 PUSH2 0x1D9F JUMP JUMPDEST SWAP1 POP DUP1 PUSH1 0x4 PUSH0 DUP4 DUP2 MSTORE PUSH1 0x20 ADD SWAP1 DUP2 MSTORE PUSH1 0x20 ADD PUSH0 KECCAK256 PUSH0 ADD DUP2 SWAP1 SSTORE POP DUP4 PUSH1 0x4 PUSH0 DUP4 DUP2 MSTORE PUSH1 0x20 ADD SWAP1 DUP2 MSTORE PUSH1 0x20 ADD PUSH0 KECCAK256 PUSH1 0x1 ADD SWAP1 DUP2 PUSH2 0x32F SWAP2 SWAP1 PUSH2 0x1FCC JUMP JUMPDEST POP DUP3 PUSH1 0x4 PUSH0 DUP4 DUP2 MSTORE PUSH1 0x20 ADD SWAP1 DUP2 MSTORE PUSH1 0x20 ADD PUSH0 KECCAK256 PUSH1 0x2 ADD SWAP1 DUP2 PUSH2 0x351 SWAP2 SWAP1 PUSH2 0x1FCC JUMP JUMPDEST POP DUP2 PUSH1 0x4 PUSH0 DUP4 DUP2 MSTORE PUSH1 0x20 ADD SWAP1 DUP2 MSTORE PUSH1 0x20 ADD PUSH0 KECCAK256 PUSH1 0x3 ADD SWAP1 DUP2 PUSH2 0x373 SWAP2 SWAP1 PUSH2 0x1FCC JUMP JUMPDEST POP CALLER PUSH1 0x4 PUSH0 DUP4 DUP2 MSTORE PUSH1 0x20 ADD SWAP1 DUP2 MSTORE PUSH1 0x20 ADD PUSH0 KECCAK256 PUSH1 0x4 ADD PUSH1 0x1 PUSH2 0x100 EXP DUP2 SLOAD DUP2 PUSH20 0xFFFFFFFFFFFFFFFFFFFFFFFFFFFFFFFFFFFFFFFF MUL NOT AND SWAP1 DUP4 PUSH20 0xFFFFFFFFFFFFFFFFFFFFFFFFFFFFFFFFFFFFFFFF AND MUL OR SWAP1 SSTORE POP PUSH1 0x1 PUSH1 0x4 PUSH0 DUP4 DUP2 MSTORE PUSH1 0x20 ADD SWAP1 DUP2 MSTORE PUSH1 0x20 ADD PUSH0 KECCAK256 PUSH1 0x4 ADD PUSH0 PUSH2 0x100 EXP DUP2 SLOAD DUP2 PUSH1 0xFF MUL NOT AND SWAP1 DUP4 ISZERO ISZERO MUL OR SWAP1 SSTORE POP DUP1 PUSH1 0x8 PUSH0 CALLER PUSH20 0xFFFFFFFFFFFFFFFFFFFFFFFFFFFFFFFFFFFFFFFF AND PUSH20 0xFFFFFFFFFFFFFFFFFFFFFFFFFFFFFFFFFFFFFFFF AND DUP2 MSTORE PUSH1 0x20 ADD SWAP1 DUP2 MSTORE PUSH1 0x20 ADD PUSH0 KECCAK256 DUP2 SWAP1 SSTORE POP POP POP POP POP JUMP JUMPDEST PUSH0 PUSH1 0x7 PUSH0 CALLER PUSH20 0xFFFFFFFFFFFFFFFFFFFFFFFFFFFFFFFFFFFFFFFF AND PUSH20 0xFFFFFFFFFFFFFFFFFFFFFFFFFFFFFFFFFFFFFFFF AND DUP2 MSTORE PUSH1 0x20 ADD SWAP1 DUP2 MSTORE PUSH1 0x20 ADD PUSH0 KECCAK256 SLOAD EQ PUSH2 0x4BA JUMPI PUSH1 0x40 MLOAD PUSH32 0x8C379A000000000000000000000000000000000000000000000000000000000 DUP2 MSTORE PUSH1 0x4 ADD PUSH2 0x4B1 SWAP1 PUSH2 0x210B JUMP JUMPDEST PUSH1 0x40 MLOAD DUP1 SWAP2 SUB SWAP1 REVERT JUMPDEST PUSH0 PUSH1 0x1 PUSH1 0x2 SLOAD PUSH2 0x4CA SWAP2 SWAP1 PUSH2 0x1D9F JUMP JUMPDEST SWAP1 POP DUP1 PUSH1 0x5 PUSH0 DUP4 DUP2 MSTORE PUSH1 0x20 ADD SWAP1 DUP2 MSTORE PUSH1 0x20 ADD PUSH0 KECCAK256 PUSH0 ADD DUP2 SWAP1 SSTORE POP DUP3 PUSH1 0x5 PUSH0 DUP4 DUP2 MSTORE PUSH1 0x20 ADD SWAP1 DUP2 MSTORE PUSH1 0x20 ADD PUSH0 KECCAK256 PUSH1 0x1 ADD SWAP1 DUP2 PUSH2 0x505 SWAP2 SWAP1 PUSH2 0x1FCC JUMP JUMPDEST POP DUP2 PUSH1 0x5 PUSH0 DUP4 DUP2 MSTORE PUSH1 0x20 ADD SWAP1 DUP2 MSTORE PUSH1 0x20 ADD PUSH0 KECCAK256 PUSH1 0x2 ADD DUP2 SWAP1 SSTORE POP PUSH1 0x1 PUSH1 0x5 PUSH0 DUP4 DUP2 MSTORE PUSH1 0x20 ADD SWAP1 DUP2 MSTORE PUSH1 0x20 ADD PUSH0 KECCAK256 PUSH1 0x6 ADD PUSH0 PUSH2 0x100 EXP DUP2 SLOAD DUP2 PUSH1 0xFF MUL NOT AND SWAP1 DUP4 ISZERO ISZERO MUL OR SWAP1 SSTORE POP CALLER PUSH1 0x5 PUSH0 DUP4 DUP2 MSTORE PUSH1 0x20 ADD SWAP1 DUP2 MSTORE PUSH1 0x20 ADD PUSH0 KECCAK256 PUSH1 0x4 ADD PUSH0 PUSH2 0x100 EXP DUP2 SLOAD DUP2 PUSH20 0xFFFFFFFFFFFFFFFFFFFFFFFFFFFFFFFFFFFFFFFF MUL NOT AND SWAP1 DUP4 PUSH20 0xFFFFFFFFFFFFFFFFFFFFFFFFFFFFFFFFFFFFFFFF AND MUL OR SWAP1 SSTORE POP POP POP POP JUMP JUMPDEST PUSH0 ISZERO ISZERO PUSH1 0x6 PUSH0 DUP8 DUP2 MSTORE PUSH1 0x20 ADD SWAP1 DUP2 MSTORE PUSH1 0x20 ADD PUSH0 KECCAK256 PUSH1 0x5 ADD PUSH0 SWAP1 SLOAD SWAP1 PUSH2 0x100 EXP SWAP1 DIV PUSH1 0xFF AND ISZERO ISZERO EQ PUSH2 0x608 JUMPI PUSH1 0x40 MLOAD PUSH32 0x8C379A000000000000000000000000000000000000000000000000000000000 DUP2 MSTORE PUSH1 0x4 ADD PUSH2 0x5FF SWAP1 PUSH2 0x2173 JUMP JUMPDEST PUSH1 0x40 MLOAD DUP1 SWAP2 SUB SWAP1 REVERT JUMPDEST PUSH1 0x3 PUSH0 DUP2 SLOAD DUP1 SWAP3 SWAP2 SWAP1 PUSH2 0x61A SWAP1 PUSH2 0x2191 JUMP JUMPDEST SWAP2 SWAP1 POP SSTORE POP DUP5 PUSH1 0x6 PUSH0 DUP8 DUP2 MSTORE PUSH1 0x20 ADD SWAP1 DUP2 MSTORE PUSH1 0x20 ADD PUSH0 KECCAK256 PUSH0 ADD DUP2 SWAP1 SSTORE POP DUP4 PUSH1 0x6 PUSH0 DUP8 DUP2 MSTORE PUSH1 0x20 ADD SWAP1 DUP2 MSTORE PUSH1 0x20 ADD PUSH0 KECCAK256 PUSH1 0x1 ADD SWAP1 DUP2 PUSH2 0x658 SWAP2 SWAP1 PUSH2 0x1FCC JUMP JUMPDEST POP DUP3 PUSH1 0x6 PUSH0 DUP8 DUP2 MSTORE PUSH1 0x20 ADD SWAP1 DUP2 MSTORE PUSH1 0x20 ADD PUSH0 KECCAK256 PUSH1 0x2 ADD SWAP1 DUP2 PUSH2 0x67A SWAP2 SWAP1 PUSH2 0x1FCC JUMP JUMPDEST POP DUP2 PUSH1 0x6 PUSH0 DUP8 DUP2 MSTORE PUSH1 0x20 ADD SWAP1 DUP2 MSTORE PUSH1 0x20 ADD PUSH0 KECCAK256 PUSH1 0x3 ADD SWAP1 DUP2 PUSH2 0x69C SWAP2 SWAP1 PUSH2 0x1FCC JUMP JUMPDEST POP DUP1 PUSH1 0x6 PUSH0 DUP8 DUP2 MSTORE PUSH1 0x20 ADD SWAP1 DUP2 MSTORE PUSH1 0x20 ADD PUSH0 KECCAK256 PUSH1 0x4 ADD DUP2 SWAP1 SSTORE POP PUSH1 0x1 PUSH1 0x6 PUSH0 DUP8 DUP2 MSTORE PUSH1 0x20 ADD SWAP1 DUP2 MSTORE PUSH1 0x20 ADD PUSH0 KECCAK256 PUSH1 0x5 ADD PUSH0 PUSH2 0x100 EXP DUP2 SLOAD DUP2 PUSH1 0xFF MUL NOT AND SWAP1 DUP4 ISZERO ISZERO MUL OR SWAP1 SSTORE POP POP POP POP POP POP JUMP JUMPDEST PUSH1 0x60 PUSH0 PUSH1 0x7 PUSH0 DUP5 PUSH20 0xFFFFFFFFFFFFFFFFFFFFFFFFFFFFFFFFFFFFFFFF AND PUSH20 0xFFFFFFFFFFFFFFFFFFFFFFFFFFFFFFFFFFFFFFFF AND DUP2 MSTORE PUSH1 0x20 ADD SWAP1 DUP2 MSTORE PUSH1 0x20 ADD PUSH0 KECCAK256 SLOAD SUB PUSH2 0x76A JUMPI PUSH1 0x40 MLOAD PUSH32 0x8C379A000000000000000000000000000000000000000000000000000000000 DUP2 MSTORE PUSH1 0x4 ADD PUSH2 0x761 SWAP1 PUSH2 0x2248 JUMP JUMPDEST PUSH1 0x40 MLOAD DUP1 SWAP2 SUB SWAP1 REVERT JUMPDEST PUSH0 PUSH1 0x7 PUSH0 DUP5 PUSH20 0xFFFFFFFFFFFFFFFFFFFFFFFFFFFFFFFFFFFFFFFF AND PUSH20 0xFFFFFFFFFFFFFFFFFFFFFFFFFFFFFFFFFFFFFFFF AND DUP2 MSTORE PUSH1 0x20 ADD SWAP1 DUP2 MSTORE PUSH1 0x20 ADD PUSH0 KECCAK256 SLOAD SWAP1 POP PUSH1 0x5 PUSH0 DUP3 DUP2 MSTORE PUSH1 0x20 ADD SWAP1 DUP2 MSTORE PUSH1 0x20 ADD PUSH0 KECCAK256 PUSH1 0x5 ADD DUP1 SLOAD DUP1 PUSH1 0x20 MUL PUSH1 0x20 ADD PUSH1 0x40 MLOAD SWAP1 DUP2 ADD PUSH1 0x40 MSTORE DUP1 SWAP3 SWAP2 SWAP1 DUP2 DUP2 MSTORE PUSH1 0x20 ADD DUP3 DUP1 SLOAD DUP1 ISZERO PUSH2 0x807 JUMPI PUSH1 0x20 MUL DUP3 ADD SWAP2 SWAP1 PUSH0 MSTORE PUSH1 0x20 PUSH0 KECCAK256 SWAP1 JUMPDEST DUP2 SLOAD DUP2 MSTORE PUSH1 0x20 ADD SWAP1 PUSH1 0x1 ADD SWAP1 DUP1 DUP4 GT PUSH2 0x7F3 JUMPI JUMPDEST POP POP POP POP POP SWAP2 POP POP SWAP2 SWAP1 POP JUMP JUMPDEST PUSH0 PUSH1 0x7 PUSH0 CALLER PUSH20 0xFFFFFFFFFFFFFFFFFFFFFFFFFFFFFFFFFFFFFFFF AND PUSH20 0xFFFFFFFFFFFFFFFFFFFFFFFFFFFFFFFFFFFFFFFF AND DUP2 MSTORE PUSH1 0x20 ADD SWAP1 DUP2 MSTORE PUSH1 0x20 ADD PUSH0 KECCAK256 SLOAD SUB PUSH2 0x893 JUMPI PUSH1 0x40 MLOAD PUSH32 0x8C379A000000000000000000000000000000000000000000000000000000000 DUP2 MSTORE PUSH1 0x4 ADD PUSH2 0x88A SWAP1 PUSH2 0x22FC JUMP JUMPDEST PUSH1 0x40 MLOAD DUP1 SWAP2 SUB SWAP1 REVERT JUMPDEST PUSH0 PUSH1 0x7 PUSH0 CALLER PUSH20 0xFFFFFFFFFFFFFFFFFFFFFFFFFFFFFFFFFFFFFFFF AND PUSH20 0xFFFFFFFFFFFFFFFFFFFFFFFFFFFFFFFFFFFFFFFF AND DUP2 MSTORE PUSH1 0x20 ADD SWAP1 DUP2 MSTORE PUSH1 0x20 ADD PUSH0 KECCAK256 SLOAD SWAP1 POP PUSH1 0x5 PUSH0 DUP3 DUP2 MSTORE PUSH1 0x20 ADD SWAP1 DUP2 MSTORE PUSH1 0x20 ADD PUSH0 KECCAK256 PUSH1 0x3 ADD DUP3 SWAP1 DUP1 PUSH1 0x1 DUP2 SLOAD ADD DUP1 DUP3 SSTORE DUP1 SWAP2 POP POP PUSH1 0x1 SWAP1 SUB SWAP1 PUSH0 MSTORE PUSH1 0x20 PUSH0 KECCAK256 ADD PUSH0 SWAP1 SWAP2 SWAP1 SWAP2 SWAP1 SWAP2 POP SWAP1 DUP2 PUSH2 0x917 SWAP2 SWAP1 PUSH2 0x1FCC JUMP JUMPDEST POP POP POP JUMP JUMPDEST PUSH0 PUSH1 0x7 PUSH0 CALLER PUSH20 0xFFFFFFFFFFFFFFFFFFFFFFFFFFFFFFFFFFFFFFFF AND PUSH20 0xFFFFFFFFFFFFFFFFFFFFFFFFFFFFFFFFFFFFFFFF AND DUP2 MSTORE PUSH1 0x20 ADD SWAP1 DUP2 MSTORE PUSH1 0x20 ADD PUSH0 KECCAK256 SLOAD SUB PUSH2 0x99B JUMPI PUSH1 0x40 MLOAD PUSH32 0x8C379A000000000000000000000000000000000000000000000000000000000 DUP2 MSTORE PUSH1 0x4 ADD PUSH2 0x992 SWAP1 PUSH2 0x22FC JUMP JUMPDEST PUSH1 0x40 MLOAD DUP1 SWAP2 SUB SWAP1 REVERT JUMPDEST PUSH0 PUSH1 0x7 PUSH0 CALLER PUSH20 0xFFFFFFFFFFFFFFFFFFFFFFFFFFFFFFFFFFFFFFFF AND PUSH20 0xFFFFFFFFFFFFFFFFFFFFFFFFFFFFFFFFFFFFFFFF AND DUP2 MSTORE PUSH1 0x20 ADD SWAP1 DUP2 MSTORE PUSH1 0x20 ADD PUSH0 KECCAK256 SLOAD SWAP1 POP DUP2 PUSH1 0x5 PUSH0 DUP4 DUP2 MSTORE PUSH1 0x20 ADD SWAP1 DUP2 MSTORE PUSH1 0x20 ADD PUSH0 KECCAK256 PUSH1 0x2 ADD DUP2 SWAP1 SSTORE POP POP POP JUMP JUMPDEST PUSH1 0x60 DUP1 PUSH1 0x60 PUSH0 PUSH1 0x6 PUSH0 DUP7 DUP2 MSTORE PUSH1 0x20 ADD SWAP1 DUP2 MSTORE PUSH1 0x20 ADD PUSH0 KECCAK256 PUSH1 0x5 ADD PUSH0 SWAP1 SLOAD SWAP1 PUSH2 0x100 EXP SWAP1 DIV PUSH1 0xFF AND PUSH2 0xA5F JUMPI PUSH1 0x40 MLOAD PUSH32 0x8C379A000000000000000000000000000000000000000000000000000000000 DUP2 MSTORE PUSH1 0x4 ADD PUSH2 0xA56 SWAP1 PUSH2 0x2364 JUMP JUMPDEST PUSH1 0x40 MLOAD DUP1 SWAP2 SUB SWAP1 REVERT JUMPDEST PUSH1 0x6 PUSH0 DUP7 DUP2 MSTORE PUSH1 0x20 ADD SWAP1 DUP2 MSTORE PUSH1 0x20 ADD PUSH0 KECCAK256 PUSH1 0x1 ADD PUSH1 0x6 PUSH0 DUP8 DUP2 MSTORE PUSH1 0x20 ADD SWAP1 DUP2 MSTORE PUSH1 0x20 ADD PUSH0 KECCAK256 PUSH1 0x2 ADD PUSH1 0x6 PUSH0 DUP9 DUP2 MSTORE PUSH1 0x20 ADD SWAP1 DUP2 MSTORE PUSH1 0x20 ADD PUSH0 KECCAK256 PUSH1 0x3 ADD PUSH1 0x6 PUSH0 DUP10 DUP2 MSTORE PUSH1 0x20 ADD SWAP1 DUP2 MSTORE PUSH1 0x20 ADD PUSH0 KECCAK256 PUSH1 0x4 ADD SLOAD DUP4 DUP1 SLOAD PUSH2 0xABC SWAP1 PUSH2 0x1DFF JUMP JUMPDEST DUP1 PUSH1 0x1F ADD PUSH1 0x20 DUP1 SWAP2 DIV MUL PUSH1 0x20 ADD PUSH1 0x40 MLOAD SWAP1 DUP2 ADD PUSH1 0x40 MSTORE DUP1 SWAP3 SWAP2 SWAP1 DUP2 DUP2 MSTORE PUSH1 0x20 ADD DUP3 DUP1 SLOAD PUSH2 0xAE8 SWAP1 PUSH2 0x1DFF JUMP JUMPDEST DUP1 ISZERO PUSH2 0xB33 JUMPI DUP1 PUSH1 0x1F LT PUSH2 0xB0A JUMPI PUSH2 0x100 DUP1 DUP4 SLOAD DIV MUL DUP4 MSTORE SWAP2 PUSH1 0x20 ADD SWAP2 PUSH2 0xB33 JUMP JUMPDEST DUP3 ADD SWAP2 SWAP1 PUSH0 MSTORE PUSH1 0x20 PUSH0 KECCAK256 SWAP1 JUMPDEST DUP2 SLOAD DUP2 MSTORE SWAP1 PUSH1 0x1 ADD SWAP1 PUSH1 0x20 ADD DUP1 DUP4 GT PUSH2 0xB16 JUMPI DUP3 SWAP1 SUB PUSH1 0x1F AND DUP3 ADD SWAP2 JUMPDEST POP POP POP POP POP SWAP4 POP DUP3 DUP1 SLOAD PUSH2 0xB46 SWAP1 PUSH2 0x1DFF JUMP JUMPDEST DUP1 PUSH1 0x1F ADD PUSH1 0x20 DUP1 SWAP2 DIV MUL PUSH1 0x20 ADD PUSH1 0x40 MLOAD SWAP1 DUP2 ADD PUSH1 0x40 MSTORE DUP1 SWAP3 SWAP2 SWAP1 DUP2 DUP2 MSTORE PUSH1 0x20 ADD DUP3 DUP1 SLOAD PUSH2 0xB72 SWAP1 PUSH2 0x1DFF JUMP JUMPDEST DUP1 ISZERO PUSH2 0xBBD JUMPI DUP1 PUSH1 0x1F LT PUSH2 0xB94 JUMPI PUSH2 0x100 DUP1 DUP4 SLOAD DIV MUL DUP4 MSTORE SWAP2 PUSH1 0x20 ADD SWAP2 PUSH2 0xBBD JUMP JUMPDEST DUP3 ADD SWAP2 SWAP1 PUSH0 MSTORE PUSH1 0x20 PUSH0 KECCAK256 SWAP1 JUMPDEST DUP2 SLOAD DUP2 MSTORE SWAP1 PUSH1 0x1 ADD SWAP1 PUSH1 0x20 ADD DUP1 DUP4 GT PUSH2 0xBA0 JUMPI DUP3 SWAP1 SUB PUSH1 0x1F AND DUP3 ADD SWAP2 JUMPDEST POP POP POP POP POP SWAP3 POP DUP2 DUP1 SLOAD PUSH2 0xBD0 SWAP1 PUSH2 0x1DFF JUMP JUMPDEST DUP1 PUSH1 0x1F ADD PUSH1 0x20 DUP1 SWAP2 DIV MUL PUSH1 0x20 ADD PUSH1 0x40 MLOAD SWAP1 DUP2 ADD PUSH1 0x40 MSTORE DUP1 SWAP3 SWAP2 SWAP1 DUP2 DUP2 MSTORE PUSH1 0x20 ADD DUP3 DUP1 SLOAD PUSH2 0xBFC SWAP1 PUSH2 0x1DFF JUMP JUMPDEST DUP1 ISZERO PUSH2 0xC47 JUMPI DUP1 PUSH1 0x1F LT PUSH2 0xC1E JUMPI PUSH2 0x100 DUP1 DUP4 SLOAD DIV MUL DUP4 MSTORE SWAP2 PUSH1 0x20 ADD SWAP2 PUSH2 0xC47 JUMP JUMPDEST DUP3 ADD SWAP2 SWAP1 PUSH0 MSTORE PUSH1 0x20 PUSH0 KECCAK256 SWAP1 JUMPDEST DUP2 SLOAD DUP2 MSTORE SWAP1 PUSH1 0x1 ADD SWAP1 PUSH1 0x20 ADD DUP1 DUP4 GT PUSH2 0xC2A JUMPI DUP3 SWAP1 SUB PUSH1 0x1F AND DUP3 ADD SWAP2 JUMPDEST POP POP POP POP POP SWAP2 POP SWAP4 POP SWAP4 POP SWAP4 POP SWAP4 POP SWAP2 SWAP4 POP SWAP2 SWAP4 JUMP JUMPDEST PUSH0 DUP1 SLOAD SWAP1 PUSH2 0x100 EXP SWAP1 DIV PUSH20 0xFFFFFFFFFFFFFFFFFFFFFFFFFFFFFFFFFFFFFFFF AND DUP2 JUMP JUMPDEST PUSH0 PUSH1 0x60 DUP1 PUSH1 0x60 PUSH1 0x4 PUSH0 DUP7 DUP2 MSTORE PUSH1 0x20 ADD SWAP1 DUP2 MSTORE PUSH1 0x20 ADD PUSH0 KECCAK256 PUSH1 0x4 ADD PUSH0 SWAP1 SLOAD SWAP1 PUSH2 0x100 EXP SWAP1 DIV PUSH1 0xFF AND PUSH2 0xCE6 JUMPI PUSH1 0x40 MLOAD PUSH32 0x8C379A000000000000000000000000000000000000000000000000000000000 DUP2 MSTORE PUSH1 0x4 ADD PUSH2 0xCDD SWAP1 PUSH2 0x23CC JUMP JUMPDEST PUSH1 0x40 MLOAD DUP1 SWAP2 SUB SWAP1 REVERT JUMPDEST PUSH1 0x4 PUSH0 DUP7 DUP2 MSTORE PUSH1 0x20 ADD SWAP1 DUP2 MSTORE PUSH1 0x20 ADD PUSH0 KECCAK256 PUSH0 ADD SLOAD PUSH1 0x4 PUSH0 DUP8 DUP2 MSTORE PUSH1 0x20 ADD SWAP1 DUP2 MSTORE PUSH1 0x20 ADD PUSH0 KECCAK256 PUSH1 0x1 ADD PUSH1 0x4 PUSH0 DUP9 DUP2 MSTORE PUSH1 0x20 ADD SWAP1 DUP2 MSTORE PUSH1 0x20 ADD PUSH0 KECCAK256 PUSH1 0x2 ADD PUSH1 0x4 PUSH0 DUP10 DUP2 MSTORE PUSH1 0x20 ADD SWAP1 DUP2 MSTORE PUSH1 0x20 ADD PUSH0 KECCAK256 PUSH1 0x3 ADD DUP3 DUP1 SLOAD PUSH2 0xD42 SWAP1 PUSH2 0x1DFF JUMP JUMPDEST DUP1 PUSH1 0x1F ADD PUSH1 0x20 DUP1 SWAP2 DIV MUL PUSH1 0x20 ADD PUSH1 0x40 MLOAD SWAP1 DUP2 ADD PUSH1 0x40 MSTORE DUP1 SWAP3 SWAP2 SWAP1 DUP2 DUP2 MSTORE PUSH1 0x20 ADD DUP3 DUP1 SLOAD PUSH2 0xD6E SWAP1 PUSH2 0x1DFF JUMP JUMPDEST DUP1 ISZERO PUSH2 0xDB9 JUMPI DUP1 PUSH1 0x1F LT PUSH2 0xD90 JUMPI PUSH2 0x100 DUP1 DUP4 SLOAD DIV MUL DUP4 MSTORE SWAP2 PUSH1 0x20 ADD SWAP2 PUSH2 0xDB9 JUMP JUMPDEST DUP3 ADD SWAP2 SWAP1 PUSH0 MSTORE PUSH1 0x20 PUSH0 KECCAK256 SWAP1 JUMPDEST DUP2 SLOAD DUP2 MSTORE SWAP1 PUSH1 0x1 ADD SWAP1 PUSH1 0x20 ADD DUP1 DUP4 GT PUSH2 0xD9C JUMPI DUP3 SWAP1 SUB PUSH1 0x1F AND DUP3 ADD SWAP2 JUMPDEST POP POP POP POP POP SWAP3 POP DUP2 DUP1 SLOAD PUSH2 0xDCC SWAP1 PUSH2 0x1DFF JUMP JUMPDEST DUP1 PUSH1 0x1F ADD PUSH1 0x20 DUP1 SWAP2 DIV MUL PUSH1 0x20 ADD PUSH1 0x40 MLOAD SWAP1 DUP2 ADD PUSH1 0x40 MSTORE DUP1 SWAP3 SWAP2 SWAP1 DUP2 DUP2 MSTORE PUSH1 0x20 ADD DUP3 DUP1 SLOAD PUSH2 0xDF8 SWAP1 PUSH2 0x1DFF JUMP JUMPDEST DUP1 ISZERO PUSH2 0xE43 JUMPI DUP1 PUSH1 0x1F LT PUSH2 0xE1A JUMPI PUSH2 0x100 DUP1 DUP4 SLOAD DIV MUL DUP4 MSTORE SWAP2 PUSH1 0x20 ADD SWAP2 PUSH2 0xE43 JUMP JUMPDEST DUP3 ADD SWAP2 SWAP1 PUSH0 MSTORE PUSH1 0x20 PUSH0 KECCAK256 SWAP1 JUMPDEST DUP2 SLOAD DUP2 MSTORE SWAP1 PUSH1 0x1 ADD SWAP1 PUSH1 0x20 ADD DUP1 DUP4 GT PUSH2 0xE26 JUMPI DUP3 SWAP1 SUB PUSH1 0x1F AND DUP3 ADD SWAP2 JUMPDEST POP POP POP POP POP SWAP2 POP DUP1 DUP1 SLOAD PUSH2 0xE56 SWAP1 PUSH2 0x1DFF JUMP JUMPDEST DUP1 PUSH1 0x1F ADD PUSH1 0x20 DUP1 SWAP2 DIV MUL PUSH1 0x20 ADD PUSH1 0x40 MLOAD SWAP1 DUP2 ADD PUSH1 0x40 MSTORE DUP1 SWAP3 SWAP2 SWAP1 DUP2 DUP2 MSTORE PUSH1 0x20 ADD DUP3 DUP1 SLOAD PUSH2 0xE82 SWAP1 PUSH2 0x1DFF JUMP JUMPDEST DUP1 ISZERO PUSH2 0xECD JUMPI DUP1 PUSH1 0x1F LT PUSH2 0xEA4 JUMPI PUSH2 0x100 DUP1 DUP4 SLOAD DIV MUL DUP4 MSTORE SWAP2 PUSH1 0x20 ADD SWAP2 PUSH2 0xECD JUMP JUMPDEST DUP3 ADD SWAP2 SWAP1 PUSH0 MSTORE PUSH1 0x20 PUSH0 KECCAK256 SWAP1 JUMPDEST DUP2 SLOAD DUP2 MSTORE SWAP1 PUSH1 0x1 ADD SWAP1 PUSH1 0x20 ADD DUP1 DUP4 GT PUSH2 0xEB0 JUMPI DUP3 SWAP1 SUB PUSH1 0x1F AND DUP3 ADD SWAP2 JUMPDEST POP POP POP POP POP SWAP1 POP SWAP4 POP SWAP4 POP SWAP4 POP SWAP4 POP SWAP2 SWAP4 POP SWAP2 SWAP4 JUMP JUMPDEST PUSH0 PUSH1 0x7 PUSH0 DUP4 PUSH20 0xFFFFFFFFFFFFFFFFFFFFFFFFFFFFFFFFFFFFFFFF AND PUSH20 0xFFFFFFFFFFFFFFFFFFFFFFFFFFFFFFFFFFFFFFFF AND DUP2 MSTORE PUSH1 0x20 ADD SWAP1 DUP2 MSTORE PUSH1 0x20 ADD PUSH0 KECCAK256 SLOAD SUB PUSH2 0xF62 JUMPI PUSH1 0x40 MLOAD PUSH32 0x8C379A000000000000000000000000000000000000000000000000000000000 DUP2 MSTORE PUSH1 0x4 ADD PUSH2 0xF59 SWAP1 PUSH2 0x2248 JUMP JUMPDEST PUSH1 0x40 MLOAD DUP1 SWAP2 SUB SWAP1 REVERT JUMPDEST PUSH1 0x6 PUSH0 DUP4 DUP2 MSTORE PUSH1 0x20 ADD SWAP1 DUP2 MSTORE PUSH1 0x20 ADD PUSH0 KECCAK256 PUSH1 0x5 ADD PUSH0 SWAP1 SLOAD SWAP1 PUSH2 0x100 EXP SWAP1 DIV PUSH1 0xFF AND PUSH2 0xFC2 JUMPI PUSH1 0x40 MLOAD PUSH32 0x8C379A000000000000000000000000000000000000000000000000000000000 DUP2 MSTORE PUSH1 0x4 ADD PUSH2 0xFB9 SWAP1 PUSH2 0x2364 JUMP JUMPDEST PUSH1 0x40 MLOAD DUP1 SWAP2 SUB SWAP1 REVERT JUMPDEST PUSH0 PUSH1 0x7 PUSH0 DUP4 PUSH20 0xFFFFFFFFFFFFFFFFFFFFFFFFFFFFFFFFFFFFFFFF AND PUSH20 0xFFFFFFFFFFFFFFFFFFFFFFFFFFFFFFFFFFFFFFFF AND DUP2 MSTORE PUSH1 0x20 ADD SWAP1 DUP2 MSTORE PUSH1 0x20 ADD PUSH0 KECCAK256 SLOAD SWAP1 POP PUSH1 0x5 PUSH0 DUP3 DUP2 MSTORE PUSH1 0x20 ADD SWAP1 DUP2 MSTORE PUSH1 0x20 ADD PUSH0 KECCAK256 PUSH1 0x5 ADD DUP4 SWAP1 DUP1 PUSH1 0x1 DUP2 SLOAD ADD DUP1 DUP3 SSTORE DUP1 SWAP2 POP POP PUSH1 0x1 SWAP1 SUB SWAP1 PUSH0 MSTORE PUSH1 0x20 PUSH0 KECCAK256 ADD PUSH0 SWAP1 SWAP2 SWAP1 SWAP2 SWAP1 SWAP2 POP SSTORE POP POP POP JUMP JUMPDEST PUSH0 DUP1 PUSH1 0x60 DUP1 PUSH1 0x5 PUSH0 DUP7 DUP2 MSTORE PUSH1 0x20 ADD SWAP1 DUP2 MSTORE PUSH1 0x20 ADD PUSH0 KECCAK256 PUSH1 0x6 ADD PUSH0 SWAP1 SLOAD SWAP1 PUSH2 0x100 EXP SWAP1 DIV PUSH1 0xFF AND PUSH2 0x10A5 JUMPI PUSH1 0x40 MLOAD PUSH32 0x8C379A000000000000000000000000000000000000000000000000000000000 DUP2 MSTORE PUSH1 0x4 ADD PUSH2 0x109C SWAP1 PUSH2 0x2434 JUMP JUMPDEST PUSH1 0x40 MLOAD DUP1 SWAP2 SUB SWAP1 REVERT JUMPDEST PUSH1 0x5 PUSH0 DUP7 DUP2 MSTORE PUSH1 0x20 ADD SWAP1 DUP2 MSTORE PUSH1 0x20 ADD PUSH0 KECCAK256 PUSH0 ADD SLOAD PUSH1 0x5 PUSH0 DUP8 DUP2 MSTORE PUSH1 0x20 ADD SWAP1 DUP2 MSTORE PUSH1 0x20 ADD PUSH0 KECCAK256 PUSH1 0x2 ADD SLOAD PUSH1 0x5 PUSH0 DUP9 DUP2 MSTORE PUSH1 0x20 ADD SWAP1 DUP2 MSTORE PUSH1 0x20 ADD PUSH0 KECCAK256 PUSH1 0x1 ADD PUSH1 0x5 PUSH0 DUP10 DUP2 MSTORE PUSH1 0x20 ADD SWAP1 DUP2 MSTORE PUSH1 0x20 ADD PUSH0 KECCAK256 PUSH1 0x3 ADD DUP2 DUP1 SLOAD PUSH2 0x1102 SWAP1 PUSH2 0x1DFF JUMP JUMPDEST DUP1 PUSH1 0x1F ADD PUSH1 0x20 DUP1 SWAP2 DIV MUL PUSH1 0x20 ADD PUSH1 0x40 MLOAD SWAP1 DUP2 ADD PUSH1 0x40 MSTORE DUP1 SWAP3 SWAP2 SWAP1 DUP2 DUP2 MSTORE PUSH1 0x20 ADD DUP3 DUP1 SLOAD PUSH2 0x112E SWAP1 PUSH2 0x1DFF JUMP JUMPDEST DUP1 ISZERO PUSH2 0x1179 JUMPI DUP1 PUSH1 0x1F LT PUSH2 0x1150 JUMPI PUSH2 0x100 DUP1 DUP4 SLOAD DIV MUL DUP4 MSTORE SWAP2 PUSH1 0x20 ADD SWAP2 PUSH2 0x1179 JUMP JUMPDEST DUP3 ADD SWAP2 SWAP1 PUSH0 MSTORE PUSH1 0x20 PUSH0 KECCAK256 SWAP1 JUMPDEST DUP2 SLOAD DUP2 MSTORE SWAP1 PUSH1 0x1 ADD SWAP1 PUSH1 0x20 ADD DUP1 DUP4 GT PUSH2 0x115C JUMPI DUP3 SWAP1 SUB PUSH1 0x1F AND DUP3 ADD SWAP2 JUMPDEST POP POP POP POP POP SWAP2 POP DUP1 DUP1 SLOAD DUP1 PUSH1 0x20 MUL PUSH1 0x20 ADD PUSH1 0x40 MLOAD SWAP1 DUP2 ADD PUSH1 0x40 MSTORE DUP1 SWAP3 SWAP2 SWAP1 DUP2 DUP2 MSTORE PUSH1 0x20 ADD PUSH0 SWAP1 JUMPDEST DUP3 DUP3 LT ISZERO PUSH2 0x1248 JUMPI DUP4 DUP3 SWAP1 PUSH0 MSTORE PUSH1 0x20 PUSH0 KECCAK256 ADD DUP1 SLOAD PUSH2 0x11BD SWAP1 PUSH2 0x1DFF JUMP JUMPDEST DUP1 PUSH1 0x1F ADD PUSH1 0x20 DUP1 SWAP2 DIV MUL PUSH1 0x20 ADD PUSH1 0x40 MLOAD SWAP1 DUP2 ADD PUSH1 0x40 MSTORE DUP1 SWAP3 SWAP2 SWAP1 DUP2 DUP2 MSTORE PUSH1 0x20 ADD DUP3 DUP1 SLOAD PUSH2 0x11E9 SWAP1 PUSH2 0x1DFF JUMP JUMPDEST DUP1 ISZERO PUSH2 0x1234 JUMPI DUP1 PUSH1 0x1F LT PUSH2 0x120B JUMPI PUSH2 0x100 DUP1 DUP4 SLOAD DIV MUL DUP4 MSTORE SWAP2 PUSH1 0x20 ADD SWAP2 PUSH2 0x1234 JUMP JUMPDEST DUP3 ADD SWAP2 SWAP1 PUSH0 MSTORE PUSH1 0x20 PUSH0 KECCAK256 SWAP1 JUMPDEST DUP2 SLOAD DUP2 MSTORE SWAP1 PUSH1 0x1 ADD SWAP1 PUSH1 0x20 ADD DUP1 DUP4 GT PUSH2 0x1217 JUMPI DUP3 SWAP1 SUB PUSH1 0x1F AND DUP3 ADD SWAP2 JUMPDEST POP POP POP POP POP DUP2 MSTORE PUSH1 0x20 ADD SWAP1 PUSH1 0x1 ADD SWAP1 PUSH2 0x11A0 JUMP JUMPDEST POP POP POP POP SWAP1 POP SWAP4 POP SWAP4 POP SWAP4 POP SWAP4 POP SWAP2 SWAP4 POP SWAP2 SWAP4 JUMP JUMPDEST PUSH0 DUP1 PUSH1 0x60 DUP1 PUSH0 PUSH1 0x7 PUSH0 CALLER PUSH20 0xFFFFFFFFFFFFFFFFFFFFFFFFFFFFFFFFFFFFFFFF AND PUSH20 0xFFFFFFFFFFFFFFFFFFFFFFFFFFFFFFFFFFFFFFFF AND DUP2 MSTORE PUSH1 0x20 ADD SWAP1 DUP2 MSTORE PUSH1 0x20 ADD PUSH0 KECCAK256 SLOAD SUB PUSH2 0x12E1 JUMPI PUSH1 0x40 MLOAD PUSH32 0x8C379A000000000000000000000000000000000000000000000000000000000 DUP2 MSTORE PUSH1 0x4 ADD PUSH2 0x12D8 SWAP1 PUSH2 0x22FC JUMP JUMPDEST PUSH1 0x40 MLOAD DUP1 SWAP2 SUB SWAP1 REVERT JUMPDEST PUSH0 PUSH1 0x7 PUSH0 CALLER PUSH20 0xFFFFFFFFFFFFFFFFFFFFFFFFFFFFFFFFFFFFFFFF AND PUSH20 0xFFFFFFFFFFFFFFFFFFFFFFFFFFFFFFFFFFFFFFFF AND DUP2 MSTORE PUSH1 0x20 ADD SWAP1 DUP2 MSTORE PUSH1 0x20 ADD PUSH0 KECCAK256 SLOAD SWAP1 POP PUSH1 0x5 PUSH0 DUP3 DUP2 MSTORE PUSH1 0x20 ADD SWAP1 DUP2 MSTORE PUSH1 0x20 ADD PUSH0 KECCAK256 PUSH0 ADD SLOAD PUSH1 0x5 PUSH0 DUP4 DUP2 MSTORE PUSH1 0x20 ADD SWAP1 DUP2 MSTORE PUSH1 0x20 ADD PUSH0 KECCAK256 PUSH1 0x2 ADD SLOAD PUSH1 0x5 PUSH0 DUP5 DUP2 MSTORE PUSH1 0x20 ADD SWAP1 DUP2 MSTORE PUSH1 0x20 ADD PUSH0 KECCAK256 PUSH1 0x1 ADD PUSH1 0x5 PUSH0 DUP6 DUP2 MSTORE PUSH1 0x20 ADD SWAP1 DUP2 MSTORE PUSH1 0x20 ADD PUSH0 KECCAK256 PUSH1 0x3 ADD DUP2 DUP1 SLOAD PUSH2 0x137F SWAP1 PUSH2 0x1DFF JUMP JUMPDEST DUP1 PUSH1 0x1F ADD PUSH1 0x20 DUP1 SWAP2 DIV MUL PUSH1 0x20 ADD PUSH1 0x40 MLOAD SWAP1 DUP2 ADD PUSH1 0x40 MSTORE DUP1 SWAP3 SWAP2 SWAP1 DUP2 DUP2 MSTORE PUSH1 0x20 ADD DUP3 DUP1 SLOAD PUSH2 0x13AB SWAP1 PUSH2 0x1DFF JUMP JUMPDEST DUP1 ISZERO PUSH2 0x13F6 JUMPI DUP1 PUSH1 0x1F LT PUSH2 0x13CD JUMPI PUSH2 0x100 DUP1 DUP4 SLOAD DIV MUL DUP4 MSTORE SWAP2 PUSH1 0x20 ADD SWAP2 PUSH2 0x13F6 JUMP JUMPDEST DUP3 ADD SWAP2 SWAP1 PUSH0 MSTORE PUSH1 0x20 PUSH0 KECCAK256 SWAP1 JUMPDEST DUP2 SLOAD DUP2 MSTORE SWAP1 PUSH1 0x1 ADD SWAP1 PUSH1 0x20 ADD DUP1 DUP4 GT PUSH2 0x13D9 JUMPI DUP3 SWAP1 SUB PUSH1 0x1F AND DUP3 ADD SWAP2 JUMPDEST POP POP POP POP POP SWAP2 POP DUP1 DUP1 SLOAD DUP1 PUSH1 0x20 MUL PUSH1 0x20 ADD PUSH1 0x40 MLOAD SWAP1 DUP2 ADD PUSH1 0x40 MSTORE DUP1 SWAP3 SWAP2 SWAP1 DUP2 DUP2 MSTORE PUSH1 0x20 ADD PUSH0 SWAP1 JUMPDEST DUP3 DUP3 LT ISZERO PUSH2 0x14C5 JUMPI DUP4 DUP3 SWAP1 PUSH0 MSTORE PUSH1 0x20 PUSH0 KECCAK256 ADD DUP1 SLOAD PUSH2 0x143A SWAP1 PUSH2 0x1DFF JUMP JUMPDEST DUP1 PUSH1 0x1F ADD PUSH1 0x20 DUP1 SWAP2 DIV MUL PUSH1 0x20 ADD PUSH1 0x40 MLOAD SWAP1 DUP2 ADD PUSH1 0x40 MSTORE DUP1 SWAP3 SWAP2 SWAP1 DUP2 DUP2 MSTORE PUSH1 0x20 ADD DUP3 DUP1 SLOAD PUSH2 0x1466 SWAP1 PUSH2 0x1DFF JUMP JUMPDEST DUP1 ISZERO PUSH2 0x14B1 JUMPI DUP1 PUSH1 0x1F LT PUSH2 0x1488 JUMPI PUSH2 0x100 DUP1 DUP4 SLOAD DIV MUL DUP4 MSTORE SWAP2 PUSH1 0x20 ADD SWAP2 PUSH2 0x14B1 JUMP JUMPDEST DUP3 ADD SWAP2 SWAP1 PUSH0 MSTORE PUSH1 0x20 PUSH0 KECCAK256 SWAP1 JUMPDEST DUP2 SLOAD DUP2 MSTORE SWAP1 PUSH1 0x1 ADD SWAP1 PUSH1 0x20 ADD DUP1 DUP4 GT PUSH2 0x1494 JUMPI DUP3 SWAP1 SUB PUSH1 0x1F AND DUP3 ADD SWAP2 JUMPDEST POP POP POP POP POP DUP2 MSTORE PUSH1 0x20 ADD SWAP1 PUSH1 0x1 ADD SWAP1 PUSH2 0x141D JUMP JUMPDEST POP POP POP POP SWAP1 POP SWAP5 POP SWAP5 POP SWAP5 POP SWAP5 POP POP SWAP1 SWAP2 SWAP3 SWAP4 JUMP JUMPDEST PUSH0 PUSH1 0x40 MLOAD SWAP1 POP SWAP1 JUMP JUMPDEST PUSH0 DUP1 REVERT JUMPDEST PUSH0 DUP1 REVERT JUMPDEST PUSH0 DUP1 REVERT JUMPDEST PUSH0 DUP1 REVERT JUMPDEST PUSH0 PUSH1 0x1F NOT PUSH1 0x1F DUP4 ADD AND SWAP1 POP SWAP2 SWAP1 POP JUMP JUMPDEST PUSH32 0x4E487B7100000000000000000000000000000000000000000000000000000000 PUSH0 MSTORE PUSH1 0x41 PUSH1 0x4 MSTORE PUSH1 0x24 PUSH0 REVERT JUMPDEST PUSH2 0x1539 DUP3 PUSH2 0x14F3 JUMP JUMPDEST DUP2 ADD DUP2 DUP2 LT PUSH8 0xFFFFFFFFFFFFFFFF DUP3 GT OR ISZERO PUSH2 0x1558 JUMPI PUSH2 0x1557 PUSH2 0x1503 JUMP JUMPDEST JUMPDEST DUP1 PUSH1 0x40 MSTORE POP POP POP JUMP JUMPDEST PUSH0 PUSH2 0x156A PUSH2 0x14DA JUMP JUMPDEST SWAP1 POP PUSH2 0x1576 DUP3 DUP3 PUSH2 0x1530 JUMP JUMPDEST SWAP2 SWAP1 POP JUMP JUMPDEST PUSH0 PUSH8 0xFFFFFFFFFFFFFFFF DUP3 GT ISZERO PUSH2 0x1595 JUMPI PUSH2 0x1594 PUSH2 0x1503 JUMP JUMPDEST JUMPDEST PUSH2 0x159E DUP3 PUSH2 0x14F3 JUMP JUMPDEST SWAP1 POP PUSH1 0x20 DUP2 ADD SWAP1 POP SWAP2 SWAP1 POP JUMP JUMPDEST DUP3 DUP2 DUP4 CALLDATACOPY PUSH0 DUP4 DUP4 ADD MSTORE POP POP POP JUMP JUMPDEST PUSH0 PUSH2 0x15CB PUSH2 0x15C6 DUP5 PUSH2 0x157B JUMP JUMPDEST PUSH2 0x1561 JUMP JUMPDEST SWAP1 POP DUP3 DUP2 MSTORE PUSH1 0x20 DUP2 ADD DUP5 DUP5 DUP5 ADD GT ISZERO PUSH2 0x15E7 JUMPI PUSH2 0x15E6 PUSH2 0x14EF JUMP JUMPDEST JUMPDEST PUSH2 0x15F2 DUP5 DUP3 DUP6 PUSH2 0x15AB JUMP JUMPDEST POP SWAP4 SWAP3 POP POP POP JUMP JUMPDEST PUSH0 DUP3 PUSH1 0x1F DUP4 ADD SLT PUSH2 0x160E JUMPI PUSH2 0x160D PUSH2 0x14EB JUMP JUMPDEST JUMPDEST DUP2 CALLDATALOAD PUSH2 0x161E DUP5 DUP3 PUSH1 0x20 DUP7 ADD PUSH2 0x15B9 JUMP JUMPDEST SWAP2 POP POP SWAP3 SWAP2 POP POP JUMP JUMPDEST PUSH0 DUP1 PUSH0 PUSH1 0x60 DUP5 DUP7 SUB SLT ISZERO PUSH2 0x163E JUMPI PUSH2 0x163D PUSH2 0x14E3 JUMP JUMPDEST JUMPDEST PUSH0 DUP5 ADD CALLDATALOAD PUSH8 0xFFFFFFFFFFFFFFFF DUP2 GT ISZERO PUSH2 0x165B JUMPI PUSH2 0x165A PUSH2 0x14E7 JUMP JUMPDEST JUMPDEST PUSH2 0x1667 DUP7 DUP3 DUP8 ADD PUSH2 0x15FA JUMP JUMPDEST SWAP4 POP POP PUSH1 0x20 DUP5 ADD CALLDATALOAD PUSH8 0xFFFFFFFFFFFFFFFF DUP2 GT ISZERO PUSH2 0x1688 JUMPI PUSH2 0x1687 PUSH2 0x14E7 JUMP JUMPDEST JUMPDEST PUSH2 0x1694 DUP7 DUP3 DUP8 ADD PUSH2 0x15FA JUMP JUMPDEST SWAP3 POP POP PUSH1 0x40 DUP5 ADD CALLDATALOAD PUSH8 0xFFFFFFFFFFFFFFFF DUP2 GT ISZERO PUSH2 0x16B5 JUMPI PUSH2 0x16B4 PUSH2 0x14E7 JUMP JUMPDEST JUMPDEST PUSH2 0x16C1 DUP7 DUP3 DUP8 ADD PUSH2 0x15FA JUMP JUMPDEST SWAP2 POP POP SWAP3 POP SWAP3 POP SWAP3 JUMP JUMPDEST PUSH0 DUP2 SWAP1 POP SWAP2 SWAP1 POP JUMP JUMPDEST PUSH2 0x16DD DUP2 PUSH2 0x16CB JUMP JUMPDEST DUP2 EQ PUSH2 0x16E7 JUMPI PUSH0 DUP1 REVERT JUMPDEST POP JUMP JUMPDEST PUSH0 DUP2 CALLDATALOAD SWAP1 POP PUSH2 0x16F8 DUP2 PUSH2 0x16D4 JUMP JUMPDEST SWAP3 SWAP2 POP POP JUMP JUMPDEST PUSH0 DUP1 PUSH1 0x40 DUP4 DUP6 SUB SLT ISZERO PUSH2 0x1714 JUMPI PUSH2 0x1713 PUSH2 0x14E3 JUMP JUMPDEST JUMPDEST PUSH0 DUP4 ADD CALLDATALOAD PUSH8 0xFFFFFFFFFFFFFFFF DUP2 GT ISZERO PUSH2 0x1731 JUMPI PUSH2 0x1730 PUSH2 0x14E7 JUMP JUMPDEST JUMPDEST PUSH2 0x173D DUP6 DUP3 DUP7 ADD PUSH2 0x15FA JUMP JUMPDEST SWAP3 POP POP PUSH1 0x20 PUSH2 0x174E DUP6 DUP3 DUP7 ADD PUSH2 0x16EA JUMP JUMPDEST SWAP2 POP POP SWAP3 POP SWAP3 SWAP1 POP JUMP JUMPDEST PUSH0 DUP1 PUSH0 DUP1 PUSH0 PUSH1 0xA0 DUP7 DUP9 SUB SLT ISZERO PUSH2 0x1771 JUMPI PUSH2 0x1770 PUSH2 0x14E3 JUMP JUMPDEST JUMPDEST PUSH0 PUSH2 0x177E DUP9 DUP3 DUP10 ADD PUSH2 0x16EA JUMP JUMPDEST SWAP6 POP POP PUSH1 0x20 DUP7 ADD CALLDATALOAD PUSH8 0xFFFFFFFFFFFFFFFF DUP2 GT ISZERO PUSH2 0x179F JUMPI PUSH2 0x179E PUSH2 0x14E7 JUMP JUMPDEST JUMPDEST PUSH2 0x17AB DUP9 DUP3 DUP10 ADD PUSH2 0x15FA JUMP JUMPDEST SWAP5 POP POP PUSH1 0x40 DUP7 ADD CALLDATALOAD PUSH8 0xFFFFFFFFFFFFFFFF DUP2 GT ISZERO PUSH2 0x17CC JUMPI PUSH2 0x17CB PUSH2 0x14E7 JUMP JUMPDEST JUMPDEST PUSH2 0x17D8 DUP9 DUP3 DUP10 ADD PUSH2 0x15FA JUMP JUMPDEST SWAP4 POP POP PUSH1 0x60 DUP7 ADD CALLDATALOAD PUSH8 0xFFFFFFFFFFFFFFFF DUP2 GT ISZERO PUSH2 0x17F9 JUMPI PUSH2 0x17F8 PUSH2 0x14E7 JUMP JUMPDEST JUMPDEST PUSH2 0x1805 DUP9 DUP3 DUP10 ADD PUSH2 0x15FA JUMP JUMPDEST SWAP3 POP POP PUSH1 0x80 PUSH2 0x1816 DUP9 DUP3 DUP10 ADD PUSH2 0x16EA JUMP JUMPDEST SWAP2 POP POP SWAP3 SWAP6 POP SWAP3 SWAP6 SWAP1 SWAP4 POP JUMP JUMPDEST PUSH0 PUSH20 0xFFFFFFFFFFFFFFFFFFFFFFFFFFFFFFFFFFFFFFFF DUP3 AND SWAP1 POP SWAP2 SWAP1 POP JUMP JUMPDEST PUSH0 PUSH2 0x184C DUP3 PUSH2 0x1823 JUMP JUMPDEST SWAP1 POP SWAP2 SWAP1 POP JUMP JUMPDEST PUSH2 0x185C DUP2 PUSH2 0x1842 JUMP JUMPDEST DUP2 EQ PUSH2 0x1866 JUMPI PUSH0 DUP1 REVERT JUMPDEST POP JUMP JUMPDEST PUSH0 DUP2 CALLDATALOAD SWAP1 POP PUSH2 0x1877 DUP2 PUSH2 0x1853 JUMP JUMPDEST SWAP3 SWAP2 POP POP JUMP JUMPDEST PUSH0 PUSH1 0x20 DUP3 DUP5 SUB SLT ISZERO PUSH2 0x1892 JUMPI PUSH2 0x1891 PUSH2 0x14E3 JUMP JUMPDEST JUMPDEST PUSH0 PUSH2 0x189F DUP5 DUP3 DUP6 ADD PUSH2 0x1869 JUMP JUMPDEST SWAP2 POP POP SWAP3 SWAP2 POP POP JUMP JUMPDEST PUSH0 DUP2 MLOAD SWAP1 POP SWAP2 SWAP1 POP JUMP JUMPDEST PUSH0 DUP3 DUP3 MSTORE PUSH1 0x20 DUP3 ADD SWAP1 POP SWAP3 SWAP2 POP POP JUMP JUMPDEST PUSH0 DUP2 SWAP1 POP PUSH1 0x20 DUP3 ADD SWAP1 POP SWAP2 SWAP1 POP JUMP JUMPDEST PUSH2 0x18DA DUP2 PUSH2 0x16CB JUMP JUMPDEST DUP3 MSTORE POP POP JUMP JUMPDEST PUSH0 PUSH2 0x18EB DUP4 DUP4 PUSH2 0x18D1 JUMP JUMPDEST PUSH1 0x20 DUP4 ADD SWAP1 POP SWAP3 SWAP2 POP POP JUMP JUMPDEST PUSH0 PUSH1 0x20 DUP3 ADD SWAP1 POP SWAP2 SWAP1 POP JUMP JUMPDEST PUSH0 PUSH2 0x190D DUP3 PUSH2 0x18A8 JUMP JUMPDEST PUSH2 0x1917 DUP2 DUP6 PUSH2 0x18B2 JUMP JUMPDEST SWAP4 POP PUSH2 0x1922 DUP4 PUSH2 0x18C2 JUMP JUMPDEST DUP1 PUSH0 JUMPDEST DUP4 DUP2 LT ISZERO PUSH2 0x1952 JUMPI DUP2 MLOAD PUSH2 0x1939 DUP9 DUP3 PUSH2 0x18E0 JUMP JUMPDEST SWAP8 POP PUSH2 0x1944 DUP4 PUSH2 0x18F7 JUMP JUMPDEST SWAP3 POP POP PUSH1 0x1 DUP2 ADD SWAP1 POP PUSH2 0x1925 JUMP JUMPDEST POP DUP6 SWAP4 POP POP POP POP SWAP3 SWAP2 POP POP JUMP JUMPDEST PUSH0 PUSH1 0x20 DUP3 ADD SWAP1 POP DUP2 DUP2 SUB PUSH0 DUP4 ADD MSTORE PUSH2 0x1977 DUP2 DUP5 PUSH2 0x1903 JUMP JUMPDEST SWAP1 POP SWAP3 SWAP2 POP POP JUMP JUMPDEST PUSH0 PUSH1 0x20 DUP3 DUP5 SUB SLT ISZERO PUSH2 0x1994 JUMPI PUSH2 0x1993 PUSH2 0x14E3 JUMP JUMPDEST JUMPDEST PUSH0 DUP3 ADD CALLDATALOAD PUSH8 0xFFFFFFFFFFFFFFFF DUP2 GT ISZERO PUSH2 0x19B1 JUMPI PUSH2 0x19B0 PUSH2 0x14E7 JUMP JUMPDEST JUMPDEST PUSH2 0x19BD DUP5 DUP3 DUP6 ADD PUSH2 0x15FA JUMP JUMPDEST SWAP2 POP POP SWAP3 SWAP2 POP POP JUMP JUMPDEST PUSH0 PUSH1 0x20 DUP3 DUP5 SUB SLT ISZERO PUSH2 0x19DB JUMPI PUSH2 0x19DA PUSH2 0x14E3 JUMP JUMPDEST JUMPDEST PUSH0 PUSH2 0x19E8 DUP5 DUP3 DUP6 ADD PUSH2 0x16EA JUMP JUMPDEST SWAP2 POP POP SWAP3 SWAP2 POP POP JUMP JUMPDEST PUSH0 DUP2 MLOAD SWAP1 POP SWAP2 SWAP1 POP JUMP JUMPDEST PUSH0 DUP3 DUP3 MSTORE PUSH1 0x20 DUP3 ADD SWAP1 POP SWAP3 SWAP2 POP POP JUMP JUMPDEST PUSH0 JUMPDEST DUP4 DUP2 LT ISZERO PUSH2 0x1A28 JUMPI DUP1 DUP3 ADD MLOAD DUP2 DUP5 ADD MSTORE PUSH1 0x20 DUP2 ADD SWAP1 POP PUSH2 0x1A0D JUMP JUMPDEST PUSH0 DUP5 DUP5 ADD MSTORE POP POP POP POP JUMP JUMPDEST PUSH0 PUSH2 0x1A3D DUP3 PUSH2 0x19F1 JUMP JUMPDEST PUSH2 0x1A47 DUP2 DUP6 PUSH2 0x19FB JUMP JUMPDEST SWAP4 POP PUSH2 0x1A57 DUP2 DUP6 PUSH1 0x20 DUP7 ADD PUSH2 0x1A0B JUMP JUMPDEST PUSH2 0x1A60 DUP2 PUSH2 0x14F3 JUMP JUMPDEST DUP5 ADD SWAP2 POP POP SWAP3 SWAP2 POP POP JUMP JUMPDEST PUSH2 0x1A74 DUP2 PUSH2 0x16CB JUMP JUMPDEST DUP3 MSTORE POP POP JUMP JUMPDEST PUSH0 PUSH1 0x80 DUP3 ADD SWAP1 POP DUP2 DUP2 SUB PUSH0 DUP4 ADD MSTORE PUSH2 0x1A92 DUP2 DUP8 PUSH2 0x1A33 JUMP JUMPDEST SWAP1 POP DUP2 DUP2 SUB PUSH1 0x20 DUP4 ADD MSTORE PUSH2 0x1AA6 DUP2 DUP7 PUSH2 0x1A33 JUMP JUMPDEST SWAP1 POP DUP2 DUP2 SUB PUSH1 0x40 DUP4 ADD MSTORE PUSH2 0x1ABA DUP2 DUP6 PUSH2 0x1A33 JUMP JUMPDEST SWAP1 POP PUSH2 0x1AC9 PUSH1 0x60 DUP4 ADD DUP5 PUSH2 0x1A6B JUMP JUMPDEST SWAP6 SWAP5 POP POP POP POP POP JUMP JUMPDEST PUSH2 0x1ADB DUP2 PUSH2 0x1842 JUMP JUMPDEST DUP3 MSTORE POP POP JUMP JUMPDEST PUSH0 PUSH1 0x20 DUP3 ADD SWAP1 POP PUSH2 0x1AF4 PUSH0 DUP4 ADD DUP5 PUSH2 0x1AD2 JUMP JUMPDEST SWAP3 SWAP2 POP POP JUMP JUMPDEST PUSH0 PUSH1 0x80 DUP3 ADD SWAP1 POP PUSH2 0x1B0D PUSH0 DUP4 ADD DUP8 PUSH2 0x1A6B JUMP JUMPDEST DUP2 DUP2 SUB PUSH1 0x20 DUP4 ADD MSTORE PUSH2 0x1B1F DUP2 DUP7 PUSH2 0x1A33 JUMP JUMPDEST SWAP1 POP DUP2 DUP2 SUB PUSH1 0x40 DUP4 ADD MSTORE PUSH2 0x1B33 DUP2 DUP6 PUSH2 0x1A33 JUMP JUMPDEST SWAP1 POP DUP2 DUP2 SUB PUSH1 0x60 DUP4 ADD MSTORE PUSH2 0x1B47 DUP2 DUP5 PUSH2 0x1A33 JUMP JUMPDEST SWAP1 POP SWAP6 SWAP5 POP POP POP POP POP JUMP JUMPDEST PUSH0 DUP1 PUSH1 0x40 DUP4 DUP6 SUB SLT ISZERO PUSH2 0x1B68 JUMPI PUSH2 0x1B67 PUSH2 0x14E3 JUMP JUMPDEST JUMPDEST PUSH0 PUSH2 0x1B75 DUP6 DUP3 DUP7 ADD PUSH2 0x16EA JUMP JUMPDEST SWAP3 POP POP PUSH1 0x20 PUSH2 0x1B86 DUP6 DUP3 DUP7 ADD PUSH2 0x1869 JUMP JUMPDEST SWAP2 POP POP SWAP3 POP SWAP3 SWAP1 POP JUMP JUMPDEST PUSH0 DUP2 MLOAD SWAP1 POP SWAP2 SWAP1 POP JUMP JUMPDEST PUSH0 DUP3 DUP3 MSTORE PUSH1 0x20 DUP3 ADD SWAP1 POP SWAP3 SWAP2 POP POP JUMP JUMPDEST PUSH0 DUP2 SWAP1 POP PUSH1 0x20 DUP3 ADD SWAP1 POP SWAP2 SWAP1 POP JUMP JUMPDEST PUSH0 DUP3 DUP3 MSTORE PUSH1 0x20 DUP3 ADD SWAP1 POP SWAP3 SWAP2 POP POP JUMP JUMPDEST PUSH0 PUSH2 0x1BD3 DUP3 PUSH2 0x19F1 JUMP JUMPDEST PUSH2 0x1BDD DUP2 DUP6 PUSH2 0x1BB9 JUMP JUMPDEST SWAP4 POP PUSH2 0x1BED DUP2 DUP6 PUSH1 0x20 DUP7 ADD PUSH2 0x1A0B JUMP JUMPDEST PUSH2 0x1BF6 DUP2 PUSH2 0x14F3 JUMP JUMPDEST DUP5 ADD SWAP2 POP POP SWAP3 SWAP2 POP POP JUMP JUMPDEST PUSH0 PUSH2 0x1C0C DUP4 DUP4 PUSH2 0x1BC9 JUMP JUMPDEST SWAP1 POP SWAP3 SWAP2 POP POP JUMP JUMPDEST PUSH0 PUSH1 0x20 DUP3 ADD SWAP1 POP SWAP2 SWAP1 POP JUMP JUMPDEST PUSH0 PUSH2 0x1C2A DUP3 PUSH2 0x1B90 JUMP JUMPDEST PUSH2 0x1C34 DUP2 DUP6 PUSH2 0x1B9A JUMP JUMPDEST SWAP4 POP DUP4 PUSH1 0x20 DUP3 MUL DUP6 ADD PUSH2 0x1C46 DUP6 PUSH2 0x1BAA JUMP JUMPDEST DUP1 PUSH0 JUMPDEST DUP6 DUP2 LT ISZERO PUSH2 0x1C81 JUMPI DUP5 DUP5 SUB DUP10 MSTORE DUP2 MLOAD PUSH2 0x1C62 DUP6 DUP3 PUSH2 0x1C01 JUMP JUMPDEST SWAP5 POP PUSH2 0x1C6D DUP4 PUSH2 0x1C14 JUMP JUMPDEST SWAP3 POP PUSH1 0x20 DUP11 ADD SWAP10 POP POP PUSH1 0x1 DUP2 ADD SWAP1 POP PUSH2 0x1C49 JUMP JUMPDEST POP DUP3 SWAP8 POP DUP8 SWAP6 POP POP POP POP POP POP SWAP3 SWAP2 POP POP JUMP JUMPDEST PUSH0 PUSH1 0x80 DUP3 ADD SWAP1 POP PUSH2 0x1CA6 PUSH0 DUP4 ADD DUP8 PUSH2 0x1A6B JUMP JUMPDEST PUSH2 0x1CB3 PUSH1 0x20 DUP4 ADD DUP7 PUSH2 0x1A6B JUMP JUMPDEST DUP2 DUP2 SUB PUSH1 0x40 DUP4 ADD MSTORE PUSH2 0x1CC5 DUP2 DUP6 PUSH2 0x1A33 JUMP JUMPDEST SWAP1 POP DUP2 DUP2 SUB PUSH1 0x60 DUP4 ADD MSTORE PUSH2 0x1CD9 DUP2 DUP5 PUSH2 0x1C20 JUMP JUMPDEST SWAP1 POP SWAP6 SWAP5 POP POP POP POP POP JUMP JUMPDEST PUSH32 0x446F63746F72206163636F756E7420616C726561647920657869737473207769 PUSH0 DUP3 ADD MSTORE PUSH32 0x7468207468697320626C6F636B636861696E2061646472657373000000000000 PUSH1 0x20 DUP3 ADD MSTORE POP JUMP JUMPDEST PUSH0 PUSH2 0x1D3E PUSH1 0x3A DUP4 PUSH2 0x19FB JUMP JUMPDEST SWAP2 POP PUSH2 0x1D49 DUP3 PUSH2 0x1CE4 JUMP JUMPDEST PUSH1 0x40 DUP3 ADD SWAP1 POP SWAP2 SWAP1 POP JUMP JUMPDEST PUSH0 PUSH1 0x20 DUP3 ADD SWAP1 POP DUP2 DUP2 SUB PUSH0 DUP4 ADD MSTORE PUSH2 0x1D6B DUP2 PUSH2 0x1D32 JUMP JUMPDEST SWAP1 POP SWAP2 SWAP1 POP JUMP JUMPDEST PUSH32 0x4E487B7100000000000000000000000000000000000000000000000000000000 PUSH0 MSTORE PUSH1 0x11 PUSH1 0x4 MSTORE PUSH1 0x24 PUSH0 REVERT JUMPDEST PUSH0 PUSH2 0x1DA9 DUP3 PUSH2 0x16CB JUMP JUMPDEST SWAP2 POP PUSH2 0x1DB4 DUP4 PUSH2 0x16CB JUMP JUMPDEST SWAP3 POP DUP3 DUP3 ADD SWAP1 POP DUP1 DUP3 GT ISZERO PUSH2 0x1DCC JUMPI PUSH2 0x1DCB PUSH2 0x1D72 JUMP JUMPDEST JUMPDEST SWAP3 SWAP2 POP POP JUMP JUMPDEST PUSH32 0x4E487B7100000000000000000000000000000000000000000000000000000000 PUSH0 MSTORE PUSH1 0x22 PUSH1 0x4 MSTORE PUSH1 0x24 PUSH0 REVERT JUMPDEST PUSH0 PUSH1 0x2 DUP3 DIV SWAP1 POP PUSH1 0x1 DUP3 AND DUP1 PUSH2 0x1E16 JUMPI PUSH1 0x7F DUP3 AND SWAP2 POP JUMPDEST PUSH1 0x20 DUP3 LT DUP2 SUB PUSH2 0x1E29 JUMPI PUSH2 0x1E28 PUSH2 0x1DD2 JUMP JUMPDEST JUMPDEST POP SWAP2 SWAP1 POP JUMP JUMPDEST PUSH0 DUP2 SWAP1 POP DUP2 PUSH0 MSTORE PUSH1 0x20 PUSH0 KECCAK256 SWAP1 POP SWAP2 SWAP1 POP JUMP JUMPDEST PUSH0 PUSH1 0x20 PUSH1 0x1F DUP4 ADD DIV SWAP1 POP SWAP2 SWAP1 POP JUMP JUMPDEST PUSH0 DUP3 DUP3 SHL SWAP1 POP SWAP3 SWAP2 POP POP JUMP JUMPDEST PUSH0 PUSH1 0x8 DUP4 MUL PUSH2 0x1E8B PUSH32 0xFFFFFFFFFFFFFFFFFFFFFFFFFFFFFFFFFFFFFFFFFFFFFFFFFFFFFFFFFFFFFFFF DUP3 PUSH2 0x1E50 JUMP JUMPDEST PUSH2 0x1E95 DUP7 DUP4 PUSH2 0x1E50 JUMP JUMPDEST SWAP6 POP DUP1 NOT DUP5 AND SWAP4 POP DUP1 DUP7 AND DUP5 OR SWAP3 POP POP POP SWAP4 SWAP3 POP POP POP JUMP JUMPDEST PUSH0 DUP2 SWAP1 POP SWAP2 SWAP1 POP JUMP JUMPDEST PUSH0 PUSH2 0x1ED0 PUSH2 0x1ECB PUSH2 0x1EC6 DUP5 PUSH2 0x16CB JUMP JUMPDEST PUSH2 0x1EAD JUMP JUMPDEST PUSH2 0x16CB JUMP JUMPDEST SWAP1 POP SWAP2 SWAP1 POP JUMP JUMPDEST PUSH0 DUP2 SWAP1 POP SWAP2 SWAP1 POP JUMP JUMPDEST PUSH2 0x1EE9 DUP4 PUSH2 0x1EB6 JUMP JUMPDEST PUSH2 0x1EFD PUSH2 0x1EF5 DUP3 PUSH2 0x1ED7 JUMP JUMPDEST DUP5 DUP5 SLOAD PUSH2 0x1E5C JUMP JUMPDEST DUP3 SSTORE POP POP POP POP JUMP JUMPDEST PUSH0 SWAP1 JUMP JUMPDEST PUSH2 0x1F11 PUSH2 0x1F05 JUMP JUMPDEST PUSH2 0x1F1C DUP2 DUP5 DUP5 PUSH2 0x1EE0 JUMP JUMPDEST POP POP POP JUMP JUMPDEST JUMPDEST DUP2 DUP2 LT ISZERO PUSH2 0x1F3F JUMPI PUSH2 0x1F34 PUSH0 DUP3 PUSH2 0x1F09 JUMP JUMPDEST PUSH1 0x1 DUP2 ADD SWAP1 POP PUSH2 0x1F22 JUMP JUMPDEST POP POP JUMP JUMPDEST PUSH1 0x1F DUP3 GT ISZERO PUSH2 0x1F84 JUMPI PUSH2 0x1F55 DUP2 PUSH2 0x1E2F JUMP JUMPDEST PUSH2 0x1F5E DUP5 PUSH2 0x1E41 JUMP JUMPDEST DUP2 ADD PUSH1 0x20 DUP6 LT ISZERO PUSH2 0x1F6D JUMPI DUP2 SWAP1 POP JUMPDEST PUSH2 0x1F81 PUSH2 0x1F79 DUP6 PUSH2 0x1E41 JUMP JUMPDEST DUP4 ADD DUP3 PUSH2 0x1F21 JUMP JUMPDEST POP POP JUMPDEST POP POP POP JUMP JUMPDEST PUSH0 DUP3 DUP3 SHR SWAP1 POP SWAP3 SWAP2 POP POP JUMP JUMPDEST PUSH0 PUSH2 0x1FA4 PUSH0 NOT DUP5 PUSH1 0x8 MUL PUSH2 0x1F89 JUMP JUMPDEST NOT DUP1 DUP4 AND SWAP2 POP POP SWAP3 SWAP2 POP POP JUMP JUMPDEST PUSH0 PUSH2 0x1FBC DUP4 DUP4 PUSH2 0x1F95 JUMP JUMPDEST SWAP2 POP DUP3 PUSH1 0x2 MUL DUP3 OR SWAP1 POP SWAP3 SWAP2 POP POP JUMP JUMPDEST PUSH2 0x1FD5 DUP3 PUSH2 0x19F1 JUMP JUMPDEST PUSH8 0xFFFFFFFFFFFFFFFF DUP2 GT ISZERO PUSH2 0x1FEE JUMPI PUSH2 0x1FED PUSH2 0x1503 JUMP JUMPDEST JUMPDEST PUSH2 0x1FF8 DUP3 SLOAD PUSH2 0x1DFF JUMP JUMPDEST PUSH2 0x2003 DUP3 DUP3 DUP6 PUSH2 0x1F43 JUMP JUMPDEST PUSH0 PUSH1 0x20 SWAP1 POP PUSH1 0x1F DUP4 GT PUSH1 0x1 DUP2 EQ PUSH2 0x2034 JUMPI PUSH0 DUP5 ISZERO PUSH2 0x2022 JUMPI DUP3 DUP8 ADD MLOAD SWAP1 POP JUMPDEST PUSH2 0x202C DUP6 DUP3 PUSH2 0x1FB1 JUMP JUMPDEST DUP7 SSTORE POP PUSH2 0x2093 JUMP JUMPDEST PUSH1 0x1F NOT DUP5 AND PUSH2 0x2042 DUP7 PUSH2 0x1E2F JUMP JUMPDEST PUSH0 JUMPDEST DUP3 DUP2 LT ISZERO PUSH2 0x2069 JUMPI DUP5 DUP10 ADD MLOAD DUP3 SSTORE PUSH1 0x1 DUP3 ADD SWAP2 POP PUSH1 0x20 DUP6 ADD SWAP5 POP PUSH1 0x20 DUP2 ADD SWAP1 POP PUSH2 0x2044 JUMP JUMPDEST DUP7 DUP4 LT ISZERO PUSH2 0x2086 JUMPI DUP5 DUP10 ADD MLOAD PUSH2 0x2082 PUSH1 0x1F DUP10 AND DUP3 PUSH2 0x1F95 JUMP JUMPDEST DUP4 SSTORE POP JUMPDEST PUSH1 0x1 PUSH1 0x2 DUP9 MUL ADD DUP9 SSTORE POP POP POP JUMPDEST POP POP POP POP POP POP JUMP JUMPDEST PUSH32 0x50617469656E74206163636F756E7420616C7265616479206578697374732077 PUSH0 DUP3 ADD MSTORE PUSH32 0x697468207468697320626C6F636B636861696E20616464726573730000000000 PUSH1 0x20 DUP3 ADD MSTORE POP JUMP JUMPDEST PUSH0 PUSH2 0x20F5 PUSH1 0x3B DUP4 PUSH2 0x19FB JUMP JUMPDEST SWAP2 POP PUSH2 0x2100 DUP3 PUSH2 0x209B JUMP JUMPDEST PUSH1 0x40 DUP3 ADD SWAP1 POP SWAP2 SWAP1 POP JUMP JUMPDEST PUSH0 PUSH1 0x20 DUP3 ADD SWAP1 POP DUP2 DUP2 SUB PUSH0 DUP4 ADD MSTORE PUSH2 0x2122 DUP2 PUSH2 0x20E9 JUMP JUMPDEST SWAP1 POP SWAP2 SWAP1 POP JUMP JUMPDEST PUSH32 0x4D65646963696E65207769746820696420616C72656164792065786973747300 PUSH0 DUP3 ADD MSTORE POP JUMP JUMPDEST PUSH0 PUSH2 0x215D PUSH1 0x1F DUP4 PUSH2 0x19FB JUMP JUMPDEST SWAP2 POP PUSH2 0x2168 DUP3 PUSH2 0x2129 JUMP JUMPDEST PUSH1 0x20 DUP3 ADD SWAP1 POP SWAP2 SWAP1 POP JUMP JUMPDEST PUSH0 PUSH1 0x20 DUP3 ADD SWAP1 POP DUP2 DUP2 SUB PUSH0 DUP4 ADD MSTORE PUSH2 0x218A DUP2 PUSH2 0x2151 JUMP JUMPDEST SWAP1 POP SWAP2 SWAP1 POP JUMP JUMPDEST PUSH0 PUSH2 0x219B DUP3 PUSH2 0x16CB JUMP JUMPDEST SWAP2 POP PUSH32 0xFFFFFFFFFFFFFFFFFFFFFFFFFFFFFFFFFFFFFFFFFFFFFFFFFFFFFFFFFFFFFFFF DUP3 SUB PUSH2 0x21CD JUMPI PUSH2 0x21CC PUSH2 0x1D72 JUMP JUMPDEST JUMPDEST PUSH1 0x1 DUP3 ADD SWAP1 POP SWAP2 SWAP1 POP JUMP JUMPDEST PUSH32 0x50617469656E742077697468206164647265737320646F6573206E6F74206578 PUSH0 DUP3 ADD MSTORE PUSH32 0x6973740000000000000000000000000000000000000000000000000000000000 PUSH1 0x20 DUP3 ADD MSTORE POP JUMP JUMPDEST PUSH0 PUSH2 0x2232 PUSH1 0x23 DUP4 PUSH2 0x19FB JUMP JUMPDEST SWAP2 POP PUSH2 0x223D DUP3 PUSH2 0x21D8 JUMP JUMPDEST PUSH1 0x40 DUP3 ADD SWAP1 POP SWAP2 SWAP1 POP JUMP JUMPDEST PUSH0 PUSH1 0x20 DUP3 ADD SWAP1 POP DUP2 DUP2 SUB PUSH0 DUP4 ADD MSTORE PUSH2 0x225F DUP2 PUSH2 0x2226 JUMP JUMPDEST SWAP1 POP SWAP2 SWAP1 POP JUMP JUMPDEST PUSH32 0x50617469656E74206163636F756E74207769746820626C6F636B636861696E20 PUSH0 DUP3 ADD MSTORE PUSH32 0x6164647265737320646F6573206E6F742065786973742E20506C656173652072 PUSH1 0x20 DUP3 ADD MSTORE PUSH32 0x6567697374657200000000000000000000000000000000000000000000000000 PUSH1 0x40 DUP3 ADD MSTORE POP JUMP JUMPDEST PUSH0 PUSH2 0x22E6 PUSH1 0x47 DUP4 PUSH2 0x19FB JUMP JUMPDEST SWAP2 POP PUSH2 0x22F1 DUP3 PUSH2 0x2266 JUMP JUMPDEST PUSH1 0x60 DUP3 ADD SWAP1 POP SWAP2 SWAP1 POP JUMP JUMPDEST PUSH0 PUSH1 0x20 DUP3 ADD SWAP1 POP DUP2 DUP2 SUB PUSH0 DUP4 ADD MSTORE PUSH2 0x2313 DUP2 PUSH2 0x22DA JUMP JUMPDEST SWAP1 POP SWAP2 SWAP1 POP JUMP JUMPDEST PUSH32 0x4D65646963696E65207769746820696420646F6573206E6F7420657869737400 PUSH0 DUP3 ADD MSTORE POP JUMP JUMPDEST PUSH0 PUSH2 0x234E PUSH1 0x1F DUP4 PUSH2 0x19FB JUMP JUMPDEST SWAP2 POP PUSH2 0x2359 DUP3 PUSH2 0x231A JUMP JUMPDEST PUSH1 0x20 DUP3 ADD SWAP1 POP SWAP2 SWAP1 POP JUMP JUMPDEST PUSH0 PUSH1 0x20 DUP3 ADD SWAP1 POP DUP2 DUP2 SUB PUSH0 DUP4 ADD MSTORE PUSH2 0x237B DUP2 PUSH2 0x2342 JUMP JUMPDEST SWAP1 POP SWAP2 SWAP1 POP JUMP JUMPDEST PUSH32 0x446F63746F72207769746820696420646F6573206E6F74206578697374000000 PUSH0 DUP3 ADD MSTORE POP JUMP JUMPDEST PUSH0 PUSH2 0x23B6 PUSH1 0x1D DUP4 PUSH2 0x19FB JUMP JUMPDEST SWAP2 POP PUSH2 0x23C1 DUP3 PUSH2 0x2382 JUMP JUMPDEST PUSH1 0x20 DUP3 ADD SWAP1 POP SWAP2 SWAP1 POP JUMP JUMPDEST PUSH0 PUSH1 0x20 DUP3 ADD SWAP1 POP DUP2 DUP2 SUB PUSH0 DUP4 ADD MSTORE PUSH2 0x23E3 DUP2 PUSH2 0x23AA JUMP JUMPDEST SWAP1 POP SWAP2 SWAP1 POP JUMP JUMPDEST PUSH32 0x50617469656E74207769746820696420646F6573206E6F742065786973740000 PUSH0 DUP3 ADD MSTORE POP JUMP JUMPDEST PUSH0 PUSH2 0x241E PUSH1 0x1E DUP4 PUSH2 0x19FB JUMP JUMPDEST SWAP2 POP PUSH2 0x2429 DUP3 PUSH2 0x23EA JUMP JUMPDEST PUSH1 0x20 DUP3 ADD SWAP1 POP SWAP2 SWAP1 POP JUMP JUMPDEST PUSH0 PUSH1 0x20 DUP3 ADD SWAP1 POP DUP2 DUP2 SUB PUSH0 DUP4 ADD MSTORE PUSH2 0x244B DUP2 PUSH2 0x2412 JUMP JUMPDEST SWAP1 POP SWAP2 SWAP1 POP JUMP INVALID LOG2 PUSH5 0x6970667358 0x22 SLT KECCAK256 0xB6 0xF8 COINBASE SSTORE XOR 0xC4 SLT RETURNDATASIZE 0xE7 MULMOD 0xE2 DUP1 AND CODESIZE PREVRANDAO DUP8 DUP8 SELFBALANCE MULMOD SHR SWAP2 0x4A 0x4C TIMESTAMP AND EXTCODEHASH 0x2E DUP3 0xDA SHR 0xAC CALLDATACOPY PUSH5 0x736F6C6343 STOP ADDMOD AND STOP CALLER "
		},
		"gasEstimates": {
			"creation": {
				"codeDepositCost": "1870400",
				"executionCost": "41254",
				"totalCost": "1911654"
			},
			"external": {
				"addMedicine(uint256,string,string,string,uint256)": "infinite",
				"addPatientDisease(string)": "infinite",
				"contractOwner()": "2527",
				"prescribeMedicine(uint256,address)": "53832",
				"registerNewDoctor(string,string,string)": "infinite",
				"registerNewPatient(string,uint256)": "infinite",
				"updatePatientDetails(uint256)": "27116",
				"viewDoctorDetails(uint256)": "infinite",
				"viewMedicineDetails(uint256)": "infinite",
				"viewPatientDataSelf()": "infinite",
				"viewPatientDatabyDoctor(uint256)": "infinite",
				"viewPatientMedicines(address)": "infinite"
			}
		},
		"methodIdentifiers": {
			"addMedicine(uint256,string,string,string,uint256)": "75f49529",
			"addPatientDisease(string)": "a9ed3ff9",
			"contractOwner()": "ce606ee0",
			"prescribeMedicine(uint256,address)": "dcd0c2b2",
			"registerNewDoctor(string,string,string)": "46216098",
			"registerNewPatient(string,uint256)": "5ef2322d",
			"updatePatientDetails(uint256)": "ba5e7f7f",
			"viewDoctorDetails(uint256)": "d5cfcb06",
			"viewMedicineDetails(uint256)": "cc7fa220",
			"viewPatientDataSelf()": "f770da3a",
			"viewPatientDatabyDoctor(uint256)": "eddf3774",
			"viewPatientMedicines(address)": "791264ad"
		}
	},
	"abi": [
		{
			"inputs": [],
			"stateMutability": "nonpayable",
			"type": "constructor"
		},
		{
			"inputs": [
				{
					"internalType": "uint256",
					"name": "_id",
					"type": "uint256"
				},
				{
					"internalType": "string",
					"name": "_name",
					"type": "string"
				},
				{
					"internalType": "string",
					"name": "_expiryDate",
					"type": "string"
				},
				{
					"internalType": "string",
					"name": "_dose",
					"type": "string"
				},
				{
					"internalType": "uint256",
					"name": "_price",
					"type": "uint256"
				}
			],
			"name": "addMedicine",
			"outputs": [],
			"stateMutability": "nonpayable",
			"type": "function"
		},
		{
			"inputs": [
				{
					"internalType": "string",
					"name": "_disease",
					"type": "string"
				}
			],
			"name": "addPatientDisease",
			"outputs": [],
			"stateMutability": "nonpayable",
			"type": "function"
		},
		{
			"inputs": [],
			"name": "contractOwner",
			"outputs": [
				{
					"internalType": "address",
					"name": "",
					"type": "address"
				}
			],
			"stateMutability": "view",
			"type": "function"
		},
		{
			"inputs": [
				{
					"internalType": "uint256",
					"name": "_medicineId",
					"type": "uint256"
				},
				{
					"internalType": "address",
					"name": "_patientAddress",
					"type": "address"
				}
			],
			"name": "prescribeMedicine",
			"outputs": [],
			"stateMutability": "nonpayable",
			"type": "function"
		},
		{
			"inputs": [
				{
					"internalType": "string",
					"name": "_name",
					"type": "string"
				},
				{
					"internalType": "string",
					"name": "_qualification",
					"type": "string"
				},
				{
					"internalType": "string",
					"name": "_workPlace",
					"type": "string"
				}
			],
			"name": "registerNewDoctor",
			"outputs": [],
			"stateMutability": "nonpayable",
			"type": "function"
		},
		{
			"inputs": [
				{
					"internalType": "string",
					"name": "_name",
					"type": "string"
				},
				{
					"internalType": "uint256",
					"name": "_age",
					"type": "uint256"
				}
			],
			"name": "registerNewPatient",
			"outputs": [],
			"stateMutability": "nonpayable",
			"type": "function"
		},
		{
			"inputs": [
				{
					"internalType": "uint256",
					"name": "_age",
					"type": "uint256"
				}
			],
			"name": "updatePatientDetails",
			"outputs": [],
			"stateMutability": "nonpayable",
			"type": "function"
		},
		{
			"inputs": [
				{
					"internalType": "uint256",
					"name": "_doctorId",
					"type": "uint256"
				}
			],
			"name": "viewDoctorDetails",
			"outputs": [
				{
					"internalType": "uint256",
					"name": "doctorId",
					"type": "uint256"
				},
				{
					"internalType": "string",
					"name": "name",
					"type": "string"
				},
				{
					"internalType": "string",
					"name": "qualification",
					"type": "string"
				},
				{
					"internalType": "string",
					"name": "workPlace",
					"type": "string"
				}
			],
			"stateMutability": "view",
			"type": "function"
		},
		{
			"inputs": [
				{
					"internalType": "uint256",
					"name": "_medicineId",
					"type": "uint256"
				}
			],
			"name": "viewMedicineDetails",
			"outputs": [
				{
					"internalType": "string",
					"name": "name",
					"type": "string"
				},
				{
					"internalType": "string",
					"name": "expiryDate",
					"type": "string"
				},
				{
					"internalType": "string",
					"name": "dose",
					"type": "string"
				},
				{
					"internalType": "uint256",
					"name": "price",
					"type": "uint256"
				}
			],
			"stateMutability": "view",
			"type": "function"
		},
		{
			"inputs": [],
			"name": "viewPatientDataSelf",
			"outputs": [
				{
					"internalType": "uint256",
					"name": "patientId",
					"type": "uint256"
				},
				{
					"internalType": "uint256",
					"name": "age",
					"type": "uint256"
				},
				{
					"internalType": "string",
					"name": "name",
					"type": "string"
				},
				{
					"internalType": "string[]",
					"name": "diseases",
					"type": "string[]"
				}
			],
			"stateMutability": "view",
			"type": "function"
		},
		{
			"inputs": [
				{
					"internalType": "uint256",
					"name": "_patientId",
					"type": "uint256"
				}
			],
			"name": "viewPatientDatabyDoctor",
			"outputs": [
				{
					"internalType": "uint256",
					"name": "patientId",
					"type": "uint256"
				},
				{
					"internalType": "uint256",
					"name": "age",
					"type": "uint256"
				},
				{
					"internalType": "string",
					"name": "name",
					"type": "string"
				},
				{
					"internalType": "string[]",
					"name": "diseases",
					"type": "string[]"
				}
			],
			"stateMutability": "view",
			"type": "function"
		},
		{
			"inputs": [
				{
					"internalType": "address",
					"name": "_patientAddress",
					"type": "address"
				}
			],
			"name": "viewPatientMedicines",
			"outputs": [
				{
					"internalType": "uint256[]",
					"name": "meds",
					"type": "uint256[]"
				}
			],
			"stateMutability": "view",
			"type": "function"
		}
	]
}